{
  "name": "GameFactory",
  "bytecode": {
    "linkReferences": {},
    "object": "60806040525f6001553480156012575f80fd5b50614bae806100205f395ff3fe60806040526004361061007a575f3560e01c8063c04c59471161004d578063c04c594714610134578063c379cd781461015e578063dbef652814610188578063e14b7287146101a45761007a565b80632a60d6ca1461007e578063396130b9146100a65780637fd6145c146100e25780638d00fe0b1461011e575b5f80fd5b348015610089575f80fd5b506100a4600480360381019061009f919061160d565b6101e0565b005b3480156100b1575f80fd5b506100cc60048036038101906100c791906116f4565b610517565b6040516100d99190611755565b60405180910390f35b3480156100ed575f80fd5b50610108600480360381019061010391906116f4565b61064a565b60405161011591906118b0565b60405180910390f35b348015610129575f80fd5b50610132610952565b005b34801561013f575f80fd5b50610148610ad0565b6040516101559190611a1f565b60405180910390f35b348015610169575f80fd5b50610172610e17565b60405161017f9190611a4e565b60405180910390f35b6101a2600480360381019061019d91906116f4565b610e23565b005b3480156101af575f80fd5b506101ca60048036038101906101c59190611b5e565b61127e565b6040516101d79190611755565b60405180910390f35b5f73ffffffffffffffffffffffffffffffffffffffff166002866040516102079190611bdf565b90815260200160405180910390205f015f9054906101000a900473ffffffffffffffffffffffffffffffffffffffff1673ffffffffffffffffffffffffffffffffffffffff1614610284576040517f5f4be31c00000000000000000000000000000000000000000000000000000000815260040160405180910390fd5b5f84848360405161029490611421565b6102a093929190611c3d565b604051809103905ff0801580156102b9573d5f803e3d5ffd5b5090508073ffffffffffffffffffffffffffffffffffffffff16636a627842336040518263ffffffff1660e01b81526004016102f59190611c96565b5f604051808303815f87803b15801561030c575f80fd5b505af115801561031e573d5f803e3d5ffd5b505050506040518060c001604052803373ffffffffffffffffffffffffffffffffffffffff1681526020018781526020018273ffffffffffffffffffffffffffffffffffffffff1681526020018681526020018481526020018381525060028760405161038b9190611bdf565b90815260200160405180910390205f820151815f015f6101000a81548173ffffffffffffffffffffffffffffffffffffffff021916908373ffffffffffffffffffffffffffffffffffffffff16021790555060208201518160010190816103f29190611ea9565b506040820151816002015f6101000a81548173ffffffffffffffffffffffffffffffffffffffff021916908373ffffffffffffffffffffffffffffffffffffffff160217905550606082015181600301908161044e9190611ea9565b506080820151816004015560a082015181600501908161046e9190611ea9565b50905050600386908060018154018082558091505060019003905f5260205f20015f9091909190915090816104a39190611ea9565b508073ffffffffffffffffffffffffffffffffffffffff16866040516104c99190611bdf565b604051809103902060016003805490506104e39190611fa5565b7f1b53114c999ded51a67e2c46b7aba69bd40e2d7a5b1e3e4a8b7f12c122ff3a5060405160405180910390a4505050505050565b5f806002836040516105299190611bdf565b90815260200160405180910390206002015f9054906101000a900473ffffffffffffffffffffffffffffffffffffffff1690505f73ffffffffffffffffffffffffffffffffffffffff168173ffffffffffffffffffffffffffffffffffffffff16036105c1576040517f57e25a0900000000000000000000000000000000000000000000000000000000815260040160405180910390fd5b5f81905060018173ffffffffffffffffffffffffffffffffffffffff166370a08231336040518263ffffffff1660e01b81526004016106009190611c96565b602060405180830381865afa15801561061b573d5f803e3d5ffd5b505050506040513d601f19601f8201168201806040525081019061063f9190611fec565b101592505050919050565b61065261142e565b5f6002836040516106639190611bdf565b90815260200160405180910390206040518060c00160405290815f82015f9054906101000a900473ffffffffffffffffffffffffffffffffffffffff1673ffffffffffffffffffffffffffffffffffffffff1673ffffffffffffffffffffffffffffffffffffffff1681526020016001820180546106e090611cdc565b80601f016020809104026020016040519081016040528092919081815260200182805461070c90611cdc565b80156107575780601f1061072e57610100808354040283529160200191610757565b820191905f5260205f20905b81548152906001019060200180831161073a57829003601f168201915b50505050508152602001600282015f9054906101000a900473ffffffffffffffffffffffffffffffffffffffff1673ffffffffffffffffffffffffffffffffffffffff1673ffffffffffffffffffffffffffffffffffffffff1681526020016003820180546107c590611cdc565b80601f01602080910402602001604051908101604052809291908181526020018280546107f190611cdc565b801561083c5780601f106108135761010080835404028352916020019161083c565b820191905f5260205f20905b81548152906001019060200180831161081f57829003601f168201915b505050505081526020016004820154815260200160058201805461085f90611cdc565b80601f016020809104026020016040519081016040528092919081815260200182805461088b90611cdc565b80156108d65780601f106108ad576101008083540402835291602001916108d6565b820191905f5260205f20905b8154815290600101906020018083116108b957829003601f168201915b50505050508152505090505f73ffffffffffffffffffffffffffffffffffffffff16815f015173ffffffffffffffffffffffffffffffffffffffff1603610949576040517f57e25a0900000000000000000000000000000000000000000000000000000000815260040160405180910390fd5b80915050919050565b5f60045f3373ffffffffffffffffffffffffffffffffffffffff1673ffffffffffffffffffffffffffffffffffffffff1681526020019081526020015f2054036109c8576040517f356680b700000000000000000000000000000000000000000000000000000000815260040160405180910390fd5b3373ffffffffffffffffffffffffffffffffffffffff166108fc60045f3373ffffffffffffffffffffffffffffffffffffffff1673ffffffffffffffffffffffffffffffffffffffff1681526020019081526020015f205490811502906040515f60405180830381858888f19350505050158015610a48573d5f803e3d5ffd5b505f60045f3373ffffffffffffffffffffffffffffffffffffffff1673ffffffffffffffffffffffffffffffffffffffff1681526020019081526020015f20819055503373ffffffffffffffffffffffffffffffffffffffff167fc43456380866b66f35f174ab56efabbeb1145c4bbf6fe8047c2590e378346ef760405160405180910390a2565b60605f60038054905067ffffffffffffffff811115610af257610af16114b6565b5b604051908082528060200260200182016040528015610b2b57816020015b610b1861142e565b815260200190600190039081610b105790505b5090505f5b600380549050811015610e0f57600260038281548110610b5357610b52612017565b5b905f5260205f2001604051610b6891906120c4565b90815260200160405180910390206040518060c00160405290815f82015f9054906101000a900473ffffffffffffffffffffffffffffffffffffffff1673ffffffffffffffffffffffffffffffffffffffff1673ffffffffffffffffffffffffffffffffffffffff168152602001600182018054610be590611cdc565b80601f0160208091040260200160405190810160405280929190818152602001828054610c1190611cdc565b8015610c5c5780601f10610c3357610100808354040283529160200191610c5c565b820191905f5260205f20905b815481529060010190602001808311610c3f57829003601f168201915b50505050508152602001600282015f9054906101000a900473ffffffffffffffffffffffffffffffffffffffff1673ffffffffffffffffffffffffffffffffffffffff1673ffffffffffffffffffffffffffffffffffffffff168152602001600382018054610cca90611cdc565b80601f0160208091040260200160405190810160405280929190818152602001828054610cf690611cdc565b8015610d415780601f10610d1857610100808354040283529160200191610d41565b820191905f5260205f20905b815481529060010190602001808311610d2457829003601f168201915b5050505050815260200160048201548152602001600582018054610d6490611cdc565b80601f0160208091040260200160405190810160405280929190818152602001828054610d9090611cdc565b8015610ddb5780601f10610db257610100808354040283529160200191610ddb565b820191905f5260205f20905b815481529060010190602001808311610dbe57829003601f168201915b505050505081525050828281518110610df757610df6612017565b5b60200260200101819052508080600101915050610b30565b508091505090565b5f600380549050905090565b5f600282604051610e349190611bdf565b90815260200160405180910390206040518060c00160405290815f82015f9054906101000a900473ffffffffffffffffffffffffffffffffffffffff1673ffffffffffffffffffffffffffffffffffffffff1673ffffffffffffffffffffffffffffffffffffffff168152602001600182018054610eb190611cdc565b80601f0160208091040260200160405190810160405280929190818152602001828054610edd90611cdc565b8015610f285780601f10610eff57610100808354040283529160200191610f28565b820191905f5260205f20905b815481529060010190602001808311610f0b57829003601f168201915b50505050508152602001600282015f9054906101000a900473ffffffffffffffffffffffffffffffffffffffff1673ffffffffffffffffffffffffffffffffffffffff1673ffffffffffffffffffffffffffffffffffffffff168152602001600382018054610f9690611cdc565b80601f0160208091040260200160405190810160405280929190818152602001828054610fc290611cdc565b801561100d5780601f10610fe45761010080835404028352916020019161100d565b820191905f5260205f20905b815481529060010190602001808311610ff057829003601f168201915b505050505081526020016004820154815260200160058201805461103090611cdc565b80601f016020809104026020016040519081016040528092919081815260200182805461105c90611cdc565b80156110a75780601f1061107e576101008083540402835291602001916110a7565b820191905f5260205f20905b81548152906001019060200180831161108a57829003601f168201915b50505050508152505090505f73ffffffffffffffffffffffffffffffffffffffff16815f015173ffffffffffffffffffffffffffffffffffffffff160361111a576040517f57e25a0900000000000000000000000000000000000000000000000000000000815260040160405180910390fd5b8060800151341015611158576040517f356680b700000000000000000000000000000000000000000000000000000000815260040160405180910390fd5b806080015160045f835f015173ffffffffffffffffffffffffffffffffffffffff1673ffffffffffffffffffffffffffffffffffffffff1681526020019081526020015f205f8282546111ab91906120da565b925050819055505f816040015190508073ffffffffffffffffffffffffffffffffffffffff16636a627842336040518263ffffffff1660e01b81526004016111f39190611c96565b5f604051808303815f87803b15801561120a575f80fd5b505af115801561121c573d5f803e3d5ffd5b505050503373ffffffffffffffffffffffffffffffffffffffff16836040516112459190611bdf565b60405180910390207fbe5bacc9ccf0e6b2195fb4eef26c0562a005dcdd2c5d064fd26d76de3849920f60405160405180910390a3505050565b5f80611289836113be565b90505f60028260405161129c9190611bdf565b90815260200160405180910390206002015f9054906101000a900473ffffffffffffffffffffffffffffffffffffffff1690505f73ffffffffffffffffffffffffffffffffffffffff168173ffffffffffffffffffffffffffffffffffffffff1603611334576040517f57e25a0900000000000000000000000000000000000000000000000000000000815260040160405180910390fd5b5f81905060018173ffffffffffffffffffffffffffffffffffffffff166370a08231336040518263ffffffff1660e01b81526004016113739190611c96565b602060405180830381865afa15801561138e573d5f803e3d5ffd5b505050506040513d601f19601f820116820180604052508101906113b29190611fec565b10159350505050919050565b6060805f5b835181101561141757818482815181106113e0576113df612017565b5b60200260200101516040516020016113f9929190612171565b604051602081830303815290604052915080806001019150506113c3565b5080915050919050565b6129e08061219983390190565b6040518060c001604052805f73ffffffffffffffffffffffffffffffffffffffff168152602001606081526020015f73ffffffffffffffffffffffffffffffffffffffff168152602001606081526020015f8152602001606081525090565b5f604051905090565b5f80fd5b5f80fd5b5f80fd5b5f80fd5b5f601f19601f8301169050919050565b7f4e487b71000000000000000000000000000000000000000000000000000000005f52604160045260245ffd5b6114ec826114a6565b810181811067ffffffffffffffff8211171561150b5761150a6114b6565b5b80604052505050565b5f61151d61148d565b905061152982826114e3565b919050565b5f67ffffffffffffffff821115611548576115476114b6565b5b611551826114a6565b9050602081019050919050565b828183375f83830152505050565b5f61157e6115798461152e565b611514565b90508281526020810184848401111561159a576115996114a2565b5b6115a584828561155e565b509392505050565b5f82601f8301126115c1576115c061149e565b5b81356115d184826020860161156c565b91505092915050565b5f819050919050565b6115ec816115da565b81146115f6575f80fd5b50565b5f81359050611607816115e3565b92915050565b5f805f805f60a0868803121561162657611625611496565b5b5f86013567ffffffffffffffff8111156116435761164261149a565b5b61164f888289016115ad565b955050602086013567ffffffffffffffff8111156116705761166f61149a565b5b61167c888289016115ad565b945050604086013567ffffffffffffffff81111561169d5761169c61149a565b5b6116a9888289016115ad565b93505060606116ba888289016115f9565b925050608086013567ffffffffffffffff8111156116db576116da61149a565b5b6116e7888289016115ad565b9150509295509295909350565b5f6020828403121561170957611708611496565b5b5f82013567ffffffffffffffff8111156117265761172561149a565b5b611732848285016115ad565b91505092915050565b5f8115159050919050565b61174f8161173b565b82525050565b5f6020820190506117685f830184611746565b92915050565b5f73ffffffffffffffffffffffffffffffffffffffff82169050919050565b5f6117978261176e565b9050919050565b6117a78161178d565b82525050565b5f81519050919050565b5f82825260208201905092915050565b8281835e5f83830152505050565b5f6117df826117ad565b6117e981856117b7565b93506117f98185602086016117c7565b611802816114a6565b840191505092915050565b611816816115da565b82525050565b5f60c083015f8301516118315f86018261179e565b506020830151848203602086015261184982826117d5565b915050604083015161185e604086018261179e565b506060830151848203606086015261187682826117d5565b915050608083015161188b608086018261180d565b5060a083015184820360a08601526118a382826117d5565b9150508091505092915050565b5f6020820190508181035f8301526118c8818461181c565b905092915050565b5f81519050919050565b5f82825260208201905092915050565b5f819050602082019050919050565b5f60c083015f83015161190e5f86018261179e565b506020830151848203602086015261192682826117d5565b915050604083015161193b604086018261179e565b506060830151848203606086015261195382826117d5565b9150506080830151611968608086018261180d565b5060a083015184820360a086015261198082826117d5565b9150508091505092915050565b5f61199883836118f9565b905092915050565b5f602082019050919050565b5f6119b6826118d0565b6119c081856118da565b9350836020820285016119d2856118ea565b805f5b85811015611a0d57848403895281516119ee858261198d565b94506119f9836119a0565b925060208a019950506001810190506119d5565b50829750879550505050505092915050565b5f6020820190508181035f830152611a3781846119ac565b905092915050565b611a48816115da565b82525050565b5f602082019050611a615f830184611a3f565b92915050565b5f67ffffffffffffffff821115611a8157611a806114b6565b5b602082029050602081019050919050565b5f80fd5b5f819050919050565b611aa881611a96565b8114611ab2575f80fd5b50565b5f81359050611ac381611a9f565b92915050565b5f611adb611ad684611a67565b611514565b90508083825260208201905060208402830185811115611afe57611afd611a92565b5b835b81811015611b275780611b138882611ab5565b845260208401935050602081019050611b00565b5050509392505050565b5f82601f830112611b4557611b4461149e565b5b8135611b55848260208601611ac9565b91505092915050565b5f60208284031215611b7357611b72611496565b5b5f82013567ffffffffffffffff811115611b9057611b8f61149a565b5b611b9c84828501611b31565b91505092915050565b5f81905092915050565b5f611bb9826117ad565b611bc38185611ba5565b9350611bd38185602086016117c7565b80840191505092915050565b5f611bea8284611baf565b915081905092915050565b5f82825260208201905092915050565b5f611c0f826117ad565b611c198185611bf5565b9350611c298185602086016117c7565b611c32816114a6565b840191505092915050565b5f6060820190508181035f830152611c558186611c05565b90508181036020830152611c698185611c05565b90508181036040830152611c7d8184611c05565b9050949350505050565b611c908161178d565b82525050565b5f602082019050611ca95f830184611c87565b92915050565b7f4e487b71000000000000000000000000000000000000000000000000000000005f52602260045260245ffd5b5f6002820490506001821680611cf357607f821691505b602082108103611d0657611d05611caf565b5b50919050565b5f819050815f5260205f209050919050565b5f6020601f8301049050919050565b5f82821b905092915050565b5f60088302611d687fffffffffffffffffffffffffffffffffffffffffffffffffffffffffffffffff82611d2d565b611d728683611d2d565b95508019841693508086168417925050509392505050565b5f819050919050565b5f611dad611da8611da3846115da565b611d8a565b6115da565b9050919050565b5f819050919050565b611dc683611d93565b611dda611dd282611db4565b848454611d39565b825550505050565b5f90565b611dee611de2565b611df9818484611dbd565b505050565b5b81811015611e1c57611e115f82611de6565b600181019050611dff565b5050565b601f821115611e6157611e3281611d0c565b611e3b84611d1e565b81016020851015611e4a578190505b611e5e611e5685611d1e565b830182611dfe565b50505b505050565b5f82821c905092915050565b5f611e815f1984600802611e66565b1980831691505092915050565b5f611e998383611e72565b9150826002028217905092915050565b611eb2826117ad565b67ffffffffffffffff811115611ecb57611eca6114b6565b5b611ed58254611cdc565b611ee0828285611e20565b5f60209050601f831160018114611f11575f8415611eff578287015190505b611f098582611e8e565b865550611f70565b601f198416611f1f86611d0c565b5f5b82811015611f4657848901518255600182019150602085019450602081019050611f21565b86831015611f635784890151611f5f601f891682611e72565b8355505b6001600288020188555050505b505050505050565b7f4e487b71000000000000000000000000000000000000000000000000000000005f52601160045260245ffd5b5f611faf826115da565b9150611fba836115da565b9250828203905081811115611fd257611fd1611f78565b5b92915050565b5f81519050611fe6816115e3565b92915050565b5f6020828403121561200157612000611496565b5b5f61200e84828501611fd8565b91505092915050565b7f4e487b71000000000000000000000000000000000000000000000000000000005f52603260045260245ffd5b5f815461205081611cdc565b61205a8186611ba5565b9450600182165f81146120745760018114612089576120bb565b60ff19831686528115158202860193506120bb565b61209285611d0c565b5f5b838110156120b357815481890152600182019150602081019050612094565b838801955050505b50505092915050565b5f6120cf8284612044565b915081905092915050565b5f6120e4826115da565b91506120ef836115da565b925082820190508082111561210757612106611f78565b5b92915050565b5f81519050919050565b5f81905092915050565b5f61212b8261210d565b6121358185612117565b93506121458185602086016117c7565b80840191505092915050565b5f819050919050565b61216b61216682611a96565b612151565b82525050565b5f61217c8285612121565b9150612188828461215a565b602082019150819050939250505056fe608060405234801561000f575f80fd5b506040516129e03803806129e0833981810160405281019061003191906102fd565b338383815f908161004291906105ae565b50806001908161005291906105ae565b5050505f73ffffffffffffffffffffffffffffffffffffffff168173ffffffffffffffffffffffffffffffffffffffff16036100c5575f6040517f1e4fbdf70000000000000000000000000000000000000000000000000000000081526004016100bc91906106bc565b60405180910390fd5b6100d4816100ed60201b60201c565b5080600890816100e491906105ae565b505050506106d5565b5f60065f9054906101000a900473ffffffffffffffffffffffffffffffffffffffff1690508160065f6101000a81548173ffffffffffffffffffffffffffffffffffffffff021916908373ffffffffffffffffffffffffffffffffffffffff1602179055508173ffffffffffffffffffffffffffffffffffffffff168173ffffffffffffffffffffffffffffffffffffffff167f8be0079c531659141344cd1fd0a4f28419497f9722a3daafe3b4186f6b6457e060405160405180910390a35050565b5f604051905090565b5f80fd5b5f80fd5b5f80fd5b5f80fd5b5f601f19601f8301169050919050565b7f4e487b71000000000000000000000000000000000000000000000000000000005f52604160045260245ffd5b61020f826101c9565b810181811067ffffffffffffffff8211171561022e5761022d6101d9565b5b80604052505050565b5f6102406101b0565b905061024c8282610206565b919050565b5f67ffffffffffffffff82111561026b5761026a6101d9565b5b610274826101c9565b9050602081019050919050565b8281835e5f83830152505050565b5f6102a161029c84610251565b610237565b9050828152602081018484840111156102bd576102bc6101c5565b5b6102c8848285610281565b509392505050565b5f82601f8301126102e4576102e36101c1565b5b81516102f484826020860161028f565b91505092915050565b5f805f60608486031215610314576103136101b9565b5b5f84015167ffffffffffffffff811115610331576103306101bd565b5b61033d868287016102d0565b935050602084015167ffffffffffffffff81111561035e5761035d6101bd565b5b61036a868287016102d0565b925050604084015167ffffffffffffffff81111561038b5761038a6101bd565b5b610397868287016102d0565b9150509250925092565b5f81519050919050565b7f4e487b71000000000000000000000000000000000000000000000000000000005f52602260045260245ffd5b5f60028204905060018216806103ef57607f821691505b602082108103610402576104016103ab565b5b50919050565b5f819050815f5260205f209050919050565b5f6020601f8301049050919050565b5f82821b905092915050565b5f600883026104647fffffffffffffffffffffffffffffffffffffffffffffffffffffffffffffffff82610429565b61046e8683610429565b95508019841693508086168417925050509392505050565b5f819050919050565b5f819050919050565b5f6104b26104ad6104a884610486565b61048f565b610486565b9050919050565b5f819050919050565b6104cb83610498565b6104df6104d7826104b9565b848454610435565b825550505050565b5f90565b6104f36104e7565b6104fe8184846104c2565b505050565b5b81811015610521576105165f826104eb565b600181019050610504565b5050565b601f8211156105665761053781610408565b6105408461041a565b8101602085101561054f578190505b61056361055b8561041a565b830182610503565b50505b505050565b5f82821c905092915050565b5f6105865f198460080261056b565b1980831691505092915050565b5f61059e8383610577565b9150826002028217905092915050565b6105b7826103a1565b67ffffffffffffffff8111156105d0576105cf6101d9565b5b6105da82546103d8565b6105e5828285610525565b5f60209050601f831160018114610616575f8415610604578287015190505b61060e8582610593565b865550610675565b601f19841661062486610408565b5f5b8281101561064b57848901518255600182019150602085019450602081019050610626565b868310156106685784890151610664601f891682610577565b8355505b6001600288020188555050505b505050505050565b5f73ffffffffffffffffffffffffffffffffffffffff82169050919050565b5f6106a68261067d565b9050919050565b6106b68161069c565b82525050565b5f6020820190506106cf5f8301846106ad565b92915050565b6122fe806106e25f395ff3fe608060405234801561000f575f80fd5b5060043610610109575f3560e01c806370a08231116100a0578063a22cb4651161006f578063a22cb465146102a1578063b88d4fde146102bd578063c87b56dd146102d9578063e985e9c514610309578063f2fde38b1461033957610109565b806370a082311461022b578063715018a61461025b5780638da5cb5b1461026557806395d89b411461028357610109565b806323b872dd116100dc57806323b872dd146101a757806342842e0e146101c35780636352211e146101df5780636a6278421461020f57610109565b806301ffc9a71461010d57806306fdde031461013d578063081812fc1461015b578063095ea7b31461018b575b5f80fd5b61012760048036038101906101229190611778565b610355565b60405161013491906117bd565b60405180910390f35b610145610436565b6040516101529190611846565b60405180910390f35b61017560048036038101906101709190611899565b6104c5565b6040516101829190611903565b60405180910390f35b6101a560048036038101906101a09190611946565b6104e0565b005b6101c160048036038101906101bc9190611984565b6104f6565b005b6101dd60048036038101906101d89190611984565b6105f5565b005b6101f960048036038101906101f49190611899565b610614565b6040516102069190611903565b60405180910390f35b610229600480360381019061022491906119d4565b610625565b005b610245600480360381019061024091906119d4565b610653565b6040516102529190611a0e565b60405180910390f35b610263610709565b005b61026d61071c565b60405161027a9190611903565b60405180910390f35b61028b610744565b6040516102989190611846565b60405180910390f35b6102bb60048036038101906102b69190611a51565b6107d4565b005b6102d760048036038101906102d29190611bbb565b6107ea565b005b6102f360048036038101906102ee9190611899565b610807565b6040516103009190611846565b60405180910390f35b610323600480360381019061031e9190611c3b565b610874565b60405161033091906117bd565b60405180910390f35b610353600480360381019061034e91906119d4565b610902565b005b5f7f80ac58cd000000000000000000000000000000000000000000000000000000007bffffffffffffffffffffffffffffffffffffffffffffffffffffffff1916827bffffffffffffffffffffffffffffffffffffffffffffffffffffffff1916148061041f57507f5b5e139f000000000000000000000000000000000000000000000000000000007bffffffffffffffffffffffffffffffffffffffffffffffffffffffff1916827bffffffffffffffffffffffffffffffffffffffffffffffffffffffff1916145b8061042f575061042e82610986565b5b9050919050565b60605f805461044490611ca6565b80601f016020809104026020016040519081016040528092919081815260200182805461047090611ca6565b80156104bb5780601f10610492576101008083540402835291602001916104bb565b820191905f5260205f20905b81548152906001019060200180831161049e57829003601f168201915b5050505050905090565b5f6104cf826109ef565b506104d982610a75565b9050919050565b6104f282826104ed610aae565b610ab5565b5050565b5f73ffffffffffffffffffffffffffffffffffffffff168273ffffffffffffffffffffffffffffffffffffffff1603610566575f6040517f64a0ae9200000000000000000000000000000000000000000000000000000000815260040161055d9190611903565b60405180910390fd5b5f6105798383610574610aae565b610ac7565b90508373ffffffffffffffffffffffffffffffffffffffff168173ffffffffffffffffffffffffffffffffffffffff16146105ef578382826040517f64283d7b0000000000000000000000000000000000000000000000000000000081526004016105e693929190611cd6565b60405180910390fd5b50505050565b61060f83838360405180602001604052805f8152506107ea565b505050565b5f61061e826109ef565b9050919050565b61062d610cd2565b61063981600754610d59565b60075f81548092919061064b90611d38565b919050555050565b5f8073ffffffffffffffffffffffffffffffffffffffff168273ffffffffffffffffffffffffffffffffffffffff16036106c4575f6040517f89c62b640000000000000000000000000000000000000000000000000000000081526004016106bb9190611903565b60405180910390fd5b60035f8373ffffffffffffffffffffffffffffffffffffffff1673ffffffffffffffffffffffffffffffffffffffff1681526020019081526020015f20549050919050565b610711610cd2565b61071a5f610e4c565b565b5f60065f9054906101000a900473ffffffffffffffffffffffffffffffffffffffff16905090565b60606001805461075390611ca6565b80601f016020809104026020016040519081016040528092919081815260200182805461077f90611ca6565b80156107ca5780601f106107a1576101008083540402835291602001916107ca565b820191905f5260205f20905b8154815290600101906020018083116107ad57829003601f168201915b5050505050905090565b6107e66107df610aae565b8383610f0f565b5050565b6107f58484846104f6565b61080184848484611078565b50505050565b6060610812826109ef565b5061084e61081e610436565b610826610436565b600860405160200161083a93929190611fe3565b60405160208183030381529060405261122a565b60405160200161085e9190612094565b6040516020818303038152906040529050919050565b5f60055f8473ffffffffffffffffffffffffffffffffffffffff1673ffffffffffffffffffffffffffffffffffffffff1681526020019081526020015f205f8373ffffffffffffffffffffffffffffffffffffffff1673ffffffffffffffffffffffffffffffffffffffff1681526020019081526020015f205f9054906101000a900460ff16905092915050565b61090a610cd2565b5f73ffffffffffffffffffffffffffffffffffffffff168173ffffffffffffffffffffffffffffffffffffffff160361097a575f6040517f1e4fbdf70000000000000000000000000000000000000000000000000000000081526004016109719190611903565b60405180910390fd5b61098381610e4c565b50565b5f7f01ffc9a7000000000000000000000000000000000000000000000000000000007bffffffffffffffffffffffffffffffffffffffffffffffffffffffff1916827bffffffffffffffffffffffffffffffffffffffffffffffffffffffff1916149050919050565b5f806109fa83611397565b90505f73ffffffffffffffffffffffffffffffffffffffff168173ffffffffffffffffffffffffffffffffffffffff1603610a6c57826040517f7e273289000000000000000000000000000000000000000000000000000000008152600401610a639190611a0e565b60405180910390fd5b80915050919050565b5f60045f8381526020019081526020015f205f9054906101000a900473ffffffffffffffffffffffffffffffffffffffff169050919050565b5f33905090565b610ac283838360016113d0565b505050565b5f80610ad284611397565b90505f73ffffffffffffffffffffffffffffffffffffffff168373ffffffffffffffffffffffffffffffffffffffff1614610b1357610b1281848661158f565b5b5f73ffffffffffffffffffffffffffffffffffffffff168173ffffffffffffffffffffffffffffffffffffffff1614610b9e57610b525f855f806113d0565b600160035f8373ffffffffffffffffffffffffffffffffffffffff1673ffffffffffffffffffffffffffffffffffffffff1681526020019081526020015f205f82825403925050819055505b5f73ffffffffffffffffffffffffffffffffffffffff168573ffffffffffffffffffffffffffffffffffffffff1614610c1d57600160035f8773ffffffffffffffffffffffffffffffffffffffff1673ffffffffffffffffffffffffffffffffffffffff1681526020019081526020015f205f82825401925050819055505b8460025f8681526020019081526020015f205f6101000a81548173ffffffffffffffffffffffffffffffffffffffff021916908373ffffffffffffffffffffffffffffffffffffffff160217905550838573ffffffffffffffffffffffffffffffffffffffff168273ffffffffffffffffffffffffffffffffffffffff167fddf252ad1be2c89b69c2b068fc378daa952ba7f163c4a11628f55a4df523b3ef60405160405180910390a4809150509392505050565b610cda610aae565b73ffffffffffffffffffffffffffffffffffffffff16610cf861071c565b73ffffffffffffffffffffffffffffffffffffffff1614610d5757610d1b610aae565b6040517f118cdaa7000000000000000000000000000000000000000000000000000000008152600401610d4e9190611903565b60405180910390fd5b565b5f73ffffffffffffffffffffffffffffffffffffffff168273ffffffffffffffffffffffffffffffffffffffff1603610dc9575f6040517f64a0ae92000000000000000000000000000000000000000000000000000000008152600401610dc09190611903565b60405180910390fd5b5f610dd583835f610ac7565b90505f73ffffffffffffffffffffffffffffffffffffffff168173ffffffffffffffffffffffffffffffffffffffff1614610e47575f6040517f73c6ac6e000000000000000000000000000000000000000000000000000000008152600401610e3e9190611903565b60405180910390fd5b505050565b5f60065f9054906101000a900473ffffffffffffffffffffffffffffffffffffffff1690508160065f6101000a81548173ffffffffffffffffffffffffffffffffffffffff021916908373ffffffffffffffffffffffffffffffffffffffff1602179055508173ffffffffffffffffffffffffffffffffffffffff168173ffffffffffffffffffffffffffffffffffffffff167f8be0079c531659141344cd1fd0a4f28419497f9722a3daafe3b4186f6b6457e060405160405180910390a35050565b5f73ffffffffffffffffffffffffffffffffffffffff168273ffffffffffffffffffffffffffffffffffffffff1603610f7f57816040517f5b08ba18000000000000000000000000000000000000000000000000000000008152600401610f769190611903565b60405180910390fd5b8060055f8573ffffffffffffffffffffffffffffffffffffffff1673ffffffffffffffffffffffffffffffffffffffff1681526020019081526020015f205f8473ffffffffffffffffffffffffffffffffffffffff1673ffffffffffffffffffffffffffffffffffffffff1681526020019081526020015f205f6101000a81548160ff0219169083151502179055508173ffffffffffffffffffffffffffffffffffffffff168373ffffffffffffffffffffffffffffffffffffffff167f17307eab39ab6107e8899845ad3d59bd9653f200f220920489ca2b5937696c318360405161106b91906117bd565b60405180910390a3505050565b5f8373ffffffffffffffffffffffffffffffffffffffff163b1115611224578273ffffffffffffffffffffffffffffffffffffffff1663150b7a026110bb610aae565b8685856040518563ffffffff1660e01b81526004016110dd9493929190612107565b6020604051808303815f875af192505050801561111857506040513d601f19601f820116820180604052508101906111159190612165565b60015b611199573d805f8114611146576040519150601f19603f3d011682016040523d82523d5f602084013e61114b565b606091505b505f81510361119157836040517f64a0ae920000000000000000000000000000000000000000000000000000000081526004016111889190611903565b60405180910390fd5b805181602001fd5b63150b7a0260e01b7bffffffffffffffffffffffffffffffffffffffffffffffffffffffff1916817bffffffffffffffffffffffffffffffffffffffffffffffffffffffff19161461122257836040517f64a0ae920000000000000000000000000000000000000000000000000000000081526004016112199190611903565b60405180910390fd5b505b50505050565b60605f82510361124a5760405180602001604052805f8152509050611392565b5f6040518060600160405280604081526020016122896040913990505f6003600285516112779190612190565b61128191906121f0565b600461128d9190612220565b67ffffffffffffffff8111156112a6576112a5611a97565b5b6040519080825280601f01601f1916602001820160405280156112d85781602001600182028036833780820191505090505b509050600182016020820185865187016020810180515f82525b8284101561134d576003840193508351603f8160121c168701518653600186019550603f81600c1c168701518653600186019550603f8160061c168701518653600186019550603f81168701518653600186019550506112f2565b80825260038a51066001811461136a576002811461137d57611385565b603d6001870353603d6002870353611385565b603d60018703535b5050505050505080925050505b919050565b5f60025f8381526020019081526020015f205f9054906101000a900473ffffffffffffffffffffffffffffffffffffffff169050919050565b808061140857505f73ffffffffffffffffffffffffffffffffffffffff168273ffffffffffffffffffffffffffffffffffffffff1614155b1561153a575f611417846109ef565b90505f73ffffffffffffffffffffffffffffffffffffffff168373ffffffffffffffffffffffffffffffffffffffff161415801561148157508273ffffffffffffffffffffffffffffffffffffffff168173ffffffffffffffffffffffffffffffffffffffff1614155b801561149457506114928184610874565b155b156114d657826040517fa9fbf51f0000000000000000000000000000000000000000000000000000000081526004016114cd9190611903565b60405180910390fd5b811561153857838573ffffffffffffffffffffffffffffffffffffffff168273ffffffffffffffffffffffffffffffffffffffff167f8c5be1e5ebec7d5bd14f71427d1e84f3dd0314c0f7b2291e5b200ac8c7c3b92560405160405180910390a45b505b8360045f8581526020019081526020015f205f6101000a81548173ffffffffffffffffffffffffffffffffffffffff021916908373ffffffffffffffffffffffffffffffffffffffff16021790555050505050565b61159a838383611652565b61164d575f73ffffffffffffffffffffffffffffffffffffffff168373ffffffffffffffffffffffffffffffffffffffff160361160e57806040517f7e2732890000000000000000000000000000000000000000000000000000000081526004016116059190611a0e565b60405180910390fd5b81816040517f177e802f000000000000000000000000000000000000000000000000000000008152600401611644929190612261565b60405180910390fd5b505050565b5f8073ffffffffffffffffffffffffffffffffffffffff168373ffffffffffffffffffffffffffffffffffffffff161415801561170957508273ffffffffffffffffffffffffffffffffffffffff168473ffffffffffffffffffffffffffffffffffffffff1614806116ca57506116c98484610874565b5b8061170857508273ffffffffffffffffffffffffffffffffffffffff166116f083610a75565b73ffffffffffffffffffffffffffffffffffffffff16145b5b90509392505050565b5f604051905090565b5f80fd5b5f80fd5b5f7fffffffff0000000000000000000000000000000000000000000000000000000082169050919050565b61175781611723565b8114611761575f80fd5b50565b5f813590506117728161174e565b92915050565b5f6020828403121561178d5761178c61171b565b5b5f61179a84828501611764565b91505092915050565b5f8115159050919050565b6117b7816117a3565b82525050565b5f6020820190506117d05f8301846117ae565b92915050565b5f81519050919050565b5f82825260208201905092915050565b8281835e5f83830152505050565b5f601f19601f8301169050919050565b5f611818826117d6565b61182281856117e0565b93506118328185602086016117f0565b61183b816117fe565b840191505092915050565b5f6020820190508181035f83015261185e818461180e565b905092915050565b5f819050919050565b61187881611866565b8114611882575f80fd5b50565b5f813590506118938161186f565b92915050565b5f602082840312156118ae576118ad61171b565b5b5f6118bb84828501611885565b91505092915050565b5f73ffffffffffffffffffffffffffffffffffffffff82169050919050565b5f6118ed826118c4565b9050919050565b6118fd816118e3565b82525050565b5f6020820190506119165f8301846118f4565b92915050565b611925816118e3565b811461192f575f80fd5b50565b5f813590506119408161191c565b92915050565b5f806040838503121561195c5761195b61171b565b5b5f61196985828601611932565b925050602061197a85828601611885565b9150509250929050565b5f805f6060848603121561199b5761199a61171b565b5b5f6119a886828701611932565b93505060206119b986828701611932565b92505060406119ca86828701611885565b9150509250925092565b5f602082840312156119e9576119e861171b565b5b5f6119f684828501611932565b91505092915050565b611a0881611866565b82525050565b5f602082019050611a215f8301846119ff565b92915050565b611a30816117a3565b8114611a3a575f80fd5b50565b5f81359050611a4b81611a27565b92915050565b5f8060408385031215611a6757611a6661171b565b5b5f611a7485828601611932565b9250506020611a8585828601611a3d565b9150509250929050565b5f80fd5b5f80fd5b7f4e487b71000000000000000000000000000000000000000000000000000000005f52604160045260245ffd5b611acd826117fe565b810181811067ffffffffffffffff82111715611aec57611aeb611a97565b5b80604052505050565b5f611afe611712565b9050611b0a8282611ac4565b919050565b5f67ffffffffffffffff821115611b2957611b28611a97565b5b611b32826117fe565b9050602081019050919050565b828183375f83830152505050565b5f611b5f611b5a84611b0f565b611af5565b905082815260208101848484011115611b7b57611b7a611a93565b5b611b86848285611b3f565b509392505050565b5f82601f830112611ba257611ba1611a8f565b5b8135611bb2848260208601611b4d565b91505092915050565b5f805f8060808587031215611bd357611bd261171b565b5b5f611be087828801611932565b9450506020611bf187828801611932565b9350506040611c0287828801611885565b925050606085013567ffffffffffffffff811115611c2357611c2261171f565b5b611c2f87828801611b8e565b91505092959194509250565b5f8060408385031215611c5157611c5061171b565b5b5f611c5e85828601611932565b9250506020611c6f85828601611932565b9150509250929050565b7f4e487b71000000000000000000000000000000000000000000000000000000005f52602260045260245ffd5b5f6002820490506001821680611cbd57607f821691505b602082108103611cd057611ccf611c79565b5b50919050565b5f606082019050611ce95f8301866118f4565b611cf660208301856119ff565b611d0360408301846118f4565b949350505050565b7f4e487b71000000000000000000000000000000000000000000000000000000005f52601160045260245ffd5b5f611d4282611866565b91507fffffffffffffffffffffffffffffffffffffffffffffffffffffffffffffffff8203611d7457611d73611d0b565b5b600182019050919050565b5f81905092915050565b7f7b226e616d65223a2200000000000000000000000000000000000000000000005f82015250565b5f611dbd600983611d7f565b9150611dc882611d89565b600982019050919050565b5f611ddd826117d6565b611de78185611d7f565b9350611df78185602086016117f0565b80840191505092915050565b7f222c20226465736372697074696f6e223a22416e204e465420746861742072655f8201527f666c6563747320746865206f776e657273686970206f662067616d65202d2000602082015250565b5f611e5d603f83611d7f565b9150611e6882611e03565b603f82019050919050565b7f222c2000000000000000000000000000000000000000000000000000000000005f82015250565b5f611ea7600383611d7f565b9150611eb282611e73565b600382019050919050565b7f22696d616765223a2200000000000000000000000000000000000000000000005f82015250565b5f611ef1600983611d7f565b9150611efc82611ebd565b600982019050919050565b5f819050815f5260205f209050919050565b5f8154611f2581611ca6565b611f2f8186611d7f565b9450600182165f8114611f495760018114611f5e57611f90565b60ff1983168652811515820286019350611f90565b611f6785611f07565b5f5b83811015611f8857815481890152600182019150602081019050611f69565b838801955050505b50505092915050565b7f227d0000000000000000000000000000000000000000000000000000000000005f82015250565b5f611fcd600283611d7f565b9150611fd882611f99565b600282019050919050565b5f611fed82611db1565b9150611ff98286611dd3565b915061200482611e51565b91506120108285611dd3565b915061201b82611e9b565b915061202682611ee5565b91506120328284611f19565b915061203d82611fc1565b9150819050949350505050565b7f646174613a6170706c69636174696f6e2f6a736f6e3b6261736536342c0000005f82015250565b5f61207e601d83611d7f565b91506120898261204a565b601d82019050919050565b5f61209e82612072565b91506120aa8284611dd3565b915081905092915050565b5f81519050919050565b5f82825260208201905092915050565b5f6120d9826120b5565b6120e381856120bf565b93506120f38185602086016117f0565b6120fc816117fe565b840191505092915050565b5f60808201905061211a5f8301876118f4565b61212760208301866118f4565b61213460408301856119ff565b818103606083015261214681846120cf565b905095945050505050565b5f8151905061215f8161174e565b92915050565b5f6020828403121561217a5761217961171b565b5b5f61218784828501612151565b91505092915050565b5f61219a82611866565b91506121a583611866565b92508282019050808211156121bd576121bc611d0b565b5b92915050565b7f4e487b71000000000000000000000000000000000000000000000000000000005f52601260045260245ffd5b5f6121fa82611866565b915061220583611866565b925082612215576122146121c3565b5b828204905092915050565b5f61222a82611866565b915061223583611866565b925082820261224381611866565b9150828204841483151761225a57612259611d0b565b5b5092915050565b5f6040820190506122745f8301856118f4565b61228160208301846119ff565b939250505056fe4142434445464748494a4b4c4d4e4f505152535455565758595a6162636465666768696a6b6c6d6e6f707172737475767778797a303132333435363738392b2fa2646970667358221220558c2dc897274068477ea829f6da0f481dac225b6b93681c7bf01ab595996b8064736f6c63430008190033a2646970667358221220923ad93a15e27e242dce1dfeca3722f2d7c0900ec58a64a908a32e0664ba796964736f6c63430008190033",
    "opcodes": "PUSH1 0x80 PUSH1 0x40 MSTORE PUSH0 PUSH1 0x1 SSTORE CALLVALUE DUP1 ISZERO PUSH1 0x12 JUMPI PUSH0 DUP1 REVERT JUMPDEST POP PUSH2 0x4BAE DUP1 PUSH2 0x20 PUSH0 CODECOPY PUSH0 RETURN INVALID PUSH1 0x80 PUSH1 0x40 MSTORE PUSH1 0x4 CALLDATASIZE LT PUSH2 0x7A JUMPI PUSH0 CALLDATALOAD PUSH1 0xE0 SHR DUP1 PUSH4 0xC04C5947 GT PUSH2 0x4D JUMPI DUP1 PUSH4 0xC04C5947 EQ PUSH2 0x134 JUMPI DUP1 PUSH4 0xC379CD78 EQ PUSH2 0x15E JUMPI DUP1 PUSH4 0xDBEF6528 EQ PUSH2 0x188 JUMPI DUP1 PUSH4 0xE14B7287 EQ PUSH2 0x1A4 JUMPI PUSH2 0x7A JUMP JUMPDEST DUP1 PUSH4 0x2A60D6CA EQ PUSH2 0x7E JUMPI DUP1 PUSH4 0x396130B9 EQ PUSH2 0xA6 JUMPI DUP1 PUSH4 0x7FD6145C EQ PUSH2 0xE2 JUMPI DUP1 PUSH4 0x8D00FE0B EQ PUSH2 0x11E JUMPI JUMPDEST PUSH0 DUP1 REVERT JUMPDEST CALLVALUE DUP1 ISZERO PUSH2 0x89 JUMPI PUSH0 DUP1 REVERT JUMPDEST POP PUSH2 0xA4 PUSH1 0x4 DUP1 CALLDATASIZE SUB DUP2 ADD SWAP1 PUSH2 0x9F SWAP2 SWAP1 PUSH2 0x160D JUMP JUMPDEST PUSH2 0x1E0 JUMP JUMPDEST STOP JUMPDEST CALLVALUE DUP1 ISZERO PUSH2 0xB1 JUMPI PUSH0 DUP1 REVERT JUMPDEST POP PUSH2 0xCC PUSH1 0x4 DUP1 CALLDATASIZE SUB DUP2 ADD SWAP1 PUSH2 0xC7 SWAP2 SWAP1 PUSH2 0x16F4 JUMP JUMPDEST PUSH2 0x517 JUMP JUMPDEST PUSH1 0x40 MLOAD PUSH2 0xD9 SWAP2 SWAP1 PUSH2 0x1755 JUMP JUMPDEST PUSH1 0x40 MLOAD DUP1 SWAP2 SUB SWAP1 RETURN JUMPDEST CALLVALUE DUP1 ISZERO PUSH2 0xED JUMPI PUSH0 DUP1 REVERT JUMPDEST POP PUSH2 0x108 PUSH1 0x4 DUP1 CALLDATASIZE SUB DUP2 ADD SWAP1 PUSH2 0x103 SWAP2 SWAP1 PUSH2 0x16F4 JUMP JUMPDEST PUSH2 0x64A JUMP JUMPDEST PUSH1 0x40 MLOAD PUSH2 0x115 SWAP2 SWAP1 PUSH2 0x18B0 JUMP JUMPDEST PUSH1 0x40 MLOAD DUP1 SWAP2 SUB SWAP1 RETURN JUMPDEST CALLVALUE DUP1 ISZERO PUSH2 0x129 JUMPI PUSH0 DUP1 REVERT JUMPDEST POP PUSH2 0x132 PUSH2 0x952 JUMP JUMPDEST STOP JUMPDEST CALLVALUE DUP1 ISZERO PUSH2 0x13F JUMPI PUSH0 DUP1 REVERT JUMPDEST POP PUSH2 0x148 PUSH2 0xAD0 JUMP JUMPDEST PUSH1 0x40 MLOAD PUSH2 0x155 SWAP2 SWAP1 PUSH2 0x1A1F JUMP JUMPDEST PUSH1 0x40 MLOAD DUP1 SWAP2 SUB SWAP1 RETURN JUMPDEST CALLVALUE DUP1 ISZERO PUSH2 0x169 JUMPI PUSH0 DUP1 REVERT JUMPDEST POP PUSH2 0x172 PUSH2 0xE17 JUMP JUMPDEST PUSH1 0x40 MLOAD PUSH2 0x17F SWAP2 SWAP1 PUSH2 0x1A4E JUMP JUMPDEST PUSH1 0x40 MLOAD DUP1 SWAP2 SUB SWAP1 RETURN JUMPDEST PUSH2 0x1A2 PUSH1 0x4 DUP1 CALLDATASIZE SUB DUP2 ADD SWAP1 PUSH2 0x19D SWAP2 SWAP1 PUSH2 0x16F4 JUMP JUMPDEST PUSH2 0xE23 JUMP JUMPDEST STOP JUMPDEST CALLVALUE DUP1 ISZERO PUSH2 0x1AF JUMPI PUSH0 DUP1 REVERT JUMPDEST POP PUSH2 0x1CA PUSH1 0x4 DUP1 CALLDATASIZE SUB DUP2 ADD SWAP1 PUSH2 0x1C5 SWAP2 SWAP1 PUSH2 0x1B5E JUMP JUMPDEST PUSH2 0x127E JUMP JUMPDEST PUSH1 0x40 MLOAD PUSH2 0x1D7 SWAP2 SWAP1 PUSH2 0x1755 JUMP JUMPDEST PUSH1 0x40 MLOAD DUP1 SWAP2 SUB SWAP1 RETURN JUMPDEST PUSH0 PUSH20 0xFFFFFFFFFFFFFFFFFFFFFFFFFFFFFFFFFFFFFFFF AND PUSH1 0x2 DUP7 PUSH1 0x40 MLOAD PUSH2 0x207 SWAP2 SWAP1 PUSH2 0x1BDF JUMP JUMPDEST SWAP1 DUP2 MSTORE PUSH1 0x20 ADD PUSH1 0x40 MLOAD DUP1 SWAP2 SUB SWAP1 KECCAK256 PUSH0 ADD PUSH0 SWAP1 SLOAD SWAP1 PUSH2 0x100 EXP SWAP1 DIV PUSH20 0xFFFFFFFFFFFFFFFFFFFFFFFFFFFFFFFFFFFFFFFF AND PUSH20 0xFFFFFFFFFFFFFFFFFFFFFFFFFFFFFFFFFFFFFFFF AND EQ PUSH2 0x284 JUMPI PUSH1 0x40 MLOAD PUSH32 0x5F4BE31C00000000000000000000000000000000000000000000000000000000 DUP2 MSTORE PUSH1 0x4 ADD PUSH1 0x40 MLOAD DUP1 SWAP2 SUB SWAP1 REVERT JUMPDEST PUSH0 DUP5 DUP5 DUP4 PUSH1 0x40 MLOAD PUSH2 0x294 SWAP1 PUSH2 0x1421 JUMP JUMPDEST PUSH2 0x2A0 SWAP4 SWAP3 SWAP2 SWAP1 PUSH2 0x1C3D JUMP JUMPDEST PUSH1 0x40 MLOAD DUP1 SWAP2 SUB SWAP1 PUSH0 CREATE DUP1 ISZERO DUP1 ISZERO PUSH2 0x2B9 JUMPI RETURNDATASIZE PUSH0 DUP1 RETURNDATACOPY RETURNDATASIZE PUSH0 REVERT JUMPDEST POP SWAP1 POP DUP1 PUSH20 0xFFFFFFFFFFFFFFFFFFFFFFFFFFFFFFFFFFFFFFFF AND PUSH4 0x6A627842 CALLER PUSH1 0x40 MLOAD DUP3 PUSH4 0xFFFFFFFF AND PUSH1 0xE0 SHL DUP2 MSTORE PUSH1 0x4 ADD PUSH2 0x2F5 SWAP2 SWAP1 PUSH2 0x1C96 JUMP JUMPDEST PUSH0 PUSH1 0x40 MLOAD DUP1 DUP4 SUB DUP2 PUSH0 DUP8 DUP1 EXTCODESIZE ISZERO DUP1 ISZERO PUSH2 0x30C JUMPI PUSH0 DUP1 REVERT JUMPDEST POP GAS CALL ISZERO DUP1 ISZERO PUSH2 0x31E JUMPI RETURNDATASIZE PUSH0 DUP1 RETURNDATACOPY RETURNDATASIZE PUSH0 REVERT JUMPDEST POP POP POP POP PUSH1 0x40 MLOAD DUP1 PUSH1 0xC0 ADD PUSH1 0x40 MSTORE DUP1 CALLER PUSH20 0xFFFFFFFFFFFFFFFFFFFFFFFFFFFFFFFFFFFFFFFF AND DUP2 MSTORE PUSH1 0x20 ADD DUP8 DUP2 MSTORE PUSH1 0x20 ADD DUP3 PUSH20 0xFFFFFFFFFFFFFFFFFFFFFFFFFFFFFFFFFFFFFFFF AND DUP2 MSTORE PUSH1 0x20 ADD DUP7 DUP2 MSTORE PUSH1 0x20 ADD DUP5 DUP2 MSTORE PUSH1 0x20 ADD DUP4 DUP2 MSTORE POP PUSH1 0x2 DUP8 PUSH1 0x40 MLOAD PUSH2 0x38B SWAP2 SWAP1 PUSH2 0x1BDF JUMP JUMPDEST SWAP1 DUP2 MSTORE PUSH1 0x20 ADD PUSH1 0x40 MLOAD DUP1 SWAP2 SUB SWAP1 KECCAK256 PUSH0 DUP3 ADD MLOAD DUP2 PUSH0 ADD PUSH0 PUSH2 0x100 EXP DUP2 SLOAD DUP2 PUSH20 0xFFFFFFFFFFFFFFFFFFFFFFFFFFFFFFFFFFFFFFFF MUL NOT AND SWAP1 DUP4 PUSH20 0xFFFFFFFFFFFFFFFFFFFFFFFFFFFFFFFFFFFFFFFF AND MUL OR SWAP1 SSTORE POP PUSH1 0x20 DUP3 ADD MLOAD DUP2 PUSH1 0x1 ADD SWAP1 DUP2 PUSH2 0x3F2 SWAP2 SWAP1 PUSH2 0x1EA9 JUMP JUMPDEST POP PUSH1 0x40 DUP3 ADD MLOAD DUP2 PUSH1 0x2 ADD PUSH0 PUSH2 0x100 EXP DUP2 SLOAD DUP2 PUSH20 0xFFFFFFFFFFFFFFFFFFFFFFFFFFFFFFFFFFFFFFFF MUL NOT AND SWAP1 DUP4 PUSH20 0xFFFFFFFFFFFFFFFFFFFFFFFFFFFFFFFFFFFFFFFF AND MUL OR SWAP1 SSTORE POP PUSH1 0x60 DUP3 ADD MLOAD DUP2 PUSH1 0x3 ADD SWAP1 DUP2 PUSH2 0x44E SWAP2 SWAP1 PUSH2 0x1EA9 JUMP JUMPDEST POP PUSH1 0x80 DUP3 ADD MLOAD DUP2 PUSH1 0x4 ADD SSTORE PUSH1 0xA0 DUP3 ADD MLOAD DUP2 PUSH1 0x5 ADD SWAP1 DUP2 PUSH2 0x46E SWAP2 SWAP1 PUSH2 0x1EA9 JUMP JUMPDEST POP SWAP1 POP POP PUSH1 0x3 DUP7 SWAP1 DUP1 PUSH1 0x1 DUP2 SLOAD ADD DUP1 DUP3 SSTORE DUP1 SWAP2 POP POP PUSH1 0x1 SWAP1 SUB SWAP1 PUSH0 MSTORE PUSH1 0x20 PUSH0 KECCAK256 ADD PUSH0 SWAP1 SWAP2 SWAP1 SWAP2 SWAP1 SWAP2 POP SWAP1 DUP2 PUSH2 0x4A3 SWAP2 SWAP1 PUSH2 0x1EA9 JUMP JUMPDEST POP DUP1 PUSH20 0xFFFFFFFFFFFFFFFFFFFFFFFFFFFFFFFFFFFFFFFF AND DUP7 PUSH1 0x40 MLOAD PUSH2 0x4C9 SWAP2 SWAP1 PUSH2 0x1BDF JUMP JUMPDEST PUSH1 0x40 MLOAD DUP1 SWAP2 SUB SWAP1 KECCAK256 PUSH1 0x1 PUSH1 0x3 DUP1 SLOAD SWAP1 POP PUSH2 0x4E3 SWAP2 SWAP1 PUSH2 0x1FA5 JUMP JUMPDEST PUSH32 0x1B53114C999DED51A67E2C46B7ABA69BD40E2D7A5B1E3E4A8B7F12C122FF3A50 PUSH1 0x40 MLOAD PUSH1 0x40 MLOAD DUP1 SWAP2 SUB SWAP1 LOG4 POP POP POP POP POP POP JUMP JUMPDEST PUSH0 DUP1 PUSH1 0x2 DUP4 PUSH1 0x40 MLOAD PUSH2 0x529 SWAP2 SWAP1 PUSH2 0x1BDF JUMP JUMPDEST SWAP1 DUP2 MSTORE PUSH1 0x20 ADD PUSH1 0x40 MLOAD DUP1 SWAP2 SUB SWAP1 KECCAK256 PUSH1 0x2 ADD PUSH0 SWAP1 SLOAD SWAP1 PUSH2 0x100 EXP SWAP1 DIV PUSH20 0xFFFFFFFFFFFFFFFFFFFFFFFFFFFFFFFFFFFFFFFF AND SWAP1 POP PUSH0 PUSH20 0xFFFFFFFFFFFFFFFFFFFFFFFFFFFFFFFFFFFFFFFF AND DUP2 PUSH20 0xFFFFFFFFFFFFFFFFFFFFFFFFFFFFFFFFFFFFFFFF AND SUB PUSH2 0x5C1 JUMPI PUSH1 0x40 MLOAD PUSH32 0x57E25A0900000000000000000000000000000000000000000000000000000000 DUP2 MSTORE PUSH1 0x4 ADD PUSH1 0x40 MLOAD DUP1 SWAP2 SUB SWAP1 REVERT JUMPDEST PUSH0 DUP2 SWAP1 POP PUSH1 0x1 DUP2 PUSH20 0xFFFFFFFFFFFFFFFFFFFFFFFFFFFFFFFFFFFFFFFF AND PUSH4 0x70A08231 CALLER PUSH1 0x40 MLOAD DUP3 PUSH4 0xFFFFFFFF AND PUSH1 0xE0 SHL DUP2 MSTORE PUSH1 0x4 ADD PUSH2 0x600 SWAP2 SWAP1 PUSH2 0x1C96 JUMP JUMPDEST PUSH1 0x20 PUSH1 0x40 MLOAD DUP1 DUP4 SUB DUP2 DUP7 GAS STATICCALL ISZERO DUP1 ISZERO PUSH2 0x61B JUMPI RETURNDATASIZE PUSH0 DUP1 RETURNDATACOPY RETURNDATASIZE PUSH0 REVERT JUMPDEST POP POP POP POP PUSH1 0x40 MLOAD RETURNDATASIZE PUSH1 0x1F NOT PUSH1 0x1F DUP3 ADD AND DUP3 ADD DUP1 PUSH1 0x40 MSTORE POP DUP2 ADD SWAP1 PUSH2 0x63F SWAP2 SWAP1 PUSH2 0x1FEC JUMP JUMPDEST LT ISZERO SWAP3 POP POP POP SWAP2 SWAP1 POP JUMP JUMPDEST PUSH2 0x652 PUSH2 0x142E JUMP JUMPDEST PUSH0 PUSH1 0x2 DUP4 PUSH1 0x40 MLOAD PUSH2 0x663 SWAP2 SWAP1 PUSH2 0x1BDF JUMP JUMPDEST SWAP1 DUP2 MSTORE PUSH1 0x20 ADD PUSH1 0x40 MLOAD DUP1 SWAP2 SUB SWAP1 KECCAK256 PUSH1 0x40 MLOAD DUP1 PUSH1 0xC0 ADD PUSH1 0x40 MSTORE SWAP1 DUP2 PUSH0 DUP3 ADD PUSH0 SWAP1 SLOAD SWAP1 PUSH2 0x100 EXP SWAP1 DIV PUSH20 0xFFFFFFFFFFFFFFFFFFFFFFFFFFFFFFFFFFFFFFFF AND PUSH20 0xFFFFFFFFFFFFFFFFFFFFFFFFFFFFFFFFFFFFFFFF AND PUSH20 0xFFFFFFFFFFFFFFFFFFFFFFFFFFFFFFFFFFFFFFFF AND DUP2 MSTORE PUSH1 0x20 ADD PUSH1 0x1 DUP3 ADD DUP1 SLOAD PUSH2 0x6E0 SWAP1 PUSH2 0x1CDC JUMP JUMPDEST DUP1 PUSH1 0x1F ADD PUSH1 0x20 DUP1 SWAP2 DIV MUL PUSH1 0x20 ADD PUSH1 0x40 MLOAD SWAP1 DUP2 ADD PUSH1 0x40 MSTORE DUP1 SWAP3 SWAP2 SWAP1 DUP2 DUP2 MSTORE PUSH1 0x20 ADD DUP3 DUP1 SLOAD PUSH2 0x70C SWAP1 PUSH2 0x1CDC JUMP JUMPDEST DUP1 ISZERO PUSH2 0x757 JUMPI DUP1 PUSH1 0x1F LT PUSH2 0x72E JUMPI PUSH2 0x100 DUP1 DUP4 SLOAD DIV MUL DUP4 MSTORE SWAP2 PUSH1 0x20 ADD SWAP2 PUSH2 0x757 JUMP JUMPDEST DUP3 ADD SWAP2 SWAP1 PUSH0 MSTORE PUSH1 0x20 PUSH0 KECCAK256 SWAP1 JUMPDEST DUP2 SLOAD DUP2 MSTORE SWAP1 PUSH1 0x1 ADD SWAP1 PUSH1 0x20 ADD DUP1 DUP4 GT PUSH2 0x73A JUMPI DUP3 SWAP1 SUB PUSH1 0x1F AND DUP3 ADD SWAP2 JUMPDEST POP POP POP POP POP DUP2 MSTORE PUSH1 0x20 ADD PUSH1 0x2 DUP3 ADD PUSH0 SWAP1 SLOAD SWAP1 PUSH2 0x100 EXP SWAP1 DIV PUSH20 0xFFFFFFFFFFFFFFFFFFFFFFFFFFFFFFFFFFFFFFFF AND PUSH20 0xFFFFFFFFFFFFFFFFFFFFFFFFFFFFFFFFFFFFFFFF AND PUSH20 0xFFFFFFFFFFFFFFFFFFFFFFFFFFFFFFFFFFFFFFFF AND DUP2 MSTORE PUSH1 0x20 ADD PUSH1 0x3 DUP3 ADD DUP1 SLOAD PUSH2 0x7C5 SWAP1 PUSH2 0x1CDC JUMP JUMPDEST DUP1 PUSH1 0x1F ADD PUSH1 0x20 DUP1 SWAP2 DIV MUL PUSH1 0x20 ADD PUSH1 0x40 MLOAD SWAP1 DUP2 ADD PUSH1 0x40 MSTORE DUP1 SWAP3 SWAP2 SWAP1 DUP2 DUP2 MSTORE PUSH1 0x20 ADD DUP3 DUP1 SLOAD PUSH2 0x7F1 SWAP1 PUSH2 0x1CDC JUMP JUMPDEST DUP1 ISZERO PUSH2 0x83C JUMPI DUP1 PUSH1 0x1F LT PUSH2 0x813 JUMPI PUSH2 0x100 DUP1 DUP4 SLOAD DIV MUL DUP4 MSTORE SWAP2 PUSH1 0x20 ADD SWAP2 PUSH2 0x83C JUMP JUMPDEST DUP3 ADD SWAP2 SWAP1 PUSH0 MSTORE PUSH1 0x20 PUSH0 KECCAK256 SWAP1 JUMPDEST DUP2 SLOAD DUP2 MSTORE SWAP1 PUSH1 0x1 ADD SWAP1 PUSH1 0x20 ADD DUP1 DUP4 GT PUSH2 0x81F JUMPI DUP3 SWAP1 SUB PUSH1 0x1F AND DUP3 ADD SWAP2 JUMPDEST POP POP POP POP POP DUP2 MSTORE PUSH1 0x20 ADD PUSH1 0x4 DUP3 ADD SLOAD DUP2 MSTORE PUSH1 0x20 ADD PUSH1 0x5 DUP3 ADD DUP1 SLOAD PUSH2 0x85F SWAP1 PUSH2 0x1CDC JUMP JUMPDEST DUP1 PUSH1 0x1F ADD PUSH1 0x20 DUP1 SWAP2 DIV MUL PUSH1 0x20 ADD PUSH1 0x40 MLOAD SWAP1 DUP2 ADD PUSH1 0x40 MSTORE DUP1 SWAP3 SWAP2 SWAP1 DUP2 DUP2 MSTORE PUSH1 0x20 ADD DUP3 DUP1 SLOAD PUSH2 0x88B SWAP1 PUSH2 0x1CDC JUMP JUMPDEST DUP1 ISZERO PUSH2 0x8D6 JUMPI DUP1 PUSH1 0x1F LT PUSH2 0x8AD JUMPI PUSH2 0x100 DUP1 DUP4 SLOAD DIV MUL DUP4 MSTORE SWAP2 PUSH1 0x20 ADD SWAP2 PUSH2 0x8D6 JUMP JUMPDEST DUP3 ADD SWAP2 SWAP1 PUSH0 MSTORE PUSH1 0x20 PUSH0 KECCAK256 SWAP1 JUMPDEST DUP2 SLOAD DUP2 MSTORE SWAP1 PUSH1 0x1 ADD SWAP1 PUSH1 0x20 ADD DUP1 DUP4 GT PUSH2 0x8B9 JUMPI DUP3 SWAP1 SUB PUSH1 0x1F AND DUP3 ADD SWAP2 JUMPDEST POP POP POP POP POP DUP2 MSTORE POP POP SWAP1 POP PUSH0 PUSH20 0xFFFFFFFFFFFFFFFFFFFFFFFFFFFFFFFFFFFFFFFF AND DUP2 PUSH0 ADD MLOAD PUSH20 0xFFFFFFFFFFFFFFFFFFFFFFFFFFFFFFFFFFFFFFFF AND SUB PUSH2 0x949 JUMPI PUSH1 0x40 MLOAD PUSH32 0x57E25A0900000000000000000000000000000000000000000000000000000000 DUP2 MSTORE PUSH1 0x4 ADD PUSH1 0x40 MLOAD DUP1 SWAP2 SUB SWAP1 REVERT JUMPDEST DUP1 SWAP2 POP POP SWAP2 SWAP1 POP JUMP JUMPDEST PUSH0 PUSH1 0x4 PUSH0 CALLER PUSH20 0xFFFFFFFFFFFFFFFFFFFFFFFFFFFFFFFFFFFFFFFF AND PUSH20 0xFFFFFFFFFFFFFFFFFFFFFFFFFFFFFFFFFFFFFFFF AND DUP2 MSTORE PUSH1 0x20 ADD SWAP1 DUP2 MSTORE PUSH1 0x20 ADD PUSH0 KECCAK256 SLOAD SUB PUSH2 0x9C8 JUMPI PUSH1 0x40 MLOAD PUSH32 0x356680B700000000000000000000000000000000000000000000000000000000 DUP2 MSTORE PUSH1 0x4 ADD PUSH1 0x40 MLOAD DUP1 SWAP2 SUB SWAP1 REVERT JUMPDEST CALLER PUSH20 0xFFFFFFFFFFFFFFFFFFFFFFFFFFFFFFFFFFFFFFFF AND PUSH2 0x8FC PUSH1 0x4 PUSH0 CALLER PUSH20 0xFFFFFFFFFFFFFFFFFFFFFFFFFFFFFFFFFFFFFFFF AND PUSH20 0xFFFFFFFFFFFFFFFFFFFFFFFFFFFFFFFFFFFFFFFF AND DUP2 MSTORE PUSH1 0x20 ADD SWAP1 DUP2 MSTORE PUSH1 0x20 ADD PUSH0 KECCAK256 SLOAD SWAP1 DUP2 ISZERO MUL SWAP1 PUSH1 0x40 MLOAD PUSH0 PUSH1 0x40 MLOAD DUP1 DUP4 SUB DUP2 DUP6 DUP9 DUP9 CALL SWAP4 POP POP POP POP ISZERO DUP1 ISZERO PUSH2 0xA48 JUMPI RETURNDATASIZE PUSH0 DUP1 RETURNDATACOPY RETURNDATASIZE PUSH0 REVERT JUMPDEST POP PUSH0 PUSH1 0x4 PUSH0 CALLER PUSH20 0xFFFFFFFFFFFFFFFFFFFFFFFFFFFFFFFFFFFFFFFF AND PUSH20 0xFFFFFFFFFFFFFFFFFFFFFFFFFFFFFFFFFFFFFFFF AND DUP2 MSTORE PUSH1 0x20 ADD SWAP1 DUP2 MSTORE PUSH1 0x20 ADD PUSH0 KECCAK256 DUP2 SWAP1 SSTORE POP CALLER PUSH20 0xFFFFFFFFFFFFFFFFFFFFFFFFFFFFFFFFFFFFFFFF AND PUSH32 0xC43456380866B66F35F174AB56EFABBEB1145C4BBF6FE8047C2590E378346EF7 PUSH1 0x40 MLOAD PUSH1 0x40 MLOAD DUP1 SWAP2 SUB SWAP1 LOG2 JUMP JUMPDEST PUSH1 0x60 PUSH0 PUSH1 0x3 DUP1 SLOAD SWAP1 POP PUSH8 0xFFFFFFFFFFFFFFFF DUP2 GT ISZERO PUSH2 0xAF2 JUMPI PUSH2 0xAF1 PUSH2 0x14B6 JUMP JUMPDEST JUMPDEST PUSH1 0x40 MLOAD SWAP1 DUP1 DUP3 MSTORE DUP1 PUSH1 0x20 MUL PUSH1 0x20 ADD DUP3 ADD PUSH1 0x40 MSTORE DUP1 ISZERO PUSH2 0xB2B JUMPI DUP2 PUSH1 0x20 ADD JUMPDEST PUSH2 0xB18 PUSH2 0x142E JUMP JUMPDEST DUP2 MSTORE PUSH1 0x20 ADD SWAP1 PUSH1 0x1 SWAP1 SUB SWAP1 DUP2 PUSH2 0xB10 JUMPI SWAP1 POP JUMPDEST POP SWAP1 POP PUSH0 JUMPDEST PUSH1 0x3 DUP1 SLOAD SWAP1 POP DUP2 LT ISZERO PUSH2 0xE0F JUMPI PUSH1 0x2 PUSH1 0x3 DUP3 DUP2 SLOAD DUP2 LT PUSH2 0xB53 JUMPI PUSH2 0xB52 PUSH2 0x2017 JUMP JUMPDEST JUMPDEST SWAP1 PUSH0 MSTORE PUSH1 0x20 PUSH0 KECCAK256 ADD PUSH1 0x40 MLOAD PUSH2 0xB68 SWAP2 SWAP1 PUSH2 0x20C4 JUMP JUMPDEST SWAP1 DUP2 MSTORE PUSH1 0x20 ADD PUSH1 0x40 MLOAD DUP1 SWAP2 SUB SWAP1 KECCAK256 PUSH1 0x40 MLOAD DUP1 PUSH1 0xC0 ADD PUSH1 0x40 MSTORE SWAP1 DUP2 PUSH0 DUP3 ADD PUSH0 SWAP1 SLOAD SWAP1 PUSH2 0x100 EXP SWAP1 DIV PUSH20 0xFFFFFFFFFFFFFFFFFFFFFFFFFFFFFFFFFFFFFFFF AND PUSH20 0xFFFFFFFFFFFFFFFFFFFFFFFFFFFFFFFFFFFFFFFF AND PUSH20 0xFFFFFFFFFFFFFFFFFFFFFFFFFFFFFFFFFFFFFFFF AND DUP2 MSTORE PUSH1 0x20 ADD PUSH1 0x1 DUP3 ADD DUP1 SLOAD PUSH2 0xBE5 SWAP1 PUSH2 0x1CDC JUMP JUMPDEST DUP1 PUSH1 0x1F ADD PUSH1 0x20 DUP1 SWAP2 DIV MUL PUSH1 0x20 ADD PUSH1 0x40 MLOAD SWAP1 DUP2 ADD PUSH1 0x40 MSTORE DUP1 SWAP3 SWAP2 SWAP1 DUP2 DUP2 MSTORE PUSH1 0x20 ADD DUP3 DUP1 SLOAD PUSH2 0xC11 SWAP1 PUSH2 0x1CDC JUMP JUMPDEST DUP1 ISZERO PUSH2 0xC5C JUMPI DUP1 PUSH1 0x1F LT PUSH2 0xC33 JUMPI PUSH2 0x100 DUP1 DUP4 SLOAD DIV MUL DUP4 MSTORE SWAP2 PUSH1 0x20 ADD SWAP2 PUSH2 0xC5C JUMP JUMPDEST DUP3 ADD SWAP2 SWAP1 PUSH0 MSTORE PUSH1 0x20 PUSH0 KECCAK256 SWAP1 JUMPDEST DUP2 SLOAD DUP2 MSTORE SWAP1 PUSH1 0x1 ADD SWAP1 PUSH1 0x20 ADD DUP1 DUP4 GT PUSH2 0xC3F JUMPI DUP3 SWAP1 SUB PUSH1 0x1F AND DUP3 ADD SWAP2 JUMPDEST POP POP POP POP POP DUP2 MSTORE PUSH1 0x20 ADD PUSH1 0x2 DUP3 ADD PUSH0 SWAP1 SLOAD SWAP1 PUSH2 0x100 EXP SWAP1 DIV PUSH20 0xFFFFFFFFFFFFFFFFFFFFFFFFFFFFFFFFFFFFFFFF AND PUSH20 0xFFFFFFFFFFFFFFFFFFFFFFFFFFFFFFFFFFFFFFFF AND PUSH20 0xFFFFFFFFFFFFFFFFFFFFFFFFFFFFFFFFFFFFFFFF AND DUP2 MSTORE PUSH1 0x20 ADD PUSH1 0x3 DUP3 ADD DUP1 SLOAD PUSH2 0xCCA SWAP1 PUSH2 0x1CDC JUMP JUMPDEST DUP1 PUSH1 0x1F ADD PUSH1 0x20 DUP1 SWAP2 DIV MUL PUSH1 0x20 ADD PUSH1 0x40 MLOAD SWAP1 DUP2 ADD PUSH1 0x40 MSTORE DUP1 SWAP3 SWAP2 SWAP1 DUP2 DUP2 MSTORE PUSH1 0x20 ADD DUP3 DUP1 SLOAD PUSH2 0xCF6 SWAP1 PUSH2 0x1CDC JUMP JUMPDEST DUP1 ISZERO PUSH2 0xD41 JUMPI DUP1 PUSH1 0x1F LT PUSH2 0xD18 JUMPI PUSH2 0x100 DUP1 DUP4 SLOAD DIV MUL DUP4 MSTORE SWAP2 PUSH1 0x20 ADD SWAP2 PUSH2 0xD41 JUMP JUMPDEST DUP3 ADD SWAP2 SWAP1 PUSH0 MSTORE PUSH1 0x20 PUSH0 KECCAK256 SWAP1 JUMPDEST DUP2 SLOAD DUP2 MSTORE SWAP1 PUSH1 0x1 ADD SWAP1 PUSH1 0x20 ADD DUP1 DUP4 GT PUSH2 0xD24 JUMPI DUP3 SWAP1 SUB PUSH1 0x1F AND DUP3 ADD SWAP2 JUMPDEST POP POP POP POP POP DUP2 MSTORE PUSH1 0x20 ADD PUSH1 0x4 DUP3 ADD SLOAD DUP2 MSTORE PUSH1 0x20 ADD PUSH1 0x5 DUP3 ADD DUP1 SLOAD PUSH2 0xD64 SWAP1 PUSH2 0x1CDC JUMP JUMPDEST DUP1 PUSH1 0x1F ADD PUSH1 0x20 DUP1 SWAP2 DIV MUL PUSH1 0x20 ADD PUSH1 0x40 MLOAD SWAP1 DUP2 ADD PUSH1 0x40 MSTORE DUP1 SWAP3 SWAP2 SWAP1 DUP2 DUP2 MSTORE PUSH1 0x20 ADD DUP3 DUP1 SLOAD PUSH2 0xD90 SWAP1 PUSH2 0x1CDC JUMP JUMPDEST DUP1 ISZERO PUSH2 0xDDB JUMPI DUP1 PUSH1 0x1F LT PUSH2 0xDB2 JUMPI PUSH2 0x100 DUP1 DUP4 SLOAD DIV MUL DUP4 MSTORE SWAP2 PUSH1 0x20 ADD SWAP2 PUSH2 0xDDB JUMP JUMPDEST DUP3 ADD SWAP2 SWAP1 PUSH0 MSTORE PUSH1 0x20 PUSH0 KECCAK256 SWAP1 JUMPDEST DUP2 SLOAD DUP2 MSTORE SWAP1 PUSH1 0x1 ADD SWAP1 PUSH1 0x20 ADD DUP1 DUP4 GT PUSH2 0xDBE JUMPI DUP3 SWAP1 SUB PUSH1 0x1F AND DUP3 ADD SWAP2 JUMPDEST POP POP POP POP POP DUP2 MSTORE POP POP DUP3 DUP3 DUP2 MLOAD DUP2 LT PUSH2 0xDF7 JUMPI PUSH2 0xDF6 PUSH2 0x2017 JUMP JUMPDEST JUMPDEST PUSH1 0x20 MUL PUSH1 0x20 ADD ADD DUP2 SWAP1 MSTORE POP DUP1 DUP1 PUSH1 0x1 ADD SWAP2 POP POP PUSH2 0xB30 JUMP JUMPDEST POP DUP1 SWAP2 POP POP SWAP1 JUMP JUMPDEST PUSH0 PUSH1 0x3 DUP1 SLOAD SWAP1 POP SWAP1 POP SWAP1 JUMP JUMPDEST PUSH0 PUSH1 0x2 DUP3 PUSH1 0x40 MLOAD PUSH2 0xE34 SWAP2 SWAP1 PUSH2 0x1BDF JUMP JUMPDEST SWAP1 DUP2 MSTORE PUSH1 0x20 ADD PUSH1 0x40 MLOAD DUP1 SWAP2 SUB SWAP1 KECCAK256 PUSH1 0x40 MLOAD DUP1 PUSH1 0xC0 ADD PUSH1 0x40 MSTORE SWAP1 DUP2 PUSH0 DUP3 ADD PUSH0 SWAP1 SLOAD SWAP1 PUSH2 0x100 EXP SWAP1 DIV PUSH20 0xFFFFFFFFFFFFFFFFFFFFFFFFFFFFFFFFFFFFFFFF AND PUSH20 0xFFFFFFFFFFFFFFFFFFFFFFFFFFFFFFFFFFFFFFFF AND PUSH20 0xFFFFFFFFFFFFFFFFFFFFFFFFFFFFFFFFFFFFFFFF AND DUP2 MSTORE PUSH1 0x20 ADD PUSH1 0x1 DUP3 ADD DUP1 SLOAD PUSH2 0xEB1 SWAP1 PUSH2 0x1CDC JUMP JUMPDEST DUP1 PUSH1 0x1F ADD PUSH1 0x20 DUP1 SWAP2 DIV MUL PUSH1 0x20 ADD PUSH1 0x40 MLOAD SWAP1 DUP2 ADD PUSH1 0x40 MSTORE DUP1 SWAP3 SWAP2 SWAP1 DUP2 DUP2 MSTORE PUSH1 0x20 ADD DUP3 DUP1 SLOAD PUSH2 0xEDD SWAP1 PUSH2 0x1CDC JUMP JUMPDEST DUP1 ISZERO PUSH2 0xF28 JUMPI DUP1 PUSH1 0x1F LT PUSH2 0xEFF JUMPI PUSH2 0x100 DUP1 DUP4 SLOAD DIV MUL DUP4 MSTORE SWAP2 PUSH1 0x20 ADD SWAP2 PUSH2 0xF28 JUMP JUMPDEST DUP3 ADD SWAP2 SWAP1 PUSH0 MSTORE PUSH1 0x20 PUSH0 KECCAK256 SWAP1 JUMPDEST DUP2 SLOAD DUP2 MSTORE SWAP1 PUSH1 0x1 ADD SWAP1 PUSH1 0x20 ADD DUP1 DUP4 GT PUSH2 0xF0B JUMPI DUP3 SWAP1 SUB PUSH1 0x1F AND DUP3 ADD SWAP2 JUMPDEST POP POP POP POP POP DUP2 MSTORE PUSH1 0x20 ADD PUSH1 0x2 DUP3 ADD PUSH0 SWAP1 SLOAD SWAP1 PUSH2 0x100 EXP SWAP1 DIV PUSH20 0xFFFFFFFFFFFFFFFFFFFFFFFFFFFFFFFFFFFFFFFF AND PUSH20 0xFFFFFFFFFFFFFFFFFFFFFFFFFFFFFFFFFFFFFFFF AND PUSH20 0xFFFFFFFFFFFFFFFFFFFFFFFFFFFFFFFFFFFFFFFF AND DUP2 MSTORE PUSH1 0x20 ADD PUSH1 0x3 DUP3 ADD DUP1 SLOAD PUSH2 0xF96 SWAP1 PUSH2 0x1CDC JUMP JUMPDEST DUP1 PUSH1 0x1F ADD PUSH1 0x20 DUP1 SWAP2 DIV MUL PUSH1 0x20 ADD PUSH1 0x40 MLOAD SWAP1 DUP2 ADD PUSH1 0x40 MSTORE DUP1 SWAP3 SWAP2 SWAP1 DUP2 DUP2 MSTORE PUSH1 0x20 ADD DUP3 DUP1 SLOAD PUSH2 0xFC2 SWAP1 PUSH2 0x1CDC JUMP JUMPDEST DUP1 ISZERO PUSH2 0x100D JUMPI DUP1 PUSH1 0x1F LT PUSH2 0xFE4 JUMPI PUSH2 0x100 DUP1 DUP4 SLOAD DIV MUL DUP4 MSTORE SWAP2 PUSH1 0x20 ADD SWAP2 PUSH2 0x100D JUMP JUMPDEST DUP3 ADD SWAP2 SWAP1 PUSH0 MSTORE PUSH1 0x20 PUSH0 KECCAK256 SWAP1 JUMPDEST DUP2 SLOAD DUP2 MSTORE SWAP1 PUSH1 0x1 ADD SWAP1 PUSH1 0x20 ADD DUP1 DUP4 GT PUSH2 0xFF0 JUMPI DUP3 SWAP1 SUB PUSH1 0x1F AND DUP3 ADD SWAP2 JUMPDEST POP POP POP POP POP DUP2 MSTORE PUSH1 0x20 ADD PUSH1 0x4 DUP3 ADD SLOAD DUP2 MSTORE PUSH1 0x20 ADD PUSH1 0x5 DUP3 ADD DUP1 SLOAD PUSH2 0x1030 SWAP1 PUSH2 0x1CDC JUMP JUMPDEST DUP1 PUSH1 0x1F ADD PUSH1 0x20 DUP1 SWAP2 DIV MUL PUSH1 0x20 ADD PUSH1 0x40 MLOAD SWAP1 DUP2 ADD PUSH1 0x40 MSTORE DUP1 SWAP3 SWAP2 SWAP1 DUP2 DUP2 MSTORE PUSH1 0x20 ADD DUP3 DUP1 SLOAD PUSH2 0x105C SWAP1 PUSH2 0x1CDC JUMP JUMPDEST DUP1 ISZERO PUSH2 0x10A7 JUMPI DUP1 PUSH1 0x1F LT PUSH2 0x107E JUMPI PUSH2 0x100 DUP1 DUP4 SLOAD DIV MUL DUP4 MSTORE SWAP2 PUSH1 0x20 ADD SWAP2 PUSH2 0x10A7 JUMP JUMPDEST DUP3 ADD SWAP2 SWAP1 PUSH0 MSTORE PUSH1 0x20 PUSH0 KECCAK256 SWAP1 JUMPDEST DUP2 SLOAD DUP2 MSTORE SWAP1 PUSH1 0x1 ADD SWAP1 PUSH1 0x20 ADD DUP1 DUP4 GT PUSH2 0x108A JUMPI DUP3 SWAP1 SUB PUSH1 0x1F AND DUP3 ADD SWAP2 JUMPDEST POP POP POP POP POP DUP2 MSTORE POP POP SWAP1 POP PUSH0 PUSH20 0xFFFFFFFFFFFFFFFFFFFFFFFFFFFFFFFFFFFFFFFF AND DUP2 PUSH0 ADD MLOAD PUSH20 0xFFFFFFFFFFFFFFFFFFFFFFFFFFFFFFFFFFFFFFFF AND SUB PUSH2 0x111A JUMPI PUSH1 0x40 MLOAD PUSH32 0x57E25A0900000000000000000000000000000000000000000000000000000000 DUP2 MSTORE PUSH1 0x4 ADD PUSH1 0x40 MLOAD DUP1 SWAP2 SUB SWAP1 REVERT JUMPDEST DUP1 PUSH1 0x80 ADD MLOAD CALLVALUE LT ISZERO PUSH2 0x1158 JUMPI PUSH1 0x40 MLOAD PUSH32 0x356680B700000000000000000000000000000000000000000000000000000000 DUP2 MSTORE PUSH1 0x4 ADD PUSH1 0x40 MLOAD DUP1 SWAP2 SUB SWAP1 REVERT JUMPDEST DUP1 PUSH1 0x80 ADD MLOAD PUSH1 0x4 PUSH0 DUP4 PUSH0 ADD MLOAD PUSH20 0xFFFFFFFFFFFFFFFFFFFFFFFFFFFFFFFFFFFFFFFF AND PUSH20 0xFFFFFFFFFFFFFFFFFFFFFFFFFFFFFFFFFFFFFFFF AND DUP2 MSTORE PUSH1 0x20 ADD SWAP1 DUP2 MSTORE PUSH1 0x20 ADD PUSH0 KECCAK256 PUSH0 DUP3 DUP3 SLOAD PUSH2 0x11AB SWAP2 SWAP1 PUSH2 0x20DA JUMP JUMPDEST SWAP3 POP POP DUP2 SWAP1 SSTORE POP PUSH0 DUP2 PUSH1 0x40 ADD MLOAD SWAP1 POP DUP1 PUSH20 0xFFFFFFFFFFFFFFFFFFFFFFFFFFFFFFFFFFFFFFFF AND PUSH4 0x6A627842 CALLER PUSH1 0x40 MLOAD DUP3 PUSH4 0xFFFFFFFF AND PUSH1 0xE0 SHL DUP2 MSTORE PUSH1 0x4 ADD PUSH2 0x11F3 SWAP2 SWAP1 PUSH2 0x1C96 JUMP JUMPDEST PUSH0 PUSH1 0x40 MLOAD DUP1 DUP4 SUB DUP2 PUSH0 DUP8 DUP1 EXTCODESIZE ISZERO DUP1 ISZERO PUSH2 0x120A JUMPI PUSH0 DUP1 REVERT JUMPDEST POP GAS CALL ISZERO DUP1 ISZERO PUSH2 0x121C JUMPI RETURNDATASIZE PUSH0 DUP1 RETURNDATACOPY RETURNDATASIZE PUSH0 REVERT JUMPDEST POP POP POP POP CALLER PUSH20 0xFFFFFFFFFFFFFFFFFFFFFFFFFFFFFFFFFFFFFFFF AND DUP4 PUSH1 0x40 MLOAD PUSH2 0x1245 SWAP2 SWAP1 PUSH2 0x1BDF JUMP JUMPDEST PUSH1 0x40 MLOAD DUP1 SWAP2 SUB SWAP1 KECCAK256 PUSH32 0xBE5BACC9CCF0E6B2195FB4EEF26C0562A005DCDD2C5D064FD26D76DE3849920F PUSH1 0x40 MLOAD PUSH1 0x40 MLOAD DUP1 SWAP2 SUB SWAP1 LOG3 POP POP POP JUMP JUMPDEST PUSH0 DUP1 PUSH2 0x1289 DUP4 PUSH2 0x13BE JUMP JUMPDEST SWAP1 POP PUSH0 PUSH1 0x2 DUP3 PUSH1 0x40 MLOAD PUSH2 0x129C SWAP2 SWAP1 PUSH2 0x1BDF JUMP JUMPDEST SWAP1 DUP2 MSTORE PUSH1 0x20 ADD PUSH1 0x40 MLOAD DUP1 SWAP2 SUB SWAP1 KECCAK256 PUSH1 0x2 ADD PUSH0 SWAP1 SLOAD SWAP1 PUSH2 0x100 EXP SWAP1 DIV PUSH20 0xFFFFFFFFFFFFFFFFFFFFFFFFFFFFFFFFFFFFFFFF AND SWAP1 POP PUSH0 PUSH20 0xFFFFFFFFFFFFFFFFFFFFFFFFFFFFFFFFFFFFFFFF AND DUP2 PUSH20 0xFFFFFFFFFFFFFFFFFFFFFFFFFFFFFFFFFFFFFFFF AND SUB PUSH2 0x1334 JUMPI PUSH1 0x40 MLOAD PUSH32 0x57E25A0900000000000000000000000000000000000000000000000000000000 DUP2 MSTORE PUSH1 0x4 ADD PUSH1 0x40 MLOAD DUP1 SWAP2 SUB SWAP1 REVERT JUMPDEST PUSH0 DUP2 SWAP1 POP PUSH1 0x1 DUP2 PUSH20 0xFFFFFFFFFFFFFFFFFFFFFFFFFFFFFFFFFFFFFFFF AND PUSH4 0x70A08231 CALLER PUSH1 0x40 MLOAD DUP3 PUSH4 0xFFFFFFFF AND PUSH1 0xE0 SHL DUP2 MSTORE PUSH1 0x4 ADD PUSH2 0x1373 SWAP2 SWAP1 PUSH2 0x1C96 JUMP JUMPDEST PUSH1 0x20 PUSH1 0x40 MLOAD DUP1 DUP4 SUB DUP2 DUP7 GAS STATICCALL ISZERO DUP1 ISZERO PUSH2 0x138E JUMPI RETURNDATASIZE PUSH0 DUP1 RETURNDATACOPY RETURNDATASIZE PUSH0 REVERT JUMPDEST POP POP POP POP PUSH1 0x40 MLOAD RETURNDATASIZE PUSH1 0x1F NOT PUSH1 0x1F DUP3 ADD AND DUP3 ADD DUP1 PUSH1 0x40 MSTORE POP DUP2 ADD SWAP1 PUSH2 0x13B2 SWAP2 SWAP1 PUSH2 0x1FEC JUMP JUMPDEST LT ISZERO SWAP4 POP POP POP POP SWAP2 SWAP1 POP JUMP JUMPDEST PUSH1 0x60 DUP1 PUSH0 JUMPDEST DUP4 MLOAD DUP2 LT ISZERO PUSH2 0x1417 JUMPI DUP2 DUP5 DUP3 DUP2 MLOAD DUP2 LT PUSH2 0x13E0 JUMPI PUSH2 0x13DF PUSH2 0x2017 JUMP JUMPDEST JUMPDEST PUSH1 0x20 MUL PUSH1 0x20 ADD ADD MLOAD PUSH1 0x40 MLOAD PUSH1 0x20 ADD PUSH2 0x13F9 SWAP3 SWAP2 SWAP1 PUSH2 0x2171 JUMP JUMPDEST PUSH1 0x40 MLOAD PUSH1 0x20 DUP2 DUP4 SUB SUB DUP2 MSTORE SWAP1 PUSH1 0x40 MSTORE SWAP2 POP DUP1 DUP1 PUSH1 0x1 ADD SWAP2 POP POP PUSH2 0x13C3 JUMP JUMPDEST POP DUP1 SWAP2 POP POP SWAP2 SWAP1 POP JUMP JUMPDEST PUSH2 0x29E0 DUP1 PUSH2 0x2199 DUP4 CODECOPY ADD SWAP1 JUMP JUMPDEST PUSH1 0x40 MLOAD DUP1 PUSH1 0xC0 ADD PUSH1 0x40 MSTORE DUP1 PUSH0 PUSH20 0xFFFFFFFFFFFFFFFFFFFFFFFFFFFFFFFFFFFFFFFF AND DUP2 MSTORE PUSH1 0x20 ADD PUSH1 0x60 DUP2 MSTORE PUSH1 0x20 ADD PUSH0 PUSH20 0xFFFFFFFFFFFFFFFFFFFFFFFFFFFFFFFFFFFFFFFF AND DUP2 MSTORE PUSH1 0x20 ADD PUSH1 0x60 DUP2 MSTORE PUSH1 0x20 ADD PUSH0 DUP2 MSTORE PUSH1 0x20 ADD PUSH1 0x60 DUP2 MSTORE POP SWAP1 JUMP JUMPDEST PUSH0 PUSH1 0x40 MLOAD SWAP1 POP SWAP1 JUMP JUMPDEST PUSH0 DUP1 REVERT JUMPDEST PUSH0 DUP1 REVERT JUMPDEST PUSH0 DUP1 REVERT JUMPDEST PUSH0 DUP1 REVERT JUMPDEST PUSH0 PUSH1 0x1F NOT PUSH1 0x1F DUP4 ADD AND SWAP1 POP SWAP2 SWAP1 POP JUMP JUMPDEST PUSH32 0x4E487B7100000000000000000000000000000000000000000000000000000000 PUSH0 MSTORE PUSH1 0x41 PUSH1 0x4 MSTORE PUSH1 0x24 PUSH0 REVERT JUMPDEST PUSH2 0x14EC DUP3 PUSH2 0x14A6 JUMP JUMPDEST DUP2 ADD DUP2 DUP2 LT PUSH8 0xFFFFFFFFFFFFFFFF DUP3 GT OR ISZERO PUSH2 0x150B JUMPI PUSH2 0x150A PUSH2 0x14B6 JUMP JUMPDEST JUMPDEST DUP1 PUSH1 0x40 MSTORE POP POP POP JUMP JUMPDEST PUSH0 PUSH2 0x151D PUSH2 0x148D JUMP JUMPDEST SWAP1 POP PUSH2 0x1529 DUP3 DUP3 PUSH2 0x14E3 JUMP JUMPDEST SWAP2 SWAP1 POP JUMP JUMPDEST PUSH0 PUSH8 0xFFFFFFFFFFFFFFFF DUP3 GT ISZERO PUSH2 0x1548 JUMPI PUSH2 0x1547 PUSH2 0x14B6 JUMP JUMPDEST JUMPDEST PUSH2 0x1551 DUP3 PUSH2 0x14A6 JUMP JUMPDEST SWAP1 POP PUSH1 0x20 DUP2 ADD SWAP1 POP SWAP2 SWAP1 POP JUMP JUMPDEST DUP3 DUP2 DUP4 CALLDATACOPY PUSH0 DUP4 DUP4 ADD MSTORE POP POP POP JUMP JUMPDEST PUSH0 PUSH2 0x157E PUSH2 0x1579 DUP5 PUSH2 0x152E JUMP JUMPDEST PUSH2 0x1514 JUMP JUMPDEST SWAP1 POP DUP3 DUP2 MSTORE PUSH1 0x20 DUP2 ADD DUP5 DUP5 DUP5 ADD GT ISZERO PUSH2 0x159A JUMPI PUSH2 0x1599 PUSH2 0x14A2 JUMP JUMPDEST JUMPDEST PUSH2 0x15A5 DUP5 DUP3 DUP6 PUSH2 0x155E JUMP JUMPDEST POP SWAP4 SWAP3 POP POP POP JUMP JUMPDEST PUSH0 DUP3 PUSH1 0x1F DUP4 ADD SLT PUSH2 0x15C1 JUMPI PUSH2 0x15C0 PUSH2 0x149E JUMP JUMPDEST JUMPDEST DUP2 CALLDATALOAD PUSH2 0x15D1 DUP5 DUP3 PUSH1 0x20 DUP7 ADD PUSH2 0x156C JUMP JUMPDEST SWAP2 POP POP SWAP3 SWAP2 POP POP JUMP JUMPDEST PUSH0 DUP2 SWAP1 POP SWAP2 SWAP1 POP JUMP JUMPDEST PUSH2 0x15EC DUP2 PUSH2 0x15DA JUMP JUMPDEST DUP2 EQ PUSH2 0x15F6 JUMPI PUSH0 DUP1 REVERT JUMPDEST POP JUMP JUMPDEST PUSH0 DUP2 CALLDATALOAD SWAP1 POP PUSH2 0x1607 DUP2 PUSH2 0x15E3 JUMP JUMPDEST SWAP3 SWAP2 POP POP JUMP JUMPDEST PUSH0 DUP1 PUSH0 DUP1 PUSH0 PUSH1 0xA0 DUP7 DUP9 SUB SLT ISZERO PUSH2 0x1626 JUMPI PUSH2 0x1625 PUSH2 0x1496 JUMP JUMPDEST JUMPDEST PUSH0 DUP7 ADD CALLDATALOAD PUSH8 0xFFFFFFFFFFFFFFFF DUP2 GT ISZERO PUSH2 0x1643 JUMPI PUSH2 0x1642 PUSH2 0x149A JUMP JUMPDEST JUMPDEST PUSH2 0x164F DUP9 DUP3 DUP10 ADD PUSH2 0x15AD JUMP JUMPDEST SWAP6 POP POP PUSH1 0x20 DUP7 ADD CALLDATALOAD PUSH8 0xFFFFFFFFFFFFFFFF DUP2 GT ISZERO PUSH2 0x1670 JUMPI PUSH2 0x166F PUSH2 0x149A JUMP JUMPDEST JUMPDEST PUSH2 0x167C DUP9 DUP3 DUP10 ADD PUSH2 0x15AD JUMP JUMPDEST SWAP5 POP POP PUSH1 0x40 DUP7 ADD CALLDATALOAD PUSH8 0xFFFFFFFFFFFFFFFF DUP2 GT ISZERO PUSH2 0x169D JUMPI PUSH2 0x169C PUSH2 0x149A JUMP JUMPDEST JUMPDEST PUSH2 0x16A9 DUP9 DUP3 DUP10 ADD PUSH2 0x15AD JUMP JUMPDEST SWAP4 POP POP PUSH1 0x60 PUSH2 0x16BA DUP9 DUP3 DUP10 ADD PUSH2 0x15F9 JUMP JUMPDEST SWAP3 POP POP PUSH1 0x80 DUP7 ADD CALLDATALOAD PUSH8 0xFFFFFFFFFFFFFFFF DUP2 GT ISZERO PUSH2 0x16DB JUMPI PUSH2 0x16DA PUSH2 0x149A JUMP JUMPDEST JUMPDEST PUSH2 0x16E7 DUP9 DUP3 DUP10 ADD PUSH2 0x15AD JUMP JUMPDEST SWAP2 POP POP SWAP3 SWAP6 POP SWAP3 SWAP6 SWAP1 SWAP4 POP JUMP JUMPDEST PUSH0 PUSH1 0x20 DUP3 DUP5 SUB SLT ISZERO PUSH2 0x1709 JUMPI PUSH2 0x1708 PUSH2 0x1496 JUMP JUMPDEST JUMPDEST PUSH0 DUP3 ADD CALLDATALOAD PUSH8 0xFFFFFFFFFFFFFFFF DUP2 GT ISZERO PUSH2 0x1726 JUMPI PUSH2 0x1725 PUSH2 0x149A JUMP JUMPDEST JUMPDEST PUSH2 0x1732 DUP5 DUP3 DUP6 ADD PUSH2 0x15AD JUMP JUMPDEST SWAP2 POP POP SWAP3 SWAP2 POP POP JUMP JUMPDEST PUSH0 DUP2 ISZERO ISZERO SWAP1 POP SWAP2 SWAP1 POP JUMP JUMPDEST PUSH2 0x174F DUP2 PUSH2 0x173B JUMP JUMPDEST DUP3 MSTORE POP POP JUMP JUMPDEST PUSH0 PUSH1 0x20 DUP3 ADD SWAP1 POP PUSH2 0x1768 PUSH0 DUP4 ADD DUP5 PUSH2 0x1746 JUMP JUMPDEST SWAP3 SWAP2 POP POP JUMP JUMPDEST PUSH0 PUSH20 0xFFFFFFFFFFFFFFFFFFFFFFFFFFFFFFFFFFFFFFFF DUP3 AND SWAP1 POP SWAP2 SWAP1 POP JUMP JUMPDEST PUSH0 PUSH2 0x1797 DUP3 PUSH2 0x176E JUMP JUMPDEST SWAP1 POP SWAP2 SWAP1 POP JUMP JUMPDEST PUSH2 0x17A7 DUP2 PUSH2 0x178D JUMP JUMPDEST DUP3 MSTORE POP POP JUMP JUMPDEST PUSH0 DUP2 MLOAD SWAP1 POP SWAP2 SWAP1 POP JUMP JUMPDEST PUSH0 DUP3 DUP3 MSTORE PUSH1 0x20 DUP3 ADD SWAP1 POP SWAP3 SWAP2 POP POP JUMP JUMPDEST DUP3 DUP2 DUP4 MCOPY PUSH0 DUP4 DUP4 ADD MSTORE POP POP POP JUMP JUMPDEST PUSH0 PUSH2 0x17DF DUP3 PUSH2 0x17AD JUMP JUMPDEST PUSH2 0x17E9 DUP2 DUP6 PUSH2 0x17B7 JUMP JUMPDEST SWAP4 POP PUSH2 0x17F9 DUP2 DUP6 PUSH1 0x20 DUP7 ADD PUSH2 0x17C7 JUMP JUMPDEST PUSH2 0x1802 DUP2 PUSH2 0x14A6 JUMP JUMPDEST DUP5 ADD SWAP2 POP POP SWAP3 SWAP2 POP POP JUMP JUMPDEST PUSH2 0x1816 DUP2 PUSH2 0x15DA JUMP JUMPDEST DUP3 MSTORE POP POP JUMP JUMPDEST PUSH0 PUSH1 0xC0 DUP4 ADD PUSH0 DUP4 ADD MLOAD PUSH2 0x1831 PUSH0 DUP7 ADD DUP3 PUSH2 0x179E JUMP JUMPDEST POP PUSH1 0x20 DUP4 ADD MLOAD DUP5 DUP3 SUB PUSH1 0x20 DUP7 ADD MSTORE PUSH2 0x1849 DUP3 DUP3 PUSH2 0x17D5 JUMP JUMPDEST SWAP2 POP POP PUSH1 0x40 DUP4 ADD MLOAD PUSH2 0x185E PUSH1 0x40 DUP7 ADD DUP3 PUSH2 0x179E JUMP JUMPDEST POP PUSH1 0x60 DUP4 ADD MLOAD DUP5 DUP3 SUB PUSH1 0x60 DUP7 ADD MSTORE PUSH2 0x1876 DUP3 DUP3 PUSH2 0x17D5 JUMP JUMPDEST SWAP2 POP POP PUSH1 0x80 DUP4 ADD MLOAD PUSH2 0x188B PUSH1 0x80 DUP7 ADD DUP3 PUSH2 0x180D JUMP JUMPDEST POP PUSH1 0xA0 DUP4 ADD MLOAD DUP5 DUP3 SUB PUSH1 0xA0 DUP7 ADD MSTORE PUSH2 0x18A3 DUP3 DUP3 PUSH2 0x17D5 JUMP JUMPDEST SWAP2 POP POP DUP1 SWAP2 POP POP SWAP3 SWAP2 POP POP JUMP JUMPDEST PUSH0 PUSH1 0x20 DUP3 ADD SWAP1 POP DUP2 DUP2 SUB PUSH0 DUP4 ADD MSTORE PUSH2 0x18C8 DUP2 DUP5 PUSH2 0x181C JUMP JUMPDEST SWAP1 POP SWAP3 SWAP2 POP POP JUMP JUMPDEST PUSH0 DUP2 MLOAD SWAP1 POP SWAP2 SWAP1 POP JUMP JUMPDEST PUSH0 DUP3 DUP3 MSTORE PUSH1 0x20 DUP3 ADD SWAP1 POP SWAP3 SWAP2 POP POP JUMP JUMPDEST PUSH0 DUP2 SWAP1 POP PUSH1 0x20 DUP3 ADD SWAP1 POP SWAP2 SWAP1 POP JUMP JUMPDEST PUSH0 PUSH1 0xC0 DUP4 ADD PUSH0 DUP4 ADD MLOAD PUSH2 0x190E PUSH0 DUP7 ADD DUP3 PUSH2 0x179E JUMP JUMPDEST POP PUSH1 0x20 DUP4 ADD MLOAD DUP5 DUP3 SUB PUSH1 0x20 DUP7 ADD MSTORE PUSH2 0x1926 DUP3 DUP3 PUSH2 0x17D5 JUMP JUMPDEST SWAP2 POP POP PUSH1 0x40 DUP4 ADD MLOAD PUSH2 0x193B PUSH1 0x40 DUP7 ADD DUP3 PUSH2 0x179E JUMP JUMPDEST POP PUSH1 0x60 DUP4 ADD MLOAD DUP5 DUP3 SUB PUSH1 0x60 DUP7 ADD MSTORE PUSH2 0x1953 DUP3 DUP3 PUSH2 0x17D5 JUMP JUMPDEST SWAP2 POP POP PUSH1 0x80 DUP4 ADD MLOAD PUSH2 0x1968 PUSH1 0x80 DUP7 ADD DUP3 PUSH2 0x180D JUMP JUMPDEST POP PUSH1 0xA0 DUP4 ADD MLOAD DUP5 DUP3 SUB PUSH1 0xA0 DUP7 ADD MSTORE PUSH2 0x1980 DUP3 DUP3 PUSH2 0x17D5 JUMP JUMPDEST SWAP2 POP POP DUP1 SWAP2 POP POP SWAP3 SWAP2 POP POP JUMP JUMPDEST PUSH0 PUSH2 0x1998 DUP4 DUP4 PUSH2 0x18F9 JUMP JUMPDEST SWAP1 POP SWAP3 SWAP2 POP POP JUMP JUMPDEST PUSH0 PUSH1 0x20 DUP3 ADD SWAP1 POP SWAP2 SWAP1 POP JUMP JUMPDEST PUSH0 PUSH2 0x19B6 DUP3 PUSH2 0x18D0 JUMP JUMPDEST PUSH2 0x19C0 DUP2 DUP6 PUSH2 0x18DA JUMP JUMPDEST SWAP4 POP DUP4 PUSH1 0x20 DUP3 MUL DUP6 ADD PUSH2 0x19D2 DUP6 PUSH2 0x18EA JUMP JUMPDEST DUP1 PUSH0 JUMPDEST DUP6 DUP2 LT ISZERO PUSH2 0x1A0D JUMPI DUP5 DUP5 SUB DUP10 MSTORE DUP2 MLOAD PUSH2 0x19EE DUP6 DUP3 PUSH2 0x198D JUMP JUMPDEST SWAP5 POP PUSH2 0x19F9 DUP4 PUSH2 0x19A0 JUMP JUMPDEST SWAP3 POP PUSH1 0x20 DUP11 ADD SWAP10 POP POP PUSH1 0x1 DUP2 ADD SWAP1 POP PUSH2 0x19D5 JUMP JUMPDEST POP DUP3 SWAP8 POP DUP8 SWAP6 POP POP POP POP POP POP SWAP3 SWAP2 POP POP JUMP JUMPDEST PUSH0 PUSH1 0x20 DUP3 ADD SWAP1 POP DUP2 DUP2 SUB PUSH0 DUP4 ADD MSTORE PUSH2 0x1A37 DUP2 DUP5 PUSH2 0x19AC JUMP JUMPDEST SWAP1 POP SWAP3 SWAP2 POP POP JUMP JUMPDEST PUSH2 0x1A48 DUP2 PUSH2 0x15DA JUMP JUMPDEST DUP3 MSTORE POP POP JUMP JUMPDEST PUSH0 PUSH1 0x20 DUP3 ADD SWAP1 POP PUSH2 0x1A61 PUSH0 DUP4 ADD DUP5 PUSH2 0x1A3F JUMP JUMPDEST SWAP3 SWAP2 POP POP JUMP JUMPDEST PUSH0 PUSH8 0xFFFFFFFFFFFFFFFF DUP3 GT ISZERO PUSH2 0x1A81 JUMPI PUSH2 0x1A80 PUSH2 0x14B6 JUMP JUMPDEST JUMPDEST PUSH1 0x20 DUP3 MUL SWAP1 POP PUSH1 0x20 DUP2 ADD SWAP1 POP SWAP2 SWAP1 POP JUMP JUMPDEST PUSH0 DUP1 REVERT JUMPDEST PUSH0 DUP2 SWAP1 POP SWAP2 SWAP1 POP JUMP JUMPDEST PUSH2 0x1AA8 DUP2 PUSH2 0x1A96 JUMP JUMPDEST DUP2 EQ PUSH2 0x1AB2 JUMPI PUSH0 DUP1 REVERT JUMPDEST POP JUMP JUMPDEST PUSH0 DUP2 CALLDATALOAD SWAP1 POP PUSH2 0x1AC3 DUP2 PUSH2 0x1A9F JUMP JUMPDEST SWAP3 SWAP2 POP POP JUMP JUMPDEST PUSH0 PUSH2 0x1ADB PUSH2 0x1AD6 DUP5 PUSH2 0x1A67 JUMP JUMPDEST PUSH2 0x1514 JUMP JUMPDEST SWAP1 POP DUP1 DUP4 DUP3 MSTORE PUSH1 0x20 DUP3 ADD SWAP1 POP PUSH1 0x20 DUP5 MUL DUP4 ADD DUP6 DUP2 GT ISZERO PUSH2 0x1AFE JUMPI PUSH2 0x1AFD PUSH2 0x1A92 JUMP JUMPDEST JUMPDEST DUP4 JUMPDEST DUP2 DUP2 LT ISZERO PUSH2 0x1B27 JUMPI DUP1 PUSH2 0x1B13 DUP9 DUP3 PUSH2 0x1AB5 JUMP JUMPDEST DUP5 MSTORE PUSH1 0x20 DUP5 ADD SWAP4 POP POP PUSH1 0x20 DUP2 ADD SWAP1 POP PUSH2 0x1B00 JUMP JUMPDEST POP POP POP SWAP4 SWAP3 POP POP POP JUMP JUMPDEST PUSH0 DUP3 PUSH1 0x1F DUP4 ADD SLT PUSH2 0x1B45 JUMPI PUSH2 0x1B44 PUSH2 0x149E JUMP JUMPDEST JUMPDEST DUP2 CALLDATALOAD PUSH2 0x1B55 DUP5 DUP3 PUSH1 0x20 DUP7 ADD PUSH2 0x1AC9 JUMP JUMPDEST SWAP2 POP POP SWAP3 SWAP2 POP POP JUMP JUMPDEST PUSH0 PUSH1 0x20 DUP3 DUP5 SUB SLT ISZERO PUSH2 0x1B73 JUMPI PUSH2 0x1B72 PUSH2 0x1496 JUMP JUMPDEST JUMPDEST PUSH0 DUP3 ADD CALLDATALOAD PUSH8 0xFFFFFFFFFFFFFFFF DUP2 GT ISZERO PUSH2 0x1B90 JUMPI PUSH2 0x1B8F PUSH2 0x149A JUMP JUMPDEST JUMPDEST PUSH2 0x1B9C DUP5 DUP3 DUP6 ADD PUSH2 0x1B31 JUMP JUMPDEST SWAP2 POP POP SWAP3 SWAP2 POP POP JUMP JUMPDEST PUSH0 DUP2 SWAP1 POP SWAP3 SWAP2 POP POP JUMP JUMPDEST PUSH0 PUSH2 0x1BB9 DUP3 PUSH2 0x17AD JUMP JUMPDEST PUSH2 0x1BC3 DUP2 DUP6 PUSH2 0x1BA5 JUMP JUMPDEST SWAP4 POP PUSH2 0x1BD3 DUP2 DUP6 PUSH1 0x20 DUP7 ADD PUSH2 0x17C7 JUMP JUMPDEST DUP1 DUP5 ADD SWAP2 POP POP SWAP3 SWAP2 POP POP JUMP JUMPDEST PUSH0 PUSH2 0x1BEA DUP3 DUP5 PUSH2 0x1BAF JUMP JUMPDEST SWAP2 POP DUP2 SWAP1 POP SWAP3 SWAP2 POP POP JUMP JUMPDEST PUSH0 DUP3 DUP3 MSTORE PUSH1 0x20 DUP3 ADD SWAP1 POP SWAP3 SWAP2 POP POP JUMP JUMPDEST PUSH0 PUSH2 0x1C0F DUP3 PUSH2 0x17AD JUMP JUMPDEST PUSH2 0x1C19 DUP2 DUP6 PUSH2 0x1BF5 JUMP JUMPDEST SWAP4 POP PUSH2 0x1C29 DUP2 DUP6 PUSH1 0x20 DUP7 ADD PUSH2 0x17C7 JUMP JUMPDEST PUSH2 0x1C32 DUP2 PUSH2 0x14A6 JUMP JUMPDEST DUP5 ADD SWAP2 POP POP SWAP3 SWAP2 POP POP JUMP JUMPDEST PUSH0 PUSH1 0x60 DUP3 ADD SWAP1 POP DUP2 DUP2 SUB PUSH0 DUP4 ADD MSTORE PUSH2 0x1C55 DUP2 DUP7 PUSH2 0x1C05 JUMP JUMPDEST SWAP1 POP DUP2 DUP2 SUB PUSH1 0x20 DUP4 ADD MSTORE PUSH2 0x1C69 DUP2 DUP6 PUSH2 0x1C05 JUMP JUMPDEST SWAP1 POP DUP2 DUP2 SUB PUSH1 0x40 DUP4 ADD MSTORE PUSH2 0x1C7D DUP2 DUP5 PUSH2 0x1C05 JUMP JUMPDEST SWAP1 POP SWAP5 SWAP4 POP POP POP POP JUMP JUMPDEST PUSH2 0x1C90 DUP2 PUSH2 0x178D JUMP JUMPDEST DUP3 MSTORE POP POP JUMP JUMPDEST PUSH0 PUSH1 0x20 DUP3 ADD SWAP1 POP PUSH2 0x1CA9 PUSH0 DUP4 ADD DUP5 PUSH2 0x1C87 JUMP JUMPDEST SWAP3 SWAP2 POP POP JUMP JUMPDEST PUSH32 0x4E487B7100000000000000000000000000000000000000000000000000000000 PUSH0 MSTORE PUSH1 0x22 PUSH1 0x4 MSTORE PUSH1 0x24 PUSH0 REVERT JUMPDEST PUSH0 PUSH1 0x2 DUP3 DIV SWAP1 POP PUSH1 0x1 DUP3 AND DUP1 PUSH2 0x1CF3 JUMPI PUSH1 0x7F DUP3 AND SWAP2 POP JUMPDEST PUSH1 0x20 DUP3 LT DUP2 SUB PUSH2 0x1D06 JUMPI PUSH2 0x1D05 PUSH2 0x1CAF JUMP JUMPDEST JUMPDEST POP SWAP2 SWAP1 POP JUMP JUMPDEST PUSH0 DUP2 SWAP1 POP DUP2 PUSH0 MSTORE PUSH1 0x20 PUSH0 KECCAK256 SWAP1 POP SWAP2 SWAP1 POP JUMP JUMPDEST PUSH0 PUSH1 0x20 PUSH1 0x1F DUP4 ADD DIV SWAP1 POP SWAP2 SWAP1 POP JUMP JUMPDEST PUSH0 DUP3 DUP3 SHL SWAP1 POP SWAP3 SWAP2 POP POP JUMP JUMPDEST PUSH0 PUSH1 0x8 DUP4 MUL PUSH2 0x1D68 PUSH32 0xFFFFFFFFFFFFFFFFFFFFFFFFFFFFFFFFFFFFFFFFFFFFFFFFFFFFFFFFFFFFFFFF DUP3 PUSH2 0x1D2D JUMP JUMPDEST PUSH2 0x1D72 DUP7 DUP4 PUSH2 0x1D2D JUMP JUMPDEST SWAP6 POP DUP1 NOT DUP5 AND SWAP4 POP DUP1 DUP7 AND DUP5 OR SWAP3 POP POP POP SWAP4 SWAP3 POP POP POP JUMP JUMPDEST PUSH0 DUP2 SWAP1 POP SWAP2 SWAP1 POP JUMP JUMPDEST PUSH0 PUSH2 0x1DAD PUSH2 0x1DA8 PUSH2 0x1DA3 DUP5 PUSH2 0x15DA JUMP JUMPDEST PUSH2 0x1D8A JUMP JUMPDEST PUSH2 0x15DA JUMP JUMPDEST SWAP1 POP SWAP2 SWAP1 POP JUMP JUMPDEST PUSH0 DUP2 SWAP1 POP SWAP2 SWAP1 POP JUMP JUMPDEST PUSH2 0x1DC6 DUP4 PUSH2 0x1D93 JUMP JUMPDEST PUSH2 0x1DDA PUSH2 0x1DD2 DUP3 PUSH2 0x1DB4 JUMP JUMPDEST DUP5 DUP5 SLOAD PUSH2 0x1D39 JUMP JUMPDEST DUP3 SSTORE POP POP POP POP JUMP JUMPDEST PUSH0 SWAP1 JUMP JUMPDEST PUSH2 0x1DEE PUSH2 0x1DE2 JUMP JUMPDEST PUSH2 0x1DF9 DUP2 DUP5 DUP5 PUSH2 0x1DBD JUMP JUMPDEST POP POP POP JUMP JUMPDEST JUMPDEST DUP2 DUP2 LT ISZERO PUSH2 0x1E1C JUMPI PUSH2 0x1E11 PUSH0 DUP3 PUSH2 0x1DE6 JUMP JUMPDEST PUSH1 0x1 DUP2 ADD SWAP1 POP PUSH2 0x1DFF JUMP JUMPDEST POP POP JUMP JUMPDEST PUSH1 0x1F DUP3 GT ISZERO PUSH2 0x1E61 JUMPI PUSH2 0x1E32 DUP2 PUSH2 0x1D0C JUMP JUMPDEST PUSH2 0x1E3B DUP5 PUSH2 0x1D1E JUMP JUMPDEST DUP2 ADD PUSH1 0x20 DUP6 LT ISZERO PUSH2 0x1E4A JUMPI DUP2 SWAP1 POP JUMPDEST PUSH2 0x1E5E PUSH2 0x1E56 DUP6 PUSH2 0x1D1E JUMP JUMPDEST DUP4 ADD DUP3 PUSH2 0x1DFE JUMP JUMPDEST POP POP JUMPDEST POP POP POP JUMP JUMPDEST PUSH0 DUP3 DUP3 SHR SWAP1 POP SWAP3 SWAP2 POP POP JUMP JUMPDEST PUSH0 PUSH2 0x1E81 PUSH0 NOT DUP5 PUSH1 0x8 MUL PUSH2 0x1E66 JUMP JUMPDEST NOT DUP1 DUP4 AND SWAP2 POP POP SWAP3 SWAP2 POP POP JUMP JUMPDEST PUSH0 PUSH2 0x1E99 DUP4 DUP4 PUSH2 0x1E72 JUMP JUMPDEST SWAP2 POP DUP3 PUSH1 0x2 MUL DUP3 OR SWAP1 POP SWAP3 SWAP2 POP POP JUMP JUMPDEST PUSH2 0x1EB2 DUP3 PUSH2 0x17AD JUMP JUMPDEST PUSH8 0xFFFFFFFFFFFFFFFF DUP2 GT ISZERO PUSH2 0x1ECB JUMPI PUSH2 0x1ECA PUSH2 0x14B6 JUMP JUMPDEST JUMPDEST PUSH2 0x1ED5 DUP3 SLOAD PUSH2 0x1CDC JUMP JUMPDEST PUSH2 0x1EE0 DUP3 DUP3 DUP6 PUSH2 0x1E20 JUMP JUMPDEST PUSH0 PUSH1 0x20 SWAP1 POP PUSH1 0x1F DUP4 GT PUSH1 0x1 DUP2 EQ PUSH2 0x1F11 JUMPI PUSH0 DUP5 ISZERO PUSH2 0x1EFF JUMPI DUP3 DUP8 ADD MLOAD SWAP1 POP JUMPDEST PUSH2 0x1F09 DUP6 DUP3 PUSH2 0x1E8E JUMP JUMPDEST DUP7 SSTORE POP PUSH2 0x1F70 JUMP JUMPDEST PUSH1 0x1F NOT DUP5 AND PUSH2 0x1F1F DUP7 PUSH2 0x1D0C JUMP JUMPDEST PUSH0 JUMPDEST DUP3 DUP2 LT ISZERO PUSH2 0x1F46 JUMPI DUP5 DUP10 ADD MLOAD DUP3 SSTORE PUSH1 0x1 DUP3 ADD SWAP2 POP PUSH1 0x20 DUP6 ADD SWAP5 POP PUSH1 0x20 DUP2 ADD SWAP1 POP PUSH2 0x1F21 JUMP JUMPDEST DUP7 DUP4 LT ISZERO PUSH2 0x1F63 JUMPI DUP5 DUP10 ADD MLOAD PUSH2 0x1F5F PUSH1 0x1F DUP10 AND DUP3 PUSH2 0x1E72 JUMP JUMPDEST DUP4 SSTORE POP JUMPDEST PUSH1 0x1 PUSH1 0x2 DUP9 MUL ADD DUP9 SSTORE POP POP POP JUMPDEST POP POP POP POP POP POP JUMP JUMPDEST PUSH32 0x4E487B7100000000000000000000000000000000000000000000000000000000 PUSH0 MSTORE PUSH1 0x11 PUSH1 0x4 MSTORE PUSH1 0x24 PUSH0 REVERT JUMPDEST PUSH0 PUSH2 0x1FAF DUP3 PUSH2 0x15DA JUMP JUMPDEST SWAP2 POP PUSH2 0x1FBA DUP4 PUSH2 0x15DA JUMP JUMPDEST SWAP3 POP DUP3 DUP3 SUB SWAP1 POP DUP2 DUP2 GT ISZERO PUSH2 0x1FD2 JUMPI PUSH2 0x1FD1 PUSH2 0x1F78 JUMP JUMPDEST JUMPDEST SWAP3 SWAP2 POP POP JUMP JUMPDEST PUSH0 DUP2 MLOAD SWAP1 POP PUSH2 0x1FE6 DUP2 PUSH2 0x15E3 JUMP JUMPDEST SWAP3 SWAP2 POP POP JUMP JUMPDEST PUSH0 PUSH1 0x20 DUP3 DUP5 SUB SLT ISZERO PUSH2 0x2001 JUMPI PUSH2 0x2000 PUSH2 0x1496 JUMP JUMPDEST JUMPDEST PUSH0 PUSH2 0x200E DUP5 DUP3 DUP6 ADD PUSH2 0x1FD8 JUMP JUMPDEST SWAP2 POP POP SWAP3 SWAP2 POP POP JUMP JUMPDEST PUSH32 0x4E487B7100000000000000000000000000000000000000000000000000000000 PUSH0 MSTORE PUSH1 0x32 PUSH1 0x4 MSTORE PUSH1 0x24 PUSH0 REVERT JUMPDEST PUSH0 DUP2 SLOAD PUSH2 0x2050 DUP2 PUSH2 0x1CDC JUMP JUMPDEST PUSH2 0x205A DUP2 DUP7 PUSH2 0x1BA5 JUMP JUMPDEST SWAP5 POP PUSH1 0x1 DUP3 AND PUSH0 DUP2 EQ PUSH2 0x2074 JUMPI PUSH1 0x1 DUP2 EQ PUSH2 0x2089 JUMPI PUSH2 0x20BB JUMP JUMPDEST PUSH1 0xFF NOT DUP4 AND DUP7 MSTORE DUP2 ISZERO ISZERO DUP3 MUL DUP7 ADD SWAP4 POP PUSH2 0x20BB JUMP JUMPDEST PUSH2 0x2092 DUP6 PUSH2 0x1D0C JUMP JUMPDEST PUSH0 JUMPDEST DUP4 DUP2 LT ISZERO PUSH2 0x20B3 JUMPI DUP2 SLOAD DUP2 DUP10 ADD MSTORE PUSH1 0x1 DUP3 ADD SWAP2 POP PUSH1 0x20 DUP2 ADD SWAP1 POP PUSH2 0x2094 JUMP JUMPDEST DUP4 DUP9 ADD SWAP6 POP POP POP JUMPDEST POP POP POP SWAP3 SWAP2 POP POP JUMP JUMPDEST PUSH0 PUSH2 0x20CF DUP3 DUP5 PUSH2 0x2044 JUMP JUMPDEST SWAP2 POP DUP2 SWAP1 POP SWAP3 SWAP2 POP POP JUMP JUMPDEST PUSH0 PUSH2 0x20E4 DUP3 PUSH2 0x15DA JUMP JUMPDEST SWAP2 POP PUSH2 0x20EF DUP4 PUSH2 0x15DA JUMP JUMPDEST SWAP3 POP DUP3 DUP3 ADD SWAP1 POP DUP1 DUP3 GT ISZERO PUSH2 0x2107 JUMPI PUSH2 0x2106 PUSH2 0x1F78 JUMP JUMPDEST JUMPDEST SWAP3 SWAP2 POP POP JUMP JUMPDEST PUSH0 DUP2 MLOAD SWAP1 POP SWAP2 SWAP1 POP JUMP JUMPDEST PUSH0 DUP2 SWAP1 POP SWAP3 SWAP2 POP POP JUMP JUMPDEST PUSH0 PUSH2 0x212B DUP3 PUSH2 0x210D JUMP JUMPDEST PUSH2 0x2135 DUP2 DUP6 PUSH2 0x2117 JUMP JUMPDEST SWAP4 POP PUSH2 0x2145 DUP2 DUP6 PUSH1 0x20 DUP7 ADD PUSH2 0x17C7 JUMP JUMPDEST DUP1 DUP5 ADD SWAP2 POP POP SWAP3 SWAP2 POP POP JUMP JUMPDEST PUSH0 DUP2 SWAP1 POP SWAP2 SWAP1 POP JUMP JUMPDEST PUSH2 0x216B PUSH2 0x2166 DUP3 PUSH2 0x1A96 JUMP JUMPDEST PUSH2 0x2151 JUMP JUMPDEST DUP3 MSTORE POP POP JUMP JUMPDEST PUSH0 PUSH2 0x217C DUP3 DUP6 PUSH2 0x2121 JUMP JUMPDEST SWAP2 POP PUSH2 0x2188 DUP3 DUP5 PUSH2 0x215A JUMP JUMPDEST PUSH1 0x20 DUP3 ADD SWAP2 POP DUP2 SWAP1 POP SWAP4 SWAP3 POP POP POP JUMP INVALID PUSH1 0x80 PUSH1 0x40 MSTORE CALLVALUE DUP1 ISZERO PUSH2 0xF JUMPI PUSH0 DUP1 REVERT JUMPDEST POP PUSH1 0x40 MLOAD PUSH2 0x29E0 CODESIZE SUB DUP1 PUSH2 0x29E0 DUP4 CODECOPY DUP2 DUP2 ADD PUSH1 0x40 MSTORE DUP2 ADD SWAP1 PUSH2 0x31 SWAP2 SWAP1 PUSH2 0x2FD JUMP JUMPDEST CALLER DUP4 DUP4 DUP2 PUSH0 SWAP1 DUP2 PUSH2 0x42 SWAP2 SWAP1 PUSH2 0x5AE JUMP JUMPDEST POP DUP1 PUSH1 0x1 SWAP1 DUP2 PUSH2 0x52 SWAP2 SWAP1 PUSH2 0x5AE JUMP JUMPDEST POP POP POP PUSH0 PUSH20 0xFFFFFFFFFFFFFFFFFFFFFFFFFFFFFFFFFFFFFFFF AND DUP2 PUSH20 0xFFFFFFFFFFFFFFFFFFFFFFFFFFFFFFFFFFFFFFFF AND SUB PUSH2 0xC5 JUMPI PUSH0 PUSH1 0x40 MLOAD PUSH32 0x1E4FBDF700000000000000000000000000000000000000000000000000000000 DUP2 MSTORE PUSH1 0x4 ADD PUSH2 0xBC SWAP2 SWAP1 PUSH2 0x6BC JUMP JUMPDEST PUSH1 0x40 MLOAD DUP1 SWAP2 SUB SWAP1 REVERT JUMPDEST PUSH2 0xD4 DUP2 PUSH2 0xED PUSH1 0x20 SHL PUSH1 0x20 SHR JUMP JUMPDEST POP DUP1 PUSH1 0x8 SWAP1 DUP2 PUSH2 0xE4 SWAP2 SWAP1 PUSH2 0x5AE JUMP JUMPDEST POP POP POP POP PUSH2 0x6D5 JUMP JUMPDEST PUSH0 PUSH1 0x6 PUSH0 SWAP1 SLOAD SWAP1 PUSH2 0x100 EXP SWAP1 DIV PUSH20 0xFFFFFFFFFFFFFFFFFFFFFFFFFFFFFFFFFFFFFFFF AND SWAP1 POP DUP2 PUSH1 0x6 PUSH0 PUSH2 0x100 EXP DUP2 SLOAD DUP2 PUSH20 0xFFFFFFFFFFFFFFFFFFFFFFFFFFFFFFFFFFFFFFFF MUL NOT AND SWAP1 DUP4 PUSH20 0xFFFFFFFFFFFFFFFFFFFFFFFFFFFFFFFFFFFFFFFF AND MUL OR SWAP1 SSTORE POP DUP2 PUSH20 0xFFFFFFFFFFFFFFFFFFFFFFFFFFFFFFFFFFFFFFFF AND DUP2 PUSH20 0xFFFFFFFFFFFFFFFFFFFFFFFFFFFFFFFFFFFFFFFF AND PUSH32 0x8BE0079C531659141344CD1FD0A4F28419497F9722A3DAAFE3B4186F6B6457E0 PUSH1 0x40 MLOAD PUSH1 0x40 MLOAD DUP1 SWAP2 SUB SWAP1 LOG3 POP POP JUMP JUMPDEST PUSH0 PUSH1 0x40 MLOAD SWAP1 POP SWAP1 JUMP JUMPDEST PUSH0 DUP1 REVERT JUMPDEST PUSH0 DUP1 REVERT JUMPDEST PUSH0 DUP1 REVERT JUMPDEST PUSH0 DUP1 REVERT JUMPDEST PUSH0 PUSH1 0x1F NOT PUSH1 0x1F DUP4 ADD AND SWAP1 POP SWAP2 SWAP1 POP JUMP JUMPDEST PUSH32 0x4E487B7100000000000000000000000000000000000000000000000000000000 PUSH0 MSTORE PUSH1 0x41 PUSH1 0x4 MSTORE PUSH1 0x24 PUSH0 REVERT JUMPDEST PUSH2 0x20F DUP3 PUSH2 0x1C9 JUMP JUMPDEST DUP2 ADD DUP2 DUP2 LT PUSH8 0xFFFFFFFFFFFFFFFF DUP3 GT OR ISZERO PUSH2 0x22E JUMPI PUSH2 0x22D PUSH2 0x1D9 JUMP JUMPDEST JUMPDEST DUP1 PUSH1 0x40 MSTORE POP POP POP JUMP JUMPDEST PUSH0 PUSH2 0x240 PUSH2 0x1B0 JUMP JUMPDEST SWAP1 POP PUSH2 0x24C DUP3 DUP3 PUSH2 0x206 JUMP JUMPDEST SWAP2 SWAP1 POP JUMP JUMPDEST PUSH0 PUSH8 0xFFFFFFFFFFFFFFFF DUP3 GT ISZERO PUSH2 0x26B JUMPI PUSH2 0x26A PUSH2 0x1D9 JUMP JUMPDEST JUMPDEST PUSH2 0x274 DUP3 PUSH2 0x1C9 JUMP JUMPDEST SWAP1 POP PUSH1 0x20 DUP2 ADD SWAP1 POP SWAP2 SWAP1 POP JUMP JUMPDEST DUP3 DUP2 DUP4 MCOPY PUSH0 DUP4 DUP4 ADD MSTORE POP POP POP JUMP JUMPDEST PUSH0 PUSH2 0x2A1 PUSH2 0x29C DUP5 PUSH2 0x251 JUMP JUMPDEST PUSH2 0x237 JUMP JUMPDEST SWAP1 POP DUP3 DUP2 MSTORE PUSH1 0x20 DUP2 ADD DUP5 DUP5 DUP5 ADD GT ISZERO PUSH2 0x2BD JUMPI PUSH2 0x2BC PUSH2 0x1C5 JUMP JUMPDEST JUMPDEST PUSH2 0x2C8 DUP5 DUP3 DUP6 PUSH2 0x281 JUMP JUMPDEST POP SWAP4 SWAP3 POP POP POP JUMP JUMPDEST PUSH0 DUP3 PUSH1 0x1F DUP4 ADD SLT PUSH2 0x2E4 JUMPI PUSH2 0x2E3 PUSH2 0x1C1 JUMP JUMPDEST JUMPDEST DUP2 MLOAD PUSH2 0x2F4 DUP5 DUP3 PUSH1 0x20 DUP7 ADD PUSH2 0x28F JUMP JUMPDEST SWAP2 POP POP SWAP3 SWAP2 POP POP JUMP JUMPDEST PUSH0 DUP1 PUSH0 PUSH1 0x60 DUP5 DUP7 SUB SLT ISZERO PUSH2 0x314 JUMPI PUSH2 0x313 PUSH2 0x1B9 JUMP JUMPDEST JUMPDEST PUSH0 DUP5 ADD MLOAD PUSH8 0xFFFFFFFFFFFFFFFF DUP2 GT ISZERO PUSH2 0x331 JUMPI PUSH2 0x330 PUSH2 0x1BD JUMP JUMPDEST JUMPDEST PUSH2 0x33D DUP7 DUP3 DUP8 ADD PUSH2 0x2D0 JUMP JUMPDEST SWAP4 POP POP PUSH1 0x20 DUP5 ADD MLOAD PUSH8 0xFFFFFFFFFFFFFFFF DUP2 GT ISZERO PUSH2 0x35E JUMPI PUSH2 0x35D PUSH2 0x1BD JUMP JUMPDEST JUMPDEST PUSH2 0x36A DUP7 DUP3 DUP8 ADD PUSH2 0x2D0 JUMP JUMPDEST SWAP3 POP POP PUSH1 0x40 DUP5 ADD MLOAD PUSH8 0xFFFFFFFFFFFFFFFF DUP2 GT ISZERO PUSH2 0x38B JUMPI PUSH2 0x38A PUSH2 0x1BD JUMP JUMPDEST JUMPDEST PUSH2 0x397 DUP7 DUP3 DUP8 ADD PUSH2 0x2D0 JUMP JUMPDEST SWAP2 POP POP SWAP3 POP SWAP3 POP SWAP3 JUMP JUMPDEST PUSH0 DUP2 MLOAD SWAP1 POP SWAP2 SWAP1 POP JUMP JUMPDEST PUSH32 0x4E487B7100000000000000000000000000000000000000000000000000000000 PUSH0 MSTORE PUSH1 0x22 PUSH1 0x4 MSTORE PUSH1 0x24 PUSH0 REVERT JUMPDEST PUSH0 PUSH1 0x2 DUP3 DIV SWAP1 POP PUSH1 0x1 DUP3 AND DUP1 PUSH2 0x3EF JUMPI PUSH1 0x7F DUP3 AND SWAP2 POP JUMPDEST PUSH1 0x20 DUP3 LT DUP2 SUB PUSH2 0x402 JUMPI PUSH2 0x401 PUSH2 0x3AB JUMP JUMPDEST JUMPDEST POP SWAP2 SWAP1 POP JUMP JUMPDEST PUSH0 DUP2 SWAP1 POP DUP2 PUSH0 MSTORE PUSH1 0x20 PUSH0 KECCAK256 SWAP1 POP SWAP2 SWAP1 POP JUMP JUMPDEST PUSH0 PUSH1 0x20 PUSH1 0x1F DUP4 ADD DIV SWAP1 POP SWAP2 SWAP1 POP JUMP JUMPDEST PUSH0 DUP3 DUP3 SHL SWAP1 POP SWAP3 SWAP2 POP POP JUMP JUMPDEST PUSH0 PUSH1 0x8 DUP4 MUL PUSH2 0x464 PUSH32 0xFFFFFFFFFFFFFFFFFFFFFFFFFFFFFFFFFFFFFFFFFFFFFFFFFFFFFFFFFFFFFFFF DUP3 PUSH2 0x429 JUMP JUMPDEST PUSH2 0x46E DUP7 DUP4 PUSH2 0x429 JUMP JUMPDEST SWAP6 POP DUP1 NOT DUP5 AND SWAP4 POP DUP1 DUP7 AND DUP5 OR SWAP3 POP POP POP SWAP4 SWAP3 POP POP POP JUMP JUMPDEST PUSH0 DUP2 SWAP1 POP SWAP2 SWAP1 POP JUMP JUMPDEST PUSH0 DUP2 SWAP1 POP SWAP2 SWAP1 POP JUMP JUMPDEST PUSH0 PUSH2 0x4B2 PUSH2 0x4AD PUSH2 0x4A8 DUP5 PUSH2 0x486 JUMP JUMPDEST PUSH2 0x48F JUMP JUMPDEST PUSH2 0x486 JUMP JUMPDEST SWAP1 POP SWAP2 SWAP1 POP JUMP JUMPDEST PUSH0 DUP2 SWAP1 POP SWAP2 SWAP1 POP JUMP JUMPDEST PUSH2 0x4CB DUP4 PUSH2 0x498 JUMP JUMPDEST PUSH2 0x4DF PUSH2 0x4D7 DUP3 PUSH2 0x4B9 JUMP JUMPDEST DUP5 DUP5 SLOAD PUSH2 0x435 JUMP JUMPDEST DUP3 SSTORE POP POP POP POP JUMP JUMPDEST PUSH0 SWAP1 JUMP JUMPDEST PUSH2 0x4F3 PUSH2 0x4E7 JUMP JUMPDEST PUSH2 0x4FE DUP2 DUP5 DUP5 PUSH2 0x4C2 JUMP JUMPDEST POP POP POP JUMP JUMPDEST JUMPDEST DUP2 DUP2 LT ISZERO PUSH2 0x521 JUMPI PUSH2 0x516 PUSH0 DUP3 PUSH2 0x4EB JUMP JUMPDEST PUSH1 0x1 DUP2 ADD SWAP1 POP PUSH2 0x504 JUMP JUMPDEST POP POP JUMP JUMPDEST PUSH1 0x1F DUP3 GT ISZERO PUSH2 0x566 JUMPI PUSH2 0x537 DUP2 PUSH2 0x408 JUMP JUMPDEST PUSH2 0x540 DUP5 PUSH2 0x41A JUMP JUMPDEST DUP2 ADD PUSH1 0x20 DUP6 LT ISZERO PUSH2 0x54F JUMPI DUP2 SWAP1 POP JUMPDEST PUSH2 0x563 PUSH2 0x55B DUP6 PUSH2 0x41A JUMP JUMPDEST DUP4 ADD DUP3 PUSH2 0x503 JUMP JUMPDEST POP POP JUMPDEST POP POP POP JUMP JUMPDEST PUSH0 DUP3 DUP3 SHR SWAP1 POP SWAP3 SWAP2 POP POP JUMP JUMPDEST PUSH0 PUSH2 0x586 PUSH0 NOT DUP5 PUSH1 0x8 MUL PUSH2 0x56B JUMP JUMPDEST NOT DUP1 DUP4 AND SWAP2 POP POP SWAP3 SWAP2 POP POP JUMP JUMPDEST PUSH0 PUSH2 0x59E DUP4 DUP4 PUSH2 0x577 JUMP JUMPDEST SWAP2 POP DUP3 PUSH1 0x2 MUL DUP3 OR SWAP1 POP SWAP3 SWAP2 POP POP JUMP JUMPDEST PUSH2 0x5B7 DUP3 PUSH2 0x3A1 JUMP JUMPDEST PUSH8 0xFFFFFFFFFFFFFFFF DUP2 GT ISZERO PUSH2 0x5D0 JUMPI PUSH2 0x5CF PUSH2 0x1D9 JUMP JUMPDEST JUMPDEST PUSH2 0x5DA DUP3 SLOAD PUSH2 0x3D8 JUMP JUMPDEST PUSH2 0x5E5 DUP3 DUP3 DUP6 PUSH2 0x525 JUMP JUMPDEST PUSH0 PUSH1 0x20 SWAP1 POP PUSH1 0x1F DUP4 GT PUSH1 0x1 DUP2 EQ PUSH2 0x616 JUMPI PUSH0 DUP5 ISZERO PUSH2 0x604 JUMPI DUP3 DUP8 ADD MLOAD SWAP1 POP JUMPDEST PUSH2 0x60E DUP6 DUP3 PUSH2 0x593 JUMP JUMPDEST DUP7 SSTORE POP PUSH2 0x675 JUMP JUMPDEST PUSH1 0x1F NOT DUP5 AND PUSH2 0x624 DUP7 PUSH2 0x408 JUMP JUMPDEST PUSH0 JUMPDEST DUP3 DUP2 LT ISZERO PUSH2 0x64B JUMPI DUP5 DUP10 ADD MLOAD DUP3 SSTORE PUSH1 0x1 DUP3 ADD SWAP2 POP PUSH1 0x20 DUP6 ADD SWAP5 POP PUSH1 0x20 DUP2 ADD SWAP1 POP PUSH2 0x626 JUMP JUMPDEST DUP7 DUP4 LT ISZERO PUSH2 0x668 JUMPI DUP5 DUP10 ADD MLOAD PUSH2 0x664 PUSH1 0x1F DUP10 AND DUP3 PUSH2 0x577 JUMP JUMPDEST DUP4 SSTORE POP JUMPDEST PUSH1 0x1 PUSH1 0x2 DUP9 MUL ADD DUP9 SSTORE POP POP POP JUMPDEST POP POP POP POP POP POP JUMP JUMPDEST PUSH0 PUSH20 0xFFFFFFFFFFFFFFFFFFFFFFFFFFFFFFFFFFFFFFFF DUP3 AND SWAP1 POP SWAP2 SWAP1 POP JUMP JUMPDEST PUSH0 PUSH2 0x6A6 DUP3 PUSH2 0x67D JUMP JUMPDEST SWAP1 POP SWAP2 SWAP1 POP JUMP JUMPDEST PUSH2 0x6B6 DUP2 PUSH2 0x69C JUMP JUMPDEST DUP3 MSTORE POP POP JUMP JUMPDEST PUSH0 PUSH1 0x20 DUP3 ADD SWAP1 POP PUSH2 0x6CF PUSH0 DUP4 ADD DUP5 PUSH2 0x6AD JUMP JUMPDEST SWAP3 SWAP2 POP POP JUMP JUMPDEST PUSH2 0x22FE DUP1 PUSH2 0x6E2 PUSH0 CODECOPY PUSH0 RETURN INVALID PUSH1 0x80 PUSH1 0x40 MSTORE CALLVALUE DUP1 ISZERO PUSH2 0xF JUMPI PUSH0 DUP1 REVERT JUMPDEST POP PUSH1 0x4 CALLDATASIZE LT PUSH2 0x109 JUMPI PUSH0 CALLDATALOAD PUSH1 0xE0 SHR DUP1 PUSH4 0x70A08231 GT PUSH2 0xA0 JUMPI DUP1 PUSH4 0xA22CB465 GT PUSH2 0x6F JUMPI DUP1 PUSH4 0xA22CB465 EQ PUSH2 0x2A1 JUMPI DUP1 PUSH4 0xB88D4FDE EQ PUSH2 0x2BD JUMPI DUP1 PUSH4 0xC87B56DD EQ PUSH2 0x2D9 JUMPI DUP1 PUSH4 0xE985E9C5 EQ PUSH2 0x309 JUMPI DUP1 PUSH4 0xF2FDE38B EQ PUSH2 0x339 JUMPI PUSH2 0x109 JUMP JUMPDEST DUP1 PUSH4 0x70A08231 EQ PUSH2 0x22B JUMPI DUP1 PUSH4 0x715018A6 EQ PUSH2 0x25B JUMPI DUP1 PUSH4 0x8DA5CB5B EQ PUSH2 0x265 JUMPI DUP1 PUSH4 0x95D89B41 EQ PUSH2 0x283 JUMPI PUSH2 0x109 JUMP JUMPDEST DUP1 PUSH4 0x23B872DD GT PUSH2 0xDC JUMPI DUP1 PUSH4 0x23B872DD EQ PUSH2 0x1A7 JUMPI DUP1 PUSH4 0x42842E0E EQ PUSH2 0x1C3 JUMPI DUP1 PUSH4 0x6352211E EQ PUSH2 0x1DF JUMPI DUP1 PUSH4 0x6A627842 EQ PUSH2 0x20F JUMPI PUSH2 0x109 JUMP JUMPDEST DUP1 PUSH4 0x1FFC9A7 EQ PUSH2 0x10D JUMPI DUP1 PUSH4 0x6FDDE03 EQ PUSH2 0x13D JUMPI DUP1 PUSH4 0x81812FC EQ PUSH2 0x15B JUMPI DUP1 PUSH4 0x95EA7B3 EQ PUSH2 0x18B JUMPI JUMPDEST PUSH0 DUP1 REVERT JUMPDEST PUSH2 0x127 PUSH1 0x4 DUP1 CALLDATASIZE SUB DUP2 ADD SWAP1 PUSH2 0x122 SWAP2 SWAP1 PUSH2 0x1778 JUMP JUMPDEST PUSH2 0x355 JUMP JUMPDEST PUSH1 0x40 MLOAD PUSH2 0x134 SWAP2 SWAP1 PUSH2 0x17BD JUMP JUMPDEST PUSH1 0x40 MLOAD DUP1 SWAP2 SUB SWAP1 RETURN JUMPDEST PUSH2 0x145 PUSH2 0x436 JUMP JUMPDEST PUSH1 0x40 MLOAD PUSH2 0x152 SWAP2 SWAP1 PUSH2 0x1846 JUMP JUMPDEST PUSH1 0x40 MLOAD DUP1 SWAP2 SUB SWAP1 RETURN JUMPDEST PUSH2 0x175 PUSH1 0x4 DUP1 CALLDATASIZE SUB DUP2 ADD SWAP1 PUSH2 0x170 SWAP2 SWAP1 PUSH2 0x1899 JUMP JUMPDEST PUSH2 0x4C5 JUMP JUMPDEST PUSH1 0x40 MLOAD PUSH2 0x182 SWAP2 SWAP1 PUSH2 0x1903 JUMP JUMPDEST PUSH1 0x40 MLOAD DUP1 SWAP2 SUB SWAP1 RETURN JUMPDEST PUSH2 0x1A5 PUSH1 0x4 DUP1 CALLDATASIZE SUB DUP2 ADD SWAP1 PUSH2 0x1A0 SWAP2 SWAP1 PUSH2 0x1946 JUMP JUMPDEST PUSH2 0x4E0 JUMP JUMPDEST STOP JUMPDEST PUSH2 0x1C1 PUSH1 0x4 DUP1 CALLDATASIZE SUB DUP2 ADD SWAP1 PUSH2 0x1BC SWAP2 SWAP1 PUSH2 0x1984 JUMP JUMPDEST PUSH2 0x4F6 JUMP JUMPDEST STOP JUMPDEST PUSH2 0x1DD PUSH1 0x4 DUP1 CALLDATASIZE SUB DUP2 ADD SWAP1 PUSH2 0x1D8 SWAP2 SWAP1 PUSH2 0x1984 JUMP JUMPDEST PUSH2 0x5F5 JUMP JUMPDEST STOP JUMPDEST PUSH2 0x1F9 PUSH1 0x4 DUP1 CALLDATASIZE SUB DUP2 ADD SWAP1 PUSH2 0x1F4 SWAP2 SWAP1 PUSH2 0x1899 JUMP JUMPDEST PUSH2 0x614 JUMP JUMPDEST PUSH1 0x40 MLOAD PUSH2 0x206 SWAP2 SWAP1 PUSH2 0x1903 JUMP JUMPDEST PUSH1 0x40 MLOAD DUP1 SWAP2 SUB SWAP1 RETURN JUMPDEST PUSH2 0x229 PUSH1 0x4 DUP1 CALLDATASIZE SUB DUP2 ADD SWAP1 PUSH2 0x224 SWAP2 SWAP1 PUSH2 0x19D4 JUMP JUMPDEST PUSH2 0x625 JUMP JUMPDEST STOP JUMPDEST PUSH2 0x245 PUSH1 0x4 DUP1 CALLDATASIZE SUB DUP2 ADD SWAP1 PUSH2 0x240 SWAP2 SWAP1 PUSH2 0x19D4 JUMP JUMPDEST PUSH2 0x653 JUMP JUMPDEST PUSH1 0x40 MLOAD PUSH2 0x252 SWAP2 SWAP1 PUSH2 0x1A0E JUMP JUMPDEST PUSH1 0x40 MLOAD DUP1 SWAP2 SUB SWAP1 RETURN JUMPDEST PUSH2 0x263 PUSH2 0x709 JUMP JUMPDEST STOP JUMPDEST PUSH2 0x26D PUSH2 0x71C JUMP JUMPDEST PUSH1 0x40 MLOAD PUSH2 0x27A SWAP2 SWAP1 PUSH2 0x1903 JUMP JUMPDEST PUSH1 0x40 MLOAD DUP1 SWAP2 SUB SWAP1 RETURN JUMPDEST PUSH2 0x28B PUSH2 0x744 JUMP JUMPDEST PUSH1 0x40 MLOAD PUSH2 0x298 SWAP2 SWAP1 PUSH2 0x1846 JUMP JUMPDEST PUSH1 0x40 MLOAD DUP1 SWAP2 SUB SWAP1 RETURN JUMPDEST PUSH2 0x2BB PUSH1 0x4 DUP1 CALLDATASIZE SUB DUP2 ADD SWAP1 PUSH2 0x2B6 SWAP2 SWAP1 PUSH2 0x1A51 JUMP JUMPDEST PUSH2 0x7D4 JUMP JUMPDEST STOP JUMPDEST PUSH2 0x2D7 PUSH1 0x4 DUP1 CALLDATASIZE SUB DUP2 ADD SWAP1 PUSH2 0x2D2 SWAP2 SWAP1 PUSH2 0x1BBB JUMP JUMPDEST PUSH2 0x7EA JUMP JUMPDEST STOP JUMPDEST PUSH2 0x2F3 PUSH1 0x4 DUP1 CALLDATASIZE SUB DUP2 ADD SWAP1 PUSH2 0x2EE SWAP2 SWAP1 PUSH2 0x1899 JUMP JUMPDEST PUSH2 0x807 JUMP JUMPDEST PUSH1 0x40 MLOAD PUSH2 0x300 SWAP2 SWAP1 PUSH2 0x1846 JUMP JUMPDEST PUSH1 0x40 MLOAD DUP1 SWAP2 SUB SWAP1 RETURN JUMPDEST PUSH2 0x323 PUSH1 0x4 DUP1 CALLDATASIZE SUB DUP2 ADD SWAP1 PUSH2 0x31E SWAP2 SWAP1 PUSH2 0x1C3B JUMP JUMPDEST PUSH2 0x874 JUMP JUMPDEST PUSH1 0x40 MLOAD PUSH2 0x330 SWAP2 SWAP1 PUSH2 0x17BD JUMP JUMPDEST PUSH1 0x40 MLOAD DUP1 SWAP2 SUB SWAP1 RETURN JUMPDEST PUSH2 0x353 PUSH1 0x4 DUP1 CALLDATASIZE SUB DUP2 ADD SWAP1 PUSH2 0x34E SWAP2 SWAP1 PUSH2 0x19D4 JUMP JUMPDEST PUSH2 0x902 JUMP JUMPDEST STOP JUMPDEST PUSH0 PUSH32 0x80AC58CD00000000000000000000000000000000000000000000000000000000 PUSH28 0xFFFFFFFFFFFFFFFFFFFFFFFFFFFFFFFFFFFFFFFFFFFFFFFFFFFFFFFF NOT AND DUP3 PUSH28 0xFFFFFFFFFFFFFFFFFFFFFFFFFFFFFFFFFFFFFFFFFFFFFFFFFFFFFFFF NOT AND EQ DUP1 PUSH2 0x41F JUMPI POP PUSH32 0x5B5E139F00000000000000000000000000000000000000000000000000000000 PUSH28 0xFFFFFFFFFFFFFFFFFFFFFFFFFFFFFFFFFFFFFFFFFFFFFFFFFFFFFFFF NOT AND DUP3 PUSH28 0xFFFFFFFFFFFFFFFFFFFFFFFFFFFFFFFFFFFFFFFFFFFFFFFFFFFFFFFF NOT AND EQ JUMPDEST DUP1 PUSH2 0x42F JUMPI POP PUSH2 0x42E DUP3 PUSH2 0x986 JUMP JUMPDEST JUMPDEST SWAP1 POP SWAP2 SWAP1 POP JUMP JUMPDEST PUSH1 0x60 PUSH0 DUP1 SLOAD PUSH2 0x444 SWAP1 PUSH2 0x1CA6 JUMP JUMPDEST DUP1 PUSH1 0x1F ADD PUSH1 0x20 DUP1 SWAP2 DIV MUL PUSH1 0x20 ADD PUSH1 0x40 MLOAD SWAP1 DUP2 ADD PUSH1 0x40 MSTORE DUP1 SWAP3 SWAP2 SWAP1 DUP2 DUP2 MSTORE PUSH1 0x20 ADD DUP3 DUP1 SLOAD PUSH2 0x470 SWAP1 PUSH2 0x1CA6 JUMP JUMPDEST DUP1 ISZERO PUSH2 0x4BB JUMPI DUP1 PUSH1 0x1F LT PUSH2 0x492 JUMPI PUSH2 0x100 DUP1 DUP4 SLOAD DIV MUL DUP4 MSTORE SWAP2 PUSH1 0x20 ADD SWAP2 PUSH2 0x4BB JUMP JUMPDEST DUP3 ADD SWAP2 SWAP1 PUSH0 MSTORE PUSH1 0x20 PUSH0 KECCAK256 SWAP1 JUMPDEST DUP2 SLOAD DUP2 MSTORE SWAP1 PUSH1 0x1 ADD SWAP1 PUSH1 0x20 ADD DUP1 DUP4 GT PUSH2 0x49E JUMPI DUP3 SWAP1 SUB PUSH1 0x1F AND DUP3 ADD SWAP2 JUMPDEST POP POP POP POP POP SWAP1 POP SWAP1 JUMP JUMPDEST PUSH0 PUSH2 0x4CF DUP3 PUSH2 0x9EF JUMP JUMPDEST POP PUSH2 0x4D9 DUP3 PUSH2 0xA75 JUMP JUMPDEST SWAP1 POP SWAP2 SWAP1 POP JUMP JUMPDEST PUSH2 0x4F2 DUP3 DUP3 PUSH2 0x4ED PUSH2 0xAAE JUMP JUMPDEST PUSH2 0xAB5 JUMP JUMPDEST POP POP JUMP JUMPDEST PUSH0 PUSH20 0xFFFFFFFFFFFFFFFFFFFFFFFFFFFFFFFFFFFFFFFF AND DUP3 PUSH20 0xFFFFFFFFFFFFFFFFFFFFFFFFFFFFFFFFFFFFFFFF AND SUB PUSH2 0x566 JUMPI PUSH0 PUSH1 0x40 MLOAD PUSH32 0x64A0AE9200000000000000000000000000000000000000000000000000000000 DUP2 MSTORE PUSH1 0x4 ADD PUSH2 0x55D SWAP2 SWAP1 PUSH2 0x1903 JUMP JUMPDEST PUSH1 0x40 MLOAD DUP1 SWAP2 SUB SWAP1 REVERT JUMPDEST PUSH0 PUSH2 0x579 DUP4 DUP4 PUSH2 0x574 PUSH2 0xAAE JUMP JUMPDEST PUSH2 0xAC7 JUMP JUMPDEST SWAP1 POP DUP4 PUSH20 0xFFFFFFFFFFFFFFFFFFFFFFFFFFFFFFFFFFFFFFFF AND DUP2 PUSH20 0xFFFFFFFFFFFFFFFFFFFFFFFFFFFFFFFFFFFFFFFF AND EQ PUSH2 0x5EF JUMPI DUP4 DUP3 DUP3 PUSH1 0x40 MLOAD PUSH32 0x64283D7B00000000000000000000000000000000000000000000000000000000 DUP2 MSTORE PUSH1 0x4 ADD PUSH2 0x5E6 SWAP4 SWAP3 SWAP2 SWAP1 PUSH2 0x1CD6 JUMP JUMPDEST PUSH1 0x40 MLOAD DUP1 SWAP2 SUB SWAP1 REVERT JUMPDEST POP POP POP POP JUMP JUMPDEST PUSH2 0x60F DUP4 DUP4 DUP4 PUSH1 0x40 MLOAD DUP1 PUSH1 0x20 ADD PUSH1 0x40 MSTORE DUP1 PUSH0 DUP2 MSTORE POP PUSH2 0x7EA JUMP JUMPDEST POP POP POP JUMP JUMPDEST PUSH0 PUSH2 0x61E DUP3 PUSH2 0x9EF JUMP JUMPDEST SWAP1 POP SWAP2 SWAP1 POP JUMP JUMPDEST PUSH2 0x62D PUSH2 0xCD2 JUMP JUMPDEST PUSH2 0x639 DUP2 PUSH1 0x7 SLOAD PUSH2 0xD59 JUMP JUMPDEST PUSH1 0x7 PUSH0 DUP2 SLOAD DUP1 SWAP3 SWAP2 SWAP1 PUSH2 0x64B SWAP1 PUSH2 0x1D38 JUMP JUMPDEST SWAP2 SWAP1 POP SSTORE POP POP JUMP JUMPDEST PUSH0 DUP1 PUSH20 0xFFFFFFFFFFFFFFFFFFFFFFFFFFFFFFFFFFFFFFFF AND DUP3 PUSH20 0xFFFFFFFFFFFFFFFFFFFFFFFFFFFFFFFFFFFFFFFF AND SUB PUSH2 0x6C4 JUMPI PUSH0 PUSH1 0x40 MLOAD PUSH32 0x89C62B6400000000000000000000000000000000000000000000000000000000 DUP2 MSTORE PUSH1 0x4 ADD PUSH2 0x6BB SWAP2 SWAP1 PUSH2 0x1903 JUMP JUMPDEST PUSH1 0x40 MLOAD DUP1 SWAP2 SUB SWAP1 REVERT JUMPDEST PUSH1 0x3 PUSH0 DUP4 PUSH20 0xFFFFFFFFFFFFFFFFFFFFFFFFFFFFFFFFFFFFFFFF AND PUSH20 0xFFFFFFFFFFFFFFFFFFFFFFFFFFFFFFFFFFFFFFFF AND DUP2 MSTORE PUSH1 0x20 ADD SWAP1 DUP2 MSTORE PUSH1 0x20 ADD PUSH0 KECCAK256 SLOAD SWAP1 POP SWAP2 SWAP1 POP JUMP JUMPDEST PUSH2 0x711 PUSH2 0xCD2 JUMP JUMPDEST PUSH2 0x71A PUSH0 PUSH2 0xE4C JUMP JUMPDEST JUMP JUMPDEST PUSH0 PUSH1 0x6 PUSH0 SWAP1 SLOAD SWAP1 PUSH2 0x100 EXP SWAP1 DIV PUSH20 0xFFFFFFFFFFFFFFFFFFFFFFFFFFFFFFFFFFFFFFFF AND SWAP1 POP SWAP1 JUMP JUMPDEST PUSH1 0x60 PUSH1 0x1 DUP1 SLOAD PUSH2 0x753 SWAP1 PUSH2 0x1CA6 JUMP JUMPDEST DUP1 PUSH1 0x1F ADD PUSH1 0x20 DUP1 SWAP2 DIV MUL PUSH1 0x20 ADD PUSH1 0x40 MLOAD SWAP1 DUP2 ADD PUSH1 0x40 MSTORE DUP1 SWAP3 SWAP2 SWAP1 DUP2 DUP2 MSTORE PUSH1 0x20 ADD DUP3 DUP1 SLOAD PUSH2 0x77F SWAP1 PUSH2 0x1CA6 JUMP JUMPDEST DUP1 ISZERO PUSH2 0x7CA JUMPI DUP1 PUSH1 0x1F LT PUSH2 0x7A1 JUMPI PUSH2 0x100 DUP1 DUP4 SLOAD DIV MUL DUP4 MSTORE SWAP2 PUSH1 0x20 ADD SWAP2 PUSH2 0x7CA JUMP JUMPDEST DUP3 ADD SWAP2 SWAP1 PUSH0 MSTORE PUSH1 0x20 PUSH0 KECCAK256 SWAP1 JUMPDEST DUP2 SLOAD DUP2 MSTORE SWAP1 PUSH1 0x1 ADD SWAP1 PUSH1 0x20 ADD DUP1 DUP4 GT PUSH2 0x7AD JUMPI DUP3 SWAP1 SUB PUSH1 0x1F AND DUP3 ADD SWAP2 JUMPDEST POP POP POP POP POP SWAP1 POP SWAP1 JUMP JUMPDEST PUSH2 0x7E6 PUSH2 0x7DF PUSH2 0xAAE JUMP JUMPDEST DUP4 DUP4 PUSH2 0xF0F JUMP JUMPDEST POP POP JUMP JUMPDEST PUSH2 0x7F5 DUP5 DUP5 DUP5 PUSH2 0x4F6 JUMP JUMPDEST PUSH2 0x801 DUP5 DUP5 DUP5 DUP5 PUSH2 0x1078 JUMP JUMPDEST POP POP POP POP JUMP JUMPDEST PUSH1 0x60 PUSH2 0x812 DUP3 PUSH2 0x9EF JUMP JUMPDEST POP PUSH2 0x84E PUSH2 0x81E PUSH2 0x436 JUMP JUMPDEST PUSH2 0x826 PUSH2 0x436 JUMP JUMPDEST PUSH1 0x8 PUSH1 0x40 MLOAD PUSH1 0x20 ADD PUSH2 0x83A SWAP4 SWAP3 SWAP2 SWAP1 PUSH2 0x1FE3 JUMP JUMPDEST PUSH1 0x40 MLOAD PUSH1 0x20 DUP2 DUP4 SUB SUB DUP2 MSTORE SWAP1 PUSH1 0x40 MSTORE PUSH2 0x122A JUMP JUMPDEST PUSH1 0x40 MLOAD PUSH1 0x20 ADD PUSH2 0x85E SWAP2 SWAP1 PUSH2 0x2094 JUMP JUMPDEST PUSH1 0x40 MLOAD PUSH1 0x20 DUP2 DUP4 SUB SUB DUP2 MSTORE SWAP1 PUSH1 0x40 MSTORE SWAP1 POP SWAP2 SWAP1 POP JUMP JUMPDEST PUSH0 PUSH1 0x5 PUSH0 DUP5 PUSH20 0xFFFFFFFFFFFFFFFFFFFFFFFFFFFFFFFFFFFFFFFF AND PUSH20 0xFFFFFFFFFFFFFFFFFFFFFFFFFFFFFFFFFFFFFFFF AND DUP2 MSTORE PUSH1 0x20 ADD SWAP1 DUP2 MSTORE PUSH1 0x20 ADD PUSH0 KECCAK256 PUSH0 DUP4 PUSH20 0xFFFFFFFFFFFFFFFFFFFFFFFFFFFFFFFFFFFFFFFF AND PUSH20 0xFFFFFFFFFFFFFFFFFFFFFFFFFFFFFFFFFFFFFFFF AND DUP2 MSTORE PUSH1 0x20 ADD SWAP1 DUP2 MSTORE PUSH1 0x20 ADD PUSH0 KECCAK256 PUSH0 SWAP1 SLOAD SWAP1 PUSH2 0x100 EXP SWAP1 DIV PUSH1 0xFF AND SWAP1 POP SWAP3 SWAP2 POP POP JUMP JUMPDEST PUSH2 0x90A PUSH2 0xCD2 JUMP JUMPDEST PUSH0 PUSH20 0xFFFFFFFFFFFFFFFFFFFFFFFFFFFFFFFFFFFFFFFF AND DUP2 PUSH20 0xFFFFFFFFFFFFFFFFFFFFFFFFFFFFFFFFFFFFFFFF AND SUB PUSH2 0x97A JUMPI PUSH0 PUSH1 0x40 MLOAD PUSH32 0x1E4FBDF700000000000000000000000000000000000000000000000000000000 DUP2 MSTORE PUSH1 0x4 ADD PUSH2 0x971 SWAP2 SWAP1 PUSH2 0x1903 JUMP JUMPDEST PUSH1 0x40 MLOAD DUP1 SWAP2 SUB SWAP1 REVERT JUMPDEST PUSH2 0x983 DUP2 PUSH2 0xE4C JUMP JUMPDEST POP JUMP JUMPDEST PUSH0 PUSH32 0x1FFC9A700000000000000000000000000000000000000000000000000000000 PUSH28 0xFFFFFFFFFFFFFFFFFFFFFFFFFFFFFFFFFFFFFFFFFFFFFFFFFFFFFFFF NOT AND DUP3 PUSH28 0xFFFFFFFFFFFFFFFFFFFFFFFFFFFFFFFFFFFFFFFFFFFFFFFFFFFFFFFF NOT AND EQ SWAP1 POP SWAP2 SWAP1 POP JUMP JUMPDEST PUSH0 DUP1 PUSH2 0x9FA DUP4 PUSH2 0x1397 JUMP JUMPDEST SWAP1 POP PUSH0 PUSH20 0xFFFFFFFFFFFFFFFFFFFFFFFFFFFFFFFFFFFFFFFF AND DUP2 PUSH20 0xFFFFFFFFFFFFFFFFFFFFFFFFFFFFFFFFFFFFFFFF AND SUB PUSH2 0xA6C JUMPI DUP3 PUSH1 0x40 MLOAD PUSH32 0x7E27328900000000000000000000000000000000000000000000000000000000 DUP2 MSTORE PUSH1 0x4 ADD PUSH2 0xA63 SWAP2 SWAP1 PUSH2 0x1A0E JUMP JUMPDEST PUSH1 0x40 MLOAD DUP1 SWAP2 SUB SWAP1 REVERT JUMPDEST DUP1 SWAP2 POP POP SWAP2 SWAP1 POP JUMP JUMPDEST PUSH0 PUSH1 0x4 PUSH0 DUP4 DUP2 MSTORE PUSH1 0x20 ADD SWAP1 DUP2 MSTORE PUSH1 0x20 ADD PUSH0 KECCAK256 PUSH0 SWAP1 SLOAD SWAP1 PUSH2 0x100 EXP SWAP1 DIV PUSH20 0xFFFFFFFFFFFFFFFFFFFFFFFFFFFFFFFFFFFFFFFF AND SWAP1 POP SWAP2 SWAP1 POP JUMP JUMPDEST PUSH0 CALLER SWAP1 POP SWAP1 JUMP JUMPDEST PUSH2 0xAC2 DUP4 DUP4 DUP4 PUSH1 0x1 PUSH2 0x13D0 JUMP JUMPDEST POP POP POP JUMP JUMPDEST PUSH0 DUP1 PUSH2 0xAD2 DUP5 PUSH2 0x1397 JUMP JUMPDEST SWAP1 POP PUSH0 PUSH20 0xFFFFFFFFFFFFFFFFFFFFFFFFFFFFFFFFFFFFFFFF AND DUP4 PUSH20 0xFFFFFFFFFFFFFFFFFFFFFFFFFFFFFFFFFFFFFFFF AND EQ PUSH2 0xB13 JUMPI PUSH2 0xB12 DUP2 DUP5 DUP7 PUSH2 0x158F JUMP JUMPDEST JUMPDEST PUSH0 PUSH20 0xFFFFFFFFFFFFFFFFFFFFFFFFFFFFFFFFFFFFFFFF AND DUP2 PUSH20 0xFFFFFFFFFFFFFFFFFFFFFFFFFFFFFFFFFFFFFFFF AND EQ PUSH2 0xB9E JUMPI PUSH2 0xB52 PUSH0 DUP6 PUSH0 DUP1 PUSH2 0x13D0 JUMP JUMPDEST PUSH1 0x1 PUSH1 0x3 PUSH0 DUP4 PUSH20 0xFFFFFFFFFFFFFFFFFFFFFFFFFFFFFFFFFFFFFFFF AND PUSH20 0xFFFFFFFFFFFFFFFFFFFFFFFFFFFFFFFFFFFFFFFF AND DUP2 MSTORE PUSH1 0x20 ADD SWAP1 DUP2 MSTORE PUSH1 0x20 ADD PUSH0 KECCAK256 PUSH0 DUP3 DUP3 SLOAD SUB SWAP3 POP POP DUP2 SWAP1 SSTORE POP JUMPDEST PUSH0 PUSH20 0xFFFFFFFFFFFFFFFFFFFFFFFFFFFFFFFFFFFFFFFF AND DUP6 PUSH20 0xFFFFFFFFFFFFFFFFFFFFFFFFFFFFFFFFFFFFFFFF AND EQ PUSH2 0xC1D JUMPI PUSH1 0x1 PUSH1 0x3 PUSH0 DUP8 PUSH20 0xFFFFFFFFFFFFFFFFFFFFFFFFFFFFFFFFFFFFFFFF AND PUSH20 0xFFFFFFFFFFFFFFFFFFFFFFFFFFFFFFFFFFFFFFFF AND DUP2 MSTORE PUSH1 0x20 ADD SWAP1 DUP2 MSTORE PUSH1 0x20 ADD PUSH0 KECCAK256 PUSH0 DUP3 DUP3 SLOAD ADD SWAP3 POP POP DUP2 SWAP1 SSTORE POP JUMPDEST DUP5 PUSH1 0x2 PUSH0 DUP7 DUP2 MSTORE PUSH1 0x20 ADD SWAP1 DUP2 MSTORE PUSH1 0x20 ADD PUSH0 KECCAK256 PUSH0 PUSH2 0x100 EXP DUP2 SLOAD DUP2 PUSH20 0xFFFFFFFFFFFFFFFFFFFFFFFFFFFFFFFFFFFFFFFF MUL NOT AND SWAP1 DUP4 PUSH20 0xFFFFFFFFFFFFFFFFFFFFFFFFFFFFFFFFFFFFFFFF AND MUL OR SWAP1 SSTORE POP DUP4 DUP6 PUSH20 0xFFFFFFFFFFFFFFFFFFFFFFFFFFFFFFFFFFFFFFFF AND DUP3 PUSH20 0xFFFFFFFFFFFFFFFFFFFFFFFFFFFFFFFFFFFFFFFF AND PUSH32 0xDDF252AD1BE2C89B69C2B068FC378DAA952BA7F163C4A11628F55A4DF523B3EF PUSH1 0x40 MLOAD PUSH1 0x40 MLOAD DUP1 SWAP2 SUB SWAP1 LOG4 DUP1 SWAP2 POP POP SWAP4 SWAP3 POP POP POP JUMP JUMPDEST PUSH2 0xCDA PUSH2 0xAAE JUMP JUMPDEST PUSH20 0xFFFFFFFFFFFFFFFFFFFFFFFFFFFFFFFFFFFFFFFF AND PUSH2 0xCF8 PUSH2 0x71C JUMP JUMPDEST PUSH20 0xFFFFFFFFFFFFFFFFFFFFFFFFFFFFFFFFFFFFFFFF AND EQ PUSH2 0xD57 JUMPI PUSH2 0xD1B PUSH2 0xAAE JUMP JUMPDEST PUSH1 0x40 MLOAD PUSH32 0x118CDAA700000000000000000000000000000000000000000000000000000000 DUP2 MSTORE PUSH1 0x4 ADD PUSH2 0xD4E SWAP2 SWAP1 PUSH2 0x1903 JUMP JUMPDEST PUSH1 0x40 MLOAD DUP1 SWAP2 SUB SWAP1 REVERT JUMPDEST JUMP JUMPDEST PUSH0 PUSH20 0xFFFFFFFFFFFFFFFFFFFFFFFFFFFFFFFFFFFFFFFF AND DUP3 PUSH20 0xFFFFFFFFFFFFFFFFFFFFFFFFFFFFFFFFFFFFFFFF AND SUB PUSH2 0xDC9 JUMPI PUSH0 PUSH1 0x40 MLOAD PUSH32 0x64A0AE9200000000000000000000000000000000000000000000000000000000 DUP2 MSTORE PUSH1 0x4 ADD PUSH2 0xDC0 SWAP2 SWAP1 PUSH2 0x1903 JUMP JUMPDEST PUSH1 0x40 MLOAD DUP1 SWAP2 SUB SWAP1 REVERT JUMPDEST PUSH0 PUSH2 0xDD5 DUP4 DUP4 PUSH0 PUSH2 0xAC7 JUMP JUMPDEST SWAP1 POP PUSH0 PUSH20 0xFFFFFFFFFFFFFFFFFFFFFFFFFFFFFFFFFFFFFFFF AND DUP2 PUSH20 0xFFFFFFFFFFFFFFFFFFFFFFFFFFFFFFFFFFFFFFFF AND EQ PUSH2 0xE47 JUMPI PUSH0 PUSH1 0x40 MLOAD PUSH32 0x73C6AC6E00000000000000000000000000000000000000000000000000000000 DUP2 MSTORE PUSH1 0x4 ADD PUSH2 0xE3E SWAP2 SWAP1 PUSH2 0x1903 JUMP JUMPDEST PUSH1 0x40 MLOAD DUP1 SWAP2 SUB SWAP1 REVERT JUMPDEST POP POP POP JUMP JUMPDEST PUSH0 PUSH1 0x6 PUSH0 SWAP1 SLOAD SWAP1 PUSH2 0x100 EXP SWAP1 DIV PUSH20 0xFFFFFFFFFFFFFFFFFFFFFFFFFFFFFFFFFFFFFFFF AND SWAP1 POP DUP2 PUSH1 0x6 PUSH0 PUSH2 0x100 EXP DUP2 SLOAD DUP2 PUSH20 0xFFFFFFFFFFFFFFFFFFFFFFFFFFFFFFFFFFFFFFFF MUL NOT AND SWAP1 DUP4 PUSH20 0xFFFFFFFFFFFFFFFFFFFFFFFFFFFFFFFFFFFFFFFF AND MUL OR SWAP1 SSTORE POP DUP2 PUSH20 0xFFFFFFFFFFFFFFFFFFFFFFFFFFFFFFFFFFFFFFFF AND DUP2 PUSH20 0xFFFFFFFFFFFFFFFFFFFFFFFFFFFFFFFFFFFFFFFF AND PUSH32 0x8BE0079C531659141344CD1FD0A4F28419497F9722A3DAAFE3B4186F6B6457E0 PUSH1 0x40 MLOAD PUSH1 0x40 MLOAD DUP1 SWAP2 SUB SWAP1 LOG3 POP POP JUMP JUMPDEST PUSH0 PUSH20 0xFFFFFFFFFFFFFFFFFFFFFFFFFFFFFFFFFFFFFFFF AND DUP3 PUSH20 0xFFFFFFFFFFFFFFFFFFFFFFFFFFFFFFFFFFFFFFFF AND SUB PUSH2 0xF7F JUMPI DUP2 PUSH1 0x40 MLOAD PUSH32 0x5B08BA1800000000000000000000000000000000000000000000000000000000 DUP2 MSTORE PUSH1 0x4 ADD PUSH2 0xF76 SWAP2 SWAP1 PUSH2 0x1903 JUMP JUMPDEST PUSH1 0x40 MLOAD DUP1 SWAP2 SUB SWAP1 REVERT JUMPDEST DUP1 PUSH1 0x5 PUSH0 DUP6 PUSH20 0xFFFFFFFFFFFFFFFFFFFFFFFFFFFFFFFFFFFFFFFF AND PUSH20 0xFFFFFFFFFFFFFFFFFFFFFFFFFFFFFFFFFFFFFFFF AND DUP2 MSTORE PUSH1 0x20 ADD SWAP1 DUP2 MSTORE PUSH1 0x20 ADD PUSH0 KECCAK256 PUSH0 DUP5 PUSH20 0xFFFFFFFFFFFFFFFFFFFFFFFFFFFFFFFFFFFFFFFF AND PUSH20 0xFFFFFFFFFFFFFFFFFFFFFFFFFFFFFFFFFFFFFFFF AND DUP2 MSTORE PUSH1 0x20 ADD SWAP1 DUP2 MSTORE PUSH1 0x20 ADD PUSH0 KECCAK256 PUSH0 PUSH2 0x100 EXP DUP2 SLOAD DUP2 PUSH1 0xFF MUL NOT AND SWAP1 DUP4 ISZERO ISZERO MUL OR SWAP1 SSTORE POP DUP2 PUSH20 0xFFFFFFFFFFFFFFFFFFFFFFFFFFFFFFFFFFFFFFFF AND DUP4 PUSH20 0xFFFFFFFFFFFFFFFFFFFFFFFFFFFFFFFFFFFFFFFF AND PUSH32 0x17307EAB39AB6107E8899845AD3D59BD9653F200F220920489CA2B5937696C31 DUP4 PUSH1 0x40 MLOAD PUSH2 0x106B SWAP2 SWAP1 PUSH2 0x17BD JUMP JUMPDEST PUSH1 0x40 MLOAD DUP1 SWAP2 SUB SWAP1 LOG3 POP POP POP JUMP JUMPDEST PUSH0 DUP4 PUSH20 0xFFFFFFFFFFFFFFFFFFFFFFFFFFFFFFFFFFFFFFFF AND EXTCODESIZE GT ISZERO PUSH2 0x1224 JUMPI DUP3 PUSH20 0xFFFFFFFFFFFFFFFFFFFFFFFFFFFFFFFFFFFFFFFF AND PUSH4 0x150B7A02 PUSH2 0x10BB PUSH2 0xAAE JUMP JUMPDEST DUP7 DUP6 DUP6 PUSH1 0x40 MLOAD DUP6 PUSH4 0xFFFFFFFF AND PUSH1 0xE0 SHL DUP2 MSTORE PUSH1 0x4 ADD PUSH2 0x10DD SWAP5 SWAP4 SWAP3 SWAP2 SWAP1 PUSH2 0x2107 JUMP JUMPDEST PUSH1 0x20 PUSH1 0x40 MLOAD DUP1 DUP4 SUB DUP2 PUSH0 DUP8 GAS CALL SWAP3 POP POP POP DUP1 ISZERO PUSH2 0x1118 JUMPI POP PUSH1 0x40 MLOAD RETURNDATASIZE PUSH1 0x1F NOT PUSH1 0x1F DUP3 ADD AND DUP3 ADD DUP1 PUSH1 0x40 MSTORE POP DUP2 ADD SWAP1 PUSH2 0x1115 SWAP2 SWAP1 PUSH2 0x2165 JUMP JUMPDEST PUSH1 0x1 JUMPDEST PUSH2 0x1199 JUMPI RETURNDATASIZE DUP1 PUSH0 DUP2 EQ PUSH2 0x1146 JUMPI PUSH1 0x40 MLOAD SWAP2 POP PUSH1 0x1F NOT PUSH1 0x3F RETURNDATASIZE ADD AND DUP3 ADD PUSH1 0x40 MSTORE RETURNDATASIZE DUP3 MSTORE RETURNDATASIZE PUSH0 PUSH1 0x20 DUP5 ADD RETURNDATACOPY PUSH2 0x114B JUMP JUMPDEST PUSH1 0x60 SWAP2 POP JUMPDEST POP PUSH0 DUP2 MLOAD SUB PUSH2 0x1191 JUMPI DUP4 PUSH1 0x40 MLOAD PUSH32 0x64A0AE9200000000000000000000000000000000000000000000000000000000 DUP2 MSTORE PUSH1 0x4 ADD PUSH2 0x1188 SWAP2 SWAP1 PUSH2 0x1903 JUMP JUMPDEST PUSH1 0x40 MLOAD DUP1 SWAP2 SUB SWAP1 REVERT JUMPDEST DUP1 MLOAD DUP2 PUSH1 0x20 ADD REVERT JUMPDEST PUSH4 0x150B7A02 PUSH1 0xE0 SHL PUSH28 0xFFFFFFFFFFFFFFFFFFFFFFFFFFFFFFFFFFFFFFFFFFFFFFFFFFFFFFFF NOT AND DUP2 PUSH28 0xFFFFFFFFFFFFFFFFFFFFFFFFFFFFFFFFFFFFFFFFFFFFFFFFFFFFFFFF NOT AND EQ PUSH2 0x1222 JUMPI DUP4 PUSH1 0x40 MLOAD PUSH32 0x64A0AE9200000000000000000000000000000000000000000000000000000000 DUP2 MSTORE PUSH1 0x4 ADD PUSH2 0x1219 SWAP2 SWAP1 PUSH2 0x1903 JUMP JUMPDEST PUSH1 0x40 MLOAD DUP1 SWAP2 SUB SWAP1 REVERT JUMPDEST POP JUMPDEST POP POP POP POP JUMP JUMPDEST PUSH1 0x60 PUSH0 DUP3 MLOAD SUB PUSH2 0x124A JUMPI PUSH1 0x40 MLOAD DUP1 PUSH1 0x20 ADD PUSH1 0x40 MSTORE DUP1 PUSH0 DUP2 MSTORE POP SWAP1 POP PUSH2 0x1392 JUMP JUMPDEST PUSH0 PUSH1 0x40 MLOAD DUP1 PUSH1 0x60 ADD PUSH1 0x40 MSTORE DUP1 PUSH1 0x40 DUP2 MSTORE PUSH1 0x20 ADD PUSH2 0x2289 PUSH1 0x40 SWAP2 CODECOPY SWAP1 POP PUSH0 PUSH1 0x3 PUSH1 0x2 DUP6 MLOAD PUSH2 0x1277 SWAP2 SWAP1 PUSH2 0x2190 JUMP JUMPDEST PUSH2 0x1281 SWAP2 SWAP1 PUSH2 0x21F0 JUMP JUMPDEST PUSH1 0x4 PUSH2 0x128D SWAP2 SWAP1 PUSH2 0x2220 JUMP JUMPDEST PUSH8 0xFFFFFFFFFFFFFFFF DUP2 GT ISZERO PUSH2 0x12A6 JUMPI PUSH2 0x12A5 PUSH2 0x1A97 JUMP JUMPDEST JUMPDEST PUSH1 0x40 MLOAD SWAP1 DUP1 DUP3 MSTORE DUP1 PUSH1 0x1F ADD PUSH1 0x1F NOT AND PUSH1 0x20 ADD DUP3 ADD PUSH1 0x40 MSTORE DUP1 ISZERO PUSH2 0x12D8 JUMPI DUP2 PUSH1 0x20 ADD PUSH1 0x1 DUP3 MUL DUP1 CALLDATASIZE DUP4 CALLDATACOPY DUP1 DUP3 ADD SWAP2 POP POP SWAP1 POP JUMPDEST POP SWAP1 POP PUSH1 0x1 DUP3 ADD PUSH1 0x20 DUP3 ADD DUP6 DUP7 MLOAD DUP8 ADD PUSH1 0x20 DUP2 ADD DUP1 MLOAD PUSH0 DUP3 MSTORE JUMPDEST DUP3 DUP5 LT ISZERO PUSH2 0x134D JUMPI PUSH1 0x3 DUP5 ADD SWAP4 POP DUP4 MLOAD PUSH1 0x3F DUP2 PUSH1 0x12 SHR AND DUP8 ADD MLOAD DUP7 MSTORE8 PUSH1 0x1 DUP7 ADD SWAP6 POP PUSH1 0x3F DUP2 PUSH1 0xC SHR AND DUP8 ADD MLOAD DUP7 MSTORE8 PUSH1 0x1 DUP7 ADD SWAP6 POP PUSH1 0x3F DUP2 PUSH1 0x6 SHR AND DUP8 ADD MLOAD DUP7 MSTORE8 PUSH1 0x1 DUP7 ADD SWAP6 POP PUSH1 0x3F DUP2 AND DUP8 ADD MLOAD DUP7 MSTORE8 PUSH1 0x1 DUP7 ADD SWAP6 POP POP PUSH2 0x12F2 JUMP JUMPDEST DUP1 DUP3 MSTORE PUSH1 0x3 DUP11 MLOAD MOD PUSH1 0x1 DUP2 EQ PUSH2 0x136A JUMPI PUSH1 0x2 DUP2 EQ PUSH2 0x137D JUMPI PUSH2 0x1385 JUMP JUMPDEST PUSH1 0x3D PUSH1 0x1 DUP8 SUB MSTORE8 PUSH1 0x3D PUSH1 0x2 DUP8 SUB MSTORE8 PUSH2 0x1385 JUMP JUMPDEST PUSH1 0x3D PUSH1 0x1 DUP8 SUB MSTORE8 JUMPDEST POP POP POP POP POP POP POP DUP1 SWAP3 POP POP POP JUMPDEST SWAP2 SWAP1 POP JUMP JUMPDEST PUSH0 PUSH1 0x2 PUSH0 DUP4 DUP2 MSTORE PUSH1 0x20 ADD SWAP1 DUP2 MSTORE PUSH1 0x20 ADD PUSH0 KECCAK256 PUSH0 SWAP1 SLOAD SWAP1 PUSH2 0x100 EXP SWAP1 DIV PUSH20 0xFFFFFFFFFFFFFFFFFFFFFFFFFFFFFFFFFFFFFFFF AND SWAP1 POP SWAP2 SWAP1 POP JUMP JUMPDEST DUP1 DUP1 PUSH2 0x1408 JUMPI POP PUSH0 PUSH20 0xFFFFFFFFFFFFFFFFFFFFFFFFFFFFFFFFFFFFFFFF AND DUP3 PUSH20 0xFFFFFFFFFFFFFFFFFFFFFFFFFFFFFFFFFFFFFFFF AND EQ ISZERO JUMPDEST ISZERO PUSH2 0x153A JUMPI PUSH0 PUSH2 0x1417 DUP5 PUSH2 0x9EF JUMP JUMPDEST SWAP1 POP PUSH0 PUSH20 0xFFFFFFFFFFFFFFFFFFFFFFFFFFFFFFFFFFFFFFFF AND DUP4 PUSH20 0xFFFFFFFFFFFFFFFFFFFFFFFFFFFFFFFFFFFFFFFF AND EQ ISZERO DUP1 ISZERO PUSH2 0x1481 JUMPI POP DUP3 PUSH20 0xFFFFFFFFFFFFFFFFFFFFFFFFFFFFFFFFFFFFFFFF AND DUP2 PUSH20 0xFFFFFFFFFFFFFFFFFFFFFFFFFFFFFFFFFFFFFFFF AND EQ ISZERO JUMPDEST DUP1 ISZERO PUSH2 0x1494 JUMPI POP PUSH2 0x1492 DUP2 DUP5 PUSH2 0x874 JUMP JUMPDEST ISZERO JUMPDEST ISZERO PUSH2 0x14D6 JUMPI DUP3 PUSH1 0x40 MLOAD PUSH32 0xA9FBF51F00000000000000000000000000000000000000000000000000000000 DUP2 MSTORE PUSH1 0x4 ADD PUSH2 0x14CD SWAP2 SWAP1 PUSH2 0x1903 JUMP JUMPDEST PUSH1 0x40 MLOAD DUP1 SWAP2 SUB SWAP1 REVERT JUMPDEST DUP2 ISZERO PUSH2 0x1538 JUMPI DUP4 DUP6 PUSH20 0xFFFFFFFFFFFFFFFFFFFFFFFFFFFFFFFFFFFFFFFF AND DUP3 PUSH20 0xFFFFFFFFFFFFFFFFFFFFFFFFFFFFFFFFFFFFFFFF AND PUSH32 0x8C5BE1E5EBEC7D5BD14F71427D1E84F3DD0314C0F7B2291E5B200AC8C7C3B925 PUSH1 0x40 MLOAD PUSH1 0x40 MLOAD DUP1 SWAP2 SUB SWAP1 LOG4 JUMPDEST POP JUMPDEST DUP4 PUSH1 0x4 PUSH0 DUP6 DUP2 MSTORE PUSH1 0x20 ADD SWAP1 DUP2 MSTORE PUSH1 0x20 ADD PUSH0 KECCAK256 PUSH0 PUSH2 0x100 EXP DUP2 SLOAD DUP2 PUSH20 0xFFFFFFFFFFFFFFFFFFFFFFFFFFFFFFFFFFFFFFFF MUL NOT AND SWAP1 DUP4 PUSH20 0xFFFFFFFFFFFFFFFFFFFFFFFFFFFFFFFFFFFFFFFF AND MUL OR SWAP1 SSTORE POP POP POP POP POP JUMP JUMPDEST PUSH2 0x159A DUP4 DUP4 DUP4 PUSH2 0x1652 JUMP JUMPDEST PUSH2 0x164D JUMPI PUSH0 PUSH20 0xFFFFFFFFFFFFFFFFFFFFFFFFFFFFFFFFFFFFFFFF AND DUP4 PUSH20 0xFFFFFFFFFFFFFFFFFFFFFFFFFFFFFFFFFFFFFFFF AND SUB PUSH2 0x160E JUMPI DUP1 PUSH1 0x40 MLOAD PUSH32 0x7E27328900000000000000000000000000000000000000000000000000000000 DUP2 MSTORE PUSH1 0x4 ADD PUSH2 0x1605 SWAP2 SWAP1 PUSH2 0x1A0E JUMP JUMPDEST PUSH1 0x40 MLOAD DUP1 SWAP2 SUB SWAP1 REVERT JUMPDEST DUP2 DUP2 PUSH1 0x40 MLOAD PUSH32 0x177E802F00000000000000000000000000000000000000000000000000000000 DUP2 MSTORE PUSH1 0x4 ADD PUSH2 0x1644 SWAP3 SWAP2 SWAP1 PUSH2 0x2261 JUMP JUMPDEST PUSH1 0x40 MLOAD DUP1 SWAP2 SUB SWAP1 REVERT JUMPDEST POP POP POP JUMP JUMPDEST PUSH0 DUP1 PUSH20 0xFFFFFFFFFFFFFFFFFFFFFFFFFFFFFFFFFFFFFFFF AND DUP4 PUSH20 0xFFFFFFFFFFFFFFFFFFFFFFFFFFFFFFFFFFFFFFFF AND EQ ISZERO DUP1 ISZERO PUSH2 0x1709 JUMPI POP DUP3 PUSH20 0xFFFFFFFFFFFFFFFFFFFFFFFFFFFFFFFFFFFFFFFF AND DUP5 PUSH20 0xFFFFFFFFFFFFFFFFFFFFFFFFFFFFFFFFFFFFFFFF AND EQ DUP1 PUSH2 0x16CA JUMPI POP PUSH2 0x16C9 DUP5 DUP5 PUSH2 0x874 JUMP JUMPDEST JUMPDEST DUP1 PUSH2 0x1708 JUMPI POP DUP3 PUSH20 0xFFFFFFFFFFFFFFFFFFFFFFFFFFFFFFFFFFFFFFFF AND PUSH2 0x16F0 DUP4 PUSH2 0xA75 JUMP JUMPDEST PUSH20 0xFFFFFFFFFFFFFFFFFFFFFFFFFFFFFFFFFFFFFFFF AND EQ JUMPDEST JUMPDEST SWAP1 POP SWAP4 SWAP3 POP POP POP JUMP JUMPDEST PUSH0 PUSH1 0x40 MLOAD SWAP1 POP SWAP1 JUMP JUMPDEST PUSH0 DUP1 REVERT JUMPDEST PUSH0 DUP1 REVERT JUMPDEST PUSH0 PUSH32 0xFFFFFFFF00000000000000000000000000000000000000000000000000000000 DUP3 AND SWAP1 POP SWAP2 SWAP1 POP JUMP JUMPDEST PUSH2 0x1757 DUP2 PUSH2 0x1723 JUMP JUMPDEST DUP2 EQ PUSH2 0x1761 JUMPI PUSH0 DUP1 REVERT JUMPDEST POP JUMP JUMPDEST PUSH0 DUP2 CALLDATALOAD SWAP1 POP PUSH2 0x1772 DUP2 PUSH2 0x174E JUMP JUMPDEST SWAP3 SWAP2 POP POP JUMP JUMPDEST PUSH0 PUSH1 0x20 DUP3 DUP5 SUB SLT ISZERO PUSH2 0x178D JUMPI PUSH2 0x178C PUSH2 0x171B JUMP JUMPDEST JUMPDEST PUSH0 PUSH2 0x179A DUP5 DUP3 DUP6 ADD PUSH2 0x1764 JUMP JUMPDEST SWAP2 POP POP SWAP3 SWAP2 POP POP JUMP JUMPDEST PUSH0 DUP2 ISZERO ISZERO SWAP1 POP SWAP2 SWAP1 POP JUMP JUMPDEST PUSH2 0x17B7 DUP2 PUSH2 0x17A3 JUMP JUMPDEST DUP3 MSTORE POP POP JUMP JUMPDEST PUSH0 PUSH1 0x20 DUP3 ADD SWAP1 POP PUSH2 0x17D0 PUSH0 DUP4 ADD DUP5 PUSH2 0x17AE JUMP JUMPDEST SWAP3 SWAP2 POP POP JUMP JUMPDEST PUSH0 DUP2 MLOAD SWAP1 POP SWAP2 SWAP1 POP JUMP JUMPDEST PUSH0 DUP3 DUP3 MSTORE PUSH1 0x20 DUP3 ADD SWAP1 POP SWAP3 SWAP2 POP POP JUMP JUMPDEST DUP3 DUP2 DUP4 MCOPY PUSH0 DUP4 DUP4 ADD MSTORE POP POP POP JUMP JUMPDEST PUSH0 PUSH1 0x1F NOT PUSH1 0x1F DUP4 ADD AND SWAP1 POP SWAP2 SWAP1 POP JUMP JUMPDEST PUSH0 PUSH2 0x1818 DUP3 PUSH2 0x17D6 JUMP JUMPDEST PUSH2 0x1822 DUP2 DUP6 PUSH2 0x17E0 JUMP JUMPDEST SWAP4 POP PUSH2 0x1832 DUP2 DUP6 PUSH1 0x20 DUP7 ADD PUSH2 0x17F0 JUMP JUMPDEST PUSH2 0x183B DUP2 PUSH2 0x17FE JUMP JUMPDEST DUP5 ADD SWAP2 POP POP SWAP3 SWAP2 POP POP JUMP JUMPDEST PUSH0 PUSH1 0x20 DUP3 ADD SWAP1 POP DUP2 DUP2 SUB PUSH0 DUP4 ADD MSTORE PUSH2 0x185E DUP2 DUP5 PUSH2 0x180E JUMP JUMPDEST SWAP1 POP SWAP3 SWAP2 POP POP JUMP JUMPDEST PUSH0 DUP2 SWAP1 POP SWAP2 SWAP1 POP JUMP JUMPDEST PUSH2 0x1878 DUP2 PUSH2 0x1866 JUMP JUMPDEST DUP2 EQ PUSH2 0x1882 JUMPI PUSH0 DUP1 REVERT JUMPDEST POP JUMP JUMPDEST PUSH0 DUP2 CALLDATALOAD SWAP1 POP PUSH2 0x1893 DUP2 PUSH2 0x186F JUMP JUMPDEST SWAP3 SWAP2 POP POP JUMP JUMPDEST PUSH0 PUSH1 0x20 DUP3 DUP5 SUB SLT ISZERO PUSH2 0x18AE JUMPI PUSH2 0x18AD PUSH2 0x171B JUMP JUMPDEST JUMPDEST PUSH0 PUSH2 0x18BB DUP5 DUP3 DUP6 ADD PUSH2 0x1885 JUMP JUMPDEST SWAP2 POP POP SWAP3 SWAP2 POP POP JUMP JUMPDEST PUSH0 PUSH20 0xFFFFFFFFFFFFFFFFFFFFFFFFFFFFFFFFFFFFFFFF DUP3 AND SWAP1 POP SWAP2 SWAP1 POP JUMP JUMPDEST PUSH0 PUSH2 0x18ED DUP3 PUSH2 0x18C4 JUMP JUMPDEST SWAP1 POP SWAP2 SWAP1 POP JUMP JUMPDEST PUSH2 0x18FD DUP2 PUSH2 0x18E3 JUMP JUMPDEST DUP3 MSTORE POP POP JUMP JUMPDEST PUSH0 PUSH1 0x20 DUP3 ADD SWAP1 POP PUSH2 0x1916 PUSH0 DUP4 ADD DUP5 PUSH2 0x18F4 JUMP JUMPDEST SWAP3 SWAP2 POP POP JUMP JUMPDEST PUSH2 0x1925 DUP2 PUSH2 0x18E3 JUMP JUMPDEST DUP2 EQ PUSH2 0x192F JUMPI PUSH0 DUP1 REVERT JUMPDEST POP JUMP JUMPDEST PUSH0 DUP2 CALLDATALOAD SWAP1 POP PUSH2 0x1940 DUP2 PUSH2 0x191C JUMP JUMPDEST SWAP3 SWAP2 POP POP JUMP JUMPDEST PUSH0 DUP1 PUSH1 0x40 DUP4 DUP6 SUB SLT ISZERO PUSH2 0x195C JUMPI PUSH2 0x195B PUSH2 0x171B JUMP JUMPDEST JUMPDEST PUSH0 PUSH2 0x1969 DUP6 DUP3 DUP7 ADD PUSH2 0x1932 JUMP JUMPDEST SWAP3 POP POP PUSH1 0x20 PUSH2 0x197A DUP6 DUP3 DUP7 ADD PUSH2 0x1885 JUMP JUMPDEST SWAP2 POP POP SWAP3 POP SWAP3 SWAP1 POP JUMP JUMPDEST PUSH0 DUP1 PUSH0 PUSH1 0x60 DUP5 DUP7 SUB SLT ISZERO PUSH2 0x199B JUMPI PUSH2 0x199A PUSH2 0x171B JUMP JUMPDEST JUMPDEST PUSH0 PUSH2 0x19A8 DUP7 DUP3 DUP8 ADD PUSH2 0x1932 JUMP JUMPDEST SWAP4 POP POP PUSH1 0x20 PUSH2 0x19B9 DUP7 DUP3 DUP8 ADD PUSH2 0x1932 JUMP JUMPDEST SWAP3 POP POP PUSH1 0x40 PUSH2 0x19CA DUP7 DUP3 DUP8 ADD PUSH2 0x1885 JUMP JUMPDEST SWAP2 POP POP SWAP3 POP SWAP3 POP SWAP3 JUMP JUMPDEST PUSH0 PUSH1 0x20 DUP3 DUP5 SUB SLT ISZERO PUSH2 0x19E9 JUMPI PUSH2 0x19E8 PUSH2 0x171B JUMP JUMPDEST JUMPDEST PUSH0 PUSH2 0x19F6 DUP5 DUP3 DUP6 ADD PUSH2 0x1932 JUMP JUMPDEST SWAP2 POP POP SWAP3 SWAP2 POP POP JUMP JUMPDEST PUSH2 0x1A08 DUP2 PUSH2 0x1866 JUMP JUMPDEST DUP3 MSTORE POP POP JUMP JUMPDEST PUSH0 PUSH1 0x20 DUP3 ADD SWAP1 POP PUSH2 0x1A21 PUSH0 DUP4 ADD DUP5 PUSH2 0x19FF JUMP JUMPDEST SWAP3 SWAP2 POP POP JUMP JUMPDEST PUSH2 0x1A30 DUP2 PUSH2 0x17A3 JUMP JUMPDEST DUP2 EQ PUSH2 0x1A3A JUMPI PUSH0 DUP1 REVERT JUMPDEST POP JUMP JUMPDEST PUSH0 DUP2 CALLDATALOAD SWAP1 POP PUSH2 0x1A4B DUP2 PUSH2 0x1A27 JUMP JUMPDEST SWAP3 SWAP2 POP POP JUMP JUMPDEST PUSH0 DUP1 PUSH1 0x40 DUP4 DUP6 SUB SLT ISZERO PUSH2 0x1A67 JUMPI PUSH2 0x1A66 PUSH2 0x171B JUMP JUMPDEST JUMPDEST PUSH0 PUSH2 0x1A74 DUP6 DUP3 DUP7 ADD PUSH2 0x1932 JUMP JUMPDEST SWAP3 POP POP PUSH1 0x20 PUSH2 0x1A85 DUP6 DUP3 DUP7 ADD PUSH2 0x1A3D JUMP JUMPDEST SWAP2 POP POP SWAP3 POP SWAP3 SWAP1 POP JUMP JUMPDEST PUSH0 DUP1 REVERT JUMPDEST PUSH0 DUP1 REVERT JUMPDEST PUSH32 0x4E487B7100000000000000000000000000000000000000000000000000000000 PUSH0 MSTORE PUSH1 0x41 PUSH1 0x4 MSTORE PUSH1 0x24 PUSH0 REVERT JUMPDEST PUSH2 0x1ACD DUP3 PUSH2 0x17FE JUMP JUMPDEST DUP2 ADD DUP2 DUP2 LT PUSH8 0xFFFFFFFFFFFFFFFF DUP3 GT OR ISZERO PUSH2 0x1AEC JUMPI PUSH2 0x1AEB PUSH2 0x1A97 JUMP JUMPDEST JUMPDEST DUP1 PUSH1 0x40 MSTORE POP POP POP JUMP JUMPDEST PUSH0 PUSH2 0x1AFE PUSH2 0x1712 JUMP JUMPDEST SWAP1 POP PUSH2 0x1B0A DUP3 DUP3 PUSH2 0x1AC4 JUMP JUMPDEST SWAP2 SWAP1 POP JUMP JUMPDEST PUSH0 PUSH8 0xFFFFFFFFFFFFFFFF DUP3 GT ISZERO PUSH2 0x1B29 JUMPI PUSH2 0x1B28 PUSH2 0x1A97 JUMP JUMPDEST JUMPDEST PUSH2 0x1B32 DUP3 PUSH2 0x17FE JUMP JUMPDEST SWAP1 POP PUSH1 0x20 DUP2 ADD SWAP1 POP SWAP2 SWAP1 POP JUMP JUMPDEST DUP3 DUP2 DUP4 CALLDATACOPY PUSH0 DUP4 DUP4 ADD MSTORE POP POP POP JUMP JUMPDEST PUSH0 PUSH2 0x1B5F PUSH2 0x1B5A DUP5 PUSH2 0x1B0F JUMP JUMPDEST PUSH2 0x1AF5 JUMP JUMPDEST SWAP1 POP DUP3 DUP2 MSTORE PUSH1 0x20 DUP2 ADD DUP5 DUP5 DUP5 ADD GT ISZERO PUSH2 0x1B7B JUMPI PUSH2 0x1B7A PUSH2 0x1A93 JUMP JUMPDEST JUMPDEST PUSH2 0x1B86 DUP5 DUP3 DUP6 PUSH2 0x1B3F JUMP JUMPDEST POP SWAP4 SWAP3 POP POP POP JUMP JUMPDEST PUSH0 DUP3 PUSH1 0x1F DUP4 ADD SLT PUSH2 0x1BA2 JUMPI PUSH2 0x1BA1 PUSH2 0x1A8F JUMP JUMPDEST JUMPDEST DUP2 CALLDATALOAD PUSH2 0x1BB2 DUP5 DUP3 PUSH1 0x20 DUP7 ADD PUSH2 0x1B4D JUMP JUMPDEST SWAP2 POP POP SWAP3 SWAP2 POP POP JUMP JUMPDEST PUSH0 DUP1 PUSH0 DUP1 PUSH1 0x80 DUP6 DUP8 SUB SLT ISZERO PUSH2 0x1BD3 JUMPI PUSH2 0x1BD2 PUSH2 0x171B JUMP JUMPDEST JUMPDEST PUSH0 PUSH2 0x1BE0 DUP8 DUP3 DUP9 ADD PUSH2 0x1932 JUMP JUMPDEST SWAP5 POP POP PUSH1 0x20 PUSH2 0x1BF1 DUP8 DUP3 DUP9 ADD PUSH2 0x1932 JUMP JUMPDEST SWAP4 POP POP PUSH1 0x40 PUSH2 0x1C02 DUP8 DUP3 DUP9 ADD PUSH2 0x1885 JUMP JUMPDEST SWAP3 POP POP PUSH1 0x60 DUP6 ADD CALLDATALOAD PUSH8 0xFFFFFFFFFFFFFFFF DUP2 GT ISZERO PUSH2 0x1C23 JUMPI PUSH2 0x1C22 PUSH2 0x171F JUMP JUMPDEST JUMPDEST PUSH2 0x1C2F DUP8 DUP3 DUP9 ADD PUSH2 0x1B8E JUMP JUMPDEST SWAP2 POP POP SWAP3 SWAP6 SWAP2 SWAP5 POP SWAP3 POP JUMP JUMPDEST PUSH0 DUP1 PUSH1 0x40 DUP4 DUP6 SUB SLT ISZERO PUSH2 0x1C51 JUMPI PUSH2 0x1C50 PUSH2 0x171B JUMP JUMPDEST JUMPDEST PUSH0 PUSH2 0x1C5E DUP6 DUP3 DUP7 ADD PUSH2 0x1932 JUMP JUMPDEST SWAP3 POP POP PUSH1 0x20 PUSH2 0x1C6F DUP6 DUP3 DUP7 ADD PUSH2 0x1932 JUMP JUMPDEST SWAP2 POP POP SWAP3 POP SWAP3 SWAP1 POP JUMP JUMPDEST PUSH32 0x4E487B7100000000000000000000000000000000000000000000000000000000 PUSH0 MSTORE PUSH1 0x22 PUSH1 0x4 MSTORE PUSH1 0x24 PUSH0 REVERT JUMPDEST PUSH0 PUSH1 0x2 DUP3 DIV SWAP1 POP PUSH1 0x1 DUP3 AND DUP1 PUSH2 0x1CBD JUMPI PUSH1 0x7F DUP3 AND SWAP2 POP JUMPDEST PUSH1 0x20 DUP3 LT DUP2 SUB PUSH2 0x1CD0 JUMPI PUSH2 0x1CCF PUSH2 0x1C79 JUMP JUMPDEST JUMPDEST POP SWAP2 SWAP1 POP JUMP JUMPDEST PUSH0 PUSH1 0x60 DUP3 ADD SWAP1 POP PUSH2 0x1CE9 PUSH0 DUP4 ADD DUP7 PUSH2 0x18F4 JUMP JUMPDEST PUSH2 0x1CF6 PUSH1 0x20 DUP4 ADD DUP6 PUSH2 0x19FF JUMP JUMPDEST PUSH2 0x1D03 PUSH1 0x40 DUP4 ADD DUP5 PUSH2 0x18F4 JUMP JUMPDEST SWAP5 SWAP4 POP POP POP POP JUMP JUMPDEST PUSH32 0x4E487B7100000000000000000000000000000000000000000000000000000000 PUSH0 MSTORE PUSH1 0x11 PUSH1 0x4 MSTORE PUSH1 0x24 PUSH0 REVERT JUMPDEST PUSH0 PUSH2 0x1D42 DUP3 PUSH2 0x1866 JUMP JUMPDEST SWAP2 POP PUSH32 0xFFFFFFFFFFFFFFFFFFFFFFFFFFFFFFFFFFFFFFFFFFFFFFFFFFFFFFFFFFFFFFFF DUP3 SUB PUSH2 0x1D74 JUMPI PUSH2 0x1D73 PUSH2 0x1D0B JUMP JUMPDEST JUMPDEST PUSH1 0x1 DUP3 ADD SWAP1 POP SWAP2 SWAP1 POP JUMP JUMPDEST PUSH0 DUP2 SWAP1 POP SWAP3 SWAP2 POP POP JUMP JUMPDEST PUSH32 0x7B226E616D65223A220000000000000000000000000000000000000000000000 PUSH0 DUP3 ADD MSTORE POP JUMP JUMPDEST PUSH0 PUSH2 0x1DBD PUSH1 0x9 DUP4 PUSH2 0x1D7F JUMP JUMPDEST SWAP2 POP PUSH2 0x1DC8 DUP3 PUSH2 0x1D89 JUMP JUMPDEST PUSH1 0x9 DUP3 ADD SWAP1 POP SWAP2 SWAP1 POP JUMP JUMPDEST PUSH0 PUSH2 0x1DDD DUP3 PUSH2 0x17D6 JUMP JUMPDEST PUSH2 0x1DE7 DUP2 DUP6 PUSH2 0x1D7F JUMP JUMPDEST SWAP4 POP PUSH2 0x1DF7 DUP2 DUP6 PUSH1 0x20 DUP7 ADD PUSH2 0x17F0 JUMP JUMPDEST DUP1 DUP5 ADD SWAP2 POP POP SWAP3 SWAP2 POP POP JUMP JUMPDEST PUSH32 0x222C20226465736372697074696F6E223A22416E204E46542074686174207265 PUSH0 DUP3 ADD MSTORE PUSH32 0x666C6563747320746865206F776E657273686970206F662067616D65202D2000 PUSH1 0x20 DUP3 ADD MSTORE POP JUMP JUMPDEST PUSH0 PUSH2 0x1E5D PUSH1 0x3F DUP4 PUSH2 0x1D7F JUMP JUMPDEST SWAP2 POP PUSH2 0x1E68 DUP3 PUSH2 0x1E03 JUMP JUMPDEST PUSH1 0x3F DUP3 ADD SWAP1 POP SWAP2 SWAP1 POP JUMP JUMPDEST PUSH32 0x222C200000000000000000000000000000000000000000000000000000000000 PUSH0 DUP3 ADD MSTORE POP JUMP JUMPDEST PUSH0 PUSH2 0x1EA7 PUSH1 0x3 DUP4 PUSH2 0x1D7F JUMP JUMPDEST SWAP2 POP PUSH2 0x1EB2 DUP3 PUSH2 0x1E73 JUMP JUMPDEST PUSH1 0x3 DUP3 ADD SWAP1 POP SWAP2 SWAP1 POP JUMP JUMPDEST PUSH32 0x22696D616765223A220000000000000000000000000000000000000000000000 PUSH0 DUP3 ADD MSTORE POP JUMP JUMPDEST PUSH0 PUSH2 0x1EF1 PUSH1 0x9 DUP4 PUSH2 0x1D7F JUMP JUMPDEST SWAP2 POP PUSH2 0x1EFC DUP3 PUSH2 0x1EBD JUMP JUMPDEST PUSH1 0x9 DUP3 ADD SWAP1 POP SWAP2 SWAP1 POP JUMP JUMPDEST PUSH0 DUP2 SWAP1 POP DUP2 PUSH0 MSTORE PUSH1 0x20 PUSH0 KECCAK256 SWAP1 POP SWAP2 SWAP1 POP JUMP JUMPDEST PUSH0 DUP2 SLOAD PUSH2 0x1F25 DUP2 PUSH2 0x1CA6 JUMP JUMPDEST PUSH2 0x1F2F DUP2 DUP7 PUSH2 0x1D7F JUMP JUMPDEST SWAP5 POP PUSH1 0x1 DUP3 AND PUSH0 DUP2 EQ PUSH2 0x1F49 JUMPI PUSH1 0x1 DUP2 EQ PUSH2 0x1F5E JUMPI PUSH2 0x1F90 JUMP JUMPDEST PUSH1 0xFF NOT DUP4 AND DUP7 MSTORE DUP2 ISZERO ISZERO DUP3 MUL DUP7 ADD SWAP4 POP PUSH2 0x1F90 JUMP JUMPDEST PUSH2 0x1F67 DUP6 PUSH2 0x1F07 JUMP JUMPDEST PUSH0 JUMPDEST DUP4 DUP2 LT ISZERO PUSH2 0x1F88 JUMPI DUP2 SLOAD DUP2 DUP10 ADD MSTORE PUSH1 0x1 DUP3 ADD SWAP2 POP PUSH1 0x20 DUP2 ADD SWAP1 POP PUSH2 0x1F69 JUMP JUMPDEST DUP4 DUP9 ADD SWAP6 POP POP POP JUMPDEST POP POP POP SWAP3 SWAP2 POP POP JUMP JUMPDEST PUSH32 0x227D000000000000000000000000000000000000000000000000000000000000 PUSH0 DUP3 ADD MSTORE POP JUMP JUMPDEST PUSH0 PUSH2 0x1FCD PUSH1 0x2 DUP4 PUSH2 0x1D7F JUMP JUMPDEST SWAP2 POP PUSH2 0x1FD8 DUP3 PUSH2 0x1F99 JUMP JUMPDEST PUSH1 0x2 DUP3 ADD SWAP1 POP SWAP2 SWAP1 POP JUMP JUMPDEST PUSH0 PUSH2 0x1FED DUP3 PUSH2 0x1DB1 JUMP JUMPDEST SWAP2 POP PUSH2 0x1FF9 DUP3 DUP7 PUSH2 0x1DD3 JUMP JUMPDEST SWAP2 POP PUSH2 0x2004 DUP3 PUSH2 0x1E51 JUMP JUMPDEST SWAP2 POP PUSH2 0x2010 DUP3 DUP6 PUSH2 0x1DD3 JUMP JUMPDEST SWAP2 POP PUSH2 0x201B DUP3 PUSH2 0x1E9B JUMP JUMPDEST SWAP2 POP PUSH2 0x2026 DUP3 PUSH2 0x1EE5 JUMP JUMPDEST SWAP2 POP PUSH2 0x2032 DUP3 DUP5 PUSH2 0x1F19 JUMP JUMPDEST SWAP2 POP PUSH2 0x203D DUP3 PUSH2 0x1FC1 JUMP JUMPDEST SWAP2 POP DUP2 SWAP1 POP SWAP5 SWAP4 POP POP POP POP JUMP JUMPDEST PUSH32 0x646174613A6170706C69636174696F6E2F6A736F6E3B6261736536342C000000 PUSH0 DUP3 ADD MSTORE POP JUMP JUMPDEST PUSH0 PUSH2 0x207E PUSH1 0x1D DUP4 PUSH2 0x1D7F JUMP JUMPDEST SWAP2 POP PUSH2 0x2089 DUP3 PUSH2 0x204A JUMP JUMPDEST PUSH1 0x1D DUP3 ADD SWAP1 POP SWAP2 SWAP1 POP JUMP JUMPDEST PUSH0 PUSH2 0x209E DUP3 PUSH2 0x2072 JUMP JUMPDEST SWAP2 POP PUSH2 0x20AA DUP3 DUP5 PUSH2 0x1DD3 JUMP JUMPDEST SWAP2 POP DUP2 SWAP1 POP SWAP3 SWAP2 POP POP JUMP JUMPDEST PUSH0 DUP2 MLOAD SWAP1 POP SWAP2 SWAP1 POP JUMP JUMPDEST PUSH0 DUP3 DUP3 MSTORE PUSH1 0x20 DUP3 ADD SWAP1 POP SWAP3 SWAP2 POP POP JUMP JUMPDEST PUSH0 PUSH2 0x20D9 DUP3 PUSH2 0x20B5 JUMP JUMPDEST PUSH2 0x20E3 DUP2 DUP6 PUSH2 0x20BF JUMP JUMPDEST SWAP4 POP PUSH2 0x20F3 DUP2 DUP6 PUSH1 0x20 DUP7 ADD PUSH2 0x17F0 JUMP JUMPDEST PUSH2 0x20FC DUP2 PUSH2 0x17FE JUMP JUMPDEST DUP5 ADD SWAP2 POP POP SWAP3 SWAP2 POP POP JUMP JUMPDEST PUSH0 PUSH1 0x80 DUP3 ADD SWAP1 POP PUSH2 0x211A PUSH0 DUP4 ADD DUP8 PUSH2 0x18F4 JUMP JUMPDEST PUSH2 0x2127 PUSH1 0x20 DUP4 ADD DUP7 PUSH2 0x18F4 JUMP JUMPDEST PUSH2 0x2134 PUSH1 0x40 DUP4 ADD DUP6 PUSH2 0x19FF JUMP JUMPDEST DUP2 DUP2 SUB PUSH1 0x60 DUP4 ADD MSTORE PUSH2 0x2146 DUP2 DUP5 PUSH2 0x20CF JUMP JUMPDEST SWAP1 POP SWAP6 SWAP5 POP POP POP POP POP JUMP JUMPDEST PUSH0 DUP2 MLOAD SWAP1 POP PUSH2 0x215F DUP2 PUSH2 0x174E JUMP JUMPDEST SWAP3 SWAP2 POP POP JUMP JUMPDEST PUSH0 PUSH1 0x20 DUP3 DUP5 SUB SLT ISZERO PUSH2 0x217A JUMPI PUSH2 0x2179 PUSH2 0x171B JUMP JUMPDEST JUMPDEST PUSH0 PUSH2 0x2187 DUP5 DUP3 DUP6 ADD PUSH2 0x2151 JUMP JUMPDEST SWAP2 POP POP SWAP3 SWAP2 POP POP JUMP JUMPDEST PUSH0 PUSH2 0x219A DUP3 PUSH2 0x1866 JUMP JUMPDEST SWAP2 POP PUSH2 0x21A5 DUP4 PUSH2 0x1866 JUMP JUMPDEST SWAP3 POP DUP3 DUP3 ADD SWAP1 POP DUP1 DUP3 GT ISZERO PUSH2 0x21BD JUMPI PUSH2 0x21BC PUSH2 0x1D0B JUMP JUMPDEST JUMPDEST SWAP3 SWAP2 POP POP JUMP JUMPDEST PUSH32 0x4E487B7100000000000000000000000000000000000000000000000000000000 PUSH0 MSTORE PUSH1 0x12 PUSH1 0x4 MSTORE PUSH1 0x24 PUSH0 REVERT JUMPDEST PUSH0 PUSH2 0x21FA DUP3 PUSH2 0x1866 JUMP JUMPDEST SWAP2 POP PUSH2 0x2205 DUP4 PUSH2 0x1866 JUMP JUMPDEST SWAP3 POP DUP3 PUSH2 0x2215 JUMPI PUSH2 0x2214 PUSH2 0x21C3 JUMP JUMPDEST JUMPDEST DUP3 DUP3 DIV SWAP1 POP SWAP3 SWAP2 POP POP JUMP JUMPDEST PUSH0 PUSH2 0x222A DUP3 PUSH2 0x1866 JUMP JUMPDEST SWAP2 POP PUSH2 0x2235 DUP4 PUSH2 0x1866 JUMP JUMPDEST SWAP3 POP DUP3 DUP3 MUL PUSH2 0x2243 DUP2 PUSH2 0x1866 JUMP JUMPDEST SWAP2 POP DUP3 DUP3 DIV DUP5 EQ DUP4 ISZERO OR PUSH2 0x225A JUMPI PUSH2 0x2259 PUSH2 0x1D0B JUMP JUMPDEST JUMPDEST POP SWAP3 SWAP2 POP POP JUMP JUMPDEST PUSH0 PUSH1 0x40 DUP3 ADD SWAP1 POP PUSH2 0x2274 PUSH0 DUP4 ADD DUP6 PUSH2 0x18F4 JUMP JUMPDEST PUSH2 0x2281 PUSH1 0x20 DUP4 ADD DUP5 PUSH2 0x19FF JUMP JUMPDEST SWAP4 SWAP3 POP POP POP JUMP INVALID COINBASE TIMESTAMP NUMBER PREVRANDAO GASLIMIT CHAINID SELFBALANCE BASEFEE BLOBHASH BLOBBASEFEE 0x4B 0x4C 0x4D 0x4E 0x4F POP MLOAD MSTORE MSTORE8 SLOAD SSTORE JUMP JUMPI PC MSIZE GAS PUSH2 0x6263 PUSH5 0x6566676869 PUSH11 0x6B6C6D6E6F707172737475 PUSH23 0x7778797A303132333435363738392B2FA2646970667358 0x22 SLT KECCAK256 SSTORE DUP13 0x2D 0xC8 SWAP8 0x27 BLOCKHASH PUSH9 0x477EA829F6DA0F481D 0xAC 0x22 JUMPDEST PUSH12 0x93681C7BF01AB595996B8064 PUSH20 0x6F6C63430008190033A264697066735822122092 GASPRICE 0xD9 GASPRICE ISZERO 0xE2 PUSH31 0x242DCE1DFECA3722F2D7C0900EC58A64A908A32E0664BA796964736F6C6343 STOP ADDMOD NOT STOP CALLER "
  },
  "abi": [
    {
      "inputs": [],
      "name": "GameAlreadyPublished",
      "type": "error"
    },
    {
      "inputs": [],
      "name": "InsufficientFunds",
      "type": "error"
    },
    {
      "inputs": [],
      "name": "InvalidGame",
      "type": "error"
    },
    {
      "anonymous": false,
      "inputs": [
        {
          "indexed": true,
          "internalType": "address",
          "name": "creator",
          "type": "address"
        }
      ],
      "name": "CreatorFundsWithdrawn",
      "type": "event"
    },
    {
      "anonymous": false,
      "inputs": [
        {
          "indexed": true,
          "internalType": "string",
          "name": "cid",
          "type": "string"
        },
        {
          "indexed": true,
          "internalType": "address",
          "name": "buyer",
          "type": "address"
        }
      ],
      "name": "GamePurchased",
      "type": "event"
    },
    {
      "anonymous": false,
      "inputs": [
        {
          "indexed": true,
          "internalType": "uint256",
          "name": "index",
          "type": "uint256"
        },
        {
          "indexed": true,
          "internalType": "string",
          "name": "cid",
          "type": "string"
        },
        {
          "indexed": true,
          "internalType": "address",
          "name": "gameToken",
          "type": "address"
        }
      ],
      "name": "GameTokenCreated",
      "type": "event"
    },
    {
      "inputs": [
        {
          "internalType": "string",
          "name": "_cid",
          "type": "string"
        }
      ],
      "name": "buyGame",
      "outputs": [],
      "stateMutability": "payable",
      "type": "function"
    },
    {
      "inputs": [
        {
          "internalType": "string",
          "name": "_cid",
          "type": "string"
        }
      ],
      "name": "getGameByCid",
      "outputs": [
        {
          "components": [
            {
              "internalType": "address",
              "name": "creator",
              "type": "address"
            },
            {
              "internalType": "string",
              "name": "cid",
              "type": "string"
            },
            {
              "internalType": "address",
              "name": "token",
              "type": "address"
            },
            {
              "internalType": "string",
              "name": "name",
              "type": "string"
            },
            {
              "internalType": "uint256",
              "name": "price",
              "type": "uint256"
            },
            {
              "internalType": "string",
              "name": "imageUrl",
              "type": "string"
            }
          ],
          "internalType": "struct GameFactory.Game",
          "name": "",
          "type": "tuple"
        }
      ],
      "stateMutability": "view",
      "type": "function"
    },
    {
      "inputs": [],
      "name": "getGameListLength",
      "outputs": [
        {
          "internalType": "uint256",
          "name": "",
          "type": "uint256"
        }
      ],
      "stateMutability": "view",
      "type": "function"
    },
    {
      "inputs": [],
      "name": "getGames",
      "outputs": [
        {
          "components": [
            {
              "internalType": "address",
              "name": "creator",
              "type": "address"
            },
            {
              "internalType": "string",
              "name": "cid",
              "type": "string"
            },
            {
              "internalType": "address",
              "name": "token",
              "type": "address"
            },
            {
              "internalType": "string",
              "name": "name",
              "type": "string"
            },
            {
              "internalType": "uint256",
              "name": "price",
              "type": "uint256"
            },
            {
              "internalType": "string",
              "name": "imageUrl",
              "type": "string"
            }
          ],
          "internalType": "struct GameFactory.Game[]",
          "name": "",
          "type": "tuple[]"
        }
      ],
      "stateMutability": "view",
      "type": "function"
    },
    {
      "inputs": [
        {
          "internalType": "string",
          "name": "_cid",
          "type": "string"
        }
      ],
      "name": "isGameOwned",
      "outputs": [
        {
          "internalType": "bool",
          "name": "",
          "type": "bool"
        }
      ],
      "stateMutability": "view",
      "type": "function"
    },
    {
      "inputs": [
        {
          "internalType": "bytes32[]",
          "name": "cid",
          "type": "bytes32[]"
        }
      ],
      "name": "isGameOwnedBytes",
      "outputs": [
        {
          "internalType": "bool",
          "name": "",
          "type": "bool"
        }
      ],
      "stateMutability": "view",
      "type": "function"
    },
    {
      "inputs": [
        {
          "internalType": "string",
          "name": "_cid",
          "type": "string"
        },
        {
          "internalType": "string",
          "name": "_name",
          "type": "string"
        },
        {
          "internalType": "string",
          "name": "_symbol",
          "type": "string"
        },
        {
          "internalType": "uint256",
          "name": "price",
          "type": "uint256"
        },
        {
          "internalType": "string",
          "name": "_imageUrl",
          "type": "string"
        }
      ],
      "name": "publishGame",
      "outputs": [],
      "stateMutability": "nonpayable",
      "type": "function"
    },
    {
      "inputs": [],
      "name": "withdrawCreatorFunds",
      "outputs": [],
      "stateMutability": "nonpayable",
      "type": "function"
    }
  ],
  "storageLayout": {
    "storage": [
      {
        "astId": 3026,
        "contract": "contracts/GameFactory.sol:GameFactory",
        "label": "owner",
        "offset": 0,
        "slot": "0",
        "type": "t_address"
      },
      {
        "astId": 3029,
        "contract": "contracts/GameFactory.sol:GameFactory",
        "label": "fee",
        "offset": 0,
        "slot": "1",
        "type": "t_uint256"
      },
      {
        "astId": 3034,
        "contract": "contracts/GameFactory.sol:GameFactory",
        "label": "games",
        "offset": 0,
        "slot": "2",
        "type": "t_mapping(t_string_memory_ptr,t_struct(Game)3024_storage)"
      },
      {
        "astId": 3037,
        "contract": "contracts/GameFactory.sol:GameFactory",
        "label": "cids",
        "offset": 0,
        "slot": "3",
        "type": "t_array(t_string_storage)dyn_storage"
      },
      {
        "astId": 3041,
        "contract": "contracts/GameFactory.sol:GameFactory",
        "label": "creatorbalance",
        "offset": 0,
        "slot": "4",
        "type": "t_mapping(t_address,t_uint256)"
      }
    ],
    "types": {
      "t_address": {
        "encoding": "inplace",
        "label": "address",
        "numberOfBytes": "20"
      },
      "t_array(t_string_storage)dyn_storage": {
        "base": "t_string_storage",
        "encoding": "dynamic_array",
        "label": "string[]",
        "numberOfBytes": "32"
      },
      "t_mapping(t_address,t_uint256)": {
        "encoding": "mapping",
        "key": "t_address",
        "label": "mapping(address => uint256)",
        "numberOfBytes": "32",
        "value": "t_uint256"
      },
      "t_mapping(t_string_memory_ptr,t_struct(Game)3024_storage)": {
        "encoding": "mapping",
        "key": "t_string_memory_ptr",
        "label": "mapping(string => struct GameFactory.Game)",
        "numberOfBytes": "32",
        "value": "t_struct(Game)3024_storage"
      },
      "t_string_memory_ptr": {
        "encoding": "bytes",
        "label": "string",
        "numberOfBytes": "32"
      },
      "t_string_storage": {
        "encoding": "bytes",
        "label": "string",
        "numberOfBytes": "32"
      },
      "t_struct(Game)3024_storage": {
        "encoding": "inplace",
        "label": "struct GameFactory.Game",
        "members": [
          {
            "astId": 3013,
            "contract": "contracts/GameFactory.sol:GameFactory",
            "label": "creator",
            "offset": 0,
            "slot": "0",
            "type": "t_address"
          },
          {
            "astId": 3015,
            "contract": "contracts/GameFactory.sol:GameFactory",
            "label": "cid",
            "offset": 0,
            "slot": "1",
            "type": "t_string_storage"
          },
          {
            "astId": 3017,
            "contract": "contracts/GameFactory.sol:GameFactory",
            "label": "token",
            "offset": 0,
            "slot": "2",
            "type": "t_address"
          },
          {
            "astId": 3019,
            "contract": "contracts/GameFactory.sol:GameFactory",
            "label": "name",
            "offset": 0,
            "slot": "3",
            "type": "t_string_storage"
          },
          {
            "astId": 3021,
            "contract": "contracts/GameFactory.sol:GameFactory",
            "label": "price",
            "offset": 0,
            "slot": "4",
            "type": "t_uint256"
          },
          {
            "astId": 3023,
            "contract": "contracts/GameFactory.sol:GameFactory",
            "label": "imageUrl",
            "offset": 0,
            "slot": "5",
            "type": "t_string_storage"
          }
        ],
        "numberOfBytes": "192"
      },
      "t_uint256": {
        "encoding": "inplace",
        "label": "uint256",
        "numberOfBytes": "32"
      }
    }
  },
  "functionHashes": {
    "dbef6528": "buyGame(string)",
    "7fd6145c": "getGameByCid(string)",
    "c379cd78": "getGameListLength()",
    "c04c5947": "getGames()",
    "396130b9": "isGameOwned(string)",
    "e14b7287": "isGameOwnedBytes(bytes32[])",
    "2a60d6ca": "publishGame(string,string,string,uint256,string)",
    "8d00fe0b": "withdrawCreatorFunds()"
  },
  "gasEstimates": {
    "Creation": {
      "codeDepositCost": "3874800",
      "executionCost": "9407",
      "totalCost": "3884207"
    },
    "External": {
      "buyGame(string)": "infinite",
      "getGameByCid(string)": "infinite",
      "getGameListLength()": "2462",
      "getGames()": "infinite",
      "isGameOwned(string)": "infinite",
      "isGameOwnedBytes(bytes32[])": "infinite",
      "publishGame(string,string,string,uint256,string)": "infinite",
      "withdrawCreatorFunds()": "infinite"
    },
    "Internal": {
      "bytes32ArrayToString(bytes32[] memory)": "infinite"
    }
  },
  "devdoc": {
    "kind": "dev",
    "methods": {},
    "version": 1
  },
  "userdoc": {
    "kind": "user",
    "methods": {},
    "version": 1
  },
  "Runtime Bytecode": {
    "immutableReferences": {},
    "linkReferences": {},
    "object": "60806040526004361061007a575f3560e01c8063c04c59471161004d578063c04c594714610134578063c379cd781461015e578063dbef652814610188578063e14b7287146101a45761007a565b80632a60d6ca1461007e578063396130b9146100a65780637fd6145c146100e25780638d00fe0b1461011e575b5f80fd5b348015610089575f80fd5b506100a4600480360381019061009f919061160d565b6101e0565b005b3480156100b1575f80fd5b506100cc60048036038101906100c791906116f4565b610517565b6040516100d99190611755565b60405180910390f35b3480156100ed575f80fd5b50610108600480360381019061010391906116f4565b61064a565b60405161011591906118b0565b60405180910390f35b348015610129575f80fd5b50610132610952565b005b34801561013f575f80fd5b50610148610ad0565b6040516101559190611a1f565b60405180910390f35b348015610169575f80fd5b50610172610e17565b60405161017f9190611a4e565b60405180910390f35b6101a2600480360381019061019d91906116f4565b610e23565b005b3480156101af575f80fd5b506101ca60048036038101906101c59190611b5e565b61127e565b6040516101d79190611755565b60405180910390f35b5f73ffffffffffffffffffffffffffffffffffffffff166002866040516102079190611bdf565b90815260200160405180910390205f015f9054906101000a900473ffffffffffffffffffffffffffffffffffffffff1673ffffffffffffffffffffffffffffffffffffffff1614610284576040517f5f4be31c00000000000000000000000000000000000000000000000000000000815260040160405180910390fd5b5f84848360405161029490611421565b6102a093929190611c3d565b604051809103905ff0801580156102b9573d5f803e3d5ffd5b5090508073ffffffffffffffffffffffffffffffffffffffff16636a627842336040518263ffffffff1660e01b81526004016102f59190611c96565b5f604051808303815f87803b15801561030c575f80fd5b505af115801561031e573d5f803e3d5ffd5b505050506040518060c001604052803373ffffffffffffffffffffffffffffffffffffffff1681526020018781526020018273ffffffffffffffffffffffffffffffffffffffff1681526020018681526020018481526020018381525060028760405161038b9190611bdf565b90815260200160405180910390205f820151815f015f6101000a81548173ffffffffffffffffffffffffffffffffffffffff021916908373ffffffffffffffffffffffffffffffffffffffff16021790555060208201518160010190816103f29190611ea9565b506040820151816002015f6101000a81548173ffffffffffffffffffffffffffffffffffffffff021916908373ffffffffffffffffffffffffffffffffffffffff160217905550606082015181600301908161044e9190611ea9565b506080820151816004015560a082015181600501908161046e9190611ea9565b50905050600386908060018154018082558091505060019003905f5260205f20015f9091909190915090816104a39190611ea9565b508073ffffffffffffffffffffffffffffffffffffffff16866040516104c99190611bdf565b604051809103902060016003805490506104e39190611fa5565b7f1b53114c999ded51a67e2c46b7aba69bd40e2d7a5b1e3e4a8b7f12c122ff3a5060405160405180910390a4505050505050565b5f806002836040516105299190611bdf565b90815260200160405180910390206002015f9054906101000a900473ffffffffffffffffffffffffffffffffffffffff1690505f73ffffffffffffffffffffffffffffffffffffffff168173ffffffffffffffffffffffffffffffffffffffff16036105c1576040517f57e25a0900000000000000000000000000000000000000000000000000000000815260040160405180910390fd5b5f81905060018173ffffffffffffffffffffffffffffffffffffffff166370a08231336040518263ffffffff1660e01b81526004016106009190611c96565b602060405180830381865afa15801561061b573d5f803e3d5ffd5b505050506040513d601f19601f8201168201806040525081019061063f9190611fec565b101592505050919050565b61065261142e565b5f6002836040516106639190611bdf565b90815260200160405180910390206040518060c00160405290815f82015f9054906101000a900473ffffffffffffffffffffffffffffffffffffffff1673ffffffffffffffffffffffffffffffffffffffff1673ffffffffffffffffffffffffffffffffffffffff1681526020016001820180546106e090611cdc565b80601f016020809104026020016040519081016040528092919081815260200182805461070c90611cdc565b80156107575780601f1061072e57610100808354040283529160200191610757565b820191905f5260205f20905b81548152906001019060200180831161073a57829003601f168201915b50505050508152602001600282015f9054906101000a900473ffffffffffffffffffffffffffffffffffffffff1673ffffffffffffffffffffffffffffffffffffffff1673ffffffffffffffffffffffffffffffffffffffff1681526020016003820180546107c590611cdc565b80601f01602080910402602001604051908101604052809291908181526020018280546107f190611cdc565b801561083c5780601f106108135761010080835404028352916020019161083c565b820191905f5260205f20905b81548152906001019060200180831161081f57829003601f168201915b505050505081526020016004820154815260200160058201805461085f90611cdc565b80601f016020809104026020016040519081016040528092919081815260200182805461088b90611cdc565b80156108d65780601f106108ad576101008083540402835291602001916108d6565b820191905f5260205f20905b8154815290600101906020018083116108b957829003601f168201915b50505050508152505090505f73ffffffffffffffffffffffffffffffffffffffff16815f015173ffffffffffffffffffffffffffffffffffffffff1603610949576040517f57e25a0900000000000000000000000000000000000000000000000000000000815260040160405180910390fd5b80915050919050565b5f60045f3373ffffffffffffffffffffffffffffffffffffffff1673ffffffffffffffffffffffffffffffffffffffff1681526020019081526020015f2054036109c8576040517f356680b700000000000000000000000000000000000000000000000000000000815260040160405180910390fd5b3373ffffffffffffffffffffffffffffffffffffffff166108fc60045f3373ffffffffffffffffffffffffffffffffffffffff1673ffffffffffffffffffffffffffffffffffffffff1681526020019081526020015f205490811502906040515f60405180830381858888f19350505050158015610a48573d5f803e3d5ffd5b505f60045f3373ffffffffffffffffffffffffffffffffffffffff1673ffffffffffffffffffffffffffffffffffffffff1681526020019081526020015f20819055503373ffffffffffffffffffffffffffffffffffffffff167fc43456380866b66f35f174ab56efabbeb1145c4bbf6fe8047c2590e378346ef760405160405180910390a2565b60605f60038054905067ffffffffffffffff811115610af257610af16114b6565b5b604051908082528060200260200182016040528015610b2b57816020015b610b1861142e565b815260200190600190039081610b105790505b5090505f5b600380549050811015610e0f57600260038281548110610b5357610b52612017565b5b905f5260205f2001604051610b6891906120c4565b90815260200160405180910390206040518060c00160405290815f82015f9054906101000a900473ffffffffffffffffffffffffffffffffffffffff1673ffffffffffffffffffffffffffffffffffffffff1673ffffffffffffffffffffffffffffffffffffffff168152602001600182018054610be590611cdc565b80601f0160208091040260200160405190810160405280929190818152602001828054610c1190611cdc565b8015610c5c5780601f10610c3357610100808354040283529160200191610c5c565b820191905f5260205f20905b815481529060010190602001808311610c3f57829003601f168201915b50505050508152602001600282015f9054906101000a900473ffffffffffffffffffffffffffffffffffffffff1673ffffffffffffffffffffffffffffffffffffffff1673ffffffffffffffffffffffffffffffffffffffff168152602001600382018054610cca90611cdc565b80601f0160208091040260200160405190810160405280929190818152602001828054610cf690611cdc565b8015610d415780601f10610d1857610100808354040283529160200191610d41565b820191905f5260205f20905b815481529060010190602001808311610d2457829003601f168201915b5050505050815260200160048201548152602001600582018054610d6490611cdc565b80601f0160208091040260200160405190810160405280929190818152602001828054610d9090611cdc565b8015610ddb5780601f10610db257610100808354040283529160200191610ddb565b820191905f5260205f20905b815481529060010190602001808311610dbe57829003601f168201915b505050505081525050828281518110610df757610df6612017565b5b60200260200101819052508080600101915050610b30565b508091505090565b5f600380549050905090565b5f600282604051610e349190611bdf565b90815260200160405180910390206040518060c00160405290815f82015f9054906101000a900473ffffffffffffffffffffffffffffffffffffffff1673ffffffffffffffffffffffffffffffffffffffff1673ffffffffffffffffffffffffffffffffffffffff168152602001600182018054610eb190611cdc565b80601f0160208091040260200160405190810160405280929190818152602001828054610edd90611cdc565b8015610f285780601f10610eff57610100808354040283529160200191610f28565b820191905f5260205f20905b815481529060010190602001808311610f0b57829003601f168201915b50505050508152602001600282015f9054906101000a900473ffffffffffffffffffffffffffffffffffffffff1673ffffffffffffffffffffffffffffffffffffffff1673ffffffffffffffffffffffffffffffffffffffff168152602001600382018054610f9690611cdc565b80601f0160208091040260200160405190810160405280929190818152602001828054610fc290611cdc565b801561100d5780601f10610fe45761010080835404028352916020019161100d565b820191905f5260205f20905b815481529060010190602001808311610ff057829003601f168201915b505050505081526020016004820154815260200160058201805461103090611cdc565b80601f016020809104026020016040519081016040528092919081815260200182805461105c90611cdc565b80156110a75780601f1061107e576101008083540402835291602001916110a7565b820191905f5260205f20905b81548152906001019060200180831161108a57829003601f168201915b50505050508152505090505f73ffffffffffffffffffffffffffffffffffffffff16815f015173ffffffffffffffffffffffffffffffffffffffff160361111a576040517f57e25a0900000000000000000000000000000000000000000000000000000000815260040160405180910390fd5b8060800151341015611158576040517f356680b700000000000000000000000000000000000000000000000000000000815260040160405180910390fd5b806080015160045f835f015173ffffffffffffffffffffffffffffffffffffffff1673ffffffffffffffffffffffffffffffffffffffff1681526020019081526020015f205f8282546111ab91906120da565b925050819055505f816040015190508073ffffffffffffffffffffffffffffffffffffffff16636a627842336040518263ffffffff1660e01b81526004016111f39190611c96565b5f604051808303815f87803b15801561120a575f80fd5b505af115801561121c573d5f803e3d5ffd5b505050503373ffffffffffffffffffffffffffffffffffffffff16836040516112459190611bdf565b60405180910390207fbe5bacc9ccf0e6b2195fb4eef26c0562a005dcdd2c5d064fd26d76de3849920f60405160405180910390a3505050565b5f80611289836113be565b90505f60028260405161129c9190611bdf565b90815260200160405180910390206002015f9054906101000a900473ffffffffffffffffffffffffffffffffffffffff1690505f73ffffffffffffffffffffffffffffffffffffffff168173ffffffffffffffffffffffffffffffffffffffff1603611334576040517f57e25a0900000000000000000000000000000000000000000000000000000000815260040160405180910390fd5b5f81905060018173ffffffffffffffffffffffffffffffffffffffff166370a08231336040518263ffffffff1660e01b81526004016113739190611c96565b602060405180830381865afa15801561138e573d5f803e3d5ffd5b505050506040513d601f19601f820116820180604052508101906113b29190611fec565b10159350505050919050565b6060805f5b835181101561141757818482815181106113e0576113df612017565b5b60200260200101516040516020016113f9929190612171565b604051602081830303815290604052915080806001019150506113c3565b5080915050919050565b6129e08061219983390190565b6040518060c001604052805f73ffffffffffffffffffffffffffffffffffffffff168152602001606081526020015f73ffffffffffffffffffffffffffffffffffffffff168152602001606081526020015f8152602001606081525090565b5f604051905090565b5f80fd5b5f80fd5b5f80fd5b5f80fd5b5f601f19601f8301169050919050565b7f4e487b71000000000000000000000000000000000000000000000000000000005f52604160045260245ffd5b6114ec826114a6565b810181811067ffffffffffffffff8211171561150b5761150a6114b6565b5b80604052505050565b5f61151d61148d565b905061152982826114e3565b919050565b5f67ffffffffffffffff821115611548576115476114b6565b5b611551826114a6565b9050602081019050919050565b828183375f83830152505050565b5f61157e6115798461152e565b611514565b90508281526020810184848401111561159a576115996114a2565b5b6115a584828561155e565b509392505050565b5f82601f8301126115c1576115c061149e565b5b81356115d184826020860161156c565b91505092915050565b5f819050919050565b6115ec816115da565b81146115f6575f80fd5b50565b5f81359050611607816115e3565b92915050565b5f805f805f60a0868803121561162657611625611496565b5b5f86013567ffffffffffffffff8111156116435761164261149a565b5b61164f888289016115ad565b955050602086013567ffffffffffffffff8111156116705761166f61149a565b5b61167c888289016115ad565b945050604086013567ffffffffffffffff81111561169d5761169c61149a565b5b6116a9888289016115ad565b93505060606116ba888289016115f9565b925050608086013567ffffffffffffffff8111156116db576116da61149a565b5b6116e7888289016115ad565b9150509295509295909350565b5f6020828403121561170957611708611496565b5b5f82013567ffffffffffffffff8111156117265761172561149a565b5b611732848285016115ad565b91505092915050565b5f8115159050919050565b61174f8161173b565b82525050565b5f6020820190506117685f830184611746565b92915050565b5f73ffffffffffffffffffffffffffffffffffffffff82169050919050565b5f6117978261176e565b9050919050565b6117a78161178d565b82525050565b5f81519050919050565b5f82825260208201905092915050565b8281835e5f83830152505050565b5f6117df826117ad565b6117e981856117b7565b93506117f98185602086016117c7565b611802816114a6565b840191505092915050565b611816816115da565b82525050565b5f60c083015f8301516118315f86018261179e565b506020830151848203602086015261184982826117d5565b915050604083015161185e604086018261179e565b506060830151848203606086015261187682826117d5565b915050608083015161188b608086018261180d565b5060a083015184820360a08601526118a382826117d5565b9150508091505092915050565b5f6020820190508181035f8301526118c8818461181c565b905092915050565b5f81519050919050565b5f82825260208201905092915050565b5f819050602082019050919050565b5f60c083015f83015161190e5f86018261179e565b506020830151848203602086015261192682826117d5565b915050604083015161193b604086018261179e565b506060830151848203606086015261195382826117d5565b9150506080830151611968608086018261180d565b5060a083015184820360a086015261198082826117d5565b9150508091505092915050565b5f61199883836118f9565b905092915050565b5f602082019050919050565b5f6119b6826118d0565b6119c081856118da565b9350836020820285016119d2856118ea565b805f5b85811015611a0d57848403895281516119ee858261198d565b94506119f9836119a0565b925060208a019950506001810190506119d5565b50829750879550505050505092915050565b5f6020820190508181035f830152611a3781846119ac565b905092915050565b611a48816115da565b82525050565b5f602082019050611a615f830184611a3f565b92915050565b5f67ffffffffffffffff821115611a8157611a806114b6565b5b602082029050602081019050919050565b5f80fd5b5f819050919050565b611aa881611a96565b8114611ab2575f80fd5b50565b5f81359050611ac381611a9f565b92915050565b5f611adb611ad684611a67565b611514565b90508083825260208201905060208402830185811115611afe57611afd611a92565b5b835b81811015611b275780611b138882611ab5565b845260208401935050602081019050611b00565b5050509392505050565b5f82601f830112611b4557611b4461149e565b5b8135611b55848260208601611ac9565b91505092915050565b5f60208284031215611b7357611b72611496565b5b5f82013567ffffffffffffffff811115611b9057611b8f61149a565b5b611b9c84828501611b31565b91505092915050565b5f81905092915050565b5f611bb9826117ad565b611bc38185611ba5565b9350611bd38185602086016117c7565b80840191505092915050565b5f611bea8284611baf565b915081905092915050565b5f82825260208201905092915050565b5f611c0f826117ad565b611c198185611bf5565b9350611c298185602086016117c7565b611c32816114a6565b840191505092915050565b5f6060820190508181035f830152611c558186611c05565b90508181036020830152611c698185611c05565b90508181036040830152611c7d8184611c05565b9050949350505050565b611c908161178d565b82525050565b5f602082019050611ca95f830184611c87565b92915050565b7f4e487b71000000000000000000000000000000000000000000000000000000005f52602260045260245ffd5b5f6002820490506001821680611cf357607f821691505b602082108103611d0657611d05611caf565b5b50919050565b5f819050815f5260205f209050919050565b5f6020601f8301049050919050565b5f82821b905092915050565b5f60088302611d687fffffffffffffffffffffffffffffffffffffffffffffffffffffffffffffffff82611d2d565b611d728683611d2d565b95508019841693508086168417925050509392505050565b5f819050919050565b5f611dad611da8611da3846115da565b611d8a565b6115da565b9050919050565b5f819050919050565b611dc683611d93565b611dda611dd282611db4565b848454611d39565b825550505050565b5f90565b611dee611de2565b611df9818484611dbd565b505050565b5b81811015611e1c57611e115f82611de6565b600181019050611dff565b5050565b601f821115611e6157611e3281611d0c565b611e3b84611d1e565b81016020851015611e4a578190505b611e5e611e5685611d1e565b830182611dfe565b50505b505050565b5f82821c905092915050565b5f611e815f1984600802611e66565b1980831691505092915050565b5f611e998383611e72565b9150826002028217905092915050565b611eb2826117ad565b67ffffffffffffffff811115611ecb57611eca6114b6565b5b611ed58254611cdc565b611ee0828285611e20565b5f60209050601f831160018114611f11575f8415611eff578287015190505b611f098582611e8e565b865550611f70565b601f198416611f1f86611d0c565b5f5b82811015611f4657848901518255600182019150602085019450602081019050611f21565b86831015611f635784890151611f5f601f891682611e72565b8355505b6001600288020188555050505b505050505050565b7f4e487b71000000000000000000000000000000000000000000000000000000005f52601160045260245ffd5b5f611faf826115da565b9150611fba836115da565b9250828203905081811115611fd257611fd1611f78565b5b92915050565b5f81519050611fe6816115e3565b92915050565b5f6020828403121561200157612000611496565b5b5f61200e84828501611fd8565b91505092915050565b7f4e487b71000000000000000000000000000000000000000000000000000000005f52603260045260245ffd5b5f815461205081611cdc565b61205a8186611ba5565b9450600182165f81146120745760018114612089576120bb565b60ff19831686528115158202860193506120bb565b61209285611d0c565b5f5b838110156120b357815481890152600182019150602081019050612094565b838801955050505b50505092915050565b5f6120cf8284612044565b915081905092915050565b5f6120e4826115da565b91506120ef836115da565b925082820190508082111561210757612106611f78565b5b92915050565b5f81519050919050565b5f81905092915050565b5f61212b8261210d565b6121358185612117565b93506121458185602086016117c7565b80840191505092915050565b5f819050919050565b61216b61216682611a96565b612151565b82525050565b5f61217c8285612121565b9150612188828461215a565b602082019150819050939250505056fe608060405234801561000f575f80fd5b506040516129e03803806129e0833981810160405281019061003191906102fd565b338383815f908161004291906105ae565b50806001908161005291906105ae565b5050505f73ffffffffffffffffffffffffffffffffffffffff168173ffffffffffffffffffffffffffffffffffffffff16036100c5575f6040517f1e4fbdf70000000000000000000000000000000000000000000000000000000081526004016100bc91906106bc565b60405180910390fd5b6100d4816100ed60201b60201c565b5080600890816100e491906105ae565b505050506106d5565b5f60065f9054906101000a900473ffffffffffffffffffffffffffffffffffffffff1690508160065f6101000a81548173ffffffffffffffffffffffffffffffffffffffff021916908373ffffffffffffffffffffffffffffffffffffffff1602179055508173ffffffffffffffffffffffffffffffffffffffff168173ffffffffffffffffffffffffffffffffffffffff167f8be0079c531659141344cd1fd0a4f28419497f9722a3daafe3b4186f6b6457e060405160405180910390a35050565b5f604051905090565b5f80fd5b5f80fd5b5f80fd5b5f80fd5b5f601f19601f8301169050919050565b7f4e487b71000000000000000000000000000000000000000000000000000000005f52604160045260245ffd5b61020f826101c9565b810181811067ffffffffffffffff8211171561022e5761022d6101d9565b5b80604052505050565b5f6102406101b0565b905061024c8282610206565b919050565b5f67ffffffffffffffff82111561026b5761026a6101d9565b5b610274826101c9565b9050602081019050919050565b8281835e5f83830152505050565b5f6102a161029c84610251565b610237565b9050828152602081018484840111156102bd576102bc6101c5565b5b6102c8848285610281565b509392505050565b5f82601f8301126102e4576102e36101c1565b5b81516102f484826020860161028f565b91505092915050565b5f805f60608486031215610314576103136101b9565b5b5f84015167ffffffffffffffff811115610331576103306101bd565b5b61033d868287016102d0565b935050602084015167ffffffffffffffff81111561035e5761035d6101bd565b5b61036a868287016102d0565b925050604084015167ffffffffffffffff81111561038b5761038a6101bd565b5b610397868287016102d0565b9150509250925092565b5f81519050919050565b7f4e487b71000000000000000000000000000000000000000000000000000000005f52602260045260245ffd5b5f60028204905060018216806103ef57607f821691505b602082108103610402576104016103ab565b5b50919050565b5f819050815f5260205f209050919050565b5f6020601f8301049050919050565b5f82821b905092915050565b5f600883026104647fffffffffffffffffffffffffffffffffffffffffffffffffffffffffffffffff82610429565b61046e8683610429565b95508019841693508086168417925050509392505050565b5f819050919050565b5f819050919050565b5f6104b26104ad6104a884610486565b61048f565b610486565b9050919050565b5f819050919050565b6104cb83610498565b6104df6104d7826104b9565b848454610435565b825550505050565b5f90565b6104f36104e7565b6104fe8184846104c2565b505050565b5b81811015610521576105165f826104eb565b600181019050610504565b5050565b601f8211156105665761053781610408565b6105408461041a565b8101602085101561054f578190505b61056361055b8561041a565b830182610503565b50505b505050565b5f82821c905092915050565b5f6105865f198460080261056b565b1980831691505092915050565b5f61059e8383610577565b9150826002028217905092915050565b6105b7826103a1565b67ffffffffffffffff8111156105d0576105cf6101d9565b5b6105da82546103d8565b6105e5828285610525565b5f60209050601f831160018114610616575f8415610604578287015190505b61060e8582610593565b865550610675565b601f19841661062486610408565b5f5b8281101561064b57848901518255600182019150602085019450602081019050610626565b868310156106685784890151610664601f891682610577565b8355505b6001600288020188555050505b505050505050565b5f73ffffffffffffffffffffffffffffffffffffffff82169050919050565b5f6106a68261067d565b9050919050565b6106b68161069c565b82525050565b5f6020820190506106cf5f8301846106ad565b92915050565b6122fe806106e25f395ff3fe608060405234801561000f575f80fd5b5060043610610109575f3560e01c806370a08231116100a0578063a22cb4651161006f578063a22cb465146102a1578063b88d4fde146102bd578063c87b56dd146102d9578063e985e9c514610309578063f2fde38b1461033957610109565b806370a082311461022b578063715018a61461025b5780638da5cb5b1461026557806395d89b411461028357610109565b806323b872dd116100dc57806323b872dd146101a757806342842e0e146101c35780636352211e146101df5780636a6278421461020f57610109565b806301ffc9a71461010d57806306fdde031461013d578063081812fc1461015b578063095ea7b31461018b575b5f80fd5b61012760048036038101906101229190611778565b610355565b60405161013491906117bd565b60405180910390f35b610145610436565b6040516101529190611846565b60405180910390f35b61017560048036038101906101709190611899565b6104c5565b6040516101829190611903565b60405180910390f35b6101a560048036038101906101a09190611946565b6104e0565b005b6101c160048036038101906101bc9190611984565b6104f6565b005b6101dd60048036038101906101d89190611984565b6105f5565b005b6101f960048036038101906101f49190611899565b610614565b6040516102069190611903565b60405180910390f35b610229600480360381019061022491906119d4565b610625565b005b610245600480360381019061024091906119d4565b610653565b6040516102529190611a0e565b60405180910390f35b610263610709565b005b61026d61071c565b60405161027a9190611903565b60405180910390f35b61028b610744565b6040516102989190611846565b60405180910390f35b6102bb60048036038101906102b69190611a51565b6107d4565b005b6102d760048036038101906102d29190611bbb565b6107ea565b005b6102f360048036038101906102ee9190611899565b610807565b6040516103009190611846565b60405180910390f35b610323600480360381019061031e9190611c3b565b610874565b60405161033091906117bd565b60405180910390f35b610353600480360381019061034e91906119d4565b610902565b005b5f7f80ac58cd000000000000000000000000000000000000000000000000000000007bffffffffffffffffffffffffffffffffffffffffffffffffffffffff1916827bffffffffffffffffffffffffffffffffffffffffffffffffffffffff1916148061041f57507f5b5e139f000000000000000000000000000000000000000000000000000000007bffffffffffffffffffffffffffffffffffffffffffffffffffffffff1916827bffffffffffffffffffffffffffffffffffffffffffffffffffffffff1916145b8061042f575061042e82610986565b5b9050919050565b60605f805461044490611ca6565b80601f016020809104026020016040519081016040528092919081815260200182805461047090611ca6565b80156104bb5780601f10610492576101008083540402835291602001916104bb565b820191905f5260205f20905b81548152906001019060200180831161049e57829003601f168201915b5050505050905090565b5f6104cf826109ef565b506104d982610a75565b9050919050565b6104f282826104ed610aae565b610ab5565b5050565b5f73ffffffffffffffffffffffffffffffffffffffff168273ffffffffffffffffffffffffffffffffffffffff1603610566575f6040517f64a0ae9200000000000000000000000000000000000000000000000000000000815260040161055d9190611903565b60405180910390fd5b5f6105798383610574610aae565b610ac7565b90508373ffffffffffffffffffffffffffffffffffffffff168173ffffffffffffffffffffffffffffffffffffffff16146105ef578382826040517f64283d7b0000000000000000000000000000000000000000000000000000000081526004016105e693929190611cd6565b60405180910390fd5b50505050565b61060f83838360405180602001604052805f8152506107ea565b505050565b5f61061e826109ef565b9050919050565b61062d610cd2565b61063981600754610d59565b60075f81548092919061064b90611d38565b919050555050565b5f8073ffffffffffffffffffffffffffffffffffffffff168273ffffffffffffffffffffffffffffffffffffffff16036106c4575f6040517f89c62b640000000000000000000000000000000000000000000000000000000081526004016106bb9190611903565b60405180910390fd5b60035f8373ffffffffffffffffffffffffffffffffffffffff1673ffffffffffffffffffffffffffffffffffffffff1681526020019081526020015f20549050919050565b610711610cd2565b61071a5f610e4c565b565b5f60065f9054906101000a900473ffffffffffffffffffffffffffffffffffffffff16905090565b60606001805461075390611ca6565b80601f016020809104026020016040519081016040528092919081815260200182805461077f90611ca6565b80156107ca5780601f106107a1576101008083540402835291602001916107ca565b820191905f5260205f20905b8154815290600101906020018083116107ad57829003601f168201915b5050505050905090565b6107e66107df610aae565b8383610f0f565b5050565b6107f58484846104f6565b61080184848484611078565b50505050565b6060610812826109ef565b5061084e61081e610436565b610826610436565b600860405160200161083a93929190611fe3565b60405160208183030381529060405261122a565b60405160200161085e9190612094565b6040516020818303038152906040529050919050565b5f60055f8473ffffffffffffffffffffffffffffffffffffffff1673ffffffffffffffffffffffffffffffffffffffff1681526020019081526020015f205f8373ffffffffffffffffffffffffffffffffffffffff1673ffffffffffffffffffffffffffffffffffffffff1681526020019081526020015f205f9054906101000a900460ff16905092915050565b61090a610cd2565b5f73ffffffffffffffffffffffffffffffffffffffff168173ffffffffffffffffffffffffffffffffffffffff160361097a575f6040517f1e4fbdf70000000000000000000000000000000000000000000000000000000081526004016109719190611903565b60405180910390fd5b61098381610e4c565b50565b5f7f01ffc9a7000000000000000000000000000000000000000000000000000000007bffffffffffffffffffffffffffffffffffffffffffffffffffffffff1916827bffffffffffffffffffffffffffffffffffffffffffffffffffffffff1916149050919050565b5f806109fa83611397565b90505f73ffffffffffffffffffffffffffffffffffffffff168173ffffffffffffffffffffffffffffffffffffffff1603610a6c57826040517f7e273289000000000000000000000000000000000000000000000000000000008152600401610a639190611a0e565b60405180910390fd5b80915050919050565b5f60045f8381526020019081526020015f205f9054906101000a900473ffffffffffffffffffffffffffffffffffffffff169050919050565b5f33905090565b610ac283838360016113d0565b505050565b5f80610ad284611397565b90505f73ffffffffffffffffffffffffffffffffffffffff168373ffffffffffffffffffffffffffffffffffffffff1614610b1357610b1281848661158f565b5b5f73ffffffffffffffffffffffffffffffffffffffff168173ffffffffffffffffffffffffffffffffffffffff1614610b9e57610b525f855f806113d0565b600160035f8373ffffffffffffffffffffffffffffffffffffffff1673ffffffffffffffffffffffffffffffffffffffff1681526020019081526020015f205f82825403925050819055505b5f73ffffffffffffffffffffffffffffffffffffffff168573ffffffffffffffffffffffffffffffffffffffff1614610c1d57600160035f8773ffffffffffffffffffffffffffffffffffffffff1673ffffffffffffffffffffffffffffffffffffffff1681526020019081526020015f205f82825401925050819055505b8460025f8681526020019081526020015f205f6101000a81548173ffffffffffffffffffffffffffffffffffffffff021916908373ffffffffffffffffffffffffffffffffffffffff160217905550838573ffffffffffffffffffffffffffffffffffffffff168273ffffffffffffffffffffffffffffffffffffffff167fddf252ad1be2c89b69c2b068fc378daa952ba7f163c4a11628f55a4df523b3ef60405160405180910390a4809150509392505050565b610cda610aae565b73ffffffffffffffffffffffffffffffffffffffff16610cf861071c565b73ffffffffffffffffffffffffffffffffffffffff1614610d5757610d1b610aae565b6040517f118cdaa7000000000000000000000000000000000000000000000000000000008152600401610d4e9190611903565b60405180910390fd5b565b5f73ffffffffffffffffffffffffffffffffffffffff168273ffffffffffffffffffffffffffffffffffffffff1603610dc9575f6040517f64a0ae92000000000000000000000000000000000000000000000000000000008152600401610dc09190611903565b60405180910390fd5b5f610dd583835f610ac7565b90505f73ffffffffffffffffffffffffffffffffffffffff168173ffffffffffffffffffffffffffffffffffffffff1614610e47575f6040517f73c6ac6e000000000000000000000000000000000000000000000000000000008152600401610e3e9190611903565b60405180910390fd5b505050565b5f60065f9054906101000a900473ffffffffffffffffffffffffffffffffffffffff1690508160065f6101000a81548173ffffffffffffffffffffffffffffffffffffffff021916908373ffffffffffffffffffffffffffffffffffffffff1602179055508173ffffffffffffffffffffffffffffffffffffffff168173ffffffffffffffffffffffffffffffffffffffff167f8be0079c531659141344cd1fd0a4f28419497f9722a3daafe3b4186f6b6457e060405160405180910390a35050565b5f73ffffffffffffffffffffffffffffffffffffffff168273ffffffffffffffffffffffffffffffffffffffff1603610f7f57816040517f5b08ba18000000000000000000000000000000000000000000000000000000008152600401610f769190611903565b60405180910390fd5b8060055f8573ffffffffffffffffffffffffffffffffffffffff1673ffffffffffffffffffffffffffffffffffffffff1681526020019081526020015f205f8473ffffffffffffffffffffffffffffffffffffffff1673ffffffffffffffffffffffffffffffffffffffff1681526020019081526020015f205f6101000a81548160ff0219169083151502179055508173ffffffffffffffffffffffffffffffffffffffff168373ffffffffffffffffffffffffffffffffffffffff167f17307eab39ab6107e8899845ad3d59bd9653f200f220920489ca2b5937696c318360405161106b91906117bd565b60405180910390a3505050565b5f8373ffffffffffffffffffffffffffffffffffffffff163b1115611224578273ffffffffffffffffffffffffffffffffffffffff1663150b7a026110bb610aae565b8685856040518563ffffffff1660e01b81526004016110dd9493929190612107565b6020604051808303815f875af192505050801561111857506040513d601f19601f820116820180604052508101906111159190612165565b60015b611199573d805f8114611146576040519150601f19603f3d011682016040523d82523d5f602084013e61114b565b606091505b505f81510361119157836040517f64a0ae920000000000000000000000000000000000000000000000000000000081526004016111889190611903565b60405180910390fd5b805181602001fd5b63150b7a0260e01b7bffffffffffffffffffffffffffffffffffffffffffffffffffffffff1916817bffffffffffffffffffffffffffffffffffffffffffffffffffffffff19161461122257836040517f64a0ae920000000000000000000000000000000000000000000000000000000081526004016112199190611903565b60405180910390fd5b505b50505050565b60605f82510361124a5760405180602001604052805f8152509050611392565b5f6040518060600160405280604081526020016122896040913990505f6003600285516112779190612190565b61128191906121f0565b600461128d9190612220565b67ffffffffffffffff8111156112a6576112a5611a97565b5b6040519080825280601f01601f1916602001820160405280156112d85781602001600182028036833780820191505090505b509050600182016020820185865187016020810180515f82525b8284101561134d576003840193508351603f8160121c168701518653600186019550603f81600c1c168701518653600186019550603f8160061c168701518653600186019550603f81168701518653600186019550506112f2565b80825260038a51066001811461136a576002811461137d57611385565b603d6001870353603d6002870353611385565b603d60018703535b5050505050505080925050505b919050565b5f60025f8381526020019081526020015f205f9054906101000a900473ffffffffffffffffffffffffffffffffffffffff169050919050565b808061140857505f73ffffffffffffffffffffffffffffffffffffffff168273ffffffffffffffffffffffffffffffffffffffff1614155b1561153a575f611417846109ef565b90505f73ffffffffffffffffffffffffffffffffffffffff168373ffffffffffffffffffffffffffffffffffffffff161415801561148157508273ffffffffffffffffffffffffffffffffffffffff168173ffffffffffffffffffffffffffffffffffffffff1614155b801561149457506114928184610874565b155b156114d657826040517fa9fbf51f0000000000000000000000000000000000000000000000000000000081526004016114cd9190611903565b60405180910390fd5b811561153857838573ffffffffffffffffffffffffffffffffffffffff168273ffffffffffffffffffffffffffffffffffffffff167f8c5be1e5ebec7d5bd14f71427d1e84f3dd0314c0f7b2291e5b200ac8c7c3b92560405160405180910390a45b505b8360045f8581526020019081526020015f205f6101000a81548173ffffffffffffffffffffffffffffffffffffffff021916908373ffffffffffffffffffffffffffffffffffffffff16021790555050505050565b61159a838383611652565b61164d575f73ffffffffffffffffffffffffffffffffffffffff168373ffffffffffffffffffffffffffffffffffffffff160361160e57806040517f7e2732890000000000000000000000000000000000000000000000000000000081526004016116059190611a0e565b60405180910390fd5b81816040517f177e802f000000000000000000000000000000000000000000000000000000008152600401611644929190612261565b60405180910390fd5b505050565b5f8073ffffffffffffffffffffffffffffffffffffffff168373ffffffffffffffffffffffffffffffffffffffff161415801561170957508273ffffffffffffffffffffffffffffffffffffffff168473ffffffffffffffffffffffffffffffffffffffff1614806116ca57506116c98484610874565b5b8061170857508273ffffffffffffffffffffffffffffffffffffffff166116f083610a75565b73ffffffffffffffffffffffffffffffffffffffff16145b5b90509392505050565b5f604051905090565b5f80fd5b5f80fd5b5f7fffffffff0000000000000000000000000000000000000000000000000000000082169050919050565b61175781611723565b8114611761575f80fd5b50565b5f813590506117728161174e565b92915050565b5f6020828403121561178d5761178c61171b565b5b5f61179a84828501611764565b91505092915050565b5f8115159050919050565b6117b7816117a3565b82525050565b5f6020820190506117d05f8301846117ae565b92915050565b5f81519050919050565b5f82825260208201905092915050565b8281835e5f83830152505050565b5f601f19601f8301169050919050565b5f611818826117d6565b61182281856117e0565b93506118328185602086016117f0565b61183b816117fe565b840191505092915050565b5f6020820190508181035f83015261185e818461180e565b905092915050565b5f819050919050565b61187881611866565b8114611882575f80fd5b50565b5f813590506118938161186f565b92915050565b5f602082840312156118ae576118ad61171b565b5b5f6118bb84828501611885565b91505092915050565b5f73ffffffffffffffffffffffffffffffffffffffff82169050919050565b5f6118ed826118c4565b9050919050565b6118fd816118e3565b82525050565b5f6020820190506119165f8301846118f4565b92915050565b611925816118e3565b811461192f575f80fd5b50565b5f813590506119408161191c565b92915050565b5f806040838503121561195c5761195b61171b565b5b5f61196985828601611932565b925050602061197a85828601611885565b9150509250929050565b5f805f6060848603121561199b5761199a61171b565b5b5f6119a886828701611932565b93505060206119b986828701611932565b92505060406119ca86828701611885565b9150509250925092565b5f602082840312156119e9576119e861171b565b5b5f6119f684828501611932565b91505092915050565b611a0881611866565b82525050565b5f602082019050611a215f8301846119ff565b92915050565b611a30816117a3565b8114611a3a575f80fd5b50565b5f81359050611a4b81611a27565b92915050565b5f8060408385031215611a6757611a6661171b565b5b5f611a7485828601611932565b9250506020611a8585828601611a3d565b9150509250929050565b5f80fd5b5f80fd5b7f4e487b71000000000000000000000000000000000000000000000000000000005f52604160045260245ffd5b611acd826117fe565b810181811067ffffffffffffffff82111715611aec57611aeb611a97565b5b80604052505050565b5f611afe611712565b9050611b0a8282611ac4565b919050565b5f67ffffffffffffffff821115611b2957611b28611a97565b5b611b32826117fe565b9050602081019050919050565b828183375f83830152505050565b5f611b5f611b5a84611b0f565b611af5565b905082815260208101848484011115611b7b57611b7a611a93565b5b611b86848285611b3f565b509392505050565b5f82601f830112611ba257611ba1611a8f565b5b8135611bb2848260208601611b4d565b91505092915050565b5f805f8060808587031215611bd357611bd261171b565b5b5f611be087828801611932565b9450506020611bf187828801611932565b9350506040611c0287828801611885565b925050606085013567ffffffffffffffff811115611c2357611c2261171f565b5b611c2f87828801611b8e565b91505092959194509250565b5f8060408385031215611c5157611c5061171b565b5b5f611c5e85828601611932565b9250506020611c6f85828601611932565b9150509250929050565b7f4e487b71000000000000000000000000000000000000000000000000000000005f52602260045260245ffd5b5f6002820490506001821680611cbd57607f821691505b602082108103611cd057611ccf611c79565b5b50919050565b5f606082019050611ce95f8301866118f4565b611cf660208301856119ff565b611d0360408301846118f4565b949350505050565b7f4e487b71000000000000000000000000000000000000000000000000000000005f52601160045260245ffd5b5f611d4282611866565b91507fffffffffffffffffffffffffffffffffffffffffffffffffffffffffffffffff8203611d7457611d73611d0b565b5b600182019050919050565b5f81905092915050565b7f7b226e616d65223a2200000000000000000000000000000000000000000000005f82015250565b5f611dbd600983611d7f565b9150611dc882611d89565b600982019050919050565b5f611ddd826117d6565b611de78185611d7f565b9350611df78185602086016117f0565b80840191505092915050565b7f222c20226465736372697074696f6e223a22416e204e465420746861742072655f8201527f666c6563747320746865206f776e657273686970206f662067616d65202d2000602082015250565b5f611e5d603f83611d7f565b9150611e6882611e03565b603f82019050919050565b7f222c2000000000000000000000000000000000000000000000000000000000005f82015250565b5f611ea7600383611d7f565b9150611eb282611e73565b600382019050919050565b7f22696d616765223a2200000000000000000000000000000000000000000000005f82015250565b5f611ef1600983611d7f565b9150611efc82611ebd565b600982019050919050565b5f819050815f5260205f209050919050565b5f8154611f2581611ca6565b611f2f8186611d7f565b9450600182165f8114611f495760018114611f5e57611f90565b60ff1983168652811515820286019350611f90565b611f6785611f07565b5f5b83811015611f8857815481890152600182019150602081019050611f69565b838801955050505b50505092915050565b7f227d0000000000000000000000000000000000000000000000000000000000005f82015250565b5f611fcd600283611d7f565b9150611fd882611f99565b600282019050919050565b5f611fed82611db1565b9150611ff98286611dd3565b915061200482611e51565b91506120108285611dd3565b915061201b82611e9b565b915061202682611ee5565b91506120328284611f19565b915061203d82611fc1565b9150819050949350505050565b7f646174613a6170706c69636174696f6e2f6a736f6e3b6261736536342c0000005f82015250565b5f61207e601d83611d7f565b91506120898261204a565b601d82019050919050565b5f61209e82612072565b91506120aa8284611dd3565b915081905092915050565b5f81519050919050565b5f82825260208201905092915050565b5f6120d9826120b5565b6120e381856120bf565b93506120f38185602086016117f0565b6120fc816117fe565b840191505092915050565b5f60808201905061211a5f8301876118f4565b61212760208301866118f4565b61213460408301856119ff565b818103606083015261214681846120cf565b905095945050505050565b5f8151905061215f8161174e565b92915050565b5f6020828403121561217a5761217961171b565b5b5f61218784828501612151565b91505092915050565b5f61219a82611866565b91506121a583611866565b92508282019050808211156121bd576121bc611d0b565b5b92915050565b7f4e487b71000000000000000000000000000000000000000000000000000000005f52601260045260245ffd5b5f6121fa82611866565b915061220583611866565b925082612215576122146121c3565b5b828204905092915050565b5f61222a82611866565b915061223583611866565b925082820261224381611866565b9150828204841483151761225a57612259611d0b565b5b5092915050565b5f6040820190506122745f8301856118f4565b61228160208301846119ff565b939250505056fe4142434445464748494a4b4c4d4e4f505152535455565758595a6162636465666768696a6b6c6d6e6f707172737475767778797a303132333435363738392b2fa2646970667358221220558c2dc897274068477ea829f6da0f481dac225b6b93681c7bf01ab595996b8064736f6c63430008190033a2646970667358221220923ad93a15e27e242dce1dfeca3722f2d7c0900ec58a64a908a32e0664ba796964736f6c63430008190033",
    "opcodes": "PUSH1 0x80 PUSH1 0x40 MSTORE PUSH1 0x4 CALLDATASIZE LT PUSH2 0x7A JUMPI PUSH0 CALLDATALOAD PUSH1 0xE0 SHR DUP1 PUSH4 0xC04C5947 GT PUSH2 0x4D JUMPI DUP1 PUSH4 0xC04C5947 EQ PUSH2 0x134 JUMPI DUP1 PUSH4 0xC379CD78 EQ PUSH2 0x15E JUMPI DUP1 PUSH4 0xDBEF6528 EQ PUSH2 0x188 JUMPI DUP1 PUSH4 0xE14B7287 EQ PUSH2 0x1A4 JUMPI PUSH2 0x7A JUMP JUMPDEST DUP1 PUSH4 0x2A60D6CA EQ PUSH2 0x7E JUMPI DUP1 PUSH4 0x396130B9 EQ PUSH2 0xA6 JUMPI DUP1 PUSH4 0x7FD6145C EQ PUSH2 0xE2 JUMPI DUP1 PUSH4 0x8D00FE0B EQ PUSH2 0x11E JUMPI JUMPDEST PUSH0 DUP1 REVERT JUMPDEST CALLVALUE DUP1 ISZERO PUSH2 0x89 JUMPI PUSH0 DUP1 REVERT JUMPDEST POP PUSH2 0xA4 PUSH1 0x4 DUP1 CALLDATASIZE SUB DUP2 ADD SWAP1 PUSH2 0x9F SWAP2 SWAP1 PUSH2 0x160D JUMP JUMPDEST PUSH2 0x1E0 JUMP JUMPDEST STOP JUMPDEST CALLVALUE DUP1 ISZERO PUSH2 0xB1 JUMPI PUSH0 DUP1 REVERT JUMPDEST POP PUSH2 0xCC PUSH1 0x4 DUP1 CALLDATASIZE SUB DUP2 ADD SWAP1 PUSH2 0xC7 SWAP2 SWAP1 PUSH2 0x16F4 JUMP JUMPDEST PUSH2 0x517 JUMP JUMPDEST PUSH1 0x40 MLOAD PUSH2 0xD9 SWAP2 SWAP1 PUSH2 0x1755 JUMP JUMPDEST PUSH1 0x40 MLOAD DUP1 SWAP2 SUB SWAP1 RETURN JUMPDEST CALLVALUE DUP1 ISZERO PUSH2 0xED JUMPI PUSH0 DUP1 REVERT JUMPDEST POP PUSH2 0x108 PUSH1 0x4 DUP1 CALLDATASIZE SUB DUP2 ADD SWAP1 PUSH2 0x103 SWAP2 SWAP1 PUSH2 0x16F4 JUMP JUMPDEST PUSH2 0x64A JUMP JUMPDEST PUSH1 0x40 MLOAD PUSH2 0x115 SWAP2 SWAP1 PUSH2 0x18B0 JUMP JUMPDEST PUSH1 0x40 MLOAD DUP1 SWAP2 SUB SWAP1 RETURN JUMPDEST CALLVALUE DUP1 ISZERO PUSH2 0x129 JUMPI PUSH0 DUP1 REVERT JUMPDEST POP PUSH2 0x132 PUSH2 0x952 JUMP JUMPDEST STOP JUMPDEST CALLVALUE DUP1 ISZERO PUSH2 0x13F JUMPI PUSH0 DUP1 REVERT JUMPDEST POP PUSH2 0x148 PUSH2 0xAD0 JUMP JUMPDEST PUSH1 0x40 MLOAD PUSH2 0x155 SWAP2 SWAP1 PUSH2 0x1A1F JUMP JUMPDEST PUSH1 0x40 MLOAD DUP1 SWAP2 SUB SWAP1 RETURN JUMPDEST CALLVALUE DUP1 ISZERO PUSH2 0x169 JUMPI PUSH0 DUP1 REVERT JUMPDEST POP PUSH2 0x172 PUSH2 0xE17 JUMP JUMPDEST PUSH1 0x40 MLOAD PUSH2 0x17F SWAP2 SWAP1 PUSH2 0x1A4E JUMP JUMPDEST PUSH1 0x40 MLOAD DUP1 SWAP2 SUB SWAP1 RETURN JUMPDEST PUSH2 0x1A2 PUSH1 0x4 DUP1 CALLDATASIZE SUB DUP2 ADD SWAP1 PUSH2 0x19D SWAP2 SWAP1 PUSH2 0x16F4 JUMP JUMPDEST PUSH2 0xE23 JUMP JUMPDEST STOP JUMPDEST CALLVALUE DUP1 ISZERO PUSH2 0x1AF JUMPI PUSH0 DUP1 REVERT JUMPDEST POP PUSH2 0x1CA PUSH1 0x4 DUP1 CALLDATASIZE SUB DUP2 ADD SWAP1 PUSH2 0x1C5 SWAP2 SWAP1 PUSH2 0x1B5E JUMP JUMPDEST PUSH2 0x127E JUMP JUMPDEST PUSH1 0x40 MLOAD PUSH2 0x1D7 SWAP2 SWAP1 PUSH2 0x1755 JUMP JUMPDEST PUSH1 0x40 MLOAD DUP1 SWAP2 SUB SWAP1 RETURN JUMPDEST PUSH0 PUSH20 0xFFFFFFFFFFFFFFFFFFFFFFFFFFFFFFFFFFFFFFFF AND PUSH1 0x2 DUP7 PUSH1 0x40 MLOAD PUSH2 0x207 SWAP2 SWAP1 PUSH2 0x1BDF JUMP JUMPDEST SWAP1 DUP2 MSTORE PUSH1 0x20 ADD PUSH1 0x40 MLOAD DUP1 SWAP2 SUB SWAP1 KECCAK256 PUSH0 ADD PUSH0 SWAP1 SLOAD SWAP1 PUSH2 0x100 EXP SWAP1 DIV PUSH20 0xFFFFFFFFFFFFFFFFFFFFFFFFFFFFFFFFFFFFFFFF AND PUSH20 0xFFFFFFFFFFFFFFFFFFFFFFFFFFFFFFFFFFFFFFFF AND EQ PUSH2 0x284 JUMPI PUSH1 0x40 MLOAD PUSH32 0x5F4BE31C00000000000000000000000000000000000000000000000000000000 DUP2 MSTORE PUSH1 0x4 ADD PUSH1 0x40 MLOAD DUP1 SWAP2 SUB SWAP1 REVERT JUMPDEST PUSH0 DUP5 DUP5 DUP4 PUSH1 0x40 MLOAD PUSH2 0x294 SWAP1 PUSH2 0x1421 JUMP JUMPDEST PUSH2 0x2A0 SWAP4 SWAP3 SWAP2 SWAP1 PUSH2 0x1C3D JUMP JUMPDEST PUSH1 0x40 MLOAD DUP1 SWAP2 SUB SWAP1 PUSH0 CREATE DUP1 ISZERO DUP1 ISZERO PUSH2 0x2B9 JUMPI RETURNDATASIZE PUSH0 DUP1 RETURNDATACOPY RETURNDATASIZE PUSH0 REVERT JUMPDEST POP SWAP1 POP DUP1 PUSH20 0xFFFFFFFFFFFFFFFFFFFFFFFFFFFFFFFFFFFFFFFF AND PUSH4 0x6A627842 CALLER PUSH1 0x40 MLOAD DUP3 PUSH4 0xFFFFFFFF AND PUSH1 0xE0 SHL DUP2 MSTORE PUSH1 0x4 ADD PUSH2 0x2F5 SWAP2 SWAP1 PUSH2 0x1C96 JUMP JUMPDEST PUSH0 PUSH1 0x40 MLOAD DUP1 DUP4 SUB DUP2 PUSH0 DUP8 DUP1 EXTCODESIZE ISZERO DUP1 ISZERO PUSH2 0x30C JUMPI PUSH0 DUP1 REVERT JUMPDEST POP GAS CALL ISZERO DUP1 ISZERO PUSH2 0x31E JUMPI RETURNDATASIZE PUSH0 DUP1 RETURNDATACOPY RETURNDATASIZE PUSH0 REVERT JUMPDEST POP POP POP POP PUSH1 0x40 MLOAD DUP1 PUSH1 0xC0 ADD PUSH1 0x40 MSTORE DUP1 CALLER PUSH20 0xFFFFFFFFFFFFFFFFFFFFFFFFFFFFFFFFFFFFFFFF AND DUP2 MSTORE PUSH1 0x20 ADD DUP8 DUP2 MSTORE PUSH1 0x20 ADD DUP3 PUSH20 0xFFFFFFFFFFFFFFFFFFFFFFFFFFFFFFFFFFFFFFFF AND DUP2 MSTORE PUSH1 0x20 ADD DUP7 DUP2 MSTORE PUSH1 0x20 ADD DUP5 DUP2 MSTORE PUSH1 0x20 ADD DUP4 DUP2 MSTORE POP PUSH1 0x2 DUP8 PUSH1 0x40 MLOAD PUSH2 0x38B SWAP2 SWAP1 PUSH2 0x1BDF JUMP JUMPDEST SWAP1 DUP2 MSTORE PUSH1 0x20 ADD PUSH1 0x40 MLOAD DUP1 SWAP2 SUB SWAP1 KECCAK256 PUSH0 DUP3 ADD MLOAD DUP2 PUSH0 ADD PUSH0 PUSH2 0x100 EXP DUP2 SLOAD DUP2 PUSH20 0xFFFFFFFFFFFFFFFFFFFFFFFFFFFFFFFFFFFFFFFF MUL NOT AND SWAP1 DUP4 PUSH20 0xFFFFFFFFFFFFFFFFFFFFFFFFFFFFFFFFFFFFFFFF AND MUL OR SWAP1 SSTORE POP PUSH1 0x20 DUP3 ADD MLOAD DUP2 PUSH1 0x1 ADD SWAP1 DUP2 PUSH2 0x3F2 SWAP2 SWAP1 PUSH2 0x1EA9 JUMP JUMPDEST POP PUSH1 0x40 DUP3 ADD MLOAD DUP2 PUSH1 0x2 ADD PUSH0 PUSH2 0x100 EXP DUP2 SLOAD DUP2 PUSH20 0xFFFFFFFFFFFFFFFFFFFFFFFFFFFFFFFFFFFFFFFF MUL NOT AND SWAP1 DUP4 PUSH20 0xFFFFFFFFFFFFFFFFFFFFFFFFFFFFFFFFFFFFFFFF AND MUL OR SWAP1 SSTORE POP PUSH1 0x60 DUP3 ADD MLOAD DUP2 PUSH1 0x3 ADD SWAP1 DUP2 PUSH2 0x44E SWAP2 SWAP1 PUSH2 0x1EA9 JUMP JUMPDEST POP PUSH1 0x80 DUP3 ADD MLOAD DUP2 PUSH1 0x4 ADD SSTORE PUSH1 0xA0 DUP3 ADD MLOAD DUP2 PUSH1 0x5 ADD SWAP1 DUP2 PUSH2 0x46E SWAP2 SWAP1 PUSH2 0x1EA9 JUMP JUMPDEST POP SWAP1 POP POP PUSH1 0x3 DUP7 SWAP1 DUP1 PUSH1 0x1 DUP2 SLOAD ADD DUP1 DUP3 SSTORE DUP1 SWAP2 POP POP PUSH1 0x1 SWAP1 SUB SWAP1 PUSH0 MSTORE PUSH1 0x20 PUSH0 KECCAK256 ADD PUSH0 SWAP1 SWAP2 SWAP1 SWAP2 SWAP1 SWAP2 POP SWAP1 DUP2 PUSH2 0x4A3 SWAP2 SWAP1 PUSH2 0x1EA9 JUMP JUMPDEST POP DUP1 PUSH20 0xFFFFFFFFFFFFFFFFFFFFFFFFFFFFFFFFFFFFFFFF AND DUP7 PUSH1 0x40 MLOAD PUSH2 0x4C9 SWAP2 SWAP1 PUSH2 0x1BDF JUMP JUMPDEST PUSH1 0x40 MLOAD DUP1 SWAP2 SUB SWAP1 KECCAK256 PUSH1 0x1 PUSH1 0x3 DUP1 SLOAD SWAP1 POP PUSH2 0x4E3 SWAP2 SWAP1 PUSH2 0x1FA5 JUMP JUMPDEST PUSH32 0x1B53114C999DED51A67E2C46B7ABA69BD40E2D7A5B1E3E4A8B7F12C122FF3A50 PUSH1 0x40 MLOAD PUSH1 0x40 MLOAD DUP1 SWAP2 SUB SWAP1 LOG4 POP POP POP POP POP POP JUMP JUMPDEST PUSH0 DUP1 PUSH1 0x2 DUP4 PUSH1 0x40 MLOAD PUSH2 0x529 SWAP2 SWAP1 PUSH2 0x1BDF JUMP JUMPDEST SWAP1 DUP2 MSTORE PUSH1 0x20 ADD PUSH1 0x40 MLOAD DUP1 SWAP2 SUB SWAP1 KECCAK256 PUSH1 0x2 ADD PUSH0 SWAP1 SLOAD SWAP1 PUSH2 0x100 EXP SWAP1 DIV PUSH20 0xFFFFFFFFFFFFFFFFFFFFFFFFFFFFFFFFFFFFFFFF AND SWAP1 POP PUSH0 PUSH20 0xFFFFFFFFFFFFFFFFFFFFFFFFFFFFFFFFFFFFFFFF AND DUP2 PUSH20 0xFFFFFFFFFFFFFFFFFFFFFFFFFFFFFFFFFFFFFFFF AND SUB PUSH2 0x5C1 JUMPI PUSH1 0x40 MLOAD PUSH32 0x57E25A0900000000000000000000000000000000000000000000000000000000 DUP2 MSTORE PUSH1 0x4 ADD PUSH1 0x40 MLOAD DUP1 SWAP2 SUB SWAP1 REVERT JUMPDEST PUSH0 DUP2 SWAP1 POP PUSH1 0x1 DUP2 PUSH20 0xFFFFFFFFFFFFFFFFFFFFFFFFFFFFFFFFFFFFFFFF AND PUSH4 0x70A08231 CALLER PUSH1 0x40 MLOAD DUP3 PUSH4 0xFFFFFFFF AND PUSH1 0xE0 SHL DUP2 MSTORE PUSH1 0x4 ADD PUSH2 0x600 SWAP2 SWAP1 PUSH2 0x1C96 JUMP JUMPDEST PUSH1 0x20 PUSH1 0x40 MLOAD DUP1 DUP4 SUB DUP2 DUP7 GAS STATICCALL ISZERO DUP1 ISZERO PUSH2 0x61B JUMPI RETURNDATASIZE PUSH0 DUP1 RETURNDATACOPY RETURNDATASIZE PUSH0 REVERT JUMPDEST POP POP POP POP PUSH1 0x40 MLOAD RETURNDATASIZE PUSH1 0x1F NOT PUSH1 0x1F DUP3 ADD AND DUP3 ADD DUP1 PUSH1 0x40 MSTORE POP DUP2 ADD SWAP1 PUSH2 0x63F SWAP2 SWAP1 PUSH2 0x1FEC JUMP JUMPDEST LT ISZERO SWAP3 POP POP POP SWAP2 SWAP1 POP JUMP JUMPDEST PUSH2 0x652 PUSH2 0x142E JUMP JUMPDEST PUSH0 PUSH1 0x2 DUP4 PUSH1 0x40 MLOAD PUSH2 0x663 SWAP2 SWAP1 PUSH2 0x1BDF JUMP JUMPDEST SWAP1 DUP2 MSTORE PUSH1 0x20 ADD PUSH1 0x40 MLOAD DUP1 SWAP2 SUB SWAP1 KECCAK256 PUSH1 0x40 MLOAD DUP1 PUSH1 0xC0 ADD PUSH1 0x40 MSTORE SWAP1 DUP2 PUSH0 DUP3 ADD PUSH0 SWAP1 SLOAD SWAP1 PUSH2 0x100 EXP SWAP1 DIV PUSH20 0xFFFFFFFFFFFFFFFFFFFFFFFFFFFFFFFFFFFFFFFF AND PUSH20 0xFFFFFFFFFFFFFFFFFFFFFFFFFFFFFFFFFFFFFFFF AND PUSH20 0xFFFFFFFFFFFFFFFFFFFFFFFFFFFFFFFFFFFFFFFF AND DUP2 MSTORE PUSH1 0x20 ADD PUSH1 0x1 DUP3 ADD DUP1 SLOAD PUSH2 0x6E0 SWAP1 PUSH2 0x1CDC JUMP JUMPDEST DUP1 PUSH1 0x1F ADD PUSH1 0x20 DUP1 SWAP2 DIV MUL PUSH1 0x20 ADD PUSH1 0x40 MLOAD SWAP1 DUP2 ADD PUSH1 0x40 MSTORE DUP1 SWAP3 SWAP2 SWAP1 DUP2 DUP2 MSTORE PUSH1 0x20 ADD DUP3 DUP1 SLOAD PUSH2 0x70C SWAP1 PUSH2 0x1CDC JUMP JUMPDEST DUP1 ISZERO PUSH2 0x757 JUMPI DUP1 PUSH1 0x1F LT PUSH2 0x72E JUMPI PUSH2 0x100 DUP1 DUP4 SLOAD DIV MUL DUP4 MSTORE SWAP2 PUSH1 0x20 ADD SWAP2 PUSH2 0x757 JUMP JUMPDEST DUP3 ADD SWAP2 SWAP1 PUSH0 MSTORE PUSH1 0x20 PUSH0 KECCAK256 SWAP1 JUMPDEST DUP2 SLOAD DUP2 MSTORE SWAP1 PUSH1 0x1 ADD SWAP1 PUSH1 0x20 ADD DUP1 DUP4 GT PUSH2 0x73A JUMPI DUP3 SWAP1 SUB PUSH1 0x1F AND DUP3 ADD SWAP2 JUMPDEST POP POP POP POP POP DUP2 MSTORE PUSH1 0x20 ADD PUSH1 0x2 DUP3 ADD PUSH0 SWAP1 SLOAD SWAP1 PUSH2 0x100 EXP SWAP1 DIV PUSH20 0xFFFFFFFFFFFFFFFFFFFFFFFFFFFFFFFFFFFFFFFF AND PUSH20 0xFFFFFFFFFFFFFFFFFFFFFFFFFFFFFFFFFFFFFFFF AND PUSH20 0xFFFFFFFFFFFFFFFFFFFFFFFFFFFFFFFFFFFFFFFF AND DUP2 MSTORE PUSH1 0x20 ADD PUSH1 0x3 DUP3 ADD DUP1 SLOAD PUSH2 0x7C5 SWAP1 PUSH2 0x1CDC JUMP JUMPDEST DUP1 PUSH1 0x1F ADD PUSH1 0x20 DUP1 SWAP2 DIV MUL PUSH1 0x20 ADD PUSH1 0x40 MLOAD SWAP1 DUP2 ADD PUSH1 0x40 MSTORE DUP1 SWAP3 SWAP2 SWAP1 DUP2 DUP2 MSTORE PUSH1 0x20 ADD DUP3 DUP1 SLOAD PUSH2 0x7F1 SWAP1 PUSH2 0x1CDC JUMP JUMPDEST DUP1 ISZERO PUSH2 0x83C JUMPI DUP1 PUSH1 0x1F LT PUSH2 0x813 JUMPI PUSH2 0x100 DUP1 DUP4 SLOAD DIV MUL DUP4 MSTORE SWAP2 PUSH1 0x20 ADD SWAP2 PUSH2 0x83C JUMP JUMPDEST DUP3 ADD SWAP2 SWAP1 PUSH0 MSTORE PUSH1 0x20 PUSH0 KECCAK256 SWAP1 JUMPDEST DUP2 SLOAD DUP2 MSTORE SWAP1 PUSH1 0x1 ADD SWAP1 PUSH1 0x20 ADD DUP1 DUP4 GT PUSH2 0x81F JUMPI DUP3 SWAP1 SUB PUSH1 0x1F AND DUP3 ADD SWAP2 JUMPDEST POP POP POP POP POP DUP2 MSTORE PUSH1 0x20 ADD PUSH1 0x4 DUP3 ADD SLOAD DUP2 MSTORE PUSH1 0x20 ADD PUSH1 0x5 DUP3 ADD DUP1 SLOAD PUSH2 0x85F SWAP1 PUSH2 0x1CDC JUMP JUMPDEST DUP1 PUSH1 0x1F ADD PUSH1 0x20 DUP1 SWAP2 DIV MUL PUSH1 0x20 ADD PUSH1 0x40 MLOAD SWAP1 DUP2 ADD PUSH1 0x40 MSTORE DUP1 SWAP3 SWAP2 SWAP1 DUP2 DUP2 MSTORE PUSH1 0x20 ADD DUP3 DUP1 SLOAD PUSH2 0x88B SWAP1 PUSH2 0x1CDC JUMP JUMPDEST DUP1 ISZERO PUSH2 0x8D6 JUMPI DUP1 PUSH1 0x1F LT PUSH2 0x8AD JUMPI PUSH2 0x100 DUP1 DUP4 SLOAD DIV MUL DUP4 MSTORE SWAP2 PUSH1 0x20 ADD SWAP2 PUSH2 0x8D6 JUMP JUMPDEST DUP3 ADD SWAP2 SWAP1 PUSH0 MSTORE PUSH1 0x20 PUSH0 KECCAK256 SWAP1 JUMPDEST DUP2 SLOAD DUP2 MSTORE SWAP1 PUSH1 0x1 ADD SWAP1 PUSH1 0x20 ADD DUP1 DUP4 GT PUSH2 0x8B9 JUMPI DUP3 SWAP1 SUB PUSH1 0x1F AND DUP3 ADD SWAP2 JUMPDEST POP POP POP POP POP DUP2 MSTORE POP POP SWAP1 POP PUSH0 PUSH20 0xFFFFFFFFFFFFFFFFFFFFFFFFFFFFFFFFFFFFFFFF AND DUP2 PUSH0 ADD MLOAD PUSH20 0xFFFFFFFFFFFFFFFFFFFFFFFFFFFFFFFFFFFFFFFF AND SUB PUSH2 0x949 JUMPI PUSH1 0x40 MLOAD PUSH32 0x57E25A0900000000000000000000000000000000000000000000000000000000 DUP2 MSTORE PUSH1 0x4 ADD PUSH1 0x40 MLOAD DUP1 SWAP2 SUB SWAP1 REVERT JUMPDEST DUP1 SWAP2 POP POP SWAP2 SWAP1 POP JUMP JUMPDEST PUSH0 PUSH1 0x4 PUSH0 CALLER PUSH20 0xFFFFFFFFFFFFFFFFFFFFFFFFFFFFFFFFFFFFFFFF AND PUSH20 0xFFFFFFFFFFFFFFFFFFFFFFFFFFFFFFFFFFFFFFFF AND DUP2 MSTORE PUSH1 0x20 ADD SWAP1 DUP2 MSTORE PUSH1 0x20 ADD PUSH0 KECCAK256 SLOAD SUB PUSH2 0x9C8 JUMPI PUSH1 0x40 MLOAD PUSH32 0x356680B700000000000000000000000000000000000000000000000000000000 DUP2 MSTORE PUSH1 0x4 ADD PUSH1 0x40 MLOAD DUP1 SWAP2 SUB SWAP1 REVERT JUMPDEST CALLER PUSH20 0xFFFFFFFFFFFFFFFFFFFFFFFFFFFFFFFFFFFFFFFF AND PUSH2 0x8FC PUSH1 0x4 PUSH0 CALLER PUSH20 0xFFFFFFFFFFFFFFFFFFFFFFFFFFFFFFFFFFFFFFFF AND PUSH20 0xFFFFFFFFFFFFFFFFFFFFFFFFFFFFFFFFFFFFFFFF AND DUP2 MSTORE PUSH1 0x20 ADD SWAP1 DUP2 MSTORE PUSH1 0x20 ADD PUSH0 KECCAK256 SLOAD SWAP1 DUP2 ISZERO MUL SWAP1 PUSH1 0x40 MLOAD PUSH0 PUSH1 0x40 MLOAD DUP1 DUP4 SUB DUP2 DUP6 DUP9 DUP9 CALL SWAP4 POP POP POP POP ISZERO DUP1 ISZERO PUSH2 0xA48 JUMPI RETURNDATASIZE PUSH0 DUP1 RETURNDATACOPY RETURNDATASIZE PUSH0 REVERT JUMPDEST POP PUSH0 PUSH1 0x4 PUSH0 CALLER PUSH20 0xFFFFFFFFFFFFFFFFFFFFFFFFFFFFFFFFFFFFFFFF AND PUSH20 0xFFFFFFFFFFFFFFFFFFFFFFFFFFFFFFFFFFFFFFFF AND DUP2 MSTORE PUSH1 0x20 ADD SWAP1 DUP2 MSTORE PUSH1 0x20 ADD PUSH0 KECCAK256 DUP2 SWAP1 SSTORE POP CALLER PUSH20 0xFFFFFFFFFFFFFFFFFFFFFFFFFFFFFFFFFFFFFFFF AND PUSH32 0xC43456380866B66F35F174AB56EFABBEB1145C4BBF6FE8047C2590E378346EF7 PUSH1 0x40 MLOAD PUSH1 0x40 MLOAD DUP1 SWAP2 SUB SWAP1 LOG2 JUMP JUMPDEST PUSH1 0x60 PUSH0 PUSH1 0x3 DUP1 SLOAD SWAP1 POP PUSH8 0xFFFFFFFFFFFFFFFF DUP2 GT ISZERO PUSH2 0xAF2 JUMPI PUSH2 0xAF1 PUSH2 0x14B6 JUMP JUMPDEST JUMPDEST PUSH1 0x40 MLOAD SWAP1 DUP1 DUP3 MSTORE DUP1 PUSH1 0x20 MUL PUSH1 0x20 ADD DUP3 ADD PUSH1 0x40 MSTORE DUP1 ISZERO PUSH2 0xB2B JUMPI DUP2 PUSH1 0x20 ADD JUMPDEST PUSH2 0xB18 PUSH2 0x142E JUMP JUMPDEST DUP2 MSTORE PUSH1 0x20 ADD SWAP1 PUSH1 0x1 SWAP1 SUB SWAP1 DUP2 PUSH2 0xB10 JUMPI SWAP1 POP JUMPDEST POP SWAP1 POP PUSH0 JUMPDEST PUSH1 0x3 DUP1 SLOAD SWAP1 POP DUP2 LT ISZERO PUSH2 0xE0F JUMPI PUSH1 0x2 PUSH1 0x3 DUP3 DUP2 SLOAD DUP2 LT PUSH2 0xB53 JUMPI PUSH2 0xB52 PUSH2 0x2017 JUMP JUMPDEST JUMPDEST SWAP1 PUSH0 MSTORE PUSH1 0x20 PUSH0 KECCAK256 ADD PUSH1 0x40 MLOAD PUSH2 0xB68 SWAP2 SWAP1 PUSH2 0x20C4 JUMP JUMPDEST SWAP1 DUP2 MSTORE PUSH1 0x20 ADD PUSH1 0x40 MLOAD DUP1 SWAP2 SUB SWAP1 KECCAK256 PUSH1 0x40 MLOAD DUP1 PUSH1 0xC0 ADD PUSH1 0x40 MSTORE SWAP1 DUP2 PUSH0 DUP3 ADD PUSH0 SWAP1 SLOAD SWAP1 PUSH2 0x100 EXP SWAP1 DIV PUSH20 0xFFFFFFFFFFFFFFFFFFFFFFFFFFFFFFFFFFFFFFFF AND PUSH20 0xFFFFFFFFFFFFFFFFFFFFFFFFFFFFFFFFFFFFFFFF AND PUSH20 0xFFFFFFFFFFFFFFFFFFFFFFFFFFFFFFFFFFFFFFFF AND DUP2 MSTORE PUSH1 0x20 ADD PUSH1 0x1 DUP3 ADD DUP1 SLOAD PUSH2 0xBE5 SWAP1 PUSH2 0x1CDC JUMP JUMPDEST DUP1 PUSH1 0x1F ADD PUSH1 0x20 DUP1 SWAP2 DIV MUL PUSH1 0x20 ADD PUSH1 0x40 MLOAD SWAP1 DUP2 ADD PUSH1 0x40 MSTORE DUP1 SWAP3 SWAP2 SWAP1 DUP2 DUP2 MSTORE PUSH1 0x20 ADD DUP3 DUP1 SLOAD PUSH2 0xC11 SWAP1 PUSH2 0x1CDC JUMP JUMPDEST DUP1 ISZERO PUSH2 0xC5C JUMPI DUP1 PUSH1 0x1F LT PUSH2 0xC33 JUMPI PUSH2 0x100 DUP1 DUP4 SLOAD DIV MUL DUP4 MSTORE SWAP2 PUSH1 0x20 ADD SWAP2 PUSH2 0xC5C JUMP JUMPDEST DUP3 ADD SWAP2 SWAP1 PUSH0 MSTORE PUSH1 0x20 PUSH0 KECCAK256 SWAP1 JUMPDEST DUP2 SLOAD DUP2 MSTORE SWAP1 PUSH1 0x1 ADD SWAP1 PUSH1 0x20 ADD DUP1 DUP4 GT PUSH2 0xC3F JUMPI DUP3 SWAP1 SUB PUSH1 0x1F AND DUP3 ADD SWAP2 JUMPDEST POP POP POP POP POP DUP2 MSTORE PUSH1 0x20 ADD PUSH1 0x2 DUP3 ADD PUSH0 SWAP1 SLOAD SWAP1 PUSH2 0x100 EXP SWAP1 DIV PUSH20 0xFFFFFFFFFFFFFFFFFFFFFFFFFFFFFFFFFFFFFFFF AND PUSH20 0xFFFFFFFFFFFFFFFFFFFFFFFFFFFFFFFFFFFFFFFF AND PUSH20 0xFFFFFFFFFFFFFFFFFFFFFFFFFFFFFFFFFFFFFFFF AND DUP2 MSTORE PUSH1 0x20 ADD PUSH1 0x3 DUP3 ADD DUP1 SLOAD PUSH2 0xCCA SWAP1 PUSH2 0x1CDC JUMP JUMPDEST DUP1 PUSH1 0x1F ADD PUSH1 0x20 DUP1 SWAP2 DIV MUL PUSH1 0x20 ADD PUSH1 0x40 MLOAD SWAP1 DUP2 ADD PUSH1 0x40 MSTORE DUP1 SWAP3 SWAP2 SWAP1 DUP2 DUP2 MSTORE PUSH1 0x20 ADD DUP3 DUP1 SLOAD PUSH2 0xCF6 SWAP1 PUSH2 0x1CDC JUMP JUMPDEST DUP1 ISZERO PUSH2 0xD41 JUMPI DUP1 PUSH1 0x1F LT PUSH2 0xD18 JUMPI PUSH2 0x100 DUP1 DUP4 SLOAD DIV MUL DUP4 MSTORE SWAP2 PUSH1 0x20 ADD SWAP2 PUSH2 0xD41 JUMP JUMPDEST DUP3 ADD SWAP2 SWAP1 PUSH0 MSTORE PUSH1 0x20 PUSH0 KECCAK256 SWAP1 JUMPDEST DUP2 SLOAD DUP2 MSTORE SWAP1 PUSH1 0x1 ADD SWAP1 PUSH1 0x20 ADD DUP1 DUP4 GT PUSH2 0xD24 JUMPI DUP3 SWAP1 SUB PUSH1 0x1F AND DUP3 ADD SWAP2 JUMPDEST POP POP POP POP POP DUP2 MSTORE PUSH1 0x20 ADD PUSH1 0x4 DUP3 ADD SLOAD DUP2 MSTORE PUSH1 0x20 ADD PUSH1 0x5 DUP3 ADD DUP1 SLOAD PUSH2 0xD64 SWAP1 PUSH2 0x1CDC JUMP JUMPDEST DUP1 PUSH1 0x1F ADD PUSH1 0x20 DUP1 SWAP2 DIV MUL PUSH1 0x20 ADD PUSH1 0x40 MLOAD SWAP1 DUP2 ADD PUSH1 0x40 MSTORE DUP1 SWAP3 SWAP2 SWAP1 DUP2 DUP2 MSTORE PUSH1 0x20 ADD DUP3 DUP1 SLOAD PUSH2 0xD90 SWAP1 PUSH2 0x1CDC JUMP JUMPDEST DUP1 ISZERO PUSH2 0xDDB JUMPI DUP1 PUSH1 0x1F LT PUSH2 0xDB2 JUMPI PUSH2 0x100 DUP1 DUP4 SLOAD DIV MUL DUP4 MSTORE SWAP2 PUSH1 0x20 ADD SWAP2 PUSH2 0xDDB JUMP JUMPDEST DUP3 ADD SWAP2 SWAP1 PUSH0 MSTORE PUSH1 0x20 PUSH0 KECCAK256 SWAP1 JUMPDEST DUP2 SLOAD DUP2 MSTORE SWAP1 PUSH1 0x1 ADD SWAP1 PUSH1 0x20 ADD DUP1 DUP4 GT PUSH2 0xDBE JUMPI DUP3 SWAP1 SUB PUSH1 0x1F AND DUP3 ADD SWAP2 JUMPDEST POP POP POP POP POP DUP2 MSTORE POP POP DUP3 DUP3 DUP2 MLOAD DUP2 LT PUSH2 0xDF7 JUMPI PUSH2 0xDF6 PUSH2 0x2017 JUMP JUMPDEST JUMPDEST PUSH1 0x20 MUL PUSH1 0x20 ADD ADD DUP2 SWAP1 MSTORE POP DUP1 DUP1 PUSH1 0x1 ADD SWAP2 POP POP PUSH2 0xB30 JUMP JUMPDEST POP DUP1 SWAP2 POP POP SWAP1 JUMP JUMPDEST PUSH0 PUSH1 0x3 DUP1 SLOAD SWAP1 POP SWAP1 POP SWAP1 JUMP JUMPDEST PUSH0 PUSH1 0x2 DUP3 PUSH1 0x40 MLOAD PUSH2 0xE34 SWAP2 SWAP1 PUSH2 0x1BDF JUMP JUMPDEST SWAP1 DUP2 MSTORE PUSH1 0x20 ADD PUSH1 0x40 MLOAD DUP1 SWAP2 SUB SWAP1 KECCAK256 PUSH1 0x40 MLOAD DUP1 PUSH1 0xC0 ADD PUSH1 0x40 MSTORE SWAP1 DUP2 PUSH0 DUP3 ADD PUSH0 SWAP1 SLOAD SWAP1 PUSH2 0x100 EXP SWAP1 DIV PUSH20 0xFFFFFFFFFFFFFFFFFFFFFFFFFFFFFFFFFFFFFFFF AND PUSH20 0xFFFFFFFFFFFFFFFFFFFFFFFFFFFFFFFFFFFFFFFF AND PUSH20 0xFFFFFFFFFFFFFFFFFFFFFFFFFFFFFFFFFFFFFFFF AND DUP2 MSTORE PUSH1 0x20 ADD PUSH1 0x1 DUP3 ADD DUP1 SLOAD PUSH2 0xEB1 SWAP1 PUSH2 0x1CDC JUMP JUMPDEST DUP1 PUSH1 0x1F ADD PUSH1 0x20 DUP1 SWAP2 DIV MUL PUSH1 0x20 ADD PUSH1 0x40 MLOAD SWAP1 DUP2 ADD PUSH1 0x40 MSTORE DUP1 SWAP3 SWAP2 SWAP1 DUP2 DUP2 MSTORE PUSH1 0x20 ADD DUP3 DUP1 SLOAD PUSH2 0xEDD SWAP1 PUSH2 0x1CDC JUMP JUMPDEST DUP1 ISZERO PUSH2 0xF28 JUMPI DUP1 PUSH1 0x1F LT PUSH2 0xEFF JUMPI PUSH2 0x100 DUP1 DUP4 SLOAD DIV MUL DUP4 MSTORE SWAP2 PUSH1 0x20 ADD SWAP2 PUSH2 0xF28 JUMP JUMPDEST DUP3 ADD SWAP2 SWAP1 PUSH0 MSTORE PUSH1 0x20 PUSH0 KECCAK256 SWAP1 JUMPDEST DUP2 SLOAD DUP2 MSTORE SWAP1 PUSH1 0x1 ADD SWAP1 PUSH1 0x20 ADD DUP1 DUP4 GT PUSH2 0xF0B JUMPI DUP3 SWAP1 SUB PUSH1 0x1F AND DUP3 ADD SWAP2 JUMPDEST POP POP POP POP POP DUP2 MSTORE PUSH1 0x20 ADD PUSH1 0x2 DUP3 ADD PUSH0 SWAP1 SLOAD SWAP1 PUSH2 0x100 EXP SWAP1 DIV PUSH20 0xFFFFFFFFFFFFFFFFFFFFFFFFFFFFFFFFFFFFFFFF AND PUSH20 0xFFFFFFFFFFFFFFFFFFFFFFFFFFFFFFFFFFFFFFFF AND PUSH20 0xFFFFFFFFFFFFFFFFFFFFFFFFFFFFFFFFFFFFFFFF AND DUP2 MSTORE PUSH1 0x20 ADD PUSH1 0x3 DUP3 ADD DUP1 SLOAD PUSH2 0xF96 SWAP1 PUSH2 0x1CDC JUMP JUMPDEST DUP1 PUSH1 0x1F ADD PUSH1 0x20 DUP1 SWAP2 DIV MUL PUSH1 0x20 ADD PUSH1 0x40 MLOAD SWAP1 DUP2 ADD PUSH1 0x40 MSTORE DUP1 SWAP3 SWAP2 SWAP1 DUP2 DUP2 MSTORE PUSH1 0x20 ADD DUP3 DUP1 SLOAD PUSH2 0xFC2 SWAP1 PUSH2 0x1CDC JUMP JUMPDEST DUP1 ISZERO PUSH2 0x100D JUMPI DUP1 PUSH1 0x1F LT PUSH2 0xFE4 JUMPI PUSH2 0x100 DUP1 DUP4 SLOAD DIV MUL DUP4 MSTORE SWAP2 PUSH1 0x20 ADD SWAP2 PUSH2 0x100D JUMP JUMPDEST DUP3 ADD SWAP2 SWAP1 PUSH0 MSTORE PUSH1 0x20 PUSH0 KECCAK256 SWAP1 JUMPDEST DUP2 SLOAD DUP2 MSTORE SWAP1 PUSH1 0x1 ADD SWAP1 PUSH1 0x20 ADD DUP1 DUP4 GT PUSH2 0xFF0 JUMPI DUP3 SWAP1 SUB PUSH1 0x1F AND DUP3 ADD SWAP2 JUMPDEST POP POP POP POP POP DUP2 MSTORE PUSH1 0x20 ADD PUSH1 0x4 DUP3 ADD SLOAD DUP2 MSTORE PUSH1 0x20 ADD PUSH1 0x5 DUP3 ADD DUP1 SLOAD PUSH2 0x1030 SWAP1 PUSH2 0x1CDC JUMP JUMPDEST DUP1 PUSH1 0x1F ADD PUSH1 0x20 DUP1 SWAP2 DIV MUL PUSH1 0x20 ADD PUSH1 0x40 MLOAD SWAP1 DUP2 ADD PUSH1 0x40 MSTORE DUP1 SWAP3 SWAP2 SWAP1 DUP2 DUP2 MSTORE PUSH1 0x20 ADD DUP3 DUP1 SLOAD PUSH2 0x105C SWAP1 PUSH2 0x1CDC JUMP JUMPDEST DUP1 ISZERO PUSH2 0x10A7 JUMPI DUP1 PUSH1 0x1F LT PUSH2 0x107E JUMPI PUSH2 0x100 DUP1 DUP4 SLOAD DIV MUL DUP4 MSTORE SWAP2 PUSH1 0x20 ADD SWAP2 PUSH2 0x10A7 JUMP JUMPDEST DUP3 ADD SWAP2 SWAP1 PUSH0 MSTORE PUSH1 0x20 PUSH0 KECCAK256 SWAP1 JUMPDEST DUP2 SLOAD DUP2 MSTORE SWAP1 PUSH1 0x1 ADD SWAP1 PUSH1 0x20 ADD DUP1 DUP4 GT PUSH2 0x108A JUMPI DUP3 SWAP1 SUB PUSH1 0x1F AND DUP3 ADD SWAP2 JUMPDEST POP POP POP POP POP DUP2 MSTORE POP POP SWAP1 POP PUSH0 PUSH20 0xFFFFFFFFFFFFFFFFFFFFFFFFFFFFFFFFFFFFFFFF AND DUP2 PUSH0 ADD MLOAD PUSH20 0xFFFFFFFFFFFFFFFFFFFFFFFFFFFFFFFFFFFFFFFF AND SUB PUSH2 0x111A JUMPI PUSH1 0x40 MLOAD PUSH32 0x57E25A0900000000000000000000000000000000000000000000000000000000 DUP2 MSTORE PUSH1 0x4 ADD PUSH1 0x40 MLOAD DUP1 SWAP2 SUB SWAP1 REVERT JUMPDEST DUP1 PUSH1 0x80 ADD MLOAD CALLVALUE LT ISZERO PUSH2 0x1158 JUMPI PUSH1 0x40 MLOAD PUSH32 0x356680B700000000000000000000000000000000000000000000000000000000 DUP2 MSTORE PUSH1 0x4 ADD PUSH1 0x40 MLOAD DUP1 SWAP2 SUB SWAP1 REVERT JUMPDEST DUP1 PUSH1 0x80 ADD MLOAD PUSH1 0x4 PUSH0 DUP4 PUSH0 ADD MLOAD PUSH20 0xFFFFFFFFFFFFFFFFFFFFFFFFFFFFFFFFFFFFFFFF AND PUSH20 0xFFFFFFFFFFFFFFFFFFFFFFFFFFFFFFFFFFFFFFFF AND DUP2 MSTORE PUSH1 0x20 ADD SWAP1 DUP2 MSTORE PUSH1 0x20 ADD PUSH0 KECCAK256 PUSH0 DUP3 DUP3 SLOAD PUSH2 0x11AB SWAP2 SWAP1 PUSH2 0x20DA JUMP JUMPDEST SWAP3 POP POP DUP2 SWAP1 SSTORE POP PUSH0 DUP2 PUSH1 0x40 ADD MLOAD SWAP1 POP DUP1 PUSH20 0xFFFFFFFFFFFFFFFFFFFFFFFFFFFFFFFFFFFFFFFF AND PUSH4 0x6A627842 CALLER PUSH1 0x40 MLOAD DUP3 PUSH4 0xFFFFFFFF AND PUSH1 0xE0 SHL DUP2 MSTORE PUSH1 0x4 ADD PUSH2 0x11F3 SWAP2 SWAP1 PUSH2 0x1C96 JUMP JUMPDEST PUSH0 PUSH1 0x40 MLOAD DUP1 DUP4 SUB DUP2 PUSH0 DUP8 DUP1 EXTCODESIZE ISZERO DUP1 ISZERO PUSH2 0x120A JUMPI PUSH0 DUP1 REVERT JUMPDEST POP GAS CALL ISZERO DUP1 ISZERO PUSH2 0x121C JUMPI RETURNDATASIZE PUSH0 DUP1 RETURNDATACOPY RETURNDATASIZE PUSH0 REVERT JUMPDEST POP POP POP POP CALLER PUSH20 0xFFFFFFFFFFFFFFFFFFFFFFFFFFFFFFFFFFFFFFFF AND DUP4 PUSH1 0x40 MLOAD PUSH2 0x1245 SWAP2 SWAP1 PUSH2 0x1BDF JUMP JUMPDEST PUSH1 0x40 MLOAD DUP1 SWAP2 SUB SWAP1 KECCAK256 PUSH32 0xBE5BACC9CCF0E6B2195FB4EEF26C0562A005DCDD2C5D064FD26D76DE3849920F PUSH1 0x40 MLOAD PUSH1 0x40 MLOAD DUP1 SWAP2 SUB SWAP1 LOG3 POP POP POP JUMP JUMPDEST PUSH0 DUP1 PUSH2 0x1289 DUP4 PUSH2 0x13BE JUMP JUMPDEST SWAP1 POP PUSH0 PUSH1 0x2 DUP3 PUSH1 0x40 MLOAD PUSH2 0x129C SWAP2 SWAP1 PUSH2 0x1BDF JUMP JUMPDEST SWAP1 DUP2 MSTORE PUSH1 0x20 ADD PUSH1 0x40 MLOAD DUP1 SWAP2 SUB SWAP1 KECCAK256 PUSH1 0x2 ADD PUSH0 SWAP1 SLOAD SWAP1 PUSH2 0x100 EXP SWAP1 DIV PUSH20 0xFFFFFFFFFFFFFFFFFFFFFFFFFFFFFFFFFFFFFFFF AND SWAP1 POP PUSH0 PUSH20 0xFFFFFFFFFFFFFFFFFFFFFFFFFFFFFFFFFFFFFFFF AND DUP2 PUSH20 0xFFFFFFFFFFFFFFFFFFFFFFFFFFFFFFFFFFFFFFFF AND SUB PUSH2 0x1334 JUMPI PUSH1 0x40 MLOAD PUSH32 0x57E25A0900000000000000000000000000000000000000000000000000000000 DUP2 MSTORE PUSH1 0x4 ADD PUSH1 0x40 MLOAD DUP1 SWAP2 SUB SWAP1 REVERT JUMPDEST PUSH0 DUP2 SWAP1 POP PUSH1 0x1 DUP2 PUSH20 0xFFFFFFFFFFFFFFFFFFFFFFFFFFFFFFFFFFFFFFFF AND PUSH4 0x70A08231 CALLER PUSH1 0x40 MLOAD DUP3 PUSH4 0xFFFFFFFF AND PUSH1 0xE0 SHL DUP2 MSTORE PUSH1 0x4 ADD PUSH2 0x1373 SWAP2 SWAP1 PUSH2 0x1C96 JUMP JUMPDEST PUSH1 0x20 PUSH1 0x40 MLOAD DUP1 DUP4 SUB DUP2 DUP7 GAS STATICCALL ISZERO DUP1 ISZERO PUSH2 0x138E JUMPI RETURNDATASIZE PUSH0 DUP1 RETURNDATACOPY RETURNDATASIZE PUSH0 REVERT JUMPDEST POP POP POP POP PUSH1 0x40 MLOAD RETURNDATASIZE PUSH1 0x1F NOT PUSH1 0x1F DUP3 ADD AND DUP3 ADD DUP1 PUSH1 0x40 MSTORE POP DUP2 ADD SWAP1 PUSH2 0x13B2 SWAP2 SWAP1 PUSH2 0x1FEC JUMP JUMPDEST LT ISZERO SWAP4 POP POP POP POP SWAP2 SWAP1 POP JUMP JUMPDEST PUSH1 0x60 DUP1 PUSH0 JUMPDEST DUP4 MLOAD DUP2 LT ISZERO PUSH2 0x1417 JUMPI DUP2 DUP5 DUP3 DUP2 MLOAD DUP2 LT PUSH2 0x13E0 JUMPI PUSH2 0x13DF PUSH2 0x2017 JUMP JUMPDEST JUMPDEST PUSH1 0x20 MUL PUSH1 0x20 ADD ADD MLOAD PUSH1 0x40 MLOAD PUSH1 0x20 ADD PUSH2 0x13F9 SWAP3 SWAP2 SWAP1 PUSH2 0x2171 JUMP JUMPDEST PUSH1 0x40 MLOAD PUSH1 0x20 DUP2 DUP4 SUB SUB DUP2 MSTORE SWAP1 PUSH1 0x40 MSTORE SWAP2 POP DUP1 DUP1 PUSH1 0x1 ADD SWAP2 POP POP PUSH2 0x13C3 JUMP JUMPDEST POP DUP1 SWAP2 POP POP SWAP2 SWAP1 POP JUMP JUMPDEST PUSH2 0x29E0 DUP1 PUSH2 0x2199 DUP4 CODECOPY ADD SWAP1 JUMP JUMPDEST PUSH1 0x40 MLOAD DUP1 PUSH1 0xC0 ADD PUSH1 0x40 MSTORE DUP1 PUSH0 PUSH20 0xFFFFFFFFFFFFFFFFFFFFFFFFFFFFFFFFFFFFFFFF AND DUP2 MSTORE PUSH1 0x20 ADD PUSH1 0x60 DUP2 MSTORE PUSH1 0x20 ADD PUSH0 PUSH20 0xFFFFFFFFFFFFFFFFFFFFFFFFFFFFFFFFFFFFFFFF AND DUP2 MSTORE PUSH1 0x20 ADD PUSH1 0x60 DUP2 MSTORE PUSH1 0x20 ADD PUSH0 DUP2 MSTORE PUSH1 0x20 ADD PUSH1 0x60 DUP2 MSTORE POP SWAP1 JUMP JUMPDEST PUSH0 PUSH1 0x40 MLOAD SWAP1 POP SWAP1 JUMP JUMPDEST PUSH0 DUP1 REVERT JUMPDEST PUSH0 DUP1 REVERT JUMPDEST PUSH0 DUP1 REVERT JUMPDEST PUSH0 DUP1 REVERT JUMPDEST PUSH0 PUSH1 0x1F NOT PUSH1 0x1F DUP4 ADD AND SWAP1 POP SWAP2 SWAP1 POP JUMP JUMPDEST PUSH32 0x4E487B7100000000000000000000000000000000000000000000000000000000 PUSH0 MSTORE PUSH1 0x41 PUSH1 0x4 MSTORE PUSH1 0x24 PUSH0 REVERT JUMPDEST PUSH2 0x14EC DUP3 PUSH2 0x14A6 JUMP JUMPDEST DUP2 ADD DUP2 DUP2 LT PUSH8 0xFFFFFFFFFFFFFFFF DUP3 GT OR ISZERO PUSH2 0x150B JUMPI PUSH2 0x150A PUSH2 0x14B6 JUMP JUMPDEST JUMPDEST DUP1 PUSH1 0x40 MSTORE POP POP POP JUMP JUMPDEST PUSH0 PUSH2 0x151D PUSH2 0x148D JUMP JUMPDEST SWAP1 POP PUSH2 0x1529 DUP3 DUP3 PUSH2 0x14E3 JUMP JUMPDEST SWAP2 SWAP1 POP JUMP JUMPDEST PUSH0 PUSH8 0xFFFFFFFFFFFFFFFF DUP3 GT ISZERO PUSH2 0x1548 JUMPI PUSH2 0x1547 PUSH2 0x14B6 JUMP JUMPDEST JUMPDEST PUSH2 0x1551 DUP3 PUSH2 0x14A6 JUMP JUMPDEST SWAP1 POP PUSH1 0x20 DUP2 ADD SWAP1 POP SWAP2 SWAP1 POP JUMP JUMPDEST DUP3 DUP2 DUP4 CALLDATACOPY PUSH0 DUP4 DUP4 ADD MSTORE POP POP POP JUMP JUMPDEST PUSH0 PUSH2 0x157E PUSH2 0x1579 DUP5 PUSH2 0x152E JUMP JUMPDEST PUSH2 0x1514 JUMP JUMPDEST SWAP1 POP DUP3 DUP2 MSTORE PUSH1 0x20 DUP2 ADD DUP5 DUP5 DUP5 ADD GT ISZERO PUSH2 0x159A JUMPI PUSH2 0x1599 PUSH2 0x14A2 JUMP JUMPDEST JUMPDEST PUSH2 0x15A5 DUP5 DUP3 DUP6 PUSH2 0x155E JUMP JUMPDEST POP SWAP4 SWAP3 POP POP POP JUMP JUMPDEST PUSH0 DUP3 PUSH1 0x1F DUP4 ADD SLT PUSH2 0x15C1 JUMPI PUSH2 0x15C0 PUSH2 0x149E JUMP JUMPDEST JUMPDEST DUP2 CALLDATALOAD PUSH2 0x15D1 DUP5 DUP3 PUSH1 0x20 DUP7 ADD PUSH2 0x156C JUMP JUMPDEST SWAP2 POP POP SWAP3 SWAP2 POP POP JUMP JUMPDEST PUSH0 DUP2 SWAP1 POP SWAP2 SWAP1 POP JUMP JUMPDEST PUSH2 0x15EC DUP2 PUSH2 0x15DA JUMP JUMPDEST DUP2 EQ PUSH2 0x15F6 JUMPI PUSH0 DUP1 REVERT JUMPDEST POP JUMP JUMPDEST PUSH0 DUP2 CALLDATALOAD SWAP1 POP PUSH2 0x1607 DUP2 PUSH2 0x15E3 JUMP JUMPDEST SWAP3 SWAP2 POP POP JUMP JUMPDEST PUSH0 DUP1 PUSH0 DUP1 PUSH0 PUSH1 0xA0 DUP7 DUP9 SUB SLT ISZERO PUSH2 0x1626 JUMPI PUSH2 0x1625 PUSH2 0x1496 JUMP JUMPDEST JUMPDEST PUSH0 DUP7 ADD CALLDATALOAD PUSH8 0xFFFFFFFFFFFFFFFF DUP2 GT ISZERO PUSH2 0x1643 JUMPI PUSH2 0x1642 PUSH2 0x149A JUMP JUMPDEST JUMPDEST PUSH2 0x164F DUP9 DUP3 DUP10 ADD PUSH2 0x15AD JUMP JUMPDEST SWAP6 POP POP PUSH1 0x20 DUP7 ADD CALLDATALOAD PUSH8 0xFFFFFFFFFFFFFFFF DUP2 GT ISZERO PUSH2 0x1670 JUMPI PUSH2 0x166F PUSH2 0x149A JUMP JUMPDEST JUMPDEST PUSH2 0x167C DUP9 DUP3 DUP10 ADD PUSH2 0x15AD JUMP JUMPDEST SWAP5 POP POP PUSH1 0x40 DUP7 ADD CALLDATALOAD PUSH8 0xFFFFFFFFFFFFFFFF DUP2 GT ISZERO PUSH2 0x169D JUMPI PUSH2 0x169C PUSH2 0x149A JUMP JUMPDEST JUMPDEST PUSH2 0x16A9 DUP9 DUP3 DUP10 ADD PUSH2 0x15AD JUMP JUMPDEST SWAP4 POP POP PUSH1 0x60 PUSH2 0x16BA DUP9 DUP3 DUP10 ADD PUSH2 0x15F9 JUMP JUMPDEST SWAP3 POP POP PUSH1 0x80 DUP7 ADD CALLDATALOAD PUSH8 0xFFFFFFFFFFFFFFFF DUP2 GT ISZERO PUSH2 0x16DB JUMPI PUSH2 0x16DA PUSH2 0x149A JUMP JUMPDEST JUMPDEST PUSH2 0x16E7 DUP9 DUP3 DUP10 ADD PUSH2 0x15AD JUMP JUMPDEST SWAP2 POP POP SWAP3 SWAP6 POP SWAP3 SWAP6 SWAP1 SWAP4 POP JUMP JUMPDEST PUSH0 PUSH1 0x20 DUP3 DUP5 SUB SLT ISZERO PUSH2 0x1709 JUMPI PUSH2 0x1708 PUSH2 0x1496 JUMP JUMPDEST JUMPDEST PUSH0 DUP3 ADD CALLDATALOAD PUSH8 0xFFFFFFFFFFFFFFFF DUP2 GT ISZERO PUSH2 0x1726 JUMPI PUSH2 0x1725 PUSH2 0x149A JUMP JUMPDEST JUMPDEST PUSH2 0x1732 DUP5 DUP3 DUP6 ADD PUSH2 0x15AD JUMP JUMPDEST SWAP2 POP POP SWAP3 SWAP2 POP POP JUMP JUMPDEST PUSH0 DUP2 ISZERO ISZERO SWAP1 POP SWAP2 SWAP1 POP JUMP JUMPDEST PUSH2 0x174F DUP2 PUSH2 0x173B JUMP JUMPDEST DUP3 MSTORE POP POP JUMP JUMPDEST PUSH0 PUSH1 0x20 DUP3 ADD SWAP1 POP PUSH2 0x1768 PUSH0 DUP4 ADD DUP5 PUSH2 0x1746 JUMP JUMPDEST SWAP3 SWAP2 POP POP JUMP JUMPDEST PUSH0 PUSH20 0xFFFFFFFFFFFFFFFFFFFFFFFFFFFFFFFFFFFFFFFF DUP3 AND SWAP1 POP SWAP2 SWAP1 POP JUMP JUMPDEST PUSH0 PUSH2 0x1797 DUP3 PUSH2 0x176E JUMP JUMPDEST SWAP1 POP SWAP2 SWAP1 POP JUMP JUMPDEST PUSH2 0x17A7 DUP2 PUSH2 0x178D JUMP JUMPDEST DUP3 MSTORE POP POP JUMP JUMPDEST PUSH0 DUP2 MLOAD SWAP1 POP SWAP2 SWAP1 POP JUMP JUMPDEST PUSH0 DUP3 DUP3 MSTORE PUSH1 0x20 DUP3 ADD SWAP1 POP SWAP3 SWAP2 POP POP JUMP JUMPDEST DUP3 DUP2 DUP4 MCOPY PUSH0 DUP4 DUP4 ADD MSTORE POP POP POP JUMP JUMPDEST PUSH0 PUSH2 0x17DF DUP3 PUSH2 0x17AD JUMP JUMPDEST PUSH2 0x17E9 DUP2 DUP6 PUSH2 0x17B7 JUMP JUMPDEST SWAP4 POP PUSH2 0x17F9 DUP2 DUP6 PUSH1 0x20 DUP7 ADD PUSH2 0x17C7 JUMP JUMPDEST PUSH2 0x1802 DUP2 PUSH2 0x14A6 JUMP JUMPDEST DUP5 ADD SWAP2 POP POP SWAP3 SWAP2 POP POP JUMP JUMPDEST PUSH2 0x1816 DUP2 PUSH2 0x15DA JUMP JUMPDEST DUP3 MSTORE POP POP JUMP JUMPDEST PUSH0 PUSH1 0xC0 DUP4 ADD PUSH0 DUP4 ADD MLOAD PUSH2 0x1831 PUSH0 DUP7 ADD DUP3 PUSH2 0x179E JUMP JUMPDEST POP PUSH1 0x20 DUP4 ADD MLOAD DUP5 DUP3 SUB PUSH1 0x20 DUP7 ADD MSTORE PUSH2 0x1849 DUP3 DUP3 PUSH2 0x17D5 JUMP JUMPDEST SWAP2 POP POP PUSH1 0x40 DUP4 ADD MLOAD PUSH2 0x185E PUSH1 0x40 DUP7 ADD DUP3 PUSH2 0x179E JUMP JUMPDEST POP PUSH1 0x60 DUP4 ADD MLOAD DUP5 DUP3 SUB PUSH1 0x60 DUP7 ADD MSTORE PUSH2 0x1876 DUP3 DUP3 PUSH2 0x17D5 JUMP JUMPDEST SWAP2 POP POP PUSH1 0x80 DUP4 ADD MLOAD PUSH2 0x188B PUSH1 0x80 DUP7 ADD DUP3 PUSH2 0x180D JUMP JUMPDEST POP PUSH1 0xA0 DUP4 ADD MLOAD DUP5 DUP3 SUB PUSH1 0xA0 DUP7 ADD MSTORE PUSH2 0x18A3 DUP3 DUP3 PUSH2 0x17D5 JUMP JUMPDEST SWAP2 POP POP DUP1 SWAP2 POP POP SWAP3 SWAP2 POP POP JUMP JUMPDEST PUSH0 PUSH1 0x20 DUP3 ADD SWAP1 POP DUP2 DUP2 SUB PUSH0 DUP4 ADD MSTORE PUSH2 0x18C8 DUP2 DUP5 PUSH2 0x181C JUMP JUMPDEST SWAP1 POP SWAP3 SWAP2 POP POP JUMP JUMPDEST PUSH0 DUP2 MLOAD SWAP1 POP SWAP2 SWAP1 POP JUMP JUMPDEST PUSH0 DUP3 DUP3 MSTORE PUSH1 0x20 DUP3 ADD SWAP1 POP SWAP3 SWAP2 POP POP JUMP JUMPDEST PUSH0 DUP2 SWAP1 POP PUSH1 0x20 DUP3 ADD SWAP1 POP SWAP2 SWAP1 POP JUMP JUMPDEST PUSH0 PUSH1 0xC0 DUP4 ADD PUSH0 DUP4 ADD MLOAD PUSH2 0x190E PUSH0 DUP7 ADD DUP3 PUSH2 0x179E JUMP JUMPDEST POP PUSH1 0x20 DUP4 ADD MLOAD DUP5 DUP3 SUB PUSH1 0x20 DUP7 ADD MSTORE PUSH2 0x1926 DUP3 DUP3 PUSH2 0x17D5 JUMP JUMPDEST SWAP2 POP POP PUSH1 0x40 DUP4 ADD MLOAD PUSH2 0x193B PUSH1 0x40 DUP7 ADD DUP3 PUSH2 0x179E JUMP JUMPDEST POP PUSH1 0x60 DUP4 ADD MLOAD DUP5 DUP3 SUB PUSH1 0x60 DUP7 ADD MSTORE PUSH2 0x1953 DUP3 DUP3 PUSH2 0x17D5 JUMP JUMPDEST SWAP2 POP POP PUSH1 0x80 DUP4 ADD MLOAD PUSH2 0x1968 PUSH1 0x80 DUP7 ADD DUP3 PUSH2 0x180D JUMP JUMPDEST POP PUSH1 0xA0 DUP4 ADD MLOAD DUP5 DUP3 SUB PUSH1 0xA0 DUP7 ADD MSTORE PUSH2 0x1980 DUP3 DUP3 PUSH2 0x17D5 JUMP JUMPDEST SWAP2 POP POP DUP1 SWAP2 POP POP SWAP3 SWAP2 POP POP JUMP JUMPDEST PUSH0 PUSH2 0x1998 DUP4 DUP4 PUSH2 0x18F9 JUMP JUMPDEST SWAP1 POP SWAP3 SWAP2 POP POP JUMP JUMPDEST PUSH0 PUSH1 0x20 DUP3 ADD SWAP1 POP SWAP2 SWAP1 POP JUMP JUMPDEST PUSH0 PUSH2 0x19B6 DUP3 PUSH2 0x18D0 JUMP JUMPDEST PUSH2 0x19C0 DUP2 DUP6 PUSH2 0x18DA JUMP JUMPDEST SWAP4 POP DUP4 PUSH1 0x20 DUP3 MUL DUP6 ADD PUSH2 0x19D2 DUP6 PUSH2 0x18EA JUMP JUMPDEST DUP1 PUSH0 JUMPDEST DUP6 DUP2 LT ISZERO PUSH2 0x1A0D JUMPI DUP5 DUP5 SUB DUP10 MSTORE DUP2 MLOAD PUSH2 0x19EE DUP6 DUP3 PUSH2 0x198D JUMP JUMPDEST SWAP5 POP PUSH2 0x19F9 DUP4 PUSH2 0x19A0 JUMP JUMPDEST SWAP3 POP PUSH1 0x20 DUP11 ADD SWAP10 POP POP PUSH1 0x1 DUP2 ADD SWAP1 POP PUSH2 0x19D5 JUMP JUMPDEST POP DUP3 SWAP8 POP DUP8 SWAP6 POP POP POP POP POP POP SWAP3 SWAP2 POP POP JUMP JUMPDEST PUSH0 PUSH1 0x20 DUP3 ADD SWAP1 POP DUP2 DUP2 SUB PUSH0 DUP4 ADD MSTORE PUSH2 0x1A37 DUP2 DUP5 PUSH2 0x19AC JUMP JUMPDEST SWAP1 POP SWAP3 SWAP2 POP POP JUMP JUMPDEST PUSH2 0x1A48 DUP2 PUSH2 0x15DA JUMP JUMPDEST DUP3 MSTORE POP POP JUMP JUMPDEST PUSH0 PUSH1 0x20 DUP3 ADD SWAP1 POP PUSH2 0x1A61 PUSH0 DUP4 ADD DUP5 PUSH2 0x1A3F JUMP JUMPDEST SWAP3 SWAP2 POP POP JUMP JUMPDEST PUSH0 PUSH8 0xFFFFFFFFFFFFFFFF DUP3 GT ISZERO PUSH2 0x1A81 JUMPI PUSH2 0x1A80 PUSH2 0x14B6 JUMP JUMPDEST JUMPDEST PUSH1 0x20 DUP3 MUL SWAP1 POP PUSH1 0x20 DUP2 ADD SWAP1 POP SWAP2 SWAP1 POP JUMP JUMPDEST PUSH0 DUP1 REVERT JUMPDEST PUSH0 DUP2 SWAP1 POP SWAP2 SWAP1 POP JUMP JUMPDEST PUSH2 0x1AA8 DUP2 PUSH2 0x1A96 JUMP JUMPDEST DUP2 EQ PUSH2 0x1AB2 JUMPI PUSH0 DUP1 REVERT JUMPDEST POP JUMP JUMPDEST PUSH0 DUP2 CALLDATALOAD SWAP1 POP PUSH2 0x1AC3 DUP2 PUSH2 0x1A9F JUMP JUMPDEST SWAP3 SWAP2 POP POP JUMP JUMPDEST PUSH0 PUSH2 0x1ADB PUSH2 0x1AD6 DUP5 PUSH2 0x1A67 JUMP JUMPDEST PUSH2 0x1514 JUMP JUMPDEST SWAP1 POP DUP1 DUP4 DUP3 MSTORE PUSH1 0x20 DUP3 ADD SWAP1 POP PUSH1 0x20 DUP5 MUL DUP4 ADD DUP6 DUP2 GT ISZERO PUSH2 0x1AFE JUMPI PUSH2 0x1AFD PUSH2 0x1A92 JUMP JUMPDEST JUMPDEST DUP4 JUMPDEST DUP2 DUP2 LT ISZERO PUSH2 0x1B27 JUMPI DUP1 PUSH2 0x1B13 DUP9 DUP3 PUSH2 0x1AB5 JUMP JUMPDEST DUP5 MSTORE PUSH1 0x20 DUP5 ADD SWAP4 POP POP PUSH1 0x20 DUP2 ADD SWAP1 POP PUSH2 0x1B00 JUMP JUMPDEST POP POP POP SWAP4 SWAP3 POP POP POP JUMP JUMPDEST PUSH0 DUP3 PUSH1 0x1F DUP4 ADD SLT PUSH2 0x1B45 JUMPI PUSH2 0x1B44 PUSH2 0x149E JUMP JUMPDEST JUMPDEST DUP2 CALLDATALOAD PUSH2 0x1B55 DUP5 DUP3 PUSH1 0x20 DUP7 ADD PUSH2 0x1AC9 JUMP JUMPDEST SWAP2 POP POP SWAP3 SWAP2 POP POP JUMP JUMPDEST PUSH0 PUSH1 0x20 DUP3 DUP5 SUB SLT ISZERO PUSH2 0x1B73 JUMPI PUSH2 0x1B72 PUSH2 0x1496 JUMP JUMPDEST JUMPDEST PUSH0 DUP3 ADD CALLDATALOAD PUSH8 0xFFFFFFFFFFFFFFFF DUP2 GT ISZERO PUSH2 0x1B90 JUMPI PUSH2 0x1B8F PUSH2 0x149A JUMP JUMPDEST JUMPDEST PUSH2 0x1B9C DUP5 DUP3 DUP6 ADD PUSH2 0x1B31 JUMP JUMPDEST SWAP2 POP POP SWAP3 SWAP2 POP POP JUMP JUMPDEST PUSH0 DUP2 SWAP1 POP SWAP3 SWAP2 POP POP JUMP JUMPDEST PUSH0 PUSH2 0x1BB9 DUP3 PUSH2 0x17AD JUMP JUMPDEST PUSH2 0x1BC3 DUP2 DUP6 PUSH2 0x1BA5 JUMP JUMPDEST SWAP4 POP PUSH2 0x1BD3 DUP2 DUP6 PUSH1 0x20 DUP7 ADD PUSH2 0x17C7 JUMP JUMPDEST DUP1 DUP5 ADD SWAP2 POP POP SWAP3 SWAP2 POP POP JUMP JUMPDEST PUSH0 PUSH2 0x1BEA DUP3 DUP5 PUSH2 0x1BAF JUMP JUMPDEST SWAP2 POP DUP2 SWAP1 POP SWAP3 SWAP2 POP POP JUMP JUMPDEST PUSH0 DUP3 DUP3 MSTORE PUSH1 0x20 DUP3 ADD SWAP1 POP SWAP3 SWAP2 POP POP JUMP JUMPDEST PUSH0 PUSH2 0x1C0F DUP3 PUSH2 0x17AD JUMP JUMPDEST PUSH2 0x1C19 DUP2 DUP6 PUSH2 0x1BF5 JUMP JUMPDEST SWAP4 POP PUSH2 0x1C29 DUP2 DUP6 PUSH1 0x20 DUP7 ADD PUSH2 0x17C7 JUMP JUMPDEST PUSH2 0x1C32 DUP2 PUSH2 0x14A6 JUMP JUMPDEST DUP5 ADD SWAP2 POP POP SWAP3 SWAP2 POP POP JUMP JUMPDEST PUSH0 PUSH1 0x60 DUP3 ADD SWAP1 POP DUP2 DUP2 SUB PUSH0 DUP4 ADD MSTORE PUSH2 0x1C55 DUP2 DUP7 PUSH2 0x1C05 JUMP JUMPDEST SWAP1 POP DUP2 DUP2 SUB PUSH1 0x20 DUP4 ADD MSTORE PUSH2 0x1C69 DUP2 DUP6 PUSH2 0x1C05 JUMP JUMPDEST SWAP1 POP DUP2 DUP2 SUB PUSH1 0x40 DUP4 ADD MSTORE PUSH2 0x1C7D DUP2 DUP5 PUSH2 0x1C05 JUMP JUMPDEST SWAP1 POP SWAP5 SWAP4 POP POP POP POP JUMP JUMPDEST PUSH2 0x1C90 DUP2 PUSH2 0x178D JUMP JUMPDEST DUP3 MSTORE POP POP JUMP JUMPDEST PUSH0 PUSH1 0x20 DUP3 ADD SWAP1 POP PUSH2 0x1CA9 PUSH0 DUP4 ADD DUP5 PUSH2 0x1C87 JUMP JUMPDEST SWAP3 SWAP2 POP POP JUMP JUMPDEST PUSH32 0x4E487B7100000000000000000000000000000000000000000000000000000000 PUSH0 MSTORE PUSH1 0x22 PUSH1 0x4 MSTORE PUSH1 0x24 PUSH0 REVERT JUMPDEST PUSH0 PUSH1 0x2 DUP3 DIV SWAP1 POP PUSH1 0x1 DUP3 AND DUP1 PUSH2 0x1CF3 JUMPI PUSH1 0x7F DUP3 AND SWAP2 POP JUMPDEST PUSH1 0x20 DUP3 LT DUP2 SUB PUSH2 0x1D06 JUMPI PUSH2 0x1D05 PUSH2 0x1CAF JUMP JUMPDEST JUMPDEST POP SWAP2 SWAP1 POP JUMP JUMPDEST PUSH0 DUP2 SWAP1 POP DUP2 PUSH0 MSTORE PUSH1 0x20 PUSH0 KECCAK256 SWAP1 POP SWAP2 SWAP1 POP JUMP JUMPDEST PUSH0 PUSH1 0x20 PUSH1 0x1F DUP4 ADD DIV SWAP1 POP SWAP2 SWAP1 POP JUMP JUMPDEST PUSH0 DUP3 DUP3 SHL SWAP1 POP SWAP3 SWAP2 POP POP JUMP JUMPDEST PUSH0 PUSH1 0x8 DUP4 MUL PUSH2 0x1D68 PUSH32 0xFFFFFFFFFFFFFFFFFFFFFFFFFFFFFFFFFFFFFFFFFFFFFFFFFFFFFFFFFFFFFFFF DUP3 PUSH2 0x1D2D JUMP JUMPDEST PUSH2 0x1D72 DUP7 DUP4 PUSH2 0x1D2D JUMP JUMPDEST SWAP6 POP DUP1 NOT DUP5 AND SWAP4 POP DUP1 DUP7 AND DUP5 OR SWAP3 POP POP POP SWAP4 SWAP3 POP POP POP JUMP JUMPDEST PUSH0 DUP2 SWAP1 POP SWAP2 SWAP1 POP JUMP JUMPDEST PUSH0 PUSH2 0x1DAD PUSH2 0x1DA8 PUSH2 0x1DA3 DUP5 PUSH2 0x15DA JUMP JUMPDEST PUSH2 0x1D8A JUMP JUMPDEST PUSH2 0x15DA JUMP JUMPDEST SWAP1 POP SWAP2 SWAP1 POP JUMP JUMPDEST PUSH0 DUP2 SWAP1 POP SWAP2 SWAP1 POP JUMP JUMPDEST PUSH2 0x1DC6 DUP4 PUSH2 0x1D93 JUMP JUMPDEST PUSH2 0x1DDA PUSH2 0x1DD2 DUP3 PUSH2 0x1DB4 JUMP JUMPDEST DUP5 DUP5 SLOAD PUSH2 0x1D39 JUMP JUMPDEST DUP3 SSTORE POP POP POP POP JUMP JUMPDEST PUSH0 SWAP1 JUMP JUMPDEST PUSH2 0x1DEE PUSH2 0x1DE2 JUMP JUMPDEST PUSH2 0x1DF9 DUP2 DUP5 DUP5 PUSH2 0x1DBD JUMP JUMPDEST POP POP POP JUMP JUMPDEST JUMPDEST DUP2 DUP2 LT ISZERO PUSH2 0x1E1C JUMPI PUSH2 0x1E11 PUSH0 DUP3 PUSH2 0x1DE6 JUMP JUMPDEST PUSH1 0x1 DUP2 ADD SWAP1 POP PUSH2 0x1DFF JUMP JUMPDEST POP POP JUMP JUMPDEST PUSH1 0x1F DUP3 GT ISZERO PUSH2 0x1E61 JUMPI PUSH2 0x1E32 DUP2 PUSH2 0x1D0C JUMP JUMPDEST PUSH2 0x1E3B DUP5 PUSH2 0x1D1E JUMP JUMPDEST DUP2 ADD PUSH1 0x20 DUP6 LT ISZERO PUSH2 0x1E4A JUMPI DUP2 SWAP1 POP JUMPDEST PUSH2 0x1E5E PUSH2 0x1E56 DUP6 PUSH2 0x1D1E JUMP JUMPDEST DUP4 ADD DUP3 PUSH2 0x1DFE JUMP JUMPDEST POP POP JUMPDEST POP POP POP JUMP JUMPDEST PUSH0 DUP3 DUP3 SHR SWAP1 POP SWAP3 SWAP2 POP POP JUMP JUMPDEST PUSH0 PUSH2 0x1E81 PUSH0 NOT DUP5 PUSH1 0x8 MUL PUSH2 0x1E66 JUMP JUMPDEST NOT DUP1 DUP4 AND SWAP2 POP POP SWAP3 SWAP2 POP POP JUMP JUMPDEST PUSH0 PUSH2 0x1E99 DUP4 DUP4 PUSH2 0x1E72 JUMP JUMPDEST SWAP2 POP DUP3 PUSH1 0x2 MUL DUP3 OR SWAP1 POP SWAP3 SWAP2 POP POP JUMP JUMPDEST PUSH2 0x1EB2 DUP3 PUSH2 0x17AD JUMP JUMPDEST PUSH8 0xFFFFFFFFFFFFFFFF DUP2 GT ISZERO PUSH2 0x1ECB JUMPI PUSH2 0x1ECA PUSH2 0x14B6 JUMP JUMPDEST JUMPDEST PUSH2 0x1ED5 DUP3 SLOAD PUSH2 0x1CDC JUMP JUMPDEST PUSH2 0x1EE0 DUP3 DUP3 DUP6 PUSH2 0x1E20 JUMP JUMPDEST PUSH0 PUSH1 0x20 SWAP1 POP PUSH1 0x1F DUP4 GT PUSH1 0x1 DUP2 EQ PUSH2 0x1F11 JUMPI PUSH0 DUP5 ISZERO PUSH2 0x1EFF JUMPI DUP3 DUP8 ADD MLOAD SWAP1 POP JUMPDEST PUSH2 0x1F09 DUP6 DUP3 PUSH2 0x1E8E JUMP JUMPDEST DUP7 SSTORE POP PUSH2 0x1F70 JUMP JUMPDEST PUSH1 0x1F NOT DUP5 AND PUSH2 0x1F1F DUP7 PUSH2 0x1D0C JUMP JUMPDEST PUSH0 JUMPDEST DUP3 DUP2 LT ISZERO PUSH2 0x1F46 JUMPI DUP5 DUP10 ADD MLOAD DUP3 SSTORE PUSH1 0x1 DUP3 ADD SWAP2 POP PUSH1 0x20 DUP6 ADD SWAP5 POP PUSH1 0x20 DUP2 ADD SWAP1 POP PUSH2 0x1F21 JUMP JUMPDEST DUP7 DUP4 LT ISZERO PUSH2 0x1F63 JUMPI DUP5 DUP10 ADD MLOAD PUSH2 0x1F5F PUSH1 0x1F DUP10 AND DUP3 PUSH2 0x1E72 JUMP JUMPDEST DUP4 SSTORE POP JUMPDEST PUSH1 0x1 PUSH1 0x2 DUP9 MUL ADD DUP9 SSTORE POP POP POP JUMPDEST POP POP POP POP POP POP JUMP JUMPDEST PUSH32 0x4E487B7100000000000000000000000000000000000000000000000000000000 PUSH0 MSTORE PUSH1 0x11 PUSH1 0x4 MSTORE PUSH1 0x24 PUSH0 REVERT JUMPDEST PUSH0 PUSH2 0x1FAF DUP3 PUSH2 0x15DA JUMP JUMPDEST SWAP2 POP PUSH2 0x1FBA DUP4 PUSH2 0x15DA JUMP JUMPDEST SWAP3 POP DUP3 DUP3 SUB SWAP1 POP DUP2 DUP2 GT ISZERO PUSH2 0x1FD2 JUMPI PUSH2 0x1FD1 PUSH2 0x1F78 JUMP JUMPDEST JUMPDEST SWAP3 SWAP2 POP POP JUMP JUMPDEST PUSH0 DUP2 MLOAD SWAP1 POP PUSH2 0x1FE6 DUP2 PUSH2 0x15E3 JUMP JUMPDEST SWAP3 SWAP2 POP POP JUMP JUMPDEST PUSH0 PUSH1 0x20 DUP3 DUP5 SUB SLT ISZERO PUSH2 0x2001 JUMPI PUSH2 0x2000 PUSH2 0x1496 JUMP JUMPDEST JUMPDEST PUSH0 PUSH2 0x200E DUP5 DUP3 DUP6 ADD PUSH2 0x1FD8 JUMP JUMPDEST SWAP2 POP POP SWAP3 SWAP2 POP POP JUMP JUMPDEST PUSH32 0x4E487B7100000000000000000000000000000000000000000000000000000000 PUSH0 MSTORE PUSH1 0x32 PUSH1 0x4 MSTORE PUSH1 0x24 PUSH0 REVERT JUMPDEST PUSH0 DUP2 SLOAD PUSH2 0x2050 DUP2 PUSH2 0x1CDC JUMP JUMPDEST PUSH2 0x205A DUP2 DUP7 PUSH2 0x1BA5 JUMP JUMPDEST SWAP5 POP PUSH1 0x1 DUP3 AND PUSH0 DUP2 EQ PUSH2 0x2074 JUMPI PUSH1 0x1 DUP2 EQ PUSH2 0x2089 JUMPI PUSH2 0x20BB JUMP JUMPDEST PUSH1 0xFF NOT DUP4 AND DUP7 MSTORE DUP2 ISZERO ISZERO DUP3 MUL DUP7 ADD SWAP4 POP PUSH2 0x20BB JUMP JUMPDEST PUSH2 0x2092 DUP6 PUSH2 0x1D0C JUMP JUMPDEST PUSH0 JUMPDEST DUP4 DUP2 LT ISZERO PUSH2 0x20B3 JUMPI DUP2 SLOAD DUP2 DUP10 ADD MSTORE PUSH1 0x1 DUP3 ADD SWAP2 POP PUSH1 0x20 DUP2 ADD SWAP1 POP PUSH2 0x2094 JUMP JUMPDEST DUP4 DUP9 ADD SWAP6 POP POP POP JUMPDEST POP POP POP SWAP3 SWAP2 POP POP JUMP JUMPDEST PUSH0 PUSH2 0x20CF DUP3 DUP5 PUSH2 0x2044 JUMP JUMPDEST SWAP2 POP DUP2 SWAP1 POP SWAP3 SWAP2 POP POP JUMP JUMPDEST PUSH0 PUSH2 0x20E4 DUP3 PUSH2 0x15DA JUMP JUMPDEST SWAP2 POP PUSH2 0x20EF DUP4 PUSH2 0x15DA JUMP JUMPDEST SWAP3 POP DUP3 DUP3 ADD SWAP1 POP DUP1 DUP3 GT ISZERO PUSH2 0x2107 JUMPI PUSH2 0x2106 PUSH2 0x1F78 JUMP JUMPDEST JUMPDEST SWAP3 SWAP2 POP POP JUMP JUMPDEST PUSH0 DUP2 MLOAD SWAP1 POP SWAP2 SWAP1 POP JUMP JUMPDEST PUSH0 DUP2 SWAP1 POP SWAP3 SWAP2 POP POP JUMP JUMPDEST PUSH0 PUSH2 0x212B DUP3 PUSH2 0x210D JUMP JUMPDEST PUSH2 0x2135 DUP2 DUP6 PUSH2 0x2117 JUMP JUMPDEST SWAP4 POP PUSH2 0x2145 DUP2 DUP6 PUSH1 0x20 DUP7 ADD PUSH2 0x17C7 JUMP JUMPDEST DUP1 DUP5 ADD SWAP2 POP POP SWAP3 SWAP2 POP POP JUMP JUMPDEST PUSH0 DUP2 SWAP1 POP SWAP2 SWAP1 POP JUMP JUMPDEST PUSH2 0x216B PUSH2 0x2166 DUP3 PUSH2 0x1A96 JUMP JUMPDEST PUSH2 0x2151 JUMP JUMPDEST DUP3 MSTORE POP POP JUMP JUMPDEST PUSH0 PUSH2 0x217C DUP3 DUP6 PUSH2 0x2121 JUMP JUMPDEST SWAP2 POP PUSH2 0x2188 DUP3 DUP5 PUSH2 0x215A JUMP JUMPDEST PUSH1 0x20 DUP3 ADD SWAP2 POP DUP2 SWAP1 POP SWAP4 SWAP3 POP POP POP JUMP INVALID PUSH1 0x80 PUSH1 0x40 MSTORE CALLVALUE DUP1 ISZERO PUSH2 0xF JUMPI PUSH0 DUP1 REVERT JUMPDEST POP PUSH1 0x40 MLOAD PUSH2 0x29E0 CODESIZE SUB DUP1 PUSH2 0x29E0 DUP4 CODECOPY DUP2 DUP2 ADD PUSH1 0x40 MSTORE DUP2 ADD SWAP1 PUSH2 0x31 SWAP2 SWAP1 PUSH2 0x2FD JUMP JUMPDEST CALLER DUP4 DUP4 DUP2 PUSH0 SWAP1 DUP2 PUSH2 0x42 SWAP2 SWAP1 PUSH2 0x5AE JUMP JUMPDEST POP DUP1 PUSH1 0x1 SWAP1 DUP2 PUSH2 0x52 SWAP2 SWAP1 PUSH2 0x5AE JUMP JUMPDEST POP POP POP PUSH0 PUSH20 0xFFFFFFFFFFFFFFFFFFFFFFFFFFFFFFFFFFFFFFFF AND DUP2 PUSH20 0xFFFFFFFFFFFFFFFFFFFFFFFFFFFFFFFFFFFFFFFF AND SUB PUSH2 0xC5 JUMPI PUSH0 PUSH1 0x40 MLOAD PUSH32 0x1E4FBDF700000000000000000000000000000000000000000000000000000000 DUP2 MSTORE PUSH1 0x4 ADD PUSH2 0xBC SWAP2 SWAP1 PUSH2 0x6BC JUMP JUMPDEST PUSH1 0x40 MLOAD DUP1 SWAP2 SUB SWAP1 REVERT JUMPDEST PUSH2 0xD4 DUP2 PUSH2 0xED PUSH1 0x20 SHL PUSH1 0x20 SHR JUMP JUMPDEST POP DUP1 PUSH1 0x8 SWAP1 DUP2 PUSH2 0xE4 SWAP2 SWAP1 PUSH2 0x5AE JUMP JUMPDEST POP POP POP POP PUSH2 0x6D5 JUMP JUMPDEST PUSH0 PUSH1 0x6 PUSH0 SWAP1 SLOAD SWAP1 PUSH2 0x100 EXP SWAP1 DIV PUSH20 0xFFFFFFFFFFFFFFFFFFFFFFFFFFFFFFFFFFFFFFFF AND SWAP1 POP DUP2 PUSH1 0x6 PUSH0 PUSH2 0x100 EXP DUP2 SLOAD DUP2 PUSH20 0xFFFFFFFFFFFFFFFFFFFFFFFFFFFFFFFFFFFFFFFF MUL NOT AND SWAP1 DUP4 PUSH20 0xFFFFFFFFFFFFFFFFFFFFFFFFFFFFFFFFFFFFFFFF AND MUL OR SWAP1 SSTORE POP DUP2 PUSH20 0xFFFFFFFFFFFFFFFFFFFFFFFFFFFFFFFFFFFFFFFF AND DUP2 PUSH20 0xFFFFFFFFFFFFFFFFFFFFFFFFFFFFFFFFFFFFFFFF AND PUSH32 0x8BE0079C531659141344CD1FD0A4F28419497F9722A3DAAFE3B4186F6B6457E0 PUSH1 0x40 MLOAD PUSH1 0x40 MLOAD DUP1 SWAP2 SUB SWAP1 LOG3 POP POP JUMP JUMPDEST PUSH0 PUSH1 0x40 MLOAD SWAP1 POP SWAP1 JUMP JUMPDEST PUSH0 DUP1 REVERT JUMPDEST PUSH0 DUP1 REVERT JUMPDEST PUSH0 DUP1 REVERT JUMPDEST PUSH0 DUP1 REVERT JUMPDEST PUSH0 PUSH1 0x1F NOT PUSH1 0x1F DUP4 ADD AND SWAP1 POP SWAP2 SWAP1 POP JUMP JUMPDEST PUSH32 0x4E487B7100000000000000000000000000000000000000000000000000000000 PUSH0 MSTORE PUSH1 0x41 PUSH1 0x4 MSTORE PUSH1 0x24 PUSH0 REVERT JUMPDEST PUSH2 0x20F DUP3 PUSH2 0x1C9 JUMP JUMPDEST DUP2 ADD DUP2 DUP2 LT PUSH8 0xFFFFFFFFFFFFFFFF DUP3 GT OR ISZERO PUSH2 0x22E JUMPI PUSH2 0x22D PUSH2 0x1D9 JUMP JUMPDEST JUMPDEST DUP1 PUSH1 0x40 MSTORE POP POP POP JUMP JUMPDEST PUSH0 PUSH2 0x240 PUSH2 0x1B0 JUMP JUMPDEST SWAP1 POP PUSH2 0x24C DUP3 DUP3 PUSH2 0x206 JUMP JUMPDEST SWAP2 SWAP1 POP JUMP JUMPDEST PUSH0 PUSH8 0xFFFFFFFFFFFFFFFF DUP3 GT ISZERO PUSH2 0x26B JUMPI PUSH2 0x26A PUSH2 0x1D9 JUMP JUMPDEST JUMPDEST PUSH2 0x274 DUP3 PUSH2 0x1C9 JUMP JUMPDEST SWAP1 POP PUSH1 0x20 DUP2 ADD SWAP1 POP SWAP2 SWAP1 POP JUMP JUMPDEST DUP3 DUP2 DUP4 MCOPY PUSH0 DUP4 DUP4 ADD MSTORE POP POP POP JUMP JUMPDEST PUSH0 PUSH2 0x2A1 PUSH2 0x29C DUP5 PUSH2 0x251 JUMP JUMPDEST PUSH2 0x237 JUMP JUMPDEST SWAP1 POP DUP3 DUP2 MSTORE PUSH1 0x20 DUP2 ADD DUP5 DUP5 DUP5 ADD GT ISZERO PUSH2 0x2BD JUMPI PUSH2 0x2BC PUSH2 0x1C5 JUMP JUMPDEST JUMPDEST PUSH2 0x2C8 DUP5 DUP3 DUP6 PUSH2 0x281 JUMP JUMPDEST POP SWAP4 SWAP3 POP POP POP JUMP JUMPDEST PUSH0 DUP3 PUSH1 0x1F DUP4 ADD SLT PUSH2 0x2E4 JUMPI PUSH2 0x2E3 PUSH2 0x1C1 JUMP JUMPDEST JUMPDEST DUP2 MLOAD PUSH2 0x2F4 DUP5 DUP3 PUSH1 0x20 DUP7 ADD PUSH2 0x28F JUMP JUMPDEST SWAP2 POP POP SWAP3 SWAP2 POP POP JUMP JUMPDEST PUSH0 DUP1 PUSH0 PUSH1 0x60 DUP5 DUP7 SUB SLT ISZERO PUSH2 0x314 JUMPI PUSH2 0x313 PUSH2 0x1B9 JUMP JUMPDEST JUMPDEST PUSH0 DUP5 ADD MLOAD PUSH8 0xFFFFFFFFFFFFFFFF DUP2 GT ISZERO PUSH2 0x331 JUMPI PUSH2 0x330 PUSH2 0x1BD JUMP JUMPDEST JUMPDEST PUSH2 0x33D DUP7 DUP3 DUP8 ADD PUSH2 0x2D0 JUMP JUMPDEST SWAP4 POP POP PUSH1 0x20 DUP5 ADD MLOAD PUSH8 0xFFFFFFFFFFFFFFFF DUP2 GT ISZERO PUSH2 0x35E JUMPI PUSH2 0x35D PUSH2 0x1BD JUMP JUMPDEST JUMPDEST PUSH2 0x36A DUP7 DUP3 DUP8 ADD PUSH2 0x2D0 JUMP JUMPDEST SWAP3 POP POP PUSH1 0x40 DUP5 ADD MLOAD PUSH8 0xFFFFFFFFFFFFFFFF DUP2 GT ISZERO PUSH2 0x38B JUMPI PUSH2 0x38A PUSH2 0x1BD JUMP JUMPDEST JUMPDEST PUSH2 0x397 DUP7 DUP3 DUP8 ADD PUSH2 0x2D0 JUMP JUMPDEST SWAP2 POP POP SWAP3 POP SWAP3 POP SWAP3 JUMP JUMPDEST PUSH0 DUP2 MLOAD SWAP1 POP SWAP2 SWAP1 POP JUMP JUMPDEST PUSH32 0x4E487B7100000000000000000000000000000000000000000000000000000000 PUSH0 MSTORE PUSH1 0x22 PUSH1 0x4 MSTORE PUSH1 0x24 PUSH0 REVERT JUMPDEST PUSH0 PUSH1 0x2 DUP3 DIV SWAP1 POP PUSH1 0x1 DUP3 AND DUP1 PUSH2 0x3EF JUMPI PUSH1 0x7F DUP3 AND SWAP2 POP JUMPDEST PUSH1 0x20 DUP3 LT DUP2 SUB PUSH2 0x402 JUMPI PUSH2 0x401 PUSH2 0x3AB JUMP JUMPDEST JUMPDEST POP SWAP2 SWAP1 POP JUMP JUMPDEST PUSH0 DUP2 SWAP1 POP DUP2 PUSH0 MSTORE PUSH1 0x20 PUSH0 KECCAK256 SWAP1 POP SWAP2 SWAP1 POP JUMP JUMPDEST PUSH0 PUSH1 0x20 PUSH1 0x1F DUP4 ADD DIV SWAP1 POP SWAP2 SWAP1 POP JUMP JUMPDEST PUSH0 DUP3 DUP3 SHL SWAP1 POP SWAP3 SWAP2 POP POP JUMP JUMPDEST PUSH0 PUSH1 0x8 DUP4 MUL PUSH2 0x464 PUSH32 0xFFFFFFFFFFFFFFFFFFFFFFFFFFFFFFFFFFFFFFFFFFFFFFFFFFFFFFFFFFFFFFFF DUP3 PUSH2 0x429 JUMP JUMPDEST PUSH2 0x46E DUP7 DUP4 PUSH2 0x429 JUMP JUMPDEST SWAP6 POP DUP1 NOT DUP5 AND SWAP4 POP DUP1 DUP7 AND DUP5 OR SWAP3 POP POP POP SWAP4 SWAP3 POP POP POP JUMP JUMPDEST PUSH0 DUP2 SWAP1 POP SWAP2 SWAP1 POP JUMP JUMPDEST PUSH0 DUP2 SWAP1 POP SWAP2 SWAP1 POP JUMP JUMPDEST PUSH0 PUSH2 0x4B2 PUSH2 0x4AD PUSH2 0x4A8 DUP5 PUSH2 0x486 JUMP JUMPDEST PUSH2 0x48F JUMP JUMPDEST PUSH2 0x486 JUMP JUMPDEST SWAP1 POP SWAP2 SWAP1 POP JUMP JUMPDEST PUSH0 DUP2 SWAP1 POP SWAP2 SWAP1 POP JUMP JUMPDEST PUSH2 0x4CB DUP4 PUSH2 0x498 JUMP JUMPDEST PUSH2 0x4DF PUSH2 0x4D7 DUP3 PUSH2 0x4B9 JUMP JUMPDEST DUP5 DUP5 SLOAD PUSH2 0x435 JUMP JUMPDEST DUP3 SSTORE POP POP POP POP JUMP JUMPDEST PUSH0 SWAP1 JUMP JUMPDEST PUSH2 0x4F3 PUSH2 0x4E7 JUMP JUMPDEST PUSH2 0x4FE DUP2 DUP5 DUP5 PUSH2 0x4C2 JUMP JUMPDEST POP POP POP JUMP JUMPDEST JUMPDEST DUP2 DUP2 LT ISZERO PUSH2 0x521 JUMPI PUSH2 0x516 PUSH0 DUP3 PUSH2 0x4EB JUMP JUMPDEST PUSH1 0x1 DUP2 ADD SWAP1 POP PUSH2 0x504 JUMP JUMPDEST POP POP JUMP JUMPDEST PUSH1 0x1F DUP3 GT ISZERO PUSH2 0x566 JUMPI PUSH2 0x537 DUP2 PUSH2 0x408 JUMP JUMPDEST PUSH2 0x540 DUP5 PUSH2 0x41A JUMP JUMPDEST DUP2 ADD PUSH1 0x20 DUP6 LT ISZERO PUSH2 0x54F JUMPI DUP2 SWAP1 POP JUMPDEST PUSH2 0x563 PUSH2 0x55B DUP6 PUSH2 0x41A JUMP JUMPDEST DUP4 ADD DUP3 PUSH2 0x503 JUMP JUMPDEST POP POP JUMPDEST POP POP POP JUMP JUMPDEST PUSH0 DUP3 DUP3 SHR SWAP1 POP SWAP3 SWAP2 POP POP JUMP JUMPDEST PUSH0 PUSH2 0x586 PUSH0 NOT DUP5 PUSH1 0x8 MUL PUSH2 0x56B JUMP JUMPDEST NOT DUP1 DUP4 AND SWAP2 POP POP SWAP3 SWAP2 POP POP JUMP JUMPDEST PUSH0 PUSH2 0x59E DUP4 DUP4 PUSH2 0x577 JUMP JUMPDEST SWAP2 POP DUP3 PUSH1 0x2 MUL DUP3 OR SWAP1 POP SWAP3 SWAP2 POP POP JUMP JUMPDEST PUSH2 0x5B7 DUP3 PUSH2 0x3A1 JUMP JUMPDEST PUSH8 0xFFFFFFFFFFFFFFFF DUP2 GT ISZERO PUSH2 0x5D0 JUMPI PUSH2 0x5CF PUSH2 0x1D9 JUMP JUMPDEST JUMPDEST PUSH2 0x5DA DUP3 SLOAD PUSH2 0x3D8 JUMP JUMPDEST PUSH2 0x5E5 DUP3 DUP3 DUP6 PUSH2 0x525 JUMP JUMPDEST PUSH0 PUSH1 0x20 SWAP1 POP PUSH1 0x1F DUP4 GT PUSH1 0x1 DUP2 EQ PUSH2 0x616 JUMPI PUSH0 DUP5 ISZERO PUSH2 0x604 JUMPI DUP3 DUP8 ADD MLOAD SWAP1 POP JUMPDEST PUSH2 0x60E DUP6 DUP3 PUSH2 0x593 JUMP JUMPDEST DUP7 SSTORE POP PUSH2 0x675 JUMP JUMPDEST PUSH1 0x1F NOT DUP5 AND PUSH2 0x624 DUP7 PUSH2 0x408 JUMP JUMPDEST PUSH0 JUMPDEST DUP3 DUP2 LT ISZERO PUSH2 0x64B JUMPI DUP5 DUP10 ADD MLOAD DUP3 SSTORE PUSH1 0x1 DUP3 ADD SWAP2 POP PUSH1 0x20 DUP6 ADD SWAP5 POP PUSH1 0x20 DUP2 ADD SWAP1 POP PUSH2 0x626 JUMP JUMPDEST DUP7 DUP4 LT ISZERO PUSH2 0x668 JUMPI DUP5 DUP10 ADD MLOAD PUSH2 0x664 PUSH1 0x1F DUP10 AND DUP3 PUSH2 0x577 JUMP JUMPDEST DUP4 SSTORE POP JUMPDEST PUSH1 0x1 PUSH1 0x2 DUP9 MUL ADD DUP9 SSTORE POP POP POP JUMPDEST POP POP POP POP POP POP JUMP JUMPDEST PUSH0 PUSH20 0xFFFFFFFFFFFFFFFFFFFFFFFFFFFFFFFFFFFFFFFF DUP3 AND SWAP1 POP SWAP2 SWAP1 POP JUMP JUMPDEST PUSH0 PUSH2 0x6A6 DUP3 PUSH2 0x67D JUMP JUMPDEST SWAP1 POP SWAP2 SWAP1 POP JUMP JUMPDEST PUSH2 0x6B6 DUP2 PUSH2 0x69C JUMP JUMPDEST DUP3 MSTORE POP POP JUMP JUMPDEST PUSH0 PUSH1 0x20 DUP3 ADD SWAP1 POP PUSH2 0x6CF PUSH0 DUP4 ADD DUP5 PUSH2 0x6AD JUMP JUMPDEST SWAP3 SWAP2 POP POP JUMP JUMPDEST PUSH2 0x22FE DUP1 PUSH2 0x6E2 PUSH0 CODECOPY PUSH0 RETURN INVALID PUSH1 0x80 PUSH1 0x40 MSTORE CALLVALUE DUP1 ISZERO PUSH2 0xF JUMPI PUSH0 DUP1 REVERT JUMPDEST POP PUSH1 0x4 CALLDATASIZE LT PUSH2 0x109 JUMPI PUSH0 CALLDATALOAD PUSH1 0xE0 SHR DUP1 PUSH4 0x70A08231 GT PUSH2 0xA0 JUMPI DUP1 PUSH4 0xA22CB465 GT PUSH2 0x6F JUMPI DUP1 PUSH4 0xA22CB465 EQ PUSH2 0x2A1 JUMPI DUP1 PUSH4 0xB88D4FDE EQ PUSH2 0x2BD JUMPI DUP1 PUSH4 0xC87B56DD EQ PUSH2 0x2D9 JUMPI DUP1 PUSH4 0xE985E9C5 EQ PUSH2 0x309 JUMPI DUP1 PUSH4 0xF2FDE38B EQ PUSH2 0x339 JUMPI PUSH2 0x109 JUMP JUMPDEST DUP1 PUSH4 0x70A08231 EQ PUSH2 0x22B JUMPI DUP1 PUSH4 0x715018A6 EQ PUSH2 0x25B JUMPI DUP1 PUSH4 0x8DA5CB5B EQ PUSH2 0x265 JUMPI DUP1 PUSH4 0x95D89B41 EQ PUSH2 0x283 JUMPI PUSH2 0x109 JUMP JUMPDEST DUP1 PUSH4 0x23B872DD GT PUSH2 0xDC JUMPI DUP1 PUSH4 0x23B872DD EQ PUSH2 0x1A7 JUMPI DUP1 PUSH4 0x42842E0E EQ PUSH2 0x1C3 JUMPI DUP1 PUSH4 0x6352211E EQ PUSH2 0x1DF JUMPI DUP1 PUSH4 0x6A627842 EQ PUSH2 0x20F JUMPI PUSH2 0x109 JUMP JUMPDEST DUP1 PUSH4 0x1FFC9A7 EQ PUSH2 0x10D JUMPI DUP1 PUSH4 0x6FDDE03 EQ PUSH2 0x13D JUMPI DUP1 PUSH4 0x81812FC EQ PUSH2 0x15B JUMPI DUP1 PUSH4 0x95EA7B3 EQ PUSH2 0x18B JUMPI JUMPDEST PUSH0 DUP1 REVERT JUMPDEST PUSH2 0x127 PUSH1 0x4 DUP1 CALLDATASIZE SUB DUP2 ADD SWAP1 PUSH2 0x122 SWAP2 SWAP1 PUSH2 0x1778 JUMP JUMPDEST PUSH2 0x355 JUMP JUMPDEST PUSH1 0x40 MLOAD PUSH2 0x134 SWAP2 SWAP1 PUSH2 0x17BD JUMP JUMPDEST PUSH1 0x40 MLOAD DUP1 SWAP2 SUB SWAP1 RETURN JUMPDEST PUSH2 0x145 PUSH2 0x436 JUMP JUMPDEST PUSH1 0x40 MLOAD PUSH2 0x152 SWAP2 SWAP1 PUSH2 0x1846 JUMP JUMPDEST PUSH1 0x40 MLOAD DUP1 SWAP2 SUB SWAP1 RETURN JUMPDEST PUSH2 0x175 PUSH1 0x4 DUP1 CALLDATASIZE SUB DUP2 ADD SWAP1 PUSH2 0x170 SWAP2 SWAP1 PUSH2 0x1899 JUMP JUMPDEST PUSH2 0x4C5 JUMP JUMPDEST PUSH1 0x40 MLOAD PUSH2 0x182 SWAP2 SWAP1 PUSH2 0x1903 JUMP JUMPDEST PUSH1 0x40 MLOAD DUP1 SWAP2 SUB SWAP1 RETURN JUMPDEST PUSH2 0x1A5 PUSH1 0x4 DUP1 CALLDATASIZE SUB DUP2 ADD SWAP1 PUSH2 0x1A0 SWAP2 SWAP1 PUSH2 0x1946 JUMP JUMPDEST PUSH2 0x4E0 JUMP JUMPDEST STOP JUMPDEST PUSH2 0x1C1 PUSH1 0x4 DUP1 CALLDATASIZE SUB DUP2 ADD SWAP1 PUSH2 0x1BC SWAP2 SWAP1 PUSH2 0x1984 JUMP JUMPDEST PUSH2 0x4F6 JUMP JUMPDEST STOP JUMPDEST PUSH2 0x1DD PUSH1 0x4 DUP1 CALLDATASIZE SUB DUP2 ADD SWAP1 PUSH2 0x1D8 SWAP2 SWAP1 PUSH2 0x1984 JUMP JUMPDEST PUSH2 0x5F5 JUMP JUMPDEST STOP JUMPDEST PUSH2 0x1F9 PUSH1 0x4 DUP1 CALLDATASIZE SUB DUP2 ADD SWAP1 PUSH2 0x1F4 SWAP2 SWAP1 PUSH2 0x1899 JUMP JUMPDEST PUSH2 0x614 JUMP JUMPDEST PUSH1 0x40 MLOAD PUSH2 0x206 SWAP2 SWAP1 PUSH2 0x1903 JUMP JUMPDEST PUSH1 0x40 MLOAD DUP1 SWAP2 SUB SWAP1 RETURN JUMPDEST PUSH2 0x229 PUSH1 0x4 DUP1 CALLDATASIZE SUB DUP2 ADD SWAP1 PUSH2 0x224 SWAP2 SWAP1 PUSH2 0x19D4 JUMP JUMPDEST PUSH2 0x625 JUMP JUMPDEST STOP JUMPDEST PUSH2 0x245 PUSH1 0x4 DUP1 CALLDATASIZE SUB DUP2 ADD SWAP1 PUSH2 0x240 SWAP2 SWAP1 PUSH2 0x19D4 JUMP JUMPDEST PUSH2 0x653 JUMP JUMPDEST PUSH1 0x40 MLOAD PUSH2 0x252 SWAP2 SWAP1 PUSH2 0x1A0E JUMP JUMPDEST PUSH1 0x40 MLOAD DUP1 SWAP2 SUB SWAP1 RETURN JUMPDEST PUSH2 0x263 PUSH2 0x709 JUMP JUMPDEST STOP JUMPDEST PUSH2 0x26D PUSH2 0x71C JUMP JUMPDEST PUSH1 0x40 MLOAD PUSH2 0x27A SWAP2 SWAP1 PUSH2 0x1903 JUMP JUMPDEST PUSH1 0x40 MLOAD DUP1 SWAP2 SUB SWAP1 RETURN JUMPDEST PUSH2 0x28B PUSH2 0x744 JUMP JUMPDEST PUSH1 0x40 MLOAD PUSH2 0x298 SWAP2 SWAP1 PUSH2 0x1846 JUMP JUMPDEST PUSH1 0x40 MLOAD DUP1 SWAP2 SUB SWAP1 RETURN JUMPDEST PUSH2 0x2BB PUSH1 0x4 DUP1 CALLDATASIZE SUB DUP2 ADD SWAP1 PUSH2 0x2B6 SWAP2 SWAP1 PUSH2 0x1A51 JUMP JUMPDEST PUSH2 0x7D4 JUMP JUMPDEST STOP JUMPDEST PUSH2 0x2D7 PUSH1 0x4 DUP1 CALLDATASIZE SUB DUP2 ADD SWAP1 PUSH2 0x2D2 SWAP2 SWAP1 PUSH2 0x1BBB JUMP JUMPDEST PUSH2 0x7EA JUMP JUMPDEST STOP JUMPDEST PUSH2 0x2F3 PUSH1 0x4 DUP1 CALLDATASIZE SUB DUP2 ADD SWAP1 PUSH2 0x2EE SWAP2 SWAP1 PUSH2 0x1899 JUMP JUMPDEST PUSH2 0x807 JUMP JUMPDEST PUSH1 0x40 MLOAD PUSH2 0x300 SWAP2 SWAP1 PUSH2 0x1846 JUMP JUMPDEST PUSH1 0x40 MLOAD DUP1 SWAP2 SUB SWAP1 RETURN JUMPDEST PUSH2 0x323 PUSH1 0x4 DUP1 CALLDATASIZE SUB DUP2 ADD SWAP1 PUSH2 0x31E SWAP2 SWAP1 PUSH2 0x1C3B JUMP JUMPDEST PUSH2 0x874 JUMP JUMPDEST PUSH1 0x40 MLOAD PUSH2 0x330 SWAP2 SWAP1 PUSH2 0x17BD JUMP JUMPDEST PUSH1 0x40 MLOAD DUP1 SWAP2 SUB SWAP1 RETURN JUMPDEST PUSH2 0x353 PUSH1 0x4 DUP1 CALLDATASIZE SUB DUP2 ADD SWAP1 PUSH2 0x34E SWAP2 SWAP1 PUSH2 0x19D4 JUMP JUMPDEST PUSH2 0x902 JUMP JUMPDEST STOP JUMPDEST PUSH0 PUSH32 0x80AC58CD00000000000000000000000000000000000000000000000000000000 PUSH28 0xFFFFFFFFFFFFFFFFFFFFFFFFFFFFFFFFFFFFFFFFFFFFFFFFFFFFFFFF NOT AND DUP3 PUSH28 0xFFFFFFFFFFFFFFFFFFFFFFFFFFFFFFFFFFFFFFFFFFFFFFFFFFFFFFFF NOT AND EQ DUP1 PUSH2 0x41F JUMPI POP PUSH32 0x5B5E139F00000000000000000000000000000000000000000000000000000000 PUSH28 0xFFFFFFFFFFFFFFFFFFFFFFFFFFFFFFFFFFFFFFFFFFFFFFFFFFFFFFFF NOT AND DUP3 PUSH28 0xFFFFFFFFFFFFFFFFFFFFFFFFFFFFFFFFFFFFFFFFFFFFFFFFFFFFFFFF NOT AND EQ JUMPDEST DUP1 PUSH2 0x42F JUMPI POP PUSH2 0x42E DUP3 PUSH2 0x986 JUMP JUMPDEST JUMPDEST SWAP1 POP SWAP2 SWAP1 POP JUMP JUMPDEST PUSH1 0x60 PUSH0 DUP1 SLOAD PUSH2 0x444 SWAP1 PUSH2 0x1CA6 JUMP JUMPDEST DUP1 PUSH1 0x1F ADD PUSH1 0x20 DUP1 SWAP2 DIV MUL PUSH1 0x20 ADD PUSH1 0x40 MLOAD SWAP1 DUP2 ADD PUSH1 0x40 MSTORE DUP1 SWAP3 SWAP2 SWAP1 DUP2 DUP2 MSTORE PUSH1 0x20 ADD DUP3 DUP1 SLOAD PUSH2 0x470 SWAP1 PUSH2 0x1CA6 JUMP JUMPDEST DUP1 ISZERO PUSH2 0x4BB JUMPI DUP1 PUSH1 0x1F LT PUSH2 0x492 JUMPI PUSH2 0x100 DUP1 DUP4 SLOAD DIV MUL DUP4 MSTORE SWAP2 PUSH1 0x20 ADD SWAP2 PUSH2 0x4BB JUMP JUMPDEST DUP3 ADD SWAP2 SWAP1 PUSH0 MSTORE PUSH1 0x20 PUSH0 KECCAK256 SWAP1 JUMPDEST DUP2 SLOAD DUP2 MSTORE SWAP1 PUSH1 0x1 ADD SWAP1 PUSH1 0x20 ADD DUP1 DUP4 GT PUSH2 0x49E JUMPI DUP3 SWAP1 SUB PUSH1 0x1F AND DUP3 ADD SWAP2 JUMPDEST POP POP POP POP POP SWAP1 POP SWAP1 JUMP JUMPDEST PUSH0 PUSH2 0x4CF DUP3 PUSH2 0x9EF JUMP JUMPDEST POP PUSH2 0x4D9 DUP3 PUSH2 0xA75 JUMP JUMPDEST SWAP1 POP SWAP2 SWAP1 POP JUMP JUMPDEST PUSH2 0x4F2 DUP3 DUP3 PUSH2 0x4ED PUSH2 0xAAE JUMP JUMPDEST PUSH2 0xAB5 JUMP JUMPDEST POP POP JUMP JUMPDEST PUSH0 PUSH20 0xFFFFFFFFFFFFFFFFFFFFFFFFFFFFFFFFFFFFFFFF AND DUP3 PUSH20 0xFFFFFFFFFFFFFFFFFFFFFFFFFFFFFFFFFFFFFFFF AND SUB PUSH2 0x566 JUMPI PUSH0 PUSH1 0x40 MLOAD PUSH32 0x64A0AE9200000000000000000000000000000000000000000000000000000000 DUP2 MSTORE PUSH1 0x4 ADD PUSH2 0x55D SWAP2 SWAP1 PUSH2 0x1903 JUMP JUMPDEST PUSH1 0x40 MLOAD DUP1 SWAP2 SUB SWAP1 REVERT JUMPDEST PUSH0 PUSH2 0x579 DUP4 DUP4 PUSH2 0x574 PUSH2 0xAAE JUMP JUMPDEST PUSH2 0xAC7 JUMP JUMPDEST SWAP1 POP DUP4 PUSH20 0xFFFFFFFFFFFFFFFFFFFFFFFFFFFFFFFFFFFFFFFF AND DUP2 PUSH20 0xFFFFFFFFFFFFFFFFFFFFFFFFFFFFFFFFFFFFFFFF AND EQ PUSH2 0x5EF JUMPI DUP4 DUP3 DUP3 PUSH1 0x40 MLOAD PUSH32 0x64283D7B00000000000000000000000000000000000000000000000000000000 DUP2 MSTORE PUSH1 0x4 ADD PUSH2 0x5E6 SWAP4 SWAP3 SWAP2 SWAP1 PUSH2 0x1CD6 JUMP JUMPDEST PUSH1 0x40 MLOAD DUP1 SWAP2 SUB SWAP1 REVERT JUMPDEST POP POP POP POP JUMP JUMPDEST PUSH2 0x60F DUP4 DUP4 DUP4 PUSH1 0x40 MLOAD DUP1 PUSH1 0x20 ADD PUSH1 0x40 MSTORE DUP1 PUSH0 DUP2 MSTORE POP PUSH2 0x7EA JUMP JUMPDEST POP POP POP JUMP JUMPDEST PUSH0 PUSH2 0x61E DUP3 PUSH2 0x9EF JUMP JUMPDEST SWAP1 POP SWAP2 SWAP1 POP JUMP JUMPDEST PUSH2 0x62D PUSH2 0xCD2 JUMP JUMPDEST PUSH2 0x639 DUP2 PUSH1 0x7 SLOAD PUSH2 0xD59 JUMP JUMPDEST PUSH1 0x7 PUSH0 DUP2 SLOAD DUP1 SWAP3 SWAP2 SWAP1 PUSH2 0x64B SWAP1 PUSH2 0x1D38 JUMP JUMPDEST SWAP2 SWAP1 POP SSTORE POP POP JUMP JUMPDEST PUSH0 DUP1 PUSH20 0xFFFFFFFFFFFFFFFFFFFFFFFFFFFFFFFFFFFFFFFF AND DUP3 PUSH20 0xFFFFFFFFFFFFFFFFFFFFFFFFFFFFFFFFFFFFFFFF AND SUB PUSH2 0x6C4 JUMPI PUSH0 PUSH1 0x40 MLOAD PUSH32 0x89C62B6400000000000000000000000000000000000000000000000000000000 DUP2 MSTORE PUSH1 0x4 ADD PUSH2 0x6BB SWAP2 SWAP1 PUSH2 0x1903 JUMP JUMPDEST PUSH1 0x40 MLOAD DUP1 SWAP2 SUB SWAP1 REVERT JUMPDEST PUSH1 0x3 PUSH0 DUP4 PUSH20 0xFFFFFFFFFFFFFFFFFFFFFFFFFFFFFFFFFFFFFFFF AND PUSH20 0xFFFFFFFFFFFFFFFFFFFFFFFFFFFFFFFFFFFFFFFF AND DUP2 MSTORE PUSH1 0x20 ADD SWAP1 DUP2 MSTORE PUSH1 0x20 ADD PUSH0 KECCAK256 SLOAD SWAP1 POP SWAP2 SWAP1 POP JUMP JUMPDEST PUSH2 0x711 PUSH2 0xCD2 JUMP JUMPDEST PUSH2 0x71A PUSH0 PUSH2 0xE4C JUMP JUMPDEST JUMP JUMPDEST PUSH0 PUSH1 0x6 PUSH0 SWAP1 SLOAD SWAP1 PUSH2 0x100 EXP SWAP1 DIV PUSH20 0xFFFFFFFFFFFFFFFFFFFFFFFFFFFFFFFFFFFFFFFF AND SWAP1 POP SWAP1 JUMP JUMPDEST PUSH1 0x60 PUSH1 0x1 DUP1 SLOAD PUSH2 0x753 SWAP1 PUSH2 0x1CA6 JUMP JUMPDEST DUP1 PUSH1 0x1F ADD PUSH1 0x20 DUP1 SWAP2 DIV MUL PUSH1 0x20 ADD PUSH1 0x40 MLOAD SWAP1 DUP2 ADD PUSH1 0x40 MSTORE DUP1 SWAP3 SWAP2 SWAP1 DUP2 DUP2 MSTORE PUSH1 0x20 ADD DUP3 DUP1 SLOAD PUSH2 0x77F SWAP1 PUSH2 0x1CA6 JUMP JUMPDEST DUP1 ISZERO PUSH2 0x7CA JUMPI DUP1 PUSH1 0x1F LT PUSH2 0x7A1 JUMPI PUSH2 0x100 DUP1 DUP4 SLOAD DIV MUL DUP4 MSTORE SWAP2 PUSH1 0x20 ADD SWAP2 PUSH2 0x7CA JUMP JUMPDEST DUP3 ADD SWAP2 SWAP1 PUSH0 MSTORE PUSH1 0x20 PUSH0 KECCAK256 SWAP1 JUMPDEST DUP2 SLOAD DUP2 MSTORE SWAP1 PUSH1 0x1 ADD SWAP1 PUSH1 0x20 ADD DUP1 DUP4 GT PUSH2 0x7AD JUMPI DUP3 SWAP1 SUB PUSH1 0x1F AND DUP3 ADD SWAP2 JUMPDEST POP POP POP POP POP SWAP1 POP SWAP1 JUMP JUMPDEST PUSH2 0x7E6 PUSH2 0x7DF PUSH2 0xAAE JUMP JUMPDEST DUP4 DUP4 PUSH2 0xF0F JUMP JUMPDEST POP POP JUMP JUMPDEST PUSH2 0x7F5 DUP5 DUP5 DUP5 PUSH2 0x4F6 JUMP JUMPDEST PUSH2 0x801 DUP5 DUP5 DUP5 DUP5 PUSH2 0x1078 JUMP JUMPDEST POP POP POP POP JUMP JUMPDEST PUSH1 0x60 PUSH2 0x812 DUP3 PUSH2 0x9EF JUMP JUMPDEST POP PUSH2 0x84E PUSH2 0x81E PUSH2 0x436 JUMP JUMPDEST PUSH2 0x826 PUSH2 0x436 JUMP JUMPDEST PUSH1 0x8 PUSH1 0x40 MLOAD PUSH1 0x20 ADD PUSH2 0x83A SWAP4 SWAP3 SWAP2 SWAP1 PUSH2 0x1FE3 JUMP JUMPDEST PUSH1 0x40 MLOAD PUSH1 0x20 DUP2 DUP4 SUB SUB DUP2 MSTORE SWAP1 PUSH1 0x40 MSTORE PUSH2 0x122A JUMP JUMPDEST PUSH1 0x40 MLOAD PUSH1 0x20 ADD PUSH2 0x85E SWAP2 SWAP1 PUSH2 0x2094 JUMP JUMPDEST PUSH1 0x40 MLOAD PUSH1 0x20 DUP2 DUP4 SUB SUB DUP2 MSTORE SWAP1 PUSH1 0x40 MSTORE SWAP1 POP SWAP2 SWAP1 POP JUMP JUMPDEST PUSH0 PUSH1 0x5 PUSH0 DUP5 PUSH20 0xFFFFFFFFFFFFFFFFFFFFFFFFFFFFFFFFFFFFFFFF AND PUSH20 0xFFFFFFFFFFFFFFFFFFFFFFFFFFFFFFFFFFFFFFFF AND DUP2 MSTORE PUSH1 0x20 ADD SWAP1 DUP2 MSTORE PUSH1 0x20 ADD PUSH0 KECCAK256 PUSH0 DUP4 PUSH20 0xFFFFFFFFFFFFFFFFFFFFFFFFFFFFFFFFFFFFFFFF AND PUSH20 0xFFFFFFFFFFFFFFFFFFFFFFFFFFFFFFFFFFFFFFFF AND DUP2 MSTORE PUSH1 0x20 ADD SWAP1 DUP2 MSTORE PUSH1 0x20 ADD PUSH0 KECCAK256 PUSH0 SWAP1 SLOAD SWAP1 PUSH2 0x100 EXP SWAP1 DIV PUSH1 0xFF AND SWAP1 POP SWAP3 SWAP2 POP POP JUMP JUMPDEST PUSH2 0x90A PUSH2 0xCD2 JUMP JUMPDEST PUSH0 PUSH20 0xFFFFFFFFFFFFFFFFFFFFFFFFFFFFFFFFFFFFFFFF AND DUP2 PUSH20 0xFFFFFFFFFFFFFFFFFFFFFFFFFFFFFFFFFFFFFFFF AND SUB PUSH2 0x97A JUMPI PUSH0 PUSH1 0x40 MLOAD PUSH32 0x1E4FBDF700000000000000000000000000000000000000000000000000000000 DUP2 MSTORE PUSH1 0x4 ADD PUSH2 0x971 SWAP2 SWAP1 PUSH2 0x1903 JUMP JUMPDEST PUSH1 0x40 MLOAD DUP1 SWAP2 SUB SWAP1 REVERT JUMPDEST PUSH2 0x983 DUP2 PUSH2 0xE4C JUMP JUMPDEST POP JUMP JUMPDEST PUSH0 PUSH32 0x1FFC9A700000000000000000000000000000000000000000000000000000000 PUSH28 0xFFFFFFFFFFFFFFFFFFFFFFFFFFFFFFFFFFFFFFFFFFFFFFFFFFFFFFFF NOT AND DUP3 PUSH28 0xFFFFFFFFFFFFFFFFFFFFFFFFFFFFFFFFFFFFFFFFFFFFFFFFFFFFFFFF NOT AND EQ SWAP1 POP SWAP2 SWAP1 POP JUMP JUMPDEST PUSH0 DUP1 PUSH2 0x9FA DUP4 PUSH2 0x1397 JUMP JUMPDEST SWAP1 POP PUSH0 PUSH20 0xFFFFFFFFFFFFFFFFFFFFFFFFFFFFFFFFFFFFFFFF AND DUP2 PUSH20 0xFFFFFFFFFFFFFFFFFFFFFFFFFFFFFFFFFFFFFFFF AND SUB PUSH2 0xA6C JUMPI DUP3 PUSH1 0x40 MLOAD PUSH32 0x7E27328900000000000000000000000000000000000000000000000000000000 DUP2 MSTORE PUSH1 0x4 ADD PUSH2 0xA63 SWAP2 SWAP1 PUSH2 0x1A0E JUMP JUMPDEST PUSH1 0x40 MLOAD DUP1 SWAP2 SUB SWAP1 REVERT JUMPDEST DUP1 SWAP2 POP POP SWAP2 SWAP1 POP JUMP JUMPDEST PUSH0 PUSH1 0x4 PUSH0 DUP4 DUP2 MSTORE PUSH1 0x20 ADD SWAP1 DUP2 MSTORE PUSH1 0x20 ADD PUSH0 KECCAK256 PUSH0 SWAP1 SLOAD SWAP1 PUSH2 0x100 EXP SWAP1 DIV PUSH20 0xFFFFFFFFFFFFFFFFFFFFFFFFFFFFFFFFFFFFFFFF AND SWAP1 POP SWAP2 SWAP1 POP JUMP JUMPDEST PUSH0 CALLER SWAP1 POP SWAP1 JUMP JUMPDEST PUSH2 0xAC2 DUP4 DUP4 DUP4 PUSH1 0x1 PUSH2 0x13D0 JUMP JUMPDEST POP POP POP JUMP JUMPDEST PUSH0 DUP1 PUSH2 0xAD2 DUP5 PUSH2 0x1397 JUMP JUMPDEST SWAP1 POP PUSH0 PUSH20 0xFFFFFFFFFFFFFFFFFFFFFFFFFFFFFFFFFFFFFFFF AND DUP4 PUSH20 0xFFFFFFFFFFFFFFFFFFFFFFFFFFFFFFFFFFFFFFFF AND EQ PUSH2 0xB13 JUMPI PUSH2 0xB12 DUP2 DUP5 DUP7 PUSH2 0x158F JUMP JUMPDEST JUMPDEST PUSH0 PUSH20 0xFFFFFFFFFFFFFFFFFFFFFFFFFFFFFFFFFFFFFFFF AND DUP2 PUSH20 0xFFFFFFFFFFFFFFFFFFFFFFFFFFFFFFFFFFFFFFFF AND EQ PUSH2 0xB9E JUMPI PUSH2 0xB52 PUSH0 DUP6 PUSH0 DUP1 PUSH2 0x13D0 JUMP JUMPDEST PUSH1 0x1 PUSH1 0x3 PUSH0 DUP4 PUSH20 0xFFFFFFFFFFFFFFFFFFFFFFFFFFFFFFFFFFFFFFFF AND PUSH20 0xFFFFFFFFFFFFFFFFFFFFFFFFFFFFFFFFFFFFFFFF AND DUP2 MSTORE PUSH1 0x20 ADD SWAP1 DUP2 MSTORE PUSH1 0x20 ADD PUSH0 KECCAK256 PUSH0 DUP3 DUP3 SLOAD SUB SWAP3 POP POP DUP2 SWAP1 SSTORE POP JUMPDEST PUSH0 PUSH20 0xFFFFFFFFFFFFFFFFFFFFFFFFFFFFFFFFFFFFFFFF AND DUP6 PUSH20 0xFFFFFFFFFFFFFFFFFFFFFFFFFFFFFFFFFFFFFFFF AND EQ PUSH2 0xC1D JUMPI PUSH1 0x1 PUSH1 0x3 PUSH0 DUP8 PUSH20 0xFFFFFFFFFFFFFFFFFFFFFFFFFFFFFFFFFFFFFFFF AND PUSH20 0xFFFFFFFFFFFFFFFFFFFFFFFFFFFFFFFFFFFFFFFF AND DUP2 MSTORE PUSH1 0x20 ADD SWAP1 DUP2 MSTORE PUSH1 0x20 ADD PUSH0 KECCAK256 PUSH0 DUP3 DUP3 SLOAD ADD SWAP3 POP POP DUP2 SWAP1 SSTORE POP JUMPDEST DUP5 PUSH1 0x2 PUSH0 DUP7 DUP2 MSTORE PUSH1 0x20 ADD SWAP1 DUP2 MSTORE PUSH1 0x20 ADD PUSH0 KECCAK256 PUSH0 PUSH2 0x100 EXP DUP2 SLOAD DUP2 PUSH20 0xFFFFFFFFFFFFFFFFFFFFFFFFFFFFFFFFFFFFFFFF MUL NOT AND SWAP1 DUP4 PUSH20 0xFFFFFFFFFFFFFFFFFFFFFFFFFFFFFFFFFFFFFFFF AND MUL OR SWAP1 SSTORE POP DUP4 DUP6 PUSH20 0xFFFFFFFFFFFFFFFFFFFFFFFFFFFFFFFFFFFFFFFF AND DUP3 PUSH20 0xFFFFFFFFFFFFFFFFFFFFFFFFFFFFFFFFFFFFFFFF AND PUSH32 0xDDF252AD1BE2C89B69C2B068FC378DAA952BA7F163C4A11628F55A4DF523B3EF PUSH1 0x40 MLOAD PUSH1 0x40 MLOAD DUP1 SWAP2 SUB SWAP1 LOG4 DUP1 SWAP2 POP POP SWAP4 SWAP3 POP POP POP JUMP JUMPDEST PUSH2 0xCDA PUSH2 0xAAE JUMP JUMPDEST PUSH20 0xFFFFFFFFFFFFFFFFFFFFFFFFFFFFFFFFFFFFFFFF AND PUSH2 0xCF8 PUSH2 0x71C JUMP JUMPDEST PUSH20 0xFFFFFFFFFFFFFFFFFFFFFFFFFFFFFFFFFFFFFFFF AND EQ PUSH2 0xD57 JUMPI PUSH2 0xD1B PUSH2 0xAAE JUMP JUMPDEST PUSH1 0x40 MLOAD PUSH32 0x118CDAA700000000000000000000000000000000000000000000000000000000 DUP2 MSTORE PUSH1 0x4 ADD PUSH2 0xD4E SWAP2 SWAP1 PUSH2 0x1903 JUMP JUMPDEST PUSH1 0x40 MLOAD DUP1 SWAP2 SUB SWAP1 REVERT JUMPDEST JUMP JUMPDEST PUSH0 PUSH20 0xFFFFFFFFFFFFFFFFFFFFFFFFFFFFFFFFFFFFFFFF AND DUP3 PUSH20 0xFFFFFFFFFFFFFFFFFFFFFFFFFFFFFFFFFFFFFFFF AND SUB PUSH2 0xDC9 JUMPI PUSH0 PUSH1 0x40 MLOAD PUSH32 0x64A0AE9200000000000000000000000000000000000000000000000000000000 DUP2 MSTORE PUSH1 0x4 ADD PUSH2 0xDC0 SWAP2 SWAP1 PUSH2 0x1903 JUMP JUMPDEST PUSH1 0x40 MLOAD DUP1 SWAP2 SUB SWAP1 REVERT JUMPDEST PUSH0 PUSH2 0xDD5 DUP4 DUP4 PUSH0 PUSH2 0xAC7 JUMP JUMPDEST SWAP1 POP PUSH0 PUSH20 0xFFFFFFFFFFFFFFFFFFFFFFFFFFFFFFFFFFFFFFFF AND DUP2 PUSH20 0xFFFFFFFFFFFFFFFFFFFFFFFFFFFFFFFFFFFFFFFF AND EQ PUSH2 0xE47 JUMPI PUSH0 PUSH1 0x40 MLOAD PUSH32 0x73C6AC6E00000000000000000000000000000000000000000000000000000000 DUP2 MSTORE PUSH1 0x4 ADD PUSH2 0xE3E SWAP2 SWAP1 PUSH2 0x1903 JUMP JUMPDEST PUSH1 0x40 MLOAD DUP1 SWAP2 SUB SWAP1 REVERT JUMPDEST POP POP POP JUMP JUMPDEST PUSH0 PUSH1 0x6 PUSH0 SWAP1 SLOAD SWAP1 PUSH2 0x100 EXP SWAP1 DIV PUSH20 0xFFFFFFFFFFFFFFFFFFFFFFFFFFFFFFFFFFFFFFFF AND SWAP1 POP DUP2 PUSH1 0x6 PUSH0 PUSH2 0x100 EXP DUP2 SLOAD DUP2 PUSH20 0xFFFFFFFFFFFFFFFFFFFFFFFFFFFFFFFFFFFFFFFF MUL NOT AND SWAP1 DUP4 PUSH20 0xFFFFFFFFFFFFFFFFFFFFFFFFFFFFFFFFFFFFFFFF AND MUL OR SWAP1 SSTORE POP DUP2 PUSH20 0xFFFFFFFFFFFFFFFFFFFFFFFFFFFFFFFFFFFFFFFF AND DUP2 PUSH20 0xFFFFFFFFFFFFFFFFFFFFFFFFFFFFFFFFFFFFFFFF AND PUSH32 0x8BE0079C531659141344CD1FD0A4F28419497F9722A3DAAFE3B4186F6B6457E0 PUSH1 0x40 MLOAD PUSH1 0x40 MLOAD DUP1 SWAP2 SUB SWAP1 LOG3 POP POP JUMP JUMPDEST PUSH0 PUSH20 0xFFFFFFFFFFFFFFFFFFFFFFFFFFFFFFFFFFFFFFFF AND DUP3 PUSH20 0xFFFFFFFFFFFFFFFFFFFFFFFFFFFFFFFFFFFFFFFF AND SUB PUSH2 0xF7F JUMPI DUP2 PUSH1 0x40 MLOAD PUSH32 0x5B08BA1800000000000000000000000000000000000000000000000000000000 DUP2 MSTORE PUSH1 0x4 ADD PUSH2 0xF76 SWAP2 SWAP1 PUSH2 0x1903 JUMP JUMPDEST PUSH1 0x40 MLOAD DUP1 SWAP2 SUB SWAP1 REVERT JUMPDEST DUP1 PUSH1 0x5 PUSH0 DUP6 PUSH20 0xFFFFFFFFFFFFFFFFFFFFFFFFFFFFFFFFFFFFFFFF AND PUSH20 0xFFFFFFFFFFFFFFFFFFFFFFFFFFFFFFFFFFFFFFFF AND DUP2 MSTORE PUSH1 0x20 ADD SWAP1 DUP2 MSTORE PUSH1 0x20 ADD PUSH0 KECCAK256 PUSH0 DUP5 PUSH20 0xFFFFFFFFFFFFFFFFFFFFFFFFFFFFFFFFFFFFFFFF AND PUSH20 0xFFFFFFFFFFFFFFFFFFFFFFFFFFFFFFFFFFFFFFFF AND DUP2 MSTORE PUSH1 0x20 ADD SWAP1 DUP2 MSTORE PUSH1 0x20 ADD PUSH0 KECCAK256 PUSH0 PUSH2 0x100 EXP DUP2 SLOAD DUP2 PUSH1 0xFF MUL NOT AND SWAP1 DUP4 ISZERO ISZERO MUL OR SWAP1 SSTORE POP DUP2 PUSH20 0xFFFFFFFFFFFFFFFFFFFFFFFFFFFFFFFFFFFFFFFF AND DUP4 PUSH20 0xFFFFFFFFFFFFFFFFFFFFFFFFFFFFFFFFFFFFFFFF AND PUSH32 0x17307EAB39AB6107E8899845AD3D59BD9653F200F220920489CA2B5937696C31 DUP4 PUSH1 0x40 MLOAD PUSH2 0x106B SWAP2 SWAP1 PUSH2 0x17BD JUMP JUMPDEST PUSH1 0x40 MLOAD DUP1 SWAP2 SUB SWAP1 LOG3 POP POP POP JUMP JUMPDEST PUSH0 DUP4 PUSH20 0xFFFFFFFFFFFFFFFFFFFFFFFFFFFFFFFFFFFFFFFF AND EXTCODESIZE GT ISZERO PUSH2 0x1224 JUMPI DUP3 PUSH20 0xFFFFFFFFFFFFFFFFFFFFFFFFFFFFFFFFFFFFFFFF AND PUSH4 0x150B7A02 PUSH2 0x10BB PUSH2 0xAAE JUMP JUMPDEST DUP7 DUP6 DUP6 PUSH1 0x40 MLOAD DUP6 PUSH4 0xFFFFFFFF AND PUSH1 0xE0 SHL DUP2 MSTORE PUSH1 0x4 ADD PUSH2 0x10DD SWAP5 SWAP4 SWAP3 SWAP2 SWAP1 PUSH2 0x2107 JUMP JUMPDEST PUSH1 0x20 PUSH1 0x40 MLOAD DUP1 DUP4 SUB DUP2 PUSH0 DUP8 GAS CALL SWAP3 POP POP POP DUP1 ISZERO PUSH2 0x1118 JUMPI POP PUSH1 0x40 MLOAD RETURNDATASIZE PUSH1 0x1F NOT PUSH1 0x1F DUP3 ADD AND DUP3 ADD DUP1 PUSH1 0x40 MSTORE POP DUP2 ADD SWAP1 PUSH2 0x1115 SWAP2 SWAP1 PUSH2 0x2165 JUMP JUMPDEST PUSH1 0x1 JUMPDEST PUSH2 0x1199 JUMPI RETURNDATASIZE DUP1 PUSH0 DUP2 EQ PUSH2 0x1146 JUMPI PUSH1 0x40 MLOAD SWAP2 POP PUSH1 0x1F NOT PUSH1 0x3F RETURNDATASIZE ADD AND DUP3 ADD PUSH1 0x40 MSTORE RETURNDATASIZE DUP3 MSTORE RETURNDATASIZE PUSH0 PUSH1 0x20 DUP5 ADD RETURNDATACOPY PUSH2 0x114B JUMP JUMPDEST PUSH1 0x60 SWAP2 POP JUMPDEST POP PUSH0 DUP2 MLOAD SUB PUSH2 0x1191 JUMPI DUP4 PUSH1 0x40 MLOAD PUSH32 0x64A0AE9200000000000000000000000000000000000000000000000000000000 DUP2 MSTORE PUSH1 0x4 ADD PUSH2 0x1188 SWAP2 SWAP1 PUSH2 0x1903 JUMP JUMPDEST PUSH1 0x40 MLOAD DUP1 SWAP2 SUB SWAP1 REVERT JUMPDEST DUP1 MLOAD DUP2 PUSH1 0x20 ADD REVERT JUMPDEST PUSH4 0x150B7A02 PUSH1 0xE0 SHL PUSH28 0xFFFFFFFFFFFFFFFFFFFFFFFFFFFFFFFFFFFFFFFFFFFFFFFFFFFFFFFF NOT AND DUP2 PUSH28 0xFFFFFFFFFFFFFFFFFFFFFFFFFFFFFFFFFFFFFFFFFFFFFFFFFFFFFFFF NOT AND EQ PUSH2 0x1222 JUMPI DUP4 PUSH1 0x40 MLOAD PUSH32 0x64A0AE9200000000000000000000000000000000000000000000000000000000 DUP2 MSTORE PUSH1 0x4 ADD PUSH2 0x1219 SWAP2 SWAP1 PUSH2 0x1903 JUMP JUMPDEST PUSH1 0x40 MLOAD DUP1 SWAP2 SUB SWAP1 REVERT JUMPDEST POP JUMPDEST POP POP POP POP JUMP JUMPDEST PUSH1 0x60 PUSH0 DUP3 MLOAD SUB PUSH2 0x124A JUMPI PUSH1 0x40 MLOAD DUP1 PUSH1 0x20 ADD PUSH1 0x40 MSTORE DUP1 PUSH0 DUP2 MSTORE POP SWAP1 POP PUSH2 0x1392 JUMP JUMPDEST PUSH0 PUSH1 0x40 MLOAD DUP1 PUSH1 0x60 ADD PUSH1 0x40 MSTORE DUP1 PUSH1 0x40 DUP2 MSTORE PUSH1 0x20 ADD PUSH2 0x2289 PUSH1 0x40 SWAP2 CODECOPY SWAP1 POP PUSH0 PUSH1 0x3 PUSH1 0x2 DUP6 MLOAD PUSH2 0x1277 SWAP2 SWAP1 PUSH2 0x2190 JUMP JUMPDEST PUSH2 0x1281 SWAP2 SWAP1 PUSH2 0x21F0 JUMP JUMPDEST PUSH1 0x4 PUSH2 0x128D SWAP2 SWAP1 PUSH2 0x2220 JUMP JUMPDEST PUSH8 0xFFFFFFFFFFFFFFFF DUP2 GT ISZERO PUSH2 0x12A6 JUMPI PUSH2 0x12A5 PUSH2 0x1A97 JUMP JUMPDEST JUMPDEST PUSH1 0x40 MLOAD SWAP1 DUP1 DUP3 MSTORE DUP1 PUSH1 0x1F ADD PUSH1 0x1F NOT AND PUSH1 0x20 ADD DUP3 ADD PUSH1 0x40 MSTORE DUP1 ISZERO PUSH2 0x12D8 JUMPI DUP2 PUSH1 0x20 ADD PUSH1 0x1 DUP3 MUL DUP1 CALLDATASIZE DUP4 CALLDATACOPY DUP1 DUP3 ADD SWAP2 POP POP SWAP1 POP JUMPDEST POP SWAP1 POP PUSH1 0x1 DUP3 ADD PUSH1 0x20 DUP3 ADD DUP6 DUP7 MLOAD DUP8 ADD PUSH1 0x20 DUP2 ADD DUP1 MLOAD PUSH0 DUP3 MSTORE JUMPDEST DUP3 DUP5 LT ISZERO PUSH2 0x134D JUMPI PUSH1 0x3 DUP5 ADD SWAP4 POP DUP4 MLOAD PUSH1 0x3F DUP2 PUSH1 0x12 SHR AND DUP8 ADD MLOAD DUP7 MSTORE8 PUSH1 0x1 DUP7 ADD SWAP6 POP PUSH1 0x3F DUP2 PUSH1 0xC SHR AND DUP8 ADD MLOAD DUP7 MSTORE8 PUSH1 0x1 DUP7 ADD SWAP6 POP PUSH1 0x3F DUP2 PUSH1 0x6 SHR AND DUP8 ADD MLOAD DUP7 MSTORE8 PUSH1 0x1 DUP7 ADD SWAP6 POP PUSH1 0x3F DUP2 AND DUP8 ADD MLOAD DUP7 MSTORE8 PUSH1 0x1 DUP7 ADD SWAP6 POP POP PUSH2 0x12F2 JUMP JUMPDEST DUP1 DUP3 MSTORE PUSH1 0x3 DUP11 MLOAD MOD PUSH1 0x1 DUP2 EQ PUSH2 0x136A JUMPI PUSH1 0x2 DUP2 EQ PUSH2 0x137D JUMPI PUSH2 0x1385 JUMP JUMPDEST PUSH1 0x3D PUSH1 0x1 DUP8 SUB MSTORE8 PUSH1 0x3D PUSH1 0x2 DUP8 SUB MSTORE8 PUSH2 0x1385 JUMP JUMPDEST PUSH1 0x3D PUSH1 0x1 DUP8 SUB MSTORE8 JUMPDEST POP POP POP POP POP POP POP DUP1 SWAP3 POP POP POP JUMPDEST SWAP2 SWAP1 POP JUMP JUMPDEST PUSH0 PUSH1 0x2 PUSH0 DUP4 DUP2 MSTORE PUSH1 0x20 ADD SWAP1 DUP2 MSTORE PUSH1 0x20 ADD PUSH0 KECCAK256 PUSH0 SWAP1 SLOAD SWAP1 PUSH2 0x100 EXP SWAP1 DIV PUSH20 0xFFFFFFFFFFFFFFFFFFFFFFFFFFFFFFFFFFFFFFFF AND SWAP1 POP SWAP2 SWAP1 POP JUMP JUMPDEST DUP1 DUP1 PUSH2 0x1408 JUMPI POP PUSH0 PUSH20 0xFFFFFFFFFFFFFFFFFFFFFFFFFFFFFFFFFFFFFFFF AND DUP3 PUSH20 0xFFFFFFFFFFFFFFFFFFFFFFFFFFFFFFFFFFFFFFFF AND EQ ISZERO JUMPDEST ISZERO PUSH2 0x153A JUMPI PUSH0 PUSH2 0x1417 DUP5 PUSH2 0x9EF JUMP JUMPDEST SWAP1 POP PUSH0 PUSH20 0xFFFFFFFFFFFFFFFFFFFFFFFFFFFFFFFFFFFFFFFF AND DUP4 PUSH20 0xFFFFFFFFFFFFFFFFFFFFFFFFFFFFFFFFFFFFFFFF AND EQ ISZERO DUP1 ISZERO PUSH2 0x1481 JUMPI POP DUP3 PUSH20 0xFFFFFFFFFFFFFFFFFFFFFFFFFFFFFFFFFFFFFFFF AND DUP2 PUSH20 0xFFFFFFFFFFFFFFFFFFFFFFFFFFFFFFFFFFFFFFFF AND EQ ISZERO JUMPDEST DUP1 ISZERO PUSH2 0x1494 JUMPI POP PUSH2 0x1492 DUP2 DUP5 PUSH2 0x874 JUMP JUMPDEST ISZERO JUMPDEST ISZERO PUSH2 0x14D6 JUMPI DUP3 PUSH1 0x40 MLOAD PUSH32 0xA9FBF51F00000000000000000000000000000000000000000000000000000000 DUP2 MSTORE PUSH1 0x4 ADD PUSH2 0x14CD SWAP2 SWAP1 PUSH2 0x1903 JUMP JUMPDEST PUSH1 0x40 MLOAD DUP1 SWAP2 SUB SWAP1 REVERT JUMPDEST DUP2 ISZERO PUSH2 0x1538 JUMPI DUP4 DUP6 PUSH20 0xFFFFFFFFFFFFFFFFFFFFFFFFFFFFFFFFFFFFFFFF AND DUP3 PUSH20 0xFFFFFFFFFFFFFFFFFFFFFFFFFFFFFFFFFFFFFFFF AND PUSH32 0x8C5BE1E5EBEC7D5BD14F71427D1E84F3DD0314C0F7B2291E5B200AC8C7C3B925 PUSH1 0x40 MLOAD PUSH1 0x40 MLOAD DUP1 SWAP2 SUB SWAP1 LOG4 JUMPDEST POP JUMPDEST DUP4 PUSH1 0x4 PUSH0 DUP6 DUP2 MSTORE PUSH1 0x20 ADD SWAP1 DUP2 MSTORE PUSH1 0x20 ADD PUSH0 KECCAK256 PUSH0 PUSH2 0x100 EXP DUP2 SLOAD DUP2 PUSH20 0xFFFFFFFFFFFFFFFFFFFFFFFFFFFFFFFFFFFFFFFF MUL NOT AND SWAP1 DUP4 PUSH20 0xFFFFFFFFFFFFFFFFFFFFFFFFFFFFFFFFFFFFFFFF AND MUL OR SWAP1 SSTORE POP POP POP POP POP JUMP JUMPDEST PUSH2 0x159A DUP4 DUP4 DUP4 PUSH2 0x1652 JUMP JUMPDEST PUSH2 0x164D JUMPI PUSH0 PUSH20 0xFFFFFFFFFFFFFFFFFFFFFFFFFFFFFFFFFFFFFFFF AND DUP4 PUSH20 0xFFFFFFFFFFFFFFFFFFFFFFFFFFFFFFFFFFFFFFFF AND SUB PUSH2 0x160E JUMPI DUP1 PUSH1 0x40 MLOAD PUSH32 0x7E27328900000000000000000000000000000000000000000000000000000000 DUP2 MSTORE PUSH1 0x4 ADD PUSH2 0x1605 SWAP2 SWAP1 PUSH2 0x1A0E JUMP JUMPDEST PUSH1 0x40 MLOAD DUP1 SWAP2 SUB SWAP1 REVERT JUMPDEST DUP2 DUP2 PUSH1 0x40 MLOAD PUSH32 0x177E802F00000000000000000000000000000000000000000000000000000000 DUP2 MSTORE PUSH1 0x4 ADD PUSH2 0x1644 SWAP3 SWAP2 SWAP1 PUSH2 0x2261 JUMP JUMPDEST PUSH1 0x40 MLOAD DUP1 SWAP2 SUB SWAP1 REVERT JUMPDEST POP POP POP JUMP JUMPDEST PUSH0 DUP1 PUSH20 0xFFFFFFFFFFFFFFFFFFFFFFFFFFFFFFFFFFFFFFFF AND DUP4 PUSH20 0xFFFFFFFFFFFFFFFFFFFFFFFFFFFFFFFFFFFFFFFF AND EQ ISZERO DUP1 ISZERO PUSH2 0x1709 JUMPI POP DUP3 PUSH20 0xFFFFFFFFFFFFFFFFFFFFFFFFFFFFFFFFFFFFFFFF AND DUP5 PUSH20 0xFFFFFFFFFFFFFFFFFFFFFFFFFFFFFFFFFFFFFFFF AND EQ DUP1 PUSH2 0x16CA JUMPI POP PUSH2 0x16C9 DUP5 DUP5 PUSH2 0x874 JUMP JUMPDEST JUMPDEST DUP1 PUSH2 0x1708 JUMPI POP DUP3 PUSH20 0xFFFFFFFFFFFFFFFFFFFFFFFFFFFFFFFFFFFFFFFF AND PUSH2 0x16F0 DUP4 PUSH2 0xA75 JUMP JUMPDEST PUSH20 0xFFFFFFFFFFFFFFFFFFFFFFFFFFFFFFFFFFFFFFFF AND EQ JUMPDEST JUMPDEST SWAP1 POP SWAP4 SWAP3 POP POP POP JUMP JUMPDEST PUSH0 PUSH1 0x40 MLOAD SWAP1 POP SWAP1 JUMP JUMPDEST PUSH0 DUP1 REVERT JUMPDEST PUSH0 DUP1 REVERT JUMPDEST PUSH0 PUSH32 0xFFFFFFFF00000000000000000000000000000000000000000000000000000000 DUP3 AND SWAP1 POP SWAP2 SWAP1 POP JUMP JUMPDEST PUSH2 0x1757 DUP2 PUSH2 0x1723 JUMP JUMPDEST DUP2 EQ PUSH2 0x1761 JUMPI PUSH0 DUP1 REVERT JUMPDEST POP JUMP JUMPDEST PUSH0 DUP2 CALLDATALOAD SWAP1 POP PUSH2 0x1772 DUP2 PUSH2 0x174E JUMP JUMPDEST SWAP3 SWAP2 POP POP JUMP JUMPDEST PUSH0 PUSH1 0x20 DUP3 DUP5 SUB SLT ISZERO PUSH2 0x178D JUMPI PUSH2 0x178C PUSH2 0x171B JUMP JUMPDEST JUMPDEST PUSH0 PUSH2 0x179A DUP5 DUP3 DUP6 ADD PUSH2 0x1764 JUMP JUMPDEST SWAP2 POP POP SWAP3 SWAP2 POP POP JUMP JUMPDEST PUSH0 DUP2 ISZERO ISZERO SWAP1 POP SWAP2 SWAP1 POP JUMP JUMPDEST PUSH2 0x17B7 DUP2 PUSH2 0x17A3 JUMP JUMPDEST DUP3 MSTORE POP POP JUMP JUMPDEST PUSH0 PUSH1 0x20 DUP3 ADD SWAP1 POP PUSH2 0x17D0 PUSH0 DUP4 ADD DUP5 PUSH2 0x17AE JUMP JUMPDEST SWAP3 SWAP2 POP POP JUMP JUMPDEST PUSH0 DUP2 MLOAD SWAP1 POP SWAP2 SWAP1 POP JUMP JUMPDEST PUSH0 DUP3 DUP3 MSTORE PUSH1 0x20 DUP3 ADD SWAP1 POP SWAP3 SWAP2 POP POP JUMP JUMPDEST DUP3 DUP2 DUP4 MCOPY PUSH0 DUP4 DUP4 ADD MSTORE POP POP POP JUMP JUMPDEST PUSH0 PUSH1 0x1F NOT PUSH1 0x1F DUP4 ADD AND SWAP1 POP SWAP2 SWAP1 POP JUMP JUMPDEST PUSH0 PUSH2 0x1818 DUP3 PUSH2 0x17D6 JUMP JUMPDEST PUSH2 0x1822 DUP2 DUP6 PUSH2 0x17E0 JUMP JUMPDEST SWAP4 POP PUSH2 0x1832 DUP2 DUP6 PUSH1 0x20 DUP7 ADD PUSH2 0x17F0 JUMP JUMPDEST PUSH2 0x183B DUP2 PUSH2 0x17FE JUMP JUMPDEST DUP5 ADD SWAP2 POP POP SWAP3 SWAP2 POP POP JUMP JUMPDEST PUSH0 PUSH1 0x20 DUP3 ADD SWAP1 POP DUP2 DUP2 SUB PUSH0 DUP4 ADD MSTORE PUSH2 0x185E DUP2 DUP5 PUSH2 0x180E JUMP JUMPDEST SWAP1 POP SWAP3 SWAP2 POP POP JUMP JUMPDEST PUSH0 DUP2 SWAP1 POP SWAP2 SWAP1 POP JUMP JUMPDEST PUSH2 0x1878 DUP2 PUSH2 0x1866 JUMP JUMPDEST DUP2 EQ PUSH2 0x1882 JUMPI PUSH0 DUP1 REVERT JUMPDEST POP JUMP JUMPDEST PUSH0 DUP2 CALLDATALOAD SWAP1 POP PUSH2 0x1893 DUP2 PUSH2 0x186F JUMP JUMPDEST SWAP3 SWAP2 POP POP JUMP JUMPDEST PUSH0 PUSH1 0x20 DUP3 DUP5 SUB SLT ISZERO PUSH2 0x18AE JUMPI PUSH2 0x18AD PUSH2 0x171B JUMP JUMPDEST JUMPDEST PUSH0 PUSH2 0x18BB DUP5 DUP3 DUP6 ADD PUSH2 0x1885 JUMP JUMPDEST SWAP2 POP POP SWAP3 SWAP2 POP POP JUMP JUMPDEST PUSH0 PUSH20 0xFFFFFFFFFFFFFFFFFFFFFFFFFFFFFFFFFFFFFFFF DUP3 AND SWAP1 POP SWAP2 SWAP1 POP JUMP JUMPDEST PUSH0 PUSH2 0x18ED DUP3 PUSH2 0x18C4 JUMP JUMPDEST SWAP1 POP SWAP2 SWAP1 POP JUMP JUMPDEST PUSH2 0x18FD DUP2 PUSH2 0x18E3 JUMP JUMPDEST DUP3 MSTORE POP POP JUMP JUMPDEST PUSH0 PUSH1 0x20 DUP3 ADD SWAP1 POP PUSH2 0x1916 PUSH0 DUP4 ADD DUP5 PUSH2 0x18F4 JUMP JUMPDEST SWAP3 SWAP2 POP POP JUMP JUMPDEST PUSH2 0x1925 DUP2 PUSH2 0x18E3 JUMP JUMPDEST DUP2 EQ PUSH2 0x192F JUMPI PUSH0 DUP1 REVERT JUMPDEST POP JUMP JUMPDEST PUSH0 DUP2 CALLDATALOAD SWAP1 POP PUSH2 0x1940 DUP2 PUSH2 0x191C JUMP JUMPDEST SWAP3 SWAP2 POP POP JUMP JUMPDEST PUSH0 DUP1 PUSH1 0x40 DUP4 DUP6 SUB SLT ISZERO PUSH2 0x195C JUMPI PUSH2 0x195B PUSH2 0x171B JUMP JUMPDEST JUMPDEST PUSH0 PUSH2 0x1969 DUP6 DUP3 DUP7 ADD PUSH2 0x1932 JUMP JUMPDEST SWAP3 POP POP PUSH1 0x20 PUSH2 0x197A DUP6 DUP3 DUP7 ADD PUSH2 0x1885 JUMP JUMPDEST SWAP2 POP POP SWAP3 POP SWAP3 SWAP1 POP JUMP JUMPDEST PUSH0 DUP1 PUSH0 PUSH1 0x60 DUP5 DUP7 SUB SLT ISZERO PUSH2 0x199B JUMPI PUSH2 0x199A PUSH2 0x171B JUMP JUMPDEST JUMPDEST PUSH0 PUSH2 0x19A8 DUP7 DUP3 DUP8 ADD PUSH2 0x1932 JUMP JUMPDEST SWAP4 POP POP PUSH1 0x20 PUSH2 0x19B9 DUP7 DUP3 DUP8 ADD PUSH2 0x1932 JUMP JUMPDEST SWAP3 POP POP PUSH1 0x40 PUSH2 0x19CA DUP7 DUP3 DUP8 ADD PUSH2 0x1885 JUMP JUMPDEST SWAP2 POP POP SWAP3 POP SWAP3 POP SWAP3 JUMP JUMPDEST PUSH0 PUSH1 0x20 DUP3 DUP5 SUB SLT ISZERO PUSH2 0x19E9 JUMPI PUSH2 0x19E8 PUSH2 0x171B JUMP JUMPDEST JUMPDEST PUSH0 PUSH2 0x19F6 DUP5 DUP3 DUP6 ADD PUSH2 0x1932 JUMP JUMPDEST SWAP2 POP POP SWAP3 SWAP2 POP POP JUMP JUMPDEST PUSH2 0x1A08 DUP2 PUSH2 0x1866 JUMP JUMPDEST DUP3 MSTORE POP POP JUMP JUMPDEST PUSH0 PUSH1 0x20 DUP3 ADD SWAP1 POP PUSH2 0x1A21 PUSH0 DUP4 ADD DUP5 PUSH2 0x19FF JUMP JUMPDEST SWAP3 SWAP2 POP POP JUMP JUMPDEST PUSH2 0x1A30 DUP2 PUSH2 0x17A3 JUMP JUMPDEST DUP2 EQ PUSH2 0x1A3A JUMPI PUSH0 DUP1 REVERT JUMPDEST POP JUMP JUMPDEST PUSH0 DUP2 CALLDATALOAD SWAP1 POP PUSH2 0x1A4B DUP2 PUSH2 0x1A27 JUMP JUMPDEST SWAP3 SWAP2 POP POP JUMP JUMPDEST PUSH0 DUP1 PUSH1 0x40 DUP4 DUP6 SUB SLT ISZERO PUSH2 0x1A67 JUMPI PUSH2 0x1A66 PUSH2 0x171B JUMP JUMPDEST JUMPDEST PUSH0 PUSH2 0x1A74 DUP6 DUP3 DUP7 ADD PUSH2 0x1932 JUMP JUMPDEST SWAP3 POP POP PUSH1 0x20 PUSH2 0x1A85 DUP6 DUP3 DUP7 ADD PUSH2 0x1A3D JUMP JUMPDEST SWAP2 POP POP SWAP3 POP SWAP3 SWAP1 POP JUMP JUMPDEST PUSH0 DUP1 REVERT JUMPDEST PUSH0 DUP1 REVERT JUMPDEST PUSH32 0x4E487B7100000000000000000000000000000000000000000000000000000000 PUSH0 MSTORE PUSH1 0x41 PUSH1 0x4 MSTORE PUSH1 0x24 PUSH0 REVERT JUMPDEST PUSH2 0x1ACD DUP3 PUSH2 0x17FE JUMP JUMPDEST DUP2 ADD DUP2 DUP2 LT PUSH8 0xFFFFFFFFFFFFFFFF DUP3 GT OR ISZERO PUSH2 0x1AEC JUMPI PUSH2 0x1AEB PUSH2 0x1A97 JUMP JUMPDEST JUMPDEST DUP1 PUSH1 0x40 MSTORE POP POP POP JUMP JUMPDEST PUSH0 PUSH2 0x1AFE PUSH2 0x1712 JUMP JUMPDEST SWAP1 POP PUSH2 0x1B0A DUP3 DUP3 PUSH2 0x1AC4 JUMP JUMPDEST SWAP2 SWAP1 POP JUMP JUMPDEST PUSH0 PUSH8 0xFFFFFFFFFFFFFFFF DUP3 GT ISZERO PUSH2 0x1B29 JUMPI PUSH2 0x1B28 PUSH2 0x1A97 JUMP JUMPDEST JUMPDEST PUSH2 0x1B32 DUP3 PUSH2 0x17FE JUMP JUMPDEST SWAP1 POP PUSH1 0x20 DUP2 ADD SWAP1 POP SWAP2 SWAP1 POP JUMP JUMPDEST DUP3 DUP2 DUP4 CALLDATACOPY PUSH0 DUP4 DUP4 ADD MSTORE POP POP POP JUMP JUMPDEST PUSH0 PUSH2 0x1B5F PUSH2 0x1B5A DUP5 PUSH2 0x1B0F JUMP JUMPDEST PUSH2 0x1AF5 JUMP JUMPDEST SWAP1 POP DUP3 DUP2 MSTORE PUSH1 0x20 DUP2 ADD DUP5 DUP5 DUP5 ADD GT ISZERO PUSH2 0x1B7B JUMPI PUSH2 0x1B7A PUSH2 0x1A93 JUMP JUMPDEST JUMPDEST PUSH2 0x1B86 DUP5 DUP3 DUP6 PUSH2 0x1B3F JUMP JUMPDEST POP SWAP4 SWAP3 POP POP POP JUMP JUMPDEST PUSH0 DUP3 PUSH1 0x1F DUP4 ADD SLT PUSH2 0x1BA2 JUMPI PUSH2 0x1BA1 PUSH2 0x1A8F JUMP JUMPDEST JUMPDEST DUP2 CALLDATALOAD PUSH2 0x1BB2 DUP5 DUP3 PUSH1 0x20 DUP7 ADD PUSH2 0x1B4D JUMP JUMPDEST SWAP2 POP POP SWAP3 SWAP2 POP POP JUMP JUMPDEST PUSH0 DUP1 PUSH0 DUP1 PUSH1 0x80 DUP6 DUP8 SUB SLT ISZERO PUSH2 0x1BD3 JUMPI PUSH2 0x1BD2 PUSH2 0x171B JUMP JUMPDEST JUMPDEST PUSH0 PUSH2 0x1BE0 DUP8 DUP3 DUP9 ADD PUSH2 0x1932 JUMP JUMPDEST SWAP5 POP POP PUSH1 0x20 PUSH2 0x1BF1 DUP8 DUP3 DUP9 ADD PUSH2 0x1932 JUMP JUMPDEST SWAP4 POP POP PUSH1 0x40 PUSH2 0x1C02 DUP8 DUP3 DUP9 ADD PUSH2 0x1885 JUMP JUMPDEST SWAP3 POP POP PUSH1 0x60 DUP6 ADD CALLDATALOAD PUSH8 0xFFFFFFFFFFFFFFFF DUP2 GT ISZERO PUSH2 0x1C23 JUMPI PUSH2 0x1C22 PUSH2 0x171F JUMP JUMPDEST JUMPDEST PUSH2 0x1C2F DUP8 DUP3 DUP9 ADD PUSH2 0x1B8E JUMP JUMPDEST SWAP2 POP POP SWAP3 SWAP6 SWAP2 SWAP5 POP SWAP3 POP JUMP JUMPDEST PUSH0 DUP1 PUSH1 0x40 DUP4 DUP6 SUB SLT ISZERO PUSH2 0x1C51 JUMPI PUSH2 0x1C50 PUSH2 0x171B JUMP JUMPDEST JUMPDEST PUSH0 PUSH2 0x1C5E DUP6 DUP3 DUP7 ADD PUSH2 0x1932 JUMP JUMPDEST SWAP3 POP POP PUSH1 0x20 PUSH2 0x1C6F DUP6 DUP3 DUP7 ADD PUSH2 0x1932 JUMP JUMPDEST SWAP2 POP POP SWAP3 POP SWAP3 SWAP1 POP JUMP JUMPDEST PUSH32 0x4E487B7100000000000000000000000000000000000000000000000000000000 PUSH0 MSTORE PUSH1 0x22 PUSH1 0x4 MSTORE PUSH1 0x24 PUSH0 REVERT JUMPDEST PUSH0 PUSH1 0x2 DUP3 DIV SWAP1 POP PUSH1 0x1 DUP3 AND DUP1 PUSH2 0x1CBD JUMPI PUSH1 0x7F DUP3 AND SWAP2 POP JUMPDEST PUSH1 0x20 DUP3 LT DUP2 SUB PUSH2 0x1CD0 JUMPI PUSH2 0x1CCF PUSH2 0x1C79 JUMP JUMPDEST JUMPDEST POP SWAP2 SWAP1 POP JUMP JUMPDEST PUSH0 PUSH1 0x60 DUP3 ADD SWAP1 POP PUSH2 0x1CE9 PUSH0 DUP4 ADD DUP7 PUSH2 0x18F4 JUMP JUMPDEST PUSH2 0x1CF6 PUSH1 0x20 DUP4 ADD DUP6 PUSH2 0x19FF JUMP JUMPDEST PUSH2 0x1D03 PUSH1 0x40 DUP4 ADD DUP5 PUSH2 0x18F4 JUMP JUMPDEST SWAP5 SWAP4 POP POP POP POP JUMP JUMPDEST PUSH32 0x4E487B7100000000000000000000000000000000000000000000000000000000 PUSH0 MSTORE PUSH1 0x11 PUSH1 0x4 MSTORE PUSH1 0x24 PUSH0 REVERT JUMPDEST PUSH0 PUSH2 0x1D42 DUP3 PUSH2 0x1866 JUMP JUMPDEST SWAP2 POP PUSH32 0xFFFFFFFFFFFFFFFFFFFFFFFFFFFFFFFFFFFFFFFFFFFFFFFFFFFFFFFFFFFFFFFF DUP3 SUB PUSH2 0x1D74 JUMPI PUSH2 0x1D73 PUSH2 0x1D0B JUMP JUMPDEST JUMPDEST PUSH1 0x1 DUP3 ADD SWAP1 POP SWAP2 SWAP1 POP JUMP JUMPDEST PUSH0 DUP2 SWAP1 POP SWAP3 SWAP2 POP POP JUMP JUMPDEST PUSH32 0x7B226E616D65223A220000000000000000000000000000000000000000000000 PUSH0 DUP3 ADD MSTORE POP JUMP JUMPDEST PUSH0 PUSH2 0x1DBD PUSH1 0x9 DUP4 PUSH2 0x1D7F JUMP JUMPDEST SWAP2 POP PUSH2 0x1DC8 DUP3 PUSH2 0x1D89 JUMP JUMPDEST PUSH1 0x9 DUP3 ADD SWAP1 POP SWAP2 SWAP1 POP JUMP JUMPDEST PUSH0 PUSH2 0x1DDD DUP3 PUSH2 0x17D6 JUMP JUMPDEST PUSH2 0x1DE7 DUP2 DUP6 PUSH2 0x1D7F JUMP JUMPDEST SWAP4 POP PUSH2 0x1DF7 DUP2 DUP6 PUSH1 0x20 DUP7 ADD PUSH2 0x17F0 JUMP JUMPDEST DUP1 DUP5 ADD SWAP2 POP POP SWAP3 SWAP2 POP POP JUMP JUMPDEST PUSH32 0x222C20226465736372697074696F6E223A22416E204E46542074686174207265 PUSH0 DUP3 ADD MSTORE PUSH32 0x666C6563747320746865206F776E657273686970206F662067616D65202D2000 PUSH1 0x20 DUP3 ADD MSTORE POP JUMP JUMPDEST PUSH0 PUSH2 0x1E5D PUSH1 0x3F DUP4 PUSH2 0x1D7F JUMP JUMPDEST SWAP2 POP PUSH2 0x1E68 DUP3 PUSH2 0x1E03 JUMP JUMPDEST PUSH1 0x3F DUP3 ADD SWAP1 POP SWAP2 SWAP1 POP JUMP JUMPDEST PUSH32 0x222C200000000000000000000000000000000000000000000000000000000000 PUSH0 DUP3 ADD MSTORE POP JUMP JUMPDEST PUSH0 PUSH2 0x1EA7 PUSH1 0x3 DUP4 PUSH2 0x1D7F JUMP JUMPDEST SWAP2 POP PUSH2 0x1EB2 DUP3 PUSH2 0x1E73 JUMP JUMPDEST PUSH1 0x3 DUP3 ADD SWAP1 POP SWAP2 SWAP1 POP JUMP JUMPDEST PUSH32 0x22696D616765223A220000000000000000000000000000000000000000000000 PUSH0 DUP3 ADD MSTORE POP JUMP JUMPDEST PUSH0 PUSH2 0x1EF1 PUSH1 0x9 DUP4 PUSH2 0x1D7F JUMP JUMPDEST SWAP2 POP PUSH2 0x1EFC DUP3 PUSH2 0x1EBD JUMP JUMPDEST PUSH1 0x9 DUP3 ADD SWAP1 POP SWAP2 SWAP1 POP JUMP JUMPDEST PUSH0 DUP2 SWAP1 POP DUP2 PUSH0 MSTORE PUSH1 0x20 PUSH0 KECCAK256 SWAP1 POP SWAP2 SWAP1 POP JUMP JUMPDEST PUSH0 DUP2 SLOAD PUSH2 0x1F25 DUP2 PUSH2 0x1CA6 JUMP JUMPDEST PUSH2 0x1F2F DUP2 DUP7 PUSH2 0x1D7F JUMP JUMPDEST SWAP5 POP PUSH1 0x1 DUP3 AND PUSH0 DUP2 EQ PUSH2 0x1F49 JUMPI PUSH1 0x1 DUP2 EQ PUSH2 0x1F5E JUMPI PUSH2 0x1F90 JUMP JUMPDEST PUSH1 0xFF NOT DUP4 AND DUP7 MSTORE DUP2 ISZERO ISZERO DUP3 MUL DUP7 ADD SWAP4 POP PUSH2 0x1F90 JUMP JUMPDEST PUSH2 0x1F67 DUP6 PUSH2 0x1F07 JUMP JUMPDEST PUSH0 JUMPDEST DUP4 DUP2 LT ISZERO PUSH2 0x1F88 JUMPI DUP2 SLOAD DUP2 DUP10 ADD MSTORE PUSH1 0x1 DUP3 ADD SWAP2 POP PUSH1 0x20 DUP2 ADD SWAP1 POP PUSH2 0x1F69 JUMP JUMPDEST DUP4 DUP9 ADD SWAP6 POP POP POP JUMPDEST POP POP POP SWAP3 SWAP2 POP POP JUMP JUMPDEST PUSH32 0x227D000000000000000000000000000000000000000000000000000000000000 PUSH0 DUP3 ADD MSTORE POP JUMP JUMPDEST PUSH0 PUSH2 0x1FCD PUSH1 0x2 DUP4 PUSH2 0x1D7F JUMP JUMPDEST SWAP2 POP PUSH2 0x1FD8 DUP3 PUSH2 0x1F99 JUMP JUMPDEST PUSH1 0x2 DUP3 ADD SWAP1 POP SWAP2 SWAP1 POP JUMP JUMPDEST PUSH0 PUSH2 0x1FED DUP3 PUSH2 0x1DB1 JUMP JUMPDEST SWAP2 POP PUSH2 0x1FF9 DUP3 DUP7 PUSH2 0x1DD3 JUMP JUMPDEST SWAP2 POP PUSH2 0x2004 DUP3 PUSH2 0x1E51 JUMP JUMPDEST SWAP2 POP PUSH2 0x2010 DUP3 DUP6 PUSH2 0x1DD3 JUMP JUMPDEST SWAP2 POP PUSH2 0x201B DUP3 PUSH2 0x1E9B JUMP JUMPDEST SWAP2 POP PUSH2 0x2026 DUP3 PUSH2 0x1EE5 JUMP JUMPDEST SWAP2 POP PUSH2 0x2032 DUP3 DUP5 PUSH2 0x1F19 JUMP JUMPDEST SWAP2 POP PUSH2 0x203D DUP3 PUSH2 0x1FC1 JUMP JUMPDEST SWAP2 POP DUP2 SWAP1 POP SWAP5 SWAP4 POP POP POP POP JUMP JUMPDEST PUSH32 0x646174613A6170706C69636174696F6E2F6A736F6E3B6261736536342C000000 PUSH0 DUP3 ADD MSTORE POP JUMP JUMPDEST PUSH0 PUSH2 0x207E PUSH1 0x1D DUP4 PUSH2 0x1D7F JUMP JUMPDEST SWAP2 POP PUSH2 0x2089 DUP3 PUSH2 0x204A JUMP JUMPDEST PUSH1 0x1D DUP3 ADD SWAP1 POP SWAP2 SWAP1 POP JUMP JUMPDEST PUSH0 PUSH2 0x209E DUP3 PUSH2 0x2072 JUMP JUMPDEST SWAP2 POP PUSH2 0x20AA DUP3 DUP5 PUSH2 0x1DD3 JUMP JUMPDEST SWAP2 POP DUP2 SWAP1 POP SWAP3 SWAP2 POP POP JUMP JUMPDEST PUSH0 DUP2 MLOAD SWAP1 POP SWAP2 SWAP1 POP JUMP JUMPDEST PUSH0 DUP3 DUP3 MSTORE PUSH1 0x20 DUP3 ADD SWAP1 POP SWAP3 SWAP2 POP POP JUMP JUMPDEST PUSH0 PUSH2 0x20D9 DUP3 PUSH2 0x20B5 JUMP JUMPDEST PUSH2 0x20E3 DUP2 DUP6 PUSH2 0x20BF JUMP JUMPDEST SWAP4 POP PUSH2 0x20F3 DUP2 DUP6 PUSH1 0x20 DUP7 ADD PUSH2 0x17F0 JUMP JUMPDEST PUSH2 0x20FC DUP2 PUSH2 0x17FE JUMP JUMPDEST DUP5 ADD SWAP2 POP POP SWAP3 SWAP2 POP POP JUMP JUMPDEST PUSH0 PUSH1 0x80 DUP3 ADD SWAP1 POP PUSH2 0x211A PUSH0 DUP4 ADD DUP8 PUSH2 0x18F4 JUMP JUMPDEST PUSH2 0x2127 PUSH1 0x20 DUP4 ADD DUP7 PUSH2 0x18F4 JUMP JUMPDEST PUSH2 0x2134 PUSH1 0x40 DUP4 ADD DUP6 PUSH2 0x19FF JUMP JUMPDEST DUP2 DUP2 SUB PUSH1 0x60 DUP4 ADD MSTORE PUSH2 0x2146 DUP2 DUP5 PUSH2 0x20CF JUMP JUMPDEST SWAP1 POP SWAP6 SWAP5 POP POP POP POP POP JUMP JUMPDEST PUSH0 DUP2 MLOAD SWAP1 POP PUSH2 0x215F DUP2 PUSH2 0x174E JUMP JUMPDEST SWAP3 SWAP2 POP POP JUMP JUMPDEST PUSH0 PUSH1 0x20 DUP3 DUP5 SUB SLT ISZERO PUSH2 0x217A JUMPI PUSH2 0x2179 PUSH2 0x171B JUMP JUMPDEST JUMPDEST PUSH0 PUSH2 0x2187 DUP5 DUP3 DUP6 ADD PUSH2 0x2151 JUMP JUMPDEST SWAP2 POP POP SWAP3 SWAP2 POP POP JUMP JUMPDEST PUSH0 PUSH2 0x219A DUP3 PUSH2 0x1866 JUMP JUMPDEST SWAP2 POP PUSH2 0x21A5 DUP4 PUSH2 0x1866 JUMP JUMPDEST SWAP3 POP DUP3 DUP3 ADD SWAP1 POP DUP1 DUP3 GT ISZERO PUSH2 0x21BD JUMPI PUSH2 0x21BC PUSH2 0x1D0B JUMP JUMPDEST JUMPDEST SWAP3 SWAP2 POP POP JUMP JUMPDEST PUSH32 0x4E487B7100000000000000000000000000000000000000000000000000000000 PUSH0 MSTORE PUSH1 0x12 PUSH1 0x4 MSTORE PUSH1 0x24 PUSH0 REVERT JUMPDEST PUSH0 PUSH2 0x21FA DUP3 PUSH2 0x1866 JUMP JUMPDEST SWAP2 POP PUSH2 0x2205 DUP4 PUSH2 0x1866 JUMP JUMPDEST SWAP3 POP DUP3 PUSH2 0x2215 JUMPI PUSH2 0x2214 PUSH2 0x21C3 JUMP JUMPDEST JUMPDEST DUP3 DUP3 DIV SWAP1 POP SWAP3 SWAP2 POP POP JUMP JUMPDEST PUSH0 PUSH2 0x222A DUP3 PUSH2 0x1866 JUMP JUMPDEST SWAP2 POP PUSH2 0x2235 DUP4 PUSH2 0x1866 JUMP JUMPDEST SWAP3 POP DUP3 DUP3 MUL PUSH2 0x2243 DUP2 PUSH2 0x1866 JUMP JUMPDEST SWAP2 POP DUP3 DUP3 DIV DUP5 EQ DUP4 ISZERO OR PUSH2 0x225A JUMPI PUSH2 0x2259 PUSH2 0x1D0B JUMP JUMPDEST JUMPDEST POP SWAP3 SWAP2 POP POP JUMP JUMPDEST PUSH0 PUSH1 0x40 DUP3 ADD SWAP1 POP PUSH2 0x2274 PUSH0 DUP4 ADD DUP6 PUSH2 0x18F4 JUMP JUMPDEST PUSH2 0x2281 PUSH1 0x20 DUP4 ADD DUP5 PUSH2 0x19FF JUMP JUMPDEST SWAP4 SWAP3 POP POP POP JUMP INVALID COINBASE TIMESTAMP NUMBER PREVRANDAO GASLIMIT CHAINID SELFBALANCE BASEFEE BLOBHASH BLOBBASEFEE 0x4B 0x4C 0x4D 0x4E 0x4F POP MLOAD MSTORE MSTORE8 SLOAD SSTORE JUMP JUMPI PC MSIZE GAS PUSH2 0x6263 PUSH5 0x6566676869 PUSH11 0x6B6C6D6E6F707172737475 PUSH23 0x7778797A303132333435363738392B2FA2646970667358 0x22 SLT KECCAK256 SSTORE DUP13 0x2D 0xC8 SWAP8 0x27 BLOCKHASH PUSH9 0x477EA829F6DA0F481D 0xAC 0x22 JUMPDEST PUSH12 0x93681C7BF01AB595996B8064 PUSH20 0x6F6C63430008190033A264697066735822122092 GASPRICE 0xD9 GASPRICE ISZERO 0xE2 PUSH31 0x242DCE1DFECA3722F2D7C0900EC58A64A908A32E0664BA796964736F6C6343 STOP ADDMOD NOT STOP CALLER "
  },
  "Assembly": ".code\n  PUSH 80\t\t\tcontract GameFactory {\\n    ev...\n  PUSH 40\t\t\tcontract GameFactory {\\n    ev...\n  MSTORE \t\t\tcontract GameFactory {\\n    ev...\n  PUSH 0\t\t\t0\n  PUSH 1\t\t\tuint256 private fee = 0\n  SSTORE \t\t\tuint256 private fee = 0\n  CALLVALUE \t\t\tcontract GameFactory {\\n    ev...\n  DUP1 \t\t\tcontract GameFactory {\\n    ev...\n  ISZERO \t\t\tcontract GameFactory {\\n    ev...\n  PUSH [tag] 1\t\t\tcontract GameFactory {\\n    ev...\n  JUMPI \t\t\tcontract GameFactory {\\n    ev...\n  PUSH 0\t\t\tcontract GameFactory {\\n    ev...\n  DUP1 \t\t\tcontract GameFactory {\\n    ev...\n  REVERT \t\t\tcontract GameFactory {\\n    ev...\ntag 1\t\t\tcontract GameFactory {\\n    ev...\n  JUMPDEST \t\t\tcontract GameFactory {\\n    ev...\n  POP \t\t\tcontract GameFactory {\\n    ev...\n  PUSH #[$] 0000000000000000000000000000000000000000000000000000000000000000\t\t\tcontract GameFactory {\\n    ev...\n  DUP1 \t\t\tcontract GameFactory {\\n    ev...\n  PUSH [$] 0000000000000000000000000000000000000000000000000000000000000000\t\t\tcontract GameFactory {\\n    ev...\n  PUSH 0\t\t\tcontract GameFactory {\\n    ev...\n  CODECOPY \t\t\tcontract GameFactory {\\n    ev...\n  PUSH 0\t\t\tcontract GameFactory {\\n    ev...\n  RETURN \t\t\tcontract GameFactory {\\n    ev...\n.data\n  0:\n    .code\n      PUSH 80\t\t\tcontract GameFactory {\\n    ev...\n      PUSH 40\t\t\tcontract GameFactory {\\n    ev...\n      MSTORE \t\t\tcontract GameFactory {\\n    ev...\n      PUSH 4\t\t\tcontract GameFactory {\\n    ev...\n      CALLDATASIZE \t\t\tcontract GameFactory {\\n    ev...\n      LT \t\t\tcontract GameFactory {\\n    ev...\n      PUSH [tag] 1\t\t\tcontract GameFactory {\\n    ev...\n      JUMPI \t\t\tcontract GameFactory {\\n    ev...\n      PUSH 0\t\t\tcontract GameFactory {\\n    ev...\n      CALLDATALOAD \t\t\tcontract GameFactory {\\n    ev...\n      PUSH E0\t\t\tcontract GameFactory {\\n    ev...\n      SHR \t\t\tcontract GameFactory {\\n    ev...\n      DUP1 \t\t\tcontract GameFactory {\\n    ev...\n      PUSH C04C5947\t\t\tcontract GameFactory {\\n    ev...\n      GT \t\t\tcontract GameFactory {\\n    ev...\n      PUSH [tag] 10\t\t\tcontract GameFactory {\\n    ev...\n      JUMPI \t\t\tcontract GameFactory {\\n    ev...\n      DUP1 \t\t\tcontract GameFactory {\\n    ev...\n      PUSH C04C5947\t\t\tcontract GameFactory {\\n    ev...\n      EQ \t\t\tcontract GameFactory {\\n    ev...\n      PUSH [tag] 6\t\t\tcontract GameFactory {\\n    ev...\n      JUMPI \t\t\tcontract GameFactory {\\n    ev...\n      DUP1 \t\t\tcontract GameFactory {\\n    ev...\n      PUSH C379CD78\t\t\tcontract GameFactory {\\n    ev...\n      EQ \t\t\tcontract GameFactory {\\n    ev...\n      PUSH [tag] 7\t\t\tcontract GameFactory {\\n    ev...\n      JUMPI \t\t\tcontract GameFactory {\\n    ev...\n      DUP1 \t\t\tcontract GameFactory {\\n    ev...\n      PUSH DBEF6528\t\t\tcontract GameFactory {\\n    ev...\n      EQ \t\t\tcontract GameFactory {\\n    ev...\n      PUSH [tag] 8\t\t\tcontract GameFactory {\\n    ev...\n      JUMPI \t\t\tcontract GameFactory {\\n    ev...\n      DUP1 \t\t\tcontract GameFactory {\\n    ev...\n      PUSH E14B7287\t\t\tcontract GameFactory {\\n    ev...\n      EQ \t\t\tcontract GameFactory {\\n    ev...\n      PUSH [tag] 9\t\t\tcontract GameFactory {\\n    ev...\n      JUMPI \t\t\tcontract GameFactory {\\n    ev...\n      PUSH [tag] 1\t\t\tcontract GameFactory {\\n    ev...\n      JUMP \t\t\tcontract GameFactory {\\n    ev...\n    tag 10\t\t\tcontract GameFactory {\\n    ev...\n      JUMPDEST \t\t\tcontract GameFactory {\\n    ev...\n      DUP1 \t\t\tcontract GameFactory {\\n    ev...\n      PUSH 2A60D6CA\t\t\tcontract GameFactory {\\n    ev...\n      EQ \t\t\tcontract GameFactory {\\n    ev...\n      PUSH [tag] 2\t\t\tcontract GameFactory {\\n    ev...\n      JUMPI \t\t\tcontract GameFactory {\\n    ev...\n      DUP1 \t\t\tcontract GameFactory {\\n    ev...\n      PUSH 396130B9\t\t\tcontract GameFactory {\\n    ev...\n      EQ \t\t\tcontract GameFactory {\\n    ev...\n      PUSH [tag] 3\t\t\tcontract GameFactory {\\n    ev...\n      JUMPI \t\t\tcontract GameFactory {\\n    ev...\n      DUP1 \t\t\tcontract GameFactory {\\n    ev...\n      PUSH 7FD6145C\t\t\tcontract GameFactory {\\n    ev...\n      EQ \t\t\tcontract GameFactory {\\n    ev...\n      PUSH [tag] 4\t\t\tcontract GameFactory {\\n    ev...\n      JUMPI \t\t\tcontract GameFactory {\\n    ev...\n      DUP1 \t\t\tcontract GameFactory {\\n    ev...\n      PUSH 8D00FE0B\t\t\tcontract GameFactory {\\n    ev...\n      EQ \t\t\tcontract GameFactory {\\n    ev...\n      PUSH [tag] 5\t\t\tcontract GameFactory {\\n    ev...\n      JUMPI \t\t\tcontract GameFactory {\\n    ev...\n    tag 1\t\t\tcontract GameFactory {\\n    ev...\n      JUMPDEST \t\t\tcontract GameFactory {\\n    ev...\n      PUSH 0\t\t\tcontract GameFactory {\\n    ev...\n      DUP1 \t\t\tcontract GameFactory {\\n    ev...\n      REVERT \t\t\tcontract GameFactory {\\n    ev...\n    tag 2\t\t\tfunction publishGame(\\n       ...\n      JUMPDEST \t\t\tfunction publishGame(\\n       ...\n      CALLVALUE \t\t\tfunction publishGame(\\n       ...\n      DUP1 \t\t\tfunction publishGame(\\n       ...\n      ISZERO \t\t\tfunction publishGame(\\n       ...\n      PUSH [tag] 11\t\t\tfunction publishGame(\\n       ...\n      JUMPI \t\t\tfunction publishGame(\\n       ...\n      PUSH 0\t\t\tfunction publishGame(\\n       ...\n      DUP1 \t\t\tfunction publishGame(\\n       ...\n      REVERT \t\t\tfunction publishGame(\\n       ...\n    tag 11\t\t\tfunction publishGame(\\n       ...\n      JUMPDEST \t\t\tfunction publishGame(\\n       ...\n      POP \t\t\tfunction publishGame(\\n       ...\n      PUSH [tag] 12\t\t\tfunction publishGame(\\n       ...\n      PUSH 4\t\t\tfunction publishGame(\\n       ...\n      DUP1 \t\t\tfunction publishGame(\\n       ...\n      CALLDATASIZE \t\t\tfunction publishGame(\\n       ...\n      SUB \t\t\tfunction publishGame(\\n       ...\n      DUP2 \t\t\tfunction publishGame(\\n       ...\n      ADD \t\t\tfunction publishGame(\\n       ...\n      SWAP1 \t\t\tfunction publishGame(\\n       ...\n      PUSH [tag] 13\t\t\tfunction publishGame(\\n       ...\n      SWAP2 \t\t\tfunction publishGame(\\n       ...\n      SWAP1 \t\t\tfunction publishGame(\\n       ...\n      PUSH [tag] 14\t\t\tfunction publishGame(\\n       ...\n      JUMP \t\t\tfunction publishGame(\\n       ...\n    tag 13\t\t\tfunction publishGame(\\n       ...\n      JUMPDEST \t\t\tfunction publishGame(\\n       ...\n      PUSH [tag] 15\t\t\tfunction publishGame(\\n       ...\n      JUMP \t\t\tfunction publishGame(\\n       ...\n    tag 12\t\t\tfunction publishGame(\\n       ...\n      JUMPDEST \t\t\tfunction publishGame(\\n       ...\n      STOP \t\t\tfunction publishGame(\\n       ...\n    tag 3\t\t\tfunction isGameOwned(string me...\n      JUMPDEST \t\t\tfunction isGameOwned(string me...\n      CALLVALUE \t\t\tfunction isGameOwned(string me...\n      DUP1 \t\t\tfunction isGameOwned(string me...\n      ISZERO \t\t\tfunction isGameOwned(string me...\n      PUSH [tag] 16\t\t\tfunction isGameOwned(string me...\n      JUMPI \t\t\tfunction isGameOwned(string me...\n      PUSH 0\t\t\tfunction isGameOwned(string me...\n      DUP1 \t\t\tfunction isGameOwned(string me...\n      REVERT \t\t\tfunction isGameOwned(string me...\n    tag 16\t\t\tfunction isGameOwned(string me...\n      JUMPDEST \t\t\tfunction isGameOwned(string me...\n      POP \t\t\tfunction isGameOwned(string me...\n      PUSH [tag] 17\t\t\tfunction isGameOwned(string me...\n      PUSH 4\t\t\tfunction isGameOwned(string me...\n      DUP1 \t\t\tfunction isGameOwned(string me...\n      CALLDATASIZE \t\t\tfunction isGameOwned(string me...\n      SUB \t\t\tfunction isGameOwned(string me...\n      DUP2 \t\t\tfunction isGameOwned(string me...\n      ADD \t\t\tfunction isGameOwned(string me...\n      SWAP1 \t\t\tfunction isGameOwned(string me...\n      PUSH [tag] 18\t\t\tfunction isGameOwned(string me...\n      SWAP2 \t\t\tfunction isGameOwned(string me...\n      SWAP1 \t\t\tfunction isGameOwned(string me...\n      PUSH [tag] 19\t\t\tfunction isGameOwned(string me...\n      JUMP \t\t\tfunction isGameOwned(string me...\n    tag 18\t\t\tfunction isGameOwned(string me...\n      JUMPDEST \t\t\tfunction isGameOwned(string me...\n      PUSH [tag] 20\t\t\tfunction isGameOwned(string me...\n      JUMP \t\t\tfunction isGameOwned(string me...\n    tag 17\t\t\tfunction isGameOwned(string me...\n      JUMPDEST \t\t\tfunction isGameOwned(string me...\n      PUSH 40\t\t\tfunction isGameOwned(string me...\n      MLOAD \t\t\tfunction isGameOwned(string me...\n      PUSH [tag] 21\t\t\tfunction isGameOwned(string me...\n      SWAP2 \t\t\tfunction isGameOwned(string me...\n      SWAP1 \t\t\tfunction isGameOwned(string me...\n      PUSH [tag] 22\t\t\tfunction isGameOwned(string me...\n      JUMP \t\t\tfunction isGameOwned(string me...\n    tag 21\t\t\tfunction isGameOwned(string me...\n      JUMPDEST \t\t\tfunction isGameOwned(string me...\n      PUSH 40\t\t\tfunction isGameOwned(string me...\n      MLOAD \t\t\tfunction isGameOwned(string me...\n      DUP1 \t\t\tfunction isGameOwned(string me...\n      SWAP2 \t\t\tfunction isGameOwned(string me...\n      SUB \t\t\tfunction isGameOwned(string me...\n      SWAP1 \t\t\tfunction isGameOwned(string me...\n      RETURN \t\t\tfunction isGameOwned(string me...\n    tag 4\t\t\tfunction getGameByCid(string m...\n      JUMPDEST \t\t\tfunction getGameByCid(string m...\n      CALLVALUE \t\t\tfunction getGameByCid(string m...\n      DUP1 \t\t\tfunction getGameByCid(string m...\n      ISZERO \t\t\tfunction getGameByCid(string m...\n      PUSH [tag] 23\t\t\tfunction getGameByCid(string m...\n      JUMPI \t\t\tfunction getGameByCid(string m...\n      PUSH 0\t\t\tfunction getGameByCid(string m...\n      DUP1 \t\t\tfunction getGameByCid(string m...\n      REVERT \t\t\tfunction getGameByCid(string m...\n    tag 23\t\t\tfunction getGameByCid(string m...\n      JUMPDEST \t\t\tfunction getGameByCid(string m...\n      POP \t\t\tfunction getGameByCid(string m...\n      PUSH [tag] 24\t\t\tfunction getGameByCid(string m...\n      PUSH 4\t\t\tfunction getGameByCid(string m...\n      DUP1 \t\t\tfunction getGameByCid(string m...\n      CALLDATASIZE \t\t\tfunction getGameByCid(string m...\n      SUB \t\t\tfunction getGameByCid(string m...\n      DUP2 \t\t\tfunction getGameByCid(string m...\n      ADD \t\t\tfunction getGameByCid(string m...\n      SWAP1 \t\t\tfunction getGameByCid(string m...\n      PUSH [tag] 25\t\t\tfunction getGameByCid(string m...\n      SWAP2 \t\t\tfunction getGameByCid(string m...\n      SWAP1 \t\t\tfunction getGameByCid(string m...\n      PUSH [tag] 19\t\t\tfunction getGameByCid(string m...\n      JUMP \t\t\tfunction getGameByCid(string m...\n    tag 25\t\t\tfunction getGameByCid(string m...\n      JUMPDEST \t\t\tfunction getGameByCid(string m...\n      PUSH [tag] 26\t\t\tfunction getGameByCid(string m...\n      JUMP \t\t\tfunction getGameByCid(string m...\n    tag 24\t\t\tfunction getGameByCid(string m...\n      JUMPDEST \t\t\tfunction getGameByCid(string m...\n      PUSH 40\t\t\tfunction getGameByCid(string m...\n      MLOAD \t\t\tfunction getGameByCid(string m...\n      PUSH [tag] 27\t\t\tfunction getGameByCid(string m...\n      SWAP2 \t\t\tfunction getGameByCid(string m...\n      SWAP1 \t\t\tfunction getGameByCid(string m...\n      PUSH [tag] 28\t\t\tfunction getGameByCid(string m...\n      JUMP \t\t\tfunction getGameByCid(string m...\n    tag 27\t\t\tfunction getGameByCid(string m...\n      JUMPDEST \t\t\tfunction getGameByCid(string m...\n      PUSH 40\t\t\tfunction getGameByCid(string m...\n      MLOAD \t\t\tfunction getGameByCid(string m...\n      DUP1 \t\t\tfunction getGameByCid(string m...\n      SWAP2 \t\t\tfunction getGameByCid(string m...\n      SUB \t\t\tfunction getGameByCid(string m...\n      SWAP1 \t\t\tfunction getGameByCid(string m...\n      RETURN \t\t\tfunction getGameByCid(string m...\n    tag 5\t\t\tfunction withdrawCreatorFunds(...\n      JUMPDEST \t\t\tfunction withdrawCreatorFunds(...\n      CALLVALUE \t\t\tfunction withdrawCreatorFunds(...\n      DUP1 \t\t\tfunction withdrawCreatorFunds(...\n      ISZERO \t\t\tfunction withdrawCreatorFunds(...\n      PUSH [tag] 29\t\t\tfunction withdrawCreatorFunds(...\n      JUMPI \t\t\tfunction withdrawCreatorFunds(...\n      PUSH 0\t\t\tfunction withdrawCreatorFunds(...\n      DUP1 \t\t\tfunction withdrawCreatorFunds(...\n      REVERT \t\t\tfunction withdrawCreatorFunds(...\n    tag 29\t\t\tfunction withdrawCreatorFunds(...\n      JUMPDEST \t\t\tfunction withdrawCreatorFunds(...\n      POP \t\t\tfunction withdrawCreatorFunds(...\n      PUSH [tag] 30\t\t\tfunction withdrawCreatorFunds(...\n      PUSH [tag] 31\t\t\tfunction withdrawCreatorFunds(...\n      JUMP \t\t\tfunction withdrawCreatorFunds(...\n    tag 30\t\t\tfunction withdrawCreatorFunds(...\n      JUMPDEST \t\t\tfunction withdrawCreatorFunds(...\n      STOP \t\t\tfunction withdrawCreatorFunds(...\n    tag 6\t\t\tfunction getGames() external v...\n      JUMPDEST \t\t\tfunction getGames() external v...\n      CALLVALUE \t\t\tfunction getGames() external v...\n      DUP1 \t\t\tfunction getGames() external v...\n      ISZERO \t\t\tfunction getGames() external v...\n      PUSH [tag] 32\t\t\tfunction getGames() external v...\n      JUMPI \t\t\tfunction getGames() external v...\n      PUSH 0\t\t\tfunction getGames() external v...\n      DUP1 \t\t\tfunction getGames() external v...\n      REVERT \t\t\tfunction getGames() external v...\n    tag 32\t\t\tfunction getGames() external v...\n      JUMPDEST \t\t\tfunction getGames() external v...\n      POP \t\t\tfunction getGames() external v...\n      PUSH [tag] 33\t\t\tfunction getGames() external v...\n      PUSH [tag] 34\t\t\tfunction getGames() external v...\n      JUMP \t\t\tfunction getGames() external v...\n    tag 33\t\t\tfunction getGames() external v...\n      JUMPDEST \t\t\tfunction getGames() external v...\n      PUSH 40\t\t\tfunction getGames() external v...\n      MLOAD \t\t\tfunction getGames() external v...\n      PUSH [tag] 35\t\t\tfunction getGames() external v...\n      SWAP2 \t\t\tfunction getGames() external v...\n      SWAP1 \t\t\tfunction getGames() external v...\n      PUSH [tag] 36\t\t\tfunction getGames() external v...\n      JUMP \t\t\tfunction getGames() external v...\n    tag 35\t\t\tfunction getGames() external v...\n      JUMPDEST \t\t\tfunction getGames() external v...\n      PUSH 40\t\t\tfunction getGames() external v...\n      MLOAD \t\t\tfunction getGames() external v...\n      DUP1 \t\t\tfunction getGames() external v...\n      SWAP2 \t\t\tfunction getGames() external v...\n      SUB \t\t\tfunction getGames() external v...\n      SWAP1 \t\t\tfunction getGames() external v...\n      RETURN \t\t\tfunction getGames() external v...\n    tag 7\t\t\tfunction getGameListLength() e...\n      JUMPDEST \t\t\tfunction getGameListLength() e...\n      CALLVALUE \t\t\tfunction getGameListLength() e...\n      DUP1 \t\t\tfunction getGameListLength() e...\n      ISZERO \t\t\tfunction getGameListLength() e...\n      PUSH [tag] 37\t\t\tfunction getGameListLength() e...\n      JUMPI \t\t\tfunction getGameListLength() e...\n      PUSH 0\t\t\tfunction getGameListLength() e...\n      DUP1 \t\t\tfunction getGameListLength() e...\n      REVERT \t\t\tfunction getGameListLength() e...\n    tag 37\t\t\tfunction getGameListLength() e...\n      JUMPDEST \t\t\tfunction getGameListLength() e...\n      POP \t\t\tfunction getGameListLength() e...\n      PUSH [tag] 38\t\t\tfunction getGameListLength() e...\n      PUSH [tag] 39\t\t\tfunction getGameListLength() e...\n      JUMP \t\t\tfunction getGameListLength() e...\n    tag 38\t\t\tfunction getGameListLength() e...\n      JUMPDEST \t\t\tfunction getGameListLength() e...\n      PUSH 40\t\t\tfunction getGameListLength() e...\n      MLOAD \t\t\tfunction getGameListLength() e...\n      PUSH [tag] 40\t\t\tfunction getGameListLength() e...\n      SWAP2 \t\t\tfunction getGameListLength() e...\n      SWAP1 \t\t\tfunction getGameListLength() e...\n      PUSH [tag] 41\t\t\tfunction getGameListLength() e...\n      JUMP \t\t\tfunction getGameListLength() e...\n    tag 40\t\t\tfunction getGameListLength() e...\n      JUMPDEST \t\t\tfunction getGameListLength() e...\n      PUSH 40\t\t\tfunction getGameListLength() e...\n      MLOAD \t\t\tfunction getGameListLength() e...\n      DUP1 \t\t\tfunction getGameListLength() e...\n      SWAP2 \t\t\tfunction getGameListLength() e...\n      SUB \t\t\tfunction getGameListLength() e...\n      SWAP1 \t\t\tfunction getGameListLength() e...\n      RETURN \t\t\tfunction getGameListLength() e...\n    tag 8\t\t\tfunction buyGame(string memory...\n      JUMPDEST \t\t\tfunction buyGame(string memory...\n      PUSH [tag] 42\t\t\tfunction buyGame(string memory...\n      PUSH 4\t\t\tfunction buyGame(string memory...\n      DUP1 \t\t\tfunction buyGame(string memory...\n      CALLDATASIZE \t\t\tfunction buyGame(string memory...\n      SUB \t\t\tfunction buyGame(string memory...\n      DUP2 \t\t\tfunction buyGame(string memory...\n      ADD \t\t\tfunction buyGame(string memory...\n      SWAP1 \t\t\tfunction buyGame(string memory...\n      PUSH [tag] 43\t\t\tfunction buyGame(string memory...\n      SWAP2 \t\t\tfunction buyGame(string memory...\n      SWAP1 \t\t\tfunction buyGame(string memory...\n      PUSH [tag] 19\t\t\tfunction buyGame(string memory...\n      JUMP \t\t\tfunction buyGame(string memory...\n    tag 43\t\t\tfunction buyGame(string memory...\n      JUMPDEST \t\t\tfunction buyGame(string memory...\n      PUSH [tag] 44\t\t\tfunction buyGame(string memory...\n      JUMP \t\t\tfunction buyGame(string memory...\n    tag 42\t\t\tfunction buyGame(string memory...\n      JUMPDEST \t\t\tfunction buyGame(string memory...\n      STOP \t\t\tfunction buyGame(string memory...\n    tag 9\t\t\tfunction isGameOwnedBytes(byte...\n      JUMPDEST \t\t\tfunction isGameOwnedBytes(byte...\n      CALLVALUE \t\t\tfunction isGameOwnedBytes(byte...\n      DUP1 \t\t\tfunction isGameOwnedBytes(byte...\n      ISZERO \t\t\tfunction isGameOwnedBytes(byte...\n      PUSH [tag] 45\t\t\tfunction isGameOwnedBytes(byte...\n      JUMPI \t\t\tfunction isGameOwnedBytes(byte...\n      PUSH 0\t\t\tfunction isGameOwnedBytes(byte...\n      DUP1 \t\t\tfunction isGameOwnedBytes(byte...\n      REVERT \t\t\tfunction isGameOwnedBytes(byte...\n    tag 45\t\t\tfunction isGameOwnedBytes(byte...\n      JUMPDEST \t\t\tfunction isGameOwnedBytes(byte...\n      POP \t\t\tfunction isGameOwnedBytes(byte...\n      PUSH [tag] 46\t\t\tfunction isGameOwnedBytes(byte...\n      PUSH 4\t\t\tfunction isGameOwnedBytes(byte...\n      DUP1 \t\t\tfunction isGameOwnedBytes(byte...\n      CALLDATASIZE \t\t\tfunction isGameOwnedBytes(byte...\n      SUB \t\t\tfunction isGameOwnedBytes(byte...\n      DUP2 \t\t\tfunction isGameOwnedBytes(byte...\n      ADD \t\t\tfunction isGameOwnedBytes(byte...\n      SWAP1 \t\t\tfunction isGameOwnedBytes(byte...\n      PUSH [tag] 47\t\t\tfunction isGameOwnedBytes(byte...\n      SWAP2 \t\t\tfunction isGameOwnedBytes(byte...\n      SWAP1 \t\t\tfunction isGameOwnedBytes(byte...\n      PUSH [tag] 48\t\t\tfunction isGameOwnedBytes(byte...\n      JUMP \t\t\tfunction isGameOwnedBytes(byte...\n    tag 47\t\t\tfunction isGameOwnedBytes(byte...\n      JUMPDEST \t\t\tfunction isGameOwnedBytes(byte...\n      PUSH [tag] 49\t\t\tfunction isGameOwnedBytes(byte...\n      JUMP \t\t\tfunction isGameOwnedBytes(byte...\n    tag 46\t\t\tfunction isGameOwnedBytes(byte...\n      JUMPDEST \t\t\tfunction isGameOwnedBytes(byte...\n      PUSH 40\t\t\tfunction isGameOwnedBytes(byte...\n      MLOAD \t\t\tfunction isGameOwnedBytes(byte...\n      PUSH [tag] 50\t\t\tfunction isGameOwnedBytes(byte...\n      SWAP2 \t\t\tfunction isGameOwnedBytes(byte...\n      SWAP1 \t\t\tfunction isGameOwnedBytes(byte...\n      PUSH [tag] 22\t\t\tfunction isGameOwnedBytes(byte...\n      JUMP \t\t\tfunction isGameOwnedBytes(byte...\n    tag 50\t\t\tfunction isGameOwnedBytes(byte...\n      JUMPDEST \t\t\tfunction isGameOwnedBytes(byte...\n      PUSH 40\t\t\tfunction isGameOwnedBytes(byte...\n      MLOAD \t\t\tfunction isGameOwnedBytes(byte...\n      DUP1 \t\t\tfunction isGameOwnedBytes(byte...\n      SWAP2 \t\t\tfunction isGameOwnedBytes(byte...\n      SUB \t\t\tfunction isGameOwnedBytes(byte...\n      SWAP1 \t\t\tfunction isGameOwnedBytes(byte...\n      RETURN \t\t\tfunction isGameOwnedBytes(byte...\n    tag 15\t\t\tfunction publishGame(\\n       ...\n      JUMPDEST \t\t\tfunction publishGame(\\n       ...\n      PUSH 0\t\t\t0\n      PUSH FFFFFFFFFFFFFFFFFFFFFFFFFFFFFFFFFFFFFFFF\t\t\tgames[_cid].creator != address...\n      AND \t\t\tgames[_cid].creator != address...\n      PUSH 2\t\t\tgames\n      DUP7 \t\t\t_cid\n      PUSH 40\t\t\tgames[_cid]\n      MLOAD \t\t\tgames[_cid]\n      PUSH [tag] 52\t\t\tgames[_cid]\n      SWAP2 \t\t\tgames[_cid]\n      SWAP1 \t\t\tgames[_cid]\n      PUSH [tag] 53\t\t\tgames[_cid]\n      JUMP \t\t\tgames[_cid]\n    tag 52\t\t\tgames[_cid]\n      JUMPDEST \t\t\tgames[_cid]\n      SWAP1 \t\t\tgames[_cid]\n      DUP2 \t\t\tgames[_cid]\n      MSTORE \t\t\tgames[_cid]\n      PUSH 20\t\t\tgames[_cid]\n      ADD \t\t\tgames[_cid]\n      PUSH 40\t\t\tgames[_cid]\n      MLOAD \t\t\tgames[_cid]\n      DUP1 \t\t\tgames[_cid]\n      SWAP2 \t\t\tgames[_cid]\n      SUB \t\t\tgames[_cid]\n      SWAP1 \t\t\tgames[_cid]\n      KECCAK256 \t\t\tgames[_cid]\n      PUSH 0\t\t\tgames[_cid].creator\n      ADD \t\t\tgames[_cid].creator\n      PUSH 0\t\t\tgames[_cid].creator\n      SWAP1 \t\t\tgames[_cid].creator\n      SLOAD \t\t\tgames[_cid].creator\n      SWAP1 \t\t\tgames[_cid].creator\n      PUSH 100\t\t\tgames[_cid].creator\n      EXP \t\t\tgames[_cid].creator\n      SWAP1 \t\t\tgames[_cid].creator\n      DIV \t\t\tgames[_cid].creator\n      PUSH FFFFFFFFFFFFFFFFFFFFFFFFFFFFFFFFFFFFFFFF\t\t\tgames[_cid].creator\n      AND \t\t\tgames[_cid].creator\n      PUSH FFFFFFFFFFFFFFFFFFFFFFFFFFFFFFFFFFFFFFFF\t\t\tgames[_cid].creator != address...\n      AND \t\t\tgames[_cid].creator != address...\n      EQ \t\t\tgames[_cid].creator != address...\n      PUSH [tag] 54\t\t\tif (games[_cid].creator != add...\n      JUMPI \t\t\tif (games[_cid].creator != add...\n      PUSH 40\t\t\tGameAlreadyPublished()\n      MLOAD \t\t\tGameAlreadyPublished()\n      PUSH 5F4BE31C00000000000000000000000000000000000000000000000000000000\t\t\tGameAlreadyPublished()\n      DUP2 \t\t\tGameAlreadyPublished()\n      MSTORE \t\t\tGameAlreadyPublished()\n      PUSH 4\t\t\tGameAlreadyPublished()\n      ADD \t\t\tGameAlreadyPublished()\n      PUSH 40\t\t\tGameAlreadyPublished()\n      MLOAD \t\t\tGameAlreadyPublished()\n      DUP1 \t\t\tGameAlreadyPublished()\n      SWAP2 \t\t\tGameAlreadyPublished()\n      SUB \t\t\tGameAlreadyPublished()\n      SWAP1 \t\t\tGameAlreadyPublished()\n      REVERT \t\t\tGameAlreadyPublished()\n    tag 54\t\t\tif (games[_cid].creator != add...\n      JUMPDEST \t\t\tif (games[_cid].creator != add...\n      PUSH 0\t\t\tGameToken gameToken\n      DUP5 \t\t\t_name\n      DUP5 \t\t\t_symbol\n      DUP4 \t\t\t_imageUrl\n      PUSH 40\t\t\tnew GameToken(_name, _symbol, ...\n      MLOAD \t\t\tnew GameToken(_name, _symbol, ...\n      PUSH [tag] 55\t\t\tnew GameToken(_name, _symbol, ...\n      SWAP1 \t\t\tnew GameToken(_name, _symbol, ...\n      PUSH [tag] 56\t\t\tnew GameToken(_name, _symbol, ...\n      JUMP \t\t\tnew GameToken(_name, _symbol, ...\n    tag 55\t\t\tnew GameToken(_name, _symbol, ...\n      JUMPDEST \t\t\tnew GameToken(_name, _symbol, ...\n      PUSH [tag] 57\t\t\tnew GameToken(_name, _symbol, ...\n      SWAP4 \t\t\tnew GameToken(_name, _symbol, ...\n      SWAP3 \t\t\tnew GameToken(_name, _symbol, ...\n      SWAP2 \t\t\tnew GameToken(_name, _symbol, ...\n      SWAP1 \t\t\tnew GameToken(_name, _symbol, ...\n      PUSH [tag] 58\t\t\tnew GameToken(_name, _symbol, ...\n      JUMP \t\t\tnew GameToken(_name, _symbol, ...\n    tag 57\t\t\tnew GameToken(_name, _symbol, ...\n      JUMPDEST \t\t\tnew GameToken(_name, _symbol, ...\n      PUSH 40\t\t\tnew GameToken(_name, _symbol, ...\n      MLOAD \t\t\tnew GameToken(_name, _symbol, ...\n      DUP1 \t\t\tnew GameToken(_name, _symbol, ...\n      SWAP2 \t\t\tnew GameToken(_name, _symbol, ...\n      SUB \t\t\tnew GameToken(_name, _symbol, ...\n      SWAP1 \t\t\tnew GameToken(_name, _symbol, ...\n      PUSH 0\t\t\tnew GameToken(_name, _symbol, ...\n      CREATE \t\t\tnew GameToken(_name, _symbol, ...\n      DUP1 \t\t\tnew GameToken(_name, _symbol, ...\n      ISZERO \t\t\tnew GameToken(_name, _symbol, ...\n      DUP1 \t\t\tnew GameToken(_name, _symbol, ...\n      ISZERO \t\t\tnew GameToken(_name, _symbol, ...\n      PUSH [tag] 59\t\t\tnew GameToken(_name, _symbol, ...\n      JUMPI \t\t\tnew GameToken(_name, _symbol, ...\n      RETURNDATASIZE \t\t\tnew GameToken(_name, _symbol, ...\n      PUSH 0\t\t\tnew GameToken(_name, _symbol, ...\n      DUP1 \t\t\tnew GameToken(_name, _symbol, ...\n      RETURNDATACOPY \t\t\tnew GameToken(_name, _symbol, ...\n      RETURNDATASIZE \t\t\tnew GameToken(_name, _symbol, ...\n      PUSH 0\t\t\tnew GameToken(_name, _symbol, ...\n      REVERT \t\t\tnew GameToken(_name, _symbol, ...\n    tag 59\t\t\tnew GameToken(_name, _symbol, ...\n      JUMPDEST \t\t\tnew GameToken(_name, _symbol, ...\n      POP \t\t\tnew GameToken(_name, _symbol, ...\n      SWAP1 \t\t\tGameToken gameToken = new Game...\n      POP \t\t\tGameToken gameToken = new Game...\n      DUP1 \t\t\tgameToken\n      PUSH FFFFFFFFFFFFFFFFFFFFFFFFFFFFFFFFFFFFFFFF\t\t\tgameToken.mint\n      AND \t\t\tgameToken.mint\n      PUSH 6A627842\t\t\tgameToken.mint\n      CALLER \t\t\tmsg.sender\n      PUSH 40\t\t\tgameToken.mint(msg.sender)\n      MLOAD \t\t\tgameToken.mint(msg.sender)\n      DUP3 \t\t\tgameToken.mint(msg.sender)\n      PUSH FFFFFFFF\t\t\tgameToken.mint(msg.sender)\n      AND \t\t\tgameToken.mint(msg.sender)\n      PUSH E0\t\t\tgameToken.mint(msg.sender)\n      SHL \t\t\tgameToken.mint(msg.sender)\n      DUP2 \t\t\tgameToken.mint(msg.sender)\n      MSTORE \t\t\tgameToken.mint(msg.sender)\n      PUSH 4\t\t\tgameToken.mint(msg.sender)\n      ADD \t\t\tgameToken.mint(msg.sender)\n      PUSH [tag] 60\t\t\tgameToken.mint(msg.sender)\n      SWAP2 \t\t\tgameToken.mint(msg.sender)\n      SWAP1 \t\t\tgameToken.mint(msg.sender)\n      PUSH [tag] 61\t\t\tgameToken.mint(msg.sender)\n      JUMP \t\t\tgameToken.mint(msg.sender)\n    tag 60\t\t\tgameToken.mint(msg.sender)\n      JUMPDEST \t\t\tgameToken.mint(msg.sender)\n      PUSH 0\t\t\tgameToken.mint(msg.sender)\n      PUSH 40\t\t\tgameToken.mint(msg.sender)\n      MLOAD \t\t\tgameToken.mint(msg.sender)\n      DUP1 \t\t\tgameToken.mint(msg.sender)\n      DUP4 \t\t\tgameToken.mint(msg.sender)\n      SUB \t\t\tgameToken.mint(msg.sender)\n      DUP2 \t\t\tgameToken.mint(msg.sender)\n      PUSH 0\t\t\tgameToken.mint(msg.sender)\n      DUP8 \t\t\tgameToken.mint(msg.sender)\n      DUP1 \t\t\tgameToken.mint(msg.sender)\n      EXTCODESIZE \t\t\tgameToken.mint(msg.sender)\n      ISZERO \t\t\tgameToken.mint(msg.sender)\n      DUP1 \t\t\tgameToken.mint(msg.sender)\n      ISZERO \t\t\tgameToken.mint(msg.sender)\n      PUSH [tag] 62\t\t\tgameToken.mint(msg.sender)\n      JUMPI \t\t\tgameToken.mint(msg.sender)\n      PUSH 0\t\t\tgameToken.mint(msg.sender)\n      DUP1 \t\t\tgameToken.mint(msg.sender)\n      REVERT \t\t\tgameToken.mint(msg.sender)\n    tag 62\t\t\tgameToken.mint(msg.sender)\n      JUMPDEST \t\t\tgameToken.mint(msg.sender)\n      POP \t\t\tgameToken.mint(msg.sender)\n      GAS \t\t\tgameToken.mint(msg.sender)\n      CALL \t\t\tgameToken.mint(msg.sender)\n      ISZERO \t\t\tgameToken.mint(msg.sender)\n      DUP1 \t\t\tgameToken.mint(msg.sender)\n      ISZERO \t\t\tgameToken.mint(msg.sender)\n      PUSH [tag] 64\t\t\tgameToken.mint(msg.sender)\n      JUMPI \t\t\tgameToken.mint(msg.sender)\n      RETURNDATASIZE \t\t\tgameToken.mint(msg.sender)\n      PUSH 0\t\t\tgameToken.mint(msg.sender)\n      DUP1 \t\t\tgameToken.mint(msg.sender)\n      RETURNDATACOPY \t\t\tgameToken.mint(msg.sender)\n      RETURNDATASIZE \t\t\tgameToken.mint(msg.sender)\n      PUSH 0\t\t\tgameToken.mint(msg.sender)\n      REVERT \t\t\tgameToken.mint(msg.sender)\n    tag 64\t\t\tgameToken.mint(msg.sender)\n      JUMPDEST \t\t\tgameToken.mint(msg.sender)\n      POP \t\t\tgameToken.mint(msg.sender)\n      POP \t\t\tgameToken.mint(msg.sender)\n      POP \t\t\tgameToken.mint(msg.sender)\n      POP \t\t\tgameToken.mint(msg.sender)\n      PUSH 40\t\t\tGame(\\n            msg.sender,...\n      MLOAD \t\t\tGame(\\n            msg.sender,...\n      DUP1 \t\t\tGame(\\n            msg.sender,...\n      PUSH C0\t\t\tGame(\\n            msg.sender,...\n      ADD \t\t\tGame(\\n            msg.sender,...\n      PUSH 40\t\t\tGame(\\n            msg.sender,...\n      MSTORE \t\t\tGame(\\n            msg.sender,...\n      DUP1 \t\t\tGame(\\n            msg.sender,...\n      CALLER \t\t\tmsg.sender\n      PUSH FFFFFFFFFFFFFFFFFFFFFFFFFFFFFFFFFFFFFFFF\t\t\tGame(\\n            msg.sender,...\n      AND \t\t\tGame(\\n            msg.sender,...\n      DUP2 \t\t\tGame(\\n            msg.sender,...\n      MSTORE \t\t\tGame(\\n            msg.sender,...\n      PUSH 20\t\t\tGame(\\n            msg.sender,...\n      ADD \t\t\tGame(\\n            msg.sender,...\n      DUP8 \t\t\t_cid\n      DUP2 \t\t\tGame(\\n            msg.sender,...\n      MSTORE \t\t\tGame(\\n            msg.sender,...\n      PUSH 20\t\t\tGame(\\n            msg.sender,...\n      ADD \t\t\tGame(\\n            msg.sender,...\n      DUP3 \t\t\tgameToken\n      PUSH FFFFFFFFFFFFFFFFFFFFFFFFFFFFFFFFFFFFFFFF\t\t\tGame(\\n            msg.sender,...\n      AND \t\t\tGame(\\n            msg.sender,...\n      DUP2 \t\t\tGame(\\n            msg.sender,...\n      MSTORE \t\t\tGame(\\n            msg.sender,...\n      PUSH 20\t\t\tGame(\\n            msg.sender,...\n      ADD \t\t\tGame(\\n            msg.sender,...\n      DUP7 \t\t\t_name\n      DUP2 \t\t\tGame(\\n            msg.sender,...\n      MSTORE \t\t\tGame(\\n            msg.sender,...\n      PUSH 20\t\t\tGame(\\n            msg.sender,...\n      ADD \t\t\tGame(\\n            msg.sender,...\n      DUP5 \t\t\tprice\n      DUP2 \t\t\tGame(\\n            msg.sender,...\n      MSTORE \t\t\tGame(\\n            msg.sender,...\n      PUSH 20\t\t\tGame(\\n            msg.sender,...\n      ADD \t\t\tGame(\\n            msg.sender,...\n      DUP4 \t\t\t_imageUrl\n      DUP2 \t\t\tGame(\\n            msg.sender,...\n      MSTORE \t\t\tGame(\\n            msg.sender,...\n      POP \t\t\tGame(\\n            msg.sender,...\n      PUSH 2\t\t\tgames\n      DUP8 \t\t\t_cid\n      PUSH 40\t\t\tgames[_cid]\n      MLOAD \t\t\tgames[_cid]\n      PUSH [tag] 65\t\t\tgames[_cid]\n      SWAP2 \t\t\tgames[_cid]\n      SWAP1 \t\t\tgames[_cid]\n      PUSH [tag] 53\t\t\tgames[_cid]\n      JUMP \t\t\tgames[_cid]\n    tag 65\t\t\tgames[_cid]\n      JUMPDEST \t\t\tgames[_cid]\n      SWAP1 \t\t\tgames[_cid]\n      DUP2 \t\t\tgames[_cid]\n      MSTORE \t\t\tgames[_cid]\n      PUSH 20\t\t\tgames[_cid]\n      ADD \t\t\tgames[_cid]\n      PUSH 40\t\t\tgames[_cid]\n      MLOAD \t\t\tgames[_cid]\n      DUP1 \t\t\tgames[_cid]\n      SWAP2 \t\t\tgames[_cid]\n      SUB \t\t\tgames[_cid]\n      SWAP1 \t\t\tgames[_cid]\n      KECCAK256 \t\t\tgames[_cid]\n      PUSH 0\t\t\tgames[_cid] = Game(\\n         ...\n      DUP3 \t\t\tgames[_cid] = Game(\\n         ...\n      ADD \t\t\tgames[_cid] = Game(\\n         ...\n      MLOAD \t\t\tgames[_cid] = Game(\\n         ...\n      DUP2 \t\t\tgames[_cid] = Game(\\n         ...\n      PUSH 0\t\t\tgames[_cid] = Game(\\n         ...\n      ADD \t\t\tgames[_cid] = Game(\\n         ...\n      PUSH 0\t\t\tgames[_cid] = Game(\\n         ...\n      PUSH 100\t\t\tgames[_cid] = Game(\\n         ...\n      EXP \t\t\tgames[_cid] = Game(\\n         ...\n      DUP2 \t\t\tgames[_cid] = Game(\\n         ...\n      SLOAD \t\t\tgames[_cid] = Game(\\n         ...\n      DUP2 \t\t\tgames[_cid] = Game(\\n         ...\n      PUSH FFFFFFFFFFFFFFFFFFFFFFFFFFFFFFFFFFFFFFFF\t\t\tgames[_cid] = Game(\\n         ...\n      MUL \t\t\tgames[_cid] = Game(\\n         ...\n      NOT \t\t\tgames[_cid] = Game(\\n         ...\n      AND \t\t\tgames[_cid] = Game(\\n         ...\n      SWAP1 \t\t\tgames[_cid] = Game(\\n         ...\n      DUP4 \t\t\tgames[_cid] = Game(\\n         ...\n      PUSH FFFFFFFFFFFFFFFFFFFFFFFFFFFFFFFFFFFFFFFF\t\t\tgames[_cid] = Game(\\n         ...\n      AND \t\t\tgames[_cid] = Game(\\n         ...\n      MUL \t\t\tgames[_cid] = Game(\\n         ...\n      OR \t\t\tgames[_cid] = Game(\\n         ...\n      SWAP1 \t\t\tgames[_cid] = Game(\\n         ...\n      SSTORE \t\t\tgames[_cid] = Game(\\n         ...\n      POP \t\t\tgames[_cid] = Game(\\n         ...\n      PUSH 20\t\t\tgames[_cid] = Game(\\n         ...\n      DUP3 \t\t\tgames[_cid] = Game(\\n         ...\n      ADD \t\t\tgames[_cid] = Game(\\n         ...\n      MLOAD \t\t\tgames[_cid] = Game(\\n         ...\n      DUP2 \t\t\tgames[_cid] = Game(\\n         ...\n      PUSH 1\t\t\tgames[_cid] = Game(\\n         ...\n      ADD \t\t\tgames[_cid] = Game(\\n         ...\n      SWAP1 \t\t\tgames[_cid] = Game(\\n         ...\n      DUP2 \t\t\tgames[_cid] = Game(\\n         ...\n      PUSH [tag] 66\t\t\tgames[_cid] = Game(\\n         ...\n      SWAP2 \t\t\tgames[_cid] = Game(\\n         ...\n      SWAP1 \t\t\tgames[_cid] = Game(\\n         ...\n      PUSH [tag] 67\t\t\tgames[_cid] = Game(\\n         ...\n      JUMP \t\t\tgames[_cid] = Game(\\n         ...\n    tag 66\t\t\tgames[_cid] = Game(\\n         ...\n      JUMPDEST \t\t\tgames[_cid] = Game(\\n         ...\n      POP \t\t\tgames[_cid] = Game(\\n         ...\n      PUSH 40\t\t\tgames[_cid] = Game(\\n         ...\n      DUP3 \t\t\tgames[_cid] = Game(\\n         ...\n      ADD \t\t\tgames[_cid] = Game(\\n         ...\n      MLOAD \t\t\tgames[_cid] = Game(\\n         ...\n      DUP2 \t\t\tgames[_cid] = Game(\\n         ...\n      PUSH 2\t\t\tgames[_cid] = Game(\\n         ...\n      ADD \t\t\tgames[_cid] = Game(\\n         ...\n      PUSH 0\t\t\tgames[_cid] = Game(\\n         ...\n      PUSH 100\t\t\tgames[_cid] = Game(\\n         ...\n      EXP \t\t\tgames[_cid] = Game(\\n         ...\n      DUP2 \t\t\tgames[_cid] = Game(\\n         ...\n      SLOAD \t\t\tgames[_cid] = Game(\\n         ...\n      DUP2 \t\t\tgames[_cid] = Game(\\n         ...\n      PUSH FFFFFFFFFFFFFFFFFFFFFFFFFFFFFFFFFFFFFFFF\t\t\tgames[_cid] = Game(\\n         ...\n      MUL \t\t\tgames[_cid] = Game(\\n         ...\n      NOT \t\t\tgames[_cid] = Game(\\n         ...\n      AND \t\t\tgames[_cid] = Game(\\n         ...\n      SWAP1 \t\t\tgames[_cid] = Game(\\n         ...\n      DUP4 \t\t\tgames[_cid] = Game(\\n         ...\n      PUSH FFFFFFFFFFFFFFFFFFFFFFFFFFFFFFFFFFFFFFFF\t\t\tgames[_cid] = Game(\\n         ...\n      AND \t\t\tgames[_cid] = Game(\\n         ...\n      MUL \t\t\tgames[_cid] = Game(\\n         ...\n      OR \t\t\tgames[_cid] = Game(\\n         ...\n      SWAP1 \t\t\tgames[_cid] = Game(\\n         ...\n      SSTORE \t\t\tgames[_cid] = Game(\\n         ...\n      POP \t\t\tgames[_cid] = Game(\\n         ...\n      PUSH 60\t\t\tgames[_cid] = Game(\\n         ...\n      DUP3 \t\t\tgames[_cid] = Game(\\n         ...\n      ADD \t\t\tgames[_cid] = Game(\\n         ...\n      MLOAD \t\t\tgames[_cid] = Game(\\n         ...\n      DUP2 \t\t\tgames[_cid] = Game(\\n         ...\n      PUSH 3\t\t\tgames[_cid] = Game(\\n         ...\n      ADD \t\t\tgames[_cid] = Game(\\n         ...\n      SWAP1 \t\t\tgames[_cid] = Game(\\n         ...\n      DUP2 \t\t\tgames[_cid] = Game(\\n         ...\n      PUSH [tag] 68\t\t\tgames[_cid] = Game(\\n         ...\n      SWAP2 \t\t\tgames[_cid] = Game(\\n         ...\n      SWAP1 \t\t\tgames[_cid] = Game(\\n         ...\n      PUSH [tag] 67\t\t\tgames[_cid] = Game(\\n         ...\n      JUMP \t\t\tgames[_cid] = Game(\\n         ...\n    tag 68\t\t\tgames[_cid] = Game(\\n         ...\n      JUMPDEST \t\t\tgames[_cid] = Game(\\n         ...\n      POP \t\t\tgames[_cid] = Game(\\n         ...\n      PUSH 80\t\t\tgames[_cid] = Game(\\n         ...\n      DUP3 \t\t\tgames[_cid] = Game(\\n         ...\n      ADD \t\t\tgames[_cid] = Game(\\n         ...\n      MLOAD \t\t\tgames[_cid] = Game(\\n         ...\n      DUP2 \t\t\tgames[_cid] = Game(\\n         ...\n      PUSH 4\t\t\tgames[_cid] = Game(\\n         ...\n      ADD \t\t\tgames[_cid] = Game(\\n         ...\n      SSTORE \t\t\tgames[_cid] = Game(\\n         ...\n      PUSH A0\t\t\tgames[_cid] = Game(\\n         ...\n      DUP3 \t\t\tgames[_cid] = Game(\\n         ...\n      ADD \t\t\tgames[_cid] = Game(\\n         ...\n      MLOAD \t\t\tgames[_cid] = Game(\\n         ...\n      DUP2 \t\t\tgames[_cid] = Game(\\n         ...\n      PUSH 5\t\t\tgames[_cid] = Game(\\n         ...\n      ADD \t\t\tgames[_cid] = Game(\\n         ...\n      SWAP1 \t\t\tgames[_cid] = Game(\\n         ...\n      DUP2 \t\t\tgames[_cid] = Game(\\n         ...\n      PUSH [tag] 69\t\t\tgames[_cid] = Game(\\n         ...\n      SWAP2 \t\t\tgames[_cid] = Game(\\n         ...\n      SWAP1 \t\t\tgames[_cid] = Game(\\n         ...\n      PUSH [tag] 67\t\t\tgames[_cid] = Game(\\n         ...\n      JUMP \t\t\tgames[_cid] = Game(\\n         ...\n    tag 69\t\t\tgames[_cid] = Game(\\n         ...\n      JUMPDEST \t\t\tgames[_cid] = Game(\\n         ...\n      POP \t\t\tgames[_cid] = Game(\\n         ...\n      SWAP1 \t\t\tgames[_cid] = Game(\\n         ...\n      POP \t\t\tgames[_cid] = Game(\\n         ...\n      POP \t\t\tgames[_cid] = Game(\\n         ...\n      PUSH 3\t\t\tcids\n      DUP7 \t\t\t_cid\n      SWAP1 \t\t\tcids.push(_cid)\n      DUP1 \t\t\tcids.push(_cid)\n      PUSH 1\t\t\tcids.push(_cid)\n      DUP2 \t\t\tcids.push(_cid)\n      SLOAD \t\t\tcids.push(_cid)\n      ADD \t\t\tcids.push(_cid)\n      DUP1 \t\t\tcids.push(_cid)\n      DUP3 \t\t\tcids.push(_cid)\n      SSTORE \t\t\tcids.push(_cid)\n      DUP1 \t\t\tcids.push(_cid)\n      SWAP2 \t\t\tcids.push(_cid)\n      POP \t\t\tcids.push(_cid)\n      POP \t\t\tcids.push(_cid)\n      PUSH 1\t\t\tcids.push(_cid)\n      SWAP1 \t\t\tcids.push(_cid)\n      SUB \t\t\tcids.push(_cid)\n      SWAP1 \t\t\tcids.push(_cid)\n      PUSH 0\t\t\tcids.push(_cid)\n      MSTORE \t\t\tcids.push(_cid)\n      PUSH 20\t\t\tcids.push(_cid)\n      PUSH 0\t\t\tcids.push(_cid)\n      KECCAK256 \t\t\tcids.push(_cid)\n      ADD \t\t\tcids.push(_cid)\n      PUSH 0\t\t\tcids.push(_cid)\n      SWAP1 \t\t\tcids.push(_cid)\n      SWAP2 \t\t\tcids.push(_cid)\n      SWAP1 \t\t\tcids.push(_cid)\n      SWAP2 \t\t\tcids.push(_cid)\n      SWAP1 \t\t\tcids.push(_cid)\n      SWAP2 \t\t\tcids.push(_cid)\n      POP \t\t\tcids.push(_cid)\n      SWAP1 \t\t\tcids.push(_cid)\n      DUP2 \t\t\tcids.push(_cid)\n      PUSH [tag] 71\t\t\tcids.push(_cid)\n      SWAP2 \t\t\tcids.push(_cid)\n      SWAP1 \t\t\tcids.push(_cid)\n      PUSH [tag] 67\t\t\tcids.push(_cid)\n      JUMP \t\t\tcids.push(_cid)\n    tag 71\t\t\tcids.push(_cid)\n      JUMPDEST \t\t\tcids.push(_cid)\n      POP \t\t\tcids.push(_cid)\n      DUP1 \t\t\tgameToken\n      PUSH FFFFFFFFFFFFFFFFFFFFFFFFFFFFFFFFFFFFFFFF\t\t\tGameTokenCreated(cids.length -...\n      AND \t\t\tGameTokenCreated(cids.length -...\n      DUP7 \t\t\t_cid\n      PUSH 40\t\t\tGameTokenCreated(cids.length -...\n      MLOAD \t\t\tGameTokenCreated(cids.length -...\n      PUSH [tag] 72\t\t\tGameTokenCreated(cids.length -...\n      SWAP2 \t\t\tGameTokenCreated(cids.length -...\n      SWAP1 \t\t\tGameTokenCreated(cids.length -...\n      PUSH [tag] 53\t\t\tGameTokenCreated(cids.length -...\n      JUMP \t\t\tGameTokenCreated(cids.length -...\n    tag 72\t\t\tGameTokenCreated(cids.length -...\n      JUMPDEST \t\t\tGameTokenCreated(cids.length -...\n      PUSH 40\t\t\tGameTokenCreated(cids.length -...\n      MLOAD \t\t\tGameTokenCreated(cids.length -...\n      DUP1 \t\t\tGameTokenCreated(cids.length -...\n      SWAP2 \t\t\tGameTokenCreated(cids.length -...\n      SUB \t\t\tGameTokenCreated(cids.length -...\n      SWAP1 \t\t\tGameTokenCreated(cids.length -...\n      KECCAK256 \t\t\tGameTokenCreated(cids.length -...\n      PUSH 1\t\t\t1\n      PUSH 3\t\t\tcids\n      DUP1 \t\t\tcids.length\n      SLOAD \t\t\tcids.length\n      SWAP1 \t\t\tcids.length\n      POP \t\t\tcids.length\n      PUSH [tag] 73\t\t\tcids.length - 1\n      SWAP2 \t\t\tcids.length - 1\n      SWAP1 \t\t\tcids.length - 1\n      PUSH [tag] 74\t\t\tcids.length - 1\n      JUMP \t\t\tcids.length - 1\n    tag 73\t\t\tcids.length - 1\n      JUMPDEST \t\t\tcids.length - 1\n      PUSH 1B53114C999DED51A67E2C46B7ABA69BD40E2D7A5B1E3E4A8B7F12C122FF3A50\t\t\tGameTokenCreated(cids.length -...\n      PUSH 40\t\t\tGameTokenCreated(cids.length -...\n      MLOAD \t\t\tGameTokenCreated(cids.length -...\n      PUSH 40\t\t\tGameTokenCreated(cids.length -...\n      MLOAD \t\t\tGameTokenCreated(cids.length -...\n      DUP1 \t\t\tGameTokenCreated(cids.length -...\n      SWAP2 \t\t\tGameTokenCreated(cids.length -...\n      SUB \t\t\tGameTokenCreated(cids.length -...\n      SWAP1 \t\t\tGameTokenCreated(cids.length -...\n      LOG4 \t\t\tGameTokenCreated(cids.length -...\n      POP \t\t\t{\\n        if (games[_cid].cre...\n      POP \t\t\tfunction publishGame(\\n       ...\n      POP \t\t\tfunction publishGame(\\n       ...\n      POP \t\t\tfunction publishGame(\\n       ...\n      POP \t\t\tfunction publishGame(\\n       ...\n      POP \t\t\tfunction publishGame(\\n       ...\n      JUMP \t\t\tfunction publishGame(\\n       ...\n    tag 20\t\t\tfunction isGameOwned(string me...\n      JUMPDEST \t\t\tfunction isGameOwned(string me...\n      PUSH 0\t\t\tbool\n      DUP1 \t\t\taddress tokenAddress\n      PUSH 2\t\t\tgames\n      DUP4 \t\t\t_cid\n      PUSH 40\t\t\tgames[_cid]\n      MLOAD \t\t\tgames[_cid]\n      PUSH [tag] 76\t\t\tgames[_cid]\n      SWAP2 \t\t\tgames[_cid]\n      SWAP1 \t\t\tgames[_cid]\n      PUSH [tag] 53\t\t\tgames[_cid]\n      JUMP \t\t\tgames[_cid]\n    tag 76\t\t\tgames[_cid]\n      JUMPDEST \t\t\tgames[_cid]\n      SWAP1 \t\t\tgames[_cid]\n      DUP2 \t\t\tgames[_cid]\n      MSTORE \t\t\tgames[_cid]\n      PUSH 20\t\t\tgames[_cid]\n      ADD \t\t\tgames[_cid]\n      PUSH 40\t\t\tgames[_cid]\n      MLOAD \t\t\tgames[_cid]\n      DUP1 \t\t\tgames[_cid]\n      SWAP2 \t\t\tgames[_cid]\n      SUB \t\t\tgames[_cid]\n      SWAP1 \t\t\tgames[_cid]\n      KECCAK256 \t\t\tgames[_cid]\n      PUSH 2\t\t\tgames[_cid].token\n      ADD \t\t\tgames[_cid].token\n      PUSH 0\t\t\tgames[_cid].token\n      SWAP1 \t\t\tgames[_cid].token\n      SLOAD \t\t\tgames[_cid].token\n      SWAP1 \t\t\tgames[_cid].token\n      PUSH 100\t\t\tgames[_cid].token\n      EXP \t\t\tgames[_cid].token\n      SWAP1 \t\t\tgames[_cid].token\n      DIV \t\t\tgames[_cid].token\n      PUSH FFFFFFFFFFFFFFFFFFFFFFFFFFFFFFFFFFFFFFFF\t\t\tgames[_cid].token\n      AND \t\t\tgames[_cid].token\n      SWAP1 \t\t\taddress tokenAddress = games[_...\n      POP \t\t\taddress tokenAddress = games[_...\n      PUSH 0\t\t\t0\n      PUSH FFFFFFFFFFFFFFFFFFFFFFFFFFFFFFFFFFFFFFFF\t\t\ttokenAddress == address(0)\n      AND \t\t\ttokenAddress == address(0)\n      DUP2 \t\t\ttokenAddress\n      PUSH FFFFFFFFFFFFFFFFFFFFFFFFFFFFFFFFFFFFFFFF\t\t\ttokenAddress == address(0)\n      AND \t\t\ttokenAddress == address(0)\n      SUB \t\t\ttokenAddress == address(0)\n      PUSH [tag] 77\t\t\tif (tokenAddress == address(0)...\n      JUMPI \t\t\tif (tokenAddress == address(0)...\n      PUSH 40\t\t\tInvalidGame()\n      MLOAD \t\t\tInvalidGame()\n      PUSH 57E25A0900000000000000000000000000000000000000000000000000000000\t\t\tInvalidGame()\n      DUP2 \t\t\tInvalidGame()\n      MSTORE \t\t\tInvalidGame()\n      PUSH 4\t\t\tInvalidGame()\n      ADD \t\t\tInvalidGame()\n      PUSH 40\t\t\tInvalidGame()\n      MLOAD \t\t\tInvalidGame()\n      DUP1 \t\t\tInvalidGame()\n      SWAP2 \t\t\tInvalidGame()\n      SUB \t\t\tInvalidGame()\n      SWAP1 \t\t\tInvalidGame()\n      REVERT \t\t\tInvalidGame()\n    tag 77\t\t\tif (tokenAddress == address(0)...\n      JUMPDEST \t\t\tif (tokenAddress == address(0)...\n      PUSH 0\t\t\tGameToken gameToken\n      DUP2 \t\t\ttokenAddress\n      SWAP1 \t\t\tGameToken gameToken = GameToke...\n      POP \t\t\tGameToken gameToken = GameToke...\n      PUSH 1\t\t\t1\n      DUP2 \t\t\tgameToken\n      PUSH FFFFFFFFFFFFFFFFFFFFFFFFFFFFFFFFFFFFFFFF\t\t\tgameToken.balanceOf\n      AND \t\t\tgameToken.balanceOf\n      PUSH 70A08231\t\t\tgameToken.balanceOf\n      CALLER \t\t\tmsg.sender\n      PUSH 40\t\t\tgameToken.balanceOf(msg.sender...\n      MLOAD \t\t\tgameToken.balanceOf(msg.sender...\n      DUP3 \t\t\tgameToken.balanceOf(msg.sender...\n      PUSH FFFFFFFF\t\t\tgameToken.balanceOf(msg.sender...\n      AND \t\t\tgameToken.balanceOf(msg.sender...\n      PUSH E0\t\t\tgameToken.balanceOf(msg.sender...\n      SHL \t\t\tgameToken.balanceOf(msg.sender...\n      DUP2 \t\t\tgameToken.balanceOf(msg.sender...\n      MSTORE \t\t\tgameToken.balanceOf(msg.sender...\n      PUSH 4\t\t\tgameToken.balanceOf(msg.sender...\n      ADD \t\t\tgameToken.balanceOf(msg.sender...\n      PUSH [tag] 78\t\t\tgameToken.balanceOf(msg.sender...\n      SWAP2 \t\t\tgameToken.balanceOf(msg.sender...\n      SWAP1 \t\t\tgameToken.balanceOf(msg.sender...\n      PUSH [tag] 61\t\t\tgameToken.balanceOf(msg.sender...\n      JUMP \t\t\tgameToken.balanceOf(msg.sender...\n    tag 78\t\t\tgameToken.balanceOf(msg.sender...\n      JUMPDEST \t\t\tgameToken.balanceOf(msg.sender...\n      PUSH 20\t\t\tgameToken.balanceOf(msg.sender...\n      PUSH 40\t\t\tgameToken.balanceOf(msg.sender...\n      MLOAD \t\t\tgameToken.balanceOf(msg.sender...\n      DUP1 \t\t\tgameToken.balanceOf(msg.sender...\n      DUP4 \t\t\tgameToken.balanceOf(msg.sender...\n      SUB \t\t\tgameToken.balanceOf(msg.sender...\n      DUP2 \t\t\tgameToken.balanceOf(msg.sender...\n      DUP7 \t\t\tgameToken.balanceOf(msg.sender...\n      GAS \t\t\tgameToken.balanceOf(msg.sender...\n      STATICCALL \t\t\tgameToken.balanceOf(msg.sender...\n      ISZERO \t\t\tgameToken.balanceOf(msg.sender...\n      DUP1 \t\t\tgameToken.balanceOf(msg.sender...\n      ISZERO \t\t\tgameToken.balanceOf(msg.sender...\n      PUSH [tag] 80\t\t\tgameToken.balanceOf(msg.sender...\n      JUMPI \t\t\tgameToken.balanceOf(msg.sender...\n      RETURNDATASIZE \t\t\tgameToken.balanceOf(msg.sender...\n      PUSH 0\t\t\tgameToken.balanceOf(msg.sender...\n      DUP1 \t\t\tgameToken.balanceOf(msg.sender...\n      RETURNDATACOPY \t\t\tgameToken.balanceOf(msg.sender...\n      RETURNDATASIZE \t\t\tgameToken.balanceOf(msg.sender...\n      PUSH 0\t\t\tgameToken.balanceOf(msg.sender...\n      REVERT \t\t\tgameToken.balanceOf(msg.sender...\n    tag 80\t\t\tgameToken.balanceOf(msg.sender...\n      JUMPDEST \t\t\tgameToken.balanceOf(msg.sender...\n      POP \t\t\tgameToken.balanceOf(msg.sender...\n      POP \t\t\tgameToken.balanceOf(msg.sender...\n      POP \t\t\tgameToken.balanceOf(msg.sender...\n      POP \t\t\tgameToken.balanceOf(msg.sender...\n      PUSH 40\t\t\tgameToken.balanceOf(msg.sender...\n      MLOAD \t\t\tgameToken.balanceOf(msg.sender...\n      RETURNDATASIZE \t\t\tgameToken.balanceOf(msg.sender...\n      PUSH 1F\t\t\tgameToken.balanceOf(msg.sender...\n      NOT \t\t\tgameToken.balanceOf(msg.sender...\n      PUSH 1F\t\t\tgameToken.balanceOf(msg.sender...\n      DUP3 \t\t\tgameToken.balanceOf(msg.sender...\n      ADD \t\t\tgameToken.balanceOf(msg.sender...\n      AND \t\t\tgameToken.balanceOf(msg.sender...\n      DUP3 \t\t\tgameToken.balanceOf(msg.sender...\n      ADD \t\t\tgameToken.balanceOf(msg.sender...\n      DUP1 \t\t\tgameToken.balanceOf(msg.sender...\n      PUSH 40\t\t\tgameToken.balanceOf(msg.sender...\n      MSTORE \t\t\tgameToken.balanceOf(msg.sender...\n      POP \t\t\tgameToken.balanceOf(msg.sender...\n      DUP2 \t\t\tgameToken.balanceOf(msg.sender...\n      ADD \t\t\tgameToken.balanceOf(msg.sender...\n      SWAP1 \t\t\tgameToken.balanceOf(msg.sender...\n      PUSH [tag] 81\t\t\tgameToken.balanceOf(msg.sender...\n      SWAP2 \t\t\tgameToken.balanceOf(msg.sender...\n      SWAP1 \t\t\tgameToken.balanceOf(msg.sender...\n      PUSH [tag] 82\t\t\tgameToken.balanceOf(msg.sender...\n      JUMP \t\t\tgameToken.balanceOf(msg.sender...\n    tag 81\t\t\tgameToken.balanceOf(msg.sender...\n      JUMPDEST \t\t\tgameToken.balanceOf(msg.sender...\n      LT \t\t\tgameToken.balanceOf(msg.sender...\n      ISZERO \t\t\tgameToken.balanceOf(msg.sender...\n      SWAP3 \t\t\treturn gameToken.balanceOf(msg...\n      POP \t\t\treturn gameToken.balanceOf(msg...\n      POP \t\t\treturn gameToken.balanceOf(msg...\n      POP \t\t\treturn gameToken.balanceOf(msg...\n      SWAP2 \t\t\tfunction isGameOwned(string me...\n      SWAP1 \t\t\tfunction isGameOwned(string me...\n      POP \t\t\tfunction isGameOwned(string me...\n      JUMP \t\t\tfunction isGameOwned(string me...\n    tag 26\t\t\tfunction getGameByCid(string m...\n      JUMPDEST \t\t\tfunction getGameByCid(string m...\n      PUSH [tag] 83\t\t\tGame memory\n      PUSH [tag] 84\t\t\tGame memory\n      JUMP \t\t\tGame memory\n    tag 83\t\t\tGame memory\n      JUMPDEST \t\t\tGame memory\n      PUSH 0\t\t\tGame memory _game\n      PUSH 2\t\t\tgames\n      DUP4 \t\t\t_cid\n      PUSH 40\t\t\tgames[_cid]\n      MLOAD \t\t\tgames[_cid]\n      PUSH [tag] 86\t\t\tgames[_cid]\n      SWAP2 \t\t\tgames[_cid]\n      SWAP1 \t\t\tgames[_cid]\n      PUSH [tag] 53\t\t\tgames[_cid]\n      JUMP \t\t\tgames[_cid]\n    tag 86\t\t\tgames[_cid]\n      JUMPDEST \t\t\tgames[_cid]\n      SWAP1 \t\t\tgames[_cid]\n      DUP2 \t\t\tgames[_cid]\n      MSTORE \t\t\tgames[_cid]\n      PUSH 20\t\t\tgames[_cid]\n      ADD \t\t\tgames[_cid]\n      PUSH 40\t\t\tgames[_cid]\n      MLOAD \t\t\tgames[_cid]\n      DUP1 \t\t\tgames[_cid]\n      SWAP2 \t\t\tgames[_cid]\n      SUB \t\t\tgames[_cid]\n      SWAP1 \t\t\tgames[_cid]\n      KECCAK256 \t\t\tgames[_cid]\n      PUSH 40\t\t\tGame memory _game = games[_cid...\n      MLOAD \t\t\tGame memory _game = games[_cid...\n      DUP1 \t\t\tGame memory _game = games[_cid...\n      PUSH C0\t\t\tGame memory _game = games[_cid...\n      ADD \t\t\tGame memory _game = games[_cid...\n      PUSH 40\t\t\tGame memory _game = games[_cid...\n      MSTORE \t\t\tGame memory _game = games[_cid...\n      SWAP1 \t\t\tGame memory _game = games[_cid...\n      DUP2 \t\t\tGame memory _game = games[_cid...\n      PUSH 0\t\t\tGame memory _game = games[_cid...\n      DUP3 \t\t\tGame memory _game = games[_cid...\n      ADD \t\t\tGame memory _game = games[_cid...\n      PUSH 0\t\t\tGame memory _game = games[_cid...\n      SWAP1 \t\t\tGame memory _game = games[_cid...\n      SLOAD \t\t\tGame memory _game = games[_cid...\n      SWAP1 \t\t\tGame memory _game = games[_cid...\n      PUSH 100\t\t\tGame memory _game = games[_cid...\n      EXP \t\t\tGame memory _game = games[_cid...\n      SWAP1 \t\t\tGame memory _game = games[_cid...\n      DIV \t\t\tGame memory _game = games[_cid...\n      PUSH FFFFFFFFFFFFFFFFFFFFFFFFFFFFFFFFFFFFFFFF\t\t\tGame memory _game = games[_cid...\n      AND \t\t\tGame memory _game = games[_cid...\n      PUSH FFFFFFFFFFFFFFFFFFFFFFFFFFFFFFFFFFFFFFFF\t\t\tGame memory _game = games[_cid...\n      AND \t\t\tGame memory _game = games[_cid...\n      PUSH FFFFFFFFFFFFFFFFFFFFFFFFFFFFFFFFFFFFFFFF\t\t\tGame memory _game = games[_cid...\n      AND \t\t\tGame memory _game = games[_cid...\n      DUP2 \t\t\tGame memory _game = games[_cid...\n      MSTORE \t\t\tGame memory _game = games[_cid...\n      PUSH 20\t\t\tGame memory _game = games[_cid...\n      ADD \t\t\tGame memory _game = games[_cid...\n      PUSH 1\t\t\tGame memory _game = games[_cid...\n      DUP3 \t\t\tGame memory _game = games[_cid...\n      ADD \t\t\tGame memory _game = games[_cid...\n      DUP1 \t\t\tGame memory _game = games[_cid...\n      SLOAD \t\t\tGame memory _game = games[_cid...\n      PUSH [tag] 87\t\t\tGame memory _game = games[_cid...\n      SWAP1 \t\t\tGame memory _game = games[_cid...\n      PUSH [tag] 88\t\t\tGame memory _game = games[_cid...\n      JUMP \t\t\tGame memory _game = games[_cid...\n    tag 87\t\t\tGame memory _game = games[_cid...\n      JUMPDEST \t\t\tGame memory _game = games[_cid...\n      DUP1 \t\t\tGame memory _game = games[_cid...\n      PUSH 1F\t\t\tGame memory _game = games[_cid...\n      ADD \t\t\tGame memory _game = games[_cid...\n      PUSH 20\t\t\tGame memory _game = games[_cid...\n      DUP1 \t\t\tGame memory _game = games[_cid...\n      SWAP2 \t\t\tGame memory _game = games[_cid...\n      DIV \t\t\tGame memory _game = games[_cid...\n      MUL \t\t\tGame memory _game = games[_cid...\n      PUSH 20\t\t\tGame memory _game = games[_cid...\n      ADD \t\t\tGame memory _game = games[_cid...\n      PUSH 40\t\t\tGame memory _game = games[_cid...\n      MLOAD \t\t\tGame memory _game = games[_cid...\n      SWAP1 \t\t\tGame memory _game = games[_cid...\n      DUP2 \t\t\tGame memory _game = games[_cid...\n      ADD \t\t\tGame memory _game = games[_cid...\n      PUSH 40\t\t\tGame memory _game = games[_cid...\n      MSTORE \t\t\tGame memory _game = games[_cid...\n      DUP1 \t\t\tGame memory _game = games[_cid...\n      SWAP3 \t\t\tGame memory _game = games[_cid...\n      SWAP2 \t\t\tGame memory _game = games[_cid...\n      SWAP1 \t\t\tGame memory _game = games[_cid...\n      DUP2 \t\t\tGame memory _game = games[_cid...\n      DUP2 \t\t\tGame memory _game = games[_cid...\n      MSTORE \t\t\tGame memory _game = games[_cid...\n      PUSH 20\t\t\tGame memory _game = games[_cid...\n      ADD \t\t\tGame memory _game = games[_cid...\n      DUP3 \t\t\tGame memory _game = games[_cid...\n      DUP1 \t\t\tGame memory _game = games[_cid...\n      SLOAD \t\t\tGame memory _game = games[_cid...\n      PUSH [tag] 89\t\t\tGame memory _game = games[_cid...\n      SWAP1 \t\t\tGame memory _game = games[_cid...\n      PUSH [tag] 88\t\t\tGame memory _game = games[_cid...\n      JUMP \t\t\tGame memory _game = games[_cid...\n    tag 89\t\t\tGame memory _game = games[_cid...\n      JUMPDEST \t\t\tGame memory _game = games[_cid...\n      DUP1 \t\t\tGame memory _game = games[_cid...\n      ISZERO \t\t\tGame memory _game = games[_cid...\n      PUSH [tag] 90\t\t\tGame memory _game = games[_cid...\n      JUMPI \t\t\tGame memory _game = games[_cid...\n      DUP1 \t\t\tGame memory _game = games[_cid...\n      PUSH 1F\t\t\tGame memory _game = games[_cid...\n      LT \t\t\tGame memory _game = games[_cid...\n      PUSH [tag] 91\t\t\tGame memory _game = games[_cid...\n      JUMPI \t\t\tGame memory _game = games[_cid...\n      PUSH 100\t\t\tGame memory _game = games[_cid...\n      DUP1 \t\t\tGame memory _game = games[_cid...\n      DUP4 \t\t\tGame memory _game = games[_cid...\n      SLOAD \t\t\tGame memory _game = games[_cid...\n      DIV \t\t\tGame memory _game = games[_cid...\n      MUL \t\t\tGame memory _game = games[_cid...\n      DUP4 \t\t\tGame memory _game = games[_cid...\n      MSTORE \t\t\tGame memory _game = games[_cid...\n      SWAP2 \t\t\tGame memory _game = games[_cid...\n      PUSH 20\t\t\tGame memory _game = games[_cid...\n      ADD \t\t\tGame memory _game = games[_cid...\n      SWAP2 \t\t\tGame memory _game = games[_cid...\n      PUSH [tag] 90\t\t\tGame memory _game = games[_cid...\n      JUMP \t\t\tGame memory _game = games[_cid...\n    tag 91\t\t\tGame memory _game = games[_cid...\n      JUMPDEST \t\t\tGame memory _game = games[_cid...\n      DUP3 \t\t\tGame memory _game = games[_cid...\n      ADD \t\t\tGame memory _game = games[_cid...\n      SWAP2 \t\t\tGame memory _game = games[_cid...\n      SWAP1 \t\t\tGame memory _game = games[_cid...\n      PUSH 0\t\t\tGame memory _game = games[_cid...\n      MSTORE \t\t\tGame memory _game = games[_cid...\n      PUSH 20\t\t\tGame memory _game = games[_cid...\n      PUSH 0\t\t\tGame memory _game = games[_cid...\n      KECCAK256 \t\t\tGame memory _game = games[_cid...\n      SWAP1 \t\t\tGame memory _game = games[_cid...\n    tag 92\t\t\tGame memory _game = games[_cid...\n      JUMPDEST \t\t\tGame memory _game = games[_cid...\n      DUP2 \t\t\tGame memory _game = games[_cid...\n      SLOAD \t\t\tGame memory _game = games[_cid...\n      DUP2 \t\t\tGame memory _game = games[_cid...\n      MSTORE \t\t\tGame memory _game = games[_cid...\n      SWAP1 \t\t\tGame memory _game = games[_cid...\n      PUSH 1\t\t\tGame memory _game = games[_cid...\n      ADD \t\t\tGame memory _game = games[_cid...\n      SWAP1 \t\t\tGame memory _game = games[_cid...\n      PUSH 20\t\t\tGame memory _game = games[_cid...\n      ADD \t\t\tGame memory _game = games[_cid...\n      DUP1 \t\t\tGame memory _game = games[_cid...\n      DUP4 \t\t\tGame memory _game = games[_cid...\n      GT \t\t\tGame memory _game = games[_cid...\n      PUSH [tag] 92\t\t\tGame memory _game = games[_cid...\n      JUMPI \t\t\tGame memory _game = games[_cid...\n      DUP3 \t\t\tGame memory _game = games[_cid...\n      SWAP1 \t\t\tGame memory _game = games[_cid...\n      SUB \t\t\tGame memory _game = games[_cid...\n      PUSH 1F\t\t\tGame memory _game = games[_cid...\n      AND \t\t\tGame memory _game = games[_cid...\n      DUP3 \t\t\tGame memory _game = games[_cid...\n      ADD \t\t\tGame memory _game = games[_cid...\n      SWAP2 \t\t\tGame memory _game = games[_cid...\n    tag 90\t\t\tGame memory _game = games[_cid...\n      JUMPDEST \t\t\tGame memory _game = games[_cid...\n      POP \t\t\tGame memory _game = games[_cid...\n      POP \t\t\tGame memory _game = games[_cid...\n      POP \t\t\tGame memory _game = games[_cid...\n      POP \t\t\tGame memory _game = games[_cid...\n      POP \t\t\tGame memory _game = games[_cid...\n      DUP2 \t\t\tGame memory _game = games[_cid...\n      MSTORE \t\t\tGame memory _game = games[_cid...\n      PUSH 20\t\t\tGame memory _game = games[_cid...\n      ADD \t\t\tGame memory _game = games[_cid...\n      PUSH 2\t\t\tGame memory _game = games[_cid...\n      DUP3 \t\t\tGame memory _game = games[_cid...\n      ADD \t\t\tGame memory _game = games[_cid...\n      PUSH 0\t\t\tGame memory _game = games[_cid...\n      SWAP1 \t\t\tGame memory _game = games[_cid...\n      SLOAD \t\t\tGame memory _game = games[_cid...\n      SWAP1 \t\t\tGame memory _game = games[_cid...\n      PUSH 100\t\t\tGame memory _game = games[_cid...\n      EXP \t\t\tGame memory _game = games[_cid...\n      SWAP1 \t\t\tGame memory _game = games[_cid...\n      DIV \t\t\tGame memory _game = games[_cid...\n      PUSH FFFFFFFFFFFFFFFFFFFFFFFFFFFFFFFFFFFFFFFF\t\t\tGame memory _game = games[_cid...\n      AND \t\t\tGame memory _game = games[_cid...\n      PUSH FFFFFFFFFFFFFFFFFFFFFFFFFFFFFFFFFFFFFFFF\t\t\tGame memory _game = games[_cid...\n      AND \t\t\tGame memory _game = games[_cid...\n      PUSH FFFFFFFFFFFFFFFFFFFFFFFFFFFFFFFFFFFFFFFF\t\t\tGame memory _game = games[_cid...\n      AND \t\t\tGame memory _game = games[_cid...\n      DUP2 \t\t\tGame memory _game = games[_cid...\n      MSTORE \t\t\tGame memory _game = games[_cid...\n      PUSH 20\t\t\tGame memory _game = games[_cid...\n      ADD \t\t\tGame memory _game = games[_cid...\n      PUSH 3\t\t\tGame memory _game = games[_cid...\n      DUP3 \t\t\tGame memory _game = games[_cid...\n      ADD \t\t\tGame memory _game = games[_cid...\n      DUP1 \t\t\tGame memory _game = games[_cid...\n      SLOAD \t\t\tGame memory _game = games[_cid...\n      PUSH [tag] 93\t\t\tGame memory _game = games[_cid...\n      SWAP1 \t\t\tGame memory _game = games[_cid...\n      PUSH [tag] 88\t\t\tGame memory _game = games[_cid...\n      JUMP \t\t\tGame memory _game = games[_cid...\n    tag 93\t\t\tGame memory _game = games[_cid...\n      JUMPDEST \t\t\tGame memory _game = games[_cid...\n      DUP1 \t\t\tGame memory _game = games[_cid...\n      PUSH 1F\t\t\tGame memory _game = games[_cid...\n      ADD \t\t\tGame memory _game = games[_cid...\n      PUSH 20\t\t\tGame memory _game = games[_cid...\n      DUP1 \t\t\tGame memory _game = games[_cid...\n      SWAP2 \t\t\tGame memory _game = games[_cid...\n      DIV \t\t\tGame memory _game = games[_cid...\n      MUL \t\t\tGame memory _game = games[_cid...\n      PUSH 20\t\t\tGame memory _game = games[_cid...\n      ADD \t\t\tGame memory _game = games[_cid...\n      PUSH 40\t\t\tGame memory _game = games[_cid...\n      MLOAD \t\t\tGame memory _game = games[_cid...\n      SWAP1 \t\t\tGame memory _game = games[_cid...\n      DUP2 \t\t\tGame memory _game = games[_cid...\n      ADD \t\t\tGame memory _game = games[_cid...\n      PUSH 40\t\t\tGame memory _game = games[_cid...\n      MSTORE \t\t\tGame memory _game = games[_cid...\n      DUP1 \t\t\tGame memory _game = games[_cid...\n      SWAP3 \t\t\tGame memory _game = games[_cid...\n      SWAP2 \t\t\tGame memory _game = games[_cid...\n      SWAP1 \t\t\tGame memory _game = games[_cid...\n      DUP2 \t\t\tGame memory _game = games[_cid...\n      DUP2 \t\t\tGame memory _game = games[_cid...\n      MSTORE \t\t\tGame memory _game = games[_cid...\n      PUSH 20\t\t\tGame memory _game = games[_cid...\n      ADD \t\t\tGame memory _game = games[_cid...\n      DUP3 \t\t\tGame memory _game = games[_cid...\n      DUP1 \t\t\tGame memory _game = games[_cid...\n      SLOAD \t\t\tGame memory _game = games[_cid...\n      PUSH [tag] 94\t\t\tGame memory _game = games[_cid...\n      SWAP1 \t\t\tGame memory _game = games[_cid...\n      PUSH [tag] 88\t\t\tGame memory _game = games[_cid...\n      JUMP \t\t\tGame memory _game = games[_cid...\n    tag 94\t\t\tGame memory _game = games[_cid...\n      JUMPDEST \t\t\tGame memory _game = games[_cid...\n      DUP1 \t\t\tGame memory _game = games[_cid...\n      ISZERO \t\t\tGame memory _game = games[_cid...\n      PUSH [tag] 95\t\t\tGame memory _game = games[_cid...\n      JUMPI \t\t\tGame memory _game = games[_cid...\n      DUP1 \t\t\tGame memory _game = games[_cid...\n      PUSH 1F\t\t\tGame memory _game = games[_cid...\n      LT \t\t\tGame memory _game = games[_cid...\n      PUSH [tag] 96\t\t\tGame memory _game = games[_cid...\n      JUMPI \t\t\tGame memory _game = games[_cid...\n      PUSH 100\t\t\tGame memory _game = games[_cid...\n      DUP1 \t\t\tGame memory _game = games[_cid...\n      DUP4 \t\t\tGame memory _game = games[_cid...\n      SLOAD \t\t\tGame memory _game = games[_cid...\n      DIV \t\t\tGame memory _game = games[_cid...\n      MUL \t\t\tGame memory _game = games[_cid...\n      DUP4 \t\t\tGame memory _game = games[_cid...\n      MSTORE \t\t\tGame memory _game = games[_cid...\n      SWAP2 \t\t\tGame memory _game = games[_cid...\n      PUSH 20\t\t\tGame memory _game = games[_cid...\n      ADD \t\t\tGame memory _game = games[_cid...\n      SWAP2 \t\t\tGame memory _game = games[_cid...\n      PUSH [tag] 95\t\t\tGame memory _game = games[_cid...\n      JUMP \t\t\tGame memory _game = games[_cid...\n    tag 96\t\t\tGame memory _game = games[_cid...\n      JUMPDEST \t\t\tGame memory _game = games[_cid...\n      DUP3 \t\t\tGame memory _game = games[_cid...\n      ADD \t\t\tGame memory _game = games[_cid...\n      SWAP2 \t\t\tGame memory _game = games[_cid...\n      SWAP1 \t\t\tGame memory _game = games[_cid...\n      PUSH 0\t\t\tGame memory _game = games[_cid...\n      MSTORE \t\t\tGame memory _game = games[_cid...\n      PUSH 20\t\t\tGame memory _game = games[_cid...\n      PUSH 0\t\t\tGame memory _game = games[_cid...\n      KECCAK256 \t\t\tGame memory _game = games[_cid...\n      SWAP1 \t\t\tGame memory _game = games[_cid...\n    tag 97\t\t\tGame memory _game = games[_cid...\n      JUMPDEST \t\t\tGame memory _game = games[_cid...\n      DUP2 \t\t\tGame memory _game = games[_cid...\n      SLOAD \t\t\tGame memory _game = games[_cid...\n      DUP2 \t\t\tGame memory _game = games[_cid...\n      MSTORE \t\t\tGame memory _game = games[_cid...\n      SWAP1 \t\t\tGame memory _game = games[_cid...\n      PUSH 1\t\t\tGame memory _game = games[_cid...\n      ADD \t\t\tGame memory _game = games[_cid...\n      SWAP1 \t\t\tGame memory _game = games[_cid...\n      PUSH 20\t\t\tGame memory _game = games[_cid...\n      ADD \t\t\tGame memory _game = games[_cid...\n      DUP1 \t\t\tGame memory _game = games[_cid...\n      DUP4 \t\t\tGame memory _game = games[_cid...\n      GT \t\t\tGame memory _game = games[_cid...\n      PUSH [tag] 97\t\t\tGame memory _game = games[_cid...\n      JUMPI \t\t\tGame memory _game = games[_cid...\n      DUP3 \t\t\tGame memory _game = games[_cid...\n      SWAP1 \t\t\tGame memory _game = games[_cid...\n      SUB \t\t\tGame memory _game = games[_cid...\n      PUSH 1F\t\t\tGame memory _game = games[_cid...\n      AND \t\t\tGame memory _game = games[_cid...\n      DUP3 \t\t\tGame memory _game = games[_cid...\n      ADD \t\t\tGame memory _game = games[_cid...\n      SWAP2 \t\t\tGame memory _game = games[_cid...\n    tag 95\t\t\tGame memory _game = games[_cid...\n      JUMPDEST \t\t\tGame memory _game = games[_cid...\n      POP \t\t\tGame memory _game = games[_cid...\n      POP \t\t\tGame memory _game = games[_cid...\n      POP \t\t\tGame memory _game = games[_cid...\n      POP \t\t\tGame memory _game = games[_cid...\n      POP \t\t\tGame memory _game = games[_cid...\n      DUP2 \t\t\tGame memory _game = games[_cid...\n      MSTORE \t\t\tGame memory _game = games[_cid...\n      PUSH 20\t\t\tGame memory _game = games[_cid...\n      ADD \t\t\tGame memory _game = games[_cid...\n      PUSH 4\t\t\tGame memory _game = games[_cid...\n      DUP3 \t\t\tGame memory _game = games[_cid...\n      ADD \t\t\tGame memory _game = games[_cid...\n      SLOAD \t\t\tGame memory _game = games[_cid...\n      DUP2 \t\t\tGame memory _game = games[_cid...\n      MSTORE \t\t\tGame memory _game = games[_cid...\n      PUSH 20\t\t\tGame memory _game = games[_cid...\n      ADD \t\t\tGame memory _game = games[_cid...\n      PUSH 5\t\t\tGame memory _game = games[_cid...\n      DUP3 \t\t\tGame memory _game = games[_cid...\n      ADD \t\t\tGame memory _game = games[_cid...\n      DUP1 \t\t\tGame memory _game = games[_cid...\n      SLOAD \t\t\tGame memory _game = games[_cid...\n      PUSH [tag] 98\t\t\tGame memory _game = games[_cid...\n      SWAP1 \t\t\tGame memory _game = games[_cid...\n      PUSH [tag] 88\t\t\tGame memory _game = games[_cid...\n      JUMP \t\t\tGame memory _game = games[_cid...\n    tag 98\t\t\tGame memory _game = games[_cid...\n      JUMPDEST \t\t\tGame memory _game = games[_cid...\n      DUP1 \t\t\tGame memory _game = games[_cid...\n      PUSH 1F\t\t\tGame memory _game = games[_cid...\n      ADD \t\t\tGame memory _game = games[_cid...\n      PUSH 20\t\t\tGame memory _game = games[_cid...\n      DUP1 \t\t\tGame memory _game = games[_cid...\n      SWAP2 \t\t\tGame memory _game = games[_cid...\n      DIV \t\t\tGame memory _game = games[_cid...\n      MUL \t\t\tGame memory _game = games[_cid...\n      PUSH 20\t\t\tGame memory _game = games[_cid...\n      ADD \t\t\tGame memory _game = games[_cid...\n      PUSH 40\t\t\tGame memory _game = games[_cid...\n      MLOAD \t\t\tGame memory _game = games[_cid...\n      SWAP1 \t\t\tGame memory _game = games[_cid...\n      DUP2 \t\t\tGame memory _game = games[_cid...\n      ADD \t\t\tGame memory _game = games[_cid...\n      PUSH 40\t\t\tGame memory _game = games[_cid...\n      MSTORE \t\t\tGame memory _game = games[_cid...\n      DUP1 \t\t\tGame memory _game = games[_cid...\n      SWAP3 \t\t\tGame memory _game = games[_cid...\n      SWAP2 \t\t\tGame memory _game = games[_cid...\n      SWAP1 \t\t\tGame memory _game = games[_cid...\n      DUP2 \t\t\tGame memory _game = games[_cid...\n      DUP2 \t\t\tGame memory _game = games[_cid...\n      MSTORE \t\t\tGame memory _game = games[_cid...\n      PUSH 20\t\t\tGame memory _game = games[_cid...\n      ADD \t\t\tGame memory _game = games[_cid...\n      DUP3 \t\t\tGame memory _game = games[_cid...\n      DUP1 \t\t\tGame memory _game = games[_cid...\n      SLOAD \t\t\tGame memory _game = games[_cid...\n      PUSH [tag] 99\t\t\tGame memory _game = games[_cid...\n      SWAP1 \t\t\tGame memory _game = games[_cid...\n      PUSH [tag] 88\t\t\tGame memory _game = games[_cid...\n      JUMP \t\t\tGame memory _game = games[_cid...\n    tag 99\t\t\tGame memory _game = games[_cid...\n      JUMPDEST \t\t\tGame memory _game = games[_cid...\n      DUP1 \t\t\tGame memory _game = games[_cid...\n      ISZERO \t\t\tGame memory _game = games[_cid...\n      PUSH [tag] 100\t\t\tGame memory _game = games[_cid...\n      JUMPI \t\t\tGame memory _game = games[_cid...\n      DUP1 \t\t\tGame memory _game = games[_cid...\n      PUSH 1F\t\t\tGame memory _game = games[_cid...\n      LT \t\t\tGame memory _game = games[_cid...\n      PUSH [tag] 101\t\t\tGame memory _game = games[_cid...\n      JUMPI \t\t\tGame memory _game = games[_cid...\n      PUSH 100\t\t\tGame memory _game = games[_cid...\n      DUP1 \t\t\tGame memory _game = games[_cid...\n      DUP4 \t\t\tGame memory _game = games[_cid...\n      SLOAD \t\t\tGame memory _game = games[_cid...\n      DIV \t\t\tGame memory _game = games[_cid...\n      MUL \t\t\tGame memory _game = games[_cid...\n      DUP4 \t\t\tGame memory _game = games[_cid...\n      MSTORE \t\t\tGame memory _game = games[_cid...\n      SWAP2 \t\t\tGame memory _game = games[_cid...\n      PUSH 20\t\t\tGame memory _game = games[_cid...\n      ADD \t\t\tGame memory _game = games[_cid...\n      SWAP2 \t\t\tGame memory _game = games[_cid...\n      PUSH [tag] 100\t\t\tGame memory _game = games[_cid...\n      JUMP \t\t\tGame memory _game = games[_cid...\n    tag 101\t\t\tGame memory _game = games[_cid...\n      JUMPDEST \t\t\tGame memory _game = games[_cid...\n      DUP3 \t\t\tGame memory _game = games[_cid...\n      ADD \t\t\tGame memory _game = games[_cid...\n      SWAP2 \t\t\tGame memory _game = games[_cid...\n      SWAP1 \t\t\tGame memory _game = games[_cid...\n      PUSH 0\t\t\tGame memory _game = games[_cid...\n      MSTORE \t\t\tGame memory _game = games[_cid...\n      PUSH 20\t\t\tGame memory _game = games[_cid...\n      PUSH 0\t\t\tGame memory _game = games[_cid...\n      KECCAK256 \t\t\tGame memory _game = games[_cid...\n      SWAP1 \t\t\tGame memory _game = games[_cid...\n    tag 102\t\t\tGame memory _game = games[_cid...\n      JUMPDEST \t\t\tGame memory _game = games[_cid...\n      DUP2 \t\t\tGame memory _game = games[_cid...\n      SLOAD \t\t\tGame memory _game = games[_cid...\n      DUP2 \t\t\tGame memory _game = games[_cid...\n      MSTORE \t\t\tGame memory _game = games[_cid...\n      SWAP1 \t\t\tGame memory _game = games[_cid...\n      PUSH 1\t\t\tGame memory _game = games[_cid...\n      ADD \t\t\tGame memory _game = games[_cid...\n      SWAP1 \t\t\tGame memory _game = games[_cid...\n      PUSH 20\t\t\tGame memory _game = games[_cid...\n      ADD \t\t\tGame memory _game = games[_cid...\n      DUP1 \t\t\tGame memory _game = games[_cid...\n      DUP4 \t\t\tGame memory _game = games[_cid...\n      GT \t\t\tGame memory _game = games[_cid...\n      PUSH [tag] 102\t\t\tGame memory _game = games[_cid...\n      JUMPI \t\t\tGame memory _game = games[_cid...\n      DUP3 \t\t\tGame memory _game = games[_cid...\n      SWAP1 \t\t\tGame memory _game = games[_cid...\n      SUB \t\t\tGame memory _game = games[_cid...\n      PUSH 1F\t\t\tGame memory _game = games[_cid...\n      AND \t\t\tGame memory _game = games[_cid...\n      DUP3 \t\t\tGame memory _game = games[_cid...\n      ADD \t\t\tGame memory _game = games[_cid...\n      SWAP2 \t\t\tGame memory _game = games[_cid...\n    tag 100\t\t\tGame memory _game = games[_cid...\n      JUMPDEST \t\t\tGame memory _game = games[_cid...\n      POP \t\t\tGame memory _game = games[_cid...\n      POP \t\t\tGame memory _game = games[_cid...\n      POP \t\t\tGame memory _game = games[_cid...\n      POP \t\t\tGame memory _game = games[_cid...\n      POP \t\t\tGame memory _game = games[_cid...\n      DUP2 \t\t\tGame memory _game = games[_cid...\n      MSTORE \t\t\tGame memory _game = games[_cid...\n      POP \t\t\tGame memory _game = games[_cid...\n      POP \t\t\tGame memory _game = games[_cid...\n      SWAP1 \t\t\tGame memory _game = games[_cid...\n      POP \t\t\tGame memory _game = games[_cid...\n      PUSH 0\t\t\t0\n      PUSH FFFFFFFFFFFFFFFFFFFFFFFFFFFFFFFFFFFFFFFF\t\t\t_game.creator == address(0)\n      AND \t\t\t_game.creator == address(0)\n      DUP2 \t\t\t_game\n      PUSH 0\t\t\t_game.creator\n      ADD \t\t\t_game.creator\n      MLOAD \t\t\t_game.creator\n      PUSH FFFFFFFFFFFFFFFFFFFFFFFFFFFFFFFFFFFFFFFF\t\t\t_game.creator == address(0)\n      AND \t\t\t_game.creator == address(0)\n      SUB \t\t\t_game.creator == address(0)\n      PUSH [tag] 103\t\t\tif (_game.creator == address(0...\n      JUMPI \t\t\tif (_game.creator == address(0...\n      PUSH 40\t\t\tInvalidGame()\n      MLOAD \t\t\tInvalidGame()\n      PUSH 57E25A0900000000000000000000000000000000000000000000000000000000\t\t\tInvalidGame()\n      DUP2 \t\t\tInvalidGame()\n      MSTORE \t\t\tInvalidGame()\n      PUSH 4\t\t\tInvalidGame()\n      ADD \t\t\tInvalidGame()\n      PUSH 40\t\t\tInvalidGame()\n      MLOAD \t\t\tInvalidGame()\n      DUP1 \t\t\tInvalidGame()\n      SWAP2 \t\t\tInvalidGame()\n      SUB \t\t\tInvalidGame()\n      SWAP1 \t\t\tInvalidGame()\n      REVERT \t\t\tInvalidGame()\n    tag 103\t\t\tif (_game.creator == address(0...\n      JUMPDEST \t\t\tif (_game.creator == address(0...\n      DUP1 \t\t\t_game\n      SWAP2 \t\t\treturn _game\n      POP \t\t\treturn _game\n      POP \t\t\treturn _game\n      SWAP2 \t\t\tfunction getGameByCid(string m...\n      SWAP1 \t\t\tfunction getGameByCid(string m...\n      POP \t\t\tfunction getGameByCid(string m...\n      JUMP \t\t\tfunction getGameByCid(string m...\n    tag 31\t\t\tfunction withdrawCreatorFunds(...\n      JUMPDEST \t\t\tfunction withdrawCreatorFunds(...\n      PUSH 0\t\t\t0\n      PUSH 4\t\t\tcreatorbalance\n      PUSH 0\t\t\tcreatorbalance[msg.sender]\n      CALLER \t\t\tmsg.sender\n      PUSH FFFFFFFFFFFFFFFFFFFFFFFFFFFFFFFFFFFFFFFF\t\t\tcreatorbalance[msg.sender]\n      AND \t\t\tcreatorbalance[msg.sender]\n      PUSH FFFFFFFFFFFFFFFFFFFFFFFFFFFFFFFFFFFFFFFF\t\t\tcreatorbalance[msg.sender]\n      AND \t\t\tcreatorbalance[msg.sender]\n      DUP2 \t\t\tcreatorbalance[msg.sender]\n      MSTORE \t\t\tcreatorbalance[msg.sender]\n      PUSH 20\t\t\tcreatorbalance[msg.sender]\n      ADD \t\t\tcreatorbalance[msg.sender]\n      SWAP1 \t\t\tcreatorbalance[msg.sender]\n      DUP2 \t\t\tcreatorbalance[msg.sender]\n      MSTORE \t\t\tcreatorbalance[msg.sender]\n      PUSH 20\t\t\tcreatorbalance[msg.sender]\n      ADD \t\t\tcreatorbalance[msg.sender]\n      PUSH 0\t\t\tcreatorbalance[msg.sender]\n      KECCAK256 \t\t\tcreatorbalance[msg.sender]\n      SLOAD \t\t\tcreatorbalance[msg.sender]\n      SUB \t\t\tcreatorbalance[msg.sender] == ...\n      PUSH [tag] 105\t\t\tif (creatorbalance[msg.sender]...\n      JUMPI \t\t\tif (creatorbalance[msg.sender]...\n      PUSH 40\t\t\tInsufficientFunds()\n      MLOAD \t\t\tInsufficientFunds()\n      PUSH 356680B700000000000000000000000000000000000000000000000000000000\t\t\tInsufficientFunds()\n      DUP2 \t\t\tInsufficientFunds()\n      MSTORE \t\t\tInsufficientFunds()\n      PUSH 4\t\t\tInsufficientFunds()\n      ADD \t\t\tInsufficientFunds()\n      PUSH 40\t\t\tInsufficientFunds()\n      MLOAD \t\t\tInsufficientFunds()\n      DUP1 \t\t\tInsufficientFunds()\n      SWAP2 \t\t\tInsufficientFunds()\n      SUB \t\t\tInsufficientFunds()\n      SWAP1 \t\t\tInsufficientFunds()\n      REVERT \t\t\tInsufficientFunds()\n    tag 105\t\t\tif (creatorbalance[msg.sender]...\n      JUMPDEST \t\t\tif (creatorbalance[msg.sender]...\n      CALLER \t\t\tmsg.sender\n      PUSH FFFFFFFFFFFFFFFFFFFFFFFFFFFFFFFFFFFFFFFF\t\t\tpayable(msg.sender).transfer\n      AND \t\t\tpayable(msg.sender).transfer\n      PUSH 8FC\t\t\tpayable(msg.sender).transfer(c...\n      PUSH 4\t\t\tcreatorbalance\n      PUSH 0\t\t\tcreatorbalance[msg.sender]\n      CALLER \t\t\tmsg.sender\n      PUSH FFFFFFFFFFFFFFFFFFFFFFFFFFFFFFFFFFFFFFFF\t\t\tcreatorbalance[msg.sender]\n      AND \t\t\tcreatorbalance[msg.sender]\n      PUSH FFFFFFFFFFFFFFFFFFFFFFFFFFFFFFFFFFFFFFFF\t\t\tcreatorbalance[msg.sender]\n      AND \t\t\tcreatorbalance[msg.sender]\n      DUP2 \t\t\tcreatorbalance[msg.sender]\n      MSTORE \t\t\tcreatorbalance[msg.sender]\n      PUSH 20\t\t\tcreatorbalance[msg.sender]\n      ADD \t\t\tcreatorbalance[msg.sender]\n      SWAP1 \t\t\tcreatorbalance[msg.sender]\n      DUP2 \t\t\tcreatorbalance[msg.sender]\n      MSTORE \t\t\tcreatorbalance[msg.sender]\n      PUSH 20\t\t\tcreatorbalance[msg.sender]\n      ADD \t\t\tcreatorbalance[msg.sender]\n      PUSH 0\t\t\tcreatorbalance[msg.sender]\n      KECCAK256 \t\t\tcreatorbalance[msg.sender]\n      SLOAD \t\t\tcreatorbalance[msg.sender]\n      SWAP1 \t\t\tpayable(msg.sender).transfer(c...\n      DUP2 \t\t\tpayable(msg.sender).transfer(c...\n      ISZERO \t\t\tpayable(msg.sender).transfer(c...\n      MUL \t\t\tpayable(msg.sender).transfer(c...\n      SWAP1 \t\t\tpayable(msg.sender).transfer(c...\n      PUSH 40\t\t\tpayable(msg.sender).transfer(c...\n      MLOAD \t\t\tpayable(msg.sender).transfer(c...\n      PUSH 0\t\t\tpayable(msg.sender).transfer(c...\n      PUSH 40\t\t\tpayable(msg.sender).transfer(c...\n      MLOAD \t\t\tpayable(msg.sender).transfer(c...\n      DUP1 \t\t\tpayable(msg.sender).transfer(c...\n      DUP4 \t\t\tpayable(msg.sender).transfer(c...\n      SUB \t\t\tpayable(msg.sender).transfer(c...\n      DUP2 \t\t\tpayable(msg.sender).transfer(c...\n      DUP6 \t\t\tpayable(msg.sender).transfer(c...\n      DUP9 \t\t\tpayable(msg.sender).transfer(c...\n      DUP9 \t\t\tpayable(msg.sender).transfer(c...\n      CALL \t\t\tpayable(msg.sender).transfer(c...\n      SWAP4 \t\t\tpayable(msg.sender).transfer(c...\n      POP \t\t\tpayable(msg.sender).transfer(c...\n      POP \t\t\tpayable(msg.sender).transfer(c...\n      POP \t\t\tpayable(msg.sender).transfer(c...\n      POP \t\t\tpayable(msg.sender).transfer(c...\n      ISZERO \t\t\tpayable(msg.sender).transfer(c...\n      DUP1 \t\t\tpayable(msg.sender).transfer(c...\n      ISZERO \t\t\tpayable(msg.sender).transfer(c...\n      PUSH [tag] 107\t\t\tpayable(msg.sender).transfer(c...\n      JUMPI \t\t\tpayable(msg.sender).transfer(c...\n      RETURNDATASIZE \t\t\tpayable(msg.sender).transfer(c...\n      PUSH 0\t\t\tpayable(msg.sender).transfer(c...\n      DUP1 \t\t\tpayable(msg.sender).transfer(c...\n      RETURNDATACOPY \t\t\tpayable(msg.sender).transfer(c...\n      RETURNDATASIZE \t\t\tpayable(msg.sender).transfer(c...\n      PUSH 0\t\t\tpayable(msg.sender).transfer(c...\n      REVERT \t\t\tpayable(msg.sender).transfer(c...\n    tag 107\t\t\tpayable(msg.sender).transfer(c...\n      JUMPDEST \t\t\tpayable(msg.sender).transfer(c...\n      POP \t\t\tpayable(msg.sender).transfer(c...\n      PUSH 0\t\t\t0\n      PUSH 4\t\t\tcreatorbalance\n      PUSH 0\t\t\tcreatorbalance[msg.sender]\n      CALLER \t\t\tmsg.sender\n      PUSH FFFFFFFFFFFFFFFFFFFFFFFFFFFFFFFFFFFFFFFF\t\t\tcreatorbalance[msg.sender]\n      AND \t\t\tcreatorbalance[msg.sender]\n      PUSH FFFFFFFFFFFFFFFFFFFFFFFFFFFFFFFFFFFFFFFF\t\t\tcreatorbalance[msg.sender]\n      AND \t\t\tcreatorbalance[msg.sender]\n      DUP2 \t\t\tcreatorbalance[msg.sender]\n      MSTORE \t\t\tcreatorbalance[msg.sender]\n      PUSH 20\t\t\tcreatorbalance[msg.sender]\n      ADD \t\t\tcreatorbalance[msg.sender]\n      SWAP1 \t\t\tcreatorbalance[msg.sender]\n      DUP2 \t\t\tcreatorbalance[msg.sender]\n      MSTORE \t\t\tcreatorbalance[msg.sender]\n      PUSH 20\t\t\tcreatorbalance[msg.sender]\n      ADD \t\t\tcreatorbalance[msg.sender]\n      PUSH 0\t\t\tcreatorbalance[msg.sender]\n      KECCAK256 \t\t\tcreatorbalance[msg.sender]\n      DUP2 \t\t\tcreatorbalance[msg.sender] = 0\n      SWAP1 \t\t\tcreatorbalance[msg.sender] = 0\n      SSTORE \t\t\tcreatorbalance[msg.sender] = 0\n      POP \t\t\tcreatorbalance[msg.sender] = 0\n      CALLER \t\t\tmsg.sender\n      PUSH FFFFFFFFFFFFFFFFFFFFFFFFFFFFFFFFFFFFFFFF\t\t\tCreatorFundsWithdrawn(msg.send...\n      AND \t\t\tCreatorFundsWithdrawn(msg.send...\n      PUSH C43456380866B66F35F174AB56EFABBEB1145C4BBF6FE8047C2590E378346EF7\t\t\tCreatorFundsWithdrawn(msg.send...\n      PUSH 40\t\t\tCreatorFundsWithdrawn(msg.send...\n      MLOAD \t\t\tCreatorFundsWithdrawn(msg.send...\n      PUSH 40\t\t\tCreatorFundsWithdrawn(msg.send...\n      MLOAD \t\t\tCreatorFundsWithdrawn(msg.send...\n      DUP1 \t\t\tCreatorFundsWithdrawn(msg.send...\n      SWAP2 \t\t\tCreatorFundsWithdrawn(msg.send...\n      SUB \t\t\tCreatorFundsWithdrawn(msg.send...\n      SWAP1 \t\t\tCreatorFundsWithdrawn(msg.send...\n      LOG2 \t\t\tCreatorFundsWithdrawn(msg.send...\n      JUMP \t\t\tfunction withdrawCreatorFunds(...\n    tag 34\t\t\tfunction getGames() external v...\n      JUMPDEST \t\t\tfunction getGames() external v...\n      PUSH 60\t\t\tGame[] memory\n      PUSH 0\t\t\tGame[] memory _games\n      PUSH 3\t\t\tcids\n      DUP1 \t\t\tcids.length\n      SLOAD \t\t\tcids.length\n      SWAP1 \t\t\tcids.length\n      POP \t\t\tcids.length\n      PUSH FFFFFFFFFFFFFFFF\t\t\tnew Game[](cids.length)\n      DUP2 \t\t\tnew Game[](cids.length)\n      GT \t\t\tnew Game[](cids.length)\n      ISZERO \t\t\tnew Game[](cids.length)\n      PUSH [tag] 109\t\t\tnew Game[](cids.length)\n      JUMPI \t\t\tnew Game[](cids.length)\n      PUSH [tag] 110\t\t\tnew Game[](cids.length)\n      PUSH [tag] 111\t\t\tnew Game[](cids.length)\n      JUMP \t\t\tnew Game[](cids.length)\n    tag 110\t\t\tnew Game[](cids.length)\n      JUMPDEST \t\t\tnew Game[](cids.length)\n    tag 109\t\t\tnew Game[](cids.length)\n      JUMPDEST \t\t\tnew Game[](cids.length)\n      PUSH 40\t\t\tnew Game[](cids.length)\n      MLOAD \t\t\tnew Game[](cids.length)\n      SWAP1 \t\t\tnew Game[](cids.length)\n      DUP1 \t\t\tnew Game[](cids.length)\n      DUP3 \t\t\tnew Game[](cids.length)\n      MSTORE \t\t\tnew Game[](cids.length)\n      DUP1 \t\t\tnew Game[](cids.length)\n      PUSH 20\t\t\tnew Game[](cids.length)\n      MUL \t\t\tnew Game[](cids.length)\n      PUSH 20\t\t\tnew Game[](cids.length)\n      ADD \t\t\tnew Game[](cids.length)\n      DUP3 \t\t\tnew Game[](cids.length)\n      ADD \t\t\tnew Game[](cids.length)\n      PUSH 40\t\t\tnew Game[](cids.length)\n      MSTORE \t\t\tnew Game[](cids.length)\n      DUP1 \t\t\tnew Game[](cids.length)\n      ISZERO \t\t\tnew Game[](cids.length)\n      PUSH [tag] 112\t\t\tnew Game[](cids.length)\n      JUMPI \t\t\tnew Game[](cids.length)\n      DUP2 \t\t\tnew Game[](cids.length)\n      PUSH 20\t\t\tnew Game[](cids.length)\n      ADD \t\t\tnew Game[](cids.length)\n    tag 113\t\t\tnew Game[](cids.length)\n      JUMPDEST \t\t\tnew Game[](cids.length)\n      PUSH [tag] 114\t\t\tnew Game[](cids.length)\n      PUSH [tag] 84\t\t\tnew Game[](cids.length)\n      JUMP \t\t\tnew Game[](cids.length)\n    tag 114\t\t\tnew Game[](cids.length)\n      JUMPDEST \t\t\tnew Game[](cids.length)\n      DUP2 \t\t\tnew Game[](cids.length)\n      MSTORE \t\t\tnew Game[](cids.length)\n      PUSH 20\t\t\tnew Game[](cids.length)\n      ADD \t\t\tnew Game[](cids.length)\n      SWAP1 \t\t\tnew Game[](cids.length)\n      PUSH 1\t\t\tnew Game[](cids.length)\n      SWAP1 \t\t\tnew Game[](cids.length)\n      SUB \t\t\tnew Game[](cids.length)\n      SWAP1 \t\t\tnew Game[](cids.length)\n      DUP2 \t\t\tnew Game[](cids.length)\n      PUSH [tag] 113\t\t\tnew Game[](cids.length)\n      JUMPI \t\t\tnew Game[](cids.length)\n      SWAP1 \t\t\tnew Game[](cids.length)\n      POP \t\t\tnew Game[](cids.length)\n    tag 112\t\t\tnew Game[](cids.length)\n      JUMPDEST \t\t\tnew Game[](cids.length)\n      POP \t\t\tnew Game[](cids.length)\n      SWAP1 \t\t\tGame[] memory _games = new Gam...\n      POP \t\t\tGame[] memory _games = new Gam...\n      PUSH 0\t\t\tuint256 i\n    tag 115\t\t\tfor (uint256 i = 0; i < cids.l...\n      JUMPDEST \t\t\tfor (uint256 i = 0; i < cids.l...\n      PUSH 3\t\t\tcids\n      DUP1 \t\t\tcids.length\n      SLOAD \t\t\tcids.length\n      SWAP1 \t\t\tcids.length\n      POP \t\t\tcids.length\n      DUP2 \t\t\ti\n      LT \t\t\ti < cids.length\n      ISZERO \t\t\tfor (uint256 i = 0; i < cids.l...\n      PUSH [tag] 116\t\t\tfor (uint256 i = 0; i < cids.l...\n      JUMPI \t\t\tfor (uint256 i = 0; i < cids.l...\n      PUSH 2\t\t\tgames\n      PUSH 3\t\t\tcids\n      DUP3 \t\t\ti\n      DUP2 \t\t\tcids[i]\n      SLOAD \t\t\tcids[i]\n      DUP2 \t\t\tcids[i]\n      LT \t\t\tcids[i]\n      PUSH [tag] 118\t\t\tcids[i]\n      JUMPI \t\t\tcids[i]\n      PUSH [tag] 119\t\t\tcids[i]\n      PUSH [tag] 120\t\t\tcids[i]\n      JUMP \t\t\tcids[i]\n    tag 119\t\t\tcids[i]\n      JUMPDEST \t\t\tcids[i]\n    tag 118\t\t\tcids[i]\n      JUMPDEST \t\t\tcids[i]\n      SWAP1 \t\t\tcids[i]\n      PUSH 0\t\t\tcids[i]\n      MSTORE \t\t\tcids[i]\n      PUSH 20\t\t\tcids[i]\n      PUSH 0\t\t\tcids[i]\n      KECCAK256 \t\t\tcids[i]\n      ADD \t\t\tcids[i]\n      PUSH 40\t\t\tgames[cids[i]]\n      MLOAD \t\t\tgames[cids[i]]\n      PUSH [tag] 122\t\t\tgames[cids[i]]\n      SWAP2 \t\t\tgames[cids[i]]\n      SWAP1 \t\t\tgames[cids[i]]\n      PUSH [tag] 123\t\t\tgames[cids[i]]\n      JUMP \t\t\tgames[cids[i]]\n    tag 122\t\t\tgames[cids[i]]\n      JUMPDEST \t\t\tgames[cids[i]]\n      SWAP1 \t\t\tgames[cids[i]]\n      DUP2 \t\t\tgames[cids[i]]\n      MSTORE \t\t\tgames[cids[i]]\n      PUSH 20\t\t\tgames[cids[i]]\n      ADD \t\t\tgames[cids[i]]\n      PUSH 40\t\t\tgames[cids[i]]\n      MLOAD \t\t\tgames[cids[i]]\n      DUP1 \t\t\tgames[cids[i]]\n      SWAP2 \t\t\tgames[cids[i]]\n      SUB \t\t\tgames[cids[i]]\n      SWAP1 \t\t\tgames[cids[i]]\n      KECCAK256 \t\t\tgames[cids[i]]\n      PUSH 40\t\t\t_games[i] = games[cids[i]]\n      MLOAD \t\t\t_games[i] = games[cids[i]]\n      DUP1 \t\t\t_games[i] = games[cids[i]]\n      PUSH C0\t\t\t_games[i] = games[cids[i]]\n      ADD \t\t\t_games[i] = games[cids[i]]\n      PUSH 40\t\t\t_games[i] = games[cids[i]]\n      MSTORE \t\t\t_games[i] = games[cids[i]]\n      SWAP1 \t\t\t_games[i] = games[cids[i]]\n      DUP2 \t\t\t_games[i] = games[cids[i]]\n      PUSH 0\t\t\t_games[i] = games[cids[i]]\n      DUP3 \t\t\t_games[i] = games[cids[i]]\n      ADD \t\t\t_games[i] = games[cids[i]]\n      PUSH 0\t\t\t_games[i] = games[cids[i]]\n      SWAP1 \t\t\t_games[i] = games[cids[i]]\n      SLOAD \t\t\t_games[i] = games[cids[i]]\n      SWAP1 \t\t\t_games[i] = games[cids[i]]\n      PUSH 100\t\t\t_games[i] = games[cids[i]]\n      EXP \t\t\t_games[i] = games[cids[i]]\n      SWAP1 \t\t\t_games[i] = games[cids[i]]\n      DIV \t\t\t_games[i] = games[cids[i]]\n      PUSH FFFFFFFFFFFFFFFFFFFFFFFFFFFFFFFFFFFFFFFF\t\t\t_games[i] = games[cids[i]]\n      AND \t\t\t_games[i] = games[cids[i]]\n      PUSH FFFFFFFFFFFFFFFFFFFFFFFFFFFFFFFFFFFFFFFF\t\t\t_games[i] = games[cids[i]]\n      AND \t\t\t_games[i] = games[cids[i]]\n      PUSH FFFFFFFFFFFFFFFFFFFFFFFFFFFFFFFFFFFFFFFF\t\t\t_games[i] = games[cids[i]]\n      AND \t\t\t_games[i] = games[cids[i]]\n      DUP2 \t\t\t_games[i] = games[cids[i]]\n      MSTORE \t\t\t_games[i] = games[cids[i]]\n      PUSH 20\t\t\t_games[i] = games[cids[i]]\n      ADD \t\t\t_games[i] = games[cids[i]]\n      PUSH 1\t\t\t_games[i] = games[cids[i]]\n      DUP3 \t\t\t_games[i] = games[cids[i]]\n      ADD \t\t\t_games[i] = games[cids[i]]\n      DUP1 \t\t\t_games[i] = games[cids[i]]\n      SLOAD \t\t\t_games[i] = games[cids[i]]\n      PUSH [tag] 124\t\t\t_games[i] = games[cids[i]]\n      SWAP1 \t\t\t_games[i] = games[cids[i]]\n      PUSH [tag] 88\t\t\t_games[i] = games[cids[i]]\n      JUMP \t\t\t_games[i] = games[cids[i]]\n    tag 124\t\t\t_games[i] = games[cids[i]]\n      JUMPDEST \t\t\t_games[i] = games[cids[i]]\n      DUP1 \t\t\t_games[i] = games[cids[i]]\n      PUSH 1F\t\t\t_games[i] = games[cids[i]]\n      ADD \t\t\t_games[i] = games[cids[i]]\n      PUSH 20\t\t\t_games[i] = games[cids[i]]\n      DUP1 \t\t\t_games[i] = games[cids[i]]\n      SWAP2 \t\t\t_games[i] = games[cids[i]]\n      DIV \t\t\t_games[i] = games[cids[i]]\n      MUL \t\t\t_games[i] = games[cids[i]]\n      PUSH 20\t\t\t_games[i] = games[cids[i]]\n      ADD \t\t\t_games[i] = games[cids[i]]\n      PUSH 40\t\t\t_games[i] = games[cids[i]]\n      MLOAD \t\t\t_games[i] = games[cids[i]]\n      SWAP1 \t\t\t_games[i] = games[cids[i]]\n      DUP2 \t\t\t_games[i] = games[cids[i]]\n      ADD \t\t\t_games[i] = games[cids[i]]\n      PUSH 40\t\t\t_games[i] = games[cids[i]]\n      MSTORE \t\t\t_games[i] = games[cids[i]]\n      DUP1 \t\t\t_games[i] = games[cids[i]]\n      SWAP3 \t\t\t_games[i] = games[cids[i]]\n      SWAP2 \t\t\t_games[i] = games[cids[i]]\n      SWAP1 \t\t\t_games[i] = games[cids[i]]\n      DUP2 \t\t\t_games[i] = games[cids[i]]\n      DUP2 \t\t\t_games[i] = games[cids[i]]\n      MSTORE \t\t\t_games[i] = games[cids[i]]\n      PUSH 20\t\t\t_games[i] = games[cids[i]]\n      ADD \t\t\t_games[i] = games[cids[i]]\n      DUP3 \t\t\t_games[i] = games[cids[i]]\n      DUP1 \t\t\t_games[i] = games[cids[i]]\n      SLOAD \t\t\t_games[i] = games[cids[i]]\n      PUSH [tag] 125\t\t\t_games[i] = games[cids[i]]\n      SWAP1 \t\t\t_games[i] = games[cids[i]]\n      PUSH [tag] 88\t\t\t_games[i] = games[cids[i]]\n      JUMP \t\t\t_games[i] = games[cids[i]]\n    tag 125\t\t\t_games[i] = games[cids[i]]\n      JUMPDEST \t\t\t_games[i] = games[cids[i]]\n      DUP1 \t\t\t_games[i] = games[cids[i]]\n      ISZERO \t\t\t_games[i] = games[cids[i]]\n      PUSH [tag] 126\t\t\t_games[i] = games[cids[i]]\n      JUMPI \t\t\t_games[i] = games[cids[i]]\n      DUP1 \t\t\t_games[i] = games[cids[i]]\n      PUSH 1F\t\t\t_games[i] = games[cids[i]]\n      LT \t\t\t_games[i] = games[cids[i]]\n      PUSH [tag] 127\t\t\t_games[i] = games[cids[i]]\n      JUMPI \t\t\t_games[i] = games[cids[i]]\n      PUSH 100\t\t\t_games[i] = games[cids[i]]\n      DUP1 \t\t\t_games[i] = games[cids[i]]\n      DUP4 \t\t\t_games[i] = games[cids[i]]\n      SLOAD \t\t\t_games[i] = games[cids[i]]\n      DIV \t\t\t_games[i] = games[cids[i]]\n      MUL \t\t\t_games[i] = games[cids[i]]\n      DUP4 \t\t\t_games[i] = games[cids[i]]\n      MSTORE \t\t\t_games[i] = games[cids[i]]\n      SWAP2 \t\t\t_games[i] = games[cids[i]]\n      PUSH 20\t\t\t_games[i] = games[cids[i]]\n      ADD \t\t\t_games[i] = games[cids[i]]\n      SWAP2 \t\t\t_games[i] = games[cids[i]]\n      PUSH [tag] 126\t\t\t_games[i] = games[cids[i]]\n      JUMP \t\t\t_games[i] = games[cids[i]]\n    tag 127\t\t\t_games[i] = games[cids[i]]\n      JUMPDEST \t\t\t_games[i] = games[cids[i]]\n      DUP3 \t\t\t_games[i] = games[cids[i]]\n      ADD \t\t\t_games[i] = games[cids[i]]\n      SWAP2 \t\t\t_games[i] = games[cids[i]]\n      SWAP1 \t\t\t_games[i] = games[cids[i]]\n      PUSH 0\t\t\t_games[i] = games[cids[i]]\n      MSTORE \t\t\t_games[i] = games[cids[i]]\n      PUSH 20\t\t\t_games[i] = games[cids[i]]\n      PUSH 0\t\t\t_games[i] = games[cids[i]]\n      KECCAK256 \t\t\t_games[i] = games[cids[i]]\n      SWAP1 \t\t\t_games[i] = games[cids[i]]\n    tag 128\t\t\t_games[i] = games[cids[i]]\n      JUMPDEST \t\t\t_games[i] = games[cids[i]]\n      DUP2 \t\t\t_games[i] = games[cids[i]]\n      SLOAD \t\t\t_games[i] = games[cids[i]]\n      DUP2 \t\t\t_games[i] = games[cids[i]]\n      MSTORE \t\t\t_games[i] = games[cids[i]]\n      SWAP1 \t\t\t_games[i] = games[cids[i]]\n      PUSH 1\t\t\t_games[i] = games[cids[i]]\n      ADD \t\t\t_games[i] = games[cids[i]]\n      SWAP1 \t\t\t_games[i] = games[cids[i]]\n      PUSH 20\t\t\t_games[i] = games[cids[i]]\n      ADD \t\t\t_games[i] = games[cids[i]]\n      DUP1 \t\t\t_games[i] = games[cids[i]]\n      DUP4 \t\t\t_games[i] = games[cids[i]]\n      GT \t\t\t_games[i] = games[cids[i]]\n      PUSH [tag] 128\t\t\t_games[i] = games[cids[i]]\n      JUMPI \t\t\t_games[i] = games[cids[i]]\n      DUP3 \t\t\t_games[i] = games[cids[i]]\n      SWAP1 \t\t\t_games[i] = games[cids[i]]\n      SUB \t\t\t_games[i] = games[cids[i]]\n      PUSH 1F\t\t\t_games[i] = games[cids[i]]\n      AND \t\t\t_games[i] = games[cids[i]]\n      DUP3 \t\t\t_games[i] = games[cids[i]]\n      ADD \t\t\t_games[i] = games[cids[i]]\n      SWAP2 \t\t\t_games[i] = games[cids[i]]\n    tag 126\t\t\t_games[i] = games[cids[i]]\n      JUMPDEST \t\t\t_games[i] = games[cids[i]]\n      POP \t\t\t_games[i] = games[cids[i]]\n      POP \t\t\t_games[i] = games[cids[i]]\n      POP \t\t\t_games[i] = games[cids[i]]\n      POP \t\t\t_games[i] = games[cids[i]]\n      POP \t\t\t_games[i] = games[cids[i]]\n      DUP2 \t\t\t_games[i] = games[cids[i]]\n      MSTORE \t\t\t_games[i] = games[cids[i]]\n      PUSH 20\t\t\t_games[i] = games[cids[i]]\n      ADD \t\t\t_games[i] = games[cids[i]]\n      PUSH 2\t\t\t_games[i] = games[cids[i]]\n      DUP3 \t\t\t_games[i] = games[cids[i]]\n      ADD \t\t\t_games[i] = games[cids[i]]\n      PUSH 0\t\t\t_games[i] = games[cids[i]]\n      SWAP1 \t\t\t_games[i] = games[cids[i]]\n      SLOAD \t\t\t_games[i] = games[cids[i]]\n      SWAP1 \t\t\t_games[i] = games[cids[i]]\n      PUSH 100\t\t\t_games[i] = games[cids[i]]\n      EXP \t\t\t_games[i] = games[cids[i]]\n      SWAP1 \t\t\t_games[i] = games[cids[i]]\n      DIV \t\t\t_games[i] = games[cids[i]]\n      PUSH FFFFFFFFFFFFFFFFFFFFFFFFFFFFFFFFFFFFFFFF\t\t\t_games[i] = games[cids[i]]\n      AND \t\t\t_games[i] = games[cids[i]]\n      PUSH FFFFFFFFFFFFFFFFFFFFFFFFFFFFFFFFFFFFFFFF\t\t\t_games[i] = games[cids[i]]\n      AND \t\t\t_games[i] = games[cids[i]]\n      PUSH FFFFFFFFFFFFFFFFFFFFFFFFFFFFFFFFFFFFFFFF\t\t\t_games[i] = games[cids[i]]\n      AND \t\t\t_games[i] = games[cids[i]]\n      DUP2 \t\t\t_games[i] = games[cids[i]]\n      MSTORE \t\t\t_games[i] = games[cids[i]]\n      PUSH 20\t\t\t_games[i] = games[cids[i]]\n      ADD \t\t\t_games[i] = games[cids[i]]\n      PUSH 3\t\t\t_games[i] = games[cids[i]]\n      DUP3 \t\t\t_games[i] = games[cids[i]]\n      ADD \t\t\t_games[i] = games[cids[i]]\n      DUP1 \t\t\t_games[i] = games[cids[i]]\n      SLOAD \t\t\t_games[i] = games[cids[i]]\n      PUSH [tag] 129\t\t\t_games[i] = games[cids[i]]\n      SWAP1 \t\t\t_games[i] = games[cids[i]]\n      PUSH [tag] 88\t\t\t_games[i] = games[cids[i]]\n      JUMP \t\t\t_games[i] = games[cids[i]]\n    tag 129\t\t\t_games[i] = games[cids[i]]\n      JUMPDEST \t\t\t_games[i] = games[cids[i]]\n      DUP1 \t\t\t_games[i] = games[cids[i]]\n      PUSH 1F\t\t\t_games[i] = games[cids[i]]\n      ADD \t\t\t_games[i] = games[cids[i]]\n      PUSH 20\t\t\t_games[i] = games[cids[i]]\n      DUP1 \t\t\t_games[i] = games[cids[i]]\n      SWAP2 \t\t\t_games[i] = games[cids[i]]\n      DIV \t\t\t_games[i] = games[cids[i]]\n      MUL \t\t\t_games[i] = games[cids[i]]\n      PUSH 20\t\t\t_games[i] = games[cids[i]]\n      ADD \t\t\t_games[i] = games[cids[i]]\n      PUSH 40\t\t\t_games[i] = games[cids[i]]\n      MLOAD \t\t\t_games[i] = games[cids[i]]\n      SWAP1 \t\t\t_games[i] = games[cids[i]]\n      DUP2 \t\t\t_games[i] = games[cids[i]]\n      ADD \t\t\t_games[i] = games[cids[i]]\n      PUSH 40\t\t\t_games[i] = games[cids[i]]\n      MSTORE \t\t\t_games[i] = games[cids[i]]\n      DUP1 \t\t\t_games[i] = games[cids[i]]\n      SWAP3 \t\t\t_games[i] = games[cids[i]]\n      SWAP2 \t\t\t_games[i] = games[cids[i]]\n      SWAP1 \t\t\t_games[i] = games[cids[i]]\n      DUP2 \t\t\t_games[i] = games[cids[i]]\n      DUP2 \t\t\t_games[i] = games[cids[i]]\n      MSTORE \t\t\t_games[i] = games[cids[i]]\n      PUSH 20\t\t\t_games[i] = games[cids[i]]\n      ADD \t\t\t_games[i] = games[cids[i]]\n      DUP3 \t\t\t_games[i] = games[cids[i]]\n      DUP1 \t\t\t_games[i] = games[cids[i]]\n      SLOAD \t\t\t_games[i] = games[cids[i]]\n      PUSH [tag] 130\t\t\t_games[i] = games[cids[i]]\n      SWAP1 \t\t\t_games[i] = games[cids[i]]\n      PUSH [tag] 88\t\t\t_games[i] = games[cids[i]]\n      JUMP \t\t\t_games[i] = games[cids[i]]\n    tag 130\t\t\t_games[i] = games[cids[i]]\n      JUMPDEST \t\t\t_games[i] = games[cids[i]]\n      DUP1 \t\t\t_games[i] = games[cids[i]]\n      ISZERO \t\t\t_games[i] = games[cids[i]]\n      PUSH [tag] 131\t\t\t_games[i] = games[cids[i]]\n      JUMPI \t\t\t_games[i] = games[cids[i]]\n      DUP1 \t\t\t_games[i] = games[cids[i]]\n      PUSH 1F\t\t\t_games[i] = games[cids[i]]\n      LT \t\t\t_games[i] = games[cids[i]]\n      PUSH [tag] 132\t\t\t_games[i] = games[cids[i]]\n      JUMPI \t\t\t_games[i] = games[cids[i]]\n      PUSH 100\t\t\t_games[i] = games[cids[i]]\n      DUP1 \t\t\t_games[i] = games[cids[i]]\n      DUP4 \t\t\t_games[i] = games[cids[i]]\n      SLOAD \t\t\t_games[i] = games[cids[i]]\n      DIV \t\t\t_games[i] = games[cids[i]]\n      MUL \t\t\t_games[i] = games[cids[i]]\n      DUP4 \t\t\t_games[i] = games[cids[i]]\n      MSTORE \t\t\t_games[i] = games[cids[i]]\n      SWAP2 \t\t\t_games[i] = games[cids[i]]\n      PUSH 20\t\t\t_games[i] = games[cids[i]]\n      ADD \t\t\t_games[i] = games[cids[i]]\n      SWAP2 \t\t\t_games[i] = games[cids[i]]\n      PUSH [tag] 131\t\t\t_games[i] = games[cids[i]]\n      JUMP \t\t\t_games[i] = games[cids[i]]\n    tag 132\t\t\t_games[i] = games[cids[i]]\n      JUMPDEST \t\t\t_games[i] = games[cids[i]]\n      DUP3 \t\t\t_games[i] = games[cids[i]]\n      ADD \t\t\t_games[i] = games[cids[i]]\n      SWAP2 \t\t\t_games[i] = games[cids[i]]\n      SWAP1 \t\t\t_games[i] = games[cids[i]]\n      PUSH 0\t\t\t_games[i] = games[cids[i]]\n      MSTORE \t\t\t_games[i] = games[cids[i]]\n      PUSH 20\t\t\t_games[i] = games[cids[i]]\n      PUSH 0\t\t\t_games[i] = games[cids[i]]\n      KECCAK256 \t\t\t_games[i] = games[cids[i]]\n      SWAP1 \t\t\t_games[i] = games[cids[i]]\n    tag 133\t\t\t_games[i] = games[cids[i]]\n      JUMPDEST \t\t\t_games[i] = games[cids[i]]\n      DUP2 \t\t\t_games[i] = games[cids[i]]\n      SLOAD \t\t\t_games[i] = games[cids[i]]\n      DUP2 \t\t\t_games[i] = games[cids[i]]\n      MSTORE \t\t\t_games[i] = games[cids[i]]\n      SWAP1 \t\t\t_games[i] = games[cids[i]]\n      PUSH 1\t\t\t_games[i] = games[cids[i]]\n      ADD \t\t\t_games[i] = games[cids[i]]\n      SWAP1 \t\t\t_games[i] = games[cids[i]]\n      PUSH 20\t\t\t_games[i] = games[cids[i]]\n      ADD \t\t\t_games[i] = games[cids[i]]\n      DUP1 \t\t\t_games[i] = games[cids[i]]\n      DUP4 \t\t\t_games[i] = games[cids[i]]\n      GT \t\t\t_games[i] = games[cids[i]]\n      PUSH [tag] 133\t\t\t_games[i] = games[cids[i]]\n      JUMPI \t\t\t_games[i] = games[cids[i]]\n      DUP3 \t\t\t_games[i] = games[cids[i]]\n      SWAP1 \t\t\t_games[i] = games[cids[i]]\n      SUB \t\t\t_games[i] = games[cids[i]]\n      PUSH 1F\t\t\t_games[i] = games[cids[i]]\n      AND \t\t\t_games[i] = games[cids[i]]\n      DUP3 \t\t\t_games[i] = games[cids[i]]\n      ADD \t\t\t_games[i] = games[cids[i]]\n      SWAP2 \t\t\t_games[i] = games[cids[i]]\n    tag 131\t\t\t_games[i] = games[cids[i]]\n      JUMPDEST \t\t\t_games[i] = games[cids[i]]\n      POP \t\t\t_games[i] = games[cids[i]]\n      POP \t\t\t_games[i] = games[cids[i]]\n      POP \t\t\t_games[i] = games[cids[i]]\n      POP \t\t\t_games[i] = games[cids[i]]\n      POP \t\t\t_games[i] = games[cids[i]]\n      DUP2 \t\t\t_games[i] = games[cids[i]]\n      MSTORE \t\t\t_games[i] = games[cids[i]]\n      PUSH 20\t\t\t_games[i] = games[cids[i]]\n      ADD \t\t\t_games[i] = games[cids[i]]\n      PUSH 4\t\t\t_games[i] = games[cids[i]]\n      DUP3 \t\t\t_games[i] = games[cids[i]]\n      ADD \t\t\t_games[i] = games[cids[i]]\n      SLOAD \t\t\t_games[i] = games[cids[i]]\n      DUP2 \t\t\t_games[i] = games[cids[i]]\n      MSTORE \t\t\t_games[i] = games[cids[i]]\n      PUSH 20\t\t\t_games[i] = games[cids[i]]\n      ADD \t\t\t_games[i] = games[cids[i]]\n      PUSH 5\t\t\t_games[i] = games[cids[i]]\n      DUP3 \t\t\t_games[i] = games[cids[i]]\n      ADD \t\t\t_games[i] = games[cids[i]]\n      DUP1 \t\t\t_games[i] = games[cids[i]]\n      SLOAD \t\t\t_games[i] = games[cids[i]]\n      PUSH [tag] 134\t\t\t_games[i] = games[cids[i]]\n      SWAP1 \t\t\t_games[i] = games[cids[i]]\n      PUSH [tag] 88\t\t\t_games[i] = games[cids[i]]\n      JUMP \t\t\t_games[i] = games[cids[i]]\n    tag 134\t\t\t_games[i] = games[cids[i]]\n      JUMPDEST \t\t\t_games[i] = games[cids[i]]\n      DUP1 \t\t\t_games[i] = games[cids[i]]\n      PUSH 1F\t\t\t_games[i] = games[cids[i]]\n      ADD \t\t\t_games[i] = games[cids[i]]\n      PUSH 20\t\t\t_games[i] = games[cids[i]]\n      DUP1 \t\t\t_games[i] = games[cids[i]]\n      SWAP2 \t\t\t_games[i] = games[cids[i]]\n      DIV \t\t\t_games[i] = games[cids[i]]\n      MUL \t\t\t_games[i] = games[cids[i]]\n      PUSH 20\t\t\t_games[i] = games[cids[i]]\n      ADD \t\t\t_games[i] = games[cids[i]]\n      PUSH 40\t\t\t_games[i] = games[cids[i]]\n      MLOAD \t\t\t_games[i] = games[cids[i]]\n      SWAP1 \t\t\t_games[i] = games[cids[i]]\n      DUP2 \t\t\t_games[i] = games[cids[i]]\n      ADD \t\t\t_games[i] = games[cids[i]]\n      PUSH 40\t\t\t_games[i] = games[cids[i]]\n      MSTORE \t\t\t_games[i] = games[cids[i]]\n      DUP1 \t\t\t_games[i] = games[cids[i]]\n      SWAP3 \t\t\t_games[i] = games[cids[i]]\n      SWAP2 \t\t\t_games[i] = games[cids[i]]\n      SWAP1 \t\t\t_games[i] = games[cids[i]]\n      DUP2 \t\t\t_games[i] = games[cids[i]]\n      DUP2 \t\t\t_games[i] = games[cids[i]]\n      MSTORE \t\t\t_games[i] = games[cids[i]]\n      PUSH 20\t\t\t_games[i] = games[cids[i]]\n      ADD \t\t\t_games[i] = games[cids[i]]\n      DUP3 \t\t\t_games[i] = games[cids[i]]\n      DUP1 \t\t\t_games[i] = games[cids[i]]\n      SLOAD \t\t\t_games[i] = games[cids[i]]\n      PUSH [tag] 135\t\t\t_games[i] = games[cids[i]]\n      SWAP1 \t\t\t_games[i] = games[cids[i]]\n      PUSH [tag] 88\t\t\t_games[i] = games[cids[i]]\n      JUMP \t\t\t_games[i] = games[cids[i]]\n    tag 135\t\t\t_games[i] = games[cids[i]]\n      JUMPDEST \t\t\t_games[i] = games[cids[i]]\n      DUP1 \t\t\t_games[i] = games[cids[i]]\n      ISZERO \t\t\t_games[i] = games[cids[i]]\n      PUSH [tag] 136\t\t\t_games[i] = games[cids[i]]\n      JUMPI \t\t\t_games[i] = games[cids[i]]\n      DUP1 \t\t\t_games[i] = games[cids[i]]\n      PUSH 1F\t\t\t_games[i] = games[cids[i]]\n      LT \t\t\t_games[i] = games[cids[i]]\n      PUSH [tag] 137\t\t\t_games[i] = games[cids[i]]\n      JUMPI \t\t\t_games[i] = games[cids[i]]\n      PUSH 100\t\t\t_games[i] = games[cids[i]]\n      DUP1 \t\t\t_games[i] = games[cids[i]]\n      DUP4 \t\t\t_games[i] = games[cids[i]]\n      SLOAD \t\t\t_games[i] = games[cids[i]]\n      DIV \t\t\t_games[i] = games[cids[i]]\n      MUL \t\t\t_games[i] = games[cids[i]]\n      DUP4 \t\t\t_games[i] = games[cids[i]]\n      MSTORE \t\t\t_games[i] = games[cids[i]]\n      SWAP2 \t\t\t_games[i] = games[cids[i]]\n      PUSH 20\t\t\t_games[i] = games[cids[i]]\n      ADD \t\t\t_games[i] = games[cids[i]]\n      SWAP2 \t\t\t_games[i] = games[cids[i]]\n      PUSH [tag] 136\t\t\t_games[i] = games[cids[i]]\n      JUMP \t\t\t_games[i] = games[cids[i]]\n    tag 137\t\t\t_games[i] = games[cids[i]]\n      JUMPDEST \t\t\t_games[i] = games[cids[i]]\n      DUP3 \t\t\t_games[i] = games[cids[i]]\n      ADD \t\t\t_games[i] = games[cids[i]]\n      SWAP2 \t\t\t_games[i] = games[cids[i]]\n      SWAP1 \t\t\t_games[i] = games[cids[i]]\n      PUSH 0\t\t\t_games[i] = games[cids[i]]\n      MSTORE \t\t\t_games[i] = games[cids[i]]\n      PUSH 20\t\t\t_games[i] = games[cids[i]]\n      PUSH 0\t\t\t_games[i] = games[cids[i]]\n      KECCAK256 \t\t\t_games[i] = games[cids[i]]\n      SWAP1 \t\t\t_games[i] = games[cids[i]]\n    tag 138\t\t\t_games[i] = games[cids[i]]\n      JUMPDEST \t\t\t_games[i] = games[cids[i]]\n      DUP2 \t\t\t_games[i] = games[cids[i]]\n      SLOAD \t\t\t_games[i] = games[cids[i]]\n      DUP2 \t\t\t_games[i] = games[cids[i]]\n      MSTORE \t\t\t_games[i] = games[cids[i]]\n      SWAP1 \t\t\t_games[i] = games[cids[i]]\n      PUSH 1\t\t\t_games[i] = games[cids[i]]\n      ADD \t\t\t_games[i] = games[cids[i]]\n      SWAP1 \t\t\t_games[i] = games[cids[i]]\n      PUSH 20\t\t\t_games[i] = games[cids[i]]\n      ADD \t\t\t_games[i] = games[cids[i]]\n      DUP1 \t\t\t_games[i] = games[cids[i]]\n      DUP4 \t\t\t_games[i] = games[cids[i]]\n      GT \t\t\t_games[i] = games[cids[i]]\n      PUSH [tag] 138\t\t\t_games[i] = games[cids[i]]\n      JUMPI \t\t\t_games[i] = games[cids[i]]\n      DUP3 \t\t\t_games[i] = games[cids[i]]\n      SWAP1 \t\t\t_games[i] = games[cids[i]]\n      SUB \t\t\t_games[i] = games[cids[i]]\n      PUSH 1F\t\t\t_games[i] = games[cids[i]]\n      AND \t\t\t_games[i] = games[cids[i]]\n      DUP3 \t\t\t_games[i] = games[cids[i]]\n      ADD \t\t\t_games[i] = games[cids[i]]\n      SWAP2 \t\t\t_games[i] = games[cids[i]]\n    tag 136\t\t\t_games[i] = games[cids[i]]\n      JUMPDEST \t\t\t_games[i] = games[cids[i]]\n      POP \t\t\t_games[i] = games[cids[i]]\n      POP \t\t\t_games[i] = games[cids[i]]\n      POP \t\t\t_games[i] = games[cids[i]]\n      POP \t\t\t_games[i] = games[cids[i]]\n      POP \t\t\t_games[i] = games[cids[i]]\n      DUP2 \t\t\t_games[i] = games[cids[i]]\n      MSTORE \t\t\t_games[i] = games[cids[i]]\n      POP \t\t\t_games[i] = games[cids[i]]\n      POP \t\t\t_games[i] = games[cids[i]]\n      DUP3 \t\t\t_games\n      DUP3 \t\t\ti\n      DUP2 \t\t\t_games[i]\n      MLOAD \t\t\t_games[i]\n      DUP2 \t\t\t_games[i]\n      LT \t\t\t_games[i]\n      PUSH [tag] 139\t\t\t_games[i]\n      JUMPI \t\t\t_games[i]\n      PUSH [tag] 140\t\t\t_games[i]\n      PUSH [tag] 120\t\t\t_games[i]\n      JUMP \t\t\t_games[i]\n    tag 140\t\t\t_games[i]\n      JUMPDEST \t\t\t_games[i]\n    tag 139\t\t\t_games[i]\n      JUMPDEST \t\t\t_games[i]\n      PUSH 20\t\t\t_games[i]\n      MUL \t\t\t_games[i]\n      PUSH 20\t\t\t_games[i]\n      ADD \t\t\t_games[i]\n      ADD \t\t\t_games[i]\n      DUP2 \t\t\t_games[i] = games[cids[i]]\n      SWAP1 \t\t\t_games[i] = games[cids[i]]\n      MSTORE \t\t\t_games[i] = games[cids[i]]\n      POP \t\t\t_games[i] = games[cids[i]]\n      DUP1 \t\t\ti++\n      DUP1 \t\t\ti++\n      PUSH 1\t\t\ti++\n      ADD \t\t\ti++\n      SWAP2 \t\t\ti++\n      POP \t\t\ti++\n      POP \t\t\ti++\n      PUSH [tag] 115\t\t\tfor (uint256 i = 0; i < cids.l...\n      JUMP \t\t\tfor (uint256 i = 0; i < cids.l...\n    tag 116\t\t\tfor (uint256 i = 0; i < cids.l...\n      JUMPDEST \t\t\tfor (uint256 i = 0; i < cids.l...\n      POP \t\t\tfor (uint256 i = 0; i < cids.l...\n      DUP1 \t\t\t_games\n      SWAP2 \t\t\treturn _games\n      POP \t\t\treturn _games\n      POP \t\t\treturn _games\n      SWAP1 \t\t\tfunction getGames() external v...\n      JUMP \t\t\tfunction getGames() external v...\n    tag 39\t\t\tfunction getGameListLength() e...\n      JUMPDEST \t\t\tfunction getGameListLength() e...\n      PUSH 0\t\t\tuint256\n      PUSH 3\t\t\tcids\n      DUP1 \t\t\tcids.length\n      SLOAD \t\t\tcids.length\n      SWAP1 \t\t\tcids.length\n      POP \t\t\tcids.length\n      SWAP1 \t\t\treturn cids.length\n      POP \t\t\treturn cids.length\n      SWAP1 \t\t\tfunction getGameListLength() e...\n      JUMP \t\t\tfunction getGameListLength() e...\n    tag 44\t\t\tfunction buyGame(string memory...\n      JUMPDEST \t\t\tfunction buyGame(string memory...\n      PUSH 0\t\t\tGame memory _game\n      PUSH 2\t\t\tgames\n      DUP3 \t\t\t_cid\n      PUSH 40\t\t\tgames[_cid]\n      MLOAD \t\t\tgames[_cid]\n      PUSH [tag] 143\t\t\tgames[_cid]\n      SWAP2 \t\t\tgames[_cid]\n      SWAP1 \t\t\tgames[_cid]\n      PUSH [tag] 53\t\t\tgames[_cid]\n      JUMP \t\t\tgames[_cid]\n    tag 143\t\t\tgames[_cid]\n      JUMPDEST \t\t\tgames[_cid]\n      SWAP1 \t\t\tgames[_cid]\n      DUP2 \t\t\tgames[_cid]\n      MSTORE \t\t\tgames[_cid]\n      PUSH 20\t\t\tgames[_cid]\n      ADD \t\t\tgames[_cid]\n      PUSH 40\t\t\tgames[_cid]\n      MLOAD \t\t\tgames[_cid]\n      DUP1 \t\t\tgames[_cid]\n      SWAP2 \t\t\tgames[_cid]\n      SUB \t\t\tgames[_cid]\n      SWAP1 \t\t\tgames[_cid]\n      KECCAK256 \t\t\tgames[_cid]\n      PUSH 40\t\t\tGame memory _game = games[_cid...\n      MLOAD \t\t\tGame memory _game = games[_cid...\n      DUP1 \t\t\tGame memory _game = games[_cid...\n      PUSH C0\t\t\tGame memory _game = games[_cid...\n      ADD \t\t\tGame memory _game = games[_cid...\n      PUSH 40\t\t\tGame memory _game = games[_cid...\n      MSTORE \t\t\tGame memory _game = games[_cid...\n      SWAP1 \t\t\tGame memory _game = games[_cid...\n      DUP2 \t\t\tGame memory _game = games[_cid...\n      PUSH 0\t\t\tGame memory _game = games[_cid...\n      DUP3 \t\t\tGame memory _game = games[_cid...\n      ADD \t\t\tGame memory _game = games[_cid...\n      PUSH 0\t\t\tGame memory _game = games[_cid...\n      SWAP1 \t\t\tGame memory _game = games[_cid...\n      SLOAD \t\t\tGame memory _game = games[_cid...\n      SWAP1 \t\t\tGame memory _game = games[_cid...\n      PUSH 100\t\t\tGame memory _game = games[_cid...\n      EXP \t\t\tGame memory _game = games[_cid...\n      SWAP1 \t\t\tGame memory _game = games[_cid...\n      DIV \t\t\tGame memory _game = games[_cid...\n      PUSH FFFFFFFFFFFFFFFFFFFFFFFFFFFFFFFFFFFFFFFF\t\t\tGame memory _game = games[_cid...\n      AND \t\t\tGame memory _game = games[_cid...\n      PUSH FFFFFFFFFFFFFFFFFFFFFFFFFFFFFFFFFFFFFFFF\t\t\tGame memory _game = games[_cid...\n      AND \t\t\tGame memory _game = games[_cid...\n      PUSH FFFFFFFFFFFFFFFFFFFFFFFFFFFFFFFFFFFFFFFF\t\t\tGame memory _game = games[_cid...\n      AND \t\t\tGame memory _game = games[_cid...\n      DUP2 \t\t\tGame memory _game = games[_cid...\n      MSTORE \t\t\tGame memory _game = games[_cid...\n      PUSH 20\t\t\tGame memory _game = games[_cid...\n      ADD \t\t\tGame memory _game = games[_cid...\n      PUSH 1\t\t\tGame memory _game = games[_cid...\n      DUP3 \t\t\tGame memory _game = games[_cid...\n      ADD \t\t\tGame memory _game = games[_cid...\n      DUP1 \t\t\tGame memory _game = games[_cid...\n      SLOAD \t\t\tGame memory _game = games[_cid...\n      PUSH [tag] 144\t\t\tGame memory _game = games[_cid...\n      SWAP1 \t\t\tGame memory _game = games[_cid...\n      PUSH [tag] 88\t\t\tGame memory _game = games[_cid...\n      JUMP \t\t\tGame memory _game = games[_cid...\n    tag 144\t\t\tGame memory _game = games[_cid...\n      JUMPDEST \t\t\tGame memory _game = games[_cid...\n      DUP1 \t\t\tGame memory _game = games[_cid...\n      PUSH 1F\t\t\tGame memory _game = games[_cid...\n      ADD \t\t\tGame memory _game = games[_cid...\n      PUSH 20\t\t\tGame memory _game = games[_cid...\n      DUP1 \t\t\tGame memory _game = games[_cid...\n      SWAP2 \t\t\tGame memory _game = games[_cid...\n      DIV \t\t\tGame memory _game = games[_cid...\n      MUL \t\t\tGame memory _game = games[_cid...\n      PUSH 20\t\t\tGame memory _game = games[_cid...\n      ADD \t\t\tGame memory _game = games[_cid...\n      PUSH 40\t\t\tGame memory _game = games[_cid...\n      MLOAD \t\t\tGame memory _game = games[_cid...\n      SWAP1 \t\t\tGame memory _game = games[_cid...\n      DUP2 \t\t\tGame memory _game = games[_cid...\n      ADD \t\t\tGame memory _game = games[_cid...\n      PUSH 40\t\t\tGame memory _game = games[_cid...\n      MSTORE \t\t\tGame memory _game = games[_cid...\n      DUP1 \t\t\tGame memory _game = games[_cid...\n      SWAP3 \t\t\tGame memory _game = games[_cid...\n      SWAP2 \t\t\tGame memory _game = games[_cid...\n      SWAP1 \t\t\tGame memory _game = games[_cid...\n      DUP2 \t\t\tGame memory _game = games[_cid...\n      DUP2 \t\t\tGame memory _game = games[_cid...\n      MSTORE \t\t\tGame memory _game = games[_cid...\n      PUSH 20\t\t\tGame memory _game = games[_cid...\n      ADD \t\t\tGame memory _game = games[_cid...\n      DUP3 \t\t\tGame memory _game = games[_cid...\n      DUP1 \t\t\tGame memory _game = games[_cid...\n      SLOAD \t\t\tGame memory _game = games[_cid...\n      PUSH [tag] 145\t\t\tGame memory _game = games[_cid...\n      SWAP1 \t\t\tGame memory _game = games[_cid...\n      PUSH [tag] 88\t\t\tGame memory _game = games[_cid...\n      JUMP \t\t\tGame memory _game = games[_cid...\n    tag 145\t\t\tGame memory _game = games[_cid...\n      JUMPDEST \t\t\tGame memory _game = games[_cid...\n      DUP1 \t\t\tGame memory _game = games[_cid...\n      ISZERO \t\t\tGame memory _game = games[_cid...\n      PUSH [tag] 146\t\t\tGame memory _game = games[_cid...\n      JUMPI \t\t\tGame memory _game = games[_cid...\n      DUP1 \t\t\tGame memory _game = games[_cid...\n      PUSH 1F\t\t\tGame memory _game = games[_cid...\n      LT \t\t\tGame memory _game = games[_cid...\n      PUSH [tag] 147\t\t\tGame memory _game = games[_cid...\n      JUMPI \t\t\tGame memory _game = games[_cid...\n      PUSH 100\t\t\tGame memory _game = games[_cid...\n      DUP1 \t\t\tGame memory _game = games[_cid...\n      DUP4 \t\t\tGame memory _game = games[_cid...\n      SLOAD \t\t\tGame memory _game = games[_cid...\n      DIV \t\t\tGame memory _game = games[_cid...\n      MUL \t\t\tGame memory _game = games[_cid...\n      DUP4 \t\t\tGame memory _game = games[_cid...\n      MSTORE \t\t\tGame memory _game = games[_cid...\n      SWAP2 \t\t\tGame memory _game = games[_cid...\n      PUSH 20\t\t\tGame memory _game = games[_cid...\n      ADD \t\t\tGame memory _game = games[_cid...\n      SWAP2 \t\t\tGame memory _game = games[_cid...\n      PUSH [tag] 146\t\t\tGame memory _game = games[_cid...\n      JUMP \t\t\tGame memory _game = games[_cid...\n    tag 147\t\t\tGame memory _game = games[_cid...\n      JUMPDEST \t\t\tGame memory _game = games[_cid...\n      DUP3 \t\t\tGame memory _game = games[_cid...\n      ADD \t\t\tGame memory _game = games[_cid...\n      SWAP2 \t\t\tGame memory _game = games[_cid...\n      SWAP1 \t\t\tGame memory _game = games[_cid...\n      PUSH 0\t\t\tGame memory _game = games[_cid...\n      MSTORE \t\t\tGame memory _game = games[_cid...\n      PUSH 20\t\t\tGame memory _game = games[_cid...\n      PUSH 0\t\t\tGame memory _game = games[_cid...\n      KECCAK256 \t\t\tGame memory _game = games[_cid...\n      SWAP1 \t\t\tGame memory _game = games[_cid...\n    tag 148\t\t\tGame memory _game = games[_cid...\n      JUMPDEST \t\t\tGame memory _game = games[_cid...\n      DUP2 \t\t\tGame memory _game = games[_cid...\n      SLOAD \t\t\tGame memory _game = games[_cid...\n      DUP2 \t\t\tGame memory _game = games[_cid...\n      MSTORE \t\t\tGame memory _game = games[_cid...\n      SWAP1 \t\t\tGame memory _game = games[_cid...\n      PUSH 1\t\t\tGame memory _game = games[_cid...\n      ADD \t\t\tGame memory _game = games[_cid...\n      SWAP1 \t\t\tGame memory _game = games[_cid...\n      PUSH 20\t\t\tGame memory _game = games[_cid...\n      ADD \t\t\tGame memory _game = games[_cid...\n      DUP1 \t\t\tGame memory _game = games[_cid...\n      DUP4 \t\t\tGame memory _game = games[_cid...\n      GT \t\t\tGame memory _game = games[_cid...\n      PUSH [tag] 148\t\t\tGame memory _game = games[_cid...\n      JUMPI \t\t\tGame memory _game = games[_cid...\n      DUP3 \t\t\tGame memory _game = games[_cid...\n      SWAP1 \t\t\tGame memory _game = games[_cid...\n      SUB \t\t\tGame memory _game = games[_cid...\n      PUSH 1F\t\t\tGame memory _game = games[_cid...\n      AND \t\t\tGame memory _game = games[_cid...\n      DUP3 \t\t\tGame memory _game = games[_cid...\n      ADD \t\t\tGame memory _game = games[_cid...\n      SWAP2 \t\t\tGame memory _game = games[_cid...\n    tag 146\t\t\tGame memory _game = games[_cid...\n      JUMPDEST \t\t\tGame memory _game = games[_cid...\n      POP \t\t\tGame memory _game = games[_cid...\n      POP \t\t\tGame memory _game = games[_cid...\n      POP \t\t\tGame memory _game = games[_cid...\n      POP \t\t\tGame memory _game = games[_cid...\n      POP \t\t\tGame memory _game = games[_cid...\n      DUP2 \t\t\tGame memory _game = games[_cid...\n      MSTORE \t\t\tGame memory _game = games[_cid...\n      PUSH 20\t\t\tGame memory _game = games[_cid...\n      ADD \t\t\tGame memory _game = games[_cid...\n      PUSH 2\t\t\tGame memory _game = games[_cid...\n      DUP3 \t\t\tGame memory _game = games[_cid...\n      ADD \t\t\tGame memory _game = games[_cid...\n      PUSH 0\t\t\tGame memory _game = games[_cid...\n      SWAP1 \t\t\tGame memory _game = games[_cid...\n      SLOAD \t\t\tGame memory _game = games[_cid...\n      SWAP1 \t\t\tGame memory _game = games[_cid...\n      PUSH 100\t\t\tGame memory _game = games[_cid...\n      EXP \t\t\tGame memory _game = games[_cid...\n      SWAP1 \t\t\tGame memory _game = games[_cid...\n      DIV \t\t\tGame memory _game = games[_cid...\n      PUSH FFFFFFFFFFFFFFFFFFFFFFFFFFFFFFFFFFFFFFFF\t\t\tGame memory _game = games[_cid...\n      AND \t\t\tGame memory _game = games[_cid...\n      PUSH FFFFFFFFFFFFFFFFFFFFFFFFFFFFFFFFFFFFFFFF\t\t\tGame memory _game = games[_cid...\n      AND \t\t\tGame memory _game = games[_cid...\n      PUSH FFFFFFFFFFFFFFFFFFFFFFFFFFFFFFFFFFFFFFFF\t\t\tGame memory _game = games[_cid...\n      AND \t\t\tGame memory _game = games[_cid...\n      DUP2 \t\t\tGame memory _game = games[_cid...\n      MSTORE \t\t\tGame memory _game = games[_cid...\n      PUSH 20\t\t\tGame memory _game = games[_cid...\n      ADD \t\t\tGame memory _game = games[_cid...\n      PUSH 3\t\t\tGame memory _game = games[_cid...\n      DUP3 \t\t\tGame memory _game = games[_cid...\n      ADD \t\t\tGame memory _game = games[_cid...\n      DUP1 \t\t\tGame memory _game = games[_cid...\n      SLOAD \t\t\tGame memory _game = games[_cid...\n      PUSH [tag] 149\t\t\tGame memory _game = games[_cid...\n      SWAP1 \t\t\tGame memory _game = games[_cid...\n      PUSH [tag] 88\t\t\tGame memory _game = games[_cid...\n      JUMP \t\t\tGame memory _game = games[_cid...\n    tag 149\t\t\tGame memory _game = games[_cid...\n      JUMPDEST \t\t\tGame memory _game = games[_cid...\n      DUP1 \t\t\tGame memory _game = games[_cid...\n      PUSH 1F\t\t\tGame memory _game = games[_cid...\n      ADD \t\t\tGame memory _game = games[_cid...\n      PUSH 20\t\t\tGame memory _game = games[_cid...\n      DUP1 \t\t\tGame memory _game = games[_cid...\n      SWAP2 \t\t\tGame memory _game = games[_cid...\n      DIV \t\t\tGame memory _game = games[_cid...\n      MUL \t\t\tGame memory _game = games[_cid...\n      PUSH 20\t\t\tGame memory _game = games[_cid...\n      ADD \t\t\tGame memory _game = games[_cid...\n      PUSH 40\t\t\tGame memory _game = games[_cid...\n      MLOAD \t\t\tGame memory _game = games[_cid...\n      SWAP1 \t\t\tGame memory _game = games[_cid...\n      DUP2 \t\t\tGame memory _game = games[_cid...\n      ADD \t\t\tGame memory _game = games[_cid...\n      PUSH 40\t\t\tGame memory _game = games[_cid...\n      MSTORE \t\t\tGame memory _game = games[_cid...\n      DUP1 \t\t\tGame memory _game = games[_cid...\n      SWAP3 \t\t\tGame memory _game = games[_cid...\n      SWAP2 \t\t\tGame memory _game = games[_cid...\n      SWAP1 \t\t\tGame memory _game = games[_cid...\n      DUP2 \t\t\tGame memory _game = games[_cid...\n      DUP2 \t\t\tGame memory _game = games[_cid...\n      MSTORE \t\t\tGame memory _game = games[_cid...\n      PUSH 20\t\t\tGame memory _game = games[_cid...\n      ADD \t\t\tGame memory _game = games[_cid...\n      DUP3 \t\t\tGame memory _game = games[_cid...\n      DUP1 \t\t\tGame memory _game = games[_cid...\n      SLOAD \t\t\tGame memory _game = games[_cid...\n      PUSH [tag] 150\t\t\tGame memory _game = games[_cid...\n      SWAP1 \t\t\tGame memory _game = games[_cid...\n      PUSH [tag] 88\t\t\tGame memory _game = games[_cid...\n      JUMP \t\t\tGame memory _game = games[_cid...\n    tag 150\t\t\tGame memory _game = games[_cid...\n      JUMPDEST \t\t\tGame memory _game = games[_cid...\n      DUP1 \t\t\tGame memory _game = games[_cid...\n      ISZERO \t\t\tGame memory _game = games[_cid...\n      PUSH [tag] 151\t\t\tGame memory _game = games[_cid...\n      JUMPI \t\t\tGame memory _game = games[_cid...\n      DUP1 \t\t\tGame memory _game = games[_cid...\n      PUSH 1F\t\t\tGame memory _game = games[_cid...\n      LT \t\t\tGame memory _game = games[_cid...\n      PUSH [tag] 152\t\t\tGame memory _game = games[_cid...\n      JUMPI \t\t\tGame memory _game = games[_cid...\n      PUSH 100\t\t\tGame memory _game = games[_cid...\n      DUP1 \t\t\tGame memory _game = games[_cid...\n      DUP4 \t\t\tGame memory _game = games[_cid...\n      SLOAD \t\t\tGame memory _game = games[_cid...\n      DIV \t\t\tGame memory _game = games[_cid...\n      MUL \t\t\tGame memory _game = games[_cid...\n      DUP4 \t\t\tGame memory _game = games[_cid...\n      MSTORE \t\t\tGame memory _game = games[_cid...\n      SWAP2 \t\t\tGame memory _game = games[_cid...\n      PUSH 20\t\t\tGame memory _game = games[_cid...\n      ADD \t\t\tGame memory _game = games[_cid...\n      SWAP2 \t\t\tGame memory _game = games[_cid...\n      PUSH [tag] 151\t\t\tGame memory _game = games[_cid...\n      JUMP \t\t\tGame memory _game = games[_cid...\n    tag 152\t\t\tGame memory _game = games[_cid...\n      JUMPDEST \t\t\tGame memory _game = games[_cid...\n      DUP3 \t\t\tGame memory _game = games[_cid...\n      ADD \t\t\tGame memory _game = games[_cid...\n      SWAP2 \t\t\tGame memory _game = games[_cid...\n      SWAP1 \t\t\tGame memory _game = games[_cid...\n      PUSH 0\t\t\tGame memory _game = games[_cid...\n      MSTORE \t\t\tGame memory _game = games[_cid...\n      PUSH 20\t\t\tGame memory _game = games[_cid...\n      PUSH 0\t\t\tGame memory _game = games[_cid...\n      KECCAK256 \t\t\tGame memory _game = games[_cid...\n      SWAP1 \t\t\tGame memory _game = games[_cid...\n    tag 153\t\t\tGame memory _game = games[_cid...\n      JUMPDEST \t\t\tGame memory _game = games[_cid...\n      DUP2 \t\t\tGame memory _game = games[_cid...\n      SLOAD \t\t\tGame memory _game = games[_cid...\n      DUP2 \t\t\tGame memory _game = games[_cid...\n      MSTORE \t\t\tGame memory _game = games[_cid...\n      SWAP1 \t\t\tGame memory _game = games[_cid...\n      PUSH 1\t\t\tGame memory _game = games[_cid...\n      ADD \t\t\tGame memory _game = games[_cid...\n      SWAP1 \t\t\tGame memory _game = games[_cid...\n      PUSH 20\t\t\tGame memory _game = games[_cid...\n      ADD \t\t\tGame memory _game = games[_cid...\n      DUP1 \t\t\tGame memory _game = games[_cid...\n      DUP4 \t\t\tGame memory _game = games[_cid...\n      GT \t\t\tGame memory _game = games[_cid...\n      PUSH [tag] 153\t\t\tGame memory _game = games[_cid...\n      JUMPI \t\t\tGame memory _game = games[_cid...\n      DUP3 \t\t\tGame memory _game = games[_cid...\n      SWAP1 \t\t\tGame memory _game = games[_cid...\n      SUB \t\t\tGame memory _game = games[_cid...\n      PUSH 1F\t\t\tGame memory _game = games[_cid...\n      AND \t\t\tGame memory _game = games[_cid...\n      DUP3 \t\t\tGame memory _game = games[_cid...\n      ADD \t\t\tGame memory _game = games[_cid...\n      SWAP2 \t\t\tGame memory _game = games[_cid...\n    tag 151\t\t\tGame memory _game = games[_cid...\n      JUMPDEST \t\t\tGame memory _game = games[_cid...\n      POP \t\t\tGame memory _game = games[_cid...\n      POP \t\t\tGame memory _game = games[_cid...\n      POP \t\t\tGame memory _game = games[_cid...\n      POP \t\t\tGame memory _game = games[_cid...\n      POP \t\t\tGame memory _game = games[_cid...\n      DUP2 \t\t\tGame memory _game = games[_cid...\n      MSTORE \t\t\tGame memory _game = games[_cid...\n      PUSH 20\t\t\tGame memory _game = games[_cid...\n      ADD \t\t\tGame memory _game = games[_cid...\n      PUSH 4\t\t\tGame memory _game = games[_cid...\n      DUP3 \t\t\tGame memory _game = games[_cid...\n      ADD \t\t\tGame memory _game = games[_cid...\n      SLOAD \t\t\tGame memory _game = games[_cid...\n      DUP2 \t\t\tGame memory _game = games[_cid...\n      MSTORE \t\t\tGame memory _game = games[_cid...\n      PUSH 20\t\t\tGame memory _game = games[_cid...\n      ADD \t\t\tGame memory _game = games[_cid...\n      PUSH 5\t\t\tGame memory _game = games[_cid...\n      DUP3 \t\t\tGame memory _game = games[_cid...\n      ADD \t\t\tGame memory _game = games[_cid...\n      DUP1 \t\t\tGame memory _game = games[_cid...\n      SLOAD \t\t\tGame memory _game = games[_cid...\n      PUSH [tag] 154\t\t\tGame memory _game = games[_cid...\n      SWAP1 \t\t\tGame memory _game = games[_cid...\n      PUSH [tag] 88\t\t\tGame memory _game = games[_cid...\n      JUMP \t\t\tGame memory _game = games[_cid...\n    tag 154\t\t\tGame memory _game = games[_cid...\n      JUMPDEST \t\t\tGame memory _game = games[_cid...\n      DUP1 \t\t\tGame memory _game = games[_cid...\n      PUSH 1F\t\t\tGame memory _game = games[_cid...\n      ADD \t\t\tGame memory _game = games[_cid...\n      PUSH 20\t\t\tGame memory _game = games[_cid...\n      DUP1 \t\t\tGame memory _game = games[_cid...\n      SWAP2 \t\t\tGame memory _game = games[_cid...\n      DIV \t\t\tGame memory _game = games[_cid...\n      MUL \t\t\tGame memory _game = games[_cid...\n      PUSH 20\t\t\tGame memory _game = games[_cid...\n      ADD \t\t\tGame memory _game = games[_cid...\n      PUSH 40\t\t\tGame memory _game = games[_cid...\n      MLOAD \t\t\tGame memory _game = games[_cid...\n      SWAP1 \t\t\tGame memory _game = games[_cid...\n      DUP2 \t\t\tGame memory _game = games[_cid...\n      ADD \t\t\tGame memory _game = games[_cid...\n      PUSH 40\t\t\tGame memory _game = games[_cid...\n      MSTORE \t\t\tGame memory _game = games[_cid...\n      DUP1 \t\t\tGame memory _game = games[_cid...\n      SWAP3 \t\t\tGame memory _game = games[_cid...\n      SWAP2 \t\t\tGame memory _game = games[_cid...\n      SWAP1 \t\t\tGame memory _game = games[_cid...\n      DUP2 \t\t\tGame memory _game = games[_cid...\n      DUP2 \t\t\tGame memory _game = games[_cid...\n      MSTORE \t\t\tGame memory _game = games[_cid...\n      PUSH 20\t\t\tGame memory _game = games[_cid...\n      ADD \t\t\tGame memory _game = games[_cid...\n      DUP3 \t\t\tGame memory _game = games[_cid...\n      DUP1 \t\t\tGame memory _game = games[_cid...\n      SLOAD \t\t\tGame memory _game = games[_cid...\n      PUSH [tag] 155\t\t\tGame memory _game = games[_cid...\n      SWAP1 \t\t\tGame memory _game = games[_cid...\n      PUSH [tag] 88\t\t\tGame memory _game = games[_cid...\n      JUMP \t\t\tGame memory _game = games[_cid...\n    tag 155\t\t\tGame memory _game = games[_cid...\n      JUMPDEST \t\t\tGame memory _game = games[_cid...\n      DUP1 \t\t\tGame memory _game = games[_cid...\n      ISZERO \t\t\tGame memory _game = games[_cid...\n      PUSH [tag] 156\t\t\tGame memory _game = games[_cid...\n      JUMPI \t\t\tGame memory _game = games[_cid...\n      DUP1 \t\t\tGame memory _game = games[_cid...\n      PUSH 1F\t\t\tGame memory _game = games[_cid...\n      LT \t\t\tGame memory _game = games[_cid...\n      PUSH [tag] 157\t\t\tGame memory _game = games[_cid...\n      JUMPI \t\t\tGame memory _game = games[_cid...\n      PUSH 100\t\t\tGame memory _game = games[_cid...\n      DUP1 \t\t\tGame memory _game = games[_cid...\n      DUP4 \t\t\tGame memory _game = games[_cid...\n      SLOAD \t\t\tGame memory _game = games[_cid...\n      DIV \t\t\tGame memory _game = games[_cid...\n      MUL \t\t\tGame memory _game = games[_cid...\n      DUP4 \t\t\tGame memory _game = games[_cid...\n      MSTORE \t\t\tGame memory _game = games[_cid...\n      SWAP2 \t\t\tGame memory _game = games[_cid...\n      PUSH 20\t\t\tGame memory _game = games[_cid...\n      ADD \t\t\tGame memory _game = games[_cid...\n      SWAP2 \t\t\tGame memory _game = games[_cid...\n      PUSH [tag] 156\t\t\tGame memory _game = games[_cid...\n      JUMP \t\t\tGame memory _game = games[_cid...\n    tag 157\t\t\tGame memory _game = games[_cid...\n      JUMPDEST \t\t\tGame memory _game = games[_cid...\n      DUP3 \t\t\tGame memory _game = games[_cid...\n      ADD \t\t\tGame memory _game = games[_cid...\n      SWAP2 \t\t\tGame memory _game = games[_cid...\n      SWAP1 \t\t\tGame memory _game = games[_cid...\n      PUSH 0\t\t\tGame memory _game = games[_cid...\n      MSTORE \t\t\tGame memory _game = games[_cid...\n      PUSH 20\t\t\tGame memory _game = games[_cid...\n      PUSH 0\t\t\tGame memory _game = games[_cid...\n      KECCAK256 \t\t\tGame memory _game = games[_cid...\n      SWAP1 \t\t\tGame memory _game = games[_cid...\n    tag 158\t\t\tGame memory _game = games[_cid...\n      JUMPDEST \t\t\tGame memory _game = games[_cid...\n      DUP2 \t\t\tGame memory _game = games[_cid...\n      SLOAD \t\t\tGame memory _game = games[_cid...\n      DUP2 \t\t\tGame memory _game = games[_cid...\n      MSTORE \t\t\tGame memory _game = games[_cid...\n      SWAP1 \t\t\tGame memory _game = games[_cid...\n      PUSH 1\t\t\tGame memory _game = games[_cid...\n      ADD \t\t\tGame memory _game = games[_cid...\n      SWAP1 \t\t\tGame memory _game = games[_cid...\n      PUSH 20\t\t\tGame memory _game = games[_cid...\n      ADD \t\t\tGame memory _game = games[_cid...\n      DUP1 \t\t\tGame memory _game = games[_cid...\n      DUP4 \t\t\tGame memory _game = games[_cid...\n      GT \t\t\tGame memory _game = games[_cid...\n      PUSH [tag] 158\t\t\tGame memory _game = games[_cid...\n      JUMPI \t\t\tGame memory _game = games[_cid...\n      DUP3 \t\t\tGame memory _game = games[_cid...\n      SWAP1 \t\t\tGame memory _game = games[_cid...\n      SUB \t\t\tGame memory _game = games[_cid...\n      PUSH 1F\t\t\tGame memory _game = games[_cid...\n      AND \t\t\tGame memory _game = games[_cid...\n      DUP3 \t\t\tGame memory _game = games[_cid...\n      ADD \t\t\tGame memory _game = games[_cid...\n      SWAP2 \t\t\tGame memory _game = games[_cid...\n    tag 156\t\t\tGame memory _game = games[_cid...\n      JUMPDEST \t\t\tGame memory _game = games[_cid...\n      POP \t\t\tGame memory _game = games[_cid...\n      POP \t\t\tGame memory _game = games[_cid...\n      POP \t\t\tGame memory _game = games[_cid...\n      POP \t\t\tGame memory _game = games[_cid...\n      POP \t\t\tGame memory _game = games[_cid...\n      DUP2 \t\t\tGame memory _game = games[_cid...\n      MSTORE \t\t\tGame memory _game = games[_cid...\n      POP \t\t\tGame memory _game = games[_cid...\n      POP \t\t\tGame memory _game = games[_cid...\n      SWAP1 \t\t\tGame memory _game = games[_cid...\n      POP \t\t\tGame memory _game = games[_cid...\n      PUSH 0\t\t\t0\n      PUSH FFFFFFFFFFFFFFFFFFFFFFFFFFFFFFFFFFFFFFFF\t\t\t_game.creator == address(0)\n      AND \t\t\t_game.creator == address(0)\n      DUP2 \t\t\t_game\n      PUSH 0\t\t\t_game.creator\n      ADD \t\t\t_game.creator\n      MLOAD \t\t\t_game.creator\n      PUSH FFFFFFFFFFFFFFFFFFFFFFFFFFFFFFFFFFFFFFFF\t\t\t_game.creator == address(0)\n      AND \t\t\t_game.creator == address(0)\n      SUB \t\t\t_game.creator == address(0)\n      PUSH [tag] 159\t\t\tif (_game.creator == address(0...\n      JUMPI \t\t\tif (_game.creator == address(0...\n      PUSH 40\t\t\tInvalidGame()\n      MLOAD \t\t\tInvalidGame()\n      PUSH 57E25A0900000000000000000000000000000000000000000000000000000000\t\t\tInvalidGame()\n      DUP2 \t\t\tInvalidGame()\n      MSTORE \t\t\tInvalidGame()\n      PUSH 4\t\t\tInvalidGame()\n      ADD \t\t\tInvalidGame()\n      PUSH 40\t\t\tInvalidGame()\n      MLOAD \t\t\tInvalidGame()\n      DUP1 \t\t\tInvalidGame()\n      SWAP2 \t\t\tInvalidGame()\n      SUB \t\t\tInvalidGame()\n      SWAP1 \t\t\tInvalidGame()\n      REVERT \t\t\tInvalidGame()\n    tag 159\t\t\tif (_game.creator == address(0...\n      JUMPDEST \t\t\tif (_game.creator == address(0...\n      DUP1 \t\t\t_game\n      PUSH 80\t\t\t_game.price\n      ADD \t\t\t_game.price\n      MLOAD \t\t\t_game.price\n      CALLVALUE \t\t\tmsg.value\n      LT \t\t\tmsg.value < _game.price\n      ISZERO \t\t\tif (msg.value < _game.price) {...\n      PUSH [tag] 160\t\t\tif (msg.value < _game.price) {...\n      JUMPI \t\t\tif (msg.value < _game.price) {...\n      PUSH 40\t\t\tInsufficientFunds()\n      MLOAD \t\t\tInsufficientFunds()\n      PUSH 356680B700000000000000000000000000000000000000000000000000000000\t\t\tInsufficientFunds()\n      DUP2 \t\t\tInsufficientFunds()\n      MSTORE \t\t\tInsufficientFunds()\n      PUSH 4\t\t\tInsufficientFunds()\n      ADD \t\t\tInsufficientFunds()\n      PUSH 40\t\t\tInsufficientFunds()\n      MLOAD \t\t\tInsufficientFunds()\n      DUP1 \t\t\tInsufficientFunds()\n      SWAP2 \t\t\tInsufficientFunds()\n      SUB \t\t\tInsufficientFunds()\n      SWAP1 \t\t\tInsufficientFunds()\n      REVERT \t\t\tInsufficientFunds()\n    tag 160\t\t\tif (msg.value < _game.price) {...\n      JUMPDEST \t\t\tif (msg.value < _game.price) {...\n      DUP1 \t\t\t_game\n      PUSH 80\t\t\t_game.price\n      ADD \t\t\t_game.price\n      MLOAD \t\t\t_game.price\n      PUSH 4\t\t\tcreatorbalance\n      PUSH 0\t\t\tcreatorbalance[_game.creator]\n      DUP4 \t\t\t_game\n      PUSH 0\t\t\t_game.creator\n      ADD \t\t\t_game.creator\n      MLOAD \t\t\t_game.creator\n      PUSH FFFFFFFFFFFFFFFFFFFFFFFFFFFFFFFFFFFFFFFF\t\t\tcreatorbalance[_game.creator]\n      AND \t\t\tcreatorbalance[_game.creator]\n      PUSH FFFFFFFFFFFFFFFFFFFFFFFFFFFFFFFFFFFFFFFF\t\t\tcreatorbalance[_game.creator]\n      AND \t\t\tcreatorbalance[_game.creator]\n      DUP2 \t\t\tcreatorbalance[_game.creator]\n      MSTORE \t\t\tcreatorbalance[_game.creator]\n      PUSH 20\t\t\tcreatorbalance[_game.creator]\n      ADD \t\t\tcreatorbalance[_game.creator]\n      SWAP1 \t\t\tcreatorbalance[_game.creator]\n      DUP2 \t\t\tcreatorbalance[_game.creator]\n      MSTORE \t\t\tcreatorbalance[_game.creator]\n      PUSH 20\t\t\tcreatorbalance[_game.creator]\n      ADD \t\t\tcreatorbalance[_game.creator]\n      PUSH 0\t\t\tcreatorbalance[_game.creator]\n      KECCAK256 \t\t\tcreatorbalance[_game.creator]\n      PUSH 0\t\t\tcreatorbalance[_game.creator]\n      DUP3 \t\t\tcreatorbalance[_game.creator] ...\n      DUP3 \t\t\tcreatorbalance[_game.creator] ...\n      SLOAD \t\t\tcreatorbalance[_game.creator] ...\n      PUSH [tag] 161\t\t\tcreatorbalance[_game.creator] ...\n      SWAP2 \t\t\tcreatorbalance[_game.creator] ...\n      SWAP1 \t\t\tcreatorbalance[_game.creator] ...\n      PUSH [tag] 162\t\t\tcreatorbalance[_game.creator] ...\n      JUMP \t\t\tcreatorbalance[_game.creator] ...\n    tag 161\t\t\tcreatorbalance[_game.creator] ...\n      JUMPDEST \t\t\tcreatorbalance[_game.creator] ...\n      SWAP3 \t\t\tcreatorbalance[_game.creator] ...\n      POP \t\t\tcreatorbalance[_game.creator] ...\n      POP \t\t\tcreatorbalance[_game.creator] ...\n      DUP2 \t\t\tcreatorbalance[_game.creator] ...\n      SWAP1 \t\t\tcreatorbalance[_game.creator] ...\n      SSTORE \t\t\tcreatorbalance[_game.creator] ...\n      POP \t\t\tcreatorbalance[_game.creator] ...\n      PUSH 0\t\t\tGameToken gameToken\n      DUP2 \t\t\t_game\n      PUSH 40\t\t\t_game.token\n      ADD \t\t\t_game.token\n      MLOAD \t\t\t_game.token\n      SWAP1 \t\t\tGameToken gameToken = GameToke...\n      POP \t\t\tGameToken gameToken = GameToke...\n      DUP1 \t\t\tgameToken\n      PUSH FFFFFFFFFFFFFFFFFFFFFFFFFFFFFFFFFFFFFFFF\t\t\tgameToken.mint\n      AND \t\t\tgameToken.mint\n      PUSH 6A627842\t\t\tgameToken.mint\n      CALLER \t\t\tmsg.sender\n      PUSH 40\t\t\tgameToken.mint(msg.sender)\n      MLOAD \t\t\tgameToken.mint(msg.sender)\n      DUP3 \t\t\tgameToken.mint(msg.sender)\n      PUSH FFFFFFFF\t\t\tgameToken.mint(msg.sender)\n      AND \t\t\tgameToken.mint(msg.sender)\n      PUSH E0\t\t\tgameToken.mint(msg.sender)\n      SHL \t\t\tgameToken.mint(msg.sender)\n      DUP2 \t\t\tgameToken.mint(msg.sender)\n      MSTORE \t\t\tgameToken.mint(msg.sender)\n      PUSH 4\t\t\tgameToken.mint(msg.sender)\n      ADD \t\t\tgameToken.mint(msg.sender)\n      PUSH [tag] 163\t\t\tgameToken.mint(msg.sender)\n      SWAP2 \t\t\tgameToken.mint(msg.sender)\n      SWAP1 \t\t\tgameToken.mint(msg.sender)\n      PUSH [tag] 61\t\t\tgameToken.mint(msg.sender)\n      JUMP \t\t\tgameToken.mint(msg.sender)\n    tag 163\t\t\tgameToken.mint(msg.sender)\n      JUMPDEST \t\t\tgameToken.mint(msg.sender)\n      PUSH 0\t\t\tgameToken.mint(msg.sender)\n      PUSH 40\t\t\tgameToken.mint(msg.sender)\n      MLOAD \t\t\tgameToken.mint(msg.sender)\n      DUP1 \t\t\tgameToken.mint(msg.sender)\n      DUP4 \t\t\tgameToken.mint(msg.sender)\n      SUB \t\t\tgameToken.mint(msg.sender)\n      DUP2 \t\t\tgameToken.mint(msg.sender)\n      PUSH 0\t\t\tgameToken.mint(msg.sender)\n      DUP8 \t\t\tgameToken.mint(msg.sender)\n      DUP1 \t\t\tgameToken.mint(msg.sender)\n      EXTCODESIZE \t\t\tgameToken.mint(msg.sender)\n      ISZERO \t\t\tgameToken.mint(msg.sender)\n      DUP1 \t\t\tgameToken.mint(msg.sender)\n      ISZERO \t\t\tgameToken.mint(msg.sender)\n      PUSH [tag] 164\t\t\tgameToken.mint(msg.sender)\n      JUMPI \t\t\tgameToken.mint(msg.sender)\n      PUSH 0\t\t\tgameToken.mint(msg.sender)\n      DUP1 \t\t\tgameToken.mint(msg.sender)\n      REVERT \t\t\tgameToken.mint(msg.sender)\n    tag 164\t\t\tgameToken.mint(msg.sender)\n      JUMPDEST \t\t\tgameToken.mint(msg.sender)\n      POP \t\t\tgameToken.mint(msg.sender)\n      GAS \t\t\tgameToken.mint(msg.sender)\n      CALL \t\t\tgameToken.mint(msg.sender)\n      ISZERO \t\t\tgameToken.mint(msg.sender)\n      DUP1 \t\t\tgameToken.mint(msg.sender)\n      ISZERO \t\t\tgameToken.mint(msg.sender)\n      PUSH [tag] 166\t\t\tgameToken.mint(msg.sender)\n      JUMPI \t\t\tgameToken.mint(msg.sender)\n      RETURNDATASIZE \t\t\tgameToken.mint(msg.sender)\n      PUSH 0\t\t\tgameToken.mint(msg.sender)\n      DUP1 \t\t\tgameToken.mint(msg.sender)\n      RETURNDATACOPY \t\t\tgameToken.mint(msg.sender)\n      RETURNDATASIZE \t\t\tgameToken.mint(msg.sender)\n      PUSH 0\t\t\tgameToken.mint(msg.sender)\n      REVERT \t\t\tgameToken.mint(msg.sender)\n    tag 166\t\t\tgameToken.mint(msg.sender)\n      JUMPDEST \t\t\tgameToken.mint(msg.sender)\n      POP \t\t\tgameToken.mint(msg.sender)\n      POP \t\t\tgameToken.mint(msg.sender)\n      POP \t\t\tgameToken.mint(msg.sender)\n      POP \t\t\tgameToken.mint(msg.sender)\n      CALLER \t\t\tmsg.sender\n      PUSH FFFFFFFFFFFFFFFFFFFFFFFFFFFFFFFFFFFFFFFF\t\t\tGamePurchased(_cid, msg.sender...\n      AND \t\t\tGamePurchased(_cid, msg.sender...\n      DUP4 \t\t\t_cid\n      PUSH 40\t\t\tGamePurchased(_cid, msg.sender...\n      MLOAD \t\t\tGamePurchased(_cid, msg.sender...\n      PUSH [tag] 167\t\t\tGamePurchased(_cid, msg.sender...\n      SWAP2 \t\t\tGamePurchased(_cid, msg.sender...\n      SWAP1 \t\t\tGamePurchased(_cid, msg.sender...\n      PUSH [tag] 53\t\t\tGamePurchased(_cid, msg.sender...\n      JUMP \t\t\tGamePurchased(_cid, msg.sender...\n    tag 167\t\t\tGamePurchased(_cid, msg.sender...\n      JUMPDEST \t\t\tGamePurchased(_cid, msg.sender...\n      PUSH 40\t\t\tGamePurchased(_cid, msg.sender...\n      MLOAD \t\t\tGamePurchased(_cid, msg.sender...\n      DUP1 \t\t\tGamePurchased(_cid, msg.sender...\n      SWAP2 \t\t\tGamePurchased(_cid, msg.sender...\n      SUB \t\t\tGamePurchased(_cid, msg.sender...\n      SWAP1 \t\t\tGamePurchased(_cid, msg.sender...\n      KECCAK256 \t\t\tGamePurchased(_cid, msg.sender...\n      PUSH BE5BACC9CCF0E6B2195FB4EEF26C0562A005DCDD2C5D064FD26D76DE3849920F\t\t\tGamePurchased(_cid, msg.sender...\n      PUSH 40\t\t\tGamePurchased(_cid, msg.sender...\n      MLOAD \t\t\tGamePurchased(_cid, msg.sender...\n      PUSH 40\t\t\tGamePurchased(_cid, msg.sender...\n      MLOAD \t\t\tGamePurchased(_cid, msg.sender...\n      DUP1 \t\t\tGamePurchased(_cid, msg.sender...\n      SWAP2 \t\t\tGamePurchased(_cid, msg.sender...\n      SUB \t\t\tGamePurchased(_cid, msg.sender...\n      SWAP1 \t\t\tGamePurchased(_cid, msg.sender...\n      LOG3 \t\t\tGamePurchased(_cid, msg.sender...\n      POP \t\t\t{\\n        Game memory _game =...\n      POP \t\t\t{\\n        Game memory _game =...\n      POP \t\t\tfunction buyGame(string memory...\n      JUMP \t\t\tfunction buyGame(string memory...\n    tag 49\t\t\tfunction isGameOwnedBytes(byte...\n      JUMPDEST \t\t\tfunction isGameOwnedBytes(byte...\n      PUSH 0\t\t\tbool\n      DUP1 \t\t\tstring memory _cid\n      PUSH [tag] 169\t\t\tbytes32ArrayToString(cid)\n      DUP4 \t\t\tcid\n      PUSH [tag] 170\t\t\tbytes32ArrayToString\n      JUMP \t\t\tbytes32ArrayToString(cid)\n    tag 169\t\t\tbytes32ArrayToString(cid)\n      JUMPDEST \t\t\tbytes32ArrayToString(cid)\n      SWAP1 \t\t\tstring memory _cid = bytes32Ar...\n      POP \t\t\tstring memory _cid = bytes32Ar...\n      PUSH 0\t\t\taddress tokenAddress\n      PUSH 2\t\t\tgames\n      DUP3 \t\t\t_cid\n      PUSH 40\t\t\tgames[_cid]\n      MLOAD \t\t\tgames[_cid]\n      PUSH [tag] 171\t\t\tgames[_cid]\n      SWAP2 \t\t\tgames[_cid]\n      SWAP1 \t\t\tgames[_cid]\n      PUSH [tag] 53\t\t\tgames[_cid]\n      JUMP \t\t\tgames[_cid]\n    tag 171\t\t\tgames[_cid]\n      JUMPDEST \t\t\tgames[_cid]\n      SWAP1 \t\t\tgames[_cid]\n      DUP2 \t\t\tgames[_cid]\n      MSTORE \t\t\tgames[_cid]\n      PUSH 20\t\t\tgames[_cid]\n      ADD \t\t\tgames[_cid]\n      PUSH 40\t\t\tgames[_cid]\n      MLOAD \t\t\tgames[_cid]\n      DUP1 \t\t\tgames[_cid]\n      SWAP2 \t\t\tgames[_cid]\n      SUB \t\t\tgames[_cid]\n      SWAP1 \t\t\tgames[_cid]\n      KECCAK256 \t\t\tgames[_cid]\n      PUSH 2\t\t\tgames[_cid].token\n      ADD \t\t\tgames[_cid].token\n      PUSH 0\t\t\tgames[_cid].token\n      SWAP1 \t\t\tgames[_cid].token\n      SLOAD \t\t\tgames[_cid].token\n      SWAP1 \t\t\tgames[_cid].token\n      PUSH 100\t\t\tgames[_cid].token\n      EXP \t\t\tgames[_cid].token\n      SWAP1 \t\t\tgames[_cid].token\n      DIV \t\t\tgames[_cid].token\n      PUSH FFFFFFFFFFFFFFFFFFFFFFFFFFFFFFFFFFFFFFFF\t\t\tgames[_cid].token\n      AND \t\t\tgames[_cid].token\n      SWAP1 \t\t\taddress tokenAddress = games[_...\n      POP \t\t\taddress tokenAddress = games[_...\n      PUSH 0\t\t\t0\n      PUSH FFFFFFFFFFFFFFFFFFFFFFFFFFFFFFFFFFFFFFFF\t\t\ttokenAddress == address(0)\n      AND \t\t\ttokenAddress == address(0)\n      DUP2 \t\t\ttokenAddress\n      PUSH FFFFFFFFFFFFFFFFFFFFFFFFFFFFFFFFFFFFFFFF\t\t\ttokenAddress == address(0)\n      AND \t\t\ttokenAddress == address(0)\n      SUB \t\t\ttokenAddress == address(0)\n      PUSH [tag] 172\t\t\tif (tokenAddress == address(0)...\n      JUMPI \t\t\tif (tokenAddress == address(0)...\n      PUSH 40\t\t\tInvalidGame()\n      MLOAD \t\t\tInvalidGame()\n      PUSH 57E25A0900000000000000000000000000000000000000000000000000000000\t\t\tInvalidGame()\n      DUP2 \t\t\tInvalidGame()\n      MSTORE \t\t\tInvalidGame()\n      PUSH 4\t\t\tInvalidGame()\n      ADD \t\t\tInvalidGame()\n      PUSH 40\t\t\tInvalidGame()\n      MLOAD \t\t\tInvalidGame()\n      DUP1 \t\t\tInvalidGame()\n      SWAP2 \t\t\tInvalidGame()\n      SUB \t\t\tInvalidGame()\n      SWAP1 \t\t\tInvalidGame()\n      REVERT \t\t\tInvalidGame()\n    tag 172\t\t\tif (tokenAddress == address(0)...\n      JUMPDEST \t\t\tif (tokenAddress == address(0)...\n      PUSH 0\t\t\tGameToken gameToken\n      DUP2 \t\t\ttokenAddress\n      SWAP1 \t\t\tGameToken gameToken = GameToke...\n      POP \t\t\tGameToken gameToken = GameToke...\n      PUSH 1\t\t\t1\n      DUP2 \t\t\tgameToken\n      PUSH FFFFFFFFFFFFFFFFFFFFFFFFFFFFFFFFFFFFFFFF\t\t\tgameToken.balanceOf\n      AND \t\t\tgameToken.balanceOf\n      PUSH 70A08231\t\t\tgameToken.balanceOf\n      CALLER \t\t\tmsg.sender\n      PUSH 40\t\t\tgameToken.balanceOf(msg.sender...\n      MLOAD \t\t\tgameToken.balanceOf(msg.sender...\n      DUP3 \t\t\tgameToken.balanceOf(msg.sender...\n      PUSH FFFFFFFF\t\t\tgameToken.balanceOf(msg.sender...\n      AND \t\t\tgameToken.balanceOf(msg.sender...\n      PUSH E0\t\t\tgameToken.balanceOf(msg.sender...\n      SHL \t\t\tgameToken.balanceOf(msg.sender...\n      DUP2 \t\t\tgameToken.balanceOf(msg.sender...\n      MSTORE \t\t\tgameToken.balanceOf(msg.sender...\n      PUSH 4\t\t\tgameToken.balanceOf(msg.sender...\n      ADD \t\t\tgameToken.balanceOf(msg.sender...\n      PUSH [tag] 173\t\t\tgameToken.balanceOf(msg.sender...\n      SWAP2 \t\t\tgameToken.balanceOf(msg.sender...\n      SWAP1 \t\t\tgameToken.balanceOf(msg.sender...\n      PUSH [tag] 61\t\t\tgameToken.balanceOf(msg.sender...\n      JUMP \t\t\tgameToken.balanceOf(msg.sender...\n    tag 173\t\t\tgameToken.balanceOf(msg.sender...\n      JUMPDEST \t\t\tgameToken.balanceOf(msg.sender...\n      PUSH 20\t\t\tgameToken.balanceOf(msg.sender...\n      PUSH 40\t\t\tgameToken.balanceOf(msg.sender...\n      MLOAD \t\t\tgameToken.balanceOf(msg.sender...\n      DUP1 \t\t\tgameToken.balanceOf(msg.sender...\n      DUP4 \t\t\tgameToken.balanceOf(msg.sender...\n      SUB \t\t\tgameToken.balanceOf(msg.sender...\n      DUP2 \t\t\tgameToken.balanceOf(msg.sender...\n      DUP7 \t\t\tgameToken.balanceOf(msg.sender...\n      GAS \t\t\tgameToken.balanceOf(msg.sender...\n      STATICCALL \t\t\tgameToken.balanceOf(msg.sender...\n      ISZERO \t\t\tgameToken.balanceOf(msg.sender...\n      DUP1 \t\t\tgameToken.balanceOf(msg.sender...\n      ISZERO \t\t\tgameToken.balanceOf(msg.sender...\n      PUSH [tag] 175\t\t\tgameToken.balanceOf(msg.sender...\n      JUMPI \t\t\tgameToken.balanceOf(msg.sender...\n      RETURNDATASIZE \t\t\tgameToken.balanceOf(msg.sender...\n      PUSH 0\t\t\tgameToken.balanceOf(msg.sender...\n      DUP1 \t\t\tgameToken.balanceOf(msg.sender...\n      RETURNDATACOPY \t\t\tgameToken.balanceOf(msg.sender...\n      RETURNDATASIZE \t\t\tgameToken.balanceOf(msg.sender...\n      PUSH 0\t\t\tgameToken.balanceOf(msg.sender...\n      REVERT \t\t\tgameToken.balanceOf(msg.sender...\n    tag 175\t\t\tgameToken.balanceOf(msg.sender...\n      JUMPDEST \t\t\tgameToken.balanceOf(msg.sender...\n      POP \t\t\tgameToken.balanceOf(msg.sender...\n      POP \t\t\tgameToken.balanceOf(msg.sender...\n      POP \t\t\tgameToken.balanceOf(msg.sender...\n      POP \t\t\tgameToken.balanceOf(msg.sender...\n      PUSH 40\t\t\tgameToken.balanceOf(msg.sender...\n      MLOAD \t\t\tgameToken.balanceOf(msg.sender...\n      RETURNDATASIZE \t\t\tgameToken.balanceOf(msg.sender...\n      PUSH 1F\t\t\tgameToken.balanceOf(msg.sender...\n      NOT \t\t\tgameToken.balanceOf(msg.sender...\n      PUSH 1F\t\t\tgameToken.balanceOf(msg.sender...\n      DUP3 \t\t\tgameToken.balanceOf(msg.sender...\n      ADD \t\t\tgameToken.balanceOf(msg.sender...\n      AND \t\t\tgameToken.balanceOf(msg.sender...\n      DUP3 \t\t\tgameToken.balanceOf(msg.sender...\n      ADD \t\t\tgameToken.balanceOf(msg.sender...\n      DUP1 \t\t\tgameToken.balanceOf(msg.sender...\n      PUSH 40\t\t\tgameToken.balanceOf(msg.sender...\n      MSTORE \t\t\tgameToken.balanceOf(msg.sender...\n      POP \t\t\tgameToken.balanceOf(msg.sender...\n      DUP2 \t\t\tgameToken.balanceOf(msg.sender...\n      ADD \t\t\tgameToken.balanceOf(msg.sender...\n      SWAP1 \t\t\tgameToken.balanceOf(msg.sender...\n      PUSH [tag] 176\t\t\tgameToken.balanceOf(msg.sender...\n      SWAP2 \t\t\tgameToken.balanceOf(msg.sender...\n      SWAP1 \t\t\tgameToken.balanceOf(msg.sender...\n      PUSH [tag] 82\t\t\tgameToken.balanceOf(msg.sender...\n      JUMP \t\t\tgameToken.balanceOf(msg.sender...\n    tag 176\t\t\tgameToken.balanceOf(msg.sender...\n      JUMPDEST \t\t\tgameToken.balanceOf(msg.sender...\n      LT \t\t\tgameToken.balanceOf(msg.sender...\n      ISZERO \t\t\tgameToken.balanceOf(msg.sender...\n      SWAP4 \t\t\treturn gameToken.balanceOf(msg...\n      POP \t\t\treturn gameToken.balanceOf(msg...\n      POP \t\t\treturn gameToken.balanceOf(msg...\n      POP \t\t\treturn gameToken.balanceOf(msg...\n      POP \t\t\treturn gameToken.balanceOf(msg...\n      SWAP2 \t\t\tfunction isGameOwnedBytes(byte...\n      SWAP1 \t\t\tfunction isGameOwnedBytes(byte...\n      POP \t\t\tfunction isGameOwnedBytes(byte...\n      JUMP \t\t\tfunction isGameOwnedBytes(byte...\n    tag 170\t\t\tfunction bytes32ArrayToString(...\n      JUMPDEST \t\t\tfunction bytes32ArrayToString(...\n      PUSH 60\t\t\tstring memory\n      DUP1 \t\t\tbytes memory byteArray\n      PUSH 0\t\t\tuint256 i\n    tag 178\t\t\tfor (uint256 i = 0; i < data.l...\n      JUMPDEST \t\t\tfor (uint256 i = 0; i < data.l...\n      DUP4 \t\t\tdata\n      MLOAD \t\t\tdata.length\n      DUP2 \t\t\ti\n      LT \t\t\ti < data.length\n      ISZERO \t\t\tfor (uint256 i = 0; i < data.l...\n      PUSH [tag] 179\t\t\tfor (uint256 i = 0; i < data.l...\n      JUMPI \t\t\tfor (uint256 i = 0; i < data.l...\n      DUP2 \t\t\tbyteArray\n      DUP5 \t\t\tdata\n      DUP3 \t\t\ti\n      DUP2 \t\t\tdata[i]\n      MLOAD \t\t\tdata[i]\n      DUP2 \t\t\tdata[i]\n      LT \t\t\tdata[i]\n      PUSH [tag] 181\t\t\tdata[i]\n      JUMPI \t\t\tdata[i]\n      PUSH [tag] 182\t\t\tdata[i]\n      PUSH [tag] 120\t\t\tdata[i]\n      JUMP \t\t\tdata[i]\n    tag 182\t\t\tdata[i]\n      JUMPDEST \t\t\tdata[i]\n    tag 181\t\t\tdata[i]\n      JUMPDEST \t\t\tdata[i]\n      PUSH 20\t\t\tdata[i]\n      MUL \t\t\tdata[i]\n      PUSH 20\t\t\tdata[i]\n      ADD \t\t\tdata[i]\n      ADD \t\t\tdata[i]\n      MLOAD \t\t\tdata[i]\n      PUSH 40\t\t\tabi.encodePacked(byteArray, da...\n      MLOAD \t\t\tabi.encodePacked(byteArray, da...\n      PUSH 20\t\t\tabi.encodePacked(byteArray, da...\n      ADD \t\t\tabi.encodePacked(byteArray, da...\n      PUSH [tag] 183\t\t\tabi.encodePacked(byteArray, da...\n      SWAP3 \t\t\tabi.encodePacked(byteArray, da...\n      SWAP2 \t\t\tabi.encodePacked(byteArray, da...\n      SWAP1 \t\t\tabi.encodePacked(byteArray, da...\n      PUSH [tag] 184\t\t\tabi.encodePacked(byteArray, da...\n      JUMP \t\t\tabi.encodePacked(byteArray, da...\n    tag 183\t\t\tabi.encodePacked(byteArray, da...\n      JUMPDEST \t\t\tabi.encodePacked(byteArray, da...\n      PUSH 40\t\t\tabi.encodePacked(byteArray, da...\n      MLOAD \t\t\tabi.encodePacked(byteArray, da...\n      PUSH 20\t\t\tabi.encodePacked(byteArray, da...\n      DUP2 \t\t\tabi.encodePacked(byteArray, da...\n      DUP4 \t\t\tabi.encodePacked(byteArray, da...\n      SUB \t\t\tabi.encodePacked(byteArray, da...\n      SUB \t\t\tabi.encodePacked(byteArray, da...\n      DUP2 \t\t\tabi.encodePacked(byteArray, da...\n      MSTORE \t\t\tabi.encodePacked(byteArray, da...\n      SWAP1 \t\t\tabi.encodePacked(byteArray, da...\n      PUSH 40\t\t\tabi.encodePacked(byteArray, da...\n      MSTORE \t\t\tabi.encodePacked(byteArray, da...\n      SWAP2 \t\t\tbyteArray = abi.encodePacked(b...\n      POP \t\t\tbyteArray = abi.encodePacked(b...\n      DUP1 \t\t\ti++\n      DUP1 \t\t\ti++\n      PUSH 1\t\t\ti++\n      ADD \t\t\ti++\n      SWAP2 \t\t\ti++\n      POP \t\t\ti++\n      POP \t\t\ti++\n      PUSH [tag] 178\t\t\tfor (uint256 i = 0; i < data.l...\n      JUMP \t\t\tfor (uint256 i = 0; i < data.l...\n    tag 179\t\t\tfor (uint256 i = 0; i < data.l...\n      JUMPDEST \t\t\tfor (uint256 i = 0; i < data.l...\n      POP \t\t\tfor (uint256 i = 0; i < data.l...\n      DUP1 \t\t\tbyteArray\n      SWAP2 \t\t\treturn string(byteArray)\n      POP \t\t\treturn string(byteArray)\n      POP \t\t\treturn string(byteArray)\n      SWAP2 \t\t\tfunction bytes32ArrayToString(...\n      SWAP1 \t\t\tfunction bytes32ArrayToString(...\n      POP \t\t\tfunction bytes32ArrayToString(...\n      JUMP \t\t\tfunction bytes32ArrayToString(...\n    tag 56\t\t\t\n      JUMPDEST \t\t\t\n      PUSH #[$] 0000000000000000000000000000000000000000000000000000000000000000\t\t\t\n      DUP1 \t\t\t\n      PUSH [$] 0000000000000000000000000000000000000000000000000000000000000000\t\t\t\n      DUP4 \t\t\t\n      CODECOPY \t\t\t\n      ADD \t\t\t\n      SWAP1 \t\t\t\n      JUMP \t\t\t\n    tag 84\t\t\t\n      JUMPDEST \t\t\t\n      PUSH 40\t\t\t\n      MLOAD \t\t\t\n      DUP1 \t\t\t\n      PUSH C0\t\t\t\n      ADD \t\t\t\n      PUSH 40\t\t\t\n      MSTORE \t\t\t\n      DUP1 \t\t\t\n      PUSH 0\t\t\t\n      PUSH FFFFFFFFFFFFFFFFFFFFFFFFFFFFFFFFFFFFFFFF\t\t\t\n      AND \t\t\t\n      DUP2 \t\t\t\n      MSTORE \t\t\t\n      PUSH 20\t\t\t\n      ADD \t\t\t\n      PUSH 60\t\t\t\n      DUP2 \t\t\t\n      MSTORE \t\t\t\n      PUSH 20\t\t\t\n      ADD \t\t\t\n      PUSH 0\t\t\t\n      PUSH FFFFFFFFFFFFFFFFFFFFFFFFFFFFFFFFFFFFFFFF\t\t\t\n      AND \t\t\t\n      DUP2 \t\t\t\n      MSTORE \t\t\t\n      PUSH 20\t\t\t\n      ADD \t\t\t\n      PUSH 60\t\t\t\n      DUP2 \t\t\t\n      MSTORE \t\t\t\n      PUSH 20\t\t\t\n      ADD \t\t\t\n      PUSH 0\t\t\t\n      DUP2 \t\t\t\n      MSTORE \t\t\t\n      PUSH 20\t\t\t\n      ADD \t\t\t\n      PUSH 60\t\t\t\n      DUP2 \t\t\t\n      MSTORE \t\t\t\n      POP \t\t\t\n      SWAP1 \t\t\t\n      JUMP \t\t\t\n    tag 185\t\t\t-License-Identifier: MIT\\nprag...\n      JUMPDEST \t\t\t-License-Identifier: MIT\\nprag...\n      PUSH 0\t\t\tolidit\n      PUSH 40\t\t\ten\n      MLOAD \t\t\tameToken}\n      SWAP1 \t\t\t\\nimport {GameToken}\n      POP \t\t\t\\nimport {GameToken}\n      SWAP1 \t\t\t-License-Identifier: MIT\\nprag...\n      JUMP \t\t\t-License-Identifier: MIT\\nprag...\n    tag 186\t\t\teToken.sol\";\\n\\ncontract GameF...\n      JUMPDEST \t\t\teToken.sol\";\\n\\ncontract GameF...\n      PUSH 0\t\t\tg\n      DUP1 \t\t\tr\n      REVERT \t\t\t     string \n    tag 187\t\t\t\\n        address indexed game...\n      JUMPDEST \t\t\t\\n        address indexed game...\n      PUSH 0\t\t\t\\n\n      DUP1 \t\t\tr\n      REVERT \t\t\ted buyer);\\n \n    tag 188\t\t\tatorFundsWithdrawn(address ind...\n      JUMPDEST \t\t\tatorFundsWithdrawn(address ind...\n      PUSH 0\t\t\t;\n      DUP1 \t\t\td\n      REVERT \t\t\tublished();\\n\n    tag 189\t\t\tvalidGame();\\n\\n    struct Gam...\n      JUMPDEST \t\t\tvalidGame();\\n\\n    struct Gam...\n      PUSH 0\t\t\tt\n      DUP1 \t\t\t \n      REVERT \t\t\t\\n        str\n    tag 190\t\t\t      uint256 price;\\n        ...\n      JUMPDEST \t\t\t      uint256 price;\\n        ...\n      PUSH 0\t\t\tUrl;\\n \n      PUSH 1F\t\t\tpr\n      NOT \t\t\t256 pri\n      PUSH 1F\t\t\t u\n      DUP4 \t\t\ter;\\n \n      ADD \t\t\t owner;\\n    ui\n      AND \t\t\tvate owner;\\n    uint256 priv\n      SWAP1 \t\t\tddress private owner;\\n    uin...\n      POP \t\t\tddress private owner;\\n    uin...\n      SWAP2 \t\t\t      uint256 price;\\n        ...\n      SWAP1 \t\t\t      uint256 price;\\n        ...\n      POP \t\t\t      uint256 price;\\n        ...\n      JUMP \t\t\t      uint256 price;\\n        ...\n    tag 111\t\t\t\\n\\n    mapping(string => Game...\n      JUMPDEST \t\t\t\\n\\n    mapping(string => Game...\n      PUSH 4E487B7100000000000000000000000000000000000000000000000000000000\t\t\t string[] private cids;\\n\\n   ...\n      PUSH 0\t\t\t \n      MSTORE \t\t\tgames;\\n    string[] private c...\n      PUSH 41\t\t\tunct\n      PUSH 4\t\t\tr\n      MSTORE \t\t\t/ Helper functi\n      PUSH 24\t\t\t32 a\n      PUSH 0\t\t\tt\n      REVERT \t\t\tvert bytes32 ar\n    tag 191\t\t\tg\\n    function bytes32ArrayTo...\n      JUMPDEST \t\t\tg\\n    function bytes32ArrayTo...\n      PUSH [tag] 264\t\t\tpure\\n        returns (strin\n      DUP3 \t\t\tstri\n      PUSH [tag] 190\t\t\tpure\\n        returns (strin\n      JUMP \t\t\tpure\\n        returns (strin\n    tag 264\t\t\tpure\\n        returns (strin\n      JUMPDEST \t\t\tpure\\n        returns (strin\n      DUP2 \t\t\t      \n      ADD \t\t\tate\\n        pure\\n        ret...\n      DUP2 \t\t\t      \n      DUP2 \t\t\t; i++) {\\n \n      LT \t\t\tgth; i++) {\\n          \n      PUSH FFFFFFFFFFFFFFFF\t\t\t6 i = 0; i < data.\n      DUP3 \t\t\t for (uint\n      GT \t\t\t    for (uint256 i = 0; i < da...\n      OR \t\t\t       for (uint256 i = 0; i <...\n      ISZERO \t\t\t;\\n        for (uint256 i = 0;...\n      PUSH [tag] 265\t\t\t;\\n        for (uint256 i = 0;...\n      JUMPI \t\t\t;\\n        for (uint256 i = 0;...\n      PUSH [tag] 266\t\t\tteArray = abi.enco\n      PUSH [tag] 111\t\t\tteArray = abi.enco\n      JUMP \t\t\tteArray = abi.enco\n    tag 266\t\t\tteArray = abi.enco\n      JUMPDEST \t\t\tteArray = abi.enco\n    tag 265\t\t\t;\\n        for (uint256 i = 0;...\n      JUMPDEST \t\t\t;\\n        for (uint256 i = 0;...\n      DUP1 \t\t\tta[i]);\\n  \n      PUSH 40\t\t\t, \n      MSTORE \t\t\tteArray, data[i]);\\n   \n      POP \t\t\t[] memory data)\\n        priva...\n      POP \t\t\tg\\n    function bytes32ArrayTo...\n      POP \t\t\tg\\n    function bytes32ArrayTo...\n      JUMP \t\t\tg\\n    function bytes32ArrayTo...\n    tag 192\t\t\t   return string(byteArray);\\n...\n      JUMPDEST \t\t\t   return string(byteArray);\\n...\n      PUSH 0\t\t\t\\n\\n    \n      PUSH [tag] 268\t\t\t\\n        string memo\n      PUSH [tag] 185\t\t\t\\n        string memo\n      JUMP \t\t\t\\n        string memo\n    tag 268\t\t\t\\n        string memo\n      JUMPDEST \t\t\t\\n        string memo\n      SWAP1 \t\t\tblishGame(\\n        string mem...\n      POP \t\t\tblishGame(\\n        string mem...\n      PUSH [tag] 269\t\t\t        string memory _name,\\n...\n      DUP3 \t\t\t\\n   \n      DUP3 \t\t\ty _nam\n      PUSH [tag] 191\t\t\t        string memory _name,\\n...\n      JUMP \t\t\t        string memory _name,\\n...\n    tag 269\t\t\t        string memory _name,\\n...\n      JUMPDEST \t\t\t        string memory _name,\\n...\n      SWAP2 \t\t\t   return string(byteArray);\\n...\n      SWAP1 \t\t\t   return string(byteArray);\\n...\n      POP \t\t\t   return string(byteArray);\\n...\n      JUMP \t\t\t   return string(byteArray);\\n...\n    tag 193\t\t\temory _symbol,\\n        uint25...\n      JUMPDEST \t\t\temory _symbol,\\n        uint25...\n      PUSH 0\t\t\tmage\n      PUSH FFFFFFFFFFFFFFFF\t\t\trt GameAlreadyPubl\n      DUP3 \t\t\t    re\n      GT \t\t\t       revert GameAlreadyPubli\n      ISZERO \t\t\t          revert GameAlreadyPu...\n      PUSH [tag] 271\t\t\t          revert GameAlreadyPu...\n      JUMPI \t\t\t          revert GameAlreadyPu...\n      PUSH [tag] 272\t\t\td();\\n        }\\n\\n  \n      PUSH [tag] 111\t\t\td();\\n        }\\n\\n  \n      JUMP \t\t\td();\\n        }\\n\\n  \n    tag 272\t\t\td();\\n        }\\n\\n  \n      JUMPDEST \t\t\td();\\n        }\\n\\n  \n    tag 271\t\t\t          revert GameAlreadyPu...\n      JUMPDEST \t\t\t          revert GameAlreadyPu...\n      PUSH [tag] 273\t\t\tToken = new GameToken(_name, \n      DUP3 \t\t\t_name,\n      PUSH [tag] 190\t\t\tToken = new GameToken(_name, \n      JUMP \t\t\tToken = new GameToken(_name, \n    tag 273\t\t\tToken = new GameToken(_name, \n      JUMPDEST \t\t\tToken = new GameToken(_name, \n      SWAP1 \t\t\tken gameToken = new GameToken(...\n      POP \t\t\tken gameToken = new GameToken(...\n      PUSH 20\t\t\t;\\n\\n \n      DUP2 \t\t\tende\n      ADD \t\t\tsg.sender);\\n\\n  \n      SWAP1 \t\t\tn.mint(msg.sender);\\n\\n  \n      POP \t\t\tn.mint(msg.sender);\\n\\n  \n      SWAP2 \t\t\temory _symbol,\\n        uint25...\n      SWAP1 \t\t\temory _symbol,\\n        uint25...\n      POP \t\t\temory _symbol,\\n        uint25...\n      JUMP \t\t\temory _symbol,\\n        uint25...\n    tag 194\t\t\tcid] = Game(\\n            msg....\n      JUMPDEST \t\t\tcid] = Game(\\n            msg....\n      DUP3 \t\t\t _name\n      DUP2 \t\t\t   \n      DUP4 \t\t\t   \n      CALLDATACOPY \t\t\tgameToken),\\n            _name...\n      PUSH 0\t\t\tm\n      DUP4 \t\t\t      \n      DUP4 \t\t\t   \n      ADD \t\t\tce,\\n            \n      MSTORE \t\t\t    price,\\n            _ima\n      POP \t\t\tcid] = Game(\\n            msg....\n      POP \t\t\tcid] = Game(\\n            msg....\n      POP \t\t\tcid] = Game(\\n            msg....\n      JUMP \t\t\tcid] = Game(\\n            msg....\n    tag 195\t\t\t );\\n        cids.push(_cid);\\...\n      JUMPDEST \t\t\t );\\n        cids.push(_cid);\\...\n      PUSH 0\t\t\tid, a\n      PUSH [tag] 276\t\t\t    }\\n\\n    function buyGame(...\n      PUSH [tag] 277\t\t\tion buyGame(string memory _cid...\n      DUP5 \t\t\tayable\n      PUSH [tag] 193\t\t\tion buyGame(string memory _cid...\n      JUMP \t\t\tion buyGame(string memory _cid...\n    tag 277\t\t\tion buyGame(string memory _cid...\n      JUMPDEST \t\t\tion buyGame(string memory _cid...\n      PUSH [tag] 192\t\t\t    }\\n\\n    function buyGame(...\n      JUMP \t\t\t    }\\n\\n    function buyGame(...\n    tag 276\t\t\t    }\\n\\n    function buyGame(...\n      JUMPDEST \t\t\t    }\\n\\n    function buyGame(...\n      SWAP1 \t\t\tToken));\\n    }\\n\\n    functio...\n      POP \t\t\tToken));\\n    }\\n\\n    functio...\n      DUP3 \t\t\tame = \n      DUP2 \t\t\tmory \n      MSTORE \t\t\tGame memory _game = g\n      PUSH 20\t\t\tcrea\n      DUP2 \t\t\t(_gam\n      ADD \t\t\t if (_game.creat\n      DUP5 \t\t\teve\n      DUP5 \t\t\t      \n      DUP5 \t\t\t\\n  \n      ADD \t\t\t)) {\\n           \n      GT \t\t\ts(0)) {\\n            rever\n      ISZERO \t\t\tress(0)) {\\n            revert...\n      PUSH [tag] 278\t\t\tress(0)) {\\n            revert...\n      JUMPI \t\t\tress(0)) {\\n            revert...\n      PUSH [tag] 279\t\t\tnvalidGame();\\n        }\\n\\n  ...\n      PUSH [tag] 189\t\t\tnvalidGame();\\n        }\\n\\n  ...\n      JUMP \t\t\tnvalidGame();\\n        }\\n\\n  ...\n    tag 279\t\t\tnvalidGame();\\n        }\\n\\n  ...\n      JUMPDEST \t\t\tnvalidGame();\\n        }\\n\\n  ...\n    tag 278\t\t\tress(0)) {\\n            revert...\n      JUMPDEST \t\t\tress(0)) {\\n            revert...\n      PUSH [tag] 280\t\t\tcientFunds();\\n        }\\n    ...\n      DUP5 \t\t\t_game.\n      DUP3 \t\t\tanc\n      DUP6 \t\t\torb\n      PUSH [tag] 194\t\t\tcientFunds();\\n        }\\n    ...\n      JUMP \t\t\tcientFunds();\\n        }\\n    ...\n    tag 280\t\t\tcientFunds();\\n        }\\n    ...\n      JUMPDEST \t\t\tcientFunds();\\n        }\\n    ...\n      POP \t\t\tdress(gameToken));\\n    }\\n\\n ...\n      SWAP4 \t\t\t );\\n        cids.push(_cid);\\...\n      SWAP3 \t\t\t );\\n        cids.push(_cid);\\...\n      POP \t\t\t );\\n        cids.push(_cid);\\...\n      POP \t\t\t );\\n        cids.push(_cid);\\...\n      POP \t\t\t );\\n        cids.push(_cid);\\...\n      JUMP \t\t\t );\\n        cids.push(_cid);\\...\n    tag 196\t\t\t      GameToken gameToken = Ga...\n      JUMPDEST \t\t\t      GameToken gameToken = Ga...\n      PUSH 0\t\t\t    g\n      DUP3 \t\t\tePu\n      PUSH 1F\t\t\tmit \n      DUP4 \t\t\t      \n      ADD \t\t\t;\\n\\n        emit G\n      SLT \t\t\tder);\\n\\n        emit GamePur\n      PUSH [tag] 282\t\t\tnt(msg.sender);\\n\\n        emi...\n      JUMPI \t\t\tnt(msg.sender);\\n\\n        emi...\n      PUSH [tag] 283\t\t\ted(_cid, msg.sender);\\n    }\\n...\n      PUSH [tag] 188\t\t\ted(_cid, msg.sender);\\n    }\\n...\n      JUMP \t\t\ted(_cid, msg.sender);\\n    }\\n...\n    tag 283\t\t\ted(_cid, msg.sender);\\n    }\\n...\n      JUMPDEST \t\t\ted(_cid, msg.sender);\\n    }\\n...\n    tag 282\t\t\tnt(msg.sender);\\n\\n        emi...\n      JUMPDEST \t\t\tnt(msg.sender);\\n\\n        emi...\n      DUP2 \t\t\t 0) {\\n\n      CALLDATALOAD \t\t\tsg.sender] == 0) {\\n \n      PUSH [tag] 284\t\t\tInsufficientFunds();\\n        ...\n      DUP5 \t\t\tbal\n      DUP3 \t\t\t(creat\n      PUSH 20\t\t\trans\n      DUP7 \t\t\tender)\n      ADD \t\t\tsg.sender).transf\n      PUSH [tag] 195\t\t\tInsufficientFunds();\\n        ...\n      JUMP \t\t\tInsufficientFunds();\\n        ...\n    tag 284\t\t\tInsufficientFunds();\\n        ...\n      JUMPDEST \t\t\tInsufficientFunds();\\n        ...\n      SWAP2 \t\t\t  revert InsufficientFunds();\\...\n      POP \t\t\t  revert InsufficientFunds();\\...\n      POP \t\t\tmeToken.mint(msg.sender);\\n\\n ...\n      SWAP3 \t\t\t      GameToken gameToken = Ga...\n      SWAP2 \t\t\t      GameToken gameToken = Ga...\n      POP \t\t\t      GameToken gameToken = Ga...\n      POP \t\t\t      GameToken gameToken = Ga...\n      JUMP \t\t\t      GameToken gameToken = Ga...\n    tag 197\t\t\ter]);\\n        creatorbalance[...\n      JUMPDEST \t\t\ter]);\\n        creatorbalance[...\n      PUSH 0\t\t\ter] = 0\n      DUP2 \t\t\trFund\n      SWAP1 \t\t\temit CreatorFund\n      POP \t\t\temit CreatorFund\n      SWAP2 \t\t\ter]);\\n        creatorbalance[...\n      SWAP1 \t\t\ter]);\\n        creatorbalance[...\n      POP \t\t\ter]);\\n        creatorbalance[...\n      JUMP \t\t\ter]);\\n        creatorbalance[...\n    tag 198\t\t\tsg.sender);\\n    }\\n\\n    // V...\n      JUMPDEST \t\t\tsg.sender);\\n    }\\n\\n    // V...\n      PUSH [tag] 287\t\t\ttes32[] memory cid) exte\n      DUP2 \t\t\t) ext\n      PUSH [tag] 197\t\t\ttes32[] memory cid) exte\n      JUMP \t\t\ttes32[] memory cid) exte\n    tag 287\t\t\ttes32[] memory cid) exte\n      JUMPDEST \t\t\ttes32[] memory cid) exte\n      DUP2 \t\t\tytes(\n      EQ \t\t\tedBytes(bytes32[] memory cid) ...\n      PUSH [tag] 288\t\t\t isGameOwnedBytes(bytes32[] me...\n      JUMPI \t\t\t isGameOwnedBytes(bytes32[] me...\n      PUSH 0\t\t\tn\n      DUP1 \t\t\tt\n      REVERT \t\t\tview returns\n    tag 288\t\t\t isGameOwnedBytes(bytes32[] me...\n      JUMPDEST \t\t\t isGameOwnedBytes(bytes32[] me...\n      POP \t\t\tsg.sender);\\n    }\\n\\n    // V...\n      JUMP \t\t\tsg.sender);\\n    }\\n\\n    // V...\n    tag 199\t\t\t    string memory _cid = bytes...\n      JUMPDEST \t\t\t    string memory _cid = bytes...\n      PUSH 0\t\t\tcid);\n      DUP2 \t\t\tames[_\n      CALLDATALOAD \t\t\tenAddress = games[_c\n      SWAP1 \t\t\tdress tokenAddress = games[_c\n      POP \t\t\tdress tokenAddress = games[_c\n      PUSH [tag] 290\t\t\t;\\n        if (tokenAddress ==...\n      DUP2 \t\t\t== ad\n      PUSH [tag] 198\t\t\t;\\n        if (tokenAddress ==...\n      JUMP \t\t\t;\\n        if (tokenAddress ==...\n    tag 290\t\t\t;\\n        if (tokenAddress ==...\n      JUMPDEST \t\t\t;\\n        if (tokenAddress ==...\n      SWAP3 \t\t\t    string memory _cid = bytes...\n      SWAP2 \t\t\t    string memory _cid = bytes...\n      POP \t\t\t    string memory _cid = bytes...\n      POP \t\t\t    string memory _cid = bytes...\n      JUMP \t\t\t    string memory _cid = bytes...\n    tag 14\t\t\t           revert InvalidGame(...\n      JUMPDEST \t\t\t           revert InvalidGame(...\n      PUSH 0\t\t\tg.send\n      DUP1 \t\t\t) >= 1\n      PUSH 0\t\t\t    }\\n\n      DUP1 \t\t\t   fun\n      PUSH 0\t\t\tion is\n      PUSH A0\t\t\t re\n      DUP7 \t\t\txternal v\n      DUP9 \t\t\ty _cid)\n      SUB \t\t\temory _cid) external vi\n      SLT \t\t\tng memory _cid) external view ...\n      ISZERO \t\t\ttring memory _cid) external vi...\n      PUSH [tag] 292\t\t\ttring memory _cid) external vi...\n      JUMPI \t\t\ttring memory _cid) external vi...\n      PUSH [tag] 293\t\t\ts (bool) {\\n        address to...\n      PUSH [tag] 186\t\t\ts (bool) {\\n        address to...\n      JUMP \t\t\ts (bool) {\\n        address to...\n    tag 293\t\t\ts (bool) {\\n        address to...\n      JUMPDEST \t\t\ts (bool) {\\n        address to...\n    tag 292\t\t\ttring memory _cid) external vi...\n      JUMPDEST \t\t\ttring memory _cid) external vi...\n      PUSH 0\t\t\t \n      DUP7 \t\t\t        }\n      ADD \t\t\t();\\n        }\\n   \n      CALLDATALOAD \t\t\tt InvalidGame();\\n        }\\n ...\n      PUSH FFFFFFFFFFFFFFFF\t\t\tameToken(tokenAddr\n      DUP2 \t\t\token =\n      GT \t\t\tmeToken = GameToken(tokenAddre\n      ISZERO \t\t\t gameToken = GameToken(tokenAd...\n      PUSH [tag] 294\t\t\t gameToken = GameToken(tokenAd...\n      JUMPI \t\t\t gameToken = GameToken(tokenAd...\n      PUSH [tag] 295\t\t\t;\\n        return gameToken.ba...\n      PUSH [tag] 187\t\t\t;\\n        return gameToken.ba...\n      JUMP \t\t\t;\\n        return gameToken.ba...\n    tag 295\t\t\t;\\n        return gameToken.ba...\n      JUMPDEST \t\t\t;\\n        return gameToken.ba...\n    tag 294\t\t\t gameToken = GameToken(tokenAd...\n      JUMPDEST \t\t\t gameToken = GameToken(tokenAd...\n      PUSH [tag] 296\t\t\tns (Game[] memory) {\\n        ...\n      DUP9 \t\t\t Game[]\n      DUP3 \t\t\tmes = \n      DUP10 \t\t\t memory _\n      ADD \t\t\tme[] memory _games = n\n      PUSH [tag] 196\t\t\tns (Game[] memory) {\\n        ...\n      JUMP \t\t\tns (Game[] memory) {\\n        ...\n    tag 296\t\t\tns (Game[] memory) {\\n        ...\n      JUMPDEST \t\t\tns (Game[] memory) {\\n        ...\n      SWAP6 \t\t\tview returns (Game[] memory) {...\n      POP \t\t\tview returns (Game[] memory) {...\n      POP \t\t\tdress(0)) {\\n            rever...\n      PUSH 20\t\t\t _\n      DUP7 \t\t\t         \n      ADD \t\t\t) {\\n            _g\n      CALLDATALOAD \t\t\ts.length; i++) {\\n            ...\n      PUSH FFFFFFFFFFFFFFFF\t\t\t      }\\n\\n        r\n      DUP2 \t\t\t[i]];\\n\n      GT \t\t\tids[i]];\\n        }\\n\\n       ...\n      ISZERO \t\t\ts[cids[i]];\\n        }\\n\\n    ...\n      PUSH [tag] 297\t\t\ts[cids[i]];\\n        }\\n\\n    ...\n      JUMPI \t\t\ts[cids[i]];\\n        }\\n\\n    ...\n      PUSH [tag] 298\t\t\tn _games;\\n    }\\n\\n    functi...\n      PUSH [tag] 187\t\t\tn _games;\\n    }\\n\\n    functi...\n      JUMP \t\t\tn _games;\\n    }\\n\\n    functi...\n    tag 298\t\t\tn _games;\\n    }\\n\\n    functi...\n      JUMPDEST \t\t\tn _games;\\n    }\\n\\n    functi...\n    tag 297\t\t\ts[cids[i]];\\n        }\\n\\n    ...\n      JUMPDEST \t\t\ts[cids[i]];\\n        }\\n\\n    ...\n      PUSH [tag] 299\t\t\trns (Game memory)\\n    {\\n    ...\n      DUP9 \t\t\tes[_cid\n      DUP3 \t\t\tame = \n      DUP10 \t\t\te memory \n      ADD \t\t\t Game memory _game = g\n      PUSH [tag] 196\t\t\trns (Game memory)\\n    {\\n    ...\n      JUMP \t\t\trns (Game memory)\\n    {\\n    ...\n    tag 299\t\t\trns (Game memory)\\n    {\\n    ...\n      JUMPDEST \t\t\trns (Game memory)\\n    {\\n    ...\n      SWAP5 \t\t\t      returns (Game memory)\\n ...\n      POP \t\t\t      returns (Game memory)\\n ...\n      POP \t\t\t  for (uint256 i = 0; i < cids...\n      PUSH 40\t\t\t;\\n\n      DUP7 \t\t\tvalidGame\n      ADD \t\t\tt InvalidGame();\\n \n      CALLDATALOAD \t\t\t        revert InvalidGame();\\...\n      PUSH FFFFFFFFFFFFFFFF\t\t\te;\\n    }\\n\\n    func\n      DUP2 \t\t\turn _g\n      GT \t\t\treturn _game;\\n    }\\n\\n    fu...\n      ISZERO \t\t\t   return _game;\\n    }\\n\\n   ...\n      PUSH [tag] 300\t\t\t   return _game;\\n    }\\n\\n   ...\n      JUMPI \t\t\t   return _game;\\n    }\\n\\n   ...\n      PUSH [tag] 301\t\t\t getGameListLength() external ...\n      PUSH [tag] 187\t\t\t getGameListLength() external ...\n      JUMP \t\t\t getGameListLength() external ...\n    tag 301\t\t\t getGameListLength() external ...\n      JUMPDEST \t\t\t getGameListLength() external ...\n    tag 300\t\t\t   return _game;\\n    }\\n\\n   ...\n      JUMPDEST \t\t\t   return _game;\\n    }\\n\\n   ...\n      PUSH [tag] 302\t\t\t\n      DUP9 \t\t\t\n      DUP3 \t\t\t\n      DUP10 \t\t\t\n      ADD \t\t\t\n      PUSH [tag] 196\t\t\t\n      JUMP \t\t\t\n    tag 302\t\t\t\n      JUMPDEST \t\t\t\n      SWAP4 \t\t\t\n      POP \t\t\t\n      POP \t\t\tcreator == address(0)) {\\n    ...\n      PUSH 60\t\t\t\n      PUSH [tag] 303\t\t\t\n      DUP9 \t\t\t\n      DUP3 \t\t\t\n      DUP10 \t\t\t\n      ADD \t\t\t\n      PUSH [tag] 199\t\t\t\n      JUMP \t\t\t\n    tag 303\t\t\t\n      JUMPDEST \t\t\t\n      SWAP3 \t\t\t\n      POP \t\t\t\n      POP \t\t\t\n      PUSH 80\t\t\t\n      DUP7 \t\t\t\n      ADD \t\t\t\n      CALLDATALOAD \t\t\t\n      PUSH FFFFFFFFFFFFFFFF\t\t\t\n      DUP2 \t\t\t\n      GT \t\t\t\n      ISZERO \t\t\t\n      PUSH [tag] 304\t\t\t\n      JUMPI \t\t\t\n      PUSH [tag] 305\t\t\t\n      PUSH [tag] 187\t\t\t\n      JUMP \t\t\t\n    tag 305\t\t\t\n      JUMPDEST \t\t\t\n    tag 304\t\t\t\n      JUMPDEST \t\t\t\n      PUSH [tag] 306\t\t\t\n      DUP9 \t\t\t\n      DUP3 \t\t\t\n      DUP10 \t\t\t\n      ADD \t\t\t\n      PUSH [tag] 196\t\t\t\n      JUMP \t\t\t\n    tag 306\t\t\t\n      JUMPDEST \t\t\t\n      SWAP2 \t\t\t\n      POP \t\t\t\n      POP \t\t\t\n      SWAP3 \t\t\t           revert InvalidGame(...\n      SWAP6 \t\t\t           revert InvalidGame(...\n      POP \t\t\t           revert InvalidGame(...\n      SWAP3 \t\t\t           revert InvalidGame(...\n      SWAP6 \t\t\t           revert InvalidGame(...\n      SWAP1 \t\t\t           revert InvalidGame(...\n      SWAP4 \t\t\t           revert InvalidGame(...\n      POP \t\t\t           revert InvalidGame(...\n      JUMP \t\t\t           revert InvalidGame(...\n    tag 19\t\t\t\n      JUMPDEST \t\t\t\n      PUSH 0\t\t\t\n      PUSH 20\t\t\t\n      DUP3 \t\t\t\n      DUP5 \t\t\t\n      SUB \t\t\t\n      SLT \t\t\t\n      ISZERO \t\t\t\n      PUSH [tag] 308\t\t\t\n      JUMPI \t\t\t\n      PUSH [tag] 309\t\t\t\n      PUSH [tag] 186\t\t\t\n      JUMP \t\t\t\n    tag 309\t\t\t\n      JUMPDEST \t\t\t\n    tag 308\t\t\t\n      JUMPDEST \t\t\t\n      PUSH 0\t\t\t\n      DUP3 \t\t\t\n      ADD \t\t\t\n      CALLDATALOAD \t\t\t\n      PUSH FFFFFFFFFFFFFFFF\t\t\t\n      DUP2 \t\t\t\n      GT \t\t\t\n      ISZERO \t\t\t\n      PUSH [tag] 310\t\t\t\n      JUMPI \t\t\t\n      PUSH [tag] 311\t\t\t\n      PUSH [tag] 187\t\t\t\n      JUMP \t\t\t\n    tag 311\t\t\t\n      JUMPDEST \t\t\t\n    tag 310\t\t\t\n      JUMPDEST \t\t\t\n      PUSH [tag] 312\t\t\t\n      DUP5 \t\t\t\n      DUP3 \t\t\t\n      DUP6 \t\t\t\n      ADD \t\t\t\n      PUSH [tag] 196\t\t\t\n      JUMP \t\t\t\n    tag 312\t\t\t\n      JUMPDEST \t\t\t\n      SWAP2 \t\t\t\n      POP \t\t\t\n      POP \t\t\t\n      SWAP3 \t\t\t\n      SWAP2 \t\t\t\n      POP \t\t\t\n      POP \t\t\t\n      JUMP \t\t\t\n    tag 200\t\t\t\n      JUMPDEST \t\t\t\n      PUSH 0\t\t\t\n      DUP2 \t\t\t\n      ISZERO \t\t\t\n      ISZERO \t\t\t\n      SWAP1 \t\t\t\n      POP \t\t\t\n      SWAP2 \t\t\t\n      SWAP1 \t\t\t\n      POP \t\t\t\n      JUMP \t\t\t\n    tag 201\t\t\t\n      JUMPDEST \t\t\t\n      PUSH [tag] 315\t\t\t\n      DUP2 \t\t\t\n      PUSH [tag] 200\t\t\t\n      JUMP \t\t\t\n    tag 315\t\t\t\n      JUMPDEST \t\t\t\n      DUP3 \t\t\t\n      MSTORE \t\t\t\n      POP \t\t\t\n      POP \t\t\t\n      JUMP \t\t\t\n    tag 22\t\t\t\n      JUMPDEST \t\t\t\n      PUSH 0\t\t\t\n      PUSH 20\t\t\t\n      DUP3 \t\t\t\n      ADD \t\t\t\n      SWAP1 \t\t\t\n      POP \t\t\t\n      PUSH [tag] 317\t\t\t\n      PUSH 0\t\t\t\n      DUP4 \t\t\t\n      ADD \t\t\t\n      DUP5 \t\t\t\n      PUSH [tag] 201\t\t\t\n      JUMP \t\t\t\n    tag 317\t\t\t\n      JUMPDEST \t\t\t\n      SWAP3 \t\t\t\n      SWAP2 \t\t\t\n      POP \t\t\t\n      POP \t\t\t\n      JUMP \t\t\t\n    tag 202\t\t\t\n      JUMPDEST \t\t\t\n      PUSH 0\t\t\t\n      PUSH FFFFFFFFFFFFFFFFFFFFFFFFFFFFFFFFFFFFFFFF\t\t\t\n      DUP3 \t\t\t\n      AND \t\t\t\n      SWAP1 \t\t\t\n      POP \t\t\t\n      SWAP2 \t\t\t\n      SWAP1 \t\t\t\n      POP \t\t\t\n      JUMP \t\t\t\n    tag 203\t\t\t\n      JUMPDEST \t\t\t\n      PUSH 0\t\t\t\n      PUSH [tag] 320\t\t\t\n      DUP3 \t\t\t\n      PUSH [tag] 202\t\t\t\n      JUMP \t\t\t\n    tag 320\t\t\t\n      JUMPDEST \t\t\t\n      SWAP1 \t\t\t\n      POP \t\t\t\n      SWAP2 \t\t\t\n      SWAP1 \t\t\t\n      POP \t\t\t\n      JUMP \t\t\t\n    tag 204\t\t\t\n      JUMPDEST \t\t\t\n      PUSH [tag] 322\t\t\t\n      DUP2 \t\t\t\n      PUSH [tag] 203\t\t\t\n      JUMP \t\t\t\n    tag 322\t\t\t\n      JUMPDEST \t\t\t\n      DUP3 \t\t\t\n      MSTORE \t\t\t\n      POP \t\t\t\n      POP \t\t\t\n      JUMP \t\t\t\n    tag 205\t\t\t\n      JUMPDEST \t\t\t\n      PUSH 0\t\t\t\n      DUP2 \t\t\t\n      MLOAD \t\t\t\n      SWAP1 \t\t\t\n      POP \t\t\t\n      SWAP2 \t\t\t\n      SWAP1 \t\t\t\n      POP \t\t\t\n      JUMP \t\t\t\n    tag 206\t\t\t\n      JUMPDEST \t\t\t\n      PUSH 0\t\t\t\n      DUP3 \t\t\t\n      DUP3 \t\t\t\n      MSTORE \t\t\t\n      PUSH 20\t\t\t\n      DUP3 \t\t\t\n      ADD \t\t\t\n      SWAP1 \t\t\t\n      POP \t\t\t\n      SWAP3 \t\t\t\n      SWAP2 \t\t\t\n      POP \t\t\t\n      POP \t\t\t\n      JUMP \t\t\t\n    tag 207\t\t\t\n      JUMPDEST \t\t\t\n      DUP3 \t\t\t\n      DUP2 \t\t\t\n      DUP4 \t\t\t\n      MCOPY \t\t\t\n      PUSH 0\t\t\t\n      DUP4 \t\t\t\n      DUP4 \t\t\t\n      ADD \t\t\t\n      MSTORE \t\t\t\n      POP \t\t\t\n      POP \t\t\t\n      POP \t\t\t\n      JUMP \t\t\t\n    tag 208\t\t\t\n      JUMPDEST \t\t\t\n      PUSH 0\t\t\t\n      PUSH [tag] 327\t\t\t\n      DUP3 \t\t\t\n      PUSH [tag] 205\t\t\t\n      JUMP \t\t\t\n    tag 327\t\t\t\n      JUMPDEST \t\t\t\n      PUSH [tag] 328\t\t\t\n      DUP2 \t\t\t\n      DUP6 \t\t\t\n      PUSH [tag] 206\t\t\t\n      JUMP \t\t\t\n    tag 328\t\t\t\n      JUMPDEST \t\t\t\n      SWAP4 \t\t\t\n      POP \t\t\t\n      PUSH [tag] 329\t\t\t\n      DUP2 \t\t\t\n      DUP6 \t\t\t\n      PUSH 20\t\t\t\n      DUP7 \t\t\t\n      ADD \t\t\t\n      PUSH [tag] 207\t\t\t\n      JUMP \t\t\t\n    tag 329\t\t\t\n      JUMPDEST \t\t\t\n      PUSH [tag] 330\t\t\t\n      DUP2 \t\t\t\n      PUSH [tag] 190\t\t\t\n      JUMP \t\t\t\n    tag 330\t\t\t\n      JUMPDEST \t\t\t\n      DUP5 \t\t\t\n      ADD \t\t\t\n      SWAP2 \t\t\t\n      POP \t\t\t\n      POP \t\t\t\n      SWAP3 \t\t\t\n      SWAP2 \t\t\t\n      POP \t\t\t\n      POP \t\t\t\n      JUMP \t\t\t\n    tag 209\t\t\t\n      JUMPDEST \t\t\t\n      PUSH [tag] 332\t\t\t\n      DUP2 \t\t\t\n      PUSH [tag] 197\t\t\t\n      JUMP \t\t\t\n    tag 332\t\t\t\n      JUMPDEST \t\t\t\n      DUP3 \t\t\t\n      MSTORE \t\t\t\n      POP \t\t\t\n      POP \t\t\t\n      JUMP \t\t\t\n    tag 210\t\t\t\n      JUMPDEST \t\t\t\n      PUSH 0\t\t\t\n      PUSH C0\t\t\t\n      DUP4 \t\t\t\n      ADD \t\t\t\n      PUSH 0\t\t\t\n      DUP4 \t\t\t\n      ADD \t\t\t\n      MLOAD \t\t\t\n      PUSH [tag] 334\t\t\t\n      PUSH 0\t\t\t\n      DUP7 \t\t\t\n      ADD \t\t\t\n      DUP3 \t\t\t\n      PUSH [tag] 204\t\t\t\n      JUMP \t\t\t\n    tag 334\t\t\t\n      JUMPDEST \t\t\t\n      POP \t\t\t\n      PUSH 20\t\t\t\n      DUP4 \t\t\t\n      ADD \t\t\t\n      MLOAD \t\t\t\n      DUP5 \t\t\t\n      DUP3 \t\t\t\n      SUB \t\t\t\n      PUSH 20\t\t\t\n      DUP7 \t\t\t\n      ADD \t\t\t\n      MSTORE \t\t\t\n      PUSH [tag] 335\t\t\t\n      DUP3 \t\t\t\n      DUP3 \t\t\t\n      PUSH [tag] 208\t\t\t\n      JUMP \t\t\t\n    tag 335\t\t\t\n      JUMPDEST \t\t\t\n      SWAP2 \t\t\t\n      POP \t\t\t\n      POP \t\t\t\n      PUSH 40\t\t\t\n      DUP4 \t\t\t\n      ADD \t\t\t\n      MLOAD \t\t\t\n      PUSH [tag] 336\t\t\t\n      PUSH 40\t\t\t\n      DUP7 \t\t\t\n      ADD \t\t\t\n      DUP3 \t\t\t\n      PUSH [tag] 204\t\t\t\n      JUMP \t\t\t\n    tag 336\t\t\t\n      JUMPDEST \t\t\t\n      POP \t\t\t\n      PUSH 60\t\t\t\n      DUP4 \t\t\t\n      ADD \t\t\t\n      MLOAD \t\t\t\n      DUP5 \t\t\t\n      DUP3 \t\t\t\n      SUB \t\t\t\n      PUSH 60\t\t\t\n      DUP7 \t\t\t\n      ADD \t\t\t\n      MSTORE \t\t\t\n      PUSH [tag] 337\t\t\t\n      DUP3 \t\t\t\n      DUP3 \t\t\t\n      PUSH [tag] 208\t\t\t\n      JUMP \t\t\t\n    tag 337\t\t\t\n      JUMPDEST \t\t\t\n      SWAP2 \t\t\t\n      POP \t\t\t\n      POP \t\t\t\n      PUSH 80\t\t\t\n      DUP4 \t\t\t\n      ADD \t\t\t\n      MLOAD \t\t\t\n      PUSH [tag] 338\t\t\t\n      PUSH 80\t\t\t\n      DUP7 \t\t\t\n      ADD \t\t\t\n      DUP3 \t\t\t\n      PUSH [tag] 209\t\t\t\n      JUMP \t\t\t\n    tag 338\t\t\t\n      JUMPDEST \t\t\t\n      POP \t\t\t\n      PUSH A0\t\t\t\n      DUP4 \t\t\t\n      ADD \t\t\t\n      MLOAD \t\t\t\n      DUP5 \t\t\t\n      DUP3 \t\t\t\n      SUB \t\t\t\n      PUSH A0\t\t\t\n      DUP7 \t\t\t\n      ADD \t\t\t\n      MSTORE \t\t\t\n      PUSH [tag] 339\t\t\t\n      DUP3 \t\t\t\n      DUP3 \t\t\t\n      PUSH [tag] 208\t\t\t\n      JUMP \t\t\t\n    tag 339\t\t\t\n      JUMPDEST \t\t\t\n      SWAP2 \t\t\t\n      POP \t\t\t\n      POP \t\t\t\n      DUP1 \t\t\t\n      SWAP2 \t\t\t\n      POP \t\t\t\n      POP \t\t\t\n      SWAP3 \t\t\t\n      SWAP2 \t\t\t\n      POP \t\t\t\n      POP \t\t\t\n      JUMP \t\t\t\n    tag 28\t\t\t\n      JUMPDEST \t\t\t\n      PUSH 0\t\t\t\n      PUSH 20\t\t\t\n      DUP3 \t\t\t\n      ADD \t\t\t\n      SWAP1 \t\t\t\n      POP \t\t\t\n      DUP2 \t\t\t\n      DUP2 \t\t\t\n      SUB \t\t\t\n      PUSH 0\t\t\t\n      DUP4 \t\t\t\n      ADD \t\t\t\n      MSTORE \t\t\t\n      PUSH [tag] 341\t\t\t\n      DUP2 \t\t\t\n      DUP5 \t\t\t\n      PUSH [tag] 210\t\t\t\n      JUMP \t\t\t\n    tag 341\t\t\t\n      JUMPDEST \t\t\t\n      SWAP1 \t\t\t\n      POP \t\t\t\n      SWAP3 \t\t\t\n      SWAP2 \t\t\t\n      POP \t\t\t\n      POP \t\t\t\n      JUMP \t\t\t\n    tag 211\t\t\t\n      JUMPDEST \t\t\t\n      PUSH 0\t\t\t\n      DUP2 \t\t\t\n      MLOAD \t\t\t\n      SWAP1 \t\t\t\n      POP \t\t\t\n      SWAP2 \t\t\t\n      SWAP1 \t\t\t\n      POP \t\t\t\n      JUMP \t\t\t\n    tag 212\t\t\t\n      JUMPDEST \t\t\t\n      PUSH 0\t\t\t\n      DUP3 \t\t\t\n      DUP3 \t\t\t\n      MSTORE \t\t\t\n      PUSH 20\t\t\t\n      DUP3 \t\t\t\n      ADD \t\t\t\n      SWAP1 \t\t\t\n      POP \t\t\t\n      SWAP3 \t\t\t\n      SWAP2 \t\t\t\n      POP \t\t\t\n      POP \t\t\t\n      JUMP \t\t\t\n    tag 213\t\t\t\n      JUMPDEST \t\t\t\n      PUSH 0\t\t\t\n      DUP2 \t\t\t\n      SWAP1 \t\t\t\n      POP \t\t\t\n      PUSH 20\t\t\t\n      DUP3 \t\t\t\n      ADD \t\t\t\n      SWAP1 \t\t\t\n      POP \t\t\t\n      SWAP2 \t\t\t\n      SWAP1 \t\t\t\n      POP \t\t\t\n      JUMP \t\t\t\n    tag 214\t\t\t\n      JUMPDEST \t\t\t\n      PUSH 0\t\t\t\n      PUSH C0\t\t\t\n      DUP4 \t\t\t\n      ADD \t\t\t\n      PUSH 0\t\t\t\n      DUP4 \t\t\t\n      ADD \t\t\t\n      MLOAD \t\t\t\n      PUSH [tag] 346\t\t\t\n      PUSH 0\t\t\t\n      DUP7 \t\t\t\n      ADD \t\t\t\n      DUP3 \t\t\t\n      PUSH [tag] 204\t\t\t\n      JUMP \t\t\t\n    tag 346\t\t\t\n      JUMPDEST \t\t\t\n      POP \t\t\t\n      PUSH 20\t\t\t\n      DUP4 \t\t\t\n      ADD \t\t\t\n      MLOAD \t\t\t\n      DUP5 \t\t\t\n      DUP3 \t\t\t\n      SUB \t\t\t\n      PUSH 20\t\t\t\n      DUP7 \t\t\t\n      ADD \t\t\t\n      MSTORE \t\t\t\n      PUSH [tag] 347\t\t\t\n      DUP3 \t\t\t\n      DUP3 \t\t\t\n      PUSH [tag] 208\t\t\t\n      JUMP \t\t\t\n    tag 347\t\t\t\n      JUMPDEST \t\t\t\n      SWAP2 \t\t\t\n      POP \t\t\t\n      POP \t\t\t\n      PUSH 40\t\t\t\n      DUP4 \t\t\t\n      ADD \t\t\t\n      MLOAD \t\t\t\n      PUSH [tag] 348\t\t\t\n      PUSH 40\t\t\t\n      DUP7 \t\t\t\n      ADD \t\t\t\n      DUP3 \t\t\t\n      PUSH [tag] 204\t\t\t\n      JUMP \t\t\t\n    tag 348\t\t\t\n      JUMPDEST \t\t\t\n      POP \t\t\t\n      PUSH 60\t\t\t\n      DUP4 \t\t\t\n      ADD \t\t\t\n      MLOAD \t\t\t\n      DUP5 \t\t\t\n      DUP3 \t\t\t\n      SUB \t\t\t\n      PUSH 60\t\t\t\n      DUP7 \t\t\t\n      ADD \t\t\t\n      MSTORE \t\t\t\n      PUSH [tag] 349\t\t\t\n      DUP3 \t\t\t\n      DUP3 \t\t\t\n      PUSH [tag] 208\t\t\t\n      JUMP \t\t\t\n    tag 349\t\t\t\n      JUMPDEST \t\t\t\n      SWAP2 \t\t\t\n      POP \t\t\t\n      POP \t\t\t\n      PUSH 80\t\t\t\n      DUP4 \t\t\t\n      ADD \t\t\t\n      MLOAD \t\t\t\n      PUSH [tag] 350\t\t\t\n      PUSH 80\t\t\t\n      DUP7 \t\t\t\n      ADD \t\t\t\n      DUP3 \t\t\t\n      PUSH [tag] 209\t\t\t\n      JUMP \t\t\t\n    tag 350\t\t\t\n      JUMPDEST \t\t\t\n      POP \t\t\t\n      PUSH A0\t\t\t\n      DUP4 \t\t\t\n      ADD \t\t\t\n      MLOAD \t\t\t\n      DUP5 \t\t\t\n      DUP3 \t\t\t\n      SUB \t\t\t\n      PUSH A0\t\t\t\n      DUP7 \t\t\t\n      ADD \t\t\t\n      MSTORE \t\t\t\n      PUSH [tag] 351\t\t\t\n      DUP3 \t\t\t\n      DUP3 \t\t\t\n      PUSH [tag] 208\t\t\t\n      JUMP \t\t\t\n    tag 351\t\t\t\n      JUMPDEST \t\t\t\n      SWAP2 \t\t\t\n      POP \t\t\t\n      POP \t\t\t\n      DUP1 \t\t\t\n      SWAP2 \t\t\t\n      POP \t\t\t\n      POP \t\t\t\n      SWAP3 \t\t\t\n      SWAP2 \t\t\t\n      POP \t\t\t\n      POP \t\t\t\n      JUMP \t\t\t\n    tag 215\t\t\t\n      JUMPDEST \t\t\t\n      PUSH 0\t\t\t\n      PUSH [tag] 353\t\t\t\n      DUP4 \t\t\t\n      DUP4 \t\t\t\n      PUSH [tag] 214\t\t\t\n      JUMP \t\t\t\n    tag 353\t\t\t\n      JUMPDEST \t\t\t\n      SWAP1 \t\t\t\n      POP \t\t\t\n      SWAP3 \t\t\t\n      SWAP2 \t\t\t\n      POP \t\t\t\n      POP \t\t\t\n      JUMP \t\t\t\n    tag 216\t\t\t\n      JUMPDEST \t\t\t\n      PUSH 0\t\t\t\n      PUSH 20\t\t\t\n      DUP3 \t\t\t\n      ADD \t\t\t\n      SWAP1 \t\t\t\n      POP \t\t\t\n      SWAP2 \t\t\t\n      SWAP1 \t\t\t\n      POP \t\t\t\n      JUMP \t\t\t\n    tag 217\t\t\t\n      JUMPDEST \t\t\t\n      PUSH 0\t\t\t\n      PUSH [tag] 356\t\t\t\n      DUP3 \t\t\t\n      PUSH [tag] 211\t\t\t\n      JUMP \t\t\t\n    tag 356\t\t\t\n      JUMPDEST \t\t\t\n      PUSH [tag] 357\t\t\t\n      DUP2 \t\t\t\n      DUP6 \t\t\t\n      PUSH [tag] 212\t\t\t\n      JUMP \t\t\t\n    tag 357\t\t\t\n      JUMPDEST \t\t\t\n      SWAP4 \t\t\t\n      POP \t\t\t\n      DUP4 \t\t\t\n      PUSH 20\t\t\t\n      DUP3 \t\t\t\n      MUL \t\t\t\n      DUP6 \t\t\t\n      ADD \t\t\t\n      PUSH [tag] 358\t\t\t\n      DUP6 \t\t\t\n      PUSH [tag] 213\t\t\t\n      JUMP \t\t\t\n    tag 358\t\t\t\n      JUMPDEST \t\t\t\n      DUP1 \t\t\t\n      PUSH 0\t\t\t\n    tag 359\t\t\t\n      JUMPDEST \t\t\t\n      DUP6 \t\t\t\n      DUP2 \t\t\t\n      LT \t\t\t\n      ISZERO \t\t\t\n      PUSH [tag] 361\t\t\t\n      JUMPI \t\t\t\n      DUP5 \t\t\t\n      DUP5 \t\t\t\n      SUB \t\t\t\n      DUP10 \t\t\t\n      MSTORE \t\t\t\n      DUP2 \t\t\t\n      MLOAD \t\t\t\n      PUSH [tag] 362\t\t\t\n      DUP6 \t\t\t\n      DUP3 \t\t\t\n      PUSH [tag] 215\t\t\t\n      JUMP \t\t\t\n    tag 362\t\t\t\n      JUMPDEST \t\t\t\n      SWAP5 \t\t\t\n      POP \t\t\t\n      PUSH [tag] 363\t\t\t\n      DUP4 \t\t\t\n      PUSH [tag] 216\t\t\t\n      JUMP \t\t\t\n    tag 363\t\t\t\n      JUMPDEST \t\t\t\n      SWAP3 \t\t\t\n      POP \t\t\t\n      PUSH 20\t\t\t\n      DUP11 \t\t\t\n      ADD \t\t\t\n      SWAP10 \t\t\t\n      POP \t\t\t\n      POP \t\t\t\n      PUSH 1\t\t\t\n      DUP2 \t\t\t\n      ADD \t\t\t\n      SWAP1 \t\t\t\n      POP \t\t\t\n      PUSH [tag] 359\t\t\t\n      JUMP \t\t\t\n    tag 361\t\t\t\n      JUMPDEST \t\t\t\n      POP \t\t\t\n      DUP3 \t\t\t\n      SWAP8 \t\t\t\n      POP \t\t\t\n      DUP8 \t\t\t\n      SWAP6 \t\t\t\n      POP \t\t\t\n      POP \t\t\t\n      POP \t\t\t\n      POP \t\t\t\n      POP \t\t\t\n      POP \t\t\t\n      SWAP3 \t\t\t\n      SWAP2 \t\t\t\n      POP \t\t\t\n      POP \t\t\t\n      JUMP \t\t\t\n    tag 36\t\t\t\n      JUMPDEST \t\t\t\n      PUSH 0\t\t\t\n      PUSH 20\t\t\t\n      DUP3 \t\t\t\n      ADD \t\t\t\n      SWAP1 \t\t\t\n      POP \t\t\t\n      DUP2 \t\t\t\n      DUP2 \t\t\t\n      SUB \t\t\t\n      PUSH 0\t\t\t\n      DUP4 \t\t\t\n      ADD \t\t\t\n      MSTORE \t\t\t\n      PUSH [tag] 365\t\t\t\n      DUP2 \t\t\t\n      DUP5 \t\t\t\n      PUSH [tag] 217\t\t\t\n      JUMP \t\t\t\n    tag 365\t\t\t\n      JUMPDEST \t\t\t\n      SWAP1 \t\t\t\n      POP \t\t\t\n      SWAP3 \t\t\t\n      SWAP2 \t\t\t\n      POP \t\t\t\n      POP \t\t\t\n      JUMP \t\t\t\n    tag 218\t\t\t\n      JUMPDEST \t\t\t\n      PUSH [tag] 367\t\t\t\n      DUP2 \t\t\t\n      PUSH [tag] 197\t\t\t\n      JUMP \t\t\t\n    tag 367\t\t\t\n      JUMPDEST \t\t\t\n      DUP3 \t\t\t\n      MSTORE \t\t\t\n      POP \t\t\t\n      POP \t\t\t\n      JUMP \t\t\t\n    tag 41\t\t\t\n      JUMPDEST \t\t\t\n      PUSH 0\t\t\t\n      PUSH 20\t\t\t\n      DUP3 \t\t\t\n      ADD \t\t\t\n      SWAP1 \t\t\t\n      POP \t\t\t\n      PUSH [tag] 369\t\t\t\n      PUSH 0\t\t\t\n      DUP4 \t\t\t\n      ADD \t\t\t\n      DUP5 \t\t\t\n      PUSH [tag] 218\t\t\t\n      JUMP \t\t\t\n    tag 369\t\t\t\n      JUMPDEST \t\t\t\n      SWAP3 \t\t\t\n      SWAP2 \t\t\t\n      POP \t\t\t\n      POP \t\t\t\n      JUMP \t\t\t\n    tag 219\t\t\t\n      JUMPDEST \t\t\t\n      PUSH 0\t\t\t\n      PUSH FFFFFFFFFFFFFFFF\t\t\t\n      DUP3 \t\t\t\n      GT \t\t\t\n      ISZERO \t\t\t\n      PUSH [tag] 371\t\t\t\n      JUMPI \t\t\t\n      PUSH [tag] 372\t\t\t\n      PUSH [tag] 111\t\t\t\n      JUMP \t\t\t\n    tag 372\t\t\t\n      JUMPDEST \t\t\t\n    tag 371\t\t\t\n      JUMPDEST \t\t\t\n      PUSH 20\t\t\t\n      DUP3 \t\t\t\n      MUL \t\t\t\n      SWAP1 \t\t\t\n      POP \t\t\t\n      PUSH 20\t\t\t\n      DUP2 \t\t\t\n      ADD \t\t\t\n      SWAP1 \t\t\t\n      POP \t\t\t\n      SWAP2 \t\t\t\n      SWAP1 \t\t\t\n      POP \t\t\t\n      JUMP \t\t\t\n    tag 220\t\t\t\n      JUMPDEST \t\t\t\n      PUSH 0\t\t\t\n      DUP1 \t\t\t\n      REVERT \t\t\t\n    tag 221\t\t\t\n      JUMPDEST \t\t\t\n      PUSH 0\t\t\t\n      DUP2 \t\t\t\n      SWAP1 \t\t\t\n      POP \t\t\t\n      SWAP2 \t\t\t\n      SWAP1 \t\t\t\n      POP \t\t\t\n      JUMP \t\t\t\n    tag 222\t\t\t\n      JUMPDEST \t\t\t\n      PUSH [tag] 376\t\t\t\n      DUP2 \t\t\t\n      PUSH [tag] 221\t\t\t\n      JUMP \t\t\t\n    tag 376\t\t\t\n      JUMPDEST \t\t\t\n      DUP2 \t\t\t\n      EQ \t\t\t\n      PUSH [tag] 377\t\t\t\n      JUMPI \t\t\t\n      PUSH 0\t\t\t\n      DUP1 \t\t\t\n      REVERT \t\t\t\n    tag 377\t\t\t\n      JUMPDEST \t\t\t\n      POP \t\t\t\n      JUMP \t\t\t\n    tag 223\t\t\t\n      JUMPDEST \t\t\t\n      PUSH 0\t\t\t\n      DUP2 \t\t\t\n      CALLDATALOAD \t\t\t\n      SWAP1 \t\t\t\n      POP \t\t\t\n      PUSH [tag] 379\t\t\t\n      DUP2 \t\t\t\n      PUSH [tag] 222\t\t\t\n      JUMP \t\t\t\n    tag 379\t\t\t\n      JUMPDEST \t\t\t\n      SWAP3 \t\t\t\n      SWAP2 \t\t\t\n      POP \t\t\t\n      POP \t\t\t\n      JUMP \t\t\t\n    tag 224\t\t\t\n      JUMPDEST \t\t\t\n      PUSH 0\t\t\t\n      PUSH [tag] 381\t\t\t\n      PUSH [tag] 382\t\t\t\n      DUP5 \t\t\t\n      PUSH [tag] 219\t\t\t\n      JUMP \t\t\t\n    tag 382\t\t\t\n      JUMPDEST \t\t\t\n      PUSH [tag] 192\t\t\t\n      JUMP \t\t\t\n    tag 381\t\t\t\n      JUMPDEST \t\t\t\n      SWAP1 \t\t\t\n      POP \t\t\t\n      DUP1 \t\t\t\n      DUP4 \t\t\t\n      DUP3 \t\t\t\n      MSTORE \t\t\t\n      PUSH 20\t\t\t\n      DUP3 \t\t\t\n      ADD \t\t\t\n      SWAP1 \t\t\t\n      POP \t\t\t\n      PUSH 20\t\t\t\n      DUP5 \t\t\t\n      MUL \t\t\t\n      DUP4 \t\t\t\n      ADD \t\t\t\n      DUP6 \t\t\t\n      DUP2 \t\t\t\n      GT \t\t\t\n      ISZERO \t\t\t\n      PUSH [tag] 383\t\t\t\n      JUMPI \t\t\t\n      PUSH [tag] 384\t\t\t\n      PUSH [tag] 220\t\t\t\n      JUMP \t\t\t\n    tag 384\t\t\t\n      JUMPDEST \t\t\t\n    tag 383\t\t\t\n      JUMPDEST \t\t\t\n      DUP4 \t\t\t\n    tag 385\t\t\t\n      JUMPDEST \t\t\t\n      DUP2 \t\t\t\n      DUP2 \t\t\t\n      LT \t\t\t\n      ISZERO \t\t\t\n      PUSH [tag] 387\t\t\t\n      JUMPI \t\t\t\n      DUP1 \t\t\t\n      PUSH [tag] 388\t\t\t\n      DUP9 \t\t\t\n      DUP3 \t\t\t\n      PUSH [tag] 223\t\t\t\n      JUMP \t\t\t\n    tag 388\t\t\t\n      JUMPDEST \t\t\t\n      DUP5 \t\t\t\n      MSTORE \t\t\t\n      PUSH 20\t\t\t\n      DUP5 \t\t\t\n      ADD \t\t\t\n      SWAP4 \t\t\t\n      POP \t\t\t\n      POP \t\t\t\n      PUSH 20\t\t\t\n      DUP2 \t\t\t\n      ADD \t\t\t\n      SWAP1 \t\t\t\n      POP \t\t\t\n      PUSH [tag] 385\t\t\t\n      JUMP \t\t\t\n    tag 387\t\t\t\n      JUMPDEST \t\t\t\n      POP \t\t\t\n      POP \t\t\t\n      POP \t\t\t\n      SWAP4 \t\t\t\n      SWAP3 \t\t\t\n      POP \t\t\t\n      POP \t\t\t\n      POP \t\t\t\n      JUMP \t\t\t\n    tag 225\t\t\t\n      JUMPDEST \t\t\t\n      PUSH 0\t\t\t\n      DUP3 \t\t\t\n      PUSH 1F\t\t\t\n      DUP4 \t\t\t\n      ADD \t\t\t\n      SLT \t\t\t\n      PUSH [tag] 390\t\t\t\n      JUMPI \t\t\t\n      PUSH [tag] 391\t\t\t\n      PUSH [tag] 188\t\t\t\n      JUMP \t\t\t\n    tag 391\t\t\t\n      JUMPDEST \t\t\t\n    tag 390\t\t\t\n      JUMPDEST \t\t\t\n      DUP2 \t\t\t\n      CALLDATALOAD \t\t\t\n      PUSH [tag] 392\t\t\t\n      DUP5 \t\t\t\n      DUP3 \t\t\t\n      PUSH 20\t\t\t\n      DUP7 \t\t\t\n      ADD \t\t\t\n      PUSH [tag] 224\t\t\t\n      JUMP \t\t\t\n    tag 392\t\t\t\n      JUMPDEST \t\t\t\n      SWAP2 \t\t\t\n      POP \t\t\t\n      POP \t\t\t\n      SWAP3 \t\t\t\n      SWAP2 \t\t\t\n      POP \t\t\t\n      POP \t\t\t\n      JUMP \t\t\t\n    tag 48\t\t\t\n      JUMPDEST \t\t\t\n      PUSH 0\t\t\t\n      PUSH 20\t\t\t\n      DUP3 \t\t\t\n      DUP5 \t\t\t\n      SUB \t\t\t\n      SLT \t\t\t\n      ISZERO \t\t\t\n      PUSH [tag] 394\t\t\t\n      JUMPI \t\t\t\n      PUSH [tag] 395\t\t\t\n      PUSH [tag] 186\t\t\t\n      JUMP \t\t\t\n    tag 395\t\t\t\n      JUMPDEST \t\t\t\n    tag 394\t\t\t\n      JUMPDEST \t\t\t\n      PUSH 0\t\t\t\n      DUP3 \t\t\t\n      ADD \t\t\t\n      CALLDATALOAD \t\t\t\n      PUSH FFFFFFFFFFFFFFFF\t\t\t\n      DUP2 \t\t\t\n      GT \t\t\t\n      ISZERO \t\t\t\n      PUSH [tag] 396\t\t\t\n      JUMPI \t\t\t\n      PUSH [tag] 397\t\t\t\n      PUSH [tag] 187\t\t\t\n      JUMP \t\t\t\n    tag 397\t\t\t\n      JUMPDEST \t\t\t\n    tag 396\t\t\t\n      JUMPDEST \t\t\t\n      PUSH [tag] 398\t\t\t\n      DUP5 \t\t\t\n      DUP3 \t\t\t\n      DUP6 \t\t\t\n      ADD \t\t\t\n      PUSH [tag] 225\t\t\t\n      JUMP \t\t\t\n    tag 398\t\t\t\n      JUMPDEST \t\t\t\n      SWAP2 \t\t\t\n      POP \t\t\t\n      POP \t\t\t\n      SWAP3 \t\t\t\n      SWAP2 \t\t\t\n      POP \t\t\t\n      POP \t\t\t\n      JUMP \t\t\t\n    tag 226\t\t\t\n      JUMPDEST \t\t\t\n      PUSH 0\t\t\t\n      DUP2 \t\t\t\n      SWAP1 \t\t\t\n      POP \t\t\t\n      SWAP3 \t\t\t\n      SWAP2 \t\t\t\n      POP \t\t\t\n      POP \t\t\t\n      JUMP \t\t\t\n    tag 227\t\t\t\n      JUMPDEST \t\t\t\n      PUSH 0\t\t\t\n      PUSH [tag] 401\t\t\t\n      DUP3 \t\t\t\n      PUSH [tag] 205\t\t\t\n      JUMP \t\t\t\n    tag 401\t\t\t\n      JUMPDEST \t\t\t\n      PUSH [tag] 402\t\t\t\n      DUP2 \t\t\t\n      DUP6 \t\t\t\n      PUSH [tag] 226\t\t\t\n      JUMP \t\t\t\n    tag 402\t\t\t\n      JUMPDEST \t\t\t\n      SWAP4 \t\t\t\n      POP \t\t\t\n      PUSH [tag] 403\t\t\t\n      DUP2 \t\t\t\n      DUP6 \t\t\t\n      PUSH 20\t\t\t\n      DUP7 \t\t\t\n      ADD \t\t\t\n      PUSH [tag] 207\t\t\t\n      JUMP \t\t\t\n    tag 403\t\t\t\n      JUMPDEST \t\t\t\n      DUP1 \t\t\t\n      DUP5 \t\t\t\n      ADD \t\t\t\n      SWAP2 \t\t\t\n      POP \t\t\t\n      POP \t\t\t\n      SWAP3 \t\t\t\n      SWAP2 \t\t\t\n      POP \t\t\t\n      POP \t\t\t\n      JUMP \t\t\t\n    tag 53\t\t\t\n      JUMPDEST \t\t\t\n      PUSH 0\t\t\t\n      PUSH [tag] 405\t\t\t\n      DUP3 \t\t\t\n      DUP5 \t\t\t\n      PUSH [tag] 227\t\t\t\n      JUMP \t\t\t\n    tag 405\t\t\t\n      JUMPDEST \t\t\t\n      SWAP2 \t\t\t\n      POP \t\t\t\n      DUP2 \t\t\t\n      SWAP1 \t\t\t\n      POP \t\t\t\n      SWAP3 \t\t\t\n      SWAP2 \t\t\t\n      POP \t\t\t\n      POP \t\t\t\n      JUMP \t\t\t\n    tag 228\t\t\t\n      JUMPDEST \t\t\t\n      PUSH 0\t\t\t\n      DUP3 \t\t\t\n      DUP3 \t\t\t\n      MSTORE \t\t\t\n      PUSH 20\t\t\t\n      DUP3 \t\t\t\n      ADD \t\t\t\n      SWAP1 \t\t\t\n      POP \t\t\t\n      SWAP3 \t\t\t\n      SWAP2 \t\t\t\n      POP \t\t\t\n      POP \t\t\t\n      JUMP \t\t\t\n    tag 229\t\t\t\n      JUMPDEST \t\t\t\n      PUSH 0\t\t\t\n      PUSH [tag] 408\t\t\t\n      DUP3 \t\t\t\n      PUSH [tag] 205\t\t\t\n      JUMP \t\t\t\n    tag 408\t\t\t\n      JUMPDEST \t\t\t\n      PUSH [tag] 409\t\t\t\n      DUP2 \t\t\t\n      DUP6 \t\t\t\n      PUSH [tag] 228\t\t\t\n      JUMP \t\t\t\n    tag 409\t\t\t\n      JUMPDEST \t\t\t\n      SWAP4 \t\t\t\n      POP \t\t\t\n      PUSH [tag] 410\t\t\t\n      DUP2 \t\t\t\n      DUP6 \t\t\t\n      PUSH 20\t\t\t\n      DUP7 \t\t\t\n      ADD \t\t\t\n      PUSH [tag] 207\t\t\t\n      JUMP \t\t\t\n    tag 410\t\t\t\n      JUMPDEST \t\t\t\n      PUSH [tag] 411\t\t\t\n      DUP2 \t\t\t\n      PUSH [tag] 190\t\t\t\n      JUMP \t\t\t\n    tag 411\t\t\t\n      JUMPDEST \t\t\t\n      DUP5 \t\t\t\n      ADD \t\t\t\n      SWAP2 \t\t\t\n      POP \t\t\t\n      POP \t\t\t\n      SWAP3 \t\t\t\n      SWAP2 \t\t\t\n      POP \t\t\t\n      POP \t\t\t\n      JUMP \t\t\t\n    tag 58\t\t\t\n      JUMPDEST \t\t\t\n      PUSH 0\t\t\t\n      PUSH 60\t\t\t\n      DUP3 \t\t\t\n      ADD \t\t\t\n      SWAP1 \t\t\t\n      POP \t\t\t\n      DUP2 \t\t\t\n      DUP2 \t\t\t\n      SUB \t\t\t\n      PUSH 0\t\t\t\n      DUP4 \t\t\t\n      ADD \t\t\t\n      MSTORE \t\t\t\n      PUSH [tag] 413\t\t\t\n      DUP2 \t\t\t\n      DUP7 \t\t\t\n      PUSH [tag] 229\t\t\t\n      JUMP \t\t\t\n    tag 413\t\t\t\n      JUMPDEST \t\t\t\n      SWAP1 \t\t\t\n      POP \t\t\t\n      DUP2 \t\t\t\n      DUP2 \t\t\t\n      SUB \t\t\t\n      PUSH 20\t\t\t\n      DUP4 \t\t\t\n      ADD \t\t\t\n      MSTORE \t\t\t\n      PUSH [tag] 414\t\t\t\n      DUP2 \t\t\t\n      DUP6 \t\t\t\n      PUSH [tag] 229\t\t\t\n      JUMP \t\t\t\n    tag 414\t\t\t\n      JUMPDEST \t\t\t\n      SWAP1 \t\t\t\n      POP \t\t\t\n      DUP2 \t\t\t\n      DUP2 \t\t\t\n      SUB \t\t\t\n      PUSH 40\t\t\t\n      DUP4 \t\t\t\n      ADD \t\t\t\n      MSTORE \t\t\t\n      PUSH [tag] 415\t\t\t\n      DUP2 \t\t\t\n      DUP5 \t\t\t\n      PUSH [tag] 229\t\t\t\n      JUMP \t\t\t\n    tag 415\t\t\t\n      JUMPDEST \t\t\t\n      SWAP1 \t\t\t\n      POP \t\t\t\n      SWAP5 \t\t\t\n      SWAP4 \t\t\t\n      POP \t\t\t\n      POP \t\t\t\n      POP \t\t\t\n      POP \t\t\t\n      JUMP \t\t\t\n    tag 230\t\t\t\n      JUMPDEST \t\t\t\n      PUSH [tag] 417\t\t\t\n      DUP2 \t\t\t\n      PUSH [tag] 203\t\t\t\n      JUMP \t\t\t\n    tag 417\t\t\t\n      JUMPDEST \t\t\t\n      DUP3 \t\t\t\n      MSTORE \t\t\t\n      POP \t\t\t\n      POP \t\t\t\n      JUMP \t\t\t\n    tag 61\t\t\t\n      JUMPDEST \t\t\t\n      PUSH 0\t\t\t\n      PUSH 20\t\t\t\n      DUP3 \t\t\t\n      ADD \t\t\t\n      SWAP1 \t\t\t\n      POP \t\t\t\n      PUSH [tag] 419\t\t\t\n      PUSH 0\t\t\t\n      DUP4 \t\t\t\n      ADD \t\t\t\n      DUP5 \t\t\t\n      PUSH [tag] 230\t\t\t\n      JUMP \t\t\t\n    tag 419\t\t\t\n      JUMPDEST \t\t\t\n      SWAP3 \t\t\t\n      SWAP2 \t\t\t\n      POP \t\t\t\n      POP \t\t\t\n      JUMP \t\t\t\n    tag 231\t\t\t\n      JUMPDEST \t\t\t\n      PUSH 4E487B7100000000000000000000000000000000000000000000000000000000\t\t\t\n      PUSH 0\t\t\t\n      MSTORE \t\t\t\n      PUSH 22\t\t\t\n      PUSH 4\t\t\t\n      MSTORE \t\t\t\n      PUSH 24\t\t\t\n      PUSH 0\t\t\t\n      REVERT \t\t\t\n    tag 88\t\t\t\n      JUMPDEST \t\t\t\n      PUSH 0\t\t\t\n      PUSH 2\t\t\t\n      DUP3 \t\t\t\n      DIV \t\t\t\n      SWAP1 \t\t\t\n      POP \t\t\t\n      PUSH 1\t\t\t\n      DUP3 \t\t\t\n      AND \t\t\t\n      DUP1 \t\t\t\n      PUSH [tag] 422\t\t\t\n      JUMPI \t\t\t\n      PUSH 7F\t\t\t\n      DUP3 \t\t\t\n      AND \t\t\t\n      SWAP2 \t\t\t\n      POP \t\t\t\n    tag 422\t\t\t\n      JUMPDEST \t\t\t\n      PUSH 20\t\t\t\n      DUP3 \t\t\t\n      LT \t\t\t\n      DUP2 \t\t\t\n      SUB \t\t\t\n      PUSH [tag] 423\t\t\t\n      JUMPI \t\t\t\n      PUSH [tag] 424\t\t\t\n      PUSH [tag] 231\t\t\t\n      JUMP \t\t\t\n    tag 424\t\t\t\n      JUMPDEST \t\t\t\n    tag 423\t\t\t\n      JUMPDEST \t\t\t\n      POP \t\t\t\n      SWAP2 \t\t\t\n      SWAP1 \t\t\t\n      POP \t\t\t\n      JUMP \t\t\t\n    tag 232\t\t\t\n      JUMPDEST \t\t\t\n      PUSH 0\t\t\t\n      DUP2 \t\t\t\n      SWAP1 \t\t\t\n      POP \t\t\t\n      DUP2 \t\t\t\n      PUSH 0\t\t\t\n      MSTORE \t\t\t\n      PUSH 20\t\t\t\n      PUSH 0\t\t\t\n      KECCAK256 \t\t\t\n      SWAP1 \t\t\t\n      POP \t\t\t\n      SWAP2 \t\t\t\n      SWAP1 \t\t\t\n      POP \t\t\t\n      JUMP \t\t\t\n    tag 233\t\t\t\n      JUMPDEST \t\t\t\n      PUSH 0\t\t\t\n      PUSH 20\t\t\t\n      PUSH 1F\t\t\t\n      DUP4 \t\t\t\n      ADD \t\t\t\n      DIV \t\t\t\n      SWAP1 \t\t\t\n      POP \t\t\t\n      SWAP2 \t\t\t\n      SWAP1 \t\t\t\n      POP \t\t\t\n      JUMP \t\t\t\n    tag 234\t\t\t\n      JUMPDEST \t\t\t\n      PUSH 0\t\t\t\n      DUP3 \t\t\t\n      DUP3 \t\t\t\n      SHL \t\t\t\n      SWAP1 \t\t\t\n      POP \t\t\t\n      SWAP3 \t\t\t\n      SWAP2 \t\t\t\n      POP \t\t\t\n      POP \t\t\t\n      JUMP \t\t\t\n    tag 235\t\t\t\n      JUMPDEST \t\t\t\n      PUSH 0\t\t\t\n      PUSH 8\t\t\t\n      DUP4 \t\t\t\n      MUL \t\t\t\n      PUSH [tag] 429\t\t\t\n      PUSH FFFFFFFFFFFFFFFFFFFFFFFFFFFFFFFFFFFFFFFFFFFFFFFFFFFFFFFFFFFFFFFF\t\t\t\n      DUP3 \t\t\t\n      PUSH [tag] 234\t\t\t\n      JUMP \t\t\t\n    tag 429\t\t\t\n      JUMPDEST \t\t\t\n      PUSH [tag] 430\t\t\t\n      DUP7 \t\t\t\n      DUP4 \t\t\t\n      PUSH [tag] 234\t\t\t\n      JUMP \t\t\t\n    tag 430\t\t\t\n      JUMPDEST \t\t\t\n      SWAP6 \t\t\t\n      POP \t\t\t\n      DUP1 \t\t\t\n      NOT \t\t\t\n      DUP5 \t\t\t\n      AND \t\t\t\n      SWAP4 \t\t\t\n      POP \t\t\t\n      DUP1 \t\t\t\n      DUP7 \t\t\t\n      AND \t\t\t\n      DUP5 \t\t\t\n      OR \t\t\t\n      SWAP3 \t\t\t\n      POP \t\t\t\n      POP \t\t\t\n      POP \t\t\t\n      SWAP4 \t\t\t\n      SWAP3 \t\t\t\n      POP \t\t\t\n      POP \t\t\t\n      POP \t\t\t\n      JUMP \t\t\t\n    tag 236\t\t\t\n      JUMPDEST \t\t\t\n      PUSH 0\t\t\t\n      DUP2 \t\t\t\n      SWAP1 \t\t\t\n      POP \t\t\t\n      SWAP2 \t\t\t\n      SWAP1 \t\t\t\n      POP \t\t\t\n      JUMP \t\t\t\n    tag 237\t\t\t\n      JUMPDEST \t\t\t\n      PUSH 0\t\t\t\n      PUSH [tag] 433\t\t\t\n      PUSH [tag] 434\t\t\t\n      PUSH [tag] 435\t\t\t\n      DUP5 \t\t\t\n      PUSH [tag] 197\t\t\t\n      JUMP \t\t\t\n    tag 435\t\t\t\n      JUMPDEST \t\t\t\n      PUSH [tag] 236\t\t\t\n      JUMP \t\t\t\n    tag 434\t\t\t\n      JUMPDEST \t\t\t\n      PUSH [tag] 197\t\t\t\n      JUMP \t\t\t\n    tag 433\t\t\t\n      JUMPDEST \t\t\t\n      SWAP1 \t\t\t\n      POP \t\t\t\n      SWAP2 \t\t\t\n      SWAP1 \t\t\t\n      POP \t\t\t\n      JUMP \t\t\t\n    tag 238\t\t\t\n      JUMPDEST \t\t\t\n      PUSH 0\t\t\t\n      DUP2 \t\t\t\n      SWAP1 \t\t\t\n      POP \t\t\t\n      SWAP2 \t\t\t\n      SWAP1 \t\t\t\n      POP \t\t\t\n      JUMP \t\t\t\n    tag 239\t\t\t\n      JUMPDEST \t\t\t\n      PUSH [tag] 438\t\t\t\n      DUP4 \t\t\t\n      PUSH [tag] 237\t\t\t\n      JUMP \t\t\t\n    tag 438\t\t\t\n      JUMPDEST \t\t\t\n      PUSH [tag] 439\t\t\t\n      PUSH [tag] 440\t\t\t\n      DUP3 \t\t\t\n      PUSH [tag] 238\t\t\t\n      JUMP \t\t\t\n    tag 440\t\t\t\n      JUMPDEST \t\t\t\n      DUP5 \t\t\t\n      DUP5 \t\t\t\n      SLOAD \t\t\t\n      PUSH [tag] 235\t\t\t\n      JUMP \t\t\t\n    tag 439\t\t\t\n      JUMPDEST \t\t\t\n      DUP3 \t\t\t\n      SSTORE \t\t\t\n      POP \t\t\t\n      POP \t\t\t\n      POP \t\t\t\n      POP \t\t\t\n      JUMP \t\t\t\n    tag 240\t\t\t\n      JUMPDEST \t\t\t\n      PUSH 0\t\t\t\n      SWAP1 \t\t\t\n      JUMP \t\t\t\n    tag 241\t\t\t\n      JUMPDEST \t\t\t\n      PUSH [tag] 443\t\t\t\n      PUSH [tag] 240\t\t\t\n      JUMP \t\t\t\n    tag 443\t\t\t\n      JUMPDEST \t\t\t\n      PUSH [tag] 444\t\t\t\n      DUP2 \t\t\t\n      DUP5 \t\t\t\n      DUP5 \t\t\t\n      PUSH [tag] 239\t\t\t\n      JUMP \t\t\t\n    tag 444\t\t\t\n      JUMPDEST \t\t\t\n      POP \t\t\t\n      POP \t\t\t\n      POP \t\t\t\n      JUMP \t\t\t\n    tag 242\t\t\t\n      JUMPDEST \t\t\t\n    tag 446\t\t\t\n      JUMPDEST \t\t\t\n      DUP2 \t\t\t\n      DUP2 \t\t\t\n      LT \t\t\t\n      ISZERO \t\t\t\n      PUSH [tag] 448\t\t\t\n      JUMPI \t\t\t\n      PUSH [tag] 449\t\t\t\n      PUSH 0\t\t\t\n      DUP3 \t\t\t\n      PUSH [tag] 241\t\t\t\n      JUMP \t\t\t\n    tag 449\t\t\t\n      JUMPDEST \t\t\t\n      PUSH 1\t\t\t\n      DUP2 \t\t\t\n      ADD \t\t\t\n      SWAP1 \t\t\t\n      POP \t\t\t\n      PUSH [tag] 446\t\t\t\n      JUMP \t\t\t\n    tag 448\t\t\t\n      JUMPDEST \t\t\t\n      POP \t\t\t\n      POP \t\t\t\n      JUMP \t\t\t\n    tag 243\t\t\t\n      JUMPDEST \t\t\t\n      PUSH 1F\t\t\t\n      DUP3 \t\t\t\n      GT \t\t\t\n      ISZERO \t\t\t\n      PUSH [tag] 451\t\t\t\n      JUMPI \t\t\t\n      PUSH [tag] 452\t\t\t\n      DUP2 \t\t\t\n      PUSH [tag] 232\t\t\t\n      JUMP \t\t\t\n    tag 452\t\t\t\n      JUMPDEST \t\t\t\n      PUSH [tag] 453\t\t\t\n      DUP5 \t\t\t\n      PUSH [tag] 233\t\t\t\n      JUMP \t\t\t\n    tag 453\t\t\t\n      JUMPDEST \t\t\t\n      DUP2 \t\t\t\n      ADD \t\t\t\n      PUSH 20\t\t\t\n      DUP6 \t\t\t\n      LT \t\t\t\n      ISZERO \t\t\t\n      PUSH [tag] 454\t\t\t\n      JUMPI \t\t\t\n      DUP2 \t\t\t\n      SWAP1 \t\t\t\n      POP \t\t\t\n    tag 454\t\t\t\n      JUMPDEST \t\t\t\n      PUSH [tag] 455\t\t\t\n      PUSH [tag] 456\t\t\t\n      DUP6 \t\t\t\n      PUSH [tag] 233\t\t\t\n      JUMP \t\t\t\n    tag 456\t\t\t\n      JUMPDEST \t\t\t\n      DUP4 \t\t\t\n      ADD \t\t\t\n      DUP3 \t\t\t\n      PUSH [tag] 242\t\t\t\n      JUMP \t\t\t\n    tag 455\t\t\t\n      JUMPDEST \t\t\t\n      POP \t\t\t\n      POP \t\t\t\n    tag 451\t\t\t\n      JUMPDEST \t\t\t\n      POP \t\t\t\n      POP \t\t\t\n      POP \t\t\t\n      JUMP \t\t\t\n    tag 244\t\t\t\n      JUMPDEST \t\t\t\n      PUSH 0\t\t\t\n      DUP3 \t\t\t\n      DUP3 \t\t\t\n      SHR \t\t\t\n      SWAP1 \t\t\t\n      POP \t\t\t\n      SWAP3 \t\t\t\n      SWAP2 \t\t\t\n      POP \t\t\t\n      POP \t\t\t\n      JUMP \t\t\t\n    tag 245\t\t\t\n      JUMPDEST \t\t\t\n      PUSH 0\t\t\t\n      PUSH [tag] 459\t\t\t\n      PUSH 0\t\t\t\n      NOT \t\t\t\n      DUP5 \t\t\t\n      PUSH 8\t\t\t\n      MUL \t\t\t\n      PUSH [tag] 244\t\t\t\n      JUMP \t\t\t\n    tag 459\t\t\t\n      JUMPDEST \t\t\t\n      NOT \t\t\t\n      DUP1 \t\t\t\n      DUP4 \t\t\t\n      AND \t\t\t\n      SWAP2 \t\t\t\n      POP \t\t\t\n      POP \t\t\t\n      SWAP3 \t\t\t\n      SWAP2 \t\t\t\n      POP \t\t\t\n      POP \t\t\t\n      JUMP \t\t\t\n    tag 246\t\t\t\n      JUMPDEST \t\t\t\n      PUSH 0\t\t\t\n      PUSH [tag] 461\t\t\t\n      DUP4 \t\t\t\n      DUP4 \t\t\t\n      PUSH [tag] 245\t\t\t\n      JUMP \t\t\t\n    tag 461\t\t\t\n      JUMPDEST \t\t\t\n      SWAP2 \t\t\t\n      POP \t\t\t\n      DUP3 \t\t\t\n      PUSH 2\t\t\t\n      MUL \t\t\t\n      DUP3 \t\t\t\n      OR \t\t\t\n      SWAP1 \t\t\t\n      POP \t\t\t\n      SWAP3 \t\t\t\n      SWAP2 \t\t\t\n      POP \t\t\t\n      POP \t\t\t\n      JUMP \t\t\t\n    tag 67\t\t\t\n      JUMPDEST \t\t\t\n      PUSH [tag] 463\t\t\t\n      DUP3 \t\t\t\n      PUSH [tag] 205\t\t\t\n      JUMP \t\t\t\n    tag 463\t\t\t\n      JUMPDEST \t\t\t\n      PUSH FFFFFFFFFFFFFFFF\t\t\t\n      DUP2 \t\t\t\n      GT \t\t\t\n      ISZERO \t\t\t\n      PUSH [tag] 464\t\t\t\n      JUMPI \t\t\t\n      PUSH [tag] 465\t\t\t\n      PUSH [tag] 111\t\t\t\n      JUMP \t\t\t\n    tag 465\t\t\t\n      JUMPDEST \t\t\t\n    tag 464\t\t\t\n      JUMPDEST \t\t\t\n      PUSH [tag] 466\t\t\t\n      DUP3 \t\t\t\n      SLOAD \t\t\t\n      PUSH [tag] 88\t\t\t\n      JUMP \t\t\t\n    tag 466\t\t\t\n      JUMPDEST \t\t\t\n      PUSH [tag] 467\t\t\t\n      DUP3 \t\t\t\n      DUP3 \t\t\t\n      DUP6 \t\t\t\n      PUSH [tag] 243\t\t\t\n      JUMP \t\t\t\n    tag 467\t\t\t\n      JUMPDEST \t\t\t\n      PUSH 0\t\t\t\n      PUSH 20\t\t\t\n      SWAP1 \t\t\t\n      POP \t\t\t\n      PUSH 1F\t\t\t\n      DUP4 \t\t\t\n      GT \t\t\t\n      PUSH 1\t\t\t\n      DUP2 \t\t\t\n      EQ \t\t\t\n      PUSH [tag] 469\t\t\t\n      JUMPI \t\t\t\n      PUSH 0\t\t\t\n      DUP5 \t\t\t\n      ISZERO \t\t\t\n      PUSH [tag] 470\t\t\t\n      JUMPI \t\t\t\n      DUP3 \t\t\t\n      DUP8 \t\t\t\n      ADD \t\t\t\n      MLOAD \t\t\t\n      SWAP1 \t\t\t\n      POP \t\t\t\n    tag 470\t\t\t\n      JUMPDEST \t\t\t\n      PUSH [tag] 471\t\t\t\n      DUP6 \t\t\t\n      DUP3 \t\t\t\n      PUSH [tag] 246\t\t\t\n      JUMP \t\t\t\n    tag 471\t\t\t\n      JUMPDEST \t\t\t\n      DUP7 \t\t\t\n      SSTORE \t\t\t\n      POP \t\t\t\n      PUSH [tag] 468\t\t\t\n      JUMP \t\t\t\n    tag 469\t\t\t\n      JUMPDEST \t\t\t\n      PUSH 1F\t\t\t\n      NOT \t\t\t\n      DUP5 \t\t\t\n      AND \t\t\t\n      PUSH [tag] 472\t\t\t\n      DUP7 \t\t\t\n      PUSH [tag] 232\t\t\t\n      JUMP \t\t\t\n    tag 472\t\t\t\n      JUMPDEST \t\t\t\n      PUSH 0\t\t\t\n    tag 473\t\t\t\n      JUMPDEST \t\t\t\n      DUP3 \t\t\t\n      DUP2 \t\t\t\n      LT \t\t\t\n      ISZERO \t\t\t\n      PUSH [tag] 475\t\t\t\n      JUMPI \t\t\t\n      DUP5 \t\t\t\n      DUP10 \t\t\t\n      ADD \t\t\t\n      MLOAD \t\t\t\n      DUP3 \t\t\t\n      SSTORE \t\t\t\n      PUSH 1\t\t\t\n      DUP3 \t\t\t\n      ADD \t\t\t\n      SWAP2 \t\t\t\n      POP \t\t\t\n      PUSH 20\t\t\t\n      DUP6 \t\t\t\n      ADD \t\t\t\n      SWAP5 \t\t\t\n      POP \t\t\t\n      PUSH 20\t\t\t\n      DUP2 \t\t\t\n      ADD \t\t\t\n      SWAP1 \t\t\t\n      POP \t\t\t\n      PUSH [tag] 473\t\t\t\n      JUMP \t\t\t\n    tag 475\t\t\t\n      JUMPDEST \t\t\t\n      DUP7 \t\t\t\n      DUP4 \t\t\t\n      LT \t\t\t\n      ISZERO \t\t\t\n      PUSH [tag] 476\t\t\t\n      JUMPI \t\t\t\n      DUP5 \t\t\t\n      DUP10 \t\t\t\n      ADD \t\t\t\n      MLOAD \t\t\t\n      PUSH [tag] 477\t\t\t\n      PUSH 1F\t\t\t\n      DUP10 \t\t\t\n      AND \t\t\t\n      DUP3 \t\t\t\n      PUSH [tag] 245\t\t\t\n      JUMP \t\t\t\n    tag 477\t\t\t\n      JUMPDEST \t\t\t\n      DUP4 \t\t\t\n      SSTORE \t\t\t\n      POP \t\t\t\n    tag 476\t\t\t\n      JUMPDEST \t\t\t\n      PUSH 1\t\t\t\n      PUSH 2\t\t\t\n      DUP9 \t\t\t\n      MUL \t\t\t\n      ADD \t\t\t\n      DUP9 \t\t\t\n      SSTORE \t\t\t\n      POP \t\t\t\n      POP \t\t\t\n      POP \t\t\t\n    tag 468\t\t\t\n      JUMPDEST \t\t\t\n      POP \t\t\t\n      POP \t\t\t\n      POP \t\t\t\n      POP \t\t\t\n      POP \t\t\t\n      POP \t\t\t\n      JUMP \t\t\t\n    tag 247\t\t\t\n      JUMPDEST \t\t\t\n      PUSH 4E487B7100000000000000000000000000000000000000000000000000000000\t\t\t\n      PUSH 0\t\t\t\n      MSTORE \t\t\t\n      PUSH 11\t\t\t\n      PUSH 4\t\t\t\n      MSTORE \t\t\t\n      PUSH 24\t\t\t\n      PUSH 0\t\t\t\n      REVERT \t\t\t\n    tag 74\t\t\t\n      JUMPDEST \t\t\t\n      PUSH 0\t\t\t\n      PUSH [tag] 480\t\t\t\n      DUP3 \t\t\t\n      PUSH [tag] 197\t\t\t\n      JUMP \t\t\t\n    tag 480\t\t\t\n      JUMPDEST \t\t\t\n      SWAP2 \t\t\t\n      POP \t\t\t\n      PUSH [tag] 481\t\t\t\n      DUP4 \t\t\t\n      PUSH [tag] 197\t\t\t\n      JUMP \t\t\t\n    tag 481\t\t\t\n      JUMPDEST \t\t\t\n      SWAP3 \t\t\t\n      POP \t\t\t\n      DUP3 \t\t\t\n      DUP3 \t\t\t\n      SUB \t\t\t\n      SWAP1 \t\t\t\n      POP \t\t\t\n      DUP2 \t\t\t\n      DUP2 \t\t\t\n      GT \t\t\t\n      ISZERO \t\t\t\n      PUSH [tag] 482\t\t\t\n      JUMPI \t\t\t\n      PUSH [tag] 483\t\t\t\n      PUSH [tag] 247\t\t\t\n      JUMP \t\t\t\n    tag 483\t\t\t\n      JUMPDEST \t\t\t\n    tag 482\t\t\t\n      JUMPDEST \t\t\t\n      SWAP3 \t\t\t\n      SWAP2 \t\t\t\n      POP \t\t\t\n      POP \t\t\t\n      JUMP \t\t\t\n    tag 248\t\t\t\n      JUMPDEST \t\t\t\n      PUSH 0\t\t\t\n      DUP2 \t\t\t\n      MLOAD \t\t\t\n      SWAP1 \t\t\t\n      POP \t\t\t\n      PUSH [tag] 485\t\t\t\n      DUP2 \t\t\t\n      PUSH [tag] 198\t\t\t\n      JUMP \t\t\t\n    tag 485\t\t\t\n      JUMPDEST \t\t\t\n      SWAP3 \t\t\t\n      SWAP2 \t\t\t\n      POP \t\t\t\n      POP \t\t\t\n      JUMP \t\t\t\n    tag 82\t\t\t\n      JUMPDEST \t\t\t\n      PUSH 0\t\t\t\n      PUSH 20\t\t\t\n      DUP3 \t\t\t\n      DUP5 \t\t\t\n      SUB \t\t\t\n      SLT \t\t\t\n      ISZERO \t\t\t\n      PUSH [tag] 487\t\t\t\n      JUMPI \t\t\t\n      PUSH [tag] 488\t\t\t\n      PUSH [tag] 186\t\t\t\n      JUMP \t\t\t\n    tag 488\t\t\t\n      JUMPDEST \t\t\t\n    tag 487\t\t\t\n      JUMPDEST \t\t\t\n      PUSH 0\t\t\t\n      PUSH [tag] 489\t\t\t\n      DUP5 \t\t\t\n      DUP3 \t\t\t\n      DUP6 \t\t\t\n      ADD \t\t\t\n      PUSH [tag] 248\t\t\t\n      JUMP \t\t\t\n    tag 489\t\t\t\n      JUMPDEST \t\t\t\n      SWAP2 \t\t\t\n      POP \t\t\t\n      POP \t\t\t\n      SWAP3 \t\t\t\n      SWAP2 \t\t\t\n      POP \t\t\t\n      POP \t\t\t\n      JUMP \t\t\t\n    tag 120\t\t\t\n      JUMPDEST \t\t\t\n      PUSH 4E487B7100000000000000000000000000000000000000000000000000000000\t\t\t\n      PUSH 0\t\t\t\n      MSTORE \t\t\t\n      PUSH 32\t\t\t\n      PUSH 4\t\t\t\n      MSTORE \t\t\t\n      PUSH 24\t\t\t\n      PUSH 0\t\t\t\n      REVERT \t\t\t\n    tag 249\t\t\t\n      JUMPDEST \t\t\t\n      PUSH 0\t\t\t\n      DUP2 \t\t\t\n      SLOAD \t\t\t\n      PUSH [tag] 492\t\t\t\n      DUP2 \t\t\t\n      PUSH [tag] 88\t\t\t\n      JUMP \t\t\t\n    tag 492\t\t\t\n      JUMPDEST \t\t\t\n      PUSH [tag] 493\t\t\t\n      DUP2 \t\t\t\n      DUP7 \t\t\t\n      PUSH [tag] 226\t\t\t\n      JUMP \t\t\t\n    tag 493\t\t\t\n      JUMPDEST \t\t\t\n      SWAP5 \t\t\t\n      POP \t\t\t\n      PUSH 1\t\t\t\n      DUP3 \t\t\t\n      AND \t\t\t\n      PUSH 0\t\t\t\n      DUP2 \t\t\t\n      EQ \t\t\t\n      PUSH [tag] 495\t\t\t\n      JUMPI \t\t\t\n      PUSH 1\t\t\t\n      DUP2 \t\t\t\n      EQ \t\t\t\n      PUSH [tag] 496\t\t\t\n      JUMPI \t\t\t\n      PUSH [tag] 494\t\t\t\n      JUMP \t\t\t\n    tag 495\t\t\t\n      JUMPDEST \t\t\t\n      PUSH FF\t\t\t\n      NOT \t\t\t\n      DUP4 \t\t\t\n      AND \t\t\t\n      DUP7 \t\t\t\n      MSTORE \t\t\t\n      DUP2 \t\t\t\n      ISZERO \t\t\t\n      ISZERO \t\t\t\n      DUP3 \t\t\t\n      MUL \t\t\t\n      DUP7 \t\t\t\n      ADD \t\t\t\n      SWAP4 \t\t\t\n      POP \t\t\t\n      PUSH [tag] 494\t\t\t\n      JUMP \t\t\t\n    tag 496\t\t\t\n      JUMPDEST \t\t\t\n      PUSH [tag] 497\t\t\t\n      DUP6 \t\t\t\n      PUSH [tag] 232\t\t\t\n      JUMP \t\t\t\n    tag 497\t\t\t\n      JUMPDEST \t\t\t\n      PUSH 0\t\t\t\n    tag 498\t\t\t\n      JUMPDEST \t\t\t\n      DUP4 \t\t\t\n      DUP2 \t\t\t\n      LT \t\t\t\n      ISZERO \t\t\t\n      PUSH [tag] 500\t\t\t\n      JUMPI \t\t\t\n      DUP2 \t\t\t\n      SLOAD \t\t\t\n      DUP2 \t\t\t\n      DUP10 \t\t\t\n      ADD \t\t\t\n      MSTORE \t\t\t\n      PUSH 1\t\t\t\n      DUP3 \t\t\t\n      ADD \t\t\t\n      SWAP2 \t\t\t\n      POP \t\t\t\n      PUSH 20\t\t\t\n      DUP2 \t\t\t\n      ADD \t\t\t\n      SWAP1 \t\t\t\n      POP \t\t\t\n      PUSH [tag] 498\t\t\t\n      JUMP \t\t\t\n    tag 500\t\t\t\n      JUMPDEST \t\t\t\n      DUP4 \t\t\t\n      DUP9 \t\t\t\n      ADD \t\t\t\n      SWAP6 \t\t\t\n      POP \t\t\t\n      POP \t\t\t\n      POP \t\t\t\n    tag 494\t\t\t\n      JUMPDEST \t\t\t\n      POP \t\t\t\n      POP \t\t\t\n      POP \t\t\t\n      SWAP3 \t\t\t\n      SWAP2 \t\t\t\n      POP \t\t\t\n      POP \t\t\t\n      JUMP \t\t\t\n    tag 123\t\t\t\n      JUMPDEST \t\t\t\n      PUSH 0\t\t\t\n      PUSH [tag] 502\t\t\t\n      DUP3 \t\t\t\n      DUP5 \t\t\t\n      PUSH [tag] 249\t\t\t\n      JUMP \t\t\t\n    tag 502\t\t\t\n      JUMPDEST \t\t\t\n      SWAP2 \t\t\t\n      POP \t\t\t\n      DUP2 \t\t\t\n      SWAP1 \t\t\t\n      POP \t\t\t\n      SWAP3 \t\t\t\n      SWAP2 \t\t\t\n      POP \t\t\t\n      POP \t\t\t\n      JUMP \t\t\t\n    tag 162\t\t\t\n      JUMPDEST \t\t\t\n      PUSH 0\t\t\t\n      PUSH [tag] 504\t\t\t\n      DUP3 \t\t\t\n      PUSH [tag] 197\t\t\t\n      JUMP \t\t\t\n    tag 504\t\t\t\n      JUMPDEST \t\t\t\n      SWAP2 \t\t\t\n      POP \t\t\t\n      PUSH [tag] 505\t\t\t\n      DUP4 \t\t\t\n      PUSH [tag] 197\t\t\t\n      JUMP \t\t\t\n    tag 505\t\t\t\n      JUMPDEST \t\t\t\n      SWAP3 \t\t\t\n      POP \t\t\t\n      DUP3 \t\t\t\n      DUP3 \t\t\t\n      ADD \t\t\t\n      SWAP1 \t\t\t\n      POP \t\t\t\n      DUP1 \t\t\t\n      DUP3 \t\t\t\n      GT \t\t\t\n      ISZERO \t\t\t\n      PUSH [tag] 506\t\t\t\n      JUMPI \t\t\t\n      PUSH [tag] 507\t\t\t\n      PUSH [tag] 247\t\t\t\n      JUMP \t\t\t\n    tag 507\t\t\t\n      JUMPDEST \t\t\t\n    tag 506\t\t\t\n      JUMPDEST \t\t\t\n      SWAP3 \t\t\t\n      SWAP2 \t\t\t\n      POP \t\t\t\n      POP \t\t\t\n      JUMP \t\t\t\n    tag 250\t\t\t\n      JUMPDEST \t\t\t\n      PUSH 0\t\t\t\n      DUP2 \t\t\t\n      MLOAD \t\t\t\n      SWAP1 \t\t\t\n      POP \t\t\t\n      SWAP2 \t\t\t\n      SWAP1 \t\t\t\n      POP \t\t\t\n      JUMP \t\t\t\n    tag 251\t\t\t\n      JUMPDEST \t\t\t\n      PUSH 0\t\t\t\n      DUP2 \t\t\t\n      SWAP1 \t\t\t\n      POP \t\t\t\n      SWAP3 \t\t\t\n      SWAP2 \t\t\t\n      POP \t\t\t\n      POP \t\t\t\n      JUMP \t\t\t\n    tag 252\t\t\t\n      JUMPDEST \t\t\t\n      PUSH 0\t\t\t\n      PUSH [tag] 511\t\t\t\n      DUP3 \t\t\t\n      PUSH [tag] 250\t\t\t\n      JUMP \t\t\t\n    tag 511\t\t\t\n      JUMPDEST \t\t\t\n      PUSH [tag] 512\t\t\t\n      DUP2 \t\t\t\n      DUP6 \t\t\t\n      PUSH [tag] 251\t\t\t\n      JUMP \t\t\t\n    tag 512\t\t\t\n      JUMPDEST \t\t\t\n      SWAP4 \t\t\t\n      POP \t\t\t\n      PUSH [tag] 513\t\t\t\n      DUP2 \t\t\t\n      DUP6 \t\t\t\n      PUSH 20\t\t\t\n      DUP7 \t\t\t\n      ADD \t\t\t\n      PUSH [tag] 207\t\t\t\n      JUMP \t\t\t\n    tag 513\t\t\t\n      JUMPDEST \t\t\t\n      DUP1 \t\t\t\n      DUP5 \t\t\t\n      ADD \t\t\t\n      SWAP2 \t\t\t\n      POP \t\t\t\n      POP \t\t\t\n      SWAP3 \t\t\t\n      SWAP2 \t\t\t\n      POP \t\t\t\n      POP \t\t\t\n      JUMP \t\t\t\n    tag 253\t\t\t\n      JUMPDEST \t\t\t\n      PUSH 0\t\t\t\n      DUP2 \t\t\t\n      SWAP1 \t\t\t\n      POP \t\t\t\n      SWAP2 \t\t\t\n      SWAP1 \t\t\t\n      POP \t\t\t\n      JUMP \t\t\t\n    tag 254\t\t\t\n      JUMPDEST \t\t\t\n      PUSH [tag] 516\t\t\t\n      PUSH [tag] 517\t\t\t\n      DUP3 \t\t\t\n      PUSH [tag] 221\t\t\t\n      JUMP \t\t\t\n    tag 517\t\t\t\n      JUMPDEST \t\t\t\n      PUSH [tag] 253\t\t\t\n      JUMP \t\t\t\n    tag 516\t\t\t\n      JUMPDEST \t\t\t\n      DUP3 \t\t\t\n      MSTORE \t\t\t\n      POP \t\t\t\n      POP \t\t\t\n      JUMP \t\t\t\n    tag 184\t\t\t\n      JUMPDEST \t\t\t\n      PUSH 0\t\t\t\n      PUSH [tag] 519\t\t\t\n      DUP3 \t\t\t\n      DUP6 \t\t\t\n      PUSH [tag] 252\t\t\t\n      JUMP \t\t\t\n    tag 519\t\t\t\n      JUMPDEST \t\t\t\n      SWAP2 \t\t\t\n      POP \t\t\t\n      PUSH [tag] 520\t\t\t\n      DUP3 \t\t\t\n      DUP5 \t\t\t\n      PUSH [tag] 254\t\t\t\n      JUMP \t\t\t\n    tag 520\t\t\t\n      JUMPDEST \t\t\t\n      PUSH 20\t\t\t\n      DUP3 \t\t\t\n      ADD \t\t\t\n      SWAP2 \t\t\t\n      POP \t\t\t\n      DUP2 \t\t\t\n      SWAP1 \t\t\t\n      POP \t\t\t\n      SWAP4 \t\t\t\n      SWAP3 \t\t\t\n      POP \t\t\t\n      POP \t\t\t\n      POP \t\t\t\n      JUMP \t\t\t\n    .data\n      0:\n        .code\n          PUSH 80\t\t\tamePurchased(string indexed ci...\n          PUSH 40\t\t\tamePurchased(string indexed ci...\n          MSTORE \t\t\tamePurchased(string indexed ci...\n          CALLVALUE \t\t\tndexed creator);\\n\\n    error ...\n          DUP1 \t\t\tndexed creator);\\n\\n    error ...\n          ISZERO \t\t\tndexed creator);\\n\\n    error ...\n          PUSH [tag] 1\t\t\tndexed creator);\\n\\n    error ...\n          JUMPI \t\t\tndexed creator);\\n\\n    error ...\n          PUSH 0\t\t\tndexed creator);\\n\\n    error ...\n          DUP1 \t\t\tndexed creator);\\n\\n    error ...\n          REVERT \t\t\tndexed creator);\\n\\n    error ...\n        tag 1\t\t\tndexed creator);\\n\\n    error ...\n          JUMPDEST \t\t\tndexed creator);\\n\\n    error ...\n          POP \t\t\tndexed creator);\\n\\n    error ...\n          PUSH 40\t\t\tndexed creator);\\n\\n    error ...\n          MLOAD \t\t\tndexed creator);\\n\\n    error ...\n          PUSHSIZE \t\t\tndexed creator);\\n\\n    error ...\n          CODESIZE \t\t\tndexed creator);\\n\\n    error ...\n          SUB \t\t\tndexed creator);\\n\\n    error ...\n          DUP1 \t\t\tndexed creator);\\n\\n    error ...\n          PUSHSIZE \t\t\tndexed creator);\\n\\n    error ...\n          DUP4 \t\t\tndexed creator);\\n\\n    error ...\n          CODECOPY \t\t\tndexed creator);\\n\\n    error ...\n          DUP2 \t\t\tndexed creator);\\n\\n    error ...\n          DUP2 \t\t\tndexed creator);\\n\\n    error ...\n          ADD \t\t\tndexed creator);\\n\\n    error ...\n          PUSH 40\t\t\tndexed creator);\\n\\n    error ...\n          MSTORE \t\t\tndexed creator);\\n\\n    error ...\n          DUP2 \t\t\tndexed creator);\\n\\n    error ...\n          ADD \t\t\tndexed creator);\\n\\n    error ...\n          SWAP1 \t\t\tndexed creator);\\n\\n    error ...\n          PUSH [tag] 2\t\t\tndexed creator);\\n\\n    error ...\n          SWAP2 \t\t\tndexed creator);\\n\\n    error ...\n          SWAP1 \t\t\tndexed creator);\\n\\n    error ...\n          PUSH [tag] 3\t\t\tndexed creator);\\n\\n    error ...\n          JUMP \t\t\tndexed creator);\\n\\n    error ...\n        tag 2\t\t\tndexed creator);\\n\\n    error ...\n          JUMPDEST \t\t\tndexed creator);\\n\\n    error ...\n          CALLER \t\t\tdress crea\n          DUP4 \t\t\truct\n          DUP4 \t\t\tame {\\n\n          DUP2 \t\t\tAlrea\n          PUSH 0\t\t\tert G\n          SWAP1 \t\t\tert GameAlrea\n          DUP2 \t\t\tert GameAlrea\n          PUSH [tag] 8\t\t\tert GameAlrea\n          SWAP2 \t\t\tert GameAlrea\n          SWAP1 \t\t\tert GameAlrea\n          PUSH [tag] 9\t\t\tert GameAlrea\n          JUMP \t\t\tert GameAlrea\n        tag 8\t\t\tert GameAlrea\n          JUMPDEST \t\t\tert GameAlrea\n          POP \t\t\tert GameAlrea\n          DUP1 \t\t\t   }\\n\\n \n          PUSH 1\t\t\td();\\n  \n          SWAP1 \t\t\td();\\n        }\\n\\n \n          DUP2 \t\t\td();\\n        }\\n\\n \n          PUSH [tag] 10\t\t\td();\\n        }\\n\\n \n          SWAP2 \t\t\td();\\n        }\\n\\n \n          SWAP1 \t\t\td();\\n        }\\n\\n \n          PUSH [tag] 9\t\t\td();\\n        }\\n\\n \n          JUMP \t\t\td();\\n        }\\n\\n \n        tag 10\t\t\td();\\n        }\\n\\n \n          JUMPDEST \t\t\td();\\n        }\\n\\n \n          POP \t\t\td();\\n        }\\n\\n \n          POP \t\t\t{\\n        if (games[_cid].cre...\n          POP \t\t\t{\\n        if (games[_cid].cre...\n          PUSH 0\t\t\tm\n          PUSH FFFFFFFFFFFFFFFFFFFFFFFFFFFFFFFFFFFFFFFF\t\t\t_name,\\n        string memo\n          AND \t\t\t_name,\\n        string memo\n          DUP2 \t\t\t_name,\\n     \n          PUSH FFFFFFFFFFFFFFFFFFFFFFFFFFFFFFFFFFFFFFFF\t\t\t_name,\\n        string memo\n          AND \t\t\t_name,\\n        string memo\n          SUB \t\t\t_name,\\n        string memo\n          PUSH [tag] 12\t\t\tory _name,\\n        string mem...\n          JUMPI \t\t\tory _name,\\n        string mem...\n          PUSH 0\t\t\te\n          PUSH 40\t\t\tt256 price,\\n        string me...\n          MLOAD \t\t\tt256 price,\\n        string me...\n          PUSH 1E4FBDF700000000000000000000000000000000000000000000000000000000\t\t\tt256 price,\\n        string me...\n          DUP2 \t\t\tt256 price,\\n        string me...\n          MSTORE \t\t\tt256 price,\\n        string me...\n          PUSH 4\t\t\tt256 price,\\n        string me...\n          ADD \t\t\tt256 price,\\n        string me...\n          PUSH [tag] 13\t\t\tt256 price,\\n        string me...\n          SWAP2 \t\t\tt256 price,\\n        string me...\n          SWAP1 \t\t\tt256 price,\\n        string me...\n          PUSH [tag] 14\t\t\tt256 price,\\n        string me...\n          JUMP \t\t\tt256 price,\\n        string me...\n        tag 13\t\t\tt256 price,\\n        string me...\n          JUMPDEST \t\t\tt256 price,\\n        string me...\n          PUSH 40\t\t\tt256 price,\\n        string me...\n          MLOAD \t\t\tt256 price,\\n        string me...\n          DUP1 \t\t\tt256 price,\\n        string me...\n          SWAP2 \t\t\tt256 price,\\n        string me...\n          SUB \t\t\tt256 price,\\n        string me...\n          SWAP1 \t\t\tt256 price,\\n        string me...\n          REVERT \t\t\tt256 price,\\n        string me...\n        tag 12\t\t\tory _name,\\n        string mem...\n          JUMPDEST \t\t\tory _name,\\n        string mem...\n          PUSH [tag] 15\t\t\txternal {\\n        if (games[_...\n          DUP2 \t\t\tf (games[_ci\n          PUSH [tag] 16\t\t\txternal {\\n        \n          PUSH 20\t\t\txternal {\\n        \n          SHL \t\t\txternal {\\n        \n          PUSH 20\t\t\txternal {\\n        if (games[_...\n          SHR \t\t\txternal {\\n        if (games[_...\n          JUMP \t\t\txternal {\\n        if (games[_...\n        tag 15\t\t\txternal {\\n        if (games[_...\n          JUMPDEST \t\t\txternal {\\n        if (games[_...\n          POP \t\t\t      string memory _cid,\\n   ...\n          DUP1 \t\t\tcid;\\n   \n          PUSH 8\t\t\t stri\n          SWAP1 \t\t\t string cid;\\n   \n          DUP2 \t\t\t string cid;\\n   \n          PUSH [tag] 18\t\t\t string cid;\\n   \n          SWAP2 \t\t\t string cid;\\n   \n          SWAP1 \t\t\t string cid;\\n   \n          PUSH [tag] 9\t\t\t string cid;\\n   \n          JUMP \t\t\t string cid;\\n   \n        tag 18\t\t\t string cid;\\n   \n          JUMPDEST \t\t\t string cid;\\n   \n          POP \t\t\t string cid;\\n   \n          POP \t\t\tndexed creator);\\n\\n    error ...\n          POP \t\t\tndexed creator);\\n\\n    error ...\n          POP \t\t\tndexed creator);\\n\\n    error ...\n          PUSH [tag] 19\t\t\tamePurchased(string indexed ci...\n          JUMP \t\t\tamePurchased(string indexed ci...\n        tag 16\t\t\t          revert InvalidGame()...\n          JUMPDEST \t\t\t          revert InvalidGame()...\n          PUSH 0\t\t\tameToken(tokenAd\n          PUSH 6\t\t\tss);\\n \n          PUSH 0\t\t\tss);\\n \n          SWAP1 \t\t\tss);\\n \n          SLOAD \t\t\tss);\\n \n          SWAP1 \t\t\tss);\\n \n          PUSH 100\t\t\tss);\\n \n          EXP \t\t\tss);\\n \n          SWAP1 \t\t\tss);\\n \n          DIV \t\t\tss);\\n \n          PUSH FFFFFFFFFFFFFFFFFFFFFFFFFFFFFFFFFFFFFFFF\t\t\tss);\\n \n          AND \t\t\tss);\\n \n          SWAP1 \t\t\tameToken(tokenAddress);\\n \n          POP \t\t\tameToken(tokenAddress);\\n \n          DUP2 \t\t\token.bal\n          PUSH 6\t\t\turn ga\n          PUSH 0\t\t\turn ga\n          PUSH 100\t\t\turn gameToken.bal\n          EXP \t\t\turn gameToken.bal\n          DUP2 \t\t\turn gameToken.bal\n          SLOAD \t\t\turn gameToken.bal\n          DUP2 \t\t\turn gameToken.bal\n          PUSH FFFFFFFFFFFFFFFFFFFFFFFFFFFFFFFFFFFFFFFF\t\t\turn gameToken.bal\n          MUL \t\t\turn gameToken.bal\n          NOT \t\t\turn gameToken.bal\n          AND \t\t\turn gameToken.bal\n          SWAP1 \t\t\turn gameToken.bal\n          DUP4 \t\t\turn gameToken.bal\n          PUSH FFFFFFFFFFFFFFFFFFFFFFFFFFFFFFFFFFFFFFFF\t\t\turn gameToken.bal\n          AND \t\t\turn gameToken.bal\n          MUL \t\t\turn gameToken.bal\n          OR \t\t\turn gameToken.bal\n          SWAP1 \t\t\turn gameToken.bal\n          SSTORE \t\t\turn gameToken.bal\n          POP \t\t\turn gameToken.bal\n          DUP2 \t\t\tsGameOwn\n          PUSH FFFFFFFFFFFFFFFFFFFFFFFFFFFFFFFFFFFFFFFF\t\t\ter) >= 1;\\n    }\\n\\n    functi...\n          AND \t\t\ter) >= 1;\\n    }\\n\\n    functi...\n          DUP2 \t\t\tfunction\n          PUSH FFFFFFFFFFFFFFFFFFFFFFFFFFFFFFFFFFFFFFFF\t\t\ter) >= 1;\\n    }\\n\\n    functi...\n          AND \t\t\ter) >= 1;\\n    }\\n\\n    functi...\n          PUSH 8BE0079C531659141344CD1FD0A4F28419497F9722A3DAAFE3B4186F6B6457E0\t\t\ter) >= 1;\\n    }\\n\\n    functi...\n          PUSH 40\t\t\ter) >= 1;\\n    }\\n\\n    functi...\n          MLOAD \t\t\ter) >= 1;\\n    }\\n\\n    functi...\n          PUSH 40\t\t\ter) >= 1;\\n    }\\n\\n    functi...\n          MLOAD \t\t\ter) >= 1;\\n    }\\n\\n    functi...\n          DUP1 \t\t\ter) >= 1;\\n    }\\n\\n    functi...\n          SWAP2 \t\t\ter) >= 1;\\n    }\\n\\n    functi...\n          SUB \t\t\ter) >= 1;\\n    }\\n\\n    functi...\n          SWAP1 \t\t\ter) >= 1;\\n    }\\n\\n    functi...\n          LOG3 \t\t\ter) >= 1;\\n    }\\n\\n    functi...\n          POP \t\t\teToken = GameToken(tokenAddres...\n          POP \t\t\t          revert InvalidGame()...\n          JUMP \t\t\t          revert InvalidGame()...\n        tag 21\t\t\t-License-Identifier: MIT\\nprag...\n          JUMPDEST \t\t\t-License-Identifier: MIT\\nprag...\n          PUSH 0\t\t\tolidit\n          PUSH 40\t\t\ten\n          MLOAD \t\t\tameToken}\n          SWAP1 \t\t\t\\nimport {GameToken}\n          POP \t\t\t\\nimport {GameToken}\n          SWAP1 \t\t\t-License-Identifier: MIT\\nprag...\n          JUMP \t\t\t-License-Identifier: MIT\\nprag...\n        tag 22\t\t\teToken.sol\";\\n\\ncontract GameF...\n          JUMPDEST \t\t\teToken.sol\";\\n\\ncontract GameF...\n          PUSH 0\t\t\tg\n          DUP1 \t\t\tr\n          REVERT \t\t\t     string \n        tag 23\t\t\t\\n        address indexed game...\n          JUMPDEST \t\t\t\\n        address indexed game...\n          PUSH 0\t\t\t\\n\n          DUP1 \t\t\tr\n          REVERT \t\t\ted buyer);\\n \n        tag 24\t\t\tatorFundsWithdrawn(address ind...\n          JUMPDEST \t\t\tatorFundsWithdrawn(address ind...\n          PUSH 0\t\t\t;\n          DUP1 \t\t\td\n          REVERT \t\t\tublished();\\n\n        tag 25\t\t\tvalidGame();\\n\\n    struct Gam...\n          JUMPDEST \t\t\tvalidGame();\\n\\n    struct Gam...\n          PUSH 0\t\t\tt\n          DUP1 \t\t\t \n          REVERT \t\t\t\\n        str\n        tag 26\t\t\t      uint256 price;\\n        ...\n          JUMPDEST \t\t\t      uint256 price;\\n        ...\n          PUSH 0\t\t\tUrl;\\n \n          PUSH 1F\t\t\tpr\n          NOT \t\t\t256 pri\n          PUSH 1F\t\t\t u\n          DUP4 \t\t\ter;\\n \n          ADD \t\t\t owner;\\n    ui\n          AND \t\t\tvate owner;\\n    uint256 priv\n          SWAP1 \t\t\tddress private owner;\\n    uin...\n          POP \t\t\tddress private owner;\\n    uin...\n          SWAP2 \t\t\t      uint256 price;\\n        ...\n          SWAP1 \t\t\t      uint256 price;\\n        ...\n          POP \t\t\t      uint256 price;\\n        ...\n          JUMP \t\t\t      uint256 price;\\n        ...\n        tag 27\t\t\t\\n\\n    mapping(string => Game...\n          JUMPDEST \t\t\t\\n\\n    mapping(string => Game...\n          PUSH 4E487B7100000000000000000000000000000000000000000000000000000000\t\t\t string[] private cids;\\n\\n   ...\n          PUSH 0\t\t\t \n          MSTORE \t\t\tgames;\\n    string[] private c...\n          PUSH 41\t\t\tunct\n          PUSH 4\t\t\tr\n          MSTORE \t\t\t/ Helper functi\n          PUSH 24\t\t\t32 a\n          PUSH 0\t\t\tt\n          REVERT \t\t\tvert bytes32 ar\n        tag 28\t\t\tg\\n    function bytes32ArrayTo...\n          JUMPDEST \t\t\tg\\n    function bytes32ArrayTo...\n          PUSH [tag] 65\t\t\tpure\\n        returns (strin\n          DUP3 \t\t\tstri\n          PUSH [tag] 26\t\t\tpure\\n        returns (strin\n          JUMP \t\t\tpure\\n        returns (strin\n        tag 65\t\t\tpure\\n        returns (strin\n          JUMPDEST \t\t\tpure\\n        returns (strin\n          DUP2 \t\t\t      \n          ADD \t\t\tate\\n        pure\\n        ret...\n          DUP2 \t\t\t      \n          DUP2 \t\t\t; i++) {\\n \n          LT \t\t\tgth; i++) {\\n          \n          PUSH FFFFFFFFFFFFFFFF\t\t\t6 i = 0; i < data.\n          DUP3 \t\t\t for (uint\n          GT \t\t\t    for (uint256 i = 0; i < da...\n          OR \t\t\t       for (uint256 i = 0; i <...\n          ISZERO \t\t\t;\\n        for (uint256 i = 0;...\n          PUSH [tag] 66\t\t\t;\\n        for (uint256 i = 0;...\n          JUMPI \t\t\t;\\n        for (uint256 i = 0;...\n          PUSH [tag] 67\t\t\tteArray = abi.enco\n          PUSH [tag] 27\t\t\tteArray = abi.enco\n          JUMP \t\t\tteArray = abi.enco\n        tag 67\t\t\tteArray = abi.enco\n          JUMPDEST \t\t\tteArray = abi.enco\n        tag 66\t\t\t;\\n        for (uint256 i = 0;...\n          JUMPDEST \t\t\t;\\n        for (uint256 i = 0;...\n          DUP1 \t\t\tta[i]);\\n  \n          PUSH 40\t\t\t, \n          MSTORE \t\t\tteArray, data[i]);\\n   \n          POP \t\t\t[] memory data)\\n        priva...\n          POP \t\t\tg\\n    function bytes32ArrayTo...\n          POP \t\t\tg\\n    function bytes32ArrayTo...\n          JUMP \t\t\tg\\n    function bytes32ArrayTo...\n        tag 29\t\t\t   return string(byteArray);\\n...\n          JUMPDEST \t\t\t   return string(byteArray);\\n...\n          PUSH 0\t\t\t\\n\\n    \n          PUSH [tag] 69\t\t\t\\n        string memo\n          PUSH [tag] 21\t\t\t\\n        string memo\n          JUMP \t\t\t\\n        string memo\n        tag 69\t\t\t\\n        string memo\n          JUMPDEST \t\t\t\\n        string memo\n          SWAP1 \t\t\tblishGame(\\n        string mem...\n          POP \t\t\tblishGame(\\n        string mem...\n          PUSH [tag] 70\t\t\t        string memory _name,\\n...\n          DUP3 \t\t\t\\n   \n          DUP3 \t\t\ty _nam\n          PUSH [tag] 28\t\t\t        string memory _name,\\n...\n          JUMP \t\t\t        string memory _name,\\n...\n        tag 70\t\t\t        string memory _name,\\n...\n          JUMPDEST \t\t\t        string memory _name,\\n...\n          SWAP2 \t\t\t   return string(byteArray);\\n...\n          SWAP1 \t\t\t   return string(byteArray);\\n...\n          POP \t\t\t   return string(byteArray);\\n...\n          JUMP \t\t\t   return string(byteArray);\\n...\n        tag 30\t\t\temory _symbol,\\n        uint25...\n          JUMPDEST \t\t\temory _symbol,\\n        uint25...\n          PUSH 0\t\t\tmage\n          PUSH FFFFFFFFFFFFFFFF\t\t\trt GameAlreadyPubl\n          DUP3 \t\t\t    re\n          GT \t\t\t       revert GameAlreadyPubli\n          ISZERO \t\t\t          revert GameAlreadyPu...\n          PUSH [tag] 72\t\t\t          revert GameAlreadyPu...\n          JUMPI \t\t\t          revert GameAlreadyPu...\n          PUSH [tag] 73\t\t\td();\\n        }\\n\\n  \n          PUSH [tag] 27\t\t\td();\\n        }\\n\\n  \n          JUMP \t\t\td();\\n        }\\n\\n  \n        tag 73\t\t\td();\\n        }\\n\\n  \n          JUMPDEST \t\t\td();\\n        }\\n\\n  \n        tag 72\t\t\t          revert GameAlreadyPu...\n          JUMPDEST \t\t\t          revert GameAlreadyPu...\n          PUSH [tag] 74\t\t\tToken = new GameToken(_name, \n          DUP3 \t\t\t_name,\n          PUSH [tag] 26\t\t\tToken = new GameToken(_name, \n          JUMP \t\t\tToken = new GameToken(_name, \n        tag 74\t\t\tToken = new GameToken(_name, \n          JUMPDEST \t\t\tToken = new GameToken(_name, \n          SWAP1 \t\t\tken gameToken = new GameToken(...\n          POP \t\t\tken gameToken = new GameToken(...\n          PUSH 20\t\t\t;\\n\\n \n          DUP2 \t\t\tende\n          ADD \t\t\tsg.sender);\\n\\n  \n          SWAP1 \t\t\tn.mint(msg.sender);\\n\\n  \n          POP \t\t\tn.mint(msg.sender);\\n\\n  \n          SWAP2 \t\t\temory _symbol,\\n        uint25...\n          SWAP1 \t\t\temory _symbol,\\n        uint25...\n          POP \t\t\temory _symbol,\\n        uint25...\n          JUMP \t\t\temory _symbol,\\n        uint25...\n        tag 31\t\t\tcid] = Game(\\n            msg....\n          JUMPDEST \t\t\tcid] = Game(\\n            msg....\n          DUP3 \t\t\t      \n          DUP2 \t\t\t),\\n\n          DUP4 \t\t\tTok\n          MCOPY \t\t\ts(gameToken),\\n         \n          PUSH 0\t\t\t \n          DUP4 \t\t\tce,\\n  \n          DUP4 \t\t\t  p\n          ADD \t\t\t      price,\\n   \n          MSTORE \t\t\t\\n            price,\\n       \n          POP \t\t\tcid] = Game(\\n            msg....\n          POP \t\t\tcid] = Game(\\n            msg....\n          POP \t\t\tcid] = Game(\\n            msg....\n          JUMP \t\t\tcid] = Game(\\n            msg....\n        tag 32\t\t\tl\\n        );\\n        cids.pu...\n          JUMPDEST \t\t\tl\\n        );\\n        cids.pu...\n          PUSH 0\t\t\t, add\n          PUSH [tag] 77\t\t\t  }\\n\\n    function buyGame(st...\n          PUSH [tag] 78\t\t\tn buyGame(string memory _cid) ...\n          DUP5 \t\t\table {\n          PUSH [tag] 30\t\t\tn buyGame(string memory _cid) ...\n          JUMP \t\t\tn buyGame(string memory _cid) ...\n        tag 78\t\t\tn buyGame(string memory _cid) ...\n          JUMPDEST \t\t\tn buyGame(string memory _cid) ...\n          PUSH [tag] 29\t\t\t  }\\n\\n    function buyGame(st...\n          JUMP \t\t\t  }\\n\\n    function buyGame(st...\n        tag 77\t\t\t  }\\n\\n    function buyGame(st...\n          JUMPDEST \t\t\t  }\\n\\n    function buyGame(st...\n          SWAP1 \t\t\tken));\\n    }\\n\\n    function ...\n          POP \t\t\tken));\\n    }\\n\\n    function ...\n          DUP3 \t\t\te = ga\n          DUP2 \t\t\try _g\n          MSTORE \t\t\tme memory _game = gam\n          PUSH 20\t\t\teato\n          DUP2 \t\t\tgame.\n          ADD \t\t\tf (_game.creator\n          DUP5 \t\t\tert\n          DUP5 \t\t\t      \n          DUP5 \t\t\t   \n          ADD \t\t\t {\\n            r\n          GT \t\t\t0)) {\\n            revert \n          ISZERO \t\t\tss(0)) {\\n            revert I...\n          PUSH [tag] 79\t\t\tss(0)) {\\n            revert I...\n          JUMPI \t\t\tss(0)) {\\n            revert I...\n          PUSH [tag] 80\t\t\talidGame();\\n        }\\n\\n    ...\n          PUSH [tag] 25\t\t\talidGame();\\n        }\\n\\n    ...\n          JUMP \t\t\talidGame();\\n        }\\n\\n    ...\n        tag 80\t\t\talidGame();\\n        }\\n\\n    ...\n          JUMPDEST \t\t\talidGame();\\n        }\\n\\n    ...\n        tag 79\t\t\tss(0)) {\\n            revert I...\n          JUMPDEST \t\t\tss(0)) {\\n            revert I...\n          PUSH [tag] 81\t\t\tentFunds();\\n        }\\n      ...\n          DUP5 \t\t\t_game.\n          DUP3 \t\t\tanc\n          DUP6 \t\t\torb\n          PUSH [tag] 31\t\t\tentFunds();\\n        }\\n      ...\n          JUMP \t\t\tentFunds();\\n        }\\n      ...\n        tag 81\t\t\tentFunds();\\n        }\\n      ...\n          JUMPDEST \t\t\tentFunds();\\n        }\\n      ...\n          POP \t\t\tess(gameToken));\\n    }\\n\\n   ...\n          SWAP4 \t\t\tl\\n        );\\n        cids.pu...\n          SWAP3 \t\t\tl\\n        );\\n        cids.pu...\n          POP \t\t\tl\\n        );\\n        cids.pu...\n          POP \t\t\tl\\n        );\\n        cids.pu...\n          POP \t\t\tl\\n        );\\n        cids.pu...\n          JUMP \t\t\tl\\n        );\\n        cids.pu...\n        tag 33\t\t\t      GameToken gameToken = Ga...\n          JUMPDEST \t\t\t      GameToken gameToken = Ga...\n          PUSH 0\t\t\ten.mi\n          DUP3 \t\t\t_ci\n          PUSH 1F\t\t\tchas\n          DUP4 \t\t\t GameP\n          ADD \t\t\temit GamePurchase\n          SLT \t\t\t    emit GamePurchased(_cid\n          PUSH [tag] 83\t\t\ter);\\n\\n        emit GamePurch...\n          JUMPI \t\t\ter);\\n\\n        emit GamePurch...\n          PUSH [tag] 84\t\t\tg.sender);\\n    }\\n\\n    funct...\n          PUSH [tag] 24\t\t\tg.sender);\\n    }\\n\\n    funct...\n          JUMP \t\t\tg.sender);\\n    }\\n\\n    funct...\n        tag 84\t\t\tg.sender);\\n    }\\n\\n    funct...\n          JUMPDEST \t\t\tg.sender);\\n    }\\n\\n    funct...\n        tag 83\t\t\ter);\\n\\n        emit GamePurch...\n          JUMPDEST \t\t\ter);\\n\\n        emit GamePurch...\n          DUP2 \t\t\t{\\n    \n          MLOAD \t\t\t== 0) {\\n     \n          PUSH [tag] 85\t\t\tfficientFunds();\\n        }\\n ...\n          DUP5 \t\t\tder\n          DUP3 \t\t\t[msg.s\n          PUSH 20\t\t\tbala\n          DUP7 \t\t\t(creat\n          ADD \t\t\tsfer(creatorbalan\n          PUSH [tag] 32\t\t\tfficientFunds();\\n        }\\n ...\n          JUMP \t\t\tfficientFunds();\\n        }\\n ...\n        tag 85\t\t\tfficientFunds();\\n        }\\n ...\n          JUMPDEST \t\t\tfficientFunds();\\n        }\\n ...\n          SWAP2 \t\t\tvert InsufficientFunds();\\n   ...\n          POP \t\t\tvert InsufficientFunds();\\n   ...\n          POP \t\t\tt(msg.sender);\\n\\n        emit...\n          SWAP3 \t\t\t      GameToken gameToken = Ga...\n          SWAP2 \t\t\t      GameToken gameToken = Ga...\n          POP \t\t\t      GameToken gameToken = Ga...\n          POP \t\t\t      GameToken gameToken = Ga...\n          JUMP \t\t\t      GameToken gameToken = Ga...\n        tag 3\t\t\treatorbalance[msg.sender] = 0;...\n          JUMPDEST \t\t\treatorbalance[msg.sender] = 0;...\n          PUSH 0\t\t\tion is\n          DUP1 \t\t\tmeOwne\n          PUSH 0\t\t\tytes(b\n          PUSH 60\t\t\t(b\n          DUP5 \t\t\tiew retur\n          DUP7 \t\t\txternal\n          SUB \t\t\td) external view return\n          SLT \t\t\ty cid) external view returns (...\n          ISZERO \t\t\tmory cid) external view return...\n          PUSH [tag] 87\t\t\tmory cid) external view return...\n          JUMPI \t\t\tmory cid) external view return...\n          PUSH [tag] 88\t\t\t {\\n        string memory _cid...\n          PUSH [tag] 22\t\t\t {\\n        string memory _cid...\n          JUMP \t\t\t {\\n        string memory _cid...\n        tag 88\t\t\t {\\n        string memory _cid...\n          JUMPDEST \t\t\t {\\n        string memory _cid...\n        tag 87\t\t\tmory cid) external view return...\n          JUMPDEST \t\t\tmory cid) external view return...\n          PUSH 0\t\t\te\n          DUP5 \t\t\tess == ad\n          ADD \t\t\tAddress == addres\n          MLOAD \t\t\t(tokenAddress == address\n          PUSH FFFFFFFFFFFFFFFF\t\t\tnvalidGame();\\n    \n          DUP2 \t\t\trevert\n          GT \t\t\t   revert InvalidGame();\\n    ...\n          ISZERO \t\t\t      revert InvalidGame();\\n ...\n          PUSH [tag] 89\t\t\t      revert InvalidGame();\\n ...\n          JUMPI \t\t\t      revert InvalidGame();\\n ...\n          PUSH [tag] 90\t\t\t}\\n        GameToken gameToken...\n          PUSH [tag] 23\t\t\t}\\n        GameToken gameToken...\n          JUMP \t\t\t}\\n        GameToken gameToken...\n        tag 90\t\t\t}\\n        GameToken gameToken...\n          JUMPDEST \t\t\t}\\n        GameToken gameToken...\n        tag 89\t\t\t      revert InvalidGame();\\n ...\n          JUMPDEST \t\t\t      revert InvalidGame();\\n ...\n          PUSH [tag] 91\t\t\t= 1;\\n    }\\n\\n    function is...\n          DUP7 \t\t\tview re\n          DUP3 \t\t\textern\n          DUP8 \t\t\tmory _cid\n          ADD \t\t\tg memory _cid) externa\n          PUSH [tag] 33\t\t\t= 1;\\n    }\\n\\n    function is...\n          JUMP \t\t\t= 1;\\n    }\\n\\n    function is...\n        tag 91\t\t\t= 1;\\n    }\\n\\n    function is...\n          JUMPDEST \t\t\t= 1;\\n    }\\n\\n    function is...\n          SWAP4 \t\t\t.sender) >= 1;\\n    }\\n\\n    f...\n          POP \t\t\t.sender) >= 1;\\n    }\\n\\n    f...\n          POP \t\t\tames[_cid].token;\\n        if ...\n          PUSH 20\t\t\t  \n          DUP5 \t\t\tken;\\n    \n          ADD \t\t\t].token;\\n        i\n          MLOAD \t\t\ts[_cid].token;\\n        if\n          PUSH FFFFFFFFFFFFFFFF\t\t\t)) {\\n            r\n          DUP2 \t\t\tddress\n          GT \t\t\t= address(0)) {\\n            r...\n          ISZERO \t\t\ts == address(0)) {\\n          ...\n          PUSH [tag] 92\t\t\ts == address(0)) {\\n          ...\n          JUMPI \t\t\ts == address(0)) {\\n          ...\n          PUSH [tag] 93\t\t\tt InvalidGame();\\n        }\\n ...\n          PUSH [tag] 23\t\t\tt InvalidGame();\\n        }\\n ...\n          JUMP \t\t\tt InvalidGame();\\n        }\\n ...\n        tag 93\t\t\tt InvalidGame();\\n        }\\n ...\n          JUMPDEST \t\t\tt InvalidGame();\\n        }\\n ...\n        tag 92\t\t\ts == address(0)) {\\n          ...\n          JUMPDEST \t\t\ts == address(0)) {\\n          ...\n          PUSH [tag] 94\t\t\tn.balanceOf(msg.sender) >= 1;\\...\n          DUP7 \t\t\tnal vie\n          DUP3 \t\t\ts() ex\n          DUP8 \t\t\tion getGa\n          ADD \t\t\tunction getGames() ext\n          PUSH [tag] 33\t\t\tn.balanceOf(msg.sender) >= 1;\\...\n          JUMP \t\t\tn.balanceOf(msg.sender) >= 1;\\...\n        tag 94\t\t\tn.balanceOf(msg.sender) >= 1;\\...\n          JUMPDEST \t\t\tn.balanceOf(msg.sender) >= 1;\\...\n          SWAP3 \t\t\tn gameToken.balanceOf(msg.send...\n          POP \t\t\tn gameToken.balanceOf(msg.send...\n          POP \t\t\t  address tokenAddress = games...\n          PUSH 40\t\t\tid\n          DUP5 \t\t\tew Game[]\n          ADD \t\t\t = new Game[](cids\n          MLOAD \t\t\t_games = new Game[](cids.\n          PUSH FFFFFFFFFFFFFFFF\t\t\t56 i = 0; i < cids\n          DUP2 \t\t\tr (uin\n          GT \t\t\t for (uint256 i = 0; i < cids.\n          ISZERO \t\t\t    for (uint256 i = 0; i < ci...\n          PUSH [tag] 95\t\t\t    for (uint256 i = 0; i < ci...\n          JUMPI \t\t\t    for (uint256 i = 0; i < ci...\n          PUSH [tag] 96\t\t\tgth; i++) {\\n            _game...\n          PUSH [tag] 23\t\t\tgth; i++) {\\n            _game...\n          JUMP \t\t\tgth; i++) {\\n            _game...\n        tag 96\t\t\tgth; i++) {\\n            _game...\n          JUMPDEST \t\t\tgth; i++) {\\n            _game...\n        tag 95\t\t\t    for (uint256 i = 0; i < ci...\n          JUMPDEST \t\t\t    for (uint256 i = 0; i < ci...\n          PUSH [tag] 97\t\t\t getGameByCid(string memory _c...\n          DUP7 \t\t\t      r\n          DUP3 \t\t\t  view\n          DUP8 \t\t\trnal\\n    \n          ADD \t\t\texternal\\n        view\\n\n          PUSH [tag] 33\t\t\t getGameByCid(string memory _c...\n          JUMP \t\t\t getGameByCid(string memory _c...\n        tag 97\t\t\t getGameByCid(string memory _c...\n          JUMPDEST \t\t\t getGameByCid(string memory _c...\n          SWAP2 \t\t\t  function getGameByCid(string...\n          POP \t\t\t  function getGameByCid(string...\n          POP \t\t\tory) {\\n        Game[] memory ...\n          SWAP3 \t\t\treatorbalance[msg.sender] = 0;...\n          POP \t\t\treatorbalance[msg.sender] = 0;...\n          SWAP3 \t\t\treatorbalance[msg.sender] = 0;...\n          POP \t\t\treatorbalance[msg.sender] = 0;...\n          SWAP3 \t\t\treatorbalance[msg.sender] = 0;...\n          JUMP \t\t\treatorbalance[msg.sender] = 0;...\n        tag 34\t\t\t {\\n        Game memory _game ...\n          JUMPDEST \t\t\t {\\n        Game memory _game ...\n          PUSH 0\t\t\tif (_g\n          DUP2 \t\t\t\\n    \n          MLOAD \t\t\t(0)) {\\n     \n          SWAP1 \t\t\t== address(0)) {\\n     \n          POP \t\t\t== address(0)) {\\n     \n          SWAP2 \t\t\t {\\n        Game memory _game ...\n          SWAP1 \t\t\t {\\n        Game memory _game ...\n          POP \t\t\t {\\n        Game memory _game ...\n          JUMP \t\t\t {\\n        Game memory _game ...\n        tag 35\t\t\t InvalidGame();\\n        }\\n  ...\n          JUMPDEST \t\t\t InvalidGame();\\n        }\\n  ...\n          PUSH 4E487B7100000000000000000000000000000000000000000000000000000000\t\t\t    }\\n\\n    function getGameL...\n          PUSH 0\t\t\te\n          MSTORE \t\t\trn _game;\\n    }\\n\\n    functi...\n          PUSH 22\t\t\tgth;\n          PUSH 4\t\t\tl\n          MSTORE \t\t\tn cids.length;\\n\n          PUSH 24\t\t\t\n          PUSH 0\t\t\t\n          REVERT \t\t\t\n        tag 36\t\t\t\n          JUMPDEST \t\t\t\n          PUSH 0\t\t\t\n          PUSH 2\t\t\t\n          DUP3 \t\t\t\n          DIV \t\t\t\n          SWAP1 \t\t\t\n          POP \t\t\t\n          PUSH 1\t\t\t\n          DUP3 \t\t\t\n          AND \t\t\t\n          DUP1 \t\t\t\n          PUSH [tag] 101\t\t\t\n          JUMPI \t\t\t\n          PUSH 7F\t\t\t\n          DUP3 \t\t\t\n          AND \t\t\t\n          SWAP2 \t\t\t\n          POP \t\t\t\n        tag 101\t\t\t\n          JUMPDEST \t\t\t\n          PUSH 20\t\t\t\n          DUP3 \t\t\t\n          LT \t\t\t\n          DUP2 \t\t\t\n          SUB \t\t\t\n          PUSH [tag] 102\t\t\t\n          JUMPI \t\t\t\n          PUSH [tag] 103\t\t\t\n          PUSH [tag] 35\t\t\t\n          JUMP \t\t\t\n        tag 103\t\t\t\n          JUMPDEST \t\t\t\n        tag 102\t\t\t\n          JUMPDEST \t\t\t\n          POP \t\t\t\n          SWAP2 \t\t\t\n          SWAP1 \t\t\t\n          POP \t\t\t\n          JUMP \t\t\t\n        tag 37\t\t\t\n          JUMPDEST \t\t\t\n          PUSH 0\t\t\t\n          DUP2 \t\t\t\n          SWAP1 \t\t\t\n          POP \t\t\t\n          DUP2 \t\t\t\n          PUSH 0\t\t\t\n          MSTORE \t\t\t\n          PUSH 20\t\t\t\n          PUSH 0\t\t\t\n          KECCAK256 \t\t\t\n          SWAP1 \t\t\t\n          POP \t\t\t\n          SWAP2 \t\t\t\n          SWAP1 \t\t\t\n          POP \t\t\t\n          JUMP \t\t\t\n        tag 38\t\t\t\n          JUMPDEST \t\t\t\n          PUSH 0\t\t\t\n          PUSH 20\t\t\t\n          PUSH 1F\t\t\t\n          DUP4 \t\t\t\n          ADD \t\t\t\n          DIV \t\t\t\n          SWAP1 \t\t\t\n          POP \t\t\t\n          SWAP2 \t\t\t\n          SWAP1 \t\t\t\n          POP \t\t\t\n          JUMP \t\t\t\n        tag 39\t\t\t\n          JUMPDEST \t\t\t\n          PUSH 0\t\t\t\n          DUP3 \t\t\t\n          DUP3 \t\t\t\n          SHL \t\t\t\n          SWAP1 \t\t\t\n          POP \t\t\t\n          SWAP3 \t\t\t\n          SWAP2 \t\t\t\n          POP \t\t\t\n          POP \t\t\t\n          JUMP \t\t\t\n        tag 40\t\t\t\n          JUMPDEST \t\t\t\n          PUSH 0\t\t\t\n          PUSH 8\t\t\t\n          DUP4 \t\t\t\n          MUL \t\t\t\n          PUSH [tag] 108\t\t\t\n          PUSH FFFFFFFFFFFFFFFFFFFFFFFFFFFFFFFFFFFFFFFFFFFFFFFFFFFFFFFFFFFFFFFF\t\t\t\n          DUP3 \t\t\t\n          PUSH [tag] 39\t\t\t\n          JUMP \t\t\t\n        tag 108\t\t\t\n          JUMPDEST \t\t\t\n          PUSH [tag] 109\t\t\t\n          DUP7 \t\t\t\n          DUP4 \t\t\t\n          PUSH [tag] 39\t\t\t\n          JUMP \t\t\t\n        tag 109\t\t\t\n          JUMPDEST \t\t\t\n          SWAP6 \t\t\t\n          POP \t\t\t\n          DUP1 \t\t\t\n          NOT \t\t\t\n          DUP5 \t\t\t\n          AND \t\t\t\n          SWAP4 \t\t\t\n          POP \t\t\t\n          DUP1 \t\t\t\n          DUP7 \t\t\t\n          AND \t\t\t\n          DUP5 \t\t\t\n          OR \t\t\t\n          SWAP3 \t\t\t\n          POP \t\t\t\n          POP \t\t\t\n          POP \t\t\t\n          SWAP4 \t\t\t\n          SWAP3 \t\t\t\n          POP \t\t\t\n          POP \t\t\t\n          POP \t\t\t\n          JUMP \t\t\t\n        tag 41\t\t\t\n          JUMPDEST \t\t\t\n          PUSH 0\t\t\t\n          DUP2 \t\t\t\n          SWAP1 \t\t\t\n          POP \t\t\t\n          SWAP2 \t\t\t\n          SWAP1 \t\t\t\n          POP \t\t\t\n          JUMP \t\t\t\n        tag 42\t\t\t\n          JUMPDEST \t\t\t\n          PUSH 0\t\t\t\n          DUP2 \t\t\t\n          SWAP1 \t\t\t\n          POP \t\t\t\n          SWAP2 \t\t\t\n          SWAP1 \t\t\t\n          POP \t\t\t\n          JUMP \t\t\t\n        tag 43\t\t\t\n          JUMPDEST \t\t\t\n          PUSH 0\t\t\t\n          PUSH [tag] 113\t\t\t\n          PUSH [tag] 114\t\t\t\n          PUSH [tag] 115\t\t\t\n          DUP5 \t\t\t\n          PUSH [tag] 41\t\t\t\n          JUMP \t\t\t\n        tag 115\t\t\t\n          JUMPDEST \t\t\t\n          PUSH [tag] 42\t\t\t\n          JUMP \t\t\t\n        tag 114\t\t\t\n          JUMPDEST \t\t\t\n          PUSH [tag] 41\t\t\t\n          JUMP \t\t\t\n        tag 113\t\t\t\n          JUMPDEST \t\t\t\n          SWAP1 \t\t\t\n          POP \t\t\t\n          SWAP2 \t\t\t\n          SWAP1 \t\t\t\n          POP \t\t\t\n          JUMP \t\t\t\n        tag 44\t\t\t\n          JUMPDEST \t\t\t\n          PUSH 0\t\t\t\n          DUP2 \t\t\t\n          SWAP1 \t\t\t\n          POP \t\t\t\n          SWAP2 \t\t\t\n          SWAP1 \t\t\t\n          POP \t\t\t\n          JUMP \t\t\t\n        tag 45\t\t\t\n          JUMPDEST \t\t\t\n          PUSH [tag] 118\t\t\t\n          DUP4 \t\t\t\n          PUSH [tag] 43\t\t\t\n          JUMP \t\t\t\n        tag 118\t\t\t\n          JUMPDEST \t\t\t\n          PUSH [tag] 119\t\t\t\n          PUSH [tag] 120\t\t\t\n          DUP3 \t\t\t\n          PUSH [tag] 44\t\t\t\n          JUMP \t\t\t\n        tag 120\t\t\t\n          JUMPDEST \t\t\t\n          DUP5 \t\t\t\n          DUP5 \t\t\t\n          SLOAD \t\t\t\n          PUSH [tag] 40\t\t\t\n          JUMP \t\t\t\n        tag 119\t\t\t\n          JUMPDEST \t\t\t\n          DUP3 \t\t\t\n          SSTORE \t\t\t\n          POP \t\t\t\n          POP \t\t\t\n          POP \t\t\t\n          POP \t\t\t\n          JUMP \t\t\t\n        tag 46\t\t\t\n          JUMPDEST \t\t\t\n          PUSH 0\t\t\t\n          SWAP1 \t\t\t\n          JUMP \t\t\t\n        tag 47\t\t\t\n          JUMPDEST \t\t\t\n          PUSH [tag] 123\t\t\t\n          PUSH [tag] 46\t\t\t\n          JUMP \t\t\t\n        tag 123\t\t\t\n          JUMPDEST \t\t\t\n          PUSH [tag] 124\t\t\t\n          DUP2 \t\t\t\n          DUP5 \t\t\t\n          DUP5 \t\t\t\n          PUSH [tag] 45\t\t\t\n          JUMP \t\t\t\n        tag 124\t\t\t\n          JUMPDEST \t\t\t\n          POP \t\t\t\n          POP \t\t\t\n          POP \t\t\t\n          JUMP \t\t\t\n        tag 48\t\t\t\n          JUMPDEST \t\t\t\n        tag 126\t\t\t\n          JUMPDEST \t\t\t\n          DUP2 \t\t\t\n          DUP2 \t\t\t\n          LT \t\t\t\n          ISZERO \t\t\t\n          PUSH [tag] 128\t\t\t\n          JUMPI \t\t\t\n          PUSH [tag] 129\t\t\t\n          PUSH 0\t\t\t\n          DUP3 \t\t\t\n          PUSH [tag] 47\t\t\t\n          JUMP \t\t\t\n        tag 129\t\t\t\n          JUMPDEST \t\t\t\n          PUSH 1\t\t\t\n          DUP2 \t\t\t\n          ADD \t\t\t\n          SWAP1 \t\t\t\n          POP \t\t\t\n          PUSH [tag] 126\t\t\t\n          JUMP \t\t\t\n        tag 128\t\t\t\n          JUMPDEST \t\t\t\n          POP \t\t\t\n          POP \t\t\t\n          JUMP \t\t\t\n        tag 49\t\t\t\n          JUMPDEST \t\t\t\n          PUSH 1F\t\t\t\n          DUP3 \t\t\t\n          GT \t\t\t\n          ISZERO \t\t\t\n          PUSH [tag] 131\t\t\t\n          JUMPI \t\t\t\n          PUSH [tag] 132\t\t\t\n          DUP2 \t\t\t\n          PUSH [tag] 37\t\t\t\n          JUMP \t\t\t\n        tag 132\t\t\t\n          JUMPDEST \t\t\t\n          PUSH [tag] 133\t\t\t\n          DUP5 \t\t\t\n          PUSH [tag] 38\t\t\t\n          JUMP \t\t\t\n        tag 133\t\t\t\n          JUMPDEST \t\t\t\n          DUP2 \t\t\t\n          ADD \t\t\t\n          PUSH 20\t\t\t\n          DUP6 \t\t\t\n          LT \t\t\t\n          ISZERO \t\t\t\n          PUSH [tag] 134\t\t\t\n          JUMPI \t\t\t\n          DUP2 \t\t\t\n          SWAP1 \t\t\t\n          POP \t\t\t\n        tag 134\t\t\t\n          JUMPDEST \t\t\t\n          PUSH [tag] 135\t\t\t\n          PUSH [tag] 136\t\t\t\n          DUP6 \t\t\t\n          PUSH [tag] 38\t\t\t\n          JUMP \t\t\t\n        tag 136\t\t\t\n          JUMPDEST \t\t\t\n          DUP4 \t\t\t\n          ADD \t\t\t\n          DUP3 \t\t\t\n          PUSH [tag] 48\t\t\t\n          JUMP \t\t\t\n        tag 135\t\t\t\n          JUMPDEST \t\t\t\n          POP \t\t\t\n          POP \t\t\t\n        tag 131\t\t\t\n          JUMPDEST \t\t\t\n          POP \t\t\t\n          POP \t\t\t\n          POP \t\t\t\n          JUMP \t\t\t\n        tag 50\t\t\t\n          JUMPDEST \t\t\t\n          PUSH 0\t\t\t\n          DUP3 \t\t\t\n          DUP3 \t\t\t\n          SHR \t\t\t\n          SWAP1 \t\t\t\n          POP \t\t\t\n          SWAP3 \t\t\t\n          SWAP2 \t\t\t\n          POP \t\t\t\n          POP \t\t\t\n          JUMP \t\t\t\n        tag 51\t\t\t\n          JUMPDEST \t\t\t\n          PUSH 0\t\t\t\n          PUSH [tag] 139\t\t\t\n          PUSH 0\t\t\t\n          NOT \t\t\t\n          DUP5 \t\t\t\n          PUSH 8\t\t\t\n          MUL \t\t\t\n          PUSH [tag] 50\t\t\t\n          JUMP \t\t\t\n        tag 139\t\t\t\n          JUMPDEST \t\t\t\n          NOT \t\t\t\n          DUP1 \t\t\t\n          DUP4 \t\t\t\n          AND \t\t\t\n          SWAP2 \t\t\t\n          POP \t\t\t\n          POP \t\t\t\n          SWAP3 \t\t\t\n          SWAP2 \t\t\t\n          POP \t\t\t\n          POP \t\t\t\n          JUMP \t\t\t\n        tag 52\t\t\t\n          JUMPDEST \t\t\t\n          PUSH 0\t\t\t\n          PUSH [tag] 141\t\t\t\n          DUP4 \t\t\t\n          DUP4 \t\t\t\n          PUSH [tag] 51\t\t\t\n          JUMP \t\t\t\n        tag 141\t\t\t\n          JUMPDEST \t\t\t\n          SWAP2 \t\t\t\n          POP \t\t\t\n          DUP3 \t\t\t\n          PUSH 2\t\t\t\n          MUL \t\t\t\n          DUP3 \t\t\t\n          OR \t\t\t\n          SWAP1 \t\t\t\n          POP \t\t\t\n          SWAP3 \t\t\t\n          SWAP2 \t\t\t\n          POP \t\t\t\n          POP \t\t\t\n          JUMP \t\t\t\n        tag 9\t\t\t\n          JUMPDEST \t\t\t\n          PUSH [tag] 143\t\t\t\n          DUP3 \t\t\t\n          PUSH [tag] 34\t\t\t\n          JUMP \t\t\t\n        tag 143\t\t\t\n          JUMPDEST \t\t\t\n          PUSH FFFFFFFFFFFFFFFF\t\t\t\n          DUP2 \t\t\t\n          GT \t\t\t\n          ISZERO \t\t\t\n          PUSH [tag] 144\t\t\t\n          JUMPI \t\t\t\n          PUSH [tag] 145\t\t\t\n          PUSH [tag] 27\t\t\t\n          JUMP \t\t\t\n        tag 145\t\t\t\n          JUMPDEST \t\t\t\n        tag 144\t\t\t\n          JUMPDEST \t\t\t\n          PUSH [tag] 146\t\t\t\n          DUP3 \t\t\t\n          SLOAD \t\t\t\n          PUSH [tag] 36\t\t\t\n          JUMP \t\t\t\n        tag 146\t\t\t\n          JUMPDEST \t\t\t\n          PUSH [tag] 147\t\t\t\n          DUP3 \t\t\t\n          DUP3 \t\t\t\n          DUP6 \t\t\t\n          PUSH [tag] 49\t\t\t\n          JUMP \t\t\t\n        tag 147\t\t\t\n          JUMPDEST \t\t\t\n          PUSH 0\t\t\t\n          PUSH 20\t\t\t\n          SWAP1 \t\t\t\n          POP \t\t\t\n          PUSH 1F\t\t\t\n          DUP4 \t\t\t\n          GT \t\t\t\n          PUSH 1\t\t\t\n          DUP2 \t\t\t\n          EQ \t\t\t\n          PUSH [tag] 149\t\t\t\n          JUMPI \t\t\t\n          PUSH 0\t\t\t\n          DUP5 \t\t\t\n          ISZERO \t\t\t\n          PUSH [tag] 150\t\t\t\n          JUMPI \t\t\t\n          DUP3 \t\t\t\n          DUP8 \t\t\t\n          ADD \t\t\t\n          MLOAD \t\t\t\n          SWAP1 \t\t\t\n          POP \t\t\t\n        tag 150\t\t\t\n          JUMPDEST \t\t\t\n          PUSH [tag] 151\t\t\t\n          DUP6 \t\t\t\n          DUP3 \t\t\t\n          PUSH [tag] 52\t\t\t\n          JUMP \t\t\t\n        tag 151\t\t\t\n          JUMPDEST \t\t\t\n          DUP7 \t\t\t\n          SSTORE \t\t\t\n          POP \t\t\t\n          PUSH [tag] 148\t\t\t\n          JUMP \t\t\t\n        tag 149\t\t\t\n          JUMPDEST \t\t\t\n          PUSH 1F\t\t\t\n          NOT \t\t\t\n          DUP5 \t\t\t\n          AND \t\t\t\n          PUSH [tag] 152\t\t\t\n          DUP7 \t\t\t\n          PUSH [tag] 37\t\t\t\n          JUMP \t\t\t\n        tag 152\t\t\t\n          JUMPDEST \t\t\t\n          PUSH 0\t\t\t\n        tag 153\t\t\t\n          JUMPDEST \t\t\t\n          DUP3 \t\t\t\n          DUP2 \t\t\t\n          LT \t\t\t\n          ISZERO \t\t\t\n          PUSH [tag] 155\t\t\t\n          JUMPI \t\t\t\n          DUP5 \t\t\t\n          DUP10 \t\t\t\n          ADD \t\t\t\n          MLOAD \t\t\t\n          DUP3 \t\t\t\n          SSTORE \t\t\t\n          PUSH 1\t\t\t\n          DUP3 \t\t\t\n          ADD \t\t\t\n          SWAP2 \t\t\t\n          POP \t\t\t\n          PUSH 20\t\t\t\n          DUP6 \t\t\t\n          ADD \t\t\t\n          SWAP5 \t\t\t\n          POP \t\t\t\n          PUSH 20\t\t\t\n          DUP2 \t\t\t\n          ADD \t\t\t\n          SWAP1 \t\t\t\n          POP \t\t\t\n          PUSH [tag] 153\t\t\t\n          JUMP \t\t\t\n        tag 155\t\t\t\n          JUMPDEST \t\t\t\n          DUP7 \t\t\t\n          DUP4 \t\t\t\n          LT \t\t\t\n          ISZERO \t\t\t\n          PUSH [tag] 156\t\t\t\n          JUMPI \t\t\t\n          DUP5 \t\t\t\n          DUP10 \t\t\t\n          ADD \t\t\t\n          MLOAD \t\t\t\n          PUSH [tag] 157\t\t\t\n          PUSH 1F\t\t\t\n          DUP10 \t\t\t\n          AND \t\t\t\n          DUP3 \t\t\t\n          PUSH [tag] 51\t\t\t\n          JUMP \t\t\t\n        tag 157\t\t\t\n          JUMPDEST \t\t\t\n          DUP4 \t\t\t\n          SSTORE \t\t\t\n          POP \t\t\t\n        tag 156\t\t\t\n          JUMPDEST \t\t\t\n          PUSH 1\t\t\t\n          PUSH 2\t\t\t\n          DUP9 \t\t\t\n          MUL \t\t\t\n          ADD \t\t\t\n          DUP9 \t\t\t\n          SSTORE \t\t\t\n          POP \t\t\t\n          POP \t\t\t\n          POP \t\t\t\n        tag 148\t\t\t\n          JUMPDEST \t\t\t\n          POP \t\t\t\n          POP \t\t\t\n          POP \t\t\t\n          POP \t\t\t\n          POP \t\t\t\n          POP \t\t\t\n          JUMP \t\t\t\n        tag 53\t\t\t\n          JUMPDEST \t\t\t\n          PUSH 0\t\t\t\n          PUSH FFFFFFFFFFFFFFFFFFFFFFFFFFFFFFFFFFFFFFFF\t\t\t\n          DUP3 \t\t\t\n          AND \t\t\t\n          SWAP1 \t\t\t\n          POP \t\t\t\n          SWAP2 \t\t\t\n          SWAP1 \t\t\t\n          POP \t\t\t\n          JUMP \t\t\t\n        tag 54\t\t\t\n          JUMPDEST \t\t\t\n          PUSH 0\t\t\t\n          PUSH [tag] 160\t\t\t\n          DUP3 \t\t\t\n          PUSH [tag] 53\t\t\t\n          JUMP \t\t\t\n        tag 160\t\t\t\n          JUMPDEST \t\t\t\n          SWAP1 \t\t\t\n          POP \t\t\t\n          SWAP2 \t\t\t\n          SWAP1 \t\t\t\n          POP \t\t\t\n          JUMP \t\t\t\n        tag 55\t\t\t\n          JUMPDEST \t\t\t\n          PUSH [tag] 162\t\t\t\n          DUP2 \t\t\t\n          PUSH [tag] 54\t\t\t\n          JUMP \t\t\t\n        tag 162\t\t\t\n          JUMPDEST \t\t\t\n          DUP3 \t\t\t\n          MSTORE \t\t\t\n          POP \t\t\t\n          POP \t\t\t\n          JUMP \t\t\t\n        tag 14\t\t\t\n          JUMPDEST \t\t\t\n          PUSH 0\t\t\t\n          PUSH 20\t\t\t\n          DUP3 \t\t\t\n          ADD \t\t\t\n          SWAP1 \t\t\t\n          POP \t\t\t\n          PUSH [tag] 164\t\t\t\n          PUSH 0\t\t\t\n          DUP4 \t\t\t\n          ADD \t\t\t\n          DUP5 \t\t\t\n          PUSH [tag] 55\t\t\t\n          JUMP \t\t\t\n        tag 164\t\t\t\n          JUMPDEST \t\t\t\n          SWAP3 \t\t\t\n          SWAP2 \t\t\t\n          POP \t\t\t\n          POP \t\t\t\n          JUMP \t\t\t\n        tag 19\t\t\tamePurchased(string indexed ci...\n          JUMPDEST \t\t\tamePurchased(string indexed ci...\n          PUSH #[$] 0000000000000000000000000000000000000000000000000000000000000000\t\t\tamePurchased(string indexed ci...\n          DUP1 \t\t\tamePurchased(string indexed ci...\n          PUSH [$] 0000000000000000000000000000000000000000000000000000000000000000\t\t\tamePurchased(string indexed ci...\n          PUSH 0\t\t\tamePurchased(string indexed ci...\n          CODECOPY \t\t\tamePurchased(string indexed ci...\n          PUSH 0\t\t\tamePurchased(string indexed ci...\n          RETURN \t\t\tamePurchased(string indexed ci...\n        .data\n          0:\n            .code\n              PUSH 80\t\t\tamePurchased(string indexed ci...\n              PUSH 40\t\t\tamePurchased(string indexed ci...\n              MSTORE \t\t\tamePurchased(string indexed ci...\n              CALLVALUE \t\t\tamePurchased(string indexed ci...\n              DUP1 \t\t\tamePurchased(string indexed ci...\n              ISZERO \t\t\tamePurchased(string indexed ci...\n              PUSH [tag] 1\t\t\tamePurchased(string indexed ci...\n              JUMPI \t\t\tamePurchased(string indexed ci...\n              PUSH 0\t\t\tamePurchased(string indexed ci...\n              DUP1 \t\t\tamePurchased(string indexed ci...\n              REVERT \t\t\tamePurchased(string indexed ci...\n            tag 1\t\t\tamePurchased(string indexed ci...\n              JUMPDEST \t\t\tamePurchased(string indexed ci...\n              POP \t\t\tamePurchased(string indexed ci...\n              PUSH 4\t\t\tamePurchased(string indexed ci...\n              CALLDATASIZE \t\t\tamePurchased(string indexed ci...\n              LT \t\t\tamePurchased(string indexed ci...\n              PUSH [tag] 2\t\t\tamePurchased(string indexed ci...\n              JUMPI \t\t\tamePurchased(string indexed ci...\n              PUSH 0\t\t\tamePurchased(string indexed ci...\n              CALLDATALOAD \t\t\tamePurchased(string indexed ci...\n              PUSH E0\t\t\tamePurchased(string indexed ci...\n              SHR \t\t\tamePurchased(string indexed ci...\n              DUP1 \t\t\tamePurchased(string indexed ci...\n              PUSH 70A08231\t\t\tamePurchased(string indexed ci...\n              GT \t\t\tamePurchased(string indexed ci...\n              PUSH [tag] 20\t\t\tamePurchased(string indexed ci...\n              JUMPI \t\t\tamePurchased(string indexed ci...\n              DUP1 \t\t\tamePurchased(string indexed ci...\n              PUSH A22CB465\t\t\tamePurchased(string indexed ci...\n              GT \t\t\tamePurchased(string indexed ci...\n              PUSH [tag] 21\t\t\tamePurchased(string indexed ci...\n              JUMPI \t\t\tamePurchased(string indexed ci...\n              DUP1 \t\t\tamePurchased(string indexed ci...\n              PUSH A22CB465\t\t\tamePurchased(string indexed ci...\n              EQ \t\t\tamePurchased(string indexed ci...\n              PUSH [tag] 15\t\t\tamePurchased(string indexed ci...\n              JUMPI \t\t\tamePurchased(string indexed ci...\n              DUP1 \t\t\tamePurchased(string indexed ci...\n              PUSH B88D4FDE\t\t\tamePurchased(string indexed ci...\n              EQ \t\t\tamePurchased(string indexed ci...\n              PUSH [tag] 16\t\t\tamePurchased(string indexed ci...\n              JUMPI \t\t\tamePurchased(string indexed ci...\n              DUP1 \t\t\tamePurchased(string indexed ci...\n              PUSH C87B56DD\t\t\tamePurchased(string indexed ci...\n              EQ \t\t\tamePurchased(string indexed ci...\n              PUSH [tag] 17\t\t\tamePurchased(string indexed ci...\n              JUMPI \t\t\tamePurchased(string indexed ci...\n              DUP1 \t\t\tamePurchased(string indexed ci...\n              PUSH E985E9C5\t\t\tamePurchased(string indexed ci...\n              EQ \t\t\tamePurchased(string indexed ci...\n              PUSH [tag] 18\t\t\tamePurchased(string indexed ci...\n              JUMPI \t\t\tamePurchased(string indexed ci...\n              DUP1 \t\t\tamePurchased(string indexed ci...\n              PUSH F2FDE38B\t\t\tamePurchased(string indexed ci...\n              EQ \t\t\tamePurchased(string indexed ci...\n              PUSH [tag] 19\t\t\tamePurchased(string indexed ci...\n              JUMPI \t\t\tamePurchased(string indexed ci...\n              PUSH [tag] 2\t\t\tamePurchased(string indexed ci...\n              JUMP \t\t\tamePurchased(string indexed ci...\n            tag 21\t\t\tamePurchased(string indexed ci...\n              JUMPDEST \t\t\tamePurchased(string indexed ci...\n              DUP1 \t\t\tamePurchased(string indexed ci...\n              PUSH 70A08231\t\t\tamePurchased(string indexed ci...\n              EQ \t\t\tamePurchased(string indexed ci...\n              PUSH [tag] 11\t\t\tamePurchased(string indexed ci...\n              JUMPI \t\t\tamePurchased(string indexed ci...\n              DUP1 \t\t\tamePurchased(string indexed ci...\n              PUSH 715018A6\t\t\tamePurchased(string indexed ci...\n              EQ \t\t\tamePurchased(string indexed ci...\n              PUSH [tag] 12\t\t\tamePurchased(string indexed ci...\n              JUMPI \t\t\tamePurchased(string indexed ci...\n              DUP1 \t\t\tamePurchased(string indexed ci...\n              PUSH 8DA5CB5B\t\t\tamePurchased(string indexed ci...\n              EQ \t\t\tamePurchased(string indexed ci...\n              PUSH [tag] 13\t\t\tamePurchased(string indexed ci...\n              JUMPI \t\t\tamePurchased(string indexed ci...\n              DUP1 \t\t\tamePurchased(string indexed ci...\n              PUSH 95D89B41\t\t\tamePurchased(string indexed ci...\n              EQ \t\t\tamePurchased(string indexed ci...\n              PUSH [tag] 14\t\t\tamePurchased(string indexed ci...\n              JUMPI \t\t\tamePurchased(string indexed ci...\n              PUSH [tag] 2\t\t\tamePurchased(string indexed ci...\n              JUMP \t\t\tamePurchased(string indexed ci...\n            tag 20\t\t\tamePurchased(string indexed ci...\n              JUMPDEST \t\t\tamePurchased(string indexed ci...\n              DUP1 \t\t\tamePurchased(string indexed ci...\n              PUSH 23B872DD\t\t\tamePurchased(string indexed ci...\n              GT \t\t\tamePurchased(string indexed ci...\n              PUSH [tag] 22\t\t\tamePurchased(string indexed ci...\n              JUMPI \t\t\tamePurchased(string indexed ci...\n              DUP1 \t\t\tamePurchased(string indexed ci...\n              PUSH 23B872DD\t\t\tamePurchased(string indexed ci...\n              EQ \t\t\tamePurchased(string indexed ci...\n              PUSH [tag] 7\t\t\tamePurchased(string indexed ci...\n              JUMPI \t\t\tamePurchased(string indexed ci...\n              DUP1 \t\t\tamePurchased(string indexed ci...\n              PUSH 42842E0E\t\t\tamePurchased(string indexed ci...\n              EQ \t\t\tamePurchased(string indexed ci...\n              PUSH [tag] 8\t\t\tamePurchased(string indexed ci...\n              JUMPI \t\t\tamePurchased(string indexed ci...\n              DUP1 \t\t\tamePurchased(string indexed ci...\n              PUSH 6352211E\t\t\tamePurchased(string indexed ci...\n              EQ \t\t\tamePurchased(string indexed ci...\n              PUSH [tag] 9\t\t\tamePurchased(string indexed ci...\n              JUMPI \t\t\tamePurchased(string indexed ci...\n              DUP1 \t\t\tamePurchased(string indexed ci...\n              PUSH 6A627842\t\t\tamePurchased(string indexed ci...\n              EQ \t\t\tamePurchased(string indexed ci...\n              PUSH [tag] 10\t\t\tamePurchased(string indexed ci...\n              JUMPI \t\t\tamePurchased(string indexed ci...\n              PUSH [tag] 2\t\t\tamePurchased(string indexed ci...\n              JUMP \t\t\tamePurchased(string indexed ci...\n            tag 22\t\t\tamePurchased(string indexed ci...\n              JUMPDEST \t\t\tamePurchased(string indexed ci...\n              DUP1 \t\t\tamePurchased(string indexed ci...\n              PUSH 1FFC9A7\t\t\tamePurchased(string indexed ci...\n              EQ \t\t\tamePurchased(string indexed ci...\n              PUSH [tag] 3\t\t\tamePurchased(string indexed ci...\n              JUMPI \t\t\tamePurchased(string indexed ci...\n              DUP1 \t\t\tamePurchased(string indexed ci...\n              PUSH 6FDDE03\t\t\tamePurchased(string indexed ci...\n              EQ \t\t\tamePurchased(string indexed ci...\n              PUSH [tag] 4\t\t\tamePurchased(string indexed ci...\n              JUMPI \t\t\tamePurchased(string indexed ci...\n              DUP1 \t\t\tamePurchased(string indexed ci...\n              PUSH 81812FC\t\t\tamePurchased(string indexed ci...\n              EQ \t\t\tamePurchased(string indexed ci...\n              PUSH [tag] 5\t\t\tamePurchased(string indexed ci...\n              JUMPI \t\t\tamePurchased(string indexed ci...\n              DUP1 \t\t\tamePurchased(string indexed ci...\n              PUSH 95EA7B3\t\t\tamePurchased(string indexed ci...\n              EQ \t\t\tamePurchased(string indexed ci...\n              PUSH [tag] 6\t\t\tamePurchased(string indexed ci...\n              JUMPI \t\t\tamePurchased(string indexed ci...\n            tag 2\t\t\tamePurchased(string indexed ci...\n              JUMPDEST \t\t\tamePurchased(string indexed ci...\n              PUSH 0\t\t\tamePurchased(string indexed ci...\n              DUP1 \t\t\tamePurchased(string indexed ci...\n              REVERT \t\t\tamePurchased(string indexed ci...\n            tag 3\t\t\t     gameToken.mint(msg.sender...\n              JUMPDEST \t\t\t     gameToken.mint(msg.sender...\n              PUSH [tag] 23\t\t\t     gameToken.mint(msg.sender...\n              PUSH 4\t\t\t     gameToken.mint(msg.sender...\n              DUP1 \t\t\t     gameToken.mint(msg.sender...\n              CALLDATASIZE \t\t\t     gameToken.mint(msg.sender...\n              SUB \t\t\t     gameToken.mint(msg.sender...\n              DUP2 \t\t\t     gameToken.mint(msg.sender...\n              ADD \t\t\t     gameToken.mint(msg.sender...\n              SWAP1 \t\t\t     gameToken.mint(msg.sender...\n              PUSH [tag] 24\t\t\t     gameToken.mint(msg.sender...\n              SWAP2 \t\t\t     gameToken.mint(msg.sender...\n              SWAP1 \t\t\t     gameToken.mint(msg.sender...\n              PUSH [tag] 25\t\t\t     gameToken.mint(msg.sender...\n              JUMP \t\t\t     gameToken.mint(msg.sender...\n            tag 24\t\t\t     gameToken.mint(msg.sender...\n              JUMPDEST \t\t\t     gameToken.mint(msg.sender...\n              PUSH [tag] 26\t\t\t     gameToken.mint(msg.sender...\n              JUMP \t\t\t     gameToken.mint(msg.sender...\n            tag 23\t\t\t     gameToken.mint(msg.sender...\n              JUMPDEST \t\t\t     gameToken.mint(msg.sender...\n              PUSH 40\t\t\t     gameToken.mint(msg.sender...\n              MLOAD \t\t\t     gameToken.mint(msg.sender...\n              PUSH [tag] 27\t\t\t     gameToken.mint(msg.sender...\n              SWAP2 \t\t\t     gameToken.mint(msg.sender...\n              SWAP1 \t\t\t     gameToken.mint(msg.sender...\n              PUSH [tag] 28\t\t\t     gameToken.mint(msg.sender...\n              JUMP \t\t\t     gameToken.mint(msg.sender...\n            tag 27\t\t\t     gameToken.mint(msg.sender...\n              JUMPDEST \t\t\t     gameToken.mint(msg.sender...\n              PUSH 40\t\t\t     gameToken.mint(msg.sender...\n              MLOAD \t\t\t     gameToken.mint(msg.sender...\n              DUP1 \t\t\t     gameToken.mint(msg.sender...\n              SWAP2 \t\t\t     gameToken.mint(msg.sender...\n              SUB \t\t\t     gameToken.mint(msg.sender...\n              SWAP1 \t\t\t     gameToken.mint(msg.sender...\n              RETURN \t\t\t     gameToken.mint(msg.sender...\n            tag 4\t\t\tithdrawCreatorFunds() external...\n              JUMPDEST \t\t\tithdrawCreatorFunds() external...\n              PUSH [tag] 29\t\t\tithdrawCreatorFunds() external...\n              PUSH [tag] 30\t\t\tithdrawCreatorFunds() external...\n              JUMP \t\t\tithdrawCreatorFunds() external...\n            tag 29\t\t\tithdrawCreatorFunds() external...\n              JUMPDEST \t\t\tithdrawCreatorFunds() external...\n              PUSH 40\t\t\tithdrawCreatorFunds() external...\n              MLOAD \t\t\tithdrawCreatorFunds() external...\n              PUSH [tag] 31\t\t\tithdrawCreatorFunds() external...\n              SWAP2 \t\t\tithdrawCreatorFunds() external...\n              SWAP1 \t\t\tithdrawCreatorFunds() external...\n              PUSH [tag] 32\t\t\tithdrawCreatorFunds() external...\n              JUMP \t\t\tithdrawCreatorFunds() external...\n            tag 31\t\t\tithdrawCreatorFunds() external...\n              JUMPDEST \t\t\tithdrawCreatorFunds() external...\n              PUSH 40\t\t\tithdrawCreatorFunds() external...\n              MLOAD \t\t\tithdrawCreatorFunds() external...\n              DUP1 \t\t\tithdrawCreatorFunds() external...\n              SWAP2 \t\t\tithdrawCreatorFunds() external...\n              SUB \t\t\tithdrawCreatorFunds() external...\n              SWAP1 \t\t\tithdrawCreatorFunds() external...\n              RETURN \t\t\tithdrawCreatorFunds() external...\n            tag 5\t\t\tme[](cids.length);\\n        fo...\n              JUMPDEST \t\t\tme[](cids.length);\\n        fo...\n              PUSH [tag] 33\t\t\tme[](cids.length);\\n        fo...\n              PUSH 4\t\t\tme[](cids.length);\\n        fo...\n              DUP1 \t\t\tme[](cids.length);\\n        fo...\n              CALLDATASIZE \t\t\tme[](cids.length);\\n        fo...\n              SUB \t\t\tme[](cids.length);\\n        fo...\n              DUP2 \t\t\tme[](cids.length);\\n        fo...\n              ADD \t\t\tme[](cids.length);\\n        fo...\n              SWAP1 \t\t\tme[](cids.length);\\n        fo...\n              PUSH [tag] 34\t\t\tme[](cids.length);\\n        fo...\n              SWAP2 \t\t\tme[](cids.length);\\n        fo...\n              SWAP1 \t\t\tme[](cids.length);\\n        fo...\n              PUSH [tag] 35\t\t\tme[](cids.length);\\n        fo...\n              JUMP \t\t\tme[](cids.length);\\n        fo...\n            tag 34\t\t\tme[](cids.length);\\n        fo...\n              JUMPDEST \t\t\tme[](cids.length);\\n        fo...\n              PUSH [tag] 36\t\t\tme[](cids.length);\\n        fo...\n              JUMP \t\t\tme[](cids.length);\\n        fo...\n            tag 33\t\t\tme[](cids.length);\\n        fo...\n              JUMPDEST \t\t\tme[](cids.length);\\n        fo...\n              PUSH 40\t\t\tme[](cids.length);\\n        fo...\n              MLOAD \t\t\tme[](cids.length);\\n        fo...\n              PUSH [tag] 37\t\t\tme[](cids.length);\\n        fo...\n              SWAP2 \t\t\tme[](cids.length);\\n        fo...\n              SWAP1 \t\t\tme[](cids.length);\\n        fo...\n              PUSH [tag] 38\t\t\tme[](cids.length);\\n        fo...\n              JUMP \t\t\tme[](cids.length);\\n        fo...\n            tag 37\t\t\tme[](cids.length);\\n        fo...\n              JUMPDEST \t\t\tme[](cids.length);\\n        fo...\n              PUSH 40\t\t\tme[](cids.length);\\n        fo...\n              MLOAD \t\t\tme[](cids.length);\\n        fo...\n              DUP1 \t\t\tme[](cids.length);\\n        fo...\n              SWAP2 \t\t\tme[](cids.length);\\n        fo...\n              SUB \t\t\tme[](cids.length);\\n        fo...\n              SWAP1 \t\t\tme[](cids.length);\\n        fo...\n              RETURN \t\t\tme[](cids.length);\\n        fo...\n            tag 6\t\t\tkenAddress);\\n        return g...\n              JUMPDEST \t\t\tkenAddress);\\n        return g...\n              PUSH [tag] 39\t\t\tkenAddress);\\n        return g...\n              PUSH 4\t\t\tkenAddress);\\n        return g...\n              DUP1 \t\t\tkenAddress);\\n        return g...\n              CALLDATASIZE \t\t\tkenAddress);\\n        return g...\n              SUB \t\t\tkenAddress);\\n        return g...\n              DUP2 \t\t\tkenAddress);\\n        return g...\n              ADD \t\t\tkenAddress);\\n        return g...\n              SWAP1 \t\t\tkenAddress);\\n        return g...\n              PUSH [tag] 40\t\t\tkenAddress);\\n        return g...\n              SWAP2 \t\t\tkenAddress);\\n        return g...\n              SWAP1 \t\t\tkenAddress);\\n        return g...\n              PUSH [tag] 41\t\t\tkenAddress);\\n        return g...\n              JUMP \t\t\tkenAddress);\\n        return g...\n            tag 40\t\t\tkenAddress);\\n        return g...\n              JUMPDEST \t\t\tkenAddress);\\n        return g...\n              PUSH [tag] 42\t\t\tkenAddress);\\n        return g...\n              JUMP \t\t\tkenAddress);\\n        return g...\n            tag 39\t\t\tkenAddress);\\n        return g...\n              JUMPDEST \t\t\tkenAddress);\\n        return g...\n              STOP \t\t\tkenAddress);\\n        return g...\n            tag 7\t\t\t\n              JUMPDEST \t\t\t\n              PUSH [tag] 43\t\t\t\n              PUSH 4\t\t\t\n              DUP1 \t\t\t\n              CALLDATASIZE \t\t\t\n              SUB \t\t\t\n              DUP2 \t\t\t\n              ADD \t\t\t\n              SWAP1 \t\t\t\n              PUSH [tag] 44\t\t\t\n              SWAP2 \t\t\t\n              SWAP1 \t\t\t\n              PUSH [tag] 45\t\t\t\n              JUMP \t\t\t\n            tag 44\t\t\t\n              JUMPDEST \t\t\t\n              PUSH [tag] 46\t\t\t\n              JUMP \t\t\t\n            tag 43\t\t\t\n              JUMPDEST \t\t\t\n              STOP \t\t\t\n            tag 8\t\t\t\n              JUMPDEST \t\t\t\n              PUSH [tag] 47\t\t\t\n              PUSH 4\t\t\t\n              DUP1 \t\t\t\n              CALLDATASIZE \t\t\t\n              SUB \t\t\t\n              DUP2 \t\t\t\n              ADD \t\t\t\n              SWAP1 \t\t\t\n              PUSH [tag] 48\t\t\t\n              SWAP2 \t\t\t\n              SWAP1 \t\t\t\n              PUSH [tag] 45\t\t\t\n              JUMP \t\t\t\n            tag 48\t\t\t\n              JUMPDEST \t\t\t\n              PUSH [tag] 49\t\t\t\n              JUMP \t\t\t\n            tag 47\t\t\t\n              JUMPDEST \t\t\t\n              STOP \t\t\t\n            tag 9\t\t\tator] += _game.price;\\n       ...\n              JUMPDEST \t\t\tator] += _game.price;\\n       ...\n              PUSH [tag] 50\t\t\tator] += _game.price;\\n       ...\n              PUSH 4\t\t\tator] += _game.price;\\n       ...\n              DUP1 \t\t\tator] += _game.price;\\n       ...\n              CALLDATASIZE \t\t\tator] += _game.price;\\n       ...\n              SUB \t\t\tator] += _game.price;\\n       ...\n              DUP2 \t\t\tator] += _game.price;\\n       ...\n              ADD \t\t\tator] += _game.price;\\n       ...\n              SWAP1 \t\t\tator] += _game.price;\\n       ...\n              PUSH [tag] 51\t\t\tator] += _game.price;\\n       ...\n              SWAP2 \t\t\tator] += _game.price;\\n       ...\n              SWAP1 \t\t\tator] += _game.price;\\n       ...\n              PUSH [tag] 35\t\t\tator] += _game.price;\\n       ...\n              JUMP \t\t\tator] += _game.price;\\n       ...\n            tag 51\t\t\tator] += _game.price;\\n       ...\n              JUMPDEST \t\t\tator] += _game.price;\\n       ...\n              PUSH [tag] 52\t\t\tator] += _game.price;\\n       ...\n              JUMP \t\t\tator] += _game.price;\\n       ...\n            tag 50\t\t\tator] += _game.price;\\n       ...\n              JUMPDEST \t\t\tator] += _game.price;\\n       ...\n              PUSH 40\t\t\tator] += _game.price;\\n       ...\n              MLOAD \t\t\tator] += _game.price;\\n       ...\n              PUSH [tag] 53\t\t\tator] += _game.price;\\n       ...\n              SWAP2 \t\t\tator] += _game.price;\\n       ...\n              SWAP1 \t\t\tator] += _game.price;\\n       ...\n              PUSH [tag] 38\t\t\tator] += _game.price;\\n       ...\n              JUMP \t\t\tator] += _game.price;\\n       ...\n            tag 53\t\t\tator] += _game.price;\\n       ...\n              JUMPDEST \t\t\tator] += _game.price;\\n       ...\n              PUSH 40\t\t\tator] += _game.price;\\n       ...\n              MLOAD \t\t\tator] += _game.price;\\n       ...\n              DUP1 \t\t\tator] += _game.price;\\n       ...\n              SWAP2 \t\t\tator] += _game.price;\\n       ...\n              SUB \t\t\tator] += _game.price;\\n       ...\n              SWAP1 \t\t\tator] += _game.price;\\n       ...\n              RETURN \t\t\tator] += _game.price;\\n       ...\n            tag 10\t\t\ttoken;\\n        string name;\\n...\n              JUMPDEST \t\t\ttoken;\\n        string name;\\n...\n              PUSH [tag] 54\t\t\ttoken;\\n        string name;\\n...\n              PUSH 4\t\t\ttoken;\\n        string name;\\n...\n              DUP1 \t\t\ttoken;\\n        string name;\\n...\n              CALLDATASIZE \t\t\ttoken;\\n        string name;\\n...\n              SUB \t\t\ttoken;\\n        string name;\\n...\n              DUP2 \t\t\ttoken;\\n        string name;\\n...\n              ADD \t\t\ttoken;\\n        string name;\\n...\n              SWAP1 \t\t\ttoken;\\n        string name;\\n...\n              PUSH [tag] 55\t\t\ttoken;\\n        string name;\\n...\n              SWAP2 \t\t\ttoken;\\n        string name;\\n...\n              SWAP1 \t\t\ttoken;\\n        string name;\\n...\n              PUSH [tag] 56\t\t\ttoken;\\n        string name;\\n...\n              JUMP \t\t\ttoken;\\n        string name;\\n...\n            tag 55\t\t\ttoken;\\n        string name;\\n...\n              JUMPDEST \t\t\ttoken;\\n        string name;\\n...\n              PUSH [tag] 57\t\t\ttoken;\\n        string name;\\n...\n              JUMP \t\t\ttoken;\\n        string name;\\n...\n            tag 54\t\t\ttoken;\\n        string name;\\n...\n              JUMPDEST \t\t\ttoken;\\n        string name;\\n...\n              STOP \t\t\ttoken;\\n        string name;\\n...\n            tag 11\t\t\tnal payable {\\n        Game me...\n              JUMPDEST \t\t\tnal payable {\\n        Game me...\n              PUSH [tag] 58\t\t\tnal payable {\\n        Game me...\n              PUSH 4\t\t\tnal payable {\\n        Game me...\n              DUP1 \t\t\tnal payable {\\n        Game me...\n              CALLDATASIZE \t\t\tnal payable {\\n        Game me...\n              SUB \t\t\tnal payable {\\n        Game me...\n              DUP2 \t\t\tnal payable {\\n        Game me...\n              ADD \t\t\tnal payable {\\n        Game me...\n              SWAP1 \t\t\tnal payable {\\n        Game me...\n              PUSH [tag] 59\t\t\tnal payable {\\n        Game me...\n              SWAP2 \t\t\tnal payable {\\n        Game me...\n              SWAP1 \t\t\tnal payable {\\n        Game me...\n              PUSH [tag] 56\t\t\tnal payable {\\n        Game me...\n              JUMP \t\t\tnal payable {\\n        Game me...\n            tag 59\t\t\tnal payable {\\n        Game me...\n              JUMPDEST \t\t\tnal payable {\\n        Game me...\n              PUSH [tag] 60\t\t\tnal payable {\\n        Game me...\n              JUMP \t\t\tnal payable {\\n        Game me...\n            tag 58\t\t\tnal payable {\\n        Game me...\n              JUMPDEST \t\t\tnal payable {\\n        Game me...\n              PUSH 40\t\t\tnal payable {\\n        Game me...\n              MLOAD \t\t\tnal payable {\\n        Game me...\n              PUSH [tag] 61\t\t\tnal payable {\\n        Game me...\n              SWAP2 \t\t\tnal payable {\\n        Game me...\n              SWAP1 \t\t\tnal payable {\\n        Game me...\n              PUSH [tag] 62\t\t\tnal payable {\\n        Game me...\n              JUMP \t\t\tnal payable {\\n        Game me...\n            tag 61\t\t\tnal payable {\\n        Game me...\n              JUMPDEST \t\t\tnal payable {\\n        Game me...\n              PUSH 40\t\t\tnal payable {\\n        Game me...\n              MLOAD \t\t\tnal payable {\\n        Game me...\n              DUP1 \t\t\tnal payable {\\n        Game me...\n              SWAP2 \t\t\tnal payable {\\n        Game me...\n              SUB \t\t\tnal payable {\\n        Game me...\n              SWAP1 \t\t\tnal payable {\\n        Game me...\n              RETURN \t\t\tnal payable {\\n        Game me...\n            tag 12\t\t\tr);\\n\\n        emit GamePurcha...\n              JUMPDEST \t\t\tr);\\n\\n        emit GamePurcha...\n              PUSH [tag] 63\t\t\tr);\\n\\n        emit GamePurcha...\n              PUSH [tag] 64\t\t\tr);\\n\\n        emit GamePurcha...\n              JUMP \t\t\tr);\\n\\n        emit GamePurcha...\n            tag 63\t\t\tr);\\n\\n        emit GamePurcha...\n              JUMPDEST \t\t\tr);\\n\\n        emit GamePurcha...\n              STOP \t\t\tr);\\n\\n        emit GamePurcha...\n            tag 13\t\t\t.sender,\\n            _cid,\\n ...\n              JUMPDEST \t\t\t.sender,\\n            _cid,\\n ...\n              PUSH [tag] 65\t\t\t.sender,\\n            _cid,\\n ...\n              PUSH [tag] 66\t\t\t.sender,\\n            _cid,\\n ...\n              JUMP \t\t\t.sender,\\n            _cid,\\n ...\n            tag 65\t\t\t.sender,\\n            _cid,\\n ...\n              JUMPDEST \t\t\t.sender,\\n            _cid,\\n ...\n              PUSH 40\t\t\t.sender,\\n            _cid,\\n ...\n              MLOAD \t\t\t.sender,\\n            _cid,\\n ...\n              PUSH [tag] 67\t\t\t.sender,\\n            _cid,\\n ...\n              SWAP2 \t\t\t.sender,\\n            _cid,\\n ...\n              SWAP1 \t\t\t.sender,\\n            _cid,\\n ...\n              PUSH [tag] 38\t\t\t.sender,\\n            _cid,\\n ...\n              JUMP \t\t\t.sender,\\n            _cid,\\n ...\n            tag 67\t\t\t.sender,\\n            _cid,\\n ...\n              JUMPDEST \t\t\t.sender,\\n            _cid,\\n ...\n              PUSH 40\t\t\t.sender,\\n            _cid,\\n ...\n              MLOAD \t\t\t.sender,\\n            _cid,\\n ...\n              DUP1 \t\t\t.sender,\\n            _cid,\\n ...\n              SWAP2 \t\t\t.sender,\\n            _cid,\\n ...\n              SUB \t\t\t.sender,\\n            _cid,\\n ...\n              SWAP1 \t\t\t.sender,\\n            _cid,\\n ...\n              RETURN \t\t\t.sender,\\n            _cid,\\n ...\n            tag 14\t\t\tder).transfer(creatorbalance[m...\n              JUMPDEST \t\t\tder).transfer(creatorbalance[m...\n              PUSH [tag] 68\t\t\tder).transfer(creatorbalance[m...\n              PUSH [tag] 69\t\t\tder).transfer(creatorbalance[m...\n              JUMP \t\t\tder).transfer(creatorbalance[m...\n            tag 68\t\t\tder).transfer(creatorbalance[m...\n              JUMPDEST \t\t\tder).transfer(creatorbalance[m...\n              PUSH 40\t\t\tder).transfer(creatorbalance[m...\n              MLOAD \t\t\tder).transfer(creatorbalance[m...\n              PUSH [tag] 70\t\t\tder).transfer(creatorbalance[m...\n              SWAP2 \t\t\tder).transfer(creatorbalance[m...\n              SWAP1 \t\t\tder).transfer(creatorbalance[m...\n              PUSH [tag] 32\t\t\tder).transfer(creatorbalance[m...\n              JUMP \t\t\tder).transfer(creatorbalance[m...\n            tag 70\t\t\tder).transfer(creatorbalance[m...\n              JUMPDEST \t\t\tder).transfer(creatorbalance[m...\n              PUSH 40\t\t\tder).transfer(creatorbalance[m...\n              MLOAD \t\t\tder).transfer(creatorbalance[m...\n              DUP1 \t\t\tder).transfer(creatorbalance[m...\n              SWAP2 \t\t\tder).transfer(creatorbalance[m...\n              SUB \t\t\tder).transfer(creatorbalance[m...\n              SWAP1 \t\t\tder).transfer(creatorbalance[m...\n              RETURN \t\t\tder).transfer(creatorbalance[m...\n            tag 15\t\t\t  view\\n        returns (Game ...\n              JUMPDEST \t\t\t  view\\n        returns (Game ...\n              PUSH [tag] 71\t\t\t  view\\n        returns (Game ...\n              PUSH 4\t\t\t  view\\n        returns (Game ...\n              DUP1 \t\t\t  view\\n        returns (Game ...\n              CALLDATASIZE \t\t\t  view\\n        returns (Game ...\n              SUB \t\t\t  view\\n        returns (Game ...\n              DUP2 \t\t\t  view\\n        returns (Game ...\n              ADD \t\t\t  view\\n        returns (Game ...\n              SWAP1 \t\t\t  view\\n        returns (Game ...\n              PUSH [tag] 72\t\t\t  view\\n        returns (Game ...\n              SWAP2 \t\t\t  view\\n        returns (Game ...\n              SWAP1 \t\t\t  view\\n        returns (Game ...\n              PUSH [tag] 73\t\t\t  view\\n        returns (Game ...\n              JUMP \t\t\t  view\\n        returns (Game ...\n            tag 72\t\t\t  view\\n        returns (Game ...\n              JUMPDEST \t\t\t  view\\n        returns (Game ...\n              PUSH [tag] 74\t\t\t  view\\n        returns (Game ...\n              JUMP \t\t\t  view\\n        returns (Game ...\n            tag 71\t\t\t  view\\n        returns (Game ...\n              JUMPDEST \t\t\t  view\\n        returns (Game ...\n              STOP \t\t\t  view\\n        returns (Game ...\n            tag 16\t\t\t\n              JUMPDEST \t\t\t\n              PUSH [tag] 75\t\t\t\n              PUSH 4\t\t\t\n              DUP1 \t\t\t\n              CALLDATASIZE \t\t\t\n              SUB \t\t\t\n              DUP2 \t\t\t\n              ADD \t\t\t\n              SWAP1 \t\t\t\n              PUSH [tag] 76\t\t\t\n              SWAP2 \t\t\t\n              SWAP1 \t\t\t\n              PUSH [tag] 77\t\t\t\n              JUMP \t\t\t\n            tag 76\t\t\t\n              JUMPDEST \t\t\t\n              PUSH [tag] 78\t\t\t\n              JUMP \t\t\t\n            tag 75\t\t\t\n              JUMPDEST \t\t\t\n              STOP \t\t\t\n            tag 17\t\t\tate owner;\\n    uint256 privat...\n              JUMPDEST \t\t\tate owner;\\n    uint256 privat...\n              PUSH [tag] 79\t\t\tate owner;\\n    uint256 privat...\n              PUSH 4\t\t\tate owner;\\n    uint256 privat...\n              DUP1 \t\t\tate owner;\\n    uint256 privat...\n              CALLDATASIZE \t\t\tate owner;\\n    uint256 privat...\n              SUB \t\t\tate owner;\\n    uint256 privat...\n              DUP2 \t\t\tate owner;\\n    uint256 privat...\n              ADD \t\t\tate owner;\\n    uint256 privat...\n              SWAP1 \t\t\tate owner;\\n    uint256 privat...\n              PUSH [tag] 80\t\t\tate owner;\\n    uint256 privat...\n              SWAP2 \t\t\tate owner;\\n    uint256 privat...\n              SWAP1 \t\t\tate owner;\\n    uint256 privat...\n              PUSH [tag] 35\t\t\tate owner;\\n    uint256 privat...\n              JUMP \t\t\tate owner;\\n    uint256 privat...\n            tag 80\t\t\tate owner;\\n    uint256 privat...\n              JUMPDEST \t\t\tate owner;\\n    uint256 privat...\n              PUSH [tag] 81\t\t\tate owner;\\n    uint256 privat...\n              JUMP \t\t\tate owner;\\n    uint256 privat...\n            tag 79\t\t\tate owner;\\n    uint256 privat...\n              JUMPDEST \t\t\tate owner;\\n    uint256 privat...\n              PUSH 40\t\t\tate owner;\\n    uint256 privat...\n              MLOAD \t\t\tate owner;\\n    uint256 privat...\n              PUSH [tag] 82\t\t\tate owner;\\n    uint256 privat...\n              SWAP2 \t\t\tate owner;\\n    uint256 privat...\n              SWAP1 \t\t\tate owner;\\n    uint256 privat...\n              PUSH [tag] 32\t\t\tate owner;\\n    uint256 privat...\n              JUMP \t\t\tate owner;\\n    uint256 privat...\n            tag 82\t\t\tate owner;\\n    uint256 privat...\n              JUMPDEST \t\t\tate owner;\\n    uint256 privat...\n              PUSH 40\t\t\tate owner;\\n    uint256 privat...\n              MLOAD \t\t\tate owner;\\n    uint256 privat...\n              DUP1 \t\t\tate owner;\\n    uint256 privat...\n              SWAP2 \t\t\tate owner;\\n    uint256 privat...\n              SUB \t\t\tate owner;\\n    uint256 privat...\n              SWAP1 \t\t\tate owner;\\n    uint256 privat...\n              RETURN \t\t\tate owner;\\n    uint256 privat...\n            tag 18\t\t\ton getGameListLength() externa...\n              JUMPDEST \t\t\ton getGameListLength() externa...\n              PUSH [tag] 83\t\t\ton getGameListLength() externa...\n              PUSH 4\t\t\ton getGameListLength() externa...\n              DUP1 \t\t\ton getGameListLength() externa...\n              CALLDATASIZE \t\t\ton getGameListLength() externa...\n              SUB \t\t\ton getGameListLength() externa...\n              DUP2 \t\t\ton getGameListLength() externa...\n              ADD \t\t\ton getGameListLength() externa...\n              SWAP1 \t\t\ton getGameListLength() externa...\n              PUSH [tag] 84\t\t\ton getGameListLength() externa...\n              SWAP2 \t\t\ton getGameListLength() externa...\n              SWAP1 \t\t\ton getGameListLength() externa...\n              PUSH [tag] 85\t\t\ton getGameListLength() externa...\n              JUMP \t\t\ton getGameListLength() externa...\n            tag 84\t\t\ton getGameListLength() externa...\n              JUMPDEST \t\t\ton getGameListLength() externa...\n              PUSH [tag] 86\t\t\ton getGameListLength() externa...\n              JUMP \t\t\ton getGameListLength() externa...\n            tag 83\t\t\ton getGameListLength() externa...\n              JUMPDEST \t\t\ton getGameListLength() externa...\n              PUSH 40\t\t\ton getGameListLength() externa...\n              MLOAD \t\t\ton getGameListLength() externa...\n              PUSH [tag] 87\t\t\ton getGameListLength() externa...\n              SWAP2 \t\t\ton getGameListLength() externa...\n              SWAP1 \t\t\ton getGameListLength() externa...\n              PUSH [tag] 28\t\t\ton getGameListLength() externa...\n              JUMP \t\t\ton getGameListLength() externa...\n            tag 87\t\t\ton getGameListLength() externa...\n              JUMPDEST \t\t\ton getGameListLength() externa...\n              PUSH 40\t\t\ton getGameListLength() externa...\n              MLOAD \t\t\ton getGameListLength() externa...\n              DUP1 \t\t\ton getGameListLength() externa...\n              SWAP2 \t\t\ton getGameListLength() externa...\n              SUB \t\t\ton getGameListLength() externa...\n              SWAP1 \t\t\ton getGameListLength() externa...\n              RETURN \t\t\ton getGameListLength() externa...\n            tag 19\t\t\tnce[msg.sender]);\\n        cre...\n              JUMPDEST \t\t\tnce[msg.sender]);\\n        cre...\n              PUSH [tag] 88\t\t\tnce[msg.sender]);\\n        cre...\n              PUSH 4\t\t\tnce[msg.sender]);\\n        cre...\n              DUP1 \t\t\tnce[msg.sender]);\\n        cre...\n              CALLDATASIZE \t\t\tnce[msg.sender]);\\n        cre...\n              SUB \t\t\tnce[msg.sender]);\\n        cre...\n              DUP2 \t\t\tnce[msg.sender]);\\n        cre...\n              ADD \t\t\tnce[msg.sender]);\\n        cre...\n              SWAP1 \t\t\tnce[msg.sender]);\\n        cre...\n              PUSH [tag] 89\t\t\tnce[msg.sender]);\\n        cre...\n              SWAP2 \t\t\tnce[msg.sender]);\\n        cre...\n              SWAP1 \t\t\tnce[msg.sender]);\\n        cre...\n              PUSH [tag] 56\t\t\tnce[msg.sender]);\\n        cre...\n              JUMP \t\t\tnce[msg.sender]);\\n        cre...\n            tag 89\t\t\tnce[msg.sender]);\\n        cre...\n              JUMPDEST \t\t\tnce[msg.sender]);\\n        cre...\n              PUSH [tag] 90\t\t\tnce[msg.sender]);\\n        cre...\n              JUMP \t\t\tnce[msg.sender]);\\n        cre...\n            tag 88\t\t\tnce[msg.sender]);\\n        cre...\n              JUMPDEST \t\t\tnce[msg.sender]);\\n        cre...\n              STOP \t\t\tnce[msg.sender]);\\n        cre...\n            tag 26\t\t\t     gameToken.mint(msg.sender...\n              JUMPDEST \t\t\t     gameToken.mint(msg.sender...\n              PUSH 0\t\t\t,\\n  \n              PUSH 80AC58CD00000000000000000000000000000000000000000000000000000000\t\t\te,\\n            price,\\n   \n              PUSH FFFFFFFFFFFFFFFFFFFFFFFFFFFFFFFFFFFFFFFFFFFFFFFFFFFFFFFF\t\t\t           _name,\\n           ...\n              NOT \t\t\t           _name,\\n           ...\n              AND \t\t\t           _name,\\n           ...\n              DUP3 \t\t\t           \n              PUSH FFFFFFFFFFFFFFFFFFFFFFFFFFFFFFFFFFFFFFFFFFFFFFFFFFFFFFFF\t\t\t           _name,\\n           ...\n              NOT \t\t\t           _name,\\n           ...\n              AND \t\t\t           _name,\\n           ...\n              EQ \t\t\t           _name,\\n           ...\n              DUP1 \t\t\t           _name,\\n           ...\n              PUSH [tag] 92\t\t\t           _name,\\n           ...\n              JUMPI \t\t\t           _name,\\n           ...\n              POP \t\t\t           _name,\\n           ...\n              PUSH 5B5E139F00000000000000000000000000000000000000000000000000000000\t\t\t       cids.push(_cid);\\n     ...\n              PUSH FFFFFFFFFFFFFFFFFFFFFFFFFFFFFFFFFFFFFFFFFFFFFFFFFFFFFFFF\t\t\trl\\n        );\\n        cids.p...\n              NOT \t\t\trl\\n        );\\n        cids.p...\n              AND \t\t\trl\\n        );\\n        cids.p...\n              DUP3 \t\t\trl\\n        \n              PUSH FFFFFFFFFFFFFFFFFFFFFFFFFFFFFFFFFFFFFFFFFFFFFFFFFFFFFFFF\t\t\trl\\n        );\\n        cids.p...\n              NOT \t\t\trl\\n        );\\n        cids.p...\n              AND \t\t\trl\\n        );\\n        cids.p...\n              EQ \t\t\trl\\n        );\\n        cids.p...\n            tag 92\t\t\t           _name,\\n           ...\n              JUMPDEST \t\t\t           _name,\\n           ...\n              DUP1 \t\t\t           _name,\\n           ...\n              PUSH [tag] 93\t\t\t           _name,\\n           ...\n              JUMPI \t\t\t           _name,\\n           ...\n              POP \t\t\t           _name,\\n           ...\n              PUSH [tag] 94\t\t\tated(cids.length - 1, _cid, ad...\n              DUP3 \t\t\tid, address\n              PUSH [tag] 95\t\t\tated(cids.length - 1, _\n              JUMP \t\t\tated(cids.length - 1, _cid, ad...\n            tag 94\t\t\tated(cids.length - 1, _cid, ad...\n              JUMPDEST \t\t\tated(cids.length - 1, _cid, ad...\n            tag 93\t\t\t           _name,\\n           ...\n              JUMPDEST \t\t\t           _name,\\n           ...\n              SWAP1 \t\t\tdress(gameToken),\\n           ...\n              POP \t\t\tdress(gameToken),\\n           ...\n              SWAP2 \t\t\t     gameToken.mint(msg.sender...\n              SWAP1 \t\t\t     gameToken.mint(msg.sender...\n              POP \t\t\t     gameToken.mint(msg.sender...\n              JUMP \t\t\t     gameToken.mint(msg.sender...\n            tag 30\t\t\tithdrawCreatorFunds() external...\n              JUMPDEST \t\t\tithdrawCreatorFunds() external...\n              PUSH 60\t\t\tcreatorbalanc\n              PUSH 0\t\t\t {\\n  \n              DUP1 \t\t\t] == 0) {\\n  \n              SLOAD \t\t\t] == 0) {\\n  \n              PUSH [tag] 97\t\t\t] == 0) {\\n  \n              SWAP1 \t\t\t] == 0) {\\n  \n              PUSH [tag] 98\t\t\t] == 0) {\\n  \n              JUMP \t\t\t] == 0) {\\n  \n            tag 97\t\t\t] == 0) {\\n  \n              JUMPDEST \t\t\t] == 0) {\\n  \n              DUP1 \t\t\t] == 0) {\\n  \n              PUSH 1F\t\t\t] == 0) {\\n  \n              ADD \t\t\t] == 0) {\\n  \n              PUSH 20\t\t\t] == 0) {\\n  \n              DUP1 \t\t\t] == 0) {\\n  \n              SWAP2 \t\t\t] == 0) {\\n  \n              DIV \t\t\t] == 0) {\\n  \n              MUL \t\t\t] == 0) {\\n  \n              PUSH 20\t\t\t] == 0) {\\n  \n              ADD \t\t\t] == 0) {\\n  \n              PUSH 40\t\t\t] == 0) {\\n  \n              MLOAD \t\t\t] == 0) {\\n  \n              SWAP1 \t\t\t] == 0) {\\n  \n              DUP2 \t\t\t] == 0) {\\n  \n              ADD \t\t\t] == 0) {\\n  \n              PUSH 40\t\t\t] == 0) {\\n  \n              MSTORE \t\t\t] == 0) {\\n  \n              DUP1 \t\t\t] == 0) {\\n  \n              SWAP3 \t\t\t] == 0) {\\n  \n              SWAP2 \t\t\t] == 0) {\\n  \n              SWAP1 \t\t\t] == 0) {\\n  \n              DUP2 \t\t\t] == 0) {\\n  \n              DUP2 \t\t\t] == 0) {\\n  \n              MSTORE \t\t\t] == 0) {\\n  \n              PUSH 20\t\t\t] == 0) {\\n  \n              ADD \t\t\t] == 0) {\\n  \n              DUP3 \t\t\t] == 0) {\\n  \n              DUP1 \t\t\t] == 0) {\\n  \n              SLOAD \t\t\t] == 0) {\\n  \n              PUSH [tag] 99\t\t\t] == 0) {\\n  \n              SWAP1 \t\t\t] == 0) {\\n  \n              PUSH [tag] 98\t\t\t] == 0) {\\n  \n              JUMP \t\t\t] == 0) {\\n  \n            tag 99\t\t\t] == 0) {\\n  \n              JUMPDEST \t\t\t] == 0) {\\n  \n              DUP1 \t\t\t] == 0) {\\n  \n              ISZERO \t\t\t] == 0) {\\n  \n              PUSH [tag] 100\t\t\t] == 0) {\\n  \n              JUMPI \t\t\t] == 0) {\\n  \n              DUP1 \t\t\t] == 0) {\\n  \n              PUSH 1F\t\t\t] == 0) {\\n  \n              LT \t\t\t] == 0) {\\n  \n              PUSH [tag] 101\t\t\t] == 0) {\\n  \n              JUMPI \t\t\t] == 0) {\\n  \n              PUSH 100\t\t\t] == 0) {\\n  \n              DUP1 \t\t\t] == 0) {\\n  \n              DUP4 \t\t\t] == 0) {\\n  \n              SLOAD \t\t\t] == 0) {\\n  \n              DIV \t\t\t] == 0) {\\n  \n              MUL \t\t\t] == 0) {\\n  \n              DUP4 \t\t\t] == 0) {\\n  \n              MSTORE \t\t\t] == 0) {\\n  \n              SWAP2 \t\t\t] == 0) {\\n  \n              PUSH 20\t\t\t] == 0) {\\n  \n              ADD \t\t\t] == 0) {\\n  \n              SWAP2 \t\t\t] == 0) {\\n  \n              PUSH [tag] 100\t\t\t] == 0) {\\n  \n              JUMP \t\t\t] == 0) {\\n  \n            tag 101\t\t\t] == 0) {\\n  \n              JUMPDEST \t\t\t] == 0) {\\n  \n              DUP3 \t\t\t] == 0) {\\n  \n              ADD \t\t\t] == 0) {\\n  \n              SWAP2 \t\t\t] == 0) {\\n  \n              SWAP1 \t\t\t] == 0) {\\n  \n              PUSH 0\t\t\t] == 0) {\\n  \n              MSTORE \t\t\t] == 0) {\\n  \n              PUSH 20\t\t\t] == 0) {\\n  \n              PUSH 0\t\t\t] == 0) {\\n  \n              KECCAK256 \t\t\t] == 0) {\\n  \n              SWAP1 \t\t\t] == 0) {\\n  \n            tag 102\t\t\t] == 0) {\\n  \n              JUMPDEST \t\t\t] == 0) {\\n  \n              DUP2 \t\t\t] == 0) {\\n  \n              SLOAD \t\t\t] == 0) {\\n  \n              DUP2 \t\t\t] == 0) {\\n  \n              MSTORE \t\t\t] == 0) {\\n  \n              SWAP1 \t\t\t] == 0) {\\n  \n              PUSH 1\t\t\t] == 0) {\\n  \n              ADD \t\t\t] == 0) {\\n  \n              SWAP1 \t\t\t] == 0) {\\n  \n              PUSH 20\t\t\t] == 0) {\\n  \n              ADD \t\t\t] == 0) {\\n  \n              DUP1 \t\t\t] == 0) {\\n  \n              DUP4 \t\t\t] == 0) {\\n  \n              GT \t\t\t] == 0) {\\n  \n              PUSH [tag] 102\t\t\t] == 0) {\\n  \n              JUMPI \t\t\t] == 0) {\\n  \n              DUP3 \t\t\t] == 0) {\\n  \n              SWAP1 \t\t\t] == 0) {\\n  \n              SUB \t\t\t] == 0) {\\n  \n              PUSH 1F\t\t\t] == 0) {\\n  \n              AND \t\t\t] == 0) {\\n  \n              DUP3 \t\t\t] == 0) {\\n  \n              ADD \t\t\t] == 0) {\\n  \n              SWAP2 \t\t\t] == 0) {\\n  \n            tag 100\t\t\t] == 0) {\\n  \n              JUMPDEST \t\t\t] == 0) {\\n  \n              POP \t\t\t] == 0) {\\n  \n              POP \t\t\t] == 0) {\\n  \n              POP \t\t\t] == 0) {\\n  \n              POP \t\t\t] == 0) {\\n  \n              POP \t\t\t] == 0) {\\n  \n              SWAP1 \t\t\t] == 0) {\\n  \n              POP \t\t\t] == 0) {\\n  \n              SWAP1 \t\t\tithdrawCreatorFunds() external...\n              JUMP \t\t\tithdrawCreatorFunds() external...\n            tag 36\t\t\tme[](cids.length);\\n        fo...\n              JUMPDEST \t\t\tme[](cids.length);\\n        fo...\n              PUSH 0\t\t\t) {\\n   \n              PUSH [tag] 104\t\t\tmes[i] = games[cids[i]\n              DUP3 \t\t\t[cids[i\n              PUSH [tag] 105\t\t\tmes[i] = game\n              JUMP \t\t\tmes[i] = games[cids[i]\n            tag 104\t\t\tmes[i] = games[cids[i]\n              JUMPDEST \t\t\tmes[i] = games[cids[i]\n              POP \t\t\tmes[i] = games[cids[i]\n              PUSH [tag] 106\t\t\t    return _games;\\n  \n              DUP3 \t\t\tames;\\n \n              PUSH [tag] 107\t\t\t    return _\n              JUMP \t\t\t    return _games;\\n  \n            tag 106\t\t\t    return _games;\\n  \n              JUMPDEST \t\t\t    return _games;\\n  \n              SWAP1 \t\t\t}\\n\\n        return _games;\\n ...\n              POP \t\t\t}\\n\\n        return _games;\\n ...\n              SWAP2 \t\t\tme[](cids.length);\\n        fo...\n              SWAP1 \t\t\tme[](cids.length);\\n        fo...\n              POP \t\t\tme[](cids.length);\\n        fo...\n              JUMP \t\t\tme[](cids.length);\\n        fo...\n            tag 42\t\t\tkenAddress);\\n        return g...\n              JUMPDEST \t\t\tkenAddress);\\n        return g...\n              PUSH [tag] 109\t\t\t\\n\\n    function getGames() ex...\n              DUP3 \t\t\tct\n              DUP3 \t\t\tn getGa\n              PUSH [tag] 110\t\t\ts() external\n              PUSH [tag] 111\t\t\ts() extern\n              JUMP \t\t\ts() external\n            tag 110\t\t\ts() external\n              JUMPDEST \t\t\ts() external\n              PUSH [tag] 112\t\t\t\\n\\n    fu\n              JUMP \t\t\t\\n\\n    function getGames() ex...\n            tag 109\t\t\t\\n\\n    function getGames() ex...\n              JUMPDEST \t\t\t\\n\\n    function getGames() ex...\n              POP \t\t\tkenAddress);\\n        return g...\n              POP \t\t\tkenAddress);\\n        return g...\n              JUMP \t\t\tkenAddress);\\n        return g...\n            tag 46\t\t\t\n              JUMPDEST \t\t\t\n              PUSH 0\t\t\t\n              PUSH FFFFFFFFFFFFFFFFFFFFFFFFFFFFFFFFFFFFFFFF\t\t\t\n              AND \t\t\t\n              DUP3 \t\t\t\n              PUSH FFFFFFFFFFFFFFFFFFFFFFFFFFFFFFFFFFFFFFFF\t\t\t\n              AND \t\t\t\n              SUB \t\t\t\n              PUSH [tag] 114\t\t\t\n              JUMPI \t\t\t\n              PUSH 0\t\t\t\n              PUSH 40\t\t\t\n              MLOAD \t\t\t\n              PUSH 64A0AE9200000000000000000000000000000000000000000000000000000000\t\t\t\n              DUP2 \t\t\t\n              MSTORE \t\t\t\n              PUSH 4\t\t\t\n              ADD \t\t\t\n              PUSH [tag] 115\t\t\t\n              SWAP2 \t\t\t\n              SWAP1 \t\t\t\n              PUSH [tag] 38\t\t\t\n              JUMP \t\t\t\n            tag 115\t\t\t\n              JUMPDEST \t\t\t\n              PUSH 40\t\t\t\n              MLOAD \t\t\t\n              DUP1 \t\t\t\n              SWAP2 \t\t\t\n              SUB \t\t\t\n              SWAP1 \t\t\t\n              REVERT \t\t\t\n            tag 114\t\t\t\n              JUMPDEST \t\t\t\n              PUSH 0\t\t\t\n              PUSH [tag] 116\t\t\t\n              DUP4 \t\t\t\n              DUP4 \t\t\t\n              PUSH [tag] 117\t\t\t\n              PUSH [tag] 111\t\t\t\n              JUMP \t\t\t\n            tag 117\t\t\t\n              JUMPDEST \t\t\t\n              PUSH [tag] 118\t\t\t\n              JUMP \t\t\t\n            tag 116\t\t\t\n              JUMPDEST \t\t\t\n              SWAP1 \t\t\t\n              POP \t\t\t\n              DUP4 \t\t\t\n              PUSH FFFFFFFFFFFFFFFFFFFFFFFFFFFFFFFFFFFFFFFF\t\t\t\n              AND \t\t\t\n              DUP2 \t\t\t\n              PUSH FFFFFFFFFFFFFFFFFFFFFFFFFFFFFFFFFFFFFFFF\t\t\t\n              AND \t\t\t\n              EQ \t\t\t\n              PUSH [tag] 119\t\t\t\n              JUMPI \t\t\t\n              DUP4 \t\t\t\n              DUP3 \t\t\t\n              DUP3 \t\t\t\n              PUSH 40\t\t\t\n              MLOAD \t\t\t\n              PUSH 64283D7B00000000000000000000000000000000000000000000000000000000\t\t\t\n              DUP2 \t\t\t\n              MSTORE \t\t\t\n              PUSH 4\t\t\t\n              ADD \t\t\t\n              PUSH [tag] 120\t\t\t\n              SWAP4 \t\t\t\n              SWAP3 \t\t\t\n              SWAP2 \t\t\t\n              SWAP1 \t\t\t\n              PUSH [tag] 121\t\t\t\n              JUMP \t\t\t\n            tag 120\t\t\t\n              JUMPDEST \t\t\t\n              PUSH 40\t\t\t\n              MLOAD \t\t\t\n              DUP1 \t\t\t\n              SWAP2 \t\t\t\n              SUB \t\t\t\n              SWAP1 \t\t\t\n              REVERT \t\t\t\n            tag 119\t\t\t\n              JUMPDEST \t\t\t\n              POP \t\t\t\n              POP \t\t\t\n              POP \t\t\t\n              POP \t\t\t\n              JUMP \t\t\t\n            tag 49\t\t\t\n              JUMPDEST \t\t\t\n              PUSH [tag] 123\t\t\t\n              DUP4 \t\t\t\n              DUP4 \t\t\t\n              DUP4 \t\t\t\n              PUSH 40\t\t\t\n              MLOAD \t\t\t\n              DUP1 \t\t\t\n              PUSH 20\t\t\t\n              ADD \t\t\t\n              PUSH 40\t\t\t\n              MSTORE \t\t\t\n              DUP1 \t\t\t\n              PUSH 0\t\t\t\n              DUP2 \t\t\t\n              MSTORE \t\t\t\n              POP \t\t\t\n              PUSH [tag] 78\t\t\t\n              JUMP \t\t\t\n            tag 123\t\t\t\n              JUMPDEST \t\t\t\n              POP \t\t\t\n              POP \t\t\t\n              POP \t\t\t\n              JUMP \t\t\t\n            tag 52\t\t\tator] += _game.price;\\n       ...\n              JUMPDEST \t\t\tator] += _game.price;\\n       ...\n              PUSH 0\t\t\tgame.to\n              PUSH [tag] 125\t\t\token.mint(msg.sender);\n              DUP3 \t\t\tsender)\n              PUSH [tag] 105\t\t\token.mint(msg\n              JUMP \t\t\token.mint(msg.sender);\n            tag 125\t\t\token.mint(msg.sender);\n              JUMPDEST \t\t\token.mint(msg.sender);\n              SWAP1 \t\t\t  gameToken.mint(msg.sender);\n              POP \t\t\t  gameToken.mint(msg.sender);\n              SWAP2 \t\t\tator] += _game.price;\\n       ...\n              SWAP1 \t\t\tator] += _game.price;\\n       ...\n              POP \t\t\tator] += _game.price;\\n       ...\n              JUMP \t\t\tator] += _game.price;\\n       ...\n            tag 57\t\t\ttoken;\\n        string name;\\n...\n              JUMPDEST \t\t\ttoken;\\n        string name;\\n...\n              PUSH [tag] 127\t\t\tname, _symbol\n              PUSH [tag] 128\t\t\tname, _symb\n              JUMP \t\t\tname, _symbol\n            tag 127\t\t\tname, _symbol\n              JUMPDEST \t\t\tname, _symbol\n              PUSH [tag] 130\t\t\t      string ima\n              DUP2 \t\t\tst\n              PUSH 7\t\t\tng im\n              SLOAD \t\t\tng im\n              PUSH [tag] 131\t\t\t     \n              JUMP \t\t\t      string ima\n            tag 130\t\t\t      string ima\n              JUMPDEST \t\t\t      string ima\n              PUSH 7\t\t\t }\\n\\n \n              PUSH 0\t\t\t }\\n\\n \n              DUP2 \t\t\t }\\n\\n   \n              SLOAD \t\t\t }\\n\\n   \n              DUP1 \t\t\t }\\n\\n   \n              SWAP3 \t\t\t }\\n\\n   \n              SWAP2 \t\t\t }\\n\\n   \n              SWAP1 \t\t\t }\\n\\n   \n              PUSH [tag] 132\t\t\t }\\n\\n   \n              SWAP1 \t\t\t }\\n\\n   \n              PUSH [tag] 133\t\t\t }\\n\\n   \n              JUMP \t\t\t }\\n\\n   \n            tag 132\t\t\t }\\n\\n   \n              JUMPDEST \t\t\t }\\n\\n   \n              SWAP2 \t\t\t }\\n\\n   \n              SWAP1 \t\t\t }\\n\\n   \n              POP \t\t\t }\\n\\n   \n              SSTORE \t\t\t }\\n\\n   \n              POP \t\t\t }\\n\\n   \n              POP \t\t\ttoken;\\n        string name;\\n...\n              JUMP \t\t\ttoken;\\n        string name;\\n...\n            tag 60\t\t\tnal payable {\\n        Game me...\n              JUMPDEST \t\t\tnal payable {\\n        Game me...\n              PUSH 0\t\t\t if (_g\n              DUP1 \t\t\t \n              PUSH FFFFFFFFFFFFFFFFFFFFFFFFFFFFFFFFFFFFFFFF\t\t\tddress(0)) {\\n      \n              AND \t\t\tddress(0)) {\\n      \n              DUP3 \t\t\tddres\n              PUSH FFFFFFFFFFFFFFFFFFFFFFFFFFFFFFFFFFFFFFFF\t\t\tddress(0)) {\\n      \n              AND \t\t\tddress(0)) {\\n      \n              SUB \t\t\tddress(0)) {\\n      \n              PUSH [tag] 135\t\t\t== address(0)) {\\n            ...\n              JUMPI \t\t\t== address(0)) {\\n            ...\n              PUSH 0\t\t\t(\n              PUSH 40\t\t\te();\\n        }\\n\\n        if ...\n              MLOAD \t\t\te();\\n        }\\n\\n        if ...\n              PUSH 89C62B6400000000000000000000000000000000000000000000000000000000\t\t\te();\\n        }\\n\\n        if ...\n              DUP2 \t\t\te();\\n        }\\n\\n        if ...\n              MSTORE \t\t\te();\\n        }\\n\\n        if ...\n              PUSH 4\t\t\te();\\n        }\\n\\n        if ...\n              ADD \t\t\te();\\n        }\\n\\n        if ...\n              PUSH [tag] 136\t\t\te();\\n        }\\n\\n        if ...\n              SWAP2 \t\t\te();\\n        }\\n\\n        if ...\n              SWAP1 \t\t\te();\\n        }\\n\\n        if ...\n              PUSH [tag] 38\t\t\te();\\n        }\\n\\n        if ...\n              JUMP \t\t\te();\\n        }\\n\\n        if ...\n            tag 136\t\t\te();\\n        }\\n\\n        if ...\n              JUMPDEST \t\t\te();\\n        }\\n\\n        if ...\n              PUSH 40\t\t\te();\\n        }\\n\\n        if ...\n              MLOAD \t\t\te();\\n        }\\n\\n        if ...\n              DUP1 \t\t\te();\\n        }\\n\\n        if ...\n              SWAP2 \t\t\te();\\n        }\\n\\n        if ...\n              SUB \t\t\te();\\n        }\\n\\n        if ...\n              SWAP1 \t\t\te();\\n        }\\n\\n        if ...\n              REVERT \t\t\te();\\n        }\\n\\n        if ...\n            tag 135\t\t\t== address(0)) {\\n            ...\n              JUMPDEST \t\t\t== address(0)) {\\n            ...\n              PUSH 3\t\t\t         \n              PUSH 0\t\t\t          revert\n              DUP4 \t\t\trever\n              PUSH FFFFFFFFFFFFFFFFFFFFFFFFFFFFFFFFFFFFFFFF\t\t\t          revert\n              AND \t\t\t          revert\n              PUSH FFFFFFFFFFFFFFFFFFFFFFFFFFFFFFFFFFFFFFFF\t\t\t          revert\n              AND \t\t\t          revert\n              DUP2 \t\t\t          revert\n              MSTORE \t\t\t          revert\n              PUSH 20\t\t\t          revert\n              ADD \t\t\t          revert\n              SWAP1 \t\t\t          revert\n              DUP2 \t\t\t          revert\n              MSTORE \t\t\t          revert\n              PUSH 20\t\t\t          revert\n              ADD \t\t\t          revert\n              PUSH 0\t\t\t          revert\n              KECCAK256 \t\t\t          revert\n              SLOAD \t\t\t          revert\n              SWAP1 \t\t\te) {\\n            revert\n              POP \t\t\te) {\\n            revert\n              SWAP2 \t\t\tnal payable {\\n        Game me...\n              SWAP1 \t\t\tnal payable {\\n        Game me...\n              POP \t\t\tnal payable {\\n        Game me...\n              JUMP \t\t\tnal payable {\\n        Game me...\n            tag 64\t\t\tr);\\n\\n        emit GamePurcha...\n              JUMPDEST \t\t\tr);\\n\\n        emit GamePurcha...\n              PUSH [tag] 138\t\t\tname, _symbol\n              PUSH [tag] 128\t\t\tname, _symb\n              JUMP \t\t\tname, _symbol\n            tag 138\t\t\tname, _symbol\n              JUMPDEST \t\t\tname, _symbol\n              PUSH [tag] 140\t\t\tnction withdrawCreatorFunds() \n              PUSH 0\t\t\t(\n              PUSH [tag] 141\t\t\tnction withdrawCre\n              JUMP \t\t\tnction withdrawCreatorFunds() \n            tag 140\t\t\tnction withdrawCreatorFunds() \n              JUMPDEST \t\t\tnction withdrawCreatorFunds() \n              JUMP \t\t\tr);\\n\\n        emit GamePurcha...\n            tag 66\t\t\t.sender,\\n            _cid,\\n ...\n              JUMPDEST \t\t\t.sender,\\n            _cid,\\n ...\n              PUSH 0\t\t\t(gameTo\n              PUSH 6\t\t\tname,\\n\n              PUSH 0\t\t\tname,\\n\n              SWAP1 \t\t\tname,\\n\n              SLOAD \t\t\tname,\\n\n              SWAP1 \t\t\tname,\\n\n              PUSH 100\t\t\tname,\\n\n              EXP \t\t\tname,\\n\n              SWAP1 \t\t\tname,\\n\n              DIV \t\t\tname,\\n\n              PUSH FFFFFFFFFFFFFFFFFFFFFFFFFFFFFFFFFFFFFFFF\t\t\tname,\\n\n              AND \t\t\tname,\\n\n              SWAP1 \t\t\t      _name,\\n\n              POP \t\t\t      _name,\\n\n              SWAP1 \t\t\t.sender,\\n            _cid,\\n ...\n              JUMP \t\t\t.sender,\\n            _cid,\\n ...\n            tag 69\t\t\tder).transfer(creatorbalance[m...\n              JUMPDEST \t\t\tder).transfer(creatorbalance[m...\n              PUSH 60\t\t\t    creatorba\n              PUSH 1\t\t\t 0;\\n\\n  \n              DUP1 \t\t\tnder] = 0;\\n\\n  \n              SLOAD \t\t\tnder] = 0;\\n\\n  \n              PUSH [tag] 144\t\t\tnder] = 0;\\n\\n  \n              SWAP1 \t\t\tnder] = 0;\\n\\n  \n              PUSH [tag] 98\t\t\tnder] = 0;\\n\\n  \n              JUMP \t\t\tnder] = 0;\\n\\n  \n            tag 144\t\t\tnder] = 0;\\n\\n  \n              JUMPDEST \t\t\tnder] = 0;\\n\\n  \n              DUP1 \t\t\tnder] = 0;\\n\\n  \n              PUSH 1F\t\t\tnder] = 0;\\n\\n  \n              ADD \t\t\tnder] = 0;\\n\\n  \n              PUSH 20\t\t\tnder] = 0;\\n\\n  \n              DUP1 \t\t\tnder] = 0;\\n\\n  \n              SWAP2 \t\t\tnder] = 0;\\n\\n  \n              DIV \t\t\tnder] = 0;\\n\\n  \n              MUL \t\t\tnder] = 0;\\n\\n  \n              PUSH 20\t\t\tnder] = 0;\\n\\n  \n              ADD \t\t\tnder] = 0;\\n\\n  \n              PUSH 40\t\t\tnder] = 0;\\n\\n  \n              MLOAD \t\t\tnder] = 0;\\n\\n  \n              SWAP1 \t\t\tnder] = 0;\\n\\n  \n              DUP2 \t\t\tnder] = 0;\\n\\n  \n              ADD \t\t\tnder] = 0;\\n\\n  \n              PUSH 40\t\t\tnder] = 0;\\n\\n  \n              MSTORE \t\t\tnder] = 0;\\n\\n  \n              DUP1 \t\t\tnder] = 0;\\n\\n  \n              SWAP3 \t\t\tnder] = 0;\\n\\n  \n              SWAP2 \t\t\tnder] = 0;\\n\\n  \n              SWAP1 \t\t\tnder] = 0;\\n\\n  \n              DUP2 \t\t\tnder] = 0;\\n\\n  \n              DUP2 \t\t\tnder] = 0;\\n\\n  \n              MSTORE \t\t\tnder] = 0;\\n\\n  \n              PUSH 20\t\t\tnder] = 0;\\n\\n  \n              ADD \t\t\tnder] = 0;\\n\\n  \n              DUP3 \t\t\tnder] = 0;\\n\\n  \n              DUP1 \t\t\tnder] = 0;\\n\\n  \n              SLOAD \t\t\tnder] = 0;\\n\\n  \n              PUSH [tag] 145\t\t\tnder] = 0;\\n\\n  \n              SWAP1 \t\t\tnder] = 0;\\n\\n  \n              PUSH [tag] 98\t\t\tnder] = 0;\\n\\n  \n              JUMP \t\t\tnder] = 0;\\n\\n  \n            tag 145\t\t\tnder] = 0;\\n\\n  \n              JUMPDEST \t\t\tnder] = 0;\\n\\n  \n              DUP1 \t\t\tnder] = 0;\\n\\n  \n              ISZERO \t\t\tnder] = 0;\\n\\n  \n              PUSH [tag] 146\t\t\tnder] = 0;\\n\\n  \n              JUMPI \t\t\tnder] = 0;\\n\\n  \n              DUP1 \t\t\tnder] = 0;\\n\\n  \n              PUSH 1F\t\t\tnder] = 0;\\n\\n  \n              LT \t\t\tnder] = 0;\\n\\n  \n              PUSH [tag] 147\t\t\tnder] = 0;\\n\\n  \n              JUMPI \t\t\tnder] = 0;\\n\\n  \n              PUSH 100\t\t\tnder] = 0;\\n\\n  \n              DUP1 \t\t\tnder] = 0;\\n\\n  \n              DUP4 \t\t\tnder] = 0;\\n\\n  \n              SLOAD \t\t\tnder] = 0;\\n\\n  \n              DIV \t\t\tnder] = 0;\\n\\n  \n              MUL \t\t\tnder] = 0;\\n\\n  \n              DUP4 \t\t\tnder] = 0;\\n\\n  \n              MSTORE \t\t\tnder] = 0;\\n\\n  \n              SWAP2 \t\t\tnder] = 0;\\n\\n  \n              PUSH 20\t\t\tnder] = 0;\\n\\n  \n              ADD \t\t\tnder] = 0;\\n\\n  \n              SWAP2 \t\t\tnder] = 0;\\n\\n  \n              PUSH [tag] 146\t\t\tnder] = 0;\\n\\n  \n              JUMP \t\t\tnder] = 0;\\n\\n  \n            tag 147\t\t\tnder] = 0;\\n\\n  \n              JUMPDEST \t\t\tnder] = 0;\\n\\n  \n              DUP3 \t\t\tnder] = 0;\\n\\n  \n              ADD \t\t\tnder] = 0;\\n\\n  \n              SWAP2 \t\t\tnder] = 0;\\n\\n  \n              SWAP1 \t\t\tnder] = 0;\\n\\n  \n              PUSH 0\t\t\tnder] = 0;\\n\\n  \n              MSTORE \t\t\tnder] = 0;\\n\\n  \n              PUSH 20\t\t\tnder] = 0;\\n\\n  \n              PUSH 0\t\t\tnder] = 0;\\n\\n  \n              KECCAK256 \t\t\tnder] = 0;\\n\\n  \n              SWAP1 \t\t\tnder] = 0;\\n\\n  \n            tag 148\t\t\tnder] = 0;\\n\\n  \n              JUMPDEST \t\t\tnder] = 0;\\n\\n  \n              DUP2 \t\t\tnder] = 0;\\n\\n  \n              SLOAD \t\t\tnder] = 0;\\n\\n  \n              DUP2 \t\t\tnder] = 0;\\n\\n  \n              MSTORE \t\t\tnder] = 0;\\n\\n  \n              SWAP1 \t\t\tnder] = 0;\\n\\n  \n              PUSH 1\t\t\tnder] = 0;\\n\\n  \n              ADD \t\t\tnder] = 0;\\n\\n  \n              SWAP1 \t\t\tnder] = 0;\\n\\n  \n              PUSH 20\t\t\tnder] = 0;\\n\\n  \n              ADD \t\t\tnder] = 0;\\n\\n  \n              DUP1 \t\t\tnder] = 0;\\n\\n  \n              DUP4 \t\t\tnder] = 0;\\n\\n  \n              GT \t\t\tnder] = 0;\\n\\n  \n              PUSH [tag] 148\t\t\tnder] = 0;\\n\\n  \n              JUMPI \t\t\tnder] = 0;\\n\\n  \n              DUP3 \t\t\tnder] = 0;\\n\\n  \n              SWAP1 \t\t\tnder] = 0;\\n\\n  \n              SUB \t\t\tnder] = 0;\\n\\n  \n              PUSH 1F\t\t\tnder] = 0;\\n\\n  \n              AND \t\t\tnder] = 0;\\n\\n  \n              DUP3 \t\t\tnder] = 0;\\n\\n  \n              ADD \t\t\tnder] = 0;\\n\\n  \n              SWAP2 \t\t\tnder] = 0;\\n\\n  \n            tag 146\t\t\tnder] = 0;\\n\\n  \n              JUMPDEST \t\t\tnder] = 0;\\n\\n  \n              POP \t\t\tnder] = 0;\\n\\n  \n              POP \t\t\tnder] = 0;\\n\\n  \n              POP \t\t\tnder] = 0;\\n\\n  \n              POP \t\t\tnder] = 0;\\n\\n  \n              POP \t\t\tnder] = 0;\\n\\n  \n              SWAP1 \t\t\tnder] = 0;\\n\\n  \n              POP \t\t\tnder] = 0;\\n\\n  \n              SWAP1 \t\t\tder).transfer(creatorbalance[m...\n              JUMP \t\t\tder).transfer(creatorbalance[m...\n            tag 74\t\t\t  view\\n        returns (Game ...\n              JUMPDEST \t\t\t  view\\n        returns (Game ...\n              PUSH [tag] 150\t\t\t       if (_game.creator == ad...\n              PUSH [tag] 151\t\t\teator == add\n              PUSH [tag] 111\t\t\teator == a\n              JUMP \t\t\teator == add\n            tag 151\t\t\teator == add\n              JUMPDEST \t\t\teator == add\n              DUP4 \t\t\tss(0)) {\n              DUP4 \t\t\t        \n              PUSH [tag] 152\t\t\t       if (_game.c\n              JUMP \t\t\t       if (_game.creator == ad...\n            tag 150\t\t\t       if (_game.creator == ad...\n              JUMPDEST \t\t\t       if (_game.creator == ad...\n              POP \t\t\t  view\\n        returns (Game ...\n              POP \t\t\t  view\\n        returns (Game ...\n              JUMP \t\t\t  view\\n        returns (Game ...\n            tag 78\t\t\t\n              JUMPDEST \t\t\t\n              PUSH [tag] 154\t\t\t\n              DUP5 \t\t\t\n              DUP5 \t\t\t\n              DUP5 \t\t\t\n              PUSH [tag] 46\t\t\t\n              JUMP \t\t\t\n            tag 154\t\t\t\n              JUMPDEST \t\t\t\n              PUSH [tag] 155\t\t\t\n              DUP5 \t\t\t\n              DUP5 \t\t\t\n              DUP5 \t\t\t\n              DUP5 \t\t\t\n              PUSH [tag] 156\t\t\t\n              JUMP \t\t\t\n            tag 155\t\t\t\n              JUMPDEST \t\t\t\n              POP \t\t\t\n              POP \t\t\t\n              POP \t\t\t\n              POP \t\t\t\n              JUMP \t\t\t\n            tag 81\t\t\tate owner;\\n    uint256 privat...\n              JUMPDEST \t\t\tate owner;\\n    uint256 privat...\n              PUSH 60\t\t\tprivate cids;\n              PUSH [tag] 158\t\t\tdress => uint256) priv\n              DUP3 \t\t\t56) pri\n              PUSH [tag] 105\t\t\tdress => uint\n              JUMP \t\t\tdress => uint256) priv\n            tag 158\t\t\tdress => uint256) priv\n              JUMPDEST \t\t\tdress => uint256) priv\n              POP \t\t\tdress => uint256) priv\n              PUSH [tag] 159\t\t\tprivate\\n        pure\\n       ...\n              PUSH [tag] 160\t\t\ti.enco\n              PUSH [tag] 30\t\t\ti.en\n              JUMP \t\t\ti.enco\n            tag 160\t\t\ti.enco\n              JUMPDEST \t\t\ti.enco\n              PUSH [tag] 161\t\t\t,\\n    \n              PUSH [tag] 30\t\t\t,\\n  \n              JUMP \t\t\t,\\n    \n            tag 161\t\t\t,\\n    \n              JUMPDEST \t\t\t,\\n    \n              PUSH 8\t\t\txtern\n              PUSH 40\t\t\temory byteArray;\\n        for ...\n              MLOAD \t\t\temory byteArray;\\n        for ...\n              PUSH 20\t\t\temory byteArray;\\n        for ...\n              ADD \t\t\temory byteArray;\\n        for ...\n              PUSH [tag] 162\t\t\temory byteArray;\\n        for ...\n              SWAP4 \t\t\temory byteArray;\\n        for ...\n              SWAP3 \t\t\temory byteArray;\\n        for ...\n              SWAP2 \t\t\temory byteArray;\\n        for ...\n              SWAP1 \t\t\temory byteArray;\\n        for ...\n              PUSH [tag] 163\t\t\temory byteArray;\\n        for ...\n              JUMP \t\t\temory byteArray;\\n        for ...\n            tag 162\t\t\temory byteArray;\\n        for ...\n              JUMPDEST \t\t\temory byteArray;\\n        for ...\n              PUSH 40\t\t\temory byteArray;\\n        for ...\n              MLOAD \t\t\temory byteArray;\\n        for ...\n              PUSH 20\t\t\temory byteArray;\\n        for ...\n              DUP2 \t\t\temory byteArray;\\n        for ...\n              DUP4 \t\t\temory byteArray;\\n        for ...\n              SUB \t\t\temory byteArray;\\n        for ...\n              SUB \t\t\temory byteArray;\\n        for ...\n              DUP2 \t\t\temory byteArray;\\n        for ...\n              MSTORE \t\t\temory byteArray;\\n        for ...\n              SWAP1 \t\t\temory byteArray;\\n        for ...\n              PUSH 40\t\t\temory byteArray;\\n        for ...\n              MSTORE \t\t\temory byteArray;\\n        for ...\n              PUSH [tag] 164\t\t\tprivate\\n     \n              JUMP \t\t\tprivate\\n        pure\\n       ...\n            tag 159\t\t\tprivate\\n        pure\\n       ...\n              JUMPDEST \t\t\tprivate\\n        pure\\n       ...\n              PUSH 40\t\t\tt bytes32 array to string\\n   ...\n              MLOAD \t\t\tt bytes32 array to string\\n   ...\n              PUSH 20\t\t\tt bytes32 array to string\\n   ...\n              ADD \t\t\tt bytes32 array to string\\n   ...\n              PUSH [tag] 165\t\t\tt bytes32 array to string\\n   ...\n              SWAP2 \t\t\tt bytes32 array to string\\n   ...\n              SWAP1 \t\t\tt bytes32 array to string\\n   ...\n              PUSH [tag] 166\t\t\tt bytes32 array to string\\n   ...\n              JUMP \t\t\tt bytes32 array to string\\n   ...\n            tag 165\t\t\tt bytes32 array to string\\n   ...\n              JUMPDEST \t\t\tt bytes32 array to string\\n   ...\n              PUSH 40\t\t\tt bytes32 array to string\\n   ...\n              MLOAD \t\t\tt bytes32 array to string\\n   ...\n              PUSH 20\t\t\tt bytes32 array to string\\n   ...\n              DUP2 \t\t\tt bytes32 array to string\\n   ...\n              DUP4 \t\t\tt bytes32 array to string\\n   ...\n              SUB \t\t\tt bytes32 array to string\\n   ...\n              SUB \t\t\tt bytes32 array to string\\n   ...\n              DUP2 \t\t\tt bytes32 array to string\\n   ...\n              MSTORE \t\t\tt bytes32 array to string\\n   ...\n              SWAP1 \t\t\tt bytes32 array to string\\n   ...\n              PUSH 40\t\t\tt bytes32 array to string\\n   ...\n              MSTORE \t\t\tt bytes32 array to string\\n   ...\n              SWAP1 \t\t\trbalance;\\n\\n    // Helper fun...\n              POP \t\t\trbalance;\\n\\n    // Helper fun...\n              SWAP2 \t\t\tate owner;\\n    uint256 privat...\n              SWAP1 \t\t\tate owner;\\n    uint256 privat...\n              POP \t\t\tate owner;\\n    uint256 privat...\n              JUMP \t\t\tate owner;\\n    uint256 privat...\n            tag 86\t\t\ton getGameListLength() externa...\n              JUMPDEST \t\t\ton getGameListLength() externa...\n              PUSH 0\t\t\t }\\n}\n              PUSH 5\t\t\t\n              PUSH 0\t\t\t\n              DUP5 \t\t\t\n              PUSH FFFFFFFFFFFFFFFFFFFFFFFFFFFFFFFFFFFFFFFF\t\t\t\n              AND \t\t\t\n              PUSH FFFFFFFFFFFFFFFFFFFFFFFFFFFFFFFFFFFFFFFF\t\t\t\n              AND \t\t\t\n              DUP2 \t\t\t\n              MSTORE \t\t\t\n              PUSH 20\t\t\t\n              ADD \t\t\t\n              SWAP1 \t\t\t\n              DUP2 \t\t\t\n              MSTORE \t\t\t\n              PUSH 20\t\t\t\n              ADD \t\t\t\n              PUSH 0\t\t\t\n              KECCAK256 \t\t\t\n              PUSH 0\t\t\t\n              DUP4 \t\t\t\n              PUSH FFFFFFFFFFFFFFFFFFFFFFFFFFFFFFFFFFFFFFFF\t\t\t\n              AND \t\t\t\n              PUSH FFFFFFFFFFFFFFFFFFFFFFFFFFFFFFFFFFFFFFFF\t\t\t\n              AND \t\t\t\n              DUP2 \t\t\t\n              MSTORE \t\t\t\n              PUSH 20\t\t\t\n              ADD \t\t\t\n              SWAP1 \t\t\t\n              DUP2 \t\t\t\n              MSTORE \t\t\t\n              PUSH 20\t\t\t\n              ADD \t\t\t\n              PUSH 0\t\t\t\n              KECCAK256 \t\t\t\n              PUSH 0\t\t\t\n              SWAP1 \t\t\t\n              SLOAD \t\t\t\n              SWAP1 \t\t\t\n              PUSH 100\t\t\t\n              EXP \t\t\t\n              SWAP1 \t\t\t\n              DIV \t\t\t\n              PUSH FF\t\t\t\n              AND \t\t\t\n              SWAP1 \t\t\t\n              POP \t\t\t\n              SWAP3 \t\t\ton getGameListLength() externa...\n              SWAP2 \t\t\ton getGameListLength() externa...\n              POP \t\t\ton getGameListLength() externa...\n              POP \t\t\ton getGameListLength() externa...\n              JUMP \t\t\ton getGameListLength() externa...\n            tag 90\t\t\tnce[msg.sender]);\\n        cre...\n              JUMPDEST \t\t\tnce[msg.sender]);\\n        cre...\n              PUSH [tag] 169\t\t\tname, _symbol\n              PUSH [tag] 128\t\t\tname, _symb\n              JUMP \t\t\tname, _symbol\n            tag 169\t\t\tname, _symbol\n              JUMPDEST \t\t\tname, _symbol\n              PUSH 0\t\t\t)\n              PUSH FFFFFFFFFFFFFFFFFFFFFFFFFFFFFFFFFFFFFFFF\t\t\tWithdrawn(msg.sender);\n              AND \t\t\tWithdrawn(msg.sender);\n              DUP2 \t\t\tWithdraw\n              PUSH FFFFFFFFFFFFFFFFFFFFFFFFFFFFFFFFFFFFFFFF\t\t\tWithdrawn(msg.sender);\n              AND \t\t\tWithdrawn(msg.sender);\n              SUB \t\t\tWithdrawn(msg.sender);\n              PUSH [tag] 171\t\t\tundsWithdrawn(msg.sender);\\n  ...\n              JUMPI \t\t\tundsWithdrawn(msg.sender);\\n  ...\n              PUSH 0\t\t\tn\n              PUSH 40\t\t\tctions\\n    function isGameOwn...\n              MLOAD \t\t\tctions\\n    function isGameOwn...\n              PUSH 1E4FBDF700000000000000000000000000000000000000000000000000000000\t\t\tctions\\n    function isGameOwn...\n              DUP2 \t\t\tctions\\n    function isGameOwn...\n              MSTORE \t\t\tctions\\n    function isGameOwn...\n              PUSH 4\t\t\tctions\\n    function isGameOwn...\n              ADD \t\t\tctions\\n    function isGameOwn...\n              PUSH [tag] 172\t\t\tctions\\n    function isGameOwn...\n              SWAP2 \t\t\tctions\\n    function isGameOwn...\n              SWAP1 \t\t\tctions\\n    function isGameOwn...\n              PUSH [tag] 38\t\t\tctions\\n    function isGameOwn...\n              JUMP \t\t\tctions\\n    function isGameOwn...\n            tag 172\t\t\tctions\\n    function isGameOwn...\n              JUMPDEST \t\t\tctions\\n    function isGameOwn...\n              PUSH 40\t\t\tctions\\n    function isGameOwn...\n              MLOAD \t\t\tctions\\n    function isGameOwn...\n              DUP1 \t\t\tctions\\n    function isGameOwn...\n              SWAP2 \t\t\tctions\\n    function isGameOwn...\n              SUB \t\t\tctions\\n    function isGameOwn...\n              SWAP1 \t\t\tctions\\n    function isGameOwn...\n              REVERT \t\t\tctions\\n    function isGameOwn...\n            tag 171\t\t\tundsWithdrawn(msg.sender);\\n  ...\n              JUMPDEST \t\t\tundsWithdrawn(msg.sender);\\n  ...\n              PUSH [tag] 173\t\t\try cid) external view return\n              DUP2 \t\t\tew retur\n              PUSH [tag] 141\t\t\try cid) external v\n              JUMP \t\t\try cid) external view return\n            tag 173\t\t\try cid) external view return\n              JUMPDEST \t\t\try cid) external view return\n              POP \t\t\tnce[msg.sender]);\\n        cre...\n              JUMP \t\t\tnce[msg.sender]);\\n        cre...\n            tag 95\t\t\t   mapping(address => uint256)...\n              JUMPDEST \t\t\t   mapping(address => uint256)...\n              PUSH 0\t\t\ton t\n              PUSH 1FFC9A700000000000000000000000000000000000000000000000000000000\t\t\t    function bytes32Array\n              PUSH FFFFFFFFFFFFFFFFFFFFFFFFFFFFFFFFFFFFFFFFFFFFFFFFFFFFFFFF\t\t\trray to string\\n    function b...\n              NOT \t\t\trray to string\\n    function b...\n              AND \t\t\trray to string\\n    function b...\n              DUP3 \t\t\trray to str\n              PUSH FFFFFFFFFFFFFFFFFFFFFFFFFFFFFFFFFFFFFFFFFFFFFFFFFFFFFFFF\t\t\trray to string\\n    function b...\n              NOT \t\t\trray to string\\n    function b...\n              AND \t\t\trray to string\\n    function b...\n              EQ \t\t\trray to string\\n    function b...\n              SWAP1 \t\t\ttes32 array to string\\n    fun...\n              POP \t\t\ttes32 array to string\\n    fun...\n              SWAP2 \t\t\t   mapping(address => uint256)...\n              SWAP1 \t\t\t   mapping(address => uint256)...\n              POP \t\t\t   mapping(address => uint256)...\n              JUMP \t\t\t   mapping(address => uint256)...\n            tag 105\t\t\t\n              JUMPDEST \t\t\t\n              PUSH 0\t\t\t\n              DUP1 \t\t\t\n              PUSH [tag] 176\t\t\t\n              DUP4 \t\t\t\n              PUSH [tag] 177\t\t\t\n              JUMP \t\t\t\n            tag 176\t\t\t\n              JUMPDEST \t\t\t\n              SWAP1 \t\t\t\n              POP \t\t\t\n              PUSH 0\t\t\t\n              PUSH FFFFFFFFFFFFFFFFFFFFFFFFFFFFFFFFFFFFFFFF\t\t\t\n              AND \t\t\t\n              DUP2 \t\t\t\n              PUSH FFFFFFFFFFFFFFFFFFFFFFFFFFFFFFFFFFFFFFFF\t\t\t\n              AND \t\t\t\n              SUB \t\t\t\n              PUSH [tag] 178\t\t\t\n              JUMPI \t\t\t\n              DUP3 \t\t\t\n              PUSH 40\t\t\t\n              MLOAD \t\t\t\n              PUSH 7E27328900000000000000000000000000000000000000000000000000000000\t\t\t\n              DUP2 \t\t\t\n              MSTORE \t\t\t\n              PUSH 4\t\t\t\n              ADD \t\t\t\n              PUSH [tag] 179\t\t\t\n              SWAP2 \t\t\t\n              SWAP1 \t\t\t\n              PUSH [tag] 62\t\t\t\n              JUMP \t\t\t\n            tag 179\t\t\t\n              JUMPDEST \t\t\t\n              PUSH 40\t\t\t\n              MLOAD \t\t\t\n              DUP1 \t\t\t\n              SWAP2 \t\t\t\n              SUB \t\t\t\n              SWAP1 \t\t\t\n              REVERT \t\t\t\n            tag 178\t\t\t\n              JUMPDEST \t\t\t\n              DUP1 \t\t\t\n              SWAP2 \t\t\t\n              POP \t\t\t\n              POP \t\t\t\n              SWAP2 \t\t\t\n              SWAP1 \t\t\t\n              POP \t\t\t\n              JUMP \t\t\t\n            tag 107\t\t\t\n              JUMPDEST \t\t\t\n              PUSH 0\t\t\t\n              PUSH 4\t\t\t\n              PUSH 0\t\t\t\n              DUP4 \t\t\t\n              DUP2 \t\t\t\n              MSTORE \t\t\t\n              PUSH 20\t\t\t\n              ADD \t\t\t\n              SWAP1 \t\t\t\n              DUP2 \t\t\t\n              MSTORE \t\t\t\n              PUSH 20\t\t\t\n              ADD \t\t\t\n              PUSH 0\t\t\t\n              KECCAK256 \t\t\t\n              PUSH 0\t\t\t\n              SWAP1 \t\t\t\n              SLOAD \t\t\t\n              SWAP1 \t\t\t\n              PUSH 100\t\t\t\n              EXP \t\t\t\n              SWAP1 \t\t\t\n              DIV \t\t\t\n              PUSH FFFFFFFFFFFFFFFFFFFFFFFFFFFFFFFFFFFFFFFF\t\t\t\n              AND \t\t\t\n              SWAP1 \t\t\t\n              POP \t\t\t\n              SWAP2 \t\t\t\n              SWAP1 \t\t\t\n              POP \t\t\t\n              JUMP \t\t\t\n            tag 111\t\t\ter;\\n    uint256 private fee =...\n              JUMPDEST \t\t\ter;\\n    uint256 private fee =...\n              PUSH 0\t\t\t=> Game\n              CALLER \t\t\t  string[]\n              SWAP1 \t\t\tmes;\\n    string[]\n              POP \t\t\tmes;\\n    string[]\n              SWAP1 \t\t\ter;\\n    uint256 private fee =...\n              JUMP \t\t\ter;\\n    uint256 private fee =...\n            tag 112\t\t\t\n              JUMPDEST \t\t\t\n              PUSH [tag] 183\t\t\t\n              DUP4 \t\t\t\n              DUP4 \t\t\t\n              DUP4 \t\t\t\n              PUSH 1\t\t\t\n              PUSH [tag] 184\t\t\t\n              JUMP \t\t\t\n            tag 183\t\t\t\n              JUMPDEST \t\t\t\n              POP \t\t\t\n              POP \t\t\t\n              POP \t\t\t\n              JUMP \t\t\t\n            tag 118\t\t\t\n              JUMPDEST \t\t\t\n              PUSH 0\t\t\t\n              DUP1 \t\t\t\n              PUSH [tag] 186\t\t\t\n              DUP5 \t\t\t\n              PUSH [tag] 177\t\t\t\n              JUMP \t\t\t\n            tag 186\t\t\t\n              JUMPDEST \t\t\t\n              SWAP1 \t\t\t\n              POP \t\t\t\n              PUSH 0\t\t\t\n              PUSH FFFFFFFFFFFFFFFFFFFFFFFFFFFFFFFFFFFFFFFF\t\t\t\n              AND \t\t\t\n              DUP4 \t\t\t\n              PUSH FFFFFFFFFFFFFFFFFFFFFFFFFFFFFFFFFFFFFFFF\t\t\t\n              AND \t\t\t\n              EQ \t\t\t\n              PUSH [tag] 187\t\t\t\n              JUMPI \t\t\t\n              PUSH [tag] 188\t\t\t\n              DUP2 \t\t\t\n              DUP5 \t\t\t\n              DUP7 \t\t\t\n              PUSH [tag] 189\t\t\t\n              JUMP \t\t\t\n            tag 188\t\t\t\n              JUMPDEST \t\t\t\n            tag 187\t\t\t\n              JUMPDEST \t\t\t\n              PUSH 0\t\t\t\n              PUSH FFFFFFFFFFFFFFFFFFFFFFFFFFFFFFFFFFFFFFFF\t\t\t\n              AND \t\t\t\n              DUP2 \t\t\t\n              PUSH FFFFFFFFFFFFFFFFFFFFFFFFFFFFFFFFFFFFFFFF\t\t\t\n              AND \t\t\t\n              EQ \t\t\t\n              PUSH [tag] 190\t\t\t\n              JUMPI \t\t\t\n              PUSH [tag] 191\t\t\t\n              PUSH 0\t\t\t\n              DUP6 \t\t\t\n              PUSH 0\t\t\t\n              DUP1 \t\t\t\n              PUSH [tag] 184\t\t\t\n              JUMP \t\t\t\n            tag 191\t\t\t\n              JUMPDEST \t\t\t\n              PUSH 1\t\t\t\n              PUSH 3\t\t\t\n              PUSH 0\t\t\t\n              DUP4 \t\t\t\n              PUSH FFFFFFFFFFFFFFFFFFFFFFFFFFFFFFFFFFFFFFFF\t\t\t\n              AND \t\t\t\n              PUSH FFFFFFFFFFFFFFFFFFFFFFFFFFFFFFFFFFFFFFFF\t\t\t\n              AND \t\t\t\n              DUP2 \t\t\t\n              MSTORE \t\t\t\n              PUSH 20\t\t\t\n              ADD \t\t\t\n              SWAP1 \t\t\t\n              DUP2 \t\t\t\n              MSTORE \t\t\t\n              PUSH 20\t\t\t\n              ADD \t\t\t\n              PUSH 0\t\t\t\n              KECCAK256 \t\t\t\n              PUSH 0\t\t\t\n              DUP3 \t\t\t\n              DUP3 \t\t\t\n              SLOAD \t\t\t\n              SUB \t\t\t\n              SWAP3 \t\t\t\n              POP \t\t\t\n              POP \t\t\t\n              DUP2 \t\t\t\n              SWAP1 \t\t\t\n              SSTORE \t\t\t\n              POP \t\t\t\n            tag 190\t\t\t\n              JUMPDEST \t\t\t\n              PUSH 0\t\t\t\n              PUSH FFFFFFFFFFFFFFFFFFFFFFFFFFFFFFFFFFFFFFFF\t\t\t\n              AND \t\t\t\n              DUP6 \t\t\t\n              PUSH FFFFFFFFFFFFFFFFFFFFFFFFFFFFFFFFFFFFFFFF\t\t\t\n              AND \t\t\t\n              EQ \t\t\t\n              PUSH [tag] 192\t\t\t\n              JUMPI \t\t\t\n              PUSH 1\t\t\t\n              PUSH 3\t\t\t\n              PUSH 0\t\t\t\n              DUP8 \t\t\t\n              PUSH FFFFFFFFFFFFFFFFFFFFFFFFFFFFFFFFFFFFFFFF\t\t\t\n              AND \t\t\t\n              PUSH FFFFFFFFFFFFFFFFFFFFFFFFFFFFFFFFFFFFFFFF\t\t\t\n              AND \t\t\t\n              DUP2 \t\t\t\n              MSTORE \t\t\t\n              PUSH 20\t\t\t\n              ADD \t\t\t\n              SWAP1 \t\t\t\n              DUP2 \t\t\t\n              MSTORE \t\t\t\n              PUSH 20\t\t\t\n              ADD \t\t\t\n              PUSH 0\t\t\t\n              KECCAK256 \t\t\t\n              PUSH 0\t\t\t\n              DUP3 \t\t\t\n              DUP3 \t\t\t\n              SLOAD \t\t\t\n              ADD \t\t\t\n              SWAP3 \t\t\t\n              POP \t\t\t\n              POP \t\t\t\n              DUP2 \t\t\t\n              SWAP1 \t\t\t\n              SSTORE \t\t\t\n              POP \t\t\t\n            tag 192\t\t\t\n              JUMPDEST \t\t\t\n              DUP5 \t\t\t\n              PUSH 2\t\t\t\n              PUSH 0\t\t\t\n              DUP7 \t\t\t\n              DUP2 \t\t\t\n              MSTORE \t\t\t\n              PUSH 20\t\t\t\n              ADD \t\t\t\n              SWAP1 \t\t\t\n              DUP2 \t\t\t\n              MSTORE \t\t\t\n              PUSH 20\t\t\t\n              ADD \t\t\t\n              PUSH 0\t\t\t\n              KECCAK256 \t\t\t\n              PUSH 0\t\t\t\n              PUSH 100\t\t\t\n              EXP \t\t\t\n              DUP2 \t\t\t\n              SLOAD \t\t\t\n              DUP2 \t\t\t\n              PUSH FFFFFFFFFFFFFFFFFFFFFFFFFFFFFFFFFFFFFFFF\t\t\t\n              MUL \t\t\t\n              NOT \t\t\t\n              AND \t\t\t\n              SWAP1 \t\t\t\n              DUP4 \t\t\t\n              PUSH FFFFFFFFFFFFFFFFFFFFFFFFFFFFFFFFFFFFFFFF\t\t\t\n              AND \t\t\t\n              MUL \t\t\t\n              OR \t\t\t\n              SWAP1 \t\t\t\n              SSTORE \t\t\t\n              POP \t\t\t\n              DUP4 \t\t\t\n              DUP6 \t\t\t\n              PUSH FFFFFFFFFFFFFFFFFFFFFFFFFFFFFFFFFFFFFFFF\t\t\t\n              AND \t\t\t\n              DUP3 \t\t\t\n              PUSH FFFFFFFFFFFFFFFFFFFFFFFFFFFFFFFFFFFFFFFF\t\t\t\n              AND \t\t\t\n              PUSH DDF252AD1BE2C89B69C2B068FC378DAA952BA7F163C4A11628F55A4DF523B3EF\t\t\t\n              PUSH 40\t\t\t\n              MLOAD \t\t\t\n              PUSH 40\t\t\t\n              MLOAD \t\t\t\n              DUP1 \t\t\t\n              SWAP2 \t\t\t\n              SUB \t\t\t\n              SWAP1 \t\t\t\n              LOG4 \t\t\t\n              DUP1 \t\t\t\n              SWAP2 \t\t\t\n              POP \t\t\t\n              POP \t\t\t\n              SWAP4 \t\t\t\n              SWAP3 \t\t\t\n              POP \t\t\t\n              POP \t\t\t\n              POP \t\t\t\n              JUMP \t\t\t\n            tag 128\t\t\t     emit GameTokenCreated(cid...\n              JUMPDEST \t\t\t     emit GameTokenCreated(cid...\n              PUSH [tag] 194\t\t\t\\n    }\\n\\n    \n              PUSH [tag] 111\t\t\t\\n    }\\n\\n  \n              JUMP \t\t\t\\n    }\\n\\n    \n            tag 194\t\t\t\\n    }\\n\\n    \n              JUMPDEST \t\t\t\\n    }\\n\\n    \n              PUSH FFFFFFFFFFFFFFFFFFFFFFFFFFFFFFFFFFFFFFFF\t\t\tameToken));\\n    }\\n\\n    \n              AND \t\t\tameToken));\\n    }\\n\\n    \n              PUSH [tag] 195\t\t\tameToke\n              PUSH [tag] 66\t\t\tameTo\n              JUMP \t\t\tameToke\n            tag 195\t\t\tameToke\n              JUMPDEST \t\t\tameToke\n              PUSH FFFFFFFFFFFFFFFFFFFFFFFFFFFFFFFFFFFFFFFF\t\t\tameToken));\\n    }\\n\\n    \n              AND \t\t\tameToken));\\n    }\\n\\n    \n              EQ \t\t\tameToken));\\n    }\\n\\n    \n              PUSH [tag] 196\t\t\tss(gameToken));\\n    }\\n\\n    ...\n              JUMPI \t\t\tss(gameToken));\\n    }\\n\\n    ...\n              PUSH [tag] 197\t\t\tble {\\n      \n              PUSH [tag] 111\t\t\tble {\\n    \n              JUMP \t\t\tble {\\n      \n            tag 197\t\t\tble {\\n      \n              JUMPDEST \t\t\tble {\\n      \n              PUSH 40\t\t\t memory _cid) external payable...\n              MLOAD \t\t\t memory _cid) external payable...\n              PUSH 118CDAA700000000000000000000000000000000000000000000000000000000\t\t\t memory _cid) external payable...\n              DUP2 \t\t\t memory _cid) external payable...\n              MSTORE \t\t\t memory _cid) external payable...\n              PUSH 4\t\t\t memory _cid) external payable...\n              ADD \t\t\t memory _cid) external payable...\n              PUSH [tag] 198\t\t\t memory _cid) external payable...\n              SWAP2 \t\t\t memory _cid) external payable...\n              SWAP1 \t\t\t memory _cid) external payable...\n              PUSH [tag] 38\t\t\t memory _cid) external payable...\n              JUMP \t\t\t memory _cid) external payable...\n            tag 198\t\t\t memory _cid) external payable...\n              JUMPDEST \t\t\t memory _cid) external payable...\n              PUSH 40\t\t\t memory _cid) external payable...\n              MLOAD \t\t\t memory _cid) external payable...\n              DUP1 \t\t\t memory _cid) external payable...\n              SWAP2 \t\t\t memory _cid) external payable...\n              SUB \t\t\t memory _cid) external payable...\n              SWAP1 \t\t\t memory _cid) external payable...\n              REVERT \t\t\t memory _cid) external payable...\n            tag 196\t\t\tss(gameToken));\\n    }\\n\\n    ...\n              JUMPDEST \t\t\tss(gameToken));\\n    }\\n\\n    ...\n              JUMP \t\t\t     emit GameTokenCreated(cid...\n            tag 131\t\t\t\n              JUMPDEST \t\t\t\n              PUSH 0\t\t\t\n              PUSH FFFFFFFFFFFFFFFFFFFFFFFFFFFFFFFFFFFFFFFF\t\t\t\n              AND \t\t\t\n              DUP3 \t\t\t\n              PUSH FFFFFFFFFFFFFFFFFFFFFFFFFFFFFFFFFFFFFFFF\t\t\t\n              AND \t\t\t\n              SUB \t\t\t\n              PUSH [tag] 200\t\t\t\n              JUMPI \t\t\t\n              PUSH 0\t\t\t\n              PUSH 40\t\t\t\n              MLOAD \t\t\t\n              PUSH 64A0AE9200000000000000000000000000000000000000000000000000000000\t\t\t\n              DUP2 \t\t\t\n              MSTORE \t\t\t\n              PUSH 4\t\t\t\n              ADD \t\t\t\n              PUSH [tag] 201\t\t\t\n              SWAP2 \t\t\t\n              SWAP1 \t\t\t\n              PUSH [tag] 38\t\t\t\n              JUMP \t\t\t\n            tag 201\t\t\t\n              JUMPDEST \t\t\t\n              PUSH 40\t\t\t\n              MLOAD \t\t\t\n              DUP1 \t\t\t\n              SWAP2 \t\t\t\n              SUB \t\t\t\n              SWAP1 \t\t\t\n              REVERT \t\t\t\n            tag 200\t\t\t\n              JUMPDEST \t\t\t\n              PUSH 0\t\t\t\n              PUSH [tag] 202\t\t\t\n              DUP4 \t\t\t\n              DUP4 \t\t\t\n              PUSH 0\t\t\t\n              PUSH [tag] 118\t\t\t\n              JUMP \t\t\t\n            tag 202\t\t\t\n              JUMPDEST \t\t\t\n              SWAP1 \t\t\t\n              POP \t\t\t\n              PUSH 0\t\t\t\n              PUSH FFFFFFFFFFFFFFFFFFFFFFFFFFFFFFFFFFFFFFFF\t\t\t\n              AND \t\t\t\n              DUP2 \t\t\t\n              PUSH FFFFFFFFFFFFFFFFFFFFFFFFFFFFFFFFFFFFFFFF\t\t\t\n              AND \t\t\t\n              EQ \t\t\t\n              PUSH [tag] 203\t\t\t\n              JUMPI \t\t\t\n              PUSH 0\t\t\t\n              PUSH 40\t\t\t\n              MLOAD \t\t\t\n              PUSH 73C6AC6E00000000000000000000000000000000000000000000000000000000\t\t\t\n              DUP2 \t\t\t\n              MSTORE \t\t\t\n              PUSH 4\t\t\t\n              ADD \t\t\t\n              PUSH [tag] 204\t\t\t\n              SWAP2 \t\t\t\n              SWAP1 \t\t\t\n              PUSH [tag] 38\t\t\t\n              JUMP \t\t\t\n            tag 204\t\t\t\n              JUMPDEST \t\t\t\n              PUSH 40\t\t\t\n              MLOAD \t\t\t\n              DUP1 \t\t\t\n              SWAP2 \t\t\t\n              SUB \t\t\t\n              SWAP1 \t\t\t\n              REVERT \t\t\t\n            tag 203\t\t\t\n              JUMPDEST \t\t\t\n              POP \t\t\t\n              POP \t\t\t\n              POP \t\t\t\n              JUMP \t\t\t\n            tag 141\t\t\t          revert InvalidGame()...\n              JUMPDEST \t\t\t          revert InvalidGame()...\n              PUSH 0\t\t\tameToken(tokenAd\n              PUSH 6\t\t\tss);\\n \n              PUSH 0\t\t\tss);\\n \n              SWAP1 \t\t\tss);\\n \n              SLOAD \t\t\tss);\\n \n              SWAP1 \t\t\tss);\\n \n              PUSH 100\t\t\tss);\\n \n              EXP \t\t\tss);\\n \n              SWAP1 \t\t\tss);\\n \n              DIV \t\t\tss);\\n \n              PUSH FFFFFFFFFFFFFFFFFFFFFFFFFFFFFFFFFFFFFFFF\t\t\tss);\\n \n              AND \t\t\tss);\\n \n              SWAP1 \t\t\tameToken(tokenAddress);\\n \n              POP \t\t\tameToken(tokenAddress);\\n \n              DUP2 \t\t\token.bal\n              PUSH 6\t\t\turn ga\n              PUSH 0\t\t\turn ga\n              PUSH 100\t\t\turn gameToken.bal\n              EXP \t\t\turn gameToken.bal\n              DUP2 \t\t\turn gameToken.bal\n              SLOAD \t\t\turn gameToken.bal\n              DUP2 \t\t\turn gameToken.bal\n              PUSH FFFFFFFFFFFFFFFFFFFFFFFFFFFFFFFFFFFFFFFF\t\t\turn gameToken.bal\n              MUL \t\t\turn gameToken.bal\n              NOT \t\t\turn gameToken.bal\n              AND \t\t\turn gameToken.bal\n              SWAP1 \t\t\turn gameToken.bal\n              DUP4 \t\t\turn gameToken.bal\n              PUSH FFFFFFFFFFFFFFFFFFFFFFFFFFFFFFFFFFFFFFFF\t\t\turn gameToken.bal\n              AND \t\t\turn gameToken.bal\n              MUL \t\t\turn gameToken.bal\n              OR \t\t\turn gameToken.bal\n              SWAP1 \t\t\turn gameToken.bal\n              SSTORE \t\t\turn gameToken.bal\n              POP \t\t\turn gameToken.bal\n              DUP2 \t\t\tsGameOwn\n              PUSH FFFFFFFFFFFFFFFFFFFFFFFFFFFFFFFFFFFFFFFF\t\t\ter) >= 1;\\n    }\\n\\n    functi...\n              AND \t\t\ter) >= 1;\\n    }\\n\\n    functi...\n              DUP2 \t\t\tfunction\n              PUSH FFFFFFFFFFFFFFFFFFFFFFFFFFFFFFFFFFFFFFFF\t\t\ter) >= 1;\\n    }\\n\\n    functi...\n              AND \t\t\ter) >= 1;\\n    }\\n\\n    functi...\n              PUSH 8BE0079C531659141344CD1FD0A4F28419497F9722A3DAAFE3B4186F6B6457E0\t\t\ter) >= 1;\\n    }\\n\\n    functi...\n              PUSH 40\t\t\ter) >= 1;\\n    }\\n\\n    functi...\n              MLOAD \t\t\ter) >= 1;\\n    }\\n\\n    functi...\n              PUSH 40\t\t\ter) >= 1;\\n    }\\n\\n    functi...\n              MLOAD \t\t\ter) >= 1;\\n    }\\n\\n    functi...\n              DUP1 \t\t\ter) >= 1;\\n    }\\n\\n    functi...\n              SWAP2 \t\t\ter) >= 1;\\n    }\\n\\n    functi...\n              SUB \t\t\ter) >= 1;\\n    }\\n\\n    functi...\n              SWAP1 \t\t\ter) >= 1;\\n    }\\n\\n    functi...\n              LOG3 \t\t\ter) >= 1;\\n    }\\n\\n    functi...\n              POP \t\t\teToken = GameToken(tokenAddres...\n              POP \t\t\t          revert InvalidGame()...\n              JUMP \t\t\t          revert InvalidGame()...\n            tag 152\t\t\t\n              JUMPDEST \t\t\t\n              PUSH 0\t\t\t\n              PUSH FFFFFFFFFFFFFFFFFFFFFFFFFFFFFFFFFFFFFFFF\t\t\t\n              AND \t\t\t\n              DUP3 \t\t\t\n              PUSH FFFFFFFFFFFFFFFFFFFFFFFFFFFFFFFFFFFFFFFF\t\t\t\n              AND \t\t\t\n              SUB \t\t\t\n              PUSH [tag] 207\t\t\t\n              JUMPI \t\t\t\n              DUP2 \t\t\t\n              PUSH 40\t\t\t\n              MLOAD \t\t\t\n              PUSH 5B08BA1800000000000000000000000000000000000000000000000000000000\t\t\t\n              DUP2 \t\t\t\n              MSTORE \t\t\t\n              PUSH 4\t\t\t\n              ADD \t\t\t\n              PUSH [tag] 208\t\t\t\n              SWAP2 \t\t\t\n              SWAP1 \t\t\t\n              PUSH [tag] 38\t\t\t\n              JUMP \t\t\t\n            tag 208\t\t\t\n              JUMPDEST \t\t\t\n              PUSH 40\t\t\t\n              MLOAD \t\t\t\n              DUP1 \t\t\t\n              SWAP2 \t\t\t\n              SUB \t\t\t\n              SWAP1 \t\t\t\n              REVERT \t\t\t\n            tag 207\t\t\t\n              JUMPDEST \t\t\t\n              DUP1 \t\t\t\n              PUSH 5\t\t\t\n              PUSH 0\t\t\t\n              DUP6 \t\t\t\n              PUSH FFFFFFFFFFFFFFFFFFFFFFFFFFFFFFFFFFFFFFFF\t\t\t\n              AND \t\t\t\n              PUSH FFFFFFFFFFFFFFFFFFFFFFFFFFFFFFFFFFFFFFFF\t\t\t\n              AND \t\t\t\n              DUP2 \t\t\t\n              MSTORE \t\t\t\n              PUSH 20\t\t\t\n              ADD \t\t\t\n              SWAP1 \t\t\t\n              DUP2 \t\t\t\n              MSTORE \t\t\t\n              PUSH 20\t\t\t\n              ADD \t\t\t\n              PUSH 0\t\t\t\n              KECCAK256 \t\t\t\n              PUSH 0\t\t\t\n              DUP5 \t\t\t\n              PUSH FFFFFFFFFFFFFFFFFFFFFFFFFFFFFFFFFFFFFFFF\t\t\t\n              AND \t\t\t\n              PUSH FFFFFFFFFFFFFFFFFFFFFFFFFFFFFFFFFFFFFFFF\t\t\t\n              AND \t\t\t\n              DUP2 \t\t\t\n              MSTORE \t\t\t\n              PUSH 20\t\t\t\n              ADD \t\t\t\n              SWAP1 \t\t\t\n              DUP2 \t\t\t\n              MSTORE \t\t\t\n              PUSH 20\t\t\t\n              ADD \t\t\t\n              PUSH 0\t\t\t\n              KECCAK256 \t\t\t\n              PUSH 0\t\t\t\n              PUSH 100\t\t\t\n              EXP \t\t\t\n              DUP2 \t\t\t\n              SLOAD \t\t\t\n              DUP2 \t\t\t\n              PUSH FF\t\t\t\n              MUL \t\t\t\n              NOT \t\t\t\n              AND \t\t\t\n              SWAP1 \t\t\t\n              DUP4 \t\t\t\n              ISZERO \t\t\t\n              ISZERO \t\t\t\n              MUL \t\t\t\n              OR \t\t\t\n              SWAP1 \t\t\t\n              SSTORE \t\t\t\n              POP \t\t\t\n              DUP2 \t\t\t\n              PUSH FFFFFFFFFFFFFFFFFFFFFFFFFFFFFFFFFFFFFFFF\t\t\t\n              AND \t\t\t\n              DUP4 \t\t\t\n              PUSH FFFFFFFFFFFFFFFFFFFFFFFFFFFFFFFFFFFFFFFF\t\t\t\n              AND \t\t\t\n              PUSH 17307EAB39AB6107E8899845AD3D59BD9653F200F220920489CA2B5937696C31\t\t\t\n              DUP4 \t\t\t\n              PUSH 40\t\t\t\n              MLOAD \t\t\t\n              PUSH [tag] 209\t\t\t\n              SWAP2 \t\t\t\n              SWAP1 \t\t\t\n              PUSH [tag] 28\t\t\t\n              JUMP \t\t\t\n            tag 209\t\t\t\n              JUMPDEST \t\t\t\n              PUSH 40\t\t\t\n              MLOAD \t\t\t\n              DUP1 \t\t\t\n              SWAP2 \t\t\t\n              SUB \t\t\t\n              SWAP1 \t\t\t\n              LOG3 \t\t\t\n              POP \t\t\t\n              POP \t\t\t\n              POP \t\t\t\n              JUMP \t\t\t\n            tag 156\t\t\t\n              JUMPDEST \t\t\t\n              PUSH 0\t\t\t\n              DUP4 \t\t\t\n              PUSH FFFFFFFFFFFFFFFFFFFFFFFFFFFFFFFFFFFFFFFF\t\t\t\n              AND \t\t\t\n              EXTCODESIZE \t\t\t\n              GT \t\t\t\n              ISZERO \t\t\t\n              PUSH [tag] 211\t\t\t\n              JUMPI \t\t\t\n              DUP3 \t\t\t\n              PUSH FFFFFFFFFFFFFFFFFFFFFFFFFFFFFFFFFFFFFFFF\t\t\t\n              AND \t\t\t\n              PUSH 150B7A02\t\t\t\n              PUSH [tag] 212\t\t\t\n              PUSH [tag] 111\t\t\t\n              JUMP \t\t\t\n            tag 212\t\t\t\n              JUMPDEST \t\t\t\n              DUP7 \t\t\t\n              DUP6 \t\t\t\n              DUP6 \t\t\t\n              PUSH 40\t\t\t\n              MLOAD \t\t\t\n              DUP6 \t\t\t\n              PUSH FFFFFFFF\t\t\t\n              AND \t\t\t\n              PUSH E0\t\t\t\n              SHL \t\t\t\n              DUP2 \t\t\t\n              MSTORE \t\t\t\n              PUSH 4\t\t\t\n              ADD \t\t\t\n              PUSH [tag] 213\t\t\t\n              SWAP5 \t\t\t\n              SWAP4 \t\t\t\n              SWAP3 \t\t\t\n              SWAP2 \t\t\t\n              SWAP1 \t\t\t\n              PUSH [tag] 214\t\t\t\n              JUMP \t\t\t\n            tag 213\t\t\t\n              JUMPDEST \t\t\t\n              PUSH 20\t\t\t\n              PUSH 40\t\t\t\n              MLOAD \t\t\t\n              DUP1 \t\t\t\n              DUP4 \t\t\t\n              SUB \t\t\t\n              DUP2 \t\t\t\n              PUSH 0\t\t\t\n              DUP8 \t\t\t\n              GAS \t\t\t\n              CALL \t\t\t\n              SWAP3 \t\t\t\n              POP \t\t\t\n              POP \t\t\t\n              POP \t\t\t\n              DUP1 \t\t\t\n              ISZERO \t\t\t\n              PUSH [tag] 215\t\t\t\n              JUMPI \t\t\t\n              POP \t\t\t\n              PUSH 40\t\t\t\n              MLOAD \t\t\t\n              RETURNDATASIZE \t\t\t\n              PUSH 1F\t\t\t\n              NOT \t\t\t\n              PUSH 1F\t\t\t\n              DUP3 \t\t\t\n              ADD \t\t\t\n              AND \t\t\t\n              DUP3 \t\t\t\n              ADD \t\t\t\n              DUP1 \t\t\t\n              PUSH 40\t\t\t\n              MSTORE \t\t\t\n              POP \t\t\t\n              DUP2 \t\t\t\n              ADD \t\t\t\n              SWAP1 \t\t\t\n              PUSH [tag] 216\t\t\t\n              SWAP2 \t\t\t\n              SWAP1 \t\t\t\n              PUSH [tag] 217\t\t\t\n              JUMP \t\t\t\n            tag 216\t\t\t\n              JUMPDEST \t\t\t\n              PUSH 1\t\t\t\n            tag 215\t\t\t\n              JUMPDEST \t\t\t\n              PUSH [tag] 218\t\t\t\n              JUMPI \t\t\t\n              RETURNDATASIZE \t\t\t\n              DUP1 \t\t\t\n              PUSH 0\t\t\t\n              DUP2 \t\t\t\n              EQ \t\t\t\n              PUSH [tag] 223\t\t\t\n              JUMPI \t\t\t\n              PUSH 40\t\t\t\n              MLOAD \t\t\t\n              SWAP2 \t\t\t\n              POP \t\t\t\n              PUSH 1F\t\t\t\n              NOT \t\t\t\n              PUSH 3F\t\t\t\n              RETURNDATASIZE \t\t\t\n              ADD \t\t\t\n              AND \t\t\t\n              DUP3 \t\t\t\n              ADD \t\t\t\n              PUSH 40\t\t\t\n              MSTORE \t\t\t\n              RETURNDATASIZE \t\t\t\n              DUP3 \t\t\t\n              MSTORE \t\t\t\n              RETURNDATASIZE \t\t\t\n              PUSH 0\t\t\t\n              PUSH 20\t\t\t\n              DUP5 \t\t\t\n              ADD \t\t\t\n              RETURNDATACOPY \t\t\t\n              PUSH [tag] 222\t\t\t\n              JUMP \t\t\t\n            tag 223\t\t\t\n              JUMPDEST \t\t\t\n              PUSH 60\t\t\t\n              SWAP2 \t\t\t\n              POP \t\t\t\n            tag 222\t\t\t\n              JUMPDEST \t\t\t\n              POP \t\t\t\n              PUSH 0\t\t\t\n              DUP2 \t\t\t\n              MLOAD \t\t\t\n              SUB \t\t\t\n              PUSH [tag] 224\t\t\t\n              JUMPI \t\t\t\n              DUP4 \t\t\t\n              PUSH 40\t\t\t\n              MLOAD \t\t\t\n              PUSH 64A0AE9200000000000000000000000000000000000000000000000000000000\t\t\t\n              DUP2 \t\t\t\n              MSTORE \t\t\t\n              PUSH 4\t\t\t\n              ADD \t\t\t\n              PUSH [tag] 225\t\t\t\n              SWAP2 \t\t\t\n              SWAP1 \t\t\t\n              PUSH [tag] 38\t\t\t\n              JUMP \t\t\t\n            tag 225\t\t\t\n              JUMPDEST \t\t\t\n              PUSH 40\t\t\t\n              MLOAD \t\t\t\n              DUP1 \t\t\t\n              SWAP2 \t\t\t\n              SUB \t\t\t\n              SWAP1 \t\t\t\n              REVERT \t\t\t\n            tag 224\t\t\t\n              JUMPDEST \t\t\t\n              DUP1 \t\t\t\n              MLOAD \t\t\t\n              DUP2 \t\t\t\n              PUSH 20\t\t\t\n              ADD \t\t\t\n              REVERT \t\t\t\n            tag 218\t\t\t\n              JUMPDEST \t\t\t\n              PUSH 150B7A02\t\t\t\n              PUSH E0\t\t\t\n              SHL \t\t\t\n              PUSH FFFFFFFFFFFFFFFFFFFFFFFFFFFFFFFFFFFFFFFFFFFFFFFFFFFFFFFF\t\t\t\n              NOT \t\t\t\n              AND \t\t\t\n              DUP2 \t\t\t\n              PUSH FFFFFFFFFFFFFFFFFFFFFFFFFFFFFFFFFFFFFFFFFFFFFFFFFFFFFFFF\t\t\t\n              NOT \t\t\t\n              AND \t\t\t\n              EQ \t\t\t\n              PUSH [tag] 228\t\t\t\n              JUMPI \t\t\t\n              DUP4 \t\t\t\n              PUSH 40\t\t\t\n              MLOAD \t\t\t\n              PUSH 64A0AE9200000000000000000000000000000000000000000000000000000000\t\t\t\n              DUP2 \t\t\t\n              MSTORE \t\t\t\n              PUSH 4\t\t\t\n              ADD \t\t\t\n              PUSH [tag] 229\t\t\t\n              SWAP2 \t\t\t\n              SWAP1 \t\t\t\n              PUSH [tag] 38\t\t\t\n              JUMP \t\t\t\n            tag 229\t\t\t\n              JUMPDEST \t\t\t\n              PUSH 40\t\t\t\n              MLOAD \t\t\t\n              DUP1 \t\t\t\n              SWAP2 \t\t\t\n              SUB \t\t\t\n              SWAP1 \t\t\t\n              REVERT \t\t\t\n            tag 228\t\t\t\n              JUMPDEST \t\t\t\n              POP \t\t\t\n            tag 211\t\t\t\n              JUMPDEST \t\t\t\n              POP \t\t\t\n              POP \t\t\t\n              POP \t\t\t\n              POP \t\t\t\n              JUMP \t\t\t\n            tag 164\t\t\ttruct Game {\\n        address ...\n              JUMPDEST \t\t\ttruct Game {\\n        address ...\n              PUSH 60\t\t\t        addre\n              PUSH 0\t\t\t=\n              DUP3 \t\t\tappi\n              MLOAD \t\t\tapping(addr\n              SUB \t\t\tapping(address =\n              PUSH [tag] 231\t\t\t   mapping(address => uint256)...\n              JUMPI \t\t\t   mapping(address => uint256)...\n              PUSH 40\t\t\tuint256) \n              MLOAD \t\t\tuint256) \n              DUP1 \t\t\tuint256) \n              PUSH 20\t\t\tuint256) \n              ADD \t\t\tuint256) \n              PUSH 40\t\t\tuint256) \n              MSTORE \t\t\tuint256) \n              DUP1 \t\t\tuint256) \n              PUSH 0\t\t\tuint256) \n              DUP2 \t\t\tuint256) \n              MSTORE \t\t\tuint256) \n              POP \t\t\tuint256) \n              SWAP1 \t\t\tuint256) \n              POP \t\t\tuint256) \n              PUSH [tag] 230\t\t\tuint256) \n              JUMP \t\t\tuint256) \n            tag 231\t\t\t   mapping(address => uint256)...\n              JUMPDEST \t\t\t   mapping(address => uint256)...\n              PUSH 0\t\t\t convert bytes32 ar\n              PUSH 40\t\t\t to st\n              MLOAD \t\t\t to st\n              DUP1 \t\t\t to st\n              PUSH 60\t\t\t to st\n              ADD \t\t\t to st\n              PUSH 40\t\t\t to st\n              MSTORE \t\t\t to st\n              DUP1 \t\t\t to st\n              PUSH 40\t\t\t to st\n              DUP2 \t\t\t to st\n              MSTORE \t\t\t to st\n              PUSH 20\t\t\t to st\n              ADD \t\t\t to st\n              PUSH data 84D8A590DE33E00CBDC16E1F28C3506F5EC15C599FAB9A6A4BCD575CC2F110CE\t\t\t to st\n              PUSH 40\t\t\t to st\n              SWAP2 \t\t\t to st\n              CODECOPY \t\t\t to st\n              SWAP1 \t\t\t convert bytes32 array to st\n              POP \t\t\t convert bytes32 array to st\n              PUSH 0\t\t\tname,\\n        string\n              PUSH 3\t\t\t\\n\n              PUSH 2\t\t\tr\n              DUP6 \t\t\t    \n              MLOAD \t\t\t     uint25\n              PUSH [tag] 232\t\t\t     uint256 pr\n              SWAP2 \t\t\t     uint256 pr\n              SWAP1 \t\t\t     uint256 pr\n              PUSH [tag] 233\t\t\t     uint256 pr\n              JUMP \t\t\t     uint256 pr\n            tag 232\t\t\t     uint256 pr\n              JUMPDEST \t\t\t     uint256 pr\n              PUSH [tag] 234\t\t\t      uint256 price,\\n\n              SWAP2 \t\t\t      uint256 price,\\n\n              SWAP1 \t\t\t      uint256 price,\\n\n              PUSH [tag] 235\t\t\t      uint256 price,\\n\n              JUMP \t\t\t      uint256 price,\\n\n            tag 234\t\t\t      uint256 price,\\n\n              JUMPDEST \t\t\t      uint256 price,\\n\n              PUSH 4\t\t\tl\n              PUSH [tag] 236\t\t\tl,\\n        uint256 price,\\n \n              SWAP2 \t\t\tl,\\n        uint256 price,\\n \n              SWAP1 \t\t\tl,\\n        uint256 price,\\n \n              PUSH [tag] 237\t\t\tl,\\n        uint256 price,\\n \n              JUMP \t\t\tl,\\n        uint256 price,\\n \n            tag 236\t\t\tl,\\n        uint256 price,\\n \n              JUMPDEST \t\t\tl,\\n        uint256 price,\\n \n              PUSH FFFFFFFFFFFFFFFF\t\t\tmory _symbol,\\n        uint256...\n              DUP2 \t\t\tmory _symbol,\\n        uint256...\n              GT \t\t\tmory _symbol,\\n        uint256...\n              ISZERO \t\t\tmory _symbol,\\n        uint256...\n              PUSH [tag] 238\t\t\tmory _symbol,\\n        uint256...\n              JUMPI \t\t\tmory _symbol,\\n        uint256...\n              PUSH [tag] 239\t\t\tmory _symbol,\\n        uint256...\n              PUSH [tag] 240\t\t\tmory _symbol,\\n        uint256...\n              JUMP \t\t\tmory _symbol,\\n        uint256...\n            tag 239\t\t\tmory _symbol,\\n        uint256...\n              JUMPDEST \t\t\tmory _symbol,\\n        uint256...\n            tag 238\t\t\tmory _symbol,\\n        uint256...\n              JUMPDEST \t\t\tmory _symbol,\\n        uint256...\n              PUSH 40\t\t\tmory _symbol,\\n        uint256...\n              MLOAD \t\t\tmory _symbol,\\n        uint256...\n              SWAP1 \t\t\tmory _symbol,\\n        uint256...\n              DUP1 \t\t\tmory _symbol,\\n        uint256...\n              DUP3 \t\t\tmory _symbol,\\n        uint256...\n              MSTORE \t\t\tmory _symbol,\\n        uint256...\n              DUP1 \t\t\tmory _symbol,\\n        uint256...\n              PUSH 1F\t\t\tmory _symbol,\\n        uint256...\n              ADD \t\t\tmory _symbol,\\n        uint256...\n              PUSH 1F\t\t\tmory _symbol,\\n        uint256...\n              NOT \t\t\tmory _symbol,\\n        uint256...\n              AND \t\t\tmory _symbol,\\n        uint256...\n              PUSH 20\t\t\tmory _symbol,\\n        uint256...\n              ADD \t\t\tmory _symbol,\\n        uint256...\n              DUP3 \t\t\tmory _symbol,\\n        uint256...\n              ADD \t\t\tmory _symbol,\\n        uint256...\n              PUSH 40\t\t\tmory _symbol,\\n        uint256...\n              MSTORE \t\t\tmory _symbol,\\n        uint256...\n              DUP1 \t\t\tmory _symbol,\\n        uint256...\n              ISZERO \t\t\tmory _symbol,\\n        uint256...\n              PUSH [tag] 241\t\t\tmory _symbol,\\n        uint256...\n              JUMPI \t\t\tmory _symbol,\\n        uint256...\n              DUP2 \t\t\tmory _symbol,\\n        uint256...\n              PUSH 20\t\t\tmory _symbol,\\n        uint256...\n              ADD \t\t\tmory _symbol,\\n        uint256...\n              PUSH 1\t\t\tmory _symbol,\\n        uint256...\n              DUP3 \t\t\tmory _symbol,\\n        uint256...\n              MUL \t\t\tmory _symbol,\\n        uint256...\n              DUP1 \t\t\tmory _symbol,\\n        uint256...\n              CALLDATASIZE \t\t\tmory _symbol,\\n        uint256...\n              DUP4 \t\t\tmory _symbol,\\n        uint256...\n              CALLDATACOPY \t\t\tmory _symbol,\\n        uint256...\n              DUP1 \t\t\tmory _symbol,\\n        uint256...\n              DUP3 \t\t\tmory _symbol,\\n        uint256...\n              ADD \t\t\tmory _symbol,\\n        uint256...\n              SWAP2 \t\t\tmory _symbol,\\n        uint256...\n              POP \t\t\tmory _symbol,\\n        uint256...\n              POP \t\t\tmory _symbol,\\n        uint256...\n              SWAP1 \t\t\tmory _symbol,\\n        uint256...\n              POP \t\t\tmory _symbol,\\n        uint256...\n            tag 241\t\t\tmory _symbol,\\n        uint256...\n              JUMPDEST \t\t\tmory _symbol,\\n        uint256...\n              POP \t\t\tmory _symbol,\\n        uint256...\n              SWAP1 \t\t\tname,\\n        string memory _...\n              POP \t\t\tname,\\n        string memory _...\n              PUSH 1\t\t\te\n              DUP3 \t\t\tgameT\n              ADD \t\t\tken gameToken\n              PUSH 20\t\t\td] =\n              DUP3 \t\t\tames[_\n              ADD \t\t\t   games[_cid] = \n              DUP6 \t\t\t,\\n  \n              DUP7 \t\t\ten),\n              MLOAD \t\t\tameToken),\\n\n              DUP8 \t\t\tress\n              ADD \t\t\t address(gameToken),\\n \n              PUSH 20\t\t\t  Ga\n              DUP2 \t\t\t{\\n    \n              ADD \t\t\tble {\\n        Gam\n              DUP1 \t\t\t  if (_g\n              MLOAD \t\t\t        if (_ga\n              PUSH 0\t\t\t    \n              DUP3 \t\t\ts(0)) {\\n\n              MSTORE \t\t\t address(0)) {\\n       \n            tag 242\t\t\t.price) {\\n            revert ...\n              JUMPDEST \t\t\t.price) {\\n            revert ...\n              DUP3 \t\t\tfficie\n              DUP5 \t\t\tvert In\n              LT \t\t\t revert Insufficien\n              ISZERO \t\t\t.price) {\\n            revert ...\n              PUSH [tag] 244\t\t\t.price) {\\n            revert ...\n              JUMPI \t\t\t.price) {\\n            revert ...\n              PUSH 3\t\t\te\n              DUP5 \t\t\tToken g\n              ADD \t\t\tGameToken gameT\n              SWAP4 \t\t\te;\\n        GameToken gameT\n              POP \t\t\te;\\n        GameToken gameT\n              DUP4 \t\t\t   game\n              MLOAD \t\t\t\\n        gameT\n              PUSH 3F\t\t\ts[_c\n              DUP2 \t\t\ts = g\n              PUSH 12\t\t\tdr\n              SHR \t\t\tenAddress = ga\n              AND \t\t\t tokenAddress = games[_ci\n              DUP8 \t\t\t   addre\n              ADD \t\t\t       address tokenAddress = ...\n              MLOAD \t\t\tid);\\n        address tokenAdd...\n              DUP7 \t\t\tyToString\n              MSTORE8 \t\t\tes32ArrayToString(cid);\\n     ...\n              PUSH 1\t\t\t)\n              DUP7 \t\t\t address(\n              ADD \t\t\ts == address(0)) \n              SWAP6 \t\t\t (tokenAddress == address(0)) \n              POP \t\t\t (tokenAddress == address(0)) \n              PUSH 3F\t\t\tkenA\n              DUP2 \t\t\tToken\n              PUSH C\t\t\tGa\n              SHR \t\t\tn = GameToken(\n              AND \t\t\tToken = GameToken(tokenAd\n              DUP8 \t\t\tToken ga\n              ADD \t\t\tGameToken gameToken = GameToke...\n              MLOAD \t\t\t      GameToken gameToken = Ga...\n              DUP7 \t\t\t       }\\n\n              MSTORE8 \t\t\tame();\\n        }\\n        Gam...\n              PUSH 1\t\t\te\n              DUP7 \t\t\tnceOf(msg\n              ADD \t\t\tbalanceOf(msg.sen\n              SWAP6 \t\t\trn gameToken.balanceOf(msg.sen\n              POP \t\t\trn gameToken.balanceOf(msg.sen\n              PUSH 3F\t\t\tool)\n              DUP2 \t\t\tturns\n              PUSH 6\t\t\t \n              SHR \t\t\tview returns \n              AND \t\t\tnal view returns (bool) \n              DUP8 \t\t\tcid) ext\n              ADD \t\t\try _cid) external view returns...\n              MLOAD \t\t\tg memory _cid) external view r...\n              DUP7 \t\t\tOwned(str\n              MSTORE8 \t\t\tn isGameOwned(string memory _c...\n              PUSH 1\t\t\te\n              DUP7 \t\t\ts[_cid].t\n              ADD \t\t\tgames[_cid].token\n              SWAP6 \t\t\tkenAddress = games[_cid].token\n              POP \t\t\tkenAddress = games[_cid].token\n              PUSH 3F\t\t\t    \n              DUP2 \t\t\tme();\n              AND \t\t\tidGame();\\n      \n              DUP8 \t\t\tvert Inv\n              ADD \t\t\t  revert InvalidGame();\\n     ...\n              MLOAD \t\t\t        revert InvalidGame();\\...\n              DUP7 \t\t\t(0)) {\\n  \n              MSTORE8 \t\t\t address(0)) {\\n            re...\n              PUSH 1\t\t\tn\n              DUP7 \t\t\teToken(to\n              ADD \t\t\t GameToken(tokenA\n              SWAP6 \t\t\tn gameToken = GameToken(tokenA\n              POP \t\t\tn gameToken = GameToken(tokenA\n              POP \t\t\t}\\n        creatorbalance[_gam...\n              PUSH [tag] 242\t\t\t.price) {\\n            revert ...\n              JUMP \t\t\t.price) {\\n            revert ...\n            tag 244\t\t\t.price) {\\n            revert ...\n              JUMPDEST \t\t\t.price) {\\n            revert ...\n              DUP1 \t\t\tiew return\n              DUP3 \t\t\texternal\n              MSTORE \t\t\tames() external view returns\n              PUSH 3\t\t\ti\n              DUP11 \t\t\tgame\n              MLOAD \t\t\t[i] = games\n              MOD \t\t\tames[i] = games[cid\n              PUSH 1\t\t\t \n              DUP2 \t\t\t  }\\n\\n        return _games;\\...\n              EQ \t\t\t  }\\n\\n        return _games;\\...\n              PUSH [tag] 246\t\t\t  }\\n\\n        return _games;\\...\n              JUMPI \t\t\t  }\\n\\n        return _games;\\...\n              PUSH 2\t\t\ty\n              DUP2 \t\t\tmemory)\\n    {\\n        Game m...\n              EQ \t\t\tmemory)\\n    {\\n        Game m...\n              PUSH [tag] 247\t\t\tmemory)\\n    {\\n        Game m...\n              JUMPI \t\t\tmemory)\\n    {\\n        Game m...\n              PUSH [tag] 245\t\t\t     _games[i] = games[cids[i]...\n              JUMP \t\t\t     _games[i] = games[cids[i]...\n            tag 246\t\t\t  }\\n\\n        return _games;\\...\n              JUMPDEST \t\t\t  }\\n\\n        return _games;\\...\n              PUSH 3D\t\t\tameB\n              PUSH 1\t\t\tg\n              DUP8 \t\t\t  functio\n              SUB \t\t\t\\n\\n    function ge\n              MSTORE8 \t\t\ts;\\n    }\\n\\n    function getG...\n              PUSH 3D\t\t\t    \n              PUSH 2\t\t\t\\n\n              DUP8 \t\t\t   extern\n              SUB \t\t\t       external\\n \n              MSTORE8 \t\t\t _cid)\\n        external\\n    ...\n              PUSH [tag] 245\t\t\t  }\\n\\n        return _games;\\...\n              JUMP \t\t\t  }\\n\\n        return _games;\\...\n            tag 247\t\t\tmemory)\\n    {\\n        Game m...\n              JUMPDEST \t\t\tmemory)\\n    {\\n        Game m...\n              PUSH 3D\t\t\t];\\n \n              PUSH 1\t\t\t_\n              DUP8 \t\t\tme = game\n              SUB \t\t\t _game = games[_c\n              MSTORE8 \t\t\te memory _game = games[_cid];\\...\n            tag 245\t\t\t     _games[i] = games[cids[i]...\n              JUMPDEST \t\t\t     _games[i] = games[cids[i]...\n              POP \t\t\t     _games[i] = games[cids[i]...\n              POP \t\t\ts[_cid].creator != address(0))...\n              POP \t\t\ts[_cid].creator != address(0))...\n              POP \t\t\ts[_cid].creator != address(0))...\n              POP \t\t\ts[_cid].creator != address(0))...\n              POP \t\t\ts[_cid].creator != address(0))...\n              POP \t\t\ts[_cid].creator != address(0))...\n              DUP1 \t\t\t      \n              SWAP3 \t\t\t(0)) {\\n      \n              POP \t\t\t(0)) {\\n      \n              POP \t\t\t(0)) {\\n      \n              POP \t\t\t(0)) {\\n      \n            tag 230\t\t\ttruct Game {\\n        address ...\n              JUMPDEST \t\t\ttruct Game {\\n        address ...\n              SWAP2 \t\t\ttruct Game {\\n        address ...\n              SWAP1 \t\t\ttruct Game {\\n        address ...\n              POP \t\t\ttruct Game {\\n        address ...\n              JUMP \t\t\ttruct Game {\\n        address ...\n            tag 177\t\t\t\n              JUMPDEST \t\t\t\n              PUSH 0\t\t\t\n              PUSH 2\t\t\t\n              PUSH 0\t\t\t\n              DUP4 \t\t\t\n              DUP2 \t\t\t\n              MSTORE \t\t\t\n              PUSH 20\t\t\t\n              ADD \t\t\t\n              SWAP1 \t\t\t\n              DUP2 \t\t\t\n              MSTORE \t\t\t\n              PUSH 20\t\t\t\n              ADD \t\t\t\n              PUSH 0\t\t\t\n              KECCAK256 \t\t\t\n              PUSH 0\t\t\t\n              SWAP1 \t\t\t\n              SLOAD \t\t\t\n              SWAP1 \t\t\t\n              PUSH 100\t\t\t\n              EXP \t\t\t\n              SWAP1 \t\t\t\n              DIV \t\t\t\n              PUSH FFFFFFFFFFFFFFFFFFFFFFFFFFFFFFFFFFFFFFFF\t\t\t\n              AND \t\t\t\n              SWAP1 \t\t\t\n              POP \t\t\t\n              SWAP2 \t\t\t\n              SWAP1 \t\t\t\n              POP \t\t\t\n              JUMP \t\t\t\n            tag 184\t\t\t\n              JUMPDEST \t\t\t\n              DUP1 \t\t\t\n              DUP1 \t\t\t\n              PUSH [tag] 250\t\t\t\n              JUMPI \t\t\t\n              POP \t\t\t\n              PUSH 0\t\t\t\n              PUSH FFFFFFFFFFFFFFFFFFFFFFFFFFFFFFFFFFFFFFFF\t\t\t\n              AND \t\t\t\n              DUP3 \t\t\t\n              PUSH FFFFFFFFFFFFFFFFFFFFFFFFFFFFFFFFFFFFFFFF\t\t\t\n              AND \t\t\t\n              EQ \t\t\t\n              ISZERO \t\t\t\n            tag 250\t\t\t\n              JUMPDEST \t\t\t\n              ISZERO \t\t\t\n              PUSH [tag] 251\t\t\t\n              JUMPI \t\t\t\n              PUSH 0\t\t\t\n              PUSH [tag] 252\t\t\t\n              DUP5 \t\t\t\n              PUSH [tag] 105\t\t\t\n              JUMP \t\t\t\n            tag 252\t\t\t\n              JUMPDEST \t\t\t\n              SWAP1 \t\t\t\n              POP \t\t\t\n              PUSH 0\t\t\t\n              PUSH FFFFFFFFFFFFFFFFFFFFFFFFFFFFFFFFFFFFFFFF\t\t\t\n              AND \t\t\t\n              DUP4 \t\t\t\n              PUSH FFFFFFFFFFFFFFFFFFFFFFFFFFFFFFFFFFFFFFFF\t\t\t\n              AND \t\t\t\n              EQ \t\t\t\n              ISZERO \t\t\t\n              DUP1 \t\t\t\n              ISZERO \t\t\t\n              PUSH [tag] 253\t\t\t\n              JUMPI \t\t\t\n              POP \t\t\t\n              DUP3 \t\t\t\n              PUSH FFFFFFFFFFFFFFFFFFFFFFFFFFFFFFFFFFFFFFFF\t\t\t\n              AND \t\t\t\n              DUP2 \t\t\t\n              PUSH FFFFFFFFFFFFFFFFFFFFFFFFFFFFFFFFFFFFFFFF\t\t\t\n              AND \t\t\t\n              EQ \t\t\t\n              ISZERO \t\t\t\n            tag 253\t\t\t\n              JUMPDEST \t\t\t\n              DUP1 \t\t\t\n              ISZERO \t\t\t\n              PUSH [tag] 254\t\t\t\n              JUMPI \t\t\t\n              POP \t\t\t\n              PUSH [tag] 255\t\t\t\n              DUP2 \t\t\t\n              DUP5 \t\t\t\n              PUSH [tag] 86\t\t\t\n              JUMP \t\t\t\n            tag 255\t\t\t\n              JUMPDEST \t\t\t\n              ISZERO \t\t\t\n            tag 254\t\t\t\n              JUMPDEST \t\t\t\n              ISZERO \t\t\t\n              PUSH [tag] 256\t\t\t\n              JUMPI \t\t\t\n              DUP3 \t\t\t\n              PUSH 40\t\t\t\n              MLOAD \t\t\t\n              PUSH A9FBF51F00000000000000000000000000000000000000000000000000000000\t\t\t\n              DUP2 \t\t\t\n              MSTORE \t\t\t\n              PUSH 4\t\t\t\n              ADD \t\t\t\n              PUSH [tag] 257\t\t\t\n              SWAP2 \t\t\t\n              SWAP1 \t\t\t\n              PUSH [tag] 38\t\t\t\n              JUMP \t\t\t\n            tag 257\t\t\t\n              JUMPDEST \t\t\t\n              PUSH 40\t\t\t\n              MLOAD \t\t\t\n              DUP1 \t\t\t\n              SWAP2 \t\t\t\n              SUB \t\t\t\n              SWAP1 \t\t\t\n              REVERT \t\t\t\n            tag 256\t\t\t\n              JUMPDEST \t\t\t\n              DUP2 \t\t\t\n              ISZERO \t\t\t\n              PUSH [tag] 258\t\t\t\n              JUMPI \t\t\t\n              DUP4 \t\t\t\n              DUP6 \t\t\t\n              PUSH FFFFFFFFFFFFFFFFFFFFFFFFFFFFFFFFFFFFFFFF\t\t\t\n              AND \t\t\t\n              DUP3 \t\t\t\n              PUSH FFFFFFFFFFFFFFFFFFFFFFFFFFFFFFFFFFFFFFFF\t\t\t\n              AND \t\t\t\n              PUSH 8C5BE1E5EBEC7D5BD14F71427D1E84F3DD0314C0F7B2291E5B200AC8C7C3B925\t\t\t\n              PUSH 40\t\t\t\n              MLOAD \t\t\t\n              PUSH 40\t\t\t\n              MLOAD \t\t\t\n              DUP1 \t\t\t\n              SWAP2 \t\t\t\n              SUB \t\t\t\n              SWAP1 \t\t\t\n              LOG4 \t\t\t\n            tag 258\t\t\t\n              JUMPDEST \t\t\t\n              POP \t\t\t\n            tag 251\t\t\t\n              JUMPDEST \t\t\t\n              DUP4 \t\t\t\n              PUSH 4\t\t\t\n              PUSH 0\t\t\t\n              DUP6 \t\t\t\n              DUP2 \t\t\t\n              MSTORE \t\t\t\n              PUSH 20\t\t\t\n              ADD \t\t\t\n              SWAP1 \t\t\t\n              DUP2 \t\t\t\n              MSTORE \t\t\t\n              PUSH 20\t\t\t\n              ADD \t\t\t\n              PUSH 0\t\t\t\n              KECCAK256 \t\t\t\n              PUSH 0\t\t\t\n              PUSH 100\t\t\t\n              EXP \t\t\t\n              DUP2 \t\t\t\n              SLOAD \t\t\t\n              DUP2 \t\t\t\n              PUSH FFFFFFFFFFFFFFFFFFFFFFFFFFFFFFFFFFFFFFFF\t\t\t\n              MUL \t\t\t\n              NOT \t\t\t\n              AND \t\t\t\n              SWAP1 \t\t\t\n              DUP4 \t\t\t\n              PUSH FFFFFFFFFFFFFFFFFFFFFFFFFFFFFFFFFFFFFFFF\t\t\t\n              AND \t\t\t\n              MUL \t\t\t\n              OR \t\t\t\n              SWAP1 \t\t\t\n              SSTORE \t\t\t\n              POP \t\t\t\n              POP \t\t\t\n              POP \t\t\t\n              POP \t\t\t\n              POP \t\t\t\n              JUMP \t\t\t\n            tag 189\t\t\t\n              JUMPDEST \t\t\t\n              PUSH [tag] 260\t\t\t\n              DUP4 \t\t\t\n              DUP4 \t\t\t\n              DUP4 \t\t\t\n              PUSH [tag] 261\t\t\t\n              JUMP \t\t\t\n            tag 260\t\t\t\n              JUMPDEST \t\t\t\n              PUSH [tag] 262\t\t\t\n              JUMPI \t\t\t\n              PUSH 0\t\t\t\n              PUSH FFFFFFFFFFFFFFFFFFFFFFFFFFFFFFFFFFFFFFFF\t\t\t\n              AND \t\t\t\n              DUP4 \t\t\t\n              PUSH FFFFFFFFFFFFFFFFFFFFFFFFFFFFFFFFFFFFFFFF\t\t\t\n              AND \t\t\t\n              SUB \t\t\t\n              PUSH [tag] 263\t\t\t\n              JUMPI \t\t\t\n              DUP1 \t\t\t\n              PUSH 40\t\t\t\n              MLOAD \t\t\t\n              PUSH 7E27328900000000000000000000000000000000000000000000000000000000\t\t\t\n              DUP2 \t\t\t\n              MSTORE \t\t\t\n              PUSH 4\t\t\t\n              ADD \t\t\t\n              PUSH [tag] 264\t\t\t\n              SWAP2 \t\t\t\n              SWAP1 \t\t\t\n              PUSH [tag] 62\t\t\t\n              JUMP \t\t\t\n            tag 264\t\t\t\n              JUMPDEST \t\t\t\n              PUSH 40\t\t\t\n              MLOAD \t\t\t\n              DUP1 \t\t\t\n              SWAP2 \t\t\t\n              SUB \t\t\t\n              SWAP1 \t\t\t\n              REVERT \t\t\t\n            tag 263\t\t\t\n              JUMPDEST \t\t\t\n              DUP2 \t\t\t\n              DUP2 \t\t\t\n              PUSH 40\t\t\t\n              MLOAD \t\t\t\n              PUSH 177E802F00000000000000000000000000000000000000000000000000000000\t\t\t\n              DUP2 \t\t\t\n              MSTORE \t\t\t\n              PUSH 4\t\t\t\n              ADD \t\t\t\n              PUSH [tag] 266\t\t\t\n              SWAP3 \t\t\t\n              SWAP2 \t\t\t\n              SWAP1 \t\t\t\n              PUSH [tag] 267\t\t\t\n              JUMP \t\t\t\n            tag 266\t\t\t\n              JUMPDEST \t\t\t\n              PUSH 40\t\t\t\n              MLOAD \t\t\t\n              DUP1 \t\t\t\n              SWAP2 \t\t\t\n              SUB \t\t\t\n              SWAP1 \t\t\t\n              REVERT \t\t\t\n            tag 262\t\t\t\n              JUMPDEST \t\t\t\n              POP \t\t\t\n              POP \t\t\t\n              POP \t\t\t\n              JUMP \t\t\t\n            tag 261\t\t\t\n              JUMPDEST \t\t\t\n              PUSH 0\t\t\t\n              DUP1 \t\t\t\n              PUSH FFFFFFFFFFFFFFFFFFFFFFFFFFFFFFFFFFFFFFFF\t\t\t\n              AND \t\t\t\n              DUP4 \t\t\t\n              PUSH FFFFFFFFFFFFFFFFFFFFFFFFFFFFFFFFFFFFFFFF\t\t\t\n              AND \t\t\t\n              EQ \t\t\t\n              ISZERO \t\t\t\n              DUP1 \t\t\t\n              ISZERO \t\t\t\n              PUSH [tag] 269\t\t\t\n              JUMPI \t\t\t\n              POP \t\t\t\n              DUP3 \t\t\t\n              PUSH FFFFFFFFFFFFFFFFFFFFFFFFFFFFFFFFFFFFFFFF\t\t\t\n              AND \t\t\t\n              DUP5 \t\t\t\n              PUSH FFFFFFFFFFFFFFFFFFFFFFFFFFFFFFFFFFFFFFFF\t\t\t\n              AND \t\t\t\n              EQ \t\t\t\n              DUP1 \t\t\t\n              PUSH [tag] 270\t\t\t\n              JUMPI \t\t\t\n              POP \t\t\t\n              PUSH [tag] 271\t\t\t\n              DUP5 \t\t\t\n              DUP5 \t\t\t\n              PUSH [tag] 86\t\t\t\n              JUMP \t\t\t\n            tag 271\t\t\t\n              JUMPDEST \t\t\t\n            tag 270\t\t\t\n              JUMPDEST \t\t\t\n              DUP1 \t\t\t\n              PUSH [tag] 272\t\t\t\n              JUMPI \t\t\t\n              POP \t\t\t\n              DUP3 \t\t\t\n              PUSH FFFFFFFFFFFFFFFFFFFFFFFFFFFFFFFFFFFFFFFF\t\t\t\n              AND \t\t\t\n              PUSH [tag] 273\t\t\t\n              DUP4 \t\t\t\n              PUSH [tag] 107\t\t\t\n              JUMP \t\t\t\n            tag 273\t\t\t\n              JUMPDEST \t\t\t\n              PUSH FFFFFFFFFFFFFFFFFFFFFFFFFFFFFFFFFFFFFFFF\t\t\t\n              AND \t\t\t\n              EQ \t\t\t\n            tag 272\t\t\t\n              JUMPDEST \t\t\t\n            tag 269\t\t\t\n              JUMPDEST \t\t\t\n              SWAP1 \t\t\t\n              POP \t\t\t\n              SWAP4 \t\t\t\n              SWAP3 \t\t\t\n              POP \t\t\t\n              POP \t\t\t\n              POP \t\t\t\n              JUMP \t\t\t\n            tag 274\t\t\t-License-Identifier: MIT\\nprag...\n              JUMPDEST \t\t\t-License-Identifier: MIT\\nprag...\n              PUSH 0\t\t\tolidit\n              PUSH 40\t\t\ten\n              MLOAD \t\t\tameToken}\n              SWAP1 \t\t\t\\nimport {GameToken}\n              POP \t\t\t\\nimport {GameToken}\n              SWAP1 \t\t\t-License-Identifier: MIT\\nprag...\n              JUMP \t\t\t-License-Identifier: MIT\\nprag...\n            tag 275\t\t\teToken.sol\";\\n\\ncontract GameF...\n              JUMPDEST \t\t\teToken.sol\";\\n\\ncontract GameF...\n              PUSH 0\t\t\tg\n              DUP1 \t\t\tr\n              REVERT \t\t\t     string \n            tag 276\t\t\t\\n        address indexed game...\n              JUMPDEST \t\t\t\\n        address indexed game...\n              PUSH 0\t\t\t\\n\n              DUP1 \t\t\tr\n              REVERT \t\t\ted buyer);\\n \n            tag 277\t\t\tatorFundsWithdrawn(address ind...\n              JUMPDEST \t\t\tatorFundsWithdrawn(address ind...\n              PUSH 0\t\t\treator)\n              PUSH FFFFFFFF00000000000000000000000000000000000000000000000000000000\t\t\t\\n    error GameAlreadyPublish...\n              DUP3 \t\t\tunds(\n              AND \t\t\tentFunds();\\n    error GameAlr...\n              SWAP1 \t\t\tr InsufficientFunds();\\n    er...\n              POP \t\t\tr InsufficientFunds();\\n    er...\n              SWAP2 \t\t\tatorFundsWithdrawn(address ind...\n              SWAP1 \t\t\tatorFundsWithdrawn(address ind...\n              POP \t\t\tatorFundsWithdrawn(address ind...\n              JUMP \t\t\tatorFundsWithdrawn(address ind...\n            tag 278\t\t\t        address creator;\\n    ...\n              JUMPDEST \t\t\t        address creator;\\n    ...\n              PUSH [tag] 335\t\t\t    string name;\\n      \n              DUP2 \t\t\t     \n              PUSH [tag] 277\t\t\t    string name;\\n      \n              JUMP \t\t\t    string name;\\n      \n            tag 335\t\t\t    string name;\\n      \n              JUMPDEST \t\t\t    string name;\\n      \n              DUP2 \t\t\tn;\\n  \n              EQ \t\t\token;\\n        string name;\\n ...\n              PUSH [tag] 336\t\t\t address token;\\n        strin...\n              JUMPI \t\t\t address token;\\n        strin...\n              PUSH 0\t\t\t;\n              DUP1 \t\t\ti\n              REVERT \t\t\tt256 price;\\n\n            tag 336\t\t\t address token;\\n        strin...\n              JUMPDEST \t\t\t address token;\\n        strin...\n              POP \t\t\t        address creator;\\n    ...\n              JUMP \t\t\t        address creator;\\n    ...\n            tag 279\t\t\t imageUrl;\\n    }\\n\\n    addre...\n              JUMPDEST \t\t\t imageUrl;\\n    }\\n\\n    addre...\n              PUSH 0\t\t\t    u\n              DUP2 \t\t\ting(st\n              CALLDATALOAD \t\t\t 0;\\n\\n    mapping(str\n              SWAP1 \t\t\tate fee = 0;\\n\\n    mapping(st...\n              POP \t\t\tate fee = 0;\\n\\n    mapping(st...\n              PUSH [tag] 338\t\t\tme) private games;\\n    string...\n              DUP2 \t\t\ting[]\n              PUSH [tag] 278\t\t\tme) private games;\\n    string...\n              JUMP \t\t\tme) private games;\\n    string...\n            tag 338\t\t\tme) private games;\\n    string...\n              JUMPDEST \t\t\tme) private games;\\n    string...\n              SWAP3 \t\t\t imageUrl;\\n    }\\n\\n    addre...\n              SWAP2 \t\t\t imageUrl;\\n    }\\n\\n    addre...\n              POP \t\t\t imageUrl;\\n    }\\n\\n    addre...\n              POP \t\t\t imageUrl;\\n    }\\n\\n    addre...\n              JUMP \t\t\t imageUrl;\\n    }\\n\\n    addre...\n            tag 25\t\t\t;\\n\\n    mapping(address => ui...\n              JUMPDEST \t\t\t;\\n\\n    mapping(address => ui...\n              PUSH 0\t\t\t\\n\\n    \n              PUSH 20\t\t\t t\n              DUP3 \t\t\tytes32 ar\n              DUP5 \t\t\tconvert\n              SUB \t\t\t to convert bytes32 arr\n              SLT \t\t\ttion to convert bytes32 array ...\n              ISZERO \t\t\tunction to convert bytes32 arr...\n              PUSH [tag] 340\t\t\tunction to convert bytes32 arr...\n              JUMPI \t\t\tunction to convert bytes32 arr...\n              PUSH [tag] 341\t\t\tring\\n    function bytes32Arra...\n              PUSH [tag] 275\t\t\tring\\n    function bytes32Arra...\n              JUMP \t\t\tring\\n    function bytes32Arra...\n            tag 341\t\t\tring\\n    function bytes32Arra...\n              JUMPDEST \t\t\tring\\n    function bytes32Arra...\n            tag 340\t\t\tunction to convert bytes32 arr...\n              JUMPDEST \t\t\tunction to convert bytes32 arr...\n              PUSH 0\t\t\ty\n              PUSH [tag] 342\t\t\tmory byteArray;\\n        for (...\n              DUP5 \t\t\ti < dat\n              DUP3 \t\t\t6 i = \n              DUP6 \t\t\tfor (uint\n              ADD \t\t\t    for (uint256 i = 0\n              PUSH [tag] 279\t\t\tmory byteArray;\\n        for (...\n              JUMP \t\t\tmory byteArray;\\n        for (...\n            tag 342\t\t\tmory byteArray;\\n        for (...\n              JUMPDEST \t\t\tmory byteArray;\\n        for (...\n              SWAP2 \t\t\t  bytes memory byteArray;\\n   ...\n              POP \t\t\t  bytes memory byteArray;\\n   ...\n              POP \t\t\t        returns (string memory...\n              SWAP3 \t\t\t;\\n\\n    mapping(address => ui...\n              SWAP2 \t\t\t;\\n\\n    mapping(address => ui...\n              POP \t\t\t;\\n\\n    mapping(address => ui...\n              POP \t\t\t;\\n\\n    mapping(address => ui...\n              JUMP \t\t\t;\\n\\n    mapping(address => ui...\n            tag 280\t\t\t     byteArray = abi.encodePac...\n              JUMPDEST \t\t\t     byteArray = abi.encodePac...\n              PUSH 0\t\t\tbyteArr\n              DUP2 \t\t\trn st\n              ISZERO \t\t\t   return str\n              ISZERO \t\t\t}\\n        return stri\n              SWAP1 \t\t\t);\\n        }\\n        return ...\n              POP \t\t\t);\\n        }\\n        return ...\n              SWAP2 \t\t\t     byteArray = abi.encodePac...\n              SWAP1 \t\t\t     byteArray = abi.encodePac...\n              POP \t\t\t     byteArray = abi.encodePac...\n              JUMP \t\t\t     byteArray = abi.encodePac...\n            tag 281\t\t\t);\\n    }\\n\\n    function publ...\n              JUMPDEST \t\t\t);\\n    }\\n\\n    function publ...\n              PUSH [tag] 345\t\t\tmory _name,\\n        s\n              DUP2 \t\t\t     \n              PUSH [tag] 280\t\t\tmory _name,\\n        s\n              JUMP \t\t\tmory _name,\\n        s\n            tag 345\t\t\tmory _name,\\n        s\n              JUMPDEST \t\t\tmory _name,\\n        s\n              DUP3 \t\t\tng \n              MSTORE \t\t\t   string memory _name,\\n     ...\n              POP \t\t\t);\\n    }\\n\\n    function publ...\n              POP \t\t\t);\\n    }\\n\\n    function publ...\n              JUMP \t\t\t);\\n    }\\n\\n    function publ...\n            tag 28\t\t\t_symbol,\\n        uint256 pric...\n              JUMPDEST \t\t\t_symbol,\\n        uint256 pric...\n              PUSH 0\t\t\t  if\n              PUSH 20\t\t\t))\n              DUP3 \t\t\t= address\n              ADD \t\t\tor != address(0)) \n              SWAP1 \t\t\td].creator != address(0)) \n              POP \t\t\td].creator != address(0)) \n              PUSH [tag] 347\t\t\t    revert GameAlreadyPublishe...\n              PUSH 0\t\t\tn\n              DUP4 \t\t\t   GameTo\n              ADD \t\t\t       GameToken \n              DUP5 \t\t\t     }\n              PUSH [tag] 281\t\t\t    revert GameAlreadyPublishe...\n              JUMP \t\t\t    revert GameAlreadyPublishe...\n            tag 347\t\t\t    revert GameAlreadyPublishe...\n              JUMPDEST \t\t\t    revert GameAlreadyPublishe...\n              SWAP3 \t\t\t_symbol,\\n        uint256 pric...\n              SWAP2 \t\t\t_symbol,\\n        uint256 pric...\n              POP \t\t\t_symbol,\\n        uint256 pric...\n              POP \t\t\t_symbol,\\n        uint256 pric...\n              JUMP \t\t\t_symbol,\\n        uint256 pric...\n            tag 282\t\t\tw GameToken(_name, _symbol, _i...\n              JUMPDEST \t\t\tw GameToken(_name, _symbol, _i...\n              PUSH 0\t\t\tToken.\n              DUP2 \t\t\tames[\n              MLOAD \t\t\t     games[_\n              SWAP1 \t\t\tder);\\n\\n        games[_\n              POP \t\t\tder);\\n\\n        games[_\n              SWAP2 \t\t\tw GameToken(_name, _symbol, _i...\n              SWAP1 \t\t\tw GameToken(_name, _symbol, _i...\n              POP \t\t\tw GameToken(_name, _symbol, _i...\n              JUMP \t\t\tw GameToken(_name, _symbol, _i...\n            tag 283\t\t\t            msg.sender,\\n     ...\n              JUMPDEST \t\t\t            msg.sender,\\n     ...\n              PUSH 0\t\t\t  _name,\\n  \n              DUP3 \t\t\t      \n              DUP3 \t\t\t   \n              MSTORE \t\t\trice,\\n            _\n              PUSH 20\t\t\tpush\n              DUP3 \t\t\tcid\n              ADD \t\t\t    cids.push(\n              SWAP1 \t\t\t        );\\n        cids.push(\n              POP \t\t\t        );\\n        cids.push(\n              SWAP3 \t\t\t            msg.sender,\\n     ...\n              SWAP2 \t\t\t            msg.sender,\\n     ...\n              POP \t\t\t            msg.sender,\\n     ...\n              POP \t\t\t            msg.sender,\\n     ...\n              JUMP \t\t\t            msg.sender,\\n     ...\n            tag 284\t\t\t   emit GameTokenCreated(cids....\n              JUMPDEST \t\t\t   emit GameTokenCreated(cids....\n              DUP3 \t\t\tbuyGam\n              DUP2 \t\t\ttio\n              DUP4 \t\t\t fu\n              MCOPY \t\t\t}\\n\\n    function buyGame\n              PUSH 0\t\t\tb\n              DUP4 \t\t\trnal p\n              DUP4 \t\t\t ex\n              ADD \t\t\tcid) external pa\n              MSTORE \t\t\temory _cid) external payabl\n              POP \t\t\t   emit GameTokenCreated(cids....\n              POP \t\t\t   emit GameTokenCreated(cids....\n              POP \t\t\t   emit GameTokenCreated(cids....\n              JUMP \t\t\t   emit GameTokenCreated(cids....\n            tag 285\t\t\tame memory _game = games[_cid]...\n              JUMPDEST \t\t\tame memory _game = games[_cid]...\n              PUSH 0\t\t\tif (_g\n              PUSH 1F\t\t\trt\n              NOT \t\t\trevert \n              PUSH 1F\t\t\t  \n              DUP4 \t\t\t     \n              ADD \t\t\t) {\\n          \n              AND \t\t\ts(0)) {\\n            revert I\n              SWAP1 \t\t\t == address(0)) {\\n           ...\n              POP \t\t\t == address(0)) {\\n           ...\n              SWAP2 \t\t\tame memory _game = games[_cid]...\n              SWAP1 \t\t\tame memory _game = games[_cid]...\n              POP \t\t\tame memory _game = games[_cid]...\n              JUMP \t\t\tame memory _game = games[_cid]...\n            tag 286\t\t\t;\\n        }\\n\\n        if (ms...\n              JUMPDEST \t\t\t;\\n        }\\n\\n        if (ms...\n              PUSH 0\t\t\t();\n              PUSH [tag] 353\t\t\trbalance[_game.creator] += _ga...\n              DUP3 \t\t\tprice\n              PUSH [tag] 282\t\t\trbalance[_game.creator] += _ga...\n              JUMP \t\t\trbalance[_game.creator] += _ga...\n            tag 353\t\t\trbalance[_game.creator] += _ga...\n              JUMPDEST \t\t\trbalance[_game.creator] += _ga...\n              PUSH [tag] 354\t\t\ten gameToken = GameToken(_game...\n              DUP2 \t\t\tg.send\n              DUP6 \t\t\tnt(\n              PUSH [tag] 283\t\t\ten gameToken = GameToken(_game...\n              JUMP \t\t\ten gameToken = GameToken(_game...\n            tag 354\t\t\ten gameToken = GameToken(_game...\n              JUMPDEST \t\t\ten gameToken = GameToken(_game...\n              SWAP4 \t\t\tGameToken gameToken = GameToke...\n              POP \t\t\tGameToken gameToken = GameToke...\n              PUSH [tag] 355\t\t\t    emit GamePurchased(_cid, m...\n              DUP2 \t\t\tion wi\n              DUP6 \t\t\tfun\n              PUSH 20\t\t\t}\\n\\n \n              DUP7 \t\t\t);\\n  \n              ADD \t\t\tnder);\\n    }\\n\\n  \n              PUSH [tag] 284\t\t\t    emit GamePurchased(_cid, m...\n              JUMP \t\t\t    emit GamePurchased(_cid, m...\n            tag 355\t\t\t    emit GamePurchased(_cid, m...\n              JUMPDEST \t\t\t    emit GamePurchased(_cid, m...\n              PUSH [tag] 356\t\t\tnal {\\n        if (creatorbala\n              DUP2 \t\t\ttorbal\n              PUSH [tag] 285\t\t\tnal {\\n        if (creatorbala\n              JUMP \t\t\tnal {\\n        if (creatorbala\n            tag 356\t\t\tnal {\\n        if (creatorbala\n              JUMPDEST \t\t\tnal {\\n        if (creatorbala\n              DUP5 \t\t\text\n              ADD \t\t\ts() external {\\n        if (cr...\n              SWAP2 \t\t\ttorFunds() external {\\n       ...\n              POP \t\t\ttorFunds() external {\\n       ...\n              POP \t\t\t        }\\n        creatorbala...\n              SWAP3 \t\t\t;\\n        }\\n\\n        if (ms...\n              SWAP2 \t\t\t;\\n        }\\n\\n        if (ms...\n              POP \t\t\t;\\n        }\\n\\n        if (ms...\n              POP \t\t\t;\\n        }\\n\\n        if (ms...\n              JUMP \t\t\t;\\n        }\\n\\n        if (ms...\n            tag 32\t\t\tr] == 0) {\\n            revert...\n              JUMPDEST \t\t\tr] == 0) {\\n            revert...\n              PUSH 0\t\t\tmsg.\n              PUSH 20\t\t\tsg\n              DUP3 \t\t\torbalance\n              ADD \t\t\treatorbalance[msg.\n              SWAP1 \t\t\t       creatorbalance[msg.\n              POP \t\t\t       creatorbalance[msg.\n              DUP2 \t\t\twn(msg.se\n              DUP2 \t\t\tithd\n              SUB \t\t\tndsWithdrawn(msg.sen\n              PUSH 0\t\t\to\n              DUP4 \t\t\t emit Cre\n              ADD \t\t\t     emit Creator\n              MSTORE \t\t\t0;\\n\\n        emit CreatorFund...\n              PUSH [tag] 358\t\t\t/ View Functions\\n    function...\n              DUP2 \t\t\trnal\n              DUP5 \t\t\tcid) e\n              PUSH [tag] 286\t\t\t/ View Functions\\n    function...\n              JUMP \t\t\t/ View Functions\\n    function...\n            tag 358\t\t\t/ View Functions\\n    function...\n              JUMPDEST \t\t\t/ View Functions\\n    function...\n              SWAP1 \t\t\t}\\n\\n    // View Functions\\n  ...\n              POP \t\t\t}\\n\\n    // View Functions\\n  ...\n              SWAP3 \t\t\tr] == 0) {\\n            revert...\n              SWAP2 \t\t\tr] == 0) {\\n            revert...\n              POP \t\t\tr] == 0) {\\n            revert...\n              POP \t\t\tr] == 0) {\\n            revert...\n              JUMP \t\t\tr] == 0) {\\n            revert...\n            tag 287\t\t\t(bool) {\\n        string memor...\n              JUMPDEST \t\t\t(bool) {\\n        string memor...\n              PUSH 0\t\t\t bytes3\n              DUP2 \t\t\t     \n              SWAP1 \t\t\ting(cid);\\n      \n              POP \t\t\ting(cid);\\n      \n              SWAP2 \t\t\t(bool) {\\n        string memor...\n              SWAP1 \t\t\t(bool) {\\n        string memor...\n              POP \t\t\t(bool) {\\n        string memor...\n              JUMP \t\t\t(bool) {\\n        string memor...\n            tag 288\t\t\tkenAddress = games[_cid].token...\n              JUMPDEST \t\t\tkenAddress = games[_cid].token...\n              PUSH [tag] 361\t\t\t\\n            revert Inva\n              DUP2 \t\t\tt Inv\n              PUSH [tag] 287\t\t\t\\n            revert Inva\n              JUMP \t\t\t\\n            revert Inva\n            tag 361\t\t\t\\n            revert Inva\n              JUMPDEST \t\t\t\\n            revert Inva\n              DUP2 \t\t\ts(0))\n              EQ \t\t\tress(0)) {\\n            revert...\n              PUSH [tag] 362\t\t\tess == address(0)) {\\n        ...\n              JUMPI \t\t\tess == address(0)) {\\n        ...\n              PUSH 0\t\t\t \n              DUP1 \t\t\t \n              REVERT \t\t\tme();\\n      \n            tag 362\t\t\tess == address(0)) {\\n        ...\n              JUMPDEST \t\t\tess == address(0)) {\\n        ...\n              POP \t\t\tkenAddress = games[_cid].token...\n              JUMP \t\t\tkenAddress = games[_cid].token...\n            tag 289\t\t\tmeToken gameToken = GameToken(...\n              JUMPDEST \t\t\tmeToken gameToken = GameToken(...\n              PUSH 0\t\t\t     \n              DUP2 \t\t\tsender\n              CALLDATALOAD \t\t\talanceOf(msg.sender)\n              SWAP1 \t\t\tmeToken.balanceOf(msg.sender)\n              POP \t\t\tmeToken.balanceOf(msg.sender)\n              PUSH [tag] 364\t\t\t  }\\n\\n    function isGameOwne...\n              DUP2 \t\t\ted(st\n              PUSH [tag] 288\t\t\t  }\\n\\n    function isGameOwne...\n              JUMP \t\t\t  }\\n\\n    function isGameOwne...\n            tag 364\t\t\t  }\\n\\n    function isGameOwne...\n              JUMPDEST \t\t\t  }\\n\\n    function isGameOwne...\n              SWAP3 \t\t\tmeToken gameToken = GameToken(...\n              SWAP2 \t\t\tmeToken gameToken = GameToken(...\n              POP \t\t\tmeToken gameToken = GameToken(...\n              POP \t\t\tmeToken gameToken = GameToken(...\n              JUMP \t\t\tmeToken gameToken = GameToken(...\n            tag 35\t\t\tcid) external view returns (bo...\n              JUMPDEST \t\t\tcid) external view returns (bo...\n              PUSH 0\t\t\tdress \n              PUSH 20\t\t\tss\n              DUP3 \t\t\t (tokenAd\n              DUP5 \t\t\t       \n              SUB \t\t\tn;\\n        if (tokenAdd\n              SLT \t\t\ttoken;\\n        if (tokenAddre...\n              ISZERO \t\t\td].token;\\n        if (tokenAd...\n              PUSH [tag] 366\t\t\td].token;\\n        if (tokenAd...\n              JUMPI \t\t\td].token;\\n        if (tokenAd...\n              PUSH [tag] 367\t\t\taddress(0)) {\\n            rev...\n              PUSH [tag] 275\t\t\taddress(0)) {\\n            rev...\n              JUMP \t\t\taddress(0)) {\\n            rev...\n            tag 367\t\t\taddress(0)) {\\n            rev...\n              JUMPDEST \t\t\taddress(0)) {\\n            rev...\n            tag 366\t\t\td].token;\\n        if (tokenAd...\n              JUMPDEST \t\t\td].token;\\n        if (tokenAd...\n              PUSH 0\t\t\t \n              PUSH [tag] 368\t\t\tOf(msg.sender) >= 1;\\n    }\\n\\...\n              DUP5 \t\t\tames() \n              DUP3 \t\t\ttion g\n              DUP6 \t\t\t}\\n\\n    fu\n              ADD \t\t\t    }\\n\\n    function ge\n              PUSH [tag] 289\t\t\tOf(msg.sender) >= 1;\\n    }\\n\\...\n              JUMP \t\t\tOf(msg.sender) >= 1;\\n    }\\n\\...\n            tag 368\t\t\tOf(msg.sender) >= 1;\\n    }\\n\\...\n              JUMPDEST \t\t\tOf(msg.sender) >= 1;\\n    }\\n\\...\n              SWAP2 \t\t\ten.balanceOf(msg.sender) >= 1;...\n              POP \t\t\ten.balanceOf(msg.sender) >= 1;...\n              POP \t\t\teToken(tokenAddress);\\n       ...\n              SWAP3 \t\t\tcid) external view returns (bo...\n              SWAP2 \t\t\tcid) external view returns (bo...\n              POP \t\t\tcid) external view returns (bo...\n              POP \t\t\tcid) external view returns (bo...\n              JUMP \t\t\tcid) external view returns (bo...\n            tag 290\t\t\tame[] memory) {\\n        Game[...\n              JUMPDEST \t\t\tame[] memory) {\\n        Game[...\n              PUSH 0\t\t\t _games\n              PUSH FFFFFFFFFFFFFFFFFFFFFFFFFFFFFFFFFFFFFFFF\t\t\t   for (uint256 i = 0; i < cid...\n              DUP3 \t\t\t;\\n   \n              AND \t\t\tgth);\\n        for (uint256 i ...\n              SWAP1 \t\t\t[](cids.length);\\n        for ...\n              POP \t\t\t[](cids.length);\\n        for ...\n              SWAP2 \t\t\tame[] memory) {\\n        Game[...\n              SWAP1 \t\t\tame[] memory) {\\n        Game[...\n              POP \t\t\tame[] memory) {\\n        Game[...\n              JUMP \t\t\tame[] memory) {\\n        Game[...\n            tag 291\t\t\t    _games[i] = games[cids[i]]...\n              JUMPDEST \t\t\t    _games[i] = games[cids[i]]...\n              PUSH 0\t\t\t   }\\n\\n \n              PUSH [tag] 371\t\t\t    }\\n\\n    function getG\n              DUP3 \t\t\tn get\n              PUSH [tag] 290\t\t\t    }\\n\\n    function getG\n              JUMP \t\t\t    }\\n\\n    function getG\n            tag 371\t\t\t    }\\n\\n    function getG\n              JUMPDEST \t\t\t    }\\n\\n    function getG\n              SWAP1 \t\t\trn _games;\\n    }\\n\\n    funct...\n              POP \t\t\trn _games;\\n    }\\n\\n    funct...\n              SWAP2 \t\t\t    _games[i] = games[cids[i]]...\n              SWAP1 \t\t\t    _games[i] = games[cids[i]]...\n              POP \t\t\t    _games[i] = games[cids[i]]...\n              JUMP \t\t\t    _games[i] = games[cids[i]]...\n            tag 292\t\t\ting memory _cid)\\n        exte...\n              JUMPDEST \t\t\ting memory _cid)\\n        exte...\n              PUSH [tag] 373\t\t\t    Game memory _game = \n              DUP2 \t\t\tame =\n              PUSH [tag] 291\t\t\t    Game memory _game = \n              JUMP \t\t\t    Game memory _game = \n            tag 373\t\t\t    Game memory _game = \n              JUMPDEST \t\t\t    Game memory _game = \n              DUP3 \t\t\t\\n  \n              MSTORE \t\t\t)\\n    {\\n        Game memory ...\n              POP \t\t\ting memory _cid)\\n        exte...\n              POP \t\t\ting memory _cid)\\n        exte...\n              JUMP \t\t\ting memory _cid)\\n        exte...\n            tag 38\t\t\t        if (_game.creator == a...\n              JUMPDEST \t\t\t        if (_game.creator == a...\n              PUSH 0\t\t\t  re\n              PUSH 20\t\t\ttG\n              DUP3 \t\t\tfunction \n              ADD \t\t\t    function getGa\n              SWAP1 \t\t\t\\n    }\\n\\n    function getGa\n              POP \t\t\t\\n    }\\n\\n    function getGa\n              PUSH [tag] 375\t\t\tth() external view returns (ui...\n              PUSH 0\t\t\t \n              DUP4 \t\t\ts.length;\n              ADD \t\t\t cids.length;\\n   \n              DUP5 \t\t\t   ret\n              PUSH [tag] 292\t\t\tth() external view returns (ui...\n              JUMP \t\t\tth() external view returns (ui...\n            tag 375\t\t\tth() external view returns (ui...\n              JUMPDEST \t\t\tth() external view returns (ui...\n              SWAP3 \t\t\t        if (_game.creator == a...\n              SWAP2 \t\t\t        if (_game.creator == a...\n              POP \t\t\t        if (_game.creator == a...\n              POP \t\t\t        if (_game.creator == a...\n              JUMP \t\t\t        if (_game.creator == a...\n            tag 293\t\t\t\n              JUMPDEST \t\t\t\n              PUSH [tag] 377\t\t\t\n              DUP2 \t\t\t\n              PUSH [tag] 291\t\t\t\n              JUMP \t\t\t\n            tag 377\t\t\t\n              JUMPDEST \t\t\t\n              DUP2 \t\t\t\n              EQ \t\t\t\n              PUSH [tag] 378\t\t\t\n              JUMPI \t\t\t\n              PUSH 0\t\t\t\n              DUP1 \t\t\t\n              REVERT \t\t\t\n            tag 378\t\t\t\n              JUMPDEST \t\t\t\n              POP \t\t\t\n              JUMP \t\t\t\n            tag 294\t\t\t\n              JUMPDEST \t\t\t\n              PUSH 0\t\t\t\n              DUP2 \t\t\t\n              CALLDATALOAD \t\t\t\n              SWAP1 \t\t\t\n              POP \t\t\t\n              PUSH [tag] 380\t\t\t\n              DUP2 \t\t\t\n              PUSH [tag] 293\t\t\t\n              JUMP \t\t\t\n            tag 380\t\t\t\n              JUMPDEST \t\t\t\n              SWAP3 \t\t\t\n              SWAP2 \t\t\t\n              POP \t\t\t\n              POP \t\t\t\n              JUMP \t\t\t\n            tag 41\t\t\t\n              JUMPDEST \t\t\t\n              PUSH 0\t\t\t\n              DUP1 \t\t\t\n              PUSH 40\t\t\t\n              DUP4 \t\t\t\n              DUP6 \t\t\t\n              SUB \t\t\t\n              SLT \t\t\t\n              ISZERO \t\t\t\n              PUSH [tag] 382\t\t\t\n              JUMPI \t\t\t\n              PUSH [tag] 383\t\t\t\n              PUSH [tag] 275\t\t\t\n              JUMP \t\t\t\n            tag 383\t\t\t\n              JUMPDEST \t\t\t\n            tag 382\t\t\t\n              JUMPDEST \t\t\t\n              PUSH 0\t\t\t\n              PUSH [tag] 384\t\t\t\n              DUP6 \t\t\t\n              DUP3 \t\t\t\n              DUP7 \t\t\t\n              ADD \t\t\t\n              PUSH [tag] 294\t\t\t\n              JUMP \t\t\t\n            tag 384\t\t\t\n              JUMPDEST \t\t\t\n              SWAP3 \t\t\t\n              POP \t\t\t\n              POP \t\t\t\n              PUSH 20\t\t\t\n              PUSH [tag] 385\t\t\t\n              DUP6 \t\t\t\n              DUP3 \t\t\t\n              DUP7 \t\t\t\n              ADD \t\t\t\n              PUSH [tag] 289\t\t\t\n              JUMP \t\t\t\n            tag 385\t\t\t\n              JUMPDEST \t\t\t\n              SWAP2 \t\t\t\n              POP \t\t\t\n              POP \t\t\t\n              SWAP3 \t\t\t\n              POP \t\t\t\n              SWAP3 \t\t\t\n              SWAP1 \t\t\t\n              POP \t\t\t\n              JUMP \t\t\t\n            tag 45\t\t\t\n              JUMPDEST \t\t\t\n              PUSH 0\t\t\t\n              DUP1 \t\t\t\n              PUSH 0\t\t\t\n              PUSH 60\t\t\t\n              DUP5 \t\t\t\n              DUP7 \t\t\t\n              SUB \t\t\t\n              SLT \t\t\t\n              ISZERO \t\t\t\n              PUSH [tag] 387\t\t\t\n              JUMPI \t\t\t\n              PUSH [tag] 388\t\t\t\n              PUSH [tag] 275\t\t\t\n              JUMP \t\t\t\n            tag 388\t\t\t\n              JUMPDEST \t\t\t\n            tag 387\t\t\t\n              JUMPDEST \t\t\t\n              PUSH 0\t\t\t\n              PUSH [tag] 389\t\t\t\n              DUP7 \t\t\t\n              DUP3 \t\t\t\n              DUP8 \t\t\t\n              ADD \t\t\t\n              PUSH [tag] 294\t\t\t\n              JUMP \t\t\t\n            tag 389\t\t\t\n              JUMPDEST \t\t\t\n              SWAP4 \t\t\t\n              POP \t\t\t\n              POP \t\t\t\n              PUSH 20\t\t\t\n              PUSH [tag] 390\t\t\t\n              DUP7 \t\t\t\n              DUP3 \t\t\t\n              DUP8 \t\t\t\n              ADD \t\t\t\n              PUSH [tag] 294\t\t\t\n              JUMP \t\t\t\n            tag 390\t\t\t\n              JUMPDEST \t\t\t\n              SWAP3 \t\t\t\n              POP \t\t\t\n              POP \t\t\t\n              PUSH 40\t\t\t\n              PUSH [tag] 391\t\t\t\n              DUP7 \t\t\t\n              DUP3 \t\t\t\n              DUP8 \t\t\t\n              ADD \t\t\t\n              PUSH [tag] 289\t\t\t\n              JUMP \t\t\t\n            tag 391\t\t\t\n              JUMPDEST \t\t\t\n              SWAP2 \t\t\t\n              POP \t\t\t\n              POP \t\t\t\n              SWAP3 \t\t\t\n              POP \t\t\t\n              SWAP3 \t\t\t\n              POP \t\t\t\n              SWAP3 \t\t\t\n              JUMP \t\t\t\n            tag 56\t\t\t\n              JUMPDEST \t\t\t\n              PUSH 0\t\t\t\n              PUSH 20\t\t\t\n              DUP3 \t\t\t\n              DUP5 \t\t\t\n              SUB \t\t\t\n              SLT \t\t\t\n              ISZERO \t\t\t\n              PUSH [tag] 393\t\t\t\n              JUMPI \t\t\t\n              PUSH [tag] 394\t\t\t\n              PUSH [tag] 275\t\t\t\n              JUMP \t\t\t\n            tag 394\t\t\t\n              JUMPDEST \t\t\t\n            tag 393\t\t\t\n              JUMPDEST \t\t\t\n              PUSH 0\t\t\t\n              PUSH [tag] 395\t\t\t\n              DUP5 \t\t\t\n              DUP3 \t\t\t\n              DUP6 \t\t\t\n              ADD \t\t\t\n              PUSH [tag] 294\t\t\t\n              JUMP \t\t\t\n            tag 395\t\t\t\n              JUMPDEST \t\t\t\n              SWAP2 \t\t\t\n              POP \t\t\t\n              POP \t\t\t\n              SWAP3 \t\t\t\n              SWAP2 \t\t\t\n              POP \t\t\t\n              POP \t\t\t\n              JUMP \t\t\t\n            tag 295\t\t\t\n              JUMPDEST \t\t\t\n              PUSH [tag] 397\t\t\t\n              DUP2 \t\t\t\n              PUSH [tag] 287\t\t\t\n              JUMP \t\t\t\n            tag 397\t\t\t\n              JUMPDEST \t\t\t\n              DUP3 \t\t\t\n              MSTORE \t\t\t\n              POP \t\t\t\n              POP \t\t\t\n              JUMP \t\t\t\n            tag 62\t\t\t\n              JUMPDEST \t\t\t\n              PUSH 0\t\t\t\n              PUSH 20\t\t\t\n              DUP3 \t\t\t\n              ADD \t\t\t\n              SWAP1 \t\t\t\n              POP \t\t\t\n              PUSH [tag] 399\t\t\t\n              PUSH 0\t\t\t\n              DUP4 \t\t\t\n              ADD \t\t\t\n              DUP5 \t\t\t\n              PUSH [tag] 295\t\t\t\n              JUMP \t\t\t\n            tag 399\t\t\t\n              JUMPDEST \t\t\t\n              SWAP3 \t\t\t\n              SWAP2 \t\t\t\n              POP \t\t\t\n              POP \t\t\t\n              JUMP \t\t\t\n            tag 296\t\t\t\n              JUMPDEST \t\t\t\n              PUSH [tag] 401\t\t\t\n              DUP2 \t\t\t\n              PUSH [tag] 280\t\t\t\n              JUMP \t\t\t\n            tag 401\t\t\t\n              JUMPDEST \t\t\t\n              DUP2 \t\t\t\n              EQ \t\t\t\n              PUSH [tag] 402\t\t\t\n              JUMPI \t\t\t\n              PUSH 0\t\t\t\n              DUP1 \t\t\t\n              REVERT \t\t\t\n            tag 402\t\t\t\n              JUMPDEST \t\t\t\n              POP \t\t\t\n              JUMP \t\t\t\n            tag 297\t\t\t\n              JUMPDEST \t\t\t\n              PUSH 0\t\t\t\n              DUP2 \t\t\t\n              CALLDATALOAD \t\t\t\n              SWAP1 \t\t\t\n              POP \t\t\t\n              PUSH [tag] 404\t\t\t\n              DUP2 \t\t\t\n              PUSH [tag] 296\t\t\t\n              JUMP \t\t\t\n            tag 404\t\t\t\n              JUMPDEST \t\t\t\n              SWAP3 \t\t\t\n              SWAP2 \t\t\t\n              POP \t\t\t\n              POP \t\t\t\n              JUMP \t\t\t\n            tag 73\t\t\t\n              JUMPDEST \t\t\t\n              PUSH 0\t\t\t\n              DUP1 \t\t\t\n              PUSH 40\t\t\t\n              DUP4 \t\t\t\n              DUP6 \t\t\t\n              SUB \t\t\t\n              SLT \t\t\t\n              ISZERO \t\t\t\n              PUSH [tag] 406\t\t\t\n              JUMPI \t\t\t\n              PUSH [tag] 407\t\t\t\n              PUSH [tag] 275\t\t\t\n              JUMP \t\t\t\n            tag 407\t\t\t\n              JUMPDEST \t\t\t\n            tag 406\t\t\t\n              JUMPDEST \t\t\t\n              PUSH 0\t\t\t\n              PUSH [tag] 408\t\t\t\n              DUP6 \t\t\t\n              DUP3 \t\t\t\n              DUP7 \t\t\t\n              ADD \t\t\t\n              PUSH [tag] 294\t\t\t\n              JUMP \t\t\t\n            tag 408\t\t\t\n              JUMPDEST \t\t\t\n              SWAP3 \t\t\t\n              POP \t\t\t\n              POP \t\t\t\n              PUSH 20\t\t\t\n              PUSH [tag] 409\t\t\t\n              DUP6 \t\t\t\n              DUP3 \t\t\t\n              DUP7 \t\t\t\n              ADD \t\t\t\n              PUSH [tag] 297\t\t\t\n              JUMP \t\t\t\n            tag 409\t\t\t\n              JUMPDEST \t\t\t\n              SWAP2 \t\t\t\n              POP \t\t\t\n              POP \t\t\t\n              SWAP3 \t\t\t\n              POP \t\t\t\n              SWAP3 \t\t\t\n              SWAP1 \t\t\t\n              POP \t\t\t\n              JUMP \t\t\t\n            tag 298\t\t\t\n              JUMPDEST \t\t\t\n              PUSH 0\t\t\t\n              DUP1 \t\t\t\n              REVERT \t\t\t\n            tag 299\t\t\t\n              JUMPDEST \t\t\t\n              PUSH 0\t\t\t\n              DUP1 \t\t\t\n              REVERT \t\t\t\n            tag 240\t\t\t\n              JUMPDEST \t\t\t\n              PUSH 4E487B7100000000000000000000000000000000000000000000000000000000\t\t\t\n              PUSH 0\t\t\t\n              MSTORE \t\t\t\n              PUSH 41\t\t\t\n              PUSH 4\t\t\t\n              MSTORE \t\t\t\n              PUSH 24\t\t\t\n              PUSH 0\t\t\t\n              REVERT \t\t\t\n            tag 300\t\t\t\n              JUMPDEST \t\t\t\n              PUSH [tag] 414\t\t\t\n              DUP3 \t\t\t\n              PUSH [tag] 285\t\t\t\n              JUMP \t\t\t\n            tag 414\t\t\t\n              JUMPDEST \t\t\t\n              DUP2 \t\t\t\n              ADD \t\t\t\n              DUP2 \t\t\t\n              DUP2 \t\t\t\n              LT \t\t\t\n              PUSH FFFFFFFFFFFFFFFF\t\t\t\n              DUP3 \t\t\t\n              GT \t\t\t\n              OR \t\t\t\n              ISZERO \t\t\t\n              PUSH [tag] 415\t\t\t\n              JUMPI \t\t\t\n              PUSH [tag] 416\t\t\t\n              PUSH [tag] 240\t\t\t\n              JUMP \t\t\t\n            tag 416\t\t\t\n              JUMPDEST \t\t\t\n            tag 415\t\t\t\n              JUMPDEST \t\t\t\n              DUP1 \t\t\t\n              PUSH 40\t\t\t\n              MSTORE \t\t\t\n              POP \t\t\t\n              POP \t\t\t\n              POP \t\t\t\n              JUMP \t\t\t\n            tag 301\t\t\t\n              JUMPDEST \t\t\t\n              PUSH 0\t\t\t\n              PUSH [tag] 418\t\t\t\n              PUSH [tag] 274\t\t\t\n              JUMP \t\t\t\n            tag 418\t\t\t\n              JUMPDEST \t\t\t\n              SWAP1 \t\t\t\n              POP \t\t\t\n              PUSH [tag] 419\t\t\t\n              DUP3 \t\t\t\n              DUP3 \t\t\t\n              PUSH [tag] 300\t\t\t\n              JUMP \t\t\t\n            tag 419\t\t\t\n              JUMPDEST \t\t\t\n              SWAP2 \t\t\t\n              SWAP1 \t\t\t\n              POP \t\t\t\n              JUMP \t\t\t\n            tag 302\t\t\t\n              JUMPDEST \t\t\t\n              PUSH 0\t\t\t\n              PUSH FFFFFFFFFFFFFFFF\t\t\t\n              DUP3 \t\t\t\n              GT \t\t\t\n              ISZERO \t\t\t\n              PUSH [tag] 421\t\t\t\n              JUMPI \t\t\t\n              PUSH [tag] 422\t\t\t\n              PUSH [tag] 240\t\t\t\n              JUMP \t\t\t\n            tag 422\t\t\t\n              JUMPDEST \t\t\t\n            tag 421\t\t\t\n              JUMPDEST \t\t\t\n              PUSH [tag] 423\t\t\t\n              DUP3 \t\t\t\n              PUSH [tag] 285\t\t\t\n              JUMP \t\t\t\n            tag 423\t\t\t\n              JUMPDEST \t\t\t\n              SWAP1 \t\t\t\n              POP \t\t\t\n              PUSH 20\t\t\t\n              DUP2 \t\t\t\n              ADD \t\t\t\n              SWAP1 \t\t\t\n              POP \t\t\t\n              SWAP2 \t\t\t\n              SWAP1 \t\t\t\n              POP \t\t\t\n              JUMP \t\t\t\n            tag 303\t\t\t\n              JUMPDEST \t\t\t\n              DUP3 \t\t\t\n              DUP2 \t\t\t\n              DUP4 \t\t\t\n              CALLDATACOPY \t\t\t\n              PUSH 0\t\t\t\n              DUP4 \t\t\t\n              DUP4 \t\t\t\n              ADD \t\t\t\n              MSTORE \t\t\t\n              POP \t\t\t\n              POP \t\t\t\n              POP \t\t\t\n              JUMP \t\t\t\n            tag 304\t\t\t\n              JUMPDEST \t\t\t\n              PUSH 0\t\t\t\n              PUSH [tag] 426\t\t\t\n              PUSH [tag] 427\t\t\t\n              DUP5 \t\t\t\n              PUSH [tag] 302\t\t\t\n              JUMP \t\t\t\n            tag 427\t\t\t\n              JUMPDEST \t\t\t\n              PUSH [tag] 301\t\t\t\n              JUMP \t\t\t\n            tag 426\t\t\t\n              JUMPDEST \t\t\t\n              SWAP1 \t\t\t\n              POP \t\t\t\n              DUP3 \t\t\t\n              DUP2 \t\t\t\n              MSTORE \t\t\t\n              PUSH 20\t\t\t\n              DUP2 \t\t\t\n              ADD \t\t\t\n              DUP5 \t\t\t\n              DUP5 \t\t\t\n              DUP5 \t\t\t\n              ADD \t\t\t\n              GT \t\t\t\n              ISZERO \t\t\t\n              PUSH [tag] 428\t\t\t\n              JUMPI \t\t\t\n              PUSH [tag] 429\t\t\t\n              PUSH [tag] 299\t\t\t\n              JUMP \t\t\t\n            tag 429\t\t\t\n              JUMPDEST \t\t\t\n            tag 428\t\t\t\n              JUMPDEST \t\t\t\n              PUSH [tag] 430\t\t\t\n              DUP5 \t\t\t\n              DUP3 \t\t\t\n              DUP6 \t\t\t\n              PUSH [tag] 303\t\t\t\n              JUMP \t\t\t\n            tag 430\t\t\t\n              JUMPDEST \t\t\t\n              POP \t\t\t\n              SWAP4 \t\t\t\n              SWAP3 \t\t\t\n              POP \t\t\t\n              POP \t\t\t\n              POP \t\t\t\n              JUMP \t\t\t\n            tag 305\t\t\t\n              JUMPDEST \t\t\t\n              PUSH 0\t\t\t\n              DUP3 \t\t\t\n              PUSH 1F\t\t\t\n              DUP4 \t\t\t\n              ADD \t\t\t\n              SLT \t\t\t\n              PUSH [tag] 432\t\t\t\n              JUMPI \t\t\t\n              PUSH [tag] 433\t\t\t\n              PUSH [tag] 298\t\t\t\n              JUMP \t\t\t\n            tag 433\t\t\t\n              JUMPDEST \t\t\t\n            tag 432\t\t\t\n              JUMPDEST \t\t\t\n              DUP2 \t\t\t\n              CALLDATALOAD \t\t\t\n              PUSH [tag] 434\t\t\t\n              DUP5 \t\t\t\n              DUP3 \t\t\t\n              PUSH 20\t\t\t\n              DUP7 \t\t\t\n              ADD \t\t\t\n              PUSH [tag] 304\t\t\t\n              JUMP \t\t\t\n            tag 434\t\t\t\n              JUMPDEST \t\t\t\n              SWAP2 \t\t\t\n              POP \t\t\t\n              POP \t\t\t\n              SWAP3 \t\t\t\n              SWAP2 \t\t\t\n              POP \t\t\t\n              POP \t\t\t\n              JUMP \t\t\t\n            tag 77\t\t\t\n              JUMPDEST \t\t\t\n              PUSH 0\t\t\t\n              DUP1 \t\t\t\n              PUSH 0\t\t\t\n              DUP1 \t\t\t\n              PUSH 80\t\t\t\n              DUP6 \t\t\t\n              DUP8 \t\t\t\n              SUB \t\t\t\n              SLT \t\t\t\n              ISZERO \t\t\t\n              PUSH [tag] 436\t\t\t\n              JUMPI \t\t\t\n              PUSH [tag] 437\t\t\t\n              PUSH [tag] 275\t\t\t\n              JUMP \t\t\t\n            tag 437\t\t\t\n              JUMPDEST \t\t\t\n            tag 436\t\t\t\n              JUMPDEST \t\t\t\n              PUSH 0\t\t\t\n              PUSH [tag] 438\t\t\t\n              DUP8 \t\t\t\n              DUP3 \t\t\t\n              DUP9 \t\t\t\n              ADD \t\t\t\n              PUSH [tag] 294\t\t\t\n              JUMP \t\t\t\n            tag 438\t\t\t\n              JUMPDEST \t\t\t\n              SWAP5 \t\t\t\n              POP \t\t\t\n              POP \t\t\t\n              PUSH 20\t\t\t\n              PUSH [tag] 439\t\t\t\n              DUP8 \t\t\t\n              DUP3 \t\t\t\n              DUP9 \t\t\t\n              ADD \t\t\t\n              PUSH [tag] 294\t\t\t\n              JUMP \t\t\t\n            tag 439\t\t\t\n              JUMPDEST \t\t\t\n              SWAP4 \t\t\t\n              POP \t\t\t\n              POP \t\t\t\n              PUSH 40\t\t\t\n              PUSH [tag] 440\t\t\t\n              DUP8 \t\t\t\n              DUP3 \t\t\t\n              DUP9 \t\t\t\n              ADD \t\t\t\n              PUSH [tag] 289\t\t\t\n              JUMP \t\t\t\n            tag 440\t\t\t\n              JUMPDEST \t\t\t\n              SWAP3 \t\t\t\n              POP \t\t\t\n              POP \t\t\t\n              PUSH 60\t\t\t\n              DUP6 \t\t\t\n              ADD \t\t\t\n              CALLDATALOAD \t\t\t\n              PUSH FFFFFFFFFFFFFFFF\t\t\t\n              DUP2 \t\t\t\n              GT \t\t\t\n              ISZERO \t\t\t\n              PUSH [tag] 441\t\t\t\n              JUMPI \t\t\t\n              PUSH [tag] 442\t\t\t\n              PUSH [tag] 276\t\t\t\n              JUMP \t\t\t\n            tag 442\t\t\t\n              JUMPDEST \t\t\t\n            tag 441\t\t\t\n              JUMPDEST \t\t\t\n              PUSH [tag] 443\t\t\t\n              DUP8 \t\t\t\n              DUP3 \t\t\t\n              DUP9 \t\t\t\n              ADD \t\t\t\n              PUSH [tag] 305\t\t\t\n              JUMP \t\t\t\n            tag 443\t\t\t\n              JUMPDEST \t\t\t\n              SWAP2 \t\t\t\n              POP \t\t\t\n              POP \t\t\t\n              SWAP3 \t\t\t\n              SWAP6 \t\t\t\n              SWAP2 \t\t\t\n              SWAP5 \t\t\t\n              POP \t\t\t\n              SWAP3 \t\t\t\n              POP \t\t\t\n              JUMP \t\t\t\n            tag 85\t\t\t\n              JUMPDEST \t\t\t\n              PUSH 0\t\t\t\n              DUP1 \t\t\t\n              PUSH 40\t\t\t\n              DUP4 \t\t\t\n              DUP6 \t\t\t\n              SUB \t\t\t\n              SLT \t\t\t\n              ISZERO \t\t\t\n              PUSH [tag] 445\t\t\t\n              JUMPI \t\t\t\n              PUSH [tag] 446\t\t\t\n              PUSH [tag] 275\t\t\t\n              JUMP \t\t\t\n            tag 446\t\t\t\n              JUMPDEST \t\t\t\n            tag 445\t\t\t\n              JUMPDEST \t\t\t\n              PUSH 0\t\t\t\n              PUSH [tag] 447\t\t\t\n              DUP6 \t\t\t\n              DUP3 \t\t\t\n              DUP7 \t\t\t\n              ADD \t\t\t\n              PUSH [tag] 294\t\t\t\n              JUMP \t\t\t\n            tag 447\t\t\t\n              JUMPDEST \t\t\t\n              SWAP3 \t\t\t\n              POP \t\t\t\n              POP \t\t\t\n              PUSH 20\t\t\t\n              PUSH [tag] 448\t\t\t\n              DUP6 \t\t\t\n              DUP3 \t\t\t\n              DUP7 \t\t\t\n              ADD \t\t\t\n              PUSH [tag] 294\t\t\t\n              JUMP \t\t\t\n            tag 448\t\t\t\n              JUMPDEST \t\t\t\n              SWAP2 \t\t\t\n              POP \t\t\t\n              POP \t\t\t\n              SWAP3 \t\t\t\n              POP \t\t\t\n              SWAP3 \t\t\t\n              SWAP1 \t\t\t\n              POP \t\t\t\n              JUMP \t\t\t\n            tag 306\t\t\t\n              JUMPDEST \t\t\t\n              PUSH 4E487B7100000000000000000000000000000000000000000000000000000000\t\t\t\n              PUSH 0\t\t\t\n              MSTORE \t\t\t\n              PUSH 22\t\t\t\n              PUSH 4\t\t\t\n              MSTORE \t\t\t\n              PUSH 24\t\t\t\n              PUSH 0\t\t\t\n              REVERT \t\t\t\n            tag 98\t\t\t\n              JUMPDEST \t\t\t\n              PUSH 0\t\t\t\n              PUSH 2\t\t\t\n              DUP3 \t\t\t\n              DIV \t\t\t\n              SWAP1 \t\t\t\n              POP \t\t\t\n              PUSH 1\t\t\t\n              DUP3 \t\t\t\n              AND \t\t\t\n              DUP1 \t\t\t\n              PUSH [tag] 451\t\t\t\n              JUMPI \t\t\t\n              PUSH 7F\t\t\t\n              DUP3 \t\t\t\n              AND \t\t\t\n              SWAP2 \t\t\t\n              POP \t\t\t\n            tag 451\t\t\t\n              JUMPDEST \t\t\t\n              PUSH 20\t\t\t\n              DUP3 \t\t\t\n              LT \t\t\t\n              DUP2 \t\t\t\n              SUB \t\t\t\n              PUSH [tag] 452\t\t\t\n              JUMPI \t\t\t\n              PUSH [tag] 453\t\t\t\n              PUSH [tag] 306\t\t\t\n              JUMP \t\t\t\n            tag 453\t\t\t\n              JUMPDEST \t\t\t\n            tag 452\t\t\t\n              JUMPDEST \t\t\t\n              POP \t\t\t\n              SWAP2 \t\t\t\n              SWAP1 \t\t\t\n              POP \t\t\t\n              JUMP \t\t\t\n            tag 121\t\t\t\n              JUMPDEST \t\t\t\n              PUSH 0\t\t\t\n              PUSH 60\t\t\t\n              DUP3 \t\t\t\n              ADD \t\t\t\n              SWAP1 \t\t\t\n              POP \t\t\t\n              PUSH [tag] 455\t\t\t\n              PUSH 0\t\t\t\n              DUP4 \t\t\t\n              ADD \t\t\t\n              DUP7 \t\t\t\n              PUSH [tag] 292\t\t\t\n              JUMP \t\t\t\n            tag 455\t\t\t\n              JUMPDEST \t\t\t\n              PUSH [tag] 456\t\t\t\n              PUSH 20\t\t\t\n              DUP4 \t\t\t\n              ADD \t\t\t\n              DUP6 \t\t\t\n              PUSH [tag] 295\t\t\t\n              JUMP \t\t\t\n            tag 456\t\t\t\n              JUMPDEST \t\t\t\n              PUSH [tag] 457\t\t\t\n              PUSH 40\t\t\t\n              DUP4 \t\t\t\n              ADD \t\t\t\n              DUP5 \t\t\t\n              PUSH [tag] 292\t\t\t\n              JUMP \t\t\t\n            tag 457\t\t\t\n              JUMPDEST \t\t\t\n              SWAP5 \t\t\t\n              SWAP4 \t\t\t\n              POP \t\t\t\n              POP \t\t\t\n              POP \t\t\t\n              POP \t\t\t\n              JUMP \t\t\t\n            tag 307\t\t\t\n              JUMPDEST \t\t\t\n              PUSH 4E487B7100000000000000000000000000000000000000000000000000000000\t\t\t\n              PUSH 0\t\t\t\n              MSTORE \t\t\t\n              PUSH 11\t\t\t\n              PUSH 4\t\t\t\n              MSTORE \t\t\t\n              PUSH 24\t\t\t\n              PUSH 0\t\t\t\n              REVERT \t\t\t\n            tag 133\t\t\t\n              JUMPDEST \t\t\t\n              PUSH 0\t\t\t\n              PUSH [tag] 460\t\t\t\n              DUP3 \t\t\t\n              PUSH [tag] 287\t\t\t\n              JUMP \t\t\t\n            tag 460\t\t\t\n              JUMPDEST \t\t\t\n              SWAP2 \t\t\t\n              POP \t\t\t\n              PUSH FFFFFFFFFFFFFFFFFFFFFFFFFFFFFFFFFFFFFFFFFFFFFFFFFFFFFFFFFFFFFFFF\t\t\t\n              DUP3 \t\t\t\n              SUB \t\t\t\n              PUSH [tag] 461\t\t\t\n              JUMPI \t\t\t\n              PUSH [tag] 462\t\t\t\n              PUSH [tag] 307\t\t\t\n              JUMP \t\t\t\n            tag 462\t\t\t\n              JUMPDEST \t\t\t\n            tag 461\t\t\t\n              JUMPDEST \t\t\t\n              PUSH 1\t\t\t\n              DUP3 \t\t\t\n              ADD \t\t\t\n              SWAP1 \t\t\t\n              POP \t\t\t\n              SWAP2 \t\t\t\n              SWAP1 \t\t\t\n              POP \t\t\t\n              JUMP \t\t\t\n            tag 308\t\t\t\n              JUMPDEST \t\t\t\n              PUSH 0\t\t\t\n              DUP2 \t\t\t\n              SWAP1 \t\t\t\n              POP \t\t\t\n              SWAP3 \t\t\t\n              SWAP2 \t\t\t\n              POP \t\t\t\n              POP \t\t\t\n              JUMP \t\t\t\n            tag 309\t\t\t\n              JUMPDEST \t\t\t\n              PUSH 7B226E616D65223A220000000000000000000000000000000000000000000000\t\t\t\n              PUSH 0\t\t\t\n              DUP3 \t\t\t\n              ADD \t\t\t\n              MSTORE \t\t\t\n              POP \t\t\t\n              JUMP \t\t\t\n            tag 310\t\t\t\n              JUMPDEST \t\t\t\n              PUSH 0\t\t\t\n              PUSH [tag] 466\t\t\t\n              PUSH 9\t\t\t\n              DUP4 \t\t\t\n              PUSH [tag] 308\t\t\t\n              JUMP \t\t\t\n            tag 466\t\t\t\n              JUMPDEST \t\t\t\n              SWAP2 \t\t\t\n              POP \t\t\t\n              PUSH [tag] 467\t\t\t\n              DUP3 \t\t\t\n              PUSH [tag] 309\t\t\t\n              JUMP \t\t\t\n            tag 467\t\t\t\n              JUMPDEST \t\t\t\n              PUSH 9\t\t\t\n              DUP3 \t\t\t\n              ADD \t\t\t\n              SWAP1 \t\t\t\n              POP \t\t\t\n              SWAP2 \t\t\t\n              SWAP1 \t\t\t\n              POP \t\t\t\n              JUMP \t\t\t\n            tag 311\t\t\t\n              JUMPDEST \t\t\t\n              PUSH 0\t\t\t\n              PUSH [tag] 469\t\t\t\n              DUP3 \t\t\t\n              PUSH [tag] 282\t\t\t\n              JUMP \t\t\t\n            tag 469\t\t\t\n              JUMPDEST \t\t\t\n              PUSH [tag] 470\t\t\t\n              DUP2 \t\t\t\n              DUP6 \t\t\t\n              PUSH [tag] 308\t\t\t\n              JUMP \t\t\t\n            tag 470\t\t\t\n              JUMPDEST \t\t\t\n              SWAP4 \t\t\t\n              POP \t\t\t\n              PUSH [tag] 471\t\t\t\n              DUP2 \t\t\t\n              DUP6 \t\t\t\n              PUSH 20\t\t\t\n              DUP7 \t\t\t\n              ADD \t\t\t\n              PUSH [tag] 284\t\t\t\n              JUMP \t\t\t\n            tag 471\t\t\t\n              JUMPDEST \t\t\t\n              DUP1 \t\t\t\n              DUP5 \t\t\t\n              ADD \t\t\t\n              SWAP2 \t\t\t\n              POP \t\t\t\n              POP \t\t\t\n              SWAP3 \t\t\t\n              SWAP2 \t\t\t\n              POP \t\t\t\n              POP \t\t\t\n              JUMP \t\t\t\n            tag 312\t\t\t\n              JUMPDEST \t\t\t\n              PUSH 222C20226465736372697074696F6E223A22416E204E46542074686174207265\t\t\t\n              PUSH 0\t\t\t\n              DUP3 \t\t\t\n              ADD \t\t\t\n              MSTORE \t\t\t\n              PUSH 666C6563747320746865206F776E657273686970206F662067616D65202D2000\t\t\t\n              PUSH 20\t\t\t\n              DUP3 \t\t\t\n              ADD \t\t\t\n              MSTORE \t\t\t\n              POP \t\t\t\n              JUMP \t\t\t\n            tag 313\t\t\t\n              JUMPDEST \t\t\t\n              PUSH 0\t\t\t\n              PUSH [tag] 474\t\t\t\n              PUSH 3F\t\t\t\n              DUP4 \t\t\t\n              PUSH [tag] 308\t\t\t\n              JUMP \t\t\t\n            tag 474\t\t\t\n              JUMPDEST \t\t\t\n              SWAP2 \t\t\t\n              POP \t\t\t\n              PUSH [tag] 475\t\t\t\n              DUP3 \t\t\t\n              PUSH [tag] 312\t\t\t\n              JUMP \t\t\t\n            tag 475\t\t\t\n              JUMPDEST \t\t\t\n              PUSH 3F\t\t\t\n              DUP3 \t\t\t\n              ADD \t\t\t\n              SWAP1 \t\t\t\n              POP \t\t\t\n              SWAP2 \t\t\t\n              SWAP1 \t\t\t\n              POP \t\t\t\n              JUMP \t\t\t\n            tag 314\t\t\t\n              JUMPDEST \t\t\t\n              PUSH 222C200000000000000000000000000000000000000000000000000000000000\t\t\t\n              PUSH 0\t\t\t\n              DUP3 \t\t\t\n              ADD \t\t\t\n              MSTORE \t\t\t\n              POP \t\t\t\n              JUMP \t\t\t\n            tag 315\t\t\t\n              JUMPDEST \t\t\t\n              PUSH 0\t\t\t\n              PUSH [tag] 478\t\t\t\n              PUSH 3\t\t\t\n              DUP4 \t\t\t\n              PUSH [tag] 308\t\t\t\n              JUMP \t\t\t\n            tag 478\t\t\t\n              JUMPDEST \t\t\t\n              SWAP2 \t\t\t\n              POP \t\t\t\n              PUSH [tag] 479\t\t\t\n              DUP3 \t\t\t\n              PUSH [tag] 314\t\t\t\n              JUMP \t\t\t\n            tag 479\t\t\t\n              JUMPDEST \t\t\t\n              PUSH 3\t\t\t\n              DUP3 \t\t\t\n              ADD \t\t\t\n              SWAP1 \t\t\t\n              POP \t\t\t\n              SWAP2 \t\t\t\n              SWAP1 \t\t\t\n              POP \t\t\t\n              JUMP \t\t\t\n            tag 316\t\t\t\n              JUMPDEST \t\t\t\n              PUSH 22696D616765223A220000000000000000000000000000000000000000000000\t\t\t\n              PUSH 0\t\t\t\n              DUP3 \t\t\t\n              ADD \t\t\t\n              MSTORE \t\t\t\n              POP \t\t\t\n              JUMP \t\t\t\n            tag 317\t\t\t\n              JUMPDEST \t\t\t\n              PUSH 0\t\t\t\n              PUSH [tag] 482\t\t\t\n              PUSH 9\t\t\t\n              DUP4 \t\t\t\n              PUSH [tag] 308\t\t\t\n              JUMP \t\t\t\n            tag 482\t\t\t\n              JUMPDEST \t\t\t\n              SWAP2 \t\t\t\n              POP \t\t\t\n              PUSH [tag] 483\t\t\t\n              DUP3 \t\t\t\n              PUSH [tag] 316\t\t\t\n              JUMP \t\t\t\n            tag 483\t\t\t\n              JUMPDEST \t\t\t\n              PUSH 9\t\t\t\n              DUP3 \t\t\t\n              ADD \t\t\t\n              SWAP1 \t\t\t\n              POP \t\t\t\n              SWAP2 \t\t\t\n              SWAP1 \t\t\t\n              POP \t\t\t\n              JUMP \t\t\t\n            tag 318\t\t\t\n              JUMPDEST \t\t\t\n              PUSH 0\t\t\t\n              DUP2 \t\t\t\n              SWAP1 \t\t\t\n              POP \t\t\t\n              DUP2 \t\t\t\n              PUSH 0\t\t\t\n              MSTORE \t\t\t\n              PUSH 20\t\t\t\n              PUSH 0\t\t\t\n              KECCAK256 \t\t\t\n              SWAP1 \t\t\t\n              POP \t\t\t\n              SWAP2 \t\t\t\n              SWAP1 \t\t\t\n              POP \t\t\t\n              JUMP \t\t\t\n            tag 319\t\t\t\n              JUMPDEST \t\t\t\n              PUSH 0\t\t\t\n              DUP2 \t\t\t\n              SLOAD \t\t\t\n              PUSH [tag] 486\t\t\t\n              DUP2 \t\t\t\n              PUSH [tag] 98\t\t\t\n              JUMP \t\t\t\n            tag 486\t\t\t\n              JUMPDEST \t\t\t\n              PUSH [tag] 487\t\t\t\n              DUP2 \t\t\t\n              DUP7 \t\t\t\n              PUSH [tag] 308\t\t\t\n              JUMP \t\t\t\n            tag 487\t\t\t\n              JUMPDEST \t\t\t\n              SWAP5 \t\t\t\n              POP \t\t\t\n              PUSH 1\t\t\t\n              DUP3 \t\t\t\n              AND \t\t\t\n              PUSH 0\t\t\t\n              DUP2 \t\t\t\n              EQ \t\t\t\n              PUSH [tag] 489\t\t\t\n              JUMPI \t\t\t\n              PUSH 1\t\t\t\n              DUP2 \t\t\t\n              EQ \t\t\t\n              PUSH [tag] 490\t\t\t\n              JUMPI \t\t\t\n              PUSH [tag] 488\t\t\t\n              JUMP \t\t\t\n            tag 489\t\t\t\n              JUMPDEST \t\t\t\n              PUSH FF\t\t\t\n              NOT \t\t\t\n              DUP4 \t\t\t\n              AND \t\t\t\n              DUP7 \t\t\t\n              MSTORE \t\t\t\n              DUP2 \t\t\t\n              ISZERO \t\t\t\n              ISZERO \t\t\t\n              DUP3 \t\t\t\n              MUL \t\t\t\n              DUP7 \t\t\t\n              ADD \t\t\t\n              SWAP4 \t\t\t\n              POP \t\t\t\n              PUSH [tag] 488\t\t\t\n              JUMP \t\t\t\n            tag 490\t\t\t\n              JUMPDEST \t\t\t\n              PUSH [tag] 491\t\t\t\n              DUP6 \t\t\t\n              PUSH [tag] 318\t\t\t\n              JUMP \t\t\t\n            tag 491\t\t\t\n              JUMPDEST \t\t\t\n              PUSH 0\t\t\t\n            tag 492\t\t\t\n              JUMPDEST \t\t\t\n              DUP4 \t\t\t\n              DUP2 \t\t\t\n              LT \t\t\t\n              ISZERO \t\t\t\n              PUSH [tag] 494\t\t\t\n              JUMPI \t\t\t\n              DUP2 \t\t\t\n              SLOAD \t\t\t\n              DUP2 \t\t\t\n              DUP10 \t\t\t\n              ADD \t\t\t\n              MSTORE \t\t\t\n              PUSH 1\t\t\t\n              DUP3 \t\t\t\n              ADD \t\t\t\n              SWAP2 \t\t\t\n              POP \t\t\t\n              PUSH 20\t\t\t\n              DUP2 \t\t\t\n              ADD \t\t\t\n              SWAP1 \t\t\t\n              POP \t\t\t\n              PUSH [tag] 492\t\t\t\n              JUMP \t\t\t\n            tag 494\t\t\t\n              JUMPDEST \t\t\t\n              DUP4 \t\t\t\n              DUP9 \t\t\t\n              ADD \t\t\t\n              SWAP6 \t\t\t\n              POP \t\t\t\n              POP \t\t\t\n              POP \t\t\t\n            tag 488\t\t\t\n              JUMPDEST \t\t\t\n              POP \t\t\t\n              POP \t\t\t\n              POP \t\t\t\n              SWAP3 \t\t\t\n              SWAP2 \t\t\t\n              POP \t\t\t\n              POP \t\t\t\n              JUMP \t\t\t\n            tag 320\t\t\t\n              JUMPDEST \t\t\t\n              PUSH 227D000000000000000000000000000000000000000000000000000000000000\t\t\t\n              PUSH 0\t\t\t\n              DUP3 \t\t\t\n              ADD \t\t\t\n              MSTORE \t\t\t\n              POP \t\t\t\n              JUMP \t\t\t\n            tag 321\t\t\t\n              JUMPDEST \t\t\t\n              PUSH 0\t\t\t\n              PUSH [tag] 497\t\t\t\n              PUSH 2\t\t\t\n              DUP4 \t\t\t\n              PUSH [tag] 308\t\t\t\n              JUMP \t\t\t\n            tag 497\t\t\t\n              JUMPDEST \t\t\t\n              SWAP2 \t\t\t\n              POP \t\t\t\n              PUSH [tag] 498\t\t\t\n              DUP3 \t\t\t\n              PUSH [tag] 320\t\t\t\n              JUMP \t\t\t\n            tag 498\t\t\t\n              JUMPDEST \t\t\t\n              PUSH 2\t\t\t\n              DUP3 \t\t\t\n              ADD \t\t\t\n              SWAP1 \t\t\t\n              POP \t\t\t\n              SWAP2 \t\t\t\n              SWAP1 \t\t\t\n              POP \t\t\t\n              JUMP \t\t\t\n            tag 163\t\t\t\n              JUMPDEST \t\t\t\n              PUSH 0\t\t\t\n              PUSH [tag] 500\t\t\t\n              DUP3 \t\t\t\n              PUSH [tag] 310\t\t\t\n              JUMP \t\t\t\n            tag 500\t\t\t\n              JUMPDEST \t\t\t\n              SWAP2 \t\t\t\n              POP \t\t\t\n              PUSH [tag] 501\t\t\t\n              DUP3 \t\t\t\n              DUP7 \t\t\t\n              PUSH [tag] 311\t\t\t\n              JUMP \t\t\t\n            tag 501\t\t\t\n              JUMPDEST \t\t\t\n              SWAP2 \t\t\t\n              POP \t\t\t\n              PUSH [tag] 502\t\t\t\n              DUP3 \t\t\t\n              PUSH [tag] 313\t\t\t\n              JUMP \t\t\t\n            tag 502\t\t\t\n              JUMPDEST \t\t\t\n              SWAP2 \t\t\t\n              POP \t\t\t\n              PUSH [tag] 503\t\t\t\n              DUP3 \t\t\t\n              DUP6 \t\t\t\n              PUSH [tag] 311\t\t\t\n              JUMP \t\t\t\n            tag 503\t\t\t\n              JUMPDEST \t\t\t\n              SWAP2 \t\t\t\n              POP \t\t\t\n              PUSH [tag] 504\t\t\t\n              DUP3 \t\t\t\n              PUSH [tag] 315\t\t\t\n              JUMP \t\t\t\n            tag 504\t\t\t\n              JUMPDEST \t\t\t\n              SWAP2 \t\t\t\n              POP \t\t\t\n              PUSH [tag] 505\t\t\t\n              DUP3 \t\t\t\n              PUSH [tag] 317\t\t\t\n              JUMP \t\t\t\n            tag 505\t\t\t\n              JUMPDEST \t\t\t\n              SWAP2 \t\t\t\n              POP \t\t\t\n              PUSH [tag] 506\t\t\t\n              DUP3 \t\t\t\n              DUP5 \t\t\t\n              PUSH [tag] 319\t\t\t\n              JUMP \t\t\t\n            tag 506\t\t\t\n              JUMPDEST \t\t\t\n              SWAP2 \t\t\t\n              POP \t\t\t\n              PUSH [tag] 507\t\t\t\n              DUP3 \t\t\t\n              PUSH [tag] 321\t\t\t\n              JUMP \t\t\t\n            tag 507\t\t\t\n              JUMPDEST \t\t\t\n              SWAP2 \t\t\t\n              POP \t\t\t\n              DUP2 \t\t\t\n              SWAP1 \t\t\t\n              POP \t\t\t\n              SWAP5 \t\t\t\n              SWAP4 \t\t\t\n              POP \t\t\t\n              POP \t\t\t\n              POP \t\t\t\n              POP \t\t\t\n              JUMP \t\t\t\n            tag 322\t\t\t\n              JUMPDEST \t\t\t\n              PUSH 646174613A6170706C69636174696F6E2F6A736F6E3B6261736536342C000000\t\t\t\n              PUSH 0\t\t\t\n              DUP3 \t\t\t\n              ADD \t\t\t\n              MSTORE \t\t\t\n              POP \t\t\t\n              JUMP \t\t\t\n            tag 323\t\t\t\n              JUMPDEST \t\t\t\n              PUSH 0\t\t\t\n              PUSH [tag] 510\t\t\t\n              PUSH 1D\t\t\t\n              DUP4 \t\t\t\n              PUSH [tag] 308\t\t\t\n              JUMP \t\t\t\n            tag 510\t\t\t\n              JUMPDEST \t\t\t\n              SWAP2 \t\t\t\n              POP \t\t\t\n              PUSH [tag] 511\t\t\t\n              DUP3 \t\t\t\n              PUSH [tag] 322\t\t\t\n              JUMP \t\t\t\n            tag 511\t\t\t\n              JUMPDEST \t\t\t\n              PUSH 1D\t\t\t\n              DUP3 \t\t\t\n              ADD \t\t\t\n              SWAP1 \t\t\t\n              POP \t\t\t\n              SWAP2 \t\t\t\n              SWAP1 \t\t\t\n              POP \t\t\t\n              JUMP \t\t\t\n            tag 166\t\t\t\n              JUMPDEST \t\t\t\n              PUSH 0\t\t\t\n              PUSH [tag] 513\t\t\t\n              DUP3 \t\t\t\n              PUSH [tag] 323\t\t\t\n              JUMP \t\t\t\n            tag 513\t\t\t\n              JUMPDEST \t\t\t\n              SWAP2 \t\t\t\n              POP \t\t\t\n              PUSH [tag] 514\t\t\t\n              DUP3 \t\t\t\n              DUP5 \t\t\t\n              PUSH [tag] 311\t\t\t\n              JUMP \t\t\t\n            tag 514\t\t\t\n              JUMPDEST \t\t\t\n              SWAP2 \t\t\t\n              POP \t\t\t\n              DUP2 \t\t\t\n              SWAP1 \t\t\t\n              POP \t\t\t\n              SWAP3 \t\t\t\n              SWAP2 \t\t\t\n              POP \t\t\t\n              POP \t\t\t\n              JUMP \t\t\t\n            tag 324\t\t\t\n              JUMPDEST \t\t\t\n              PUSH 0\t\t\t\n              DUP2 \t\t\t\n              MLOAD \t\t\t\n              SWAP1 \t\t\t\n              POP \t\t\t\n              SWAP2 \t\t\t\n              SWAP1 \t\t\t\n              POP \t\t\t\n              JUMP \t\t\t\n            tag 325\t\t\t\n              JUMPDEST \t\t\t\n              PUSH 0\t\t\t\n              DUP3 \t\t\t\n              DUP3 \t\t\t\n              MSTORE \t\t\t\n              PUSH 20\t\t\t\n              DUP3 \t\t\t\n              ADD \t\t\t\n              SWAP1 \t\t\t\n              POP \t\t\t\n              SWAP3 \t\t\t\n              SWAP2 \t\t\t\n              POP \t\t\t\n              POP \t\t\t\n              JUMP \t\t\t\n            tag 326\t\t\t\n              JUMPDEST \t\t\t\n              PUSH 0\t\t\t\n              PUSH [tag] 518\t\t\t\n              DUP3 \t\t\t\n              PUSH [tag] 324\t\t\t\n              JUMP \t\t\t\n            tag 518\t\t\t\n              JUMPDEST \t\t\t\n              PUSH [tag] 519\t\t\t\n              DUP2 \t\t\t\n              DUP6 \t\t\t\n              PUSH [tag] 325\t\t\t\n              JUMP \t\t\t\n            tag 519\t\t\t\n              JUMPDEST \t\t\t\n              SWAP4 \t\t\t\n              POP \t\t\t\n              PUSH [tag] 520\t\t\t\n              DUP2 \t\t\t\n              DUP6 \t\t\t\n              PUSH 20\t\t\t\n              DUP7 \t\t\t\n              ADD \t\t\t\n              PUSH [tag] 284\t\t\t\n              JUMP \t\t\t\n            tag 520\t\t\t\n              JUMPDEST \t\t\t\n              PUSH [tag] 521\t\t\t\n              DUP2 \t\t\t\n              PUSH [tag] 285\t\t\t\n              JUMP \t\t\t\n            tag 521\t\t\t\n              JUMPDEST \t\t\t\n              DUP5 \t\t\t\n              ADD \t\t\t\n              SWAP2 \t\t\t\n              POP \t\t\t\n              POP \t\t\t\n              SWAP3 \t\t\t\n              SWAP2 \t\t\t\n              POP \t\t\t\n              POP \t\t\t\n              JUMP \t\t\t\n            tag 214\t\t\t\n              JUMPDEST \t\t\t\n              PUSH 0\t\t\t\n              PUSH 80\t\t\t\n              DUP3 \t\t\t\n              ADD \t\t\t\n              SWAP1 \t\t\t\n              POP \t\t\t\n              PUSH [tag] 523\t\t\t\n              PUSH 0\t\t\t\n              DUP4 \t\t\t\n              ADD \t\t\t\n              DUP8 \t\t\t\n              PUSH [tag] 292\t\t\t\n              JUMP \t\t\t\n            tag 523\t\t\t\n              JUMPDEST \t\t\t\n              PUSH [tag] 524\t\t\t\n              PUSH 20\t\t\t\n              DUP4 \t\t\t\n              ADD \t\t\t\n              DUP7 \t\t\t\n              PUSH [tag] 292\t\t\t\n              JUMP \t\t\t\n            tag 524\t\t\t\n              JUMPDEST \t\t\t\n              PUSH [tag] 525\t\t\t\n              PUSH 40\t\t\t\n              DUP4 \t\t\t\n              ADD \t\t\t\n              DUP6 \t\t\t\n              PUSH [tag] 295\t\t\t\n              JUMP \t\t\t\n            tag 525\t\t\t\n              JUMPDEST \t\t\t\n              DUP2 \t\t\t\n              DUP2 \t\t\t\n              SUB \t\t\t\n              PUSH 60\t\t\t\n              DUP4 \t\t\t\n              ADD \t\t\t\n              MSTORE \t\t\t\n              PUSH [tag] 526\t\t\t\n              DUP2 \t\t\t\n              DUP5 \t\t\t\n              PUSH [tag] 326\t\t\t\n              JUMP \t\t\t\n            tag 526\t\t\t\n              JUMPDEST \t\t\t\n              SWAP1 \t\t\t\n              POP \t\t\t\n              SWAP6 \t\t\t\n              SWAP5 \t\t\t\n              POP \t\t\t\n              POP \t\t\t\n              POP \t\t\t\n              POP \t\t\t\n              POP \t\t\t\n              JUMP \t\t\t\n            tag 327\t\t\t\n              JUMPDEST \t\t\t\n              PUSH 0\t\t\t\n              DUP2 \t\t\t\n              MLOAD \t\t\t\n              SWAP1 \t\t\t\n              POP \t\t\t\n              PUSH [tag] 528\t\t\t\n              DUP2 \t\t\t\n              PUSH [tag] 278\t\t\t\n              JUMP \t\t\t\n            tag 528\t\t\t\n              JUMPDEST \t\t\t\n              SWAP3 \t\t\t\n              SWAP2 \t\t\t\n              POP \t\t\t\n              POP \t\t\t\n              JUMP \t\t\t\n            tag 217\t\t\t\n              JUMPDEST \t\t\t\n              PUSH 0\t\t\t\n              PUSH 20\t\t\t\n              DUP3 \t\t\t\n              DUP5 \t\t\t\n              SUB \t\t\t\n              SLT \t\t\t\n              ISZERO \t\t\t\n              PUSH [tag] 530\t\t\t\n              JUMPI \t\t\t\n              PUSH [tag] 531\t\t\t\n              PUSH [tag] 275\t\t\t\n              JUMP \t\t\t\n            tag 531\t\t\t\n              JUMPDEST \t\t\t\n            tag 530\t\t\t\n              JUMPDEST \t\t\t\n              PUSH 0\t\t\t\n              PUSH [tag] 532\t\t\t\n              DUP5 \t\t\t\n              DUP3 \t\t\t\n              DUP6 \t\t\t\n              ADD \t\t\t\n              PUSH [tag] 327\t\t\t\n              JUMP \t\t\t\n            tag 532\t\t\t\n              JUMPDEST \t\t\t\n              SWAP2 \t\t\t\n              POP \t\t\t\n              POP \t\t\t\n              SWAP3 \t\t\t\n              SWAP2 \t\t\t\n              POP \t\t\t\n              POP \t\t\t\n              JUMP \t\t\t\n            tag 233\t\t\t\n              JUMPDEST \t\t\t\n              PUSH 0\t\t\t\n              PUSH [tag] 534\t\t\t\n              DUP3 \t\t\t\n              PUSH [tag] 287\t\t\t\n              JUMP \t\t\t\n            tag 534\t\t\t\n              JUMPDEST \t\t\t\n              SWAP2 \t\t\t\n              POP \t\t\t\n              PUSH [tag] 535\t\t\t\n              DUP4 \t\t\t\n              PUSH [tag] 287\t\t\t\n              JUMP \t\t\t\n            tag 535\t\t\t\n              JUMPDEST \t\t\t\n              SWAP3 \t\t\t\n              POP \t\t\t\n              DUP3 \t\t\t\n              DUP3 \t\t\t\n              ADD \t\t\t\n              SWAP1 \t\t\t\n              POP \t\t\t\n              DUP1 \t\t\t\n              DUP3 \t\t\t\n              GT \t\t\t\n              ISZERO \t\t\t\n              PUSH [tag] 536\t\t\t\n              JUMPI \t\t\t\n              PUSH [tag] 537\t\t\t\n              PUSH [tag] 307\t\t\t\n              JUMP \t\t\t\n            tag 537\t\t\t\n              JUMPDEST \t\t\t\n            tag 536\t\t\t\n              JUMPDEST \t\t\t\n              SWAP3 \t\t\t\n              SWAP2 \t\t\t\n              POP \t\t\t\n              POP \t\t\t\n              JUMP \t\t\t\n            tag 328\t\t\t\n              JUMPDEST \t\t\t\n              PUSH 4E487B7100000000000000000000000000000000000000000000000000000000\t\t\t\n              PUSH 0\t\t\t\n              MSTORE \t\t\t\n              PUSH 12\t\t\t\n              PUSH 4\t\t\t\n              MSTORE \t\t\t\n              PUSH 24\t\t\t\n              PUSH 0\t\t\t\n              REVERT \t\t\t\n            tag 235\t\t\t\n              JUMPDEST \t\t\t\n              PUSH 0\t\t\t\n              PUSH [tag] 540\t\t\t\n              DUP3 \t\t\t\n              PUSH [tag] 287\t\t\t\n              JUMP \t\t\t\n            tag 540\t\t\t\n              JUMPDEST \t\t\t\n              SWAP2 \t\t\t\n              POP \t\t\t\n              PUSH [tag] 541\t\t\t\n              DUP4 \t\t\t\n              PUSH [tag] 287\t\t\t\n              JUMP \t\t\t\n            tag 541\t\t\t\n              JUMPDEST \t\t\t\n              SWAP3 \t\t\t\n              POP \t\t\t\n              DUP3 \t\t\t\n              PUSH [tag] 542\t\t\t\n              JUMPI \t\t\t\n              PUSH [tag] 543\t\t\t\n              PUSH [tag] 328\t\t\t\n              JUMP \t\t\t\n            tag 543\t\t\t\n              JUMPDEST \t\t\t\n            tag 542\t\t\t\n              JUMPDEST \t\t\t\n              DUP3 \t\t\t\n              DUP3 \t\t\t\n              DIV \t\t\t\n              SWAP1 \t\t\t\n              POP \t\t\t\n              SWAP3 \t\t\t\n              SWAP2 \t\t\t\n              POP \t\t\t\n              POP \t\t\t\n              JUMP \t\t\t\n            tag 237\t\t\t\n              JUMPDEST \t\t\t\n              PUSH 0\t\t\t\n              PUSH [tag] 545\t\t\t\n              DUP3 \t\t\t\n              PUSH [tag] 287\t\t\t\n              JUMP \t\t\t\n            tag 545\t\t\t\n              JUMPDEST \t\t\t\n              SWAP2 \t\t\t\n              POP \t\t\t\n              PUSH [tag] 546\t\t\t\n              DUP4 \t\t\t\n              PUSH [tag] 287\t\t\t\n              JUMP \t\t\t\n            tag 546\t\t\t\n              JUMPDEST \t\t\t\n              SWAP3 \t\t\t\n              POP \t\t\t\n              DUP3 \t\t\t\n              DUP3 \t\t\t\n              MUL \t\t\t\n              PUSH [tag] 547\t\t\t\n              DUP2 \t\t\t\n              PUSH [tag] 287\t\t\t\n              JUMP \t\t\t\n            tag 547\t\t\t\n              JUMPDEST \t\t\t\n              SWAP2 \t\t\t\n              POP \t\t\t\n              DUP3 \t\t\t\n              DUP3 \t\t\t\n              DIV \t\t\t\n              DUP5 \t\t\t\n              EQ \t\t\t\n              DUP4 \t\t\t\n              ISZERO \t\t\t\n              OR \t\t\t\n              PUSH [tag] 548\t\t\t\n              JUMPI \t\t\t\n              PUSH [tag] 549\t\t\t\n              PUSH [tag] 307\t\t\t\n              JUMP \t\t\t\n            tag 549\t\t\t\n              JUMPDEST \t\t\t\n            tag 548\t\t\t\n              JUMPDEST \t\t\t\n              POP \t\t\t\n              SWAP3 \t\t\t\n              SWAP2 \t\t\t\n              POP \t\t\t\n              POP \t\t\t\n              JUMP \t\t\t\n            tag 267\t\t\t\n              JUMPDEST \t\t\t\n              PUSH 0\t\t\t\n              PUSH 40\t\t\t\n              DUP3 \t\t\t\n              ADD \t\t\t\n              SWAP1 \t\t\t\n              POP \t\t\t\n              PUSH [tag] 551\t\t\t\n              PUSH 0\t\t\t\n              DUP4 \t\t\t\n              ADD \t\t\t\n              DUP6 \t\t\t\n              PUSH [tag] 292\t\t\t\n              JUMP \t\t\t\n            tag 551\t\t\t\n              JUMPDEST \t\t\t\n              PUSH [tag] 552\t\t\t\n              PUSH 20\t\t\t\n              DUP4 \t\t\t\n              ADD \t\t\t\n              DUP5 \t\t\t\n              PUSH [tag] 295\t\t\t\n              JUMP \t\t\t\n            tag 552\t\t\t\n              JUMPDEST \t\t\t\n              SWAP4 \t\t\t\n              SWAP3 \t\t\t\n              POP \t\t\t\n              POP \t\t\t\n              POP \t\t\t\n              JUMP \t\t\t\n            .data\n              84D8A590DE33E00CBDC16E1F28C3506F5EC15C599FAB9A6A4BCD575CC2F110CE:\n                4142434445464748494a4b4c4d4e4f505152535455565758595a6162636465666768696a6b6c6d6e6f707172737475767778797a303132333435363738392b2f\n"
}