{
	"compilerInput": "{\"language\":\"Solidity\",\"sources\":{\"contracts/GameFactory.sol\":{\"content\":\"// SPDX-License-Identifier: MIT\\npragma solidity ^0.8.19;\\n\\nimport {GameToken} from \\\"./GameToken.sol\\\";\\n\\ncontract GameFactory {\\n    event GameTokenCreated(\\n        uint256 indexed index,\\n        string indexed cid,\\n        address indexed gameToken\\n    );\\n    event GamePurchased(string indexed cid, address indexed buyer);\\n    event CreatorFundsWithdrawn(address indexed creator);\\n\\n    error InsufficientFunds();\\n    error GameAlreadyPublished();\\n    error InvalidGame();\\n    error GameAlreadyBought();\\n\\n    struct Game {\\n        address creator;\\n        string cid;\\n        address token;\\n        string name;\\n        uint256 price;\\n        string imageUrl;\\n    }\\n\\n    address private owner;\\n    uint256 private fee = 0;\\n\\n    mapping(string => Game) private games;\\n    string[] private cids;\\n\\n    mapping(address => uint256) private creatorbalance;\\n\\n    // Helper function to convert bytes32 array to string\\n    function bytes32ArrayToString(bytes32[] memory data)\\n        private\\n        pure\\n        returns (string memory)\\n    {\\n        bytes memory byteArray;\\n        for (uint256 i = 0; i < data.length; i++) {\\n            byteArray = abi.encodePacked(byteArray, data[i]);\\n        }\\n        return string(byteArray);\\n    }\\n\\n    function publishGame(\\n        string memory _cid,\\n        string memory _name,\\n        string memory _symbol,\\n        uint256 price,\\n        string memory _imageUrl\\n    ) external {\\n        if (games[_cid].creator != address(0)) {\\n            revert GameAlreadyPublished();\\n        }\\n\\n        GameToken gameToken = new GameToken(_name, _symbol, _imageUrl);\\n        gameToken.mint(msg.sender);\\n\\n        games[_cid] = Game(\\n            msg.sender,\\n            _cid,\\n            address(gameToken),\\n            _name,\\n            price,\\n            _imageUrl\\n        );\\n        cids.push(_cid);\\n        emit GameTokenCreated(cids.length - 1, _cid, address(gameToken));\\n    }\\n\\n    function buyGame(string memory _cid) external payable {\\n        Game memory _game = games[_cid];\\n        GameToken gameToken = GameToken(_game.token);\\n\\n        if (_game.creator == address(0)) {\\n            revert InvalidGame();\\n        }\\n\\n        if (gameToken.balanceOf(msg.sender) >= 1) {\\n            revert GameAlreadyBought();\\n        }\\n\\n        if (msg.value < _game.price) {\\n            revert InsufficientFunds();\\n        }\\n\\n        creatorbalance[_game.creator] += _game.price;\\n        gameToken.mint(msg.sender);\\n\\n        emit GamePurchased(_cid, msg.sender);\\n    }\\n\\n    function withdrawCreatorFunds() external {\\n        if (creatorbalance[msg.sender] == 0) {\\n            revert InsufficientFunds();\\n        }\\n        payable(msg.sender).transfer(creatorbalance[msg.sender]);\\n        creatorbalance[msg.sender] = 0;\\n\\n        emit CreatorFundsWithdrawn(msg.sender);\\n    }\\n\\n    // View Functions\\n    function isGameOwned(string memory _cid) external view returns (bool) {\\n        address tokenAddress = games[_cid].token;\\n        if (tokenAddress == address(0)) {\\n            revert InvalidGame();\\n        }\\n        GameToken gameToken = GameToken(tokenAddress);\\n        return gameToken.balanceOf(msg.sender) >= 1;\\n    }\\n\\n    function getGames() external view returns (Game[] memory) {\\n        Game[] memory _games = new Game[](cids.length);\\n        for (uint256 i = 0; i < cids.length; i++) {\\n            _games[i] = games[cids[i]];\\n        }\\n\\n        return _games;\\n    }\\n\\n    function getGameByCid(string memory _cid)\\n        external\\n        view\\n        returns (Game memory)\\n    {\\n        Game memory _game = games[_cid];\\n        if (_game.creator == address(0)) {\\n            revert InvalidGame();\\n        }\\n        return _game;\\n    }\\n\\n    function getTokenAddressByCid(string memory _cid) external view returns(address){\\n        return games[_cid].token;\\n    }\\n\\n    function getGameListLength() external view returns (uint256) {\\n        return cids.length;\\n    }\\n}\\n\"},\"contracts/GameToken.sol\":{\"content\":\"// SPDX-License-Identifier: MIT\\npragma solidity ^0.8.19;\\n\\nimport {ERC721} from \\\"@openzeppelin/contracts/token/ERC721/ERC721.sol\\\";\\nimport {Ownable} from \\\"@openzeppelin/contracts/access/Ownable.sol\\\";\\nimport {Base64} from \\\"@openzeppelin/contracts/utils/Base64.sol\\\";\\n\\ncontract GameToken is ERC721, Ownable {\\n    uint256 private index;\\n    string private image;\\n\\n    constructor(\\n        string memory name,\\n        string memory symbol,\\n        string memory imageUrl\\n    ) ERC721(name, symbol) Ownable(msg.sender) {\\n        image = imageUrl;\\n    }\\n\\n    function mint(address to) public onlyOwner {\\n        _mint(to, index);\\n        index++;\\n    }\\n\\n    function tokenURI(uint256 tokenId)\\n        public\\n        view\\n        override\\n        returns (string memory)\\n    {\\n        _requireOwned(tokenId);\\n        return\\n            string(\\n                abi.encodePacked(\\n                    \\\"data:application/json;base64,\\\",\\n                    Base64.encode(\\n                        bytes(\\n                            abi.encodePacked(\\n                                '{\\\"name\\\":\\\"',\\n                                name(),\\n                                '\\\", \\\"description\\\":\\\"An NFT that reflects the ownership of game - ',\\n                                name(),\\n                                '\\\", ',\\n                                '\\\"image\\\":\\\"',\\n                                image,\\n                                '\\\"}'\\n                            )\\n                        )\\n                    )\\n                )\\n            );\\n    }\\n}\\n\"},\"@openzeppelin/contracts/utils/Base64.sol\":{\"content\":\"// SPDX-License-Identifier: MIT\\n// OpenZeppelin Contracts (last updated v5.0.2) (utils/Base64.sol)\\n\\npragma solidity ^0.8.20;\\n\\n/**\\n * @dev Provides a set of functions to operate with Base64 strings.\\n */\\nlibrary Base64 {\\n    /**\\n     * @dev Base64 Encoding/Decoding Table\\n     */\\n    string internal constant _TABLE = \\\"ABCDEFGHIJKLMNOPQRSTUVWXYZabcdefghijklmnopqrstuvwxyz0123456789+/\\\";\\n\\n    /**\\n     * @dev Converts a `bytes` to its Bytes64 `string` representation.\\n     */\\n    function encode(bytes memory data) internal pure returns (string memory) {\\n        /**\\n         * Inspired by Brecht Devos (Brechtpd) implementation - MIT licence\\n         * https://github.com/Brechtpd/base64/blob/e78d9fd951e7b0977ddca77d92dc85183770daf4/base64.sol\\n         */\\n        if (data.length == 0) return \\\"\\\";\\n\\n        // Loads the table into memory\\n        string memory table = _TABLE;\\n\\n        // Encoding takes 3 bytes chunks of binary data from `bytes` data parameter\\n        // and split into 4 numbers of 6 bits.\\n        // The final Base64 length should be `bytes` data length multiplied by 4/3 rounded up\\n        // - `data.length + 2`  -> Round up\\n        // - `/ 3`              -> Number of 3-bytes chunks\\n        // - `4 *`              -> 4 characters for each chunk\\n        string memory result = new string(4 * ((data.length + 2) / 3));\\n\\n        /// @solidity memory-safe-assembly\\n        assembly {\\n            // Prepare the lookup table (skip the first \\\"length\\\" byte)\\n            let tablePtr := add(table, 1)\\n\\n            // Prepare result pointer, jump over length\\n            let resultPtr := add(result, 0x20)\\n            let dataPtr := data\\n            let endPtr := add(data, mload(data))\\n\\n            // In some cases, the last iteration will read bytes after the end of the data. We cache the value, and\\n            // set it to zero to make sure no dirty bytes are read in that section.\\n            let afterPtr := add(endPtr, 0x20)\\n            let afterCache := mload(afterPtr)\\n            mstore(afterPtr, 0x00)\\n\\n            // Run over the input, 3 bytes at a time\\n            for {\\n\\n            } lt(dataPtr, endPtr) {\\n\\n            } {\\n                // Advance 3 bytes\\n                dataPtr := add(dataPtr, 3)\\n                let input := mload(dataPtr)\\n\\n                // To write each character, shift the 3 byte (24 bits) chunk\\n                // 4 times in blocks of 6 bits for each character (18, 12, 6, 0)\\n                // and apply logical AND with 0x3F to bitmask the least significant 6 bits.\\n                // Use this as an index into the lookup table, mload an entire word\\n                // so the desired character is in the least significant byte, and\\n                // mstore8 this least significant byte into the result and continue.\\n\\n                mstore8(resultPtr, mload(add(tablePtr, and(shr(18, input), 0x3F))))\\n                resultPtr := add(resultPtr, 1) // Advance\\n\\n                mstore8(resultPtr, mload(add(tablePtr, and(shr(12, input), 0x3F))))\\n                resultPtr := add(resultPtr, 1) // Advance\\n\\n                mstore8(resultPtr, mload(add(tablePtr, and(shr(6, input), 0x3F))))\\n                resultPtr := add(resultPtr, 1) // Advance\\n\\n                mstore8(resultPtr, mload(add(tablePtr, and(input, 0x3F))))\\n                resultPtr := add(resultPtr, 1) // Advance\\n            }\\n\\n            // Reset the value that was cached\\n            mstore(afterPtr, afterCache)\\n\\n            // When data `bytes` is not exactly 3 bytes long\\n            // it is padded with `=` characters at the end\\n            switch mod(mload(data), 3)\\n            case 1 {\\n                mstore8(sub(resultPtr, 1), 0x3d)\\n                mstore8(sub(resultPtr, 2), 0x3d)\\n            }\\n            case 2 {\\n                mstore8(sub(resultPtr, 1), 0x3d)\\n            }\\n        }\\n\\n        return result;\\n    }\\n}\\n\"},\"@openzeppelin/contracts/access/Ownable.sol\":{\"content\":\"// SPDX-License-Identifier: MIT\\n// OpenZeppelin Contracts (last updated v5.0.0) (access/Ownable.sol)\\n\\npragma solidity ^0.8.20;\\n\\nimport {Context} from \\\"../utils/Context.sol\\\";\\n\\n/**\\n * @dev Contract module which provides a basic access control mechanism, where\\n * there is an account (an owner) that can be granted exclusive access to\\n * specific functions.\\n *\\n * The initial owner is set to the address provided by the deployer. This can\\n * later be changed with {transferOwnership}.\\n *\\n * This module is used through inheritance. It will make available the modifier\\n * `onlyOwner`, which can be applied to your functions to restrict their use to\\n * the owner.\\n */\\nabstract contract Ownable is Context {\\n    address private _owner;\\n\\n    /**\\n     * @dev The caller account is not authorized to perform an operation.\\n     */\\n    error OwnableUnauthorizedAccount(address account);\\n\\n    /**\\n     * @dev The owner is not a valid owner account. (eg. `address(0)`)\\n     */\\n    error OwnableInvalidOwner(address owner);\\n\\n    event OwnershipTransferred(address indexed previousOwner, address indexed newOwner);\\n\\n    /**\\n     * @dev Initializes the contract setting the address provided by the deployer as the initial owner.\\n     */\\n    constructor(address initialOwner) {\\n        if (initialOwner == address(0)) {\\n            revert OwnableInvalidOwner(address(0));\\n        }\\n        _transferOwnership(initialOwner);\\n    }\\n\\n    /**\\n     * @dev Throws if called by any account other than the owner.\\n     */\\n    modifier onlyOwner() {\\n        _checkOwner();\\n        _;\\n    }\\n\\n    /**\\n     * @dev Returns the address of the current owner.\\n     */\\n    function owner() public view virtual returns (address) {\\n        return _owner;\\n    }\\n\\n    /**\\n     * @dev Throws if the sender is not the owner.\\n     */\\n    function _checkOwner() internal view virtual {\\n        if (owner() != _msgSender()) {\\n            revert OwnableUnauthorizedAccount(_msgSender());\\n        }\\n    }\\n\\n    /**\\n     * @dev Leaves the contract without owner. It will not be possible to call\\n     * `onlyOwner` functions. Can only be called by the current owner.\\n     *\\n     * NOTE: Renouncing ownership will leave the contract without an owner,\\n     * thereby disabling any functionality that is only available to the owner.\\n     */\\n    function renounceOwnership() public virtual onlyOwner {\\n        _transferOwnership(address(0));\\n    }\\n\\n    /**\\n     * @dev Transfers ownership of the contract to a new account (`newOwner`).\\n     * Can only be called by the current owner.\\n     */\\n    function transferOwnership(address newOwner) public virtual onlyOwner {\\n        if (newOwner == address(0)) {\\n            revert OwnableInvalidOwner(address(0));\\n        }\\n        _transferOwnership(newOwner);\\n    }\\n\\n    /**\\n     * @dev Transfers ownership of the contract to a new account (`newOwner`).\\n     * Internal function without access restriction.\\n     */\\n    function _transferOwnership(address newOwner) internal virtual {\\n        address oldOwner = _owner;\\n        _owner = newOwner;\\n        emit OwnershipTransferred(oldOwner, newOwner);\\n    }\\n}\\n\"},\"@openzeppelin/contracts/token/ERC721/ERC721.sol\":{\"content\":\"// SPDX-License-Identifier: MIT\\n// OpenZeppelin Contracts (last updated v5.0.0) (token/ERC721/ERC721.sol)\\n\\npragma solidity ^0.8.20;\\n\\nimport {IERC721} from \\\"./IERC721.sol\\\";\\nimport {IERC721Receiver} from \\\"./IERC721Receiver.sol\\\";\\nimport {IERC721Metadata} from \\\"./extensions/IERC721Metadata.sol\\\";\\nimport {Context} from \\\"../../utils/Context.sol\\\";\\nimport {Strings} from \\\"../../utils/Strings.sol\\\";\\nimport {IERC165, ERC165} from \\\"../../utils/introspection/ERC165.sol\\\";\\nimport {IERC721Errors} from \\\"../../interfaces/draft-IERC6093.sol\\\";\\n\\n/**\\n * @dev Implementation of https://eips.ethereum.org/EIPS/eip-721[ERC721] Non-Fungible Token Standard, including\\n * the Metadata extension, but not including the Enumerable extension, which is available separately as\\n * {ERC721Enumerable}.\\n */\\nabstract contract ERC721 is Context, ERC165, IERC721, IERC721Metadata, IERC721Errors {\\n    using Strings for uint256;\\n\\n    // Token name\\n    string private _name;\\n\\n    // Token symbol\\n    string private _symbol;\\n\\n    mapping(uint256 tokenId => address) private _owners;\\n\\n    mapping(address owner => uint256) private _balances;\\n\\n    mapping(uint256 tokenId => address) private _tokenApprovals;\\n\\n    mapping(address owner => mapping(address operator => bool)) private _operatorApprovals;\\n\\n    /**\\n     * @dev Initializes the contract by setting a `name` and a `symbol` to the token collection.\\n     */\\n    constructor(string memory name_, string memory symbol_) {\\n        _name = name_;\\n        _symbol = symbol_;\\n    }\\n\\n    /**\\n     * @dev See {IERC165-supportsInterface}.\\n     */\\n    function supportsInterface(bytes4 interfaceId) public view virtual override(ERC165, IERC165) returns (bool) {\\n        return\\n            interfaceId == type(IERC721).interfaceId ||\\n            interfaceId == type(IERC721Metadata).interfaceId ||\\n            super.supportsInterface(interfaceId);\\n    }\\n\\n    /**\\n     * @dev See {IERC721-balanceOf}.\\n     */\\n    function balanceOf(address owner) public view virtual returns (uint256) {\\n        if (owner == address(0)) {\\n            revert ERC721InvalidOwner(address(0));\\n        }\\n        return _balances[owner];\\n    }\\n\\n    /**\\n     * @dev See {IERC721-ownerOf}.\\n     */\\n    function ownerOf(uint256 tokenId) public view virtual returns (address) {\\n        return _requireOwned(tokenId);\\n    }\\n\\n    /**\\n     * @dev See {IERC721Metadata-name}.\\n     */\\n    function name() public view virtual returns (string memory) {\\n        return _name;\\n    }\\n\\n    /**\\n     * @dev See {IERC721Metadata-symbol}.\\n     */\\n    function symbol() public view virtual returns (string memory) {\\n        return _symbol;\\n    }\\n\\n    /**\\n     * @dev See {IERC721Metadata-tokenURI}.\\n     */\\n    function tokenURI(uint256 tokenId) public view virtual returns (string memory) {\\n        _requireOwned(tokenId);\\n\\n        string memory baseURI = _baseURI();\\n        return bytes(baseURI).length > 0 ? string.concat(baseURI, tokenId.toString()) : \\\"\\\";\\n    }\\n\\n    /**\\n     * @dev Base URI for computing {tokenURI}. If set, the resulting URI for each\\n     * token will be the concatenation of the `baseURI` and the `tokenId`. Empty\\n     * by default, can be overridden in child contracts.\\n     */\\n    function _baseURI() internal view virtual returns (string memory) {\\n        return \\\"\\\";\\n    }\\n\\n    /**\\n     * @dev See {IERC721-approve}.\\n     */\\n    function approve(address to, uint256 tokenId) public virtual {\\n        _approve(to, tokenId, _msgSender());\\n    }\\n\\n    /**\\n     * @dev See {IERC721-getApproved}.\\n     */\\n    function getApproved(uint256 tokenId) public view virtual returns (address) {\\n        _requireOwned(tokenId);\\n\\n        return _getApproved(tokenId);\\n    }\\n\\n    /**\\n     * @dev See {IERC721-setApprovalForAll}.\\n     */\\n    function setApprovalForAll(address operator, bool approved) public virtual {\\n        _setApprovalForAll(_msgSender(), operator, approved);\\n    }\\n\\n    /**\\n     * @dev See {IERC721-isApprovedForAll}.\\n     */\\n    function isApprovedForAll(address owner, address operator) public view virtual returns (bool) {\\n        return _operatorApprovals[owner][operator];\\n    }\\n\\n    /**\\n     * @dev See {IERC721-transferFrom}.\\n     */\\n    function transferFrom(address from, address to, uint256 tokenId) public virtual {\\n        if (to == address(0)) {\\n            revert ERC721InvalidReceiver(address(0));\\n        }\\n        // Setting an \\\"auth\\\" arguments enables the `_isAuthorized` check which verifies that the token exists\\n        // (from != 0). Therefore, it is not needed to verify that the return value is not 0 here.\\n        address previousOwner = _update(to, tokenId, _msgSender());\\n        if (previousOwner != from) {\\n            revert ERC721IncorrectOwner(from, tokenId, previousOwner);\\n        }\\n    }\\n\\n    /**\\n     * @dev See {IERC721-safeTransferFrom}.\\n     */\\n    function safeTransferFrom(address from, address to, uint256 tokenId) public {\\n        safeTransferFrom(from, to, tokenId, \\\"\\\");\\n    }\\n\\n    /**\\n     * @dev See {IERC721-safeTransferFrom}.\\n     */\\n    function safeTransferFrom(address from, address to, uint256 tokenId, bytes memory data) public virtual {\\n        transferFrom(from, to, tokenId);\\n        _checkOnERC721Received(from, to, tokenId, data);\\n    }\\n\\n    /**\\n     * @dev Returns the owner of the `tokenId`. Does NOT revert if token doesn't exist\\n     *\\n     * IMPORTANT: Any overrides to this function that add ownership of tokens not tracked by the\\n     * core ERC721 logic MUST be matched with the use of {_increaseBalance} to keep balances\\n     * consistent with ownership. The invariant to preserve is that for any address `a` the value returned by\\n     * `balanceOf(a)` must be equal to the number of tokens such that `_ownerOf(tokenId)` is `a`.\\n     */\\n    function _ownerOf(uint256 tokenId) internal view virtual returns (address) {\\n        return _owners[tokenId];\\n    }\\n\\n    /**\\n     * @dev Returns the approved address for `tokenId`. Returns 0 if `tokenId` is not minted.\\n     */\\n    function _getApproved(uint256 tokenId) internal view virtual returns (address) {\\n        return _tokenApprovals[tokenId];\\n    }\\n\\n    /**\\n     * @dev Returns whether `spender` is allowed to manage `owner`'s tokens, or `tokenId` in\\n     * particular (ignoring whether it is owned by `owner`).\\n     *\\n     * WARNING: This function assumes that `owner` is the actual owner of `tokenId` and does not verify this\\n     * assumption.\\n     */\\n    function _isAuthorized(address owner, address spender, uint256 tokenId) internal view virtual returns (bool) {\\n        return\\n            spender != address(0) &&\\n            (owner == spender || isApprovedForAll(owner, spender) || _getApproved(tokenId) == spender);\\n    }\\n\\n    /**\\n     * @dev Checks if `spender` can operate on `tokenId`, assuming the provided `owner` is the actual owner.\\n     * Reverts if `spender` does not have approval from the provided `owner` for the given token or for all its assets\\n     * the `spender` for the specific `tokenId`.\\n     *\\n     * WARNING: This function assumes that `owner` is the actual owner of `tokenId` and does not verify this\\n     * assumption.\\n     */\\n    function _checkAuthorized(address owner, address spender, uint256 tokenId) internal view virtual {\\n        if (!_isAuthorized(owner, spender, tokenId)) {\\n            if (owner == address(0)) {\\n                revert ERC721NonexistentToken(tokenId);\\n            } else {\\n                revert ERC721InsufficientApproval(spender, tokenId);\\n            }\\n        }\\n    }\\n\\n    /**\\n     * @dev Unsafe write access to the balances, used by extensions that \\\"mint\\\" tokens using an {ownerOf} override.\\n     *\\n     * NOTE: the value is limited to type(uint128).max. This protect against _balance overflow. It is unrealistic that\\n     * a uint256 would ever overflow from increments when these increments are bounded to uint128 values.\\n     *\\n     * WARNING: Increasing an account's balance using this function tends to be paired with an override of the\\n     * {_ownerOf} function to resolve the ownership of the corresponding tokens so that balances and ownership\\n     * remain consistent with one another.\\n     */\\n    function _increaseBalance(address account, uint128 value) internal virtual {\\n        unchecked {\\n            _balances[account] += value;\\n        }\\n    }\\n\\n    /**\\n     * @dev Transfers `tokenId` from its current owner to `to`, or alternatively mints (or burns) if the current owner\\n     * (or `to`) is the zero address. Returns the owner of the `tokenId` before the update.\\n     *\\n     * The `auth` argument is optional. If the value passed is non 0, then this function will check that\\n     * `auth` is either the owner of the token, or approved to operate on the token (by the owner).\\n     *\\n     * Emits a {Transfer} event.\\n     *\\n     * NOTE: If overriding this function in a way that tracks balances, see also {_increaseBalance}.\\n     */\\n    function _update(address to, uint256 tokenId, address auth) internal virtual returns (address) {\\n        address from = _ownerOf(tokenId);\\n\\n        // Perform (optional) operator check\\n        if (auth != address(0)) {\\n            _checkAuthorized(from, auth, tokenId);\\n        }\\n\\n        // Execute the update\\n        if (from != address(0)) {\\n            // Clear approval. No need to re-authorize or emit the Approval event\\n            _approve(address(0), tokenId, address(0), false);\\n\\n            unchecked {\\n                _balances[from] -= 1;\\n            }\\n        }\\n\\n        if (to != address(0)) {\\n            unchecked {\\n                _balances[to] += 1;\\n            }\\n        }\\n\\n        _owners[tokenId] = to;\\n\\n        emit Transfer(from, to, tokenId);\\n\\n        return from;\\n    }\\n\\n    /**\\n     * @dev Mints `tokenId` and transfers it to `to`.\\n     *\\n     * WARNING: Usage of this method is discouraged, use {_safeMint} whenever possible\\n     *\\n     * Requirements:\\n     *\\n     * - `tokenId` must not exist.\\n     * - `to` cannot be the zero address.\\n     *\\n     * Emits a {Transfer} event.\\n     */\\n    function _mint(address to, uint256 tokenId) internal {\\n        if (to == address(0)) {\\n            revert ERC721InvalidReceiver(address(0));\\n        }\\n        address previousOwner = _update(to, tokenId, address(0));\\n        if (previousOwner != address(0)) {\\n            revert ERC721InvalidSender(address(0));\\n        }\\n    }\\n\\n    /**\\n     * @dev Mints `tokenId`, transfers it to `to` and checks for `to` acceptance.\\n     *\\n     * Requirements:\\n     *\\n     * - `tokenId` must not exist.\\n     * - If `to` refers to a smart contract, it must implement {IERC721Receiver-onERC721Received}, which is called upon a safe transfer.\\n     *\\n     * Emits a {Transfer} event.\\n     */\\n    function _safeMint(address to, uint256 tokenId) internal {\\n        _safeMint(to, tokenId, \\\"\\\");\\n    }\\n\\n    /**\\n     * @dev Same as {xref-ERC721-_safeMint-address-uint256-}[`_safeMint`], with an additional `data` parameter which is\\n     * forwarded in {IERC721Receiver-onERC721Received} to contract recipients.\\n     */\\n    function _safeMint(address to, uint256 tokenId, bytes memory data) internal virtual {\\n        _mint(to, tokenId);\\n        _checkOnERC721Received(address(0), to, tokenId, data);\\n    }\\n\\n    /**\\n     * @dev Destroys `tokenId`.\\n     * The approval is cleared when the token is burned.\\n     * This is an internal function that does not check if the sender is authorized to operate on the token.\\n     *\\n     * Requirements:\\n     *\\n     * - `tokenId` must exist.\\n     *\\n     * Emits a {Transfer} event.\\n     */\\n    function _burn(uint256 tokenId) internal {\\n        address previousOwner = _update(address(0), tokenId, address(0));\\n        if (previousOwner == address(0)) {\\n            revert ERC721NonexistentToken(tokenId);\\n        }\\n    }\\n\\n    /**\\n     * @dev Transfers `tokenId` from `from` to `to`.\\n     *  As opposed to {transferFrom}, this imposes no restrictions on msg.sender.\\n     *\\n     * Requirements:\\n     *\\n     * - `to` cannot be the zero address.\\n     * - `tokenId` token must be owned by `from`.\\n     *\\n     * Emits a {Transfer} event.\\n     */\\n    function _transfer(address from, address to, uint256 tokenId) internal {\\n        if (to == address(0)) {\\n            revert ERC721InvalidReceiver(address(0));\\n        }\\n        address previousOwner = _update(to, tokenId, address(0));\\n        if (previousOwner == address(0)) {\\n            revert ERC721NonexistentToken(tokenId);\\n        } else if (previousOwner != from) {\\n            revert ERC721IncorrectOwner(from, tokenId, previousOwner);\\n        }\\n    }\\n\\n    /**\\n     * @dev Safely transfers `tokenId` token from `from` to `to`, checking that contract recipients\\n     * are aware of the ERC721 standard to prevent tokens from being forever locked.\\n     *\\n     * `data` is additional data, it has no specified format and it is sent in call to `to`.\\n     *\\n     * This internal function is like {safeTransferFrom} in the sense that it invokes\\n     * {IERC721Receiver-onERC721Received} on the receiver, and can be used to e.g.\\n     * implement alternative mechanisms to perform token transfer, such as signature-based.\\n     *\\n     * Requirements:\\n     *\\n     * - `tokenId` token must exist and be owned by `from`.\\n     * - `to` cannot be the zero address.\\n     * - `from` cannot be the zero address.\\n     * - If `to` refers to a smart contract, it must implement {IERC721Receiver-onERC721Received}, which is called upon a safe transfer.\\n     *\\n     * Emits a {Transfer} event.\\n     */\\n    function _safeTransfer(address from, address to, uint256 tokenId) internal {\\n        _safeTransfer(from, to, tokenId, \\\"\\\");\\n    }\\n\\n    /**\\n     * @dev Same as {xref-ERC721-_safeTransfer-address-address-uint256-}[`_safeTransfer`], with an additional `data` parameter which is\\n     * forwarded in {IERC721Receiver-onERC721Received} to contract recipients.\\n     */\\n    function _safeTransfer(address from, address to, uint256 tokenId, bytes memory data) internal virtual {\\n        _transfer(from, to, tokenId);\\n        _checkOnERC721Received(from, to, tokenId, data);\\n    }\\n\\n    /**\\n     * @dev Approve `to` to operate on `tokenId`\\n     *\\n     * The `auth` argument is optional. If the value passed is non 0, then this function will check that `auth` is\\n     * either the owner of the token, or approved to operate on all tokens held by this owner.\\n     *\\n     * Emits an {Approval} event.\\n     *\\n     * Overrides to this logic should be done to the variant with an additional `bool emitEvent` argument.\\n     */\\n    function _approve(address to, uint256 tokenId, address auth) internal {\\n        _approve(to, tokenId, auth, true);\\n    }\\n\\n    /**\\n     * @dev Variant of `_approve` with an optional flag to enable or disable the {Approval} event. The event is not\\n     * emitted in the context of transfers.\\n     */\\n    function _approve(address to, uint256 tokenId, address auth, bool emitEvent) internal virtual {\\n        // Avoid reading the owner unless necessary\\n        if (emitEvent || auth != address(0)) {\\n            address owner = _requireOwned(tokenId);\\n\\n            // We do not use _isAuthorized because single-token approvals should not be able to call approve\\n            if (auth != address(0) && owner != auth && !isApprovedForAll(owner, auth)) {\\n                revert ERC721InvalidApprover(auth);\\n            }\\n\\n            if (emitEvent) {\\n                emit Approval(owner, to, tokenId);\\n            }\\n        }\\n\\n        _tokenApprovals[tokenId] = to;\\n    }\\n\\n    /**\\n     * @dev Approve `operator` to operate on all of `owner` tokens\\n     *\\n     * Requirements:\\n     * - operator can't be the address zero.\\n     *\\n     * Emits an {ApprovalForAll} event.\\n     */\\n    function _setApprovalForAll(address owner, address operator, bool approved) internal virtual {\\n        if (operator == address(0)) {\\n            revert ERC721InvalidOperator(operator);\\n        }\\n        _operatorApprovals[owner][operator] = approved;\\n        emit ApprovalForAll(owner, operator, approved);\\n    }\\n\\n    /**\\n     * @dev Reverts if the `tokenId` doesn't have a current owner (it hasn't been minted, or it has been burned).\\n     * Returns the owner.\\n     *\\n     * Overrides to ownership logic should be done to {_ownerOf}.\\n     */\\n    function _requireOwned(uint256 tokenId) internal view returns (address) {\\n        address owner = _ownerOf(tokenId);\\n        if (owner == address(0)) {\\n            revert ERC721NonexistentToken(tokenId);\\n        }\\n        return owner;\\n    }\\n\\n    /**\\n     * @dev Private function to invoke {IERC721Receiver-onERC721Received} on a target address. This will revert if the\\n     * recipient doesn't accept the token transfer. The call is not executed if the target address is not a contract.\\n     *\\n     * @param from address representing the previous owner of the given token ID\\n     * @param to target address that will receive the tokens\\n     * @param tokenId uint256 ID of the token to be transferred\\n     * @param data bytes optional data to send along with the call\\n     */\\n    function _checkOnERC721Received(address from, address to, uint256 tokenId, bytes memory data) private {\\n        if (to.code.length > 0) {\\n            try IERC721Receiver(to).onERC721Received(_msgSender(), from, tokenId, data) returns (bytes4 retval) {\\n                if (retval != IERC721Receiver.onERC721Received.selector) {\\n                    revert ERC721InvalidReceiver(to);\\n                }\\n            } catch (bytes memory reason) {\\n                if (reason.length == 0) {\\n                    revert ERC721InvalidReceiver(to);\\n                } else {\\n                    /// @solidity memory-safe-assembly\\n                    assembly {\\n                        revert(add(32, reason), mload(reason))\\n                    }\\n                }\\n            }\\n        }\\n    }\\n}\\n\"},\"@openzeppelin/contracts/interfaces/draft-IERC6093.sol\":{\"content\":\"// SPDX-License-Identifier: MIT\\n// OpenZeppelin Contracts (last updated v5.0.0) (interfaces/draft-IERC6093.sol)\\npragma solidity ^0.8.20;\\n\\n/**\\n * @dev Standard ERC20 Errors\\n * Interface of the https://eips.ethereum.org/EIPS/eip-6093[ERC-6093] custom errors for ERC20 tokens.\\n */\\ninterface IERC20Errors {\\n    /**\\n     * @dev Indicates an error related to the current `balance` of a `sender`. Used in transfers.\\n     * @param sender Address whose tokens are being transferred.\\n     * @param balance Current balance for the interacting account.\\n     * @param needed Minimum amount required to perform a transfer.\\n     */\\n    error ERC20InsufficientBalance(address sender, uint256 balance, uint256 needed);\\n\\n    /**\\n     * @dev Indicates a failure with the token `sender`. Used in transfers.\\n     * @param sender Address whose tokens are being transferred.\\n     */\\n    error ERC20InvalidSender(address sender);\\n\\n    /**\\n     * @dev Indicates a failure with the token `receiver`. Used in transfers.\\n     * @param receiver Address to which tokens are being transferred.\\n     */\\n    error ERC20InvalidReceiver(address receiver);\\n\\n    /**\\n     * @dev Indicates a failure with the `spender`’s `allowance`. Used in transfers.\\n     * @param spender Address that may be allowed to operate on tokens without being their owner.\\n     * @param allowance Amount of tokens a `spender` is allowed to operate with.\\n     * @param needed Minimum amount required to perform a transfer.\\n     */\\n    error ERC20InsufficientAllowance(address spender, uint256 allowance, uint256 needed);\\n\\n    /**\\n     * @dev Indicates a failure with the `approver` of a token to be approved. Used in approvals.\\n     * @param approver Address initiating an approval operation.\\n     */\\n    error ERC20InvalidApprover(address approver);\\n\\n    /**\\n     * @dev Indicates a failure with the `spender` to be approved. Used in approvals.\\n     * @param spender Address that may be allowed to operate on tokens without being their owner.\\n     */\\n    error ERC20InvalidSpender(address spender);\\n}\\n\\n/**\\n * @dev Standard ERC721 Errors\\n * Interface of the https://eips.ethereum.org/EIPS/eip-6093[ERC-6093] custom errors for ERC721 tokens.\\n */\\ninterface IERC721Errors {\\n    /**\\n     * @dev Indicates that an address can't be an owner. For example, `address(0)` is a forbidden owner in EIP-20.\\n     * Used in balance queries.\\n     * @param owner Address of the current owner of a token.\\n     */\\n    error ERC721InvalidOwner(address owner);\\n\\n    /**\\n     * @dev Indicates a `tokenId` whose `owner` is the zero address.\\n     * @param tokenId Identifier number of a token.\\n     */\\n    error ERC721NonexistentToken(uint256 tokenId);\\n\\n    /**\\n     * @dev Indicates an error related to the ownership over a particular token. Used in transfers.\\n     * @param sender Address whose tokens are being transferred.\\n     * @param tokenId Identifier number of a token.\\n     * @param owner Address of the current owner of a token.\\n     */\\n    error ERC721IncorrectOwner(address sender, uint256 tokenId, address owner);\\n\\n    /**\\n     * @dev Indicates a failure with the token `sender`. Used in transfers.\\n     * @param sender Address whose tokens are being transferred.\\n     */\\n    error ERC721InvalidSender(address sender);\\n\\n    /**\\n     * @dev Indicates a failure with the token `receiver`. Used in transfers.\\n     * @param receiver Address to which tokens are being transferred.\\n     */\\n    error ERC721InvalidReceiver(address receiver);\\n\\n    /**\\n     * @dev Indicates a failure with the `operator`’s approval. Used in transfers.\\n     * @param operator Address that may be allowed to operate on tokens without being their owner.\\n     * @param tokenId Identifier number of a token.\\n     */\\n    error ERC721InsufficientApproval(address operator, uint256 tokenId);\\n\\n    /**\\n     * @dev Indicates a failure with the `approver` of a token to be approved. Used in approvals.\\n     * @param approver Address initiating an approval operation.\\n     */\\n    error ERC721InvalidApprover(address approver);\\n\\n    /**\\n     * @dev Indicates a failure with the `operator` to be approved. Used in approvals.\\n     * @param operator Address that may be allowed to operate on tokens without being their owner.\\n     */\\n    error ERC721InvalidOperator(address operator);\\n}\\n\\n/**\\n * @dev Standard ERC1155 Errors\\n * Interface of the https://eips.ethereum.org/EIPS/eip-6093[ERC-6093] custom errors for ERC1155 tokens.\\n */\\ninterface IERC1155Errors {\\n    /**\\n     * @dev Indicates an error related to the current `balance` of a `sender`. Used in transfers.\\n     * @param sender Address whose tokens are being transferred.\\n     * @param balance Current balance for the interacting account.\\n     * @param needed Minimum amount required to perform a transfer.\\n     * @param tokenId Identifier number of a token.\\n     */\\n    error ERC1155InsufficientBalance(address sender, uint256 balance, uint256 needed, uint256 tokenId);\\n\\n    /**\\n     * @dev Indicates a failure with the token `sender`. Used in transfers.\\n     * @param sender Address whose tokens are being transferred.\\n     */\\n    error ERC1155InvalidSender(address sender);\\n\\n    /**\\n     * @dev Indicates a failure with the token `receiver`. Used in transfers.\\n     * @param receiver Address to which tokens are being transferred.\\n     */\\n    error ERC1155InvalidReceiver(address receiver);\\n\\n    /**\\n     * @dev Indicates a failure with the `operator`’s approval. Used in transfers.\\n     * @param operator Address that may be allowed to operate on tokens without being their owner.\\n     * @param owner Address of the current owner of a token.\\n     */\\n    error ERC1155MissingApprovalForAll(address operator, address owner);\\n\\n    /**\\n     * @dev Indicates a failure with the `approver` of a token to be approved. Used in approvals.\\n     * @param approver Address initiating an approval operation.\\n     */\\n    error ERC1155InvalidApprover(address approver);\\n\\n    /**\\n     * @dev Indicates a failure with the `operator` to be approved. Used in approvals.\\n     * @param operator Address that may be allowed to operate on tokens without being their owner.\\n     */\\n    error ERC1155InvalidOperator(address operator);\\n\\n    /**\\n     * @dev Indicates an array length mismatch between ids and values in a safeBatchTransferFrom operation.\\n     * Used in batch transfers.\\n     * @param idsLength Length of the array of token identifiers\\n     * @param valuesLength Length of the array of token amounts\\n     */\\n    error ERC1155InvalidArrayLength(uint256 idsLength, uint256 valuesLength);\\n}\\n\"},\"@openzeppelin/contracts/utils/introspection/ERC165.sol\":{\"content\":\"// SPDX-License-Identifier: MIT\\n// OpenZeppelin Contracts (last updated v5.0.0) (utils/introspection/ERC165.sol)\\n\\npragma solidity ^0.8.20;\\n\\nimport {IERC165} from \\\"./IERC165.sol\\\";\\n\\n/**\\n * @dev Implementation of the {IERC165} interface.\\n *\\n * Contracts that want to implement ERC165 should inherit from this contract and override {supportsInterface} to check\\n * for the additional interface id that will be supported. For example:\\n *\\n * ```solidity\\n * function supportsInterface(bytes4 interfaceId) public view virtual override returns (bool) {\\n *     return interfaceId == type(MyInterface).interfaceId || super.supportsInterface(interfaceId);\\n * }\\n * ```\\n */\\nabstract contract ERC165 is IERC165 {\\n    /**\\n     * @dev See {IERC165-supportsInterface}.\\n     */\\n    function supportsInterface(bytes4 interfaceId) public view virtual returns (bool) {\\n        return interfaceId == type(IERC165).interfaceId;\\n    }\\n}\\n\"},\"@openzeppelin/contracts/utils/Strings.sol\":{\"content\":\"// SPDX-License-Identifier: MIT\\n// OpenZeppelin Contracts (last updated v5.0.0) (utils/Strings.sol)\\n\\npragma solidity ^0.8.20;\\n\\nimport {Math} from \\\"./math/Math.sol\\\";\\nimport {SignedMath} from \\\"./math/SignedMath.sol\\\";\\n\\n/**\\n * @dev String operations.\\n */\\nlibrary Strings {\\n    bytes16 private constant HEX_DIGITS = \\\"0123456789abcdef\\\";\\n    uint8 private constant ADDRESS_LENGTH = 20;\\n\\n    /**\\n     * @dev The `value` string doesn't fit in the specified `length`.\\n     */\\n    error StringsInsufficientHexLength(uint256 value, uint256 length);\\n\\n    /**\\n     * @dev Converts a `uint256` to its ASCII `string` decimal representation.\\n     */\\n    function toString(uint256 value) internal pure returns (string memory) {\\n        unchecked {\\n            uint256 length = Math.log10(value) + 1;\\n            string memory buffer = new string(length);\\n            uint256 ptr;\\n            /// @solidity memory-safe-assembly\\n            assembly {\\n                ptr := add(buffer, add(32, length))\\n            }\\n            while (true) {\\n                ptr--;\\n                /// @solidity memory-safe-assembly\\n                assembly {\\n                    mstore8(ptr, byte(mod(value, 10), HEX_DIGITS))\\n                }\\n                value /= 10;\\n                if (value == 0) break;\\n            }\\n            return buffer;\\n        }\\n    }\\n\\n    /**\\n     * @dev Converts a `int256` to its ASCII `string` decimal representation.\\n     */\\n    function toStringSigned(int256 value) internal pure returns (string memory) {\\n        return string.concat(value < 0 ? \\\"-\\\" : \\\"\\\", toString(SignedMath.abs(value)));\\n    }\\n\\n    /**\\n     * @dev Converts a `uint256` to its ASCII `string` hexadecimal representation.\\n     */\\n    function toHexString(uint256 value) internal pure returns (string memory) {\\n        unchecked {\\n            return toHexString(value, Math.log256(value) + 1);\\n        }\\n    }\\n\\n    /**\\n     * @dev Converts a `uint256` to its ASCII `string` hexadecimal representation with fixed length.\\n     */\\n    function toHexString(uint256 value, uint256 length) internal pure returns (string memory) {\\n        uint256 localValue = value;\\n        bytes memory buffer = new bytes(2 * length + 2);\\n        buffer[0] = \\\"0\\\";\\n        buffer[1] = \\\"x\\\";\\n        for (uint256 i = 2 * length + 1; i > 1; --i) {\\n            buffer[i] = HEX_DIGITS[localValue & 0xf];\\n            localValue >>= 4;\\n        }\\n        if (localValue != 0) {\\n            revert StringsInsufficientHexLength(value, length);\\n        }\\n        return string(buffer);\\n    }\\n\\n    /**\\n     * @dev Converts an `address` with fixed length of 20 bytes to its not checksummed ASCII `string` hexadecimal\\n     * representation.\\n     */\\n    function toHexString(address addr) internal pure returns (string memory) {\\n        return toHexString(uint256(uint160(addr)), ADDRESS_LENGTH);\\n    }\\n\\n    /**\\n     * @dev Returns true if the two strings are equal.\\n     */\\n    function equal(string memory a, string memory b) internal pure returns (bool) {\\n        return bytes(a).length == bytes(b).length && keccak256(bytes(a)) == keccak256(bytes(b));\\n    }\\n}\\n\"},\"@openzeppelin/contracts/utils/Context.sol\":{\"content\":\"// SPDX-License-Identifier: MIT\\n// OpenZeppelin Contracts (last updated v5.0.1) (utils/Context.sol)\\n\\npragma solidity ^0.8.20;\\n\\n/**\\n * @dev Provides information about the current execution context, including the\\n * sender of the transaction and its data. While these are generally available\\n * via msg.sender and msg.data, they should not be accessed in such a direct\\n * manner, since when dealing with meta-transactions the account sending and\\n * paying for execution may not be the actual sender (as far as an application\\n * is concerned).\\n *\\n * This contract is only required for intermediate, library-like contracts.\\n */\\nabstract contract Context {\\n    function _msgSender() internal view virtual returns (address) {\\n        return msg.sender;\\n    }\\n\\n    function _msgData() internal view virtual returns (bytes calldata) {\\n        return msg.data;\\n    }\\n\\n    function _contextSuffixLength() internal view virtual returns (uint256) {\\n        return 0;\\n    }\\n}\\n\"},\"@openzeppelin/contracts/token/ERC721/extensions/IERC721Metadata.sol\":{\"content\":\"// SPDX-License-Identifier: MIT\\n// OpenZeppelin Contracts (last updated v5.0.0) (token/ERC721/extensions/IERC721Metadata.sol)\\n\\npragma solidity ^0.8.20;\\n\\nimport {IERC721} from \\\"../IERC721.sol\\\";\\n\\n/**\\n * @title ERC-721 Non-Fungible Token Standard, optional metadata extension\\n * @dev See https://eips.ethereum.org/EIPS/eip-721\\n */\\ninterface IERC721Metadata is IERC721 {\\n    /**\\n     * @dev Returns the token collection name.\\n     */\\n    function name() external view returns (string memory);\\n\\n    /**\\n     * @dev Returns the token collection symbol.\\n     */\\n    function symbol() external view returns (string memory);\\n\\n    /**\\n     * @dev Returns the Uniform Resource Identifier (URI) for `tokenId` token.\\n     */\\n    function tokenURI(uint256 tokenId) external view returns (string memory);\\n}\\n\"},\"@openzeppelin/contracts/token/ERC721/IERC721Receiver.sol\":{\"content\":\"// SPDX-License-Identifier: MIT\\n// OpenZeppelin Contracts (last updated v5.0.0) (token/ERC721/IERC721Receiver.sol)\\n\\npragma solidity ^0.8.20;\\n\\n/**\\n * @title ERC721 token receiver interface\\n * @dev Interface for any contract that wants to support safeTransfers\\n * from ERC721 asset contracts.\\n */\\ninterface IERC721Receiver {\\n    /**\\n     * @dev Whenever an {IERC721} `tokenId` token is transferred to this contract via {IERC721-safeTransferFrom}\\n     * by `operator` from `from`, this function is called.\\n     *\\n     * It must return its Solidity selector to confirm the token transfer.\\n     * If any other value is returned or the interface is not implemented by the recipient, the transfer will be\\n     * reverted.\\n     *\\n     * The selector can be obtained in Solidity with `IERC721Receiver.onERC721Received.selector`.\\n     */\\n    function onERC721Received(\\n        address operator,\\n        address from,\\n        uint256 tokenId,\\n        bytes calldata data\\n    ) external returns (bytes4);\\n}\\n\"},\"@openzeppelin/contracts/token/ERC721/IERC721.sol\":{\"content\":\"// SPDX-License-Identifier: MIT\\n// OpenZeppelin Contracts (last updated v5.0.0) (token/ERC721/IERC721.sol)\\n\\npragma solidity ^0.8.20;\\n\\nimport {IERC165} from \\\"../../utils/introspection/IERC165.sol\\\";\\n\\n/**\\n * @dev Required interface of an ERC721 compliant contract.\\n */\\ninterface IERC721 is IERC165 {\\n    /**\\n     * @dev Emitted when `tokenId` token is transferred from `from` to `to`.\\n     */\\n    event Transfer(address indexed from, address indexed to, uint256 indexed tokenId);\\n\\n    /**\\n     * @dev Emitted when `owner` enables `approved` to manage the `tokenId` token.\\n     */\\n    event Approval(address indexed owner, address indexed approved, uint256 indexed tokenId);\\n\\n    /**\\n     * @dev Emitted when `owner` enables or disables (`approved`) `operator` to manage all of its assets.\\n     */\\n    event ApprovalForAll(address indexed owner, address indexed operator, bool approved);\\n\\n    /**\\n     * @dev Returns the number of tokens in ``owner``'s account.\\n     */\\n    function balanceOf(address owner) external view returns (uint256 balance);\\n\\n    /**\\n     * @dev Returns the owner of the `tokenId` token.\\n     *\\n     * Requirements:\\n     *\\n     * - `tokenId` must exist.\\n     */\\n    function ownerOf(uint256 tokenId) external view returns (address owner);\\n\\n    /**\\n     * @dev Safely transfers `tokenId` token from `from` to `to`.\\n     *\\n     * Requirements:\\n     *\\n     * - `from` cannot be the zero address.\\n     * - `to` cannot be the zero address.\\n     * - `tokenId` token must exist and be owned by `from`.\\n     * - If the caller is not `from`, it must be approved to move this token by either {approve} or {setApprovalForAll}.\\n     * - If `to` refers to a smart contract, it must implement {IERC721Receiver-onERC721Received}, which is called upon\\n     *   a safe transfer.\\n     *\\n     * Emits a {Transfer} event.\\n     */\\n    function safeTransferFrom(address from, address to, uint256 tokenId, bytes calldata data) external;\\n\\n    /**\\n     * @dev Safely transfers `tokenId` token from `from` to `to`, checking first that contract recipients\\n     * are aware of the ERC721 protocol to prevent tokens from being forever locked.\\n     *\\n     * Requirements:\\n     *\\n     * - `from` cannot be the zero address.\\n     * - `to` cannot be the zero address.\\n     * - `tokenId` token must exist and be owned by `from`.\\n     * - If the caller is not `from`, it must have been allowed to move this token by either {approve} or\\n     *   {setApprovalForAll}.\\n     * - If `to` refers to a smart contract, it must implement {IERC721Receiver-onERC721Received}, which is called upon\\n     *   a safe transfer.\\n     *\\n     * Emits a {Transfer} event.\\n     */\\n    function safeTransferFrom(address from, address to, uint256 tokenId) external;\\n\\n    /**\\n     * @dev Transfers `tokenId` token from `from` to `to`.\\n     *\\n     * WARNING: Note that the caller is responsible to confirm that the recipient is capable of receiving ERC721\\n     * or else they may be permanently lost. Usage of {safeTransferFrom} prevents loss, though the caller must\\n     * understand this adds an external call which potentially creates a reentrancy vulnerability.\\n     *\\n     * Requirements:\\n     *\\n     * - `from` cannot be the zero address.\\n     * - `to` cannot be the zero address.\\n     * - `tokenId` token must be owned by `from`.\\n     * - If the caller is not `from`, it must be approved to move this token by either {approve} or {setApprovalForAll}.\\n     *\\n     * Emits a {Transfer} event.\\n     */\\n    function transferFrom(address from, address to, uint256 tokenId) external;\\n\\n    /**\\n     * @dev Gives permission to `to` to transfer `tokenId` token to another account.\\n     * The approval is cleared when the token is transferred.\\n     *\\n     * Only a single account can be approved at a time, so approving the zero address clears previous approvals.\\n     *\\n     * Requirements:\\n     *\\n     * - The caller must own the token or be an approved operator.\\n     * - `tokenId` must exist.\\n     *\\n     * Emits an {Approval} event.\\n     */\\n    function approve(address to, uint256 tokenId) external;\\n\\n    /**\\n     * @dev Approve or remove `operator` as an operator for the caller.\\n     * Operators can call {transferFrom} or {safeTransferFrom} for any token owned by the caller.\\n     *\\n     * Requirements:\\n     *\\n     * - The `operator` cannot be the address zero.\\n     *\\n     * Emits an {ApprovalForAll} event.\\n     */\\n    function setApprovalForAll(address operator, bool approved) external;\\n\\n    /**\\n     * @dev Returns the account approved for `tokenId` token.\\n     *\\n     * Requirements:\\n     *\\n     * - `tokenId` must exist.\\n     */\\n    function getApproved(uint256 tokenId) external view returns (address operator);\\n\\n    /**\\n     * @dev Returns if the `operator` is allowed to manage all of the assets of `owner`.\\n     *\\n     * See {setApprovalForAll}\\n     */\\n    function isApprovedForAll(address owner, address operator) external view returns (bool);\\n}\\n\"},\"@openzeppelin/contracts/utils/introspection/IERC165.sol\":{\"content\":\"// SPDX-License-Identifier: MIT\\n// OpenZeppelin Contracts (last updated v5.0.0) (utils/introspection/IERC165.sol)\\n\\npragma solidity ^0.8.20;\\n\\n/**\\n * @dev Interface of the ERC165 standard, as defined in the\\n * https://eips.ethereum.org/EIPS/eip-165[EIP].\\n *\\n * Implementers can declare support of contract interfaces, which can then be\\n * queried by others ({ERC165Checker}).\\n *\\n * For an implementation, see {ERC165}.\\n */\\ninterface IERC165 {\\n    /**\\n     * @dev Returns true if this contract implements the interface defined by\\n     * `interfaceId`. See the corresponding\\n     * https://eips.ethereum.org/EIPS/eip-165#how-interfaces-are-identified[EIP section]\\n     * to learn more about how these ids are created.\\n     *\\n     * This function call must use less than 30 000 gas.\\n     */\\n    function supportsInterface(bytes4 interfaceId) external view returns (bool);\\n}\\n\"},\"@openzeppelin/contracts/utils/math/SignedMath.sol\":{\"content\":\"// SPDX-License-Identifier: MIT\\n// OpenZeppelin Contracts (last updated v5.0.0) (utils/math/SignedMath.sol)\\n\\npragma solidity ^0.8.20;\\n\\n/**\\n * @dev Standard signed math utilities missing in the Solidity language.\\n */\\nlibrary SignedMath {\\n    /**\\n     * @dev Returns the largest of two signed numbers.\\n     */\\n    function max(int256 a, int256 b) internal pure returns (int256) {\\n        return a > b ? a : b;\\n    }\\n\\n    /**\\n     * @dev Returns the smallest of two signed numbers.\\n     */\\n    function min(int256 a, int256 b) internal pure returns (int256) {\\n        return a < b ? a : b;\\n    }\\n\\n    /**\\n     * @dev Returns the average of two signed numbers without overflow.\\n     * The result is rounded towards zero.\\n     */\\n    function average(int256 a, int256 b) internal pure returns (int256) {\\n        // Formula from the book \\\"Hacker's Delight\\\"\\n        int256 x = (a & b) + ((a ^ b) >> 1);\\n        return x + (int256(uint256(x) >> 255) & (a ^ b));\\n    }\\n\\n    /**\\n     * @dev Returns the absolute unsigned value of a signed value.\\n     */\\n    function abs(int256 n) internal pure returns (uint256) {\\n        unchecked {\\n            // must be unchecked in order to support `n = type(int256).min`\\n            return uint256(n >= 0 ? n : -n);\\n        }\\n    }\\n}\\n\"},\"@openzeppelin/contracts/utils/math/Math.sol\":{\"content\":\"// SPDX-License-Identifier: MIT\\n// OpenZeppelin Contracts (last updated v5.0.0) (utils/math/Math.sol)\\n\\npragma solidity ^0.8.20;\\n\\n/**\\n * @dev Standard math utilities missing in the Solidity language.\\n */\\nlibrary Math {\\n    /**\\n     * @dev Muldiv operation overflow.\\n     */\\n    error MathOverflowedMulDiv();\\n\\n    enum Rounding {\\n        Floor, // Toward negative infinity\\n        Ceil, // Toward positive infinity\\n        Trunc, // Toward zero\\n        Expand // Away from zero\\n    }\\n\\n    /**\\n     * @dev Returns the addition of two unsigned integers, with an overflow flag.\\n     */\\n    function tryAdd(uint256 a, uint256 b) internal pure returns (bool, uint256) {\\n        unchecked {\\n            uint256 c = a + b;\\n            if (c < a) return (false, 0);\\n            return (true, c);\\n        }\\n    }\\n\\n    /**\\n     * @dev Returns the subtraction of two unsigned integers, with an overflow flag.\\n     */\\n    function trySub(uint256 a, uint256 b) internal pure returns (bool, uint256) {\\n        unchecked {\\n            if (b > a) return (false, 0);\\n            return (true, a - b);\\n        }\\n    }\\n\\n    /**\\n     * @dev Returns the multiplication of two unsigned integers, with an overflow flag.\\n     */\\n    function tryMul(uint256 a, uint256 b) internal pure returns (bool, uint256) {\\n        unchecked {\\n            // Gas optimization: this is cheaper than requiring 'a' not being zero, but the\\n            // benefit is lost if 'b' is also tested.\\n            // See: https://github.com/OpenZeppelin/openzeppelin-contracts/pull/522\\n            if (a == 0) return (true, 0);\\n            uint256 c = a * b;\\n            if (c / a != b) return (false, 0);\\n            return (true, c);\\n        }\\n    }\\n\\n    /**\\n     * @dev Returns the division of two unsigned integers, with a division by zero flag.\\n     */\\n    function tryDiv(uint256 a, uint256 b) internal pure returns (bool, uint256) {\\n        unchecked {\\n            if (b == 0) return (false, 0);\\n            return (true, a / b);\\n        }\\n    }\\n\\n    /**\\n     * @dev Returns the remainder of dividing two unsigned integers, with a division by zero flag.\\n     */\\n    function tryMod(uint256 a, uint256 b) internal pure returns (bool, uint256) {\\n        unchecked {\\n            if (b == 0) return (false, 0);\\n            return (true, a % b);\\n        }\\n    }\\n\\n    /**\\n     * @dev Returns the largest of two numbers.\\n     */\\n    function max(uint256 a, uint256 b) internal pure returns (uint256) {\\n        return a > b ? a : b;\\n    }\\n\\n    /**\\n     * @dev Returns the smallest of two numbers.\\n     */\\n    function min(uint256 a, uint256 b) internal pure returns (uint256) {\\n        return a < b ? a : b;\\n    }\\n\\n    /**\\n     * @dev Returns the average of two numbers. The result is rounded towards\\n     * zero.\\n     */\\n    function average(uint256 a, uint256 b) internal pure returns (uint256) {\\n        // (a + b) / 2 can overflow.\\n        return (a & b) + (a ^ b) / 2;\\n    }\\n\\n    /**\\n     * @dev Returns the ceiling of the division of two numbers.\\n     *\\n     * This differs from standard division with `/` in that it rounds towards infinity instead\\n     * of rounding towards zero.\\n     */\\n    function ceilDiv(uint256 a, uint256 b) internal pure returns (uint256) {\\n        if (b == 0) {\\n            // Guarantee the same behavior as in a regular Solidity division.\\n            return a / b;\\n        }\\n\\n        // (a + b - 1) / b can overflow on addition, so we distribute.\\n        return a == 0 ? 0 : (a - 1) / b + 1;\\n    }\\n\\n    /**\\n     * @notice Calculates floor(x * y / denominator) with full precision. Throws if result overflows a uint256 or\\n     * denominator == 0.\\n     * @dev Original credit to Remco Bloemen under MIT license (https://xn--2-umb.com/21/muldiv) with further edits by\\n     * Uniswap Labs also under MIT license.\\n     */\\n    function mulDiv(uint256 x, uint256 y, uint256 denominator) internal pure returns (uint256 result) {\\n        unchecked {\\n            // 512-bit multiply [prod1 prod0] = x * y. Compute the product mod 2^256 and mod 2^256 - 1, then use\\n            // use the Chinese Remainder Theorem to reconstruct the 512 bit result. The result is stored in two 256\\n            // variables such that product = prod1 * 2^256 + prod0.\\n            uint256 prod0 = x * y; // Least significant 256 bits of the product\\n            uint256 prod1; // Most significant 256 bits of the product\\n            assembly {\\n                let mm := mulmod(x, y, not(0))\\n                prod1 := sub(sub(mm, prod0), lt(mm, prod0))\\n            }\\n\\n            // Handle non-overflow cases, 256 by 256 division.\\n            if (prod1 == 0) {\\n                // Solidity will revert if denominator == 0, unlike the div opcode on its own.\\n                // The surrounding unchecked block does not change this fact.\\n                // See https://docs.soliditylang.org/en/latest/control-structures.html#checked-or-unchecked-arithmetic.\\n                return prod0 / denominator;\\n            }\\n\\n            // Make sure the result is less than 2^256. Also prevents denominator == 0.\\n            if (denominator <= prod1) {\\n                revert MathOverflowedMulDiv();\\n            }\\n\\n            ///////////////////////////////////////////////\\n            // 512 by 256 division.\\n            ///////////////////////////////////////////////\\n\\n            // Make division exact by subtracting the remainder from [prod1 prod0].\\n            uint256 remainder;\\n            assembly {\\n                // Compute remainder using mulmod.\\n                remainder := mulmod(x, y, denominator)\\n\\n                // Subtract 256 bit number from 512 bit number.\\n                prod1 := sub(prod1, gt(remainder, prod0))\\n                prod0 := sub(prod0, remainder)\\n            }\\n\\n            // Factor powers of two out of denominator and compute largest power of two divisor of denominator.\\n            // Always >= 1. See https://cs.stackexchange.com/q/138556/92363.\\n\\n            uint256 twos = denominator & (0 - denominator);\\n            assembly {\\n                // Divide denominator by twos.\\n                denominator := div(denominator, twos)\\n\\n                // Divide [prod1 prod0] by twos.\\n                prod0 := div(prod0, twos)\\n\\n                // Flip twos such that it is 2^256 / twos. If twos is zero, then it becomes one.\\n                twos := add(div(sub(0, twos), twos), 1)\\n            }\\n\\n            // Shift in bits from prod1 into prod0.\\n            prod0 |= prod1 * twos;\\n\\n            // Invert denominator mod 2^256. Now that denominator is an odd number, it has an inverse modulo 2^256 such\\n            // that denominator * inv = 1 mod 2^256. Compute the inverse by starting with a seed that is correct for\\n            // four bits. That is, denominator * inv = 1 mod 2^4.\\n            uint256 inverse = (3 * denominator) ^ 2;\\n\\n            // Use the Newton-Raphson iteration to improve the precision. Thanks to Hensel's lifting lemma, this also\\n            // works in modular arithmetic, doubling the correct bits in each step.\\n            inverse *= 2 - denominator * inverse; // inverse mod 2^8\\n            inverse *= 2 - denominator * inverse; // inverse mod 2^16\\n            inverse *= 2 - denominator * inverse; // inverse mod 2^32\\n            inverse *= 2 - denominator * inverse; // inverse mod 2^64\\n            inverse *= 2 - denominator * inverse; // inverse mod 2^128\\n            inverse *= 2 - denominator * inverse; // inverse mod 2^256\\n\\n            // Because the division is now exact we can divide by multiplying with the modular inverse of denominator.\\n            // This will give us the correct result modulo 2^256. Since the preconditions guarantee that the outcome is\\n            // less than 2^256, this is the final result. We don't need to compute the high bits of the result and prod1\\n            // is no longer required.\\n            result = prod0 * inverse;\\n            return result;\\n        }\\n    }\\n\\n    /**\\n     * @notice Calculates x * y / denominator with full precision, following the selected rounding direction.\\n     */\\n    function mulDiv(uint256 x, uint256 y, uint256 denominator, Rounding rounding) internal pure returns (uint256) {\\n        uint256 result = mulDiv(x, y, denominator);\\n        if (unsignedRoundsUp(rounding) && mulmod(x, y, denominator) > 0) {\\n            result += 1;\\n        }\\n        return result;\\n    }\\n\\n    /**\\n     * @dev Returns the square root of a number. If the number is not a perfect square, the value is rounded\\n     * towards zero.\\n     *\\n     * Inspired by Henry S. Warren, Jr.'s \\\"Hacker's Delight\\\" (Chapter 11).\\n     */\\n    function sqrt(uint256 a) internal pure returns (uint256) {\\n        if (a == 0) {\\n            return 0;\\n        }\\n\\n        // For our first guess, we get the biggest power of 2 which is smaller than the square root of the target.\\n        //\\n        // We know that the \\\"msb\\\" (most significant bit) of our target number `a` is a power of 2 such that we have\\n        // `msb(a) <= a < 2*msb(a)`. This value can be written `msb(a)=2**k` with `k=log2(a)`.\\n        //\\n        // This can be rewritten `2**log2(a) <= a < 2**(log2(a) + 1)`\\n        // → `sqrt(2**k) <= sqrt(a) < sqrt(2**(k+1))`\\n        // → `2**(k/2) <= sqrt(a) < 2**((k+1)/2) <= 2**(k/2 + 1)`\\n        //\\n        // Consequently, `2**(log2(a) / 2)` is a good first approximation of `sqrt(a)` with at least 1 correct bit.\\n        uint256 result = 1 << (log2(a) >> 1);\\n\\n        // At this point `result` is an estimation with one bit of precision. We know the true value is a uint128,\\n        // since it is the square root of a uint256. Newton's method converges quadratically (precision doubles at\\n        // every iteration). We thus need at most 7 iteration to turn our partial result with one bit of precision\\n        // into the expected uint128 result.\\n        unchecked {\\n            result = (result + a / result) >> 1;\\n            result = (result + a / result) >> 1;\\n            result = (result + a / result) >> 1;\\n            result = (result + a / result) >> 1;\\n            result = (result + a / result) >> 1;\\n            result = (result + a / result) >> 1;\\n            result = (result + a / result) >> 1;\\n            return min(result, a / result);\\n        }\\n    }\\n\\n    /**\\n     * @notice Calculates sqrt(a), following the selected rounding direction.\\n     */\\n    function sqrt(uint256 a, Rounding rounding) internal pure returns (uint256) {\\n        unchecked {\\n            uint256 result = sqrt(a);\\n            return result + (unsignedRoundsUp(rounding) && result * result < a ? 1 : 0);\\n        }\\n    }\\n\\n    /**\\n     * @dev Return the log in base 2 of a positive value rounded towards zero.\\n     * Returns 0 if given 0.\\n     */\\n    function log2(uint256 value) internal pure returns (uint256) {\\n        uint256 result = 0;\\n        unchecked {\\n            if (value >> 128 > 0) {\\n                value >>= 128;\\n                result += 128;\\n            }\\n            if (value >> 64 > 0) {\\n                value >>= 64;\\n                result += 64;\\n            }\\n            if (value >> 32 > 0) {\\n                value >>= 32;\\n                result += 32;\\n            }\\n            if (value >> 16 > 0) {\\n                value >>= 16;\\n                result += 16;\\n            }\\n            if (value >> 8 > 0) {\\n                value >>= 8;\\n                result += 8;\\n            }\\n            if (value >> 4 > 0) {\\n                value >>= 4;\\n                result += 4;\\n            }\\n            if (value >> 2 > 0) {\\n                value >>= 2;\\n                result += 2;\\n            }\\n            if (value >> 1 > 0) {\\n                result += 1;\\n            }\\n        }\\n        return result;\\n    }\\n\\n    /**\\n     * @dev Return the log in base 2, following the selected rounding direction, of a positive value.\\n     * Returns 0 if given 0.\\n     */\\n    function log2(uint256 value, Rounding rounding) internal pure returns (uint256) {\\n        unchecked {\\n            uint256 result = log2(value);\\n            return result + (unsignedRoundsUp(rounding) && 1 << result < value ? 1 : 0);\\n        }\\n    }\\n\\n    /**\\n     * @dev Return the log in base 10 of a positive value rounded towards zero.\\n     * Returns 0 if given 0.\\n     */\\n    function log10(uint256 value) internal pure returns (uint256) {\\n        uint256 result = 0;\\n        unchecked {\\n            if (value >= 10 ** 64) {\\n                value /= 10 ** 64;\\n                result += 64;\\n            }\\n            if (value >= 10 ** 32) {\\n                value /= 10 ** 32;\\n                result += 32;\\n            }\\n            if (value >= 10 ** 16) {\\n                value /= 10 ** 16;\\n                result += 16;\\n            }\\n            if (value >= 10 ** 8) {\\n                value /= 10 ** 8;\\n                result += 8;\\n            }\\n            if (value >= 10 ** 4) {\\n                value /= 10 ** 4;\\n                result += 4;\\n            }\\n            if (value >= 10 ** 2) {\\n                value /= 10 ** 2;\\n                result += 2;\\n            }\\n            if (value >= 10 ** 1) {\\n                result += 1;\\n            }\\n        }\\n        return result;\\n    }\\n\\n    /**\\n     * @dev Return the log in base 10, following the selected rounding direction, of a positive value.\\n     * Returns 0 if given 0.\\n     */\\n    function log10(uint256 value, Rounding rounding) internal pure returns (uint256) {\\n        unchecked {\\n            uint256 result = log10(value);\\n            return result + (unsignedRoundsUp(rounding) && 10 ** result < value ? 1 : 0);\\n        }\\n    }\\n\\n    /**\\n     * @dev Return the log in base 256 of a positive value rounded towards zero.\\n     * Returns 0 if given 0.\\n     *\\n     * Adding one to the result gives the number of pairs of hex symbols needed to represent `value` as a hex string.\\n     */\\n    function log256(uint256 value) internal pure returns (uint256) {\\n        uint256 result = 0;\\n        unchecked {\\n            if (value >> 128 > 0) {\\n                value >>= 128;\\n                result += 16;\\n            }\\n            if (value >> 64 > 0) {\\n                value >>= 64;\\n                result += 8;\\n            }\\n            if (value >> 32 > 0) {\\n                value >>= 32;\\n                result += 4;\\n            }\\n            if (value >> 16 > 0) {\\n                value >>= 16;\\n                result += 2;\\n            }\\n            if (value >> 8 > 0) {\\n                result += 1;\\n            }\\n        }\\n        return result;\\n    }\\n\\n    /**\\n     * @dev Return the log in base 256, following the selected rounding direction, of a positive value.\\n     * Returns 0 if given 0.\\n     */\\n    function log256(uint256 value, Rounding rounding) internal pure returns (uint256) {\\n        unchecked {\\n            uint256 result = log256(value);\\n            return result + (unsignedRoundsUp(rounding) && 1 << (result << 3) < value ? 1 : 0);\\n        }\\n    }\\n\\n    /**\\n     * @dev Returns whether a provided rounding mode is considered rounding up for unsigned integers.\\n     */\\n    function unsignedRoundsUp(Rounding rounding) internal pure returns (bool) {\\n        return uint8(rounding) % 2 == 1;\\n    }\\n}\\n\"}},\"settings\":{\"optimizer\":{\"enabled\":false,\"runs\":200},\"outputSelection\":{\"*\":{\"\":[\"ast\"],\"*\":[\"abi\",\"metadata\",\"devdoc\",\"userdoc\",\"storageLayout\",\"evm.legacyAssembly\",\"evm.bytecode\",\"evm.deployedBytecode\",\"evm.methodIdentifiers\",\"evm.gasEstimates\",\"evm.assembly\"]}},\"remappings\":[]}}",
	"name": "GameFactory",
	"bytecode": {
		"linkReferences": {},
		"object": "60806040525f6001553480156012575f80fd5b5061493c806100205f395ff3fe60806040526004361061007a575f3560e01c80638d00fe0b1161004d5780638d00fe0b1461015a578063c04c594714610170578063c379cd781461019a578063dbef6528146101c45761007a565b80632a60d6ca1461007e578063396130b9146100a65780637fd6145c146100e25780638c6471941461011e575b5f80fd5b348015610089575f80fd5b506100a4600480360381019061009f9190611564565b6101e0565b005b3480156100b1575f80fd5b506100cc60048036038101906100c7919061164b565b610517565b6040516100d991906116ac565b60405180910390f35b3480156100ed575f80fd5b506101086004803603810190610103919061164b565b61064a565b6040516101159190611807565b60405180910390f35b348015610129575f80fd5b50610144600480360381019061013f919061164b565b610952565b6040516101519190611836565b60405180910390f35b348015610165575f80fd5b5061016e61099b565b005b34801561017b575f80fd5b50610184610b19565b604051610191919061199e565b60405180910390f35b3480156101a5575f80fd5b506101ae610e60565b6040516101bb91906119cd565b60405180910390f35b6101de60048036038101906101d9919061164b565b610e6c565b005b5f73ffffffffffffffffffffffffffffffffffffffff166002866040516102079190611a20565b90815260200160405180910390205f015f9054906101000a900473ffffffffffffffffffffffffffffffffffffffff1673ffffffffffffffffffffffffffffffffffffffff1614610284576040517f5f4be31c00000000000000000000000000000000000000000000000000000000815260040160405180910390fd5b5f84848360405161029490611378565b6102a093929190611a7e565b604051809103905ff0801580156102b9573d5f803e3d5ffd5b5090508073ffffffffffffffffffffffffffffffffffffffff16636a627842336040518263ffffffff1660e01b81526004016102f59190611836565b5f604051808303815f87803b15801561030c575f80fd5b505af115801561031e573d5f803e3d5ffd5b505050506040518060c001604052803373ffffffffffffffffffffffffffffffffffffffff1681526020018781526020018273ffffffffffffffffffffffffffffffffffffffff1681526020018681526020018481526020018381525060028760405161038b9190611a20565b90815260200160405180910390205f820151815f015f6101000a81548173ffffffffffffffffffffffffffffffffffffffff021916908373ffffffffffffffffffffffffffffffffffffffff16021790555060208201518160010190816103f29190611cc2565b506040820151816002015f6101000a81548173ffffffffffffffffffffffffffffffffffffffff021916908373ffffffffffffffffffffffffffffffffffffffff160217905550606082015181600301908161044e9190611cc2565b506080820151816004015560a082015181600501908161046e9190611cc2565b50905050600386908060018154018082558091505060019003905f5260205f20015f9091909190915090816104a39190611cc2565b508073ffffffffffffffffffffffffffffffffffffffff16866040516104c99190611a20565b604051809103902060016003805490506104e39190611dbe565b7f1b53114c999ded51a67e2c46b7aba69bd40e2d7a5b1e3e4a8b7f12c122ff3a5060405160405180910390a4505050505050565b5f806002836040516105299190611a20565b90815260200160405180910390206002015f9054906101000a900473ffffffffffffffffffffffffffffffffffffffff1690505f73ffffffffffffffffffffffffffffffffffffffff168173ffffffffffffffffffffffffffffffffffffffff16036105c1576040517f57e25a0900000000000000000000000000000000000000000000000000000000815260040160405180910390fd5b5f81905060018173ffffffffffffffffffffffffffffffffffffffff166370a08231336040518263ffffffff1660e01b81526004016106009190611836565b602060405180830381865afa15801561061b573d5f803e3d5ffd5b505050506040513d601f19601f8201168201806040525081019061063f9190611e05565b101592505050919050565b610652611385565b5f6002836040516106639190611a20565b90815260200160405180910390206040518060c00160405290815f82015f9054906101000a900473ffffffffffffffffffffffffffffffffffffffff1673ffffffffffffffffffffffffffffffffffffffff1673ffffffffffffffffffffffffffffffffffffffff1681526020016001820180546106e090611af5565b80601f016020809104026020016040519081016040528092919081815260200182805461070c90611af5565b80156107575780601f1061072e57610100808354040283529160200191610757565b820191905f5260205f20905b81548152906001019060200180831161073a57829003601f168201915b50505050508152602001600282015f9054906101000a900473ffffffffffffffffffffffffffffffffffffffff1673ffffffffffffffffffffffffffffffffffffffff1673ffffffffffffffffffffffffffffffffffffffff1681526020016003820180546107c590611af5565b80601f01602080910402602001604051908101604052809291908181526020018280546107f190611af5565b801561083c5780601f106108135761010080835404028352916020019161083c565b820191905f5260205f20905b81548152906001019060200180831161081f57829003601f168201915b505050505081526020016004820154815260200160058201805461085f90611af5565b80601f016020809104026020016040519081016040528092919081815260200182805461088b90611af5565b80156108d65780601f106108ad576101008083540402835291602001916108d6565b820191905f5260205f20905b8154815290600101906020018083116108b957829003601f168201915b50505050508152505090505f73ffffffffffffffffffffffffffffffffffffffff16815f015173ffffffffffffffffffffffffffffffffffffffff1603610949576040517f57e25a0900000000000000000000000000000000000000000000000000000000815260040160405180910390fd5b80915050919050565b5f6002826040516109639190611a20565b90815260200160405180910390206002015f9054906101000a900473ffffffffffffffffffffffffffffffffffffffff169050919050565b5f60045f3373ffffffffffffffffffffffffffffffffffffffff1673ffffffffffffffffffffffffffffffffffffffff1681526020019081526020015f205403610a11576040517f356680b700000000000000000000000000000000000000000000000000000000815260040160405180910390fd5b3373ffffffffffffffffffffffffffffffffffffffff166108fc60045f3373ffffffffffffffffffffffffffffffffffffffff1673ffffffffffffffffffffffffffffffffffffffff1681526020019081526020015f205490811502906040515f60405180830381858888f19350505050158015610a91573d5f803e3d5ffd5b505f60045f3373ffffffffffffffffffffffffffffffffffffffff1673ffffffffffffffffffffffffffffffffffffffff1681526020019081526020015f20819055503373ffffffffffffffffffffffffffffffffffffffff167fc43456380866b66f35f174ab56efabbeb1145c4bbf6fe8047c2590e378346ef760405160405180910390a2565b60605f60038054905067ffffffffffffffff811115610b3b57610b3a61140d565b5b604051908082528060200260200182016040528015610b7457816020015b610b61611385565b815260200190600190039081610b595790505b5090505f5b600380549050811015610e5857600260038281548110610b9c57610b9b611e30565b5b905f5260205f2001604051610bb19190611edd565b90815260200160405180910390206040518060c00160405290815f82015f9054906101000a900473ffffffffffffffffffffffffffffffffffffffff1673ffffffffffffffffffffffffffffffffffffffff1673ffffffffffffffffffffffffffffffffffffffff168152602001600182018054610c2e90611af5565b80601f0160208091040260200160405190810160405280929190818152602001828054610c5a90611af5565b8015610ca55780601f10610c7c57610100808354040283529160200191610ca5565b820191905f5260205f20905b815481529060010190602001808311610c8857829003601f168201915b50505050508152602001600282015f9054906101000a900473ffffffffffffffffffffffffffffffffffffffff1673ffffffffffffffffffffffffffffffffffffffff1673ffffffffffffffffffffffffffffffffffffffff168152602001600382018054610d1390611af5565b80601f0160208091040260200160405190810160405280929190818152602001828054610d3f90611af5565b8015610d8a5780601f10610d6157610100808354040283529160200191610d8a565b820191905f5260205f20905b815481529060010190602001808311610d6d57829003601f168201915b5050505050815260200160048201548152602001600582018054610dad90611af5565b80601f0160208091040260200160405190810160405280929190818152602001828054610dd990611af5565b8015610e245780601f10610dfb57610100808354040283529160200191610e24565b820191905f5260205f20905b815481529060010190602001808311610e0757829003601f168201915b505050505081525050828281518110610e4057610e3f611e30565b5b60200260200101819052508080600101915050610b79565b508091505090565b5f600380549050905090565b5f600282604051610e7d9190611a20565b90815260200160405180910390206040518060c00160405290815f82015f9054906101000a900473ffffffffffffffffffffffffffffffffffffffff1673ffffffffffffffffffffffffffffffffffffffff1673ffffffffffffffffffffffffffffffffffffffff168152602001600182018054610efa90611af5565b80601f0160208091040260200160405190810160405280929190818152602001828054610f2690611af5565b8015610f715780601f10610f4857610100808354040283529160200191610f71565b820191905f5260205f20905b815481529060010190602001808311610f5457829003601f168201915b50505050508152602001600282015f9054906101000a900473ffffffffffffffffffffffffffffffffffffffff1673ffffffffffffffffffffffffffffffffffffffff1673ffffffffffffffffffffffffffffffffffffffff168152602001600382018054610fdf90611af5565b80601f016020809104026020016040519081016040528092919081815260200182805461100b90611af5565b80156110565780601f1061102d57610100808354040283529160200191611056565b820191905f5260205f20905b81548152906001019060200180831161103957829003601f168201915b505050505081526020016004820154815260200160058201805461107990611af5565b80601f01602080910402602001604051908101604052809291908181526020018280546110a590611af5565b80156110f05780601f106110c7576101008083540402835291602001916110f0565b820191905f5260205f20905b8154815290600101906020018083116110d357829003601f168201915b50505050508152505090505f816040015190505f73ffffffffffffffffffffffffffffffffffffffff16825f015173ffffffffffffffffffffffffffffffffffffffff160361116b576040517f57e25a0900000000000000000000000000000000000000000000000000000000815260040160405180910390fd5b60018173ffffffffffffffffffffffffffffffffffffffff166370a08231336040518263ffffffff1660e01b81526004016111a69190611836565b602060405180830381865afa1580156111c1573d5f803e3d5ffd5b505050506040513d601f19601f820116820180604052508101906111e59190611e05565b1061121c576040517f80c902ae00000000000000000000000000000000000000000000000000000000815260040160405180910390fd5b816080015134101561125a576040517f356680b700000000000000000000000000000000000000000000000000000000815260040160405180910390fd5b816080015160045f845f015173ffffffffffffffffffffffffffffffffffffffff1673ffffffffffffffffffffffffffffffffffffffff1681526020019081526020015f205f8282546112ad9190611ef3565b925050819055508073ffffffffffffffffffffffffffffffffffffffff16636a627842336040518263ffffffff1660e01b81526004016112ed9190611836565b5f604051808303815f87803b158015611304575f80fd5b505af1158015611316573d5f803e3d5ffd5b505050503373ffffffffffffffffffffffffffffffffffffffff168360405161133f9190611a20565b60405180910390207fbe5bacc9ccf0e6b2195fb4eef26c0562a005dcdd2c5d064fd26d76de3849920f60405160405180910390a3505050565b6129e080611f2783390190565b6040518060c001604052805f73ffffffffffffffffffffffffffffffffffffffff168152602001606081526020015f73ffffffffffffffffffffffffffffffffffffffff168152602001606081526020015f8152602001606081525090565b5f604051905090565b5f80fd5b5f80fd5b5f80fd5b5f80fd5b5f601f19601f8301169050919050565b7f4e487b71000000000000000000000000000000000000000000000000000000005f52604160045260245ffd5b611443826113fd565b810181811067ffffffffffffffff821117156114625761146161140d565b5b80604052505050565b5f6114746113e4565b9050611480828261143a565b919050565b5f67ffffffffffffffff82111561149f5761149e61140d565b5b6114a8826113fd565b9050602081019050919050565b828183375f83830152505050565b5f6114d56114d084611485565b61146b565b9050828152602081018484840111156114f1576114f06113f9565b5b6114fc8482856114b5565b509392505050565b5f82601f830112611518576115176113f5565b5b81356115288482602086016114c3565b91505092915050565b5f819050919050565b61154381611531565b811461154d575f80fd5b50565b5f8135905061155e8161153a565b92915050565b5f805f805f60a0868803121561157d5761157c6113ed565b5b5f86013567ffffffffffffffff81111561159a576115996113f1565b5b6115a688828901611504565b955050602086013567ffffffffffffffff8111156115c7576115c66113f1565b5b6115d388828901611504565b945050604086013567ffffffffffffffff8111156115f4576115f36113f1565b5b61160088828901611504565b935050606061161188828901611550565b925050608086013567ffffffffffffffff811115611632576116316113f1565b5b61163e88828901611504565b9150509295509295909350565b5f602082840312156116605761165f6113ed565b5b5f82013567ffffffffffffffff81111561167d5761167c6113f1565b5b61168984828501611504565b91505092915050565b5f8115159050919050565b6116a681611692565b82525050565b5f6020820190506116bf5f83018461169d565b92915050565b5f73ffffffffffffffffffffffffffffffffffffffff82169050919050565b5f6116ee826116c5565b9050919050565b6116fe816116e4565b82525050565b5f81519050919050565b5f82825260208201905092915050565b8281835e5f83830152505050565b5f61173682611704565b611740818561170e565b935061175081856020860161171e565b611759816113fd565b840191505092915050565b61176d81611531565b82525050565b5f60c083015f8301516117885f8601826116f5565b50602083015184820360208601526117a0828261172c565b91505060408301516117b560408601826116f5565b50606083015184820360608601526117cd828261172c565b91505060808301516117e26080860182611764565b5060a083015184820360a08601526117fa828261172c565b9150508091505092915050565b5f6020820190508181035f83015261181f8184611773565b905092915050565b611830816116e4565b82525050565b5f6020820190506118495f830184611827565b92915050565b5f81519050919050565b5f82825260208201905092915050565b5f819050602082019050919050565b5f60c083015f83015161188d5f8601826116f5565b50602083015184820360208601526118a5828261172c565b91505060408301516118ba60408601826116f5565b50606083015184820360608601526118d2828261172c565b91505060808301516118e76080860182611764565b5060a083015184820360a08601526118ff828261172c565b9150508091505092915050565b5f6119178383611878565b905092915050565b5f602082019050919050565b5f6119358261184f565b61193f8185611859565b93508360208202850161195185611869565b805f5b8581101561198c578484038952815161196d858261190c565b94506119788361191f565b925060208a01995050600181019050611954565b50829750879550505050505092915050565b5f6020820190508181035f8301526119b6818461192b565b905092915050565b6119c781611531565b82525050565b5f6020820190506119e05f8301846119be565b92915050565b5f81905092915050565b5f6119fa82611704565b611a0481856119e6565b9350611a1481856020860161171e565b80840191505092915050565b5f611a2b82846119f0565b915081905092915050565b5f82825260208201905092915050565b5f611a5082611704565b611a5a8185611a36565b9350611a6a81856020860161171e565b611a73816113fd565b840191505092915050565b5f6060820190508181035f830152611a968186611a46565b90508181036020830152611aaa8185611a46565b90508181036040830152611abe8184611a46565b9050949350505050565b7f4e487b71000000000000000000000000000000000000000000000000000000005f52602260045260245ffd5b5f6002820490506001821680611b0c57607f821691505b602082108103611b1f57611b1e611ac8565b5b50919050565b5f819050815f5260205f209050919050565b5f6020601f8301049050919050565b5f82821b905092915050565b5f60088302611b817fffffffffffffffffffffffffffffffffffffffffffffffffffffffffffffffff82611b46565b611b8b8683611b46565b95508019841693508086168417925050509392505050565b5f819050919050565b5f611bc6611bc1611bbc84611531565b611ba3565b611531565b9050919050565b5f819050919050565b611bdf83611bac565b611bf3611beb82611bcd565b848454611b52565b825550505050565b5f90565b611c07611bfb565b611c12818484611bd6565b505050565b5b81811015611c3557611c2a5f82611bff565b600181019050611c18565b5050565b601f821115611c7a57611c4b81611b25565b611c5484611b37565b81016020851015611c63578190505b611c77611c6f85611b37565b830182611c17565b50505b505050565b5f82821c905092915050565b5f611c9a5f1984600802611c7f565b1980831691505092915050565b5f611cb28383611c8b565b9150826002028217905092915050565b611ccb82611704565b67ffffffffffffffff811115611ce457611ce361140d565b5b611cee8254611af5565b611cf9828285611c39565b5f60209050601f831160018114611d2a575f8415611d18578287015190505b611d228582611ca7565b865550611d89565b601f198416611d3886611b25565b5f5b82811015611d5f57848901518255600182019150602085019450602081019050611d3a565b86831015611d7c5784890151611d78601f891682611c8b565b8355505b6001600288020188555050505b505050505050565b7f4e487b71000000000000000000000000000000000000000000000000000000005f52601160045260245ffd5b5f611dc882611531565b9150611dd383611531565b9250828203905081811115611deb57611dea611d91565b5b92915050565b5f81519050611dff8161153a565b92915050565b5f60208284031215611e1a57611e196113ed565b5b5f611e2784828501611df1565b91505092915050565b7f4e487b71000000000000000000000000000000000000000000000000000000005f52603260045260245ffd5b5f8154611e6981611af5565b611e7381866119e6565b9450600182165f8114611e8d5760018114611ea257611ed4565b60ff1983168652811515820286019350611ed4565b611eab85611b25565b5f5b83811015611ecc57815481890152600182019150602081019050611ead565b838801955050505b50505092915050565b5f611ee88284611e5d565b915081905092915050565b5f611efd82611531565b9150611f0883611531565b9250828201905080821115611f2057611f1f611d91565b5b9291505056fe608060405234801561000f575f80fd5b506040516129e03803806129e0833981810160405281019061003191906102fd565b338383815f908161004291906105ae565b50806001908161005291906105ae565b5050505f73ffffffffffffffffffffffffffffffffffffffff168173ffffffffffffffffffffffffffffffffffffffff16036100c5575f6040517f1e4fbdf70000000000000000000000000000000000000000000000000000000081526004016100bc91906106bc565b60405180910390fd5b6100d4816100ed60201b60201c565b5080600890816100e491906105ae565b505050506106d5565b5f60065f9054906101000a900473ffffffffffffffffffffffffffffffffffffffff1690508160065f6101000a81548173ffffffffffffffffffffffffffffffffffffffff021916908373ffffffffffffffffffffffffffffffffffffffff1602179055508173ffffffffffffffffffffffffffffffffffffffff168173ffffffffffffffffffffffffffffffffffffffff167f8be0079c531659141344cd1fd0a4f28419497f9722a3daafe3b4186f6b6457e060405160405180910390a35050565b5f604051905090565b5f80fd5b5f80fd5b5f80fd5b5f80fd5b5f601f19601f8301169050919050565b7f4e487b71000000000000000000000000000000000000000000000000000000005f52604160045260245ffd5b61020f826101c9565b810181811067ffffffffffffffff8211171561022e5761022d6101d9565b5b80604052505050565b5f6102406101b0565b905061024c8282610206565b919050565b5f67ffffffffffffffff82111561026b5761026a6101d9565b5b610274826101c9565b9050602081019050919050565b8281835e5f83830152505050565b5f6102a161029c84610251565b610237565b9050828152602081018484840111156102bd576102bc6101c5565b5b6102c8848285610281565b509392505050565b5f82601f8301126102e4576102e36101c1565b5b81516102f484826020860161028f565b91505092915050565b5f805f60608486031215610314576103136101b9565b5b5f84015167ffffffffffffffff811115610331576103306101bd565b5b61033d868287016102d0565b935050602084015167ffffffffffffffff81111561035e5761035d6101bd565b5b61036a868287016102d0565b925050604084015167ffffffffffffffff81111561038b5761038a6101bd565b5b610397868287016102d0565b9150509250925092565b5f81519050919050565b7f4e487b71000000000000000000000000000000000000000000000000000000005f52602260045260245ffd5b5f60028204905060018216806103ef57607f821691505b602082108103610402576104016103ab565b5b50919050565b5f819050815f5260205f209050919050565b5f6020601f8301049050919050565b5f82821b905092915050565b5f600883026104647fffffffffffffffffffffffffffffffffffffffffffffffffffffffffffffffff82610429565b61046e8683610429565b95508019841693508086168417925050509392505050565b5f819050919050565b5f819050919050565b5f6104b26104ad6104a884610486565b61048f565b610486565b9050919050565b5f819050919050565b6104cb83610498565b6104df6104d7826104b9565b848454610435565b825550505050565b5f90565b6104f36104e7565b6104fe8184846104c2565b505050565b5b81811015610521576105165f826104eb565b600181019050610504565b5050565b601f8211156105665761053781610408565b6105408461041a565b8101602085101561054f578190505b61056361055b8561041a565b830182610503565b50505b505050565b5f82821c905092915050565b5f6105865f198460080261056b565b1980831691505092915050565b5f61059e8383610577565b9150826002028217905092915050565b6105b7826103a1565b67ffffffffffffffff8111156105d0576105cf6101d9565b5b6105da82546103d8565b6105e5828285610525565b5f60209050601f831160018114610616575f8415610604578287015190505b61060e8582610593565b865550610675565b601f19841661062486610408565b5f5b8281101561064b57848901518255600182019150602085019450602081019050610626565b868310156106685784890151610664601f891682610577565b8355505b6001600288020188555050505b505050505050565b5f73ffffffffffffffffffffffffffffffffffffffff82169050919050565b5f6106a68261067d565b9050919050565b6106b68161069c565b82525050565b5f6020820190506106cf5f8301846106ad565b92915050565b6122fe806106e25f395ff3fe608060405234801561000f575f80fd5b5060043610610109575f3560e01c806370a08231116100a0578063a22cb4651161006f578063a22cb465146102a1578063b88d4fde146102bd578063c87b56dd146102d9578063e985e9c514610309578063f2fde38b1461033957610109565b806370a082311461022b578063715018a61461025b5780638da5cb5b1461026557806395d89b411461028357610109565b806323b872dd116100dc57806323b872dd146101a757806342842e0e146101c35780636352211e146101df5780636a6278421461020f57610109565b806301ffc9a71461010d57806306fdde031461013d578063081812fc1461015b578063095ea7b31461018b575b5f80fd5b61012760048036038101906101229190611778565b610355565b60405161013491906117bd565b60405180910390f35b610145610436565b6040516101529190611846565b60405180910390f35b61017560048036038101906101709190611899565b6104c5565b6040516101829190611903565b60405180910390f35b6101a560048036038101906101a09190611946565b6104e0565b005b6101c160048036038101906101bc9190611984565b6104f6565b005b6101dd60048036038101906101d89190611984565b6105f5565b005b6101f960048036038101906101f49190611899565b610614565b6040516102069190611903565b60405180910390f35b610229600480360381019061022491906119d4565b610625565b005b610245600480360381019061024091906119d4565b610653565b6040516102529190611a0e565b60405180910390f35b610263610709565b005b61026d61071c565b60405161027a9190611903565b60405180910390f35b61028b610744565b6040516102989190611846565b60405180910390f35b6102bb60048036038101906102b69190611a51565b6107d4565b005b6102d760048036038101906102d29190611bbb565b6107ea565b005b6102f360048036038101906102ee9190611899565b610807565b6040516103009190611846565b60405180910390f35b610323600480360381019061031e9190611c3b565b610874565b60405161033091906117bd565b60405180910390f35b610353600480360381019061034e91906119d4565b610902565b005b5f7f80ac58cd000000000000000000000000000000000000000000000000000000007bffffffffffffffffffffffffffffffffffffffffffffffffffffffff1916827bffffffffffffffffffffffffffffffffffffffffffffffffffffffff1916148061041f57507f5b5e139f000000000000000000000000000000000000000000000000000000007bffffffffffffffffffffffffffffffffffffffffffffffffffffffff1916827bffffffffffffffffffffffffffffffffffffffffffffffffffffffff1916145b8061042f575061042e82610986565b5b9050919050565b60605f805461044490611ca6565b80601f016020809104026020016040519081016040528092919081815260200182805461047090611ca6565b80156104bb5780601f10610492576101008083540402835291602001916104bb565b820191905f5260205f20905b81548152906001019060200180831161049e57829003601f168201915b5050505050905090565b5f6104cf826109ef565b506104d982610a75565b9050919050565b6104f282826104ed610aae565b610ab5565b5050565b5f73ffffffffffffffffffffffffffffffffffffffff168273ffffffffffffffffffffffffffffffffffffffff1603610566575f6040517f64a0ae9200000000000000000000000000000000000000000000000000000000815260040161055d9190611903565b60405180910390fd5b5f6105798383610574610aae565b610ac7565b90508373ffffffffffffffffffffffffffffffffffffffff168173ffffffffffffffffffffffffffffffffffffffff16146105ef578382826040517f64283d7b0000000000000000000000000000000000000000000000000000000081526004016105e693929190611cd6565b60405180910390fd5b50505050565b61060f83838360405180602001604052805f8152506107ea565b505050565b5f61061e826109ef565b9050919050565b61062d610cd2565b61063981600754610d59565b60075f81548092919061064b90611d38565b919050555050565b5f8073ffffffffffffffffffffffffffffffffffffffff168273ffffffffffffffffffffffffffffffffffffffff16036106c4575f6040517f89c62b640000000000000000000000000000000000000000000000000000000081526004016106bb9190611903565b60405180910390fd5b60035f8373ffffffffffffffffffffffffffffffffffffffff1673ffffffffffffffffffffffffffffffffffffffff1681526020019081526020015f20549050919050565b610711610cd2565b61071a5f610e4c565b565b5f60065f9054906101000a900473ffffffffffffffffffffffffffffffffffffffff16905090565b60606001805461075390611ca6565b80601f016020809104026020016040519081016040528092919081815260200182805461077f90611ca6565b80156107ca5780601f106107a1576101008083540402835291602001916107ca565b820191905f5260205f20905b8154815290600101906020018083116107ad57829003601f168201915b5050505050905090565b6107e66107df610aae565b8383610f0f565b5050565b6107f58484846104f6565b61080184848484611078565b50505050565b6060610812826109ef565b5061084e61081e610436565b610826610436565b600860405160200161083a93929190611fe3565b60405160208183030381529060405261122a565b60405160200161085e9190612094565b6040516020818303038152906040529050919050565b5f60055f8473ffffffffffffffffffffffffffffffffffffffff1673ffffffffffffffffffffffffffffffffffffffff1681526020019081526020015f205f8373ffffffffffffffffffffffffffffffffffffffff1673ffffffffffffffffffffffffffffffffffffffff1681526020019081526020015f205f9054906101000a900460ff16905092915050565b61090a610cd2565b5f73ffffffffffffffffffffffffffffffffffffffff168173ffffffffffffffffffffffffffffffffffffffff160361097a575f6040517f1e4fbdf70000000000000000000000000000000000000000000000000000000081526004016109719190611903565b60405180910390fd5b61098381610e4c565b50565b5f7f01ffc9a7000000000000000000000000000000000000000000000000000000007bffffffffffffffffffffffffffffffffffffffffffffffffffffffff1916827bffffffffffffffffffffffffffffffffffffffffffffffffffffffff1916149050919050565b5f806109fa83611397565b90505f73ffffffffffffffffffffffffffffffffffffffff168173ffffffffffffffffffffffffffffffffffffffff1603610a6c57826040517f7e273289000000000000000000000000000000000000000000000000000000008152600401610a639190611a0e565b60405180910390fd5b80915050919050565b5f60045f8381526020019081526020015f205f9054906101000a900473ffffffffffffffffffffffffffffffffffffffff169050919050565b5f33905090565b610ac283838360016113d0565b505050565b5f80610ad284611397565b90505f73ffffffffffffffffffffffffffffffffffffffff168373ffffffffffffffffffffffffffffffffffffffff1614610b1357610b1281848661158f565b5b5f73ffffffffffffffffffffffffffffffffffffffff168173ffffffffffffffffffffffffffffffffffffffff1614610b9e57610b525f855f806113d0565b600160035f8373ffffffffffffffffffffffffffffffffffffffff1673ffffffffffffffffffffffffffffffffffffffff1681526020019081526020015f205f82825403925050819055505b5f73ffffffffffffffffffffffffffffffffffffffff168573ffffffffffffffffffffffffffffffffffffffff1614610c1d57600160035f8773ffffffffffffffffffffffffffffffffffffffff1673ffffffffffffffffffffffffffffffffffffffff1681526020019081526020015f205f82825401925050819055505b8460025f8681526020019081526020015f205f6101000a81548173ffffffffffffffffffffffffffffffffffffffff021916908373ffffffffffffffffffffffffffffffffffffffff160217905550838573ffffffffffffffffffffffffffffffffffffffff168273ffffffffffffffffffffffffffffffffffffffff167fddf252ad1be2c89b69c2b068fc378daa952ba7f163c4a11628f55a4df523b3ef60405160405180910390a4809150509392505050565b610cda610aae565b73ffffffffffffffffffffffffffffffffffffffff16610cf861071c565b73ffffffffffffffffffffffffffffffffffffffff1614610d5757610d1b610aae565b6040517f118cdaa7000000000000000000000000000000000000000000000000000000008152600401610d4e9190611903565b60405180910390fd5b565b5f73ffffffffffffffffffffffffffffffffffffffff168273ffffffffffffffffffffffffffffffffffffffff1603610dc9575f6040517f64a0ae92000000000000000000000000000000000000000000000000000000008152600401610dc09190611903565b60405180910390fd5b5f610dd583835f610ac7565b90505f73ffffffffffffffffffffffffffffffffffffffff168173ffffffffffffffffffffffffffffffffffffffff1614610e47575f6040517f73c6ac6e000000000000000000000000000000000000000000000000000000008152600401610e3e9190611903565b60405180910390fd5b505050565b5f60065f9054906101000a900473ffffffffffffffffffffffffffffffffffffffff1690508160065f6101000a81548173ffffffffffffffffffffffffffffffffffffffff021916908373ffffffffffffffffffffffffffffffffffffffff1602179055508173ffffffffffffffffffffffffffffffffffffffff168173ffffffffffffffffffffffffffffffffffffffff167f8be0079c531659141344cd1fd0a4f28419497f9722a3daafe3b4186f6b6457e060405160405180910390a35050565b5f73ffffffffffffffffffffffffffffffffffffffff168273ffffffffffffffffffffffffffffffffffffffff1603610f7f57816040517f5b08ba18000000000000000000000000000000000000000000000000000000008152600401610f769190611903565b60405180910390fd5b8060055f8573ffffffffffffffffffffffffffffffffffffffff1673ffffffffffffffffffffffffffffffffffffffff1681526020019081526020015f205f8473ffffffffffffffffffffffffffffffffffffffff1673ffffffffffffffffffffffffffffffffffffffff1681526020019081526020015f205f6101000a81548160ff0219169083151502179055508173ffffffffffffffffffffffffffffffffffffffff168373ffffffffffffffffffffffffffffffffffffffff167f17307eab39ab6107e8899845ad3d59bd9653f200f220920489ca2b5937696c318360405161106b91906117bd565b60405180910390a3505050565b5f8373ffffffffffffffffffffffffffffffffffffffff163b1115611224578273ffffffffffffffffffffffffffffffffffffffff1663150b7a026110bb610aae565b8685856040518563ffffffff1660e01b81526004016110dd9493929190612107565b6020604051808303815f875af192505050801561111857506040513d601f19601f820116820180604052508101906111159190612165565b60015b611199573d805f8114611146576040519150601f19603f3d011682016040523d82523d5f602084013e61114b565b606091505b505f81510361119157836040517f64a0ae920000000000000000000000000000000000000000000000000000000081526004016111889190611903565b60405180910390fd5b805181602001fd5b63150b7a0260e01b7bffffffffffffffffffffffffffffffffffffffffffffffffffffffff1916817bffffffffffffffffffffffffffffffffffffffffffffffffffffffff19161461122257836040517f64a0ae920000000000000000000000000000000000000000000000000000000081526004016112199190611903565b60405180910390fd5b505b50505050565b60605f82510361124a5760405180602001604052805f8152509050611392565b5f6040518060600160405280604081526020016122896040913990505f6003600285516112779190612190565b61128191906121f0565b600461128d9190612220565b67ffffffffffffffff8111156112a6576112a5611a97565b5b6040519080825280601f01601f1916602001820160405280156112d85781602001600182028036833780820191505090505b509050600182016020820185865187016020810180515f82525b8284101561134d576003840193508351603f8160121c168701518653600186019550603f81600c1c168701518653600186019550603f8160061c168701518653600186019550603f81168701518653600186019550506112f2565b80825260038a51066001811461136a576002811461137d57611385565b603d6001870353603d6002870353611385565b603d60018703535b5050505050505080925050505b919050565b5f60025f8381526020019081526020015f205f9054906101000a900473ffffffffffffffffffffffffffffffffffffffff169050919050565b808061140857505f73ffffffffffffffffffffffffffffffffffffffff168273ffffffffffffffffffffffffffffffffffffffff1614155b1561153a575f611417846109ef565b90505f73ffffffffffffffffffffffffffffffffffffffff168373ffffffffffffffffffffffffffffffffffffffff161415801561148157508273ffffffffffffffffffffffffffffffffffffffff168173ffffffffffffffffffffffffffffffffffffffff1614155b801561149457506114928184610874565b155b156114d657826040517fa9fbf51f0000000000000000000000000000000000000000000000000000000081526004016114cd9190611903565b60405180910390fd5b811561153857838573ffffffffffffffffffffffffffffffffffffffff168273ffffffffffffffffffffffffffffffffffffffff167f8c5be1e5ebec7d5bd14f71427d1e84f3dd0314c0f7b2291e5b200ac8c7c3b92560405160405180910390a45b505b8360045f8581526020019081526020015f205f6101000a81548173ffffffffffffffffffffffffffffffffffffffff021916908373ffffffffffffffffffffffffffffffffffffffff16021790555050505050565b61159a838383611652565b61164d575f73ffffffffffffffffffffffffffffffffffffffff168373ffffffffffffffffffffffffffffffffffffffff160361160e57806040517f7e2732890000000000000000000000000000000000000000000000000000000081526004016116059190611a0e565b60405180910390fd5b81816040517f177e802f000000000000000000000000000000000000000000000000000000008152600401611644929190612261565b60405180910390fd5b505050565b5f8073ffffffffffffffffffffffffffffffffffffffff168373ffffffffffffffffffffffffffffffffffffffff161415801561170957508273ffffffffffffffffffffffffffffffffffffffff168473ffffffffffffffffffffffffffffffffffffffff1614806116ca57506116c98484610874565b5b8061170857508273ffffffffffffffffffffffffffffffffffffffff166116f083610a75565b73ffffffffffffffffffffffffffffffffffffffff16145b5b90509392505050565b5f604051905090565b5f80fd5b5f80fd5b5f7fffffffff0000000000000000000000000000000000000000000000000000000082169050919050565b61175781611723565b8114611761575f80fd5b50565b5f813590506117728161174e565b92915050565b5f6020828403121561178d5761178c61171b565b5b5f61179a84828501611764565b91505092915050565b5f8115159050919050565b6117b7816117a3565b82525050565b5f6020820190506117d05f8301846117ae565b92915050565b5f81519050919050565b5f82825260208201905092915050565b8281835e5f83830152505050565b5f601f19601f8301169050919050565b5f611818826117d6565b61182281856117e0565b93506118328185602086016117f0565b61183b816117fe565b840191505092915050565b5f6020820190508181035f83015261185e818461180e565b905092915050565b5f819050919050565b61187881611866565b8114611882575f80fd5b50565b5f813590506118938161186f565b92915050565b5f602082840312156118ae576118ad61171b565b5b5f6118bb84828501611885565b91505092915050565b5f73ffffffffffffffffffffffffffffffffffffffff82169050919050565b5f6118ed826118c4565b9050919050565b6118fd816118e3565b82525050565b5f6020820190506119165f8301846118f4565b92915050565b611925816118e3565b811461192f575f80fd5b50565b5f813590506119408161191c565b92915050565b5f806040838503121561195c5761195b61171b565b5b5f61196985828601611932565b925050602061197a85828601611885565b9150509250929050565b5f805f6060848603121561199b5761199a61171b565b5b5f6119a886828701611932565b93505060206119b986828701611932565b92505060406119ca86828701611885565b9150509250925092565b5f602082840312156119e9576119e861171b565b5b5f6119f684828501611932565b91505092915050565b611a0881611866565b82525050565b5f602082019050611a215f8301846119ff565b92915050565b611a30816117a3565b8114611a3a575f80fd5b50565b5f81359050611a4b81611a27565b92915050565b5f8060408385031215611a6757611a6661171b565b5b5f611a7485828601611932565b9250506020611a8585828601611a3d565b9150509250929050565b5f80fd5b5f80fd5b7f4e487b71000000000000000000000000000000000000000000000000000000005f52604160045260245ffd5b611acd826117fe565b810181811067ffffffffffffffff82111715611aec57611aeb611a97565b5b80604052505050565b5f611afe611712565b9050611b0a8282611ac4565b919050565b5f67ffffffffffffffff821115611b2957611b28611a97565b5b611b32826117fe565b9050602081019050919050565b828183375f83830152505050565b5f611b5f611b5a84611b0f565b611af5565b905082815260208101848484011115611b7b57611b7a611a93565b5b611b86848285611b3f565b509392505050565b5f82601f830112611ba257611ba1611a8f565b5b8135611bb2848260208601611b4d565b91505092915050565b5f805f8060808587031215611bd357611bd261171b565b5b5f611be087828801611932565b9450506020611bf187828801611932565b9350506040611c0287828801611885565b925050606085013567ffffffffffffffff811115611c2357611c2261171f565b5b611c2f87828801611b8e565b91505092959194509250565b5f8060408385031215611c5157611c5061171b565b5b5f611c5e85828601611932565b9250506020611c6f85828601611932565b9150509250929050565b7f4e487b71000000000000000000000000000000000000000000000000000000005f52602260045260245ffd5b5f6002820490506001821680611cbd57607f821691505b602082108103611cd057611ccf611c79565b5b50919050565b5f606082019050611ce95f8301866118f4565b611cf660208301856119ff565b611d0360408301846118f4565b949350505050565b7f4e487b71000000000000000000000000000000000000000000000000000000005f52601160045260245ffd5b5f611d4282611866565b91507fffffffffffffffffffffffffffffffffffffffffffffffffffffffffffffffff8203611d7457611d73611d0b565b5b600182019050919050565b5f81905092915050565b7f7b226e616d65223a2200000000000000000000000000000000000000000000005f82015250565b5f611dbd600983611d7f565b9150611dc882611d89565b600982019050919050565b5f611ddd826117d6565b611de78185611d7f565b9350611df78185602086016117f0565b80840191505092915050565b7f222c20226465736372697074696f6e223a22416e204e465420746861742072655f8201527f666c6563747320746865206f776e657273686970206f662067616d65202d2000602082015250565b5f611e5d603f83611d7f565b9150611e6882611e03565b603f82019050919050565b7f222c2000000000000000000000000000000000000000000000000000000000005f82015250565b5f611ea7600383611d7f565b9150611eb282611e73565b600382019050919050565b7f22696d616765223a2200000000000000000000000000000000000000000000005f82015250565b5f611ef1600983611d7f565b9150611efc82611ebd565b600982019050919050565b5f819050815f5260205f209050919050565b5f8154611f2581611ca6565b611f2f8186611d7f565b9450600182165f8114611f495760018114611f5e57611f90565b60ff1983168652811515820286019350611f90565b611f6785611f07565b5f5b83811015611f8857815481890152600182019150602081019050611f69565b838801955050505b50505092915050565b7f227d0000000000000000000000000000000000000000000000000000000000005f82015250565b5f611fcd600283611d7f565b9150611fd882611f99565b600282019050919050565b5f611fed82611db1565b9150611ff98286611dd3565b915061200482611e51565b91506120108285611dd3565b915061201b82611e9b565b915061202682611ee5565b91506120328284611f19565b915061203d82611fc1565b9150819050949350505050565b7f646174613a6170706c69636174696f6e2f6a736f6e3b6261736536342c0000005f82015250565b5f61207e601d83611d7f565b91506120898261204a565b601d82019050919050565b5f61209e82612072565b91506120aa8284611dd3565b915081905092915050565b5f81519050919050565b5f82825260208201905092915050565b5f6120d9826120b5565b6120e381856120bf565b93506120f38185602086016117f0565b6120fc816117fe565b840191505092915050565b5f60808201905061211a5f8301876118f4565b61212760208301866118f4565b61213460408301856119ff565b818103606083015261214681846120cf565b905095945050505050565b5f8151905061215f8161174e565b92915050565b5f6020828403121561217a5761217961171b565b5b5f61218784828501612151565b91505092915050565b5f61219a82611866565b91506121a583611866565b92508282019050808211156121bd576121bc611d0b565b5b92915050565b7f4e487b71000000000000000000000000000000000000000000000000000000005f52601260045260245ffd5b5f6121fa82611866565b915061220583611866565b925082612215576122146121c3565b5b828204905092915050565b5f61222a82611866565b915061223583611866565b925082820261224381611866565b9150828204841483151761225a57612259611d0b565b5b5092915050565b5f6040820190506122745f8301856118f4565b61228160208301846119ff565b939250505056fe4142434445464748494a4b4c4d4e4f505152535455565758595a6162636465666768696a6b6c6d6e6f707172737475767778797a303132333435363738392b2fa2646970667358221220558c2dc897274068477ea829f6da0f481dac225b6b93681c7bf01ab595996b8064736f6c63430008190033a2646970667358221220c0aab6a80a9dc538a76fb0897ff110d1fb0bb803ca72b832ab9e6a0d06ca21a564736f6c63430008190033",
		"opcodes": "PUSH1 0x80 PUSH1 0x40 MSTORE PUSH0 PUSH1 0x1 SSTORE CALLVALUE DUP1 ISZERO PUSH1 0x12 JUMPI PUSH0 DUP1 REVERT JUMPDEST POP PUSH2 0x493C DUP1 PUSH2 0x20 PUSH0 CODECOPY PUSH0 RETURN INVALID PUSH1 0x80 PUSH1 0x40 MSTORE PUSH1 0x4 CALLDATASIZE LT PUSH2 0x7A JUMPI PUSH0 CALLDATALOAD PUSH1 0xE0 SHR DUP1 PUSH4 0x8D00FE0B GT PUSH2 0x4D JUMPI DUP1 PUSH4 0x8D00FE0B EQ PUSH2 0x15A JUMPI DUP1 PUSH4 0xC04C5947 EQ PUSH2 0x170 JUMPI DUP1 PUSH4 0xC379CD78 EQ PUSH2 0x19A JUMPI DUP1 PUSH4 0xDBEF6528 EQ PUSH2 0x1C4 JUMPI PUSH2 0x7A JUMP JUMPDEST DUP1 PUSH4 0x2A60D6CA EQ PUSH2 0x7E JUMPI DUP1 PUSH4 0x396130B9 EQ PUSH2 0xA6 JUMPI DUP1 PUSH4 0x7FD6145C EQ PUSH2 0xE2 JUMPI DUP1 PUSH4 0x8C647194 EQ PUSH2 0x11E JUMPI JUMPDEST PUSH0 DUP1 REVERT JUMPDEST CALLVALUE DUP1 ISZERO PUSH2 0x89 JUMPI PUSH0 DUP1 REVERT JUMPDEST POP PUSH2 0xA4 PUSH1 0x4 DUP1 CALLDATASIZE SUB DUP2 ADD SWAP1 PUSH2 0x9F SWAP2 SWAP1 PUSH2 0x1564 JUMP JUMPDEST PUSH2 0x1E0 JUMP JUMPDEST STOP JUMPDEST CALLVALUE DUP1 ISZERO PUSH2 0xB1 JUMPI PUSH0 DUP1 REVERT JUMPDEST POP PUSH2 0xCC PUSH1 0x4 DUP1 CALLDATASIZE SUB DUP2 ADD SWAP1 PUSH2 0xC7 SWAP2 SWAP1 PUSH2 0x164B JUMP JUMPDEST PUSH2 0x517 JUMP JUMPDEST PUSH1 0x40 MLOAD PUSH2 0xD9 SWAP2 SWAP1 PUSH2 0x16AC JUMP JUMPDEST PUSH1 0x40 MLOAD DUP1 SWAP2 SUB SWAP1 RETURN JUMPDEST CALLVALUE DUP1 ISZERO PUSH2 0xED JUMPI PUSH0 DUP1 REVERT JUMPDEST POP PUSH2 0x108 PUSH1 0x4 DUP1 CALLDATASIZE SUB DUP2 ADD SWAP1 PUSH2 0x103 SWAP2 SWAP1 PUSH2 0x164B JUMP JUMPDEST PUSH2 0x64A JUMP JUMPDEST PUSH1 0x40 MLOAD PUSH2 0x115 SWAP2 SWAP1 PUSH2 0x1807 JUMP JUMPDEST PUSH1 0x40 MLOAD DUP1 SWAP2 SUB SWAP1 RETURN JUMPDEST CALLVALUE DUP1 ISZERO PUSH2 0x129 JUMPI PUSH0 DUP1 REVERT JUMPDEST POP PUSH2 0x144 PUSH1 0x4 DUP1 CALLDATASIZE SUB DUP2 ADD SWAP1 PUSH2 0x13F SWAP2 SWAP1 PUSH2 0x164B JUMP JUMPDEST PUSH2 0x952 JUMP JUMPDEST PUSH1 0x40 MLOAD PUSH2 0x151 SWAP2 SWAP1 PUSH2 0x1836 JUMP JUMPDEST PUSH1 0x40 MLOAD DUP1 SWAP2 SUB SWAP1 RETURN JUMPDEST CALLVALUE DUP1 ISZERO PUSH2 0x165 JUMPI PUSH0 DUP1 REVERT JUMPDEST POP PUSH2 0x16E PUSH2 0x99B JUMP JUMPDEST STOP JUMPDEST CALLVALUE DUP1 ISZERO PUSH2 0x17B JUMPI PUSH0 DUP1 REVERT JUMPDEST POP PUSH2 0x184 PUSH2 0xB19 JUMP JUMPDEST PUSH1 0x40 MLOAD PUSH2 0x191 SWAP2 SWAP1 PUSH2 0x199E JUMP JUMPDEST PUSH1 0x40 MLOAD DUP1 SWAP2 SUB SWAP1 RETURN JUMPDEST CALLVALUE DUP1 ISZERO PUSH2 0x1A5 JUMPI PUSH0 DUP1 REVERT JUMPDEST POP PUSH2 0x1AE PUSH2 0xE60 JUMP JUMPDEST PUSH1 0x40 MLOAD PUSH2 0x1BB SWAP2 SWAP1 PUSH2 0x19CD JUMP JUMPDEST PUSH1 0x40 MLOAD DUP1 SWAP2 SUB SWAP1 RETURN JUMPDEST PUSH2 0x1DE PUSH1 0x4 DUP1 CALLDATASIZE SUB DUP2 ADD SWAP1 PUSH2 0x1D9 SWAP2 SWAP1 PUSH2 0x164B JUMP JUMPDEST PUSH2 0xE6C JUMP JUMPDEST STOP JUMPDEST PUSH0 PUSH20 0xFFFFFFFFFFFFFFFFFFFFFFFFFFFFFFFFFFFFFFFF AND PUSH1 0x2 DUP7 PUSH1 0x40 MLOAD PUSH2 0x207 SWAP2 SWAP1 PUSH2 0x1A20 JUMP JUMPDEST SWAP1 DUP2 MSTORE PUSH1 0x20 ADD PUSH1 0x40 MLOAD DUP1 SWAP2 SUB SWAP1 KECCAK256 PUSH0 ADD PUSH0 SWAP1 SLOAD SWAP1 PUSH2 0x100 EXP SWAP1 DIV PUSH20 0xFFFFFFFFFFFFFFFFFFFFFFFFFFFFFFFFFFFFFFFF AND PUSH20 0xFFFFFFFFFFFFFFFFFFFFFFFFFFFFFFFFFFFFFFFF AND EQ PUSH2 0x284 JUMPI PUSH1 0x40 MLOAD PUSH32 0x5F4BE31C00000000000000000000000000000000000000000000000000000000 DUP2 MSTORE PUSH1 0x4 ADD PUSH1 0x40 MLOAD DUP1 SWAP2 SUB SWAP1 REVERT JUMPDEST PUSH0 DUP5 DUP5 DUP4 PUSH1 0x40 MLOAD PUSH2 0x294 SWAP1 PUSH2 0x1378 JUMP JUMPDEST PUSH2 0x2A0 SWAP4 SWAP3 SWAP2 SWAP1 PUSH2 0x1A7E JUMP JUMPDEST PUSH1 0x40 MLOAD DUP1 SWAP2 SUB SWAP1 PUSH0 CREATE DUP1 ISZERO DUP1 ISZERO PUSH2 0x2B9 JUMPI RETURNDATASIZE PUSH0 DUP1 RETURNDATACOPY RETURNDATASIZE PUSH0 REVERT JUMPDEST POP SWAP1 POP DUP1 PUSH20 0xFFFFFFFFFFFFFFFFFFFFFFFFFFFFFFFFFFFFFFFF AND PUSH4 0x6A627842 CALLER PUSH1 0x40 MLOAD DUP3 PUSH4 0xFFFFFFFF AND PUSH1 0xE0 SHL DUP2 MSTORE PUSH1 0x4 ADD PUSH2 0x2F5 SWAP2 SWAP1 PUSH2 0x1836 JUMP JUMPDEST PUSH0 PUSH1 0x40 MLOAD DUP1 DUP4 SUB DUP2 PUSH0 DUP8 DUP1 EXTCODESIZE ISZERO DUP1 ISZERO PUSH2 0x30C JUMPI PUSH0 DUP1 REVERT JUMPDEST POP GAS CALL ISZERO DUP1 ISZERO PUSH2 0x31E JUMPI RETURNDATASIZE PUSH0 DUP1 RETURNDATACOPY RETURNDATASIZE PUSH0 REVERT JUMPDEST POP POP POP POP PUSH1 0x40 MLOAD DUP1 PUSH1 0xC0 ADD PUSH1 0x40 MSTORE DUP1 CALLER PUSH20 0xFFFFFFFFFFFFFFFFFFFFFFFFFFFFFFFFFFFFFFFF AND DUP2 MSTORE PUSH1 0x20 ADD DUP8 DUP2 MSTORE PUSH1 0x20 ADD DUP3 PUSH20 0xFFFFFFFFFFFFFFFFFFFFFFFFFFFFFFFFFFFFFFFF AND DUP2 MSTORE PUSH1 0x20 ADD DUP7 DUP2 MSTORE PUSH1 0x20 ADD DUP5 DUP2 MSTORE PUSH1 0x20 ADD DUP4 DUP2 MSTORE POP PUSH1 0x2 DUP8 PUSH1 0x40 MLOAD PUSH2 0x38B SWAP2 SWAP1 PUSH2 0x1A20 JUMP JUMPDEST SWAP1 DUP2 MSTORE PUSH1 0x20 ADD PUSH1 0x40 MLOAD DUP1 SWAP2 SUB SWAP1 KECCAK256 PUSH0 DUP3 ADD MLOAD DUP2 PUSH0 ADD PUSH0 PUSH2 0x100 EXP DUP2 SLOAD DUP2 PUSH20 0xFFFFFFFFFFFFFFFFFFFFFFFFFFFFFFFFFFFFFFFF MUL NOT AND SWAP1 DUP4 PUSH20 0xFFFFFFFFFFFFFFFFFFFFFFFFFFFFFFFFFFFFFFFF AND MUL OR SWAP1 SSTORE POP PUSH1 0x20 DUP3 ADD MLOAD DUP2 PUSH1 0x1 ADD SWAP1 DUP2 PUSH2 0x3F2 SWAP2 SWAP1 PUSH2 0x1CC2 JUMP JUMPDEST POP PUSH1 0x40 DUP3 ADD MLOAD DUP2 PUSH1 0x2 ADD PUSH0 PUSH2 0x100 EXP DUP2 SLOAD DUP2 PUSH20 0xFFFFFFFFFFFFFFFFFFFFFFFFFFFFFFFFFFFFFFFF MUL NOT AND SWAP1 DUP4 PUSH20 0xFFFFFFFFFFFFFFFFFFFFFFFFFFFFFFFFFFFFFFFF AND MUL OR SWAP1 SSTORE POP PUSH1 0x60 DUP3 ADD MLOAD DUP2 PUSH1 0x3 ADD SWAP1 DUP2 PUSH2 0x44E SWAP2 SWAP1 PUSH2 0x1CC2 JUMP JUMPDEST POP PUSH1 0x80 DUP3 ADD MLOAD DUP2 PUSH1 0x4 ADD SSTORE PUSH1 0xA0 DUP3 ADD MLOAD DUP2 PUSH1 0x5 ADD SWAP1 DUP2 PUSH2 0x46E SWAP2 SWAP1 PUSH2 0x1CC2 JUMP JUMPDEST POP SWAP1 POP POP PUSH1 0x3 DUP7 SWAP1 DUP1 PUSH1 0x1 DUP2 SLOAD ADD DUP1 DUP3 SSTORE DUP1 SWAP2 POP POP PUSH1 0x1 SWAP1 SUB SWAP1 PUSH0 MSTORE PUSH1 0x20 PUSH0 KECCAK256 ADD PUSH0 SWAP1 SWAP2 SWAP1 SWAP2 SWAP1 SWAP2 POP SWAP1 DUP2 PUSH2 0x4A3 SWAP2 SWAP1 PUSH2 0x1CC2 JUMP JUMPDEST POP DUP1 PUSH20 0xFFFFFFFFFFFFFFFFFFFFFFFFFFFFFFFFFFFFFFFF AND DUP7 PUSH1 0x40 MLOAD PUSH2 0x4C9 SWAP2 SWAP1 PUSH2 0x1A20 JUMP JUMPDEST PUSH1 0x40 MLOAD DUP1 SWAP2 SUB SWAP1 KECCAK256 PUSH1 0x1 PUSH1 0x3 DUP1 SLOAD SWAP1 POP PUSH2 0x4E3 SWAP2 SWAP1 PUSH2 0x1DBE JUMP JUMPDEST PUSH32 0x1B53114C999DED51A67E2C46B7ABA69BD40E2D7A5B1E3E4A8B7F12C122FF3A50 PUSH1 0x40 MLOAD PUSH1 0x40 MLOAD DUP1 SWAP2 SUB SWAP1 LOG4 POP POP POP POP POP POP JUMP JUMPDEST PUSH0 DUP1 PUSH1 0x2 DUP4 PUSH1 0x40 MLOAD PUSH2 0x529 SWAP2 SWAP1 PUSH2 0x1A20 JUMP JUMPDEST SWAP1 DUP2 MSTORE PUSH1 0x20 ADD PUSH1 0x40 MLOAD DUP1 SWAP2 SUB SWAP1 KECCAK256 PUSH1 0x2 ADD PUSH0 SWAP1 SLOAD SWAP1 PUSH2 0x100 EXP SWAP1 DIV PUSH20 0xFFFFFFFFFFFFFFFFFFFFFFFFFFFFFFFFFFFFFFFF AND SWAP1 POP PUSH0 PUSH20 0xFFFFFFFFFFFFFFFFFFFFFFFFFFFFFFFFFFFFFFFF AND DUP2 PUSH20 0xFFFFFFFFFFFFFFFFFFFFFFFFFFFFFFFFFFFFFFFF AND SUB PUSH2 0x5C1 JUMPI PUSH1 0x40 MLOAD PUSH32 0x57E25A0900000000000000000000000000000000000000000000000000000000 DUP2 MSTORE PUSH1 0x4 ADD PUSH1 0x40 MLOAD DUP1 SWAP2 SUB SWAP1 REVERT JUMPDEST PUSH0 DUP2 SWAP1 POP PUSH1 0x1 DUP2 PUSH20 0xFFFFFFFFFFFFFFFFFFFFFFFFFFFFFFFFFFFFFFFF AND PUSH4 0x70A08231 CALLER PUSH1 0x40 MLOAD DUP3 PUSH4 0xFFFFFFFF AND PUSH1 0xE0 SHL DUP2 MSTORE PUSH1 0x4 ADD PUSH2 0x600 SWAP2 SWAP1 PUSH2 0x1836 JUMP JUMPDEST PUSH1 0x20 PUSH1 0x40 MLOAD DUP1 DUP4 SUB DUP2 DUP7 GAS STATICCALL ISZERO DUP1 ISZERO PUSH2 0x61B JUMPI RETURNDATASIZE PUSH0 DUP1 RETURNDATACOPY RETURNDATASIZE PUSH0 REVERT JUMPDEST POP POP POP POP PUSH1 0x40 MLOAD RETURNDATASIZE PUSH1 0x1F NOT PUSH1 0x1F DUP3 ADD AND DUP3 ADD DUP1 PUSH1 0x40 MSTORE POP DUP2 ADD SWAP1 PUSH2 0x63F SWAP2 SWAP1 PUSH2 0x1E05 JUMP JUMPDEST LT ISZERO SWAP3 POP POP POP SWAP2 SWAP1 POP JUMP JUMPDEST PUSH2 0x652 PUSH2 0x1385 JUMP JUMPDEST PUSH0 PUSH1 0x2 DUP4 PUSH1 0x40 MLOAD PUSH2 0x663 SWAP2 SWAP1 PUSH2 0x1A20 JUMP JUMPDEST SWAP1 DUP2 MSTORE PUSH1 0x20 ADD PUSH1 0x40 MLOAD DUP1 SWAP2 SUB SWAP1 KECCAK256 PUSH1 0x40 MLOAD DUP1 PUSH1 0xC0 ADD PUSH1 0x40 MSTORE SWAP1 DUP2 PUSH0 DUP3 ADD PUSH0 SWAP1 SLOAD SWAP1 PUSH2 0x100 EXP SWAP1 DIV PUSH20 0xFFFFFFFFFFFFFFFFFFFFFFFFFFFFFFFFFFFFFFFF AND PUSH20 0xFFFFFFFFFFFFFFFFFFFFFFFFFFFFFFFFFFFFFFFF AND PUSH20 0xFFFFFFFFFFFFFFFFFFFFFFFFFFFFFFFFFFFFFFFF AND DUP2 MSTORE PUSH1 0x20 ADD PUSH1 0x1 DUP3 ADD DUP1 SLOAD PUSH2 0x6E0 SWAP1 PUSH2 0x1AF5 JUMP JUMPDEST DUP1 PUSH1 0x1F ADD PUSH1 0x20 DUP1 SWAP2 DIV MUL PUSH1 0x20 ADD PUSH1 0x40 MLOAD SWAP1 DUP2 ADD PUSH1 0x40 MSTORE DUP1 SWAP3 SWAP2 SWAP1 DUP2 DUP2 MSTORE PUSH1 0x20 ADD DUP3 DUP1 SLOAD PUSH2 0x70C SWAP1 PUSH2 0x1AF5 JUMP JUMPDEST DUP1 ISZERO PUSH2 0x757 JUMPI DUP1 PUSH1 0x1F LT PUSH2 0x72E JUMPI PUSH2 0x100 DUP1 DUP4 SLOAD DIV MUL DUP4 MSTORE SWAP2 PUSH1 0x20 ADD SWAP2 PUSH2 0x757 JUMP JUMPDEST DUP3 ADD SWAP2 SWAP1 PUSH0 MSTORE PUSH1 0x20 PUSH0 KECCAK256 SWAP1 JUMPDEST DUP2 SLOAD DUP2 MSTORE SWAP1 PUSH1 0x1 ADD SWAP1 PUSH1 0x20 ADD DUP1 DUP4 GT PUSH2 0x73A JUMPI DUP3 SWAP1 SUB PUSH1 0x1F AND DUP3 ADD SWAP2 JUMPDEST POP POP POP POP POP DUP2 MSTORE PUSH1 0x20 ADD PUSH1 0x2 DUP3 ADD PUSH0 SWAP1 SLOAD SWAP1 PUSH2 0x100 EXP SWAP1 DIV PUSH20 0xFFFFFFFFFFFFFFFFFFFFFFFFFFFFFFFFFFFFFFFF AND PUSH20 0xFFFFFFFFFFFFFFFFFFFFFFFFFFFFFFFFFFFFFFFF AND PUSH20 0xFFFFFFFFFFFFFFFFFFFFFFFFFFFFFFFFFFFFFFFF AND DUP2 MSTORE PUSH1 0x20 ADD PUSH1 0x3 DUP3 ADD DUP1 SLOAD PUSH2 0x7C5 SWAP1 PUSH2 0x1AF5 JUMP JUMPDEST DUP1 PUSH1 0x1F ADD PUSH1 0x20 DUP1 SWAP2 DIV MUL PUSH1 0x20 ADD PUSH1 0x40 MLOAD SWAP1 DUP2 ADD PUSH1 0x40 MSTORE DUP1 SWAP3 SWAP2 SWAP1 DUP2 DUP2 MSTORE PUSH1 0x20 ADD DUP3 DUP1 SLOAD PUSH2 0x7F1 SWAP1 PUSH2 0x1AF5 JUMP JUMPDEST DUP1 ISZERO PUSH2 0x83C JUMPI DUP1 PUSH1 0x1F LT PUSH2 0x813 JUMPI PUSH2 0x100 DUP1 DUP4 SLOAD DIV MUL DUP4 MSTORE SWAP2 PUSH1 0x20 ADD SWAP2 PUSH2 0x83C JUMP JUMPDEST DUP3 ADD SWAP2 SWAP1 PUSH0 MSTORE PUSH1 0x20 PUSH0 KECCAK256 SWAP1 JUMPDEST DUP2 SLOAD DUP2 MSTORE SWAP1 PUSH1 0x1 ADD SWAP1 PUSH1 0x20 ADD DUP1 DUP4 GT PUSH2 0x81F JUMPI DUP3 SWAP1 SUB PUSH1 0x1F AND DUP3 ADD SWAP2 JUMPDEST POP POP POP POP POP DUP2 MSTORE PUSH1 0x20 ADD PUSH1 0x4 DUP3 ADD SLOAD DUP2 MSTORE PUSH1 0x20 ADD PUSH1 0x5 DUP3 ADD DUP1 SLOAD PUSH2 0x85F SWAP1 PUSH2 0x1AF5 JUMP JUMPDEST DUP1 PUSH1 0x1F ADD PUSH1 0x20 DUP1 SWAP2 DIV MUL PUSH1 0x20 ADD PUSH1 0x40 MLOAD SWAP1 DUP2 ADD PUSH1 0x40 MSTORE DUP1 SWAP3 SWAP2 SWAP1 DUP2 DUP2 MSTORE PUSH1 0x20 ADD DUP3 DUP1 SLOAD PUSH2 0x88B SWAP1 PUSH2 0x1AF5 JUMP JUMPDEST DUP1 ISZERO PUSH2 0x8D6 JUMPI DUP1 PUSH1 0x1F LT PUSH2 0x8AD JUMPI PUSH2 0x100 DUP1 DUP4 SLOAD DIV MUL DUP4 MSTORE SWAP2 PUSH1 0x20 ADD SWAP2 PUSH2 0x8D6 JUMP JUMPDEST DUP3 ADD SWAP2 SWAP1 PUSH0 MSTORE PUSH1 0x20 PUSH0 KECCAK256 SWAP1 JUMPDEST DUP2 SLOAD DUP2 MSTORE SWAP1 PUSH1 0x1 ADD SWAP1 PUSH1 0x20 ADD DUP1 DUP4 GT PUSH2 0x8B9 JUMPI DUP3 SWAP1 SUB PUSH1 0x1F AND DUP3 ADD SWAP2 JUMPDEST POP POP POP POP POP DUP2 MSTORE POP POP SWAP1 POP PUSH0 PUSH20 0xFFFFFFFFFFFFFFFFFFFFFFFFFFFFFFFFFFFFFFFF AND DUP2 PUSH0 ADD MLOAD PUSH20 0xFFFFFFFFFFFFFFFFFFFFFFFFFFFFFFFFFFFFFFFF AND SUB PUSH2 0x949 JUMPI PUSH1 0x40 MLOAD PUSH32 0x57E25A0900000000000000000000000000000000000000000000000000000000 DUP2 MSTORE PUSH1 0x4 ADD PUSH1 0x40 MLOAD DUP1 SWAP2 SUB SWAP1 REVERT JUMPDEST DUP1 SWAP2 POP POP SWAP2 SWAP1 POP JUMP JUMPDEST PUSH0 PUSH1 0x2 DUP3 PUSH1 0x40 MLOAD PUSH2 0x963 SWAP2 SWAP1 PUSH2 0x1A20 JUMP JUMPDEST SWAP1 DUP2 MSTORE PUSH1 0x20 ADD PUSH1 0x40 MLOAD DUP1 SWAP2 SUB SWAP1 KECCAK256 PUSH1 0x2 ADD PUSH0 SWAP1 SLOAD SWAP1 PUSH2 0x100 EXP SWAP1 DIV PUSH20 0xFFFFFFFFFFFFFFFFFFFFFFFFFFFFFFFFFFFFFFFF AND SWAP1 POP SWAP2 SWAP1 POP JUMP JUMPDEST PUSH0 PUSH1 0x4 PUSH0 CALLER PUSH20 0xFFFFFFFFFFFFFFFFFFFFFFFFFFFFFFFFFFFFFFFF AND PUSH20 0xFFFFFFFFFFFFFFFFFFFFFFFFFFFFFFFFFFFFFFFF AND DUP2 MSTORE PUSH1 0x20 ADD SWAP1 DUP2 MSTORE PUSH1 0x20 ADD PUSH0 KECCAK256 SLOAD SUB PUSH2 0xA11 JUMPI PUSH1 0x40 MLOAD PUSH32 0x356680B700000000000000000000000000000000000000000000000000000000 DUP2 MSTORE PUSH1 0x4 ADD PUSH1 0x40 MLOAD DUP1 SWAP2 SUB SWAP1 REVERT JUMPDEST CALLER PUSH20 0xFFFFFFFFFFFFFFFFFFFFFFFFFFFFFFFFFFFFFFFF AND PUSH2 0x8FC PUSH1 0x4 PUSH0 CALLER PUSH20 0xFFFFFFFFFFFFFFFFFFFFFFFFFFFFFFFFFFFFFFFF AND PUSH20 0xFFFFFFFFFFFFFFFFFFFFFFFFFFFFFFFFFFFFFFFF AND DUP2 MSTORE PUSH1 0x20 ADD SWAP1 DUP2 MSTORE PUSH1 0x20 ADD PUSH0 KECCAK256 SLOAD SWAP1 DUP2 ISZERO MUL SWAP1 PUSH1 0x40 MLOAD PUSH0 PUSH1 0x40 MLOAD DUP1 DUP4 SUB DUP2 DUP6 DUP9 DUP9 CALL SWAP4 POP POP POP POP ISZERO DUP1 ISZERO PUSH2 0xA91 JUMPI RETURNDATASIZE PUSH0 DUP1 RETURNDATACOPY RETURNDATASIZE PUSH0 REVERT JUMPDEST POP PUSH0 PUSH1 0x4 PUSH0 CALLER PUSH20 0xFFFFFFFFFFFFFFFFFFFFFFFFFFFFFFFFFFFFFFFF AND PUSH20 0xFFFFFFFFFFFFFFFFFFFFFFFFFFFFFFFFFFFFFFFF AND DUP2 MSTORE PUSH1 0x20 ADD SWAP1 DUP2 MSTORE PUSH1 0x20 ADD PUSH0 KECCAK256 DUP2 SWAP1 SSTORE POP CALLER PUSH20 0xFFFFFFFFFFFFFFFFFFFFFFFFFFFFFFFFFFFFFFFF AND PUSH32 0xC43456380866B66F35F174AB56EFABBEB1145C4BBF6FE8047C2590E378346EF7 PUSH1 0x40 MLOAD PUSH1 0x40 MLOAD DUP1 SWAP2 SUB SWAP1 LOG2 JUMP JUMPDEST PUSH1 0x60 PUSH0 PUSH1 0x3 DUP1 SLOAD SWAP1 POP PUSH8 0xFFFFFFFFFFFFFFFF DUP2 GT ISZERO PUSH2 0xB3B JUMPI PUSH2 0xB3A PUSH2 0x140D JUMP JUMPDEST JUMPDEST PUSH1 0x40 MLOAD SWAP1 DUP1 DUP3 MSTORE DUP1 PUSH1 0x20 MUL PUSH1 0x20 ADD DUP3 ADD PUSH1 0x40 MSTORE DUP1 ISZERO PUSH2 0xB74 JUMPI DUP2 PUSH1 0x20 ADD JUMPDEST PUSH2 0xB61 PUSH2 0x1385 JUMP JUMPDEST DUP2 MSTORE PUSH1 0x20 ADD SWAP1 PUSH1 0x1 SWAP1 SUB SWAP1 DUP2 PUSH2 0xB59 JUMPI SWAP1 POP JUMPDEST POP SWAP1 POP PUSH0 JUMPDEST PUSH1 0x3 DUP1 SLOAD SWAP1 POP DUP2 LT ISZERO PUSH2 0xE58 JUMPI PUSH1 0x2 PUSH1 0x3 DUP3 DUP2 SLOAD DUP2 LT PUSH2 0xB9C JUMPI PUSH2 0xB9B PUSH2 0x1E30 JUMP JUMPDEST JUMPDEST SWAP1 PUSH0 MSTORE PUSH1 0x20 PUSH0 KECCAK256 ADD PUSH1 0x40 MLOAD PUSH2 0xBB1 SWAP2 SWAP1 PUSH2 0x1EDD JUMP JUMPDEST SWAP1 DUP2 MSTORE PUSH1 0x20 ADD PUSH1 0x40 MLOAD DUP1 SWAP2 SUB SWAP1 KECCAK256 PUSH1 0x40 MLOAD DUP1 PUSH1 0xC0 ADD PUSH1 0x40 MSTORE SWAP1 DUP2 PUSH0 DUP3 ADD PUSH0 SWAP1 SLOAD SWAP1 PUSH2 0x100 EXP SWAP1 DIV PUSH20 0xFFFFFFFFFFFFFFFFFFFFFFFFFFFFFFFFFFFFFFFF AND PUSH20 0xFFFFFFFFFFFFFFFFFFFFFFFFFFFFFFFFFFFFFFFF AND PUSH20 0xFFFFFFFFFFFFFFFFFFFFFFFFFFFFFFFFFFFFFFFF AND DUP2 MSTORE PUSH1 0x20 ADD PUSH1 0x1 DUP3 ADD DUP1 SLOAD PUSH2 0xC2E SWAP1 PUSH2 0x1AF5 JUMP JUMPDEST DUP1 PUSH1 0x1F ADD PUSH1 0x20 DUP1 SWAP2 DIV MUL PUSH1 0x20 ADD PUSH1 0x40 MLOAD SWAP1 DUP2 ADD PUSH1 0x40 MSTORE DUP1 SWAP3 SWAP2 SWAP1 DUP2 DUP2 MSTORE PUSH1 0x20 ADD DUP3 DUP1 SLOAD PUSH2 0xC5A SWAP1 PUSH2 0x1AF5 JUMP JUMPDEST DUP1 ISZERO PUSH2 0xCA5 JUMPI DUP1 PUSH1 0x1F LT PUSH2 0xC7C JUMPI PUSH2 0x100 DUP1 DUP4 SLOAD DIV MUL DUP4 MSTORE SWAP2 PUSH1 0x20 ADD SWAP2 PUSH2 0xCA5 JUMP JUMPDEST DUP3 ADD SWAP2 SWAP1 PUSH0 MSTORE PUSH1 0x20 PUSH0 KECCAK256 SWAP1 JUMPDEST DUP2 SLOAD DUP2 MSTORE SWAP1 PUSH1 0x1 ADD SWAP1 PUSH1 0x20 ADD DUP1 DUP4 GT PUSH2 0xC88 JUMPI DUP3 SWAP1 SUB PUSH1 0x1F AND DUP3 ADD SWAP2 JUMPDEST POP POP POP POP POP DUP2 MSTORE PUSH1 0x20 ADD PUSH1 0x2 DUP3 ADD PUSH0 SWAP1 SLOAD SWAP1 PUSH2 0x100 EXP SWAP1 DIV PUSH20 0xFFFFFFFFFFFFFFFFFFFFFFFFFFFFFFFFFFFFFFFF AND PUSH20 0xFFFFFFFFFFFFFFFFFFFFFFFFFFFFFFFFFFFFFFFF AND PUSH20 0xFFFFFFFFFFFFFFFFFFFFFFFFFFFFFFFFFFFFFFFF AND DUP2 MSTORE PUSH1 0x20 ADD PUSH1 0x3 DUP3 ADD DUP1 SLOAD PUSH2 0xD13 SWAP1 PUSH2 0x1AF5 JUMP JUMPDEST DUP1 PUSH1 0x1F ADD PUSH1 0x20 DUP1 SWAP2 DIV MUL PUSH1 0x20 ADD PUSH1 0x40 MLOAD SWAP1 DUP2 ADD PUSH1 0x40 MSTORE DUP1 SWAP3 SWAP2 SWAP1 DUP2 DUP2 MSTORE PUSH1 0x20 ADD DUP3 DUP1 SLOAD PUSH2 0xD3F SWAP1 PUSH2 0x1AF5 JUMP JUMPDEST DUP1 ISZERO PUSH2 0xD8A JUMPI DUP1 PUSH1 0x1F LT PUSH2 0xD61 JUMPI PUSH2 0x100 DUP1 DUP4 SLOAD DIV MUL DUP4 MSTORE SWAP2 PUSH1 0x20 ADD SWAP2 PUSH2 0xD8A JUMP JUMPDEST DUP3 ADD SWAP2 SWAP1 PUSH0 MSTORE PUSH1 0x20 PUSH0 KECCAK256 SWAP1 JUMPDEST DUP2 SLOAD DUP2 MSTORE SWAP1 PUSH1 0x1 ADD SWAP1 PUSH1 0x20 ADD DUP1 DUP4 GT PUSH2 0xD6D JUMPI DUP3 SWAP1 SUB PUSH1 0x1F AND DUP3 ADD SWAP2 JUMPDEST POP POP POP POP POP DUP2 MSTORE PUSH1 0x20 ADD PUSH1 0x4 DUP3 ADD SLOAD DUP2 MSTORE PUSH1 0x20 ADD PUSH1 0x5 DUP3 ADD DUP1 SLOAD PUSH2 0xDAD SWAP1 PUSH2 0x1AF5 JUMP JUMPDEST DUP1 PUSH1 0x1F ADD PUSH1 0x20 DUP1 SWAP2 DIV MUL PUSH1 0x20 ADD PUSH1 0x40 MLOAD SWAP1 DUP2 ADD PUSH1 0x40 MSTORE DUP1 SWAP3 SWAP2 SWAP1 DUP2 DUP2 MSTORE PUSH1 0x20 ADD DUP3 DUP1 SLOAD PUSH2 0xDD9 SWAP1 PUSH2 0x1AF5 JUMP JUMPDEST DUP1 ISZERO PUSH2 0xE24 JUMPI DUP1 PUSH1 0x1F LT PUSH2 0xDFB JUMPI PUSH2 0x100 DUP1 DUP4 SLOAD DIV MUL DUP4 MSTORE SWAP2 PUSH1 0x20 ADD SWAP2 PUSH2 0xE24 JUMP JUMPDEST DUP3 ADD SWAP2 SWAP1 PUSH0 MSTORE PUSH1 0x20 PUSH0 KECCAK256 SWAP1 JUMPDEST DUP2 SLOAD DUP2 MSTORE SWAP1 PUSH1 0x1 ADD SWAP1 PUSH1 0x20 ADD DUP1 DUP4 GT PUSH2 0xE07 JUMPI DUP3 SWAP1 SUB PUSH1 0x1F AND DUP3 ADD SWAP2 JUMPDEST POP POP POP POP POP DUP2 MSTORE POP POP DUP3 DUP3 DUP2 MLOAD DUP2 LT PUSH2 0xE40 JUMPI PUSH2 0xE3F PUSH2 0x1E30 JUMP JUMPDEST JUMPDEST PUSH1 0x20 MUL PUSH1 0x20 ADD ADD DUP2 SWAP1 MSTORE POP DUP1 DUP1 PUSH1 0x1 ADD SWAP2 POP POP PUSH2 0xB79 JUMP JUMPDEST POP DUP1 SWAP2 POP POP SWAP1 JUMP JUMPDEST PUSH0 PUSH1 0x3 DUP1 SLOAD SWAP1 POP SWAP1 POP SWAP1 JUMP JUMPDEST PUSH0 PUSH1 0x2 DUP3 PUSH1 0x40 MLOAD PUSH2 0xE7D SWAP2 SWAP1 PUSH2 0x1A20 JUMP JUMPDEST SWAP1 DUP2 MSTORE PUSH1 0x20 ADD PUSH1 0x40 MLOAD DUP1 SWAP2 SUB SWAP1 KECCAK256 PUSH1 0x40 MLOAD DUP1 PUSH1 0xC0 ADD PUSH1 0x40 MSTORE SWAP1 DUP2 PUSH0 DUP3 ADD PUSH0 SWAP1 SLOAD SWAP1 PUSH2 0x100 EXP SWAP1 DIV PUSH20 0xFFFFFFFFFFFFFFFFFFFFFFFFFFFFFFFFFFFFFFFF AND PUSH20 0xFFFFFFFFFFFFFFFFFFFFFFFFFFFFFFFFFFFFFFFF AND PUSH20 0xFFFFFFFFFFFFFFFFFFFFFFFFFFFFFFFFFFFFFFFF AND DUP2 MSTORE PUSH1 0x20 ADD PUSH1 0x1 DUP3 ADD DUP1 SLOAD PUSH2 0xEFA SWAP1 PUSH2 0x1AF5 JUMP JUMPDEST DUP1 PUSH1 0x1F ADD PUSH1 0x20 DUP1 SWAP2 DIV MUL PUSH1 0x20 ADD PUSH1 0x40 MLOAD SWAP1 DUP2 ADD PUSH1 0x40 MSTORE DUP1 SWAP3 SWAP2 SWAP1 DUP2 DUP2 MSTORE PUSH1 0x20 ADD DUP3 DUP1 SLOAD PUSH2 0xF26 SWAP1 PUSH2 0x1AF5 JUMP JUMPDEST DUP1 ISZERO PUSH2 0xF71 JUMPI DUP1 PUSH1 0x1F LT PUSH2 0xF48 JUMPI PUSH2 0x100 DUP1 DUP4 SLOAD DIV MUL DUP4 MSTORE SWAP2 PUSH1 0x20 ADD SWAP2 PUSH2 0xF71 JUMP JUMPDEST DUP3 ADD SWAP2 SWAP1 PUSH0 MSTORE PUSH1 0x20 PUSH0 KECCAK256 SWAP1 JUMPDEST DUP2 SLOAD DUP2 MSTORE SWAP1 PUSH1 0x1 ADD SWAP1 PUSH1 0x20 ADD DUP1 DUP4 GT PUSH2 0xF54 JUMPI DUP3 SWAP1 SUB PUSH1 0x1F AND DUP3 ADD SWAP2 JUMPDEST POP POP POP POP POP DUP2 MSTORE PUSH1 0x20 ADD PUSH1 0x2 DUP3 ADD PUSH0 SWAP1 SLOAD SWAP1 PUSH2 0x100 EXP SWAP1 DIV PUSH20 0xFFFFFFFFFFFFFFFFFFFFFFFFFFFFFFFFFFFFFFFF AND PUSH20 0xFFFFFFFFFFFFFFFFFFFFFFFFFFFFFFFFFFFFFFFF AND PUSH20 0xFFFFFFFFFFFFFFFFFFFFFFFFFFFFFFFFFFFFFFFF AND DUP2 MSTORE PUSH1 0x20 ADD PUSH1 0x3 DUP3 ADD DUP1 SLOAD PUSH2 0xFDF SWAP1 PUSH2 0x1AF5 JUMP JUMPDEST DUP1 PUSH1 0x1F ADD PUSH1 0x20 DUP1 SWAP2 DIV MUL PUSH1 0x20 ADD PUSH1 0x40 MLOAD SWAP1 DUP2 ADD PUSH1 0x40 MSTORE DUP1 SWAP3 SWAP2 SWAP1 DUP2 DUP2 MSTORE PUSH1 0x20 ADD DUP3 DUP1 SLOAD PUSH2 0x100B SWAP1 PUSH2 0x1AF5 JUMP JUMPDEST DUP1 ISZERO PUSH2 0x1056 JUMPI DUP1 PUSH1 0x1F LT PUSH2 0x102D JUMPI PUSH2 0x100 DUP1 DUP4 SLOAD DIV MUL DUP4 MSTORE SWAP2 PUSH1 0x20 ADD SWAP2 PUSH2 0x1056 JUMP JUMPDEST DUP3 ADD SWAP2 SWAP1 PUSH0 MSTORE PUSH1 0x20 PUSH0 KECCAK256 SWAP1 JUMPDEST DUP2 SLOAD DUP2 MSTORE SWAP1 PUSH1 0x1 ADD SWAP1 PUSH1 0x20 ADD DUP1 DUP4 GT PUSH2 0x1039 JUMPI DUP3 SWAP1 SUB PUSH1 0x1F AND DUP3 ADD SWAP2 JUMPDEST POP POP POP POP POP DUP2 MSTORE PUSH1 0x20 ADD PUSH1 0x4 DUP3 ADD SLOAD DUP2 MSTORE PUSH1 0x20 ADD PUSH1 0x5 DUP3 ADD DUP1 SLOAD PUSH2 0x1079 SWAP1 PUSH2 0x1AF5 JUMP JUMPDEST DUP1 PUSH1 0x1F ADD PUSH1 0x20 DUP1 SWAP2 DIV MUL PUSH1 0x20 ADD PUSH1 0x40 MLOAD SWAP1 DUP2 ADD PUSH1 0x40 MSTORE DUP1 SWAP3 SWAP2 SWAP1 DUP2 DUP2 MSTORE PUSH1 0x20 ADD DUP3 DUP1 SLOAD PUSH2 0x10A5 SWAP1 PUSH2 0x1AF5 JUMP JUMPDEST DUP1 ISZERO PUSH2 0x10F0 JUMPI DUP1 PUSH1 0x1F LT PUSH2 0x10C7 JUMPI PUSH2 0x100 DUP1 DUP4 SLOAD DIV MUL DUP4 MSTORE SWAP2 PUSH1 0x20 ADD SWAP2 PUSH2 0x10F0 JUMP JUMPDEST DUP3 ADD SWAP2 SWAP1 PUSH0 MSTORE PUSH1 0x20 PUSH0 KECCAK256 SWAP1 JUMPDEST DUP2 SLOAD DUP2 MSTORE SWAP1 PUSH1 0x1 ADD SWAP1 PUSH1 0x20 ADD DUP1 DUP4 GT PUSH2 0x10D3 JUMPI DUP3 SWAP1 SUB PUSH1 0x1F AND DUP3 ADD SWAP2 JUMPDEST POP POP POP POP POP DUP2 MSTORE POP POP SWAP1 POP PUSH0 DUP2 PUSH1 0x40 ADD MLOAD SWAP1 POP PUSH0 PUSH20 0xFFFFFFFFFFFFFFFFFFFFFFFFFFFFFFFFFFFFFFFF AND DUP3 PUSH0 ADD MLOAD PUSH20 0xFFFFFFFFFFFFFFFFFFFFFFFFFFFFFFFFFFFFFFFF AND SUB PUSH2 0x116B JUMPI PUSH1 0x40 MLOAD PUSH32 0x57E25A0900000000000000000000000000000000000000000000000000000000 DUP2 MSTORE PUSH1 0x4 ADD PUSH1 0x40 MLOAD DUP1 SWAP2 SUB SWAP1 REVERT JUMPDEST PUSH1 0x1 DUP2 PUSH20 0xFFFFFFFFFFFFFFFFFFFFFFFFFFFFFFFFFFFFFFFF AND PUSH4 0x70A08231 CALLER PUSH1 0x40 MLOAD DUP3 PUSH4 0xFFFFFFFF AND PUSH1 0xE0 SHL DUP2 MSTORE PUSH1 0x4 ADD PUSH2 0x11A6 SWAP2 SWAP1 PUSH2 0x1836 JUMP JUMPDEST PUSH1 0x20 PUSH1 0x40 MLOAD DUP1 DUP4 SUB DUP2 DUP7 GAS STATICCALL ISZERO DUP1 ISZERO PUSH2 0x11C1 JUMPI RETURNDATASIZE PUSH0 DUP1 RETURNDATACOPY RETURNDATASIZE PUSH0 REVERT JUMPDEST POP POP POP POP PUSH1 0x40 MLOAD RETURNDATASIZE PUSH1 0x1F NOT PUSH1 0x1F DUP3 ADD AND DUP3 ADD DUP1 PUSH1 0x40 MSTORE POP DUP2 ADD SWAP1 PUSH2 0x11E5 SWAP2 SWAP1 PUSH2 0x1E05 JUMP JUMPDEST LT PUSH2 0x121C JUMPI PUSH1 0x40 MLOAD PUSH32 0x80C902AE00000000000000000000000000000000000000000000000000000000 DUP2 MSTORE PUSH1 0x4 ADD PUSH1 0x40 MLOAD DUP1 SWAP2 SUB SWAP1 REVERT JUMPDEST DUP2 PUSH1 0x80 ADD MLOAD CALLVALUE LT ISZERO PUSH2 0x125A JUMPI PUSH1 0x40 MLOAD PUSH32 0x356680B700000000000000000000000000000000000000000000000000000000 DUP2 MSTORE PUSH1 0x4 ADD PUSH1 0x40 MLOAD DUP1 SWAP2 SUB SWAP1 REVERT JUMPDEST DUP2 PUSH1 0x80 ADD MLOAD PUSH1 0x4 PUSH0 DUP5 PUSH0 ADD MLOAD PUSH20 0xFFFFFFFFFFFFFFFFFFFFFFFFFFFFFFFFFFFFFFFF AND PUSH20 0xFFFFFFFFFFFFFFFFFFFFFFFFFFFFFFFFFFFFFFFF AND DUP2 MSTORE PUSH1 0x20 ADD SWAP1 DUP2 MSTORE PUSH1 0x20 ADD PUSH0 KECCAK256 PUSH0 DUP3 DUP3 SLOAD PUSH2 0x12AD SWAP2 SWAP1 PUSH2 0x1EF3 JUMP JUMPDEST SWAP3 POP POP DUP2 SWAP1 SSTORE POP DUP1 PUSH20 0xFFFFFFFFFFFFFFFFFFFFFFFFFFFFFFFFFFFFFFFF AND PUSH4 0x6A627842 CALLER PUSH1 0x40 MLOAD DUP3 PUSH4 0xFFFFFFFF AND PUSH1 0xE0 SHL DUP2 MSTORE PUSH1 0x4 ADD PUSH2 0x12ED SWAP2 SWAP1 PUSH2 0x1836 JUMP JUMPDEST PUSH0 PUSH1 0x40 MLOAD DUP1 DUP4 SUB DUP2 PUSH0 DUP8 DUP1 EXTCODESIZE ISZERO DUP1 ISZERO PUSH2 0x1304 JUMPI PUSH0 DUP1 REVERT JUMPDEST POP GAS CALL ISZERO DUP1 ISZERO PUSH2 0x1316 JUMPI RETURNDATASIZE PUSH0 DUP1 RETURNDATACOPY RETURNDATASIZE PUSH0 REVERT JUMPDEST POP POP POP POP CALLER PUSH20 0xFFFFFFFFFFFFFFFFFFFFFFFFFFFFFFFFFFFFFFFF AND DUP4 PUSH1 0x40 MLOAD PUSH2 0x133F SWAP2 SWAP1 PUSH2 0x1A20 JUMP JUMPDEST PUSH1 0x40 MLOAD DUP1 SWAP2 SUB SWAP1 KECCAK256 PUSH32 0xBE5BACC9CCF0E6B2195FB4EEF26C0562A005DCDD2C5D064FD26D76DE3849920F PUSH1 0x40 MLOAD PUSH1 0x40 MLOAD DUP1 SWAP2 SUB SWAP1 LOG3 POP POP POP JUMP JUMPDEST PUSH2 0x29E0 DUP1 PUSH2 0x1F27 DUP4 CODECOPY ADD SWAP1 JUMP JUMPDEST PUSH1 0x40 MLOAD DUP1 PUSH1 0xC0 ADD PUSH1 0x40 MSTORE DUP1 PUSH0 PUSH20 0xFFFFFFFFFFFFFFFFFFFFFFFFFFFFFFFFFFFFFFFF AND DUP2 MSTORE PUSH1 0x20 ADD PUSH1 0x60 DUP2 MSTORE PUSH1 0x20 ADD PUSH0 PUSH20 0xFFFFFFFFFFFFFFFFFFFFFFFFFFFFFFFFFFFFFFFF AND DUP2 MSTORE PUSH1 0x20 ADD PUSH1 0x60 DUP2 MSTORE PUSH1 0x20 ADD PUSH0 DUP2 MSTORE PUSH1 0x20 ADD PUSH1 0x60 DUP2 MSTORE POP SWAP1 JUMP JUMPDEST PUSH0 PUSH1 0x40 MLOAD SWAP1 POP SWAP1 JUMP JUMPDEST PUSH0 DUP1 REVERT JUMPDEST PUSH0 DUP1 REVERT JUMPDEST PUSH0 DUP1 REVERT JUMPDEST PUSH0 DUP1 REVERT JUMPDEST PUSH0 PUSH1 0x1F NOT PUSH1 0x1F DUP4 ADD AND SWAP1 POP SWAP2 SWAP1 POP JUMP JUMPDEST PUSH32 0x4E487B7100000000000000000000000000000000000000000000000000000000 PUSH0 MSTORE PUSH1 0x41 PUSH1 0x4 MSTORE PUSH1 0x24 PUSH0 REVERT JUMPDEST PUSH2 0x1443 DUP3 PUSH2 0x13FD JUMP JUMPDEST DUP2 ADD DUP2 DUP2 LT PUSH8 0xFFFFFFFFFFFFFFFF DUP3 GT OR ISZERO PUSH2 0x1462 JUMPI PUSH2 0x1461 PUSH2 0x140D JUMP JUMPDEST JUMPDEST DUP1 PUSH1 0x40 MSTORE POP POP POP JUMP JUMPDEST PUSH0 PUSH2 0x1474 PUSH2 0x13E4 JUMP JUMPDEST SWAP1 POP PUSH2 0x1480 DUP3 DUP3 PUSH2 0x143A JUMP JUMPDEST SWAP2 SWAP1 POP JUMP JUMPDEST PUSH0 PUSH8 0xFFFFFFFFFFFFFFFF DUP3 GT ISZERO PUSH2 0x149F JUMPI PUSH2 0x149E PUSH2 0x140D JUMP JUMPDEST JUMPDEST PUSH2 0x14A8 DUP3 PUSH2 0x13FD JUMP JUMPDEST SWAP1 POP PUSH1 0x20 DUP2 ADD SWAP1 POP SWAP2 SWAP1 POP JUMP JUMPDEST DUP3 DUP2 DUP4 CALLDATACOPY PUSH0 DUP4 DUP4 ADD MSTORE POP POP POP JUMP JUMPDEST PUSH0 PUSH2 0x14D5 PUSH2 0x14D0 DUP5 PUSH2 0x1485 JUMP JUMPDEST PUSH2 0x146B JUMP JUMPDEST SWAP1 POP DUP3 DUP2 MSTORE PUSH1 0x20 DUP2 ADD DUP5 DUP5 DUP5 ADD GT ISZERO PUSH2 0x14F1 JUMPI PUSH2 0x14F0 PUSH2 0x13F9 JUMP JUMPDEST JUMPDEST PUSH2 0x14FC DUP5 DUP3 DUP6 PUSH2 0x14B5 JUMP JUMPDEST POP SWAP4 SWAP3 POP POP POP JUMP JUMPDEST PUSH0 DUP3 PUSH1 0x1F DUP4 ADD SLT PUSH2 0x1518 JUMPI PUSH2 0x1517 PUSH2 0x13F5 JUMP JUMPDEST JUMPDEST DUP2 CALLDATALOAD PUSH2 0x1528 DUP5 DUP3 PUSH1 0x20 DUP7 ADD PUSH2 0x14C3 JUMP JUMPDEST SWAP2 POP POP SWAP3 SWAP2 POP POP JUMP JUMPDEST PUSH0 DUP2 SWAP1 POP SWAP2 SWAP1 POP JUMP JUMPDEST PUSH2 0x1543 DUP2 PUSH2 0x1531 JUMP JUMPDEST DUP2 EQ PUSH2 0x154D JUMPI PUSH0 DUP1 REVERT JUMPDEST POP JUMP JUMPDEST PUSH0 DUP2 CALLDATALOAD SWAP1 POP PUSH2 0x155E DUP2 PUSH2 0x153A JUMP JUMPDEST SWAP3 SWAP2 POP POP JUMP JUMPDEST PUSH0 DUP1 PUSH0 DUP1 PUSH0 PUSH1 0xA0 DUP7 DUP9 SUB SLT ISZERO PUSH2 0x157D JUMPI PUSH2 0x157C PUSH2 0x13ED JUMP JUMPDEST JUMPDEST PUSH0 DUP7 ADD CALLDATALOAD PUSH8 0xFFFFFFFFFFFFFFFF DUP2 GT ISZERO PUSH2 0x159A JUMPI PUSH2 0x1599 PUSH2 0x13F1 JUMP JUMPDEST JUMPDEST PUSH2 0x15A6 DUP9 DUP3 DUP10 ADD PUSH2 0x1504 JUMP JUMPDEST SWAP6 POP POP PUSH1 0x20 DUP7 ADD CALLDATALOAD PUSH8 0xFFFFFFFFFFFFFFFF DUP2 GT ISZERO PUSH2 0x15C7 JUMPI PUSH2 0x15C6 PUSH2 0x13F1 JUMP JUMPDEST JUMPDEST PUSH2 0x15D3 DUP9 DUP3 DUP10 ADD PUSH2 0x1504 JUMP JUMPDEST SWAP5 POP POP PUSH1 0x40 DUP7 ADD CALLDATALOAD PUSH8 0xFFFFFFFFFFFFFFFF DUP2 GT ISZERO PUSH2 0x15F4 JUMPI PUSH2 0x15F3 PUSH2 0x13F1 JUMP JUMPDEST JUMPDEST PUSH2 0x1600 DUP9 DUP3 DUP10 ADD PUSH2 0x1504 JUMP JUMPDEST SWAP4 POP POP PUSH1 0x60 PUSH2 0x1611 DUP9 DUP3 DUP10 ADD PUSH2 0x1550 JUMP JUMPDEST SWAP3 POP POP PUSH1 0x80 DUP7 ADD CALLDATALOAD PUSH8 0xFFFFFFFFFFFFFFFF DUP2 GT ISZERO PUSH2 0x1632 JUMPI PUSH2 0x1631 PUSH2 0x13F1 JUMP JUMPDEST JUMPDEST PUSH2 0x163E DUP9 DUP3 DUP10 ADD PUSH2 0x1504 JUMP JUMPDEST SWAP2 POP POP SWAP3 SWAP6 POP SWAP3 SWAP6 SWAP1 SWAP4 POP JUMP JUMPDEST PUSH0 PUSH1 0x20 DUP3 DUP5 SUB SLT ISZERO PUSH2 0x1660 JUMPI PUSH2 0x165F PUSH2 0x13ED JUMP JUMPDEST JUMPDEST PUSH0 DUP3 ADD CALLDATALOAD PUSH8 0xFFFFFFFFFFFFFFFF DUP2 GT ISZERO PUSH2 0x167D JUMPI PUSH2 0x167C PUSH2 0x13F1 JUMP JUMPDEST JUMPDEST PUSH2 0x1689 DUP5 DUP3 DUP6 ADD PUSH2 0x1504 JUMP JUMPDEST SWAP2 POP POP SWAP3 SWAP2 POP POP JUMP JUMPDEST PUSH0 DUP2 ISZERO ISZERO SWAP1 POP SWAP2 SWAP1 POP JUMP JUMPDEST PUSH2 0x16A6 DUP2 PUSH2 0x1692 JUMP JUMPDEST DUP3 MSTORE POP POP JUMP JUMPDEST PUSH0 PUSH1 0x20 DUP3 ADD SWAP1 POP PUSH2 0x16BF PUSH0 DUP4 ADD DUP5 PUSH2 0x169D JUMP JUMPDEST SWAP3 SWAP2 POP POP JUMP JUMPDEST PUSH0 PUSH20 0xFFFFFFFFFFFFFFFFFFFFFFFFFFFFFFFFFFFFFFFF DUP3 AND SWAP1 POP SWAP2 SWAP1 POP JUMP JUMPDEST PUSH0 PUSH2 0x16EE DUP3 PUSH2 0x16C5 JUMP JUMPDEST SWAP1 POP SWAP2 SWAP1 POP JUMP JUMPDEST PUSH2 0x16FE DUP2 PUSH2 0x16E4 JUMP JUMPDEST DUP3 MSTORE POP POP JUMP JUMPDEST PUSH0 DUP2 MLOAD SWAP1 POP SWAP2 SWAP1 POP JUMP JUMPDEST PUSH0 DUP3 DUP3 MSTORE PUSH1 0x20 DUP3 ADD SWAP1 POP SWAP3 SWAP2 POP POP JUMP JUMPDEST DUP3 DUP2 DUP4 MCOPY PUSH0 DUP4 DUP4 ADD MSTORE POP POP POP JUMP JUMPDEST PUSH0 PUSH2 0x1736 DUP3 PUSH2 0x1704 JUMP JUMPDEST PUSH2 0x1740 DUP2 DUP6 PUSH2 0x170E JUMP JUMPDEST SWAP4 POP PUSH2 0x1750 DUP2 DUP6 PUSH1 0x20 DUP7 ADD PUSH2 0x171E JUMP JUMPDEST PUSH2 0x1759 DUP2 PUSH2 0x13FD JUMP JUMPDEST DUP5 ADD SWAP2 POP POP SWAP3 SWAP2 POP POP JUMP JUMPDEST PUSH2 0x176D DUP2 PUSH2 0x1531 JUMP JUMPDEST DUP3 MSTORE POP POP JUMP JUMPDEST PUSH0 PUSH1 0xC0 DUP4 ADD PUSH0 DUP4 ADD MLOAD PUSH2 0x1788 PUSH0 DUP7 ADD DUP3 PUSH2 0x16F5 JUMP JUMPDEST POP PUSH1 0x20 DUP4 ADD MLOAD DUP5 DUP3 SUB PUSH1 0x20 DUP7 ADD MSTORE PUSH2 0x17A0 DUP3 DUP3 PUSH2 0x172C JUMP JUMPDEST SWAP2 POP POP PUSH1 0x40 DUP4 ADD MLOAD PUSH2 0x17B5 PUSH1 0x40 DUP7 ADD DUP3 PUSH2 0x16F5 JUMP JUMPDEST POP PUSH1 0x60 DUP4 ADD MLOAD DUP5 DUP3 SUB PUSH1 0x60 DUP7 ADD MSTORE PUSH2 0x17CD DUP3 DUP3 PUSH2 0x172C JUMP JUMPDEST SWAP2 POP POP PUSH1 0x80 DUP4 ADD MLOAD PUSH2 0x17E2 PUSH1 0x80 DUP7 ADD DUP3 PUSH2 0x1764 JUMP JUMPDEST POP PUSH1 0xA0 DUP4 ADD MLOAD DUP5 DUP3 SUB PUSH1 0xA0 DUP7 ADD MSTORE PUSH2 0x17FA DUP3 DUP3 PUSH2 0x172C JUMP JUMPDEST SWAP2 POP POP DUP1 SWAP2 POP POP SWAP3 SWAP2 POP POP JUMP JUMPDEST PUSH0 PUSH1 0x20 DUP3 ADD SWAP1 POP DUP2 DUP2 SUB PUSH0 DUP4 ADD MSTORE PUSH2 0x181F DUP2 DUP5 PUSH2 0x1773 JUMP JUMPDEST SWAP1 POP SWAP3 SWAP2 POP POP JUMP JUMPDEST PUSH2 0x1830 DUP2 PUSH2 0x16E4 JUMP JUMPDEST DUP3 MSTORE POP POP JUMP JUMPDEST PUSH0 PUSH1 0x20 DUP3 ADD SWAP1 POP PUSH2 0x1849 PUSH0 DUP4 ADD DUP5 PUSH2 0x1827 JUMP JUMPDEST SWAP3 SWAP2 POP POP JUMP JUMPDEST PUSH0 DUP2 MLOAD SWAP1 POP SWAP2 SWAP1 POP JUMP JUMPDEST PUSH0 DUP3 DUP3 MSTORE PUSH1 0x20 DUP3 ADD SWAP1 POP SWAP3 SWAP2 POP POP JUMP JUMPDEST PUSH0 DUP2 SWAP1 POP PUSH1 0x20 DUP3 ADD SWAP1 POP SWAP2 SWAP1 POP JUMP JUMPDEST PUSH0 PUSH1 0xC0 DUP4 ADD PUSH0 DUP4 ADD MLOAD PUSH2 0x188D PUSH0 DUP7 ADD DUP3 PUSH2 0x16F5 JUMP JUMPDEST POP PUSH1 0x20 DUP4 ADD MLOAD DUP5 DUP3 SUB PUSH1 0x20 DUP7 ADD MSTORE PUSH2 0x18A5 DUP3 DUP3 PUSH2 0x172C JUMP JUMPDEST SWAP2 POP POP PUSH1 0x40 DUP4 ADD MLOAD PUSH2 0x18BA PUSH1 0x40 DUP7 ADD DUP3 PUSH2 0x16F5 JUMP JUMPDEST POP PUSH1 0x60 DUP4 ADD MLOAD DUP5 DUP3 SUB PUSH1 0x60 DUP7 ADD MSTORE PUSH2 0x18D2 DUP3 DUP3 PUSH2 0x172C JUMP JUMPDEST SWAP2 POP POP PUSH1 0x80 DUP4 ADD MLOAD PUSH2 0x18E7 PUSH1 0x80 DUP7 ADD DUP3 PUSH2 0x1764 JUMP JUMPDEST POP PUSH1 0xA0 DUP4 ADD MLOAD DUP5 DUP3 SUB PUSH1 0xA0 DUP7 ADD MSTORE PUSH2 0x18FF DUP3 DUP3 PUSH2 0x172C JUMP JUMPDEST SWAP2 POP POP DUP1 SWAP2 POP POP SWAP3 SWAP2 POP POP JUMP JUMPDEST PUSH0 PUSH2 0x1917 DUP4 DUP4 PUSH2 0x1878 JUMP JUMPDEST SWAP1 POP SWAP3 SWAP2 POP POP JUMP JUMPDEST PUSH0 PUSH1 0x20 DUP3 ADD SWAP1 POP SWAP2 SWAP1 POP JUMP JUMPDEST PUSH0 PUSH2 0x1935 DUP3 PUSH2 0x184F JUMP JUMPDEST PUSH2 0x193F DUP2 DUP6 PUSH2 0x1859 JUMP JUMPDEST SWAP4 POP DUP4 PUSH1 0x20 DUP3 MUL DUP6 ADD PUSH2 0x1951 DUP6 PUSH2 0x1869 JUMP JUMPDEST DUP1 PUSH0 JUMPDEST DUP6 DUP2 LT ISZERO PUSH2 0x198C JUMPI DUP5 DUP5 SUB DUP10 MSTORE DUP2 MLOAD PUSH2 0x196D DUP6 DUP3 PUSH2 0x190C JUMP JUMPDEST SWAP5 POP PUSH2 0x1978 DUP4 PUSH2 0x191F JUMP JUMPDEST SWAP3 POP PUSH1 0x20 DUP11 ADD SWAP10 POP POP PUSH1 0x1 DUP2 ADD SWAP1 POP PUSH2 0x1954 JUMP JUMPDEST POP DUP3 SWAP8 POP DUP8 SWAP6 POP POP POP POP POP POP SWAP3 SWAP2 POP POP JUMP JUMPDEST PUSH0 PUSH1 0x20 DUP3 ADD SWAP1 POP DUP2 DUP2 SUB PUSH0 DUP4 ADD MSTORE PUSH2 0x19B6 DUP2 DUP5 PUSH2 0x192B JUMP JUMPDEST SWAP1 POP SWAP3 SWAP2 POP POP JUMP JUMPDEST PUSH2 0x19C7 DUP2 PUSH2 0x1531 JUMP JUMPDEST DUP3 MSTORE POP POP JUMP JUMPDEST PUSH0 PUSH1 0x20 DUP3 ADD SWAP1 POP PUSH2 0x19E0 PUSH0 DUP4 ADD DUP5 PUSH2 0x19BE JUMP JUMPDEST SWAP3 SWAP2 POP POP JUMP JUMPDEST PUSH0 DUP2 SWAP1 POP SWAP3 SWAP2 POP POP JUMP JUMPDEST PUSH0 PUSH2 0x19FA DUP3 PUSH2 0x1704 JUMP JUMPDEST PUSH2 0x1A04 DUP2 DUP6 PUSH2 0x19E6 JUMP JUMPDEST SWAP4 POP PUSH2 0x1A14 DUP2 DUP6 PUSH1 0x20 DUP7 ADD PUSH2 0x171E JUMP JUMPDEST DUP1 DUP5 ADD SWAP2 POP POP SWAP3 SWAP2 POP POP JUMP JUMPDEST PUSH0 PUSH2 0x1A2B DUP3 DUP5 PUSH2 0x19F0 JUMP JUMPDEST SWAP2 POP DUP2 SWAP1 POP SWAP3 SWAP2 POP POP JUMP JUMPDEST PUSH0 DUP3 DUP3 MSTORE PUSH1 0x20 DUP3 ADD SWAP1 POP SWAP3 SWAP2 POP POP JUMP JUMPDEST PUSH0 PUSH2 0x1A50 DUP3 PUSH2 0x1704 JUMP JUMPDEST PUSH2 0x1A5A DUP2 DUP6 PUSH2 0x1A36 JUMP JUMPDEST SWAP4 POP PUSH2 0x1A6A DUP2 DUP6 PUSH1 0x20 DUP7 ADD PUSH2 0x171E JUMP JUMPDEST PUSH2 0x1A73 DUP2 PUSH2 0x13FD JUMP JUMPDEST DUP5 ADD SWAP2 POP POP SWAP3 SWAP2 POP POP JUMP JUMPDEST PUSH0 PUSH1 0x60 DUP3 ADD SWAP1 POP DUP2 DUP2 SUB PUSH0 DUP4 ADD MSTORE PUSH2 0x1A96 DUP2 DUP7 PUSH2 0x1A46 JUMP JUMPDEST SWAP1 POP DUP2 DUP2 SUB PUSH1 0x20 DUP4 ADD MSTORE PUSH2 0x1AAA DUP2 DUP6 PUSH2 0x1A46 JUMP JUMPDEST SWAP1 POP DUP2 DUP2 SUB PUSH1 0x40 DUP4 ADD MSTORE PUSH2 0x1ABE DUP2 DUP5 PUSH2 0x1A46 JUMP JUMPDEST SWAP1 POP SWAP5 SWAP4 POP POP POP POP JUMP JUMPDEST PUSH32 0x4E487B7100000000000000000000000000000000000000000000000000000000 PUSH0 MSTORE PUSH1 0x22 PUSH1 0x4 MSTORE PUSH1 0x24 PUSH0 REVERT JUMPDEST PUSH0 PUSH1 0x2 DUP3 DIV SWAP1 POP PUSH1 0x1 DUP3 AND DUP1 PUSH2 0x1B0C JUMPI PUSH1 0x7F DUP3 AND SWAP2 POP JUMPDEST PUSH1 0x20 DUP3 LT DUP2 SUB PUSH2 0x1B1F JUMPI PUSH2 0x1B1E PUSH2 0x1AC8 JUMP JUMPDEST JUMPDEST POP SWAP2 SWAP1 POP JUMP JUMPDEST PUSH0 DUP2 SWAP1 POP DUP2 PUSH0 MSTORE PUSH1 0x20 PUSH0 KECCAK256 SWAP1 POP SWAP2 SWAP1 POP JUMP JUMPDEST PUSH0 PUSH1 0x20 PUSH1 0x1F DUP4 ADD DIV SWAP1 POP SWAP2 SWAP1 POP JUMP JUMPDEST PUSH0 DUP3 DUP3 SHL SWAP1 POP SWAP3 SWAP2 POP POP JUMP JUMPDEST PUSH0 PUSH1 0x8 DUP4 MUL PUSH2 0x1B81 PUSH32 0xFFFFFFFFFFFFFFFFFFFFFFFFFFFFFFFFFFFFFFFFFFFFFFFFFFFFFFFFFFFFFFFF DUP3 PUSH2 0x1B46 JUMP JUMPDEST PUSH2 0x1B8B DUP7 DUP4 PUSH2 0x1B46 JUMP JUMPDEST SWAP6 POP DUP1 NOT DUP5 AND SWAP4 POP DUP1 DUP7 AND DUP5 OR SWAP3 POP POP POP SWAP4 SWAP3 POP POP POP JUMP JUMPDEST PUSH0 DUP2 SWAP1 POP SWAP2 SWAP1 POP JUMP JUMPDEST PUSH0 PUSH2 0x1BC6 PUSH2 0x1BC1 PUSH2 0x1BBC DUP5 PUSH2 0x1531 JUMP JUMPDEST PUSH2 0x1BA3 JUMP JUMPDEST PUSH2 0x1531 JUMP JUMPDEST SWAP1 POP SWAP2 SWAP1 POP JUMP JUMPDEST PUSH0 DUP2 SWAP1 POP SWAP2 SWAP1 POP JUMP JUMPDEST PUSH2 0x1BDF DUP4 PUSH2 0x1BAC JUMP JUMPDEST PUSH2 0x1BF3 PUSH2 0x1BEB DUP3 PUSH2 0x1BCD JUMP JUMPDEST DUP5 DUP5 SLOAD PUSH2 0x1B52 JUMP JUMPDEST DUP3 SSTORE POP POP POP POP JUMP JUMPDEST PUSH0 SWAP1 JUMP JUMPDEST PUSH2 0x1C07 PUSH2 0x1BFB JUMP JUMPDEST PUSH2 0x1C12 DUP2 DUP5 DUP5 PUSH2 0x1BD6 JUMP JUMPDEST POP POP POP JUMP JUMPDEST JUMPDEST DUP2 DUP2 LT ISZERO PUSH2 0x1C35 JUMPI PUSH2 0x1C2A PUSH0 DUP3 PUSH2 0x1BFF JUMP JUMPDEST PUSH1 0x1 DUP2 ADD SWAP1 POP PUSH2 0x1C18 JUMP JUMPDEST POP POP JUMP JUMPDEST PUSH1 0x1F DUP3 GT ISZERO PUSH2 0x1C7A JUMPI PUSH2 0x1C4B DUP2 PUSH2 0x1B25 JUMP JUMPDEST PUSH2 0x1C54 DUP5 PUSH2 0x1B37 JUMP JUMPDEST DUP2 ADD PUSH1 0x20 DUP6 LT ISZERO PUSH2 0x1C63 JUMPI DUP2 SWAP1 POP JUMPDEST PUSH2 0x1C77 PUSH2 0x1C6F DUP6 PUSH2 0x1B37 JUMP JUMPDEST DUP4 ADD DUP3 PUSH2 0x1C17 JUMP JUMPDEST POP POP JUMPDEST POP POP POP JUMP JUMPDEST PUSH0 DUP3 DUP3 SHR SWAP1 POP SWAP3 SWAP2 POP POP JUMP JUMPDEST PUSH0 PUSH2 0x1C9A PUSH0 NOT DUP5 PUSH1 0x8 MUL PUSH2 0x1C7F JUMP JUMPDEST NOT DUP1 DUP4 AND SWAP2 POP POP SWAP3 SWAP2 POP POP JUMP JUMPDEST PUSH0 PUSH2 0x1CB2 DUP4 DUP4 PUSH2 0x1C8B JUMP JUMPDEST SWAP2 POP DUP3 PUSH1 0x2 MUL DUP3 OR SWAP1 POP SWAP3 SWAP2 POP POP JUMP JUMPDEST PUSH2 0x1CCB DUP3 PUSH2 0x1704 JUMP JUMPDEST PUSH8 0xFFFFFFFFFFFFFFFF DUP2 GT ISZERO PUSH2 0x1CE4 JUMPI PUSH2 0x1CE3 PUSH2 0x140D JUMP JUMPDEST JUMPDEST PUSH2 0x1CEE DUP3 SLOAD PUSH2 0x1AF5 JUMP JUMPDEST PUSH2 0x1CF9 DUP3 DUP3 DUP6 PUSH2 0x1C39 JUMP JUMPDEST PUSH0 PUSH1 0x20 SWAP1 POP PUSH1 0x1F DUP4 GT PUSH1 0x1 DUP2 EQ PUSH2 0x1D2A JUMPI PUSH0 DUP5 ISZERO PUSH2 0x1D18 JUMPI DUP3 DUP8 ADD MLOAD SWAP1 POP JUMPDEST PUSH2 0x1D22 DUP6 DUP3 PUSH2 0x1CA7 JUMP JUMPDEST DUP7 SSTORE POP PUSH2 0x1D89 JUMP JUMPDEST PUSH1 0x1F NOT DUP5 AND PUSH2 0x1D38 DUP7 PUSH2 0x1B25 JUMP JUMPDEST PUSH0 JUMPDEST DUP3 DUP2 LT ISZERO PUSH2 0x1D5F JUMPI DUP5 DUP10 ADD MLOAD DUP3 SSTORE PUSH1 0x1 DUP3 ADD SWAP2 POP PUSH1 0x20 DUP6 ADD SWAP5 POP PUSH1 0x20 DUP2 ADD SWAP1 POP PUSH2 0x1D3A JUMP JUMPDEST DUP7 DUP4 LT ISZERO PUSH2 0x1D7C JUMPI DUP5 DUP10 ADD MLOAD PUSH2 0x1D78 PUSH1 0x1F DUP10 AND DUP3 PUSH2 0x1C8B JUMP JUMPDEST DUP4 SSTORE POP JUMPDEST PUSH1 0x1 PUSH1 0x2 DUP9 MUL ADD DUP9 SSTORE POP POP POP JUMPDEST POP POP POP POP POP POP JUMP JUMPDEST PUSH32 0x4E487B7100000000000000000000000000000000000000000000000000000000 PUSH0 MSTORE PUSH1 0x11 PUSH1 0x4 MSTORE PUSH1 0x24 PUSH0 REVERT JUMPDEST PUSH0 PUSH2 0x1DC8 DUP3 PUSH2 0x1531 JUMP JUMPDEST SWAP2 POP PUSH2 0x1DD3 DUP4 PUSH2 0x1531 JUMP JUMPDEST SWAP3 POP DUP3 DUP3 SUB SWAP1 POP DUP2 DUP2 GT ISZERO PUSH2 0x1DEB JUMPI PUSH2 0x1DEA PUSH2 0x1D91 JUMP JUMPDEST JUMPDEST SWAP3 SWAP2 POP POP JUMP JUMPDEST PUSH0 DUP2 MLOAD SWAP1 POP PUSH2 0x1DFF DUP2 PUSH2 0x153A JUMP JUMPDEST SWAP3 SWAP2 POP POP JUMP JUMPDEST PUSH0 PUSH1 0x20 DUP3 DUP5 SUB SLT ISZERO PUSH2 0x1E1A JUMPI PUSH2 0x1E19 PUSH2 0x13ED JUMP JUMPDEST JUMPDEST PUSH0 PUSH2 0x1E27 DUP5 DUP3 DUP6 ADD PUSH2 0x1DF1 JUMP JUMPDEST SWAP2 POP POP SWAP3 SWAP2 POP POP JUMP JUMPDEST PUSH32 0x4E487B7100000000000000000000000000000000000000000000000000000000 PUSH0 MSTORE PUSH1 0x32 PUSH1 0x4 MSTORE PUSH1 0x24 PUSH0 REVERT JUMPDEST PUSH0 DUP2 SLOAD PUSH2 0x1E69 DUP2 PUSH2 0x1AF5 JUMP JUMPDEST PUSH2 0x1E73 DUP2 DUP7 PUSH2 0x19E6 JUMP JUMPDEST SWAP5 POP PUSH1 0x1 DUP3 AND PUSH0 DUP2 EQ PUSH2 0x1E8D JUMPI PUSH1 0x1 DUP2 EQ PUSH2 0x1EA2 JUMPI PUSH2 0x1ED4 JUMP JUMPDEST PUSH1 0xFF NOT DUP4 AND DUP7 MSTORE DUP2 ISZERO ISZERO DUP3 MUL DUP7 ADD SWAP4 POP PUSH2 0x1ED4 JUMP JUMPDEST PUSH2 0x1EAB DUP6 PUSH2 0x1B25 JUMP JUMPDEST PUSH0 JUMPDEST DUP4 DUP2 LT ISZERO PUSH2 0x1ECC JUMPI DUP2 SLOAD DUP2 DUP10 ADD MSTORE PUSH1 0x1 DUP3 ADD SWAP2 POP PUSH1 0x20 DUP2 ADD SWAP1 POP PUSH2 0x1EAD JUMP JUMPDEST DUP4 DUP9 ADD SWAP6 POP POP POP JUMPDEST POP POP POP SWAP3 SWAP2 POP POP JUMP JUMPDEST PUSH0 PUSH2 0x1EE8 DUP3 DUP5 PUSH2 0x1E5D JUMP JUMPDEST SWAP2 POP DUP2 SWAP1 POP SWAP3 SWAP2 POP POP JUMP JUMPDEST PUSH0 PUSH2 0x1EFD DUP3 PUSH2 0x1531 JUMP JUMPDEST SWAP2 POP PUSH2 0x1F08 DUP4 PUSH2 0x1531 JUMP JUMPDEST SWAP3 POP DUP3 DUP3 ADD SWAP1 POP DUP1 DUP3 GT ISZERO PUSH2 0x1F20 JUMPI PUSH2 0x1F1F PUSH2 0x1D91 JUMP JUMPDEST JUMPDEST SWAP3 SWAP2 POP POP JUMP INVALID PUSH1 0x80 PUSH1 0x40 MSTORE CALLVALUE DUP1 ISZERO PUSH2 0xF JUMPI PUSH0 DUP1 REVERT JUMPDEST POP PUSH1 0x40 MLOAD PUSH2 0x29E0 CODESIZE SUB DUP1 PUSH2 0x29E0 DUP4 CODECOPY DUP2 DUP2 ADD PUSH1 0x40 MSTORE DUP2 ADD SWAP1 PUSH2 0x31 SWAP2 SWAP1 PUSH2 0x2FD JUMP JUMPDEST CALLER DUP4 DUP4 DUP2 PUSH0 SWAP1 DUP2 PUSH2 0x42 SWAP2 SWAP1 PUSH2 0x5AE JUMP JUMPDEST POP DUP1 PUSH1 0x1 SWAP1 DUP2 PUSH2 0x52 SWAP2 SWAP1 PUSH2 0x5AE JUMP JUMPDEST POP POP POP PUSH0 PUSH20 0xFFFFFFFFFFFFFFFFFFFFFFFFFFFFFFFFFFFFFFFF AND DUP2 PUSH20 0xFFFFFFFFFFFFFFFFFFFFFFFFFFFFFFFFFFFFFFFF AND SUB PUSH2 0xC5 JUMPI PUSH0 PUSH1 0x40 MLOAD PUSH32 0x1E4FBDF700000000000000000000000000000000000000000000000000000000 DUP2 MSTORE PUSH1 0x4 ADD PUSH2 0xBC SWAP2 SWAP1 PUSH2 0x6BC JUMP JUMPDEST PUSH1 0x40 MLOAD DUP1 SWAP2 SUB SWAP1 REVERT JUMPDEST PUSH2 0xD4 DUP2 PUSH2 0xED PUSH1 0x20 SHL PUSH1 0x20 SHR JUMP JUMPDEST POP DUP1 PUSH1 0x8 SWAP1 DUP2 PUSH2 0xE4 SWAP2 SWAP1 PUSH2 0x5AE JUMP JUMPDEST POP POP POP POP PUSH2 0x6D5 JUMP JUMPDEST PUSH0 PUSH1 0x6 PUSH0 SWAP1 SLOAD SWAP1 PUSH2 0x100 EXP SWAP1 DIV PUSH20 0xFFFFFFFFFFFFFFFFFFFFFFFFFFFFFFFFFFFFFFFF AND SWAP1 POP DUP2 PUSH1 0x6 PUSH0 PUSH2 0x100 EXP DUP2 SLOAD DUP2 PUSH20 0xFFFFFFFFFFFFFFFFFFFFFFFFFFFFFFFFFFFFFFFF MUL NOT AND SWAP1 DUP4 PUSH20 0xFFFFFFFFFFFFFFFFFFFFFFFFFFFFFFFFFFFFFFFF AND MUL OR SWAP1 SSTORE POP DUP2 PUSH20 0xFFFFFFFFFFFFFFFFFFFFFFFFFFFFFFFFFFFFFFFF AND DUP2 PUSH20 0xFFFFFFFFFFFFFFFFFFFFFFFFFFFFFFFFFFFFFFFF AND PUSH32 0x8BE0079C531659141344CD1FD0A4F28419497F9722A3DAAFE3B4186F6B6457E0 PUSH1 0x40 MLOAD PUSH1 0x40 MLOAD DUP1 SWAP2 SUB SWAP1 LOG3 POP POP JUMP JUMPDEST PUSH0 PUSH1 0x40 MLOAD SWAP1 POP SWAP1 JUMP JUMPDEST PUSH0 DUP1 REVERT JUMPDEST PUSH0 DUP1 REVERT JUMPDEST PUSH0 DUP1 REVERT JUMPDEST PUSH0 DUP1 REVERT JUMPDEST PUSH0 PUSH1 0x1F NOT PUSH1 0x1F DUP4 ADD AND SWAP1 POP SWAP2 SWAP1 POP JUMP JUMPDEST PUSH32 0x4E487B7100000000000000000000000000000000000000000000000000000000 PUSH0 MSTORE PUSH1 0x41 PUSH1 0x4 MSTORE PUSH1 0x24 PUSH0 REVERT JUMPDEST PUSH2 0x20F DUP3 PUSH2 0x1C9 JUMP JUMPDEST DUP2 ADD DUP2 DUP2 LT PUSH8 0xFFFFFFFFFFFFFFFF DUP3 GT OR ISZERO PUSH2 0x22E JUMPI PUSH2 0x22D PUSH2 0x1D9 JUMP JUMPDEST JUMPDEST DUP1 PUSH1 0x40 MSTORE POP POP POP JUMP JUMPDEST PUSH0 PUSH2 0x240 PUSH2 0x1B0 JUMP JUMPDEST SWAP1 POP PUSH2 0x24C DUP3 DUP3 PUSH2 0x206 JUMP JUMPDEST SWAP2 SWAP1 POP JUMP JUMPDEST PUSH0 PUSH8 0xFFFFFFFFFFFFFFFF DUP3 GT ISZERO PUSH2 0x26B JUMPI PUSH2 0x26A PUSH2 0x1D9 JUMP JUMPDEST JUMPDEST PUSH2 0x274 DUP3 PUSH2 0x1C9 JUMP JUMPDEST SWAP1 POP PUSH1 0x20 DUP2 ADD SWAP1 POP SWAP2 SWAP1 POP JUMP JUMPDEST DUP3 DUP2 DUP4 MCOPY PUSH0 DUP4 DUP4 ADD MSTORE POP POP POP JUMP JUMPDEST PUSH0 PUSH2 0x2A1 PUSH2 0x29C DUP5 PUSH2 0x251 JUMP JUMPDEST PUSH2 0x237 JUMP JUMPDEST SWAP1 POP DUP3 DUP2 MSTORE PUSH1 0x20 DUP2 ADD DUP5 DUP5 DUP5 ADD GT ISZERO PUSH2 0x2BD JUMPI PUSH2 0x2BC PUSH2 0x1C5 JUMP JUMPDEST JUMPDEST PUSH2 0x2C8 DUP5 DUP3 DUP6 PUSH2 0x281 JUMP JUMPDEST POP SWAP4 SWAP3 POP POP POP JUMP JUMPDEST PUSH0 DUP3 PUSH1 0x1F DUP4 ADD SLT PUSH2 0x2E4 JUMPI PUSH2 0x2E3 PUSH2 0x1C1 JUMP JUMPDEST JUMPDEST DUP2 MLOAD PUSH2 0x2F4 DUP5 DUP3 PUSH1 0x20 DUP7 ADD PUSH2 0x28F JUMP JUMPDEST SWAP2 POP POP SWAP3 SWAP2 POP POP JUMP JUMPDEST PUSH0 DUP1 PUSH0 PUSH1 0x60 DUP5 DUP7 SUB SLT ISZERO PUSH2 0x314 JUMPI PUSH2 0x313 PUSH2 0x1B9 JUMP JUMPDEST JUMPDEST PUSH0 DUP5 ADD MLOAD PUSH8 0xFFFFFFFFFFFFFFFF DUP2 GT ISZERO PUSH2 0x331 JUMPI PUSH2 0x330 PUSH2 0x1BD JUMP JUMPDEST JUMPDEST PUSH2 0x33D DUP7 DUP3 DUP8 ADD PUSH2 0x2D0 JUMP JUMPDEST SWAP4 POP POP PUSH1 0x20 DUP5 ADD MLOAD PUSH8 0xFFFFFFFFFFFFFFFF DUP2 GT ISZERO PUSH2 0x35E JUMPI PUSH2 0x35D PUSH2 0x1BD JUMP JUMPDEST JUMPDEST PUSH2 0x36A DUP7 DUP3 DUP8 ADD PUSH2 0x2D0 JUMP JUMPDEST SWAP3 POP POP PUSH1 0x40 DUP5 ADD MLOAD PUSH8 0xFFFFFFFFFFFFFFFF DUP2 GT ISZERO PUSH2 0x38B JUMPI PUSH2 0x38A PUSH2 0x1BD JUMP JUMPDEST JUMPDEST PUSH2 0x397 DUP7 DUP3 DUP8 ADD PUSH2 0x2D0 JUMP JUMPDEST SWAP2 POP POP SWAP3 POP SWAP3 POP SWAP3 JUMP JUMPDEST PUSH0 DUP2 MLOAD SWAP1 POP SWAP2 SWAP1 POP JUMP JUMPDEST PUSH32 0x4E487B7100000000000000000000000000000000000000000000000000000000 PUSH0 MSTORE PUSH1 0x22 PUSH1 0x4 MSTORE PUSH1 0x24 PUSH0 REVERT JUMPDEST PUSH0 PUSH1 0x2 DUP3 DIV SWAP1 POP PUSH1 0x1 DUP3 AND DUP1 PUSH2 0x3EF JUMPI PUSH1 0x7F DUP3 AND SWAP2 POP JUMPDEST PUSH1 0x20 DUP3 LT DUP2 SUB PUSH2 0x402 JUMPI PUSH2 0x401 PUSH2 0x3AB JUMP JUMPDEST JUMPDEST POP SWAP2 SWAP1 POP JUMP JUMPDEST PUSH0 DUP2 SWAP1 POP DUP2 PUSH0 MSTORE PUSH1 0x20 PUSH0 KECCAK256 SWAP1 POP SWAP2 SWAP1 POP JUMP JUMPDEST PUSH0 PUSH1 0x20 PUSH1 0x1F DUP4 ADD DIV SWAP1 POP SWAP2 SWAP1 POP JUMP JUMPDEST PUSH0 DUP3 DUP3 SHL SWAP1 POP SWAP3 SWAP2 POP POP JUMP JUMPDEST PUSH0 PUSH1 0x8 DUP4 MUL PUSH2 0x464 PUSH32 0xFFFFFFFFFFFFFFFFFFFFFFFFFFFFFFFFFFFFFFFFFFFFFFFFFFFFFFFFFFFFFFFF DUP3 PUSH2 0x429 JUMP JUMPDEST PUSH2 0x46E DUP7 DUP4 PUSH2 0x429 JUMP JUMPDEST SWAP6 POP DUP1 NOT DUP5 AND SWAP4 POP DUP1 DUP7 AND DUP5 OR SWAP3 POP POP POP SWAP4 SWAP3 POP POP POP JUMP JUMPDEST PUSH0 DUP2 SWAP1 POP SWAP2 SWAP1 POP JUMP JUMPDEST PUSH0 DUP2 SWAP1 POP SWAP2 SWAP1 POP JUMP JUMPDEST PUSH0 PUSH2 0x4B2 PUSH2 0x4AD PUSH2 0x4A8 DUP5 PUSH2 0x486 JUMP JUMPDEST PUSH2 0x48F JUMP JUMPDEST PUSH2 0x486 JUMP JUMPDEST SWAP1 POP SWAP2 SWAP1 POP JUMP JUMPDEST PUSH0 DUP2 SWAP1 POP SWAP2 SWAP1 POP JUMP JUMPDEST PUSH2 0x4CB DUP4 PUSH2 0x498 JUMP JUMPDEST PUSH2 0x4DF PUSH2 0x4D7 DUP3 PUSH2 0x4B9 JUMP JUMPDEST DUP5 DUP5 SLOAD PUSH2 0x435 JUMP JUMPDEST DUP3 SSTORE POP POP POP POP JUMP JUMPDEST PUSH0 SWAP1 JUMP JUMPDEST PUSH2 0x4F3 PUSH2 0x4E7 JUMP JUMPDEST PUSH2 0x4FE DUP2 DUP5 DUP5 PUSH2 0x4C2 JUMP JUMPDEST POP POP POP JUMP JUMPDEST JUMPDEST DUP2 DUP2 LT ISZERO PUSH2 0x521 JUMPI PUSH2 0x516 PUSH0 DUP3 PUSH2 0x4EB JUMP JUMPDEST PUSH1 0x1 DUP2 ADD SWAP1 POP PUSH2 0x504 JUMP JUMPDEST POP POP JUMP JUMPDEST PUSH1 0x1F DUP3 GT ISZERO PUSH2 0x566 JUMPI PUSH2 0x537 DUP2 PUSH2 0x408 JUMP JUMPDEST PUSH2 0x540 DUP5 PUSH2 0x41A JUMP JUMPDEST DUP2 ADD PUSH1 0x20 DUP6 LT ISZERO PUSH2 0x54F JUMPI DUP2 SWAP1 POP JUMPDEST PUSH2 0x563 PUSH2 0x55B DUP6 PUSH2 0x41A JUMP JUMPDEST DUP4 ADD DUP3 PUSH2 0x503 JUMP JUMPDEST POP POP JUMPDEST POP POP POP JUMP JUMPDEST PUSH0 DUP3 DUP3 SHR SWAP1 POP SWAP3 SWAP2 POP POP JUMP JUMPDEST PUSH0 PUSH2 0x586 PUSH0 NOT DUP5 PUSH1 0x8 MUL PUSH2 0x56B JUMP JUMPDEST NOT DUP1 DUP4 AND SWAP2 POP POP SWAP3 SWAP2 POP POP JUMP JUMPDEST PUSH0 PUSH2 0x59E DUP4 DUP4 PUSH2 0x577 JUMP JUMPDEST SWAP2 POP DUP3 PUSH1 0x2 MUL DUP3 OR SWAP1 POP SWAP3 SWAP2 POP POP JUMP JUMPDEST PUSH2 0x5B7 DUP3 PUSH2 0x3A1 JUMP JUMPDEST PUSH8 0xFFFFFFFFFFFFFFFF DUP2 GT ISZERO PUSH2 0x5D0 JUMPI PUSH2 0x5CF PUSH2 0x1D9 JUMP JUMPDEST JUMPDEST PUSH2 0x5DA DUP3 SLOAD PUSH2 0x3D8 JUMP JUMPDEST PUSH2 0x5E5 DUP3 DUP3 DUP6 PUSH2 0x525 JUMP JUMPDEST PUSH0 PUSH1 0x20 SWAP1 POP PUSH1 0x1F DUP4 GT PUSH1 0x1 DUP2 EQ PUSH2 0x616 JUMPI PUSH0 DUP5 ISZERO PUSH2 0x604 JUMPI DUP3 DUP8 ADD MLOAD SWAP1 POP JUMPDEST PUSH2 0x60E DUP6 DUP3 PUSH2 0x593 JUMP JUMPDEST DUP7 SSTORE POP PUSH2 0x675 JUMP JUMPDEST PUSH1 0x1F NOT DUP5 AND PUSH2 0x624 DUP7 PUSH2 0x408 JUMP JUMPDEST PUSH0 JUMPDEST DUP3 DUP2 LT ISZERO PUSH2 0x64B JUMPI DUP5 DUP10 ADD MLOAD DUP3 SSTORE PUSH1 0x1 DUP3 ADD SWAP2 POP PUSH1 0x20 DUP6 ADD SWAP5 POP PUSH1 0x20 DUP2 ADD SWAP1 POP PUSH2 0x626 JUMP JUMPDEST DUP7 DUP4 LT ISZERO PUSH2 0x668 JUMPI DUP5 DUP10 ADD MLOAD PUSH2 0x664 PUSH1 0x1F DUP10 AND DUP3 PUSH2 0x577 JUMP JUMPDEST DUP4 SSTORE POP JUMPDEST PUSH1 0x1 PUSH1 0x2 DUP9 MUL ADD DUP9 SSTORE POP POP POP JUMPDEST POP POP POP POP POP POP JUMP JUMPDEST PUSH0 PUSH20 0xFFFFFFFFFFFFFFFFFFFFFFFFFFFFFFFFFFFFFFFF DUP3 AND SWAP1 POP SWAP2 SWAP1 POP JUMP JUMPDEST PUSH0 PUSH2 0x6A6 DUP3 PUSH2 0x67D JUMP JUMPDEST SWAP1 POP SWAP2 SWAP1 POP JUMP JUMPDEST PUSH2 0x6B6 DUP2 PUSH2 0x69C JUMP JUMPDEST DUP3 MSTORE POP POP JUMP JUMPDEST PUSH0 PUSH1 0x20 DUP3 ADD SWAP1 POP PUSH2 0x6CF PUSH0 DUP4 ADD DUP5 PUSH2 0x6AD JUMP JUMPDEST SWAP3 SWAP2 POP POP JUMP JUMPDEST PUSH2 0x22FE DUP1 PUSH2 0x6E2 PUSH0 CODECOPY PUSH0 RETURN INVALID PUSH1 0x80 PUSH1 0x40 MSTORE CALLVALUE DUP1 ISZERO PUSH2 0xF JUMPI PUSH0 DUP1 REVERT JUMPDEST POP PUSH1 0x4 CALLDATASIZE LT PUSH2 0x109 JUMPI PUSH0 CALLDATALOAD PUSH1 0xE0 SHR DUP1 PUSH4 0x70A08231 GT PUSH2 0xA0 JUMPI DUP1 PUSH4 0xA22CB465 GT PUSH2 0x6F JUMPI DUP1 PUSH4 0xA22CB465 EQ PUSH2 0x2A1 JUMPI DUP1 PUSH4 0xB88D4FDE EQ PUSH2 0x2BD JUMPI DUP1 PUSH4 0xC87B56DD EQ PUSH2 0x2D9 JUMPI DUP1 PUSH4 0xE985E9C5 EQ PUSH2 0x309 JUMPI DUP1 PUSH4 0xF2FDE38B EQ PUSH2 0x339 JUMPI PUSH2 0x109 JUMP JUMPDEST DUP1 PUSH4 0x70A08231 EQ PUSH2 0x22B JUMPI DUP1 PUSH4 0x715018A6 EQ PUSH2 0x25B JUMPI DUP1 PUSH4 0x8DA5CB5B EQ PUSH2 0x265 JUMPI DUP1 PUSH4 0x95D89B41 EQ PUSH2 0x283 JUMPI PUSH2 0x109 JUMP JUMPDEST DUP1 PUSH4 0x23B872DD GT PUSH2 0xDC JUMPI DUP1 PUSH4 0x23B872DD EQ PUSH2 0x1A7 JUMPI DUP1 PUSH4 0x42842E0E EQ PUSH2 0x1C3 JUMPI DUP1 PUSH4 0x6352211E EQ PUSH2 0x1DF JUMPI DUP1 PUSH4 0x6A627842 EQ PUSH2 0x20F JUMPI PUSH2 0x109 JUMP JUMPDEST DUP1 PUSH4 0x1FFC9A7 EQ PUSH2 0x10D JUMPI DUP1 PUSH4 0x6FDDE03 EQ PUSH2 0x13D JUMPI DUP1 PUSH4 0x81812FC EQ PUSH2 0x15B JUMPI DUP1 PUSH4 0x95EA7B3 EQ PUSH2 0x18B JUMPI JUMPDEST PUSH0 DUP1 REVERT JUMPDEST PUSH2 0x127 PUSH1 0x4 DUP1 CALLDATASIZE SUB DUP2 ADD SWAP1 PUSH2 0x122 SWAP2 SWAP1 PUSH2 0x1778 JUMP JUMPDEST PUSH2 0x355 JUMP JUMPDEST PUSH1 0x40 MLOAD PUSH2 0x134 SWAP2 SWAP1 PUSH2 0x17BD JUMP JUMPDEST PUSH1 0x40 MLOAD DUP1 SWAP2 SUB SWAP1 RETURN JUMPDEST PUSH2 0x145 PUSH2 0x436 JUMP JUMPDEST PUSH1 0x40 MLOAD PUSH2 0x152 SWAP2 SWAP1 PUSH2 0x1846 JUMP JUMPDEST PUSH1 0x40 MLOAD DUP1 SWAP2 SUB SWAP1 RETURN JUMPDEST PUSH2 0x175 PUSH1 0x4 DUP1 CALLDATASIZE SUB DUP2 ADD SWAP1 PUSH2 0x170 SWAP2 SWAP1 PUSH2 0x1899 JUMP JUMPDEST PUSH2 0x4C5 JUMP JUMPDEST PUSH1 0x40 MLOAD PUSH2 0x182 SWAP2 SWAP1 PUSH2 0x1903 JUMP JUMPDEST PUSH1 0x40 MLOAD DUP1 SWAP2 SUB SWAP1 RETURN JUMPDEST PUSH2 0x1A5 PUSH1 0x4 DUP1 CALLDATASIZE SUB DUP2 ADD SWAP1 PUSH2 0x1A0 SWAP2 SWAP1 PUSH2 0x1946 JUMP JUMPDEST PUSH2 0x4E0 JUMP JUMPDEST STOP JUMPDEST PUSH2 0x1C1 PUSH1 0x4 DUP1 CALLDATASIZE SUB DUP2 ADD SWAP1 PUSH2 0x1BC SWAP2 SWAP1 PUSH2 0x1984 JUMP JUMPDEST PUSH2 0x4F6 JUMP JUMPDEST STOP JUMPDEST PUSH2 0x1DD PUSH1 0x4 DUP1 CALLDATASIZE SUB DUP2 ADD SWAP1 PUSH2 0x1D8 SWAP2 SWAP1 PUSH2 0x1984 JUMP JUMPDEST PUSH2 0x5F5 JUMP JUMPDEST STOP JUMPDEST PUSH2 0x1F9 PUSH1 0x4 DUP1 CALLDATASIZE SUB DUP2 ADD SWAP1 PUSH2 0x1F4 SWAP2 SWAP1 PUSH2 0x1899 JUMP JUMPDEST PUSH2 0x614 JUMP JUMPDEST PUSH1 0x40 MLOAD PUSH2 0x206 SWAP2 SWAP1 PUSH2 0x1903 JUMP JUMPDEST PUSH1 0x40 MLOAD DUP1 SWAP2 SUB SWAP1 RETURN JUMPDEST PUSH2 0x229 PUSH1 0x4 DUP1 CALLDATASIZE SUB DUP2 ADD SWAP1 PUSH2 0x224 SWAP2 SWAP1 PUSH2 0x19D4 JUMP JUMPDEST PUSH2 0x625 JUMP JUMPDEST STOP JUMPDEST PUSH2 0x245 PUSH1 0x4 DUP1 CALLDATASIZE SUB DUP2 ADD SWAP1 PUSH2 0x240 SWAP2 SWAP1 PUSH2 0x19D4 JUMP JUMPDEST PUSH2 0x653 JUMP JUMPDEST PUSH1 0x40 MLOAD PUSH2 0x252 SWAP2 SWAP1 PUSH2 0x1A0E JUMP JUMPDEST PUSH1 0x40 MLOAD DUP1 SWAP2 SUB SWAP1 RETURN JUMPDEST PUSH2 0x263 PUSH2 0x709 JUMP JUMPDEST STOP JUMPDEST PUSH2 0x26D PUSH2 0x71C JUMP JUMPDEST PUSH1 0x40 MLOAD PUSH2 0x27A SWAP2 SWAP1 PUSH2 0x1903 JUMP JUMPDEST PUSH1 0x40 MLOAD DUP1 SWAP2 SUB SWAP1 RETURN JUMPDEST PUSH2 0x28B PUSH2 0x744 JUMP JUMPDEST PUSH1 0x40 MLOAD PUSH2 0x298 SWAP2 SWAP1 PUSH2 0x1846 JUMP JUMPDEST PUSH1 0x40 MLOAD DUP1 SWAP2 SUB SWAP1 RETURN JUMPDEST PUSH2 0x2BB PUSH1 0x4 DUP1 CALLDATASIZE SUB DUP2 ADD SWAP1 PUSH2 0x2B6 SWAP2 SWAP1 PUSH2 0x1A51 JUMP JUMPDEST PUSH2 0x7D4 JUMP JUMPDEST STOP JUMPDEST PUSH2 0x2D7 PUSH1 0x4 DUP1 CALLDATASIZE SUB DUP2 ADD SWAP1 PUSH2 0x2D2 SWAP2 SWAP1 PUSH2 0x1BBB JUMP JUMPDEST PUSH2 0x7EA JUMP JUMPDEST STOP JUMPDEST PUSH2 0x2F3 PUSH1 0x4 DUP1 CALLDATASIZE SUB DUP2 ADD SWAP1 PUSH2 0x2EE SWAP2 SWAP1 PUSH2 0x1899 JUMP JUMPDEST PUSH2 0x807 JUMP JUMPDEST PUSH1 0x40 MLOAD PUSH2 0x300 SWAP2 SWAP1 PUSH2 0x1846 JUMP JUMPDEST PUSH1 0x40 MLOAD DUP1 SWAP2 SUB SWAP1 RETURN JUMPDEST PUSH2 0x323 PUSH1 0x4 DUP1 CALLDATASIZE SUB DUP2 ADD SWAP1 PUSH2 0x31E SWAP2 SWAP1 PUSH2 0x1C3B JUMP JUMPDEST PUSH2 0x874 JUMP JUMPDEST PUSH1 0x40 MLOAD PUSH2 0x330 SWAP2 SWAP1 PUSH2 0x17BD JUMP JUMPDEST PUSH1 0x40 MLOAD DUP1 SWAP2 SUB SWAP1 RETURN JUMPDEST PUSH2 0x353 PUSH1 0x4 DUP1 CALLDATASIZE SUB DUP2 ADD SWAP1 PUSH2 0x34E SWAP2 SWAP1 PUSH2 0x19D4 JUMP JUMPDEST PUSH2 0x902 JUMP JUMPDEST STOP JUMPDEST PUSH0 PUSH32 0x80AC58CD00000000000000000000000000000000000000000000000000000000 PUSH28 0xFFFFFFFFFFFFFFFFFFFFFFFFFFFFFFFFFFFFFFFFFFFFFFFFFFFFFFFF NOT AND DUP3 PUSH28 0xFFFFFFFFFFFFFFFFFFFFFFFFFFFFFFFFFFFFFFFFFFFFFFFFFFFFFFFF NOT AND EQ DUP1 PUSH2 0x41F JUMPI POP PUSH32 0x5B5E139F00000000000000000000000000000000000000000000000000000000 PUSH28 0xFFFFFFFFFFFFFFFFFFFFFFFFFFFFFFFFFFFFFFFFFFFFFFFFFFFFFFFF NOT AND DUP3 PUSH28 0xFFFFFFFFFFFFFFFFFFFFFFFFFFFFFFFFFFFFFFFFFFFFFFFFFFFFFFFF NOT AND EQ JUMPDEST DUP1 PUSH2 0x42F JUMPI POP PUSH2 0x42E DUP3 PUSH2 0x986 JUMP JUMPDEST JUMPDEST SWAP1 POP SWAP2 SWAP1 POP JUMP JUMPDEST PUSH1 0x60 PUSH0 DUP1 SLOAD PUSH2 0x444 SWAP1 PUSH2 0x1CA6 JUMP JUMPDEST DUP1 PUSH1 0x1F ADD PUSH1 0x20 DUP1 SWAP2 DIV MUL PUSH1 0x20 ADD PUSH1 0x40 MLOAD SWAP1 DUP2 ADD PUSH1 0x40 MSTORE DUP1 SWAP3 SWAP2 SWAP1 DUP2 DUP2 MSTORE PUSH1 0x20 ADD DUP3 DUP1 SLOAD PUSH2 0x470 SWAP1 PUSH2 0x1CA6 JUMP JUMPDEST DUP1 ISZERO PUSH2 0x4BB JUMPI DUP1 PUSH1 0x1F LT PUSH2 0x492 JUMPI PUSH2 0x100 DUP1 DUP4 SLOAD DIV MUL DUP4 MSTORE SWAP2 PUSH1 0x20 ADD SWAP2 PUSH2 0x4BB JUMP JUMPDEST DUP3 ADD SWAP2 SWAP1 PUSH0 MSTORE PUSH1 0x20 PUSH0 KECCAK256 SWAP1 JUMPDEST DUP2 SLOAD DUP2 MSTORE SWAP1 PUSH1 0x1 ADD SWAP1 PUSH1 0x20 ADD DUP1 DUP4 GT PUSH2 0x49E JUMPI DUP3 SWAP1 SUB PUSH1 0x1F AND DUP3 ADD SWAP2 JUMPDEST POP POP POP POP POP SWAP1 POP SWAP1 JUMP JUMPDEST PUSH0 PUSH2 0x4CF DUP3 PUSH2 0x9EF JUMP JUMPDEST POP PUSH2 0x4D9 DUP3 PUSH2 0xA75 JUMP JUMPDEST SWAP1 POP SWAP2 SWAP1 POP JUMP JUMPDEST PUSH2 0x4F2 DUP3 DUP3 PUSH2 0x4ED PUSH2 0xAAE JUMP JUMPDEST PUSH2 0xAB5 JUMP JUMPDEST POP POP JUMP JUMPDEST PUSH0 PUSH20 0xFFFFFFFFFFFFFFFFFFFFFFFFFFFFFFFFFFFFFFFF AND DUP3 PUSH20 0xFFFFFFFFFFFFFFFFFFFFFFFFFFFFFFFFFFFFFFFF AND SUB PUSH2 0x566 JUMPI PUSH0 PUSH1 0x40 MLOAD PUSH32 0x64A0AE9200000000000000000000000000000000000000000000000000000000 DUP2 MSTORE PUSH1 0x4 ADD PUSH2 0x55D SWAP2 SWAP1 PUSH2 0x1903 JUMP JUMPDEST PUSH1 0x40 MLOAD DUP1 SWAP2 SUB SWAP1 REVERT JUMPDEST PUSH0 PUSH2 0x579 DUP4 DUP4 PUSH2 0x574 PUSH2 0xAAE JUMP JUMPDEST PUSH2 0xAC7 JUMP JUMPDEST SWAP1 POP DUP4 PUSH20 0xFFFFFFFFFFFFFFFFFFFFFFFFFFFFFFFFFFFFFFFF AND DUP2 PUSH20 0xFFFFFFFFFFFFFFFFFFFFFFFFFFFFFFFFFFFFFFFF AND EQ PUSH2 0x5EF JUMPI DUP4 DUP3 DUP3 PUSH1 0x40 MLOAD PUSH32 0x64283D7B00000000000000000000000000000000000000000000000000000000 DUP2 MSTORE PUSH1 0x4 ADD PUSH2 0x5E6 SWAP4 SWAP3 SWAP2 SWAP1 PUSH2 0x1CD6 JUMP JUMPDEST PUSH1 0x40 MLOAD DUP1 SWAP2 SUB SWAP1 REVERT JUMPDEST POP POP POP POP JUMP JUMPDEST PUSH2 0x60F DUP4 DUP4 DUP4 PUSH1 0x40 MLOAD DUP1 PUSH1 0x20 ADD PUSH1 0x40 MSTORE DUP1 PUSH0 DUP2 MSTORE POP PUSH2 0x7EA JUMP JUMPDEST POP POP POP JUMP JUMPDEST PUSH0 PUSH2 0x61E DUP3 PUSH2 0x9EF JUMP JUMPDEST SWAP1 POP SWAP2 SWAP1 POP JUMP JUMPDEST PUSH2 0x62D PUSH2 0xCD2 JUMP JUMPDEST PUSH2 0x639 DUP2 PUSH1 0x7 SLOAD PUSH2 0xD59 JUMP JUMPDEST PUSH1 0x7 PUSH0 DUP2 SLOAD DUP1 SWAP3 SWAP2 SWAP1 PUSH2 0x64B SWAP1 PUSH2 0x1D38 JUMP JUMPDEST SWAP2 SWAP1 POP SSTORE POP POP JUMP JUMPDEST PUSH0 DUP1 PUSH20 0xFFFFFFFFFFFFFFFFFFFFFFFFFFFFFFFFFFFFFFFF AND DUP3 PUSH20 0xFFFFFFFFFFFFFFFFFFFFFFFFFFFFFFFFFFFFFFFF AND SUB PUSH2 0x6C4 JUMPI PUSH0 PUSH1 0x40 MLOAD PUSH32 0x89C62B6400000000000000000000000000000000000000000000000000000000 DUP2 MSTORE PUSH1 0x4 ADD PUSH2 0x6BB SWAP2 SWAP1 PUSH2 0x1903 JUMP JUMPDEST PUSH1 0x40 MLOAD DUP1 SWAP2 SUB SWAP1 REVERT JUMPDEST PUSH1 0x3 PUSH0 DUP4 PUSH20 0xFFFFFFFFFFFFFFFFFFFFFFFFFFFFFFFFFFFFFFFF AND PUSH20 0xFFFFFFFFFFFFFFFFFFFFFFFFFFFFFFFFFFFFFFFF AND DUP2 MSTORE PUSH1 0x20 ADD SWAP1 DUP2 MSTORE PUSH1 0x20 ADD PUSH0 KECCAK256 SLOAD SWAP1 POP SWAP2 SWAP1 POP JUMP JUMPDEST PUSH2 0x711 PUSH2 0xCD2 JUMP JUMPDEST PUSH2 0x71A PUSH0 PUSH2 0xE4C JUMP JUMPDEST JUMP JUMPDEST PUSH0 PUSH1 0x6 PUSH0 SWAP1 SLOAD SWAP1 PUSH2 0x100 EXP SWAP1 DIV PUSH20 0xFFFFFFFFFFFFFFFFFFFFFFFFFFFFFFFFFFFFFFFF AND SWAP1 POP SWAP1 JUMP JUMPDEST PUSH1 0x60 PUSH1 0x1 DUP1 SLOAD PUSH2 0x753 SWAP1 PUSH2 0x1CA6 JUMP JUMPDEST DUP1 PUSH1 0x1F ADD PUSH1 0x20 DUP1 SWAP2 DIV MUL PUSH1 0x20 ADD PUSH1 0x40 MLOAD SWAP1 DUP2 ADD PUSH1 0x40 MSTORE DUP1 SWAP3 SWAP2 SWAP1 DUP2 DUP2 MSTORE PUSH1 0x20 ADD DUP3 DUP1 SLOAD PUSH2 0x77F SWAP1 PUSH2 0x1CA6 JUMP JUMPDEST DUP1 ISZERO PUSH2 0x7CA JUMPI DUP1 PUSH1 0x1F LT PUSH2 0x7A1 JUMPI PUSH2 0x100 DUP1 DUP4 SLOAD DIV MUL DUP4 MSTORE SWAP2 PUSH1 0x20 ADD SWAP2 PUSH2 0x7CA JUMP JUMPDEST DUP3 ADD SWAP2 SWAP1 PUSH0 MSTORE PUSH1 0x20 PUSH0 KECCAK256 SWAP1 JUMPDEST DUP2 SLOAD DUP2 MSTORE SWAP1 PUSH1 0x1 ADD SWAP1 PUSH1 0x20 ADD DUP1 DUP4 GT PUSH2 0x7AD JUMPI DUP3 SWAP1 SUB PUSH1 0x1F AND DUP3 ADD SWAP2 JUMPDEST POP POP POP POP POP SWAP1 POP SWAP1 JUMP JUMPDEST PUSH2 0x7E6 PUSH2 0x7DF PUSH2 0xAAE JUMP JUMPDEST DUP4 DUP4 PUSH2 0xF0F JUMP JUMPDEST POP POP JUMP JUMPDEST PUSH2 0x7F5 DUP5 DUP5 DUP5 PUSH2 0x4F6 JUMP JUMPDEST PUSH2 0x801 DUP5 DUP5 DUP5 DUP5 PUSH2 0x1078 JUMP JUMPDEST POP POP POP POP JUMP JUMPDEST PUSH1 0x60 PUSH2 0x812 DUP3 PUSH2 0x9EF JUMP JUMPDEST POP PUSH2 0x84E PUSH2 0x81E PUSH2 0x436 JUMP JUMPDEST PUSH2 0x826 PUSH2 0x436 JUMP JUMPDEST PUSH1 0x8 PUSH1 0x40 MLOAD PUSH1 0x20 ADD PUSH2 0x83A SWAP4 SWAP3 SWAP2 SWAP1 PUSH2 0x1FE3 JUMP JUMPDEST PUSH1 0x40 MLOAD PUSH1 0x20 DUP2 DUP4 SUB SUB DUP2 MSTORE SWAP1 PUSH1 0x40 MSTORE PUSH2 0x122A JUMP JUMPDEST PUSH1 0x40 MLOAD PUSH1 0x20 ADD PUSH2 0x85E SWAP2 SWAP1 PUSH2 0x2094 JUMP JUMPDEST PUSH1 0x40 MLOAD PUSH1 0x20 DUP2 DUP4 SUB SUB DUP2 MSTORE SWAP1 PUSH1 0x40 MSTORE SWAP1 POP SWAP2 SWAP1 POP JUMP JUMPDEST PUSH0 PUSH1 0x5 PUSH0 DUP5 PUSH20 0xFFFFFFFFFFFFFFFFFFFFFFFFFFFFFFFFFFFFFFFF AND PUSH20 0xFFFFFFFFFFFFFFFFFFFFFFFFFFFFFFFFFFFFFFFF AND DUP2 MSTORE PUSH1 0x20 ADD SWAP1 DUP2 MSTORE PUSH1 0x20 ADD PUSH0 KECCAK256 PUSH0 DUP4 PUSH20 0xFFFFFFFFFFFFFFFFFFFFFFFFFFFFFFFFFFFFFFFF AND PUSH20 0xFFFFFFFFFFFFFFFFFFFFFFFFFFFFFFFFFFFFFFFF AND DUP2 MSTORE PUSH1 0x20 ADD SWAP1 DUP2 MSTORE PUSH1 0x20 ADD PUSH0 KECCAK256 PUSH0 SWAP1 SLOAD SWAP1 PUSH2 0x100 EXP SWAP1 DIV PUSH1 0xFF AND SWAP1 POP SWAP3 SWAP2 POP POP JUMP JUMPDEST PUSH2 0x90A PUSH2 0xCD2 JUMP JUMPDEST PUSH0 PUSH20 0xFFFFFFFFFFFFFFFFFFFFFFFFFFFFFFFFFFFFFFFF AND DUP2 PUSH20 0xFFFFFFFFFFFFFFFFFFFFFFFFFFFFFFFFFFFFFFFF AND SUB PUSH2 0x97A JUMPI PUSH0 PUSH1 0x40 MLOAD PUSH32 0x1E4FBDF700000000000000000000000000000000000000000000000000000000 DUP2 MSTORE PUSH1 0x4 ADD PUSH2 0x971 SWAP2 SWAP1 PUSH2 0x1903 JUMP JUMPDEST PUSH1 0x40 MLOAD DUP1 SWAP2 SUB SWAP1 REVERT JUMPDEST PUSH2 0x983 DUP2 PUSH2 0xE4C JUMP JUMPDEST POP JUMP JUMPDEST PUSH0 PUSH32 0x1FFC9A700000000000000000000000000000000000000000000000000000000 PUSH28 0xFFFFFFFFFFFFFFFFFFFFFFFFFFFFFFFFFFFFFFFFFFFFFFFFFFFFFFFF NOT AND DUP3 PUSH28 0xFFFFFFFFFFFFFFFFFFFFFFFFFFFFFFFFFFFFFFFFFFFFFFFFFFFFFFFF NOT AND EQ SWAP1 POP SWAP2 SWAP1 POP JUMP JUMPDEST PUSH0 DUP1 PUSH2 0x9FA DUP4 PUSH2 0x1397 JUMP JUMPDEST SWAP1 POP PUSH0 PUSH20 0xFFFFFFFFFFFFFFFFFFFFFFFFFFFFFFFFFFFFFFFF AND DUP2 PUSH20 0xFFFFFFFFFFFFFFFFFFFFFFFFFFFFFFFFFFFFFFFF AND SUB PUSH2 0xA6C JUMPI DUP3 PUSH1 0x40 MLOAD PUSH32 0x7E27328900000000000000000000000000000000000000000000000000000000 DUP2 MSTORE PUSH1 0x4 ADD PUSH2 0xA63 SWAP2 SWAP1 PUSH2 0x1A0E JUMP JUMPDEST PUSH1 0x40 MLOAD DUP1 SWAP2 SUB SWAP1 REVERT JUMPDEST DUP1 SWAP2 POP POP SWAP2 SWAP1 POP JUMP JUMPDEST PUSH0 PUSH1 0x4 PUSH0 DUP4 DUP2 MSTORE PUSH1 0x20 ADD SWAP1 DUP2 MSTORE PUSH1 0x20 ADD PUSH0 KECCAK256 PUSH0 SWAP1 SLOAD SWAP1 PUSH2 0x100 EXP SWAP1 DIV PUSH20 0xFFFFFFFFFFFFFFFFFFFFFFFFFFFFFFFFFFFFFFFF AND SWAP1 POP SWAP2 SWAP1 POP JUMP JUMPDEST PUSH0 CALLER SWAP1 POP SWAP1 JUMP JUMPDEST PUSH2 0xAC2 DUP4 DUP4 DUP4 PUSH1 0x1 PUSH2 0x13D0 JUMP JUMPDEST POP POP POP JUMP JUMPDEST PUSH0 DUP1 PUSH2 0xAD2 DUP5 PUSH2 0x1397 JUMP JUMPDEST SWAP1 POP PUSH0 PUSH20 0xFFFFFFFFFFFFFFFFFFFFFFFFFFFFFFFFFFFFFFFF AND DUP4 PUSH20 0xFFFFFFFFFFFFFFFFFFFFFFFFFFFFFFFFFFFFFFFF AND EQ PUSH2 0xB13 JUMPI PUSH2 0xB12 DUP2 DUP5 DUP7 PUSH2 0x158F JUMP JUMPDEST JUMPDEST PUSH0 PUSH20 0xFFFFFFFFFFFFFFFFFFFFFFFFFFFFFFFFFFFFFFFF AND DUP2 PUSH20 0xFFFFFFFFFFFFFFFFFFFFFFFFFFFFFFFFFFFFFFFF AND EQ PUSH2 0xB9E JUMPI PUSH2 0xB52 PUSH0 DUP6 PUSH0 DUP1 PUSH2 0x13D0 JUMP JUMPDEST PUSH1 0x1 PUSH1 0x3 PUSH0 DUP4 PUSH20 0xFFFFFFFFFFFFFFFFFFFFFFFFFFFFFFFFFFFFFFFF AND PUSH20 0xFFFFFFFFFFFFFFFFFFFFFFFFFFFFFFFFFFFFFFFF AND DUP2 MSTORE PUSH1 0x20 ADD SWAP1 DUP2 MSTORE PUSH1 0x20 ADD PUSH0 KECCAK256 PUSH0 DUP3 DUP3 SLOAD SUB SWAP3 POP POP DUP2 SWAP1 SSTORE POP JUMPDEST PUSH0 PUSH20 0xFFFFFFFFFFFFFFFFFFFFFFFFFFFFFFFFFFFFFFFF AND DUP6 PUSH20 0xFFFFFFFFFFFFFFFFFFFFFFFFFFFFFFFFFFFFFFFF AND EQ PUSH2 0xC1D JUMPI PUSH1 0x1 PUSH1 0x3 PUSH0 DUP8 PUSH20 0xFFFFFFFFFFFFFFFFFFFFFFFFFFFFFFFFFFFFFFFF AND PUSH20 0xFFFFFFFFFFFFFFFFFFFFFFFFFFFFFFFFFFFFFFFF AND DUP2 MSTORE PUSH1 0x20 ADD SWAP1 DUP2 MSTORE PUSH1 0x20 ADD PUSH0 KECCAK256 PUSH0 DUP3 DUP3 SLOAD ADD SWAP3 POP POP DUP2 SWAP1 SSTORE POP JUMPDEST DUP5 PUSH1 0x2 PUSH0 DUP7 DUP2 MSTORE PUSH1 0x20 ADD SWAP1 DUP2 MSTORE PUSH1 0x20 ADD PUSH0 KECCAK256 PUSH0 PUSH2 0x100 EXP DUP2 SLOAD DUP2 PUSH20 0xFFFFFFFFFFFFFFFFFFFFFFFFFFFFFFFFFFFFFFFF MUL NOT AND SWAP1 DUP4 PUSH20 0xFFFFFFFFFFFFFFFFFFFFFFFFFFFFFFFFFFFFFFFF AND MUL OR SWAP1 SSTORE POP DUP4 DUP6 PUSH20 0xFFFFFFFFFFFFFFFFFFFFFFFFFFFFFFFFFFFFFFFF AND DUP3 PUSH20 0xFFFFFFFFFFFFFFFFFFFFFFFFFFFFFFFFFFFFFFFF AND PUSH32 0xDDF252AD1BE2C89B69C2B068FC378DAA952BA7F163C4A11628F55A4DF523B3EF PUSH1 0x40 MLOAD PUSH1 0x40 MLOAD DUP1 SWAP2 SUB SWAP1 LOG4 DUP1 SWAP2 POP POP SWAP4 SWAP3 POP POP POP JUMP JUMPDEST PUSH2 0xCDA PUSH2 0xAAE JUMP JUMPDEST PUSH20 0xFFFFFFFFFFFFFFFFFFFFFFFFFFFFFFFFFFFFFFFF AND PUSH2 0xCF8 PUSH2 0x71C JUMP JUMPDEST PUSH20 0xFFFFFFFFFFFFFFFFFFFFFFFFFFFFFFFFFFFFFFFF AND EQ PUSH2 0xD57 JUMPI PUSH2 0xD1B PUSH2 0xAAE JUMP JUMPDEST PUSH1 0x40 MLOAD PUSH32 0x118CDAA700000000000000000000000000000000000000000000000000000000 DUP2 MSTORE PUSH1 0x4 ADD PUSH2 0xD4E SWAP2 SWAP1 PUSH2 0x1903 JUMP JUMPDEST PUSH1 0x40 MLOAD DUP1 SWAP2 SUB SWAP1 REVERT JUMPDEST JUMP JUMPDEST PUSH0 PUSH20 0xFFFFFFFFFFFFFFFFFFFFFFFFFFFFFFFFFFFFFFFF AND DUP3 PUSH20 0xFFFFFFFFFFFFFFFFFFFFFFFFFFFFFFFFFFFFFFFF AND SUB PUSH2 0xDC9 JUMPI PUSH0 PUSH1 0x40 MLOAD PUSH32 0x64A0AE9200000000000000000000000000000000000000000000000000000000 DUP2 MSTORE PUSH1 0x4 ADD PUSH2 0xDC0 SWAP2 SWAP1 PUSH2 0x1903 JUMP JUMPDEST PUSH1 0x40 MLOAD DUP1 SWAP2 SUB SWAP1 REVERT JUMPDEST PUSH0 PUSH2 0xDD5 DUP4 DUP4 PUSH0 PUSH2 0xAC7 JUMP JUMPDEST SWAP1 POP PUSH0 PUSH20 0xFFFFFFFFFFFFFFFFFFFFFFFFFFFFFFFFFFFFFFFF AND DUP2 PUSH20 0xFFFFFFFFFFFFFFFFFFFFFFFFFFFFFFFFFFFFFFFF AND EQ PUSH2 0xE47 JUMPI PUSH0 PUSH1 0x40 MLOAD PUSH32 0x73C6AC6E00000000000000000000000000000000000000000000000000000000 DUP2 MSTORE PUSH1 0x4 ADD PUSH2 0xE3E SWAP2 SWAP1 PUSH2 0x1903 JUMP JUMPDEST PUSH1 0x40 MLOAD DUP1 SWAP2 SUB SWAP1 REVERT JUMPDEST POP POP POP JUMP JUMPDEST PUSH0 PUSH1 0x6 PUSH0 SWAP1 SLOAD SWAP1 PUSH2 0x100 EXP SWAP1 DIV PUSH20 0xFFFFFFFFFFFFFFFFFFFFFFFFFFFFFFFFFFFFFFFF AND SWAP1 POP DUP2 PUSH1 0x6 PUSH0 PUSH2 0x100 EXP DUP2 SLOAD DUP2 PUSH20 0xFFFFFFFFFFFFFFFFFFFFFFFFFFFFFFFFFFFFFFFF MUL NOT AND SWAP1 DUP4 PUSH20 0xFFFFFFFFFFFFFFFFFFFFFFFFFFFFFFFFFFFFFFFF AND MUL OR SWAP1 SSTORE POP DUP2 PUSH20 0xFFFFFFFFFFFFFFFFFFFFFFFFFFFFFFFFFFFFFFFF AND DUP2 PUSH20 0xFFFFFFFFFFFFFFFFFFFFFFFFFFFFFFFFFFFFFFFF AND PUSH32 0x8BE0079C531659141344CD1FD0A4F28419497F9722A3DAAFE3B4186F6B6457E0 PUSH1 0x40 MLOAD PUSH1 0x40 MLOAD DUP1 SWAP2 SUB SWAP1 LOG3 POP POP JUMP JUMPDEST PUSH0 PUSH20 0xFFFFFFFFFFFFFFFFFFFFFFFFFFFFFFFFFFFFFFFF AND DUP3 PUSH20 0xFFFFFFFFFFFFFFFFFFFFFFFFFFFFFFFFFFFFFFFF AND SUB PUSH2 0xF7F JUMPI DUP2 PUSH1 0x40 MLOAD PUSH32 0x5B08BA1800000000000000000000000000000000000000000000000000000000 DUP2 MSTORE PUSH1 0x4 ADD PUSH2 0xF76 SWAP2 SWAP1 PUSH2 0x1903 JUMP JUMPDEST PUSH1 0x40 MLOAD DUP1 SWAP2 SUB SWAP1 REVERT JUMPDEST DUP1 PUSH1 0x5 PUSH0 DUP6 PUSH20 0xFFFFFFFFFFFFFFFFFFFFFFFFFFFFFFFFFFFFFFFF AND PUSH20 0xFFFFFFFFFFFFFFFFFFFFFFFFFFFFFFFFFFFFFFFF AND DUP2 MSTORE PUSH1 0x20 ADD SWAP1 DUP2 MSTORE PUSH1 0x20 ADD PUSH0 KECCAK256 PUSH0 DUP5 PUSH20 0xFFFFFFFFFFFFFFFFFFFFFFFFFFFFFFFFFFFFFFFF AND PUSH20 0xFFFFFFFFFFFFFFFFFFFFFFFFFFFFFFFFFFFFFFFF AND DUP2 MSTORE PUSH1 0x20 ADD SWAP1 DUP2 MSTORE PUSH1 0x20 ADD PUSH0 KECCAK256 PUSH0 PUSH2 0x100 EXP DUP2 SLOAD DUP2 PUSH1 0xFF MUL NOT AND SWAP1 DUP4 ISZERO ISZERO MUL OR SWAP1 SSTORE POP DUP2 PUSH20 0xFFFFFFFFFFFFFFFFFFFFFFFFFFFFFFFFFFFFFFFF AND DUP4 PUSH20 0xFFFFFFFFFFFFFFFFFFFFFFFFFFFFFFFFFFFFFFFF AND PUSH32 0x17307EAB39AB6107E8899845AD3D59BD9653F200F220920489CA2B5937696C31 DUP4 PUSH1 0x40 MLOAD PUSH2 0x106B SWAP2 SWAP1 PUSH2 0x17BD JUMP JUMPDEST PUSH1 0x40 MLOAD DUP1 SWAP2 SUB SWAP1 LOG3 POP POP POP JUMP JUMPDEST PUSH0 DUP4 PUSH20 0xFFFFFFFFFFFFFFFFFFFFFFFFFFFFFFFFFFFFFFFF AND EXTCODESIZE GT ISZERO PUSH2 0x1224 JUMPI DUP3 PUSH20 0xFFFFFFFFFFFFFFFFFFFFFFFFFFFFFFFFFFFFFFFF AND PUSH4 0x150B7A02 PUSH2 0x10BB PUSH2 0xAAE JUMP JUMPDEST DUP7 DUP6 DUP6 PUSH1 0x40 MLOAD DUP6 PUSH4 0xFFFFFFFF AND PUSH1 0xE0 SHL DUP2 MSTORE PUSH1 0x4 ADD PUSH2 0x10DD SWAP5 SWAP4 SWAP3 SWAP2 SWAP1 PUSH2 0x2107 JUMP JUMPDEST PUSH1 0x20 PUSH1 0x40 MLOAD DUP1 DUP4 SUB DUP2 PUSH0 DUP8 GAS CALL SWAP3 POP POP POP DUP1 ISZERO PUSH2 0x1118 JUMPI POP PUSH1 0x40 MLOAD RETURNDATASIZE PUSH1 0x1F NOT PUSH1 0x1F DUP3 ADD AND DUP3 ADD DUP1 PUSH1 0x40 MSTORE POP DUP2 ADD SWAP1 PUSH2 0x1115 SWAP2 SWAP1 PUSH2 0x2165 JUMP JUMPDEST PUSH1 0x1 JUMPDEST PUSH2 0x1199 JUMPI RETURNDATASIZE DUP1 PUSH0 DUP2 EQ PUSH2 0x1146 JUMPI PUSH1 0x40 MLOAD SWAP2 POP PUSH1 0x1F NOT PUSH1 0x3F RETURNDATASIZE ADD AND DUP3 ADD PUSH1 0x40 MSTORE RETURNDATASIZE DUP3 MSTORE RETURNDATASIZE PUSH0 PUSH1 0x20 DUP5 ADD RETURNDATACOPY PUSH2 0x114B JUMP JUMPDEST PUSH1 0x60 SWAP2 POP JUMPDEST POP PUSH0 DUP2 MLOAD SUB PUSH2 0x1191 JUMPI DUP4 PUSH1 0x40 MLOAD PUSH32 0x64A0AE9200000000000000000000000000000000000000000000000000000000 DUP2 MSTORE PUSH1 0x4 ADD PUSH2 0x1188 SWAP2 SWAP1 PUSH2 0x1903 JUMP JUMPDEST PUSH1 0x40 MLOAD DUP1 SWAP2 SUB SWAP1 REVERT JUMPDEST DUP1 MLOAD DUP2 PUSH1 0x20 ADD REVERT JUMPDEST PUSH4 0x150B7A02 PUSH1 0xE0 SHL PUSH28 0xFFFFFFFFFFFFFFFFFFFFFFFFFFFFFFFFFFFFFFFFFFFFFFFFFFFFFFFF NOT AND DUP2 PUSH28 0xFFFFFFFFFFFFFFFFFFFFFFFFFFFFFFFFFFFFFFFFFFFFFFFFFFFFFFFF NOT AND EQ PUSH2 0x1222 JUMPI DUP4 PUSH1 0x40 MLOAD PUSH32 0x64A0AE9200000000000000000000000000000000000000000000000000000000 DUP2 MSTORE PUSH1 0x4 ADD PUSH2 0x1219 SWAP2 SWAP1 PUSH2 0x1903 JUMP JUMPDEST PUSH1 0x40 MLOAD DUP1 SWAP2 SUB SWAP1 REVERT JUMPDEST POP JUMPDEST POP POP POP POP JUMP JUMPDEST PUSH1 0x60 PUSH0 DUP3 MLOAD SUB PUSH2 0x124A JUMPI PUSH1 0x40 MLOAD DUP1 PUSH1 0x20 ADD PUSH1 0x40 MSTORE DUP1 PUSH0 DUP2 MSTORE POP SWAP1 POP PUSH2 0x1392 JUMP JUMPDEST PUSH0 PUSH1 0x40 MLOAD DUP1 PUSH1 0x60 ADD PUSH1 0x40 MSTORE DUP1 PUSH1 0x40 DUP2 MSTORE PUSH1 0x20 ADD PUSH2 0x2289 PUSH1 0x40 SWAP2 CODECOPY SWAP1 POP PUSH0 PUSH1 0x3 PUSH1 0x2 DUP6 MLOAD PUSH2 0x1277 SWAP2 SWAP1 PUSH2 0x2190 JUMP JUMPDEST PUSH2 0x1281 SWAP2 SWAP1 PUSH2 0x21F0 JUMP JUMPDEST PUSH1 0x4 PUSH2 0x128D SWAP2 SWAP1 PUSH2 0x2220 JUMP JUMPDEST PUSH8 0xFFFFFFFFFFFFFFFF DUP2 GT ISZERO PUSH2 0x12A6 JUMPI PUSH2 0x12A5 PUSH2 0x1A97 JUMP JUMPDEST JUMPDEST PUSH1 0x40 MLOAD SWAP1 DUP1 DUP3 MSTORE DUP1 PUSH1 0x1F ADD PUSH1 0x1F NOT AND PUSH1 0x20 ADD DUP3 ADD PUSH1 0x40 MSTORE DUP1 ISZERO PUSH2 0x12D8 JUMPI DUP2 PUSH1 0x20 ADD PUSH1 0x1 DUP3 MUL DUP1 CALLDATASIZE DUP4 CALLDATACOPY DUP1 DUP3 ADD SWAP2 POP POP SWAP1 POP JUMPDEST POP SWAP1 POP PUSH1 0x1 DUP3 ADD PUSH1 0x20 DUP3 ADD DUP6 DUP7 MLOAD DUP8 ADD PUSH1 0x20 DUP2 ADD DUP1 MLOAD PUSH0 DUP3 MSTORE JUMPDEST DUP3 DUP5 LT ISZERO PUSH2 0x134D JUMPI PUSH1 0x3 DUP5 ADD SWAP4 POP DUP4 MLOAD PUSH1 0x3F DUP2 PUSH1 0x12 SHR AND DUP8 ADD MLOAD DUP7 MSTORE8 PUSH1 0x1 DUP7 ADD SWAP6 POP PUSH1 0x3F DUP2 PUSH1 0xC SHR AND DUP8 ADD MLOAD DUP7 MSTORE8 PUSH1 0x1 DUP7 ADD SWAP6 POP PUSH1 0x3F DUP2 PUSH1 0x6 SHR AND DUP8 ADD MLOAD DUP7 MSTORE8 PUSH1 0x1 DUP7 ADD SWAP6 POP PUSH1 0x3F DUP2 AND DUP8 ADD MLOAD DUP7 MSTORE8 PUSH1 0x1 DUP7 ADD SWAP6 POP POP PUSH2 0x12F2 JUMP JUMPDEST DUP1 DUP3 MSTORE PUSH1 0x3 DUP11 MLOAD MOD PUSH1 0x1 DUP2 EQ PUSH2 0x136A JUMPI PUSH1 0x2 DUP2 EQ PUSH2 0x137D JUMPI PUSH2 0x1385 JUMP JUMPDEST PUSH1 0x3D PUSH1 0x1 DUP8 SUB MSTORE8 PUSH1 0x3D PUSH1 0x2 DUP8 SUB MSTORE8 PUSH2 0x1385 JUMP JUMPDEST PUSH1 0x3D PUSH1 0x1 DUP8 SUB MSTORE8 JUMPDEST POP POP POP POP POP POP POP DUP1 SWAP3 POP POP POP JUMPDEST SWAP2 SWAP1 POP JUMP JUMPDEST PUSH0 PUSH1 0x2 PUSH0 DUP4 DUP2 MSTORE PUSH1 0x20 ADD SWAP1 DUP2 MSTORE PUSH1 0x20 ADD PUSH0 KECCAK256 PUSH0 SWAP1 SLOAD SWAP1 PUSH2 0x100 EXP SWAP1 DIV PUSH20 0xFFFFFFFFFFFFFFFFFFFFFFFFFFFFFFFFFFFFFFFF AND SWAP1 POP SWAP2 SWAP1 POP JUMP JUMPDEST DUP1 DUP1 PUSH2 0x1408 JUMPI POP PUSH0 PUSH20 0xFFFFFFFFFFFFFFFFFFFFFFFFFFFFFFFFFFFFFFFF AND DUP3 PUSH20 0xFFFFFFFFFFFFFFFFFFFFFFFFFFFFFFFFFFFFFFFF AND EQ ISZERO JUMPDEST ISZERO PUSH2 0x153A JUMPI PUSH0 PUSH2 0x1417 DUP5 PUSH2 0x9EF JUMP JUMPDEST SWAP1 POP PUSH0 PUSH20 0xFFFFFFFFFFFFFFFFFFFFFFFFFFFFFFFFFFFFFFFF AND DUP4 PUSH20 0xFFFFFFFFFFFFFFFFFFFFFFFFFFFFFFFFFFFFFFFF AND EQ ISZERO DUP1 ISZERO PUSH2 0x1481 JUMPI POP DUP3 PUSH20 0xFFFFFFFFFFFFFFFFFFFFFFFFFFFFFFFFFFFFFFFF AND DUP2 PUSH20 0xFFFFFFFFFFFFFFFFFFFFFFFFFFFFFFFFFFFFFFFF AND EQ ISZERO JUMPDEST DUP1 ISZERO PUSH2 0x1494 JUMPI POP PUSH2 0x1492 DUP2 DUP5 PUSH2 0x874 JUMP JUMPDEST ISZERO JUMPDEST ISZERO PUSH2 0x14D6 JUMPI DUP3 PUSH1 0x40 MLOAD PUSH32 0xA9FBF51F00000000000000000000000000000000000000000000000000000000 DUP2 MSTORE PUSH1 0x4 ADD PUSH2 0x14CD SWAP2 SWAP1 PUSH2 0x1903 JUMP JUMPDEST PUSH1 0x40 MLOAD DUP1 SWAP2 SUB SWAP1 REVERT JUMPDEST DUP2 ISZERO PUSH2 0x1538 JUMPI DUP4 DUP6 PUSH20 0xFFFFFFFFFFFFFFFFFFFFFFFFFFFFFFFFFFFFFFFF AND DUP3 PUSH20 0xFFFFFFFFFFFFFFFFFFFFFFFFFFFFFFFFFFFFFFFF AND PUSH32 0x8C5BE1E5EBEC7D5BD14F71427D1E84F3DD0314C0F7B2291E5B200AC8C7C3B925 PUSH1 0x40 MLOAD PUSH1 0x40 MLOAD DUP1 SWAP2 SUB SWAP1 LOG4 JUMPDEST POP JUMPDEST DUP4 PUSH1 0x4 PUSH0 DUP6 DUP2 MSTORE PUSH1 0x20 ADD SWAP1 DUP2 MSTORE PUSH1 0x20 ADD PUSH0 KECCAK256 PUSH0 PUSH2 0x100 EXP DUP2 SLOAD DUP2 PUSH20 0xFFFFFFFFFFFFFFFFFFFFFFFFFFFFFFFFFFFFFFFF MUL NOT AND SWAP1 DUP4 PUSH20 0xFFFFFFFFFFFFFFFFFFFFFFFFFFFFFFFFFFFFFFFF AND MUL OR SWAP1 SSTORE POP POP POP POP POP JUMP JUMPDEST PUSH2 0x159A DUP4 DUP4 DUP4 PUSH2 0x1652 JUMP JUMPDEST PUSH2 0x164D JUMPI PUSH0 PUSH20 0xFFFFFFFFFFFFFFFFFFFFFFFFFFFFFFFFFFFFFFFF AND DUP4 PUSH20 0xFFFFFFFFFFFFFFFFFFFFFFFFFFFFFFFFFFFFFFFF AND SUB PUSH2 0x160E JUMPI DUP1 PUSH1 0x40 MLOAD PUSH32 0x7E27328900000000000000000000000000000000000000000000000000000000 DUP2 MSTORE PUSH1 0x4 ADD PUSH2 0x1605 SWAP2 SWAP1 PUSH2 0x1A0E JUMP JUMPDEST PUSH1 0x40 MLOAD DUP1 SWAP2 SUB SWAP1 REVERT JUMPDEST DUP2 DUP2 PUSH1 0x40 MLOAD PUSH32 0x177E802F00000000000000000000000000000000000000000000000000000000 DUP2 MSTORE PUSH1 0x4 ADD PUSH2 0x1644 SWAP3 SWAP2 SWAP1 PUSH2 0x2261 JUMP JUMPDEST PUSH1 0x40 MLOAD DUP1 SWAP2 SUB SWAP1 REVERT JUMPDEST POP POP POP JUMP JUMPDEST PUSH0 DUP1 PUSH20 0xFFFFFFFFFFFFFFFFFFFFFFFFFFFFFFFFFFFFFFFF AND DUP4 PUSH20 0xFFFFFFFFFFFFFFFFFFFFFFFFFFFFFFFFFFFFFFFF AND EQ ISZERO DUP1 ISZERO PUSH2 0x1709 JUMPI POP DUP3 PUSH20 0xFFFFFFFFFFFFFFFFFFFFFFFFFFFFFFFFFFFFFFFF AND DUP5 PUSH20 0xFFFFFFFFFFFFFFFFFFFFFFFFFFFFFFFFFFFFFFFF AND EQ DUP1 PUSH2 0x16CA JUMPI POP PUSH2 0x16C9 DUP5 DUP5 PUSH2 0x874 JUMP JUMPDEST JUMPDEST DUP1 PUSH2 0x1708 JUMPI POP DUP3 PUSH20 0xFFFFFFFFFFFFFFFFFFFFFFFFFFFFFFFFFFFFFFFF AND PUSH2 0x16F0 DUP4 PUSH2 0xA75 JUMP JUMPDEST PUSH20 0xFFFFFFFFFFFFFFFFFFFFFFFFFFFFFFFFFFFFFFFF AND EQ JUMPDEST JUMPDEST SWAP1 POP SWAP4 SWAP3 POP POP POP JUMP JUMPDEST PUSH0 PUSH1 0x40 MLOAD SWAP1 POP SWAP1 JUMP JUMPDEST PUSH0 DUP1 REVERT JUMPDEST PUSH0 DUP1 REVERT JUMPDEST PUSH0 PUSH32 0xFFFFFFFF00000000000000000000000000000000000000000000000000000000 DUP3 AND SWAP1 POP SWAP2 SWAP1 POP JUMP JUMPDEST PUSH2 0x1757 DUP2 PUSH2 0x1723 JUMP JUMPDEST DUP2 EQ PUSH2 0x1761 JUMPI PUSH0 DUP1 REVERT JUMPDEST POP JUMP JUMPDEST PUSH0 DUP2 CALLDATALOAD SWAP1 POP PUSH2 0x1772 DUP2 PUSH2 0x174E JUMP JUMPDEST SWAP3 SWAP2 POP POP JUMP JUMPDEST PUSH0 PUSH1 0x20 DUP3 DUP5 SUB SLT ISZERO PUSH2 0x178D JUMPI PUSH2 0x178C PUSH2 0x171B JUMP JUMPDEST JUMPDEST PUSH0 PUSH2 0x179A DUP5 DUP3 DUP6 ADD PUSH2 0x1764 JUMP JUMPDEST SWAP2 POP POP SWAP3 SWAP2 POP POP JUMP JUMPDEST PUSH0 DUP2 ISZERO ISZERO SWAP1 POP SWAP2 SWAP1 POP JUMP JUMPDEST PUSH2 0x17B7 DUP2 PUSH2 0x17A3 JUMP JUMPDEST DUP3 MSTORE POP POP JUMP JUMPDEST PUSH0 PUSH1 0x20 DUP3 ADD SWAP1 POP PUSH2 0x17D0 PUSH0 DUP4 ADD DUP5 PUSH2 0x17AE JUMP JUMPDEST SWAP3 SWAP2 POP POP JUMP JUMPDEST PUSH0 DUP2 MLOAD SWAP1 POP SWAP2 SWAP1 POP JUMP JUMPDEST PUSH0 DUP3 DUP3 MSTORE PUSH1 0x20 DUP3 ADD SWAP1 POP SWAP3 SWAP2 POP POP JUMP JUMPDEST DUP3 DUP2 DUP4 MCOPY PUSH0 DUP4 DUP4 ADD MSTORE POP POP POP JUMP JUMPDEST PUSH0 PUSH1 0x1F NOT PUSH1 0x1F DUP4 ADD AND SWAP1 POP SWAP2 SWAP1 POP JUMP JUMPDEST PUSH0 PUSH2 0x1818 DUP3 PUSH2 0x17D6 JUMP JUMPDEST PUSH2 0x1822 DUP2 DUP6 PUSH2 0x17E0 JUMP JUMPDEST SWAP4 POP PUSH2 0x1832 DUP2 DUP6 PUSH1 0x20 DUP7 ADD PUSH2 0x17F0 JUMP JUMPDEST PUSH2 0x183B DUP2 PUSH2 0x17FE JUMP JUMPDEST DUP5 ADD SWAP2 POP POP SWAP3 SWAP2 POP POP JUMP JUMPDEST PUSH0 PUSH1 0x20 DUP3 ADD SWAP1 POP DUP2 DUP2 SUB PUSH0 DUP4 ADD MSTORE PUSH2 0x185E DUP2 DUP5 PUSH2 0x180E JUMP JUMPDEST SWAP1 POP SWAP3 SWAP2 POP POP JUMP JUMPDEST PUSH0 DUP2 SWAP1 POP SWAP2 SWAP1 POP JUMP JUMPDEST PUSH2 0x1878 DUP2 PUSH2 0x1866 JUMP JUMPDEST DUP2 EQ PUSH2 0x1882 JUMPI PUSH0 DUP1 REVERT JUMPDEST POP JUMP JUMPDEST PUSH0 DUP2 CALLDATALOAD SWAP1 POP PUSH2 0x1893 DUP2 PUSH2 0x186F JUMP JUMPDEST SWAP3 SWAP2 POP POP JUMP JUMPDEST PUSH0 PUSH1 0x20 DUP3 DUP5 SUB SLT ISZERO PUSH2 0x18AE JUMPI PUSH2 0x18AD PUSH2 0x171B JUMP JUMPDEST JUMPDEST PUSH0 PUSH2 0x18BB DUP5 DUP3 DUP6 ADD PUSH2 0x1885 JUMP JUMPDEST SWAP2 POP POP SWAP3 SWAP2 POP POP JUMP JUMPDEST PUSH0 PUSH20 0xFFFFFFFFFFFFFFFFFFFFFFFFFFFFFFFFFFFFFFFF DUP3 AND SWAP1 POP SWAP2 SWAP1 POP JUMP JUMPDEST PUSH0 PUSH2 0x18ED DUP3 PUSH2 0x18C4 JUMP JUMPDEST SWAP1 POP SWAP2 SWAP1 POP JUMP JUMPDEST PUSH2 0x18FD DUP2 PUSH2 0x18E3 JUMP JUMPDEST DUP3 MSTORE POP POP JUMP JUMPDEST PUSH0 PUSH1 0x20 DUP3 ADD SWAP1 POP PUSH2 0x1916 PUSH0 DUP4 ADD DUP5 PUSH2 0x18F4 JUMP JUMPDEST SWAP3 SWAP2 POP POP JUMP JUMPDEST PUSH2 0x1925 DUP2 PUSH2 0x18E3 JUMP JUMPDEST DUP2 EQ PUSH2 0x192F JUMPI PUSH0 DUP1 REVERT JUMPDEST POP JUMP JUMPDEST PUSH0 DUP2 CALLDATALOAD SWAP1 POP PUSH2 0x1940 DUP2 PUSH2 0x191C JUMP JUMPDEST SWAP3 SWAP2 POP POP JUMP JUMPDEST PUSH0 DUP1 PUSH1 0x40 DUP4 DUP6 SUB SLT ISZERO PUSH2 0x195C JUMPI PUSH2 0x195B PUSH2 0x171B JUMP JUMPDEST JUMPDEST PUSH0 PUSH2 0x1969 DUP6 DUP3 DUP7 ADD PUSH2 0x1932 JUMP JUMPDEST SWAP3 POP POP PUSH1 0x20 PUSH2 0x197A DUP6 DUP3 DUP7 ADD PUSH2 0x1885 JUMP JUMPDEST SWAP2 POP POP SWAP3 POP SWAP3 SWAP1 POP JUMP JUMPDEST PUSH0 DUP1 PUSH0 PUSH1 0x60 DUP5 DUP7 SUB SLT ISZERO PUSH2 0x199B JUMPI PUSH2 0x199A PUSH2 0x171B JUMP JUMPDEST JUMPDEST PUSH0 PUSH2 0x19A8 DUP7 DUP3 DUP8 ADD PUSH2 0x1932 JUMP JUMPDEST SWAP4 POP POP PUSH1 0x20 PUSH2 0x19B9 DUP7 DUP3 DUP8 ADD PUSH2 0x1932 JUMP JUMPDEST SWAP3 POP POP PUSH1 0x40 PUSH2 0x19CA DUP7 DUP3 DUP8 ADD PUSH2 0x1885 JUMP JUMPDEST SWAP2 POP POP SWAP3 POP SWAP3 POP SWAP3 JUMP JUMPDEST PUSH0 PUSH1 0x20 DUP3 DUP5 SUB SLT ISZERO PUSH2 0x19E9 JUMPI PUSH2 0x19E8 PUSH2 0x171B JUMP JUMPDEST JUMPDEST PUSH0 PUSH2 0x19F6 DUP5 DUP3 DUP6 ADD PUSH2 0x1932 JUMP JUMPDEST SWAP2 POP POP SWAP3 SWAP2 POP POP JUMP JUMPDEST PUSH2 0x1A08 DUP2 PUSH2 0x1866 JUMP JUMPDEST DUP3 MSTORE POP POP JUMP JUMPDEST PUSH0 PUSH1 0x20 DUP3 ADD SWAP1 POP PUSH2 0x1A21 PUSH0 DUP4 ADD DUP5 PUSH2 0x19FF JUMP JUMPDEST SWAP3 SWAP2 POP POP JUMP JUMPDEST PUSH2 0x1A30 DUP2 PUSH2 0x17A3 JUMP JUMPDEST DUP2 EQ PUSH2 0x1A3A JUMPI PUSH0 DUP1 REVERT JUMPDEST POP JUMP JUMPDEST PUSH0 DUP2 CALLDATALOAD SWAP1 POP PUSH2 0x1A4B DUP2 PUSH2 0x1A27 JUMP JUMPDEST SWAP3 SWAP2 POP POP JUMP JUMPDEST PUSH0 DUP1 PUSH1 0x40 DUP4 DUP6 SUB SLT ISZERO PUSH2 0x1A67 JUMPI PUSH2 0x1A66 PUSH2 0x171B JUMP JUMPDEST JUMPDEST PUSH0 PUSH2 0x1A74 DUP6 DUP3 DUP7 ADD PUSH2 0x1932 JUMP JUMPDEST SWAP3 POP POP PUSH1 0x20 PUSH2 0x1A85 DUP6 DUP3 DUP7 ADD PUSH2 0x1A3D JUMP JUMPDEST SWAP2 POP POP SWAP3 POP SWAP3 SWAP1 POP JUMP JUMPDEST PUSH0 DUP1 REVERT JUMPDEST PUSH0 DUP1 REVERT JUMPDEST PUSH32 0x4E487B7100000000000000000000000000000000000000000000000000000000 PUSH0 MSTORE PUSH1 0x41 PUSH1 0x4 MSTORE PUSH1 0x24 PUSH0 REVERT JUMPDEST PUSH2 0x1ACD DUP3 PUSH2 0x17FE JUMP JUMPDEST DUP2 ADD DUP2 DUP2 LT PUSH8 0xFFFFFFFFFFFFFFFF DUP3 GT OR ISZERO PUSH2 0x1AEC JUMPI PUSH2 0x1AEB PUSH2 0x1A97 JUMP JUMPDEST JUMPDEST DUP1 PUSH1 0x40 MSTORE POP POP POP JUMP JUMPDEST PUSH0 PUSH2 0x1AFE PUSH2 0x1712 JUMP JUMPDEST SWAP1 POP PUSH2 0x1B0A DUP3 DUP3 PUSH2 0x1AC4 JUMP JUMPDEST SWAP2 SWAP1 POP JUMP JUMPDEST PUSH0 PUSH8 0xFFFFFFFFFFFFFFFF DUP3 GT ISZERO PUSH2 0x1B29 JUMPI PUSH2 0x1B28 PUSH2 0x1A97 JUMP JUMPDEST JUMPDEST PUSH2 0x1B32 DUP3 PUSH2 0x17FE JUMP JUMPDEST SWAP1 POP PUSH1 0x20 DUP2 ADD SWAP1 POP SWAP2 SWAP1 POP JUMP JUMPDEST DUP3 DUP2 DUP4 CALLDATACOPY PUSH0 DUP4 DUP4 ADD MSTORE POP POP POP JUMP JUMPDEST PUSH0 PUSH2 0x1B5F PUSH2 0x1B5A DUP5 PUSH2 0x1B0F JUMP JUMPDEST PUSH2 0x1AF5 JUMP JUMPDEST SWAP1 POP DUP3 DUP2 MSTORE PUSH1 0x20 DUP2 ADD DUP5 DUP5 DUP5 ADD GT ISZERO PUSH2 0x1B7B JUMPI PUSH2 0x1B7A PUSH2 0x1A93 JUMP JUMPDEST JUMPDEST PUSH2 0x1B86 DUP5 DUP3 DUP6 PUSH2 0x1B3F JUMP JUMPDEST POP SWAP4 SWAP3 POP POP POP JUMP JUMPDEST PUSH0 DUP3 PUSH1 0x1F DUP4 ADD SLT PUSH2 0x1BA2 JUMPI PUSH2 0x1BA1 PUSH2 0x1A8F JUMP JUMPDEST JUMPDEST DUP2 CALLDATALOAD PUSH2 0x1BB2 DUP5 DUP3 PUSH1 0x20 DUP7 ADD PUSH2 0x1B4D JUMP JUMPDEST SWAP2 POP POP SWAP3 SWAP2 POP POP JUMP JUMPDEST PUSH0 DUP1 PUSH0 DUP1 PUSH1 0x80 DUP6 DUP8 SUB SLT ISZERO PUSH2 0x1BD3 JUMPI PUSH2 0x1BD2 PUSH2 0x171B JUMP JUMPDEST JUMPDEST PUSH0 PUSH2 0x1BE0 DUP8 DUP3 DUP9 ADD PUSH2 0x1932 JUMP JUMPDEST SWAP5 POP POP PUSH1 0x20 PUSH2 0x1BF1 DUP8 DUP3 DUP9 ADD PUSH2 0x1932 JUMP JUMPDEST SWAP4 POP POP PUSH1 0x40 PUSH2 0x1C02 DUP8 DUP3 DUP9 ADD PUSH2 0x1885 JUMP JUMPDEST SWAP3 POP POP PUSH1 0x60 DUP6 ADD CALLDATALOAD PUSH8 0xFFFFFFFFFFFFFFFF DUP2 GT ISZERO PUSH2 0x1C23 JUMPI PUSH2 0x1C22 PUSH2 0x171F JUMP JUMPDEST JUMPDEST PUSH2 0x1C2F DUP8 DUP3 DUP9 ADD PUSH2 0x1B8E JUMP JUMPDEST SWAP2 POP POP SWAP3 SWAP6 SWAP2 SWAP5 POP SWAP3 POP JUMP JUMPDEST PUSH0 DUP1 PUSH1 0x40 DUP4 DUP6 SUB SLT ISZERO PUSH2 0x1C51 JUMPI PUSH2 0x1C50 PUSH2 0x171B JUMP JUMPDEST JUMPDEST PUSH0 PUSH2 0x1C5E DUP6 DUP3 DUP7 ADD PUSH2 0x1932 JUMP JUMPDEST SWAP3 POP POP PUSH1 0x20 PUSH2 0x1C6F DUP6 DUP3 DUP7 ADD PUSH2 0x1932 JUMP JUMPDEST SWAP2 POP POP SWAP3 POP SWAP3 SWAP1 POP JUMP JUMPDEST PUSH32 0x4E487B7100000000000000000000000000000000000000000000000000000000 PUSH0 MSTORE PUSH1 0x22 PUSH1 0x4 MSTORE PUSH1 0x24 PUSH0 REVERT JUMPDEST PUSH0 PUSH1 0x2 DUP3 DIV SWAP1 POP PUSH1 0x1 DUP3 AND DUP1 PUSH2 0x1CBD JUMPI PUSH1 0x7F DUP3 AND SWAP2 POP JUMPDEST PUSH1 0x20 DUP3 LT DUP2 SUB PUSH2 0x1CD0 JUMPI PUSH2 0x1CCF PUSH2 0x1C79 JUMP JUMPDEST JUMPDEST POP SWAP2 SWAP1 POP JUMP JUMPDEST PUSH0 PUSH1 0x60 DUP3 ADD SWAP1 POP PUSH2 0x1CE9 PUSH0 DUP4 ADD DUP7 PUSH2 0x18F4 JUMP JUMPDEST PUSH2 0x1CF6 PUSH1 0x20 DUP4 ADD DUP6 PUSH2 0x19FF JUMP JUMPDEST PUSH2 0x1D03 PUSH1 0x40 DUP4 ADD DUP5 PUSH2 0x18F4 JUMP JUMPDEST SWAP5 SWAP4 POP POP POP POP JUMP JUMPDEST PUSH32 0x4E487B7100000000000000000000000000000000000000000000000000000000 PUSH0 MSTORE PUSH1 0x11 PUSH1 0x4 MSTORE PUSH1 0x24 PUSH0 REVERT JUMPDEST PUSH0 PUSH2 0x1D42 DUP3 PUSH2 0x1866 JUMP JUMPDEST SWAP2 POP PUSH32 0xFFFFFFFFFFFFFFFFFFFFFFFFFFFFFFFFFFFFFFFFFFFFFFFFFFFFFFFFFFFFFFFF DUP3 SUB PUSH2 0x1D74 JUMPI PUSH2 0x1D73 PUSH2 0x1D0B JUMP JUMPDEST JUMPDEST PUSH1 0x1 DUP3 ADD SWAP1 POP SWAP2 SWAP1 POP JUMP JUMPDEST PUSH0 DUP2 SWAP1 POP SWAP3 SWAP2 POP POP JUMP JUMPDEST PUSH32 0x7B226E616D65223A220000000000000000000000000000000000000000000000 PUSH0 DUP3 ADD MSTORE POP JUMP JUMPDEST PUSH0 PUSH2 0x1DBD PUSH1 0x9 DUP4 PUSH2 0x1D7F JUMP JUMPDEST SWAP2 POP PUSH2 0x1DC8 DUP3 PUSH2 0x1D89 JUMP JUMPDEST PUSH1 0x9 DUP3 ADD SWAP1 POP SWAP2 SWAP1 POP JUMP JUMPDEST PUSH0 PUSH2 0x1DDD DUP3 PUSH2 0x17D6 JUMP JUMPDEST PUSH2 0x1DE7 DUP2 DUP6 PUSH2 0x1D7F JUMP JUMPDEST SWAP4 POP PUSH2 0x1DF7 DUP2 DUP6 PUSH1 0x20 DUP7 ADD PUSH2 0x17F0 JUMP JUMPDEST DUP1 DUP5 ADD SWAP2 POP POP SWAP3 SWAP2 POP POP JUMP JUMPDEST PUSH32 0x222C20226465736372697074696F6E223A22416E204E46542074686174207265 PUSH0 DUP3 ADD MSTORE PUSH32 0x666C6563747320746865206F776E657273686970206F662067616D65202D2000 PUSH1 0x20 DUP3 ADD MSTORE POP JUMP JUMPDEST PUSH0 PUSH2 0x1E5D PUSH1 0x3F DUP4 PUSH2 0x1D7F JUMP JUMPDEST SWAP2 POP PUSH2 0x1E68 DUP3 PUSH2 0x1E03 JUMP JUMPDEST PUSH1 0x3F DUP3 ADD SWAP1 POP SWAP2 SWAP1 POP JUMP JUMPDEST PUSH32 0x222C200000000000000000000000000000000000000000000000000000000000 PUSH0 DUP3 ADD MSTORE POP JUMP JUMPDEST PUSH0 PUSH2 0x1EA7 PUSH1 0x3 DUP4 PUSH2 0x1D7F JUMP JUMPDEST SWAP2 POP PUSH2 0x1EB2 DUP3 PUSH2 0x1E73 JUMP JUMPDEST PUSH1 0x3 DUP3 ADD SWAP1 POP SWAP2 SWAP1 POP JUMP JUMPDEST PUSH32 0x22696D616765223A220000000000000000000000000000000000000000000000 PUSH0 DUP3 ADD MSTORE POP JUMP JUMPDEST PUSH0 PUSH2 0x1EF1 PUSH1 0x9 DUP4 PUSH2 0x1D7F JUMP JUMPDEST SWAP2 POP PUSH2 0x1EFC DUP3 PUSH2 0x1EBD JUMP JUMPDEST PUSH1 0x9 DUP3 ADD SWAP1 POP SWAP2 SWAP1 POP JUMP JUMPDEST PUSH0 DUP2 SWAP1 POP DUP2 PUSH0 MSTORE PUSH1 0x20 PUSH0 KECCAK256 SWAP1 POP SWAP2 SWAP1 POP JUMP JUMPDEST PUSH0 DUP2 SLOAD PUSH2 0x1F25 DUP2 PUSH2 0x1CA6 JUMP JUMPDEST PUSH2 0x1F2F DUP2 DUP7 PUSH2 0x1D7F JUMP JUMPDEST SWAP5 POP PUSH1 0x1 DUP3 AND PUSH0 DUP2 EQ PUSH2 0x1F49 JUMPI PUSH1 0x1 DUP2 EQ PUSH2 0x1F5E JUMPI PUSH2 0x1F90 JUMP JUMPDEST PUSH1 0xFF NOT DUP4 AND DUP7 MSTORE DUP2 ISZERO ISZERO DUP3 MUL DUP7 ADD SWAP4 POP PUSH2 0x1F90 JUMP JUMPDEST PUSH2 0x1F67 DUP6 PUSH2 0x1F07 JUMP JUMPDEST PUSH0 JUMPDEST DUP4 DUP2 LT ISZERO PUSH2 0x1F88 JUMPI DUP2 SLOAD DUP2 DUP10 ADD MSTORE PUSH1 0x1 DUP3 ADD SWAP2 POP PUSH1 0x20 DUP2 ADD SWAP1 POP PUSH2 0x1F69 JUMP JUMPDEST DUP4 DUP9 ADD SWAP6 POP POP POP JUMPDEST POP POP POP SWAP3 SWAP2 POP POP JUMP JUMPDEST PUSH32 0x227D000000000000000000000000000000000000000000000000000000000000 PUSH0 DUP3 ADD MSTORE POP JUMP JUMPDEST PUSH0 PUSH2 0x1FCD PUSH1 0x2 DUP4 PUSH2 0x1D7F JUMP JUMPDEST SWAP2 POP PUSH2 0x1FD8 DUP3 PUSH2 0x1F99 JUMP JUMPDEST PUSH1 0x2 DUP3 ADD SWAP1 POP SWAP2 SWAP1 POP JUMP JUMPDEST PUSH0 PUSH2 0x1FED DUP3 PUSH2 0x1DB1 JUMP JUMPDEST SWAP2 POP PUSH2 0x1FF9 DUP3 DUP7 PUSH2 0x1DD3 JUMP JUMPDEST SWAP2 POP PUSH2 0x2004 DUP3 PUSH2 0x1E51 JUMP JUMPDEST SWAP2 POP PUSH2 0x2010 DUP3 DUP6 PUSH2 0x1DD3 JUMP JUMPDEST SWAP2 POP PUSH2 0x201B DUP3 PUSH2 0x1E9B JUMP JUMPDEST SWAP2 POP PUSH2 0x2026 DUP3 PUSH2 0x1EE5 JUMP JUMPDEST SWAP2 POP PUSH2 0x2032 DUP3 DUP5 PUSH2 0x1F19 JUMP JUMPDEST SWAP2 POP PUSH2 0x203D DUP3 PUSH2 0x1FC1 JUMP JUMPDEST SWAP2 POP DUP2 SWAP1 POP SWAP5 SWAP4 POP POP POP POP JUMP JUMPDEST PUSH32 0x646174613A6170706C69636174696F6E2F6A736F6E3B6261736536342C000000 PUSH0 DUP3 ADD MSTORE POP JUMP JUMPDEST PUSH0 PUSH2 0x207E PUSH1 0x1D DUP4 PUSH2 0x1D7F JUMP JUMPDEST SWAP2 POP PUSH2 0x2089 DUP3 PUSH2 0x204A JUMP JUMPDEST PUSH1 0x1D DUP3 ADD SWAP1 POP SWAP2 SWAP1 POP JUMP JUMPDEST PUSH0 PUSH2 0x209E DUP3 PUSH2 0x2072 JUMP JUMPDEST SWAP2 POP PUSH2 0x20AA DUP3 DUP5 PUSH2 0x1DD3 JUMP JUMPDEST SWAP2 POP DUP2 SWAP1 POP SWAP3 SWAP2 POP POP JUMP JUMPDEST PUSH0 DUP2 MLOAD SWAP1 POP SWAP2 SWAP1 POP JUMP JUMPDEST PUSH0 DUP3 DUP3 MSTORE PUSH1 0x20 DUP3 ADD SWAP1 POP SWAP3 SWAP2 POP POP JUMP JUMPDEST PUSH0 PUSH2 0x20D9 DUP3 PUSH2 0x20B5 JUMP JUMPDEST PUSH2 0x20E3 DUP2 DUP6 PUSH2 0x20BF JUMP JUMPDEST SWAP4 POP PUSH2 0x20F3 DUP2 DUP6 PUSH1 0x20 DUP7 ADD PUSH2 0x17F0 JUMP JUMPDEST PUSH2 0x20FC DUP2 PUSH2 0x17FE JUMP JUMPDEST DUP5 ADD SWAP2 POP POP SWAP3 SWAP2 POP POP JUMP JUMPDEST PUSH0 PUSH1 0x80 DUP3 ADD SWAP1 POP PUSH2 0x211A PUSH0 DUP4 ADD DUP8 PUSH2 0x18F4 JUMP JUMPDEST PUSH2 0x2127 PUSH1 0x20 DUP4 ADD DUP7 PUSH2 0x18F4 JUMP JUMPDEST PUSH2 0x2134 PUSH1 0x40 DUP4 ADD DUP6 PUSH2 0x19FF JUMP JUMPDEST DUP2 DUP2 SUB PUSH1 0x60 DUP4 ADD MSTORE PUSH2 0x2146 DUP2 DUP5 PUSH2 0x20CF JUMP JUMPDEST SWAP1 POP SWAP6 SWAP5 POP POP POP POP POP JUMP JUMPDEST PUSH0 DUP2 MLOAD SWAP1 POP PUSH2 0x215F DUP2 PUSH2 0x174E JUMP JUMPDEST SWAP3 SWAP2 POP POP JUMP JUMPDEST PUSH0 PUSH1 0x20 DUP3 DUP5 SUB SLT ISZERO PUSH2 0x217A JUMPI PUSH2 0x2179 PUSH2 0x171B JUMP JUMPDEST JUMPDEST PUSH0 PUSH2 0x2187 DUP5 DUP3 DUP6 ADD PUSH2 0x2151 JUMP JUMPDEST SWAP2 POP POP SWAP3 SWAP2 POP POP JUMP JUMPDEST PUSH0 PUSH2 0x219A DUP3 PUSH2 0x1866 JUMP JUMPDEST SWAP2 POP PUSH2 0x21A5 DUP4 PUSH2 0x1866 JUMP JUMPDEST SWAP3 POP DUP3 DUP3 ADD SWAP1 POP DUP1 DUP3 GT ISZERO PUSH2 0x21BD JUMPI PUSH2 0x21BC PUSH2 0x1D0B JUMP JUMPDEST JUMPDEST SWAP3 SWAP2 POP POP JUMP JUMPDEST PUSH32 0x4E487B7100000000000000000000000000000000000000000000000000000000 PUSH0 MSTORE PUSH1 0x12 PUSH1 0x4 MSTORE PUSH1 0x24 PUSH0 REVERT JUMPDEST PUSH0 PUSH2 0x21FA DUP3 PUSH2 0x1866 JUMP JUMPDEST SWAP2 POP PUSH2 0x2205 DUP4 PUSH2 0x1866 JUMP JUMPDEST SWAP3 POP DUP3 PUSH2 0x2215 JUMPI PUSH2 0x2214 PUSH2 0x21C3 JUMP JUMPDEST JUMPDEST DUP3 DUP3 DIV SWAP1 POP SWAP3 SWAP2 POP POP JUMP JUMPDEST PUSH0 PUSH2 0x222A DUP3 PUSH2 0x1866 JUMP JUMPDEST SWAP2 POP PUSH2 0x2235 DUP4 PUSH2 0x1866 JUMP JUMPDEST SWAP3 POP DUP3 DUP3 MUL PUSH2 0x2243 DUP2 PUSH2 0x1866 JUMP JUMPDEST SWAP2 POP DUP3 DUP3 DIV DUP5 EQ DUP4 ISZERO OR PUSH2 0x225A JUMPI PUSH2 0x2259 PUSH2 0x1D0B JUMP JUMPDEST JUMPDEST POP SWAP3 SWAP2 POP POP JUMP JUMPDEST PUSH0 PUSH1 0x40 DUP3 ADD SWAP1 POP PUSH2 0x2274 PUSH0 DUP4 ADD DUP6 PUSH2 0x18F4 JUMP JUMPDEST PUSH2 0x2281 PUSH1 0x20 DUP4 ADD DUP5 PUSH2 0x19FF JUMP JUMPDEST SWAP4 SWAP3 POP POP POP JUMP INVALID COINBASE TIMESTAMP NUMBER PREVRANDAO GASLIMIT CHAINID SELFBALANCE BASEFEE BLOBHASH BLOBBASEFEE 0x4B 0x4C 0x4D 0x4E 0x4F POP MLOAD MSTORE MSTORE8 SLOAD SSTORE JUMP JUMPI PC MSIZE GAS PUSH2 0x6263 PUSH5 0x6566676869 PUSH11 0x6B6C6D6E6F707172737475 PUSH23 0x7778797A303132333435363738392B2FA2646970667358 0x22 SLT KECCAK256 SSTORE DUP13 0x2D 0xC8 SWAP8 0x27 BLOCKHASH PUSH9 0x477EA829F6DA0F481D 0xAC 0x22 JUMPDEST PUSH12 0x93681C7BF01AB595996B8064 PUSH20 0x6F6C63430008190033A2646970667358221220C0 0xAA 0xB6 0xA8 EXP SWAP14 0xC5 CODESIZE 0xA7 PUSH16 0xB0897FF110D1FB0BB803CA72B832AB9E PUSH11 0xD06CA21A564736F6C6343 STOP ADDMOD NOT STOP CALLER "
	},
	"abi": [
		{
			"inputs": [],
			"name": "GameAlreadyBought",
			"type": "error"
		},
		{
			"inputs": [],
			"name": "GameAlreadyPublished",
			"type": "error"
		},
		{
			"inputs": [],
			"name": "InsufficientFunds",
			"type": "error"
		},
		{
			"inputs": [],
			"name": "InvalidGame",
			"type": "error"
		},
		{
			"anonymous": false,
			"inputs": [
				{
					"indexed": true,
					"internalType": "address",
					"name": "creator",
					"type": "address"
				}
			],
			"name": "CreatorFundsWithdrawn",
			"type": "event"
		},
		{
			"anonymous": false,
			"inputs": [
				{
					"indexed": true,
					"internalType": "string",
					"name": "cid",
					"type": "string"
				},
				{
					"indexed": true,
					"internalType": "address",
					"name": "buyer",
					"type": "address"
				}
			],
			"name": "GamePurchased",
			"type": "event"
		},
		{
			"anonymous": false,
			"inputs": [
				{
					"indexed": true,
					"internalType": "uint256",
					"name": "index",
					"type": "uint256"
				},
				{
					"indexed": true,
					"internalType": "string",
					"name": "cid",
					"type": "string"
				},
				{
					"indexed": true,
					"internalType": "address",
					"name": "gameToken",
					"type": "address"
				}
			],
			"name": "GameTokenCreated",
			"type": "event"
		},
		{
			"inputs": [
				{
					"internalType": "string",
					"name": "_cid",
					"type": "string"
				}
			],
			"name": "buyGame",
			"outputs": [],
			"stateMutability": "payable",
			"type": "function"
		},
		{
			"inputs": [
				{
					"internalType": "string",
					"name": "_cid",
					"type": "string"
				}
			],
			"name": "getGameByCid",
			"outputs": [
				{
					"components": [
						{
							"internalType": "address",
							"name": "creator",
							"type": "address"
						},
						{
							"internalType": "string",
							"name": "cid",
							"type": "string"
						},
						{
							"internalType": "address",
							"name": "token",
							"type": "address"
						},
						{
							"internalType": "string",
							"name": "name",
							"type": "string"
						},
						{
							"internalType": "uint256",
							"name": "price",
							"type": "uint256"
						},
						{
							"internalType": "string",
							"name": "imageUrl",
							"type": "string"
						}
					],
					"internalType": "struct GameFactory.Game",
					"name": "",
					"type": "tuple"
				}
			],
			"stateMutability": "view",
			"type": "function"
		},
		{
			"inputs": [],
			"name": "getGameListLength",
			"outputs": [
				{
					"internalType": "uint256",
					"name": "",
					"type": "uint256"
				}
			],
			"stateMutability": "view",
			"type": "function"
		},
		{
			"inputs": [],
			"name": "getGames",
			"outputs": [
				{
					"components": [
						{
							"internalType": "address",
							"name": "creator",
							"type": "address"
						},
						{
							"internalType": "string",
							"name": "cid",
							"type": "string"
						},
						{
							"internalType": "address",
							"name": "token",
							"type": "address"
						},
						{
							"internalType": "string",
							"name": "name",
							"type": "string"
						},
						{
							"internalType": "uint256",
							"name": "price",
							"type": "uint256"
						},
						{
							"internalType": "string",
							"name": "imageUrl",
							"type": "string"
						}
					],
					"internalType": "struct GameFactory.Game[]",
					"name": "",
					"type": "tuple[]"
				}
			],
			"stateMutability": "view",
			"type": "function"
		},
		{
			"inputs": [
				{
					"internalType": "string",
					"name": "_cid",
					"type": "string"
				}
			],
			"name": "getTokenAddressByCid",
			"outputs": [
				{
					"internalType": "address",
					"name": "",
					"type": "address"
				}
			],
			"stateMutability": "view",
			"type": "function"
		},
		{
			"inputs": [
				{
					"internalType": "string",
					"name": "_cid",
					"type": "string"
				}
			],
			"name": "isGameOwned",
			"outputs": [
				{
					"internalType": "bool",
					"name": "",
					"type": "bool"
				}
			],
			"stateMutability": "view",
			"type": "function"
		},
		{
			"inputs": [
				{
					"internalType": "string",
					"name": "_cid",
					"type": "string"
				},
				{
					"internalType": "string",
					"name": "_name",
					"type": "string"
				},
				{
					"internalType": "string",
					"name": "_symbol",
					"type": "string"
				},
				{
					"internalType": "uint256",
					"name": "price",
					"type": "uint256"
				},
				{
					"internalType": "string",
					"name": "_imageUrl",
					"type": "string"
				}
			],
			"name": "publishGame",
			"outputs": [],
			"stateMutability": "nonpayable",
			"type": "function"
		},
		{
			"inputs": [],
			"name": "withdrawCreatorFunds",
			"outputs": [],
			"stateMutability": "nonpayable",
			"type": "function"
		}
	],
	"storageLayout": {
		"storage": [
			{
				"astId": 3028,
				"contract": "contracts/GameFactory.sol:GameFactory",
				"label": "owner",
				"offset": 0,
				"slot": "0",
				"type": "t_address"
			},
			{
				"astId": 3031,
				"contract": "contracts/GameFactory.sol:GameFactory",
				"label": "fee",
				"offset": 0,
				"slot": "1",
				"type": "t_uint256"
			},
			{
				"astId": 3036,
				"contract": "contracts/GameFactory.sol:GameFactory",
				"label": "games",
				"offset": 0,
				"slot": "2",
				"type": "t_mapping(t_string_memory_ptr,t_struct(Game)3026_storage)"
			},
			{
				"astId": 3039,
				"contract": "contracts/GameFactory.sol:GameFactory",
				"label": "cids",
				"offset": 0,
				"slot": "3",
				"type": "t_array(t_string_storage)dyn_storage"
			},
			{
				"astId": 3043,
				"contract": "contracts/GameFactory.sol:GameFactory",
				"label": "creatorbalance",
				"offset": 0,
				"slot": "4",
				"type": "t_mapping(t_address,t_uint256)"
			}
		],
		"types": {
			"t_address": {
				"encoding": "inplace",
				"label": "address",
				"numberOfBytes": "20"
			},
			"t_array(t_string_storage)dyn_storage": {
				"base": "t_string_storage",
				"encoding": "dynamic_array",
				"label": "string[]",
				"numberOfBytes": "32"
			},
			"t_mapping(t_address,t_uint256)": {
				"encoding": "mapping",
				"key": "t_address",
				"label": "mapping(address => uint256)",
				"numberOfBytes": "32",
				"value": "t_uint256"
			},
			"t_mapping(t_string_memory_ptr,t_struct(Game)3026_storage)": {
				"encoding": "mapping",
				"key": "t_string_memory_ptr",
				"label": "mapping(string => struct GameFactory.Game)",
				"numberOfBytes": "32",
				"value": "t_struct(Game)3026_storage"
			},
			"t_string_memory_ptr": {
				"encoding": "bytes",
				"label": "string",
				"numberOfBytes": "32"
			},
			"t_string_storage": {
				"encoding": "bytes",
				"label": "string",
				"numberOfBytes": "32"
			},
			"t_struct(Game)3026_storage": {
				"encoding": "inplace",
				"label": "struct GameFactory.Game",
				"members": [
					{
						"astId": 3015,
						"contract": "contracts/GameFactory.sol:GameFactory",
						"label": "creator",
						"offset": 0,
						"slot": "0",
						"type": "t_address"
					},
					{
						"astId": 3017,
						"contract": "contracts/GameFactory.sol:GameFactory",
						"label": "cid",
						"offset": 0,
						"slot": "1",
						"type": "t_string_storage"
					},
					{
						"astId": 3019,
						"contract": "contracts/GameFactory.sol:GameFactory",
						"label": "token",
						"offset": 0,
						"slot": "2",
						"type": "t_address"
					},
					{
						"astId": 3021,
						"contract": "contracts/GameFactory.sol:GameFactory",
						"label": "name",
						"offset": 0,
						"slot": "3",
						"type": "t_string_storage"
					},
					{
						"astId": 3023,
						"contract": "contracts/GameFactory.sol:GameFactory",
						"label": "price",
						"offset": 0,
						"slot": "4",
						"type": "t_uint256"
					},
					{
						"astId": 3025,
						"contract": "contracts/GameFactory.sol:GameFactory",
						"label": "imageUrl",
						"offset": 0,
						"slot": "5",
						"type": "t_string_storage"
					}
				],
				"numberOfBytes": "192"
			},
			"t_uint256": {
				"encoding": "inplace",
				"label": "uint256",
				"numberOfBytes": "32"
			}
		}
	},
	"web3Deploy": "var gamefactoryContract = new web3.eth.Contract([{\"inputs\":[],\"name\":\"GameAlreadyBought\",\"type\":\"error\"},{\"inputs\":[],\"name\":\"GameAlreadyPublished\",\"type\":\"error\"},{\"inputs\":[],\"name\":\"InsufficientFunds\",\"type\":\"error\"},{\"inputs\":[],\"name\":\"InvalidGame\",\"type\":\"error\"},{\"anonymous\":false,\"inputs\":[{\"indexed\":true,\"internalType\":\"address\",\"name\":\"creator\",\"type\":\"address\"}],\"name\":\"CreatorFundsWithdrawn\",\"type\":\"event\"},{\"anonymous\":false,\"inputs\":[{\"indexed\":true,\"internalType\":\"string\",\"name\":\"cid\",\"type\":\"string\"},{\"indexed\":true,\"internalType\":\"address\",\"name\":\"buyer\",\"type\":\"address\"}],\"name\":\"GamePurchased\",\"type\":\"event\"},{\"anonymous\":false,\"inputs\":[{\"indexed\":true,\"internalType\":\"uint256\",\"name\":\"index\",\"type\":\"uint256\"},{\"indexed\":true,\"internalType\":\"string\",\"name\":\"cid\",\"type\":\"string\"},{\"indexed\":true,\"internalType\":\"address\",\"name\":\"gameToken\",\"type\":\"address\"}],\"name\":\"GameTokenCreated\",\"type\":\"event\"},{\"inputs\":[{\"internalType\":\"string\",\"name\":\"_cid\",\"type\":\"string\"}],\"name\":\"buyGame\",\"outputs\":[],\"stateMutability\":\"payable\",\"type\":\"function\"},{\"inputs\":[{\"internalType\":\"string\",\"name\":\"_cid\",\"type\":\"string\"}],\"name\":\"getGameByCid\",\"outputs\":[{\"components\":[{\"internalType\":\"address\",\"name\":\"creator\",\"type\":\"address\"},{\"internalType\":\"string\",\"name\":\"cid\",\"type\":\"string\"},{\"internalType\":\"address\",\"name\":\"token\",\"type\":\"address\"},{\"internalType\":\"string\",\"name\":\"name\",\"type\":\"string\"},{\"internalType\":\"uint256\",\"name\":\"price\",\"type\":\"uint256\"},{\"internalType\":\"string\",\"name\":\"imageUrl\",\"type\":\"string\"}],\"internalType\":\"struct GameFactory.Game\",\"name\":\"\",\"type\":\"tuple\"}],\"stateMutability\":\"view\",\"type\":\"function\"},{\"inputs\":[],\"name\":\"getGameListLength\",\"outputs\":[{\"internalType\":\"uint256\",\"name\":\"\",\"type\":\"uint256\"}],\"stateMutability\":\"view\",\"type\":\"function\"},{\"inputs\":[],\"name\":\"getGames\",\"outputs\":[{\"components\":[{\"internalType\":\"address\",\"name\":\"creator\",\"type\":\"address\"},{\"internalType\":\"string\",\"name\":\"cid\",\"type\":\"string\"},{\"internalType\":\"address\",\"name\":\"token\",\"type\":\"address\"},{\"internalType\":\"string\",\"name\":\"name\",\"type\":\"string\"},{\"internalType\":\"uint256\",\"name\":\"price\",\"type\":\"uint256\"},{\"internalType\":\"string\",\"name\":\"imageUrl\",\"type\":\"string\"}],\"internalType\":\"struct GameFactory.Game[]\",\"name\":\"\",\"type\":\"tuple[]\"}],\"stateMutability\":\"view\",\"type\":\"function\"},{\"inputs\":[{\"internalType\":\"string\",\"name\":\"_cid\",\"type\":\"string\"}],\"name\":\"getTokenAddressByCid\",\"outputs\":[{\"internalType\":\"address\",\"name\":\"\",\"type\":\"address\"}],\"stateMutability\":\"view\",\"type\":\"function\"},{\"inputs\":[{\"internalType\":\"string\",\"name\":\"_cid\",\"type\":\"string\"}],\"name\":\"isGameOwned\",\"outputs\":[{\"internalType\":\"bool\",\"name\":\"\",\"type\":\"bool\"}],\"stateMutability\":\"view\",\"type\":\"function\"},{\"inputs\":[{\"internalType\":\"string\",\"name\":\"_cid\",\"type\":\"string\"},{\"internalType\":\"string\",\"name\":\"_name\",\"type\":\"string\"},{\"internalType\":\"string\",\"name\":\"_symbol\",\"type\":\"string\"},{\"internalType\":\"uint256\",\"name\":\"price\",\"type\":\"uint256\"},{\"internalType\":\"string\",\"name\":\"_imageUrl\",\"type\":\"string\"}],\"name\":\"publishGame\",\"outputs\":[],\"stateMutability\":\"nonpayable\",\"type\":\"function\"},{\"inputs\":[],\"name\":\"withdrawCreatorFunds\",\"outputs\":[],\"stateMutability\":\"nonpayable\",\"type\":\"function\"}]);\nvar gamefactory = gamefactoryContract.deploy({\n     data: '0x60806040525f6001553480156012575f80fd5b5061493c806100205f395ff3fe60806040526004361061007a575f3560e01c80638d00fe0b1161004d5780638d00fe0b1461015a578063c04c594714610170578063c379cd781461019a578063dbef6528146101c45761007a565b80632a60d6ca1461007e578063396130b9146100a65780637fd6145c146100e25780638c6471941461011e575b5f80fd5b348015610089575f80fd5b506100a4600480360381019061009f9190611564565b6101e0565b005b3480156100b1575f80fd5b506100cc60048036038101906100c7919061164b565b610517565b6040516100d991906116ac565b60405180910390f35b3480156100ed575f80fd5b506101086004803603810190610103919061164b565b61064a565b6040516101159190611807565b60405180910390f35b348015610129575f80fd5b50610144600480360381019061013f919061164b565b610952565b6040516101519190611836565b60405180910390f35b348015610165575f80fd5b5061016e61099b565b005b34801561017b575f80fd5b50610184610b19565b604051610191919061199e565b60405180910390f35b3480156101a5575f80fd5b506101ae610e60565b6040516101bb91906119cd565b60405180910390f35b6101de60048036038101906101d9919061164b565b610e6c565b005b5f73ffffffffffffffffffffffffffffffffffffffff166002866040516102079190611a20565b90815260200160405180910390205f015f9054906101000a900473ffffffffffffffffffffffffffffffffffffffff1673ffffffffffffffffffffffffffffffffffffffff1614610284576040517f5f4be31c00000000000000000000000000000000000000000000000000000000815260040160405180910390fd5b5f84848360405161029490611378565b6102a093929190611a7e565b604051809103905ff0801580156102b9573d5f803e3d5ffd5b5090508073ffffffffffffffffffffffffffffffffffffffff16636a627842336040518263ffffffff1660e01b81526004016102f59190611836565b5f604051808303815f87803b15801561030c575f80fd5b505af115801561031e573d5f803e3d5ffd5b505050506040518060c001604052803373ffffffffffffffffffffffffffffffffffffffff1681526020018781526020018273ffffffffffffffffffffffffffffffffffffffff1681526020018681526020018481526020018381525060028760405161038b9190611a20565b90815260200160405180910390205f820151815f015f6101000a81548173ffffffffffffffffffffffffffffffffffffffff021916908373ffffffffffffffffffffffffffffffffffffffff16021790555060208201518160010190816103f29190611cc2565b506040820151816002015f6101000a81548173ffffffffffffffffffffffffffffffffffffffff021916908373ffffffffffffffffffffffffffffffffffffffff160217905550606082015181600301908161044e9190611cc2565b506080820151816004015560a082015181600501908161046e9190611cc2565b50905050600386908060018154018082558091505060019003905f5260205f20015f9091909190915090816104a39190611cc2565b508073ffffffffffffffffffffffffffffffffffffffff16866040516104c99190611a20565b604051809103902060016003805490506104e39190611dbe565b7f1b53114c999ded51a67e2c46b7aba69bd40e2d7a5b1e3e4a8b7f12c122ff3a5060405160405180910390a4505050505050565b5f806002836040516105299190611a20565b90815260200160405180910390206002015f9054906101000a900473ffffffffffffffffffffffffffffffffffffffff1690505f73ffffffffffffffffffffffffffffffffffffffff168173ffffffffffffffffffffffffffffffffffffffff16036105c1576040517f57e25a0900000000000000000000000000000000000000000000000000000000815260040160405180910390fd5b5f81905060018173ffffffffffffffffffffffffffffffffffffffff166370a08231336040518263ffffffff1660e01b81526004016106009190611836565b602060405180830381865afa15801561061b573d5f803e3d5ffd5b505050506040513d601f19601f8201168201806040525081019061063f9190611e05565b101592505050919050565b610652611385565b5f6002836040516106639190611a20565b90815260200160405180910390206040518060c00160405290815f82015f9054906101000a900473ffffffffffffffffffffffffffffffffffffffff1673ffffffffffffffffffffffffffffffffffffffff1673ffffffffffffffffffffffffffffffffffffffff1681526020016001820180546106e090611af5565b80601f016020809104026020016040519081016040528092919081815260200182805461070c90611af5565b80156107575780601f1061072e57610100808354040283529160200191610757565b820191905f5260205f20905b81548152906001019060200180831161073a57829003601f168201915b50505050508152602001600282015f9054906101000a900473ffffffffffffffffffffffffffffffffffffffff1673ffffffffffffffffffffffffffffffffffffffff1673ffffffffffffffffffffffffffffffffffffffff1681526020016003820180546107c590611af5565b80601f01602080910402602001604051908101604052809291908181526020018280546107f190611af5565b801561083c5780601f106108135761010080835404028352916020019161083c565b820191905f5260205f20905b81548152906001019060200180831161081f57829003601f168201915b505050505081526020016004820154815260200160058201805461085f90611af5565b80601f016020809104026020016040519081016040528092919081815260200182805461088b90611af5565b80156108d65780601f106108ad576101008083540402835291602001916108d6565b820191905f5260205f20905b8154815290600101906020018083116108b957829003601f168201915b50505050508152505090505f73ffffffffffffffffffffffffffffffffffffffff16815f015173ffffffffffffffffffffffffffffffffffffffff1603610949576040517f57e25a0900000000000000000000000000000000000000000000000000000000815260040160405180910390fd5b80915050919050565b5f6002826040516109639190611a20565b90815260200160405180910390206002015f9054906101000a900473ffffffffffffffffffffffffffffffffffffffff169050919050565b5f60045f3373ffffffffffffffffffffffffffffffffffffffff1673ffffffffffffffffffffffffffffffffffffffff1681526020019081526020015f205403610a11576040517f356680b700000000000000000000000000000000000000000000000000000000815260040160405180910390fd5b3373ffffffffffffffffffffffffffffffffffffffff166108fc60045f3373ffffffffffffffffffffffffffffffffffffffff1673ffffffffffffffffffffffffffffffffffffffff1681526020019081526020015f205490811502906040515f60405180830381858888f19350505050158015610a91573d5f803e3d5ffd5b505f60045f3373ffffffffffffffffffffffffffffffffffffffff1673ffffffffffffffffffffffffffffffffffffffff1681526020019081526020015f20819055503373ffffffffffffffffffffffffffffffffffffffff167fc43456380866b66f35f174ab56efabbeb1145c4bbf6fe8047c2590e378346ef760405160405180910390a2565b60605f60038054905067ffffffffffffffff811115610b3b57610b3a61140d565b5b604051908082528060200260200182016040528015610b7457816020015b610b61611385565b815260200190600190039081610b595790505b5090505f5b600380549050811015610e5857600260038281548110610b9c57610b9b611e30565b5b905f5260205f2001604051610bb19190611edd565b90815260200160405180910390206040518060c00160405290815f82015f9054906101000a900473ffffffffffffffffffffffffffffffffffffffff1673ffffffffffffffffffffffffffffffffffffffff1673ffffffffffffffffffffffffffffffffffffffff168152602001600182018054610c2e90611af5565b80601f0160208091040260200160405190810160405280929190818152602001828054610c5a90611af5565b8015610ca55780601f10610c7c57610100808354040283529160200191610ca5565b820191905f5260205f20905b815481529060010190602001808311610c8857829003601f168201915b50505050508152602001600282015f9054906101000a900473ffffffffffffffffffffffffffffffffffffffff1673ffffffffffffffffffffffffffffffffffffffff1673ffffffffffffffffffffffffffffffffffffffff168152602001600382018054610d1390611af5565b80601f0160208091040260200160405190810160405280929190818152602001828054610d3f90611af5565b8015610d8a5780601f10610d6157610100808354040283529160200191610d8a565b820191905f5260205f20905b815481529060010190602001808311610d6d57829003601f168201915b5050505050815260200160048201548152602001600582018054610dad90611af5565b80601f0160208091040260200160405190810160405280929190818152602001828054610dd990611af5565b8015610e245780601f10610dfb57610100808354040283529160200191610e24565b820191905f5260205f20905b815481529060010190602001808311610e0757829003601f168201915b505050505081525050828281518110610e4057610e3f611e30565b5b60200260200101819052508080600101915050610b79565b508091505090565b5f600380549050905090565b5f600282604051610e7d9190611a20565b90815260200160405180910390206040518060c00160405290815f82015f9054906101000a900473ffffffffffffffffffffffffffffffffffffffff1673ffffffffffffffffffffffffffffffffffffffff1673ffffffffffffffffffffffffffffffffffffffff168152602001600182018054610efa90611af5565b80601f0160208091040260200160405190810160405280929190818152602001828054610f2690611af5565b8015610f715780601f10610f4857610100808354040283529160200191610f71565b820191905f5260205f20905b815481529060010190602001808311610f5457829003601f168201915b50505050508152602001600282015f9054906101000a900473ffffffffffffffffffffffffffffffffffffffff1673ffffffffffffffffffffffffffffffffffffffff1673ffffffffffffffffffffffffffffffffffffffff168152602001600382018054610fdf90611af5565b80601f016020809104026020016040519081016040528092919081815260200182805461100b90611af5565b80156110565780601f1061102d57610100808354040283529160200191611056565b820191905f5260205f20905b81548152906001019060200180831161103957829003601f168201915b505050505081526020016004820154815260200160058201805461107990611af5565b80601f01602080910402602001604051908101604052809291908181526020018280546110a590611af5565b80156110f05780601f106110c7576101008083540402835291602001916110f0565b820191905f5260205f20905b8154815290600101906020018083116110d357829003601f168201915b50505050508152505090505f816040015190505f73ffffffffffffffffffffffffffffffffffffffff16825f015173ffffffffffffffffffffffffffffffffffffffff160361116b576040517f57e25a0900000000000000000000000000000000000000000000000000000000815260040160405180910390fd5b60018173ffffffffffffffffffffffffffffffffffffffff166370a08231336040518263ffffffff1660e01b81526004016111a69190611836565b602060405180830381865afa1580156111c1573d5f803e3d5ffd5b505050506040513d601f19601f820116820180604052508101906111e59190611e05565b1061121c576040517f80c902ae00000000000000000000000000000000000000000000000000000000815260040160405180910390fd5b816080015134101561125a576040517f356680b700000000000000000000000000000000000000000000000000000000815260040160405180910390fd5b816080015160045f845f015173ffffffffffffffffffffffffffffffffffffffff1673ffffffffffffffffffffffffffffffffffffffff1681526020019081526020015f205f8282546112ad9190611ef3565b925050819055508073ffffffffffffffffffffffffffffffffffffffff16636a627842336040518263ffffffff1660e01b81526004016112ed9190611836565b5f604051808303815f87803b158015611304575f80fd5b505af1158015611316573d5f803e3d5ffd5b505050503373ffffffffffffffffffffffffffffffffffffffff168360405161133f9190611a20565b60405180910390207fbe5bacc9ccf0e6b2195fb4eef26c0562a005dcdd2c5d064fd26d76de3849920f60405160405180910390a3505050565b6129e080611f2783390190565b6040518060c001604052805f73ffffffffffffffffffffffffffffffffffffffff168152602001606081526020015f73ffffffffffffffffffffffffffffffffffffffff168152602001606081526020015f8152602001606081525090565b5f604051905090565b5f80fd5b5f80fd5b5f80fd5b5f80fd5b5f601f19601f8301169050919050565b7f4e487b71000000000000000000000000000000000000000000000000000000005f52604160045260245ffd5b611443826113fd565b810181811067ffffffffffffffff821117156114625761146161140d565b5b80604052505050565b5f6114746113e4565b9050611480828261143a565b919050565b5f67ffffffffffffffff82111561149f5761149e61140d565b5b6114a8826113fd565b9050602081019050919050565b828183375f83830152505050565b5f6114d56114d084611485565b61146b565b9050828152602081018484840111156114f1576114f06113f9565b5b6114fc8482856114b5565b509392505050565b5f82601f830112611518576115176113f5565b5b81356115288482602086016114c3565b91505092915050565b5f819050919050565b61154381611531565b811461154d575f80fd5b50565b5f8135905061155e8161153a565b92915050565b5f805f805f60a0868803121561157d5761157c6113ed565b5b5f86013567ffffffffffffffff81111561159a576115996113f1565b5b6115a688828901611504565b955050602086013567ffffffffffffffff8111156115c7576115c66113f1565b5b6115d388828901611504565b945050604086013567ffffffffffffffff8111156115f4576115f36113f1565b5b61160088828901611504565b935050606061161188828901611550565b925050608086013567ffffffffffffffff811115611632576116316113f1565b5b61163e88828901611504565b9150509295509295909350565b5f602082840312156116605761165f6113ed565b5b5f82013567ffffffffffffffff81111561167d5761167c6113f1565b5b61168984828501611504565b91505092915050565b5f8115159050919050565b6116a681611692565b82525050565b5f6020820190506116bf5f83018461169d565b92915050565b5f73ffffffffffffffffffffffffffffffffffffffff82169050919050565b5f6116ee826116c5565b9050919050565b6116fe816116e4565b82525050565b5f81519050919050565b5f82825260208201905092915050565b8281835e5f83830152505050565b5f61173682611704565b611740818561170e565b935061175081856020860161171e565b611759816113fd565b840191505092915050565b61176d81611531565b82525050565b5f60c083015f8301516117885f8601826116f5565b50602083015184820360208601526117a0828261172c565b91505060408301516117b560408601826116f5565b50606083015184820360608601526117cd828261172c565b91505060808301516117e26080860182611764565b5060a083015184820360a08601526117fa828261172c565b9150508091505092915050565b5f6020820190508181035f83015261181f8184611773565b905092915050565b611830816116e4565b82525050565b5f6020820190506118495f830184611827565b92915050565b5f81519050919050565b5f82825260208201905092915050565b5f819050602082019050919050565b5f60c083015f83015161188d5f8601826116f5565b50602083015184820360208601526118a5828261172c565b91505060408301516118ba60408601826116f5565b50606083015184820360608601526118d2828261172c565b91505060808301516118e76080860182611764565b5060a083015184820360a08601526118ff828261172c565b9150508091505092915050565b5f6119178383611878565b905092915050565b5f602082019050919050565b5f6119358261184f565b61193f8185611859565b93508360208202850161195185611869565b805f5b8581101561198c578484038952815161196d858261190c565b94506119788361191f565b925060208a01995050600181019050611954565b50829750879550505050505092915050565b5f6020820190508181035f8301526119b6818461192b565b905092915050565b6119c781611531565b82525050565b5f6020820190506119e05f8301846119be565b92915050565b5f81905092915050565b5f6119fa82611704565b611a0481856119e6565b9350611a1481856020860161171e565b80840191505092915050565b5f611a2b82846119f0565b915081905092915050565b5f82825260208201905092915050565b5f611a5082611704565b611a5a8185611a36565b9350611a6a81856020860161171e565b611a73816113fd565b840191505092915050565b5f6060820190508181035f830152611a968186611a46565b90508181036020830152611aaa8185611a46565b90508181036040830152611abe8184611a46565b9050949350505050565b7f4e487b71000000000000000000000000000000000000000000000000000000005f52602260045260245ffd5b5f6002820490506001821680611b0c57607f821691505b602082108103611b1f57611b1e611ac8565b5b50919050565b5f819050815f5260205f209050919050565b5f6020601f8301049050919050565b5f82821b905092915050565b5f60088302611b817fffffffffffffffffffffffffffffffffffffffffffffffffffffffffffffffff82611b46565b611b8b8683611b46565b95508019841693508086168417925050509392505050565b5f819050919050565b5f611bc6611bc1611bbc84611531565b611ba3565b611531565b9050919050565b5f819050919050565b611bdf83611bac565b611bf3611beb82611bcd565b848454611b52565b825550505050565b5f90565b611c07611bfb565b611c12818484611bd6565b505050565b5b81811015611c3557611c2a5f82611bff565b600181019050611c18565b5050565b601f821115611c7a57611c4b81611b25565b611c5484611b37565b81016020851015611c63578190505b611c77611c6f85611b37565b830182611c17565b50505b505050565b5f82821c905092915050565b5f611c9a5f1984600802611c7f565b1980831691505092915050565b5f611cb28383611c8b565b9150826002028217905092915050565b611ccb82611704565b67ffffffffffffffff811115611ce457611ce361140d565b5b611cee8254611af5565b611cf9828285611c39565b5f60209050601f831160018114611d2a575f8415611d18578287015190505b611d228582611ca7565b865550611d89565b601f198416611d3886611b25565b5f5b82811015611d5f57848901518255600182019150602085019450602081019050611d3a565b86831015611d7c5784890151611d78601f891682611c8b565b8355505b6001600288020188555050505b505050505050565b7f4e487b71000000000000000000000000000000000000000000000000000000005f52601160045260245ffd5b5f611dc882611531565b9150611dd383611531565b9250828203905081811115611deb57611dea611d91565b5b92915050565b5f81519050611dff8161153a565b92915050565b5f60208284031215611e1a57611e196113ed565b5b5f611e2784828501611df1565b91505092915050565b7f4e487b71000000000000000000000000000000000000000000000000000000005f52603260045260245ffd5b5f8154611e6981611af5565b611e7381866119e6565b9450600182165f8114611e8d5760018114611ea257611ed4565b60ff1983168652811515820286019350611ed4565b611eab85611b25565b5f5b83811015611ecc57815481890152600182019150602081019050611ead565b838801955050505b50505092915050565b5f611ee88284611e5d565b915081905092915050565b5f611efd82611531565b9150611f0883611531565b9250828201905080821115611f2057611f1f611d91565b5b9291505056fe608060405234801561000f575f80fd5b506040516129e03803806129e0833981810160405281019061003191906102fd565b338383815f908161004291906105ae565b50806001908161005291906105ae565b5050505f73ffffffffffffffffffffffffffffffffffffffff168173ffffffffffffffffffffffffffffffffffffffff16036100c5575f6040517f1e4fbdf70000000000000000000000000000000000000000000000000000000081526004016100bc91906106bc565b60405180910390fd5b6100d4816100ed60201b60201c565b5080600890816100e491906105ae565b505050506106d5565b5f60065f9054906101000a900473ffffffffffffffffffffffffffffffffffffffff1690508160065f6101000a81548173ffffffffffffffffffffffffffffffffffffffff021916908373ffffffffffffffffffffffffffffffffffffffff1602179055508173ffffffffffffffffffffffffffffffffffffffff168173ffffffffffffffffffffffffffffffffffffffff167f8be0079c531659141344cd1fd0a4f28419497f9722a3daafe3b4186f6b6457e060405160405180910390a35050565b5f604051905090565b5f80fd5b5f80fd5b5f80fd5b5f80fd5b5f601f19601f8301169050919050565b7f4e487b71000000000000000000000000000000000000000000000000000000005f52604160045260245ffd5b61020f826101c9565b810181811067ffffffffffffffff8211171561022e5761022d6101d9565b5b80604052505050565b5f6102406101b0565b905061024c8282610206565b919050565b5f67ffffffffffffffff82111561026b5761026a6101d9565b5b610274826101c9565b9050602081019050919050565b8281835e5f83830152505050565b5f6102a161029c84610251565b610237565b9050828152602081018484840111156102bd576102bc6101c5565b5b6102c8848285610281565b509392505050565b5f82601f8301126102e4576102e36101c1565b5b81516102f484826020860161028f565b91505092915050565b5f805f60608486031215610314576103136101b9565b5b5f84015167ffffffffffffffff811115610331576103306101bd565b5b61033d868287016102d0565b935050602084015167ffffffffffffffff81111561035e5761035d6101bd565b5b61036a868287016102d0565b925050604084015167ffffffffffffffff81111561038b5761038a6101bd565b5b610397868287016102d0565b9150509250925092565b5f81519050919050565b7f4e487b71000000000000000000000000000000000000000000000000000000005f52602260045260245ffd5b5f60028204905060018216806103ef57607f821691505b602082108103610402576104016103ab565b5b50919050565b5f819050815f5260205f209050919050565b5f6020601f8301049050919050565b5f82821b905092915050565b5f600883026104647fffffffffffffffffffffffffffffffffffffffffffffffffffffffffffffffff82610429565b61046e8683610429565b95508019841693508086168417925050509392505050565b5f819050919050565b5f819050919050565b5f6104b26104ad6104a884610486565b61048f565b610486565b9050919050565b5f819050919050565b6104cb83610498565b6104df6104d7826104b9565b848454610435565b825550505050565b5f90565b6104f36104e7565b6104fe8184846104c2565b505050565b5b81811015610521576105165f826104eb565b600181019050610504565b5050565b601f8211156105665761053781610408565b6105408461041a565b8101602085101561054f578190505b61056361055b8561041a565b830182610503565b50505b505050565b5f82821c905092915050565b5f6105865f198460080261056b565b1980831691505092915050565b5f61059e8383610577565b9150826002028217905092915050565b6105b7826103a1565b67ffffffffffffffff8111156105d0576105cf6101d9565b5b6105da82546103d8565b6105e5828285610525565b5f60209050601f831160018114610616575f8415610604578287015190505b61060e8582610593565b865550610675565b601f19841661062486610408565b5f5b8281101561064b57848901518255600182019150602085019450602081019050610626565b868310156106685784890151610664601f891682610577565b8355505b6001600288020188555050505b505050505050565b5f73ffffffffffffffffffffffffffffffffffffffff82169050919050565b5f6106a68261067d565b9050919050565b6106b68161069c565b82525050565b5f6020820190506106cf5f8301846106ad565b92915050565b6122fe806106e25f395ff3fe608060405234801561000f575f80fd5b5060043610610109575f3560e01c806370a08231116100a0578063a22cb4651161006f578063a22cb465146102a1578063b88d4fde146102bd578063c87b56dd146102d9578063e985e9c514610309578063f2fde38b1461033957610109565b806370a082311461022b578063715018a61461025b5780638da5cb5b1461026557806395d89b411461028357610109565b806323b872dd116100dc57806323b872dd146101a757806342842e0e146101c35780636352211e146101df5780636a6278421461020f57610109565b806301ffc9a71461010d57806306fdde031461013d578063081812fc1461015b578063095ea7b31461018b575b5f80fd5b61012760048036038101906101229190611778565b610355565b60405161013491906117bd565b60405180910390f35b610145610436565b6040516101529190611846565b60405180910390f35b61017560048036038101906101709190611899565b6104c5565b6040516101829190611903565b60405180910390f35b6101a560048036038101906101a09190611946565b6104e0565b005b6101c160048036038101906101bc9190611984565b6104f6565b005b6101dd60048036038101906101d89190611984565b6105f5565b005b6101f960048036038101906101f49190611899565b610614565b6040516102069190611903565b60405180910390f35b610229600480360381019061022491906119d4565b610625565b005b610245600480360381019061024091906119d4565b610653565b6040516102529190611a0e565b60405180910390f35b610263610709565b005b61026d61071c565b60405161027a9190611903565b60405180910390f35b61028b610744565b6040516102989190611846565b60405180910390f35b6102bb60048036038101906102b69190611a51565b6107d4565b005b6102d760048036038101906102d29190611bbb565b6107ea565b005b6102f360048036038101906102ee9190611899565b610807565b6040516103009190611846565b60405180910390f35b610323600480360381019061031e9190611c3b565b610874565b60405161033091906117bd565b60405180910390f35b610353600480360381019061034e91906119d4565b610902565b005b5f7f80ac58cd000000000000000000000000000000000000000000000000000000007bffffffffffffffffffffffffffffffffffffffffffffffffffffffff1916827bffffffffffffffffffffffffffffffffffffffffffffffffffffffff1916148061041f57507f5b5e139f000000000000000000000000000000000000000000000000000000007bffffffffffffffffffffffffffffffffffffffffffffffffffffffff1916827bffffffffffffffffffffffffffffffffffffffffffffffffffffffff1916145b8061042f575061042e82610986565b5b9050919050565b60605f805461044490611ca6565b80601f016020809104026020016040519081016040528092919081815260200182805461047090611ca6565b80156104bb5780601f10610492576101008083540402835291602001916104bb565b820191905f5260205f20905b81548152906001019060200180831161049e57829003601f168201915b5050505050905090565b5f6104cf826109ef565b506104d982610a75565b9050919050565b6104f282826104ed610aae565b610ab5565b5050565b5f73ffffffffffffffffffffffffffffffffffffffff168273ffffffffffffffffffffffffffffffffffffffff1603610566575f6040517f64a0ae9200000000000000000000000000000000000000000000000000000000815260040161055d9190611903565b60405180910390fd5b5f6105798383610574610aae565b610ac7565b90508373ffffffffffffffffffffffffffffffffffffffff168173ffffffffffffffffffffffffffffffffffffffff16146105ef578382826040517f64283d7b0000000000000000000000000000000000000000000000000000000081526004016105e693929190611cd6565b60405180910390fd5b50505050565b61060f83838360405180602001604052805f8152506107ea565b505050565b5f61061e826109ef565b9050919050565b61062d610cd2565b61063981600754610d59565b60075f81548092919061064b90611d38565b919050555050565b5f8073ffffffffffffffffffffffffffffffffffffffff168273ffffffffffffffffffffffffffffffffffffffff16036106c4575f6040517f89c62b640000000000000000000000000000000000000000000000000000000081526004016106bb9190611903565b60405180910390fd5b60035f8373ffffffffffffffffffffffffffffffffffffffff1673ffffffffffffffffffffffffffffffffffffffff1681526020019081526020015f20549050919050565b610711610cd2565b61071a5f610e4c565b565b5f60065f9054906101000a900473ffffffffffffffffffffffffffffffffffffffff16905090565b60606001805461075390611ca6565b80601f016020809104026020016040519081016040528092919081815260200182805461077f90611ca6565b80156107ca5780601f106107a1576101008083540402835291602001916107ca565b820191905f5260205f20905b8154815290600101906020018083116107ad57829003601f168201915b5050505050905090565b6107e66107df610aae565b8383610f0f565b5050565b6107f58484846104f6565b61080184848484611078565b50505050565b6060610812826109ef565b5061084e61081e610436565b610826610436565b600860405160200161083a93929190611fe3565b60405160208183030381529060405261122a565b60405160200161085e9190612094565b6040516020818303038152906040529050919050565b5f60055f8473ffffffffffffffffffffffffffffffffffffffff1673ffffffffffffffffffffffffffffffffffffffff1681526020019081526020015f205f8373ffffffffffffffffffffffffffffffffffffffff1673ffffffffffffffffffffffffffffffffffffffff1681526020019081526020015f205f9054906101000a900460ff16905092915050565b61090a610cd2565b5f73ffffffffffffffffffffffffffffffffffffffff168173ffffffffffffffffffffffffffffffffffffffff160361097a575f6040517f1e4fbdf70000000000000000000000000000000000000000000000000000000081526004016109719190611903565b60405180910390fd5b61098381610e4c565b50565b5f7f01ffc9a7000000000000000000000000000000000000000000000000000000007bffffffffffffffffffffffffffffffffffffffffffffffffffffffff1916827bffffffffffffffffffffffffffffffffffffffffffffffffffffffff1916149050919050565b5f806109fa83611397565b90505f73ffffffffffffffffffffffffffffffffffffffff168173ffffffffffffffffffffffffffffffffffffffff1603610a6c57826040517f7e273289000000000000000000000000000000000000000000000000000000008152600401610a639190611a0e565b60405180910390fd5b80915050919050565b5f60045f8381526020019081526020015f205f9054906101000a900473ffffffffffffffffffffffffffffffffffffffff169050919050565b5f33905090565b610ac283838360016113d0565b505050565b5f80610ad284611397565b90505f73ffffffffffffffffffffffffffffffffffffffff168373ffffffffffffffffffffffffffffffffffffffff1614610b1357610b1281848661158f565b5b5f73ffffffffffffffffffffffffffffffffffffffff168173ffffffffffffffffffffffffffffffffffffffff1614610b9e57610b525f855f806113d0565b600160035f8373ffffffffffffffffffffffffffffffffffffffff1673ffffffffffffffffffffffffffffffffffffffff1681526020019081526020015f205f82825403925050819055505b5f73ffffffffffffffffffffffffffffffffffffffff168573ffffffffffffffffffffffffffffffffffffffff1614610c1d57600160035f8773ffffffffffffffffffffffffffffffffffffffff1673ffffffffffffffffffffffffffffffffffffffff1681526020019081526020015f205f82825401925050819055505b8460025f8681526020019081526020015f205f6101000a81548173ffffffffffffffffffffffffffffffffffffffff021916908373ffffffffffffffffffffffffffffffffffffffff160217905550838573ffffffffffffffffffffffffffffffffffffffff168273ffffffffffffffffffffffffffffffffffffffff167fddf252ad1be2c89b69c2b068fc378daa952ba7f163c4a11628f55a4df523b3ef60405160405180910390a4809150509392505050565b610cda610aae565b73ffffffffffffffffffffffffffffffffffffffff16610cf861071c565b73ffffffffffffffffffffffffffffffffffffffff1614610d5757610d1b610aae565b6040517f118cdaa7000000000000000000000000000000000000000000000000000000008152600401610d4e9190611903565b60405180910390fd5b565b5f73ffffffffffffffffffffffffffffffffffffffff168273ffffffffffffffffffffffffffffffffffffffff1603610dc9575f6040517f64a0ae92000000000000000000000000000000000000000000000000000000008152600401610dc09190611903565b60405180910390fd5b5f610dd583835f610ac7565b90505f73ffffffffffffffffffffffffffffffffffffffff168173ffffffffffffffffffffffffffffffffffffffff1614610e47575f6040517f73c6ac6e000000000000000000000000000000000000000000000000000000008152600401610e3e9190611903565b60405180910390fd5b505050565b5f60065f9054906101000a900473ffffffffffffffffffffffffffffffffffffffff1690508160065f6101000a81548173ffffffffffffffffffffffffffffffffffffffff021916908373ffffffffffffffffffffffffffffffffffffffff1602179055508173ffffffffffffffffffffffffffffffffffffffff168173ffffffffffffffffffffffffffffffffffffffff167f8be0079c531659141344cd1fd0a4f28419497f9722a3daafe3b4186f6b6457e060405160405180910390a35050565b5f73ffffffffffffffffffffffffffffffffffffffff168273ffffffffffffffffffffffffffffffffffffffff1603610f7f57816040517f5b08ba18000000000000000000000000000000000000000000000000000000008152600401610f769190611903565b60405180910390fd5b8060055f8573ffffffffffffffffffffffffffffffffffffffff1673ffffffffffffffffffffffffffffffffffffffff1681526020019081526020015f205f8473ffffffffffffffffffffffffffffffffffffffff1673ffffffffffffffffffffffffffffffffffffffff1681526020019081526020015f205f6101000a81548160ff0219169083151502179055508173ffffffffffffffffffffffffffffffffffffffff168373ffffffffffffffffffffffffffffffffffffffff167f17307eab39ab6107e8899845ad3d59bd9653f200f220920489ca2b5937696c318360405161106b91906117bd565b60405180910390a3505050565b5f8373ffffffffffffffffffffffffffffffffffffffff163b1115611224578273ffffffffffffffffffffffffffffffffffffffff1663150b7a026110bb610aae565b8685856040518563ffffffff1660e01b81526004016110dd9493929190612107565b6020604051808303815f875af192505050801561111857506040513d601f19601f820116820180604052508101906111159190612165565b60015b611199573d805f8114611146576040519150601f19603f3d011682016040523d82523d5f602084013e61114b565b606091505b505f81510361119157836040517f64a0ae920000000000000000000000000000000000000000000000000000000081526004016111889190611903565b60405180910390fd5b805181602001fd5b63150b7a0260e01b7bffffffffffffffffffffffffffffffffffffffffffffffffffffffff1916817bffffffffffffffffffffffffffffffffffffffffffffffffffffffff19161461122257836040517f64a0ae920000000000000000000000000000000000000000000000000000000081526004016112199190611903565b60405180910390fd5b505b50505050565b60605f82510361124a5760405180602001604052805f8152509050611392565b5f6040518060600160405280604081526020016122896040913990505f6003600285516112779190612190565b61128191906121f0565b600461128d9190612220565b67ffffffffffffffff8111156112a6576112a5611a97565b5b6040519080825280601f01601f1916602001820160405280156112d85781602001600182028036833780820191505090505b509050600182016020820185865187016020810180515f82525b8284101561134d576003840193508351603f8160121c168701518653600186019550603f81600c1c168701518653600186019550603f8160061c168701518653600186019550603f81168701518653600186019550506112f2565b80825260038a51066001811461136a576002811461137d57611385565b603d6001870353603d6002870353611385565b603d60018703535b5050505050505080925050505b919050565b5f60025f8381526020019081526020015f205f9054906101000a900473ffffffffffffffffffffffffffffffffffffffff169050919050565b808061140857505f73ffffffffffffffffffffffffffffffffffffffff168273ffffffffffffffffffffffffffffffffffffffff1614155b1561153a575f611417846109ef565b90505f73ffffffffffffffffffffffffffffffffffffffff168373ffffffffffffffffffffffffffffffffffffffff161415801561148157508273ffffffffffffffffffffffffffffffffffffffff168173ffffffffffffffffffffffffffffffffffffffff1614155b801561149457506114928184610874565b155b156114d657826040517fa9fbf51f0000000000000000000000000000000000000000000000000000000081526004016114cd9190611903565b60405180910390fd5b811561153857838573ffffffffffffffffffffffffffffffffffffffff168273ffffffffffffffffffffffffffffffffffffffff167f8c5be1e5ebec7d5bd14f71427d1e84f3dd0314c0f7b2291e5b200ac8c7c3b92560405160405180910390a45b505b8360045f8581526020019081526020015f205f6101000a81548173ffffffffffffffffffffffffffffffffffffffff021916908373ffffffffffffffffffffffffffffffffffffffff16021790555050505050565b61159a838383611652565b61164d575f73ffffffffffffffffffffffffffffffffffffffff168373ffffffffffffffffffffffffffffffffffffffff160361160e57806040517f7e2732890000000000000000000000000000000000000000000000000000000081526004016116059190611a0e565b60405180910390fd5b81816040517f177e802f000000000000000000000000000000000000000000000000000000008152600401611644929190612261565b60405180910390fd5b505050565b5f8073ffffffffffffffffffffffffffffffffffffffff168373ffffffffffffffffffffffffffffffffffffffff161415801561170957508273ffffffffffffffffffffffffffffffffffffffff168473ffffffffffffffffffffffffffffffffffffffff1614806116ca57506116c98484610874565b5b8061170857508273ffffffffffffffffffffffffffffffffffffffff166116f083610a75565b73ffffffffffffffffffffffffffffffffffffffff16145b5b90509392505050565b5f604051905090565b5f80fd5b5f80fd5b5f7fffffffff0000000000000000000000000000000000000000000000000000000082169050919050565b61175781611723565b8114611761575f80fd5b50565b5f813590506117728161174e565b92915050565b5f6020828403121561178d5761178c61171b565b5b5f61179a84828501611764565b91505092915050565b5f8115159050919050565b6117b7816117a3565b82525050565b5f6020820190506117d05f8301846117ae565b92915050565b5f81519050919050565b5f82825260208201905092915050565b8281835e5f83830152505050565b5f601f19601f8301169050919050565b5f611818826117d6565b61182281856117e0565b93506118328185602086016117f0565b61183b816117fe565b840191505092915050565b5f6020820190508181035f83015261185e818461180e565b905092915050565b5f819050919050565b61187881611866565b8114611882575f80fd5b50565b5f813590506118938161186f565b92915050565b5f602082840312156118ae576118ad61171b565b5b5f6118bb84828501611885565b91505092915050565b5f73ffffffffffffffffffffffffffffffffffffffff82169050919050565b5f6118ed826118c4565b9050919050565b6118fd816118e3565b82525050565b5f6020820190506119165f8301846118f4565b92915050565b611925816118e3565b811461192f575f80fd5b50565b5f813590506119408161191c565b92915050565b5f806040838503121561195c5761195b61171b565b5b5f61196985828601611932565b925050602061197a85828601611885565b9150509250929050565b5f805f6060848603121561199b5761199a61171b565b5b5f6119a886828701611932565b93505060206119b986828701611932565b92505060406119ca86828701611885565b9150509250925092565b5f602082840312156119e9576119e861171b565b5b5f6119f684828501611932565b91505092915050565b611a0881611866565b82525050565b5f602082019050611a215f8301846119ff565b92915050565b611a30816117a3565b8114611a3a575f80fd5b50565b5f81359050611a4b81611a27565b92915050565b5f8060408385031215611a6757611a6661171b565b5b5f611a7485828601611932565b9250506020611a8585828601611a3d565b9150509250929050565b5f80fd5b5f80fd5b7f4e487b71000000000000000000000000000000000000000000000000000000005f52604160045260245ffd5b611acd826117fe565b810181811067ffffffffffffffff82111715611aec57611aeb611a97565b5b80604052505050565b5f611afe611712565b9050611b0a8282611ac4565b919050565b5f67ffffffffffffffff821115611b2957611b28611a97565b5b611b32826117fe565b9050602081019050919050565b828183375f83830152505050565b5f611b5f611b5a84611b0f565b611af5565b905082815260208101848484011115611b7b57611b7a611a93565b5b611b86848285611b3f565b509392505050565b5f82601f830112611ba257611ba1611a8f565b5b8135611bb2848260208601611b4d565b91505092915050565b5f805f8060808587031215611bd357611bd261171b565b5b5f611be087828801611932565b9450506020611bf187828801611932565b9350506040611c0287828801611885565b925050606085013567ffffffffffffffff811115611c2357611c2261171f565b5b611c2f87828801611b8e565b91505092959194509250565b5f8060408385031215611c5157611c5061171b565b5b5f611c5e85828601611932565b9250506020611c6f85828601611932565b9150509250929050565b7f4e487b71000000000000000000000000000000000000000000000000000000005f52602260045260245ffd5b5f6002820490506001821680611cbd57607f821691505b602082108103611cd057611ccf611c79565b5b50919050565b5f606082019050611ce95f8301866118f4565b611cf660208301856119ff565b611d0360408301846118f4565b949350505050565b7f4e487b71000000000000000000000000000000000000000000000000000000005f52601160045260245ffd5b5f611d4282611866565b91507fffffffffffffffffffffffffffffffffffffffffffffffffffffffffffffffff8203611d7457611d73611d0b565b5b600182019050919050565b5f81905092915050565b7f7b226e616d65223a2200000000000000000000000000000000000000000000005f82015250565b5f611dbd600983611d7f565b9150611dc882611d89565b600982019050919050565b5f611ddd826117d6565b611de78185611d7f565b9350611df78185602086016117f0565b80840191505092915050565b7f222c20226465736372697074696f6e223a22416e204e465420746861742072655f8201527f666c6563747320746865206f776e657273686970206f662067616d65202d2000602082015250565b5f611e5d603f83611d7f565b9150611e6882611e03565b603f82019050919050565b7f222c2000000000000000000000000000000000000000000000000000000000005f82015250565b5f611ea7600383611d7f565b9150611eb282611e73565b600382019050919050565b7f22696d616765223a2200000000000000000000000000000000000000000000005f82015250565b5f611ef1600983611d7f565b9150611efc82611ebd565b600982019050919050565b5f819050815f5260205f209050919050565b5f8154611f2581611ca6565b611f2f8186611d7f565b9450600182165f8114611f495760018114611f5e57611f90565b60ff1983168652811515820286019350611f90565b611f6785611f07565b5f5b83811015611f8857815481890152600182019150602081019050611f69565b838801955050505b50505092915050565b7f227d0000000000000000000000000000000000000000000000000000000000005f82015250565b5f611fcd600283611d7f565b9150611fd882611f99565b600282019050919050565b5f611fed82611db1565b9150611ff98286611dd3565b915061200482611e51565b91506120108285611dd3565b915061201b82611e9b565b915061202682611ee5565b91506120328284611f19565b915061203d82611fc1565b9150819050949350505050565b7f646174613a6170706c69636174696f6e2f6a736f6e3b6261736536342c0000005f82015250565b5f61207e601d83611d7f565b91506120898261204a565b601d82019050919050565b5f61209e82612072565b91506120aa8284611dd3565b915081905092915050565b5f81519050919050565b5f82825260208201905092915050565b5f6120d9826120b5565b6120e381856120bf565b93506120f38185602086016117f0565b6120fc816117fe565b840191505092915050565b5f60808201905061211a5f8301876118f4565b61212760208301866118f4565b61213460408301856119ff565b818103606083015261214681846120cf565b905095945050505050565b5f8151905061215f8161174e565b92915050565b5f6020828403121561217a5761217961171b565b5b5f61218784828501612151565b91505092915050565b5f61219a82611866565b91506121a583611866565b92508282019050808211156121bd576121bc611d0b565b5b92915050565b7f4e487b71000000000000000000000000000000000000000000000000000000005f52601260045260245ffd5b5f6121fa82611866565b915061220583611866565b925082612215576122146121c3565b5b828204905092915050565b5f61222a82611866565b915061223583611866565b925082820261224381611866565b9150828204841483151761225a57612259611d0b565b5b5092915050565b5f6040820190506122745f8301856118f4565b61228160208301846119ff565b939250505056fe4142434445464748494a4b4c4d4e4f505152535455565758595a6162636465666768696a6b6c6d6e6f707172737475767778797a303132333435363738392b2fa2646970667358221220558c2dc897274068477ea829f6da0f481dac225b6b93681c7bf01ab595996b8064736f6c63430008190033a2646970667358221220c0aab6a80a9dc538a76fb0897ff110d1fb0bb803ca72b832ab9e6a0d06ca21a564736f6c63430008190033', \n     arguments: [\n     ]\n}).send({\n     from: web3.eth.accounts[0], \n     gas: '4700000'\n   }, function (e, contract){\n    console.log(e, contract);\n    if (typeof contract.address !== 'undefined') {\n         console.log('Contract mined! address: ' + contract.address + ' transactionHash: ' + contract.transactionHash);\n    }\n })",
	"functionHashes": {
		"dbef6528": "buyGame(string)",
		"7fd6145c": "getGameByCid(string)",
		"c379cd78": "getGameListLength()",
		"c04c5947": "getGames()",
		"8c647194": "getTokenAddressByCid(string)",
		"396130b9": "isGameOwned(string)",
		"2a60d6ca": "publishGame(string,string,string,uint256,string)",
		"8d00fe0b": "withdrawCreatorFunds()"
	},
	"gasEstimates": {
		"Creation": {
			"codeDepositCost": "3749600",
			"executionCost": "9240",
			"totalCost": "3758840"
		},
		"External": {
			"buyGame(string)": "infinite",
			"getGameByCid(string)": "infinite",
			"getGameListLength()": "2484",
			"getGames()": "infinite",
			"getTokenAddressByCid(string)": "infinite",
			"isGameOwned(string)": "infinite",
			"publishGame(string,string,string,uint256,string)": "infinite",
			"withdrawCreatorFunds()": "infinite"
		},
		"Internal": {
			"bytes32ArrayToString(bytes32[] memory)": "infinite"
		}
	},
	"devdoc": {
		"kind": "dev",
		"methods": {},
		"version": 1
	},
	"userdoc": {
		"kind": "user",
		"methods": {},
		"version": 1
	},
	"Runtime Bytecode": {
		"immutableReferences": {},
		"linkReferences": {},
		"object": "60806040526004361061007a575f3560e01c80638d00fe0b1161004d5780638d00fe0b1461015a578063c04c594714610170578063c379cd781461019a578063dbef6528146101c45761007a565b80632a60d6ca1461007e578063396130b9146100a65780637fd6145c146100e25780638c6471941461011e575b5f80fd5b348015610089575f80fd5b506100a4600480360381019061009f9190611564565b6101e0565b005b3480156100b1575f80fd5b506100cc60048036038101906100c7919061164b565b610517565b6040516100d991906116ac565b60405180910390f35b3480156100ed575f80fd5b506101086004803603810190610103919061164b565b61064a565b6040516101159190611807565b60405180910390f35b348015610129575f80fd5b50610144600480360381019061013f919061164b565b610952565b6040516101519190611836565b60405180910390f35b348015610165575f80fd5b5061016e61099b565b005b34801561017b575f80fd5b50610184610b19565b604051610191919061199e565b60405180910390f35b3480156101a5575f80fd5b506101ae610e60565b6040516101bb91906119cd565b60405180910390f35b6101de60048036038101906101d9919061164b565b610e6c565b005b5f73ffffffffffffffffffffffffffffffffffffffff166002866040516102079190611a20565b90815260200160405180910390205f015f9054906101000a900473ffffffffffffffffffffffffffffffffffffffff1673ffffffffffffffffffffffffffffffffffffffff1614610284576040517f5f4be31c00000000000000000000000000000000000000000000000000000000815260040160405180910390fd5b5f84848360405161029490611378565b6102a093929190611a7e565b604051809103905ff0801580156102b9573d5f803e3d5ffd5b5090508073ffffffffffffffffffffffffffffffffffffffff16636a627842336040518263ffffffff1660e01b81526004016102f59190611836565b5f604051808303815f87803b15801561030c575f80fd5b505af115801561031e573d5f803e3d5ffd5b505050506040518060c001604052803373ffffffffffffffffffffffffffffffffffffffff1681526020018781526020018273ffffffffffffffffffffffffffffffffffffffff1681526020018681526020018481526020018381525060028760405161038b9190611a20565b90815260200160405180910390205f820151815f015f6101000a81548173ffffffffffffffffffffffffffffffffffffffff021916908373ffffffffffffffffffffffffffffffffffffffff16021790555060208201518160010190816103f29190611cc2565b506040820151816002015f6101000a81548173ffffffffffffffffffffffffffffffffffffffff021916908373ffffffffffffffffffffffffffffffffffffffff160217905550606082015181600301908161044e9190611cc2565b506080820151816004015560a082015181600501908161046e9190611cc2565b50905050600386908060018154018082558091505060019003905f5260205f20015f9091909190915090816104a39190611cc2565b508073ffffffffffffffffffffffffffffffffffffffff16866040516104c99190611a20565b604051809103902060016003805490506104e39190611dbe565b7f1b53114c999ded51a67e2c46b7aba69bd40e2d7a5b1e3e4a8b7f12c122ff3a5060405160405180910390a4505050505050565b5f806002836040516105299190611a20565b90815260200160405180910390206002015f9054906101000a900473ffffffffffffffffffffffffffffffffffffffff1690505f73ffffffffffffffffffffffffffffffffffffffff168173ffffffffffffffffffffffffffffffffffffffff16036105c1576040517f57e25a0900000000000000000000000000000000000000000000000000000000815260040160405180910390fd5b5f81905060018173ffffffffffffffffffffffffffffffffffffffff166370a08231336040518263ffffffff1660e01b81526004016106009190611836565b602060405180830381865afa15801561061b573d5f803e3d5ffd5b505050506040513d601f19601f8201168201806040525081019061063f9190611e05565b101592505050919050565b610652611385565b5f6002836040516106639190611a20565b90815260200160405180910390206040518060c00160405290815f82015f9054906101000a900473ffffffffffffffffffffffffffffffffffffffff1673ffffffffffffffffffffffffffffffffffffffff1673ffffffffffffffffffffffffffffffffffffffff1681526020016001820180546106e090611af5565b80601f016020809104026020016040519081016040528092919081815260200182805461070c90611af5565b80156107575780601f1061072e57610100808354040283529160200191610757565b820191905f5260205f20905b81548152906001019060200180831161073a57829003601f168201915b50505050508152602001600282015f9054906101000a900473ffffffffffffffffffffffffffffffffffffffff1673ffffffffffffffffffffffffffffffffffffffff1673ffffffffffffffffffffffffffffffffffffffff1681526020016003820180546107c590611af5565b80601f01602080910402602001604051908101604052809291908181526020018280546107f190611af5565b801561083c5780601f106108135761010080835404028352916020019161083c565b820191905f5260205f20905b81548152906001019060200180831161081f57829003601f168201915b505050505081526020016004820154815260200160058201805461085f90611af5565b80601f016020809104026020016040519081016040528092919081815260200182805461088b90611af5565b80156108d65780601f106108ad576101008083540402835291602001916108d6565b820191905f5260205f20905b8154815290600101906020018083116108b957829003601f168201915b50505050508152505090505f73ffffffffffffffffffffffffffffffffffffffff16815f015173ffffffffffffffffffffffffffffffffffffffff1603610949576040517f57e25a0900000000000000000000000000000000000000000000000000000000815260040160405180910390fd5b80915050919050565b5f6002826040516109639190611a20565b90815260200160405180910390206002015f9054906101000a900473ffffffffffffffffffffffffffffffffffffffff169050919050565b5f60045f3373ffffffffffffffffffffffffffffffffffffffff1673ffffffffffffffffffffffffffffffffffffffff1681526020019081526020015f205403610a11576040517f356680b700000000000000000000000000000000000000000000000000000000815260040160405180910390fd5b3373ffffffffffffffffffffffffffffffffffffffff166108fc60045f3373ffffffffffffffffffffffffffffffffffffffff1673ffffffffffffffffffffffffffffffffffffffff1681526020019081526020015f205490811502906040515f60405180830381858888f19350505050158015610a91573d5f803e3d5ffd5b505f60045f3373ffffffffffffffffffffffffffffffffffffffff1673ffffffffffffffffffffffffffffffffffffffff1681526020019081526020015f20819055503373ffffffffffffffffffffffffffffffffffffffff167fc43456380866b66f35f174ab56efabbeb1145c4bbf6fe8047c2590e378346ef760405160405180910390a2565b60605f60038054905067ffffffffffffffff811115610b3b57610b3a61140d565b5b604051908082528060200260200182016040528015610b7457816020015b610b61611385565b815260200190600190039081610b595790505b5090505f5b600380549050811015610e5857600260038281548110610b9c57610b9b611e30565b5b905f5260205f2001604051610bb19190611edd565b90815260200160405180910390206040518060c00160405290815f82015f9054906101000a900473ffffffffffffffffffffffffffffffffffffffff1673ffffffffffffffffffffffffffffffffffffffff1673ffffffffffffffffffffffffffffffffffffffff168152602001600182018054610c2e90611af5565b80601f0160208091040260200160405190810160405280929190818152602001828054610c5a90611af5565b8015610ca55780601f10610c7c57610100808354040283529160200191610ca5565b820191905f5260205f20905b815481529060010190602001808311610c8857829003601f168201915b50505050508152602001600282015f9054906101000a900473ffffffffffffffffffffffffffffffffffffffff1673ffffffffffffffffffffffffffffffffffffffff1673ffffffffffffffffffffffffffffffffffffffff168152602001600382018054610d1390611af5565b80601f0160208091040260200160405190810160405280929190818152602001828054610d3f90611af5565b8015610d8a5780601f10610d6157610100808354040283529160200191610d8a565b820191905f5260205f20905b815481529060010190602001808311610d6d57829003601f168201915b5050505050815260200160048201548152602001600582018054610dad90611af5565b80601f0160208091040260200160405190810160405280929190818152602001828054610dd990611af5565b8015610e245780601f10610dfb57610100808354040283529160200191610e24565b820191905f5260205f20905b815481529060010190602001808311610e0757829003601f168201915b505050505081525050828281518110610e4057610e3f611e30565b5b60200260200101819052508080600101915050610b79565b508091505090565b5f600380549050905090565b5f600282604051610e7d9190611a20565b90815260200160405180910390206040518060c00160405290815f82015f9054906101000a900473ffffffffffffffffffffffffffffffffffffffff1673ffffffffffffffffffffffffffffffffffffffff1673ffffffffffffffffffffffffffffffffffffffff168152602001600182018054610efa90611af5565b80601f0160208091040260200160405190810160405280929190818152602001828054610f2690611af5565b8015610f715780601f10610f4857610100808354040283529160200191610f71565b820191905f5260205f20905b815481529060010190602001808311610f5457829003601f168201915b50505050508152602001600282015f9054906101000a900473ffffffffffffffffffffffffffffffffffffffff1673ffffffffffffffffffffffffffffffffffffffff1673ffffffffffffffffffffffffffffffffffffffff168152602001600382018054610fdf90611af5565b80601f016020809104026020016040519081016040528092919081815260200182805461100b90611af5565b80156110565780601f1061102d57610100808354040283529160200191611056565b820191905f5260205f20905b81548152906001019060200180831161103957829003601f168201915b505050505081526020016004820154815260200160058201805461107990611af5565b80601f01602080910402602001604051908101604052809291908181526020018280546110a590611af5565b80156110f05780601f106110c7576101008083540402835291602001916110f0565b820191905f5260205f20905b8154815290600101906020018083116110d357829003601f168201915b50505050508152505090505f816040015190505f73ffffffffffffffffffffffffffffffffffffffff16825f015173ffffffffffffffffffffffffffffffffffffffff160361116b576040517f57e25a0900000000000000000000000000000000000000000000000000000000815260040160405180910390fd5b60018173ffffffffffffffffffffffffffffffffffffffff166370a08231336040518263ffffffff1660e01b81526004016111a69190611836565b602060405180830381865afa1580156111c1573d5f803e3d5ffd5b505050506040513d601f19601f820116820180604052508101906111e59190611e05565b1061121c576040517f80c902ae00000000000000000000000000000000000000000000000000000000815260040160405180910390fd5b816080015134101561125a576040517f356680b700000000000000000000000000000000000000000000000000000000815260040160405180910390fd5b816080015160045f845f015173ffffffffffffffffffffffffffffffffffffffff1673ffffffffffffffffffffffffffffffffffffffff1681526020019081526020015f205f8282546112ad9190611ef3565b925050819055508073ffffffffffffffffffffffffffffffffffffffff16636a627842336040518263ffffffff1660e01b81526004016112ed9190611836565b5f604051808303815f87803b158015611304575f80fd5b505af1158015611316573d5f803e3d5ffd5b505050503373ffffffffffffffffffffffffffffffffffffffff168360405161133f9190611a20565b60405180910390207fbe5bacc9ccf0e6b2195fb4eef26c0562a005dcdd2c5d064fd26d76de3849920f60405160405180910390a3505050565b6129e080611f2783390190565b6040518060c001604052805f73ffffffffffffffffffffffffffffffffffffffff168152602001606081526020015f73ffffffffffffffffffffffffffffffffffffffff168152602001606081526020015f8152602001606081525090565b5f604051905090565b5f80fd5b5f80fd5b5f80fd5b5f80fd5b5f601f19601f8301169050919050565b7f4e487b71000000000000000000000000000000000000000000000000000000005f52604160045260245ffd5b611443826113fd565b810181811067ffffffffffffffff821117156114625761146161140d565b5b80604052505050565b5f6114746113e4565b9050611480828261143a565b919050565b5f67ffffffffffffffff82111561149f5761149e61140d565b5b6114a8826113fd565b9050602081019050919050565b828183375f83830152505050565b5f6114d56114d084611485565b61146b565b9050828152602081018484840111156114f1576114f06113f9565b5b6114fc8482856114b5565b509392505050565b5f82601f830112611518576115176113f5565b5b81356115288482602086016114c3565b91505092915050565b5f819050919050565b61154381611531565b811461154d575f80fd5b50565b5f8135905061155e8161153a565b92915050565b5f805f805f60a0868803121561157d5761157c6113ed565b5b5f86013567ffffffffffffffff81111561159a576115996113f1565b5b6115a688828901611504565b955050602086013567ffffffffffffffff8111156115c7576115c66113f1565b5b6115d388828901611504565b945050604086013567ffffffffffffffff8111156115f4576115f36113f1565b5b61160088828901611504565b935050606061161188828901611550565b925050608086013567ffffffffffffffff811115611632576116316113f1565b5b61163e88828901611504565b9150509295509295909350565b5f602082840312156116605761165f6113ed565b5b5f82013567ffffffffffffffff81111561167d5761167c6113f1565b5b61168984828501611504565b91505092915050565b5f8115159050919050565b6116a681611692565b82525050565b5f6020820190506116bf5f83018461169d565b92915050565b5f73ffffffffffffffffffffffffffffffffffffffff82169050919050565b5f6116ee826116c5565b9050919050565b6116fe816116e4565b82525050565b5f81519050919050565b5f82825260208201905092915050565b8281835e5f83830152505050565b5f61173682611704565b611740818561170e565b935061175081856020860161171e565b611759816113fd565b840191505092915050565b61176d81611531565b82525050565b5f60c083015f8301516117885f8601826116f5565b50602083015184820360208601526117a0828261172c565b91505060408301516117b560408601826116f5565b50606083015184820360608601526117cd828261172c565b91505060808301516117e26080860182611764565b5060a083015184820360a08601526117fa828261172c565b9150508091505092915050565b5f6020820190508181035f83015261181f8184611773565b905092915050565b611830816116e4565b82525050565b5f6020820190506118495f830184611827565b92915050565b5f81519050919050565b5f82825260208201905092915050565b5f819050602082019050919050565b5f60c083015f83015161188d5f8601826116f5565b50602083015184820360208601526118a5828261172c565b91505060408301516118ba60408601826116f5565b50606083015184820360608601526118d2828261172c565b91505060808301516118e76080860182611764565b5060a083015184820360a08601526118ff828261172c565b9150508091505092915050565b5f6119178383611878565b905092915050565b5f602082019050919050565b5f6119358261184f565b61193f8185611859565b93508360208202850161195185611869565b805f5b8581101561198c578484038952815161196d858261190c565b94506119788361191f565b925060208a01995050600181019050611954565b50829750879550505050505092915050565b5f6020820190508181035f8301526119b6818461192b565b905092915050565b6119c781611531565b82525050565b5f6020820190506119e05f8301846119be565b92915050565b5f81905092915050565b5f6119fa82611704565b611a0481856119e6565b9350611a1481856020860161171e565b80840191505092915050565b5f611a2b82846119f0565b915081905092915050565b5f82825260208201905092915050565b5f611a5082611704565b611a5a8185611a36565b9350611a6a81856020860161171e565b611a73816113fd565b840191505092915050565b5f6060820190508181035f830152611a968186611a46565b90508181036020830152611aaa8185611a46565b90508181036040830152611abe8184611a46565b9050949350505050565b7f4e487b71000000000000000000000000000000000000000000000000000000005f52602260045260245ffd5b5f6002820490506001821680611b0c57607f821691505b602082108103611b1f57611b1e611ac8565b5b50919050565b5f819050815f5260205f209050919050565b5f6020601f8301049050919050565b5f82821b905092915050565b5f60088302611b817fffffffffffffffffffffffffffffffffffffffffffffffffffffffffffffffff82611b46565b611b8b8683611b46565b95508019841693508086168417925050509392505050565b5f819050919050565b5f611bc6611bc1611bbc84611531565b611ba3565b611531565b9050919050565b5f819050919050565b611bdf83611bac565b611bf3611beb82611bcd565b848454611b52565b825550505050565b5f90565b611c07611bfb565b611c12818484611bd6565b505050565b5b81811015611c3557611c2a5f82611bff565b600181019050611c18565b5050565b601f821115611c7a57611c4b81611b25565b611c5484611b37565b81016020851015611c63578190505b611c77611c6f85611b37565b830182611c17565b50505b505050565b5f82821c905092915050565b5f611c9a5f1984600802611c7f565b1980831691505092915050565b5f611cb28383611c8b565b9150826002028217905092915050565b611ccb82611704565b67ffffffffffffffff811115611ce457611ce361140d565b5b611cee8254611af5565b611cf9828285611c39565b5f60209050601f831160018114611d2a575f8415611d18578287015190505b611d228582611ca7565b865550611d89565b601f198416611d3886611b25565b5f5b82811015611d5f57848901518255600182019150602085019450602081019050611d3a565b86831015611d7c5784890151611d78601f891682611c8b565b8355505b6001600288020188555050505b505050505050565b7f4e487b71000000000000000000000000000000000000000000000000000000005f52601160045260245ffd5b5f611dc882611531565b9150611dd383611531565b9250828203905081811115611deb57611dea611d91565b5b92915050565b5f81519050611dff8161153a565b92915050565b5f60208284031215611e1a57611e196113ed565b5b5f611e2784828501611df1565b91505092915050565b7f4e487b71000000000000000000000000000000000000000000000000000000005f52603260045260245ffd5b5f8154611e6981611af5565b611e7381866119e6565b9450600182165f8114611e8d5760018114611ea257611ed4565b60ff1983168652811515820286019350611ed4565b611eab85611b25565b5f5b83811015611ecc57815481890152600182019150602081019050611ead565b838801955050505b50505092915050565b5f611ee88284611e5d565b915081905092915050565b5f611efd82611531565b9150611f0883611531565b9250828201905080821115611f2057611f1f611d91565b5b9291505056fe608060405234801561000f575f80fd5b506040516129e03803806129e0833981810160405281019061003191906102fd565b338383815f908161004291906105ae565b50806001908161005291906105ae565b5050505f73ffffffffffffffffffffffffffffffffffffffff168173ffffffffffffffffffffffffffffffffffffffff16036100c5575f6040517f1e4fbdf70000000000000000000000000000000000000000000000000000000081526004016100bc91906106bc565b60405180910390fd5b6100d4816100ed60201b60201c565b5080600890816100e491906105ae565b505050506106d5565b5f60065f9054906101000a900473ffffffffffffffffffffffffffffffffffffffff1690508160065f6101000a81548173ffffffffffffffffffffffffffffffffffffffff021916908373ffffffffffffffffffffffffffffffffffffffff1602179055508173ffffffffffffffffffffffffffffffffffffffff168173ffffffffffffffffffffffffffffffffffffffff167f8be0079c531659141344cd1fd0a4f28419497f9722a3daafe3b4186f6b6457e060405160405180910390a35050565b5f604051905090565b5f80fd5b5f80fd5b5f80fd5b5f80fd5b5f601f19601f8301169050919050565b7f4e487b71000000000000000000000000000000000000000000000000000000005f52604160045260245ffd5b61020f826101c9565b810181811067ffffffffffffffff8211171561022e5761022d6101d9565b5b80604052505050565b5f6102406101b0565b905061024c8282610206565b919050565b5f67ffffffffffffffff82111561026b5761026a6101d9565b5b610274826101c9565b9050602081019050919050565b8281835e5f83830152505050565b5f6102a161029c84610251565b610237565b9050828152602081018484840111156102bd576102bc6101c5565b5b6102c8848285610281565b509392505050565b5f82601f8301126102e4576102e36101c1565b5b81516102f484826020860161028f565b91505092915050565b5f805f60608486031215610314576103136101b9565b5b5f84015167ffffffffffffffff811115610331576103306101bd565b5b61033d868287016102d0565b935050602084015167ffffffffffffffff81111561035e5761035d6101bd565b5b61036a868287016102d0565b925050604084015167ffffffffffffffff81111561038b5761038a6101bd565b5b610397868287016102d0565b9150509250925092565b5f81519050919050565b7f4e487b71000000000000000000000000000000000000000000000000000000005f52602260045260245ffd5b5f60028204905060018216806103ef57607f821691505b602082108103610402576104016103ab565b5b50919050565b5f819050815f5260205f209050919050565b5f6020601f8301049050919050565b5f82821b905092915050565b5f600883026104647fffffffffffffffffffffffffffffffffffffffffffffffffffffffffffffffff82610429565b61046e8683610429565b95508019841693508086168417925050509392505050565b5f819050919050565b5f819050919050565b5f6104b26104ad6104a884610486565b61048f565b610486565b9050919050565b5f819050919050565b6104cb83610498565b6104df6104d7826104b9565b848454610435565b825550505050565b5f90565b6104f36104e7565b6104fe8184846104c2565b505050565b5b81811015610521576105165f826104eb565b600181019050610504565b5050565b601f8211156105665761053781610408565b6105408461041a565b8101602085101561054f578190505b61056361055b8561041a565b830182610503565b50505b505050565b5f82821c905092915050565b5f6105865f198460080261056b565b1980831691505092915050565b5f61059e8383610577565b9150826002028217905092915050565b6105b7826103a1565b67ffffffffffffffff8111156105d0576105cf6101d9565b5b6105da82546103d8565b6105e5828285610525565b5f60209050601f831160018114610616575f8415610604578287015190505b61060e8582610593565b865550610675565b601f19841661062486610408565b5f5b8281101561064b57848901518255600182019150602085019450602081019050610626565b868310156106685784890151610664601f891682610577565b8355505b6001600288020188555050505b505050505050565b5f73ffffffffffffffffffffffffffffffffffffffff82169050919050565b5f6106a68261067d565b9050919050565b6106b68161069c565b82525050565b5f6020820190506106cf5f8301846106ad565b92915050565b6122fe806106e25f395ff3fe608060405234801561000f575f80fd5b5060043610610109575f3560e01c806370a08231116100a0578063a22cb4651161006f578063a22cb465146102a1578063b88d4fde146102bd578063c87b56dd146102d9578063e985e9c514610309578063f2fde38b1461033957610109565b806370a082311461022b578063715018a61461025b5780638da5cb5b1461026557806395d89b411461028357610109565b806323b872dd116100dc57806323b872dd146101a757806342842e0e146101c35780636352211e146101df5780636a6278421461020f57610109565b806301ffc9a71461010d57806306fdde031461013d578063081812fc1461015b578063095ea7b31461018b575b5f80fd5b61012760048036038101906101229190611778565b610355565b60405161013491906117bd565b60405180910390f35b610145610436565b6040516101529190611846565b60405180910390f35b61017560048036038101906101709190611899565b6104c5565b6040516101829190611903565b60405180910390f35b6101a560048036038101906101a09190611946565b6104e0565b005b6101c160048036038101906101bc9190611984565b6104f6565b005b6101dd60048036038101906101d89190611984565b6105f5565b005b6101f960048036038101906101f49190611899565b610614565b6040516102069190611903565b60405180910390f35b610229600480360381019061022491906119d4565b610625565b005b610245600480360381019061024091906119d4565b610653565b6040516102529190611a0e565b60405180910390f35b610263610709565b005b61026d61071c565b60405161027a9190611903565b60405180910390f35b61028b610744565b6040516102989190611846565b60405180910390f35b6102bb60048036038101906102b69190611a51565b6107d4565b005b6102d760048036038101906102d29190611bbb565b6107ea565b005b6102f360048036038101906102ee9190611899565b610807565b6040516103009190611846565b60405180910390f35b610323600480360381019061031e9190611c3b565b610874565b60405161033091906117bd565b60405180910390f35b610353600480360381019061034e91906119d4565b610902565b005b5f7f80ac58cd000000000000000000000000000000000000000000000000000000007bffffffffffffffffffffffffffffffffffffffffffffffffffffffff1916827bffffffffffffffffffffffffffffffffffffffffffffffffffffffff1916148061041f57507f5b5e139f000000000000000000000000000000000000000000000000000000007bffffffffffffffffffffffffffffffffffffffffffffffffffffffff1916827bffffffffffffffffffffffffffffffffffffffffffffffffffffffff1916145b8061042f575061042e82610986565b5b9050919050565b60605f805461044490611ca6565b80601f016020809104026020016040519081016040528092919081815260200182805461047090611ca6565b80156104bb5780601f10610492576101008083540402835291602001916104bb565b820191905f5260205f20905b81548152906001019060200180831161049e57829003601f168201915b5050505050905090565b5f6104cf826109ef565b506104d982610a75565b9050919050565b6104f282826104ed610aae565b610ab5565b5050565b5f73ffffffffffffffffffffffffffffffffffffffff168273ffffffffffffffffffffffffffffffffffffffff1603610566575f6040517f64a0ae9200000000000000000000000000000000000000000000000000000000815260040161055d9190611903565b60405180910390fd5b5f6105798383610574610aae565b610ac7565b90508373ffffffffffffffffffffffffffffffffffffffff168173ffffffffffffffffffffffffffffffffffffffff16146105ef578382826040517f64283d7b0000000000000000000000000000000000000000000000000000000081526004016105e693929190611cd6565b60405180910390fd5b50505050565b61060f83838360405180602001604052805f8152506107ea565b505050565b5f61061e826109ef565b9050919050565b61062d610cd2565b61063981600754610d59565b60075f81548092919061064b90611d38565b919050555050565b5f8073ffffffffffffffffffffffffffffffffffffffff168273ffffffffffffffffffffffffffffffffffffffff16036106c4575f6040517f89c62b640000000000000000000000000000000000000000000000000000000081526004016106bb9190611903565b60405180910390fd5b60035f8373ffffffffffffffffffffffffffffffffffffffff1673ffffffffffffffffffffffffffffffffffffffff1681526020019081526020015f20549050919050565b610711610cd2565b61071a5f610e4c565b565b5f60065f9054906101000a900473ffffffffffffffffffffffffffffffffffffffff16905090565b60606001805461075390611ca6565b80601f016020809104026020016040519081016040528092919081815260200182805461077f90611ca6565b80156107ca5780601f106107a1576101008083540402835291602001916107ca565b820191905f5260205f20905b8154815290600101906020018083116107ad57829003601f168201915b5050505050905090565b6107e66107df610aae565b8383610f0f565b5050565b6107f58484846104f6565b61080184848484611078565b50505050565b6060610812826109ef565b5061084e61081e610436565b610826610436565b600860405160200161083a93929190611fe3565b60405160208183030381529060405261122a565b60405160200161085e9190612094565b6040516020818303038152906040529050919050565b5f60055f8473ffffffffffffffffffffffffffffffffffffffff1673ffffffffffffffffffffffffffffffffffffffff1681526020019081526020015f205f8373ffffffffffffffffffffffffffffffffffffffff1673ffffffffffffffffffffffffffffffffffffffff1681526020019081526020015f205f9054906101000a900460ff16905092915050565b61090a610cd2565b5f73ffffffffffffffffffffffffffffffffffffffff168173ffffffffffffffffffffffffffffffffffffffff160361097a575f6040517f1e4fbdf70000000000000000000000000000000000000000000000000000000081526004016109719190611903565b60405180910390fd5b61098381610e4c565b50565b5f7f01ffc9a7000000000000000000000000000000000000000000000000000000007bffffffffffffffffffffffffffffffffffffffffffffffffffffffff1916827bffffffffffffffffffffffffffffffffffffffffffffffffffffffff1916149050919050565b5f806109fa83611397565b90505f73ffffffffffffffffffffffffffffffffffffffff168173ffffffffffffffffffffffffffffffffffffffff1603610a6c57826040517f7e273289000000000000000000000000000000000000000000000000000000008152600401610a639190611a0e565b60405180910390fd5b80915050919050565b5f60045f8381526020019081526020015f205f9054906101000a900473ffffffffffffffffffffffffffffffffffffffff169050919050565b5f33905090565b610ac283838360016113d0565b505050565b5f80610ad284611397565b90505f73ffffffffffffffffffffffffffffffffffffffff168373ffffffffffffffffffffffffffffffffffffffff1614610b1357610b1281848661158f565b5b5f73ffffffffffffffffffffffffffffffffffffffff168173ffffffffffffffffffffffffffffffffffffffff1614610b9e57610b525f855f806113d0565b600160035f8373ffffffffffffffffffffffffffffffffffffffff1673ffffffffffffffffffffffffffffffffffffffff1681526020019081526020015f205f82825403925050819055505b5f73ffffffffffffffffffffffffffffffffffffffff168573ffffffffffffffffffffffffffffffffffffffff1614610c1d57600160035f8773ffffffffffffffffffffffffffffffffffffffff1673ffffffffffffffffffffffffffffffffffffffff1681526020019081526020015f205f82825401925050819055505b8460025f8681526020019081526020015f205f6101000a81548173ffffffffffffffffffffffffffffffffffffffff021916908373ffffffffffffffffffffffffffffffffffffffff160217905550838573ffffffffffffffffffffffffffffffffffffffff168273ffffffffffffffffffffffffffffffffffffffff167fddf252ad1be2c89b69c2b068fc378daa952ba7f163c4a11628f55a4df523b3ef60405160405180910390a4809150509392505050565b610cda610aae565b73ffffffffffffffffffffffffffffffffffffffff16610cf861071c565b73ffffffffffffffffffffffffffffffffffffffff1614610d5757610d1b610aae565b6040517f118cdaa7000000000000000000000000000000000000000000000000000000008152600401610d4e9190611903565b60405180910390fd5b565b5f73ffffffffffffffffffffffffffffffffffffffff168273ffffffffffffffffffffffffffffffffffffffff1603610dc9575f6040517f64a0ae92000000000000000000000000000000000000000000000000000000008152600401610dc09190611903565b60405180910390fd5b5f610dd583835f610ac7565b90505f73ffffffffffffffffffffffffffffffffffffffff168173ffffffffffffffffffffffffffffffffffffffff1614610e47575f6040517f73c6ac6e000000000000000000000000000000000000000000000000000000008152600401610e3e9190611903565b60405180910390fd5b505050565b5f60065f9054906101000a900473ffffffffffffffffffffffffffffffffffffffff1690508160065f6101000a81548173ffffffffffffffffffffffffffffffffffffffff021916908373ffffffffffffffffffffffffffffffffffffffff1602179055508173ffffffffffffffffffffffffffffffffffffffff168173ffffffffffffffffffffffffffffffffffffffff167f8be0079c531659141344cd1fd0a4f28419497f9722a3daafe3b4186f6b6457e060405160405180910390a35050565b5f73ffffffffffffffffffffffffffffffffffffffff168273ffffffffffffffffffffffffffffffffffffffff1603610f7f57816040517f5b08ba18000000000000000000000000000000000000000000000000000000008152600401610f769190611903565b60405180910390fd5b8060055f8573ffffffffffffffffffffffffffffffffffffffff1673ffffffffffffffffffffffffffffffffffffffff1681526020019081526020015f205f8473ffffffffffffffffffffffffffffffffffffffff1673ffffffffffffffffffffffffffffffffffffffff1681526020019081526020015f205f6101000a81548160ff0219169083151502179055508173ffffffffffffffffffffffffffffffffffffffff168373ffffffffffffffffffffffffffffffffffffffff167f17307eab39ab6107e8899845ad3d59bd9653f200f220920489ca2b5937696c318360405161106b91906117bd565b60405180910390a3505050565b5f8373ffffffffffffffffffffffffffffffffffffffff163b1115611224578273ffffffffffffffffffffffffffffffffffffffff1663150b7a026110bb610aae565b8685856040518563ffffffff1660e01b81526004016110dd9493929190612107565b6020604051808303815f875af192505050801561111857506040513d601f19601f820116820180604052508101906111159190612165565b60015b611199573d805f8114611146576040519150601f19603f3d011682016040523d82523d5f602084013e61114b565b606091505b505f81510361119157836040517f64a0ae920000000000000000000000000000000000000000000000000000000081526004016111889190611903565b60405180910390fd5b805181602001fd5b63150b7a0260e01b7bffffffffffffffffffffffffffffffffffffffffffffffffffffffff1916817bffffffffffffffffffffffffffffffffffffffffffffffffffffffff19161461122257836040517f64a0ae920000000000000000000000000000000000000000000000000000000081526004016112199190611903565b60405180910390fd5b505b50505050565b60605f82510361124a5760405180602001604052805f8152509050611392565b5f6040518060600160405280604081526020016122896040913990505f6003600285516112779190612190565b61128191906121f0565b600461128d9190612220565b67ffffffffffffffff8111156112a6576112a5611a97565b5b6040519080825280601f01601f1916602001820160405280156112d85781602001600182028036833780820191505090505b509050600182016020820185865187016020810180515f82525b8284101561134d576003840193508351603f8160121c168701518653600186019550603f81600c1c168701518653600186019550603f8160061c168701518653600186019550603f81168701518653600186019550506112f2565b80825260038a51066001811461136a576002811461137d57611385565b603d6001870353603d6002870353611385565b603d60018703535b5050505050505080925050505b919050565b5f60025f8381526020019081526020015f205f9054906101000a900473ffffffffffffffffffffffffffffffffffffffff169050919050565b808061140857505f73ffffffffffffffffffffffffffffffffffffffff168273ffffffffffffffffffffffffffffffffffffffff1614155b1561153a575f611417846109ef565b90505f73ffffffffffffffffffffffffffffffffffffffff168373ffffffffffffffffffffffffffffffffffffffff161415801561148157508273ffffffffffffffffffffffffffffffffffffffff168173ffffffffffffffffffffffffffffffffffffffff1614155b801561149457506114928184610874565b155b156114d657826040517fa9fbf51f0000000000000000000000000000000000000000000000000000000081526004016114cd9190611903565b60405180910390fd5b811561153857838573ffffffffffffffffffffffffffffffffffffffff168273ffffffffffffffffffffffffffffffffffffffff167f8c5be1e5ebec7d5bd14f71427d1e84f3dd0314c0f7b2291e5b200ac8c7c3b92560405160405180910390a45b505b8360045f8581526020019081526020015f205f6101000a81548173ffffffffffffffffffffffffffffffffffffffff021916908373ffffffffffffffffffffffffffffffffffffffff16021790555050505050565b61159a838383611652565b61164d575f73ffffffffffffffffffffffffffffffffffffffff168373ffffffffffffffffffffffffffffffffffffffff160361160e57806040517f7e2732890000000000000000000000000000000000000000000000000000000081526004016116059190611a0e565b60405180910390fd5b81816040517f177e802f000000000000000000000000000000000000000000000000000000008152600401611644929190612261565b60405180910390fd5b505050565b5f8073ffffffffffffffffffffffffffffffffffffffff168373ffffffffffffffffffffffffffffffffffffffff161415801561170957508273ffffffffffffffffffffffffffffffffffffffff168473ffffffffffffffffffffffffffffffffffffffff1614806116ca57506116c98484610874565b5b8061170857508273ffffffffffffffffffffffffffffffffffffffff166116f083610a75565b73ffffffffffffffffffffffffffffffffffffffff16145b5b90509392505050565b5f604051905090565b5f80fd5b5f80fd5b5f7fffffffff0000000000000000000000000000000000000000000000000000000082169050919050565b61175781611723565b8114611761575f80fd5b50565b5f813590506117728161174e565b92915050565b5f6020828403121561178d5761178c61171b565b5b5f61179a84828501611764565b91505092915050565b5f8115159050919050565b6117b7816117a3565b82525050565b5f6020820190506117d05f8301846117ae565b92915050565b5f81519050919050565b5f82825260208201905092915050565b8281835e5f83830152505050565b5f601f19601f8301169050919050565b5f611818826117d6565b61182281856117e0565b93506118328185602086016117f0565b61183b816117fe565b840191505092915050565b5f6020820190508181035f83015261185e818461180e565b905092915050565b5f819050919050565b61187881611866565b8114611882575f80fd5b50565b5f813590506118938161186f565b92915050565b5f602082840312156118ae576118ad61171b565b5b5f6118bb84828501611885565b91505092915050565b5f73ffffffffffffffffffffffffffffffffffffffff82169050919050565b5f6118ed826118c4565b9050919050565b6118fd816118e3565b82525050565b5f6020820190506119165f8301846118f4565b92915050565b611925816118e3565b811461192f575f80fd5b50565b5f813590506119408161191c565b92915050565b5f806040838503121561195c5761195b61171b565b5b5f61196985828601611932565b925050602061197a85828601611885565b9150509250929050565b5f805f6060848603121561199b5761199a61171b565b5b5f6119a886828701611932565b93505060206119b986828701611932565b92505060406119ca86828701611885565b9150509250925092565b5f602082840312156119e9576119e861171b565b5b5f6119f684828501611932565b91505092915050565b611a0881611866565b82525050565b5f602082019050611a215f8301846119ff565b92915050565b611a30816117a3565b8114611a3a575f80fd5b50565b5f81359050611a4b81611a27565b92915050565b5f8060408385031215611a6757611a6661171b565b5b5f611a7485828601611932565b9250506020611a8585828601611a3d565b9150509250929050565b5f80fd5b5f80fd5b7f4e487b71000000000000000000000000000000000000000000000000000000005f52604160045260245ffd5b611acd826117fe565b810181811067ffffffffffffffff82111715611aec57611aeb611a97565b5b80604052505050565b5f611afe611712565b9050611b0a8282611ac4565b919050565b5f67ffffffffffffffff821115611b2957611b28611a97565b5b611b32826117fe565b9050602081019050919050565b828183375f83830152505050565b5f611b5f611b5a84611b0f565b611af5565b905082815260208101848484011115611b7b57611b7a611a93565b5b611b86848285611b3f565b509392505050565b5f82601f830112611ba257611ba1611a8f565b5b8135611bb2848260208601611b4d565b91505092915050565b5f805f8060808587031215611bd357611bd261171b565b5b5f611be087828801611932565b9450506020611bf187828801611932565b9350506040611c0287828801611885565b925050606085013567ffffffffffffffff811115611c2357611c2261171f565b5b611c2f87828801611b8e565b91505092959194509250565b5f8060408385031215611c5157611c5061171b565b5b5f611c5e85828601611932565b9250506020611c6f85828601611932565b9150509250929050565b7f4e487b71000000000000000000000000000000000000000000000000000000005f52602260045260245ffd5b5f6002820490506001821680611cbd57607f821691505b602082108103611cd057611ccf611c79565b5b50919050565b5f606082019050611ce95f8301866118f4565b611cf660208301856119ff565b611d0360408301846118f4565b949350505050565b7f4e487b71000000000000000000000000000000000000000000000000000000005f52601160045260245ffd5b5f611d4282611866565b91507fffffffffffffffffffffffffffffffffffffffffffffffffffffffffffffffff8203611d7457611d73611d0b565b5b600182019050919050565b5f81905092915050565b7f7b226e616d65223a2200000000000000000000000000000000000000000000005f82015250565b5f611dbd600983611d7f565b9150611dc882611d89565b600982019050919050565b5f611ddd826117d6565b611de78185611d7f565b9350611df78185602086016117f0565b80840191505092915050565b7f222c20226465736372697074696f6e223a22416e204e465420746861742072655f8201527f666c6563747320746865206f776e657273686970206f662067616d65202d2000602082015250565b5f611e5d603f83611d7f565b9150611e6882611e03565b603f82019050919050565b7f222c2000000000000000000000000000000000000000000000000000000000005f82015250565b5f611ea7600383611d7f565b9150611eb282611e73565b600382019050919050565b7f22696d616765223a2200000000000000000000000000000000000000000000005f82015250565b5f611ef1600983611d7f565b9150611efc82611ebd565b600982019050919050565b5f819050815f5260205f209050919050565b5f8154611f2581611ca6565b611f2f8186611d7f565b9450600182165f8114611f495760018114611f5e57611f90565b60ff1983168652811515820286019350611f90565b611f6785611f07565b5f5b83811015611f8857815481890152600182019150602081019050611f69565b838801955050505b50505092915050565b7f227d0000000000000000000000000000000000000000000000000000000000005f82015250565b5f611fcd600283611d7f565b9150611fd882611f99565b600282019050919050565b5f611fed82611db1565b9150611ff98286611dd3565b915061200482611e51565b91506120108285611dd3565b915061201b82611e9b565b915061202682611ee5565b91506120328284611f19565b915061203d82611fc1565b9150819050949350505050565b7f646174613a6170706c69636174696f6e2f6a736f6e3b6261736536342c0000005f82015250565b5f61207e601d83611d7f565b91506120898261204a565b601d82019050919050565b5f61209e82612072565b91506120aa8284611dd3565b915081905092915050565b5f81519050919050565b5f82825260208201905092915050565b5f6120d9826120b5565b6120e381856120bf565b93506120f38185602086016117f0565b6120fc816117fe565b840191505092915050565b5f60808201905061211a5f8301876118f4565b61212760208301866118f4565b61213460408301856119ff565b818103606083015261214681846120cf565b905095945050505050565b5f8151905061215f8161174e565b92915050565b5f6020828403121561217a5761217961171b565b5b5f61218784828501612151565b91505092915050565b5f61219a82611866565b91506121a583611866565b92508282019050808211156121bd576121bc611d0b565b5b92915050565b7f4e487b71000000000000000000000000000000000000000000000000000000005f52601260045260245ffd5b5f6121fa82611866565b915061220583611866565b925082612215576122146121c3565b5b828204905092915050565b5f61222a82611866565b915061223583611866565b925082820261224381611866565b9150828204841483151761225a57612259611d0b565b5b5092915050565b5f6040820190506122745f8301856118f4565b61228160208301846119ff565b939250505056fe4142434445464748494a4b4c4d4e4f505152535455565758595a6162636465666768696a6b6c6d6e6f707172737475767778797a303132333435363738392b2fa2646970667358221220558c2dc897274068477ea829f6da0f481dac225b6b93681c7bf01ab595996b8064736f6c63430008190033a2646970667358221220c0aab6a80a9dc538a76fb0897ff110d1fb0bb803ca72b832ab9e6a0d06ca21a564736f6c63430008190033",
		"opcodes": "PUSH1 0x80 PUSH1 0x40 MSTORE PUSH1 0x4 CALLDATASIZE LT PUSH2 0x7A JUMPI PUSH0 CALLDATALOAD PUSH1 0xE0 SHR DUP1 PUSH4 0x8D00FE0B GT PUSH2 0x4D JUMPI DUP1 PUSH4 0x8D00FE0B EQ PUSH2 0x15A JUMPI DUP1 PUSH4 0xC04C5947 EQ PUSH2 0x170 JUMPI DUP1 PUSH4 0xC379CD78 EQ PUSH2 0x19A JUMPI DUP1 PUSH4 0xDBEF6528 EQ PUSH2 0x1C4 JUMPI PUSH2 0x7A JUMP JUMPDEST DUP1 PUSH4 0x2A60D6CA EQ PUSH2 0x7E JUMPI DUP1 PUSH4 0x396130B9 EQ PUSH2 0xA6 JUMPI DUP1 PUSH4 0x7FD6145C EQ PUSH2 0xE2 JUMPI DUP1 PUSH4 0x8C647194 EQ PUSH2 0x11E JUMPI JUMPDEST PUSH0 DUP1 REVERT JUMPDEST CALLVALUE DUP1 ISZERO PUSH2 0x89 JUMPI PUSH0 DUP1 REVERT JUMPDEST POP PUSH2 0xA4 PUSH1 0x4 DUP1 CALLDATASIZE SUB DUP2 ADD SWAP1 PUSH2 0x9F SWAP2 SWAP1 PUSH2 0x1564 JUMP JUMPDEST PUSH2 0x1E0 JUMP JUMPDEST STOP JUMPDEST CALLVALUE DUP1 ISZERO PUSH2 0xB1 JUMPI PUSH0 DUP1 REVERT JUMPDEST POP PUSH2 0xCC PUSH1 0x4 DUP1 CALLDATASIZE SUB DUP2 ADD SWAP1 PUSH2 0xC7 SWAP2 SWAP1 PUSH2 0x164B JUMP JUMPDEST PUSH2 0x517 JUMP JUMPDEST PUSH1 0x40 MLOAD PUSH2 0xD9 SWAP2 SWAP1 PUSH2 0x16AC JUMP JUMPDEST PUSH1 0x40 MLOAD DUP1 SWAP2 SUB SWAP1 RETURN JUMPDEST CALLVALUE DUP1 ISZERO PUSH2 0xED JUMPI PUSH0 DUP1 REVERT JUMPDEST POP PUSH2 0x108 PUSH1 0x4 DUP1 CALLDATASIZE SUB DUP2 ADD SWAP1 PUSH2 0x103 SWAP2 SWAP1 PUSH2 0x164B JUMP JUMPDEST PUSH2 0x64A JUMP JUMPDEST PUSH1 0x40 MLOAD PUSH2 0x115 SWAP2 SWAP1 PUSH2 0x1807 JUMP JUMPDEST PUSH1 0x40 MLOAD DUP1 SWAP2 SUB SWAP1 RETURN JUMPDEST CALLVALUE DUP1 ISZERO PUSH2 0x129 JUMPI PUSH0 DUP1 REVERT JUMPDEST POP PUSH2 0x144 PUSH1 0x4 DUP1 CALLDATASIZE SUB DUP2 ADD SWAP1 PUSH2 0x13F SWAP2 SWAP1 PUSH2 0x164B JUMP JUMPDEST PUSH2 0x952 JUMP JUMPDEST PUSH1 0x40 MLOAD PUSH2 0x151 SWAP2 SWAP1 PUSH2 0x1836 JUMP JUMPDEST PUSH1 0x40 MLOAD DUP1 SWAP2 SUB SWAP1 RETURN JUMPDEST CALLVALUE DUP1 ISZERO PUSH2 0x165 JUMPI PUSH0 DUP1 REVERT JUMPDEST POP PUSH2 0x16E PUSH2 0x99B JUMP JUMPDEST STOP JUMPDEST CALLVALUE DUP1 ISZERO PUSH2 0x17B JUMPI PUSH0 DUP1 REVERT JUMPDEST POP PUSH2 0x184 PUSH2 0xB19 JUMP JUMPDEST PUSH1 0x40 MLOAD PUSH2 0x191 SWAP2 SWAP1 PUSH2 0x199E JUMP JUMPDEST PUSH1 0x40 MLOAD DUP1 SWAP2 SUB SWAP1 RETURN JUMPDEST CALLVALUE DUP1 ISZERO PUSH2 0x1A5 JUMPI PUSH0 DUP1 REVERT JUMPDEST POP PUSH2 0x1AE PUSH2 0xE60 JUMP JUMPDEST PUSH1 0x40 MLOAD PUSH2 0x1BB SWAP2 SWAP1 PUSH2 0x19CD JUMP JUMPDEST PUSH1 0x40 MLOAD DUP1 SWAP2 SUB SWAP1 RETURN JUMPDEST PUSH2 0x1DE PUSH1 0x4 DUP1 CALLDATASIZE SUB DUP2 ADD SWAP1 PUSH2 0x1D9 SWAP2 SWAP1 PUSH2 0x164B JUMP JUMPDEST PUSH2 0xE6C JUMP JUMPDEST STOP JUMPDEST PUSH0 PUSH20 0xFFFFFFFFFFFFFFFFFFFFFFFFFFFFFFFFFFFFFFFF AND PUSH1 0x2 DUP7 PUSH1 0x40 MLOAD PUSH2 0x207 SWAP2 SWAP1 PUSH2 0x1A20 JUMP JUMPDEST SWAP1 DUP2 MSTORE PUSH1 0x20 ADD PUSH1 0x40 MLOAD DUP1 SWAP2 SUB SWAP1 KECCAK256 PUSH0 ADD PUSH0 SWAP1 SLOAD SWAP1 PUSH2 0x100 EXP SWAP1 DIV PUSH20 0xFFFFFFFFFFFFFFFFFFFFFFFFFFFFFFFFFFFFFFFF AND PUSH20 0xFFFFFFFFFFFFFFFFFFFFFFFFFFFFFFFFFFFFFFFF AND EQ PUSH2 0x284 JUMPI PUSH1 0x40 MLOAD PUSH32 0x5F4BE31C00000000000000000000000000000000000000000000000000000000 DUP2 MSTORE PUSH1 0x4 ADD PUSH1 0x40 MLOAD DUP1 SWAP2 SUB SWAP1 REVERT JUMPDEST PUSH0 DUP5 DUP5 DUP4 PUSH1 0x40 MLOAD PUSH2 0x294 SWAP1 PUSH2 0x1378 JUMP JUMPDEST PUSH2 0x2A0 SWAP4 SWAP3 SWAP2 SWAP1 PUSH2 0x1A7E JUMP JUMPDEST PUSH1 0x40 MLOAD DUP1 SWAP2 SUB SWAP1 PUSH0 CREATE DUP1 ISZERO DUP1 ISZERO PUSH2 0x2B9 JUMPI RETURNDATASIZE PUSH0 DUP1 RETURNDATACOPY RETURNDATASIZE PUSH0 REVERT JUMPDEST POP SWAP1 POP DUP1 PUSH20 0xFFFFFFFFFFFFFFFFFFFFFFFFFFFFFFFFFFFFFFFF AND PUSH4 0x6A627842 CALLER PUSH1 0x40 MLOAD DUP3 PUSH4 0xFFFFFFFF AND PUSH1 0xE0 SHL DUP2 MSTORE PUSH1 0x4 ADD PUSH2 0x2F5 SWAP2 SWAP1 PUSH2 0x1836 JUMP JUMPDEST PUSH0 PUSH1 0x40 MLOAD DUP1 DUP4 SUB DUP2 PUSH0 DUP8 DUP1 EXTCODESIZE ISZERO DUP1 ISZERO PUSH2 0x30C JUMPI PUSH0 DUP1 REVERT JUMPDEST POP GAS CALL ISZERO DUP1 ISZERO PUSH2 0x31E JUMPI RETURNDATASIZE PUSH0 DUP1 RETURNDATACOPY RETURNDATASIZE PUSH0 REVERT JUMPDEST POP POP POP POP PUSH1 0x40 MLOAD DUP1 PUSH1 0xC0 ADD PUSH1 0x40 MSTORE DUP1 CALLER PUSH20 0xFFFFFFFFFFFFFFFFFFFFFFFFFFFFFFFFFFFFFFFF AND DUP2 MSTORE PUSH1 0x20 ADD DUP8 DUP2 MSTORE PUSH1 0x20 ADD DUP3 PUSH20 0xFFFFFFFFFFFFFFFFFFFFFFFFFFFFFFFFFFFFFFFF AND DUP2 MSTORE PUSH1 0x20 ADD DUP7 DUP2 MSTORE PUSH1 0x20 ADD DUP5 DUP2 MSTORE PUSH1 0x20 ADD DUP4 DUP2 MSTORE POP PUSH1 0x2 DUP8 PUSH1 0x40 MLOAD PUSH2 0x38B SWAP2 SWAP1 PUSH2 0x1A20 JUMP JUMPDEST SWAP1 DUP2 MSTORE PUSH1 0x20 ADD PUSH1 0x40 MLOAD DUP1 SWAP2 SUB SWAP1 KECCAK256 PUSH0 DUP3 ADD MLOAD DUP2 PUSH0 ADD PUSH0 PUSH2 0x100 EXP DUP2 SLOAD DUP2 PUSH20 0xFFFFFFFFFFFFFFFFFFFFFFFFFFFFFFFFFFFFFFFF MUL NOT AND SWAP1 DUP4 PUSH20 0xFFFFFFFFFFFFFFFFFFFFFFFFFFFFFFFFFFFFFFFF AND MUL OR SWAP1 SSTORE POP PUSH1 0x20 DUP3 ADD MLOAD DUP2 PUSH1 0x1 ADD SWAP1 DUP2 PUSH2 0x3F2 SWAP2 SWAP1 PUSH2 0x1CC2 JUMP JUMPDEST POP PUSH1 0x40 DUP3 ADD MLOAD DUP2 PUSH1 0x2 ADD PUSH0 PUSH2 0x100 EXP DUP2 SLOAD DUP2 PUSH20 0xFFFFFFFFFFFFFFFFFFFFFFFFFFFFFFFFFFFFFFFF MUL NOT AND SWAP1 DUP4 PUSH20 0xFFFFFFFFFFFFFFFFFFFFFFFFFFFFFFFFFFFFFFFF AND MUL OR SWAP1 SSTORE POP PUSH1 0x60 DUP3 ADD MLOAD DUP2 PUSH1 0x3 ADD SWAP1 DUP2 PUSH2 0x44E SWAP2 SWAP1 PUSH2 0x1CC2 JUMP JUMPDEST POP PUSH1 0x80 DUP3 ADD MLOAD DUP2 PUSH1 0x4 ADD SSTORE PUSH1 0xA0 DUP3 ADD MLOAD DUP2 PUSH1 0x5 ADD SWAP1 DUP2 PUSH2 0x46E SWAP2 SWAP1 PUSH2 0x1CC2 JUMP JUMPDEST POP SWAP1 POP POP PUSH1 0x3 DUP7 SWAP1 DUP1 PUSH1 0x1 DUP2 SLOAD ADD DUP1 DUP3 SSTORE DUP1 SWAP2 POP POP PUSH1 0x1 SWAP1 SUB SWAP1 PUSH0 MSTORE PUSH1 0x20 PUSH0 KECCAK256 ADD PUSH0 SWAP1 SWAP2 SWAP1 SWAP2 SWAP1 SWAP2 POP SWAP1 DUP2 PUSH2 0x4A3 SWAP2 SWAP1 PUSH2 0x1CC2 JUMP JUMPDEST POP DUP1 PUSH20 0xFFFFFFFFFFFFFFFFFFFFFFFFFFFFFFFFFFFFFFFF AND DUP7 PUSH1 0x40 MLOAD PUSH2 0x4C9 SWAP2 SWAP1 PUSH2 0x1A20 JUMP JUMPDEST PUSH1 0x40 MLOAD DUP1 SWAP2 SUB SWAP1 KECCAK256 PUSH1 0x1 PUSH1 0x3 DUP1 SLOAD SWAP1 POP PUSH2 0x4E3 SWAP2 SWAP1 PUSH2 0x1DBE JUMP JUMPDEST PUSH32 0x1B53114C999DED51A67E2C46B7ABA69BD40E2D7A5B1E3E4A8B7F12C122FF3A50 PUSH1 0x40 MLOAD PUSH1 0x40 MLOAD DUP1 SWAP2 SUB SWAP1 LOG4 POP POP POP POP POP POP JUMP JUMPDEST PUSH0 DUP1 PUSH1 0x2 DUP4 PUSH1 0x40 MLOAD PUSH2 0x529 SWAP2 SWAP1 PUSH2 0x1A20 JUMP JUMPDEST SWAP1 DUP2 MSTORE PUSH1 0x20 ADD PUSH1 0x40 MLOAD DUP1 SWAP2 SUB SWAP1 KECCAK256 PUSH1 0x2 ADD PUSH0 SWAP1 SLOAD SWAP1 PUSH2 0x100 EXP SWAP1 DIV PUSH20 0xFFFFFFFFFFFFFFFFFFFFFFFFFFFFFFFFFFFFFFFF AND SWAP1 POP PUSH0 PUSH20 0xFFFFFFFFFFFFFFFFFFFFFFFFFFFFFFFFFFFFFFFF AND DUP2 PUSH20 0xFFFFFFFFFFFFFFFFFFFFFFFFFFFFFFFFFFFFFFFF AND SUB PUSH2 0x5C1 JUMPI PUSH1 0x40 MLOAD PUSH32 0x57E25A0900000000000000000000000000000000000000000000000000000000 DUP2 MSTORE PUSH1 0x4 ADD PUSH1 0x40 MLOAD DUP1 SWAP2 SUB SWAP1 REVERT JUMPDEST PUSH0 DUP2 SWAP1 POP PUSH1 0x1 DUP2 PUSH20 0xFFFFFFFFFFFFFFFFFFFFFFFFFFFFFFFFFFFFFFFF AND PUSH4 0x70A08231 CALLER PUSH1 0x40 MLOAD DUP3 PUSH4 0xFFFFFFFF AND PUSH1 0xE0 SHL DUP2 MSTORE PUSH1 0x4 ADD PUSH2 0x600 SWAP2 SWAP1 PUSH2 0x1836 JUMP JUMPDEST PUSH1 0x20 PUSH1 0x40 MLOAD DUP1 DUP4 SUB DUP2 DUP7 GAS STATICCALL ISZERO DUP1 ISZERO PUSH2 0x61B JUMPI RETURNDATASIZE PUSH0 DUP1 RETURNDATACOPY RETURNDATASIZE PUSH0 REVERT JUMPDEST POP POP POP POP PUSH1 0x40 MLOAD RETURNDATASIZE PUSH1 0x1F NOT PUSH1 0x1F DUP3 ADD AND DUP3 ADD DUP1 PUSH1 0x40 MSTORE POP DUP2 ADD SWAP1 PUSH2 0x63F SWAP2 SWAP1 PUSH2 0x1E05 JUMP JUMPDEST LT ISZERO SWAP3 POP POP POP SWAP2 SWAP1 POP JUMP JUMPDEST PUSH2 0x652 PUSH2 0x1385 JUMP JUMPDEST PUSH0 PUSH1 0x2 DUP4 PUSH1 0x40 MLOAD PUSH2 0x663 SWAP2 SWAP1 PUSH2 0x1A20 JUMP JUMPDEST SWAP1 DUP2 MSTORE PUSH1 0x20 ADD PUSH1 0x40 MLOAD DUP1 SWAP2 SUB SWAP1 KECCAK256 PUSH1 0x40 MLOAD DUP1 PUSH1 0xC0 ADD PUSH1 0x40 MSTORE SWAP1 DUP2 PUSH0 DUP3 ADD PUSH0 SWAP1 SLOAD SWAP1 PUSH2 0x100 EXP SWAP1 DIV PUSH20 0xFFFFFFFFFFFFFFFFFFFFFFFFFFFFFFFFFFFFFFFF AND PUSH20 0xFFFFFFFFFFFFFFFFFFFFFFFFFFFFFFFFFFFFFFFF AND PUSH20 0xFFFFFFFFFFFFFFFFFFFFFFFFFFFFFFFFFFFFFFFF AND DUP2 MSTORE PUSH1 0x20 ADD PUSH1 0x1 DUP3 ADD DUP1 SLOAD PUSH2 0x6E0 SWAP1 PUSH2 0x1AF5 JUMP JUMPDEST DUP1 PUSH1 0x1F ADD PUSH1 0x20 DUP1 SWAP2 DIV MUL PUSH1 0x20 ADD PUSH1 0x40 MLOAD SWAP1 DUP2 ADD PUSH1 0x40 MSTORE DUP1 SWAP3 SWAP2 SWAP1 DUP2 DUP2 MSTORE PUSH1 0x20 ADD DUP3 DUP1 SLOAD PUSH2 0x70C SWAP1 PUSH2 0x1AF5 JUMP JUMPDEST DUP1 ISZERO PUSH2 0x757 JUMPI DUP1 PUSH1 0x1F LT PUSH2 0x72E JUMPI PUSH2 0x100 DUP1 DUP4 SLOAD DIV MUL DUP4 MSTORE SWAP2 PUSH1 0x20 ADD SWAP2 PUSH2 0x757 JUMP JUMPDEST DUP3 ADD SWAP2 SWAP1 PUSH0 MSTORE PUSH1 0x20 PUSH0 KECCAK256 SWAP1 JUMPDEST DUP2 SLOAD DUP2 MSTORE SWAP1 PUSH1 0x1 ADD SWAP1 PUSH1 0x20 ADD DUP1 DUP4 GT PUSH2 0x73A JUMPI DUP3 SWAP1 SUB PUSH1 0x1F AND DUP3 ADD SWAP2 JUMPDEST POP POP POP POP POP DUP2 MSTORE PUSH1 0x20 ADD PUSH1 0x2 DUP3 ADD PUSH0 SWAP1 SLOAD SWAP1 PUSH2 0x100 EXP SWAP1 DIV PUSH20 0xFFFFFFFFFFFFFFFFFFFFFFFFFFFFFFFFFFFFFFFF AND PUSH20 0xFFFFFFFFFFFFFFFFFFFFFFFFFFFFFFFFFFFFFFFF AND PUSH20 0xFFFFFFFFFFFFFFFFFFFFFFFFFFFFFFFFFFFFFFFF AND DUP2 MSTORE PUSH1 0x20 ADD PUSH1 0x3 DUP3 ADD DUP1 SLOAD PUSH2 0x7C5 SWAP1 PUSH2 0x1AF5 JUMP JUMPDEST DUP1 PUSH1 0x1F ADD PUSH1 0x20 DUP1 SWAP2 DIV MUL PUSH1 0x20 ADD PUSH1 0x40 MLOAD SWAP1 DUP2 ADD PUSH1 0x40 MSTORE DUP1 SWAP3 SWAP2 SWAP1 DUP2 DUP2 MSTORE PUSH1 0x20 ADD DUP3 DUP1 SLOAD PUSH2 0x7F1 SWAP1 PUSH2 0x1AF5 JUMP JUMPDEST DUP1 ISZERO PUSH2 0x83C JUMPI DUP1 PUSH1 0x1F LT PUSH2 0x813 JUMPI PUSH2 0x100 DUP1 DUP4 SLOAD DIV MUL DUP4 MSTORE SWAP2 PUSH1 0x20 ADD SWAP2 PUSH2 0x83C JUMP JUMPDEST DUP3 ADD SWAP2 SWAP1 PUSH0 MSTORE PUSH1 0x20 PUSH0 KECCAK256 SWAP1 JUMPDEST DUP2 SLOAD DUP2 MSTORE SWAP1 PUSH1 0x1 ADD SWAP1 PUSH1 0x20 ADD DUP1 DUP4 GT PUSH2 0x81F JUMPI DUP3 SWAP1 SUB PUSH1 0x1F AND DUP3 ADD SWAP2 JUMPDEST POP POP POP POP POP DUP2 MSTORE PUSH1 0x20 ADD PUSH1 0x4 DUP3 ADD SLOAD DUP2 MSTORE PUSH1 0x20 ADD PUSH1 0x5 DUP3 ADD DUP1 SLOAD PUSH2 0x85F SWAP1 PUSH2 0x1AF5 JUMP JUMPDEST DUP1 PUSH1 0x1F ADD PUSH1 0x20 DUP1 SWAP2 DIV MUL PUSH1 0x20 ADD PUSH1 0x40 MLOAD SWAP1 DUP2 ADD PUSH1 0x40 MSTORE DUP1 SWAP3 SWAP2 SWAP1 DUP2 DUP2 MSTORE PUSH1 0x20 ADD DUP3 DUP1 SLOAD PUSH2 0x88B SWAP1 PUSH2 0x1AF5 JUMP JUMPDEST DUP1 ISZERO PUSH2 0x8D6 JUMPI DUP1 PUSH1 0x1F LT PUSH2 0x8AD JUMPI PUSH2 0x100 DUP1 DUP4 SLOAD DIV MUL DUP4 MSTORE SWAP2 PUSH1 0x20 ADD SWAP2 PUSH2 0x8D6 JUMP JUMPDEST DUP3 ADD SWAP2 SWAP1 PUSH0 MSTORE PUSH1 0x20 PUSH0 KECCAK256 SWAP1 JUMPDEST DUP2 SLOAD DUP2 MSTORE SWAP1 PUSH1 0x1 ADD SWAP1 PUSH1 0x20 ADD DUP1 DUP4 GT PUSH2 0x8B9 JUMPI DUP3 SWAP1 SUB PUSH1 0x1F AND DUP3 ADD SWAP2 JUMPDEST POP POP POP POP POP DUP2 MSTORE POP POP SWAP1 POP PUSH0 PUSH20 0xFFFFFFFFFFFFFFFFFFFFFFFFFFFFFFFFFFFFFFFF AND DUP2 PUSH0 ADD MLOAD PUSH20 0xFFFFFFFFFFFFFFFFFFFFFFFFFFFFFFFFFFFFFFFF AND SUB PUSH2 0x949 JUMPI PUSH1 0x40 MLOAD PUSH32 0x57E25A0900000000000000000000000000000000000000000000000000000000 DUP2 MSTORE PUSH1 0x4 ADD PUSH1 0x40 MLOAD DUP1 SWAP2 SUB SWAP1 REVERT JUMPDEST DUP1 SWAP2 POP POP SWAP2 SWAP1 POP JUMP JUMPDEST PUSH0 PUSH1 0x2 DUP3 PUSH1 0x40 MLOAD PUSH2 0x963 SWAP2 SWAP1 PUSH2 0x1A20 JUMP JUMPDEST SWAP1 DUP2 MSTORE PUSH1 0x20 ADD PUSH1 0x40 MLOAD DUP1 SWAP2 SUB SWAP1 KECCAK256 PUSH1 0x2 ADD PUSH0 SWAP1 SLOAD SWAP1 PUSH2 0x100 EXP SWAP1 DIV PUSH20 0xFFFFFFFFFFFFFFFFFFFFFFFFFFFFFFFFFFFFFFFF AND SWAP1 POP SWAP2 SWAP1 POP JUMP JUMPDEST PUSH0 PUSH1 0x4 PUSH0 CALLER PUSH20 0xFFFFFFFFFFFFFFFFFFFFFFFFFFFFFFFFFFFFFFFF AND PUSH20 0xFFFFFFFFFFFFFFFFFFFFFFFFFFFFFFFFFFFFFFFF AND DUP2 MSTORE PUSH1 0x20 ADD SWAP1 DUP2 MSTORE PUSH1 0x20 ADD PUSH0 KECCAK256 SLOAD SUB PUSH2 0xA11 JUMPI PUSH1 0x40 MLOAD PUSH32 0x356680B700000000000000000000000000000000000000000000000000000000 DUP2 MSTORE PUSH1 0x4 ADD PUSH1 0x40 MLOAD DUP1 SWAP2 SUB SWAP1 REVERT JUMPDEST CALLER PUSH20 0xFFFFFFFFFFFFFFFFFFFFFFFFFFFFFFFFFFFFFFFF AND PUSH2 0x8FC PUSH1 0x4 PUSH0 CALLER PUSH20 0xFFFFFFFFFFFFFFFFFFFFFFFFFFFFFFFFFFFFFFFF AND PUSH20 0xFFFFFFFFFFFFFFFFFFFFFFFFFFFFFFFFFFFFFFFF AND DUP2 MSTORE PUSH1 0x20 ADD SWAP1 DUP2 MSTORE PUSH1 0x20 ADD PUSH0 KECCAK256 SLOAD SWAP1 DUP2 ISZERO MUL SWAP1 PUSH1 0x40 MLOAD PUSH0 PUSH1 0x40 MLOAD DUP1 DUP4 SUB DUP2 DUP6 DUP9 DUP9 CALL SWAP4 POP POP POP POP ISZERO DUP1 ISZERO PUSH2 0xA91 JUMPI RETURNDATASIZE PUSH0 DUP1 RETURNDATACOPY RETURNDATASIZE PUSH0 REVERT JUMPDEST POP PUSH0 PUSH1 0x4 PUSH0 CALLER PUSH20 0xFFFFFFFFFFFFFFFFFFFFFFFFFFFFFFFFFFFFFFFF AND PUSH20 0xFFFFFFFFFFFFFFFFFFFFFFFFFFFFFFFFFFFFFFFF AND DUP2 MSTORE PUSH1 0x20 ADD SWAP1 DUP2 MSTORE PUSH1 0x20 ADD PUSH0 KECCAK256 DUP2 SWAP1 SSTORE POP CALLER PUSH20 0xFFFFFFFFFFFFFFFFFFFFFFFFFFFFFFFFFFFFFFFF AND PUSH32 0xC43456380866B66F35F174AB56EFABBEB1145C4BBF6FE8047C2590E378346EF7 PUSH1 0x40 MLOAD PUSH1 0x40 MLOAD DUP1 SWAP2 SUB SWAP1 LOG2 JUMP JUMPDEST PUSH1 0x60 PUSH0 PUSH1 0x3 DUP1 SLOAD SWAP1 POP PUSH8 0xFFFFFFFFFFFFFFFF DUP2 GT ISZERO PUSH2 0xB3B JUMPI PUSH2 0xB3A PUSH2 0x140D JUMP JUMPDEST JUMPDEST PUSH1 0x40 MLOAD SWAP1 DUP1 DUP3 MSTORE DUP1 PUSH1 0x20 MUL PUSH1 0x20 ADD DUP3 ADD PUSH1 0x40 MSTORE DUP1 ISZERO PUSH2 0xB74 JUMPI DUP2 PUSH1 0x20 ADD JUMPDEST PUSH2 0xB61 PUSH2 0x1385 JUMP JUMPDEST DUP2 MSTORE PUSH1 0x20 ADD SWAP1 PUSH1 0x1 SWAP1 SUB SWAP1 DUP2 PUSH2 0xB59 JUMPI SWAP1 POP JUMPDEST POP SWAP1 POP PUSH0 JUMPDEST PUSH1 0x3 DUP1 SLOAD SWAP1 POP DUP2 LT ISZERO PUSH2 0xE58 JUMPI PUSH1 0x2 PUSH1 0x3 DUP3 DUP2 SLOAD DUP2 LT PUSH2 0xB9C JUMPI PUSH2 0xB9B PUSH2 0x1E30 JUMP JUMPDEST JUMPDEST SWAP1 PUSH0 MSTORE PUSH1 0x20 PUSH0 KECCAK256 ADD PUSH1 0x40 MLOAD PUSH2 0xBB1 SWAP2 SWAP1 PUSH2 0x1EDD JUMP JUMPDEST SWAP1 DUP2 MSTORE PUSH1 0x20 ADD PUSH1 0x40 MLOAD DUP1 SWAP2 SUB SWAP1 KECCAK256 PUSH1 0x40 MLOAD DUP1 PUSH1 0xC0 ADD PUSH1 0x40 MSTORE SWAP1 DUP2 PUSH0 DUP3 ADD PUSH0 SWAP1 SLOAD SWAP1 PUSH2 0x100 EXP SWAP1 DIV PUSH20 0xFFFFFFFFFFFFFFFFFFFFFFFFFFFFFFFFFFFFFFFF AND PUSH20 0xFFFFFFFFFFFFFFFFFFFFFFFFFFFFFFFFFFFFFFFF AND PUSH20 0xFFFFFFFFFFFFFFFFFFFFFFFFFFFFFFFFFFFFFFFF AND DUP2 MSTORE PUSH1 0x20 ADD PUSH1 0x1 DUP3 ADD DUP1 SLOAD PUSH2 0xC2E SWAP1 PUSH2 0x1AF5 JUMP JUMPDEST DUP1 PUSH1 0x1F ADD PUSH1 0x20 DUP1 SWAP2 DIV MUL PUSH1 0x20 ADD PUSH1 0x40 MLOAD SWAP1 DUP2 ADD PUSH1 0x40 MSTORE DUP1 SWAP3 SWAP2 SWAP1 DUP2 DUP2 MSTORE PUSH1 0x20 ADD DUP3 DUP1 SLOAD PUSH2 0xC5A SWAP1 PUSH2 0x1AF5 JUMP JUMPDEST DUP1 ISZERO PUSH2 0xCA5 JUMPI DUP1 PUSH1 0x1F LT PUSH2 0xC7C JUMPI PUSH2 0x100 DUP1 DUP4 SLOAD DIV MUL DUP4 MSTORE SWAP2 PUSH1 0x20 ADD SWAP2 PUSH2 0xCA5 JUMP JUMPDEST DUP3 ADD SWAP2 SWAP1 PUSH0 MSTORE PUSH1 0x20 PUSH0 KECCAK256 SWAP1 JUMPDEST DUP2 SLOAD DUP2 MSTORE SWAP1 PUSH1 0x1 ADD SWAP1 PUSH1 0x20 ADD DUP1 DUP4 GT PUSH2 0xC88 JUMPI DUP3 SWAP1 SUB PUSH1 0x1F AND DUP3 ADD SWAP2 JUMPDEST POP POP POP POP POP DUP2 MSTORE PUSH1 0x20 ADD PUSH1 0x2 DUP3 ADD PUSH0 SWAP1 SLOAD SWAP1 PUSH2 0x100 EXP SWAP1 DIV PUSH20 0xFFFFFFFFFFFFFFFFFFFFFFFFFFFFFFFFFFFFFFFF AND PUSH20 0xFFFFFFFFFFFFFFFFFFFFFFFFFFFFFFFFFFFFFFFF AND PUSH20 0xFFFFFFFFFFFFFFFFFFFFFFFFFFFFFFFFFFFFFFFF AND DUP2 MSTORE PUSH1 0x20 ADD PUSH1 0x3 DUP3 ADD DUP1 SLOAD PUSH2 0xD13 SWAP1 PUSH2 0x1AF5 JUMP JUMPDEST DUP1 PUSH1 0x1F ADD PUSH1 0x20 DUP1 SWAP2 DIV MUL PUSH1 0x20 ADD PUSH1 0x40 MLOAD SWAP1 DUP2 ADD PUSH1 0x40 MSTORE DUP1 SWAP3 SWAP2 SWAP1 DUP2 DUP2 MSTORE PUSH1 0x20 ADD DUP3 DUP1 SLOAD PUSH2 0xD3F SWAP1 PUSH2 0x1AF5 JUMP JUMPDEST DUP1 ISZERO PUSH2 0xD8A JUMPI DUP1 PUSH1 0x1F LT PUSH2 0xD61 JUMPI PUSH2 0x100 DUP1 DUP4 SLOAD DIV MUL DUP4 MSTORE SWAP2 PUSH1 0x20 ADD SWAP2 PUSH2 0xD8A JUMP JUMPDEST DUP3 ADD SWAP2 SWAP1 PUSH0 MSTORE PUSH1 0x20 PUSH0 KECCAK256 SWAP1 JUMPDEST DUP2 SLOAD DUP2 MSTORE SWAP1 PUSH1 0x1 ADD SWAP1 PUSH1 0x20 ADD DUP1 DUP4 GT PUSH2 0xD6D JUMPI DUP3 SWAP1 SUB PUSH1 0x1F AND DUP3 ADD SWAP2 JUMPDEST POP POP POP POP POP DUP2 MSTORE PUSH1 0x20 ADD PUSH1 0x4 DUP3 ADD SLOAD DUP2 MSTORE PUSH1 0x20 ADD PUSH1 0x5 DUP3 ADD DUP1 SLOAD PUSH2 0xDAD SWAP1 PUSH2 0x1AF5 JUMP JUMPDEST DUP1 PUSH1 0x1F ADD PUSH1 0x20 DUP1 SWAP2 DIV MUL PUSH1 0x20 ADD PUSH1 0x40 MLOAD SWAP1 DUP2 ADD PUSH1 0x40 MSTORE DUP1 SWAP3 SWAP2 SWAP1 DUP2 DUP2 MSTORE PUSH1 0x20 ADD DUP3 DUP1 SLOAD PUSH2 0xDD9 SWAP1 PUSH2 0x1AF5 JUMP JUMPDEST DUP1 ISZERO PUSH2 0xE24 JUMPI DUP1 PUSH1 0x1F LT PUSH2 0xDFB JUMPI PUSH2 0x100 DUP1 DUP4 SLOAD DIV MUL DUP4 MSTORE SWAP2 PUSH1 0x20 ADD SWAP2 PUSH2 0xE24 JUMP JUMPDEST DUP3 ADD SWAP2 SWAP1 PUSH0 MSTORE PUSH1 0x20 PUSH0 KECCAK256 SWAP1 JUMPDEST DUP2 SLOAD DUP2 MSTORE SWAP1 PUSH1 0x1 ADD SWAP1 PUSH1 0x20 ADD DUP1 DUP4 GT PUSH2 0xE07 JUMPI DUP3 SWAP1 SUB PUSH1 0x1F AND DUP3 ADD SWAP2 JUMPDEST POP POP POP POP POP DUP2 MSTORE POP POP DUP3 DUP3 DUP2 MLOAD DUP2 LT PUSH2 0xE40 JUMPI PUSH2 0xE3F PUSH2 0x1E30 JUMP JUMPDEST JUMPDEST PUSH1 0x20 MUL PUSH1 0x20 ADD ADD DUP2 SWAP1 MSTORE POP DUP1 DUP1 PUSH1 0x1 ADD SWAP2 POP POP PUSH2 0xB79 JUMP JUMPDEST POP DUP1 SWAP2 POP POP SWAP1 JUMP JUMPDEST PUSH0 PUSH1 0x3 DUP1 SLOAD SWAP1 POP SWAP1 POP SWAP1 JUMP JUMPDEST PUSH0 PUSH1 0x2 DUP3 PUSH1 0x40 MLOAD PUSH2 0xE7D SWAP2 SWAP1 PUSH2 0x1A20 JUMP JUMPDEST SWAP1 DUP2 MSTORE PUSH1 0x20 ADD PUSH1 0x40 MLOAD DUP1 SWAP2 SUB SWAP1 KECCAK256 PUSH1 0x40 MLOAD DUP1 PUSH1 0xC0 ADD PUSH1 0x40 MSTORE SWAP1 DUP2 PUSH0 DUP3 ADD PUSH0 SWAP1 SLOAD SWAP1 PUSH2 0x100 EXP SWAP1 DIV PUSH20 0xFFFFFFFFFFFFFFFFFFFFFFFFFFFFFFFFFFFFFFFF AND PUSH20 0xFFFFFFFFFFFFFFFFFFFFFFFFFFFFFFFFFFFFFFFF AND PUSH20 0xFFFFFFFFFFFFFFFFFFFFFFFFFFFFFFFFFFFFFFFF AND DUP2 MSTORE PUSH1 0x20 ADD PUSH1 0x1 DUP3 ADD DUP1 SLOAD PUSH2 0xEFA SWAP1 PUSH2 0x1AF5 JUMP JUMPDEST DUP1 PUSH1 0x1F ADD PUSH1 0x20 DUP1 SWAP2 DIV MUL PUSH1 0x20 ADD PUSH1 0x40 MLOAD SWAP1 DUP2 ADD PUSH1 0x40 MSTORE DUP1 SWAP3 SWAP2 SWAP1 DUP2 DUP2 MSTORE PUSH1 0x20 ADD DUP3 DUP1 SLOAD PUSH2 0xF26 SWAP1 PUSH2 0x1AF5 JUMP JUMPDEST DUP1 ISZERO PUSH2 0xF71 JUMPI DUP1 PUSH1 0x1F LT PUSH2 0xF48 JUMPI PUSH2 0x100 DUP1 DUP4 SLOAD DIV MUL DUP4 MSTORE SWAP2 PUSH1 0x20 ADD SWAP2 PUSH2 0xF71 JUMP JUMPDEST DUP3 ADD SWAP2 SWAP1 PUSH0 MSTORE PUSH1 0x20 PUSH0 KECCAK256 SWAP1 JUMPDEST DUP2 SLOAD DUP2 MSTORE SWAP1 PUSH1 0x1 ADD SWAP1 PUSH1 0x20 ADD DUP1 DUP4 GT PUSH2 0xF54 JUMPI DUP3 SWAP1 SUB PUSH1 0x1F AND DUP3 ADD SWAP2 JUMPDEST POP POP POP POP POP DUP2 MSTORE PUSH1 0x20 ADD PUSH1 0x2 DUP3 ADD PUSH0 SWAP1 SLOAD SWAP1 PUSH2 0x100 EXP SWAP1 DIV PUSH20 0xFFFFFFFFFFFFFFFFFFFFFFFFFFFFFFFFFFFFFFFF AND PUSH20 0xFFFFFFFFFFFFFFFFFFFFFFFFFFFFFFFFFFFFFFFF AND PUSH20 0xFFFFFFFFFFFFFFFFFFFFFFFFFFFFFFFFFFFFFFFF AND DUP2 MSTORE PUSH1 0x20 ADD PUSH1 0x3 DUP3 ADD DUP1 SLOAD PUSH2 0xFDF SWAP1 PUSH2 0x1AF5 JUMP JUMPDEST DUP1 PUSH1 0x1F ADD PUSH1 0x20 DUP1 SWAP2 DIV MUL PUSH1 0x20 ADD PUSH1 0x40 MLOAD SWAP1 DUP2 ADD PUSH1 0x40 MSTORE DUP1 SWAP3 SWAP2 SWAP1 DUP2 DUP2 MSTORE PUSH1 0x20 ADD DUP3 DUP1 SLOAD PUSH2 0x100B SWAP1 PUSH2 0x1AF5 JUMP JUMPDEST DUP1 ISZERO PUSH2 0x1056 JUMPI DUP1 PUSH1 0x1F LT PUSH2 0x102D JUMPI PUSH2 0x100 DUP1 DUP4 SLOAD DIV MUL DUP4 MSTORE SWAP2 PUSH1 0x20 ADD SWAP2 PUSH2 0x1056 JUMP JUMPDEST DUP3 ADD SWAP2 SWAP1 PUSH0 MSTORE PUSH1 0x20 PUSH0 KECCAK256 SWAP1 JUMPDEST DUP2 SLOAD DUP2 MSTORE SWAP1 PUSH1 0x1 ADD SWAP1 PUSH1 0x20 ADD DUP1 DUP4 GT PUSH2 0x1039 JUMPI DUP3 SWAP1 SUB PUSH1 0x1F AND DUP3 ADD SWAP2 JUMPDEST POP POP POP POP POP DUP2 MSTORE PUSH1 0x20 ADD PUSH1 0x4 DUP3 ADD SLOAD DUP2 MSTORE PUSH1 0x20 ADD PUSH1 0x5 DUP3 ADD DUP1 SLOAD PUSH2 0x1079 SWAP1 PUSH2 0x1AF5 JUMP JUMPDEST DUP1 PUSH1 0x1F ADD PUSH1 0x20 DUP1 SWAP2 DIV MUL PUSH1 0x20 ADD PUSH1 0x40 MLOAD SWAP1 DUP2 ADD PUSH1 0x40 MSTORE DUP1 SWAP3 SWAP2 SWAP1 DUP2 DUP2 MSTORE PUSH1 0x20 ADD DUP3 DUP1 SLOAD PUSH2 0x10A5 SWAP1 PUSH2 0x1AF5 JUMP JUMPDEST DUP1 ISZERO PUSH2 0x10F0 JUMPI DUP1 PUSH1 0x1F LT PUSH2 0x10C7 JUMPI PUSH2 0x100 DUP1 DUP4 SLOAD DIV MUL DUP4 MSTORE SWAP2 PUSH1 0x20 ADD SWAP2 PUSH2 0x10F0 JUMP JUMPDEST DUP3 ADD SWAP2 SWAP1 PUSH0 MSTORE PUSH1 0x20 PUSH0 KECCAK256 SWAP1 JUMPDEST DUP2 SLOAD DUP2 MSTORE SWAP1 PUSH1 0x1 ADD SWAP1 PUSH1 0x20 ADD DUP1 DUP4 GT PUSH2 0x10D3 JUMPI DUP3 SWAP1 SUB PUSH1 0x1F AND DUP3 ADD SWAP2 JUMPDEST POP POP POP POP POP DUP2 MSTORE POP POP SWAP1 POP PUSH0 DUP2 PUSH1 0x40 ADD MLOAD SWAP1 POP PUSH0 PUSH20 0xFFFFFFFFFFFFFFFFFFFFFFFFFFFFFFFFFFFFFFFF AND DUP3 PUSH0 ADD MLOAD PUSH20 0xFFFFFFFFFFFFFFFFFFFFFFFFFFFFFFFFFFFFFFFF AND SUB PUSH2 0x116B JUMPI PUSH1 0x40 MLOAD PUSH32 0x57E25A0900000000000000000000000000000000000000000000000000000000 DUP2 MSTORE PUSH1 0x4 ADD PUSH1 0x40 MLOAD DUP1 SWAP2 SUB SWAP1 REVERT JUMPDEST PUSH1 0x1 DUP2 PUSH20 0xFFFFFFFFFFFFFFFFFFFFFFFFFFFFFFFFFFFFFFFF AND PUSH4 0x70A08231 CALLER PUSH1 0x40 MLOAD DUP3 PUSH4 0xFFFFFFFF AND PUSH1 0xE0 SHL DUP2 MSTORE PUSH1 0x4 ADD PUSH2 0x11A6 SWAP2 SWAP1 PUSH2 0x1836 JUMP JUMPDEST PUSH1 0x20 PUSH1 0x40 MLOAD DUP1 DUP4 SUB DUP2 DUP7 GAS STATICCALL ISZERO DUP1 ISZERO PUSH2 0x11C1 JUMPI RETURNDATASIZE PUSH0 DUP1 RETURNDATACOPY RETURNDATASIZE PUSH0 REVERT JUMPDEST POP POP POP POP PUSH1 0x40 MLOAD RETURNDATASIZE PUSH1 0x1F NOT PUSH1 0x1F DUP3 ADD AND DUP3 ADD DUP1 PUSH1 0x40 MSTORE POP DUP2 ADD SWAP1 PUSH2 0x11E5 SWAP2 SWAP1 PUSH2 0x1E05 JUMP JUMPDEST LT PUSH2 0x121C JUMPI PUSH1 0x40 MLOAD PUSH32 0x80C902AE00000000000000000000000000000000000000000000000000000000 DUP2 MSTORE PUSH1 0x4 ADD PUSH1 0x40 MLOAD DUP1 SWAP2 SUB SWAP1 REVERT JUMPDEST DUP2 PUSH1 0x80 ADD MLOAD CALLVALUE LT ISZERO PUSH2 0x125A JUMPI PUSH1 0x40 MLOAD PUSH32 0x356680B700000000000000000000000000000000000000000000000000000000 DUP2 MSTORE PUSH1 0x4 ADD PUSH1 0x40 MLOAD DUP1 SWAP2 SUB SWAP1 REVERT JUMPDEST DUP2 PUSH1 0x80 ADD MLOAD PUSH1 0x4 PUSH0 DUP5 PUSH0 ADD MLOAD PUSH20 0xFFFFFFFFFFFFFFFFFFFFFFFFFFFFFFFFFFFFFFFF AND PUSH20 0xFFFFFFFFFFFFFFFFFFFFFFFFFFFFFFFFFFFFFFFF AND DUP2 MSTORE PUSH1 0x20 ADD SWAP1 DUP2 MSTORE PUSH1 0x20 ADD PUSH0 KECCAK256 PUSH0 DUP3 DUP3 SLOAD PUSH2 0x12AD SWAP2 SWAP1 PUSH2 0x1EF3 JUMP JUMPDEST SWAP3 POP POP DUP2 SWAP1 SSTORE POP DUP1 PUSH20 0xFFFFFFFFFFFFFFFFFFFFFFFFFFFFFFFFFFFFFFFF AND PUSH4 0x6A627842 CALLER PUSH1 0x40 MLOAD DUP3 PUSH4 0xFFFFFFFF AND PUSH1 0xE0 SHL DUP2 MSTORE PUSH1 0x4 ADD PUSH2 0x12ED SWAP2 SWAP1 PUSH2 0x1836 JUMP JUMPDEST PUSH0 PUSH1 0x40 MLOAD DUP1 DUP4 SUB DUP2 PUSH0 DUP8 DUP1 EXTCODESIZE ISZERO DUP1 ISZERO PUSH2 0x1304 JUMPI PUSH0 DUP1 REVERT JUMPDEST POP GAS CALL ISZERO DUP1 ISZERO PUSH2 0x1316 JUMPI RETURNDATASIZE PUSH0 DUP1 RETURNDATACOPY RETURNDATASIZE PUSH0 REVERT JUMPDEST POP POP POP POP CALLER PUSH20 0xFFFFFFFFFFFFFFFFFFFFFFFFFFFFFFFFFFFFFFFF AND DUP4 PUSH1 0x40 MLOAD PUSH2 0x133F SWAP2 SWAP1 PUSH2 0x1A20 JUMP JUMPDEST PUSH1 0x40 MLOAD DUP1 SWAP2 SUB SWAP1 KECCAK256 PUSH32 0xBE5BACC9CCF0E6B2195FB4EEF26C0562A005DCDD2C5D064FD26D76DE3849920F PUSH1 0x40 MLOAD PUSH1 0x40 MLOAD DUP1 SWAP2 SUB SWAP1 LOG3 POP POP POP JUMP JUMPDEST PUSH2 0x29E0 DUP1 PUSH2 0x1F27 DUP4 CODECOPY ADD SWAP1 JUMP JUMPDEST PUSH1 0x40 MLOAD DUP1 PUSH1 0xC0 ADD PUSH1 0x40 MSTORE DUP1 PUSH0 PUSH20 0xFFFFFFFFFFFFFFFFFFFFFFFFFFFFFFFFFFFFFFFF AND DUP2 MSTORE PUSH1 0x20 ADD PUSH1 0x60 DUP2 MSTORE PUSH1 0x20 ADD PUSH0 PUSH20 0xFFFFFFFFFFFFFFFFFFFFFFFFFFFFFFFFFFFFFFFF AND DUP2 MSTORE PUSH1 0x20 ADD PUSH1 0x60 DUP2 MSTORE PUSH1 0x20 ADD PUSH0 DUP2 MSTORE PUSH1 0x20 ADD PUSH1 0x60 DUP2 MSTORE POP SWAP1 JUMP JUMPDEST PUSH0 PUSH1 0x40 MLOAD SWAP1 POP SWAP1 JUMP JUMPDEST PUSH0 DUP1 REVERT JUMPDEST PUSH0 DUP1 REVERT JUMPDEST PUSH0 DUP1 REVERT JUMPDEST PUSH0 DUP1 REVERT JUMPDEST PUSH0 PUSH1 0x1F NOT PUSH1 0x1F DUP4 ADD AND SWAP1 POP SWAP2 SWAP1 POP JUMP JUMPDEST PUSH32 0x4E487B7100000000000000000000000000000000000000000000000000000000 PUSH0 MSTORE PUSH1 0x41 PUSH1 0x4 MSTORE PUSH1 0x24 PUSH0 REVERT JUMPDEST PUSH2 0x1443 DUP3 PUSH2 0x13FD JUMP JUMPDEST DUP2 ADD DUP2 DUP2 LT PUSH8 0xFFFFFFFFFFFFFFFF DUP3 GT OR ISZERO PUSH2 0x1462 JUMPI PUSH2 0x1461 PUSH2 0x140D JUMP JUMPDEST JUMPDEST DUP1 PUSH1 0x40 MSTORE POP POP POP JUMP JUMPDEST PUSH0 PUSH2 0x1474 PUSH2 0x13E4 JUMP JUMPDEST SWAP1 POP PUSH2 0x1480 DUP3 DUP3 PUSH2 0x143A JUMP JUMPDEST SWAP2 SWAP1 POP JUMP JUMPDEST PUSH0 PUSH8 0xFFFFFFFFFFFFFFFF DUP3 GT ISZERO PUSH2 0x149F JUMPI PUSH2 0x149E PUSH2 0x140D JUMP JUMPDEST JUMPDEST PUSH2 0x14A8 DUP3 PUSH2 0x13FD JUMP JUMPDEST SWAP1 POP PUSH1 0x20 DUP2 ADD SWAP1 POP SWAP2 SWAP1 POP JUMP JUMPDEST DUP3 DUP2 DUP4 CALLDATACOPY PUSH0 DUP4 DUP4 ADD MSTORE POP POP POP JUMP JUMPDEST PUSH0 PUSH2 0x14D5 PUSH2 0x14D0 DUP5 PUSH2 0x1485 JUMP JUMPDEST PUSH2 0x146B JUMP JUMPDEST SWAP1 POP DUP3 DUP2 MSTORE PUSH1 0x20 DUP2 ADD DUP5 DUP5 DUP5 ADD GT ISZERO PUSH2 0x14F1 JUMPI PUSH2 0x14F0 PUSH2 0x13F9 JUMP JUMPDEST JUMPDEST PUSH2 0x14FC DUP5 DUP3 DUP6 PUSH2 0x14B5 JUMP JUMPDEST POP SWAP4 SWAP3 POP POP POP JUMP JUMPDEST PUSH0 DUP3 PUSH1 0x1F DUP4 ADD SLT PUSH2 0x1518 JUMPI PUSH2 0x1517 PUSH2 0x13F5 JUMP JUMPDEST JUMPDEST DUP2 CALLDATALOAD PUSH2 0x1528 DUP5 DUP3 PUSH1 0x20 DUP7 ADD PUSH2 0x14C3 JUMP JUMPDEST SWAP2 POP POP SWAP3 SWAP2 POP POP JUMP JUMPDEST PUSH0 DUP2 SWAP1 POP SWAP2 SWAP1 POP JUMP JUMPDEST PUSH2 0x1543 DUP2 PUSH2 0x1531 JUMP JUMPDEST DUP2 EQ PUSH2 0x154D JUMPI PUSH0 DUP1 REVERT JUMPDEST POP JUMP JUMPDEST PUSH0 DUP2 CALLDATALOAD SWAP1 POP PUSH2 0x155E DUP2 PUSH2 0x153A JUMP JUMPDEST SWAP3 SWAP2 POP POP JUMP JUMPDEST PUSH0 DUP1 PUSH0 DUP1 PUSH0 PUSH1 0xA0 DUP7 DUP9 SUB SLT ISZERO PUSH2 0x157D JUMPI PUSH2 0x157C PUSH2 0x13ED JUMP JUMPDEST JUMPDEST PUSH0 DUP7 ADD CALLDATALOAD PUSH8 0xFFFFFFFFFFFFFFFF DUP2 GT ISZERO PUSH2 0x159A JUMPI PUSH2 0x1599 PUSH2 0x13F1 JUMP JUMPDEST JUMPDEST PUSH2 0x15A6 DUP9 DUP3 DUP10 ADD PUSH2 0x1504 JUMP JUMPDEST SWAP6 POP POP PUSH1 0x20 DUP7 ADD CALLDATALOAD PUSH8 0xFFFFFFFFFFFFFFFF DUP2 GT ISZERO PUSH2 0x15C7 JUMPI PUSH2 0x15C6 PUSH2 0x13F1 JUMP JUMPDEST JUMPDEST PUSH2 0x15D3 DUP9 DUP3 DUP10 ADD PUSH2 0x1504 JUMP JUMPDEST SWAP5 POP POP PUSH1 0x40 DUP7 ADD CALLDATALOAD PUSH8 0xFFFFFFFFFFFFFFFF DUP2 GT ISZERO PUSH2 0x15F4 JUMPI PUSH2 0x15F3 PUSH2 0x13F1 JUMP JUMPDEST JUMPDEST PUSH2 0x1600 DUP9 DUP3 DUP10 ADD PUSH2 0x1504 JUMP JUMPDEST SWAP4 POP POP PUSH1 0x60 PUSH2 0x1611 DUP9 DUP3 DUP10 ADD PUSH2 0x1550 JUMP JUMPDEST SWAP3 POP POP PUSH1 0x80 DUP7 ADD CALLDATALOAD PUSH8 0xFFFFFFFFFFFFFFFF DUP2 GT ISZERO PUSH2 0x1632 JUMPI PUSH2 0x1631 PUSH2 0x13F1 JUMP JUMPDEST JUMPDEST PUSH2 0x163E DUP9 DUP3 DUP10 ADD PUSH2 0x1504 JUMP JUMPDEST SWAP2 POP POP SWAP3 SWAP6 POP SWAP3 SWAP6 SWAP1 SWAP4 POP JUMP JUMPDEST PUSH0 PUSH1 0x20 DUP3 DUP5 SUB SLT ISZERO PUSH2 0x1660 JUMPI PUSH2 0x165F PUSH2 0x13ED JUMP JUMPDEST JUMPDEST PUSH0 DUP3 ADD CALLDATALOAD PUSH8 0xFFFFFFFFFFFFFFFF DUP2 GT ISZERO PUSH2 0x167D JUMPI PUSH2 0x167C PUSH2 0x13F1 JUMP JUMPDEST JUMPDEST PUSH2 0x1689 DUP5 DUP3 DUP6 ADD PUSH2 0x1504 JUMP JUMPDEST SWAP2 POP POP SWAP3 SWAP2 POP POP JUMP JUMPDEST PUSH0 DUP2 ISZERO ISZERO SWAP1 POP SWAP2 SWAP1 POP JUMP JUMPDEST PUSH2 0x16A6 DUP2 PUSH2 0x1692 JUMP JUMPDEST DUP3 MSTORE POP POP JUMP JUMPDEST PUSH0 PUSH1 0x20 DUP3 ADD SWAP1 POP PUSH2 0x16BF PUSH0 DUP4 ADD DUP5 PUSH2 0x169D JUMP JUMPDEST SWAP3 SWAP2 POP POP JUMP JUMPDEST PUSH0 PUSH20 0xFFFFFFFFFFFFFFFFFFFFFFFFFFFFFFFFFFFFFFFF DUP3 AND SWAP1 POP SWAP2 SWAP1 POP JUMP JUMPDEST PUSH0 PUSH2 0x16EE DUP3 PUSH2 0x16C5 JUMP JUMPDEST SWAP1 POP SWAP2 SWAP1 POP JUMP JUMPDEST PUSH2 0x16FE DUP2 PUSH2 0x16E4 JUMP JUMPDEST DUP3 MSTORE POP POP JUMP JUMPDEST PUSH0 DUP2 MLOAD SWAP1 POP SWAP2 SWAP1 POP JUMP JUMPDEST PUSH0 DUP3 DUP3 MSTORE PUSH1 0x20 DUP3 ADD SWAP1 POP SWAP3 SWAP2 POP POP JUMP JUMPDEST DUP3 DUP2 DUP4 MCOPY PUSH0 DUP4 DUP4 ADD MSTORE POP POP POP JUMP JUMPDEST PUSH0 PUSH2 0x1736 DUP3 PUSH2 0x1704 JUMP JUMPDEST PUSH2 0x1740 DUP2 DUP6 PUSH2 0x170E JUMP JUMPDEST SWAP4 POP PUSH2 0x1750 DUP2 DUP6 PUSH1 0x20 DUP7 ADD PUSH2 0x171E JUMP JUMPDEST PUSH2 0x1759 DUP2 PUSH2 0x13FD JUMP JUMPDEST DUP5 ADD SWAP2 POP POP SWAP3 SWAP2 POP POP JUMP JUMPDEST PUSH2 0x176D DUP2 PUSH2 0x1531 JUMP JUMPDEST DUP3 MSTORE POP POP JUMP JUMPDEST PUSH0 PUSH1 0xC0 DUP4 ADD PUSH0 DUP4 ADD MLOAD PUSH2 0x1788 PUSH0 DUP7 ADD DUP3 PUSH2 0x16F5 JUMP JUMPDEST POP PUSH1 0x20 DUP4 ADD MLOAD DUP5 DUP3 SUB PUSH1 0x20 DUP7 ADD MSTORE PUSH2 0x17A0 DUP3 DUP3 PUSH2 0x172C JUMP JUMPDEST SWAP2 POP POP PUSH1 0x40 DUP4 ADD MLOAD PUSH2 0x17B5 PUSH1 0x40 DUP7 ADD DUP3 PUSH2 0x16F5 JUMP JUMPDEST POP PUSH1 0x60 DUP4 ADD MLOAD DUP5 DUP3 SUB PUSH1 0x60 DUP7 ADD MSTORE PUSH2 0x17CD DUP3 DUP3 PUSH2 0x172C JUMP JUMPDEST SWAP2 POP POP PUSH1 0x80 DUP4 ADD MLOAD PUSH2 0x17E2 PUSH1 0x80 DUP7 ADD DUP3 PUSH2 0x1764 JUMP JUMPDEST POP PUSH1 0xA0 DUP4 ADD MLOAD DUP5 DUP3 SUB PUSH1 0xA0 DUP7 ADD MSTORE PUSH2 0x17FA DUP3 DUP3 PUSH2 0x172C JUMP JUMPDEST SWAP2 POP POP DUP1 SWAP2 POP POP SWAP3 SWAP2 POP POP JUMP JUMPDEST PUSH0 PUSH1 0x20 DUP3 ADD SWAP1 POP DUP2 DUP2 SUB PUSH0 DUP4 ADD MSTORE PUSH2 0x181F DUP2 DUP5 PUSH2 0x1773 JUMP JUMPDEST SWAP1 POP SWAP3 SWAP2 POP POP JUMP JUMPDEST PUSH2 0x1830 DUP2 PUSH2 0x16E4 JUMP JUMPDEST DUP3 MSTORE POP POP JUMP JUMPDEST PUSH0 PUSH1 0x20 DUP3 ADD SWAP1 POP PUSH2 0x1849 PUSH0 DUP4 ADD DUP5 PUSH2 0x1827 JUMP JUMPDEST SWAP3 SWAP2 POP POP JUMP JUMPDEST PUSH0 DUP2 MLOAD SWAP1 POP SWAP2 SWAP1 POP JUMP JUMPDEST PUSH0 DUP3 DUP3 MSTORE PUSH1 0x20 DUP3 ADD SWAP1 POP SWAP3 SWAP2 POP POP JUMP JUMPDEST PUSH0 DUP2 SWAP1 POP PUSH1 0x20 DUP3 ADD SWAP1 POP SWAP2 SWAP1 POP JUMP JUMPDEST PUSH0 PUSH1 0xC0 DUP4 ADD PUSH0 DUP4 ADD MLOAD PUSH2 0x188D PUSH0 DUP7 ADD DUP3 PUSH2 0x16F5 JUMP JUMPDEST POP PUSH1 0x20 DUP4 ADD MLOAD DUP5 DUP3 SUB PUSH1 0x20 DUP7 ADD MSTORE PUSH2 0x18A5 DUP3 DUP3 PUSH2 0x172C JUMP JUMPDEST SWAP2 POP POP PUSH1 0x40 DUP4 ADD MLOAD PUSH2 0x18BA PUSH1 0x40 DUP7 ADD DUP3 PUSH2 0x16F5 JUMP JUMPDEST POP PUSH1 0x60 DUP4 ADD MLOAD DUP5 DUP3 SUB PUSH1 0x60 DUP7 ADD MSTORE PUSH2 0x18D2 DUP3 DUP3 PUSH2 0x172C JUMP JUMPDEST SWAP2 POP POP PUSH1 0x80 DUP4 ADD MLOAD PUSH2 0x18E7 PUSH1 0x80 DUP7 ADD DUP3 PUSH2 0x1764 JUMP JUMPDEST POP PUSH1 0xA0 DUP4 ADD MLOAD DUP5 DUP3 SUB PUSH1 0xA0 DUP7 ADD MSTORE PUSH2 0x18FF DUP3 DUP3 PUSH2 0x172C JUMP JUMPDEST SWAP2 POP POP DUP1 SWAP2 POP POP SWAP3 SWAP2 POP POP JUMP JUMPDEST PUSH0 PUSH2 0x1917 DUP4 DUP4 PUSH2 0x1878 JUMP JUMPDEST SWAP1 POP SWAP3 SWAP2 POP POP JUMP JUMPDEST PUSH0 PUSH1 0x20 DUP3 ADD SWAP1 POP SWAP2 SWAP1 POP JUMP JUMPDEST PUSH0 PUSH2 0x1935 DUP3 PUSH2 0x184F JUMP JUMPDEST PUSH2 0x193F DUP2 DUP6 PUSH2 0x1859 JUMP JUMPDEST SWAP4 POP DUP4 PUSH1 0x20 DUP3 MUL DUP6 ADD PUSH2 0x1951 DUP6 PUSH2 0x1869 JUMP JUMPDEST DUP1 PUSH0 JUMPDEST DUP6 DUP2 LT ISZERO PUSH2 0x198C JUMPI DUP5 DUP5 SUB DUP10 MSTORE DUP2 MLOAD PUSH2 0x196D DUP6 DUP3 PUSH2 0x190C JUMP JUMPDEST SWAP5 POP PUSH2 0x1978 DUP4 PUSH2 0x191F JUMP JUMPDEST SWAP3 POP PUSH1 0x20 DUP11 ADD SWAP10 POP POP PUSH1 0x1 DUP2 ADD SWAP1 POP PUSH2 0x1954 JUMP JUMPDEST POP DUP3 SWAP8 POP DUP8 SWAP6 POP POP POP POP POP POP SWAP3 SWAP2 POP POP JUMP JUMPDEST PUSH0 PUSH1 0x20 DUP3 ADD SWAP1 POP DUP2 DUP2 SUB PUSH0 DUP4 ADD MSTORE PUSH2 0x19B6 DUP2 DUP5 PUSH2 0x192B JUMP JUMPDEST SWAP1 POP SWAP3 SWAP2 POP POP JUMP JUMPDEST PUSH2 0x19C7 DUP2 PUSH2 0x1531 JUMP JUMPDEST DUP3 MSTORE POP POP JUMP JUMPDEST PUSH0 PUSH1 0x20 DUP3 ADD SWAP1 POP PUSH2 0x19E0 PUSH0 DUP4 ADD DUP5 PUSH2 0x19BE JUMP JUMPDEST SWAP3 SWAP2 POP POP JUMP JUMPDEST PUSH0 DUP2 SWAP1 POP SWAP3 SWAP2 POP POP JUMP JUMPDEST PUSH0 PUSH2 0x19FA DUP3 PUSH2 0x1704 JUMP JUMPDEST PUSH2 0x1A04 DUP2 DUP6 PUSH2 0x19E6 JUMP JUMPDEST SWAP4 POP PUSH2 0x1A14 DUP2 DUP6 PUSH1 0x20 DUP7 ADD PUSH2 0x171E JUMP JUMPDEST DUP1 DUP5 ADD SWAP2 POP POP SWAP3 SWAP2 POP POP JUMP JUMPDEST PUSH0 PUSH2 0x1A2B DUP3 DUP5 PUSH2 0x19F0 JUMP JUMPDEST SWAP2 POP DUP2 SWAP1 POP SWAP3 SWAP2 POP POP JUMP JUMPDEST PUSH0 DUP3 DUP3 MSTORE PUSH1 0x20 DUP3 ADD SWAP1 POP SWAP3 SWAP2 POP POP JUMP JUMPDEST PUSH0 PUSH2 0x1A50 DUP3 PUSH2 0x1704 JUMP JUMPDEST PUSH2 0x1A5A DUP2 DUP6 PUSH2 0x1A36 JUMP JUMPDEST SWAP4 POP PUSH2 0x1A6A DUP2 DUP6 PUSH1 0x20 DUP7 ADD PUSH2 0x171E JUMP JUMPDEST PUSH2 0x1A73 DUP2 PUSH2 0x13FD JUMP JUMPDEST DUP5 ADD SWAP2 POP POP SWAP3 SWAP2 POP POP JUMP JUMPDEST PUSH0 PUSH1 0x60 DUP3 ADD SWAP1 POP DUP2 DUP2 SUB PUSH0 DUP4 ADD MSTORE PUSH2 0x1A96 DUP2 DUP7 PUSH2 0x1A46 JUMP JUMPDEST SWAP1 POP DUP2 DUP2 SUB PUSH1 0x20 DUP4 ADD MSTORE PUSH2 0x1AAA DUP2 DUP6 PUSH2 0x1A46 JUMP JUMPDEST SWAP1 POP DUP2 DUP2 SUB PUSH1 0x40 DUP4 ADD MSTORE PUSH2 0x1ABE DUP2 DUP5 PUSH2 0x1A46 JUMP JUMPDEST SWAP1 POP SWAP5 SWAP4 POP POP POP POP JUMP JUMPDEST PUSH32 0x4E487B7100000000000000000000000000000000000000000000000000000000 PUSH0 MSTORE PUSH1 0x22 PUSH1 0x4 MSTORE PUSH1 0x24 PUSH0 REVERT JUMPDEST PUSH0 PUSH1 0x2 DUP3 DIV SWAP1 POP PUSH1 0x1 DUP3 AND DUP1 PUSH2 0x1B0C JUMPI PUSH1 0x7F DUP3 AND SWAP2 POP JUMPDEST PUSH1 0x20 DUP3 LT DUP2 SUB PUSH2 0x1B1F JUMPI PUSH2 0x1B1E PUSH2 0x1AC8 JUMP JUMPDEST JUMPDEST POP SWAP2 SWAP1 POP JUMP JUMPDEST PUSH0 DUP2 SWAP1 POP DUP2 PUSH0 MSTORE PUSH1 0x20 PUSH0 KECCAK256 SWAP1 POP SWAP2 SWAP1 POP JUMP JUMPDEST PUSH0 PUSH1 0x20 PUSH1 0x1F DUP4 ADD DIV SWAP1 POP SWAP2 SWAP1 POP JUMP JUMPDEST PUSH0 DUP3 DUP3 SHL SWAP1 POP SWAP3 SWAP2 POP POP JUMP JUMPDEST PUSH0 PUSH1 0x8 DUP4 MUL PUSH2 0x1B81 PUSH32 0xFFFFFFFFFFFFFFFFFFFFFFFFFFFFFFFFFFFFFFFFFFFFFFFFFFFFFFFFFFFFFFFF DUP3 PUSH2 0x1B46 JUMP JUMPDEST PUSH2 0x1B8B DUP7 DUP4 PUSH2 0x1B46 JUMP JUMPDEST SWAP6 POP DUP1 NOT DUP5 AND SWAP4 POP DUP1 DUP7 AND DUP5 OR SWAP3 POP POP POP SWAP4 SWAP3 POP POP POP JUMP JUMPDEST PUSH0 DUP2 SWAP1 POP SWAP2 SWAP1 POP JUMP JUMPDEST PUSH0 PUSH2 0x1BC6 PUSH2 0x1BC1 PUSH2 0x1BBC DUP5 PUSH2 0x1531 JUMP JUMPDEST PUSH2 0x1BA3 JUMP JUMPDEST PUSH2 0x1531 JUMP JUMPDEST SWAP1 POP SWAP2 SWAP1 POP JUMP JUMPDEST PUSH0 DUP2 SWAP1 POP SWAP2 SWAP1 POP JUMP JUMPDEST PUSH2 0x1BDF DUP4 PUSH2 0x1BAC JUMP JUMPDEST PUSH2 0x1BF3 PUSH2 0x1BEB DUP3 PUSH2 0x1BCD JUMP JUMPDEST DUP5 DUP5 SLOAD PUSH2 0x1B52 JUMP JUMPDEST DUP3 SSTORE POP POP POP POP JUMP JUMPDEST PUSH0 SWAP1 JUMP JUMPDEST PUSH2 0x1C07 PUSH2 0x1BFB JUMP JUMPDEST PUSH2 0x1C12 DUP2 DUP5 DUP5 PUSH2 0x1BD6 JUMP JUMPDEST POP POP POP JUMP JUMPDEST JUMPDEST DUP2 DUP2 LT ISZERO PUSH2 0x1C35 JUMPI PUSH2 0x1C2A PUSH0 DUP3 PUSH2 0x1BFF JUMP JUMPDEST PUSH1 0x1 DUP2 ADD SWAP1 POP PUSH2 0x1C18 JUMP JUMPDEST POP POP JUMP JUMPDEST PUSH1 0x1F DUP3 GT ISZERO PUSH2 0x1C7A JUMPI PUSH2 0x1C4B DUP2 PUSH2 0x1B25 JUMP JUMPDEST PUSH2 0x1C54 DUP5 PUSH2 0x1B37 JUMP JUMPDEST DUP2 ADD PUSH1 0x20 DUP6 LT ISZERO PUSH2 0x1C63 JUMPI DUP2 SWAP1 POP JUMPDEST PUSH2 0x1C77 PUSH2 0x1C6F DUP6 PUSH2 0x1B37 JUMP JUMPDEST DUP4 ADD DUP3 PUSH2 0x1C17 JUMP JUMPDEST POP POP JUMPDEST POP POP POP JUMP JUMPDEST PUSH0 DUP3 DUP3 SHR SWAP1 POP SWAP3 SWAP2 POP POP JUMP JUMPDEST PUSH0 PUSH2 0x1C9A PUSH0 NOT DUP5 PUSH1 0x8 MUL PUSH2 0x1C7F JUMP JUMPDEST NOT DUP1 DUP4 AND SWAP2 POP POP SWAP3 SWAP2 POP POP JUMP JUMPDEST PUSH0 PUSH2 0x1CB2 DUP4 DUP4 PUSH2 0x1C8B JUMP JUMPDEST SWAP2 POP DUP3 PUSH1 0x2 MUL DUP3 OR SWAP1 POP SWAP3 SWAP2 POP POP JUMP JUMPDEST PUSH2 0x1CCB DUP3 PUSH2 0x1704 JUMP JUMPDEST PUSH8 0xFFFFFFFFFFFFFFFF DUP2 GT ISZERO PUSH2 0x1CE4 JUMPI PUSH2 0x1CE3 PUSH2 0x140D JUMP JUMPDEST JUMPDEST PUSH2 0x1CEE DUP3 SLOAD PUSH2 0x1AF5 JUMP JUMPDEST PUSH2 0x1CF9 DUP3 DUP3 DUP6 PUSH2 0x1C39 JUMP JUMPDEST PUSH0 PUSH1 0x20 SWAP1 POP PUSH1 0x1F DUP4 GT PUSH1 0x1 DUP2 EQ PUSH2 0x1D2A JUMPI PUSH0 DUP5 ISZERO PUSH2 0x1D18 JUMPI DUP3 DUP8 ADD MLOAD SWAP1 POP JUMPDEST PUSH2 0x1D22 DUP6 DUP3 PUSH2 0x1CA7 JUMP JUMPDEST DUP7 SSTORE POP PUSH2 0x1D89 JUMP JUMPDEST PUSH1 0x1F NOT DUP5 AND PUSH2 0x1D38 DUP7 PUSH2 0x1B25 JUMP JUMPDEST PUSH0 JUMPDEST DUP3 DUP2 LT ISZERO PUSH2 0x1D5F JUMPI DUP5 DUP10 ADD MLOAD DUP3 SSTORE PUSH1 0x1 DUP3 ADD SWAP2 POP PUSH1 0x20 DUP6 ADD SWAP5 POP PUSH1 0x20 DUP2 ADD SWAP1 POP PUSH2 0x1D3A JUMP JUMPDEST DUP7 DUP4 LT ISZERO PUSH2 0x1D7C JUMPI DUP5 DUP10 ADD MLOAD PUSH2 0x1D78 PUSH1 0x1F DUP10 AND DUP3 PUSH2 0x1C8B JUMP JUMPDEST DUP4 SSTORE POP JUMPDEST PUSH1 0x1 PUSH1 0x2 DUP9 MUL ADD DUP9 SSTORE POP POP POP JUMPDEST POP POP POP POP POP POP JUMP JUMPDEST PUSH32 0x4E487B7100000000000000000000000000000000000000000000000000000000 PUSH0 MSTORE PUSH1 0x11 PUSH1 0x4 MSTORE PUSH1 0x24 PUSH0 REVERT JUMPDEST PUSH0 PUSH2 0x1DC8 DUP3 PUSH2 0x1531 JUMP JUMPDEST SWAP2 POP PUSH2 0x1DD3 DUP4 PUSH2 0x1531 JUMP JUMPDEST SWAP3 POP DUP3 DUP3 SUB SWAP1 POP DUP2 DUP2 GT ISZERO PUSH2 0x1DEB JUMPI PUSH2 0x1DEA PUSH2 0x1D91 JUMP JUMPDEST JUMPDEST SWAP3 SWAP2 POP POP JUMP JUMPDEST PUSH0 DUP2 MLOAD SWAP1 POP PUSH2 0x1DFF DUP2 PUSH2 0x153A JUMP JUMPDEST SWAP3 SWAP2 POP POP JUMP JUMPDEST PUSH0 PUSH1 0x20 DUP3 DUP5 SUB SLT ISZERO PUSH2 0x1E1A JUMPI PUSH2 0x1E19 PUSH2 0x13ED JUMP JUMPDEST JUMPDEST PUSH0 PUSH2 0x1E27 DUP5 DUP3 DUP6 ADD PUSH2 0x1DF1 JUMP JUMPDEST SWAP2 POP POP SWAP3 SWAP2 POP POP JUMP JUMPDEST PUSH32 0x4E487B7100000000000000000000000000000000000000000000000000000000 PUSH0 MSTORE PUSH1 0x32 PUSH1 0x4 MSTORE PUSH1 0x24 PUSH0 REVERT JUMPDEST PUSH0 DUP2 SLOAD PUSH2 0x1E69 DUP2 PUSH2 0x1AF5 JUMP JUMPDEST PUSH2 0x1E73 DUP2 DUP7 PUSH2 0x19E6 JUMP JUMPDEST SWAP5 POP PUSH1 0x1 DUP3 AND PUSH0 DUP2 EQ PUSH2 0x1E8D JUMPI PUSH1 0x1 DUP2 EQ PUSH2 0x1EA2 JUMPI PUSH2 0x1ED4 JUMP JUMPDEST PUSH1 0xFF NOT DUP4 AND DUP7 MSTORE DUP2 ISZERO ISZERO DUP3 MUL DUP7 ADD SWAP4 POP PUSH2 0x1ED4 JUMP JUMPDEST PUSH2 0x1EAB DUP6 PUSH2 0x1B25 JUMP JUMPDEST PUSH0 JUMPDEST DUP4 DUP2 LT ISZERO PUSH2 0x1ECC JUMPI DUP2 SLOAD DUP2 DUP10 ADD MSTORE PUSH1 0x1 DUP3 ADD SWAP2 POP PUSH1 0x20 DUP2 ADD SWAP1 POP PUSH2 0x1EAD JUMP JUMPDEST DUP4 DUP9 ADD SWAP6 POP POP POP JUMPDEST POP POP POP SWAP3 SWAP2 POP POP JUMP JUMPDEST PUSH0 PUSH2 0x1EE8 DUP3 DUP5 PUSH2 0x1E5D JUMP JUMPDEST SWAP2 POP DUP2 SWAP1 POP SWAP3 SWAP2 POP POP JUMP JUMPDEST PUSH0 PUSH2 0x1EFD DUP3 PUSH2 0x1531 JUMP JUMPDEST SWAP2 POP PUSH2 0x1F08 DUP4 PUSH2 0x1531 JUMP JUMPDEST SWAP3 POP DUP3 DUP3 ADD SWAP1 POP DUP1 DUP3 GT ISZERO PUSH2 0x1F20 JUMPI PUSH2 0x1F1F PUSH2 0x1D91 JUMP JUMPDEST JUMPDEST SWAP3 SWAP2 POP POP JUMP INVALID PUSH1 0x80 PUSH1 0x40 MSTORE CALLVALUE DUP1 ISZERO PUSH2 0xF JUMPI PUSH0 DUP1 REVERT JUMPDEST POP PUSH1 0x40 MLOAD PUSH2 0x29E0 CODESIZE SUB DUP1 PUSH2 0x29E0 DUP4 CODECOPY DUP2 DUP2 ADD PUSH1 0x40 MSTORE DUP2 ADD SWAP1 PUSH2 0x31 SWAP2 SWAP1 PUSH2 0x2FD JUMP JUMPDEST CALLER DUP4 DUP4 DUP2 PUSH0 SWAP1 DUP2 PUSH2 0x42 SWAP2 SWAP1 PUSH2 0x5AE JUMP JUMPDEST POP DUP1 PUSH1 0x1 SWAP1 DUP2 PUSH2 0x52 SWAP2 SWAP1 PUSH2 0x5AE JUMP JUMPDEST POP POP POP PUSH0 PUSH20 0xFFFFFFFFFFFFFFFFFFFFFFFFFFFFFFFFFFFFFFFF AND DUP2 PUSH20 0xFFFFFFFFFFFFFFFFFFFFFFFFFFFFFFFFFFFFFFFF AND SUB PUSH2 0xC5 JUMPI PUSH0 PUSH1 0x40 MLOAD PUSH32 0x1E4FBDF700000000000000000000000000000000000000000000000000000000 DUP2 MSTORE PUSH1 0x4 ADD PUSH2 0xBC SWAP2 SWAP1 PUSH2 0x6BC JUMP JUMPDEST PUSH1 0x40 MLOAD DUP1 SWAP2 SUB SWAP1 REVERT JUMPDEST PUSH2 0xD4 DUP2 PUSH2 0xED PUSH1 0x20 SHL PUSH1 0x20 SHR JUMP JUMPDEST POP DUP1 PUSH1 0x8 SWAP1 DUP2 PUSH2 0xE4 SWAP2 SWAP1 PUSH2 0x5AE JUMP JUMPDEST POP POP POP POP PUSH2 0x6D5 JUMP JUMPDEST PUSH0 PUSH1 0x6 PUSH0 SWAP1 SLOAD SWAP1 PUSH2 0x100 EXP SWAP1 DIV PUSH20 0xFFFFFFFFFFFFFFFFFFFFFFFFFFFFFFFFFFFFFFFF AND SWAP1 POP DUP2 PUSH1 0x6 PUSH0 PUSH2 0x100 EXP DUP2 SLOAD DUP2 PUSH20 0xFFFFFFFFFFFFFFFFFFFFFFFFFFFFFFFFFFFFFFFF MUL NOT AND SWAP1 DUP4 PUSH20 0xFFFFFFFFFFFFFFFFFFFFFFFFFFFFFFFFFFFFFFFF AND MUL OR SWAP1 SSTORE POP DUP2 PUSH20 0xFFFFFFFFFFFFFFFFFFFFFFFFFFFFFFFFFFFFFFFF AND DUP2 PUSH20 0xFFFFFFFFFFFFFFFFFFFFFFFFFFFFFFFFFFFFFFFF AND PUSH32 0x8BE0079C531659141344CD1FD0A4F28419497F9722A3DAAFE3B4186F6B6457E0 PUSH1 0x40 MLOAD PUSH1 0x40 MLOAD DUP1 SWAP2 SUB SWAP1 LOG3 POP POP JUMP JUMPDEST PUSH0 PUSH1 0x40 MLOAD SWAP1 POP SWAP1 JUMP JUMPDEST PUSH0 DUP1 REVERT JUMPDEST PUSH0 DUP1 REVERT JUMPDEST PUSH0 DUP1 REVERT JUMPDEST PUSH0 DUP1 REVERT JUMPDEST PUSH0 PUSH1 0x1F NOT PUSH1 0x1F DUP4 ADD AND SWAP1 POP SWAP2 SWAP1 POP JUMP JUMPDEST PUSH32 0x4E487B7100000000000000000000000000000000000000000000000000000000 PUSH0 MSTORE PUSH1 0x41 PUSH1 0x4 MSTORE PUSH1 0x24 PUSH0 REVERT JUMPDEST PUSH2 0x20F DUP3 PUSH2 0x1C9 JUMP JUMPDEST DUP2 ADD DUP2 DUP2 LT PUSH8 0xFFFFFFFFFFFFFFFF DUP3 GT OR ISZERO PUSH2 0x22E JUMPI PUSH2 0x22D PUSH2 0x1D9 JUMP JUMPDEST JUMPDEST DUP1 PUSH1 0x40 MSTORE POP POP POP JUMP JUMPDEST PUSH0 PUSH2 0x240 PUSH2 0x1B0 JUMP JUMPDEST SWAP1 POP PUSH2 0x24C DUP3 DUP3 PUSH2 0x206 JUMP JUMPDEST SWAP2 SWAP1 POP JUMP JUMPDEST PUSH0 PUSH8 0xFFFFFFFFFFFFFFFF DUP3 GT ISZERO PUSH2 0x26B JUMPI PUSH2 0x26A PUSH2 0x1D9 JUMP JUMPDEST JUMPDEST PUSH2 0x274 DUP3 PUSH2 0x1C9 JUMP JUMPDEST SWAP1 POP PUSH1 0x20 DUP2 ADD SWAP1 POP SWAP2 SWAP1 POP JUMP JUMPDEST DUP3 DUP2 DUP4 MCOPY PUSH0 DUP4 DUP4 ADD MSTORE POP POP POP JUMP JUMPDEST PUSH0 PUSH2 0x2A1 PUSH2 0x29C DUP5 PUSH2 0x251 JUMP JUMPDEST PUSH2 0x237 JUMP JUMPDEST SWAP1 POP DUP3 DUP2 MSTORE PUSH1 0x20 DUP2 ADD DUP5 DUP5 DUP5 ADD GT ISZERO PUSH2 0x2BD JUMPI PUSH2 0x2BC PUSH2 0x1C5 JUMP JUMPDEST JUMPDEST PUSH2 0x2C8 DUP5 DUP3 DUP6 PUSH2 0x281 JUMP JUMPDEST POP SWAP4 SWAP3 POP POP POP JUMP JUMPDEST PUSH0 DUP3 PUSH1 0x1F DUP4 ADD SLT PUSH2 0x2E4 JUMPI PUSH2 0x2E3 PUSH2 0x1C1 JUMP JUMPDEST JUMPDEST DUP2 MLOAD PUSH2 0x2F4 DUP5 DUP3 PUSH1 0x20 DUP7 ADD PUSH2 0x28F JUMP JUMPDEST SWAP2 POP POP SWAP3 SWAP2 POP POP JUMP JUMPDEST PUSH0 DUP1 PUSH0 PUSH1 0x60 DUP5 DUP7 SUB SLT ISZERO PUSH2 0x314 JUMPI PUSH2 0x313 PUSH2 0x1B9 JUMP JUMPDEST JUMPDEST PUSH0 DUP5 ADD MLOAD PUSH8 0xFFFFFFFFFFFFFFFF DUP2 GT ISZERO PUSH2 0x331 JUMPI PUSH2 0x330 PUSH2 0x1BD JUMP JUMPDEST JUMPDEST PUSH2 0x33D DUP7 DUP3 DUP8 ADD PUSH2 0x2D0 JUMP JUMPDEST SWAP4 POP POP PUSH1 0x20 DUP5 ADD MLOAD PUSH8 0xFFFFFFFFFFFFFFFF DUP2 GT ISZERO PUSH2 0x35E JUMPI PUSH2 0x35D PUSH2 0x1BD JUMP JUMPDEST JUMPDEST PUSH2 0x36A DUP7 DUP3 DUP8 ADD PUSH2 0x2D0 JUMP JUMPDEST SWAP3 POP POP PUSH1 0x40 DUP5 ADD MLOAD PUSH8 0xFFFFFFFFFFFFFFFF DUP2 GT ISZERO PUSH2 0x38B JUMPI PUSH2 0x38A PUSH2 0x1BD JUMP JUMPDEST JUMPDEST PUSH2 0x397 DUP7 DUP3 DUP8 ADD PUSH2 0x2D0 JUMP JUMPDEST SWAP2 POP POP SWAP3 POP SWAP3 POP SWAP3 JUMP JUMPDEST PUSH0 DUP2 MLOAD SWAP1 POP SWAP2 SWAP1 POP JUMP JUMPDEST PUSH32 0x4E487B7100000000000000000000000000000000000000000000000000000000 PUSH0 MSTORE PUSH1 0x22 PUSH1 0x4 MSTORE PUSH1 0x24 PUSH0 REVERT JUMPDEST PUSH0 PUSH1 0x2 DUP3 DIV SWAP1 POP PUSH1 0x1 DUP3 AND DUP1 PUSH2 0x3EF JUMPI PUSH1 0x7F DUP3 AND SWAP2 POP JUMPDEST PUSH1 0x20 DUP3 LT DUP2 SUB PUSH2 0x402 JUMPI PUSH2 0x401 PUSH2 0x3AB JUMP JUMPDEST JUMPDEST POP SWAP2 SWAP1 POP JUMP JUMPDEST PUSH0 DUP2 SWAP1 POP DUP2 PUSH0 MSTORE PUSH1 0x20 PUSH0 KECCAK256 SWAP1 POP SWAP2 SWAP1 POP JUMP JUMPDEST PUSH0 PUSH1 0x20 PUSH1 0x1F DUP4 ADD DIV SWAP1 POP SWAP2 SWAP1 POP JUMP JUMPDEST PUSH0 DUP3 DUP3 SHL SWAP1 POP SWAP3 SWAP2 POP POP JUMP JUMPDEST PUSH0 PUSH1 0x8 DUP4 MUL PUSH2 0x464 PUSH32 0xFFFFFFFFFFFFFFFFFFFFFFFFFFFFFFFFFFFFFFFFFFFFFFFFFFFFFFFFFFFFFFFF DUP3 PUSH2 0x429 JUMP JUMPDEST PUSH2 0x46E DUP7 DUP4 PUSH2 0x429 JUMP JUMPDEST SWAP6 POP DUP1 NOT DUP5 AND SWAP4 POP DUP1 DUP7 AND DUP5 OR SWAP3 POP POP POP SWAP4 SWAP3 POP POP POP JUMP JUMPDEST PUSH0 DUP2 SWAP1 POP SWAP2 SWAP1 POP JUMP JUMPDEST PUSH0 DUP2 SWAP1 POP SWAP2 SWAP1 POP JUMP JUMPDEST PUSH0 PUSH2 0x4B2 PUSH2 0x4AD PUSH2 0x4A8 DUP5 PUSH2 0x486 JUMP JUMPDEST PUSH2 0x48F JUMP JUMPDEST PUSH2 0x486 JUMP JUMPDEST SWAP1 POP SWAP2 SWAP1 POP JUMP JUMPDEST PUSH0 DUP2 SWAP1 POP SWAP2 SWAP1 POP JUMP JUMPDEST PUSH2 0x4CB DUP4 PUSH2 0x498 JUMP JUMPDEST PUSH2 0x4DF PUSH2 0x4D7 DUP3 PUSH2 0x4B9 JUMP JUMPDEST DUP5 DUP5 SLOAD PUSH2 0x435 JUMP JUMPDEST DUP3 SSTORE POP POP POP POP JUMP JUMPDEST PUSH0 SWAP1 JUMP JUMPDEST PUSH2 0x4F3 PUSH2 0x4E7 JUMP JUMPDEST PUSH2 0x4FE DUP2 DUP5 DUP5 PUSH2 0x4C2 JUMP JUMPDEST POP POP POP JUMP JUMPDEST JUMPDEST DUP2 DUP2 LT ISZERO PUSH2 0x521 JUMPI PUSH2 0x516 PUSH0 DUP3 PUSH2 0x4EB JUMP JUMPDEST PUSH1 0x1 DUP2 ADD SWAP1 POP PUSH2 0x504 JUMP JUMPDEST POP POP JUMP JUMPDEST PUSH1 0x1F DUP3 GT ISZERO PUSH2 0x566 JUMPI PUSH2 0x537 DUP2 PUSH2 0x408 JUMP JUMPDEST PUSH2 0x540 DUP5 PUSH2 0x41A JUMP JUMPDEST DUP2 ADD PUSH1 0x20 DUP6 LT ISZERO PUSH2 0x54F JUMPI DUP2 SWAP1 POP JUMPDEST PUSH2 0x563 PUSH2 0x55B DUP6 PUSH2 0x41A JUMP JUMPDEST DUP4 ADD DUP3 PUSH2 0x503 JUMP JUMPDEST POP POP JUMPDEST POP POP POP JUMP JUMPDEST PUSH0 DUP3 DUP3 SHR SWAP1 POP SWAP3 SWAP2 POP POP JUMP JUMPDEST PUSH0 PUSH2 0x586 PUSH0 NOT DUP5 PUSH1 0x8 MUL PUSH2 0x56B JUMP JUMPDEST NOT DUP1 DUP4 AND SWAP2 POP POP SWAP3 SWAP2 POP POP JUMP JUMPDEST PUSH0 PUSH2 0x59E DUP4 DUP4 PUSH2 0x577 JUMP JUMPDEST SWAP2 POP DUP3 PUSH1 0x2 MUL DUP3 OR SWAP1 POP SWAP3 SWAP2 POP POP JUMP JUMPDEST PUSH2 0x5B7 DUP3 PUSH2 0x3A1 JUMP JUMPDEST PUSH8 0xFFFFFFFFFFFFFFFF DUP2 GT ISZERO PUSH2 0x5D0 JUMPI PUSH2 0x5CF PUSH2 0x1D9 JUMP JUMPDEST JUMPDEST PUSH2 0x5DA DUP3 SLOAD PUSH2 0x3D8 JUMP JUMPDEST PUSH2 0x5E5 DUP3 DUP3 DUP6 PUSH2 0x525 JUMP JUMPDEST PUSH0 PUSH1 0x20 SWAP1 POP PUSH1 0x1F DUP4 GT PUSH1 0x1 DUP2 EQ PUSH2 0x616 JUMPI PUSH0 DUP5 ISZERO PUSH2 0x604 JUMPI DUP3 DUP8 ADD MLOAD SWAP1 POP JUMPDEST PUSH2 0x60E DUP6 DUP3 PUSH2 0x593 JUMP JUMPDEST DUP7 SSTORE POP PUSH2 0x675 JUMP JUMPDEST PUSH1 0x1F NOT DUP5 AND PUSH2 0x624 DUP7 PUSH2 0x408 JUMP JUMPDEST PUSH0 JUMPDEST DUP3 DUP2 LT ISZERO PUSH2 0x64B JUMPI DUP5 DUP10 ADD MLOAD DUP3 SSTORE PUSH1 0x1 DUP3 ADD SWAP2 POP PUSH1 0x20 DUP6 ADD SWAP5 POP PUSH1 0x20 DUP2 ADD SWAP1 POP PUSH2 0x626 JUMP JUMPDEST DUP7 DUP4 LT ISZERO PUSH2 0x668 JUMPI DUP5 DUP10 ADD MLOAD PUSH2 0x664 PUSH1 0x1F DUP10 AND DUP3 PUSH2 0x577 JUMP JUMPDEST DUP4 SSTORE POP JUMPDEST PUSH1 0x1 PUSH1 0x2 DUP9 MUL ADD DUP9 SSTORE POP POP POP JUMPDEST POP POP POP POP POP POP JUMP JUMPDEST PUSH0 PUSH20 0xFFFFFFFFFFFFFFFFFFFFFFFFFFFFFFFFFFFFFFFF DUP3 AND SWAP1 POP SWAP2 SWAP1 POP JUMP JUMPDEST PUSH0 PUSH2 0x6A6 DUP3 PUSH2 0x67D JUMP JUMPDEST SWAP1 POP SWAP2 SWAP1 POP JUMP JUMPDEST PUSH2 0x6B6 DUP2 PUSH2 0x69C JUMP JUMPDEST DUP3 MSTORE POP POP JUMP JUMPDEST PUSH0 PUSH1 0x20 DUP3 ADD SWAP1 POP PUSH2 0x6CF PUSH0 DUP4 ADD DUP5 PUSH2 0x6AD JUMP JUMPDEST SWAP3 SWAP2 POP POP JUMP JUMPDEST PUSH2 0x22FE DUP1 PUSH2 0x6E2 PUSH0 CODECOPY PUSH0 RETURN INVALID PUSH1 0x80 PUSH1 0x40 MSTORE CALLVALUE DUP1 ISZERO PUSH2 0xF JUMPI PUSH0 DUP1 REVERT JUMPDEST POP PUSH1 0x4 CALLDATASIZE LT PUSH2 0x109 JUMPI PUSH0 CALLDATALOAD PUSH1 0xE0 SHR DUP1 PUSH4 0x70A08231 GT PUSH2 0xA0 JUMPI DUP1 PUSH4 0xA22CB465 GT PUSH2 0x6F JUMPI DUP1 PUSH4 0xA22CB465 EQ PUSH2 0x2A1 JUMPI DUP1 PUSH4 0xB88D4FDE EQ PUSH2 0x2BD JUMPI DUP1 PUSH4 0xC87B56DD EQ PUSH2 0x2D9 JUMPI DUP1 PUSH4 0xE985E9C5 EQ PUSH2 0x309 JUMPI DUP1 PUSH4 0xF2FDE38B EQ PUSH2 0x339 JUMPI PUSH2 0x109 JUMP JUMPDEST DUP1 PUSH4 0x70A08231 EQ PUSH2 0x22B JUMPI DUP1 PUSH4 0x715018A6 EQ PUSH2 0x25B JUMPI DUP1 PUSH4 0x8DA5CB5B EQ PUSH2 0x265 JUMPI DUP1 PUSH4 0x95D89B41 EQ PUSH2 0x283 JUMPI PUSH2 0x109 JUMP JUMPDEST DUP1 PUSH4 0x23B872DD GT PUSH2 0xDC JUMPI DUP1 PUSH4 0x23B872DD EQ PUSH2 0x1A7 JUMPI DUP1 PUSH4 0x42842E0E EQ PUSH2 0x1C3 JUMPI DUP1 PUSH4 0x6352211E EQ PUSH2 0x1DF JUMPI DUP1 PUSH4 0x6A627842 EQ PUSH2 0x20F JUMPI PUSH2 0x109 JUMP JUMPDEST DUP1 PUSH4 0x1FFC9A7 EQ PUSH2 0x10D JUMPI DUP1 PUSH4 0x6FDDE03 EQ PUSH2 0x13D JUMPI DUP1 PUSH4 0x81812FC EQ PUSH2 0x15B JUMPI DUP1 PUSH4 0x95EA7B3 EQ PUSH2 0x18B JUMPI JUMPDEST PUSH0 DUP1 REVERT JUMPDEST PUSH2 0x127 PUSH1 0x4 DUP1 CALLDATASIZE SUB DUP2 ADD SWAP1 PUSH2 0x122 SWAP2 SWAP1 PUSH2 0x1778 JUMP JUMPDEST PUSH2 0x355 JUMP JUMPDEST PUSH1 0x40 MLOAD PUSH2 0x134 SWAP2 SWAP1 PUSH2 0x17BD JUMP JUMPDEST PUSH1 0x40 MLOAD DUP1 SWAP2 SUB SWAP1 RETURN JUMPDEST PUSH2 0x145 PUSH2 0x436 JUMP JUMPDEST PUSH1 0x40 MLOAD PUSH2 0x152 SWAP2 SWAP1 PUSH2 0x1846 JUMP JUMPDEST PUSH1 0x40 MLOAD DUP1 SWAP2 SUB SWAP1 RETURN JUMPDEST PUSH2 0x175 PUSH1 0x4 DUP1 CALLDATASIZE SUB DUP2 ADD SWAP1 PUSH2 0x170 SWAP2 SWAP1 PUSH2 0x1899 JUMP JUMPDEST PUSH2 0x4C5 JUMP JUMPDEST PUSH1 0x40 MLOAD PUSH2 0x182 SWAP2 SWAP1 PUSH2 0x1903 JUMP JUMPDEST PUSH1 0x40 MLOAD DUP1 SWAP2 SUB SWAP1 RETURN JUMPDEST PUSH2 0x1A5 PUSH1 0x4 DUP1 CALLDATASIZE SUB DUP2 ADD SWAP1 PUSH2 0x1A0 SWAP2 SWAP1 PUSH2 0x1946 JUMP JUMPDEST PUSH2 0x4E0 JUMP JUMPDEST STOP JUMPDEST PUSH2 0x1C1 PUSH1 0x4 DUP1 CALLDATASIZE SUB DUP2 ADD SWAP1 PUSH2 0x1BC SWAP2 SWAP1 PUSH2 0x1984 JUMP JUMPDEST PUSH2 0x4F6 JUMP JUMPDEST STOP JUMPDEST PUSH2 0x1DD PUSH1 0x4 DUP1 CALLDATASIZE SUB DUP2 ADD SWAP1 PUSH2 0x1D8 SWAP2 SWAP1 PUSH2 0x1984 JUMP JUMPDEST PUSH2 0x5F5 JUMP JUMPDEST STOP JUMPDEST PUSH2 0x1F9 PUSH1 0x4 DUP1 CALLDATASIZE SUB DUP2 ADD SWAP1 PUSH2 0x1F4 SWAP2 SWAP1 PUSH2 0x1899 JUMP JUMPDEST PUSH2 0x614 JUMP JUMPDEST PUSH1 0x40 MLOAD PUSH2 0x206 SWAP2 SWAP1 PUSH2 0x1903 JUMP JUMPDEST PUSH1 0x40 MLOAD DUP1 SWAP2 SUB SWAP1 RETURN JUMPDEST PUSH2 0x229 PUSH1 0x4 DUP1 CALLDATASIZE SUB DUP2 ADD SWAP1 PUSH2 0x224 SWAP2 SWAP1 PUSH2 0x19D4 JUMP JUMPDEST PUSH2 0x625 JUMP JUMPDEST STOP JUMPDEST PUSH2 0x245 PUSH1 0x4 DUP1 CALLDATASIZE SUB DUP2 ADD SWAP1 PUSH2 0x240 SWAP2 SWAP1 PUSH2 0x19D4 JUMP JUMPDEST PUSH2 0x653 JUMP JUMPDEST PUSH1 0x40 MLOAD PUSH2 0x252 SWAP2 SWAP1 PUSH2 0x1A0E JUMP JUMPDEST PUSH1 0x40 MLOAD DUP1 SWAP2 SUB SWAP1 RETURN JUMPDEST PUSH2 0x263 PUSH2 0x709 JUMP JUMPDEST STOP JUMPDEST PUSH2 0x26D PUSH2 0x71C JUMP JUMPDEST PUSH1 0x40 MLOAD PUSH2 0x27A SWAP2 SWAP1 PUSH2 0x1903 JUMP JUMPDEST PUSH1 0x40 MLOAD DUP1 SWAP2 SUB SWAP1 RETURN JUMPDEST PUSH2 0x28B PUSH2 0x744 JUMP JUMPDEST PUSH1 0x40 MLOAD PUSH2 0x298 SWAP2 SWAP1 PUSH2 0x1846 JUMP JUMPDEST PUSH1 0x40 MLOAD DUP1 SWAP2 SUB SWAP1 RETURN JUMPDEST PUSH2 0x2BB PUSH1 0x4 DUP1 CALLDATASIZE SUB DUP2 ADD SWAP1 PUSH2 0x2B6 SWAP2 SWAP1 PUSH2 0x1A51 JUMP JUMPDEST PUSH2 0x7D4 JUMP JUMPDEST STOP JUMPDEST PUSH2 0x2D7 PUSH1 0x4 DUP1 CALLDATASIZE SUB DUP2 ADD SWAP1 PUSH2 0x2D2 SWAP2 SWAP1 PUSH2 0x1BBB JUMP JUMPDEST PUSH2 0x7EA JUMP JUMPDEST STOP JUMPDEST PUSH2 0x2F3 PUSH1 0x4 DUP1 CALLDATASIZE SUB DUP2 ADD SWAP1 PUSH2 0x2EE SWAP2 SWAP1 PUSH2 0x1899 JUMP JUMPDEST PUSH2 0x807 JUMP JUMPDEST PUSH1 0x40 MLOAD PUSH2 0x300 SWAP2 SWAP1 PUSH2 0x1846 JUMP JUMPDEST PUSH1 0x40 MLOAD DUP1 SWAP2 SUB SWAP1 RETURN JUMPDEST PUSH2 0x323 PUSH1 0x4 DUP1 CALLDATASIZE SUB DUP2 ADD SWAP1 PUSH2 0x31E SWAP2 SWAP1 PUSH2 0x1C3B JUMP JUMPDEST PUSH2 0x874 JUMP JUMPDEST PUSH1 0x40 MLOAD PUSH2 0x330 SWAP2 SWAP1 PUSH2 0x17BD JUMP JUMPDEST PUSH1 0x40 MLOAD DUP1 SWAP2 SUB SWAP1 RETURN JUMPDEST PUSH2 0x353 PUSH1 0x4 DUP1 CALLDATASIZE SUB DUP2 ADD SWAP1 PUSH2 0x34E SWAP2 SWAP1 PUSH2 0x19D4 JUMP JUMPDEST PUSH2 0x902 JUMP JUMPDEST STOP JUMPDEST PUSH0 PUSH32 0x80AC58CD00000000000000000000000000000000000000000000000000000000 PUSH28 0xFFFFFFFFFFFFFFFFFFFFFFFFFFFFFFFFFFFFFFFFFFFFFFFFFFFFFFFF NOT AND DUP3 PUSH28 0xFFFFFFFFFFFFFFFFFFFFFFFFFFFFFFFFFFFFFFFFFFFFFFFFFFFFFFFF NOT AND EQ DUP1 PUSH2 0x41F JUMPI POP PUSH32 0x5B5E139F00000000000000000000000000000000000000000000000000000000 PUSH28 0xFFFFFFFFFFFFFFFFFFFFFFFFFFFFFFFFFFFFFFFFFFFFFFFFFFFFFFFF NOT AND DUP3 PUSH28 0xFFFFFFFFFFFFFFFFFFFFFFFFFFFFFFFFFFFFFFFFFFFFFFFFFFFFFFFF NOT AND EQ JUMPDEST DUP1 PUSH2 0x42F JUMPI POP PUSH2 0x42E DUP3 PUSH2 0x986 JUMP JUMPDEST JUMPDEST SWAP1 POP SWAP2 SWAP1 POP JUMP JUMPDEST PUSH1 0x60 PUSH0 DUP1 SLOAD PUSH2 0x444 SWAP1 PUSH2 0x1CA6 JUMP JUMPDEST DUP1 PUSH1 0x1F ADD PUSH1 0x20 DUP1 SWAP2 DIV MUL PUSH1 0x20 ADD PUSH1 0x40 MLOAD SWAP1 DUP2 ADD PUSH1 0x40 MSTORE DUP1 SWAP3 SWAP2 SWAP1 DUP2 DUP2 MSTORE PUSH1 0x20 ADD DUP3 DUP1 SLOAD PUSH2 0x470 SWAP1 PUSH2 0x1CA6 JUMP JUMPDEST DUP1 ISZERO PUSH2 0x4BB JUMPI DUP1 PUSH1 0x1F LT PUSH2 0x492 JUMPI PUSH2 0x100 DUP1 DUP4 SLOAD DIV MUL DUP4 MSTORE SWAP2 PUSH1 0x20 ADD SWAP2 PUSH2 0x4BB JUMP JUMPDEST DUP3 ADD SWAP2 SWAP1 PUSH0 MSTORE PUSH1 0x20 PUSH0 KECCAK256 SWAP1 JUMPDEST DUP2 SLOAD DUP2 MSTORE SWAP1 PUSH1 0x1 ADD SWAP1 PUSH1 0x20 ADD DUP1 DUP4 GT PUSH2 0x49E JUMPI DUP3 SWAP1 SUB PUSH1 0x1F AND DUP3 ADD SWAP2 JUMPDEST POP POP POP POP POP SWAP1 POP SWAP1 JUMP JUMPDEST PUSH0 PUSH2 0x4CF DUP3 PUSH2 0x9EF JUMP JUMPDEST POP PUSH2 0x4D9 DUP3 PUSH2 0xA75 JUMP JUMPDEST SWAP1 POP SWAP2 SWAP1 POP JUMP JUMPDEST PUSH2 0x4F2 DUP3 DUP3 PUSH2 0x4ED PUSH2 0xAAE JUMP JUMPDEST PUSH2 0xAB5 JUMP JUMPDEST POP POP JUMP JUMPDEST PUSH0 PUSH20 0xFFFFFFFFFFFFFFFFFFFFFFFFFFFFFFFFFFFFFFFF AND DUP3 PUSH20 0xFFFFFFFFFFFFFFFFFFFFFFFFFFFFFFFFFFFFFFFF AND SUB PUSH2 0x566 JUMPI PUSH0 PUSH1 0x40 MLOAD PUSH32 0x64A0AE9200000000000000000000000000000000000000000000000000000000 DUP2 MSTORE PUSH1 0x4 ADD PUSH2 0x55D SWAP2 SWAP1 PUSH2 0x1903 JUMP JUMPDEST PUSH1 0x40 MLOAD DUP1 SWAP2 SUB SWAP1 REVERT JUMPDEST PUSH0 PUSH2 0x579 DUP4 DUP4 PUSH2 0x574 PUSH2 0xAAE JUMP JUMPDEST PUSH2 0xAC7 JUMP JUMPDEST SWAP1 POP DUP4 PUSH20 0xFFFFFFFFFFFFFFFFFFFFFFFFFFFFFFFFFFFFFFFF AND DUP2 PUSH20 0xFFFFFFFFFFFFFFFFFFFFFFFFFFFFFFFFFFFFFFFF AND EQ PUSH2 0x5EF JUMPI DUP4 DUP3 DUP3 PUSH1 0x40 MLOAD PUSH32 0x64283D7B00000000000000000000000000000000000000000000000000000000 DUP2 MSTORE PUSH1 0x4 ADD PUSH2 0x5E6 SWAP4 SWAP3 SWAP2 SWAP1 PUSH2 0x1CD6 JUMP JUMPDEST PUSH1 0x40 MLOAD DUP1 SWAP2 SUB SWAP1 REVERT JUMPDEST POP POP POP POP JUMP JUMPDEST PUSH2 0x60F DUP4 DUP4 DUP4 PUSH1 0x40 MLOAD DUP1 PUSH1 0x20 ADD PUSH1 0x40 MSTORE DUP1 PUSH0 DUP2 MSTORE POP PUSH2 0x7EA JUMP JUMPDEST POP POP POP JUMP JUMPDEST PUSH0 PUSH2 0x61E DUP3 PUSH2 0x9EF JUMP JUMPDEST SWAP1 POP SWAP2 SWAP1 POP JUMP JUMPDEST PUSH2 0x62D PUSH2 0xCD2 JUMP JUMPDEST PUSH2 0x639 DUP2 PUSH1 0x7 SLOAD PUSH2 0xD59 JUMP JUMPDEST PUSH1 0x7 PUSH0 DUP2 SLOAD DUP1 SWAP3 SWAP2 SWAP1 PUSH2 0x64B SWAP1 PUSH2 0x1D38 JUMP JUMPDEST SWAP2 SWAP1 POP SSTORE POP POP JUMP JUMPDEST PUSH0 DUP1 PUSH20 0xFFFFFFFFFFFFFFFFFFFFFFFFFFFFFFFFFFFFFFFF AND DUP3 PUSH20 0xFFFFFFFFFFFFFFFFFFFFFFFFFFFFFFFFFFFFFFFF AND SUB PUSH2 0x6C4 JUMPI PUSH0 PUSH1 0x40 MLOAD PUSH32 0x89C62B6400000000000000000000000000000000000000000000000000000000 DUP2 MSTORE PUSH1 0x4 ADD PUSH2 0x6BB SWAP2 SWAP1 PUSH2 0x1903 JUMP JUMPDEST PUSH1 0x40 MLOAD DUP1 SWAP2 SUB SWAP1 REVERT JUMPDEST PUSH1 0x3 PUSH0 DUP4 PUSH20 0xFFFFFFFFFFFFFFFFFFFFFFFFFFFFFFFFFFFFFFFF AND PUSH20 0xFFFFFFFFFFFFFFFFFFFFFFFFFFFFFFFFFFFFFFFF AND DUP2 MSTORE PUSH1 0x20 ADD SWAP1 DUP2 MSTORE PUSH1 0x20 ADD PUSH0 KECCAK256 SLOAD SWAP1 POP SWAP2 SWAP1 POP JUMP JUMPDEST PUSH2 0x711 PUSH2 0xCD2 JUMP JUMPDEST PUSH2 0x71A PUSH0 PUSH2 0xE4C JUMP JUMPDEST JUMP JUMPDEST PUSH0 PUSH1 0x6 PUSH0 SWAP1 SLOAD SWAP1 PUSH2 0x100 EXP SWAP1 DIV PUSH20 0xFFFFFFFFFFFFFFFFFFFFFFFFFFFFFFFFFFFFFFFF AND SWAP1 POP SWAP1 JUMP JUMPDEST PUSH1 0x60 PUSH1 0x1 DUP1 SLOAD PUSH2 0x753 SWAP1 PUSH2 0x1CA6 JUMP JUMPDEST DUP1 PUSH1 0x1F ADD PUSH1 0x20 DUP1 SWAP2 DIV MUL PUSH1 0x20 ADD PUSH1 0x40 MLOAD SWAP1 DUP2 ADD PUSH1 0x40 MSTORE DUP1 SWAP3 SWAP2 SWAP1 DUP2 DUP2 MSTORE PUSH1 0x20 ADD DUP3 DUP1 SLOAD PUSH2 0x77F SWAP1 PUSH2 0x1CA6 JUMP JUMPDEST DUP1 ISZERO PUSH2 0x7CA JUMPI DUP1 PUSH1 0x1F LT PUSH2 0x7A1 JUMPI PUSH2 0x100 DUP1 DUP4 SLOAD DIV MUL DUP4 MSTORE SWAP2 PUSH1 0x20 ADD SWAP2 PUSH2 0x7CA JUMP JUMPDEST DUP3 ADD SWAP2 SWAP1 PUSH0 MSTORE PUSH1 0x20 PUSH0 KECCAK256 SWAP1 JUMPDEST DUP2 SLOAD DUP2 MSTORE SWAP1 PUSH1 0x1 ADD SWAP1 PUSH1 0x20 ADD DUP1 DUP4 GT PUSH2 0x7AD JUMPI DUP3 SWAP1 SUB PUSH1 0x1F AND DUP3 ADD SWAP2 JUMPDEST POP POP POP POP POP SWAP1 POP SWAP1 JUMP JUMPDEST PUSH2 0x7E6 PUSH2 0x7DF PUSH2 0xAAE JUMP JUMPDEST DUP4 DUP4 PUSH2 0xF0F JUMP JUMPDEST POP POP JUMP JUMPDEST PUSH2 0x7F5 DUP5 DUP5 DUP5 PUSH2 0x4F6 JUMP JUMPDEST PUSH2 0x801 DUP5 DUP5 DUP5 DUP5 PUSH2 0x1078 JUMP JUMPDEST POP POP POP POP JUMP JUMPDEST PUSH1 0x60 PUSH2 0x812 DUP3 PUSH2 0x9EF JUMP JUMPDEST POP PUSH2 0x84E PUSH2 0x81E PUSH2 0x436 JUMP JUMPDEST PUSH2 0x826 PUSH2 0x436 JUMP JUMPDEST PUSH1 0x8 PUSH1 0x40 MLOAD PUSH1 0x20 ADD PUSH2 0x83A SWAP4 SWAP3 SWAP2 SWAP1 PUSH2 0x1FE3 JUMP JUMPDEST PUSH1 0x40 MLOAD PUSH1 0x20 DUP2 DUP4 SUB SUB DUP2 MSTORE SWAP1 PUSH1 0x40 MSTORE PUSH2 0x122A JUMP JUMPDEST PUSH1 0x40 MLOAD PUSH1 0x20 ADD PUSH2 0x85E SWAP2 SWAP1 PUSH2 0x2094 JUMP JUMPDEST PUSH1 0x40 MLOAD PUSH1 0x20 DUP2 DUP4 SUB SUB DUP2 MSTORE SWAP1 PUSH1 0x40 MSTORE SWAP1 POP SWAP2 SWAP1 POP JUMP JUMPDEST PUSH0 PUSH1 0x5 PUSH0 DUP5 PUSH20 0xFFFFFFFFFFFFFFFFFFFFFFFFFFFFFFFFFFFFFFFF AND PUSH20 0xFFFFFFFFFFFFFFFFFFFFFFFFFFFFFFFFFFFFFFFF AND DUP2 MSTORE PUSH1 0x20 ADD SWAP1 DUP2 MSTORE PUSH1 0x20 ADD PUSH0 KECCAK256 PUSH0 DUP4 PUSH20 0xFFFFFFFFFFFFFFFFFFFFFFFFFFFFFFFFFFFFFFFF AND PUSH20 0xFFFFFFFFFFFFFFFFFFFFFFFFFFFFFFFFFFFFFFFF AND DUP2 MSTORE PUSH1 0x20 ADD SWAP1 DUP2 MSTORE PUSH1 0x20 ADD PUSH0 KECCAK256 PUSH0 SWAP1 SLOAD SWAP1 PUSH2 0x100 EXP SWAP1 DIV PUSH1 0xFF AND SWAP1 POP SWAP3 SWAP2 POP POP JUMP JUMPDEST PUSH2 0x90A PUSH2 0xCD2 JUMP JUMPDEST PUSH0 PUSH20 0xFFFFFFFFFFFFFFFFFFFFFFFFFFFFFFFFFFFFFFFF AND DUP2 PUSH20 0xFFFFFFFFFFFFFFFFFFFFFFFFFFFFFFFFFFFFFFFF AND SUB PUSH2 0x97A JUMPI PUSH0 PUSH1 0x40 MLOAD PUSH32 0x1E4FBDF700000000000000000000000000000000000000000000000000000000 DUP2 MSTORE PUSH1 0x4 ADD PUSH2 0x971 SWAP2 SWAP1 PUSH2 0x1903 JUMP JUMPDEST PUSH1 0x40 MLOAD DUP1 SWAP2 SUB SWAP1 REVERT JUMPDEST PUSH2 0x983 DUP2 PUSH2 0xE4C JUMP JUMPDEST POP JUMP JUMPDEST PUSH0 PUSH32 0x1FFC9A700000000000000000000000000000000000000000000000000000000 PUSH28 0xFFFFFFFFFFFFFFFFFFFFFFFFFFFFFFFFFFFFFFFFFFFFFFFFFFFFFFFF NOT AND DUP3 PUSH28 0xFFFFFFFFFFFFFFFFFFFFFFFFFFFFFFFFFFFFFFFFFFFFFFFFFFFFFFFF NOT AND EQ SWAP1 POP SWAP2 SWAP1 POP JUMP JUMPDEST PUSH0 DUP1 PUSH2 0x9FA DUP4 PUSH2 0x1397 JUMP JUMPDEST SWAP1 POP PUSH0 PUSH20 0xFFFFFFFFFFFFFFFFFFFFFFFFFFFFFFFFFFFFFFFF AND DUP2 PUSH20 0xFFFFFFFFFFFFFFFFFFFFFFFFFFFFFFFFFFFFFFFF AND SUB PUSH2 0xA6C JUMPI DUP3 PUSH1 0x40 MLOAD PUSH32 0x7E27328900000000000000000000000000000000000000000000000000000000 DUP2 MSTORE PUSH1 0x4 ADD PUSH2 0xA63 SWAP2 SWAP1 PUSH2 0x1A0E JUMP JUMPDEST PUSH1 0x40 MLOAD DUP1 SWAP2 SUB SWAP1 REVERT JUMPDEST DUP1 SWAP2 POP POP SWAP2 SWAP1 POP JUMP JUMPDEST PUSH0 PUSH1 0x4 PUSH0 DUP4 DUP2 MSTORE PUSH1 0x20 ADD SWAP1 DUP2 MSTORE PUSH1 0x20 ADD PUSH0 KECCAK256 PUSH0 SWAP1 SLOAD SWAP1 PUSH2 0x100 EXP SWAP1 DIV PUSH20 0xFFFFFFFFFFFFFFFFFFFFFFFFFFFFFFFFFFFFFFFF AND SWAP1 POP SWAP2 SWAP1 POP JUMP JUMPDEST PUSH0 CALLER SWAP1 POP SWAP1 JUMP JUMPDEST PUSH2 0xAC2 DUP4 DUP4 DUP4 PUSH1 0x1 PUSH2 0x13D0 JUMP JUMPDEST POP POP POP JUMP JUMPDEST PUSH0 DUP1 PUSH2 0xAD2 DUP5 PUSH2 0x1397 JUMP JUMPDEST SWAP1 POP PUSH0 PUSH20 0xFFFFFFFFFFFFFFFFFFFFFFFFFFFFFFFFFFFFFFFF AND DUP4 PUSH20 0xFFFFFFFFFFFFFFFFFFFFFFFFFFFFFFFFFFFFFFFF AND EQ PUSH2 0xB13 JUMPI PUSH2 0xB12 DUP2 DUP5 DUP7 PUSH2 0x158F JUMP JUMPDEST JUMPDEST PUSH0 PUSH20 0xFFFFFFFFFFFFFFFFFFFFFFFFFFFFFFFFFFFFFFFF AND DUP2 PUSH20 0xFFFFFFFFFFFFFFFFFFFFFFFFFFFFFFFFFFFFFFFF AND EQ PUSH2 0xB9E JUMPI PUSH2 0xB52 PUSH0 DUP6 PUSH0 DUP1 PUSH2 0x13D0 JUMP JUMPDEST PUSH1 0x1 PUSH1 0x3 PUSH0 DUP4 PUSH20 0xFFFFFFFFFFFFFFFFFFFFFFFFFFFFFFFFFFFFFFFF AND PUSH20 0xFFFFFFFFFFFFFFFFFFFFFFFFFFFFFFFFFFFFFFFF AND DUP2 MSTORE PUSH1 0x20 ADD SWAP1 DUP2 MSTORE PUSH1 0x20 ADD PUSH0 KECCAK256 PUSH0 DUP3 DUP3 SLOAD SUB SWAP3 POP POP DUP2 SWAP1 SSTORE POP JUMPDEST PUSH0 PUSH20 0xFFFFFFFFFFFFFFFFFFFFFFFFFFFFFFFFFFFFFFFF AND DUP6 PUSH20 0xFFFFFFFFFFFFFFFFFFFFFFFFFFFFFFFFFFFFFFFF AND EQ PUSH2 0xC1D JUMPI PUSH1 0x1 PUSH1 0x3 PUSH0 DUP8 PUSH20 0xFFFFFFFFFFFFFFFFFFFFFFFFFFFFFFFFFFFFFFFF AND PUSH20 0xFFFFFFFFFFFFFFFFFFFFFFFFFFFFFFFFFFFFFFFF AND DUP2 MSTORE PUSH1 0x20 ADD SWAP1 DUP2 MSTORE PUSH1 0x20 ADD PUSH0 KECCAK256 PUSH0 DUP3 DUP3 SLOAD ADD SWAP3 POP POP DUP2 SWAP1 SSTORE POP JUMPDEST DUP5 PUSH1 0x2 PUSH0 DUP7 DUP2 MSTORE PUSH1 0x20 ADD SWAP1 DUP2 MSTORE PUSH1 0x20 ADD PUSH0 KECCAK256 PUSH0 PUSH2 0x100 EXP DUP2 SLOAD DUP2 PUSH20 0xFFFFFFFFFFFFFFFFFFFFFFFFFFFFFFFFFFFFFFFF MUL NOT AND SWAP1 DUP4 PUSH20 0xFFFFFFFFFFFFFFFFFFFFFFFFFFFFFFFFFFFFFFFF AND MUL OR SWAP1 SSTORE POP DUP4 DUP6 PUSH20 0xFFFFFFFFFFFFFFFFFFFFFFFFFFFFFFFFFFFFFFFF AND DUP3 PUSH20 0xFFFFFFFFFFFFFFFFFFFFFFFFFFFFFFFFFFFFFFFF AND PUSH32 0xDDF252AD1BE2C89B69C2B068FC378DAA952BA7F163C4A11628F55A4DF523B3EF PUSH1 0x40 MLOAD PUSH1 0x40 MLOAD DUP1 SWAP2 SUB SWAP1 LOG4 DUP1 SWAP2 POP POP SWAP4 SWAP3 POP POP POP JUMP JUMPDEST PUSH2 0xCDA PUSH2 0xAAE JUMP JUMPDEST PUSH20 0xFFFFFFFFFFFFFFFFFFFFFFFFFFFFFFFFFFFFFFFF AND PUSH2 0xCF8 PUSH2 0x71C JUMP JUMPDEST PUSH20 0xFFFFFFFFFFFFFFFFFFFFFFFFFFFFFFFFFFFFFFFF AND EQ PUSH2 0xD57 JUMPI PUSH2 0xD1B PUSH2 0xAAE JUMP JUMPDEST PUSH1 0x40 MLOAD PUSH32 0x118CDAA700000000000000000000000000000000000000000000000000000000 DUP2 MSTORE PUSH1 0x4 ADD PUSH2 0xD4E SWAP2 SWAP1 PUSH2 0x1903 JUMP JUMPDEST PUSH1 0x40 MLOAD DUP1 SWAP2 SUB SWAP1 REVERT JUMPDEST JUMP JUMPDEST PUSH0 PUSH20 0xFFFFFFFFFFFFFFFFFFFFFFFFFFFFFFFFFFFFFFFF AND DUP3 PUSH20 0xFFFFFFFFFFFFFFFFFFFFFFFFFFFFFFFFFFFFFFFF AND SUB PUSH2 0xDC9 JUMPI PUSH0 PUSH1 0x40 MLOAD PUSH32 0x64A0AE9200000000000000000000000000000000000000000000000000000000 DUP2 MSTORE PUSH1 0x4 ADD PUSH2 0xDC0 SWAP2 SWAP1 PUSH2 0x1903 JUMP JUMPDEST PUSH1 0x40 MLOAD DUP1 SWAP2 SUB SWAP1 REVERT JUMPDEST PUSH0 PUSH2 0xDD5 DUP4 DUP4 PUSH0 PUSH2 0xAC7 JUMP JUMPDEST SWAP1 POP PUSH0 PUSH20 0xFFFFFFFFFFFFFFFFFFFFFFFFFFFFFFFFFFFFFFFF AND DUP2 PUSH20 0xFFFFFFFFFFFFFFFFFFFFFFFFFFFFFFFFFFFFFFFF AND EQ PUSH2 0xE47 JUMPI PUSH0 PUSH1 0x40 MLOAD PUSH32 0x73C6AC6E00000000000000000000000000000000000000000000000000000000 DUP2 MSTORE PUSH1 0x4 ADD PUSH2 0xE3E SWAP2 SWAP1 PUSH2 0x1903 JUMP JUMPDEST PUSH1 0x40 MLOAD DUP1 SWAP2 SUB SWAP1 REVERT JUMPDEST POP POP POP JUMP JUMPDEST PUSH0 PUSH1 0x6 PUSH0 SWAP1 SLOAD SWAP1 PUSH2 0x100 EXP SWAP1 DIV PUSH20 0xFFFFFFFFFFFFFFFFFFFFFFFFFFFFFFFFFFFFFFFF AND SWAP1 POP DUP2 PUSH1 0x6 PUSH0 PUSH2 0x100 EXP DUP2 SLOAD DUP2 PUSH20 0xFFFFFFFFFFFFFFFFFFFFFFFFFFFFFFFFFFFFFFFF MUL NOT AND SWAP1 DUP4 PUSH20 0xFFFFFFFFFFFFFFFFFFFFFFFFFFFFFFFFFFFFFFFF AND MUL OR SWAP1 SSTORE POP DUP2 PUSH20 0xFFFFFFFFFFFFFFFFFFFFFFFFFFFFFFFFFFFFFFFF AND DUP2 PUSH20 0xFFFFFFFFFFFFFFFFFFFFFFFFFFFFFFFFFFFFFFFF AND PUSH32 0x8BE0079C531659141344CD1FD0A4F28419497F9722A3DAAFE3B4186F6B6457E0 PUSH1 0x40 MLOAD PUSH1 0x40 MLOAD DUP1 SWAP2 SUB SWAP1 LOG3 POP POP JUMP JUMPDEST PUSH0 PUSH20 0xFFFFFFFFFFFFFFFFFFFFFFFFFFFFFFFFFFFFFFFF AND DUP3 PUSH20 0xFFFFFFFFFFFFFFFFFFFFFFFFFFFFFFFFFFFFFFFF AND SUB PUSH2 0xF7F JUMPI DUP2 PUSH1 0x40 MLOAD PUSH32 0x5B08BA1800000000000000000000000000000000000000000000000000000000 DUP2 MSTORE PUSH1 0x4 ADD PUSH2 0xF76 SWAP2 SWAP1 PUSH2 0x1903 JUMP JUMPDEST PUSH1 0x40 MLOAD DUP1 SWAP2 SUB SWAP1 REVERT JUMPDEST DUP1 PUSH1 0x5 PUSH0 DUP6 PUSH20 0xFFFFFFFFFFFFFFFFFFFFFFFFFFFFFFFFFFFFFFFF AND PUSH20 0xFFFFFFFFFFFFFFFFFFFFFFFFFFFFFFFFFFFFFFFF AND DUP2 MSTORE PUSH1 0x20 ADD SWAP1 DUP2 MSTORE PUSH1 0x20 ADD PUSH0 KECCAK256 PUSH0 DUP5 PUSH20 0xFFFFFFFFFFFFFFFFFFFFFFFFFFFFFFFFFFFFFFFF AND PUSH20 0xFFFFFFFFFFFFFFFFFFFFFFFFFFFFFFFFFFFFFFFF AND DUP2 MSTORE PUSH1 0x20 ADD SWAP1 DUP2 MSTORE PUSH1 0x20 ADD PUSH0 KECCAK256 PUSH0 PUSH2 0x100 EXP DUP2 SLOAD DUP2 PUSH1 0xFF MUL NOT AND SWAP1 DUP4 ISZERO ISZERO MUL OR SWAP1 SSTORE POP DUP2 PUSH20 0xFFFFFFFFFFFFFFFFFFFFFFFFFFFFFFFFFFFFFFFF AND DUP4 PUSH20 0xFFFFFFFFFFFFFFFFFFFFFFFFFFFFFFFFFFFFFFFF AND PUSH32 0x17307EAB39AB6107E8899845AD3D59BD9653F200F220920489CA2B5937696C31 DUP4 PUSH1 0x40 MLOAD PUSH2 0x106B SWAP2 SWAP1 PUSH2 0x17BD JUMP JUMPDEST PUSH1 0x40 MLOAD DUP1 SWAP2 SUB SWAP1 LOG3 POP POP POP JUMP JUMPDEST PUSH0 DUP4 PUSH20 0xFFFFFFFFFFFFFFFFFFFFFFFFFFFFFFFFFFFFFFFF AND EXTCODESIZE GT ISZERO PUSH2 0x1224 JUMPI DUP3 PUSH20 0xFFFFFFFFFFFFFFFFFFFFFFFFFFFFFFFFFFFFFFFF AND PUSH4 0x150B7A02 PUSH2 0x10BB PUSH2 0xAAE JUMP JUMPDEST DUP7 DUP6 DUP6 PUSH1 0x40 MLOAD DUP6 PUSH4 0xFFFFFFFF AND PUSH1 0xE0 SHL DUP2 MSTORE PUSH1 0x4 ADD PUSH2 0x10DD SWAP5 SWAP4 SWAP3 SWAP2 SWAP1 PUSH2 0x2107 JUMP JUMPDEST PUSH1 0x20 PUSH1 0x40 MLOAD DUP1 DUP4 SUB DUP2 PUSH0 DUP8 GAS CALL SWAP3 POP POP POP DUP1 ISZERO PUSH2 0x1118 JUMPI POP PUSH1 0x40 MLOAD RETURNDATASIZE PUSH1 0x1F NOT PUSH1 0x1F DUP3 ADD AND DUP3 ADD DUP1 PUSH1 0x40 MSTORE POP DUP2 ADD SWAP1 PUSH2 0x1115 SWAP2 SWAP1 PUSH2 0x2165 JUMP JUMPDEST PUSH1 0x1 JUMPDEST PUSH2 0x1199 JUMPI RETURNDATASIZE DUP1 PUSH0 DUP2 EQ PUSH2 0x1146 JUMPI PUSH1 0x40 MLOAD SWAP2 POP PUSH1 0x1F NOT PUSH1 0x3F RETURNDATASIZE ADD AND DUP3 ADD PUSH1 0x40 MSTORE RETURNDATASIZE DUP3 MSTORE RETURNDATASIZE PUSH0 PUSH1 0x20 DUP5 ADD RETURNDATACOPY PUSH2 0x114B JUMP JUMPDEST PUSH1 0x60 SWAP2 POP JUMPDEST POP PUSH0 DUP2 MLOAD SUB PUSH2 0x1191 JUMPI DUP4 PUSH1 0x40 MLOAD PUSH32 0x64A0AE9200000000000000000000000000000000000000000000000000000000 DUP2 MSTORE PUSH1 0x4 ADD PUSH2 0x1188 SWAP2 SWAP1 PUSH2 0x1903 JUMP JUMPDEST PUSH1 0x40 MLOAD DUP1 SWAP2 SUB SWAP1 REVERT JUMPDEST DUP1 MLOAD DUP2 PUSH1 0x20 ADD REVERT JUMPDEST PUSH4 0x150B7A02 PUSH1 0xE0 SHL PUSH28 0xFFFFFFFFFFFFFFFFFFFFFFFFFFFFFFFFFFFFFFFFFFFFFFFFFFFFFFFF NOT AND DUP2 PUSH28 0xFFFFFFFFFFFFFFFFFFFFFFFFFFFFFFFFFFFFFFFFFFFFFFFFFFFFFFFF NOT AND EQ PUSH2 0x1222 JUMPI DUP4 PUSH1 0x40 MLOAD PUSH32 0x64A0AE9200000000000000000000000000000000000000000000000000000000 DUP2 MSTORE PUSH1 0x4 ADD PUSH2 0x1219 SWAP2 SWAP1 PUSH2 0x1903 JUMP JUMPDEST PUSH1 0x40 MLOAD DUP1 SWAP2 SUB SWAP1 REVERT JUMPDEST POP JUMPDEST POP POP POP POP JUMP JUMPDEST PUSH1 0x60 PUSH0 DUP3 MLOAD SUB PUSH2 0x124A JUMPI PUSH1 0x40 MLOAD DUP1 PUSH1 0x20 ADD PUSH1 0x40 MSTORE DUP1 PUSH0 DUP2 MSTORE POP SWAP1 POP PUSH2 0x1392 JUMP JUMPDEST PUSH0 PUSH1 0x40 MLOAD DUP1 PUSH1 0x60 ADD PUSH1 0x40 MSTORE DUP1 PUSH1 0x40 DUP2 MSTORE PUSH1 0x20 ADD PUSH2 0x2289 PUSH1 0x40 SWAP2 CODECOPY SWAP1 POP PUSH0 PUSH1 0x3 PUSH1 0x2 DUP6 MLOAD PUSH2 0x1277 SWAP2 SWAP1 PUSH2 0x2190 JUMP JUMPDEST PUSH2 0x1281 SWAP2 SWAP1 PUSH2 0x21F0 JUMP JUMPDEST PUSH1 0x4 PUSH2 0x128D SWAP2 SWAP1 PUSH2 0x2220 JUMP JUMPDEST PUSH8 0xFFFFFFFFFFFFFFFF DUP2 GT ISZERO PUSH2 0x12A6 JUMPI PUSH2 0x12A5 PUSH2 0x1A97 JUMP JUMPDEST JUMPDEST PUSH1 0x40 MLOAD SWAP1 DUP1 DUP3 MSTORE DUP1 PUSH1 0x1F ADD PUSH1 0x1F NOT AND PUSH1 0x20 ADD DUP3 ADD PUSH1 0x40 MSTORE DUP1 ISZERO PUSH2 0x12D8 JUMPI DUP2 PUSH1 0x20 ADD PUSH1 0x1 DUP3 MUL DUP1 CALLDATASIZE DUP4 CALLDATACOPY DUP1 DUP3 ADD SWAP2 POP POP SWAP1 POP JUMPDEST POP SWAP1 POP PUSH1 0x1 DUP3 ADD PUSH1 0x20 DUP3 ADD DUP6 DUP7 MLOAD DUP8 ADD PUSH1 0x20 DUP2 ADD DUP1 MLOAD PUSH0 DUP3 MSTORE JUMPDEST DUP3 DUP5 LT ISZERO PUSH2 0x134D JUMPI PUSH1 0x3 DUP5 ADD SWAP4 POP DUP4 MLOAD PUSH1 0x3F DUP2 PUSH1 0x12 SHR AND DUP8 ADD MLOAD DUP7 MSTORE8 PUSH1 0x1 DUP7 ADD SWAP6 POP PUSH1 0x3F DUP2 PUSH1 0xC SHR AND DUP8 ADD MLOAD DUP7 MSTORE8 PUSH1 0x1 DUP7 ADD SWAP6 POP PUSH1 0x3F DUP2 PUSH1 0x6 SHR AND DUP8 ADD MLOAD DUP7 MSTORE8 PUSH1 0x1 DUP7 ADD SWAP6 POP PUSH1 0x3F DUP2 AND DUP8 ADD MLOAD DUP7 MSTORE8 PUSH1 0x1 DUP7 ADD SWAP6 POP POP PUSH2 0x12F2 JUMP JUMPDEST DUP1 DUP3 MSTORE PUSH1 0x3 DUP11 MLOAD MOD PUSH1 0x1 DUP2 EQ PUSH2 0x136A JUMPI PUSH1 0x2 DUP2 EQ PUSH2 0x137D JUMPI PUSH2 0x1385 JUMP JUMPDEST PUSH1 0x3D PUSH1 0x1 DUP8 SUB MSTORE8 PUSH1 0x3D PUSH1 0x2 DUP8 SUB MSTORE8 PUSH2 0x1385 JUMP JUMPDEST PUSH1 0x3D PUSH1 0x1 DUP8 SUB MSTORE8 JUMPDEST POP POP POP POP POP POP POP DUP1 SWAP3 POP POP POP JUMPDEST SWAP2 SWAP1 POP JUMP JUMPDEST PUSH0 PUSH1 0x2 PUSH0 DUP4 DUP2 MSTORE PUSH1 0x20 ADD SWAP1 DUP2 MSTORE PUSH1 0x20 ADD PUSH0 KECCAK256 PUSH0 SWAP1 SLOAD SWAP1 PUSH2 0x100 EXP SWAP1 DIV PUSH20 0xFFFFFFFFFFFFFFFFFFFFFFFFFFFFFFFFFFFFFFFF AND SWAP1 POP SWAP2 SWAP1 POP JUMP JUMPDEST DUP1 DUP1 PUSH2 0x1408 JUMPI POP PUSH0 PUSH20 0xFFFFFFFFFFFFFFFFFFFFFFFFFFFFFFFFFFFFFFFF AND DUP3 PUSH20 0xFFFFFFFFFFFFFFFFFFFFFFFFFFFFFFFFFFFFFFFF AND EQ ISZERO JUMPDEST ISZERO PUSH2 0x153A JUMPI PUSH0 PUSH2 0x1417 DUP5 PUSH2 0x9EF JUMP JUMPDEST SWAP1 POP PUSH0 PUSH20 0xFFFFFFFFFFFFFFFFFFFFFFFFFFFFFFFFFFFFFFFF AND DUP4 PUSH20 0xFFFFFFFFFFFFFFFFFFFFFFFFFFFFFFFFFFFFFFFF AND EQ ISZERO DUP1 ISZERO PUSH2 0x1481 JUMPI POP DUP3 PUSH20 0xFFFFFFFFFFFFFFFFFFFFFFFFFFFFFFFFFFFFFFFF AND DUP2 PUSH20 0xFFFFFFFFFFFFFFFFFFFFFFFFFFFFFFFFFFFFFFFF AND EQ ISZERO JUMPDEST DUP1 ISZERO PUSH2 0x1494 JUMPI POP PUSH2 0x1492 DUP2 DUP5 PUSH2 0x874 JUMP JUMPDEST ISZERO JUMPDEST ISZERO PUSH2 0x14D6 JUMPI DUP3 PUSH1 0x40 MLOAD PUSH32 0xA9FBF51F00000000000000000000000000000000000000000000000000000000 DUP2 MSTORE PUSH1 0x4 ADD PUSH2 0x14CD SWAP2 SWAP1 PUSH2 0x1903 JUMP JUMPDEST PUSH1 0x40 MLOAD DUP1 SWAP2 SUB SWAP1 REVERT JUMPDEST DUP2 ISZERO PUSH2 0x1538 JUMPI DUP4 DUP6 PUSH20 0xFFFFFFFFFFFFFFFFFFFFFFFFFFFFFFFFFFFFFFFF AND DUP3 PUSH20 0xFFFFFFFFFFFFFFFFFFFFFFFFFFFFFFFFFFFFFFFF AND PUSH32 0x8C5BE1E5EBEC7D5BD14F71427D1E84F3DD0314C0F7B2291E5B200AC8C7C3B925 PUSH1 0x40 MLOAD PUSH1 0x40 MLOAD DUP1 SWAP2 SUB SWAP1 LOG4 JUMPDEST POP JUMPDEST DUP4 PUSH1 0x4 PUSH0 DUP6 DUP2 MSTORE PUSH1 0x20 ADD SWAP1 DUP2 MSTORE PUSH1 0x20 ADD PUSH0 KECCAK256 PUSH0 PUSH2 0x100 EXP DUP2 SLOAD DUP2 PUSH20 0xFFFFFFFFFFFFFFFFFFFFFFFFFFFFFFFFFFFFFFFF MUL NOT AND SWAP1 DUP4 PUSH20 0xFFFFFFFFFFFFFFFFFFFFFFFFFFFFFFFFFFFFFFFF AND MUL OR SWAP1 SSTORE POP POP POP POP POP JUMP JUMPDEST PUSH2 0x159A DUP4 DUP4 DUP4 PUSH2 0x1652 JUMP JUMPDEST PUSH2 0x164D JUMPI PUSH0 PUSH20 0xFFFFFFFFFFFFFFFFFFFFFFFFFFFFFFFFFFFFFFFF AND DUP4 PUSH20 0xFFFFFFFFFFFFFFFFFFFFFFFFFFFFFFFFFFFFFFFF AND SUB PUSH2 0x160E JUMPI DUP1 PUSH1 0x40 MLOAD PUSH32 0x7E27328900000000000000000000000000000000000000000000000000000000 DUP2 MSTORE PUSH1 0x4 ADD PUSH2 0x1605 SWAP2 SWAP1 PUSH2 0x1A0E JUMP JUMPDEST PUSH1 0x40 MLOAD DUP1 SWAP2 SUB SWAP1 REVERT JUMPDEST DUP2 DUP2 PUSH1 0x40 MLOAD PUSH32 0x177E802F00000000000000000000000000000000000000000000000000000000 DUP2 MSTORE PUSH1 0x4 ADD PUSH2 0x1644 SWAP3 SWAP2 SWAP1 PUSH2 0x2261 JUMP JUMPDEST PUSH1 0x40 MLOAD DUP1 SWAP2 SUB SWAP1 REVERT JUMPDEST POP POP POP JUMP JUMPDEST PUSH0 DUP1 PUSH20 0xFFFFFFFFFFFFFFFFFFFFFFFFFFFFFFFFFFFFFFFF AND DUP4 PUSH20 0xFFFFFFFFFFFFFFFFFFFFFFFFFFFFFFFFFFFFFFFF AND EQ ISZERO DUP1 ISZERO PUSH2 0x1709 JUMPI POP DUP3 PUSH20 0xFFFFFFFFFFFFFFFFFFFFFFFFFFFFFFFFFFFFFFFF AND DUP5 PUSH20 0xFFFFFFFFFFFFFFFFFFFFFFFFFFFFFFFFFFFFFFFF AND EQ DUP1 PUSH2 0x16CA JUMPI POP PUSH2 0x16C9 DUP5 DUP5 PUSH2 0x874 JUMP JUMPDEST JUMPDEST DUP1 PUSH2 0x1708 JUMPI POP DUP3 PUSH20 0xFFFFFFFFFFFFFFFFFFFFFFFFFFFFFFFFFFFFFFFF AND PUSH2 0x16F0 DUP4 PUSH2 0xA75 JUMP JUMPDEST PUSH20 0xFFFFFFFFFFFFFFFFFFFFFFFFFFFFFFFFFFFFFFFF AND EQ JUMPDEST JUMPDEST SWAP1 POP SWAP4 SWAP3 POP POP POP JUMP JUMPDEST PUSH0 PUSH1 0x40 MLOAD SWAP1 POP SWAP1 JUMP JUMPDEST PUSH0 DUP1 REVERT JUMPDEST PUSH0 DUP1 REVERT JUMPDEST PUSH0 PUSH32 0xFFFFFFFF00000000000000000000000000000000000000000000000000000000 DUP3 AND SWAP1 POP SWAP2 SWAP1 POP JUMP JUMPDEST PUSH2 0x1757 DUP2 PUSH2 0x1723 JUMP JUMPDEST DUP2 EQ PUSH2 0x1761 JUMPI PUSH0 DUP1 REVERT JUMPDEST POP JUMP JUMPDEST PUSH0 DUP2 CALLDATALOAD SWAP1 POP PUSH2 0x1772 DUP2 PUSH2 0x174E JUMP JUMPDEST SWAP3 SWAP2 POP POP JUMP JUMPDEST PUSH0 PUSH1 0x20 DUP3 DUP5 SUB SLT ISZERO PUSH2 0x178D JUMPI PUSH2 0x178C PUSH2 0x171B JUMP JUMPDEST JUMPDEST PUSH0 PUSH2 0x179A DUP5 DUP3 DUP6 ADD PUSH2 0x1764 JUMP JUMPDEST SWAP2 POP POP SWAP3 SWAP2 POP POP JUMP JUMPDEST PUSH0 DUP2 ISZERO ISZERO SWAP1 POP SWAP2 SWAP1 POP JUMP JUMPDEST PUSH2 0x17B7 DUP2 PUSH2 0x17A3 JUMP JUMPDEST DUP3 MSTORE POP POP JUMP JUMPDEST PUSH0 PUSH1 0x20 DUP3 ADD SWAP1 POP PUSH2 0x17D0 PUSH0 DUP4 ADD DUP5 PUSH2 0x17AE JUMP JUMPDEST SWAP3 SWAP2 POP POP JUMP JUMPDEST PUSH0 DUP2 MLOAD SWAP1 POP SWAP2 SWAP1 POP JUMP JUMPDEST PUSH0 DUP3 DUP3 MSTORE PUSH1 0x20 DUP3 ADD SWAP1 POP SWAP3 SWAP2 POP POP JUMP JUMPDEST DUP3 DUP2 DUP4 MCOPY PUSH0 DUP4 DUP4 ADD MSTORE POP POP POP JUMP JUMPDEST PUSH0 PUSH1 0x1F NOT PUSH1 0x1F DUP4 ADD AND SWAP1 POP SWAP2 SWAP1 POP JUMP JUMPDEST PUSH0 PUSH2 0x1818 DUP3 PUSH2 0x17D6 JUMP JUMPDEST PUSH2 0x1822 DUP2 DUP6 PUSH2 0x17E0 JUMP JUMPDEST SWAP4 POP PUSH2 0x1832 DUP2 DUP6 PUSH1 0x20 DUP7 ADD PUSH2 0x17F0 JUMP JUMPDEST PUSH2 0x183B DUP2 PUSH2 0x17FE JUMP JUMPDEST DUP5 ADD SWAP2 POP POP SWAP3 SWAP2 POP POP JUMP JUMPDEST PUSH0 PUSH1 0x20 DUP3 ADD SWAP1 POP DUP2 DUP2 SUB PUSH0 DUP4 ADD MSTORE PUSH2 0x185E DUP2 DUP5 PUSH2 0x180E JUMP JUMPDEST SWAP1 POP SWAP3 SWAP2 POP POP JUMP JUMPDEST PUSH0 DUP2 SWAP1 POP SWAP2 SWAP1 POP JUMP JUMPDEST PUSH2 0x1878 DUP2 PUSH2 0x1866 JUMP JUMPDEST DUP2 EQ PUSH2 0x1882 JUMPI PUSH0 DUP1 REVERT JUMPDEST POP JUMP JUMPDEST PUSH0 DUP2 CALLDATALOAD SWAP1 POP PUSH2 0x1893 DUP2 PUSH2 0x186F JUMP JUMPDEST SWAP3 SWAP2 POP POP JUMP JUMPDEST PUSH0 PUSH1 0x20 DUP3 DUP5 SUB SLT ISZERO PUSH2 0x18AE JUMPI PUSH2 0x18AD PUSH2 0x171B JUMP JUMPDEST JUMPDEST PUSH0 PUSH2 0x18BB DUP5 DUP3 DUP6 ADD PUSH2 0x1885 JUMP JUMPDEST SWAP2 POP POP SWAP3 SWAP2 POP POP JUMP JUMPDEST PUSH0 PUSH20 0xFFFFFFFFFFFFFFFFFFFFFFFFFFFFFFFFFFFFFFFF DUP3 AND SWAP1 POP SWAP2 SWAP1 POP JUMP JUMPDEST PUSH0 PUSH2 0x18ED DUP3 PUSH2 0x18C4 JUMP JUMPDEST SWAP1 POP SWAP2 SWAP1 POP JUMP JUMPDEST PUSH2 0x18FD DUP2 PUSH2 0x18E3 JUMP JUMPDEST DUP3 MSTORE POP POP JUMP JUMPDEST PUSH0 PUSH1 0x20 DUP3 ADD SWAP1 POP PUSH2 0x1916 PUSH0 DUP4 ADD DUP5 PUSH2 0x18F4 JUMP JUMPDEST SWAP3 SWAP2 POP POP JUMP JUMPDEST PUSH2 0x1925 DUP2 PUSH2 0x18E3 JUMP JUMPDEST DUP2 EQ PUSH2 0x192F JUMPI PUSH0 DUP1 REVERT JUMPDEST POP JUMP JUMPDEST PUSH0 DUP2 CALLDATALOAD SWAP1 POP PUSH2 0x1940 DUP2 PUSH2 0x191C JUMP JUMPDEST SWAP3 SWAP2 POP POP JUMP JUMPDEST PUSH0 DUP1 PUSH1 0x40 DUP4 DUP6 SUB SLT ISZERO PUSH2 0x195C JUMPI PUSH2 0x195B PUSH2 0x171B JUMP JUMPDEST JUMPDEST PUSH0 PUSH2 0x1969 DUP6 DUP3 DUP7 ADD PUSH2 0x1932 JUMP JUMPDEST SWAP3 POP POP PUSH1 0x20 PUSH2 0x197A DUP6 DUP3 DUP7 ADD PUSH2 0x1885 JUMP JUMPDEST SWAP2 POP POP SWAP3 POP SWAP3 SWAP1 POP JUMP JUMPDEST PUSH0 DUP1 PUSH0 PUSH1 0x60 DUP5 DUP7 SUB SLT ISZERO PUSH2 0x199B JUMPI PUSH2 0x199A PUSH2 0x171B JUMP JUMPDEST JUMPDEST PUSH0 PUSH2 0x19A8 DUP7 DUP3 DUP8 ADD PUSH2 0x1932 JUMP JUMPDEST SWAP4 POP POP PUSH1 0x20 PUSH2 0x19B9 DUP7 DUP3 DUP8 ADD PUSH2 0x1932 JUMP JUMPDEST SWAP3 POP POP PUSH1 0x40 PUSH2 0x19CA DUP7 DUP3 DUP8 ADD PUSH2 0x1885 JUMP JUMPDEST SWAP2 POP POP SWAP3 POP SWAP3 POP SWAP3 JUMP JUMPDEST PUSH0 PUSH1 0x20 DUP3 DUP5 SUB SLT ISZERO PUSH2 0x19E9 JUMPI PUSH2 0x19E8 PUSH2 0x171B JUMP JUMPDEST JUMPDEST PUSH0 PUSH2 0x19F6 DUP5 DUP3 DUP6 ADD PUSH2 0x1932 JUMP JUMPDEST SWAP2 POP POP SWAP3 SWAP2 POP POP JUMP JUMPDEST PUSH2 0x1A08 DUP2 PUSH2 0x1866 JUMP JUMPDEST DUP3 MSTORE POP POP JUMP JUMPDEST PUSH0 PUSH1 0x20 DUP3 ADD SWAP1 POP PUSH2 0x1A21 PUSH0 DUP4 ADD DUP5 PUSH2 0x19FF JUMP JUMPDEST SWAP3 SWAP2 POP POP JUMP JUMPDEST PUSH2 0x1A30 DUP2 PUSH2 0x17A3 JUMP JUMPDEST DUP2 EQ PUSH2 0x1A3A JUMPI PUSH0 DUP1 REVERT JUMPDEST POP JUMP JUMPDEST PUSH0 DUP2 CALLDATALOAD SWAP1 POP PUSH2 0x1A4B DUP2 PUSH2 0x1A27 JUMP JUMPDEST SWAP3 SWAP2 POP POP JUMP JUMPDEST PUSH0 DUP1 PUSH1 0x40 DUP4 DUP6 SUB SLT ISZERO PUSH2 0x1A67 JUMPI PUSH2 0x1A66 PUSH2 0x171B JUMP JUMPDEST JUMPDEST PUSH0 PUSH2 0x1A74 DUP6 DUP3 DUP7 ADD PUSH2 0x1932 JUMP JUMPDEST SWAP3 POP POP PUSH1 0x20 PUSH2 0x1A85 DUP6 DUP3 DUP7 ADD PUSH2 0x1A3D JUMP JUMPDEST SWAP2 POP POP SWAP3 POP SWAP3 SWAP1 POP JUMP JUMPDEST PUSH0 DUP1 REVERT JUMPDEST PUSH0 DUP1 REVERT JUMPDEST PUSH32 0x4E487B7100000000000000000000000000000000000000000000000000000000 PUSH0 MSTORE PUSH1 0x41 PUSH1 0x4 MSTORE PUSH1 0x24 PUSH0 REVERT JUMPDEST PUSH2 0x1ACD DUP3 PUSH2 0x17FE JUMP JUMPDEST DUP2 ADD DUP2 DUP2 LT PUSH8 0xFFFFFFFFFFFFFFFF DUP3 GT OR ISZERO PUSH2 0x1AEC JUMPI PUSH2 0x1AEB PUSH2 0x1A97 JUMP JUMPDEST JUMPDEST DUP1 PUSH1 0x40 MSTORE POP POP POP JUMP JUMPDEST PUSH0 PUSH2 0x1AFE PUSH2 0x1712 JUMP JUMPDEST SWAP1 POP PUSH2 0x1B0A DUP3 DUP3 PUSH2 0x1AC4 JUMP JUMPDEST SWAP2 SWAP1 POP JUMP JUMPDEST PUSH0 PUSH8 0xFFFFFFFFFFFFFFFF DUP3 GT ISZERO PUSH2 0x1B29 JUMPI PUSH2 0x1B28 PUSH2 0x1A97 JUMP JUMPDEST JUMPDEST PUSH2 0x1B32 DUP3 PUSH2 0x17FE JUMP JUMPDEST SWAP1 POP PUSH1 0x20 DUP2 ADD SWAP1 POP SWAP2 SWAP1 POP JUMP JUMPDEST DUP3 DUP2 DUP4 CALLDATACOPY PUSH0 DUP4 DUP4 ADD MSTORE POP POP POP JUMP JUMPDEST PUSH0 PUSH2 0x1B5F PUSH2 0x1B5A DUP5 PUSH2 0x1B0F JUMP JUMPDEST PUSH2 0x1AF5 JUMP JUMPDEST SWAP1 POP DUP3 DUP2 MSTORE PUSH1 0x20 DUP2 ADD DUP5 DUP5 DUP5 ADD GT ISZERO PUSH2 0x1B7B JUMPI PUSH2 0x1B7A PUSH2 0x1A93 JUMP JUMPDEST JUMPDEST PUSH2 0x1B86 DUP5 DUP3 DUP6 PUSH2 0x1B3F JUMP JUMPDEST POP SWAP4 SWAP3 POP POP POP JUMP JUMPDEST PUSH0 DUP3 PUSH1 0x1F DUP4 ADD SLT PUSH2 0x1BA2 JUMPI PUSH2 0x1BA1 PUSH2 0x1A8F JUMP JUMPDEST JUMPDEST DUP2 CALLDATALOAD PUSH2 0x1BB2 DUP5 DUP3 PUSH1 0x20 DUP7 ADD PUSH2 0x1B4D JUMP JUMPDEST SWAP2 POP POP SWAP3 SWAP2 POP POP JUMP JUMPDEST PUSH0 DUP1 PUSH0 DUP1 PUSH1 0x80 DUP6 DUP8 SUB SLT ISZERO PUSH2 0x1BD3 JUMPI PUSH2 0x1BD2 PUSH2 0x171B JUMP JUMPDEST JUMPDEST PUSH0 PUSH2 0x1BE0 DUP8 DUP3 DUP9 ADD PUSH2 0x1932 JUMP JUMPDEST SWAP5 POP POP PUSH1 0x20 PUSH2 0x1BF1 DUP8 DUP3 DUP9 ADD PUSH2 0x1932 JUMP JUMPDEST SWAP4 POP POP PUSH1 0x40 PUSH2 0x1C02 DUP8 DUP3 DUP9 ADD PUSH2 0x1885 JUMP JUMPDEST SWAP3 POP POP PUSH1 0x60 DUP6 ADD CALLDATALOAD PUSH8 0xFFFFFFFFFFFFFFFF DUP2 GT ISZERO PUSH2 0x1C23 JUMPI PUSH2 0x1C22 PUSH2 0x171F JUMP JUMPDEST JUMPDEST PUSH2 0x1C2F DUP8 DUP3 DUP9 ADD PUSH2 0x1B8E JUMP JUMPDEST SWAP2 POP POP SWAP3 SWAP6 SWAP2 SWAP5 POP SWAP3 POP JUMP JUMPDEST PUSH0 DUP1 PUSH1 0x40 DUP4 DUP6 SUB SLT ISZERO PUSH2 0x1C51 JUMPI PUSH2 0x1C50 PUSH2 0x171B JUMP JUMPDEST JUMPDEST PUSH0 PUSH2 0x1C5E DUP6 DUP3 DUP7 ADD PUSH2 0x1932 JUMP JUMPDEST SWAP3 POP POP PUSH1 0x20 PUSH2 0x1C6F DUP6 DUP3 DUP7 ADD PUSH2 0x1932 JUMP JUMPDEST SWAP2 POP POP SWAP3 POP SWAP3 SWAP1 POP JUMP JUMPDEST PUSH32 0x4E487B7100000000000000000000000000000000000000000000000000000000 PUSH0 MSTORE PUSH1 0x22 PUSH1 0x4 MSTORE PUSH1 0x24 PUSH0 REVERT JUMPDEST PUSH0 PUSH1 0x2 DUP3 DIV SWAP1 POP PUSH1 0x1 DUP3 AND DUP1 PUSH2 0x1CBD JUMPI PUSH1 0x7F DUP3 AND SWAP2 POP JUMPDEST PUSH1 0x20 DUP3 LT DUP2 SUB PUSH2 0x1CD0 JUMPI PUSH2 0x1CCF PUSH2 0x1C79 JUMP JUMPDEST JUMPDEST POP SWAP2 SWAP1 POP JUMP JUMPDEST PUSH0 PUSH1 0x60 DUP3 ADD SWAP1 POP PUSH2 0x1CE9 PUSH0 DUP4 ADD DUP7 PUSH2 0x18F4 JUMP JUMPDEST PUSH2 0x1CF6 PUSH1 0x20 DUP4 ADD DUP6 PUSH2 0x19FF JUMP JUMPDEST PUSH2 0x1D03 PUSH1 0x40 DUP4 ADD DUP5 PUSH2 0x18F4 JUMP JUMPDEST SWAP5 SWAP4 POP POP POP POP JUMP JUMPDEST PUSH32 0x4E487B7100000000000000000000000000000000000000000000000000000000 PUSH0 MSTORE PUSH1 0x11 PUSH1 0x4 MSTORE PUSH1 0x24 PUSH0 REVERT JUMPDEST PUSH0 PUSH2 0x1D42 DUP3 PUSH2 0x1866 JUMP JUMPDEST SWAP2 POP PUSH32 0xFFFFFFFFFFFFFFFFFFFFFFFFFFFFFFFFFFFFFFFFFFFFFFFFFFFFFFFFFFFFFFFF DUP3 SUB PUSH2 0x1D74 JUMPI PUSH2 0x1D73 PUSH2 0x1D0B JUMP JUMPDEST JUMPDEST PUSH1 0x1 DUP3 ADD SWAP1 POP SWAP2 SWAP1 POP JUMP JUMPDEST PUSH0 DUP2 SWAP1 POP SWAP3 SWAP2 POP POP JUMP JUMPDEST PUSH32 0x7B226E616D65223A220000000000000000000000000000000000000000000000 PUSH0 DUP3 ADD MSTORE POP JUMP JUMPDEST PUSH0 PUSH2 0x1DBD PUSH1 0x9 DUP4 PUSH2 0x1D7F JUMP JUMPDEST SWAP2 POP PUSH2 0x1DC8 DUP3 PUSH2 0x1D89 JUMP JUMPDEST PUSH1 0x9 DUP3 ADD SWAP1 POP SWAP2 SWAP1 POP JUMP JUMPDEST PUSH0 PUSH2 0x1DDD DUP3 PUSH2 0x17D6 JUMP JUMPDEST PUSH2 0x1DE7 DUP2 DUP6 PUSH2 0x1D7F JUMP JUMPDEST SWAP4 POP PUSH2 0x1DF7 DUP2 DUP6 PUSH1 0x20 DUP7 ADD PUSH2 0x17F0 JUMP JUMPDEST DUP1 DUP5 ADD SWAP2 POP POP SWAP3 SWAP2 POP POP JUMP JUMPDEST PUSH32 0x222C20226465736372697074696F6E223A22416E204E46542074686174207265 PUSH0 DUP3 ADD MSTORE PUSH32 0x666C6563747320746865206F776E657273686970206F662067616D65202D2000 PUSH1 0x20 DUP3 ADD MSTORE POP JUMP JUMPDEST PUSH0 PUSH2 0x1E5D PUSH1 0x3F DUP4 PUSH2 0x1D7F JUMP JUMPDEST SWAP2 POP PUSH2 0x1E68 DUP3 PUSH2 0x1E03 JUMP JUMPDEST PUSH1 0x3F DUP3 ADD SWAP1 POP SWAP2 SWAP1 POP JUMP JUMPDEST PUSH32 0x222C200000000000000000000000000000000000000000000000000000000000 PUSH0 DUP3 ADD MSTORE POP JUMP JUMPDEST PUSH0 PUSH2 0x1EA7 PUSH1 0x3 DUP4 PUSH2 0x1D7F JUMP JUMPDEST SWAP2 POP PUSH2 0x1EB2 DUP3 PUSH2 0x1E73 JUMP JUMPDEST PUSH1 0x3 DUP3 ADD SWAP1 POP SWAP2 SWAP1 POP JUMP JUMPDEST PUSH32 0x22696D616765223A220000000000000000000000000000000000000000000000 PUSH0 DUP3 ADD MSTORE POP JUMP JUMPDEST PUSH0 PUSH2 0x1EF1 PUSH1 0x9 DUP4 PUSH2 0x1D7F JUMP JUMPDEST SWAP2 POP PUSH2 0x1EFC DUP3 PUSH2 0x1EBD JUMP JUMPDEST PUSH1 0x9 DUP3 ADD SWAP1 POP SWAP2 SWAP1 POP JUMP JUMPDEST PUSH0 DUP2 SWAP1 POP DUP2 PUSH0 MSTORE PUSH1 0x20 PUSH0 KECCAK256 SWAP1 POP SWAP2 SWAP1 POP JUMP JUMPDEST PUSH0 DUP2 SLOAD PUSH2 0x1F25 DUP2 PUSH2 0x1CA6 JUMP JUMPDEST PUSH2 0x1F2F DUP2 DUP7 PUSH2 0x1D7F JUMP JUMPDEST SWAP5 POP PUSH1 0x1 DUP3 AND PUSH0 DUP2 EQ PUSH2 0x1F49 JUMPI PUSH1 0x1 DUP2 EQ PUSH2 0x1F5E JUMPI PUSH2 0x1F90 JUMP JUMPDEST PUSH1 0xFF NOT DUP4 AND DUP7 MSTORE DUP2 ISZERO ISZERO DUP3 MUL DUP7 ADD SWAP4 POP PUSH2 0x1F90 JUMP JUMPDEST PUSH2 0x1F67 DUP6 PUSH2 0x1F07 JUMP JUMPDEST PUSH0 JUMPDEST DUP4 DUP2 LT ISZERO PUSH2 0x1F88 JUMPI DUP2 SLOAD DUP2 DUP10 ADD MSTORE PUSH1 0x1 DUP3 ADD SWAP2 POP PUSH1 0x20 DUP2 ADD SWAP1 POP PUSH2 0x1F69 JUMP JUMPDEST DUP4 DUP9 ADD SWAP6 POP POP POP JUMPDEST POP POP POP SWAP3 SWAP2 POP POP JUMP JUMPDEST PUSH32 0x227D000000000000000000000000000000000000000000000000000000000000 PUSH0 DUP3 ADD MSTORE POP JUMP JUMPDEST PUSH0 PUSH2 0x1FCD PUSH1 0x2 DUP4 PUSH2 0x1D7F JUMP JUMPDEST SWAP2 POP PUSH2 0x1FD8 DUP3 PUSH2 0x1F99 JUMP JUMPDEST PUSH1 0x2 DUP3 ADD SWAP1 POP SWAP2 SWAP1 POP JUMP JUMPDEST PUSH0 PUSH2 0x1FED DUP3 PUSH2 0x1DB1 JUMP JUMPDEST SWAP2 POP PUSH2 0x1FF9 DUP3 DUP7 PUSH2 0x1DD3 JUMP JUMPDEST SWAP2 POP PUSH2 0x2004 DUP3 PUSH2 0x1E51 JUMP JUMPDEST SWAP2 POP PUSH2 0x2010 DUP3 DUP6 PUSH2 0x1DD3 JUMP JUMPDEST SWAP2 POP PUSH2 0x201B DUP3 PUSH2 0x1E9B JUMP JUMPDEST SWAP2 POP PUSH2 0x2026 DUP3 PUSH2 0x1EE5 JUMP JUMPDEST SWAP2 POP PUSH2 0x2032 DUP3 DUP5 PUSH2 0x1F19 JUMP JUMPDEST SWAP2 POP PUSH2 0x203D DUP3 PUSH2 0x1FC1 JUMP JUMPDEST SWAP2 POP DUP2 SWAP1 POP SWAP5 SWAP4 POP POP POP POP JUMP JUMPDEST PUSH32 0x646174613A6170706C69636174696F6E2F6A736F6E3B6261736536342C000000 PUSH0 DUP3 ADD MSTORE POP JUMP JUMPDEST PUSH0 PUSH2 0x207E PUSH1 0x1D DUP4 PUSH2 0x1D7F JUMP JUMPDEST SWAP2 POP PUSH2 0x2089 DUP3 PUSH2 0x204A JUMP JUMPDEST PUSH1 0x1D DUP3 ADD SWAP1 POP SWAP2 SWAP1 POP JUMP JUMPDEST PUSH0 PUSH2 0x209E DUP3 PUSH2 0x2072 JUMP JUMPDEST SWAP2 POP PUSH2 0x20AA DUP3 DUP5 PUSH2 0x1DD3 JUMP JUMPDEST SWAP2 POP DUP2 SWAP1 POP SWAP3 SWAP2 POP POP JUMP JUMPDEST PUSH0 DUP2 MLOAD SWAP1 POP SWAP2 SWAP1 POP JUMP JUMPDEST PUSH0 DUP3 DUP3 MSTORE PUSH1 0x20 DUP3 ADD SWAP1 POP SWAP3 SWAP2 POP POP JUMP JUMPDEST PUSH0 PUSH2 0x20D9 DUP3 PUSH2 0x20B5 JUMP JUMPDEST PUSH2 0x20E3 DUP2 DUP6 PUSH2 0x20BF JUMP JUMPDEST SWAP4 POP PUSH2 0x20F3 DUP2 DUP6 PUSH1 0x20 DUP7 ADD PUSH2 0x17F0 JUMP JUMPDEST PUSH2 0x20FC DUP2 PUSH2 0x17FE JUMP JUMPDEST DUP5 ADD SWAP2 POP POP SWAP3 SWAP2 POP POP JUMP JUMPDEST PUSH0 PUSH1 0x80 DUP3 ADD SWAP1 POP PUSH2 0x211A PUSH0 DUP4 ADD DUP8 PUSH2 0x18F4 JUMP JUMPDEST PUSH2 0x2127 PUSH1 0x20 DUP4 ADD DUP7 PUSH2 0x18F4 JUMP JUMPDEST PUSH2 0x2134 PUSH1 0x40 DUP4 ADD DUP6 PUSH2 0x19FF JUMP JUMPDEST DUP2 DUP2 SUB PUSH1 0x60 DUP4 ADD MSTORE PUSH2 0x2146 DUP2 DUP5 PUSH2 0x20CF JUMP JUMPDEST SWAP1 POP SWAP6 SWAP5 POP POP POP POP POP JUMP JUMPDEST PUSH0 DUP2 MLOAD SWAP1 POP PUSH2 0x215F DUP2 PUSH2 0x174E JUMP JUMPDEST SWAP3 SWAP2 POP POP JUMP JUMPDEST PUSH0 PUSH1 0x20 DUP3 DUP5 SUB SLT ISZERO PUSH2 0x217A JUMPI PUSH2 0x2179 PUSH2 0x171B JUMP JUMPDEST JUMPDEST PUSH0 PUSH2 0x2187 DUP5 DUP3 DUP6 ADD PUSH2 0x2151 JUMP JUMPDEST SWAP2 POP POP SWAP3 SWAP2 POP POP JUMP JUMPDEST PUSH0 PUSH2 0x219A DUP3 PUSH2 0x1866 JUMP JUMPDEST SWAP2 POP PUSH2 0x21A5 DUP4 PUSH2 0x1866 JUMP JUMPDEST SWAP3 POP DUP3 DUP3 ADD SWAP1 POP DUP1 DUP3 GT ISZERO PUSH2 0x21BD JUMPI PUSH2 0x21BC PUSH2 0x1D0B JUMP JUMPDEST JUMPDEST SWAP3 SWAP2 POP POP JUMP JUMPDEST PUSH32 0x4E487B7100000000000000000000000000000000000000000000000000000000 PUSH0 MSTORE PUSH1 0x12 PUSH1 0x4 MSTORE PUSH1 0x24 PUSH0 REVERT JUMPDEST PUSH0 PUSH2 0x21FA DUP3 PUSH2 0x1866 JUMP JUMPDEST SWAP2 POP PUSH2 0x2205 DUP4 PUSH2 0x1866 JUMP JUMPDEST SWAP3 POP DUP3 PUSH2 0x2215 JUMPI PUSH2 0x2214 PUSH2 0x21C3 JUMP JUMPDEST JUMPDEST DUP3 DUP3 DIV SWAP1 POP SWAP3 SWAP2 POP POP JUMP JUMPDEST PUSH0 PUSH2 0x222A DUP3 PUSH2 0x1866 JUMP JUMPDEST SWAP2 POP PUSH2 0x2235 DUP4 PUSH2 0x1866 JUMP JUMPDEST SWAP3 POP DUP3 DUP3 MUL PUSH2 0x2243 DUP2 PUSH2 0x1866 JUMP JUMPDEST SWAP2 POP DUP3 DUP3 DIV DUP5 EQ DUP4 ISZERO OR PUSH2 0x225A JUMPI PUSH2 0x2259 PUSH2 0x1D0B JUMP JUMPDEST JUMPDEST POP SWAP3 SWAP2 POP POP JUMP JUMPDEST PUSH0 PUSH1 0x40 DUP3 ADD SWAP1 POP PUSH2 0x2274 PUSH0 DUP4 ADD DUP6 PUSH2 0x18F4 JUMP JUMPDEST PUSH2 0x2281 PUSH1 0x20 DUP4 ADD DUP5 PUSH2 0x19FF JUMP JUMPDEST SWAP4 SWAP3 POP POP POP JUMP INVALID COINBASE TIMESTAMP NUMBER PREVRANDAO GASLIMIT CHAINID SELFBALANCE BASEFEE BLOBHASH BLOBBASEFEE 0x4B 0x4C 0x4D 0x4E 0x4F POP MLOAD MSTORE MSTORE8 SLOAD SSTORE JUMP JUMPI PC MSIZE GAS PUSH2 0x6263 PUSH5 0x6566676869 PUSH11 0x6B6C6D6E6F707172737475 PUSH23 0x7778797A303132333435363738392B2FA2646970667358 0x22 SLT KECCAK256 SSTORE DUP13 0x2D 0xC8 SWAP8 0x27 BLOCKHASH PUSH9 0x477EA829F6DA0F481D 0xAC 0x22 JUMPDEST PUSH12 0x93681C7BF01AB595996B8064 PUSH20 0x6F6C63430008190033A2646970667358221220C0 0xAA 0xB6 0xA8 EXP SWAP14 0xC5 CODESIZE 0xA7 PUSH16 0xB0897FF110D1FB0BB803CA72B832AB9E PUSH11 0xD06CA21A564736F6C6343 STOP ADDMOD NOT STOP CALLER "
	},
	"Assembly": ".code\n  PUSH 80\t\t\tcontract GameFactory {\\n    ev...\n  PUSH 40\t\t\tcontract GameFactory {\\n    ev...\n  MSTORE \t\t\tcontract GameFactory {\\n    ev...\n  PUSH 0\t\t\t0\n  PUSH 1\t\t\tuint256 private fee = 0\n  SSTORE \t\t\tuint256 private fee = 0\n  CALLVALUE \t\t\tcontract GameFactory {\\n    ev...\n  DUP1 \t\t\tcontract GameFactory {\\n    ev...\n  ISZERO \t\t\tcontract GameFactory {\\n    ev...\n  PUSH [tag] 1\t\t\tcontract GameFactory {\\n    ev...\n  JUMPI \t\t\tcontract GameFactory {\\n    ev...\n  PUSH 0\t\t\tcontract GameFactory {\\n    ev...\n  DUP1 \t\t\tcontract GameFactory {\\n    ev...\n  REVERT \t\t\tcontract GameFactory {\\n    ev...\ntag 1\t\t\tcontract GameFactory {\\n    ev...\n  JUMPDEST \t\t\tcontract GameFactory {\\n    ev...\n  POP \t\t\tcontract GameFactory {\\n    ev...\n  PUSH #[$] 0000000000000000000000000000000000000000000000000000000000000000\t\t\tcontract GameFactory {\\n    ev...\n  DUP1 \t\t\tcontract GameFactory {\\n    ev...\n  PUSH [$] 0000000000000000000000000000000000000000000000000000000000000000\t\t\tcontract GameFactory {\\n    ev...\n  PUSH 0\t\t\tcontract GameFactory {\\n    ev...\n  CODECOPY \t\t\tcontract GameFactory {\\n    ev...\n  PUSH 0\t\t\tcontract GameFactory {\\n    ev...\n  RETURN \t\t\tcontract GameFactory {\\n    ev...\n.data\n  0:\n    .code\n      PUSH 80\t\t\tcontract GameFactory {\\n    ev...\n      PUSH 40\t\t\tcontract GameFactory {\\n    ev...\n      MSTORE \t\t\tcontract GameFactory {\\n    ev...\n      PUSH 4\t\t\tcontract GameFactory {\\n    ev...\n      CALLDATASIZE \t\t\tcontract GameFactory {\\n    ev...\n      LT \t\t\tcontract GameFactory {\\n    ev...\n      PUSH [tag] 1\t\t\tcontract GameFactory {\\n    ev...\n      JUMPI \t\t\tcontract GameFactory {\\n    ev...\n      PUSH 0\t\t\tcontract GameFactory {\\n    ev...\n      CALLDATALOAD \t\t\tcontract GameFactory {\\n    ev...\n      PUSH E0\t\t\tcontract GameFactory {\\n    ev...\n      SHR \t\t\tcontract GameFactory {\\n    ev...\n      DUP1 \t\t\tcontract GameFactory {\\n    ev...\n      PUSH 8D00FE0B\t\t\tcontract GameFactory {\\n    ev...\n      GT \t\t\tcontract GameFactory {\\n    ev...\n      PUSH [tag] 10\t\t\tcontract GameFactory {\\n    ev...\n      JUMPI \t\t\tcontract GameFactory {\\n    ev...\n      DUP1 \t\t\tcontract GameFactory {\\n    ev...\n      PUSH 8D00FE0B\t\t\tcontract GameFactory {\\n    ev...\n      EQ \t\t\tcontract GameFactory {\\n    ev...\n      PUSH [tag] 6\t\t\tcontract GameFactory {\\n    ev...\n      JUMPI \t\t\tcontract GameFactory {\\n    ev...\n      DUP1 \t\t\tcontract GameFactory {\\n    ev...\n      PUSH C04C5947\t\t\tcontract GameFactory {\\n    ev...\n      EQ \t\t\tcontract GameFactory {\\n    ev...\n      PUSH [tag] 7\t\t\tcontract GameFactory {\\n    ev...\n      JUMPI \t\t\tcontract GameFactory {\\n    ev...\n      DUP1 \t\t\tcontract GameFactory {\\n    ev...\n      PUSH C379CD78\t\t\tcontract GameFactory {\\n    ev...\n      EQ \t\t\tcontract GameFactory {\\n    ev...\n      PUSH [tag] 8\t\t\tcontract GameFactory {\\n    ev...\n      JUMPI \t\t\tcontract GameFactory {\\n    ev...\n      DUP1 \t\t\tcontract GameFactory {\\n    ev...\n      PUSH DBEF6528\t\t\tcontract GameFactory {\\n    ev...\n      EQ \t\t\tcontract GameFactory {\\n    ev...\n      PUSH [tag] 9\t\t\tcontract GameFactory {\\n    ev...\n      JUMPI \t\t\tcontract GameFactory {\\n    ev...\n      PUSH [tag] 1\t\t\tcontract GameFactory {\\n    ev...\n      JUMP \t\t\tcontract GameFactory {\\n    ev...\n    tag 10\t\t\tcontract GameFactory {\\n    ev...\n      JUMPDEST \t\t\tcontract GameFactory {\\n    ev...\n      DUP1 \t\t\tcontract GameFactory {\\n    ev...\n      PUSH 2A60D6CA\t\t\tcontract GameFactory {\\n    ev...\n      EQ \t\t\tcontract GameFactory {\\n    ev...\n      PUSH [tag] 2\t\t\tcontract GameFactory {\\n    ev...\n      JUMPI \t\t\tcontract GameFactory {\\n    ev...\n      DUP1 \t\t\tcontract GameFactory {\\n    ev...\n      PUSH 396130B9\t\t\tcontract GameFactory {\\n    ev...\n      EQ \t\t\tcontract GameFactory {\\n    ev...\n      PUSH [tag] 3\t\t\tcontract GameFactory {\\n    ev...\n      JUMPI \t\t\tcontract GameFactory {\\n    ev...\n      DUP1 \t\t\tcontract GameFactory {\\n    ev...\n      PUSH 7FD6145C\t\t\tcontract GameFactory {\\n    ev...\n      EQ \t\t\tcontract GameFactory {\\n    ev...\n      PUSH [tag] 4\t\t\tcontract GameFactory {\\n    ev...\n      JUMPI \t\t\tcontract GameFactory {\\n    ev...\n      DUP1 \t\t\tcontract GameFactory {\\n    ev...\n      PUSH 8C647194\t\t\tcontract GameFactory {\\n    ev...\n      EQ \t\t\tcontract GameFactory {\\n    ev...\n      PUSH [tag] 5\t\t\tcontract GameFactory {\\n    ev...\n      JUMPI \t\t\tcontract GameFactory {\\n    ev...\n    tag 1\t\t\tcontract GameFactory {\\n    ev...\n      JUMPDEST \t\t\tcontract GameFactory {\\n    ev...\n      PUSH 0\t\t\tcontract GameFactory {\\n    ev...\n      DUP1 \t\t\tcontract GameFactory {\\n    ev...\n      REVERT \t\t\tcontract GameFactory {\\n    ev...\n    tag 2\t\t\tfunction publishGame(\\n       ...\n      JUMPDEST \t\t\tfunction publishGame(\\n       ...\n      CALLVALUE \t\t\tfunction publishGame(\\n       ...\n      DUP1 \t\t\tfunction publishGame(\\n       ...\n      ISZERO \t\t\tfunction publishGame(\\n       ...\n      PUSH [tag] 11\t\t\tfunction publishGame(\\n       ...\n      JUMPI \t\t\tfunction publishGame(\\n       ...\n      PUSH 0\t\t\tfunction publishGame(\\n       ...\n      DUP1 \t\t\tfunction publishGame(\\n       ...\n      REVERT \t\t\tfunction publishGame(\\n       ...\n    tag 11\t\t\tfunction publishGame(\\n       ...\n      JUMPDEST \t\t\tfunction publishGame(\\n       ...\n      POP \t\t\tfunction publishGame(\\n       ...\n      PUSH [tag] 12\t\t\tfunction publishGame(\\n       ...\n      PUSH 4\t\t\tfunction publishGame(\\n       ...\n      DUP1 \t\t\tfunction publishGame(\\n       ...\n      CALLDATASIZE \t\t\tfunction publishGame(\\n       ...\n      SUB \t\t\tfunction publishGame(\\n       ...\n      DUP2 \t\t\tfunction publishGame(\\n       ...\n      ADD \t\t\tfunction publishGame(\\n       ...\n      SWAP1 \t\t\tfunction publishGame(\\n       ...\n      PUSH [tag] 13\t\t\tfunction publishGame(\\n       ...\n      SWAP2 \t\t\tfunction publishGame(\\n       ...\n      SWAP1 \t\t\tfunction publishGame(\\n       ...\n      PUSH [tag] 14\t\t\tfunction publishGame(\\n       ...\n      JUMP \t\t\tfunction publishGame(\\n       ...\n    tag 13\t\t\tfunction publishGame(\\n       ...\n      JUMPDEST \t\t\tfunction publishGame(\\n       ...\n      PUSH [tag] 15\t\t\tfunction publishGame(\\n       ...\n      JUMP \t\t\tfunction publishGame(\\n       ...\n    tag 12\t\t\tfunction publishGame(\\n       ...\n      JUMPDEST \t\t\tfunction publishGame(\\n       ...\n      STOP \t\t\tfunction publishGame(\\n       ...\n    tag 3\t\t\tfunction isGameOwned(string me...\n      JUMPDEST \t\t\tfunction isGameOwned(string me...\n      CALLVALUE \t\t\tfunction isGameOwned(string me...\n      DUP1 \t\t\tfunction isGameOwned(string me...\n      ISZERO \t\t\tfunction isGameOwned(string me...\n      PUSH [tag] 16\t\t\tfunction isGameOwned(string me...\n      JUMPI \t\t\tfunction isGameOwned(string me...\n      PUSH 0\t\t\tfunction isGameOwned(string me...\n      DUP1 \t\t\tfunction isGameOwned(string me...\n      REVERT \t\t\tfunction isGameOwned(string me...\n    tag 16\t\t\tfunction isGameOwned(string me...\n      JUMPDEST \t\t\tfunction isGameOwned(string me...\n      POP \t\t\tfunction isGameOwned(string me...\n      PUSH [tag] 17\t\t\tfunction isGameOwned(string me...\n      PUSH 4\t\t\tfunction isGameOwned(string me...\n      DUP1 \t\t\tfunction isGameOwned(string me...\n      CALLDATASIZE \t\t\tfunction isGameOwned(string me...\n      SUB \t\t\tfunction isGameOwned(string me...\n      DUP2 \t\t\tfunction isGameOwned(string me...\n      ADD \t\t\tfunction isGameOwned(string me...\n      SWAP1 \t\t\tfunction isGameOwned(string me...\n      PUSH [tag] 18\t\t\tfunction isGameOwned(string me...\n      SWAP2 \t\t\tfunction isGameOwned(string me...\n      SWAP1 \t\t\tfunction isGameOwned(string me...\n      PUSH [tag] 19\t\t\tfunction isGameOwned(string me...\n      JUMP \t\t\tfunction isGameOwned(string me...\n    tag 18\t\t\tfunction isGameOwned(string me...\n      JUMPDEST \t\t\tfunction isGameOwned(string me...\n      PUSH [tag] 20\t\t\tfunction isGameOwned(string me...\n      JUMP \t\t\tfunction isGameOwned(string me...\n    tag 17\t\t\tfunction isGameOwned(string me...\n      JUMPDEST \t\t\tfunction isGameOwned(string me...\n      PUSH 40\t\t\tfunction isGameOwned(string me...\n      MLOAD \t\t\tfunction isGameOwned(string me...\n      PUSH [tag] 21\t\t\tfunction isGameOwned(string me...\n      SWAP2 \t\t\tfunction isGameOwned(string me...\n      SWAP1 \t\t\tfunction isGameOwned(string me...\n      PUSH [tag] 22\t\t\tfunction isGameOwned(string me...\n      JUMP \t\t\tfunction isGameOwned(string me...\n    tag 21\t\t\tfunction isGameOwned(string me...\n      JUMPDEST \t\t\tfunction isGameOwned(string me...\n      PUSH 40\t\t\tfunction isGameOwned(string me...\n      MLOAD \t\t\tfunction isGameOwned(string me...\n      DUP1 \t\t\tfunction isGameOwned(string me...\n      SWAP2 \t\t\tfunction isGameOwned(string me...\n      SUB \t\t\tfunction isGameOwned(string me...\n      SWAP1 \t\t\tfunction isGameOwned(string me...\n      RETURN \t\t\tfunction isGameOwned(string me...\n    tag 4\t\t\tfunction getGameByCid(string m...\n      JUMPDEST \t\t\tfunction getGameByCid(string m...\n      CALLVALUE \t\t\tfunction getGameByCid(string m...\n      DUP1 \t\t\tfunction getGameByCid(string m...\n      ISZERO \t\t\tfunction getGameByCid(string m...\n      PUSH [tag] 23\t\t\tfunction getGameByCid(string m...\n      JUMPI \t\t\tfunction getGameByCid(string m...\n      PUSH 0\t\t\tfunction getGameByCid(string m...\n      DUP1 \t\t\tfunction getGameByCid(string m...\n      REVERT \t\t\tfunction getGameByCid(string m...\n    tag 23\t\t\tfunction getGameByCid(string m...\n      JUMPDEST \t\t\tfunction getGameByCid(string m...\n      POP \t\t\tfunction getGameByCid(string m...\n      PUSH [tag] 24\t\t\tfunction getGameByCid(string m...\n      PUSH 4\t\t\tfunction getGameByCid(string m...\n      DUP1 \t\t\tfunction getGameByCid(string m...\n      CALLDATASIZE \t\t\tfunction getGameByCid(string m...\n      SUB \t\t\tfunction getGameByCid(string m...\n      DUP2 \t\t\tfunction getGameByCid(string m...\n      ADD \t\t\tfunction getGameByCid(string m...\n      SWAP1 \t\t\tfunction getGameByCid(string m...\n      PUSH [tag] 25\t\t\tfunction getGameByCid(string m...\n      SWAP2 \t\t\tfunction getGameByCid(string m...\n      SWAP1 \t\t\tfunction getGameByCid(string m...\n      PUSH [tag] 19\t\t\tfunction getGameByCid(string m...\n      JUMP \t\t\tfunction getGameByCid(string m...\n    tag 25\t\t\tfunction getGameByCid(string m...\n      JUMPDEST \t\t\tfunction getGameByCid(string m...\n      PUSH [tag] 26\t\t\tfunction getGameByCid(string m...\n      JUMP \t\t\tfunction getGameByCid(string m...\n    tag 24\t\t\tfunction getGameByCid(string m...\n      JUMPDEST \t\t\tfunction getGameByCid(string m...\n      PUSH 40\t\t\tfunction getGameByCid(string m...\n      MLOAD \t\t\tfunction getGameByCid(string m...\n      PUSH [tag] 27\t\t\tfunction getGameByCid(string m...\n      SWAP2 \t\t\tfunction getGameByCid(string m...\n      SWAP1 \t\t\tfunction getGameByCid(string m...\n      PUSH [tag] 28\t\t\tfunction getGameByCid(string m...\n      JUMP \t\t\tfunction getGameByCid(string m...\n    tag 27\t\t\tfunction getGameByCid(string m...\n      JUMPDEST \t\t\tfunction getGameByCid(string m...\n      PUSH 40\t\t\tfunction getGameByCid(string m...\n      MLOAD \t\t\tfunction getGameByCid(string m...\n      DUP1 \t\t\tfunction getGameByCid(string m...\n      SWAP2 \t\t\tfunction getGameByCid(string m...\n      SUB \t\t\tfunction getGameByCid(string m...\n      SWAP1 \t\t\tfunction getGameByCid(string m...\n      RETURN \t\t\tfunction getGameByCid(string m...\n    tag 5\t\t\tfunction getTokenAddressByCid(...\n      JUMPDEST \t\t\tfunction getTokenAddressByCid(...\n      CALLVALUE \t\t\tfunction getTokenAddressByCid(...\n      DUP1 \t\t\tfunction getTokenAddressByCid(...\n      ISZERO \t\t\tfunction getTokenAddressByCid(...\n      PUSH [tag] 29\t\t\tfunction getTokenAddressByCid(...\n      JUMPI \t\t\tfunction getTokenAddressByCid(...\n      PUSH 0\t\t\tfunction getTokenAddressByCid(...\n      DUP1 \t\t\tfunction getTokenAddressByCid(...\n      REVERT \t\t\tfunction getTokenAddressByCid(...\n    tag 29\t\t\tfunction getTokenAddressByCid(...\n      JUMPDEST \t\t\tfunction getTokenAddressByCid(...\n      POP \t\t\tfunction getTokenAddressByCid(...\n      PUSH [tag] 30\t\t\tfunction getTokenAddressByCid(...\n      PUSH 4\t\t\tfunction getTokenAddressByCid(...\n      DUP1 \t\t\tfunction getTokenAddressByCid(...\n      CALLDATASIZE \t\t\tfunction getTokenAddressByCid(...\n      SUB \t\t\tfunction getTokenAddressByCid(...\n      DUP2 \t\t\tfunction getTokenAddressByCid(...\n      ADD \t\t\tfunction getTokenAddressByCid(...\n      SWAP1 \t\t\tfunction getTokenAddressByCid(...\n      PUSH [tag] 31\t\t\tfunction getTokenAddressByCid(...\n      SWAP2 \t\t\tfunction getTokenAddressByCid(...\n      SWAP1 \t\t\tfunction getTokenAddressByCid(...\n      PUSH [tag] 19\t\t\tfunction getTokenAddressByCid(...\n      JUMP \t\t\tfunction getTokenAddressByCid(...\n    tag 31\t\t\tfunction getTokenAddressByCid(...\n      JUMPDEST \t\t\tfunction getTokenAddressByCid(...\n      PUSH [tag] 32\t\t\tfunction getTokenAddressByCid(...\n      JUMP \t\t\tfunction getTokenAddressByCid(...\n    tag 30\t\t\tfunction getTokenAddressByCid(...\n      JUMPDEST \t\t\tfunction getTokenAddressByCid(...\n      PUSH 40\t\t\tfunction getTokenAddressByCid(...\n      MLOAD \t\t\tfunction getTokenAddressByCid(...\n      PUSH [tag] 33\t\t\tfunction getTokenAddressByCid(...\n      SWAP2 \t\t\tfunction getTokenAddressByCid(...\n      SWAP1 \t\t\tfunction getTokenAddressByCid(...\n      PUSH [tag] 34\t\t\tfunction getTokenAddressByCid(...\n      JUMP \t\t\tfunction getTokenAddressByCid(...\n    tag 33\t\t\tfunction getTokenAddressByCid(...\n      JUMPDEST \t\t\tfunction getTokenAddressByCid(...\n      PUSH 40\t\t\tfunction getTokenAddressByCid(...\n      MLOAD \t\t\tfunction getTokenAddressByCid(...\n      DUP1 \t\t\tfunction getTokenAddressByCid(...\n      SWAP2 \t\t\tfunction getTokenAddressByCid(...\n      SUB \t\t\tfunction getTokenAddressByCid(...\n      SWAP1 \t\t\tfunction getTokenAddressByCid(...\n      RETURN \t\t\tfunction getTokenAddressByCid(...\n    tag 6\t\t\tfunction withdrawCreatorFunds(...\n      JUMPDEST \t\t\tfunction withdrawCreatorFunds(...\n      CALLVALUE \t\t\tfunction withdrawCreatorFunds(...\n      DUP1 \t\t\tfunction withdrawCreatorFunds(...\n      ISZERO \t\t\tfunction withdrawCreatorFunds(...\n      PUSH [tag] 35\t\t\tfunction withdrawCreatorFunds(...\n      JUMPI \t\t\tfunction withdrawCreatorFunds(...\n      PUSH 0\t\t\tfunction withdrawCreatorFunds(...\n      DUP1 \t\t\tfunction withdrawCreatorFunds(...\n      REVERT \t\t\tfunction withdrawCreatorFunds(...\n    tag 35\t\t\tfunction withdrawCreatorFunds(...\n      JUMPDEST \t\t\tfunction withdrawCreatorFunds(...\n      POP \t\t\tfunction withdrawCreatorFunds(...\n      PUSH [tag] 36\t\t\tfunction withdrawCreatorFunds(...\n      PUSH [tag] 37\t\t\tfunction withdrawCreatorFunds(...\n      JUMP \t\t\tfunction withdrawCreatorFunds(...\n    tag 36\t\t\tfunction withdrawCreatorFunds(...\n      JUMPDEST \t\t\tfunction withdrawCreatorFunds(...\n      STOP \t\t\tfunction withdrawCreatorFunds(...\n    tag 7\t\t\tfunction getGames() external v...\n      JUMPDEST \t\t\tfunction getGames() external v...\n      CALLVALUE \t\t\tfunction getGames() external v...\n      DUP1 \t\t\tfunction getGames() external v...\n      ISZERO \t\t\tfunction getGames() external v...\n      PUSH [tag] 38\t\t\tfunction getGames() external v...\n      JUMPI \t\t\tfunction getGames() external v...\n      PUSH 0\t\t\tfunction getGames() external v...\n      DUP1 \t\t\tfunction getGames() external v...\n      REVERT \t\t\tfunction getGames() external v...\n    tag 38\t\t\tfunction getGames() external v...\n      JUMPDEST \t\t\tfunction getGames() external v...\n      POP \t\t\tfunction getGames() external v...\n      PUSH [tag] 39\t\t\tfunction getGames() external v...\n      PUSH [tag] 40\t\t\tfunction getGames() external v...\n      JUMP \t\t\tfunction getGames() external v...\n    tag 39\t\t\tfunction getGames() external v...\n      JUMPDEST \t\t\tfunction getGames() external v...\n      PUSH 40\t\t\tfunction getGames() external v...\n      MLOAD \t\t\tfunction getGames() external v...\n      PUSH [tag] 41\t\t\tfunction getGames() external v...\n      SWAP2 \t\t\tfunction getGames() external v...\n      SWAP1 \t\t\tfunction getGames() external v...\n      PUSH [tag] 42\t\t\tfunction getGames() external v...\n      JUMP \t\t\tfunction getGames() external v...\n    tag 41\t\t\tfunction getGames() external v...\n      JUMPDEST \t\t\tfunction getGames() external v...\n      PUSH 40\t\t\tfunction getGames() external v...\n      MLOAD \t\t\tfunction getGames() external v...\n      DUP1 \t\t\tfunction getGames() external v...\n      SWAP2 \t\t\tfunction getGames() external v...\n      SUB \t\t\tfunction getGames() external v...\n      SWAP1 \t\t\tfunction getGames() external v...\n      RETURN \t\t\tfunction getGames() external v...\n    tag 8\t\t\tfunction getGameListLength() e...\n      JUMPDEST \t\t\tfunction getGameListLength() e...\n      CALLVALUE \t\t\tfunction getGameListLength() e...\n      DUP1 \t\t\tfunction getGameListLength() e...\n      ISZERO \t\t\tfunction getGameListLength() e...\n      PUSH [tag] 43\t\t\tfunction getGameListLength() e...\n      JUMPI \t\t\tfunction getGameListLength() e...\n      PUSH 0\t\t\tfunction getGameListLength() e...\n      DUP1 \t\t\tfunction getGameListLength() e...\n      REVERT \t\t\tfunction getGameListLength() e...\n    tag 43\t\t\tfunction getGameListLength() e...\n      JUMPDEST \t\t\tfunction getGameListLength() e...\n      POP \t\t\tfunction getGameListLength() e...\n      PUSH [tag] 44\t\t\tfunction getGameListLength() e...\n      PUSH [tag] 45\t\t\tfunction getGameListLength() e...\n      JUMP \t\t\tfunction getGameListLength() e...\n    tag 44\t\t\tfunction getGameListLength() e...\n      JUMPDEST \t\t\tfunction getGameListLength() e...\n      PUSH 40\t\t\tfunction getGameListLength() e...\n      MLOAD \t\t\tfunction getGameListLength() e...\n      PUSH [tag] 46\t\t\tfunction getGameListLength() e...\n      SWAP2 \t\t\tfunction getGameListLength() e...\n      SWAP1 \t\t\tfunction getGameListLength() e...\n      PUSH [tag] 47\t\t\tfunction getGameListLength() e...\n      JUMP \t\t\tfunction getGameListLength() e...\n    tag 46\t\t\tfunction getGameListLength() e...\n      JUMPDEST \t\t\tfunction getGameListLength() e...\n      PUSH 40\t\t\tfunction getGameListLength() e...\n      MLOAD \t\t\tfunction getGameListLength() e...\n      DUP1 \t\t\tfunction getGameListLength() e...\n      SWAP2 \t\t\tfunction getGameListLength() e...\n      SUB \t\t\tfunction getGameListLength() e...\n      SWAP1 \t\t\tfunction getGameListLength() e...\n      RETURN \t\t\tfunction getGameListLength() e...\n    tag 9\t\t\tfunction buyGame(string memory...\n      JUMPDEST \t\t\tfunction buyGame(string memory...\n      PUSH [tag] 48\t\t\tfunction buyGame(string memory...\n      PUSH 4\t\t\tfunction buyGame(string memory...\n      DUP1 \t\t\tfunction buyGame(string memory...\n      CALLDATASIZE \t\t\tfunction buyGame(string memory...\n      SUB \t\t\tfunction buyGame(string memory...\n      DUP2 \t\t\tfunction buyGame(string memory...\n      ADD \t\t\tfunction buyGame(string memory...\n      SWAP1 \t\t\tfunction buyGame(string memory...\n      PUSH [tag] 49\t\t\tfunction buyGame(string memory...\n      SWAP2 \t\t\tfunction buyGame(string memory...\n      SWAP1 \t\t\tfunction buyGame(string memory...\n      PUSH [tag] 19\t\t\tfunction buyGame(string memory...\n      JUMP \t\t\tfunction buyGame(string memory...\n    tag 49\t\t\tfunction buyGame(string memory...\n      JUMPDEST \t\t\tfunction buyGame(string memory...\n      PUSH [tag] 50\t\t\tfunction buyGame(string memory...\n      JUMP \t\t\tfunction buyGame(string memory...\n    tag 48\t\t\tfunction buyGame(string memory...\n      JUMPDEST \t\t\tfunction buyGame(string memory...\n      STOP \t\t\tfunction buyGame(string memory...\n    tag 15\t\t\tfunction publishGame(\\n       ...\n      JUMPDEST \t\t\tfunction publishGame(\\n       ...\n      PUSH 0\t\t\t0\n      PUSH FFFFFFFFFFFFFFFFFFFFFFFFFFFFFFFFFFFFFFFF\t\t\tgames[_cid].creator != address...\n      AND \t\t\tgames[_cid].creator != address...\n      PUSH 2\t\t\tgames\n      DUP7 \t\t\t_cid\n      PUSH 40\t\t\tgames[_cid]\n      MLOAD \t\t\tgames[_cid]\n      PUSH [tag] 52\t\t\tgames[_cid]\n      SWAP2 \t\t\tgames[_cid]\n      SWAP1 \t\t\tgames[_cid]\n      PUSH [tag] 53\t\t\tgames[_cid]\n      JUMP \t\t\tgames[_cid]\n    tag 52\t\t\tgames[_cid]\n      JUMPDEST \t\t\tgames[_cid]\n      SWAP1 \t\t\tgames[_cid]\n      DUP2 \t\t\tgames[_cid]\n      MSTORE \t\t\tgames[_cid]\n      PUSH 20\t\t\tgames[_cid]\n      ADD \t\t\tgames[_cid]\n      PUSH 40\t\t\tgames[_cid]\n      MLOAD \t\t\tgames[_cid]\n      DUP1 \t\t\tgames[_cid]\n      SWAP2 \t\t\tgames[_cid]\n      SUB \t\t\tgames[_cid]\n      SWAP1 \t\t\tgames[_cid]\n      KECCAK256 \t\t\tgames[_cid]\n      PUSH 0\t\t\tgames[_cid].creator\n      ADD \t\t\tgames[_cid].creator\n      PUSH 0\t\t\tgames[_cid].creator\n      SWAP1 \t\t\tgames[_cid].creator\n      SLOAD \t\t\tgames[_cid].creator\n      SWAP1 \t\t\tgames[_cid].creator\n      PUSH 100\t\t\tgames[_cid].creator\n      EXP \t\t\tgames[_cid].creator\n      SWAP1 \t\t\tgames[_cid].creator\n      DIV \t\t\tgames[_cid].creator\n      PUSH FFFFFFFFFFFFFFFFFFFFFFFFFFFFFFFFFFFFFFFF\t\t\tgames[_cid].creator\n      AND \t\t\tgames[_cid].creator\n      PUSH FFFFFFFFFFFFFFFFFFFFFFFFFFFFFFFFFFFFFFFF\t\t\tgames[_cid].creator != address...\n      AND \t\t\tgames[_cid].creator != address...\n      EQ \t\t\tgames[_cid].creator != address...\n      PUSH [tag] 54\t\t\tif (games[_cid].creator != add...\n      JUMPI \t\t\tif (games[_cid].creator != add...\n      PUSH 40\t\t\tGameAlreadyPublished()\n      MLOAD \t\t\tGameAlreadyPublished()\n      PUSH 5F4BE31C00000000000000000000000000000000000000000000000000000000\t\t\tGameAlreadyPublished()\n      DUP2 \t\t\tGameAlreadyPublished()\n      MSTORE \t\t\tGameAlreadyPublished()\n      PUSH 4\t\t\tGameAlreadyPublished()\n      ADD \t\t\tGameAlreadyPublished()\n      PUSH 40\t\t\tGameAlreadyPublished()\n      MLOAD \t\t\tGameAlreadyPublished()\n      DUP1 \t\t\tGameAlreadyPublished()\n      SWAP2 \t\t\tGameAlreadyPublished()\n      SUB \t\t\tGameAlreadyPublished()\n      SWAP1 \t\t\tGameAlreadyPublished()\n      REVERT \t\t\tGameAlreadyPublished()\n    tag 54\t\t\tif (games[_cid].creator != add...\n      JUMPDEST \t\t\tif (games[_cid].creator != add...\n      PUSH 0\t\t\tGameToken gameToken\n      DUP5 \t\t\t_name\n      DUP5 \t\t\t_symbol\n      DUP4 \t\t\t_imageUrl\n      PUSH 40\t\t\tnew GameToken(_name, _symbol, ...\n      MLOAD \t\t\tnew GameToken(_name, _symbol, ...\n      PUSH [tag] 55\t\t\tnew GameToken(_name, _symbol, ...\n      SWAP1 \t\t\tnew GameToken(_name, _symbol, ...\n      PUSH [tag] 56\t\t\tnew GameToken(_name, _symbol, ...\n      JUMP \t\t\tnew GameToken(_name, _symbol, ...\n    tag 55\t\t\tnew GameToken(_name, _symbol, ...\n      JUMPDEST \t\t\tnew GameToken(_name, _symbol, ...\n      PUSH [tag] 57\t\t\tnew GameToken(_name, _symbol, ...\n      SWAP4 \t\t\tnew GameToken(_name, _symbol, ...\n      SWAP3 \t\t\tnew GameToken(_name, _symbol, ...\n      SWAP2 \t\t\tnew GameToken(_name, _symbol, ...\n      SWAP1 \t\t\tnew GameToken(_name, _symbol, ...\n      PUSH [tag] 58\t\t\tnew GameToken(_name, _symbol, ...\n      JUMP \t\t\tnew GameToken(_name, _symbol, ...\n    tag 57\t\t\tnew GameToken(_name, _symbol, ...\n      JUMPDEST \t\t\tnew GameToken(_name, _symbol, ...\n      PUSH 40\t\t\tnew GameToken(_name, _symbol, ...\n      MLOAD \t\t\tnew GameToken(_name, _symbol, ...\n      DUP1 \t\t\tnew GameToken(_name, _symbol, ...\n      SWAP2 \t\t\tnew GameToken(_name, _symbol, ...\n      SUB \t\t\tnew GameToken(_name, _symbol, ...\n      SWAP1 \t\t\tnew GameToken(_name, _symbol, ...\n      PUSH 0\t\t\tnew GameToken(_name, _symbol, ...\n      CREATE \t\t\tnew GameToken(_name, _symbol, ...\n      DUP1 \t\t\tnew GameToken(_name, _symbol, ...\n      ISZERO \t\t\tnew GameToken(_name, _symbol, ...\n      DUP1 \t\t\tnew GameToken(_name, _symbol, ...\n      ISZERO \t\t\tnew GameToken(_name, _symbol, ...\n      PUSH [tag] 59\t\t\tnew GameToken(_name, _symbol, ...\n      JUMPI \t\t\tnew GameToken(_name, _symbol, ...\n      RETURNDATASIZE \t\t\tnew GameToken(_name, _symbol, ...\n      PUSH 0\t\t\tnew GameToken(_name, _symbol, ...\n      DUP1 \t\t\tnew GameToken(_name, _symbol, ...\n      RETURNDATACOPY \t\t\tnew GameToken(_name, _symbol, ...\n      RETURNDATASIZE \t\t\tnew GameToken(_name, _symbol, ...\n      PUSH 0\t\t\tnew GameToken(_name, _symbol, ...\n      REVERT \t\t\tnew GameToken(_name, _symbol, ...\n    tag 59\t\t\tnew GameToken(_name, _symbol, ...\n      JUMPDEST \t\t\tnew GameToken(_name, _symbol, ...\n      POP \t\t\tnew GameToken(_name, _symbol, ...\n      SWAP1 \t\t\tGameToken gameToken = new Game...\n      POP \t\t\tGameToken gameToken = new Game...\n      DUP1 \t\t\tgameToken\n      PUSH FFFFFFFFFFFFFFFFFFFFFFFFFFFFFFFFFFFFFFFF\t\t\tgameToken.mint\n      AND \t\t\tgameToken.mint\n      PUSH 6A627842\t\t\tgameToken.mint\n      CALLER \t\t\tmsg.sender\n      PUSH 40\t\t\tgameToken.mint(msg.sender)\n      MLOAD \t\t\tgameToken.mint(msg.sender)\n      DUP3 \t\t\tgameToken.mint(msg.sender)\n      PUSH FFFFFFFF\t\t\tgameToken.mint(msg.sender)\n      AND \t\t\tgameToken.mint(msg.sender)\n      PUSH E0\t\t\tgameToken.mint(msg.sender)\n      SHL \t\t\tgameToken.mint(msg.sender)\n      DUP2 \t\t\tgameToken.mint(msg.sender)\n      MSTORE \t\t\tgameToken.mint(msg.sender)\n      PUSH 4\t\t\tgameToken.mint(msg.sender)\n      ADD \t\t\tgameToken.mint(msg.sender)\n      PUSH [tag] 60\t\t\tgameToken.mint(msg.sender)\n      SWAP2 \t\t\tgameToken.mint(msg.sender)\n      SWAP1 \t\t\tgameToken.mint(msg.sender)\n      PUSH [tag] 34\t\t\tgameToken.mint(msg.sender)\n      JUMP \t\t\tgameToken.mint(msg.sender)\n    tag 60\t\t\tgameToken.mint(msg.sender)\n      JUMPDEST \t\t\tgameToken.mint(msg.sender)\n      PUSH 0\t\t\tgameToken.mint(msg.sender)\n      PUSH 40\t\t\tgameToken.mint(msg.sender)\n      MLOAD \t\t\tgameToken.mint(msg.sender)\n      DUP1 \t\t\tgameToken.mint(msg.sender)\n      DUP4 \t\t\tgameToken.mint(msg.sender)\n      SUB \t\t\tgameToken.mint(msg.sender)\n      DUP2 \t\t\tgameToken.mint(msg.sender)\n      PUSH 0\t\t\tgameToken.mint(msg.sender)\n      DUP8 \t\t\tgameToken.mint(msg.sender)\n      DUP1 \t\t\tgameToken.mint(msg.sender)\n      EXTCODESIZE \t\t\tgameToken.mint(msg.sender)\n      ISZERO \t\t\tgameToken.mint(msg.sender)\n      DUP1 \t\t\tgameToken.mint(msg.sender)\n      ISZERO \t\t\tgameToken.mint(msg.sender)\n      PUSH [tag] 61\t\t\tgameToken.mint(msg.sender)\n      JUMPI \t\t\tgameToken.mint(msg.sender)\n      PUSH 0\t\t\tgameToken.mint(msg.sender)\n      DUP1 \t\t\tgameToken.mint(msg.sender)\n      REVERT \t\t\tgameToken.mint(msg.sender)\n    tag 61\t\t\tgameToken.mint(msg.sender)\n      JUMPDEST \t\t\tgameToken.mint(msg.sender)\n      POP \t\t\tgameToken.mint(msg.sender)\n      GAS \t\t\tgameToken.mint(msg.sender)\n      CALL \t\t\tgameToken.mint(msg.sender)\n      ISZERO \t\t\tgameToken.mint(msg.sender)\n      DUP1 \t\t\tgameToken.mint(msg.sender)\n      ISZERO \t\t\tgameToken.mint(msg.sender)\n      PUSH [tag] 63\t\t\tgameToken.mint(msg.sender)\n      JUMPI \t\t\tgameToken.mint(msg.sender)\n      RETURNDATASIZE \t\t\tgameToken.mint(msg.sender)\n      PUSH 0\t\t\tgameToken.mint(msg.sender)\n      DUP1 \t\t\tgameToken.mint(msg.sender)\n      RETURNDATACOPY \t\t\tgameToken.mint(msg.sender)\n      RETURNDATASIZE \t\t\tgameToken.mint(msg.sender)\n      PUSH 0\t\t\tgameToken.mint(msg.sender)\n      REVERT \t\t\tgameToken.mint(msg.sender)\n    tag 63\t\t\tgameToken.mint(msg.sender)\n      JUMPDEST \t\t\tgameToken.mint(msg.sender)\n      POP \t\t\tgameToken.mint(msg.sender)\n      POP \t\t\tgameToken.mint(msg.sender)\n      POP \t\t\tgameToken.mint(msg.sender)\n      POP \t\t\tgameToken.mint(msg.sender)\n      PUSH 40\t\t\tGame(\\n            msg.sender,...\n      MLOAD \t\t\tGame(\\n            msg.sender,...\n      DUP1 \t\t\tGame(\\n            msg.sender,...\n      PUSH C0\t\t\tGame(\\n            msg.sender,...\n      ADD \t\t\tGame(\\n            msg.sender,...\n      PUSH 40\t\t\tGame(\\n            msg.sender,...\n      MSTORE \t\t\tGame(\\n            msg.sender,...\n      DUP1 \t\t\tGame(\\n            msg.sender,...\n      CALLER \t\t\tmsg.sender\n      PUSH FFFFFFFFFFFFFFFFFFFFFFFFFFFFFFFFFFFFFFFF\t\t\tGame(\\n            msg.sender,...\n      AND \t\t\tGame(\\n            msg.sender,...\n      DUP2 \t\t\tGame(\\n            msg.sender,...\n      MSTORE \t\t\tGame(\\n            msg.sender,...\n      PUSH 20\t\t\tGame(\\n            msg.sender,...\n      ADD \t\t\tGame(\\n            msg.sender,...\n      DUP8 \t\t\t_cid\n      DUP2 \t\t\tGame(\\n            msg.sender,...\n      MSTORE \t\t\tGame(\\n            msg.sender,...\n      PUSH 20\t\t\tGame(\\n            msg.sender,...\n      ADD \t\t\tGame(\\n            msg.sender,...\n      DUP3 \t\t\tgameToken\n      PUSH FFFFFFFFFFFFFFFFFFFFFFFFFFFFFFFFFFFFFFFF\t\t\tGame(\\n            msg.sender,...\n      AND \t\t\tGame(\\n            msg.sender,...\n      DUP2 \t\t\tGame(\\n            msg.sender,...\n      MSTORE \t\t\tGame(\\n            msg.sender,...\n      PUSH 20\t\t\tGame(\\n            msg.sender,...\n      ADD \t\t\tGame(\\n            msg.sender,...\n      DUP7 \t\t\t_name\n      DUP2 \t\t\tGame(\\n            msg.sender,...\n      MSTORE \t\t\tGame(\\n            msg.sender,...\n      PUSH 20\t\t\tGame(\\n            msg.sender,...\n      ADD \t\t\tGame(\\n            msg.sender,...\n      DUP5 \t\t\tprice\n      DUP2 \t\t\tGame(\\n            msg.sender,...\n      MSTORE \t\t\tGame(\\n            msg.sender,...\n      PUSH 20\t\t\tGame(\\n            msg.sender,...\n      ADD \t\t\tGame(\\n            msg.sender,...\n      DUP4 \t\t\t_imageUrl\n      DUP2 \t\t\tGame(\\n            msg.sender,...\n      MSTORE \t\t\tGame(\\n            msg.sender,...\n      POP \t\t\tGame(\\n            msg.sender,...\n      PUSH 2\t\t\tgames\n      DUP8 \t\t\t_cid\n      PUSH 40\t\t\tgames[_cid]\n      MLOAD \t\t\tgames[_cid]\n      PUSH [tag] 64\t\t\tgames[_cid]\n      SWAP2 \t\t\tgames[_cid]\n      SWAP1 \t\t\tgames[_cid]\n      PUSH [tag] 53\t\t\tgames[_cid]\n      JUMP \t\t\tgames[_cid]\n    tag 64\t\t\tgames[_cid]\n      JUMPDEST \t\t\tgames[_cid]\n      SWAP1 \t\t\tgames[_cid]\n      DUP2 \t\t\tgames[_cid]\n      MSTORE \t\t\tgames[_cid]\n      PUSH 20\t\t\tgames[_cid]\n      ADD \t\t\tgames[_cid]\n      PUSH 40\t\t\tgames[_cid]\n      MLOAD \t\t\tgames[_cid]\n      DUP1 \t\t\tgames[_cid]\n      SWAP2 \t\t\tgames[_cid]\n      SUB \t\t\tgames[_cid]\n      SWAP1 \t\t\tgames[_cid]\n      KECCAK256 \t\t\tgames[_cid]\n      PUSH 0\t\t\tgames[_cid] = Game(\\n         ...\n      DUP3 \t\t\tgames[_cid] = Game(\\n         ...\n      ADD \t\t\tgames[_cid] = Game(\\n         ...\n      MLOAD \t\t\tgames[_cid] = Game(\\n         ...\n      DUP2 \t\t\tgames[_cid] = Game(\\n         ...\n      PUSH 0\t\t\tgames[_cid] = Game(\\n         ...\n      ADD \t\t\tgames[_cid] = Game(\\n         ...\n      PUSH 0\t\t\tgames[_cid] = Game(\\n         ...\n      PUSH 100\t\t\tgames[_cid] = Game(\\n         ...\n      EXP \t\t\tgames[_cid] = Game(\\n         ...\n      DUP2 \t\t\tgames[_cid] = Game(\\n         ...\n      SLOAD \t\t\tgames[_cid] = Game(\\n         ...\n      DUP2 \t\t\tgames[_cid] = Game(\\n         ...\n      PUSH FFFFFFFFFFFFFFFFFFFFFFFFFFFFFFFFFFFFFFFF\t\t\tgames[_cid] = Game(\\n         ...\n      MUL \t\t\tgames[_cid] = Game(\\n         ...\n      NOT \t\t\tgames[_cid] = Game(\\n         ...\n      AND \t\t\tgames[_cid] = Game(\\n         ...\n      SWAP1 \t\t\tgames[_cid] = Game(\\n         ...\n      DUP4 \t\t\tgames[_cid] = Game(\\n         ...\n      PUSH FFFFFFFFFFFFFFFFFFFFFFFFFFFFFFFFFFFFFFFF\t\t\tgames[_cid] = Game(\\n         ...\n      AND \t\t\tgames[_cid] = Game(\\n         ...\n      MUL \t\t\tgames[_cid] = Game(\\n         ...\n      OR \t\t\tgames[_cid] = Game(\\n         ...\n      SWAP1 \t\t\tgames[_cid] = Game(\\n         ...\n      SSTORE \t\t\tgames[_cid] = Game(\\n         ...\n      POP \t\t\tgames[_cid] = Game(\\n         ...\n      PUSH 20\t\t\tgames[_cid] = Game(\\n         ...\n      DUP3 \t\t\tgames[_cid] = Game(\\n         ...\n      ADD \t\t\tgames[_cid] = Game(\\n         ...\n      MLOAD \t\t\tgames[_cid] = Game(\\n         ...\n      DUP2 \t\t\tgames[_cid] = Game(\\n         ...\n      PUSH 1\t\t\tgames[_cid] = Game(\\n         ...\n      ADD \t\t\tgames[_cid] = Game(\\n         ...\n      SWAP1 \t\t\tgames[_cid] = Game(\\n         ...\n      DUP2 \t\t\tgames[_cid] = Game(\\n         ...\n      PUSH [tag] 65\t\t\tgames[_cid] = Game(\\n         ...\n      SWAP2 \t\t\tgames[_cid] = Game(\\n         ...\n      SWAP1 \t\t\tgames[_cid] = Game(\\n         ...\n      PUSH [tag] 66\t\t\tgames[_cid] = Game(\\n         ...\n      JUMP \t\t\tgames[_cid] = Game(\\n         ...\n    tag 65\t\t\tgames[_cid] = Game(\\n         ...\n      JUMPDEST \t\t\tgames[_cid] = Game(\\n         ...\n      POP \t\t\tgames[_cid] = Game(\\n         ...\n      PUSH 40\t\t\tgames[_cid] = Game(\\n         ...\n      DUP3 \t\t\tgames[_cid] = Game(\\n         ...\n      ADD \t\t\tgames[_cid] = Game(\\n         ...\n      MLOAD \t\t\tgames[_cid] = Game(\\n         ...\n      DUP2 \t\t\tgames[_cid] = Game(\\n         ...\n      PUSH 2\t\t\tgames[_cid] = Game(\\n         ...\n      ADD \t\t\tgames[_cid] = Game(\\n         ...\n      PUSH 0\t\t\tgames[_cid] = Game(\\n         ...\n      PUSH 100\t\t\tgames[_cid] = Game(\\n         ...\n      EXP \t\t\tgames[_cid] = Game(\\n         ...\n      DUP2 \t\t\tgames[_cid] = Game(\\n         ...\n      SLOAD \t\t\tgames[_cid] = Game(\\n         ...\n      DUP2 \t\t\tgames[_cid] = Game(\\n         ...\n      PUSH FFFFFFFFFFFFFFFFFFFFFFFFFFFFFFFFFFFFFFFF\t\t\tgames[_cid] = Game(\\n         ...\n      MUL \t\t\tgames[_cid] = Game(\\n         ...\n      NOT \t\t\tgames[_cid] = Game(\\n         ...\n      AND \t\t\tgames[_cid] = Game(\\n         ...\n      SWAP1 \t\t\tgames[_cid] = Game(\\n         ...\n      DUP4 \t\t\tgames[_cid] = Game(\\n         ...\n      PUSH FFFFFFFFFFFFFFFFFFFFFFFFFFFFFFFFFFFFFFFF\t\t\tgames[_cid] = Game(\\n         ...\n      AND \t\t\tgames[_cid] = Game(\\n         ...\n      MUL \t\t\tgames[_cid] = Game(\\n         ...\n      OR \t\t\tgames[_cid] = Game(\\n         ...\n      SWAP1 \t\t\tgames[_cid] = Game(\\n         ...\n      SSTORE \t\t\tgames[_cid] = Game(\\n         ...\n      POP \t\t\tgames[_cid] = Game(\\n         ...\n      PUSH 60\t\t\tgames[_cid] = Game(\\n         ...\n      DUP3 \t\t\tgames[_cid] = Game(\\n         ...\n      ADD \t\t\tgames[_cid] = Game(\\n         ...\n      MLOAD \t\t\tgames[_cid] = Game(\\n         ...\n      DUP2 \t\t\tgames[_cid] = Game(\\n         ...\n      PUSH 3\t\t\tgames[_cid] = Game(\\n         ...\n      ADD \t\t\tgames[_cid] = Game(\\n         ...\n      SWAP1 \t\t\tgames[_cid] = Game(\\n         ...\n      DUP2 \t\t\tgames[_cid] = Game(\\n         ...\n      PUSH [tag] 67\t\t\tgames[_cid] = Game(\\n         ...\n      SWAP2 \t\t\tgames[_cid] = Game(\\n         ...\n      SWAP1 \t\t\tgames[_cid] = Game(\\n         ...\n      PUSH [tag] 66\t\t\tgames[_cid] = Game(\\n         ...\n      JUMP \t\t\tgames[_cid] = Game(\\n         ...\n    tag 67\t\t\tgames[_cid] = Game(\\n         ...\n      JUMPDEST \t\t\tgames[_cid] = Game(\\n         ...\n      POP \t\t\tgames[_cid] = Game(\\n         ...\n      PUSH 80\t\t\tgames[_cid] = Game(\\n         ...\n      DUP3 \t\t\tgames[_cid] = Game(\\n         ...\n      ADD \t\t\tgames[_cid] = Game(\\n         ...\n      MLOAD \t\t\tgames[_cid] = Game(\\n         ...\n      DUP2 \t\t\tgames[_cid] = Game(\\n         ...\n      PUSH 4\t\t\tgames[_cid] = Game(\\n         ...\n      ADD \t\t\tgames[_cid] = Game(\\n         ...\n      SSTORE \t\t\tgames[_cid] = Game(\\n         ...\n      PUSH A0\t\t\tgames[_cid] = Game(\\n         ...\n      DUP3 \t\t\tgames[_cid] = Game(\\n         ...\n      ADD \t\t\tgames[_cid] = Game(\\n         ...\n      MLOAD \t\t\tgames[_cid] = Game(\\n         ...\n      DUP2 \t\t\tgames[_cid] = Game(\\n         ...\n      PUSH 5\t\t\tgames[_cid] = Game(\\n         ...\n      ADD \t\t\tgames[_cid] = Game(\\n         ...\n      SWAP1 \t\t\tgames[_cid] = Game(\\n         ...\n      DUP2 \t\t\tgames[_cid] = Game(\\n         ...\n      PUSH [tag] 68\t\t\tgames[_cid] = Game(\\n         ...\n      SWAP2 \t\t\tgames[_cid] = Game(\\n         ...\n      SWAP1 \t\t\tgames[_cid] = Game(\\n         ...\n      PUSH [tag] 66\t\t\tgames[_cid] = Game(\\n         ...\n      JUMP \t\t\tgames[_cid] = Game(\\n         ...\n    tag 68\t\t\tgames[_cid] = Game(\\n         ...\n      JUMPDEST \t\t\tgames[_cid] = Game(\\n         ...\n      POP \t\t\tgames[_cid] = Game(\\n         ...\n      SWAP1 \t\t\tgames[_cid] = Game(\\n         ...\n      POP \t\t\tgames[_cid] = Game(\\n         ...\n      POP \t\t\tgames[_cid] = Game(\\n         ...\n      PUSH 3\t\t\tcids\n      DUP7 \t\t\t_cid\n      SWAP1 \t\t\tcids.push(_cid)\n      DUP1 \t\t\tcids.push(_cid)\n      PUSH 1\t\t\tcids.push(_cid)\n      DUP2 \t\t\tcids.push(_cid)\n      SLOAD \t\t\tcids.push(_cid)\n      ADD \t\t\tcids.push(_cid)\n      DUP1 \t\t\tcids.push(_cid)\n      DUP3 \t\t\tcids.push(_cid)\n      SSTORE \t\t\tcids.push(_cid)\n      DUP1 \t\t\tcids.push(_cid)\n      SWAP2 \t\t\tcids.push(_cid)\n      POP \t\t\tcids.push(_cid)\n      POP \t\t\tcids.push(_cid)\n      PUSH 1\t\t\tcids.push(_cid)\n      SWAP1 \t\t\tcids.push(_cid)\n      SUB \t\t\tcids.push(_cid)\n      SWAP1 \t\t\tcids.push(_cid)\n      PUSH 0\t\t\tcids.push(_cid)\n      MSTORE \t\t\tcids.push(_cid)\n      PUSH 20\t\t\tcids.push(_cid)\n      PUSH 0\t\t\tcids.push(_cid)\n      KECCAK256 \t\t\tcids.push(_cid)\n      ADD \t\t\tcids.push(_cid)\n      PUSH 0\t\t\tcids.push(_cid)\n      SWAP1 \t\t\tcids.push(_cid)\n      SWAP2 \t\t\tcids.push(_cid)\n      SWAP1 \t\t\tcids.push(_cid)\n      SWAP2 \t\t\tcids.push(_cid)\n      SWAP1 \t\t\tcids.push(_cid)\n      SWAP2 \t\t\tcids.push(_cid)\n      POP \t\t\tcids.push(_cid)\n      SWAP1 \t\t\tcids.push(_cid)\n      DUP2 \t\t\tcids.push(_cid)\n      PUSH [tag] 70\t\t\tcids.push(_cid)\n      SWAP2 \t\t\tcids.push(_cid)\n      SWAP1 \t\t\tcids.push(_cid)\n      PUSH [tag] 66\t\t\tcids.push(_cid)\n      JUMP \t\t\tcids.push(_cid)\n    tag 70\t\t\tcids.push(_cid)\n      JUMPDEST \t\t\tcids.push(_cid)\n      POP \t\t\tcids.push(_cid)\n      DUP1 \t\t\tgameToken\n      PUSH FFFFFFFFFFFFFFFFFFFFFFFFFFFFFFFFFFFFFFFF\t\t\tGameTokenCreated(cids.length -...\n      AND \t\t\tGameTokenCreated(cids.length -...\n      DUP7 \t\t\t_cid\n      PUSH 40\t\t\tGameTokenCreated(cids.length -...\n      MLOAD \t\t\tGameTokenCreated(cids.length -...\n      PUSH [tag] 71\t\t\tGameTokenCreated(cids.length -...\n      SWAP2 \t\t\tGameTokenCreated(cids.length -...\n      SWAP1 \t\t\tGameTokenCreated(cids.length -...\n      PUSH [tag] 53\t\t\tGameTokenCreated(cids.length -...\n      JUMP \t\t\tGameTokenCreated(cids.length -...\n    tag 71\t\t\tGameTokenCreated(cids.length -...\n      JUMPDEST \t\t\tGameTokenCreated(cids.length -...\n      PUSH 40\t\t\tGameTokenCreated(cids.length -...\n      MLOAD \t\t\tGameTokenCreated(cids.length -...\n      DUP1 \t\t\tGameTokenCreated(cids.length -...\n      SWAP2 \t\t\tGameTokenCreated(cids.length -...\n      SUB \t\t\tGameTokenCreated(cids.length -...\n      SWAP1 \t\t\tGameTokenCreated(cids.length -...\n      KECCAK256 \t\t\tGameTokenCreated(cids.length -...\n      PUSH 1\t\t\t1\n      PUSH 3\t\t\tcids\n      DUP1 \t\t\tcids.length\n      SLOAD \t\t\tcids.length\n      SWAP1 \t\t\tcids.length\n      POP \t\t\tcids.length\n      PUSH [tag] 72\t\t\tcids.length - 1\n      SWAP2 \t\t\tcids.length - 1\n      SWAP1 \t\t\tcids.length - 1\n      PUSH [tag] 73\t\t\tcids.length - 1\n      JUMP \t\t\tcids.length - 1\n    tag 72\t\t\tcids.length - 1\n      JUMPDEST \t\t\tcids.length - 1\n      PUSH 1B53114C999DED51A67E2C46B7ABA69BD40E2D7A5B1E3E4A8B7F12C122FF3A50\t\t\tGameTokenCreated(cids.length -...\n      PUSH 40\t\t\tGameTokenCreated(cids.length -...\n      MLOAD \t\t\tGameTokenCreated(cids.length -...\n      PUSH 40\t\t\tGameTokenCreated(cids.length -...\n      MLOAD \t\t\tGameTokenCreated(cids.length -...\n      DUP1 \t\t\tGameTokenCreated(cids.length -...\n      SWAP2 \t\t\tGameTokenCreated(cids.length -...\n      SUB \t\t\tGameTokenCreated(cids.length -...\n      SWAP1 \t\t\tGameTokenCreated(cids.length -...\n      LOG4 \t\t\tGameTokenCreated(cids.length -...\n      POP \t\t\t{\\n        if (games[_cid].cre...\n      POP \t\t\tfunction publishGame(\\n       ...\n      POP \t\t\tfunction publishGame(\\n       ...\n      POP \t\t\tfunction publishGame(\\n       ...\n      POP \t\t\tfunction publishGame(\\n       ...\n      POP \t\t\tfunction publishGame(\\n       ...\n      JUMP \t\t\tfunction publishGame(\\n       ...\n    tag 20\t\t\tfunction isGameOwned(string me...\n      JUMPDEST \t\t\tfunction isGameOwned(string me...\n      PUSH 0\t\t\tbool\n      DUP1 \t\t\taddress tokenAddress\n      PUSH 2\t\t\tgames\n      DUP4 \t\t\t_cid\n      PUSH 40\t\t\tgames[_cid]\n      MLOAD \t\t\tgames[_cid]\n      PUSH [tag] 75\t\t\tgames[_cid]\n      SWAP2 \t\t\tgames[_cid]\n      SWAP1 \t\t\tgames[_cid]\n      PUSH [tag] 53\t\t\tgames[_cid]\n      JUMP \t\t\tgames[_cid]\n    tag 75\t\t\tgames[_cid]\n      JUMPDEST \t\t\tgames[_cid]\n      SWAP1 \t\t\tgames[_cid]\n      DUP2 \t\t\tgames[_cid]\n      MSTORE \t\t\tgames[_cid]\n      PUSH 20\t\t\tgames[_cid]\n      ADD \t\t\tgames[_cid]\n      PUSH 40\t\t\tgames[_cid]\n      MLOAD \t\t\tgames[_cid]\n      DUP1 \t\t\tgames[_cid]\n      SWAP2 \t\t\tgames[_cid]\n      SUB \t\t\tgames[_cid]\n      SWAP1 \t\t\tgames[_cid]\n      KECCAK256 \t\t\tgames[_cid]\n      PUSH 2\t\t\tgames[_cid].token\n      ADD \t\t\tgames[_cid].token\n      PUSH 0\t\t\tgames[_cid].token\n      SWAP1 \t\t\tgames[_cid].token\n      SLOAD \t\t\tgames[_cid].token\n      SWAP1 \t\t\tgames[_cid].token\n      PUSH 100\t\t\tgames[_cid].token\n      EXP \t\t\tgames[_cid].token\n      SWAP1 \t\t\tgames[_cid].token\n      DIV \t\t\tgames[_cid].token\n      PUSH FFFFFFFFFFFFFFFFFFFFFFFFFFFFFFFFFFFFFFFF\t\t\tgames[_cid].token\n      AND \t\t\tgames[_cid].token\n      SWAP1 \t\t\taddress tokenAddress = games[_...\n      POP \t\t\taddress tokenAddress = games[_...\n      PUSH 0\t\t\t0\n      PUSH FFFFFFFFFFFFFFFFFFFFFFFFFFFFFFFFFFFFFFFF\t\t\ttokenAddress == address(0)\n      AND \t\t\ttokenAddress == address(0)\n      DUP2 \t\t\ttokenAddress\n      PUSH FFFFFFFFFFFFFFFFFFFFFFFFFFFFFFFFFFFFFFFF\t\t\ttokenAddress == address(0)\n      AND \t\t\ttokenAddress == address(0)\n      SUB \t\t\ttokenAddress == address(0)\n      PUSH [tag] 76\t\t\tif (tokenAddress == address(0)...\n      JUMPI \t\t\tif (tokenAddress == address(0)...\n      PUSH 40\t\t\tInvalidGame()\n      MLOAD \t\t\tInvalidGame()\n      PUSH 57E25A0900000000000000000000000000000000000000000000000000000000\t\t\tInvalidGame()\n      DUP2 \t\t\tInvalidGame()\n      MSTORE \t\t\tInvalidGame()\n      PUSH 4\t\t\tInvalidGame()\n      ADD \t\t\tInvalidGame()\n      PUSH 40\t\t\tInvalidGame()\n      MLOAD \t\t\tInvalidGame()\n      DUP1 \t\t\tInvalidGame()\n      SWAP2 \t\t\tInvalidGame()\n      SUB \t\t\tInvalidGame()\n      SWAP1 \t\t\tInvalidGame()\n      REVERT \t\t\tInvalidGame()\n    tag 76\t\t\tif (tokenAddress == address(0)...\n      JUMPDEST \t\t\tif (tokenAddress == address(0)...\n      PUSH 0\t\t\tGameToken gameToken\n      DUP2 \t\t\ttokenAddress\n      SWAP1 \t\t\tGameToken gameToken = GameToke...\n      POP \t\t\tGameToken gameToken = GameToke...\n      PUSH 1\t\t\t1\n      DUP2 \t\t\tgameToken\n      PUSH FFFFFFFFFFFFFFFFFFFFFFFFFFFFFFFFFFFFFFFF\t\t\tgameToken.balanceOf\n      AND \t\t\tgameToken.balanceOf\n      PUSH 70A08231\t\t\tgameToken.balanceOf\n      CALLER \t\t\tmsg.sender\n      PUSH 40\t\t\tgameToken.balanceOf(msg.sender...\n      MLOAD \t\t\tgameToken.balanceOf(msg.sender...\n      DUP3 \t\t\tgameToken.balanceOf(msg.sender...\n      PUSH FFFFFFFF\t\t\tgameToken.balanceOf(msg.sender...\n      AND \t\t\tgameToken.balanceOf(msg.sender...\n      PUSH E0\t\t\tgameToken.balanceOf(msg.sender...\n      SHL \t\t\tgameToken.balanceOf(msg.sender...\n      DUP2 \t\t\tgameToken.balanceOf(msg.sender...\n      MSTORE \t\t\tgameToken.balanceOf(msg.sender...\n      PUSH 4\t\t\tgameToken.balanceOf(msg.sender...\n      ADD \t\t\tgameToken.balanceOf(msg.sender...\n      PUSH [tag] 77\t\t\tgameToken.balanceOf(msg.sender...\n      SWAP2 \t\t\tgameToken.balanceOf(msg.sender...\n      SWAP1 \t\t\tgameToken.balanceOf(msg.sender...\n      PUSH [tag] 34\t\t\tgameToken.balanceOf(msg.sender...\n      JUMP \t\t\tgameToken.balanceOf(msg.sender...\n    tag 77\t\t\tgameToken.balanceOf(msg.sender...\n      JUMPDEST \t\t\tgameToken.balanceOf(msg.sender...\n      PUSH 20\t\t\tgameToken.balanceOf(msg.sender...\n      PUSH 40\t\t\tgameToken.balanceOf(msg.sender...\n      MLOAD \t\t\tgameToken.balanceOf(msg.sender...\n      DUP1 \t\t\tgameToken.balanceOf(msg.sender...\n      DUP4 \t\t\tgameToken.balanceOf(msg.sender...\n      SUB \t\t\tgameToken.balanceOf(msg.sender...\n      DUP2 \t\t\tgameToken.balanceOf(msg.sender...\n      DUP7 \t\t\tgameToken.balanceOf(msg.sender...\n      GAS \t\t\tgameToken.balanceOf(msg.sender...\n      STATICCALL \t\t\tgameToken.balanceOf(msg.sender...\n      ISZERO \t\t\tgameToken.balanceOf(msg.sender...\n      DUP1 \t\t\tgameToken.balanceOf(msg.sender...\n      ISZERO \t\t\tgameToken.balanceOf(msg.sender...\n      PUSH [tag] 79\t\t\tgameToken.balanceOf(msg.sender...\n      JUMPI \t\t\tgameToken.balanceOf(msg.sender...\n      RETURNDATASIZE \t\t\tgameToken.balanceOf(msg.sender...\n      PUSH 0\t\t\tgameToken.balanceOf(msg.sender...\n      DUP1 \t\t\tgameToken.balanceOf(msg.sender...\n      RETURNDATACOPY \t\t\tgameToken.balanceOf(msg.sender...\n      RETURNDATASIZE \t\t\tgameToken.balanceOf(msg.sender...\n      PUSH 0\t\t\tgameToken.balanceOf(msg.sender...\n      REVERT \t\t\tgameToken.balanceOf(msg.sender...\n    tag 79\t\t\tgameToken.balanceOf(msg.sender...\n      JUMPDEST \t\t\tgameToken.balanceOf(msg.sender...\n      POP \t\t\tgameToken.balanceOf(msg.sender...\n      POP \t\t\tgameToken.balanceOf(msg.sender...\n      POP \t\t\tgameToken.balanceOf(msg.sender...\n      POP \t\t\tgameToken.balanceOf(msg.sender...\n      PUSH 40\t\t\tgameToken.balanceOf(msg.sender...\n      MLOAD \t\t\tgameToken.balanceOf(msg.sender...\n      RETURNDATASIZE \t\t\tgameToken.balanceOf(msg.sender...\n      PUSH 1F\t\t\tgameToken.balanceOf(msg.sender...\n      NOT \t\t\tgameToken.balanceOf(msg.sender...\n      PUSH 1F\t\t\tgameToken.balanceOf(msg.sender...\n      DUP3 \t\t\tgameToken.balanceOf(msg.sender...\n      ADD \t\t\tgameToken.balanceOf(msg.sender...\n      AND \t\t\tgameToken.balanceOf(msg.sender...\n      DUP3 \t\t\tgameToken.balanceOf(msg.sender...\n      ADD \t\t\tgameToken.balanceOf(msg.sender...\n      DUP1 \t\t\tgameToken.balanceOf(msg.sender...\n      PUSH 40\t\t\tgameToken.balanceOf(msg.sender...\n      MSTORE \t\t\tgameToken.balanceOf(msg.sender...\n      POP \t\t\tgameToken.balanceOf(msg.sender...\n      DUP2 \t\t\tgameToken.balanceOf(msg.sender...\n      ADD \t\t\tgameToken.balanceOf(msg.sender...\n      SWAP1 \t\t\tgameToken.balanceOf(msg.sender...\n      PUSH [tag] 80\t\t\tgameToken.balanceOf(msg.sender...\n      SWAP2 \t\t\tgameToken.balanceOf(msg.sender...\n      SWAP1 \t\t\tgameToken.balanceOf(msg.sender...\n      PUSH [tag] 81\t\t\tgameToken.balanceOf(msg.sender...\n      JUMP \t\t\tgameToken.balanceOf(msg.sender...\n    tag 80\t\t\tgameToken.balanceOf(msg.sender...\n      JUMPDEST \t\t\tgameToken.balanceOf(msg.sender...\n      LT \t\t\tgameToken.balanceOf(msg.sender...\n      ISZERO \t\t\tgameToken.balanceOf(msg.sender...\n      SWAP3 \t\t\treturn gameToken.balanceOf(msg...\n      POP \t\t\treturn gameToken.balanceOf(msg...\n      POP \t\t\treturn gameToken.balanceOf(msg...\n      POP \t\t\treturn gameToken.balanceOf(msg...\n      SWAP2 \t\t\tfunction isGameOwned(string me...\n      SWAP1 \t\t\tfunction isGameOwned(string me...\n      POP \t\t\tfunction isGameOwned(string me...\n      JUMP \t\t\tfunction isGameOwned(string me...\n    tag 26\t\t\tfunction getGameByCid(string m...\n      JUMPDEST \t\t\tfunction getGameByCid(string m...\n      PUSH [tag] 82\t\t\tGame memory\n      PUSH [tag] 83\t\t\tGame memory\n      JUMP \t\t\tGame memory\n    tag 82\t\t\tGame memory\n      JUMPDEST \t\t\tGame memory\n      PUSH 0\t\t\tGame memory _game\n      PUSH 2\t\t\tgames\n      DUP4 \t\t\t_cid\n      PUSH 40\t\t\tgames[_cid]\n      MLOAD \t\t\tgames[_cid]\n      PUSH [tag] 85\t\t\tgames[_cid]\n      SWAP2 \t\t\tgames[_cid]\n      SWAP1 \t\t\tgames[_cid]\n      PUSH [tag] 53\t\t\tgames[_cid]\n      JUMP \t\t\tgames[_cid]\n    tag 85\t\t\tgames[_cid]\n      JUMPDEST \t\t\tgames[_cid]\n      SWAP1 \t\t\tgames[_cid]\n      DUP2 \t\t\tgames[_cid]\n      MSTORE \t\t\tgames[_cid]\n      PUSH 20\t\t\tgames[_cid]\n      ADD \t\t\tgames[_cid]\n      PUSH 40\t\t\tgames[_cid]\n      MLOAD \t\t\tgames[_cid]\n      DUP1 \t\t\tgames[_cid]\n      SWAP2 \t\t\tgames[_cid]\n      SUB \t\t\tgames[_cid]\n      SWAP1 \t\t\tgames[_cid]\n      KECCAK256 \t\t\tgames[_cid]\n      PUSH 40\t\t\tGame memory _game = games[_cid...\n      MLOAD \t\t\tGame memory _game = games[_cid...\n      DUP1 \t\t\tGame memory _game = games[_cid...\n      PUSH C0\t\t\tGame memory _game = games[_cid...\n      ADD \t\t\tGame memory _game = games[_cid...\n      PUSH 40\t\t\tGame memory _game = games[_cid...\n      MSTORE \t\t\tGame memory _game = games[_cid...\n      SWAP1 \t\t\tGame memory _game = games[_cid...\n      DUP2 \t\t\tGame memory _game = games[_cid...\n      PUSH 0\t\t\tGame memory _game = games[_cid...\n      DUP3 \t\t\tGame memory _game = games[_cid...\n      ADD \t\t\tGame memory _game = games[_cid...\n      PUSH 0\t\t\tGame memory _game = games[_cid...\n      SWAP1 \t\t\tGame memory _game = games[_cid...\n      SLOAD \t\t\tGame memory _game = games[_cid...\n      SWAP1 \t\t\tGame memory _game = games[_cid...\n      PUSH 100\t\t\tGame memory _game = games[_cid...\n      EXP \t\t\tGame memory _game = games[_cid...\n      SWAP1 \t\t\tGame memory _game = games[_cid...\n      DIV \t\t\tGame memory _game = games[_cid...\n      PUSH FFFFFFFFFFFFFFFFFFFFFFFFFFFFFFFFFFFFFFFF\t\t\tGame memory _game = games[_cid...\n      AND \t\t\tGame memory _game = games[_cid...\n      PUSH FFFFFFFFFFFFFFFFFFFFFFFFFFFFFFFFFFFFFFFF\t\t\tGame memory _game = games[_cid...\n      AND \t\t\tGame memory _game = games[_cid...\n      PUSH FFFFFFFFFFFFFFFFFFFFFFFFFFFFFFFFFFFFFFFF\t\t\tGame memory _game = games[_cid...\n      AND \t\t\tGame memory _game = games[_cid...\n      DUP2 \t\t\tGame memory _game = games[_cid...\n      MSTORE \t\t\tGame memory _game = games[_cid...\n      PUSH 20\t\t\tGame memory _game = games[_cid...\n      ADD \t\t\tGame memory _game = games[_cid...\n      PUSH 1\t\t\tGame memory _game = games[_cid...\n      DUP3 \t\t\tGame memory _game = games[_cid...\n      ADD \t\t\tGame memory _game = games[_cid...\n      DUP1 \t\t\tGame memory _game = games[_cid...\n      SLOAD \t\t\tGame memory _game = games[_cid...\n      PUSH [tag] 86\t\t\tGame memory _game = games[_cid...\n      SWAP1 \t\t\tGame memory _game = games[_cid...\n      PUSH [tag] 87\t\t\tGame memory _game = games[_cid...\n      JUMP \t\t\tGame memory _game = games[_cid...\n    tag 86\t\t\tGame memory _game = games[_cid...\n      JUMPDEST \t\t\tGame memory _game = games[_cid...\n      DUP1 \t\t\tGame memory _game = games[_cid...\n      PUSH 1F\t\t\tGame memory _game = games[_cid...\n      ADD \t\t\tGame memory _game = games[_cid...\n      PUSH 20\t\t\tGame memory _game = games[_cid...\n      DUP1 \t\t\tGame memory _game = games[_cid...\n      SWAP2 \t\t\tGame memory _game = games[_cid...\n      DIV \t\t\tGame memory _game = games[_cid...\n      MUL \t\t\tGame memory _game = games[_cid...\n      PUSH 20\t\t\tGame memory _game = games[_cid...\n      ADD \t\t\tGame memory _game = games[_cid...\n      PUSH 40\t\t\tGame memory _game = games[_cid...\n      MLOAD \t\t\tGame memory _game = games[_cid...\n      SWAP1 \t\t\tGame memory _game = games[_cid...\n      DUP2 \t\t\tGame memory _game = games[_cid...\n      ADD \t\t\tGame memory _game = games[_cid...\n      PUSH 40\t\t\tGame memory _game = games[_cid...\n      MSTORE \t\t\tGame memory _game = games[_cid...\n      DUP1 \t\t\tGame memory _game = games[_cid...\n      SWAP3 \t\t\tGame memory _game = games[_cid...\n      SWAP2 \t\t\tGame memory _game = games[_cid...\n      SWAP1 \t\t\tGame memory _game = games[_cid...\n      DUP2 \t\t\tGame memory _game = games[_cid...\n      DUP2 \t\t\tGame memory _game = games[_cid...\n      MSTORE \t\t\tGame memory _game = games[_cid...\n      PUSH 20\t\t\tGame memory _game = games[_cid...\n      ADD \t\t\tGame memory _game = games[_cid...\n      DUP3 \t\t\tGame memory _game = games[_cid...\n      DUP1 \t\t\tGame memory _game = games[_cid...\n      SLOAD \t\t\tGame memory _game = games[_cid...\n      PUSH [tag] 88\t\t\tGame memory _game = games[_cid...\n      SWAP1 \t\t\tGame memory _game = games[_cid...\n      PUSH [tag] 87\t\t\tGame memory _game = games[_cid...\n      JUMP \t\t\tGame memory _game = games[_cid...\n    tag 88\t\t\tGame memory _game = games[_cid...\n      JUMPDEST \t\t\tGame memory _game = games[_cid...\n      DUP1 \t\t\tGame memory _game = games[_cid...\n      ISZERO \t\t\tGame memory _game = games[_cid...\n      PUSH [tag] 89\t\t\tGame memory _game = games[_cid...\n      JUMPI \t\t\tGame memory _game = games[_cid...\n      DUP1 \t\t\tGame memory _game = games[_cid...\n      PUSH 1F\t\t\tGame memory _game = games[_cid...\n      LT \t\t\tGame memory _game = games[_cid...\n      PUSH [tag] 90\t\t\tGame memory _game = games[_cid...\n      JUMPI \t\t\tGame memory _game = games[_cid...\n      PUSH 100\t\t\tGame memory _game = games[_cid...\n      DUP1 \t\t\tGame memory _game = games[_cid...\n      DUP4 \t\t\tGame memory _game = games[_cid...\n      SLOAD \t\t\tGame memory _game = games[_cid...\n      DIV \t\t\tGame memory _game = games[_cid...\n      MUL \t\t\tGame memory _game = games[_cid...\n      DUP4 \t\t\tGame memory _game = games[_cid...\n      MSTORE \t\t\tGame memory _game = games[_cid...\n      SWAP2 \t\t\tGame memory _game = games[_cid...\n      PUSH 20\t\t\tGame memory _game = games[_cid...\n      ADD \t\t\tGame memory _game = games[_cid...\n      SWAP2 \t\t\tGame memory _game = games[_cid...\n      PUSH [tag] 89\t\t\tGame memory _game = games[_cid...\n      JUMP \t\t\tGame memory _game = games[_cid...\n    tag 90\t\t\tGame memory _game = games[_cid...\n      JUMPDEST \t\t\tGame memory _game = games[_cid...\n      DUP3 \t\t\tGame memory _game = games[_cid...\n      ADD \t\t\tGame memory _game = games[_cid...\n      SWAP2 \t\t\tGame memory _game = games[_cid...\n      SWAP1 \t\t\tGame memory _game = games[_cid...\n      PUSH 0\t\t\tGame memory _game = games[_cid...\n      MSTORE \t\t\tGame memory _game = games[_cid...\n      PUSH 20\t\t\tGame memory _game = games[_cid...\n      PUSH 0\t\t\tGame memory _game = games[_cid...\n      KECCAK256 \t\t\tGame memory _game = games[_cid...\n      SWAP1 \t\t\tGame memory _game = games[_cid...\n    tag 91\t\t\tGame memory _game = games[_cid...\n      JUMPDEST \t\t\tGame memory _game = games[_cid...\n      DUP2 \t\t\tGame memory _game = games[_cid...\n      SLOAD \t\t\tGame memory _game = games[_cid...\n      DUP2 \t\t\tGame memory _game = games[_cid...\n      MSTORE \t\t\tGame memory _game = games[_cid...\n      SWAP1 \t\t\tGame memory _game = games[_cid...\n      PUSH 1\t\t\tGame memory _game = games[_cid...\n      ADD \t\t\tGame memory _game = games[_cid...\n      SWAP1 \t\t\tGame memory _game = games[_cid...\n      PUSH 20\t\t\tGame memory _game = games[_cid...\n      ADD \t\t\tGame memory _game = games[_cid...\n      DUP1 \t\t\tGame memory _game = games[_cid...\n      DUP4 \t\t\tGame memory _game = games[_cid...\n      GT \t\t\tGame memory _game = games[_cid...\n      PUSH [tag] 91\t\t\tGame memory _game = games[_cid...\n      JUMPI \t\t\tGame memory _game = games[_cid...\n      DUP3 \t\t\tGame memory _game = games[_cid...\n      SWAP1 \t\t\tGame memory _game = games[_cid...\n      SUB \t\t\tGame memory _game = games[_cid...\n      PUSH 1F\t\t\tGame memory _game = games[_cid...\n      AND \t\t\tGame memory _game = games[_cid...\n      DUP3 \t\t\tGame memory _game = games[_cid...\n      ADD \t\t\tGame memory _game = games[_cid...\n      SWAP2 \t\t\tGame memory _game = games[_cid...\n    tag 89\t\t\tGame memory _game = games[_cid...\n      JUMPDEST \t\t\tGame memory _game = games[_cid...\n      POP \t\t\tGame memory _game = games[_cid...\n      POP \t\t\tGame memory _game = games[_cid...\n      POP \t\t\tGame memory _game = games[_cid...\n      POP \t\t\tGame memory _game = games[_cid...\n      POP \t\t\tGame memory _game = games[_cid...\n      DUP2 \t\t\tGame memory _game = games[_cid...\n      MSTORE \t\t\tGame memory _game = games[_cid...\n      PUSH 20\t\t\tGame memory _game = games[_cid...\n      ADD \t\t\tGame memory _game = games[_cid...\n      PUSH 2\t\t\tGame memory _game = games[_cid...\n      DUP3 \t\t\tGame memory _game = games[_cid...\n      ADD \t\t\tGame memory _game = games[_cid...\n      PUSH 0\t\t\tGame memory _game = games[_cid...\n      SWAP1 \t\t\tGame memory _game = games[_cid...\n      SLOAD \t\t\tGame memory _game = games[_cid...\n      SWAP1 \t\t\tGame memory _game = games[_cid...\n      PUSH 100\t\t\tGame memory _game = games[_cid...\n      EXP \t\t\tGame memory _game = games[_cid...\n      SWAP1 \t\t\tGame memory _game = games[_cid...\n      DIV \t\t\tGame memory _game = games[_cid...\n      PUSH FFFFFFFFFFFFFFFFFFFFFFFFFFFFFFFFFFFFFFFF\t\t\tGame memory _game = games[_cid...\n      AND \t\t\tGame memory _game = games[_cid...\n      PUSH FFFFFFFFFFFFFFFFFFFFFFFFFFFFFFFFFFFFFFFF\t\t\tGame memory _game = games[_cid...\n      AND \t\t\tGame memory _game = games[_cid...\n      PUSH FFFFFFFFFFFFFFFFFFFFFFFFFFFFFFFFFFFFFFFF\t\t\tGame memory _game = games[_cid...\n      AND \t\t\tGame memory _game = games[_cid...\n      DUP2 \t\t\tGame memory _game = games[_cid...\n      MSTORE \t\t\tGame memory _game = games[_cid...\n      PUSH 20\t\t\tGame memory _game = games[_cid...\n      ADD \t\t\tGame memory _game = games[_cid...\n      PUSH 3\t\t\tGame memory _game = games[_cid...\n      DUP3 \t\t\tGame memory _game = games[_cid...\n      ADD \t\t\tGame memory _game = games[_cid...\n      DUP1 \t\t\tGame memory _game = games[_cid...\n      SLOAD \t\t\tGame memory _game = games[_cid...\n      PUSH [tag] 92\t\t\tGame memory _game = games[_cid...\n      SWAP1 \t\t\tGame memory _game = games[_cid...\n      PUSH [tag] 87\t\t\tGame memory _game = games[_cid...\n      JUMP \t\t\tGame memory _game = games[_cid...\n    tag 92\t\t\tGame memory _game = games[_cid...\n      JUMPDEST \t\t\tGame memory _game = games[_cid...\n      DUP1 \t\t\tGame memory _game = games[_cid...\n      PUSH 1F\t\t\tGame memory _game = games[_cid...\n      ADD \t\t\tGame memory _game = games[_cid...\n      PUSH 20\t\t\tGame memory _game = games[_cid...\n      DUP1 \t\t\tGame memory _game = games[_cid...\n      SWAP2 \t\t\tGame memory _game = games[_cid...\n      DIV \t\t\tGame memory _game = games[_cid...\n      MUL \t\t\tGame memory _game = games[_cid...\n      PUSH 20\t\t\tGame memory _game = games[_cid...\n      ADD \t\t\tGame memory _game = games[_cid...\n      PUSH 40\t\t\tGame memory _game = games[_cid...\n      MLOAD \t\t\tGame memory _game = games[_cid...\n      SWAP1 \t\t\tGame memory _game = games[_cid...\n      DUP2 \t\t\tGame memory _game = games[_cid...\n      ADD \t\t\tGame memory _game = games[_cid...\n      PUSH 40\t\t\tGame memory _game = games[_cid...\n      MSTORE \t\t\tGame memory _game = games[_cid...\n      DUP1 \t\t\tGame memory _game = games[_cid...\n      SWAP3 \t\t\tGame memory _game = games[_cid...\n      SWAP2 \t\t\tGame memory _game = games[_cid...\n      SWAP1 \t\t\tGame memory _game = games[_cid...\n      DUP2 \t\t\tGame memory _game = games[_cid...\n      DUP2 \t\t\tGame memory _game = games[_cid...\n      MSTORE \t\t\tGame memory _game = games[_cid...\n      PUSH 20\t\t\tGame memory _game = games[_cid...\n      ADD \t\t\tGame memory _game = games[_cid...\n      DUP3 \t\t\tGame memory _game = games[_cid...\n      DUP1 \t\t\tGame memory _game = games[_cid...\n      SLOAD \t\t\tGame memory _game = games[_cid...\n      PUSH [tag] 93\t\t\tGame memory _game = games[_cid...\n      SWAP1 \t\t\tGame memory _game = games[_cid...\n      PUSH [tag] 87\t\t\tGame memory _game = games[_cid...\n      JUMP \t\t\tGame memory _game = games[_cid...\n    tag 93\t\t\tGame memory _game = games[_cid...\n      JUMPDEST \t\t\tGame memory _game = games[_cid...\n      DUP1 \t\t\tGame memory _game = games[_cid...\n      ISZERO \t\t\tGame memory _game = games[_cid...\n      PUSH [tag] 94\t\t\tGame memory _game = games[_cid...\n      JUMPI \t\t\tGame memory _game = games[_cid...\n      DUP1 \t\t\tGame memory _game = games[_cid...\n      PUSH 1F\t\t\tGame memory _game = games[_cid...\n      LT \t\t\tGame memory _game = games[_cid...\n      PUSH [tag] 95\t\t\tGame memory _game = games[_cid...\n      JUMPI \t\t\tGame memory _game = games[_cid...\n      PUSH 100\t\t\tGame memory _game = games[_cid...\n      DUP1 \t\t\tGame memory _game = games[_cid...\n      DUP4 \t\t\tGame memory _game = games[_cid...\n      SLOAD \t\t\tGame memory _game = games[_cid...\n      DIV \t\t\tGame memory _game = games[_cid...\n      MUL \t\t\tGame memory _game = games[_cid...\n      DUP4 \t\t\tGame memory _game = games[_cid...\n      MSTORE \t\t\tGame memory _game = games[_cid...\n      SWAP2 \t\t\tGame memory _game = games[_cid...\n      PUSH 20\t\t\tGame memory _game = games[_cid...\n      ADD \t\t\tGame memory _game = games[_cid...\n      SWAP2 \t\t\tGame memory _game = games[_cid...\n      PUSH [tag] 94\t\t\tGame memory _game = games[_cid...\n      JUMP \t\t\tGame memory _game = games[_cid...\n    tag 95\t\t\tGame memory _game = games[_cid...\n      JUMPDEST \t\t\tGame memory _game = games[_cid...\n      DUP3 \t\t\tGame memory _game = games[_cid...\n      ADD \t\t\tGame memory _game = games[_cid...\n      SWAP2 \t\t\tGame memory _game = games[_cid...\n      SWAP1 \t\t\tGame memory _game = games[_cid...\n      PUSH 0\t\t\tGame memory _game = games[_cid...\n      MSTORE \t\t\tGame memory _game = games[_cid...\n      PUSH 20\t\t\tGame memory _game = games[_cid...\n      PUSH 0\t\t\tGame memory _game = games[_cid...\n      KECCAK256 \t\t\tGame memory _game = games[_cid...\n      SWAP1 \t\t\tGame memory _game = games[_cid...\n    tag 96\t\t\tGame memory _game = games[_cid...\n      JUMPDEST \t\t\tGame memory _game = games[_cid...\n      DUP2 \t\t\tGame memory _game = games[_cid...\n      SLOAD \t\t\tGame memory _game = games[_cid...\n      DUP2 \t\t\tGame memory _game = games[_cid...\n      MSTORE \t\t\tGame memory _game = games[_cid...\n      SWAP1 \t\t\tGame memory _game = games[_cid...\n      PUSH 1\t\t\tGame memory _game = games[_cid...\n      ADD \t\t\tGame memory _game = games[_cid...\n      SWAP1 \t\t\tGame memory _game = games[_cid...\n      PUSH 20\t\t\tGame memory _game = games[_cid...\n      ADD \t\t\tGame memory _game = games[_cid...\n      DUP1 \t\t\tGame memory _game = games[_cid...\n      DUP4 \t\t\tGame memory _game = games[_cid...\n      GT \t\t\tGame memory _game = games[_cid...\n      PUSH [tag] 96\t\t\tGame memory _game = games[_cid...\n      JUMPI \t\t\tGame memory _game = games[_cid...\n      DUP3 \t\t\tGame memory _game = games[_cid...\n      SWAP1 \t\t\tGame memory _game = games[_cid...\n      SUB \t\t\tGame memory _game = games[_cid...\n      PUSH 1F\t\t\tGame memory _game = games[_cid...\n      AND \t\t\tGame memory _game = games[_cid...\n      DUP3 \t\t\tGame memory _game = games[_cid...\n      ADD \t\t\tGame memory _game = games[_cid...\n      SWAP2 \t\t\tGame memory _game = games[_cid...\n    tag 94\t\t\tGame memory _game = games[_cid...\n      JUMPDEST \t\t\tGame memory _game = games[_cid...\n      POP \t\t\tGame memory _game = games[_cid...\n      POP \t\t\tGame memory _game = games[_cid...\n      POP \t\t\tGame memory _game = games[_cid...\n      POP \t\t\tGame memory _game = games[_cid...\n      POP \t\t\tGame memory _game = games[_cid...\n      DUP2 \t\t\tGame memory _game = games[_cid...\n      MSTORE \t\t\tGame memory _game = games[_cid...\n      PUSH 20\t\t\tGame memory _game = games[_cid...\n      ADD \t\t\tGame memory _game = games[_cid...\n      PUSH 4\t\t\tGame memory _game = games[_cid...\n      DUP3 \t\t\tGame memory _game = games[_cid...\n      ADD \t\t\tGame memory _game = games[_cid...\n      SLOAD \t\t\tGame memory _game = games[_cid...\n      DUP2 \t\t\tGame memory _game = games[_cid...\n      MSTORE \t\t\tGame memory _game = games[_cid...\n      PUSH 20\t\t\tGame memory _game = games[_cid...\n      ADD \t\t\tGame memory _game = games[_cid...\n      PUSH 5\t\t\tGame memory _game = games[_cid...\n      DUP3 \t\t\tGame memory _game = games[_cid...\n      ADD \t\t\tGame memory _game = games[_cid...\n      DUP1 \t\t\tGame memory _game = games[_cid...\n      SLOAD \t\t\tGame memory _game = games[_cid...\n      PUSH [tag] 97\t\t\tGame memory _game = games[_cid...\n      SWAP1 \t\t\tGame memory _game = games[_cid...\n      PUSH [tag] 87\t\t\tGame memory _game = games[_cid...\n      JUMP \t\t\tGame memory _game = games[_cid...\n    tag 97\t\t\tGame memory _game = games[_cid...\n      JUMPDEST \t\t\tGame memory _game = games[_cid...\n      DUP1 \t\t\tGame memory _game = games[_cid...\n      PUSH 1F\t\t\tGame memory _game = games[_cid...\n      ADD \t\t\tGame memory _game = games[_cid...\n      PUSH 20\t\t\tGame memory _game = games[_cid...\n      DUP1 \t\t\tGame memory _game = games[_cid...\n      SWAP2 \t\t\tGame memory _game = games[_cid...\n      DIV \t\t\tGame memory _game = games[_cid...\n      MUL \t\t\tGame memory _game = games[_cid...\n      PUSH 20\t\t\tGame memory _game = games[_cid...\n      ADD \t\t\tGame memory _game = games[_cid...\n      PUSH 40\t\t\tGame memory _game = games[_cid...\n      MLOAD \t\t\tGame memory _game = games[_cid...\n      SWAP1 \t\t\tGame memory _game = games[_cid...\n      DUP2 \t\t\tGame memory _game = games[_cid...\n      ADD \t\t\tGame memory _game = games[_cid...\n      PUSH 40\t\t\tGame memory _game = games[_cid...\n      MSTORE \t\t\tGame memory _game = games[_cid...\n      DUP1 \t\t\tGame memory _game = games[_cid...\n      SWAP3 \t\t\tGame memory _game = games[_cid...\n      SWAP2 \t\t\tGame memory _game = games[_cid...\n      SWAP1 \t\t\tGame memory _game = games[_cid...\n      DUP2 \t\t\tGame memory _game = games[_cid...\n      DUP2 \t\t\tGame memory _game = games[_cid...\n      MSTORE \t\t\tGame memory _game = games[_cid...\n      PUSH 20\t\t\tGame memory _game = games[_cid...\n      ADD \t\t\tGame memory _game = games[_cid...\n      DUP3 \t\t\tGame memory _game = games[_cid...\n      DUP1 \t\t\tGame memory _game = games[_cid...\n      SLOAD \t\t\tGame memory _game = games[_cid...\n      PUSH [tag] 98\t\t\tGame memory _game = games[_cid...\n      SWAP1 \t\t\tGame memory _game = games[_cid...\n      PUSH [tag] 87\t\t\tGame memory _game = games[_cid...\n      JUMP \t\t\tGame memory _game = games[_cid...\n    tag 98\t\t\tGame memory _game = games[_cid...\n      JUMPDEST \t\t\tGame memory _game = games[_cid...\n      DUP1 \t\t\tGame memory _game = games[_cid...\n      ISZERO \t\t\tGame memory _game = games[_cid...\n      PUSH [tag] 99\t\t\tGame memory _game = games[_cid...\n      JUMPI \t\t\tGame memory _game = games[_cid...\n      DUP1 \t\t\tGame memory _game = games[_cid...\n      PUSH 1F\t\t\tGame memory _game = games[_cid...\n      LT \t\t\tGame memory _game = games[_cid...\n      PUSH [tag] 100\t\t\tGame memory _game = games[_cid...\n      JUMPI \t\t\tGame memory _game = games[_cid...\n      PUSH 100\t\t\tGame memory _game = games[_cid...\n      DUP1 \t\t\tGame memory _game = games[_cid...\n      DUP4 \t\t\tGame memory _game = games[_cid...\n      SLOAD \t\t\tGame memory _game = games[_cid...\n      DIV \t\t\tGame memory _game = games[_cid...\n      MUL \t\t\tGame memory _game = games[_cid...\n      DUP4 \t\t\tGame memory _game = games[_cid...\n      MSTORE \t\t\tGame memory _game = games[_cid...\n      SWAP2 \t\t\tGame memory _game = games[_cid...\n      PUSH 20\t\t\tGame memory _game = games[_cid...\n      ADD \t\t\tGame memory _game = games[_cid...\n      SWAP2 \t\t\tGame memory _game = games[_cid...\n      PUSH [tag] 99\t\t\tGame memory _game = games[_cid...\n      JUMP \t\t\tGame memory _game = games[_cid...\n    tag 100\t\t\tGame memory _game = games[_cid...\n      JUMPDEST \t\t\tGame memory _game = games[_cid...\n      DUP3 \t\t\tGame memory _game = games[_cid...\n      ADD \t\t\tGame memory _game = games[_cid...\n      SWAP2 \t\t\tGame memory _game = games[_cid...\n      SWAP1 \t\t\tGame memory _game = games[_cid...\n      PUSH 0\t\t\tGame memory _game = games[_cid...\n      MSTORE \t\t\tGame memory _game = games[_cid...\n      PUSH 20\t\t\tGame memory _game = games[_cid...\n      PUSH 0\t\t\tGame memory _game = games[_cid...\n      KECCAK256 \t\t\tGame memory _game = games[_cid...\n      SWAP1 \t\t\tGame memory _game = games[_cid...\n    tag 101\t\t\tGame memory _game = games[_cid...\n      JUMPDEST \t\t\tGame memory _game = games[_cid...\n      DUP2 \t\t\tGame memory _game = games[_cid...\n      SLOAD \t\t\tGame memory _game = games[_cid...\n      DUP2 \t\t\tGame memory _game = games[_cid...\n      MSTORE \t\t\tGame memory _game = games[_cid...\n      SWAP1 \t\t\tGame memory _game = games[_cid...\n      PUSH 1\t\t\tGame memory _game = games[_cid...\n      ADD \t\t\tGame memory _game = games[_cid...\n      SWAP1 \t\t\tGame memory _game = games[_cid...\n      PUSH 20\t\t\tGame memory _game = games[_cid...\n      ADD \t\t\tGame memory _game = games[_cid...\n      DUP1 \t\t\tGame memory _game = games[_cid...\n      DUP4 \t\t\tGame memory _game = games[_cid...\n      GT \t\t\tGame memory _game = games[_cid...\n      PUSH [tag] 101\t\t\tGame memory _game = games[_cid...\n      JUMPI \t\t\tGame memory _game = games[_cid...\n      DUP3 \t\t\tGame memory _game = games[_cid...\n      SWAP1 \t\t\tGame memory _game = games[_cid...\n      SUB \t\t\tGame memory _game = games[_cid...\n      PUSH 1F\t\t\tGame memory _game = games[_cid...\n      AND \t\t\tGame memory _game = games[_cid...\n      DUP3 \t\t\tGame memory _game = games[_cid...\n      ADD \t\t\tGame memory _game = games[_cid...\n      SWAP2 \t\t\tGame memory _game = games[_cid...\n    tag 99\t\t\tGame memory _game = games[_cid...\n      JUMPDEST \t\t\tGame memory _game = games[_cid...\n      POP \t\t\tGame memory _game = games[_cid...\n      POP \t\t\tGame memory _game = games[_cid...\n      POP \t\t\tGame memory _game = games[_cid...\n      POP \t\t\tGame memory _game = games[_cid...\n      POP \t\t\tGame memory _game = games[_cid...\n      DUP2 \t\t\tGame memory _game = games[_cid...\n      MSTORE \t\t\tGame memory _game = games[_cid...\n      POP \t\t\tGame memory _game = games[_cid...\n      POP \t\t\tGame memory _game = games[_cid...\n      SWAP1 \t\t\tGame memory _game = games[_cid...\n      POP \t\t\tGame memory _game = games[_cid...\n      PUSH 0\t\t\t0\n      PUSH FFFFFFFFFFFFFFFFFFFFFFFFFFFFFFFFFFFFFFFF\t\t\t_game.creator == address(0)\n      AND \t\t\t_game.creator == address(0)\n      DUP2 \t\t\t_game\n      PUSH 0\t\t\t_game.creator\n      ADD \t\t\t_game.creator\n      MLOAD \t\t\t_game.creator\n      PUSH FFFFFFFFFFFFFFFFFFFFFFFFFFFFFFFFFFFFFFFF\t\t\t_game.creator == address(0)\n      AND \t\t\t_game.creator == address(0)\n      SUB \t\t\t_game.creator == address(0)\n      PUSH [tag] 102\t\t\tif (_game.creator == address(0...\n      JUMPI \t\t\tif (_game.creator == address(0...\n      PUSH 40\t\t\tInvalidGame()\n      MLOAD \t\t\tInvalidGame()\n      PUSH 57E25A0900000000000000000000000000000000000000000000000000000000\t\t\tInvalidGame()\n      DUP2 \t\t\tInvalidGame()\n      MSTORE \t\t\tInvalidGame()\n      PUSH 4\t\t\tInvalidGame()\n      ADD \t\t\tInvalidGame()\n      PUSH 40\t\t\tInvalidGame()\n      MLOAD \t\t\tInvalidGame()\n      DUP1 \t\t\tInvalidGame()\n      SWAP2 \t\t\tInvalidGame()\n      SUB \t\t\tInvalidGame()\n      SWAP1 \t\t\tInvalidGame()\n      REVERT \t\t\tInvalidGame()\n    tag 102\t\t\tif (_game.creator == address(0...\n      JUMPDEST \t\t\tif (_game.creator == address(0...\n      DUP1 \t\t\t_game\n      SWAP2 \t\t\treturn _game\n      POP \t\t\treturn _game\n      POP \t\t\treturn _game\n      SWAP2 \t\t\tfunction getGameByCid(string m...\n      SWAP1 \t\t\tfunction getGameByCid(string m...\n      POP \t\t\tfunction getGameByCid(string m...\n      JUMP \t\t\tfunction getGameByCid(string m...\n    tag 32\t\t\tfunction getTokenAddressByCid(...\n      JUMPDEST \t\t\tfunction getTokenAddressByCid(...\n      PUSH 0\t\t\taddress\n      PUSH 2\t\t\tgames\n      DUP3 \t\t\t_cid\n      PUSH 40\t\t\tgames[_cid]\n      MLOAD \t\t\tgames[_cid]\n      PUSH [tag] 104\t\t\tgames[_cid]\n      SWAP2 \t\t\tgames[_cid]\n      SWAP1 \t\t\tgames[_cid]\n      PUSH [tag] 53\t\t\tgames[_cid]\n      JUMP \t\t\tgames[_cid]\n    tag 104\t\t\tgames[_cid]\n      JUMPDEST \t\t\tgames[_cid]\n      SWAP1 \t\t\tgames[_cid]\n      DUP2 \t\t\tgames[_cid]\n      MSTORE \t\t\tgames[_cid]\n      PUSH 20\t\t\tgames[_cid]\n      ADD \t\t\tgames[_cid]\n      PUSH 40\t\t\tgames[_cid]\n      MLOAD \t\t\tgames[_cid]\n      DUP1 \t\t\tgames[_cid]\n      SWAP2 \t\t\tgames[_cid]\n      SUB \t\t\tgames[_cid]\n      SWAP1 \t\t\tgames[_cid]\n      KECCAK256 \t\t\tgames[_cid]\n      PUSH 2\t\t\tgames[_cid].token\n      ADD \t\t\tgames[_cid].token\n      PUSH 0\t\t\tgames[_cid].token\n      SWAP1 \t\t\tgames[_cid].token\n      SLOAD \t\t\tgames[_cid].token\n      SWAP1 \t\t\tgames[_cid].token\n      PUSH 100\t\t\tgames[_cid].token\n      EXP \t\t\tgames[_cid].token\n      SWAP1 \t\t\tgames[_cid].token\n      DIV \t\t\tgames[_cid].token\n      PUSH FFFFFFFFFFFFFFFFFFFFFFFFFFFFFFFFFFFFFFFF\t\t\tgames[_cid].token\n      AND \t\t\tgames[_cid].token\n      SWAP1 \t\t\treturn games[_cid].token\n      POP \t\t\treturn games[_cid].token\n      SWAP2 \t\t\tfunction getTokenAddressByCid(...\n      SWAP1 \t\t\tfunction getTokenAddressByCid(...\n      POP \t\t\tfunction getTokenAddressByCid(...\n      JUMP \t\t\tfunction getTokenAddressByCid(...\n    tag 37\t\t\tfunction withdrawCreatorFunds(...\n      JUMPDEST \t\t\tfunction withdrawCreatorFunds(...\n      PUSH 0\t\t\t0\n      PUSH 4\t\t\tcreatorbalance\n      PUSH 0\t\t\tcreatorbalance[msg.sender]\n      CALLER \t\t\tmsg.sender\n      PUSH FFFFFFFFFFFFFFFFFFFFFFFFFFFFFFFFFFFFFFFF\t\t\tcreatorbalance[msg.sender]\n      AND \t\t\tcreatorbalance[msg.sender]\n      PUSH FFFFFFFFFFFFFFFFFFFFFFFFFFFFFFFFFFFFFFFF\t\t\tcreatorbalance[msg.sender]\n      AND \t\t\tcreatorbalance[msg.sender]\n      DUP2 \t\t\tcreatorbalance[msg.sender]\n      MSTORE \t\t\tcreatorbalance[msg.sender]\n      PUSH 20\t\t\tcreatorbalance[msg.sender]\n      ADD \t\t\tcreatorbalance[msg.sender]\n      SWAP1 \t\t\tcreatorbalance[msg.sender]\n      DUP2 \t\t\tcreatorbalance[msg.sender]\n      MSTORE \t\t\tcreatorbalance[msg.sender]\n      PUSH 20\t\t\tcreatorbalance[msg.sender]\n      ADD \t\t\tcreatorbalance[msg.sender]\n      PUSH 0\t\t\tcreatorbalance[msg.sender]\n      KECCAK256 \t\t\tcreatorbalance[msg.sender]\n      SLOAD \t\t\tcreatorbalance[msg.sender]\n      SUB \t\t\tcreatorbalance[msg.sender] == ...\n      PUSH [tag] 106\t\t\tif (creatorbalance[msg.sender]...\n      JUMPI \t\t\tif (creatorbalance[msg.sender]...\n      PUSH 40\t\t\tInsufficientFunds()\n      MLOAD \t\t\tInsufficientFunds()\n      PUSH 356680B700000000000000000000000000000000000000000000000000000000\t\t\tInsufficientFunds()\n      DUP2 \t\t\tInsufficientFunds()\n      MSTORE \t\t\tInsufficientFunds()\n      PUSH 4\t\t\tInsufficientFunds()\n      ADD \t\t\tInsufficientFunds()\n      PUSH 40\t\t\tInsufficientFunds()\n      MLOAD \t\t\tInsufficientFunds()\n      DUP1 \t\t\tInsufficientFunds()\n      SWAP2 \t\t\tInsufficientFunds()\n      SUB \t\t\tInsufficientFunds()\n      SWAP1 \t\t\tInsufficientFunds()\n      REVERT \t\t\tInsufficientFunds()\n    tag 106\t\t\tif (creatorbalance[msg.sender]...\n      JUMPDEST \t\t\tif (creatorbalance[msg.sender]...\n      CALLER \t\t\tmsg.sender\n      PUSH FFFFFFFFFFFFFFFFFFFFFFFFFFFFFFFFFFFFFFFF\t\t\tpayable(msg.sender).transfer\n      AND \t\t\tpayable(msg.sender).transfer\n      PUSH 8FC\t\t\tpayable(msg.sender).transfer(c...\n      PUSH 4\t\t\tcreatorbalance\n      PUSH 0\t\t\tcreatorbalance[msg.sender]\n      CALLER \t\t\tmsg.sender\n      PUSH FFFFFFFFFFFFFFFFFFFFFFFFFFFFFFFFFFFFFFFF\t\t\tcreatorbalance[msg.sender]\n      AND \t\t\tcreatorbalance[msg.sender]\n      PUSH FFFFFFFFFFFFFFFFFFFFFFFFFFFFFFFFFFFFFFFF\t\t\tcreatorbalance[msg.sender]\n      AND \t\t\tcreatorbalance[msg.sender]\n      DUP2 \t\t\tcreatorbalance[msg.sender]\n      MSTORE \t\t\tcreatorbalance[msg.sender]\n      PUSH 20\t\t\tcreatorbalance[msg.sender]\n      ADD \t\t\tcreatorbalance[msg.sender]\n      SWAP1 \t\t\tcreatorbalance[msg.sender]\n      DUP2 \t\t\tcreatorbalance[msg.sender]\n      MSTORE \t\t\tcreatorbalance[msg.sender]\n      PUSH 20\t\t\tcreatorbalance[msg.sender]\n      ADD \t\t\tcreatorbalance[msg.sender]\n      PUSH 0\t\t\tcreatorbalance[msg.sender]\n      KECCAK256 \t\t\tcreatorbalance[msg.sender]\n      SLOAD \t\t\tcreatorbalance[msg.sender]\n      SWAP1 \t\t\tpayable(msg.sender).transfer(c...\n      DUP2 \t\t\tpayable(msg.sender).transfer(c...\n      ISZERO \t\t\tpayable(msg.sender).transfer(c...\n      MUL \t\t\tpayable(msg.sender).transfer(c...\n      SWAP1 \t\t\tpayable(msg.sender).transfer(c...\n      PUSH 40\t\t\tpayable(msg.sender).transfer(c...\n      MLOAD \t\t\tpayable(msg.sender).transfer(c...\n      PUSH 0\t\t\tpayable(msg.sender).transfer(c...\n      PUSH 40\t\t\tpayable(msg.sender).transfer(c...\n      MLOAD \t\t\tpayable(msg.sender).transfer(c...\n      DUP1 \t\t\tpayable(msg.sender).transfer(c...\n      DUP4 \t\t\tpayable(msg.sender).transfer(c...\n      SUB \t\t\tpayable(msg.sender).transfer(c...\n      DUP2 \t\t\tpayable(msg.sender).transfer(c...\n      DUP6 \t\t\tpayable(msg.sender).transfer(c...\n      DUP9 \t\t\tpayable(msg.sender).transfer(c...\n      DUP9 \t\t\tpayable(msg.sender).transfer(c...\n      CALL \t\t\tpayable(msg.sender).transfer(c...\n      SWAP4 \t\t\tpayable(msg.sender).transfer(c...\n      POP \t\t\tpayable(msg.sender).transfer(c...\n      POP \t\t\tpayable(msg.sender).transfer(c...\n      POP \t\t\tpayable(msg.sender).transfer(c...\n      POP \t\t\tpayable(msg.sender).transfer(c...\n      ISZERO \t\t\tpayable(msg.sender).transfer(c...\n      DUP1 \t\t\tpayable(msg.sender).transfer(c...\n      ISZERO \t\t\tpayable(msg.sender).transfer(c...\n      PUSH [tag] 108\t\t\tpayable(msg.sender).transfer(c...\n      JUMPI \t\t\tpayable(msg.sender).transfer(c...\n      RETURNDATASIZE \t\t\tpayable(msg.sender).transfer(c...\n      PUSH 0\t\t\tpayable(msg.sender).transfer(c...\n      DUP1 \t\t\tpayable(msg.sender).transfer(c...\n      RETURNDATACOPY \t\t\tpayable(msg.sender).transfer(c...\n      RETURNDATASIZE \t\t\tpayable(msg.sender).transfer(c...\n      PUSH 0\t\t\tpayable(msg.sender).transfer(c...\n      REVERT \t\t\tpayable(msg.sender).transfer(c...\n    tag 108\t\t\tpayable(msg.sender).transfer(c...\n      JUMPDEST \t\t\tpayable(msg.sender).transfer(c...\n      POP \t\t\tpayable(msg.sender).transfer(c...\n      PUSH 0\t\t\t0\n      PUSH 4\t\t\tcreatorbalance\n      PUSH 0\t\t\tcreatorbalance[msg.sender]\n      CALLER \t\t\tmsg.sender\n      PUSH FFFFFFFFFFFFFFFFFFFFFFFFFFFFFFFFFFFFFFFF\t\t\tcreatorbalance[msg.sender]\n      AND \t\t\tcreatorbalance[msg.sender]\n      PUSH FFFFFFFFFFFFFFFFFFFFFFFFFFFFFFFFFFFFFFFF\t\t\tcreatorbalance[msg.sender]\n      AND \t\t\tcreatorbalance[msg.sender]\n      DUP2 \t\t\tcreatorbalance[msg.sender]\n      MSTORE \t\t\tcreatorbalance[msg.sender]\n      PUSH 20\t\t\tcreatorbalance[msg.sender]\n      ADD \t\t\tcreatorbalance[msg.sender]\n      SWAP1 \t\t\tcreatorbalance[msg.sender]\n      DUP2 \t\t\tcreatorbalance[msg.sender]\n      MSTORE \t\t\tcreatorbalance[msg.sender]\n      PUSH 20\t\t\tcreatorbalance[msg.sender]\n      ADD \t\t\tcreatorbalance[msg.sender]\n      PUSH 0\t\t\tcreatorbalance[msg.sender]\n      KECCAK256 \t\t\tcreatorbalance[msg.sender]\n      DUP2 \t\t\tcreatorbalance[msg.sender] = 0\n      SWAP1 \t\t\tcreatorbalance[msg.sender] = 0\n      SSTORE \t\t\tcreatorbalance[msg.sender] = 0\n      POP \t\t\tcreatorbalance[msg.sender] = 0\n      CALLER \t\t\tmsg.sender\n      PUSH FFFFFFFFFFFFFFFFFFFFFFFFFFFFFFFFFFFFFFFF\t\t\tCreatorFundsWithdrawn(msg.send...\n      AND \t\t\tCreatorFundsWithdrawn(msg.send...\n      PUSH C43456380866B66F35F174AB56EFABBEB1145C4BBF6FE8047C2590E378346EF7\t\t\tCreatorFundsWithdrawn(msg.send...\n      PUSH 40\t\t\tCreatorFundsWithdrawn(msg.send...\n      MLOAD \t\t\tCreatorFundsWithdrawn(msg.send...\n      PUSH 40\t\t\tCreatorFundsWithdrawn(msg.send...\n      MLOAD \t\t\tCreatorFundsWithdrawn(msg.send...\n      DUP1 \t\t\tCreatorFundsWithdrawn(msg.send...\n      SWAP2 \t\t\tCreatorFundsWithdrawn(msg.send...\n      SUB \t\t\tCreatorFundsWithdrawn(msg.send...\n      SWAP1 \t\t\tCreatorFundsWithdrawn(msg.send...\n      LOG2 \t\t\tCreatorFundsWithdrawn(msg.send...\n      JUMP \t\t\tfunction withdrawCreatorFunds(...\n    tag 40\t\t\tfunction getGames() external v...\n      JUMPDEST \t\t\tfunction getGames() external v...\n      PUSH 60\t\t\tGame[] memory\n      PUSH 0\t\t\tGame[] memory _games\n      PUSH 3\t\t\tcids\n      DUP1 \t\t\tcids.length\n      SLOAD \t\t\tcids.length\n      SWAP1 \t\t\tcids.length\n      POP \t\t\tcids.length\n      PUSH FFFFFFFFFFFFFFFF\t\t\tnew Game[](cids.length)\n      DUP2 \t\t\tnew Game[](cids.length)\n      GT \t\t\tnew Game[](cids.length)\n      ISZERO \t\t\tnew Game[](cids.length)\n      PUSH [tag] 110\t\t\tnew Game[](cids.length)\n      JUMPI \t\t\tnew Game[](cids.length)\n      PUSH [tag] 111\t\t\tnew Game[](cids.length)\n      PUSH [tag] 112\t\t\tnew Game[](cids.length)\n      JUMP \t\t\tnew Game[](cids.length)\n    tag 111\t\t\tnew Game[](cids.length)\n      JUMPDEST \t\t\tnew Game[](cids.length)\n    tag 110\t\t\tnew Game[](cids.length)\n      JUMPDEST \t\t\tnew Game[](cids.length)\n      PUSH 40\t\t\tnew Game[](cids.length)\n      MLOAD \t\t\tnew Game[](cids.length)\n      SWAP1 \t\t\tnew Game[](cids.length)\n      DUP1 \t\t\tnew Game[](cids.length)\n      DUP3 \t\t\tnew Game[](cids.length)\n      MSTORE \t\t\tnew Game[](cids.length)\n      DUP1 \t\t\tnew Game[](cids.length)\n      PUSH 20\t\t\tnew Game[](cids.length)\n      MUL \t\t\tnew Game[](cids.length)\n      PUSH 20\t\t\tnew Game[](cids.length)\n      ADD \t\t\tnew Game[](cids.length)\n      DUP3 \t\t\tnew Game[](cids.length)\n      ADD \t\t\tnew Game[](cids.length)\n      PUSH 40\t\t\tnew Game[](cids.length)\n      MSTORE \t\t\tnew Game[](cids.length)\n      DUP1 \t\t\tnew Game[](cids.length)\n      ISZERO \t\t\tnew Game[](cids.length)\n      PUSH [tag] 113\t\t\tnew Game[](cids.length)\n      JUMPI \t\t\tnew Game[](cids.length)\n      DUP2 \t\t\tnew Game[](cids.length)\n      PUSH 20\t\t\tnew Game[](cids.length)\n      ADD \t\t\tnew Game[](cids.length)\n    tag 114\t\t\tnew Game[](cids.length)\n      JUMPDEST \t\t\tnew Game[](cids.length)\n      PUSH [tag] 115\t\t\tnew Game[](cids.length)\n      PUSH [tag] 83\t\t\tnew Game[](cids.length)\n      JUMP \t\t\tnew Game[](cids.length)\n    tag 115\t\t\tnew Game[](cids.length)\n      JUMPDEST \t\t\tnew Game[](cids.length)\n      DUP2 \t\t\tnew Game[](cids.length)\n      MSTORE \t\t\tnew Game[](cids.length)\n      PUSH 20\t\t\tnew Game[](cids.length)\n      ADD \t\t\tnew Game[](cids.length)\n      SWAP1 \t\t\tnew Game[](cids.length)\n      PUSH 1\t\t\tnew Game[](cids.length)\n      SWAP1 \t\t\tnew Game[](cids.length)\n      SUB \t\t\tnew Game[](cids.length)\n      SWAP1 \t\t\tnew Game[](cids.length)\n      DUP2 \t\t\tnew Game[](cids.length)\n      PUSH [tag] 114\t\t\tnew Game[](cids.length)\n      JUMPI \t\t\tnew Game[](cids.length)\n      SWAP1 \t\t\tnew Game[](cids.length)\n      POP \t\t\tnew Game[](cids.length)\n    tag 113\t\t\tnew Game[](cids.length)\n      JUMPDEST \t\t\tnew Game[](cids.length)\n      POP \t\t\tnew Game[](cids.length)\n      SWAP1 \t\t\tGame[] memory _games = new Gam...\n      POP \t\t\tGame[] memory _games = new Gam...\n      PUSH 0\t\t\tuint256 i\n    tag 116\t\t\tfor (uint256 i = 0; i < cids.l...\n      JUMPDEST \t\t\tfor (uint256 i = 0; i < cids.l...\n      PUSH 3\t\t\tcids\n      DUP1 \t\t\tcids.length\n      SLOAD \t\t\tcids.length\n      SWAP1 \t\t\tcids.length\n      POP \t\t\tcids.length\n      DUP2 \t\t\ti\n      LT \t\t\ti < cids.length\n      ISZERO \t\t\tfor (uint256 i = 0; i < cids.l...\n      PUSH [tag] 117\t\t\tfor (uint256 i = 0; i < cids.l...\n      JUMPI \t\t\tfor (uint256 i = 0; i < cids.l...\n      PUSH 2\t\t\tgames\n      PUSH 3\t\t\tcids\n      DUP3 \t\t\ti\n      DUP2 \t\t\tcids[i]\n      SLOAD \t\t\tcids[i]\n      DUP2 \t\t\tcids[i]\n      LT \t\t\tcids[i]\n      PUSH [tag] 119\t\t\tcids[i]\n      JUMPI \t\t\tcids[i]\n      PUSH [tag] 120\t\t\tcids[i]\n      PUSH [tag] 121\t\t\tcids[i]\n      JUMP \t\t\tcids[i]\n    tag 120\t\t\tcids[i]\n      JUMPDEST \t\t\tcids[i]\n    tag 119\t\t\tcids[i]\n      JUMPDEST \t\t\tcids[i]\n      SWAP1 \t\t\tcids[i]\n      PUSH 0\t\t\tcids[i]\n      MSTORE \t\t\tcids[i]\n      PUSH 20\t\t\tcids[i]\n      PUSH 0\t\t\tcids[i]\n      KECCAK256 \t\t\tcids[i]\n      ADD \t\t\tcids[i]\n      PUSH 40\t\t\tgames[cids[i]]\n      MLOAD \t\t\tgames[cids[i]]\n      PUSH [tag] 123\t\t\tgames[cids[i]]\n      SWAP2 \t\t\tgames[cids[i]]\n      SWAP1 \t\t\tgames[cids[i]]\n      PUSH [tag] 124\t\t\tgames[cids[i]]\n      JUMP \t\t\tgames[cids[i]]\n    tag 123\t\t\tgames[cids[i]]\n      JUMPDEST \t\t\tgames[cids[i]]\n      SWAP1 \t\t\tgames[cids[i]]\n      DUP2 \t\t\tgames[cids[i]]\n      MSTORE \t\t\tgames[cids[i]]\n      PUSH 20\t\t\tgames[cids[i]]\n      ADD \t\t\tgames[cids[i]]\n      PUSH 40\t\t\tgames[cids[i]]\n      MLOAD \t\t\tgames[cids[i]]\n      DUP1 \t\t\tgames[cids[i]]\n      SWAP2 \t\t\tgames[cids[i]]\n      SUB \t\t\tgames[cids[i]]\n      SWAP1 \t\t\tgames[cids[i]]\n      KECCAK256 \t\t\tgames[cids[i]]\n      PUSH 40\t\t\t_games[i] = games[cids[i]]\n      MLOAD \t\t\t_games[i] = games[cids[i]]\n      DUP1 \t\t\t_games[i] = games[cids[i]]\n      PUSH C0\t\t\t_games[i] = games[cids[i]]\n      ADD \t\t\t_games[i] = games[cids[i]]\n      PUSH 40\t\t\t_games[i] = games[cids[i]]\n      MSTORE \t\t\t_games[i] = games[cids[i]]\n      SWAP1 \t\t\t_games[i] = games[cids[i]]\n      DUP2 \t\t\t_games[i] = games[cids[i]]\n      PUSH 0\t\t\t_games[i] = games[cids[i]]\n      DUP3 \t\t\t_games[i] = games[cids[i]]\n      ADD \t\t\t_games[i] = games[cids[i]]\n      PUSH 0\t\t\t_games[i] = games[cids[i]]\n      SWAP1 \t\t\t_games[i] = games[cids[i]]\n      SLOAD \t\t\t_games[i] = games[cids[i]]\n      SWAP1 \t\t\t_games[i] = games[cids[i]]\n      PUSH 100\t\t\t_games[i] = games[cids[i]]\n      EXP \t\t\t_games[i] = games[cids[i]]\n      SWAP1 \t\t\t_games[i] = games[cids[i]]\n      DIV \t\t\t_games[i] = games[cids[i]]\n      PUSH FFFFFFFFFFFFFFFFFFFFFFFFFFFFFFFFFFFFFFFF\t\t\t_games[i] = games[cids[i]]\n      AND \t\t\t_games[i] = games[cids[i]]\n      PUSH FFFFFFFFFFFFFFFFFFFFFFFFFFFFFFFFFFFFFFFF\t\t\t_games[i] = games[cids[i]]\n      AND \t\t\t_games[i] = games[cids[i]]\n      PUSH FFFFFFFFFFFFFFFFFFFFFFFFFFFFFFFFFFFFFFFF\t\t\t_games[i] = games[cids[i]]\n      AND \t\t\t_games[i] = games[cids[i]]\n      DUP2 \t\t\t_games[i] = games[cids[i]]\n      MSTORE \t\t\t_games[i] = games[cids[i]]\n      PUSH 20\t\t\t_games[i] = games[cids[i]]\n      ADD \t\t\t_games[i] = games[cids[i]]\n      PUSH 1\t\t\t_games[i] = games[cids[i]]\n      DUP3 \t\t\t_games[i] = games[cids[i]]\n      ADD \t\t\t_games[i] = games[cids[i]]\n      DUP1 \t\t\t_games[i] = games[cids[i]]\n      SLOAD \t\t\t_games[i] = games[cids[i]]\n      PUSH [tag] 125\t\t\t_games[i] = games[cids[i]]\n      SWAP1 \t\t\t_games[i] = games[cids[i]]\n      PUSH [tag] 87\t\t\t_games[i] = games[cids[i]]\n      JUMP \t\t\t_games[i] = games[cids[i]]\n    tag 125\t\t\t_games[i] = games[cids[i]]\n      JUMPDEST \t\t\t_games[i] = games[cids[i]]\n      DUP1 \t\t\t_games[i] = games[cids[i]]\n      PUSH 1F\t\t\t_games[i] = games[cids[i]]\n      ADD \t\t\t_games[i] = games[cids[i]]\n      PUSH 20\t\t\t_games[i] = games[cids[i]]\n      DUP1 \t\t\t_games[i] = games[cids[i]]\n      SWAP2 \t\t\t_games[i] = games[cids[i]]\n      DIV \t\t\t_games[i] = games[cids[i]]\n      MUL \t\t\t_games[i] = games[cids[i]]\n      PUSH 20\t\t\t_games[i] = games[cids[i]]\n      ADD \t\t\t_games[i] = games[cids[i]]\n      PUSH 40\t\t\t_games[i] = games[cids[i]]\n      MLOAD \t\t\t_games[i] = games[cids[i]]\n      SWAP1 \t\t\t_games[i] = games[cids[i]]\n      DUP2 \t\t\t_games[i] = games[cids[i]]\n      ADD \t\t\t_games[i] = games[cids[i]]\n      PUSH 40\t\t\t_games[i] = games[cids[i]]\n      MSTORE \t\t\t_games[i] = games[cids[i]]\n      DUP1 \t\t\t_games[i] = games[cids[i]]\n      SWAP3 \t\t\t_games[i] = games[cids[i]]\n      SWAP2 \t\t\t_games[i] = games[cids[i]]\n      SWAP1 \t\t\t_games[i] = games[cids[i]]\n      DUP2 \t\t\t_games[i] = games[cids[i]]\n      DUP2 \t\t\t_games[i] = games[cids[i]]\n      MSTORE \t\t\t_games[i] = games[cids[i]]\n      PUSH 20\t\t\t_games[i] = games[cids[i]]\n      ADD \t\t\t_games[i] = games[cids[i]]\n      DUP3 \t\t\t_games[i] = games[cids[i]]\n      DUP1 \t\t\t_games[i] = games[cids[i]]\n      SLOAD \t\t\t_games[i] = games[cids[i]]\n      PUSH [tag] 126\t\t\t_games[i] = games[cids[i]]\n      SWAP1 \t\t\t_games[i] = games[cids[i]]\n      PUSH [tag] 87\t\t\t_games[i] = games[cids[i]]\n      JUMP \t\t\t_games[i] = games[cids[i]]\n    tag 126\t\t\t_games[i] = games[cids[i]]\n      JUMPDEST \t\t\t_games[i] = games[cids[i]]\n      DUP1 \t\t\t_games[i] = games[cids[i]]\n      ISZERO \t\t\t_games[i] = games[cids[i]]\n      PUSH [tag] 127\t\t\t_games[i] = games[cids[i]]\n      JUMPI \t\t\t_games[i] = games[cids[i]]\n      DUP1 \t\t\t_games[i] = games[cids[i]]\n      PUSH 1F\t\t\t_games[i] = games[cids[i]]\n      LT \t\t\t_games[i] = games[cids[i]]\n      PUSH [tag] 128\t\t\t_games[i] = games[cids[i]]\n      JUMPI \t\t\t_games[i] = games[cids[i]]\n      PUSH 100\t\t\t_games[i] = games[cids[i]]\n      DUP1 \t\t\t_games[i] = games[cids[i]]\n      DUP4 \t\t\t_games[i] = games[cids[i]]\n      SLOAD \t\t\t_games[i] = games[cids[i]]\n      DIV \t\t\t_games[i] = games[cids[i]]\n      MUL \t\t\t_games[i] = games[cids[i]]\n      DUP4 \t\t\t_games[i] = games[cids[i]]\n      MSTORE \t\t\t_games[i] = games[cids[i]]\n      SWAP2 \t\t\t_games[i] = games[cids[i]]\n      PUSH 20\t\t\t_games[i] = games[cids[i]]\n      ADD \t\t\t_games[i] = games[cids[i]]\n      SWAP2 \t\t\t_games[i] = games[cids[i]]\n      PUSH [tag] 127\t\t\t_games[i] = games[cids[i]]\n      JUMP \t\t\t_games[i] = games[cids[i]]\n    tag 128\t\t\t_games[i] = games[cids[i]]\n      JUMPDEST \t\t\t_games[i] = games[cids[i]]\n      DUP3 \t\t\t_games[i] = games[cids[i]]\n      ADD \t\t\t_games[i] = games[cids[i]]\n      SWAP2 \t\t\t_games[i] = games[cids[i]]\n      SWAP1 \t\t\t_games[i] = games[cids[i]]\n      PUSH 0\t\t\t_games[i] = games[cids[i]]\n      MSTORE \t\t\t_games[i] = games[cids[i]]\n      PUSH 20\t\t\t_games[i] = games[cids[i]]\n      PUSH 0\t\t\t_games[i] = games[cids[i]]\n      KECCAK256 \t\t\t_games[i] = games[cids[i]]\n      SWAP1 \t\t\t_games[i] = games[cids[i]]\n    tag 129\t\t\t_games[i] = games[cids[i]]\n      JUMPDEST \t\t\t_games[i] = games[cids[i]]\n      DUP2 \t\t\t_games[i] = games[cids[i]]\n      SLOAD \t\t\t_games[i] = games[cids[i]]\n      DUP2 \t\t\t_games[i] = games[cids[i]]\n      MSTORE \t\t\t_games[i] = games[cids[i]]\n      SWAP1 \t\t\t_games[i] = games[cids[i]]\n      PUSH 1\t\t\t_games[i] = games[cids[i]]\n      ADD \t\t\t_games[i] = games[cids[i]]\n      SWAP1 \t\t\t_games[i] = games[cids[i]]\n      PUSH 20\t\t\t_games[i] = games[cids[i]]\n      ADD \t\t\t_games[i] = games[cids[i]]\n      DUP1 \t\t\t_games[i] = games[cids[i]]\n      DUP4 \t\t\t_games[i] = games[cids[i]]\n      GT \t\t\t_games[i] = games[cids[i]]\n      PUSH [tag] 129\t\t\t_games[i] = games[cids[i]]\n      JUMPI \t\t\t_games[i] = games[cids[i]]\n      DUP3 \t\t\t_games[i] = games[cids[i]]\n      SWAP1 \t\t\t_games[i] = games[cids[i]]\n      SUB \t\t\t_games[i] = games[cids[i]]\n      PUSH 1F\t\t\t_games[i] = games[cids[i]]\n      AND \t\t\t_games[i] = games[cids[i]]\n      DUP3 \t\t\t_games[i] = games[cids[i]]\n      ADD \t\t\t_games[i] = games[cids[i]]\n      SWAP2 \t\t\t_games[i] = games[cids[i]]\n    tag 127\t\t\t_games[i] = games[cids[i]]\n      JUMPDEST \t\t\t_games[i] = games[cids[i]]\n      POP \t\t\t_games[i] = games[cids[i]]\n      POP \t\t\t_games[i] = games[cids[i]]\n      POP \t\t\t_games[i] = games[cids[i]]\n      POP \t\t\t_games[i] = games[cids[i]]\n      POP \t\t\t_games[i] = games[cids[i]]\n      DUP2 \t\t\t_games[i] = games[cids[i]]\n      MSTORE \t\t\t_games[i] = games[cids[i]]\n      PUSH 20\t\t\t_games[i] = games[cids[i]]\n      ADD \t\t\t_games[i] = games[cids[i]]\n      PUSH 2\t\t\t_games[i] = games[cids[i]]\n      DUP3 \t\t\t_games[i] = games[cids[i]]\n      ADD \t\t\t_games[i] = games[cids[i]]\n      PUSH 0\t\t\t_games[i] = games[cids[i]]\n      SWAP1 \t\t\t_games[i] = games[cids[i]]\n      SLOAD \t\t\t_games[i] = games[cids[i]]\n      SWAP1 \t\t\t_games[i] = games[cids[i]]\n      PUSH 100\t\t\t_games[i] = games[cids[i]]\n      EXP \t\t\t_games[i] = games[cids[i]]\n      SWAP1 \t\t\t_games[i] = games[cids[i]]\n      DIV \t\t\t_games[i] = games[cids[i]]\n      PUSH FFFFFFFFFFFFFFFFFFFFFFFFFFFFFFFFFFFFFFFF\t\t\t_games[i] = games[cids[i]]\n      AND \t\t\t_games[i] = games[cids[i]]\n      PUSH FFFFFFFFFFFFFFFFFFFFFFFFFFFFFFFFFFFFFFFF\t\t\t_games[i] = games[cids[i]]\n      AND \t\t\t_games[i] = games[cids[i]]\n      PUSH FFFFFFFFFFFFFFFFFFFFFFFFFFFFFFFFFFFFFFFF\t\t\t_games[i] = games[cids[i]]\n      AND \t\t\t_games[i] = games[cids[i]]\n      DUP2 \t\t\t_games[i] = games[cids[i]]\n      MSTORE \t\t\t_games[i] = games[cids[i]]\n      PUSH 20\t\t\t_games[i] = games[cids[i]]\n      ADD \t\t\t_games[i] = games[cids[i]]\n      PUSH 3\t\t\t_games[i] = games[cids[i]]\n      DUP3 \t\t\t_games[i] = games[cids[i]]\n      ADD \t\t\t_games[i] = games[cids[i]]\n      DUP1 \t\t\t_games[i] = games[cids[i]]\n      SLOAD \t\t\t_games[i] = games[cids[i]]\n      PUSH [tag] 130\t\t\t_games[i] = games[cids[i]]\n      SWAP1 \t\t\t_games[i] = games[cids[i]]\n      PUSH [tag] 87\t\t\t_games[i] = games[cids[i]]\n      JUMP \t\t\t_games[i] = games[cids[i]]\n    tag 130\t\t\t_games[i] = games[cids[i]]\n      JUMPDEST \t\t\t_games[i] = games[cids[i]]\n      DUP1 \t\t\t_games[i] = games[cids[i]]\n      PUSH 1F\t\t\t_games[i] = games[cids[i]]\n      ADD \t\t\t_games[i] = games[cids[i]]\n      PUSH 20\t\t\t_games[i] = games[cids[i]]\n      DUP1 \t\t\t_games[i] = games[cids[i]]\n      SWAP2 \t\t\t_games[i] = games[cids[i]]\n      DIV \t\t\t_games[i] = games[cids[i]]\n      MUL \t\t\t_games[i] = games[cids[i]]\n      PUSH 20\t\t\t_games[i] = games[cids[i]]\n      ADD \t\t\t_games[i] = games[cids[i]]\n      PUSH 40\t\t\t_games[i] = games[cids[i]]\n      MLOAD \t\t\t_games[i] = games[cids[i]]\n      SWAP1 \t\t\t_games[i] = games[cids[i]]\n      DUP2 \t\t\t_games[i] = games[cids[i]]\n      ADD \t\t\t_games[i] = games[cids[i]]\n      PUSH 40\t\t\t_games[i] = games[cids[i]]\n      MSTORE \t\t\t_games[i] = games[cids[i]]\n      DUP1 \t\t\t_games[i] = games[cids[i]]\n      SWAP3 \t\t\t_games[i] = games[cids[i]]\n      SWAP2 \t\t\t_games[i] = games[cids[i]]\n      SWAP1 \t\t\t_games[i] = games[cids[i]]\n      DUP2 \t\t\t_games[i] = games[cids[i]]\n      DUP2 \t\t\t_games[i] = games[cids[i]]\n      MSTORE \t\t\t_games[i] = games[cids[i]]\n      PUSH 20\t\t\t_games[i] = games[cids[i]]\n      ADD \t\t\t_games[i] = games[cids[i]]\n      DUP3 \t\t\t_games[i] = games[cids[i]]\n      DUP1 \t\t\t_games[i] = games[cids[i]]\n      SLOAD \t\t\t_games[i] = games[cids[i]]\n      PUSH [tag] 131\t\t\t_games[i] = games[cids[i]]\n      SWAP1 \t\t\t_games[i] = games[cids[i]]\n      PUSH [tag] 87\t\t\t_games[i] = games[cids[i]]\n      JUMP \t\t\t_games[i] = games[cids[i]]\n    tag 131\t\t\t_games[i] = games[cids[i]]\n      JUMPDEST \t\t\t_games[i] = games[cids[i]]\n      DUP1 \t\t\t_games[i] = games[cids[i]]\n      ISZERO \t\t\t_games[i] = games[cids[i]]\n      PUSH [tag] 132\t\t\t_games[i] = games[cids[i]]\n      JUMPI \t\t\t_games[i] = games[cids[i]]\n      DUP1 \t\t\t_games[i] = games[cids[i]]\n      PUSH 1F\t\t\t_games[i] = games[cids[i]]\n      LT \t\t\t_games[i] = games[cids[i]]\n      PUSH [tag] 133\t\t\t_games[i] = games[cids[i]]\n      JUMPI \t\t\t_games[i] = games[cids[i]]\n      PUSH 100\t\t\t_games[i] = games[cids[i]]\n      DUP1 \t\t\t_games[i] = games[cids[i]]\n      DUP4 \t\t\t_games[i] = games[cids[i]]\n      SLOAD \t\t\t_games[i] = games[cids[i]]\n      DIV \t\t\t_games[i] = games[cids[i]]\n      MUL \t\t\t_games[i] = games[cids[i]]\n      DUP4 \t\t\t_games[i] = games[cids[i]]\n      MSTORE \t\t\t_games[i] = games[cids[i]]\n      SWAP2 \t\t\t_games[i] = games[cids[i]]\n      PUSH 20\t\t\t_games[i] = games[cids[i]]\n      ADD \t\t\t_games[i] = games[cids[i]]\n      SWAP2 \t\t\t_games[i] = games[cids[i]]\n      PUSH [tag] 132\t\t\t_games[i] = games[cids[i]]\n      JUMP \t\t\t_games[i] = games[cids[i]]\n    tag 133\t\t\t_games[i] = games[cids[i]]\n      JUMPDEST \t\t\t_games[i] = games[cids[i]]\n      DUP3 \t\t\t_games[i] = games[cids[i]]\n      ADD \t\t\t_games[i] = games[cids[i]]\n      SWAP2 \t\t\t_games[i] = games[cids[i]]\n      SWAP1 \t\t\t_games[i] = games[cids[i]]\n      PUSH 0\t\t\t_games[i] = games[cids[i]]\n      MSTORE \t\t\t_games[i] = games[cids[i]]\n      PUSH 20\t\t\t_games[i] = games[cids[i]]\n      PUSH 0\t\t\t_games[i] = games[cids[i]]\n      KECCAK256 \t\t\t_games[i] = games[cids[i]]\n      SWAP1 \t\t\t_games[i] = games[cids[i]]\n    tag 134\t\t\t_games[i] = games[cids[i]]\n      JUMPDEST \t\t\t_games[i] = games[cids[i]]\n      DUP2 \t\t\t_games[i] = games[cids[i]]\n      SLOAD \t\t\t_games[i] = games[cids[i]]\n      DUP2 \t\t\t_games[i] = games[cids[i]]\n      MSTORE \t\t\t_games[i] = games[cids[i]]\n      SWAP1 \t\t\t_games[i] = games[cids[i]]\n      PUSH 1\t\t\t_games[i] = games[cids[i]]\n      ADD \t\t\t_games[i] = games[cids[i]]\n      SWAP1 \t\t\t_games[i] = games[cids[i]]\n      PUSH 20\t\t\t_games[i] = games[cids[i]]\n      ADD \t\t\t_games[i] = games[cids[i]]\n      DUP1 \t\t\t_games[i] = games[cids[i]]\n      DUP4 \t\t\t_games[i] = games[cids[i]]\n      GT \t\t\t_games[i] = games[cids[i]]\n      PUSH [tag] 134\t\t\t_games[i] = games[cids[i]]\n      JUMPI \t\t\t_games[i] = games[cids[i]]\n      DUP3 \t\t\t_games[i] = games[cids[i]]\n      SWAP1 \t\t\t_games[i] = games[cids[i]]\n      SUB \t\t\t_games[i] = games[cids[i]]\n      PUSH 1F\t\t\t_games[i] = games[cids[i]]\n      AND \t\t\t_games[i] = games[cids[i]]\n      DUP3 \t\t\t_games[i] = games[cids[i]]\n      ADD \t\t\t_games[i] = games[cids[i]]\n      SWAP2 \t\t\t_games[i] = games[cids[i]]\n    tag 132\t\t\t_games[i] = games[cids[i]]\n      JUMPDEST \t\t\t_games[i] = games[cids[i]]\n      POP \t\t\t_games[i] = games[cids[i]]\n      POP \t\t\t_games[i] = games[cids[i]]\n      POP \t\t\t_games[i] = games[cids[i]]\n      POP \t\t\t_games[i] = games[cids[i]]\n      POP \t\t\t_games[i] = games[cids[i]]\n      DUP2 \t\t\t_games[i] = games[cids[i]]\n      MSTORE \t\t\t_games[i] = games[cids[i]]\n      PUSH 20\t\t\t_games[i] = games[cids[i]]\n      ADD \t\t\t_games[i] = games[cids[i]]\n      PUSH 4\t\t\t_games[i] = games[cids[i]]\n      DUP3 \t\t\t_games[i] = games[cids[i]]\n      ADD \t\t\t_games[i] = games[cids[i]]\n      SLOAD \t\t\t_games[i] = games[cids[i]]\n      DUP2 \t\t\t_games[i] = games[cids[i]]\n      MSTORE \t\t\t_games[i] = games[cids[i]]\n      PUSH 20\t\t\t_games[i] = games[cids[i]]\n      ADD \t\t\t_games[i] = games[cids[i]]\n      PUSH 5\t\t\t_games[i] = games[cids[i]]\n      DUP3 \t\t\t_games[i] = games[cids[i]]\n      ADD \t\t\t_games[i] = games[cids[i]]\n      DUP1 \t\t\t_games[i] = games[cids[i]]\n      SLOAD \t\t\t_games[i] = games[cids[i]]\n      PUSH [tag] 135\t\t\t_games[i] = games[cids[i]]\n      SWAP1 \t\t\t_games[i] = games[cids[i]]\n      PUSH [tag] 87\t\t\t_games[i] = games[cids[i]]\n      JUMP \t\t\t_games[i] = games[cids[i]]\n    tag 135\t\t\t_games[i] = games[cids[i]]\n      JUMPDEST \t\t\t_games[i] = games[cids[i]]\n      DUP1 \t\t\t_games[i] = games[cids[i]]\n      PUSH 1F\t\t\t_games[i] = games[cids[i]]\n      ADD \t\t\t_games[i] = games[cids[i]]\n      PUSH 20\t\t\t_games[i] = games[cids[i]]\n      DUP1 \t\t\t_games[i] = games[cids[i]]\n      SWAP2 \t\t\t_games[i] = games[cids[i]]\n      DIV \t\t\t_games[i] = games[cids[i]]\n      MUL \t\t\t_games[i] = games[cids[i]]\n      PUSH 20\t\t\t_games[i] = games[cids[i]]\n      ADD \t\t\t_games[i] = games[cids[i]]\n      PUSH 40\t\t\t_games[i] = games[cids[i]]\n      MLOAD \t\t\t_games[i] = games[cids[i]]\n      SWAP1 \t\t\t_games[i] = games[cids[i]]\n      DUP2 \t\t\t_games[i] = games[cids[i]]\n      ADD \t\t\t_games[i] = games[cids[i]]\n      PUSH 40\t\t\t_games[i] = games[cids[i]]\n      MSTORE \t\t\t_games[i] = games[cids[i]]\n      DUP1 \t\t\t_games[i] = games[cids[i]]\n      SWAP3 \t\t\t_games[i] = games[cids[i]]\n      SWAP2 \t\t\t_games[i] = games[cids[i]]\n      SWAP1 \t\t\t_games[i] = games[cids[i]]\n      DUP2 \t\t\t_games[i] = games[cids[i]]\n      DUP2 \t\t\t_games[i] = games[cids[i]]\n      MSTORE \t\t\t_games[i] = games[cids[i]]\n      PUSH 20\t\t\t_games[i] = games[cids[i]]\n      ADD \t\t\t_games[i] = games[cids[i]]\n      DUP3 \t\t\t_games[i] = games[cids[i]]\n      DUP1 \t\t\t_games[i] = games[cids[i]]\n      SLOAD \t\t\t_games[i] = games[cids[i]]\n      PUSH [tag] 136\t\t\t_games[i] = games[cids[i]]\n      SWAP1 \t\t\t_games[i] = games[cids[i]]\n      PUSH [tag] 87\t\t\t_games[i] = games[cids[i]]\n      JUMP \t\t\t_games[i] = games[cids[i]]\n    tag 136\t\t\t_games[i] = games[cids[i]]\n      JUMPDEST \t\t\t_games[i] = games[cids[i]]\n      DUP1 \t\t\t_games[i] = games[cids[i]]\n      ISZERO \t\t\t_games[i] = games[cids[i]]\n      PUSH [tag] 137\t\t\t_games[i] = games[cids[i]]\n      JUMPI \t\t\t_games[i] = games[cids[i]]\n      DUP1 \t\t\t_games[i] = games[cids[i]]\n      PUSH 1F\t\t\t_games[i] = games[cids[i]]\n      LT \t\t\t_games[i] = games[cids[i]]\n      PUSH [tag] 138\t\t\t_games[i] = games[cids[i]]\n      JUMPI \t\t\t_games[i] = games[cids[i]]\n      PUSH 100\t\t\t_games[i] = games[cids[i]]\n      DUP1 \t\t\t_games[i] = games[cids[i]]\n      DUP4 \t\t\t_games[i] = games[cids[i]]\n      SLOAD \t\t\t_games[i] = games[cids[i]]\n      DIV \t\t\t_games[i] = games[cids[i]]\n      MUL \t\t\t_games[i] = games[cids[i]]\n      DUP4 \t\t\t_games[i] = games[cids[i]]\n      MSTORE \t\t\t_games[i] = games[cids[i]]\n      SWAP2 \t\t\t_games[i] = games[cids[i]]\n      PUSH 20\t\t\t_games[i] = games[cids[i]]\n      ADD \t\t\t_games[i] = games[cids[i]]\n      SWAP2 \t\t\t_games[i] = games[cids[i]]\n      PUSH [tag] 137\t\t\t_games[i] = games[cids[i]]\n      JUMP \t\t\t_games[i] = games[cids[i]]\n    tag 138\t\t\t_games[i] = games[cids[i]]\n      JUMPDEST \t\t\t_games[i] = games[cids[i]]\n      DUP3 \t\t\t_games[i] = games[cids[i]]\n      ADD \t\t\t_games[i] = games[cids[i]]\n      SWAP2 \t\t\t_games[i] = games[cids[i]]\n      SWAP1 \t\t\t_games[i] = games[cids[i]]\n      PUSH 0\t\t\t_games[i] = games[cids[i]]\n      MSTORE \t\t\t_games[i] = games[cids[i]]\n      PUSH 20\t\t\t_games[i] = games[cids[i]]\n      PUSH 0\t\t\t_games[i] = games[cids[i]]\n      KECCAK256 \t\t\t_games[i] = games[cids[i]]\n      SWAP1 \t\t\t_games[i] = games[cids[i]]\n    tag 139\t\t\t_games[i] = games[cids[i]]\n      JUMPDEST \t\t\t_games[i] = games[cids[i]]\n      DUP2 \t\t\t_games[i] = games[cids[i]]\n      SLOAD \t\t\t_games[i] = games[cids[i]]\n      DUP2 \t\t\t_games[i] = games[cids[i]]\n      MSTORE \t\t\t_games[i] = games[cids[i]]\n      SWAP1 \t\t\t_games[i] = games[cids[i]]\n      PUSH 1\t\t\t_games[i] = games[cids[i]]\n      ADD \t\t\t_games[i] = games[cids[i]]\n      SWAP1 \t\t\t_games[i] = games[cids[i]]\n      PUSH 20\t\t\t_games[i] = games[cids[i]]\n      ADD \t\t\t_games[i] = games[cids[i]]\n      DUP1 \t\t\t_games[i] = games[cids[i]]\n      DUP4 \t\t\t_games[i] = games[cids[i]]\n      GT \t\t\t_games[i] = games[cids[i]]\n      PUSH [tag] 139\t\t\t_games[i] = games[cids[i]]\n      JUMPI \t\t\t_games[i] = games[cids[i]]\n      DUP3 \t\t\t_games[i] = games[cids[i]]\n      SWAP1 \t\t\t_games[i] = games[cids[i]]\n      SUB \t\t\t_games[i] = games[cids[i]]\n      PUSH 1F\t\t\t_games[i] = games[cids[i]]\n      AND \t\t\t_games[i] = games[cids[i]]\n      DUP3 \t\t\t_games[i] = games[cids[i]]\n      ADD \t\t\t_games[i] = games[cids[i]]\n      SWAP2 \t\t\t_games[i] = games[cids[i]]\n    tag 137\t\t\t_games[i] = games[cids[i]]\n      JUMPDEST \t\t\t_games[i] = games[cids[i]]\n      POP \t\t\t_games[i] = games[cids[i]]\n      POP \t\t\t_games[i] = games[cids[i]]\n      POP \t\t\t_games[i] = games[cids[i]]\n      POP \t\t\t_games[i] = games[cids[i]]\n      POP \t\t\t_games[i] = games[cids[i]]\n      DUP2 \t\t\t_games[i] = games[cids[i]]\n      MSTORE \t\t\t_games[i] = games[cids[i]]\n      POP \t\t\t_games[i] = games[cids[i]]\n      POP \t\t\t_games[i] = games[cids[i]]\n      DUP3 \t\t\t_games\n      DUP3 \t\t\ti\n      DUP2 \t\t\t_games[i]\n      MLOAD \t\t\t_games[i]\n      DUP2 \t\t\t_games[i]\n      LT \t\t\t_games[i]\n      PUSH [tag] 140\t\t\t_games[i]\n      JUMPI \t\t\t_games[i]\n      PUSH [tag] 141\t\t\t_games[i]\n      PUSH [tag] 121\t\t\t_games[i]\n      JUMP \t\t\t_games[i]\n    tag 141\t\t\t_games[i]\n      JUMPDEST \t\t\t_games[i]\n    tag 140\t\t\t_games[i]\n      JUMPDEST \t\t\t_games[i]\n      PUSH 20\t\t\t_games[i]\n      MUL \t\t\t_games[i]\n      PUSH 20\t\t\t_games[i]\n      ADD \t\t\t_games[i]\n      ADD \t\t\t_games[i]\n      DUP2 \t\t\t_games[i] = games[cids[i]]\n      SWAP1 \t\t\t_games[i] = games[cids[i]]\n      MSTORE \t\t\t_games[i] = games[cids[i]]\n      POP \t\t\t_games[i] = games[cids[i]]\n      DUP1 \t\t\ti++\n      DUP1 \t\t\ti++\n      PUSH 1\t\t\ti++\n      ADD \t\t\ti++\n      SWAP2 \t\t\ti++\n      POP \t\t\ti++\n      POP \t\t\ti++\n      PUSH [tag] 116\t\t\tfor (uint256 i = 0; i < cids.l...\n      JUMP \t\t\tfor (uint256 i = 0; i < cids.l...\n    tag 117\t\t\tfor (uint256 i = 0; i < cids.l...\n      JUMPDEST \t\t\tfor (uint256 i = 0; i < cids.l...\n      POP \t\t\tfor (uint256 i = 0; i < cids.l...\n      DUP1 \t\t\t_games\n      SWAP2 \t\t\treturn _games\n      POP \t\t\treturn _games\n      POP \t\t\treturn _games\n      SWAP1 \t\t\tfunction getGames() external v...\n      JUMP \t\t\tfunction getGames() external v...\n    tag 45\t\t\tfunction getGameListLength() e...\n      JUMPDEST \t\t\tfunction getGameListLength() e...\n      PUSH 0\t\t\tuint256\n      PUSH 3\t\t\tcids\n      DUP1 \t\t\tcids.length\n      SLOAD \t\t\tcids.length\n      SWAP1 \t\t\tcids.length\n      POP \t\t\tcids.length\n      SWAP1 \t\t\treturn cids.length\n      POP \t\t\treturn cids.length\n      SWAP1 \t\t\tfunction getGameListLength() e...\n      JUMP \t\t\tfunction getGameListLength() e...\n    tag 50\t\t\tfunction buyGame(string memory...\n      JUMPDEST \t\t\tfunction buyGame(string memory...\n      PUSH 0\t\t\tGame memory _game\n      PUSH 2\t\t\tgames\n      DUP3 \t\t\t_cid\n      PUSH 40\t\t\tgames[_cid]\n      MLOAD \t\t\tgames[_cid]\n      PUSH [tag] 144\t\t\tgames[_cid]\n      SWAP2 \t\t\tgames[_cid]\n      SWAP1 \t\t\tgames[_cid]\n      PUSH [tag] 53\t\t\tgames[_cid]\n      JUMP \t\t\tgames[_cid]\n    tag 144\t\t\tgames[_cid]\n      JUMPDEST \t\t\tgames[_cid]\n      SWAP1 \t\t\tgames[_cid]\n      DUP2 \t\t\tgames[_cid]\n      MSTORE \t\t\tgames[_cid]\n      PUSH 20\t\t\tgames[_cid]\n      ADD \t\t\tgames[_cid]\n      PUSH 40\t\t\tgames[_cid]\n      MLOAD \t\t\tgames[_cid]\n      DUP1 \t\t\tgames[_cid]\n      SWAP2 \t\t\tgames[_cid]\n      SUB \t\t\tgames[_cid]\n      SWAP1 \t\t\tgames[_cid]\n      KECCAK256 \t\t\tgames[_cid]\n      PUSH 40\t\t\tGame memory _game = games[_cid...\n      MLOAD \t\t\tGame memory _game = games[_cid...\n      DUP1 \t\t\tGame memory _game = games[_cid...\n      PUSH C0\t\t\tGame memory _game = games[_cid...\n      ADD \t\t\tGame memory _game = games[_cid...\n      PUSH 40\t\t\tGame memory _game = games[_cid...\n      MSTORE \t\t\tGame memory _game = games[_cid...\n      SWAP1 \t\t\tGame memory _game = games[_cid...\n      DUP2 \t\t\tGame memory _game = games[_cid...\n      PUSH 0\t\t\tGame memory _game = games[_cid...\n      DUP3 \t\t\tGame memory _game = games[_cid...\n      ADD \t\t\tGame memory _game = games[_cid...\n      PUSH 0\t\t\tGame memory _game = games[_cid...\n      SWAP1 \t\t\tGame memory _game = games[_cid...\n      SLOAD \t\t\tGame memory _game = games[_cid...\n      SWAP1 \t\t\tGame memory _game = games[_cid...\n      PUSH 100\t\t\tGame memory _game = games[_cid...\n      EXP \t\t\tGame memory _game = games[_cid...\n      SWAP1 \t\t\tGame memory _game = games[_cid...\n      DIV \t\t\tGame memory _game = games[_cid...\n      PUSH FFFFFFFFFFFFFFFFFFFFFFFFFFFFFFFFFFFFFFFF\t\t\tGame memory _game = games[_cid...\n      AND \t\t\tGame memory _game = games[_cid...\n      PUSH FFFFFFFFFFFFFFFFFFFFFFFFFFFFFFFFFFFFFFFF\t\t\tGame memory _game = games[_cid...\n      AND \t\t\tGame memory _game = games[_cid...\n      PUSH FFFFFFFFFFFFFFFFFFFFFFFFFFFFFFFFFFFFFFFF\t\t\tGame memory _game = games[_cid...\n      AND \t\t\tGame memory _game = games[_cid...\n      DUP2 \t\t\tGame memory _game = games[_cid...\n      MSTORE \t\t\tGame memory _game = games[_cid...\n      PUSH 20\t\t\tGame memory _game = games[_cid...\n      ADD \t\t\tGame memory _game = games[_cid...\n      PUSH 1\t\t\tGame memory _game = games[_cid...\n      DUP3 \t\t\tGame memory _game = games[_cid...\n      ADD \t\t\tGame memory _game = games[_cid...\n      DUP1 \t\t\tGame memory _game = games[_cid...\n      SLOAD \t\t\tGame memory _game = games[_cid...\n      PUSH [tag] 145\t\t\tGame memory _game = games[_cid...\n      SWAP1 \t\t\tGame memory _game = games[_cid...\n      PUSH [tag] 87\t\t\tGame memory _game = games[_cid...\n      JUMP \t\t\tGame memory _game = games[_cid...\n    tag 145\t\t\tGame memory _game = games[_cid...\n      JUMPDEST \t\t\tGame memory _game = games[_cid...\n      DUP1 \t\t\tGame memory _game = games[_cid...\n      PUSH 1F\t\t\tGame memory _game = games[_cid...\n      ADD \t\t\tGame memory _game = games[_cid...\n      PUSH 20\t\t\tGame memory _game = games[_cid...\n      DUP1 \t\t\tGame memory _game = games[_cid...\n      SWAP2 \t\t\tGame memory _game = games[_cid...\n      DIV \t\t\tGame memory _game = games[_cid...\n      MUL \t\t\tGame memory _game = games[_cid...\n      PUSH 20\t\t\tGame memory _game = games[_cid...\n      ADD \t\t\tGame memory _game = games[_cid...\n      PUSH 40\t\t\tGame memory _game = games[_cid...\n      MLOAD \t\t\tGame memory _game = games[_cid...\n      SWAP1 \t\t\tGame memory _game = games[_cid...\n      DUP2 \t\t\tGame memory _game = games[_cid...\n      ADD \t\t\tGame memory _game = games[_cid...\n      PUSH 40\t\t\tGame memory _game = games[_cid...\n      MSTORE \t\t\tGame memory _game = games[_cid...\n      DUP1 \t\t\tGame memory _game = games[_cid...\n      SWAP3 \t\t\tGame memory _game = games[_cid...\n      SWAP2 \t\t\tGame memory _game = games[_cid...\n      SWAP1 \t\t\tGame memory _game = games[_cid...\n      DUP2 \t\t\tGame memory _game = games[_cid...\n      DUP2 \t\t\tGame memory _game = games[_cid...\n      MSTORE \t\t\tGame memory _game = games[_cid...\n      PUSH 20\t\t\tGame memory _game = games[_cid...\n      ADD \t\t\tGame memory _game = games[_cid...\n      DUP3 \t\t\tGame memory _game = games[_cid...\n      DUP1 \t\t\tGame memory _game = games[_cid...\n      SLOAD \t\t\tGame memory _game = games[_cid...\n      PUSH [tag] 146\t\t\tGame memory _game = games[_cid...\n      SWAP1 \t\t\tGame memory _game = games[_cid...\n      PUSH [tag] 87\t\t\tGame memory _game = games[_cid...\n      JUMP \t\t\tGame memory _game = games[_cid...\n    tag 146\t\t\tGame memory _game = games[_cid...\n      JUMPDEST \t\t\tGame memory _game = games[_cid...\n      DUP1 \t\t\tGame memory _game = games[_cid...\n      ISZERO \t\t\tGame memory _game = games[_cid...\n      PUSH [tag] 147\t\t\tGame memory _game = games[_cid...\n      JUMPI \t\t\tGame memory _game = games[_cid...\n      DUP1 \t\t\tGame memory _game = games[_cid...\n      PUSH 1F\t\t\tGame memory _game = games[_cid...\n      LT \t\t\tGame memory _game = games[_cid...\n      PUSH [tag] 148\t\t\tGame memory _game = games[_cid...\n      JUMPI \t\t\tGame memory _game = games[_cid...\n      PUSH 100\t\t\tGame memory _game = games[_cid...\n      DUP1 \t\t\tGame memory _game = games[_cid...\n      DUP4 \t\t\tGame memory _game = games[_cid...\n      SLOAD \t\t\tGame memory _game = games[_cid...\n      DIV \t\t\tGame memory _game = games[_cid...\n      MUL \t\t\tGame memory _game = games[_cid...\n      DUP4 \t\t\tGame memory _game = games[_cid...\n      MSTORE \t\t\tGame memory _game = games[_cid...\n      SWAP2 \t\t\tGame memory _game = games[_cid...\n      PUSH 20\t\t\tGame memory _game = games[_cid...\n      ADD \t\t\tGame memory _game = games[_cid...\n      SWAP2 \t\t\tGame memory _game = games[_cid...\n      PUSH [tag] 147\t\t\tGame memory _game = games[_cid...\n      JUMP \t\t\tGame memory _game = games[_cid...\n    tag 148\t\t\tGame memory _game = games[_cid...\n      JUMPDEST \t\t\tGame memory _game = games[_cid...\n      DUP3 \t\t\tGame memory _game = games[_cid...\n      ADD \t\t\tGame memory _game = games[_cid...\n      SWAP2 \t\t\tGame memory _game = games[_cid...\n      SWAP1 \t\t\tGame memory _game = games[_cid...\n      PUSH 0\t\t\tGame memory _game = games[_cid...\n      MSTORE \t\t\tGame memory _game = games[_cid...\n      PUSH 20\t\t\tGame memory _game = games[_cid...\n      PUSH 0\t\t\tGame memory _game = games[_cid...\n      KECCAK256 \t\t\tGame memory _game = games[_cid...\n      SWAP1 \t\t\tGame memory _game = games[_cid...\n    tag 149\t\t\tGame memory _game = games[_cid...\n      JUMPDEST \t\t\tGame memory _game = games[_cid...\n      DUP2 \t\t\tGame memory _game = games[_cid...\n      SLOAD \t\t\tGame memory _game = games[_cid...\n      DUP2 \t\t\tGame memory _game = games[_cid...\n      MSTORE \t\t\tGame memory _game = games[_cid...\n      SWAP1 \t\t\tGame memory _game = games[_cid...\n      PUSH 1\t\t\tGame memory _game = games[_cid...\n      ADD \t\t\tGame memory _game = games[_cid...\n      SWAP1 \t\t\tGame memory _game = games[_cid...\n      PUSH 20\t\t\tGame memory _game = games[_cid...\n      ADD \t\t\tGame memory _game = games[_cid...\n      DUP1 \t\t\tGame memory _game = games[_cid...\n      DUP4 \t\t\tGame memory _game = games[_cid...\n      GT \t\t\tGame memory _game = games[_cid...\n      PUSH [tag] 149\t\t\tGame memory _game = games[_cid...\n      JUMPI \t\t\tGame memory _game = games[_cid...\n      DUP3 \t\t\tGame memory _game = games[_cid...\n      SWAP1 \t\t\tGame memory _game = games[_cid...\n      SUB \t\t\tGame memory _game = games[_cid...\n      PUSH 1F\t\t\tGame memory _game = games[_cid...\n      AND \t\t\tGame memory _game = games[_cid...\n      DUP3 \t\t\tGame memory _game = games[_cid...\n      ADD \t\t\tGame memory _game = games[_cid...\n      SWAP2 \t\t\tGame memory _game = games[_cid...\n    tag 147\t\t\tGame memory _game = games[_cid...\n      JUMPDEST \t\t\tGame memory _game = games[_cid...\n      POP \t\t\tGame memory _game = games[_cid...\n      POP \t\t\tGame memory _game = games[_cid...\n      POP \t\t\tGame memory _game = games[_cid...\n      POP \t\t\tGame memory _game = games[_cid...\n      POP \t\t\tGame memory _game = games[_cid...\n      DUP2 \t\t\tGame memory _game = games[_cid...\n      MSTORE \t\t\tGame memory _game = games[_cid...\n      PUSH 20\t\t\tGame memory _game = games[_cid...\n      ADD \t\t\tGame memory _game = games[_cid...\n      PUSH 2\t\t\tGame memory _game = games[_cid...\n      DUP3 \t\t\tGame memory _game = games[_cid...\n      ADD \t\t\tGame memory _game = games[_cid...\n      PUSH 0\t\t\tGame memory _game = games[_cid...\n      SWAP1 \t\t\tGame memory _game = games[_cid...\n      SLOAD \t\t\tGame memory _game = games[_cid...\n      SWAP1 \t\t\tGame memory _game = games[_cid...\n      PUSH 100\t\t\tGame memory _game = games[_cid...\n      EXP \t\t\tGame memory _game = games[_cid...\n      SWAP1 \t\t\tGame memory _game = games[_cid...\n      DIV \t\t\tGame memory _game = games[_cid...\n      PUSH FFFFFFFFFFFFFFFFFFFFFFFFFFFFFFFFFFFFFFFF\t\t\tGame memory _game = games[_cid...\n      AND \t\t\tGame memory _game = games[_cid...\n      PUSH FFFFFFFFFFFFFFFFFFFFFFFFFFFFFFFFFFFFFFFF\t\t\tGame memory _game = games[_cid...\n      AND \t\t\tGame memory _game = games[_cid...\n      PUSH FFFFFFFFFFFFFFFFFFFFFFFFFFFFFFFFFFFFFFFF\t\t\tGame memory _game = games[_cid...\n      AND \t\t\tGame memory _game = games[_cid...\n      DUP2 \t\t\tGame memory _game = games[_cid...\n      MSTORE \t\t\tGame memory _game = games[_cid...\n      PUSH 20\t\t\tGame memory _game = games[_cid...\n      ADD \t\t\tGame memory _game = games[_cid...\n      PUSH 3\t\t\tGame memory _game = games[_cid...\n      DUP3 \t\t\tGame memory _game = games[_cid...\n      ADD \t\t\tGame memory _game = games[_cid...\n      DUP1 \t\t\tGame memory _game = games[_cid...\n      SLOAD \t\t\tGame memory _game = games[_cid...\n      PUSH [tag] 150\t\t\tGame memory _game = games[_cid...\n      SWAP1 \t\t\tGame memory _game = games[_cid...\n      PUSH [tag] 87\t\t\tGame memory _game = games[_cid...\n      JUMP \t\t\tGame memory _game = games[_cid...\n    tag 150\t\t\tGame memory _game = games[_cid...\n      JUMPDEST \t\t\tGame memory _game = games[_cid...\n      DUP1 \t\t\tGame memory _game = games[_cid...\n      PUSH 1F\t\t\tGame memory _game = games[_cid...\n      ADD \t\t\tGame memory _game = games[_cid...\n      PUSH 20\t\t\tGame memory _game = games[_cid...\n      DUP1 \t\t\tGame memory _game = games[_cid...\n      SWAP2 \t\t\tGame memory _game = games[_cid...\n      DIV \t\t\tGame memory _game = games[_cid...\n      MUL \t\t\tGame memory _game = games[_cid...\n      PUSH 20\t\t\tGame memory _game = games[_cid...\n      ADD \t\t\tGame memory _game = games[_cid...\n      PUSH 40\t\t\tGame memory _game = games[_cid...\n      MLOAD \t\t\tGame memory _game = games[_cid...\n      SWAP1 \t\t\tGame memory _game = games[_cid...\n      DUP2 \t\t\tGame memory _game = games[_cid...\n      ADD \t\t\tGame memory _game = games[_cid...\n      PUSH 40\t\t\tGame memory _game = games[_cid...\n      MSTORE \t\t\tGame memory _game = games[_cid...\n      DUP1 \t\t\tGame memory _game = games[_cid...\n      SWAP3 \t\t\tGame memory _game = games[_cid...\n      SWAP2 \t\t\tGame memory _game = games[_cid...\n      SWAP1 \t\t\tGame memory _game = games[_cid...\n      DUP2 \t\t\tGame memory _game = games[_cid...\n      DUP2 \t\t\tGame memory _game = games[_cid...\n      MSTORE \t\t\tGame memory _game = games[_cid...\n      PUSH 20\t\t\tGame memory _game = games[_cid...\n      ADD \t\t\tGame memory _game = games[_cid...\n      DUP3 \t\t\tGame memory _game = games[_cid...\n      DUP1 \t\t\tGame memory _game = games[_cid...\n      SLOAD \t\t\tGame memory _game = games[_cid...\n      PUSH [tag] 151\t\t\tGame memory _game = games[_cid...\n      SWAP1 \t\t\tGame memory _game = games[_cid...\n      PUSH [tag] 87\t\t\tGame memory _game = games[_cid...\n      JUMP \t\t\tGame memory _game = games[_cid...\n    tag 151\t\t\tGame memory _game = games[_cid...\n      JUMPDEST \t\t\tGame memory _game = games[_cid...\n      DUP1 \t\t\tGame memory _game = games[_cid...\n      ISZERO \t\t\tGame memory _game = games[_cid...\n      PUSH [tag] 152\t\t\tGame memory _game = games[_cid...\n      JUMPI \t\t\tGame memory _game = games[_cid...\n      DUP1 \t\t\tGame memory _game = games[_cid...\n      PUSH 1F\t\t\tGame memory _game = games[_cid...\n      LT \t\t\tGame memory _game = games[_cid...\n      PUSH [tag] 153\t\t\tGame memory _game = games[_cid...\n      JUMPI \t\t\tGame memory _game = games[_cid...\n      PUSH 100\t\t\tGame memory _game = games[_cid...\n      DUP1 \t\t\tGame memory _game = games[_cid...\n      DUP4 \t\t\tGame memory _game = games[_cid...\n      SLOAD \t\t\tGame memory _game = games[_cid...\n      DIV \t\t\tGame memory _game = games[_cid...\n      MUL \t\t\tGame memory _game = games[_cid...\n      DUP4 \t\t\tGame memory _game = games[_cid...\n      MSTORE \t\t\tGame memory _game = games[_cid...\n      SWAP2 \t\t\tGame memory _game = games[_cid...\n      PUSH 20\t\t\tGame memory _game = games[_cid...\n      ADD \t\t\tGame memory _game = games[_cid...\n      SWAP2 \t\t\tGame memory _game = games[_cid...\n      PUSH [tag] 152\t\t\tGame memory _game = games[_cid...\n      JUMP \t\t\tGame memory _game = games[_cid...\n    tag 153\t\t\tGame memory _game = games[_cid...\n      JUMPDEST \t\t\tGame memory _game = games[_cid...\n      DUP3 \t\t\tGame memory _game = games[_cid...\n      ADD \t\t\tGame memory _game = games[_cid...\n      SWAP2 \t\t\tGame memory _game = games[_cid...\n      SWAP1 \t\t\tGame memory _game = games[_cid...\n      PUSH 0\t\t\tGame memory _game = games[_cid...\n      MSTORE \t\t\tGame memory _game = games[_cid...\n      PUSH 20\t\t\tGame memory _game = games[_cid...\n      PUSH 0\t\t\tGame memory _game = games[_cid...\n      KECCAK256 \t\t\tGame memory _game = games[_cid...\n      SWAP1 \t\t\tGame memory _game = games[_cid...\n    tag 154\t\t\tGame memory _game = games[_cid...\n      JUMPDEST \t\t\tGame memory _game = games[_cid...\n      DUP2 \t\t\tGame memory _game = games[_cid...\n      SLOAD \t\t\tGame memory _game = games[_cid...\n      DUP2 \t\t\tGame memory _game = games[_cid...\n      MSTORE \t\t\tGame memory _game = games[_cid...\n      SWAP1 \t\t\tGame memory _game = games[_cid...\n      PUSH 1\t\t\tGame memory _game = games[_cid...\n      ADD \t\t\tGame memory _game = games[_cid...\n      SWAP1 \t\t\tGame memory _game = games[_cid...\n      PUSH 20\t\t\tGame memory _game = games[_cid...\n      ADD \t\t\tGame memory _game = games[_cid...\n      DUP1 \t\t\tGame memory _game = games[_cid...\n      DUP4 \t\t\tGame memory _game = games[_cid...\n      GT \t\t\tGame memory _game = games[_cid...\n      PUSH [tag] 154\t\t\tGame memory _game = games[_cid...\n      JUMPI \t\t\tGame memory _game = games[_cid...\n      DUP3 \t\t\tGame memory _game = games[_cid...\n      SWAP1 \t\t\tGame memory _game = games[_cid...\n      SUB \t\t\tGame memory _game = games[_cid...\n      PUSH 1F\t\t\tGame memory _game = games[_cid...\n      AND \t\t\tGame memory _game = games[_cid...\n      DUP3 \t\t\tGame memory _game = games[_cid...\n      ADD \t\t\tGame memory _game = games[_cid...\n      SWAP2 \t\t\tGame memory _game = games[_cid...\n    tag 152\t\t\tGame memory _game = games[_cid...\n      JUMPDEST \t\t\tGame memory _game = games[_cid...\n      POP \t\t\tGame memory _game = games[_cid...\n      POP \t\t\tGame memory _game = games[_cid...\n      POP \t\t\tGame memory _game = games[_cid...\n      POP \t\t\tGame memory _game = games[_cid...\n      POP \t\t\tGame memory _game = games[_cid...\n      DUP2 \t\t\tGame memory _game = games[_cid...\n      MSTORE \t\t\tGame memory _game = games[_cid...\n      PUSH 20\t\t\tGame memory _game = games[_cid...\n      ADD \t\t\tGame memory _game = games[_cid...\n      PUSH 4\t\t\tGame memory _game = games[_cid...\n      DUP3 \t\t\tGame memory _game = games[_cid...\n      ADD \t\t\tGame memory _game = games[_cid...\n      SLOAD \t\t\tGame memory _game = games[_cid...\n      DUP2 \t\t\tGame memory _game = games[_cid...\n      MSTORE \t\t\tGame memory _game = games[_cid...\n      PUSH 20\t\t\tGame memory _game = games[_cid...\n      ADD \t\t\tGame memory _game = games[_cid...\n      PUSH 5\t\t\tGame memory _game = games[_cid...\n      DUP3 \t\t\tGame memory _game = games[_cid...\n      ADD \t\t\tGame memory _game = games[_cid...\n      DUP1 \t\t\tGame memory _game = games[_cid...\n      SLOAD \t\t\tGame memory _game = games[_cid...\n      PUSH [tag] 155\t\t\tGame memory _game = games[_cid...\n      SWAP1 \t\t\tGame memory _game = games[_cid...\n      PUSH [tag] 87\t\t\tGame memory _game = games[_cid...\n      JUMP \t\t\tGame memory _game = games[_cid...\n    tag 155\t\t\tGame memory _game = games[_cid...\n      JUMPDEST \t\t\tGame memory _game = games[_cid...\n      DUP1 \t\t\tGame memory _game = games[_cid...\n      PUSH 1F\t\t\tGame memory _game = games[_cid...\n      ADD \t\t\tGame memory _game = games[_cid...\n      PUSH 20\t\t\tGame memory _game = games[_cid...\n      DUP1 \t\t\tGame memory _game = games[_cid...\n      SWAP2 \t\t\tGame memory _game = games[_cid...\n      DIV \t\t\tGame memory _game = games[_cid...\n      MUL \t\t\tGame memory _game = games[_cid...\n      PUSH 20\t\t\tGame memory _game = games[_cid...\n      ADD \t\t\tGame memory _game = games[_cid...\n      PUSH 40\t\t\tGame memory _game = games[_cid...\n      MLOAD \t\t\tGame memory _game = games[_cid...\n      SWAP1 \t\t\tGame memory _game = games[_cid...\n      DUP2 \t\t\tGame memory _game = games[_cid...\n      ADD \t\t\tGame memory _game = games[_cid...\n      PUSH 40\t\t\tGame memory _game = games[_cid...\n      MSTORE \t\t\tGame memory _game = games[_cid...\n      DUP1 \t\t\tGame memory _game = games[_cid...\n      SWAP3 \t\t\tGame memory _game = games[_cid...\n      SWAP2 \t\t\tGame memory _game = games[_cid...\n      SWAP1 \t\t\tGame memory _game = games[_cid...\n      DUP2 \t\t\tGame memory _game = games[_cid...\n      DUP2 \t\t\tGame memory _game = games[_cid...\n      MSTORE \t\t\tGame memory _game = games[_cid...\n      PUSH 20\t\t\tGame memory _game = games[_cid...\n      ADD \t\t\tGame memory _game = games[_cid...\n      DUP3 \t\t\tGame memory _game = games[_cid...\n      DUP1 \t\t\tGame memory _game = games[_cid...\n      SLOAD \t\t\tGame memory _game = games[_cid...\n      PUSH [tag] 156\t\t\tGame memory _game = games[_cid...\n      SWAP1 \t\t\tGame memory _game = games[_cid...\n      PUSH [tag] 87\t\t\tGame memory _game = games[_cid...\n      JUMP \t\t\tGame memory _game = games[_cid...\n    tag 156\t\t\tGame memory _game = games[_cid...\n      JUMPDEST \t\t\tGame memory _game = games[_cid...\n      DUP1 \t\t\tGame memory _game = games[_cid...\n      ISZERO \t\t\tGame memory _game = games[_cid...\n      PUSH [tag] 157\t\t\tGame memory _game = games[_cid...\n      JUMPI \t\t\tGame memory _game = games[_cid...\n      DUP1 \t\t\tGame memory _game = games[_cid...\n      PUSH 1F\t\t\tGame memory _game = games[_cid...\n      LT \t\t\tGame memory _game = games[_cid...\n      PUSH [tag] 158\t\t\tGame memory _game = games[_cid...\n      JUMPI \t\t\tGame memory _game = games[_cid...\n      PUSH 100\t\t\tGame memory _game = games[_cid...\n      DUP1 \t\t\tGame memory _game = games[_cid...\n      DUP4 \t\t\tGame memory _game = games[_cid...\n      SLOAD \t\t\tGame memory _game = games[_cid...\n      DIV \t\t\tGame memory _game = games[_cid...\n      MUL \t\t\tGame memory _game = games[_cid...\n      DUP4 \t\t\tGame memory _game = games[_cid...\n      MSTORE \t\t\tGame memory _game = games[_cid...\n      SWAP2 \t\t\tGame memory _game = games[_cid...\n      PUSH 20\t\t\tGame memory _game = games[_cid...\n      ADD \t\t\tGame memory _game = games[_cid...\n      SWAP2 \t\t\tGame memory _game = games[_cid...\n      PUSH [tag] 157\t\t\tGame memory _game = games[_cid...\n      JUMP \t\t\tGame memory _game = games[_cid...\n    tag 158\t\t\tGame memory _game = games[_cid...\n      JUMPDEST \t\t\tGame memory _game = games[_cid...\n      DUP3 \t\t\tGame memory _game = games[_cid...\n      ADD \t\t\tGame memory _game = games[_cid...\n      SWAP2 \t\t\tGame memory _game = games[_cid...\n      SWAP1 \t\t\tGame memory _game = games[_cid...\n      PUSH 0\t\t\tGame memory _game = games[_cid...\n      MSTORE \t\t\tGame memory _game = games[_cid...\n      PUSH 20\t\t\tGame memory _game = games[_cid...\n      PUSH 0\t\t\tGame memory _game = games[_cid...\n      KECCAK256 \t\t\tGame memory _game = games[_cid...\n      SWAP1 \t\t\tGame memory _game = games[_cid...\n    tag 159\t\t\tGame memory _game = games[_cid...\n      JUMPDEST \t\t\tGame memory _game = games[_cid...\n      DUP2 \t\t\tGame memory _game = games[_cid...\n      SLOAD \t\t\tGame memory _game = games[_cid...\n      DUP2 \t\t\tGame memory _game = games[_cid...\n      MSTORE \t\t\tGame memory _game = games[_cid...\n      SWAP1 \t\t\tGame memory _game = games[_cid...\n      PUSH 1\t\t\tGame memory _game = games[_cid...\n      ADD \t\t\tGame memory _game = games[_cid...\n      SWAP1 \t\t\tGame memory _game = games[_cid...\n      PUSH 20\t\t\tGame memory _game = games[_cid...\n      ADD \t\t\tGame memory _game = games[_cid...\n      DUP1 \t\t\tGame memory _game = games[_cid...\n      DUP4 \t\t\tGame memory _game = games[_cid...\n      GT \t\t\tGame memory _game = games[_cid...\n      PUSH [tag] 159\t\t\tGame memory _game = games[_cid...\n      JUMPI \t\t\tGame memory _game = games[_cid...\n      DUP3 \t\t\tGame memory _game = games[_cid...\n      SWAP1 \t\t\tGame memory _game = games[_cid...\n      SUB \t\t\tGame memory _game = games[_cid...\n      PUSH 1F\t\t\tGame memory _game = games[_cid...\n      AND \t\t\tGame memory _game = games[_cid...\n      DUP3 \t\t\tGame memory _game = games[_cid...\n      ADD \t\t\tGame memory _game = games[_cid...\n      SWAP2 \t\t\tGame memory _game = games[_cid...\n    tag 157\t\t\tGame memory _game = games[_cid...\n      JUMPDEST \t\t\tGame memory _game = games[_cid...\n      POP \t\t\tGame memory _game = games[_cid...\n      POP \t\t\tGame memory _game = games[_cid...\n      POP \t\t\tGame memory _game = games[_cid...\n      POP \t\t\tGame memory _game = games[_cid...\n      POP \t\t\tGame memory _game = games[_cid...\n      DUP2 \t\t\tGame memory _game = games[_cid...\n      MSTORE \t\t\tGame memory _game = games[_cid...\n      POP \t\t\tGame memory _game = games[_cid...\n      POP \t\t\tGame memory _game = games[_cid...\n      SWAP1 \t\t\tGame memory _game = games[_cid...\n      POP \t\t\tGame memory _game = games[_cid...\n      PUSH 0\t\t\tGameToken gameToken\n      DUP2 \t\t\t_game\n      PUSH 40\t\t\t_game.token\n      ADD \t\t\t_game.token\n      MLOAD \t\t\t_game.token\n      SWAP1 \t\t\tGameToken gameToken = GameToke...\n      POP \t\t\tGameToken gameToken = GameToke...\n      PUSH 0\t\t\t0\n      PUSH FFFFFFFFFFFFFFFFFFFFFFFFFFFFFFFFFFFFFFFF\t\t\t_game.creator == address(0)\n      AND \t\t\t_game.creator == address(0)\n      DUP3 \t\t\t_game\n      PUSH 0\t\t\t_game.creator\n      ADD \t\t\t_game.creator\n      MLOAD \t\t\t_game.creator\n      PUSH FFFFFFFFFFFFFFFFFFFFFFFFFFFFFFFFFFFFFFFF\t\t\t_game.creator == address(0)\n      AND \t\t\t_game.creator == address(0)\n      SUB \t\t\t_game.creator == address(0)\n      PUSH [tag] 160\t\t\tif (_game.creator == address(0...\n      JUMPI \t\t\tif (_game.creator == address(0...\n      PUSH 40\t\t\tInvalidGame()\n      MLOAD \t\t\tInvalidGame()\n      PUSH 57E25A0900000000000000000000000000000000000000000000000000000000\t\t\tInvalidGame()\n      DUP2 \t\t\tInvalidGame()\n      MSTORE \t\t\tInvalidGame()\n      PUSH 4\t\t\tInvalidGame()\n      ADD \t\t\tInvalidGame()\n      PUSH 40\t\t\tInvalidGame()\n      MLOAD \t\t\tInvalidGame()\n      DUP1 \t\t\tInvalidGame()\n      SWAP2 \t\t\tInvalidGame()\n      SUB \t\t\tInvalidGame()\n      SWAP1 \t\t\tInvalidGame()\n      REVERT \t\t\tInvalidGame()\n    tag 160\t\t\tif (_game.creator == address(0...\n      JUMPDEST \t\t\tif (_game.creator == address(0...\n      PUSH 1\t\t\t1\n      DUP2 \t\t\tgameToken\n      PUSH FFFFFFFFFFFFFFFFFFFFFFFFFFFFFFFFFFFFFFFF\t\t\tgameToken.balanceOf\n      AND \t\t\tgameToken.balanceOf\n      PUSH 70A08231\t\t\tgameToken.balanceOf\n      CALLER \t\t\tmsg.sender\n      PUSH 40\t\t\tgameToken.balanceOf(msg.sender...\n      MLOAD \t\t\tgameToken.balanceOf(msg.sender...\n      DUP3 \t\t\tgameToken.balanceOf(msg.sender...\n      PUSH FFFFFFFF\t\t\tgameToken.balanceOf(msg.sender...\n      AND \t\t\tgameToken.balanceOf(msg.sender...\n      PUSH E0\t\t\tgameToken.balanceOf(msg.sender...\n      SHL \t\t\tgameToken.balanceOf(msg.sender...\n      DUP2 \t\t\tgameToken.balanceOf(msg.sender...\n      MSTORE \t\t\tgameToken.balanceOf(msg.sender...\n      PUSH 4\t\t\tgameToken.balanceOf(msg.sender...\n      ADD \t\t\tgameToken.balanceOf(msg.sender...\n      PUSH [tag] 161\t\t\tgameToken.balanceOf(msg.sender...\n      SWAP2 \t\t\tgameToken.balanceOf(msg.sender...\n      SWAP1 \t\t\tgameToken.balanceOf(msg.sender...\n      PUSH [tag] 34\t\t\tgameToken.balanceOf(msg.sender...\n      JUMP \t\t\tgameToken.balanceOf(msg.sender...\n    tag 161\t\t\tgameToken.balanceOf(msg.sender...\n      JUMPDEST \t\t\tgameToken.balanceOf(msg.sender...\n      PUSH 20\t\t\tgameToken.balanceOf(msg.sender...\n      PUSH 40\t\t\tgameToken.balanceOf(msg.sender...\n      MLOAD \t\t\tgameToken.balanceOf(msg.sender...\n      DUP1 \t\t\tgameToken.balanceOf(msg.sender...\n      DUP4 \t\t\tgameToken.balanceOf(msg.sender...\n      SUB \t\t\tgameToken.balanceOf(msg.sender...\n      DUP2 \t\t\tgameToken.balanceOf(msg.sender...\n      DUP7 \t\t\tgameToken.balanceOf(msg.sender...\n      GAS \t\t\tgameToken.balanceOf(msg.sender...\n      STATICCALL \t\t\tgameToken.balanceOf(msg.sender...\n      ISZERO \t\t\tgameToken.balanceOf(msg.sender...\n      DUP1 \t\t\tgameToken.balanceOf(msg.sender...\n      ISZERO \t\t\tgameToken.balanceOf(msg.sender...\n      PUSH [tag] 163\t\t\tgameToken.balanceOf(msg.sender...\n      JUMPI \t\t\tgameToken.balanceOf(msg.sender...\n      RETURNDATASIZE \t\t\tgameToken.balanceOf(msg.sender...\n      PUSH 0\t\t\tgameToken.balanceOf(msg.sender...\n      DUP1 \t\t\tgameToken.balanceOf(msg.sender...\n      RETURNDATACOPY \t\t\tgameToken.balanceOf(msg.sender...\n      RETURNDATASIZE \t\t\tgameToken.balanceOf(msg.sender...\n      PUSH 0\t\t\tgameToken.balanceOf(msg.sender...\n      REVERT \t\t\tgameToken.balanceOf(msg.sender...\n    tag 163\t\t\tgameToken.balanceOf(msg.sender...\n      JUMPDEST \t\t\tgameToken.balanceOf(msg.sender...\n      POP \t\t\tgameToken.balanceOf(msg.sender...\n      POP \t\t\tgameToken.balanceOf(msg.sender...\n      POP \t\t\tgameToken.balanceOf(msg.sender...\n      POP \t\t\tgameToken.balanceOf(msg.sender...\n      PUSH 40\t\t\tgameToken.balanceOf(msg.sender...\n      MLOAD \t\t\tgameToken.balanceOf(msg.sender...\n      RETURNDATASIZE \t\t\tgameToken.balanceOf(msg.sender...\n      PUSH 1F\t\t\tgameToken.balanceOf(msg.sender...\n      NOT \t\t\tgameToken.balanceOf(msg.sender...\n      PUSH 1F\t\t\tgameToken.balanceOf(msg.sender...\n      DUP3 \t\t\tgameToken.balanceOf(msg.sender...\n      ADD \t\t\tgameToken.balanceOf(msg.sender...\n      AND \t\t\tgameToken.balanceOf(msg.sender...\n      DUP3 \t\t\tgameToken.balanceOf(msg.sender...\n      ADD \t\t\tgameToken.balanceOf(msg.sender...\n      DUP1 \t\t\tgameToken.balanceOf(msg.sender...\n      PUSH 40\t\t\tgameToken.balanceOf(msg.sender...\n      MSTORE \t\t\tgameToken.balanceOf(msg.sender...\n      POP \t\t\tgameToken.balanceOf(msg.sender...\n      DUP2 \t\t\tgameToken.balanceOf(msg.sender...\n      ADD \t\t\tgameToken.balanceOf(msg.sender...\n      SWAP1 \t\t\tgameToken.balanceOf(msg.sender...\n      PUSH [tag] 164\t\t\tgameToken.balanceOf(msg.sender...\n      SWAP2 \t\t\tgameToken.balanceOf(msg.sender...\n      SWAP1 \t\t\tgameToken.balanceOf(msg.sender...\n      PUSH [tag] 81\t\t\tgameToken.balanceOf(msg.sender...\n      JUMP \t\t\tgameToken.balanceOf(msg.sender...\n    tag 164\t\t\tgameToken.balanceOf(msg.sender...\n      JUMPDEST \t\t\tgameToken.balanceOf(msg.sender...\n      LT \t\t\tgameToken.balanceOf(msg.sender...\n      PUSH [tag] 165\t\t\tif (gameToken.balanceOf(msg.se...\n      JUMPI \t\t\tif (gameToken.balanceOf(msg.se...\n      PUSH 40\t\t\tGameAlreadyBought()\n      MLOAD \t\t\tGameAlreadyBought()\n      PUSH 80C902AE00000000000000000000000000000000000000000000000000000000\t\t\tGameAlreadyBought()\n      DUP2 \t\t\tGameAlreadyBought()\n      MSTORE \t\t\tGameAlreadyBought()\n      PUSH 4\t\t\tGameAlreadyBought()\n      ADD \t\t\tGameAlreadyBought()\n      PUSH 40\t\t\tGameAlreadyBought()\n      MLOAD \t\t\tGameAlreadyBought()\n      DUP1 \t\t\tGameAlreadyBought()\n      SWAP2 \t\t\tGameAlreadyBought()\n      SUB \t\t\tGameAlreadyBought()\n      SWAP1 \t\t\tGameAlreadyBought()\n      REVERT \t\t\tGameAlreadyBought()\n    tag 165\t\t\tif (gameToken.balanceOf(msg.se...\n      JUMPDEST \t\t\tif (gameToken.balanceOf(msg.se...\n      DUP2 \t\t\t_game\n      PUSH 80\t\t\t_game.price\n      ADD \t\t\t_game.price\n      MLOAD \t\t\t_game.price\n      CALLVALUE \t\t\tmsg.value\n      LT \t\t\tmsg.value < _game.price\n      ISZERO \t\t\tif (msg.value < _game.price) {...\n      PUSH [tag] 166\t\t\tif (msg.value < _game.price) {...\n      JUMPI \t\t\tif (msg.value < _game.price) {...\n      PUSH 40\t\t\tInsufficientFunds()\n      MLOAD \t\t\tInsufficientFunds()\n      PUSH 356680B700000000000000000000000000000000000000000000000000000000\t\t\tInsufficientFunds()\n      DUP2 \t\t\tInsufficientFunds()\n      MSTORE \t\t\tInsufficientFunds()\n      PUSH 4\t\t\tInsufficientFunds()\n      ADD \t\t\tInsufficientFunds()\n      PUSH 40\t\t\tInsufficientFunds()\n      MLOAD \t\t\tInsufficientFunds()\n      DUP1 \t\t\tInsufficientFunds()\n      SWAP2 \t\t\tInsufficientFunds()\n      SUB \t\t\tInsufficientFunds()\n      SWAP1 \t\t\tInsufficientFunds()\n      REVERT \t\t\tInsufficientFunds()\n    tag 166\t\t\tif (msg.value < _game.price) {...\n      JUMPDEST \t\t\tif (msg.value < _game.price) {...\n      DUP2 \t\t\t_game\n      PUSH 80\t\t\t_game.price\n      ADD \t\t\t_game.price\n      MLOAD \t\t\t_game.price\n      PUSH 4\t\t\tcreatorbalance\n      PUSH 0\t\t\tcreatorbalance[_game.creator]\n      DUP5 \t\t\t_game\n      PUSH 0\t\t\t_game.creator\n      ADD \t\t\t_game.creator\n      MLOAD \t\t\t_game.creator\n      PUSH FFFFFFFFFFFFFFFFFFFFFFFFFFFFFFFFFFFFFFFF\t\t\tcreatorbalance[_game.creator]\n      AND \t\t\tcreatorbalance[_game.creator]\n      PUSH FFFFFFFFFFFFFFFFFFFFFFFFFFFFFFFFFFFFFFFF\t\t\tcreatorbalance[_game.creator]\n      AND \t\t\tcreatorbalance[_game.creator]\n      DUP2 \t\t\tcreatorbalance[_game.creator]\n      MSTORE \t\t\tcreatorbalance[_game.creator]\n      PUSH 20\t\t\tcreatorbalance[_game.creator]\n      ADD \t\t\tcreatorbalance[_game.creator]\n      SWAP1 \t\t\tcreatorbalance[_game.creator]\n      DUP2 \t\t\tcreatorbalance[_game.creator]\n      MSTORE \t\t\tcreatorbalance[_game.creator]\n      PUSH 20\t\t\tcreatorbalance[_game.creator]\n      ADD \t\t\tcreatorbalance[_game.creator]\n      PUSH 0\t\t\tcreatorbalance[_game.creator]\n      KECCAK256 \t\t\tcreatorbalance[_game.creator]\n      PUSH 0\t\t\tcreatorbalance[_game.creator]\n      DUP3 \t\t\tcreatorbalance[_game.creator] ...\n      DUP3 \t\t\tcreatorbalance[_game.creator] ...\n      SLOAD \t\t\tcreatorbalance[_game.creator] ...\n      PUSH [tag] 167\t\t\tcreatorbalance[_game.creator] ...\n      SWAP2 \t\t\tcreatorbalance[_game.creator] ...\n      SWAP1 \t\t\tcreatorbalance[_game.creator] ...\n      PUSH [tag] 168\t\t\tcreatorbalance[_game.creator] ...\n      JUMP \t\t\tcreatorbalance[_game.creator] ...\n    tag 167\t\t\tcreatorbalance[_game.creator] ...\n      JUMPDEST \t\t\tcreatorbalance[_game.creator] ...\n      SWAP3 \t\t\tcreatorbalance[_game.creator] ...\n      POP \t\t\tcreatorbalance[_game.creator] ...\n      POP \t\t\tcreatorbalance[_game.creator] ...\n      DUP2 \t\t\tcreatorbalance[_game.creator] ...\n      SWAP1 \t\t\tcreatorbalance[_game.creator] ...\n      SSTORE \t\t\tcreatorbalance[_game.creator] ...\n      POP \t\t\tcreatorbalance[_game.creator] ...\n      DUP1 \t\t\tgameToken\n      PUSH FFFFFFFFFFFFFFFFFFFFFFFFFFFFFFFFFFFFFFFF\t\t\tgameToken.mint\n      AND \t\t\tgameToken.mint\n      PUSH 6A627842\t\t\tgameToken.mint\n      CALLER \t\t\tmsg.sender\n      PUSH 40\t\t\tgameToken.mint(msg.sender)\n      MLOAD \t\t\tgameToken.mint(msg.sender)\n      DUP3 \t\t\tgameToken.mint(msg.sender)\n      PUSH FFFFFFFF\t\t\tgameToken.mint(msg.sender)\n      AND \t\t\tgameToken.mint(msg.sender)\n      PUSH E0\t\t\tgameToken.mint(msg.sender)\n      SHL \t\t\tgameToken.mint(msg.sender)\n      DUP2 \t\t\tgameToken.mint(msg.sender)\n      MSTORE \t\t\tgameToken.mint(msg.sender)\n      PUSH 4\t\t\tgameToken.mint(msg.sender)\n      ADD \t\t\tgameToken.mint(msg.sender)\n      PUSH [tag] 169\t\t\tgameToken.mint(msg.sender)\n      SWAP2 \t\t\tgameToken.mint(msg.sender)\n      SWAP1 \t\t\tgameToken.mint(msg.sender)\n      PUSH [tag] 34\t\t\tgameToken.mint(msg.sender)\n      JUMP \t\t\tgameToken.mint(msg.sender)\n    tag 169\t\t\tgameToken.mint(msg.sender)\n      JUMPDEST \t\t\tgameToken.mint(msg.sender)\n      PUSH 0\t\t\tgameToken.mint(msg.sender)\n      PUSH 40\t\t\tgameToken.mint(msg.sender)\n      MLOAD \t\t\tgameToken.mint(msg.sender)\n      DUP1 \t\t\tgameToken.mint(msg.sender)\n      DUP4 \t\t\tgameToken.mint(msg.sender)\n      SUB \t\t\tgameToken.mint(msg.sender)\n      DUP2 \t\t\tgameToken.mint(msg.sender)\n      PUSH 0\t\t\tgameToken.mint(msg.sender)\n      DUP8 \t\t\tgameToken.mint(msg.sender)\n      DUP1 \t\t\tgameToken.mint(msg.sender)\n      EXTCODESIZE \t\t\tgameToken.mint(msg.sender)\n      ISZERO \t\t\tgameToken.mint(msg.sender)\n      DUP1 \t\t\tgameToken.mint(msg.sender)\n      ISZERO \t\t\tgameToken.mint(msg.sender)\n      PUSH [tag] 170\t\t\tgameToken.mint(msg.sender)\n      JUMPI \t\t\tgameToken.mint(msg.sender)\n      PUSH 0\t\t\tgameToken.mint(msg.sender)\n      DUP1 \t\t\tgameToken.mint(msg.sender)\n      REVERT \t\t\tgameToken.mint(msg.sender)\n    tag 170\t\t\tgameToken.mint(msg.sender)\n      JUMPDEST \t\t\tgameToken.mint(msg.sender)\n      POP \t\t\tgameToken.mint(msg.sender)\n      GAS \t\t\tgameToken.mint(msg.sender)\n      CALL \t\t\tgameToken.mint(msg.sender)\n      ISZERO \t\t\tgameToken.mint(msg.sender)\n      DUP1 \t\t\tgameToken.mint(msg.sender)\n      ISZERO \t\t\tgameToken.mint(msg.sender)\n      PUSH [tag] 172\t\t\tgameToken.mint(msg.sender)\n      JUMPI \t\t\tgameToken.mint(msg.sender)\n      RETURNDATASIZE \t\t\tgameToken.mint(msg.sender)\n      PUSH 0\t\t\tgameToken.mint(msg.sender)\n      DUP1 \t\t\tgameToken.mint(msg.sender)\n      RETURNDATACOPY \t\t\tgameToken.mint(msg.sender)\n      RETURNDATASIZE \t\t\tgameToken.mint(msg.sender)\n      PUSH 0\t\t\tgameToken.mint(msg.sender)\n      REVERT \t\t\tgameToken.mint(msg.sender)\n    tag 172\t\t\tgameToken.mint(msg.sender)\n      JUMPDEST \t\t\tgameToken.mint(msg.sender)\n      POP \t\t\tgameToken.mint(msg.sender)\n      POP \t\t\tgameToken.mint(msg.sender)\n      POP \t\t\tgameToken.mint(msg.sender)\n      POP \t\t\tgameToken.mint(msg.sender)\n      CALLER \t\t\tmsg.sender\n      PUSH FFFFFFFFFFFFFFFFFFFFFFFFFFFFFFFFFFFFFFFF\t\t\tGamePurchased(_cid, msg.sender...\n      AND \t\t\tGamePurchased(_cid, msg.sender...\n      DUP4 \t\t\t_cid\n      PUSH 40\t\t\tGamePurchased(_cid, msg.sender...\n      MLOAD \t\t\tGamePurchased(_cid, msg.sender...\n      PUSH [tag] 173\t\t\tGamePurchased(_cid, msg.sender...\n      SWAP2 \t\t\tGamePurchased(_cid, msg.sender...\n      SWAP1 \t\t\tGamePurchased(_cid, msg.sender...\n      PUSH [tag] 53\t\t\tGamePurchased(_cid, msg.sender...\n      JUMP \t\t\tGamePurchased(_cid, msg.sender...\n    tag 173\t\t\tGamePurchased(_cid, msg.sender...\n      JUMPDEST \t\t\tGamePurchased(_cid, msg.sender...\n      PUSH 40\t\t\tGamePurchased(_cid, msg.sender...\n      MLOAD \t\t\tGamePurchased(_cid, msg.sender...\n      DUP1 \t\t\tGamePurchased(_cid, msg.sender...\n      SWAP2 \t\t\tGamePurchased(_cid, msg.sender...\n      SUB \t\t\tGamePurchased(_cid, msg.sender...\n      SWAP1 \t\t\tGamePurchased(_cid, msg.sender...\n      KECCAK256 \t\t\tGamePurchased(_cid, msg.sender...\n      PUSH BE5BACC9CCF0E6B2195FB4EEF26C0562A005DCDD2C5D064FD26D76DE3849920F\t\t\tGamePurchased(_cid, msg.sender...\n      PUSH 40\t\t\tGamePurchased(_cid, msg.sender...\n      MLOAD \t\t\tGamePurchased(_cid, msg.sender...\n      PUSH 40\t\t\tGamePurchased(_cid, msg.sender...\n      MLOAD \t\t\tGamePurchased(_cid, msg.sender...\n      DUP1 \t\t\tGamePurchased(_cid, msg.sender...\n      SWAP2 \t\t\tGamePurchased(_cid, msg.sender...\n      SUB \t\t\tGamePurchased(_cid, msg.sender...\n      SWAP1 \t\t\tGamePurchased(_cid, msg.sender...\n      LOG3 \t\t\tGamePurchased(_cid, msg.sender...\n      POP \t\t\t{\\n        Game memory _game =...\n      POP \t\t\t{\\n        Game memory _game =...\n      POP \t\t\tfunction buyGame(string memory...\n      JUMP \t\t\tfunction buyGame(string memory...\n    tag 56\t\t\t\n      JUMPDEST \t\t\t\n      PUSH #[$] 0000000000000000000000000000000000000000000000000000000000000000\t\t\t\n      DUP1 \t\t\t\n      PUSH [$] 0000000000000000000000000000000000000000000000000000000000000000\t\t\t\n      DUP4 \t\t\t\n      CODECOPY \t\t\t\n      ADD \t\t\t\n      SWAP1 \t\t\t\n      JUMP \t\t\t\n    tag 83\t\t\t\n      JUMPDEST \t\t\t\n      PUSH 40\t\t\t\n      MLOAD \t\t\t\n      DUP1 \t\t\t\n      PUSH C0\t\t\t\n      ADD \t\t\t\n      PUSH 40\t\t\t\n      MSTORE \t\t\t\n      DUP1 \t\t\t\n      PUSH 0\t\t\t\n      PUSH FFFFFFFFFFFFFFFFFFFFFFFFFFFFFFFFFFFFFFFF\t\t\t\n      AND \t\t\t\n      DUP2 \t\t\t\n      MSTORE \t\t\t\n      PUSH 20\t\t\t\n      ADD \t\t\t\n      PUSH 60\t\t\t\n      DUP2 \t\t\t\n      MSTORE \t\t\t\n      PUSH 20\t\t\t\n      ADD \t\t\t\n      PUSH 0\t\t\t\n      PUSH FFFFFFFFFFFFFFFFFFFFFFFFFFFFFFFFFFFFFFFF\t\t\t\n      AND \t\t\t\n      DUP2 \t\t\t\n      MSTORE \t\t\t\n      PUSH 20\t\t\t\n      ADD \t\t\t\n      PUSH 60\t\t\t\n      DUP2 \t\t\t\n      MSTORE \t\t\t\n      PUSH 20\t\t\t\n      ADD \t\t\t\n      PUSH 0\t\t\t\n      DUP2 \t\t\t\n      MSTORE \t\t\t\n      PUSH 20\t\t\t\n      ADD \t\t\t\n      PUSH 60\t\t\t\n      DUP2 \t\t\t\n      MSTORE \t\t\t\n      POP \t\t\t\n      SWAP1 \t\t\t\n      JUMP \t\t\t\n    tag 174\t\t\t-License-Identifier: MIT\\nprag...\n      JUMPDEST \t\t\t-License-Identifier: MIT\\nprag...\n      PUSH 0\t\t\tolidit\n      PUSH 40\t\t\ten\n      MLOAD \t\t\tameToken}\n      SWAP1 \t\t\t\\nimport {GameToken}\n      POP \t\t\t\\nimport {GameToken}\n      SWAP1 \t\t\t-License-Identifier: MIT\\nprag...\n      JUMP \t\t\t-License-Identifier: MIT\\nprag...\n    tag 175\t\t\teToken.sol\";\\n\\ncontract GameF...\n      JUMPDEST \t\t\teToken.sol\";\\n\\ncontract GameF...\n      PUSH 0\t\t\tg\n      DUP1 \t\t\tr\n      REVERT \t\t\t     string \n    tag 176\t\t\t\\n        address indexed game...\n      JUMPDEST \t\t\t\\n        address indexed game...\n      PUSH 0\t\t\t\\n\n      DUP1 \t\t\tr\n      REVERT \t\t\ted buyer);\\n \n    tag 177\t\t\tatorFundsWithdrawn(address ind...\n      JUMPDEST \t\t\tatorFundsWithdrawn(address ind...\n      PUSH 0\t\t\t;\n      DUP1 \t\t\td\n      REVERT \t\t\tublished();\\n\n    tag 178\t\t\tvalidGame();\\n    error GameAl...\n      JUMPDEST \t\t\tvalidGame();\\n    error GameAl...\n      PUSH 0\t\t\t \n      DUP1 \t\t\t;\n      REVERT \t\t\ting cid;\\n   \n    tag 179\t\t\t token;\\n        string name;\\...\n      JUMPDEST \t\t\t token;\\n        string name;\\...\n      PUSH 0\t\t\t256 pr\n      PUSH 1F\t\t\tes\n      NOT \t\t\taddress\n      PUSH 1F\t\t\t\\n \n      DUP4 \t\t\t\\n    \n      ADD \t\t\tUrl;\\n    }\\n\\n  \n      AND \t\t\tmageUrl;\\n    }\\n\\n    address...\n      SWAP1 \t\t\t  string imageUrl;\\n    }\\n\\n ...\n      POP \t\t\t  string imageUrl;\\n    }\\n\\n ...\n      SWAP2 \t\t\t token;\\n        string name;\\...\n      SWAP1 \t\t\t token;\\n        string name;\\...\n      POP \t\t\t token;\\n        string name;\\...\n      JUMP \t\t\t token;\\n        string name;\\...\n    tag 112\t\t\tr;\\n    uint256 private fee = ...\n      JUMPDEST \t\t\tr;\\n    uint256 private fee = ...\n      PUSH 4E487B7100000000000000000000000000000000000000000000000000000000\t\t\ting => Game) private games;\\n ...\n      PUSH 0\t\t\ts\n      MSTORE \t\t\tapping(string => Game) private...\n      PUSH 41\t\t\treat\n      PUSH 4\t\t\te\n      MSTORE \t\t\t private creato\n      PUSH 24\t\t\telpe\n      PUSH 0\t\t\t/\n      REVERT \t\t\t\\n\\n    // Helper\n    tag 180\t\t\t convert bytes32 array to stri...\n      JUMPDEST \t\t\t convert bytes32 array to stri...\n      PUSH [tag] 241\t\t\t data)\\n        private\\n    \n      DUP3 \t\t\t\\n   \n      PUSH [tag] 179\t\t\t data)\\n        private\\n    \n      JUMP \t\t\t data)\\n        private\\n    \n    tag 241\t\t\t data)\\n        private\\n    \n      JUMPDEST \t\t\t data)\\n        private\\n    \n      DUP2 \t\t\t] memo\n      ADD \t\t\ts32[] memory data)\\n        pr...\n      DUP2 \t\t\t 0; i \n      DUP2 \t\t\t(uint256 i\n      LT \t\t\tor (uint256 i = 0; i <\n      PUSH FFFFFFFFFFFFFFFF\t\t\t byteArray;\\n      \n      DUP3 \t\t\tbytes memo\n      GT \t\t\t   bytes memory byteArray;\\n  ...\n      OR \t\t\t      bytes memory byteArray;\\...\n      ISZERO \t\t\t\\n        bytes memory byteArr...\n      PUSH [tag] 242\t\t\t\\n        bytes memory byteArr...\n      JUMPI \t\t\t\\n        bytes memory byteArr...\n      PUSH [tag] 243\t\t\ta.length; i++) {\\n \n      PUSH [tag] 112\t\t\ta.length; i++) {\\n \n      JUMP \t\t\ta.length; i++) {\\n \n    tag 243\t\t\ta.length; i++) {\\n \n      JUMPDEST \t\t\ta.length; i++) {\\n \n    tag 242\t\t\t\\n        bytes memory byteArr...\n      JUMPDEST \t\t\t\\n        bytes memory byteArr...\n      DUP1 \t\t\t abi.encod\n      PUSH 40\t\t\tay\n      MSTORE \t\t\tbyteArray = abi.encode\n      POP \t\t\ton bytes32ArrayToString(bytes3...\n      POP \t\t\t convert bytes32 array to stri...\n      POP \t\t\t convert bytes32 array to stri...\n      JUMP \t\t\t convert bytes32 array to stri...\n    tag 181\t\t\trray, data[i]);\\n        }\\n  ...\n      JUMPDEST \t\t\trray, data[i]);\\n        }\\n  ...\n      PUSH 0\t\t\treturn\n      PUSH [tag] 245\t\t\t   }\\n\\n    function p\n      PUSH [tag] 174\t\t\t   }\\n\\n    function p\n      JUMP \t\t\t   }\\n\\n    function p\n    tag 245\t\t\t   }\\n\\n    function p\n      JUMPDEST \t\t\t   }\\n\\n    function p\n      SWAP1 \t\t\teArray);\\n    }\\n\\n    functio...\n      POP \t\t\teArray);\\n    }\\n\\n    functio...\n      PUSH [tag] 246\t\t\te(\\n        string memory _cid...\n      DUP3 \t\t\td,\\n \n      DUP3 \t\t\tmory _\n      PUSH [tag] 180\t\t\te(\\n        string memory _cid...\n      JUMP \t\t\te(\\n        string memory _cid...\n    tag 246\t\t\te(\\n        string memory _cid...\n      JUMPDEST \t\t\te(\\n        string memory _cid...\n      SWAP2 \t\t\trray, data[i]);\\n        }\\n  ...\n      SWAP1 \t\t\trray, data[i]);\\n        }\\n  ...\n      POP \t\t\trray, data[i]);\\n        }\\n  ...\n      JUMP \t\t\trray, data[i]);\\n        }\\n  ...\n    tag 182\t\t\t memory _name,\\n        string...\n      JUMPDEST \t\t\t memory _name,\\n        string...\n      PUSH 0\t\t\tpric\n      PUSH FFFFFFFFFFFFFFFF\t\t\t address(0)) {\\n   \n      DUP3 \t\t\teator \n      GT \t\t\t.creator != address(0)) {\\n   ...\n      ISZERO \t\t\tid].creator != address(0)) {\\n...\n      PUSH [tag] 248\t\t\tid].creator != address(0)) {\\n...\n      JUMPI \t\t\tid].creator != address(0)) {\\n...\n      PUSH [tag] 249\t\t\t     revert GameAl\n      PUSH [tag] 112\t\t\t     revert GameAl\n      JUMP \t\t\t     revert GameAl\n    tag 249\t\t\t     revert GameAl\n      JUMPDEST \t\t\t     revert GameAl\n    tag 248\t\t\tid].creator != address(0)) {\\n...\n      JUMPDEST \t\t\tid].creator != address(0)) {\\n...\n      PUSH [tag] 250\t\t\t      }\\n\\n        GameToken g...\n      DUP3 \t\t\token g\n      PUSH [tag] 179\t\t\t      }\\n\\n        GameToken g...\n      JUMP \t\t\t      }\\n\\n        GameToken g...\n    tag 250\t\t\t      }\\n\\n        GameToken g...\n      JUMPDEST \t\t\t      }\\n\\n        GameToken g...\n      SWAP1 \t\t\ted();\\n        }\\n\\n        Ga...\n      POP \t\t\ted();\\n        }\\n\\n        Ga...\n      PUSH 20\t\t\t    \n      DUP2 \t\t\t);\\n \n      ADD \t\t\teUrl);\\n        \n      SWAP1 \t\t\tl, _imageUrl);\\n        \n      POP \t\t\tl, _imageUrl);\\n        \n      SWAP2 \t\t\t memory _name,\\n        string...\n      SWAP1 \t\t\t memory _name,\\n        string...\n      POP \t\t\t memory _name,\\n        string...\n      JUMP \t\t\t memory _name,\\n        string...\n    tag 183\t\t\tt(msg.sender);\\n\\n        game...\n      JUMPDEST \t\t\tt(msg.sender);\\n\\n        game...\n      DUP3 \t\t\taddres\n      DUP2 \t\t\t   \n      DUP4 \t\t\t   \n      CALLDATACOPY \t\t\t     _cid,\\n            addres...\n      PUSH 0\t\t\t \n      DUP4 \t\t\t_name,\n      DUP4 \t\t\t   \n      ADD \t\t\t         _name,\\n\n      MSTORE \t\t\tn),\\n            _name,\\n    \n      POP \t\t\tt(msg.sender);\\n\\n        game...\n      POP \t\t\tt(msg.sender);\\n\\n        game...\n      POP \t\t\tt(msg.sender);\\n\\n        game...\n      JUMP \t\t\tt(msg.sender);\\n\\n        game...\n    tag 184\t\t\t,\\n            _imageUrl\\n    ...\n      JUMPDEST \t\t\t,\\n            _imageUrl\\n    ...\n      PUSH 0\t\t\tokenC\n      PUSH [tag] 253\t\t\t 1, _cid, address(gameToken));...\n      PUSH [tag] 254\t\t\ts(gameToken));\\n    }\\n\\n    f...\n      DUP5 \t\t\t(strin\n      PUSH [tag] 182\t\t\ts(gameToken));\\n    }\\n\\n    f...\n      JUMP \t\t\ts(gameToken));\\n    }\\n\\n    f...\n    tag 254\t\t\ts(gameToken));\\n    }\\n\\n    f...\n      JUMPDEST \t\t\ts(gameToken));\\n    }\\n\\n    f...\n      PUSH [tag] 181\t\t\t 1, _cid, address(gameToken));...\n      JUMP \t\t\t 1, _cid, address(gameToken));...\n    tag 253\t\t\t 1, _cid, address(gameToken));...\n      JUMPDEST \t\t\t 1, _cid, address(gameToken));...\n      SWAP1 \t\t\t.length - 1, _cid, address(gam...\n      POP \t\t\t.length - 1, _cid, address(gam...\n      DUP3 \t\t\tayable\n      DUP2 \t\t\ternal\n      MSTORE \t\t\tid) external payable \n      PUSH 20\t\t\tames\n      DUP2 \t\t\tame =\n      ADD \t\t\ty _game = games[\n      DUP5 \t\t\tn =\n      DUP5 \t\t\t gameT\n      DUP5 \t\t\tTok\n      ADD \t\t\tGameToken gameTo\n      GT \t\t\t   GameToken gameToken = \n      ISZERO \t\t\t      GameToken gameToken = Ga...\n      PUSH [tag] 255\t\t\t      GameToken gameToken = Ga...\n      JUMPI \t\t\t      GameToken gameToken = Ga...\n      PUSH [tag] 256\t\t\teToken(_game.token);\\n\\n      ...\n      PUSH [tag] 178\t\t\teToken(_game.token);\\n\\n      ...\n      JUMP \t\t\teToken(_game.token);\\n\\n      ...\n    tag 256\t\t\teToken(_game.token);\\n\\n      ...\n      JUMPDEST \t\t\teToken(_game.token);\\n\\n      ...\n    tag 255\t\t\t      GameToken gameToken = Ga...\n      JUMPDEST \t\t\t      GameToken gameToken = Ga...\n      PUSH [tag] 257\t\t\tdGame();\\n        }\\n\\n       ...\n      DUP5 \t\t\tceOf(m\n      DUP3 \t\t\tbal\n      DUP6 \t\t\toke\n      PUSH [tag] 183\t\t\tdGame();\\n        }\\n\\n       ...\n      JUMP \t\t\tdGame();\\n        }\\n\\n       ...\n    tag 257\t\t\tdGame();\\n        }\\n\\n       ...\n      JUMPDEST \t\t\tdGame();\\n        }\\n\\n       ...\n      POP \t\t\teated(cids.length - 1, _cid, a...\n      SWAP4 \t\t\t,\\n            _imageUrl\\n    ...\n      SWAP3 \t\t\t,\\n            _imageUrl\\n    ...\n      POP \t\t\t,\\n            _imageUrl\\n    ...\n      POP \t\t\t,\\n            _imageUrl\\n    ...\n      POP \t\t\t,\\n            _imageUrl\\n    ...\n      JUMP \t\t\t,\\n            _imageUrl\\n    ...\n    tag 185\t\t\t    revert GameAlreadyBought()...\n      JUMPDEST \t\t\t    revert GameAlreadyBought()...\n      PUSH 0\t\t\tsg.va\n      DUP3 \t\t\tffi\n      PUSH 1F\t\t\trt I\n      DUP4 \t\t\t    re\n      ADD \t\t\t        revert In\n      SLT \t\t\t            revert Insuffic\n      PUSH [tag] 259\t\t\t.price) {\\n            revert ...\n      JUMPI \t\t\t.price) {\\n            revert ...\n      PUSH [tag] 260\t\t\tFunds();\\n        }\\n\\n       ...\n      PUSH [tag] 177\t\t\tFunds();\\n        }\\n\\n       ...\n      JUMP \t\t\tFunds();\\n        }\\n\\n       ...\n    tag 260\t\t\tFunds();\\n        }\\n\\n       ...\n      JUMPDEST \t\t\tFunds();\\n        }\\n\\n       ...\n    tag 259\t\t\t.price) {\\n            revert ...\n      JUMPDEST \t\t\t.price) {\\n            revert ...\n      DUP2 \t\t\t  emit\n      CALLDATALOAD \t\t\tder);\\n\\n        emit \n      PUSH [tag] 261\t\t\t, msg.sender);\\n    }\\n\\n    f...\n      DUP5 \t\t\t  i\n      DUP3 \t\t\t{\\n    \n      PUSH 20\t\t\ttern\n      DUP7 \t\t\tnds() \n      ADD \t\t\torFunds() externa\n      PUSH [tag] 184\t\t\t, msg.sender);\\n    }\\n\\n    f...\n      JUMP \t\t\t, msg.sender);\\n    }\\n\\n    f...\n    tag 261\t\t\t, msg.sender);\\n    }\\n\\n    f...\n      JUMPDEST \t\t\t, msg.sender);\\n    }\\n\\n    f...\n      SWAP2 \t\t\tased(_cid, msg.sender);\\n    }...\n      POP \t\t\tased(_cid, msg.sender);\\n    }...\n      POP \t\t\tue < _game.price) {\\n         ...\n      SWAP3 \t\t\t    revert GameAlreadyBought()...\n      SWAP2 \t\t\t    revert GameAlreadyBought()...\n      POP \t\t\t    revert GameAlreadyBought()...\n      POP \t\t\t    revert GameAlreadyBought()...\n      JUMP \t\t\t    revert GameAlreadyBought()...\n    tag 186\t\t\tance[msg.sender] == 0) {\\n    ...\n      JUMPDEST \t\t\tance[msg.sender] == 0) {\\n    ...\n      PUSH 0\t\t\trevert \n      DUP2 \t\t\t     \n      SWAP1 \t\t\ttFunds();\\n      \n      POP \t\t\ttFunds();\\n      \n      SWAP2 \t\t\tance[msg.sender] == 0) {\\n    ...\n      SWAP1 \t\t\tance[msg.sender] == 0) {\\n    ...\n      POP \t\t\tance[msg.sender] == 0) {\\n    ...\n      JUMP \t\t\tance[msg.sender] == 0) {\\n    ...\n    tag 187\t\t\tpayable(msg.sender).transfer(c...\n      JUMPDEST \t\t\tpayable(msg.sender).transfer(c...\n      PUSH [tag] 264\t\t\tbalance[msg.sender] = 0;\n      DUP2 \t\t\t] = 0\n      PUSH [tag] 186\t\t\tbalance[msg.sender] = 0;\n      JUMP \t\t\tbalance[msg.sender] = 0;\n    tag 264\t\t\tbalance[msg.sender] = 0;\n      JUMPDEST \t\t\tbalance[msg.sender] = 0;\n      DUP2 \t\t\tcreat\n      EQ \t\t\t   creatorbalance[msg.sender] ...\n      PUSH [tag] 265\t\t\tr]);\\n        creatorbalance[m...\n      JUMPI \t\t\tr]);\\n        creatorbalance[m...\n      PUSH 0\t\t\tC\n      DUP1 \t\t\ti\n      REVERT \t\t\t     emit Cr\n    tag 265\t\t\tr]);\\n        creatorbalance[m...\n      JUMPDEST \t\t\tr]);\\n        creatorbalance[m...\n      POP \t\t\tpayable(msg.sender).transfer(c...\n      JUMP \t\t\tpayable(msg.sender).transfer(c...\n    tag 188\t\t\tdrawn(msg.sender);\\n    }\\n\\n ...\n      JUMPDEST \t\t\tdrawn(msg.sender);\\n    }\\n\\n ...\n      PUSH 0\t\t\ts\\n   \n      DUP2 \t\t\try _ci\n      CALLDATALOAD \t\t\td(string memory _cid\n      SWAP1 \t\t\tsGameOwned(string memory _cid\n      POP \t\t\tsGameOwned(string memory _cid\n      PUSH [tag] 267\t\t\tl view returns (bool) {\\n     ...\n      DUP2 \t\t\t     \n      PUSH [tag] 187\t\t\tl view returns (bool) {\\n     ...\n      JUMP \t\t\tl view returns (bool) {\\n     ...\n    tag 267\t\t\tl view returns (bool) {\\n     ...\n      JUMPDEST \t\t\tl view returns (bool) {\\n     ...\n      SWAP3 \t\t\tdrawn(msg.sender);\\n    }\\n\\n ...\n      SWAP2 \t\t\tdrawn(msg.sender);\\n    }\\n\\n ...\n      POP \t\t\tdrawn(msg.sender);\\n    }\\n\\n ...\n      POP \t\t\tdrawn(msg.sender);\\n    }\\n\\n ...\n      JUMP \t\t\tdrawn(msg.sender);\\n    }\\n\\n ...\n    tag 14\t\t\tAddress = games[_cid].token;\\n...\n      JUMPDEST \t\t\tAddress = games[_cid].token;\\n...\n      PUSH 0\t\t\tmeToke\n      DUP1 \t\t\t= Game\n      PUSH 0\t\t\tken(to\n      DUP1 \t\t\tnAddre\n      PUSH 0\t\t\t);\\n   \n      PUSH A0\t\t\t >=\n      DUP7 \t\t\t(msg.send\n      DUP9 \t\t\tbalance\n      SUB \t\t\tken.balanceOf(msg.sende\n      SLT \t\t\tmeToken.balanceOf(msg.sender) ...\n      ISZERO \t\t\t gameToken.balanceOf(msg.sende...\n      PUSH [tag] 269\t\t\t gameToken.balanceOf(msg.sende...\n      JUMPI \t\t\t gameToken.balanceOf(msg.sende...\n      PUSH [tag] 270\t\t\t    }\\n\\n    function getGames...\n      PUSH [tag] 175\t\t\t    }\\n\\n    function getGames...\n      JUMP \t\t\t    }\\n\\n    function getGames...\n    tag 270\t\t\t    }\\n\\n    function getGames...\n      JUMPDEST \t\t\t    }\\n\\n    function getGames...\n    tag 269\t\t\t gameToken.balanceOf(msg.sende...\n      JUMPDEST \t\t\t gameToken.balanceOf(msg.sende...\n      PUSH 0\t\t\ti\n      DUP7 \t\t\tr (uint25\n      ADD \t\t\t  for (uint256 i \n      CALLDATALOAD \t\t\tngth);\\n        for (uint256 i...\n      PUSH FFFFFFFFFFFFFFFF\t\t\t\\n            _game\n      DUP2 \t\t\t; i++)\n      GT \t\t\tgth; i++) {\\n            _game...\n      ISZERO \t\t\tlength; i++) {\\n            _g...\n      PUSH [tag] 271\t\t\tlength; i++) {\\n            _g...\n      JUMPI \t\t\tlength; i++) {\\n            _g...\n      PUSH [tag] 272\t\t\t = games[cids[i]];\\n        }\\...\n      PUSH [tag] 176\t\t\t = games[cids[i]];\\n        }\\...\n      JUMP \t\t\t = games[cids[i]];\\n        }\\...\n    tag 272\t\t\t = games[cids[i]];\\n        }\\...\n      JUMPDEST \t\t\t = games[cids[i]];\\n        }\\...\n    tag 271\t\t\tlength; i++) {\\n            _g...\n      JUMPDEST \t\t\tlength; i++) {\\n            _g...\n      PUSH [tag] 273\t\t\t\\n        external\\n        vi...\n      DUP9 \t\t\tmory)\\n \n      DUP3 \t\t\t (Game\n      DUP10 \t\t\t    retur\n      ADD \t\t\t        returns (Game \n      PUSH [tag] 185\t\t\t\\n        external\\n        vi...\n      JUMP \t\t\t\\n        external\\n        vi...\n    tag 273\t\t\t\\n        external\\n        vi...\n      JUMPDEST \t\t\t\\n        external\\n        vi...\n      SWAP6 \t\t\tmory _cid)\\n        external\\n...\n      POP \t\t\tmory _cid)\\n        external\\n...\n      POP \t\t\ty _games = new Game[](cids.len...\n      PUSH 20\t\t\tre\n      DUP7 \t\t\tator == a\n      ADD \t\t\t.creator == addres\n      CALLDATALOAD \t\t\t    if (_game.creator == addre...\n      PUSH FFFFFFFFFFFFFFFF\t\t\tnvalidGame();\\n    \n      DUP2 \t\t\trevert\n      GT \t\t\t   revert InvalidGame();\\n    ...\n      ISZERO \t\t\t      revert InvalidGame();\\n ...\n      PUSH [tag] 274\t\t\t      revert InvalidGame();\\n ...\n      JUMPI \t\t\t      revert InvalidGame();\\n ...\n      PUSH [tag] 275\t\t\t}\\n        return _game;\\n    ...\n      PUSH [tag] 176\t\t\t}\\n        return _game;\\n    ...\n      JUMP \t\t\t}\\n        return _game;\\n    ...\n    tag 275\t\t\t}\\n        return _game;\\n    ...\n      JUMPDEST \t\t\t}\\n        return _game;\\n    ...\n    tag 274\t\t\t      revert InvalidGame();\\n ...\n      JUMPDEST \t\t\t      revert InvalidGame();\\n ...\n      PUSH [tag] 276\t\t\ts(address){\\n        return ga...\n      DUP9 \t\t\t  funct\n      DUP3 \t\t\t    }\\n\n      DUP10 \t\t\tid].token\n      ADD \t\t\ts[_cid].token;\\n    }\\n\\n\n      PUSH [tag] 185\t\t\ts(address){\\n        return ga...\n      JUMP \t\t\ts(address){\\n        return ga...\n    tag 276\t\t\ts(address){\\n        return ga...\n      JUMPDEST \t\t\ts(address){\\n        return ga...\n      SWAP5 \t\t\tiew returns(address){\\n       ...\n      POP \t\t\tiew returns(address){\\n       ...\n      POP \t\t\tory _game = games[_cid];\\n    ...\n      PUSH 40\t\t\tle\n      DUP7 \t\t\teturn cid\n      ADD \t\t\t   return cids.len\n      CALLDATALOAD \t\t\tt256) {\\n        return cids.l...\n      PUSH FFFFFFFFFFFFFFFF\t\t\t\n      DUP2 \t\t\t\n      GT \t\t\t\n      ISZERO \t\t\t\n      PUSH [tag] 277\t\t\t\n      JUMPI \t\t\t\n      PUSH [tag] 278\t\t\t\n      PUSH [tag] 176\t\t\t\n      JUMP \t\t\t\n    tag 278\t\t\t\n      JUMPDEST \t\t\t\n    tag 277\t\t\t\n      JUMPDEST \t\t\t\n      PUSH [tag] 279\t\t\t\n      DUP9 \t\t\t\n      DUP3 \t\t\t\n      DUP10 \t\t\t\n      ADD \t\t\t\n      PUSH [tag] 185\t\t\t\n      JUMP \t\t\t\n    tag 279\t\t\t\n      JUMPDEST \t\t\t\n      SWAP4 \t\t\t\n      POP \t\t\t\n      POP \t\t\t() external view returns (uint...\n      PUSH 60\t\t\t\n      PUSH [tag] 280\t\t\t\n      DUP9 \t\t\t\n      DUP3 \t\t\t\n      DUP10 \t\t\t\n      ADD \t\t\t\n      PUSH [tag] 188\t\t\t\n      JUMP \t\t\t\n    tag 280\t\t\t\n      JUMPDEST \t\t\t\n      SWAP3 \t\t\t\n      POP \t\t\t\n      POP \t\t\t\n      PUSH 80\t\t\t\n      DUP7 \t\t\t\n      ADD \t\t\t\n      CALLDATALOAD \t\t\t\n      PUSH FFFFFFFFFFFFFFFF\t\t\t\n      DUP2 \t\t\t\n      GT \t\t\t\n      ISZERO \t\t\t\n      PUSH [tag] 281\t\t\t\n      JUMPI \t\t\t\n      PUSH [tag] 282\t\t\t\n      PUSH [tag] 176\t\t\t\n      JUMP \t\t\t\n    tag 282\t\t\t\n      JUMPDEST \t\t\t\n    tag 281\t\t\t\n      JUMPDEST \t\t\t\n      PUSH [tag] 283\t\t\t\n      DUP9 \t\t\t\n      DUP3 \t\t\t\n      DUP10 \t\t\t\n      ADD \t\t\t\n      PUSH [tag] 185\t\t\t\n      JUMP \t\t\t\n    tag 283\t\t\t\n      JUMPDEST \t\t\t\n      SWAP2 \t\t\t\n      POP \t\t\t\n      POP \t\t\t\n      SWAP3 \t\t\tAddress = games[_cid].token;\\n...\n      SWAP6 \t\t\tAddress = games[_cid].token;\\n...\n      POP \t\t\tAddress = games[_cid].token;\\n...\n      SWAP3 \t\t\tAddress = games[_cid].token;\\n...\n      SWAP6 \t\t\tAddress = games[_cid].token;\\n...\n      SWAP1 \t\t\tAddress = games[_cid].token;\\n...\n      SWAP4 \t\t\tAddress = games[_cid].token;\\n...\n      POP \t\t\tAddress = games[_cid].token;\\n...\n      JUMP \t\t\tAddress = games[_cid].token;\\n...\n    tag 19\t\t\t\n      JUMPDEST \t\t\t\n      PUSH 0\t\t\t\n      PUSH 20\t\t\t\n      DUP3 \t\t\t\n      DUP5 \t\t\t\n      SUB \t\t\t\n      SLT \t\t\t\n      ISZERO \t\t\t\n      PUSH [tag] 285\t\t\t\n      JUMPI \t\t\t\n      PUSH [tag] 286\t\t\t\n      PUSH [tag] 175\t\t\t\n      JUMP \t\t\t\n    tag 286\t\t\t\n      JUMPDEST \t\t\t\n    tag 285\t\t\t\n      JUMPDEST \t\t\t\n      PUSH 0\t\t\t\n      DUP3 \t\t\t\n      ADD \t\t\t\n      CALLDATALOAD \t\t\t\n      PUSH FFFFFFFFFFFFFFFF\t\t\t\n      DUP2 \t\t\t\n      GT \t\t\t\n      ISZERO \t\t\t\n      PUSH [tag] 287\t\t\t\n      JUMPI \t\t\t\n      PUSH [tag] 288\t\t\t\n      PUSH [tag] 176\t\t\t\n      JUMP \t\t\t\n    tag 288\t\t\t\n      JUMPDEST \t\t\t\n    tag 287\t\t\t\n      JUMPDEST \t\t\t\n      PUSH [tag] 289\t\t\t\n      DUP5 \t\t\t\n      DUP3 \t\t\t\n      DUP6 \t\t\t\n      ADD \t\t\t\n      PUSH [tag] 185\t\t\t\n      JUMP \t\t\t\n    tag 289\t\t\t\n      JUMPDEST \t\t\t\n      SWAP2 \t\t\t\n      POP \t\t\t\n      POP \t\t\t\n      SWAP3 \t\t\t\n      SWAP2 \t\t\t\n      POP \t\t\t\n      POP \t\t\t\n      JUMP \t\t\t\n    tag 189\t\t\t\n      JUMPDEST \t\t\t\n      PUSH 0\t\t\t\n      DUP2 \t\t\t\n      ISZERO \t\t\t\n      ISZERO \t\t\t\n      SWAP1 \t\t\t\n      POP \t\t\t\n      SWAP2 \t\t\t\n      SWAP1 \t\t\t\n      POP \t\t\t\n      JUMP \t\t\t\n    tag 190\t\t\t\n      JUMPDEST \t\t\t\n      PUSH [tag] 292\t\t\t\n      DUP2 \t\t\t\n      PUSH [tag] 189\t\t\t\n      JUMP \t\t\t\n    tag 292\t\t\t\n      JUMPDEST \t\t\t\n      DUP3 \t\t\t\n      MSTORE \t\t\t\n      POP \t\t\t\n      POP \t\t\t\n      JUMP \t\t\t\n    tag 22\t\t\t\n      JUMPDEST \t\t\t\n      PUSH 0\t\t\t\n      PUSH 20\t\t\t\n      DUP3 \t\t\t\n      ADD \t\t\t\n      SWAP1 \t\t\t\n      POP \t\t\t\n      PUSH [tag] 294\t\t\t\n      PUSH 0\t\t\t\n      DUP4 \t\t\t\n      ADD \t\t\t\n      DUP5 \t\t\t\n      PUSH [tag] 190\t\t\t\n      JUMP \t\t\t\n    tag 294\t\t\t\n      JUMPDEST \t\t\t\n      SWAP3 \t\t\t\n      SWAP2 \t\t\t\n      POP \t\t\t\n      POP \t\t\t\n      JUMP \t\t\t\n    tag 191\t\t\t\n      JUMPDEST \t\t\t\n      PUSH 0\t\t\t\n      PUSH FFFFFFFFFFFFFFFFFFFFFFFFFFFFFFFFFFFFFFFF\t\t\t\n      DUP3 \t\t\t\n      AND \t\t\t\n      SWAP1 \t\t\t\n      POP \t\t\t\n      SWAP2 \t\t\t\n      SWAP1 \t\t\t\n      POP \t\t\t\n      JUMP \t\t\t\n    tag 192\t\t\t\n      JUMPDEST \t\t\t\n      PUSH 0\t\t\t\n      PUSH [tag] 297\t\t\t\n      DUP3 \t\t\t\n      PUSH [tag] 191\t\t\t\n      JUMP \t\t\t\n    tag 297\t\t\t\n      JUMPDEST \t\t\t\n      SWAP1 \t\t\t\n      POP \t\t\t\n      SWAP2 \t\t\t\n      SWAP1 \t\t\t\n      POP \t\t\t\n      JUMP \t\t\t\n    tag 193\t\t\t\n      JUMPDEST \t\t\t\n      PUSH [tag] 299\t\t\t\n      DUP2 \t\t\t\n      PUSH [tag] 192\t\t\t\n      JUMP \t\t\t\n    tag 299\t\t\t\n      JUMPDEST \t\t\t\n      DUP3 \t\t\t\n      MSTORE \t\t\t\n      POP \t\t\t\n      POP \t\t\t\n      JUMP \t\t\t\n    tag 194\t\t\t\n      JUMPDEST \t\t\t\n      PUSH 0\t\t\t\n      DUP2 \t\t\t\n      MLOAD \t\t\t\n      SWAP1 \t\t\t\n      POP \t\t\t\n      SWAP2 \t\t\t\n      SWAP1 \t\t\t\n      POP \t\t\t\n      JUMP \t\t\t\n    tag 195\t\t\t\n      JUMPDEST \t\t\t\n      PUSH 0\t\t\t\n      DUP3 \t\t\t\n      DUP3 \t\t\t\n      MSTORE \t\t\t\n      PUSH 20\t\t\t\n      DUP3 \t\t\t\n      ADD \t\t\t\n      SWAP1 \t\t\t\n      POP \t\t\t\n      SWAP3 \t\t\t\n      SWAP2 \t\t\t\n      POP \t\t\t\n      POP \t\t\t\n      JUMP \t\t\t\n    tag 196\t\t\t\n      JUMPDEST \t\t\t\n      DUP3 \t\t\t\n      DUP2 \t\t\t\n      DUP4 \t\t\t\n      MCOPY \t\t\t\n      PUSH 0\t\t\t\n      DUP4 \t\t\t\n      DUP4 \t\t\t\n      ADD \t\t\t\n      MSTORE \t\t\t\n      POP \t\t\t\n      POP \t\t\t\n      POP \t\t\t\n      JUMP \t\t\t\n    tag 197\t\t\t\n      JUMPDEST \t\t\t\n      PUSH 0\t\t\t\n      PUSH [tag] 304\t\t\t\n      DUP3 \t\t\t\n      PUSH [tag] 194\t\t\t\n      JUMP \t\t\t\n    tag 304\t\t\t\n      JUMPDEST \t\t\t\n      PUSH [tag] 305\t\t\t\n      DUP2 \t\t\t\n      DUP6 \t\t\t\n      PUSH [tag] 195\t\t\t\n      JUMP \t\t\t\n    tag 305\t\t\t\n      JUMPDEST \t\t\t\n      SWAP4 \t\t\t\n      POP \t\t\t\n      PUSH [tag] 306\t\t\t\n      DUP2 \t\t\t\n      DUP6 \t\t\t\n      PUSH 20\t\t\t\n      DUP7 \t\t\t\n      ADD \t\t\t\n      PUSH [tag] 196\t\t\t\n      JUMP \t\t\t\n    tag 306\t\t\t\n      JUMPDEST \t\t\t\n      PUSH [tag] 307\t\t\t\n      DUP2 \t\t\t\n      PUSH [tag] 179\t\t\t\n      JUMP \t\t\t\n    tag 307\t\t\t\n      JUMPDEST \t\t\t\n      DUP5 \t\t\t\n      ADD \t\t\t\n      SWAP2 \t\t\t\n      POP \t\t\t\n      POP \t\t\t\n      SWAP3 \t\t\t\n      SWAP2 \t\t\t\n      POP \t\t\t\n      POP \t\t\t\n      JUMP \t\t\t\n    tag 198\t\t\t\n      JUMPDEST \t\t\t\n      PUSH [tag] 309\t\t\t\n      DUP2 \t\t\t\n      PUSH [tag] 186\t\t\t\n      JUMP \t\t\t\n    tag 309\t\t\t\n      JUMPDEST \t\t\t\n      DUP3 \t\t\t\n      MSTORE \t\t\t\n      POP \t\t\t\n      POP \t\t\t\n      JUMP \t\t\t\n    tag 199\t\t\t\n      JUMPDEST \t\t\t\n      PUSH 0\t\t\t\n      PUSH C0\t\t\t\n      DUP4 \t\t\t\n      ADD \t\t\t\n      PUSH 0\t\t\t\n      DUP4 \t\t\t\n      ADD \t\t\t\n      MLOAD \t\t\t\n      PUSH [tag] 311\t\t\t\n      PUSH 0\t\t\t\n      DUP7 \t\t\t\n      ADD \t\t\t\n      DUP3 \t\t\t\n      PUSH [tag] 193\t\t\t\n      JUMP \t\t\t\n    tag 311\t\t\t\n      JUMPDEST \t\t\t\n      POP \t\t\t\n      PUSH 20\t\t\t\n      DUP4 \t\t\t\n      ADD \t\t\t\n      MLOAD \t\t\t\n      DUP5 \t\t\t\n      DUP3 \t\t\t\n      SUB \t\t\t\n      PUSH 20\t\t\t\n      DUP7 \t\t\t\n      ADD \t\t\t\n      MSTORE \t\t\t\n      PUSH [tag] 312\t\t\t\n      DUP3 \t\t\t\n      DUP3 \t\t\t\n      PUSH [tag] 197\t\t\t\n      JUMP \t\t\t\n    tag 312\t\t\t\n      JUMPDEST \t\t\t\n      SWAP2 \t\t\t\n      POP \t\t\t\n      POP \t\t\t\n      PUSH 40\t\t\t\n      DUP4 \t\t\t\n      ADD \t\t\t\n      MLOAD \t\t\t\n      PUSH [tag] 313\t\t\t\n      PUSH 40\t\t\t\n      DUP7 \t\t\t\n      ADD \t\t\t\n      DUP3 \t\t\t\n      PUSH [tag] 193\t\t\t\n      JUMP \t\t\t\n    tag 313\t\t\t\n      JUMPDEST \t\t\t\n      POP \t\t\t\n      PUSH 60\t\t\t\n      DUP4 \t\t\t\n      ADD \t\t\t\n      MLOAD \t\t\t\n      DUP5 \t\t\t\n      DUP3 \t\t\t\n      SUB \t\t\t\n      PUSH 60\t\t\t\n      DUP7 \t\t\t\n      ADD \t\t\t\n      MSTORE \t\t\t\n      PUSH [tag] 314\t\t\t\n      DUP3 \t\t\t\n      DUP3 \t\t\t\n      PUSH [tag] 197\t\t\t\n      JUMP \t\t\t\n    tag 314\t\t\t\n      JUMPDEST \t\t\t\n      SWAP2 \t\t\t\n      POP \t\t\t\n      POP \t\t\t\n      PUSH 80\t\t\t\n      DUP4 \t\t\t\n      ADD \t\t\t\n      MLOAD \t\t\t\n      PUSH [tag] 315\t\t\t\n      PUSH 80\t\t\t\n      DUP7 \t\t\t\n      ADD \t\t\t\n      DUP3 \t\t\t\n      PUSH [tag] 198\t\t\t\n      JUMP \t\t\t\n    tag 315\t\t\t\n      JUMPDEST \t\t\t\n      POP \t\t\t\n      PUSH A0\t\t\t\n      DUP4 \t\t\t\n      ADD \t\t\t\n      MLOAD \t\t\t\n      DUP5 \t\t\t\n      DUP3 \t\t\t\n      SUB \t\t\t\n      PUSH A0\t\t\t\n      DUP7 \t\t\t\n      ADD \t\t\t\n      MSTORE \t\t\t\n      PUSH [tag] 316\t\t\t\n      DUP3 \t\t\t\n      DUP3 \t\t\t\n      PUSH [tag] 197\t\t\t\n      JUMP \t\t\t\n    tag 316\t\t\t\n      JUMPDEST \t\t\t\n      SWAP2 \t\t\t\n      POP \t\t\t\n      POP \t\t\t\n      DUP1 \t\t\t\n      SWAP2 \t\t\t\n      POP \t\t\t\n      POP \t\t\t\n      SWAP3 \t\t\t\n      SWAP2 \t\t\t\n      POP \t\t\t\n      POP \t\t\t\n      JUMP \t\t\t\n    tag 28\t\t\t\n      JUMPDEST \t\t\t\n      PUSH 0\t\t\t\n      PUSH 20\t\t\t\n      DUP3 \t\t\t\n      ADD \t\t\t\n      SWAP1 \t\t\t\n      POP \t\t\t\n      DUP2 \t\t\t\n      DUP2 \t\t\t\n      SUB \t\t\t\n      PUSH 0\t\t\t\n      DUP4 \t\t\t\n      ADD \t\t\t\n      MSTORE \t\t\t\n      PUSH [tag] 318\t\t\t\n      DUP2 \t\t\t\n      DUP5 \t\t\t\n      PUSH [tag] 199\t\t\t\n      JUMP \t\t\t\n    tag 318\t\t\t\n      JUMPDEST \t\t\t\n      SWAP1 \t\t\t\n      POP \t\t\t\n      SWAP3 \t\t\t\n      SWAP2 \t\t\t\n      POP \t\t\t\n      POP \t\t\t\n      JUMP \t\t\t\n    tag 200\t\t\t\n      JUMPDEST \t\t\t\n      PUSH [tag] 320\t\t\t\n      DUP2 \t\t\t\n      PUSH [tag] 192\t\t\t\n      JUMP \t\t\t\n    tag 320\t\t\t\n      JUMPDEST \t\t\t\n      DUP3 \t\t\t\n      MSTORE \t\t\t\n      POP \t\t\t\n      POP \t\t\t\n      JUMP \t\t\t\n    tag 34\t\t\t\n      JUMPDEST \t\t\t\n      PUSH 0\t\t\t\n      PUSH 20\t\t\t\n      DUP3 \t\t\t\n      ADD \t\t\t\n      SWAP1 \t\t\t\n      POP \t\t\t\n      PUSH [tag] 322\t\t\t\n      PUSH 0\t\t\t\n      DUP4 \t\t\t\n      ADD \t\t\t\n      DUP5 \t\t\t\n      PUSH [tag] 200\t\t\t\n      JUMP \t\t\t\n    tag 322\t\t\t\n      JUMPDEST \t\t\t\n      SWAP3 \t\t\t\n      SWAP2 \t\t\t\n      POP \t\t\t\n      POP \t\t\t\n      JUMP \t\t\t\n    tag 201\t\t\t\n      JUMPDEST \t\t\t\n      PUSH 0\t\t\t\n      DUP2 \t\t\t\n      MLOAD \t\t\t\n      SWAP1 \t\t\t\n      POP \t\t\t\n      SWAP2 \t\t\t\n      SWAP1 \t\t\t\n      POP \t\t\t\n      JUMP \t\t\t\n    tag 202\t\t\t\n      JUMPDEST \t\t\t\n      PUSH 0\t\t\t\n      DUP3 \t\t\t\n      DUP3 \t\t\t\n      MSTORE \t\t\t\n      PUSH 20\t\t\t\n      DUP3 \t\t\t\n      ADD \t\t\t\n      SWAP1 \t\t\t\n      POP \t\t\t\n      SWAP3 \t\t\t\n      SWAP2 \t\t\t\n      POP \t\t\t\n      POP \t\t\t\n      JUMP \t\t\t\n    tag 203\t\t\t\n      JUMPDEST \t\t\t\n      PUSH 0\t\t\t\n      DUP2 \t\t\t\n      SWAP1 \t\t\t\n      POP \t\t\t\n      PUSH 20\t\t\t\n      DUP3 \t\t\t\n      ADD \t\t\t\n      SWAP1 \t\t\t\n      POP \t\t\t\n      SWAP2 \t\t\t\n      SWAP1 \t\t\t\n      POP \t\t\t\n      JUMP \t\t\t\n    tag 204\t\t\t\n      JUMPDEST \t\t\t\n      PUSH 0\t\t\t\n      PUSH C0\t\t\t\n      DUP4 \t\t\t\n      ADD \t\t\t\n      PUSH 0\t\t\t\n      DUP4 \t\t\t\n      ADD \t\t\t\n      MLOAD \t\t\t\n      PUSH [tag] 327\t\t\t\n      PUSH 0\t\t\t\n      DUP7 \t\t\t\n      ADD \t\t\t\n      DUP3 \t\t\t\n      PUSH [tag] 193\t\t\t\n      JUMP \t\t\t\n    tag 327\t\t\t\n      JUMPDEST \t\t\t\n      POP \t\t\t\n      PUSH 20\t\t\t\n      DUP4 \t\t\t\n      ADD \t\t\t\n      MLOAD \t\t\t\n      DUP5 \t\t\t\n      DUP3 \t\t\t\n      SUB \t\t\t\n      PUSH 20\t\t\t\n      DUP7 \t\t\t\n      ADD \t\t\t\n      MSTORE \t\t\t\n      PUSH [tag] 328\t\t\t\n      DUP3 \t\t\t\n      DUP3 \t\t\t\n      PUSH [tag] 197\t\t\t\n      JUMP \t\t\t\n    tag 328\t\t\t\n      JUMPDEST \t\t\t\n      SWAP2 \t\t\t\n      POP \t\t\t\n      POP \t\t\t\n      PUSH 40\t\t\t\n      DUP4 \t\t\t\n      ADD \t\t\t\n      MLOAD \t\t\t\n      PUSH [tag] 329\t\t\t\n      PUSH 40\t\t\t\n      DUP7 \t\t\t\n      ADD \t\t\t\n      DUP3 \t\t\t\n      PUSH [tag] 193\t\t\t\n      JUMP \t\t\t\n    tag 329\t\t\t\n      JUMPDEST \t\t\t\n      POP \t\t\t\n      PUSH 60\t\t\t\n      DUP4 \t\t\t\n      ADD \t\t\t\n      MLOAD \t\t\t\n      DUP5 \t\t\t\n      DUP3 \t\t\t\n      SUB \t\t\t\n      PUSH 60\t\t\t\n      DUP7 \t\t\t\n      ADD \t\t\t\n      MSTORE \t\t\t\n      PUSH [tag] 330\t\t\t\n      DUP3 \t\t\t\n      DUP3 \t\t\t\n      PUSH [tag] 197\t\t\t\n      JUMP \t\t\t\n    tag 330\t\t\t\n      JUMPDEST \t\t\t\n      SWAP2 \t\t\t\n      POP \t\t\t\n      POP \t\t\t\n      PUSH 80\t\t\t\n      DUP4 \t\t\t\n      ADD \t\t\t\n      MLOAD \t\t\t\n      PUSH [tag] 331\t\t\t\n      PUSH 80\t\t\t\n      DUP7 \t\t\t\n      ADD \t\t\t\n      DUP3 \t\t\t\n      PUSH [tag] 198\t\t\t\n      JUMP \t\t\t\n    tag 331\t\t\t\n      JUMPDEST \t\t\t\n      POP \t\t\t\n      PUSH A0\t\t\t\n      DUP4 \t\t\t\n      ADD \t\t\t\n      MLOAD \t\t\t\n      DUP5 \t\t\t\n      DUP3 \t\t\t\n      SUB \t\t\t\n      PUSH A0\t\t\t\n      DUP7 \t\t\t\n      ADD \t\t\t\n      MSTORE \t\t\t\n      PUSH [tag] 332\t\t\t\n      DUP3 \t\t\t\n      DUP3 \t\t\t\n      PUSH [tag] 197\t\t\t\n      JUMP \t\t\t\n    tag 332\t\t\t\n      JUMPDEST \t\t\t\n      SWAP2 \t\t\t\n      POP \t\t\t\n      POP \t\t\t\n      DUP1 \t\t\t\n      SWAP2 \t\t\t\n      POP \t\t\t\n      POP \t\t\t\n      SWAP3 \t\t\t\n      SWAP2 \t\t\t\n      POP \t\t\t\n      POP \t\t\t\n      JUMP \t\t\t\n    tag 205\t\t\t\n      JUMPDEST \t\t\t\n      PUSH 0\t\t\t\n      PUSH [tag] 334\t\t\t\n      DUP4 \t\t\t\n      DUP4 \t\t\t\n      PUSH [tag] 204\t\t\t\n      JUMP \t\t\t\n    tag 334\t\t\t\n      JUMPDEST \t\t\t\n      SWAP1 \t\t\t\n      POP \t\t\t\n      SWAP3 \t\t\t\n      SWAP2 \t\t\t\n      POP \t\t\t\n      POP \t\t\t\n      JUMP \t\t\t\n    tag 206\t\t\t\n      JUMPDEST \t\t\t\n      PUSH 0\t\t\t\n      PUSH 20\t\t\t\n      DUP3 \t\t\t\n      ADD \t\t\t\n      SWAP1 \t\t\t\n      POP \t\t\t\n      SWAP2 \t\t\t\n      SWAP1 \t\t\t\n      POP \t\t\t\n      JUMP \t\t\t\n    tag 207\t\t\t\n      JUMPDEST \t\t\t\n      PUSH 0\t\t\t\n      PUSH [tag] 337\t\t\t\n      DUP3 \t\t\t\n      PUSH [tag] 201\t\t\t\n      JUMP \t\t\t\n    tag 337\t\t\t\n      JUMPDEST \t\t\t\n      PUSH [tag] 338\t\t\t\n      DUP2 \t\t\t\n      DUP6 \t\t\t\n      PUSH [tag] 202\t\t\t\n      JUMP \t\t\t\n    tag 338\t\t\t\n      JUMPDEST \t\t\t\n      SWAP4 \t\t\t\n      POP \t\t\t\n      DUP4 \t\t\t\n      PUSH 20\t\t\t\n      DUP3 \t\t\t\n      MUL \t\t\t\n      DUP6 \t\t\t\n      ADD \t\t\t\n      PUSH [tag] 339\t\t\t\n      DUP6 \t\t\t\n      PUSH [tag] 203\t\t\t\n      JUMP \t\t\t\n    tag 339\t\t\t\n      JUMPDEST \t\t\t\n      DUP1 \t\t\t\n      PUSH 0\t\t\t\n    tag 340\t\t\t\n      JUMPDEST \t\t\t\n      DUP6 \t\t\t\n      DUP2 \t\t\t\n      LT \t\t\t\n      ISZERO \t\t\t\n      PUSH [tag] 342\t\t\t\n      JUMPI \t\t\t\n      DUP5 \t\t\t\n      DUP5 \t\t\t\n      SUB \t\t\t\n      DUP10 \t\t\t\n      MSTORE \t\t\t\n      DUP2 \t\t\t\n      MLOAD \t\t\t\n      PUSH [tag] 343\t\t\t\n      DUP6 \t\t\t\n      DUP3 \t\t\t\n      PUSH [tag] 205\t\t\t\n      JUMP \t\t\t\n    tag 343\t\t\t\n      JUMPDEST \t\t\t\n      SWAP5 \t\t\t\n      POP \t\t\t\n      PUSH [tag] 344\t\t\t\n      DUP4 \t\t\t\n      PUSH [tag] 206\t\t\t\n      JUMP \t\t\t\n    tag 344\t\t\t\n      JUMPDEST \t\t\t\n      SWAP3 \t\t\t\n      POP \t\t\t\n      PUSH 20\t\t\t\n      DUP11 \t\t\t\n      ADD \t\t\t\n      SWAP10 \t\t\t\n      POP \t\t\t\n      POP \t\t\t\n      PUSH 1\t\t\t\n      DUP2 \t\t\t\n      ADD \t\t\t\n      SWAP1 \t\t\t\n      POP \t\t\t\n      PUSH [tag] 340\t\t\t\n      JUMP \t\t\t\n    tag 342\t\t\t\n      JUMPDEST \t\t\t\n      POP \t\t\t\n      DUP3 \t\t\t\n      SWAP8 \t\t\t\n      POP \t\t\t\n      DUP8 \t\t\t\n      SWAP6 \t\t\t\n      POP \t\t\t\n      POP \t\t\t\n      POP \t\t\t\n      POP \t\t\t\n      POP \t\t\t\n      POP \t\t\t\n      SWAP3 \t\t\t\n      SWAP2 \t\t\t\n      POP \t\t\t\n      POP \t\t\t\n      JUMP \t\t\t\n    tag 42\t\t\t\n      JUMPDEST \t\t\t\n      PUSH 0\t\t\t\n      PUSH 20\t\t\t\n      DUP3 \t\t\t\n      ADD \t\t\t\n      SWAP1 \t\t\t\n      POP \t\t\t\n      DUP2 \t\t\t\n      DUP2 \t\t\t\n      SUB \t\t\t\n      PUSH 0\t\t\t\n      DUP4 \t\t\t\n      ADD \t\t\t\n      MSTORE \t\t\t\n      PUSH [tag] 346\t\t\t\n      DUP2 \t\t\t\n      DUP5 \t\t\t\n      PUSH [tag] 207\t\t\t\n      JUMP \t\t\t\n    tag 346\t\t\t\n      JUMPDEST \t\t\t\n      SWAP1 \t\t\t\n      POP \t\t\t\n      SWAP3 \t\t\t\n      SWAP2 \t\t\t\n      POP \t\t\t\n      POP \t\t\t\n      JUMP \t\t\t\n    tag 208\t\t\t\n      JUMPDEST \t\t\t\n      PUSH [tag] 348\t\t\t\n      DUP2 \t\t\t\n      PUSH [tag] 186\t\t\t\n      JUMP \t\t\t\n    tag 348\t\t\t\n      JUMPDEST \t\t\t\n      DUP3 \t\t\t\n      MSTORE \t\t\t\n      POP \t\t\t\n      POP \t\t\t\n      JUMP \t\t\t\n    tag 47\t\t\t\n      JUMPDEST \t\t\t\n      PUSH 0\t\t\t\n      PUSH 20\t\t\t\n      DUP3 \t\t\t\n      ADD \t\t\t\n      SWAP1 \t\t\t\n      POP \t\t\t\n      PUSH [tag] 350\t\t\t\n      PUSH 0\t\t\t\n      DUP4 \t\t\t\n      ADD \t\t\t\n      DUP5 \t\t\t\n      PUSH [tag] 208\t\t\t\n      JUMP \t\t\t\n    tag 350\t\t\t\n      JUMPDEST \t\t\t\n      SWAP3 \t\t\t\n      SWAP2 \t\t\t\n      POP \t\t\t\n      POP \t\t\t\n      JUMP \t\t\t\n    tag 209\t\t\t\n      JUMPDEST \t\t\t\n      PUSH 0\t\t\t\n      DUP2 \t\t\t\n      SWAP1 \t\t\t\n      POP \t\t\t\n      SWAP3 \t\t\t\n      SWAP2 \t\t\t\n      POP \t\t\t\n      POP \t\t\t\n      JUMP \t\t\t\n    tag 210\t\t\t\n      JUMPDEST \t\t\t\n      PUSH 0\t\t\t\n      PUSH [tag] 353\t\t\t\n      DUP3 \t\t\t\n      PUSH [tag] 194\t\t\t\n      JUMP \t\t\t\n    tag 353\t\t\t\n      JUMPDEST \t\t\t\n      PUSH [tag] 354\t\t\t\n      DUP2 \t\t\t\n      DUP6 \t\t\t\n      PUSH [tag] 209\t\t\t\n      JUMP \t\t\t\n    tag 354\t\t\t\n      JUMPDEST \t\t\t\n      SWAP4 \t\t\t\n      POP \t\t\t\n      PUSH [tag] 355\t\t\t\n      DUP2 \t\t\t\n      DUP6 \t\t\t\n      PUSH 20\t\t\t\n      DUP7 \t\t\t\n      ADD \t\t\t\n      PUSH [tag] 196\t\t\t\n      JUMP \t\t\t\n    tag 355\t\t\t\n      JUMPDEST \t\t\t\n      DUP1 \t\t\t\n      DUP5 \t\t\t\n      ADD \t\t\t\n      SWAP2 \t\t\t\n      POP \t\t\t\n      POP \t\t\t\n      SWAP3 \t\t\t\n      SWAP2 \t\t\t\n      POP \t\t\t\n      POP \t\t\t\n      JUMP \t\t\t\n    tag 53\t\t\t\n      JUMPDEST \t\t\t\n      PUSH 0\t\t\t\n      PUSH [tag] 357\t\t\t\n      DUP3 \t\t\t\n      DUP5 \t\t\t\n      PUSH [tag] 210\t\t\t\n      JUMP \t\t\t\n    tag 357\t\t\t\n      JUMPDEST \t\t\t\n      SWAP2 \t\t\t\n      POP \t\t\t\n      DUP2 \t\t\t\n      SWAP1 \t\t\t\n      POP \t\t\t\n      SWAP3 \t\t\t\n      SWAP2 \t\t\t\n      POP \t\t\t\n      POP \t\t\t\n      JUMP \t\t\t\n    tag 211\t\t\t\n      JUMPDEST \t\t\t\n      PUSH 0\t\t\t\n      DUP3 \t\t\t\n      DUP3 \t\t\t\n      MSTORE \t\t\t\n      PUSH 20\t\t\t\n      DUP3 \t\t\t\n      ADD \t\t\t\n      SWAP1 \t\t\t\n      POP \t\t\t\n      SWAP3 \t\t\t\n      SWAP2 \t\t\t\n      POP \t\t\t\n      POP \t\t\t\n      JUMP \t\t\t\n    tag 212\t\t\t\n      JUMPDEST \t\t\t\n      PUSH 0\t\t\t\n      PUSH [tag] 360\t\t\t\n      DUP3 \t\t\t\n      PUSH [tag] 194\t\t\t\n      JUMP \t\t\t\n    tag 360\t\t\t\n      JUMPDEST \t\t\t\n      PUSH [tag] 361\t\t\t\n      DUP2 \t\t\t\n      DUP6 \t\t\t\n      PUSH [tag] 211\t\t\t\n      JUMP \t\t\t\n    tag 361\t\t\t\n      JUMPDEST \t\t\t\n      SWAP4 \t\t\t\n      POP \t\t\t\n      PUSH [tag] 362\t\t\t\n      DUP2 \t\t\t\n      DUP6 \t\t\t\n      PUSH 20\t\t\t\n      DUP7 \t\t\t\n      ADD \t\t\t\n      PUSH [tag] 196\t\t\t\n      JUMP \t\t\t\n    tag 362\t\t\t\n      JUMPDEST \t\t\t\n      PUSH [tag] 363\t\t\t\n      DUP2 \t\t\t\n      PUSH [tag] 179\t\t\t\n      JUMP \t\t\t\n    tag 363\t\t\t\n      JUMPDEST \t\t\t\n      DUP5 \t\t\t\n      ADD \t\t\t\n      SWAP2 \t\t\t\n      POP \t\t\t\n      POP \t\t\t\n      SWAP3 \t\t\t\n      SWAP2 \t\t\t\n      POP \t\t\t\n      POP \t\t\t\n      JUMP \t\t\t\n    tag 58\t\t\t\n      JUMPDEST \t\t\t\n      PUSH 0\t\t\t\n      PUSH 60\t\t\t\n      DUP3 \t\t\t\n      ADD \t\t\t\n      SWAP1 \t\t\t\n      POP \t\t\t\n      DUP2 \t\t\t\n      DUP2 \t\t\t\n      SUB \t\t\t\n      PUSH 0\t\t\t\n      DUP4 \t\t\t\n      ADD \t\t\t\n      MSTORE \t\t\t\n      PUSH [tag] 365\t\t\t\n      DUP2 \t\t\t\n      DUP7 \t\t\t\n      PUSH [tag] 212\t\t\t\n      JUMP \t\t\t\n    tag 365\t\t\t\n      JUMPDEST \t\t\t\n      SWAP1 \t\t\t\n      POP \t\t\t\n      DUP2 \t\t\t\n      DUP2 \t\t\t\n      SUB \t\t\t\n      PUSH 20\t\t\t\n      DUP4 \t\t\t\n      ADD \t\t\t\n      MSTORE \t\t\t\n      PUSH [tag] 366\t\t\t\n      DUP2 \t\t\t\n      DUP6 \t\t\t\n      PUSH [tag] 212\t\t\t\n      JUMP \t\t\t\n    tag 366\t\t\t\n      JUMPDEST \t\t\t\n      SWAP1 \t\t\t\n      POP \t\t\t\n      DUP2 \t\t\t\n      DUP2 \t\t\t\n      SUB \t\t\t\n      PUSH 40\t\t\t\n      DUP4 \t\t\t\n      ADD \t\t\t\n      MSTORE \t\t\t\n      PUSH [tag] 367\t\t\t\n      DUP2 \t\t\t\n      DUP5 \t\t\t\n      PUSH [tag] 212\t\t\t\n      JUMP \t\t\t\n    tag 367\t\t\t\n      JUMPDEST \t\t\t\n      SWAP1 \t\t\t\n      POP \t\t\t\n      SWAP5 \t\t\t\n      SWAP4 \t\t\t\n      POP \t\t\t\n      POP \t\t\t\n      POP \t\t\t\n      POP \t\t\t\n      JUMP \t\t\t\n    tag 213\t\t\t\n      JUMPDEST \t\t\t\n      PUSH 4E487B7100000000000000000000000000000000000000000000000000000000\t\t\t\n      PUSH 0\t\t\t\n      MSTORE \t\t\t\n      PUSH 22\t\t\t\n      PUSH 4\t\t\t\n      MSTORE \t\t\t\n      PUSH 24\t\t\t\n      PUSH 0\t\t\t\n      REVERT \t\t\t\n    tag 87\t\t\t\n      JUMPDEST \t\t\t\n      PUSH 0\t\t\t\n      PUSH 2\t\t\t\n      DUP3 \t\t\t\n      DIV \t\t\t\n      SWAP1 \t\t\t\n      POP \t\t\t\n      PUSH 1\t\t\t\n      DUP3 \t\t\t\n      AND \t\t\t\n      DUP1 \t\t\t\n      PUSH [tag] 370\t\t\t\n      JUMPI \t\t\t\n      PUSH 7F\t\t\t\n      DUP3 \t\t\t\n      AND \t\t\t\n      SWAP2 \t\t\t\n      POP \t\t\t\n    tag 370\t\t\t\n      JUMPDEST \t\t\t\n      PUSH 20\t\t\t\n      DUP3 \t\t\t\n      LT \t\t\t\n      DUP2 \t\t\t\n      SUB \t\t\t\n      PUSH [tag] 371\t\t\t\n      JUMPI \t\t\t\n      PUSH [tag] 372\t\t\t\n      PUSH [tag] 213\t\t\t\n      JUMP \t\t\t\n    tag 372\t\t\t\n      JUMPDEST \t\t\t\n    tag 371\t\t\t\n      JUMPDEST \t\t\t\n      POP \t\t\t\n      SWAP2 \t\t\t\n      SWAP1 \t\t\t\n      POP \t\t\t\n      JUMP \t\t\t\n    tag 214\t\t\t\n      JUMPDEST \t\t\t\n      PUSH 0\t\t\t\n      DUP2 \t\t\t\n      SWAP1 \t\t\t\n      POP \t\t\t\n      DUP2 \t\t\t\n      PUSH 0\t\t\t\n      MSTORE \t\t\t\n      PUSH 20\t\t\t\n      PUSH 0\t\t\t\n      KECCAK256 \t\t\t\n      SWAP1 \t\t\t\n      POP \t\t\t\n      SWAP2 \t\t\t\n      SWAP1 \t\t\t\n      POP \t\t\t\n      JUMP \t\t\t\n    tag 215\t\t\t\n      JUMPDEST \t\t\t\n      PUSH 0\t\t\t\n      PUSH 20\t\t\t\n      PUSH 1F\t\t\t\n      DUP4 \t\t\t\n      ADD \t\t\t\n      DIV \t\t\t\n      SWAP1 \t\t\t\n      POP \t\t\t\n      SWAP2 \t\t\t\n      SWAP1 \t\t\t\n      POP \t\t\t\n      JUMP \t\t\t\n    tag 216\t\t\t\n      JUMPDEST \t\t\t\n      PUSH 0\t\t\t\n      DUP3 \t\t\t\n      DUP3 \t\t\t\n      SHL \t\t\t\n      SWAP1 \t\t\t\n      POP \t\t\t\n      SWAP3 \t\t\t\n      SWAP2 \t\t\t\n      POP \t\t\t\n      POP \t\t\t\n      JUMP \t\t\t\n    tag 217\t\t\t\n      JUMPDEST \t\t\t\n      PUSH 0\t\t\t\n      PUSH 8\t\t\t\n      DUP4 \t\t\t\n      MUL \t\t\t\n      PUSH [tag] 377\t\t\t\n      PUSH FFFFFFFFFFFFFFFFFFFFFFFFFFFFFFFFFFFFFFFFFFFFFFFFFFFFFFFFFFFFFFFF\t\t\t\n      DUP3 \t\t\t\n      PUSH [tag] 216\t\t\t\n      JUMP \t\t\t\n    tag 377\t\t\t\n      JUMPDEST \t\t\t\n      PUSH [tag] 378\t\t\t\n      DUP7 \t\t\t\n      DUP4 \t\t\t\n      PUSH [tag] 216\t\t\t\n      JUMP \t\t\t\n    tag 378\t\t\t\n      JUMPDEST \t\t\t\n      SWAP6 \t\t\t\n      POP \t\t\t\n      DUP1 \t\t\t\n      NOT \t\t\t\n      DUP5 \t\t\t\n      AND \t\t\t\n      SWAP4 \t\t\t\n      POP \t\t\t\n      DUP1 \t\t\t\n      DUP7 \t\t\t\n      AND \t\t\t\n      DUP5 \t\t\t\n      OR \t\t\t\n      SWAP3 \t\t\t\n      POP \t\t\t\n      POP \t\t\t\n      POP \t\t\t\n      SWAP4 \t\t\t\n      SWAP3 \t\t\t\n      POP \t\t\t\n      POP \t\t\t\n      POP \t\t\t\n      JUMP \t\t\t\n    tag 218\t\t\t\n      JUMPDEST \t\t\t\n      PUSH 0\t\t\t\n      DUP2 \t\t\t\n      SWAP1 \t\t\t\n      POP \t\t\t\n      SWAP2 \t\t\t\n      SWAP1 \t\t\t\n      POP \t\t\t\n      JUMP \t\t\t\n    tag 219\t\t\t\n      JUMPDEST \t\t\t\n      PUSH 0\t\t\t\n      PUSH [tag] 381\t\t\t\n      PUSH [tag] 382\t\t\t\n      PUSH [tag] 383\t\t\t\n      DUP5 \t\t\t\n      PUSH [tag] 186\t\t\t\n      JUMP \t\t\t\n    tag 383\t\t\t\n      JUMPDEST \t\t\t\n      PUSH [tag] 218\t\t\t\n      JUMP \t\t\t\n    tag 382\t\t\t\n      JUMPDEST \t\t\t\n      PUSH [tag] 186\t\t\t\n      JUMP \t\t\t\n    tag 381\t\t\t\n      JUMPDEST \t\t\t\n      SWAP1 \t\t\t\n      POP \t\t\t\n      SWAP2 \t\t\t\n      SWAP1 \t\t\t\n      POP \t\t\t\n      JUMP \t\t\t\n    tag 220\t\t\t\n      JUMPDEST \t\t\t\n      PUSH 0\t\t\t\n      DUP2 \t\t\t\n      SWAP1 \t\t\t\n      POP \t\t\t\n      SWAP2 \t\t\t\n      SWAP1 \t\t\t\n      POP \t\t\t\n      JUMP \t\t\t\n    tag 221\t\t\t\n      JUMPDEST \t\t\t\n      PUSH [tag] 386\t\t\t\n      DUP4 \t\t\t\n      PUSH [tag] 219\t\t\t\n      JUMP \t\t\t\n    tag 386\t\t\t\n      JUMPDEST \t\t\t\n      PUSH [tag] 387\t\t\t\n      PUSH [tag] 388\t\t\t\n      DUP3 \t\t\t\n      PUSH [tag] 220\t\t\t\n      JUMP \t\t\t\n    tag 388\t\t\t\n      JUMPDEST \t\t\t\n      DUP5 \t\t\t\n      DUP5 \t\t\t\n      SLOAD \t\t\t\n      PUSH [tag] 217\t\t\t\n      JUMP \t\t\t\n    tag 387\t\t\t\n      JUMPDEST \t\t\t\n      DUP3 \t\t\t\n      SSTORE \t\t\t\n      POP \t\t\t\n      POP \t\t\t\n      POP \t\t\t\n      POP \t\t\t\n      JUMP \t\t\t\n    tag 222\t\t\t\n      JUMPDEST \t\t\t\n      PUSH 0\t\t\t\n      SWAP1 \t\t\t\n      JUMP \t\t\t\n    tag 223\t\t\t\n      JUMPDEST \t\t\t\n      PUSH [tag] 391\t\t\t\n      PUSH [tag] 222\t\t\t\n      JUMP \t\t\t\n    tag 391\t\t\t\n      JUMPDEST \t\t\t\n      PUSH [tag] 392\t\t\t\n      DUP2 \t\t\t\n      DUP5 \t\t\t\n      DUP5 \t\t\t\n      PUSH [tag] 221\t\t\t\n      JUMP \t\t\t\n    tag 392\t\t\t\n      JUMPDEST \t\t\t\n      POP \t\t\t\n      POP \t\t\t\n      POP \t\t\t\n      JUMP \t\t\t\n    tag 224\t\t\t\n      JUMPDEST \t\t\t\n    tag 394\t\t\t\n      JUMPDEST \t\t\t\n      DUP2 \t\t\t\n      DUP2 \t\t\t\n      LT \t\t\t\n      ISZERO \t\t\t\n      PUSH [tag] 396\t\t\t\n      JUMPI \t\t\t\n      PUSH [tag] 397\t\t\t\n      PUSH 0\t\t\t\n      DUP3 \t\t\t\n      PUSH [tag] 223\t\t\t\n      JUMP \t\t\t\n    tag 397\t\t\t\n      JUMPDEST \t\t\t\n      PUSH 1\t\t\t\n      DUP2 \t\t\t\n      ADD \t\t\t\n      SWAP1 \t\t\t\n      POP \t\t\t\n      PUSH [tag] 394\t\t\t\n      JUMP \t\t\t\n    tag 396\t\t\t\n      JUMPDEST \t\t\t\n      POP \t\t\t\n      POP \t\t\t\n      JUMP \t\t\t\n    tag 225\t\t\t\n      JUMPDEST \t\t\t\n      PUSH 1F\t\t\t\n      DUP3 \t\t\t\n      GT \t\t\t\n      ISZERO \t\t\t\n      PUSH [tag] 399\t\t\t\n      JUMPI \t\t\t\n      PUSH [tag] 400\t\t\t\n      DUP2 \t\t\t\n      PUSH [tag] 214\t\t\t\n      JUMP \t\t\t\n    tag 400\t\t\t\n      JUMPDEST \t\t\t\n      PUSH [tag] 401\t\t\t\n      DUP5 \t\t\t\n      PUSH [tag] 215\t\t\t\n      JUMP \t\t\t\n    tag 401\t\t\t\n      JUMPDEST \t\t\t\n      DUP2 \t\t\t\n      ADD \t\t\t\n      PUSH 20\t\t\t\n      DUP6 \t\t\t\n      LT \t\t\t\n      ISZERO \t\t\t\n      PUSH [tag] 402\t\t\t\n      JUMPI \t\t\t\n      DUP2 \t\t\t\n      SWAP1 \t\t\t\n      POP \t\t\t\n    tag 402\t\t\t\n      JUMPDEST \t\t\t\n      PUSH [tag] 403\t\t\t\n      PUSH [tag] 404\t\t\t\n      DUP6 \t\t\t\n      PUSH [tag] 215\t\t\t\n      JUMP \t\t\t\n    tag 404\t\t\t\n      JUMPDEST \t\t\t\n      DUP4 \t\t\t\n      ADD \t\t\t\n      DUP3 \t\t\t\n      PUSH [tag] 224\t\t\t\n      JUMP \t\t\t\n    tag 403\t\t\t\n      JUMPDEST \t\t\t\n      POP \t\t\t\n      POP \t\t\t\n    tag 399\t\t\t\n      JUMPDEST \t\t\t\n      POP \t\t\t\n      POP \t\t\t\n      POP \t\t\t\n      JUMP \t\t\t\n    tag 226\t\t\t\n      JUMPDEST \t\t\t\n      PUSH 0\t\t\t\n      DUP3 \t\t\t\n      DUP3 \t\t\t\n      SHR \t\t\t\n      SWAP1 \t\t\t\n      POP \t\t\t\n      SWAP3 \t\t\t\n      SWAP2 \t\t\t\n      POP \t\t\t\n      POP \t\t\t\n      JUMP \t\t\t\n    tag 227\t\t\t\n      JUMPDEST \t\t\t\n      PUSH 0\t\t\t\n      PUSH [tag] 407\t\t\t\n      PUSH 0\t\t\t\n      NOT \t\t\t\n      DUP5 \t\t\t\n      PUSH 8\t\t\t\n      MUL \t\t\t\n      PUSH [tag] 226\t\t\t\n      JUMP \t\t\t\n    tag 407\t\t\t\n      JUMPDEST \t\t\t\n      NOT \t\t\t\n      DUP1 \t\t\t\n      DUP4 \t\t\t\n      AND \t\t\t\n      SWAP2 \t\t\t\n      POP \t\t\t\n      POP \t\t\t\n      SWAP3 \t\t\t\n      SWAP2 \t\t\t\n      POP \t\t\t\n      POP \t\t\t\n      JUMP \t\t\t\n    tag 228\t\t\t\n      JUMPDEST \t\t\t\n      PUSH 0\t\t\t\n      PUSH [tag] 409\t\t\t\n      DUP4 \t\t\t\n      DUP4 \t\t\t\n      PUSH [tag] 227\t\t\t\n      JUMP \t\t\t\n    tag 409\t\t\t\n      JUMPDEST \t\t\t\n      SWAP2 \t\t\t\n      POP \t\t\t\n      DUP3 \t\t\t\n      PUSH 2\t\t\t\n      MUL \t\t\t\n      DUP3 \t\t\t\n      OR \t\t\t\n      SWAP1 \t\t\t\n      POP \t\t\t\n      SWAP3 \t\t\t\n      SWAP2 \t\t\t\n      POP \t\t\t\n      POP \t\t\t\n      JUMP \t\t\t\n    tag 66\t\t\t\n      JUMPDEST \t\t\t\n      PUSH [tag] 411\t\t\t\n      DUP3 \t\t\t\n      PUSH [tag] 194\t\t\t\n      JUMP \t\t\t\n    tag 411\t\t\t\n      JUMPDEST \t\t\t\n      PUSH FFFFFFFFFFFFFFFF\t\t\t\n      DUP2 \t\t\t\n      GT \t\t\t\n      ISZERO \t\t\t\n      PUSH [tag] 412\t\t\t\n      JUMPI \t\t\t\n      PUSH [tag] 413\t\t\t\n      PUSH [tag] 112\t\t\t\n      JUMP \t\t\t\n    tag 413\t\t\t\n      JUMPDEST \t\t\t\n    tag 412\t\t\t\n      JUMPDEST \t\t\t\n      PUSH [tag] 414\t\t\t\n      DUP3 \t\t\t\n      SLOAD \t\t\t\n      PUSH [tag] 87\t\t\t\n      JUMP \t\t\t\n    tag 414\t\t\t\n      JUMPDEST \t\t\t\n      PUSH [tag] 415\t\t\t\n      DUP3 \t\t\t\n      DUP3 \t\t\t\n      DUP6 \t\t\t\n      PUSH [tag] 225\t\t\t\n      JUMP \t\t\t\n    tag 415\t\t\t\n      JUMPDEST \t\t\t\n      PUSH 0\t\t\t\n      PUSH 20\t\t\t\n      SWAP1 \t\t\t\n      POP \t\t\t\n      PUSH 1F\t\t\t\n      DUP4 \t\t\t\n      GT \t\t\t\n      PUSH 1\t\t\t\n      DUP2 \t\t\t\n      EQ \t\t\t\n      PUSH [tag] 417\t\t\t\n      JUMPI \t\t\t\n      PUSH 0\t\t\t\n      DUP5 \t\t\t\n      ISZERO \t\t\t\n      PUSH [tag] 418\t\t\t\n      JUMPI \t\t\t\n      DUP3 \t\t\t\n      DUP8 \t\t\t\n      ADD \t\t\t\n      MLOAD \t\t\t\n      SWAP1 \t\t\t\n      POP \t\t\t\n    tag 418\t\t\t\n      JUMPDEST \t\t\t\n      PUSH [tag] 419\t\t\t\n      DUP6 \t\t\t\n      DUP3 \t\t\t\n      PUSH [tag] 228\t\t\t\n      JUMP \t\t\t\n    tag 419\t\t\t\n      JUMPDEST \t\t\t\n      DUP7 \t\t\t\n      SSTORE \t\t\t\n      POP \t\t\t\n      PUSH [tag] 416\t\t\t\n      JUMP \t\t\t\n    tag 417\t\t\t\n      JUMPDEST \t\t\t\n      PUSH 1F\t\t\t\n      NOT \t\t\t\n      DUP5 \t\t\t\n      AND \t\t\t\n      PUSH [tag] 420\t\t\t\n      DUP7 \t\t\t\n      PUSH [tag] 214\t\t\t\n      JUMP \t\t\t\n    tag 420\t\t\t\n      JUMPDEST \t\t\t\n      PUSH 0\t\t\t\n    tag 421\t\t\t\n      JUMPDEST \t\t\t\n      DUP3 \t\t\t\n      DUP2 \t\t\t\n      LT \t\t\t\n      ISZERO \t\t\t\n      PUSH [tag] 423\t\t\t\n      JUMPI \t\t\t\n      DUP5 \t\t\t\n      DUP10 \t\t\t\n      ADD \t\t\t\n      MLOAD \t\t\t\n      DUP3 \t\t\t\n      SSTORE \t\t\t\n      PUSH 1\t\t\t\n      DUP3 \t\t\t\n      ADD \t\t\t\n      SWAP2 \t\t\t\n      POP \t\t\t\n      PUSH 20\t\t\t\n      DUP6 \t\t\t\n      ADD \t\t\t\n      SWAP5 \t\t\t\n      POP \t\t\t\n      PUSH 20\t\t\t\n      DUP2 \t\t\t\n      ADD \t\t\t\n      SWAP1 \t\t\t\n      POP \t\t\t\n      PUSH [tag] 421\t\t\t\n      JUMP \t\t\t\n    tag 423\t\t\t\n      JUMPDEST \t\t\t\n      DUP7 \t\t\t\n      DUP4 \t\t\t\n      LT \t\t\t\n      ISZERO \t\t\t\n      PUSH [tag] 424\t\t\t\n      JUMPI \t\t\t\n      DUP5 \t\t\t\n      DUP10 \t\t\t\n      ADD \t\t\t\n      MLOAD \t\t\t\n      PUSH [tag] 425\t\t\t\n      PUSH 1F\t\t\t\n      DUP10 \t\t\t\n      AND \t\t\t\n      DUP3 \t\t\t\n      PUSH [tag] 227\t\t\t\n      JUMP \t\t\t\n    tag 425\t\t\t\n      JUMPDEST \t\t\t\n      DUP4 \t\t\t\n      SSTORE \t\t\t\n      POP \t\t\t\n    tag 424\t\t\t\n      JUMPDEST \t\t\t\n      PUSH 1\t\t\t\n      PUSH 2\t\t\t\n      DUP9 \t\t\t\n      MUL \t\t\t\n      ADD \t\t\t\n      DUP9 \t\t\t\n      SSTORE \t\t\t\n      POP \t\t\t\n      POP \t\t\t\n      POP \t\t\t\n    tag 416\t\t\t\n      JUMPDEST \t\t\t\n      POP \t\t\t\n      POP \t\t\t\n      POP \t\t\t\n      POP \t\t\t\n      POP \t\t\t\n      POP \t\t\t\n      JUMP \t\t\t\n    tag 229\t\t\t\n      JUMPDEST \t\t\t\n      PUSH 4E487B7100000000000000000000000000000000000000000000000000000000\t\t\t\n      PUSH 0\t\t\t\n      MSTORE \t\t\t\n      PUSH 11\t\t\t\n      PUSH 4\t\t\t\n      MSTORE \t\t\t\n      PUSH 24\t\t\t\n      PUSH 0\t\t\t\n      REVERT \t\t\t\n    tag 73\t\t\t\n      JUMPDEST \t\t\t\n      PUSH 0\t\t\t\n      PUSH [tag] 428\t\t\t\n      DUP3 \t\t\t\n      PUSH [tag] 186\t\t\t\n      JUMP \t\t\t\n    tag 428\t\t\t\n      JUMPDEST \t\t\t\n      SWAP2 \t\t\t\n      POP \t\t\t\n      PUSH [tag] 429\t\t\t\n      DUP4 \t\t\t\n      PUSH [tag] 186\t\t\t\n      JUMP \t\t\t\n    tag 429\t\t\t\n      JUMPDEST \t\t\t\n      SWAP3 \t\t\t\n      POP \t\t\t\n      DUP3 \t\t\t\n      DUP3 \t\t\t\n      SUB \t\t\t\n      SWAP1 \t\t\t\n      POP \t\t\t\n      DUP2 \t\t\t\n      DUP2 \t\t\t\n      GT \t\t\t\n      ISZERO \t\t\t\n      PUSH [tag] 430\t\t\t\n      JUMPI \t\t\t\n      PUSH [tag] 431\t\t\t\n      PUSH [tag] 229\t\t\t\n      JUMP \t\t\t\n    tag 431\t\t\t\n      JUMPDEST \t\t\t\n    tag 430\t\t\t\n      JUMPDEST \t\t\t\n      SWAP3 \t\t\t\n      SWAP2 \t\t\t\n      POP \t\t\t\n      POP \t\t\t\n      JUMP \t\t\t\n    tag 230\t\t\t\n      JUMPDEST \t\t\t\n      PUSH 0\t\t\t\n      DUP2 \t\t\t\n      MLOAD \t\t\t\n      SWAP1 \t\t\t\n      POP \t\t\t\n      PUSH [tag] 433\t\t\t\n      DUP2 \t\t\t\n      PUSH [tag] 187\t\t\t\n      JUMP \t\t\t\n    tag 433\t\t\t\n      JUMPDEST \t\t\t\n      SWAP3 \t\t\t\n      SWAP2 \t\t\t\n      POP \t\t\t\n      POP \t\t\t\n      JUMP \t\t\t\n    tag 81\t\t\t\n      JUMPDEST \t\t\t\n      PUSH 0\t\t\t\n      PUSH 20\t\t\t\n      DUP3 \t\t\t\n      DUP5 \t\t\t\n      SUB \t\t\t\n      SLT \t\t\t\n      ISZERO \t\t\t\n      PUSH [tag] 435\t\t\t\n      JUMPI \t\t\t\n      PUSH [tag] 436\t\t\t\n      PUSH [tag] 175\t\t\t\n      JUMP \t\t\t\n    tag 436\t\t\t\n      JUMPDEST \t\t\t\n    tag 435\t\t\t\n      JUMPDEST \t\t\t\n      PUSH 0\t\t\t\n      PUSH [tag] 437\t\t\t\n      DUP5 \t\t\t\n      DUP3 \t\t\t\n      DUP6 \t\t\t\n      ADD \t\t\t\n      PUSH [tag] 230\t\t\t\n      JUMP \t\t\t\n    tag 437\t\t\t\n      JUMPDEST \t\t\t\n      SWAP2 \t\t\t\n      POP \t\t\t\n      POP \t\t\t\n      SWAP3 \t\t\t\n      SWAP2 \t\t\t\n      POP \t\t\t\n      POP \t\t\t\n      JUMP \t\t\t\n    tag 121\t\t\t\n      JUMPDEST \t\t\t\n      PUSH 4E487B7100000000000000000000000000000000000000000000000000000000\t\t\t\n      PUSH 0\t\t\t\n      MSTORE \t\t\t\n      PUSH 32\t\t\t\n      PUSH 4\t\t\t\n      MSTORE \t\t\t\n      PUSH 24\t\t\t\n      PUSH 0\t\t\t\n      REVERT \t\t\t\n    tag 231\t\t\t\n      JUMPDEST \t\t\t\n      PUSH 0\t\t\t\n      DUP2 \t\t\t\n      SLOAD \t\t\t\n      PUSH [tag] 440\t\t\t\n      DUP2 \t\t\t\n      PUSH [tag] 87\t\t\t\n      JUMP \t\t\t\n    tag 440\t\t\t\n      JUMPDEST \t\t\t\n      PUSH [tag] 441\t\t\t\n      DUP2 \t\t\t\n      DUP7 \t\t\t\n      PUSH [tag] 209\t\t\t\n      JUMP \t\t\t\n    tag 441\t\t\t\n      JUMPDEST \t\t\t\n      SWAP5 \t\t\t\n      POP \t\t\t\n      PUSH 1\t\t\t\n      DUP3 \t\t\t\n      AND \t\t\t\n      PUSH 0\t\t\t\n      DUP2 \t\t\t\n      EQ \t\t\t\n      PUSH [tag] 443\t\t\t\n      JUMPI \t\t\t\n      PUSH 1\t\t\t\n      DUP2 \t\t\t\n      EQ \t\t\t\n      PUSH [tag] 444\t\t\t\n      JUMPI \t\t\t\n      PUSH [tag] 442\t\t\t\n      JUMP \t\t\t\n    tag 443\t\t\t\n      JUMPDEST \t\t\t\n      PUSH FF\t\t\t\n      NOT \t\t\t\n      DUP4 \t\t\t\n      AND \t\t\t\n      DUP7 \t\t\t\n      MSTORE \t\t\t\n      DUP2 \t\t\t\n      ISZERO \t\t\t\n      ISZERO \t\t\t\n      DUP3 \t\t\t\n      MUL \t\t\t\n      DUP7 \t\t\t\n      ADD \t\t\t\n      SWAP4 \t\t\t\n      POP \t\t\t\n      PUSH [tag] 442\t\t\t\n      JUMP \t\t\t\n    tag 444\t\t\t\n      JUMPDEST \t\t\t\n      PUSH [tag] 445\t\t\t\n      DUP6 \t\t\t\n      PUSH [tag] 214\t\t\t\n      JUMP \t\t\t\n    tag 445\t\t\t\n      JUMPDEST \t\t\t\n      PUSH 0\t\t\t\n    tag 446\t\t\t\n      JUMPDEST \t\t\t\n      DUP4 \t\t\t\n      DUP2 \t\t\t\n      LT \t\t\t\n      ISZERO \t\t\t\n      PUSH [tag] 448\t\t\t\n      JUMPI \t\t\t\n      DUP2 \t\t\t\n      SLOAD \t\t\t\n      DUP2 \t\t\t\n      DUP10 \t\t\t\n      ADD \t\t\t\n      MSTORE \t\t\t\n      PUSH 1\t\t\t\n      DUP3 \t\t\t\n      ADD \t\t\t\n      SWAP2 \t\t\t\n      POP \t\t\t\n      PUSH 20\t\t\t\n      DUP2 \t\t\t\n      ADD \t\t\t\n      SWAP1 \t\t\t\n      POP \t\t\t\n      PUSH [tag] 446\t\t\t\n      JUMP \t\t\t\n    tag 448\t\t\t\n      JUMPDEST \t\t\t\n      DUP4 \t\t\t\n      DUP9 \t\t\t\n      ADD \t\t\t\n      SWAP6 \t\t\t\n      POP \t\t\t\n      POP \t\t\t\n      POP \t\t\t\n    tag 442\t\t\t\n      JUMPDEST \t\t\t\n      POP \t\t\t\n      POP \t\t\t\n      POP \t\t\t\n      SWAP3 \t\t\t\n      SWAP2 \t\t\t\n      POP \t\t\t\n      POP \t\t\t\n      JUMP \t\t\t\n    tag 124\t\t\t\n      JUMPDEST \t\t\t\n      PUSH 0\t\t\t\n      PUSH [tag] 450\t\t\t\n      DUP3 \t\t\t\n      DUP5 \t\t\t\n      PUSH [tag] 231\t\t\t\n      JUMP \t\t\t\n    tag 450\t\t\t\n      JUMPDEST \t\t\t\n      SWAP2 \t\t\t\n      POP \t\t\t\n      DUP2 \t\t\t\n      SWAP1 \t\t\t\n      POP \t\t\t\n      SWAP3 \t\t\t\n      SWAP2 \t\t\t\n      POP \t\t\t\n      POP \t\t\t\n      JUMP \t\t\t\n    tag 168\t\t\t\n      JUMPDEST \t\t\t\n      PUSH 0\t\t\t\n      PUSH [tag] 452\t\t\t\n      DUP3 \t\t\t\n      PUSH [tag] 186\t\t\t\n      JUMP \t\t\t\n    tag 452\t\t\t\n      JUMPDEST \t\t\t\n      SWAP2 \t\t\t\n      POP \t\t\t\n      PUSH [tag] 453\t\t\t\n      DUP4 \t\t\t\n      PUSH [tag] 186\t\t\t\n      JUMP \t\t\t\n    tag 453\t\t\t\n      JUMPDEST \t\t\t\n      SWAP3 \t\t\t\n      POP \t\t\t\n      DUP3 \t\t\t\n      DUP3 \t\t\t\n      ADD \t\t\t\n      SWAP1 \t\t\t\n      POP \t\t\t\n      DUP1 \t\t\t\n      DUP3 \t\t\t\n      GT \t\t\t\n      ISZERO \t\t\t\n      PUSH [tag] 454\t\t\t\n      JUMPI \t\t\t\n      PUSH [tag] 455\t\t\t\n      PUSH [tag] 229\t\t\t\n      JUMP \t\t\t\n    tag 455\t\t\t\n      JUMPDEST \t\t\t\n    tag 454\t\t\t\n      JUMPDEST \t\t\t\n      SWAP3 \t\t\t\n      SWAP2 \t\t\t\n      POP \t\t\t\n      POP \t\t\t\n      JUMP \t\t\t\n    .data\n      0:\n        .code\n          PUSH 80\t\t\tamePurchased(string indexed ci...\n          PUSH 40\t\t\tamePurchased(string indexed ci...\n          MSTORE \t\t\tamePurchased(string indexed ci...\n          CALLVALUE \t\t\tndexed creator);\\n\\n    error ...\n          DUP1 \t\t\tndexed creator);\\n\\n    error ...\n          ISZERO \t\t\tndexed creator);\\n\\n    error ...\n          PUSH [tag] 1\t\t\tndexed creator);\\n\\n    error ...\n          JUMPI \t\t\tndexed creator);\\n\\n    error ...\n          PUSH 0\t\t\tndexed creator);\\n\\n    error ...\n          DUP1 \t\t\tndexed creator);\\n\\n    error ...\n          REVERT \t\t\tndexed creator);\\n\\n    error ...\n        tag 1\t\t\tndexed creator);\\n\\n    error ...\n          JUMPDEST \t\t\tndexed creator);\\n\\n    error ...\n          POP \t\t\tndexed creator);\\n\\n    error ...\n          PUSH 40\t\t\tndexed creator);\\n\\n    error ...\n          MLOAD \t\t\tndexed creator);\\n\\n    error ...\n          PUSHSIZE \t\t\tndexed creator);\\n\\n    error ...\n          CODESIZE \t\t\tndexed creator);\\n\\n    error ...\n          SUB \t\t\tndexed creator);\\n\\n    error ...\n          DUP1 \t\t\tndexed creator);\\n\\n    error ...\n          PUSHSIZE \t\t\tndexed creator);\\n\\n    error ...\n          DUP4 \t\t\tndexed creator);\\n\\n    error ...\n          CODECOPY \t\t\tndexed creator);\\n\\n    error ...\n          DUP2 \t\t\tndexed creator);\\n\\n    error ...\n          DUP2 \t\t\tndexed creator);\\n\\n    error ...\n          ADD \t\t\tndexed creator);\\n\\n    error ...\n          PUSH 40\t\t\tndexed creator);\\n\\n    error ...\n          MSTORE \t\t\tndexed creator);\\n\\n    error ...\n          DUP2 \t\t\tndexed creator);\\n\\n    error ...\n          ADD \t\t\tndexed creator);\\n\\n    error ...\n          SWAP1 \t\t\tndexed creator);\\n\\n    error ...\n          PUSH [tag] 2\t\t\tndexed creator);\\n\\n    error ...\n          SWAP2 \t\t\tndexed creator);\\n\\n    error ...\n          SWAP1 \t\t\tndexed creator);\\n\\n    error ...\n          PUSH [tag] 3\t\t\tndexed creator);\\n\\n    error ...\n          JUMP \t\t\tndexed creator);\\n\\n    error ...\n        tag 2\t\t\tndexed creator);\\n\\n    error ...\n          JUMPDEST \t\t\tndexed creator);\\n\\n    error ...\n          CALLER \t\t\t;\\n\\n    str\n          DUP4 \t\t\tor G\n          DUP4 \t\t\teAlrea\n          DUP2 \t\t\ts(0))\n          PUSH 0\t\t\t= add\n          SWAP1 \t\t\t= address(0))\n          DUP2 \t\t\t= address(0))\n          PUSH [tag] 8\t\t\t= address(0))\n          SWAP2 \t\t\t= address(0))\n          SWAP1 \t\t\t= address(0))\n          PUSH [tag] 9\t\t\t= address(0))\n          JUMP \t\t\t= address(0))\n        tag 8\t\t\t= address(0))\n          JUMPDEST \t\t\t= address(0))\n          POP \t\t\t= address(0))\n          DUP1 \t\t\tt GameA\n          PUSH 1\t\t\t     re\n          SWAP1 \t\t\t     revert GameA\n          DUP2 \t\t\t     revert GameA\n          PUSH [tag] 10\t\t\t     revert GameA\n          SWAP2 \t\t\t     revert GameA\n          SWAP1 \t\t\t     revert GameA\n          PUSH [tag] 9\t\t\t     revert GameA\n          JUMP \t\t\t     revert GameA\n        tag 10\t\t\t     revert GameA\n          JUMPDEST \t\t\t     revert GameA\n          POP \t\t\t     revert GameA\n          POP \t\t\temory _imageUrl\\n    ) externa...\n          POP \t\t\temory _imageUrl\\n    ) externa...\n          PUSH 0\t\t\tm\n          PUSH FFFFFFFFFFFFFFFFFFFFFFFFFFFFFFFFFFFFFFFF\t\t\try _cid,\\n        string me\n          AND \t\t\try _cid,\\n        string me\n          DUP2 \t\t\try _cid,\\n   \n          PUSH FFFFFFFFFFFFFFFFFFFFFFFFFFFFFFFFFFFFFFFF\t\t\try _cid,\\n        string me\n          AND \t\t\try _cid,\\n        string me\n          SUB \t\t\try _cid,\\n        string me\n          PUSH [tag] 12\t\t\tmemory _cid,\\n        string m...\n          JUMPI \t\t\tmemory _cid,\\n        string m...\n          PUSH 0\t\t\tu\n          PUSH 40\t\t\ting memory _symbol,\\n        u...\n          MLOAD \t\t\ting memory _symbol,\\n        u...\n          PUSH 1E4FBDF700000000000000000000000000000000000000000000000000000000\t\t\ting memory _symbol,\\n        u...\n          DUP2 \t\t\ting memory _symbol,\\n        u...\n          MSTORE \t\t\ting memory _symbol,\\n        u...\n          PUSH 4\t\t\ting memory _symbol,\\n        u...\n          ADD \t\t\ting memory _symbol,\\n        u...\n          PUSH [tag] 13\t\t\ting memory _symbol,\\n        u...\n          SWAP2 \t\t\ting memory _symbol,\\n        u...\n          SWAP1 \t\t\ting memory _symbol,\\n        u...\n          PUSH [tag] 14\t\t\ting memory _symbol,\\n        u...\n          JUMP \t\t\ting memory _symbol,\\n        u...\n        tag 13\t\t\ting memory _symbol,\\n        u...\n          JUMPDEST \t\t\ting memory _symbol,\\n        u...\n          PUSH 40\t\t\ting memory _symbol,\\n        u...\n          MLOAD \t\t\ting memory _symbol,\\n        u...\n          DUP1 \t\t\ting memory _symbol,\\n        u...\n          SWAP2 \t\t\ting memory _symbol,\\n        u...\n          SUB \t\t\ting memory _symbol,\\n        u...\n          SWAP1 \t\t\ting memory _symbol,\\n        u...\n          REVERT \t\t\ting memory _symbol,\\n        u...\n        tag 12\t\t\tmemory _cid,\\n        string m...\n          JUMPDEST \t\t\tmemory _cid,\\n        string m...\n          PUSH [tag] 15\t\t\tstring memory _imageUrl\\n    )...\n          DUP2 \t\t\teUrl\\n    ) e\n          PUSH [tag] 16\t\t\tstring memory _ima\n          PUSH 20\t\t\tstring memory _ima\n          SHL \t\t\tstring memory _ima\n          PUSH 20\t\t\tstring memory _imageUrl\\n    )...\n          SHR \t\t\tstring memory _imageUrl\\n    )...\n          JUMP \t\t\tstring memory _imageUrl\\n    )...\n        tag 15\t\t\tstring memory _imageUrl\\n    )...\n          JUMPDEST \t\t\tstring memory _imageUrl\\n    )...\n          POP \t\t\t}\\n\\n    function publishGame(...\n          DUP1 \t\t\tddress c\n          PUSH 8\t\t\t     \n          SWAP1 \t\t\t       address c\n          DUP2 \t\t\t       address c\n          PUSH [tag] 18\t\t\t       address c\n          SWAP2 \t\t\t       address c\n          SWAP1 \t\t\t       address c\n          PUSH [tag] 9\t\t\t       address c\n          JUMP \t\t\t       address c\n        tag 18\t\t\t       address c\n          JUMPDEST \t\t\t       address c\n          POP \t\t\t       address c\n          POP \t\t\tndexed creator);\\n\\n    error ...\n          POP \t\t\tndexed creator);\\n\\n    error ...\n          POP \t\t\tndexed creator);\\n\\n    error ...\n          PUSH [tag] 19\t\t\tamePurchased(string indexed ci...\n          JUMP \t\t\tamePurchased(string indexed ci...\n        tag 16\t\t\tddress = games[_cid].token;\\n ...\n          JUMPDEST \t\t\tddress = games[_cid].token;\\n ...\n          PUSH 0\t\t\t         revert \n          PUSH 6\t\t\talidGa\n          PUSH 0\t\t\talidGa\n          SWAP1 \t\t\talidGa\n          SLOAD \t\t\talidGa\n          SWAP1 \t\t\talidGa\n          PUSH 100\t\t\talidGa\n          EXP \t\t\talidGa\n          SWAP1 \t\t\talidGa\n          DIV \t\t\talidGa\n          PUSH FFFFFFFFFFFFFFFFFFFFFFFFFFFFFFFFFFFFFFFF\t\t\talidGa\n          AND \t\t\talidGa\n          SWAP1 \t\t\t         revert InvalidGa\n          POP \t\t\t         revert InvalidGa\n          DUP2 \t\t\t     Gam\n          PUSH 6\t\t\t    }\\n\n          PUSH 0\t\t\t    }\\n\n          PUSH 100\t\t\t    }\\n        Gam\n          EXP \t\t\t    }\\n        Gam\n          DUP2 \t\t\t    }\\n        Gam\n          SLOAD \t\t\t    }\\n        Gam\n          DUP2 \t\t\t    }\\n        Gam\n          PUSH FFFFFFFFFFFFFFFFFFFFFFFFFFFFFFFFFFFFFFFF\t\t\t    }\\n        Gam\n          MUL \t\t\t    }\\n        Gam\n          NOT \t\t\t    }\\n        Gam\n          AND \t\t\t    }\\n        Gam\n          SWAP1 \t\t\t    }\\n        Gam\n          DUP4 \t\t\t    }\\n        Gam\n          PUSH FFFFFFFFFFFFFFFFFFFFFFFFFFFFFFFFFFFFFFFF\t\t\t    }\\n        Gam\n          AND \t\t\t    }\\n        Gam\n          MUL \t\t\t    }\\n        Gam\n          OR \t\t\t    }\\n        Gam\n          SWAP1 \t\t\t    }\\n        Gam\n          SSTORE \t\t\t    }\\n        Gam\n          POP \t\t\t    }\\n        Gam\n          DUP2 \t\t\t      re\n          PUSH FFFFFFFFFFFFFFFFFFFFFFFFFFFFFFFFFFFFFFFF\t\t\tn = GameToken(tokenAddress);\\n...\n          AND \t\t\tn = GameToken(tokenAddress);\\n...\n          DUP2 \t\t\tdress);\\n\n          PUSH FFFFFFFFFFFFFFFFFFFFFFFFFFFFFFFFFFFFFFFF\t\t\tn = GameToken(tokenAddress);\\n...\n          AND \t\t\tn = GameToken(tokenAddress);\\n...\n          PUSH 8BE0079C531659141344CD1FD0A4F28419497F9722A3DAAFE3B4186F6B6457E0\t\t\tn = GameToken(tokenAddress);\\n...\n          PUSH 40\t\t\tn = GameToken(tokenAddress);\\n...\n          MLOAD \t\t\tn = GameToken(tokenAddress);\\n...\n          PUSH 40\t\t\tn = GameToken(tokenAddress);\\n...\n          MLOAD \t\t\tn = GameToken(tokenAddress);\\n...\n          DUP1 \t\t\tn = GameToken(tokenAddress);\\n...\n          SWAP2 \t\t\tn = GameToken(tokenAddress);\\n...\n          SUB \t\t\tn = GameToken(tokenAddress);\\n...\n          SWAP1 \t\t\tn = GameToken(tokenAddress);\\n...\n          LOG3 \t\t\tn = GameToken(tokenAddress);\\n...\n          POP \t\t\t(0)) {\\n            revert Inv...\n          POP \t\t\tddress = games[_cid].token;\\n ...\n          JUMP \t\t\tddress = games[_cid].token;\\n ...\n        tag 21\t\t\t-License-Identifier: MIT\\nprag...\n          JUMPDEST \t\t\t-License-Identifier: MIT\\nprag...\n          PUSH 0\t\t\tolidit\n          PUSH 40\t\t\ten\n          MLOAD \t\t\tameToken}\n          SWAP1 \t\t\t\\nimport {GameToken}\n          POP \t\t\t\\nimport {GameToken}\n          SWAP1 \t\t\t-License-Identifier: MIT\\nprag...\n          JUMP \t\t\t-License-Identifier: MIT\\nprag...\n        tag 22\t\t\teToken.sol\";\\n\\ncontract GameF...\n          JUMPDEST \t\t\teToken.sol\";\\n\\ncontract GameF...\n          PUSH 0\t\t\tg\n          DUP1 \t\t\tr\n          REVERT \t\t\t     string \n        tag 23\t\t\t\\n        address indexed game...\n          JUMPDEST \t\t\t\\n        address indexed game...\n          PUSH 0\t\t\t\\n\n          DUP1 \t\t\tr\n          REVERT \t\t\ted buyer);\\n \n        tag 24\t\t\tatorFundsWithdrawn(address ind...\n          JUMPDEST \t\t\tatorFundsWithdrawn(address ind...\n          PUSH 0\t\t\t;\n          DUP1 \t\t\td\n          REVERT \t\t\tublished();\\n\n        tag 25\t\t\tvalidGame();\\n    error GameAl...\n          JUMPDEST \t\t\tvalidGame();\\n    error GameAl...\n          PUSH 0\t\t\t \n          DUP1 \t\t\t;\n          REVERT \t\t\ting cid;\\n   \n        tag 26\t\t\t token;\\n        string name;\\...\n          JUMPDEST \t\t\t token;\\n        string name;\\...\n          PUSH 0\t\t\t256 pr\n          PUSH 1F\t\t\tes\n          NOT \t\t\taddress\n          PUSH 1F\t\t\t\\n \n          DUP4 \t\t\t\\n    \n          ADD \t\t\tUrl;\\n    }\\n\\n  \n          AND \t\t\tmageUrl;\\n    }\\n\\n    address...\n          SWAP1 \t\t\t  string imageUrl;\\n    }\\n\\n ...\n          POP \t\t\t  string imageUrl;\\n    }\\n\\n ...\n          SWAP2 \t\t\t token;\\n        string name;\\...\n          SWAP1 \t\t\t token;\\n        string name;\\...\n          POP \t\t\t token;\\n        string name;\\...\n          JUMP \t\t\t token;\\n        string name;\\...\n        tag 27\t\t\tr;\\n    uint256 private fee = ...\n          JUMPDEST \t\t\tr;\\n    uint256 private fee = ...\n          PUSH 4E487B7100000000000000000000000000000000000000000000000000000000\t\t\ting => Game) private games;\\n ...\n          PUSH 0\t\t\ts\n          MSTORE \t\t\tapping(string => Game) private...\n          PUSH 41\t\t\treat\n          PUSH 4\t\t\te\n          MSTORE \t\t\t private creato\n          PUSH 24\t\t\telpe\n          PUSH 0\t\t\t/\n          REVERT \t\t\t\\n\\n    // Helper\n        tag 28\t\t\t convert bytes32 array to stri...\n          JUMPDEST \t\t\t convert bytes32 array to stri...\n          PUSH [tag] 65\t\t\t data)\\n        private\\n    \n          DUP3 \t\t\t\\n   \n          PUSH [tag] 26\t\t\t data)\\n        private\\n    \n          JUMP \t\t\t data)\\n        private\\n    \n        tag 65\t\t\t data)\\n        private\\n    \n          JUMPDEST \t\t\t data)\\n        private\\n    \n          DUP2 \t\t\t] memo\n          ADD \t\t\ts32[] memory data)\\n        pr...\n          DUP2 \t\t\t 0; i \n          DUP2 \t\t\t(uint256 i\n          LT \t\t\tor (uint256 i = 0; i <\n          PUSH FFFFFFFFFFFFFFFF\t\t\t byteArray;\\n      \n          DUP3 \t\t\tbytes memo\n          GT \t\t\t   bytes memory byteArray;\\n  ...\n          OR \t\t\t      bytes memory byteArray;\\...\n          ISZERO \t\t\t\\n        bytes memory byteArr...\n          PUSH [tag] 66\t\t\t\\n        bytes memory byteArr...\n          JUMPI \t\t\t\\n        bytes memory byteArr...\n          PUSH [tag] 67\t\t\ta.length; i++) {\\n \n          PUSH [tag] 27\t\t\ta.length; i++) {\\n \n          JUMP \t\t\ta.length; i++) {\\n \n        tag 67\t\t\ta.length; i++) {\\n \n          JUMPDEST \t\t\ta.length; i++) {\\n \n        tag 66\t\t\t\\n        bytes memory byteArr...\n          JUMPDEST \t\t\t\\n        bytes memory byteArr...\n          DUP1 \t\t\t abi.encod\n          PUSH 40\t\t\tay\n          MSTORE \t\t\tbyteArray = abi.encode\n          POP \t\t\ton bytes32ArrayToString(bytes3...\n          POP \t\t\t convert bytes32 array to stri...\n          POP \t\t\t convert bytes32 array to stri...\n          JUMP \t\t\t convert bytes32 array to stri...\n        tag 29\t\t\trray, data[i]);\\n        }\\n  ...\n          JUMPDEST \t\t\trray, data[i]);\\n        }\\n  ...\n          PUSH 0\t\t\treturn\n          PUSH [tag] 69\t\t\t   }\\n\\n    function p\n          PUSH [tag] 21\t\t\t   }\\n\\n    function p\n          JUMP \t\t\t   }\\n\\n    function p\n        tag 69\t\t\t   }\\n\\n    function p\n          JUMPDEST \t\t\t   }\\n\\n    function p\n          SWAP1 \t\t\teArray);\\n    }\\n\\n    functio...\n          POP \t\t\teArray);\\n    }\\n\\n    functio...\n          PUSH [tag] 70\t\t\te(\\n        string memory _cid...\n          DUP3 \t\t\td,\\n \n          DUP3 \t\t\tmory _\n          PUSH [tag] 28\t\t\te(\\n        string memory _cid...\n          JUMP \t\t\te(\\n        string memory _cid...\n        tag 70\t\t\te(\\n        string memory _cid...\n          JUMPDEST \t\t\te(\\n        string memory _cid...\n          SWAP2 \t\t\trray, data[i]);\\n        }\\n  ...\n          SWAP1 \t\t\trray, data[i]);\\n        }\\n  ...\n          POP \t\t\trray, data[i]);\\n        }\\n  ...\n          JUMP \t\t\trray, data[i]);\\n        }\\n  ...\n        tag 30\t\t\t memory _name,\\n        string...\n          JUMPDEST \t\t\t memory _name,\\n        string...\n          PUSH 0\t\t\tpric\n          PUSH FFFFFFFFFFFFFFFF\t\t\t address(0)) {\\n   \n          DUP3 \t\t\teator \n          GT \t\t\t.creator != address(0)) {\\n   ...\n          ISZERO \t\t\tid].creator != address(0)) {\\n...\n          PUSH [tag] 72\t\t\tid].creator != address(0)) {\\n...\n          JUMPI \t\t\tid].creator != address(0)) {\\n...\n          PUSH [tag] 73\t\t\t     revert GameAl\n          PUSH [tag] 27\t\t\t     revert GameAl\n          JUMP \t\t\t     revert GameAl\n        tag 73\t\t\t     revert GameAl\n          JUMPDEST \t\t\t     revert GameAl\n        tag 72\t\t\tid].creator != address(0)) {\\n...\n          JUMPDEST \t\t\tid].creator != address(0)) {\\n...\n          PUSH [tag] 74\t\t\t      }\\n\\n        GameToken g...\n          DUP3 \t\t\token g\n          PUSH [tag] 26\t\t\t      }\\n\\n        GameToken g...\n          JUMP \t\t\t      }\\n\\n        GameToken g...\n        tag 74\t\t\t      }\\n\\n        GameToken g...\n          JUMPDEST \t\t\t      }\\n\\n        GameToken g...\n          SWAP1 \t\t\ted();\\n        }\\n\\n        Ga...\n          POP \t\t\ted();\\n        }\\n\\n        Ga...\n          PUSH 20\t\t\t    \n          DUP2 \t\t\t);\\n \n          ADD \t\t\teUrl);\\n        \n          SWAP1 \t\t\tl, _imageUrl);\\n        \n          POP \t\t\tl, _imageUrl);\\n        \n          SWAP2 \t\t\t memory _name,\\n        string...\n          SWAP1 \t\t\t memory _name,\\n        string...\n          POP \t\t\t memory _name,\\n        string...\n          JUMP \t\t\t memory _name,\\n        string...\n        tag 31\t\t\tt(msg.sender);\\n\\n        game...\n          JUMPDEST \t\t\tt(msg.sender);\\n\\n        game...\n          DUP3 \t\t\t      \n          DUP2 \t\t\t,\\n \n          DUP4 \t\t\t _c\n          MCOPY \t\t\t       _cid,\\n          \n          PUSH 0\t\t\t_\n          DUP4 \t\t\t      \n          DUP4 \t\t\t,\\n \n          ADD \t\t\tken),\\n          \n          MSTORE \t\t\t(gameToken),\\n            _n\n          POP \t\t\tt(msg.sender);\\n\\n        game...\n          POP \t\t\tt(msg.sender);\\n\\n        game...\n          POP \t\t\tt(msg.sender);\\n\\n        game...\n          JUMP \t\t\tt(msg.sender);\\n\\n        game...\n        tag 32\t\t\t    price,\\n            _image...\n          JUMPDEST \t\t\t    price,\\n            _image...\n          PUSH 0\t\t\tenCre\n          PUSH [tag] 77\t\t\t, _cid, address(gameToken));\\n...\n          PUSH [tag] 78\t\t\tgameToken));\\n    }\\n\\n    fun...\n          DUP5 \t\t\ttring \n          PUSH [tag] 30\t\t\tgameToken));\\n    }\\n\\n    fun...\n          JUMP \t\t\tgameToken));\\n    }\\n\\n    fun...\n        tag 78\t\t\tgameToken));\\n    }\\n\\n    fun...\n          JUMPDEST \t\t\tgameToken));\\n    }\\n\\n    fun...\n          PUSH [tag] 29\t\t\t, _cid, address(gameToken));\\n...\n          JUMP \t\t\t, _cid, address(gameToken));\\n...\n        tag 77\t\t\t, _cid, address(gameToken));\\n...\n          JUMPDEST \t\t\t, _cid, address(gameToken));\\n...\n          SWAP1 \t\t\tength - 1, _cid, address(gameT...\n          POP \t\t\tength - 1, _cid, address(gameT...\n          DUP3 \t\t\table {\n          DUP2 \t\t\tnal p\n          MSTORE \t\t\t) external payable {\\n\n          PUSH 20\t\t\tes[_\n          DUP2 \t\t\te = g\n          ADD \t\t\t_game = games[_c\n          DUP5 \t\t\t= G\n          DUP5 \t\t\tameTok\n          DUP5 \t\t\tken\n          ADD \t\t\tmeToken gameToke\n          GT \t\t\t GameToken gameToken = Ga\n          ISZERO \t\t\t    GameToken gameToken = Game...\n          PUSH [tag] 79\t\t\t    GameToken gameToken = Game...\n          JUMPI \t\t\t    GameToken gameToken = Game...\n          PUSH [tag] 80\t\t\token(_game.token);\\n\\n        ...\n          PUSH [tag] 25\t\t\token(_game.token);\\n\\n        ...\n          JUMP \t\t\token(_game.token);\\n\\n        ...\n        tag 80\t\t\token(_game.token);\\n\\n        ...\n          JUMPDEST \t\t\token(_game.token);\\n\\n        ...\n        tag 79\t\t\t    GameToken gameToken = Game...\n          JUMPDEST \t\t\t    GameToken gameToken = Game...\n          PUSH [tag] 81\t\t\tame();\\n        }\\n\\n        i...\n          DUP5 \t\t\tceOf(m\n          DUP3 \t\t\tbal\n          DUP6 \t\t\toke\n          PUSH [tag] 31\t\t\tame();\\n        }\\n\\n        i...\n          JUMP \t\t\tame();\\n        }\\n\\n        i...\n        tag 81\t\t\tame();\\n        }\\n\\n        i...\n          JUMPDEST \t\t\tame();\\n        }\\n\\n        i...\n          POP \t\t\tted(cids.length - 1, _cid, add...\n          SWAP4 \t\t\t    price,\\n            _image...\n          SWAP3 \t\t\t    price,\\n            _image...\n          POP \t\t\t    price,\\n            _image...\n          POP \t\t\t    price,\\n            _image...\n          POP \t\t\t    price,\\n            _image...\n          JUMP \t\t\t    price,\\n            _image...\n        tag 33\t\t\t    revert GameAlreadyBought()...\n          JUMPDEST \t\t\t    revert GameAlreadyBought()...\n          PUSH 0\t\t\t_game\n          DUP3 \t\t\tds(\n          PUSH 1F\t\t\tient\n          DUP4 \t\t\tInsuff\n          ADD \t\t\tert InsufficientF\n          SLT \t\t\t revert InsufficientFunds()\n          PUSH [tag] 83\t\t\t           revert Insufficient...\n          JUMPI \t\t\t           revert Insufficient...\n          PUSH [tag] 84\t\t\t      }\\n\\n        creatorbala...\n          PUSH [tag] 24\t\t\t      }\\n\\n        creatorbala...\n          JUMP \t\t\t      }\\n\\n        creatorbala...\n        tag 84\t\t\t      }\\n\\n        creatorbala...\n          JUMPDEST \t\t\t      }\\n\\n        creatorbala...\n        tag 83\t\t\t           revert Insufficient...\n          JUMPDEST \t\t\t           revert Insufficient...\n          DUP2 \t\t\tit Gam\n          MLOAD \t\t\t    emit Game\n          PUSH [tag] 85\t\t\tg.sender);\\n    }\\n\\n    funct...\n          DUP5 \t\t\tlan\n          DUP3 \t\t\treator\n          PUSH 20\t\t\t  if\n          DUP7 \t\t\t{\\n    \n          ADD \t\t\tnal {\\n        if \n          PUSH [tag] 32\t\t\tg.sender);\\n    }\\n\\n    funct...\n          JUMP \t\t\tg.sender);\\n    }\\n\\n    funct...\n        tag 85\t\t\tg.sender);\\n    }\\n\\n    funct...\n          JUMPDEST \t\t\tg.sender);\\n    }\\n\\n    funct...\n          SWAP2 \t\t\t(_cid, msg.sender);\\n    }\\n\\n...\n          POP \t\t\t(_cid, msg.sender);\\n    }\\n\\n...\n          POP \t\t\tprice) {\\n            revert I...\n          SWAP3 \t\t\t    revert GameAlreadyBought()...\n          SWAP2 \t\t\t    revert GameAlreadyBought()...\n          POP \t\t\t    revert GameAlreadyBought()...\n          POP \t\t\t    revert GameAlreadyBought()...\n          JUMP \t\t\t    revert GameAlreadyBought()...\n        tag 3\t\t\t] == 0) {\\n            revert ...\n          JUMPDEST \t\t\t] == 0) {\\n            revert ...\n          PUSH 0\t\t\tnder])\n          DUP1 \t\t\t      \n          PUSH 0\t\t\tcreato\n          PUSH 60\t\t\tat\n          DUP5 \t\t\t    emit \n          DUP7 \t\t\t 0;\\n\\n  \n          SUB \t\t\tr] = 0;\\n\\n        emit C\n          SLT \t\t\tender] = 0;\\n\\n        emit Cr...\n          ISZERO \t\t\tg.sender] = 0;\\n\\n        emit...\n          PUSH [tag] 87\t\t\tg.sender] = 0;\\n\\n        emit...\n          JUMPI \t\t\tg.sender] = 0;\\n\\n        emit...\n          PUSH [tag] 88\t\t\tndsWithdrawn(msg.sender);\\n   ...\n          PUSH [tag] 22\t\t\tndsWithdrawn(msg.sender);\\n   ...\n          JUMP \t\t\tndsWithdrawn(msg.sender);\\n   ...\n        tag 88\t\t\tndsWithdrawn(msg.sender);\\n   ...\n          JUMPDEST \t\t\tndsWithdrawn(msg.sender);\\n   ...\n        tag 87\t\t\tg.sender] = 0;\\n\\n        emit...\n          JUMPDEST \t\t\tg.sender] = 0;\\n\\n        emit...\n          PUSH 0\t\t\td\n          DUP5 \t\t\t\\n        \n          ADD \t\t\tl) {\\n        addr\n          MLOAD \t\t\ts (bool) {\\n        addre\n          PUSH FFFFFFFFFFFFFFFF\t\t\td].token;\\n        \n          DUP2 \t\t\tames[_\n          GT \t\t\t= games[_cid].token;\\n        ...\n          ISZERO \t\t\tss = games[_cid].token;\\n     ...\n          PUSH [tag] 89\t\t\tss = games[_cid].token;\\n     ...\n          JUMPI \t\t\tss = games[_cid].token;\\n     ...\n          PUSH [tag] 90\t\t\ttokenAddress == address(0)) {\\...\n          PUSH [tag] 23\t\t\ttokenAddress == address(0)) {\\...\n          JUMP \t\t\ttokenAddress == address(0)) {\\...\n        tag 90\t\t\ttokenAddress == address(0)) {\\...\n          JUMPDEST \t\t\ttokenAddress == address(0)) {\\...\n        tag 89\t\t\tss = games[_cid].token;\\n     ...\n          JUMPDEST \t\t\tss = games[_cid].token;\\n     ...\n          PUSH [tag] 91\t\t\tameToken(tokenAddress);\\n     ...\n          DUP7 \t\t\tder) >=\n          DUP3 \t\t\tf(msg.\n          DUP8 \t\t\ten.balanc\n          ADD \t\t\teToken.balanceOf(msg.s\n          PUSH [tag] 33\t\t\tameToken(tokenAddress);\\n     ...\n          JUMP \t\t\tameToken(tokenAddress);\\n     ...\n        tag 91\t\t\tameToken(tokenAddress);\\n     ...\n          JUMPDEST \t\t\tameToken(tokenAddress);\\n     ...\n          SWAP4 \t\t\teToken = GameToken(tokenAddres...\n          POP \t\t\teToken = GameToken(tokenAddres...\n          POP \t\t\try _cid) external view returns...\n          PUSH 20\t\t\t) \n          DUP5 \t\t\tme[] memo\n          ADD \t\t\t (Game[] memory) {\n          MLOAD \t\t\teturns (Game[] memory) {\\n\n          PUSH FFFFFFFFFFFFFFFF\t\t\ts = new Game[](cid\n          DUP2 \t\t\try _ga\n          GT \t\t\temory _games = new Game[](cids\n          ISZERO \t\t\t] memory _games = new Game[](c...\n          PUSH [tag] 92\t\t\t] memory _games = new Game[](c...\n          JUMPI \t\t\t] memory _games = new Game[](c...\n          PUSH [tag] 93\t\t\tngth);\\n        for (uint256 i...\n          PUSH [tag] 23\t\t\tngth);\\n        for (uint256 i...\n          JUMP \t\t\tngth);\\n        for (uint256 i...\n        tag 93\t\t\tngth);\\n        for (uint256 i...\n          JUMPDEST \t\t\tngth);\\n        for (uint256 i...\n        tag 92\t\t\t] memory _games = new Game[](c...\n          JUMPDEST \t\t\t] memory _games = new Game[](c...\n          PUSH [tag] 94\t\t\t  }\\n\\n        return _games;\\...\n          DUP7 \t\t\tg memor\n          DUP3 \t\t\tCid(st\n          DUP8 \t\t\tn getGame\n          ADD \t\t\tction getGameByCid(str\n          PUSH [tag] 33\t\t\t  }\\n\\n        return _games;\\...\n          JUMP \t\t\t  }\\n\\n        return _games;\\...\n        tag 94\t\t\t  }\\n\\n        return _games;\\...\n          JUMPDEST \t\t\t  }\\n\\n        return _games;\\...\n          SWAP3 \t\t\t]];\\n        }\\n\\n        retu...\n          POP \t\t\t]];\\n        }\\n\\n        retu...\n          POP \t\t\ton getGames() external view re...\n          PUSH 40\t\t\t {\n          DUP5 \t\t\tmemory)\\n \n          ADD \t\t\tame memory)\\n    {\\n\n          MLOAD \t\t\trns (Game memory)\\n    {\\n \n          PUSH FFFFFFFFFFFFFFFF\t\t\tgames[_cid];\\n     \n          DUP2 \t\t\t_game \n          GT \t\t\try _game = games[_cid];\\n     ...\n          ISZERO \t\t\temory _game = games[_cid];\\n  ...\n          PUSH [tag] 95\t\t\temory _game = games[_cid];\\n  ...\n          JUMPI \t\t\temory _game = games[_cid];\\n  ...\n          PUSH [tag] 96\t\t\tf (_game.creator == address(0)...\n          PUSH [tag] 23\t\t\tf (_game.creator == address(0)...\n          JUMP \t\t\tf (_game.creator == address(0)...\n        tag 96\t\t\tf (_game.creator == address(0)...\n          JUMPDEST \t\t\tf (_game.creator == address(0)...\n        tag 95\t\t\temory _game = games[_cid];\\n  ...\n          JUMPDEST \t\t\temory _game = games[_cid];\\n  ...\n          PUSH [tag] 97\t\t\t\\n\\n    function getTokenAddre...\n          DUP7 \t\t\tiew ret\n          DUP3 \t\t\txterna\n          DUP8 \t\t\tory _cid)\n          ADD \t\t\t memory _cid) external\n          PUSH [tag] 33\t\t\t\\n\\n    function getTokenAddre...\n          JUMP \t\t\t\\n\\n    function getTokenAddre...\n        tag 97\t\t\t\\n\\n    function getTokenAddre...\n          JUMPDEST \t\t\t\\n\\n    function getTokenAddre...\n          SWAP2 \t\t\tame;\\n    }\\n\\n    function ge...\n          POP \t\t\tame;\\n    }\\n\\n    function ge...\n          POP \t\t\tnal\\n        view\\n        ret...\n          SWAP3 \t\t\t] == 0) {\\n            revert ...\n          POP \t\t\t] == 0) {\\n            revert ...\n          SWAP3 \t\t\t] == 0) {\\n            revert ...\n          POP \t\t\t] == 0) {\\n            revert ...\n          SWAP3 \t\t\t] == 0) {\\n            revert ...\n          JUMP \t\t\t] == 0) {\\n            revert ...\n        tag 34\t\t\teturn games[_cid].token;\\n    ...\n          JUMPDEST \t\t\teturn games[_cid].token;\\n    ...\n          PUSH 0\t\t\tListLe\n          DUP2 \t\t\t (uin\n          MLOAD \t\t\teturns (uint\n          SWAP1 \t\t\tnal view returns (uint\n          POP \t\t\tnal view returns (uint\n          SWAP2 \t\t\teturn games[_cid].token;\\n    ...\n          SWAP1 \t\t\teturn games[_cid].token;\\n    ...\n          POP \t\t\teturn games[_cid].token;\\n    ...\n          JUMP \t\t\teturn games[_cid].token;\\n    ...\n        tag 35\t\t\t  return cids.length;\\n    }\\n...\n          JUMPDEST \t\t\t  return cids.length;\\n    }\\n...\n          PUSH 4E487B7100000000000000000000000000000000000000000000000000000000\t\t\t\n          PUSH 0\t\t\t\n          MSTORE \t\t\t\n          PUSH 22\t\t\t\n          PUSH 4\t\t\t\n          MSTORE \t\t\t\n          PUSH 24\t\t\t\n          PUSH 0\t\t\t\n          REVERT \t\t\t\n        tag 36\t\t\t\n          JUMPDEST \t\t\t\n          PUSH 0\t\t\t\n          PUSH 2\t\t\t\n          DUP3 \t\t\t\n          DIV \t\t\t\n          SWAP1 \t\t\t\n          POP \t\t\t\n          PUSH 1\t\t\t\n          DUP3 \t\t\t\n          AND \t\t\t\n          DUP1 \t\t\t\n          PUSH [tag] 101\t\t\t\n          JUMPI \t\t\t\n          PUSH 7F\t\t\t\n          DUP3 \t\t\t\n          AND \t\t\t\n          SWAP2 \t\t\t\n          POP \t\t\t\n        tag 101\t\t\t\n          JUMPDEST \t\t\t\n          PUSH 20\t\t\t\n          DUP3 \t\t\t\n          LT \t\t\t\n          DUP2 \t\t\t\n          SUB \t\t\t\n          PUSH [tag] 102\t\t\t\n          JUMPI \t\t\t\n          PUSH [tag] 103\t\t\t\n          PUSH [tag] 35\t\t\t\n          JUMP \t\t\t\n        tag 103\t\t\t\n          JUMPDEST \t\t\t\n        tag 102\t\t\t\n          JUMPDEST \t\t\t\n          POP \t\t\t\n          SWAP2 \t\t\t\n          SWAP1 \t\t\t\n          POP \t\t\t\n          JUMP \t\t\t\n        tag 37\t\t\t\n          JUMPDEST \t\t\t\n          PUSH 0\t\t\t\n          DUP2 \t\t\t\n          SWAP1 \t\t\t\n          POP \t\t\t\n          DUP2 \t\t\t\n          PUSH 0\t\t\t\n          MSTORE \t\t\t\n          PUSH 20\t\t\t\n          PUSH 0\t\t\t\n          KECCAK256 \t\t\t\n          SWAP1 \t\t\t\n          POP \t\t\t\n          SWAP2 \t\t\t\n          SWAP1 \t\t\t\n          POP \t\t\t\n          JUMP \t\t\t\n        tag 38\t\t\t\n          JUMPDEST \t\t\t\n          PUSH 0\t\t\t\n          PUSH 20\t\t\t\n          PUSH 1F\t\t\t\n          DUP4 \t\t\t\n          ADD \t\t\t\n          DIV \t\t\t\n          SWAP1 \t\t\t\n          POP \t\t\t\n          SWAP2 \t\t\t\n          SWAP1 \t\t\t\n          POP \t\t\t\n          JUMP \t\t\t\n        tag 39\t\t\t\n          JUMPDEST \t\t\t\n          PUSH 0\t\t\t\n          DUP3 \t\t\t\n          DUP3 \t\t\t\n          SHL \t\t\t\n          SWAP1 \t\t\t\n          POP \t\t\t\n          SWAP3 \t\t\t\n          SWAP2 \t\t\t\n          POP \t\t\t\n          POP \t\t\t\n          JUMP \t\t\t\n        tag 40\t\t\t\n          JUMPDEST \t\t\t\n          PUSH 0\t\t\t\n          PUSH 8\t\t\t\n          DUP4 \t\t\t\n          MUL \t\t\t\n          PUSH [tag] 108\t\t\t\n          PUSH FFFFFFFFFFFFFFFFFFFFFFFFFFFFFFFFFFFFFFFFFFFFFFFFFFFFFFFFFFFFFFFF\t\t\t\n          DUP3 \t\t\t\n          PUSH [tag] 39\t\t\t\n          JUMP \t\t\t\n        tag 108\t\t\t\n          JUMPDEST \t\t\t\n          PUSH [tag] 109\t\t\t\n          DUP7 \t\t\t\n          DUP4 \t\t\t\n          PUSH [tag] 39\t\t\t\n          JUMP \t\t\t\n        tag 109\t\t\t\n          JUMPDEST \t\t\t\n          SWAP6 \t\t\t\n          POP \t\t\t\n          DUP1 \t\t\t\n          NOT \t\t\t\n          DUP5 \t\t\t\n          AND \t\t\t\n          SWAP4 \t\t\t\n          POP \t\t\t\n          DUP1 \t\t\t\n          DUP7 \t\t\t\n          AND \t\t\t\n          DUP5 \t\t\t\n          OR \t\t\t\n          SWAP3 \t\t\t\n          POP \t\t\t\n          POP \t\t\t\n          POP \t\t\t\n          SWAP4 \t\t\t\n          SWAP3 \t\t\t\n          POP \t\t\t\n          POP \t\t\t\n          POP \t\t\t\n          JUMP \t\t\t\n        tag 41\t\t\t\n          JUMPDEST \t\t\t\n          PUSH 0\t\t\t\n          DUP2 \t\t\t\n          SWAP1 \t\t\t\n          POP \t\t\t\n          SWAP2 \t\t\t\n          SWAP1 \t\t\t\n          POP \t\t\t\n          JUMP \t\t\t\n        tag 42\t\t\t\n          JUMPDEST \t\t\t\n          PUSH 0\t\t\t\n          DUP2 \t\t\t\n          SWAP1 \t\t\t\n          POP \t\t\t\n          SWAP2 \t\t\t\n          SWAP1 \t\t\t\n          POP \t\t\t\n          JUMP \t\t\t\n        tag 43\t\t\t\n          JUMPDEST \t\t\t\n          PUSH 0\t\t\t\n          PUSH [tag] 113\t\t\t\n          PUSH [tag] 114\t\t\t\n          PUSH [tag] 115\t\t\t\n          DUP5 \t\t\t\n          PUSH [tag] 41\t\t\t\n          JUMP \t\t\t\n        tag 115\t\t\t\n          JUMPDEST \t\t\t\n          PUSH [tag] 42\t\t\t\n          JUMP \t\t\t\n        tag 114\t\t\t\n          JUMPDEST \t\t\t\n          PUSH [tag] 41\t\t\t\n          JUMP \t\t\t\n        tag 113\t\t\t\n          JUMPDEST \t\t\t\n          SWAP1 \t\t\t\n          POP \t\t\t\n          SWAP2 \t\t\t\n          SWAP1 \t\t\t\n          POP \t\t\t\n          JUMP \t\t\t\n        tag 44\t\t\t\n          JUMPDEST \t\t\t\n          PUSH 0\t\t\t\n          DUP2 \t\t\t\n          SWAP1 \t\t\t\n          POP \t\t\t\n          SWAP2 \t\t\t\n          SWAP1 \t\t\t\n          POP \t\t\t\n          JUMP \t\t\t\n        tag 45\t\t\t\n          JUMPDEST \t\t\t\n          PUSH [tag] 118\t\t\t\n          DUP4 \t\t\t\n          PUSH [tag] 43\t\t\t\n          JUMP \t\t\t\n        tag 118\t\t\t\n          JUMPDEST \t\t\t\n          PUSH [tag] 119\t\t\t\n          PUSH [tag] 120\t\t\t\n          DUP3 \t\t\t\n          PUSH [tag] 44\t\t\t\n          JUMP \t\t\t\n        tag 120\t\t\t\n          JUMPDEST \t\t\t\n          DUP5 \t\t\t\n          DUP5 \t\t\t\n          SLOAD \t\t\t\n          PUSH [tag] 40\t\t\t\n          JUMP \t\t\t\n        tag 119\t\t\t\n          JUMPDEST \t\t\t\n          DUP3 \t\t\t\n          SSTORE \t\t\t\n          POP \t\t\t\n          POP \t\t\t\n          POP \t\t\t\n          POP \t\t\t\n          JUMP \t\t\t\n        tag 46\t\t\t\n          JUMPDEST \t\t\t\n          PUSH 0\t\t\t\n          SWAP1 \t\t\t\n          JUMP \t\t\t\n        tag 47\t\t\t\n          JUMPDEST \t\t\t\n          PUSH [tag] 123\t\t\t\n          PUSH [tag] 46\t\t\t\n          JUMP \t\t\t\n        tag 123\t\t\t\n          JUMPDEST \t\t\t\n          PUSH [tag] 124\t\t\t\n          DUP2 \t\t\t\n          DUP5 \t\t\t\n          DUP5 \t\t\t\n          PUSH [tag] 45\t\t\t\n          JUMP \t\t\t\n        tag 124\t\t\t\n          JUMPDEST \t\t\t\n          POP \t\t\t\n          POP \t\t\t\n          POP \t\t\t\n          JUMP \t\t\t\n        tag 48\t\t\t\n          JUMPDEST \t\t\t\n        tag 126\t\t\t\n          JUMPDEST \t\t\t\n          DUP2 \t\t\t\n          DUP2 \t\t\t\n          LT \t\t\t\n          ISZERO \t\t\t\n          PUSH [tag] 128\t\t\t\n          JUMPI \t\t\t\n          PUSH [tag] 129\t\t\t\n          PUSH 0\t\t\t\n          DUP3 \t\t\t\n          PUSH [tag] 47\t\t\t\n          JUMP \t\t\t\n        tag 129\t\t\t\n          JUMPDEST \t\t\t\n          PUSH 1\t\t\t\n          DUP2 \t\t\t\n          ADD \t\t\t\n          SWAP1 \t\t\t\n          POP \t\t\t\n          PUSH [tag] 126\t\t\t\n          JUMP \t\t\t\n        tag 128\t\t\t\n          JUMPDEST \t\t\t\n          POP \t\t\t\n          POP \t\t\t\n          JUMP \t\t\t\n        tag 49\t\t\t\n          JUMPDEST \t\t\t\n          PUSH 1F\t\t\t\n          DUP3 \t\t\t\n          GT \t\t\t\n          ISZERO \t\t\t\n          PUSH [tag] 131\t\t\t\n          JUMPI \t\t\t\n          PUSH [tag] 132\t\t\t\n          DUP2 \t\t\t\n          PUSH [tag] 37\t\t\t\n          JUMP \t\t\t\n        tag 132\t\t\t\n          JUMPDEST \t\t\t\n          PUSH [tag] 133\t\t\t\n          DUP5 \t\t\t\n          PUSH [tag] 38\t\t\t\n          JUMP \t\t\t\n        tag 133\t\t\t\n          JUMPDEST \t\t\t\n          DUP2 \t\t\t\n          ADD \t\t\t\n          PUSH 20\t\t\t\n          DUP6 \t\t\t\n          LT \t\t\t\n          ISZERO \t\t\t\n          PUSH [tag] 134\t\t\t\n          JUMPI \t\t\t\n          DUP2 \t\t\t\n          SWAP1 \t\t\t\n          POP \t\t\t\n        tag 134\t\t\t\n          JUMPDEST \t\t\t\n          PUSH [tag] 135\t\t\t\n          PUSH [tag] 136\t\t\t\n          DUP6 \t\t\t\n          PUSH [tag] 38\t\t\t\n          JUMP \t\t\t\n        tag 136\t\t\t\n          JUMPDEST \t\t\t\n          DUP4 \t\t\t\n          ADD \t\t\t\n          DUP3 \t\t\t\n          PUSH [tag] 48\t\t\t\n          JUMP \t\t\t\n        tag 135\t\t\t\n          JUMPDEST \t\t\t\n          POP \t\t\t\n          POP \t\t\t\n        tag 131\t\t\t\n          JUMPDEST \t\t\t\n          POP \t\t\t\n          POP \t\t\t\n          POP \t\t\t\n          JUMP \t\t\t\n        tag 50\t\t\t\n          JUMPDEST \t\t\t\n          PUSH 0\t\t\t\n          DUP3 \t\t\t\n          DUP3 \t\t\t\n          SHR \t\t\t\n          SWAP1 \t\t\t\n          POP \t\t\t\n          SWAP3 \t\t\t\n          SWAP2 \t\t\t\n          POP \t\t\t\n          POP \t\t\t\n          JUMP \t\t\t\n        tag 51\t\t\t\n          JUMPDEST \t\t\t\n          PUSH 0\t\t\t\n          PUSH [tag] 139\t\t\t\n          PUSH 0\t\t\t\n          NOT \t\t\t\n          DUP5 \t\t\t\n          PUSH 8\t\t\t\n          MUL \t\t\t\n          PUSH [tag] 50\t\t\t\n          JUMP \t\t\t\n        tag 139\t\t\t\n          JUMPDEST \t\t\t\n          NOT \t\t\t\n          DUP1 \t\t\t\n          DUP4 \t\t\t\n          AND \t\t\t\n          SWAP2 \t\t\t\n          POP \t\t\t\n          POP \t\t\t\n          SWAP3 \t\t\t\n          SWAP2 \t\t\t\n          POP \t\t\t\n          POP \t\t\t\n          JUMP \t\t\t\n        tag 52\t\t\t\n          JUMPDEST \t\t\t\n          PUSH 0\t\t\t\n          PUSH [tag] 141\t\t\t\n          DUP4 \t\t\t\n          DUP4 \t\t\t\n          PUSH [tag] 51\t\t\t\n          JUMP \t\t\t\n        tag 141\t\t\t\n          JUMPDEST \t\t\t\n          SWAP2 \t\t\t\n          POP \t\t\t\n          DUP3 \t\t\t\n          PUSH 2\t\t\t\n          MUL \t\t\t\n          DUP3 \t\t\t\n          OR \t\t\t\n          SWAP1 \t\t\t\n          POP \t\t\t\n          SWAP3 \t\t\t\n          SWAP2 \t\t\t\n          POP \t\t\t\n          POP \t\t\t\n          JUMP \t\t\t\n        tag 9\t\t\t\n          JUMPDEST \t\t\t\n          PUSH [tag] 143\t\t\t\n          DUP3 \t\t\t\n          PUSH [tag] 34\t\t\t\n          JUMP \t\t\t\n        tag 143\t\t\t\n          JUMPDEST \t\t\t\n          PUSH FFFFFFFFFFFFFFFF\t\t\t\n          DUP2 \t\t\t\n          GT \t\t\t\n          ISZERO \t\t\t\n          PUSH [tag] 144\t\t\t\n          JUMPI \t\t\t\n          PUSH [tag] 145\t\t\t\n          PUSH [tag] 27\t\t\t\n          JUMP \t\t\t\n        tag 145\t\t\t\n          JUMPDEST \t\t\t\n        tag 144\t\t\t\n          JUMPDEST \t\t\t\n          PUSH [tag] 146\t\t\t\n          DUP3 \t\t\t\n          SLOAD \t\t\t\n          PUSH [tag] 36\t\t\t\n          JUMP \t\t\t\n        tag 146\t\t\t\n          JUMPDEST \t\t\t\n          PUSH [tag] 147\t\t\t\n          DUP3 \t\t\t\n          DUP3 \t\t\t\n          DUP6 \t\t\t\n          PUSH [tag] 49\t\t\t\n          JUMP \t\t\t\n        tag 147\t\t\t\n          JUMPDEST \t\t\t\n          PUSH 0\t\t\t\n          PUSH 20\t\t\t\n          SWAP1 \t\t\t\n          POP \t\t\t\n          PUSH 1F\t\t\t\n          DUP4 \t\t\t\n          GT \t\t\t\n          PUSH 1\t\t\t\n          DUP2 \t\t\t\n          EQ \t\t\t\n          PUSH [tag] 149\t\t\t\n          JUMPI \t\t\t\n          PUSH 0\t\t\t\n          DUP5 \t\t\t\n          ISZERO \t\t\t\n          PUSH [tag] 150\t\t\t\n          JUMPI \t\t\t\n          DUP3 \t\t\t\n          DUP8 \t\t\t\n          ADD \t\t\t\n          MLOAD \t\t\t\n          SWAP1 \t\t\t\n          POP \t\t\t\n        tag 150\t\t\t\n          JUMPDEST \t\t\t\n          PUSH [tag] 151\t\t\t\n          DUP6 \t\t\t\n          DUP3 \t\t\t\n          PUSH [tag] 52\t\t\t\n          JUMP \t\t\t\n        tag 151\t\t\t\n          JUMPDEST \t\t\t\n          DUP7 \t\t\t\n          SSTORE \t\t\t\n          POP \t\t\t\n          PUSH [tag] 148\t\t\t\n          JUMP \t\t\t\n        tag 149\t\t\t\n          JUMPDEST \t\t\t\n          PUSH 1F\t\t\t\n          NOT \t\t\t\n          DUP5 \t\t\t\n          AND \t\t\t\n          PUSH [tag] 152\t\t\t\n          DUP7 \t\t\t\n          PUSH [tag] 37\t\t\t\n          JUMP \t\t\t\n        tag 152\t\t\t\n          JUMPDEST \t\t\t\n          PUSH 0\t\t\t\n        tag 153\t\t\t\n          JUMPDEST \t\t\t\n          DUP3 \t\t\t\n          DUP2 \t\t\t\n          LT \t\t\t\n          ISZERO \t\t\t\n          PUSH [tag] 155\t\t\t\n          JUMPI \t\t\t\n          DUP5 \t\t\t\n          DUP10 \t\t\t\n          ADD \t\t\t\n          MLOAD \t\t\t\n          DUP3 \t\t\t\n          SSTORE \t\t\t\n          PUSH 1\t\t\t\n          DUP3 \t\t\t\n          ADD \t\t\t\n          SWAP2 \t\t\t\n          POP \t\t\t\n          PUSH 20\t\t\t\n          DUP6 \t\t\t\n          ADD \t\t\t\n          SWAP5 \t\t\t\n          POP \t\t\t\n          PUSH 20\t\t\t\n          DUP2 \t\t\t\n          ADD \t\t\t\n          SWAP1 \t\t\t\n          POP \t\t\t\n          PUSH [tag] 153\t\t\t\n          JUMP \t\t\t\n        tag 155\t\t\t\n          JUMPDEST \t\t\t\n          DUP7 \t\t\t\n          DUP4 \t\t\t\n          LT \t\t\t\n          ISZERO \t\t\t\n          PUSH [tag] 156\t\t\t\n          JUMPI \t\t\t\n          DUP5 \t\t\t\n          DUP10 \t\t\t\n          ADD \t\t\t\n          MLOAD \t\t\t\n          PUSH [tag] 157\t\t\t\n          PUSH 1F\t\t\t\n          DUP10 \t\t\t\n          AND \t\t\t\n          DUP3 \t\t\t\n          PUSH [tag] 51\t\t\t\n          JUMP \t\t\t\n        tag 157\t\t\t\n          JUMPDEST \t\t\t\n          DUP4 \t\t\t\n          SSTORE \t\t\t\n          POP \t\t\t\n        tag 156\t\t\t\n          JUMPDEST \t\t\t\n          PUSH 1\t\t\t\n          PUSH 2\t\t\t\n          DUP9 \t\t\t\n          MUL \t\t\t\n          ADD \t\t\t\n          DUP9 \t\t\t\n          SSTORE \t\t\t\n          POP \t\t\t\n          POP \t\t\t\n          POP \t\t\t\n        tag 148\t\t\t\n          JUMPDEST \t\t\t\n          POP \t\t\t\n          POP \t\t\t\n          POP \t\t\t\n          POP \t\t\t\n          POP \t\t\t\n          POP \t\t\t\n          JUMP \t\t\t\n        tag 53\t\t\t\n          JUMPDEST \t\t\t\n          PUSH 0\t\t\t\n          PUSH FFFFFFFFFFFFFFFFFFFFFFFFFFFFFFFFFFFFFFFF\t\t\t\n          DUP3 \t\t\t\n          AND \t\t\t\n          SWAP1 \t\t\t\n          POP \t\t\t\n          SWAP2 \t\t\t\n          SWAP1 \t\t\t\n          POP \t\t\t\n          JUMP \t\t\t\n        tag 54\t\t\t\n          JUMPDEST \t\t\t\n          PUSH 0\t\t\t\n          PUSH [tag] 160\t\t\t\n          DUP3 \t\t\t\n          PUSH [tag] 53\t\t\t\n          JUMP \t\t\t\n        tag 160\t\t\t\n          JUMPDEST \t\t\t\n          SWAP1 \t\t\t\n          POP \t\t\t\n          SWAP2 \t\t\t\n          SWAP1 \t\t\t\n          POP \t\t\t\n          JUMP \t\t\t\n        tag 55\t\t\t\n          JUMPDEST \t\t\t\n          PUSH [tag] 162\t\t\t\n          DUP2 \t\t\t\n          PUSH [tag] 54\t\t\t\n          JUMP \t\t\t\n        tag 162\t\t\t\n          JUMPDEST \t\t\t\n          DUP3 \t\t\t\n          MSTORE \t\t\t\n          POP \t\t\t\n          POP \t\t\t\n          JUMP \t\t\t\n        tag 14\t\t\t\n          JUMPDEST \t\t\t\n          PUSH 0\t\t\t\n          PUSH 20\t\t\t\n          DUP3 \t\t\t\n          ADD \t\t\t\n          SWAP1 \t\t\t\n          POP \t\t\t\n          PUSH [tag] 164\t\t\t\n          PUSH 0\t\t\t\n          DUP4 \t\t\t\n          ADD \t\t\t\n          DUP5 \t\t\t\n          PUSH [tag] 55\t\t\t\n          JUMP \t\t\t\n        tag 164\t\t\t\n          JUMPDEST \t\t\t\n          SWAP3 \t\t\t\n          SWAP2 \t\t\t\n          POP \t\t\t\n          POP \t\t\t\n          JUMP \t\t\t\n        tag 19\t\t\tamePurchased(string indexed ci...\n          JUMPDEST \t\t\tamePurchased(string indexed ci...\n          PUSH #[$] 0000000000000000000000000000000000000000000000000000000000000000\t\t\tamePurchased(string indexed ci...\n          DUP1 \t\t\tamePurchased(string indexed ci...\n          PUSH [$] 0000000000000000000000000000000000000000000000000000000000000000\t\t\tamePurchased(string indexed ci...\n          PUSH 0\t\t\tamePurchased(string indexed ci...\n          CODECOPY \t\t\tamePurchased(string indexed ci...\n          PUSH 0\t\t\tamePurchased(string indexed ci...\n          RETURN \t\t\tamePurchased(string indexed ci...\n        .data\n          0:\n            .code\n              PUSH 80\t\t\tamePurchased(string indexed ci...\n              PUSH 40\t\t\tamePurchased(string indexed ci...\n              MSTORE \t\t\tamePurchased(string indexed ci...\n              CALLVALUE \t\t\tamePurchased(string indexed ci...\n              DUP1 \t\t\tamePurchased(string indexed ci...\n              ISZERO \t\t\tamePurchased(string indexed ci...\n              PUSH [tag] 1\t\t\tamePurchased(string indexed ci...\n              JUMPI \t\t\tamePurchased(string indexed ci...\n              PUSH 0\t\t\tamePurchased(string indexed ci...\n              DUP1 \t\t\tamePurchased(string indexed ci...\n              REVERT \t\t\tamePurchased(string indexed ci...\n            tag 1\t\t\tamePurchased(string indexed ci...\n              JUMPDEST \t\t\tamePurchased(string indexed ci...\n              POP \t\t\tamePurchased(string indexed ci...\n              PUSH 4\t\t\tamePurchased(string indexed ci...\n              CALLDATASIZE \t\t\tamePurchased(string indexed ci...\n              LT \t\t\tamePurchased(string indexed ci...\n              PUSH [tag] 2\t\t\tamePurchased(string indexed ci...\n              JUMPI \t\t\tamePurchased(string indexed ci...\n              PUSH 0\t\t\tamePurchased(string indexed ci...\n              CALLDATALOAD \t\t\tamePurchased(string indexed ci...\n              PUSH E0\t\t\tamePurchased(string indexed ci...\n              SHR \t\t\tamePurchased(string indexed ci...\n              DUP1 \t\t\tamePurchased(string indexed ci...\n              PUSH 70A08231\t\t\tamePurchased(string indexed ci...\n              GT \t\t\tamePurchased(string indexed ci...\n              PUSH [tag] 20\t\t\tamePurchased(string indexed ci...\n              JUMPI \t\t\tamePurchased(string indexed ci...\n              DUP1 \t\t\tamePurchased(string indexed ci...\n              PUSH A22CB465\t\t\tamePurchased(string indexed ci...\n              GT \t\t\tamePurchased(string indexed ci...\n              PUSH [tag] 21\t\t\tamePurchased(string indexed ci...\n              JUMPI \t\t\tamePurchased(string indexed ci...\n              DUP1 \t\t\tamePurchased(string indexed ci...\n              PUSH A22CB465\t\t\tamePurchased(string indexed ci...\n              EQ \t\t\tamePurchased(string indexed ci...\n              PUSH [tag] 15\t\t\tamePurchased(string indexed ci...\n              JUMPI \t\t\tamePurchased(string indexed ci...\n              DUP1 \t\t\tamePurchased(string indexed ci...\n              PUSH B88D4FDE\t\t\tamePurchased(string indexed ci...\n              EQ \t\t\tamePurchased(string indexed ci...\n              PUSH [tag] 16\t\t\tamePurchased(string indexed ci...\n              JUMPI \t\t\tamePurchased(string indexed ci...\n              DUP1 \t\t\tamePurchased(string indexed ci...\n              PUSH C87B56DD\t\t\tamePurchased(string indexed ci...\n              EQ \t\t\tamePurchased(string indexed ci...\n              PUSH [tag] 17\t\t\tamePurchased(string indexed ci...\n              JUMPI \t\t\tamePurchased(string indexed ci...\n              DUP1 \t\t\tamePurchased(string indexed ci...\n              PUSH E985E9C5\t\t\tamePurchased(string indexed ci...\n              EQ \t\t\tamePurchased(string indexed ci...\n              PUSH [tag] 18\t\t\tamePurchased(string indexed ci...\n              JUMPI \t\t\tamePurchased(string indexed ci...\n              DUP1 \t\t\tamePurchased(string indexed ci...\n              PUSH F2FDE38B\t\t\tamePurchased(string indexed ci...\n              EQ \t\t\tamePurchased(string indexed ci...\n              PUSH [tag] 19\t\t\tamePurchased(string indexed ci...\n              JUMPI \t\t\tamePurchased(string indexed ci...\n              PUSH [tag] 2\t\t\tamePurchased(string indexed ci...\n              JUMP \t\t\tamePurchased(string indexed ci...\n            tag 21\t\t\tamePurchased(string indexed ci...\n              JUMPDEST \t\t\tamePurchased(string indexed ci...\n              DUP1 \t\t\tamePurchased(string indexed ci...\n              PUSH 70A08231\t\t\tamePurchased(string indexed ci...\n              EQ \t\t\tamePurchased(string indexed ci...\n              PUSH [tag] 11\t\t\tamePurchased(string indexed ci...\n              JUMPI \t\t\tamePurchased(string indexed ci...\n              DUP1 \t\t\tamePurchased(string indexed ci...\n              PUSH 715018A6\t\t\tamePurchased(string indexed ci...\n              EQ \t\t\tamePurchased(string indexed ci...\n              PUSH [tag] 12\t\t\tamePurchased(string indexed ci...\n              JUMPI \t\t\tamePurchased(string indexed ci...\n              DUP1 \t\t\tamePurchased(string indexed ci...\n              PUSH 8DA5CB5B\t\t\tamePurchased(string indexed ci...\n              EQ \t\t\tamePurchased(string indexed ci...\n              PUSH [tag] 13\t\t\tamePurchased(string indexed ci...\n              JUMPI \t\t\tamePurchased(string indexed ci...\n              DUP1 \t\t\tamePurchased(string indexed ci...\n              PUSH 95D89B41\t\t\tamePurchased(string indexed ci...\n              EQ \t\t\tamePurchased(string indexed ci...\n              PUSH [tag] 14\t\t\tamePurchased(string indexed ci...\n              JUMPI \t\t\tamePurchased(string indexed ci...\n              PUSH [tag] 2\t\t\tamePurchased(string indexed ci...\n              JUMP \t\t\tamePurchased(string indexed ci...\n            tag 20\t\t\tamePurchased(string indexed ci...\n              JUMPDEST \t\t\tamePurchased(string indexed ci...\n              DUP1 \t\t\tamePurchased(string indexed ci...\n              PUSH 23B872DD\t\t\tamePurchased(string indexed ci...\n              GT \t\t\tamePurchased(string indexed ci...\n              PUSH [tag] 22\t\t\tamePurchased(string indexed ci...\n              JUMPI \t\t\tamePurchased(string indexed ci...\n              DUP1 \t\t\tamePurchased(string indexed ci...\n              PUSH 23B872DD\t\t\tamePurchased(string indexed ci...\n              EQ \t\t\tamePurchased(string indexed ci...\n              PUSH [tag] 7\t\t\tamePurchased(string indexed ci...\n              JUMPI \t\t\tamePurchased(string indexed ci...\n              DUP1 \t\t\tamePurchased(string indexed ci...\n              PUSH 42842E0E\t\t\tamePurchased(string indexed ci...\n              EQ \t\t\tamePurchased(string indexed ci...\n              PUSH [tag] 8\t\t\tamePurchased(string indexed ci...\n              JUMPI \t\t\tamePurchased(string indexed ci...\n              DUP1 \t\t\tamePurchased(string indexed ci...\n              PUSH 6352211E\t\t\tamePurchased(string indexed ci...\n              EQ \t\t\tamePurchased(string indexed ci...\n              PUSH [tag] 9\t\t\tamePurchased(string indexed ci...\n              JUMPI \t\t\tamePurchased(string indexed ci...\n              DUP1 \t\t\tamePurchased(string indexed ci...\n              PUSH 6A627842\t\t\tamePurchased(string indexed ci...\n              EQ \t\t\tamePurchased(string indexed ci...\n              PUSH [tag] 10\t\t\tamePurchased(string indexed ci...\n              JUMPI \t\t\tamePurchased(string indexed ci...\n              PUSH [tag] 2\t\t\tamePurchased(string indexed ci...\n              JUMP \t\t\tamePurchased(string indexed ci...\n            tag 22\t\t\tamePurchased(string indexed ci...\n              JUMPDEST \t\t\tamePurchased(string indexed ci...\n              DUP1 \t\t\tamePurchased(string indexed ci...\n              PUSH 1FFC9A7\t\t\tamePurchased(string indexed ci...\n              EQ \t\t\tamePurchased(string indexed ci...\n              PUSH [tag] 3\t\t\tamePurchased(string indexed ci...\n              JUMPI \t\t\tamePurchased(string indexed ci...\n              DUP1 \t\t\tamePurchased(string indexed ci...\n              PUSH 6FDDE03\t\t\tamePurchased(string indexed ci...\n              EQ \t\t\tamePurchased(string indexed ci...\n              PUSH [tag] 4\t\t\tamePurchased(string indexed ci...\n              JUMPI \t\t\tamePurchased(string indexed ci...\n              DUP1 \t\t\tamePurchased(string indexed ci...\n              PUSH 81812FC\t\t\tamePurchased(string indexed ci...\n              EQ \t\t\tamePurchased(string indexed ci...\n              PUSH [tag] 5\t\t\tamePurchased(string indexed ci...\n              JUMPI \t\t\tamePurchased(string indexed ci...\n              DUP1 \t\t\tamePurchased(string indexed ci...\n              PUSH 95EA7B3\t\t\tamePurchased(string indexed ci...\n              EQ \t\t\tamePurchased(string indexed ci...\n              PUSH [tag] 6\t\t\tamePurchased(string indexed ci...\n              JUMPI \t\t\tamePurchased(string indexed ci...\n            tag 2\t\t\tamePurchased(string indexed ci...\n              JUMPDEST \t\t\tamePurchased(string indexed ci...\n              PUSH 0\t\t\tamePurchased(string indexed ci...\n              DUP1 \t\t\tamePurchased(string indexed ci...\n              REVERT \t\t\tamePurchased(string indexed ci...\n            tag 3\t\t\t_name, _symbol, _imageUrl);\\n ...\n              JUMPDEST \t\t\t_name, _symbol, _imageUrl);\\n ...\n              PUSH [tag] 23\t\t\t_name, _symbol, _imageUrl);\\n ...\n              PUSH 4\t\t\t_name, _symbol, _imageUrl);\\n ...\n              DUP1 \t\t\t_name, _symbol, _imageUrl);\\n ...\n              CALLDATASIZE \t\t\t_name, _symbol, _imageUrl);\\n ...\n              SUB \t\t\t_name, _symbol, _imageUrl);\\n ...\n              DUP2 \t\t\t_name, _symbol, _imageUrl);\\n ...\n              ADD \t\t\t_name, _symbol, _imageUrl);\\n ...\n              SWAP1 \t\t\t_name, _symbol, _imageUrl);\\n ...\n              PUSH [tag] 24\t\t\t_name, _symbol, _imageUrl);\\n ...\n              SWAP2 \t\t\t_name, _symbol, _imageUrl);\\n ...\n              SWAP1 \t\t\t_name, _symbol, _imageUrl);\\n ...\n              PUSH [tag] 25\t\t\t_name, _symbol, _imageUrl);\\n ...\n              JUMP \t\t\t_name, _symbol, _imageUrl);\\n ...\n            tag 24\t\t\t_name, _symbol, _imageUrl);\\n ...\n              JUMPDEST \t\t\t_name, _symbol, _imageUrl);\\n ...\n              PUSH [tag] 26\t\t\t_name, _symbol, _imageUrl);\\n ...\n              JUMP \t\t\t_name, _symbol, _imageUrl);\\n ...\n            tag 23\t\t\t_name, _symbol, _imageUrl);\\n ...\n              JUMPDEST \t\t\t_name, _symbol, _imageUrl);\\n ...\n              PUSH 40\t\t\t_name, _symbol, _imageUrl);\\n ...\n              MLOAD \t\t\t_name, _symbol, _imageUrl);\\n ...\n              PUSH [tag] 27\t\t\t_name, _symbol, _imageUrl);\\n ...\n              SWAP2 \t\t\t_name, _symbol, _imageUrl);\\n ...\n              SWAP1 \t\t\t_name, _symbol, _imageUrl);\\n ...\n              PUSH [tag] 28\t\t\t_name, _symbol, _imageUrl);\\n ...\n              JUMP \t\t\t_name, _symbol, _imageUrl);\\n ...\n            tag 27\t\t\t_name, _symbol, _imageUrl);\\n ...\n              JUMPDEST \t\t\t_name, _symbol, _imageUrl);\\n ...\n              PUSH 40\t\t\t_name, _symbol, _imageUrl);\\n ...\n              MLOAD \t\t\t_name, _symbol, _imageUrl);\\n ...\n              DUP1 \t\t\t_name, _symbol, _imageUrl);\\n ...\n              SWAP2 \t\t\t_name, _symbol, _imageUrl);\\n ...\n              SUB \t\t\t_name, _symbol, _imageUrl);\\n ...\n              SWAP1 \t\t\t_name, _symbol, _imageUrl);\\n ...\n              RETURN \t\t\t_name, _symbol, _imageUrl);\\n ...\n            tag 4\t\t\t_game.creator] += _game.price;...\n              JUMPDEST \t\t\t_game.creator] += _game.price;...\n              PUSH [tag] 29\t\t\t_game.creator] += _game.price;...\n              PUSH [tag] 30\t\t\t_game.creator] += _game.price;...\n              JUMP \t\t\t_game.creator] += _game.price;...\n            tag 29\t\t\t_game.creator] += _game.price;...\n              JUMPDEST \t\t\t_game.creator] += _game.price;...\n              PUSH 40\t\t\t_game.creator] += _game.price;...\n              MLOAD \t\t\t_game.creator] += _game.price;...\n              PUSH [tag] 31\t\t\t_game.creator] += _game.price;...\n              SWAP2 \t\t\t_game.creator] += _game.price;...\n              SWAP1 \t\t\t_game.creator] += _game.price;...\n              PUSH [tag] 32\t\t\t_game.creator] += _game.price;...\n              JUMP \t\t\t_game.creator] += _game.price;...\n            tag 31\t\t\t_game.creator] += _game.price;...\n              JUMPDEST \t\t\t_game.creator] += _game.price;...\n              PUSH 40\t\t\t_game.creator] += _game.price;...\n              MLOAD \t\t\t_game.creator] += _game.price;...\n              DUP1 \t\t\t_game.creator] += _game.price;...\n              SWAP2 \t\t\t_game.creator] += _game.price;...\n              SUB \t\t\t_game.creator] += _game.price;...\n              SWAP1 \t\t\t_game.creator] += _game.price;...\n              RETURN \t\t\t_game.creator] += _game.price;...\n            tag 5\t\t\ty)\\n    {\\n        Game memory...\n              JUMPDEST \t\t\ty)\\n    {\\n        Game memory...\n              PUSH [tag] 33\t\t\ty)\\n    {\\n        Game memory...\n              PUSH 4\t\t\ty)\\n    {\\n        Game memory...\n              DUP1 \t\t\ty)\\n    {\\n        Game memory...\n              CALLDATASIZE \t\t\ty)\\n    {\\n        Game memory...\n              SUB \t\t\ty)\\n    {\\n        Game memory...\n              DUP2 \t\t\ty)\\n    {\\n        Game memory...\n              ADD \t\t\ty)\\n    {\\n        Game memory...\n              SWAP1 \t\t\ty)\\n    {\\n        Game memory...\n              PUSH [tag] 34\t\t\ty)\\n    {\\n        Game memory...\n              SWAP2 \t\t\ty)\\n    {\\n        Game memory...\n              SWAP1 \t\t\ty)\\n    {\\n        Game memory...\n              PUSH [tag] 35\t\t\ty)\\n    {\\n        Game memory...\n              JUMP \t\t\ty)\\n    {\\n        Game memory...\n            tag 34\t\t\ty)\\n    {\\n        Game memory...\n              JUMPDEST \t\t\ty)\\n    {\\n        Game memory...\n              PUSH [tag] 36\t\t\ty)\\n    {\\n        Game memory...\n              JUMP \t\t\ty)\\n    {\\n        Game memory...\n            tag 33\t\t\ty)\\n    {\\n        Game memory...\n              JUMPDEST \t\t\ty)\\n    {\\n        Game memory...\n              PUSH 40\t\t\ty)\\n    {\\n        Game memory...\n              MLOAD \t\t\ty)\\n    {\\n        Game memory...\n              PUSH [tag] 37\t\t\ty)\\n    {\\n        Game memory...\n              SWAP2 \t\t\ty)\\n    {\\n        Game memory...\n              SWAP1 \t\t\ty)\\n    {\\n        Game memory...\n              PUSH [tag] 38\t\t\ty)\\n    {\\n        Game memory...\n              JUMP \t\t\ty)\\n    {\\n        Game memory...\n            tag 37\t\t\ty)\\n    {\\n        Game memory...\n              JUMPDEST \t\t\ty)\\n    {\\n        Game memory...\n              PUSH 40\t\t\ty)\\n    {\\n        Game memory...\n              MLOAD \t\t\ty)\\n    {\\n        Game memory...\n              DUP1 \t\t\ty)\\n    {\\n        Game memory...\n              SWAP2 \t\t\ty)\\n    {\\n        Game memory...\n              SUB \t\t\ty)\\n    {\\n        Game memory...\n              SWAP1 \t\t\ty)\\n    {\\n        Game memory...\n              RETURN \t\t\ty)\\n    {\\n        Game memory...\n            tag 6\t\t\t  _games[i] = games[cids[i]];\\...\n              JUMPDEST \t\t\t  _games[i] = games[cids[i]];\\...\n              PUSH [tag] 39\t\t\t  _games[i] = games[cids[i]];\\...\n              PUSH 4\t\t\t  _games[i] = games[cids[i]];\\...\n              DUP1 \t\t\t  _games[i] = games[cids[i]];\\...\n              CALLDATASIZE \t\t\t  _games[i] = games[cids[i]];\\...\n              SUB \t\t\t  _games[i] = games[cids[i]];\\...\n              DUP2 \t\t\t  _games[i] = games[cids[i]];\\...\n              ADD \t\t\t  _games[i] = games[cids[i]];\\...\n              SWAP1 \t\t\t  _games[i] = games[cids[i]];\\...\n              PUSH [tag] 40\t\t\t  _games[i] = games[cids[i]];\\...\n              SWAP2 \t\t\t  _games[i] = games[cids[i]];\\...\n              SWAP1 \t\t\t  _games[i] = games[cids[i]];\\...\n              PUSH [tag] 41\t\t\t  _games[i] = games[cids[i]];\\...\n              JUMP \t\t\t  _games[i] = games[cids[i]];\\...\n            tag 40\t\t\t  _games[i] = games[cids[i]];\\...\n              JUMPDEST \t\t\t  _games[i] = games[cids[i]];\\...\n              PUSH [tag] 42\t\t\t  _games[i] = games[cids[i]];\\...\n              JUMP \t\t\t  _games[i] = games[cids[i]];\\...\n            tag 39\t\t\t  _games[i] = games[cids[i]];\\...\n              JUMPDEST \t\t\t  _games[i] = games[cids[i]];\\...\n              STOP \t\t\t  _games[i] = games[cids[i]];\\...\n            tag 7\t\t\t\n              JUMPDEST \t\t\t\n              PUSH [tag] 43\t\t\t\n              PUSH 4\t\t\t\n              DUP1 \t\t\t\n              CALLDATASIZE \t\t\t\n              SUB \t\t\t\n              DUP2 \t\t\t\n              ADD \t\t\t\n              SWAP1 \t\t\t\n              PUSH [tag] 44\t\t\t\n              SWAP2 \t\t\t\n              SWAP1 \t\t\t\n              PUSH [tag] 45\t\t\t\n              JUMP \t\t\t\n            tag 44\t\t\t\n              JUMPDEST \t\t\t\n              PUSH [tag] 46\t\t\t\n              JUMP \t\t\t\n            tag 43\t\t\t\n              JUMPDEST \t\t\t\n              STOP \t\t\t\n            tag 8\t\t\t\n              JUMPDEST \t\t\t\n              PUSH [tag] 47\t\t\t\n              PUSH 4\t\t\t\n              DUP1 \t\t\t\n              CALLDATASIZE \t\t\t\n              SUB \t\t\t\n              DUP2 \t\t\t\n              ADD \t\t\t\n              SWAP1 \t\t\t\n              PUSH [tag] 48\t\t\t\n              SWAP2 \t\t\t\n              SWAP1 \t\t\t\n              PUSH [tag] 45\t\t\t\n              JUMP \t\t\t\n            tag 48\t\t\t\n              JUMPDEST \t\t\t\n              PUSH [tag] 49\t\t\t\n              JUMP \t\t\t\n            tag 47\t\t\t\n              JUMPDEST \t\t\t\n              STOP \t\t\t\n            tag 9\t\t\tsender) >= 1) {\\n            r...\n              JUMPDEST \t\t\tsender) >= 1) {\\n            r...\n              PUSH [tag] 50\t\t\tsender) >= 1) {\\n            r...\n              PUSH 4\t\t\tsender) >= 1) {\\n            r...\n              DUP1 \t\t\tsender) >= 1) {\\n            r...\n              CALLDATASIZE \t\t\tsender) >= 1) {\\n            r...\n              SUB \t\t\tsender) >= 1) {\\n            r...\n              DUP2 \t\t\tsender) >= 1) {\\n            r...\n              ADD \t\t\tsender) >= 1) {\\n            r...\n              SWAP1 \t\t\tsender) >= 1) {\\n            r...\n              PUSH [tag] 51\t\t\tsender) >= 1) {\\n            r...\n              SWAP2 \t\t\tsender) >= 1) {\\n            r...\n              SWAP1 \t\t\tsender) >= 1) {\\n            r...\n              PUSH [tag] 35\t\t\tsender) >= 1) {\\n            r...\n              JUMP \t\t\tsender) >= 1) {\\n            r...\n            tag 51\t\t\tsender) >= 1) {\\n            r...\n              JUMPDEST \t\t\tsender) >= 1) {\\n            r...\n              PUSH [tag] 52\t\t\tsender) >= 1) {\\n            r...\n              JUMP \t\t\tsender) >= 1) {\\n            r...\n            tag 50\t\t\tsender) >= 1) {\\n            r...\n              JUMPDEST \t\t\tsender) >= 1) {\\n            r...\n              PUSH 40\t\t\tsender) >= 1) {\\n            r...\n              MLOAD \t\t\tsender) >= 1) {\\n            r...\n              PUSH [tag] 53\t\t\tsender) >= 1) {\\n            r...\n              SWAP2 \t\t\tsender) >= 1) {\\n            r...\n              SWAP1 \t\t\tsender) >= 1) {\\n            r...\n              PUSH [tag] 38\t\t\tsender) >= 1) {\\n            r...\n              JUMP \t\t\tsender) >= 1) {\\n            r...\n            tag 53\t\t\tsender) >= 1) {\\n            r...\n              JUMPDEST \t\t\tsender) >= 1) {\\n            r...\n              PUSH 40\t\t\tsender) >= 1) {\\n            r...\n              MLOAD \t\t\tsender) >= 1) {\\n            r...\n              DUP1 \t\t\tsender) >= 1) {\\n            r...\n              SWAP2 \t\t\tsender) >= 1) {\\n            r...\n              SUB \t\t\tsender) >= 1) {\\n            r...\n              SWAP1 \t\t\tsender) >= 1) {\\n            r...\n              RETURN \t\t\tsender) >= 1) {\\n            r...\n            tag 10\t\t\t   string cid;\\n        addres...\n              JUMPDEST \t\t\t   string cid;\\n        addres...\n              PUSH [tag] 54\t\t\t   string cid;\\n        addres...\n              PUSH 4\t\t\t   string cid;\\n        addres...\n              DUP1 \t\t\t   string cid;\\n        addres...\n              CALLDATASIZE \t\t\t   string cid;\\n        addres...\n              SUB \t\t\t   string cid;\\n        addres...\n              DUP2 \t\t\t   string cid;\\n        addres...\n              ADD \t\t\t   string cid;\\n        addres...\n              SWAP1 \t\t\t   string cid;\\n        addres...\n              PUSH [tag] 55\t\t\t   string cid;\\n        addres...\n              SWAP2 \t\t\t   string cid;\\n        addres...\n              SWAP1 \t\t\t   string cid;\\n        addres...\n              PUSH [tag] 56\t\t\t   string cid;\\n        addres...\n              JUMP \t\t\t   string cid;\\n        addres...\n            tag 55\t\t\t   string cid;\\n        addres...\n              JUMPDEST \t\t\t   string cid;\\n        addres...\n              PUSH [tag] 57\t\t\t   string cid;\\n        addres...\n              JUMP \t\t\t   string cid;\\n        addres...\n            tag 54\t\t\t   string cid;\\n        addres...\n              JUMPDEST \t\t\t   string cid;\\n        addres...\n              STOP \t\t\t   string cid;\\n        addres...\n            tag 11\t\t\tyGame(string memory _cid) exte...\n              JUMPDEST \t\t\tyGame(string memory _cid) exte...\n              PUSH [tag] 58\t\t\tyGame(string memory _cid) exte...\n              PUSH 4\t\t\tyGame(string memory _cid) exte...\n              DUP1 \t\t\tyGame(string memory _cid) exte...\n              CALLDATASIZE \t\t\tyGame(string memory _cid) exte...\n              SUB \t\t\tyGame(string memory _cid) exte...\n              DUP2 \t\t\tyGame(string memory _cid) exte...\n              ADD \t\t\tyGame(string memory _cid) exte...\n              SWAP1 \t\t\tyGame(string memory _cid) exte...\n              PUSH [tag] 59\t\t\tyGame(string memory _cid) exte...\n              SWAP2 \t\t\tyGame(string memory _cid) exte...\n              SWAP1 \t\t\tyGame(string memory _cid) exte...\n              PUSH [tag] 56\t\t\tyGame(string memory _cid) exte...\n              JUMP \t\t\tyGame(string memory _cid) exte...\n            tag 59\t\t\tyGame(string memory _cid) exte...\n              JUMPDEST \t\t\tyGame(string memory _cid) exte...\n              PUSH [tag] 60\t\t\tyGame(string memory _cid) exte...\n              JUMP \t\t\tyGame(string memory _cid) exte...\n            tag 58\t\t\tyGame(string memory _cid) exte...\n              JUMPDEST \t\t\tyGame(string memory _cid) exte...\n              PUSH 40\t\t\tyGame(string memory _cid) exte...\n              MLOAD \t\t\tyGame(string memory _cid) exte...\n              PUSH [tag] 61\t\t\tyGame(string memory _cid) exte...\n              SWAP2 \t\t\tyGame(string memory _cid) exte...\n              SWAP1 \t\t\tyGame(string memory _cid) exte...\n              PUSH [tag] 62\t\t\tyGame(string memory _cid) exte...\n              JUMP \t\t\tyGame(string memory _cid) exte...\n            tag 61\t\t\tyGame(string memory _cid) exte...\n              JUMPDEST \t\t\tyGame(string memory _cid) exte...\n              PUSH 40\t\t\tyGame(string memory _cid) exte...\n              MLOAD \t\t\tyGame(string memory _cid) exte...\n              DUP1 \t\t\tyGame(string memory _cid) exte...\n              SWAP2 \t\t\tyGame(string memory _cid) exte...\n              SUB \t\t\tyGame(string memory _cid) exte...\n              SWAP1 \t\t\tyGame(string memory _cid) exte...\n              RETURN \t\t\tyGame(string memory _cid) exte...\n            tag 12\t\t\t          revert InsufficientF...\n              JUMPDEST \t\t\t          revert InsufficientF...\n              PUSH [tag] 63\t\t\t          revert InsufficientF...\n              PUSH [tag] 64\t\t\t          revert InsufficientF...\n              JUMP \t\t\t          revert InsufficientF...\n            tag 63\t\t\t          revert InsufficientF...\n              JUMPDEST \t\t\t          revert InsufficientF...\n              STOP \t\t\t          revert InsufficientF...\n            tag 13\t\t\ts[_cid] = Game(\\n            m...\n              JUMPDEST \t\t\ts[_cid] = Game(\\n            m...\n              PUSH [tag] 65\t\t\ts[_cid] = Game(\\n            m...\n              PUSH [tag] 66\t\t\ts[_cid] = Game(\\n            m...\n              JUMP \t\t\ts[_cid] = Game(\\n            m...\n            tag 65\t\t\ts[_cid] = Game(\\n            m...\n              JUMPDEST \t\t\ts[_cid] = Game(\\n            m...\n              PUSH 40\t\t\ts[_cid] = Game(\\n            m...\n              MLOAD \t\t\ts[_cid] = Game(\\n            m...\n              PUSH [tag] 67\t\t\ts[_cid] = Game(\\n            m...\n              SWAP2 \t\t\ts[_cid] = Game(\\n            m...\n              SWAP1 \t\t\ts[_cid] = Game(\\n            m...\n              PUSH [tag] 38\t\t\ts[_cid] = Game(\\n            m...\n              JUMP \t\t\ts[_cid] = Game(\\n            m...\n            tag 67\t\t\ts[_cid] = Game(\\n            m...\n              JUMPDEST \t\t\ts[_cid] = Game(\\n            m...\n              PUSH 40\t\t\ts[_cid] = Game(\\n            m...\n              MLOAD \t\t\ts[_cid] = Game(\\n            m...\n              DUP1 \t\t\ts[_cid] = Game(\\n            m...\n              SWAP2 \t\t\ts[_cid] = Game(\\n            m...\n              SUB \t\t\ts[_cid] = Game(\\n            m...\n              SWAP1 \t\t\ts[_cid] = Game(\\n            m...\n              RETURN \t\t\ts[_cid] = Game(\\n            m...\n            tag 14\t\t\ts() external {\\n        if (cr...\n              JUMPDEST \t\t\ts() external {\\n        if (cr...\n              PUSH [tag] 68\t\t\ts() external {\\n        if (cr...\n              PUSH [tag] 69\t\t\ts() external {\\n        if (cr...\n              JUMP \t\t\ts() external {\\n        if (cr...\n            tag 68\t\t\ts() external {\\n        if (cr...\n              JUMPDEST \t\t\ts() external {\\n        if (cr...\n              PUSH 40\t\t\ts() external {\\n        if (cr...\n              MLOAD \t\t\ts() external {\\n        if (cr...\n              PUSH [tag] 70\t\t\ts() external {\\n        if (cr...\n              SWAP2 \t\t\ts() external {\\n        if (cr...\n              SWAP1 \t\t\ts() external {\\n        if (cr...\n              PUSH [tag] 32\t\t\ts() external {\\n        if (cr...\n              JUMP \t\t\ts() external {\\n        if (cr...\n            tag 70\t\t\ts() external {\\n        if (cr...\n              JUMPDEST \t\t\ts() external {\\n        if (cr...\n              PUSH 40\t\t\ts() external {\\n        if (cr...\n              MLOAD \t\t\ts() external {\\n        if (cr...\n              DUP1 \t\t\ts() external {\\n        if (cr...\n              SWAP2 \t\t\ts() external {\\n        if (cr...\n              SUB \t\t\ts() external {\\n        if (cr...\n              SWAP1 \t\t\ts() external {\\n        if (cr...\n              RETURN \t\t\ts() external {\\n        if (cr...\n            tag 15\t\t\txternal view returns(address){...\n              JUMPDEST \t\t\txternal view returns(address){...\n              PUSH [tag] 71\t\t\txternal view returns(address){...\n              PUSH 4\t\t\txternal view returns(address){...\n              DUP1 \t\t\txternal view returns(address){...\n              CALLDATASIZE \t\t\txternal view returns(address){...\n              SUB \t\t\txternal view returns(address){...\n              DUP2 \t\t\txternal view returns(address){...\n              ADD \t\t\txternal view returns(address){...\n              SWAP1 \t\t\txternal view returns(address){...\n              PUSH [tag] 72\t\t\txternal view returns(address){...\n              SWAP2 \t\t\txternal view returns(address){...\n              SWAP1 \t\t\txternal view returns(address){...\n              PUSH [tag] 73\t\t\txternal view returns(address){...\n              JUMP \t\t\txternal view returns(address){...\n            tag 72\t\t\txternal view returns(address){...\n              JUMPDEST \t\t\txternal view returns(address){...\n              PUSH [tag] 74\t\t\txternal view returns(address){...\n              JUMP \t\t\txternal view returns(address){...\n            tag 71\t\t\txternal view returns(address){...\n              JUMPDEST \t\t\txternal view returns(address){...\n              STOP \t\t\txternal view returns(address){...\n            tag 16\t\t\t\n              JUMPDEST \t\t\t\n              PUSH [tag] 75\t\t\t\n              PUSH 4\t\t\t\n              DUP1 \t\t\t\n              CALLDATASIZE \t\t\t\n              SUB \t\t\t\n              DUP2 \t\t\t\n              ADD \t\t\t\n              SWAP1 \t\t\t\n              PUSH [tag] 76\t\t\t\n              SWAP2 \t\t\t\n              SWAP1 \t\t\t\n              PUSH [tag] 77\t\t\t\n              JUMP \t\t\t\n            tag 76\t\t\t\n              JUMPDEST \t\t\t\n              PUSH [tag] 78\t\t\t\n              JUMP \t\t\t\n            tag 75\t\t\t\n              JUMPDEST \t\t\t\n              STOP \t\t\t\n            tag 17\t\t\tageUrl;\\n    }\\n\\n    address ...\n              JUMPDEST \t\t\tageUrl;\\n    }\\n\\n    address ...\n              PUSH [tag] 79\t\t\tageUrl;\\n    }\\n\\n    address ...\n              PUSH 4\t\t\tageUrl;\\n    }\\n\\n    address ...\n              DUP1 \t\t\tageUrl;\\n    }\\n\\n    address ...\n              CALLDATASIZE \t\t\tageUrl;\\n    }\\n\\n    address ...\n              SUB \t\t\tageUrl;\\n    }\\n\\n    address ...\n              DUP2 \t\t\tageUrl;\\n    }\\n\\n    address ...\n              ADD \t\t\tageUrl;\\n    }\\n\\n    address ...\n              SWAP1 \t\t\tageUrl;\\n    }\\n\\n    address ...\n              PUSH [tag] 80\t\t\tageUrl;\\n    }\\n\\n    address ...\n              SWAP2 \t\t\tageUrl;\\n    }\\n\\n    address ...\n              SWAP1 \t\t\tageUrl;\\n    }\\n\\n    address ...\n              PUSH [tag] 35\t\t\tageUrl;\\n    }\\n\\n    address ...\n              JUMP \t\t\tageUrl;\\n    }\\n\\n    address ...\n            tag 80\t\t\tageUrl;\\n    }\\n\\n    address ...\n              JUMPDEST \t\t\tageUrl;\\n    }\\n\\n    address ...\n              PUSH [tag] 81\t\t\tageUrl;\\n    }\\n\\n    address ...\n              JUMP \t\t\tageUrl;\\n    }\\n\\n    address ...\n            tag 79\t\t\tageUrl;\\n    }\\n\\n    address ...\n              JUMPDEST \t\t\tageUrl;\\n    }\\n\\n    address ...\n              PUSH 40\t\t\tageUrl;\\n    }\\n\\n    address ...\n              MLOAD \t\t\tageUrl;\\n    }\\n\\n    address ...\n              PUSH [tag] 82\t\t\tageUrl;\\n    }\\n\\n    address ...\n              SWAP2 \t\t\tageUrl;\\n    }\\n\\n    address ...\n              SWAP1 \t\t\tageUrl;\\n    }\\n\\n    address ...\n              PUSH [tag] 32\t\t\tageUrl;\\n    }\\n\\n    address ...\n              JUMP \t\t\tageUrl;\\n    }\\n\\n    address ...\n            tag 82\t\t\tageUrl;\\n    }\\n\\n    address ...\n              JUMPDEST \t\t\tageUrl;\\n    }\\n\\n    address ...\n              PUSH 40\t\t\tageUrl;\\n    }\\n\\n    address ...\n              MLOAD \t\t\tageUrl;\\n    }\\n\\n    address ...\n              DUP1 \t\t\tageUrl;\\n    }\\n\\n    address ...\n              SWAP2 \t\t\tageUrl;\\n    }\\n\\n    address ...\n              SUB \t\t\tageUrl;\\n    }\\n\\n    address ...\n              SWAP1 \t\t\tageUrl;\\n    }\\n\\n    address ...\n              RETURN \t\t\tageUrl;\\n    }\\n\\n    address ...\n            tag 18\t\t\t\n              JUMPDEST \t\t\t\n              PUSH [tag] 83\t\t\t\n              PUSH 4\t\t\t\n              DUP1 \t\t\t\n              CALLDATASIZE \t\t\t\n              SUB \t\t\t\n              DUP2 \t\t\t\n              ADD \t\t\t\n              SWAP1 \t\t\t\n              PUSH [tag] 84\t\t\t\n              SWAP2 \t\t\t\n              SWAP1 \t\t\t\n              PUSH [tag] 85\t\t\t\n              JUMP \t\t\t\n            tag 84\t\t\t\n              JUMPDEST \t\t\t\n              PUSH [tag] 86\t\t\t\n              JUMP \t\t\t\n            tag 83\t\t\t\n              JUMPDEST \t\t\t\n              PUSH 40\t\t\t\n              MLOAD \t\t\t\n              PUSH [tag] 87\t\t\t\n              SWAP2 \t\t\t\n              SWAP1 \t\t\t\n              PUSH [tag] 28\t\t\t\n              JUMP \t\t\t\n            tag 87\t\t\t\n              JUMPDEST \t\t\t\n              PUSH 40\t\t\t\n              MLOAD \t\t\t\n              DUP1 \t\t\t\n              SWAP2 \t\t\t\n              SUB \t\t\t\n              SWAP1 \t\t\t\n              RETURN \t\t\t\n            tag 19\t\t\t (creatorbalance[msg.sender] =...\n              JUMPDEST \t\t\t (creatorbalance[msg.sender] =...\n              PUSH [tag] 88\t\t\t (creatorbalance[msg.sender] =...\n              PUSH 4\t\t\t (creatorbalance[msg.sender] =...\n              DUP1 \t\t\t (creatorbalance[msg.sender] =...\n              CALLDATASIZE \t\t\t (creatorbalance[msg.sender] =...\n              SUB \t\t\t (creatorbalance[msg.sender] =...\n              DUP2 \t\t\t (creatorbalance[msg.sender] =...\n              ADD \t\t\t (creatorbalance[msg.sender] =...\n              SWAP1 \t\t\t (creatorbalance[msg.sender] =...\n              PUSH [tag] 89\t\t\t (creatorbalance[msg.sender] =...\n              SWAP2 \t\t\t (creatorbalance[msg.sender] =...\n              SWAP1 \t\t\t (creatorbalance[msg.sender] =...\n              PUSH [tag] 56\t\t\t (creatorbalance[msg.sender] =...\n              JUMP \t\t\t (creatorbalance[msg.sender] =...\n            tag 89\t\t\t (creatorbalance[msg.sender] =...\n              JUMPDEST \t\t\t (creatorbalance[msg.sender] =...\n              PUSH [tag] 90\t\t\t (creatorbalance[msg.sender] =...\n              JUMP \t\t\t (creatorbalance[msg.sender] =...\n            tag 88\t\t\t (creatorbalance[msg.sender] =...\n              JUMPDEST \t\t\t (creatorbalance[msg.sender] =...\n              STOP \t\t\t (creatorbalance[msg.sender] =...\n            tag 26\t\t\t_name, _symbol, _imageUrl);\\n ...\n              JUMPDEST \t\t\t_name, _symbol, _imageUrl);\\n ...\n              PUSH 0\t\t\t   m\n              PUSH 80AC58CD00000000000000000000000000000000000000000000000000000000\t\t\tss(gameToken),\\n          \n              PUSH FFFFFFFFFFFFFFFFFFFFFFFFFFFFFFFFFFFFFFFFFFFFFFFFFFFFFFFF\t\t\t          address(gameToken),\\...\n              NOT \t\t\t          address(gameToken),\\...\n              AND \t\t\t          address(gameToken),\\...\n              DUP3 \t\t\t          a\n              PUSH FFFFFFFFFFFFFFFFFFFFFFFFFFFFFFFFFFFFFFFFFFFFFFFFFFFFFFFF\t\t\t          address(gameToken),\\...\n              NOT \t\t\t          address(gameToken),\\...\n              AND \t\t\t          address(gameToken),\\...\n              EQ \t\t\t          address(gameToken),\\...\n              DUP1 \t\t\t          address(gameToken),\\...\n              PUSH [tag] 92\t\t\t          address(gameToken),\\...\n              JUMPI \t\t\t          address(gameToken),\\...\n              POP \t\t\t          address(gameToken),\\...\n              PUSH 5B5E139F00000000000000000000000000000000000000000000000000000000\t\t\t         _imageUrl\\n        );...\n              PUSH FFFFFFFFFFFFFFFFFFFFFFFFFFFFFFFFFFFFFFFFFFFFFFFFFFFFFFFF\t\t\t     price,\\n            _imag...\n              NOT \t\t\t     price,\\n            _imag...\n              AND \t\t\t     price,\\n            _imag...\n              DUP3 \t\t\t     price,\n              PUSH FFFFFFFFFFFFFFFFFFFFFFFFFFFFFFFFFFFFFFFFFFFFFFFFFFFFFFFF\t\t\t     price,\\n            _imag...\n              NOT \t\t\t     price,\\n            _imag...\n              AND \t\t\t     price,\\n            _imag...\n              EQ \t\t\t     price,\\n            _imag...\n            tag 92\t\t\t          address(gameToken),\\...\n              JUMPDEST \t\t\t          address(gameToken),\\...\n              DUP1 \t\t\t          address(gameToken),\\...\n              PUSH [tag] 93\t\t\t          address(gameToken),\\...\n              JUMPI \t\t\t          address(gameToken),\\...\n              POP \t\t\t          address(gameToken),\\...\n              PUSH [tag] 94\t\t\tcid);\\n        emit GameTokenC...\n              DUP3 \t\t\tokenCreated\n              PUSH [tag] 95\t\t\tcid);\\n        emit Game\n              JUMP \t\t\tcid);\\n        emit GameTokenC...\n            tag 94\t\t\tcid);\\n        emit GameTokenC...\n              JUMPDEST \t\t\tcid);\\n        emit GameTokenC...\n            tag 93\t\t\t          address(gameToken),\\...\n              JUMPDEST \t\t\t          address(gameToken),\\...\n              SWAP1 \t\t\t           _cid,\\n            ...\n              POP \t\t\t           _cid,\\n            ...\n              SWAP2 \t\t\t_name, _symbol, _imageUrl);\\n ...\n              SWAP1 \t\t\t_name, _symbol, _imageUrl);\\n ...\n              POP \t\t\t_name, _symbol, _imageUrl);\\n ...\n              JUMP \t\t\t_name, _symbol, _imageUrl);\\n ...\n            tag 30\t\t\t_game.creator] += _game.price;...\n              JUMPDEST \t\t\t_game.creator] += _game.price;...\n              PUSH 60\t\t\tken.mint(msg.\n              PUSH 0\t\t\tmit G\n              DUP1 \t\t\t      emit G\n              SLOAD \t\t\t      emit G\n              PUSH [tag] 97\t\t\t      emit G\n              SWAP1 \t\t\t      emit G\n              PUSH [tag] 98\t\t\t      emit G\n              JUMP \t\t\t      emit G\n            tag 97\t\t\t      emit G\n              JUMPDEST \t\t\t      emit G\n              DUP1 \t\t\t      emit G\n              PUSH 1F\t\t\t      emit G\n              ADD \t\t\t      emit G\n              PUSH 20\t\t\t      emit G\n              DUP1 \t\t\t      emit G\n              SWAP2 \t\t\t      emit G\n              DIV \t\t\t      emit G\n              MUL \t\t\t      emit G\n              PUSH 20\t\t\t      emit G\n              ADD \t\t\t      emit G\n              PUSH 40\t\t\t      emit G\n              MLOAD \t\t\t      emit G\n              SWAP1 \t\t\t      emit G\n              DUP2 \t\t\t      emit G\n              ADD \t\t\t      emit G\n              PUSH 40\t\t\t      emit G\n              MSTORE \t\t\t      emit G\n              DUP1 \t\t\t      emit G\n              SWAP3 \t\t\t      emit G\n              SWAP2 \t\t\t      emit G\n              SWAP1 \t\t\t      emit G\n              DUP2 \t\t\t      emit G\n              DUP2 \t\t\t      emit G\n              MSTORE \t\t\t      emit G\n              PUSH 20\t\t\t      emit G\n              ADD \t\t\t      emit G\n              DUP3 \t\t\t      emit G\n              DUP1 \t\t\t      emit G\n              SLOAD \t\t\t      emit G\n              PUSH [tag] 99\t\t\t      emit G\n              SWAP1 \t\t\t      emit G\n              PUSH [tag] 98\t\t\t      emit G\n              JUMP \t\t\t      emit G\n            tag 99\t\t\t      emit G\n              JUMPDEST \t\t\t      emit G\n              DUP1 \t\t\t      emit G\n              ISZERO \t\t\t      emit G\n              PUSH [tag] 100\t\t\t      emit G\n              JUMPI \t\t\t      emit G\n              DUP1 \t\t\t      emit G\n              PUSH 1F\t\t\t      emit G\n              LT \t\t\t      emit G\n              PUSH [tag] 101\t\t\t      emit G\n              JUMPI \t\t\t      emit G\n              PUSH 100\t\t\t      emit G\n              DUP1 \t\t\t      emit G\n              DUP4 \t\t\t      emit G\n              SLOAD \t\t\t      emit G\n              DIV \t\t\t      emit G\n              MUL \t\t\t      emit G\n              DUP4 \t\t\t      emit G\n              MSTORE \t\t\t      emit G\n              SWAP2 \t\t\t      emit G\n              PUSH 20\t\t\t      emit G\n              ADD \t\t\t      emit G\n              SWAP2 \t\t\t      emit G\n              PUSH [tag] 100\t\t\t      emit G\n              JUMP \t\t\t      emit G\n            tag 101\t\t\t      emit G\n              JUMPDEST \t\t\t      emit G\n              DUP3 \t\t\t      emit G\n              ADD \t\t\t      emit G\n              SWAP2 \t\t\t      emit G\n              SWAP1 \t\t\t      emit G\n              PUSH 0\t\t\t      emit G\n              MSTORE \t\t\t      emit G\n              PUSH 20\t\t\t      emit G\n              PUSH 0\t\t\t      emit G\n              KECCAK256 \t\t\t      emit G\n              SWAP1 \t\t\t      emit G\n            tag 102\t\t\t      emit G\n              JUMPDEST \t\t\t      emit G\n              DUP2 \t\t\t      emit G\n              SLOAD \t\t\t      emit G\n              DUP2 \t\t\t      emit G\n              MSTORE \t\t\t      emit G\n              SWAP1 \t\t\t      emit G\n              PUSH 1\t\t\t      emit G\n              ADD \t\t\t      emit G\n              SWAP1 \t\t\t      emit G\n              PUSH 20\t\t\t      emit G\n              ADD \t\t\t      emit G\n              DUP1 \t\t\t      emit G\n              DUP4 \t\t\t      emit G\n              GT \t\t\t      emit G\n              PUSH [tag] 102\t\t\t      emit G\n              JUMPI \t\t\t      emit G\n              DUP3 \t\t\t      emit G\n              SWAP1 \t\t\t      emit G\n              SUB \t\t\t      emit G\n              PUSH 1F\t\t\t      emit G\n              AND \t\t\t      emit G\n              DUP3 \t\t\t      emit G\n              ADD \t\t\t      emit G\n              SWAP2 \t\t\t      emit G\n            tag 100\t\t\t      emit G\n              JUMPDEST \t\t\t      emit G\n              POP \t\t\t      emit G\n              POP \t\t\t      emit G\n              POP \t\t\t      emit G\n              POP \t\t\t      emit G\n              POP \t\t\t      emit G\n              SWAP1 \t\t\t      emit G\n              POP \t\t\t      emit G\n              SWAP1 \t\t\t_game.creator] += _game.price;...\n              JUMP \t\t\t_game.creator] += _game.price;...\n            tag 36\t\t\ty)\\n    {\\n        Game memory...\n              JUMPDEST \t\t\ty)\\n    {\\n        Game memory...\n              PUSH 0\t\t\t.creato\n              PUSH [tag] 104\t\t\t(0)) {\\n            rev\n              DUP3 \t\t\t     re\n              PUSH [tag] 105\t\t\t(0)) {\\n      \n              JUMP \t\t\t(0)) {\\n            rev\n            tag 104\t\t\t(0)) {\\n            rev\n              JUMPDEST \t\t\t(0)) {\\n            rev\n              POP \t\t\t(0)) {\\n            rev\n              PUSH [tag] 106\t\t\t\\n        }\\n        re\n              DUP3 \t\t\t      r\n              PUSH [tag] 107\t\t\t\\n        }\\n \n              JUMP \t\t\t\\n        }\\n        re\n            tag 106\t\t\t\\n        }\\n        re\n              JUMPDEST \t\t\t\\n        }\\n        re\n              SWAP1 \t\t\tGame();\\n        }\\n        re\n              POP \t\t\tGame();\\n        }\\n        re\n              SWAP2 \t\t\ty)\\n    {\\n        Game memory...\n              SWAP1 \t\t\ty)\\n    {\\n        Game memory...\n              POP \t\t\ty)\\n    {\\n        Game memory...\n              JUMP \t\t\ty)\\n    {\\n        Game memory...\n            tag 42\t\t\t  _games[i] = games[cids[i]];\\...\n              JUMPDEST \t\t\t  _games[i] = games[cids[i]];\\...\n              PUSH [tag] 109\t\t\t    function getGameByCid(stri...\n              DUP3 \t\t\tio\n              DUP3 \t\t\tgetGame\n              PUSH [tag] 110\t\t\tCid(string m\n              PUSH [tag] 111\t\t\tCid(string\n              JUMP \t\t\tCid(string m\n            tag 110\t\t\tCid(string m\n              JUMPDEST \t\t\tCid(string m\n              PUSH [tag] 112\t\t\t    func\n              JUMP \t\t\t    function getGameByCid(stri...\n            tag 109\t\t\t    function getGameByCid(stri...\n              JUMPDEST \t\t\t    function getGameByCid(stri...\n              POP \t\t\t  _games[i] = games[cids[i]];\\...\n              POP \t\t\t  _games[i] = games[cids[i]];\\...\n              JUMP \t\t\t  _games[i] = games[cids[i]];\\...\n            tag 46\t\t\t\n              JUMPDEST \t\t\t\n              PUSH 0\t\t\t\n              PUSH FFFFFFFFFFFFFFFFFFFFFFFFFFFFFFFFFFFFFFFF\t\t\t\n              AND \t\t\t\n              DUP3 \t\t\t\n              PUSH FFFFFFFFFFFFFFFFFFFFFFFFFFFFFFFFFFFFFFFF\t\t\t\n              AND \t\t\t\n              SUB \t\t\t\n              PUSH [tag] 114\t\t\t\n              JUMPI \t\t\t\n              PUSH 0\t\t\t\n              PUSH 40\t\t\t\n              MLOAD \t\t\t\n              PUSH 64A0AE9200000000000000000000000000000000000000000000000000000000\t\t\t\n              DUP2 \t\t\t\n              MSTORE \t\t\t\n              PUSH 4\t\t\t\n              ADD \t\t\t\n              PUSH [tag] 115\t\t\t\n              SWAP2 \t\t\t\n              SWAP1 \t\t\t\n              PUSH [tag] 38\t\t\t\n              JUMP \t\t\t\n            tag 115\t\t\t\n              JUMPDEST \t\t\t\n              PUSH 40\t\t\t\n              MLOAD \t\t\t\n              DUP1 \t\t\t\n              SWAP2 \t\t\t\n              SUB \t\t\t\n              SWAP1 \t\t\t\n              REVERT \t\t\t\n            tag 114\t\t\t\n              JUMPDEST \t\t\t\n              PUSH 0\t\t\t\n              PUSH [tag] 116\t\t\t\n              DUP4 \t\t\t\n              DUP4 \t\t\t\n              PUSH [tag] 117\t\t\t\n              PUSH [tag] 111\t\t\t\n              JUMP \t\t\t\n            tag 117\t\t\t\n              JUMPDEST \t\t\t\n              PUSH [tag] 118\t\t\t\n              JUMP \t\t\t\n            tag 116\t\t\t\n              JUMPDEST \t\t\t\n              SWAP1 \t\t\t\n              POP \t\t\t\n              DUP4 \t\t\t\n              PUSH FFFFFFFFFFFFFFFFFFFFFFFFFFFFFFFFFFFFFFFF\t\t\t\n              AND \t\t\t\n              DUP2 \t\t\t\n              PUSH FFFFFFFFFFFFFFFFFFFFFFFFFFFFFFFFFFFFFFFF\t\t\t\n              AND \t\t\t\n              EQ \t\t\t\n              PUSH [tag] 119\t\t\t\n              JUMPI \t\t\t\n              DUP4 \t\t\t\n              DUP3 \t\t\t\n              DUP3 \t\t\t\n              PUSH 40\t\t\t\n              MLOAD \t\t\t\n              PUSH 64283D7B00000000000000000000000000000000000000000000000000000000\t\t\t\n              DUP2 \t\t\t\n              MSTORE \t\t\t\n              PUSH 4\t\t\t\n              ADD \t\t\t\n              PUSH [tag] 120\t\t\t\n              SWAP4 \t\t\t\n              SWAP3 \t\t\t\n              SWAP2 \t\t\t\n              SWAP1 \t\t\t\n              PUSH [tag] 121\t\t\t\n              JUMP \t\t\t\n            tag 120\t\t\t\n              JUMPDEST \t\t\t\n              PUSH 40\t\t\t\n              MLOAD \t\t\t\n              DUP1 \t\t\t\n              SWAP2 \t\t\t\n              SUB \t\t\t\n              SWAP1 \t\t\t\n              REVERT \t\t\t\n            tag 119\t\t\t\n              JUMPDEST \t\t\t\n              POP \t\t\t\n              POP \t\t\t\n              POP \t\t\t\n              POP \t\t\t\n              JUMP \t\t\t\n            tag 49\t\t\t\n              JUMPDEST \t\t\t\n              PUSH [tag] 123\t\t\t\n              DUP4 \t\t\t\n              DUP4 \t\t\t\n              DUP4 \t\t\t\n              PUSH 40\t\t\t\n              MLOAD \t\t\t\n              DUP1 \t\t\t\n              PUSH 20\t\t\t\n              ADD \t\t\t\n              PUSH 40\t\t\t\n              MSTORE \t\t\t\n              DUP1 \t\t\t\n              PUSH 0\t\t\t\n              DUP2 \t\t\t\n              MSTORE \t\t\t\n              POP \t\t\t\n              PUSH [tag] 78\t\t\t\n              JUMP \t\t\t\n            tag 123\t\t\t\n              JUMPDEST \t\t\t\n              POP \t\t\t\n              POP \t\t\t\n              POP \t\t\t\n              JUMP \t\t\t\n            tag 52\t\t\tsender) >= 1) {\\n            r...\n              JUMPDEST \t\t\tsender) >= 1) {\\n            r...\n              PUSH 0\t\t\t }\\n\\n   \n              PUSH [tag] 125\t\t\t< _game.price) {\\n     \n              DUP3 \t\t\t {\\n    \n              PUSH [tag] 105\t\t\t< _game.price\n              JUMP \t\t\t< _game.price) {\\n     \n            tag 125\t\t\t< _game.price) {\\n     \n              JUMPDEST \t\t\t< _game.price) {\\n     \n              SWAP1 \t\t\t.value < _game.price) {\\n     \n              POP \t\t\t.value < _game.price) {\\n     \n              SWAP2 \t\t\tsender) >= 1) {\\n            r...\n              SWAP1 \t\t\tsender) >= 1) {\\n            r...\n              POP \t\t\tsender) >= 1) {\\n            r...\n              JUMP \t\t\tsender) >= 1) {\\n            r...\n            tag 57\t\t\t   string cid;\\n        addres...\n              JUMPDEST \t\t\t   string cid;\\n        addres...\n              PUSH [tag] 127\t\t\tken gameToken\n              PUSH [tag] 128\t\t\tken gameTok\n              JUMP \t\t\tken gameToken\n            tag 127\t\t\tken gameToken\n              JUMPDEST \t\t\tken gameToken\n              PUSH [tag] 130\t\t\tname;\\n        ui\n              DUP2 \t\t\t  \n              PUSH 7\t\t\t    u\n              SLOAD \t\t\t    u\n              PUSH [tag] 131\t\t\tname;\n              JUMP \t\t\tname;\\n        ui\n            tag 130\t\t\tname;\\n        ui\n              JUMPDEST \t\t\tname;\\n        ui\n              PUSH 7\t\t\te;\\n  \n              PUSH 0\t\t\te;\\n  \n              DUP2 \t\t\te;\\n    \n              SLOAD \t\t\te;\\n    \n              DUP1 \t\t\te;\\n    \n              SWAP3 \t\t\te;\\n    \n              SWAP2 \t\t\te;\\n    \n              SWAP1 \t\t\te;\\n    \n              PUSH [tag] 132\t\t\te;\\n    \n              SWAP1 \t\t\te;\\n    \n              PUSH [tag] 133\t\t\te;\\n    \n              JUMP \t\t\te;\\n    \n            tag 132\t\t\te;\\n    \n              JUMPDEST \t\t\te;\\n    \n              SWAP2 \t\t\te;\\n    \n              SWAP1 \t\t\te;\\n    \n              POP \t\t\te;\\n    \n              SSTORE \t\t\te;\\n    \n              POP \t\t\te;\\n    \n              POP \t\t\t   string cid;\\n        addres...\n              JUMP \t\t\t   string cid;\\n        addres...\n            tag 60\t\t\tyGame(string memory _cid) exte...\n              JUMPDEST \t\t\tyGame(string memory _cid) exte...\n              PUSH 0\t\t\ty _game\n              DUP1 \t\t\t \n              PUSH FFFFFFFFFFFFFFFFFFFFFFFFFFFFFFFFFFFFFFFF\t\t\t        GameToken g\n              AND \t\t\t        GameToken g\n              DUP3 \t\t\t     \n              PUSH FFFFFFFFFFFFFFFFFFFFFFFFFFFFFFFFFFFFFFFF\t\t\t        GameToken g\n              AND \t\t\t        GameToken g\n              SUB \t\t\t        GameToken g\n              PUSH [tag] 135\t\t\td];\\n        GameToken gameTok...\n              JUMPI \t\t\td];\\n        GameToken gameTok...\n              PUSH 0\t\t\ta\n              PUSH 40\t\t\tame.token);\\n\\n        if (_ga...\n              MLOAD \t\t\tame.token);\\n\\n        if (_ga...\n              PUSH 89C62B6400000000000000000000000000000000000000000000000000000000\t\t\tame.token);\\n\\n        if (_ga...\n              DUP2 \t\t\tame.token);\\n\\n        if (_ga...\n              MSTORE \t\t\tame.token);\\n\\n        if (_ga...\n              PUSH 4\t\t\tame.token);\\n\\n        if (_ga...\n              ADD \t\t\tame.token);\\n\\n        if (_ga...\n              PUSH [tag] 136\t\t\tame.token);\\n\\n        if (_ga...\n              SWAP2 \t\t\tame.token);\\n\\n        if (_ga...\n              SWAP1 \t\t\tame.token);\\n\\n        if (_ga...\n              PUSH [tag] 38\t\t\tame.token);\\n\\n        if (_ga...\n              JUMP \t\t\tame.token);\\n\\n        if (_ga...\n            tag 136\t\t\tame.token);\\n\\n        if (_ga...\n              JUMPDEST \t\t\tame.token);\\n\\n        if (_ga...\n              PUSH 40\t\t\tame.token);\\n\\n        if (_ga...\n              MLOAD \t\t\tame.token);\\n\\n        if (_ga...\n              DUP1 \t\t\tame.token);\\n\\n        if (_ga...\n              SWAP2 \t\t\tame.token);\\n\\n        if (_ga...\n              SUB \t\t\tame.token);\\n\\n        if (_ga...\n              SWAP1 \t\t\tame.token);\\n\\n        if (_ga...\n              REVERT \t\t\tame.token);\\n\\n        if (_ga...\n            tag 135\t\t\td];\\n        GameToken gameTok...\n              JUMPDEST \t\t\td];\\n        GameToken gameTok...\n              PUSH 3\t\t\t         \n              PUSH 0\t\t\t           rever\n              DUP4 \t\t\t reve\n              PUSH FFFFFFFFFFFFFFFFFFFFFFFFFFFFFFFFFFFFFFFF\t\t\t           rever\n              AND \t\t\t           rever\n              PUSH FFFFFFFFFFFFFFFFFFFFFFFFFFFFFFFFFFFFFFFF\t\t\t           rever\n              AND \t\t\t           rever\n              DUP2 \t\t\t           rever\n              MSTORE \t\t\t           rever\n              PUSH 20\t\t\t           rever\n              ADD \t\t\t           rever\n              SWAP1 \t\t\t           rever\n              DUP2 \t\t\t           rever\n              MSTORE \t\t\t           rever\n              PUSH 20\t\t\t           rever\n              ADD \t\t\t           rever\n              PUSH 0\t\t\t           rever\n              KECCAK256 \t\t\t           rever\n              SLOAD \t\t\t           rever\n              SWAP1 \t\t\t0)) {\\n            rever\n              POP \t\t\t0)) {\\n            rever\n              SWAP2 \t\t\tyGame(string memory _cid) exte...\n              SWAP1 \t\t\tyGame(string memory _cid) exte...\n              POP \t\t\tyGame(string memory _cid) exte...\n              JUMP \t\t\tyGame(string memory _cid) exte...\n            tag 64\t\t\t          revert InsufficientF...\n              JUMPDEST \t\t\t          revert InsufficientF...\n              PUSH [tag] 138\t\t\tken gameToken\n              PUSH [tag] 128\t\t\tken gameTok\n              JUMP \t\t\tken gameToken\n            tag 138\t\t\tken gameToken\n              JUMPDEST \t\t\tken gameToken\n              PUSH [tag] 140\t\t\tbalance[_game.creator] += _gam\n              PUSH 0\t\t\tg\n              PUSH [tag] 141\t\t\tbalance[_game.crea\n              JUMP \t\t\tbalance[_game.creator] += _gam\n            tag 140\t\t\tbalance[_game.creator] += _gam\n              JUMPDEST \t\t\tbalance[_game.creator] += _gam\n              JUMP \t\t\t          revert InsufficientF...\n            tag 66\t\t\ts[_cid] = Game(\\n            m...\n              JUMPDEST \t\t\ts[_cid] = Game(\\n            m...\n              PUSH 0\t\t\t      _\n              PUSH 6\t\t\tdress(\n              PUSH 0\t\t\tdress(\n              SWAP1 \t\t\tdress(\n              SLOAD \t\t\tdress(\n              SWAP1 \t\t\tdress(\n              PUSH 100\t\t\tdress(\n              EXP \t\t\tdress(\n              SWAP1 \t\t\tdress(\n              DIV \t\t\tdress(\n              PUSH FFFFFFFFFFFFFFFFFFFFFFFFFFFFFFFFFFFFFFFF\t\t\tdress(\n              AND \t\t\tdress(\n              SWAP1 \t\t\t     address(\n              POP \t\t\t     address(\n              SWAP1 \t\t\ts[_cid] = Game(\\n            m...\n              JUMP \t\t\ts[_cid] = Game(\\n            m...\n            tag 69\t\t\ts() external {\\n        if (cr...\n              JUMPDEST \t\t\ts() external {\\n        if (cr...\n              PUSH 60\t\t\tender] == 0) \n              PUSH 1\t\t\tt Insuf\n              DUP1 \t\t\t  revert Insuf\n              SLOAD \t\t\t  revert Insuf\n              PUSH [tag] 144\t\t\t  revert Insuf\n              SWAP1 \t\t\t  revert Insuf\n              PUSH [tag] 98\t\t\t  revert Insuf\n              JUMP \t\t\t  revert Insuf\n            tag 144\t\t\t  revert Insuf\n              JUMPDEST \t\t\t  revert Insuf\n              DUP1 \t\t\t  revert Insuf\n              PUSH 1F\t\t\t  revert Insuf\n              ADD \t\t\t  revert Insuf\n              PUSH 20\t\t\t  revert Insuf\n              DUP1 \t\t\t  revert Insuf\n              SWAP2 \t\t\t  revert Insuf\n              DIV \t\t\t  revert Insuf\n              MUL \t\t\t  revert Insuf\n              PUSH 20\t\t\t  revert Insuf\n              ADD \t\t\t  revert Insuf\n              PUSH 40\t\t\t  revert Insuf\n              MLOAD \t\t\t  revert Insuf\n              SWAP1 \t\t\t  revert Insuf\n              DUP2 \t\t\t  revert Insuf\n              ADD \t\t\t  revert Insuf\n              PUSH 40\t\t\t  revert Insuf\n              MSTORE \t\t\t  revert Insuf\n              DUP1 \t\t\t  revert Insuf\n              SWAP3 \t\t\t  revert Insuf\n              SWAP2 \t\t\t  revert Insuf\n              SWAP1 \t\t\t  revert Insuf\n              DUP2 \t\t\t  revert Insuf\n              DUP2 \t\t\t  revert Insuf\n              MSTORE \t\t\t  revert Insuf\n              PUSH 20\t\t\t  revert Insuf\n              ADD \t\t\t  revert Insuf\n              DUP3 \t\t\t  revert Insuf\n              DUP1 \t\t\t  revert Insuf\n              SLOAD \t\t\t  revert Insuf\n              PUSH [tag] 145\t\t\t  revert Insuf\n              SWAP1 \t\t\t  revert Insuf\n              PUSH [tag] 98\t\t\t  revert Insuf\n              JUMP \t\t\t  revert Insuf\n            tag 145\t\t\t  revert Insuf\n              JUMPDEST \t\t\t  revert Insuf\n              DUP1 \t\t\t  revert Insuf\n              ISZERO \t\t\t  revert Insuf\n              PUSH [tag] 146\t\t\t  revert Insuf\n              JUMPI \t\t\t  revert Insuf\n              DUP1 \t\t\t  revert Insuf\n              PUSH 1F\t\t\t  revert Insuf\n              LT \t\t\t  revert Insuf\n              PUSH [tag] 147\t\t\t  revert Insuf\n              JUMPI \t\t\t  revert Insuf\n              PUSH 100\t\t\t  revert Insuf\n              DUP1 \t\t\t  revert Insuf\n              DUP4 \t\t\t  revert Insuf\n              SLOAD \t\t\t  revert Insuf\n              DIV \t\t\t  revert Insuf\n              MUL \t\t\t  revert Insuf\n              DUP4 \t\t\t  revert Insuf\n              MSTORE \t\t\t  revert Insuf\n              SWAP2 \t\t\t  revert Insuf\n              PUSH 20\t\t\t  revert Insuf\n              ADD \t\t\t  revert Insuf\n              SWAP2 \t\t\t  revert Insuf\n              PUSH [tag] 146\t\t\t  revert Insuf\n              JUMP \t\t\t  revert Insuf\n            tag 147\t\t\t  revert Insuf\n              JUMPDEST \t\t\t  revert Insuf\n              DUP3 \t\t\t  revert Insuf\n              ADD \t\t\t  revert Insuf\n              SWAP2 \t\t\t  revert Insuf\n              SWAP1 \t\t\t  revert Insuf\n              PUSH 0\t\t\t  revert Insuf\n              MSTORE \t\t\t  revert Insuf\n              PUSH 20\t\t\t  revert Insuf\n              PUSH 0\t\t\t  revert Insuf\n              KECCAK256 \t\t\t  revert Insuf\n              SWAP1 \t\t\t  revert Insuf\n            tag 148\t\t\t  revert Insuf\n              JUMPDEST \t\t\t  revert Insuf\n              DUP2 \t\t\t  revert Insuf\n              SLOAD \t\t\t  revert Insuf\n              DUP2 \t\t\t  revert Insuf\n              MSTORE \t\t\t  revert Insuf\n              SWAP1 \t\t\t  revert Insuf\n              PUSH 1\t\t\t  revert Insuf\n              ADD \t\t\t  revert Insuf\n              SWAP1 \t\t\t  revert Insuf\n              PUSH 20\t\t\t  revert Insuf\n              ADD \t\t\t  revert Insuf\n              DUP1 \t\t\t  revert Insuf\n              DUP4 \t\t\t  revert Insuf\n              GT \t\t\t  revert Insuf\n              PUSH [tag] 148\t\t\t  revert Insuf\n              JUMPI \t\t\t  revert Insuf\n              DUP3 \t\t\t  revert Insuf\n              SWAP1 \t\t\t  revert Insuf\n              SUB \t\t\t  revert Insuf\n              PUSH 1F\t\t\t  revert Insuf\n              AND \t\t\t  revert Insuf\n              DUP3 \t\t\t  revert Insuf\n              ADD \t\t\t  revert Insuf\n              SWAP2 \t\t\t  revert Insuf\n            tag 146\t\t\t  revert Insuf\n              JUMPDEST \t\t\t  revert Insuf\n              POP \t\t\t  revert Insuf\n              POP \t\t\t  revert Insuf\n              POP \t\t\t  revert Insuf\n              POP \t\t\t  revert Insuf\n              POP \t\t\t  revert Insuf\n              SWAP1 \t\t\t  revert Insuf\n              POP \t\t\t  revert Insuf\n              SWAP1 \t\t\ts() external {\\n        if (cr...\n              JUMP \t\t\ts() external {\\n        if (cr...\n            tag 74\t\t\txternal view returns(address){...\n              JUMPDEST \t\t\txternal view returns(address){...\n              PUSH [tag] 150\t\t\tgetGameListLength() external v...\n              PUSH [tag] 151\t\t\t external vi\n              PUSH [tag] 111\t\t\t external \n              JUMP \t\t\t external vi\n            tag 151\t\t\t external vi\n              JUMPDEST \t\t\t external vi\n              DUP4 \t\t\t returns\n              DUP4 \t\t\tuint256)\n              PUSH [tag] 152\t\t\tgetGameListLength(\n              JUMP \t\t\tgetGameListLength() external v...\n            tag 150\t\t\tgetGameListLength() external v...\n              JUMPDEST \t\t\tgetGameListLength() external v...\n              POP \t\t\txternal view returns(address){...\n              POP \t\t\txternal view returns(address){...\n              JUMP \t\t\txternal view returns(address){...\n            tag 78\t\t\t\n              JUMPDEST \t\t\t\n              PUSH [tag] 154\t\t\t\n              DUP5 \t\t\t\n              DUP5 \t\t\t\n              DUP5 \t\t\t\n              PUSH [tag] 46\t\t\t\n              JUMP \t\t\t\n            tag 154\t\t\t\n              JUMPDEST \t\t\t\n              PUSH [tag] 155\t\t\t\n              DUP5 \t\t\t\n              DUP5 \t\t\t\n              DUP5 \t\t\t\n              DUP5 \t\t\t\n              PUSH [tag] 156\t\t\t\n              JUMP \t\t\t\n            tag 155\t\t\t\n              JUMPDEST \t\t\t\n              POP \t\t\t\n              POP \t\t\t\n              POP \t\t\t\n              POP \t\t\t\n              JUMP \t\t\t\n            tag 81\t\t\tageUrl;\\n    }\\n\\n    address ...\n              JUMPDEST \t\t\tageUrl;\\n    }\\n\\n    address ...\n              PUSH 60\t\t\te) private ga\n              PUSH [tag] 158\t\t\t] private cids;\\n\\n    m\n              DUP3 \t\t\t;\\n\\n    \n              PUSH [tag] 105\t\t\t] private cid\n              JUMP \t\t\t] private cids;\\n\\n    m\n            tag 158\t\t\t] private cids;\\n\\n    m\n              JUMPDEST \t\t\t] private cids;\\n\\n    m\n              POP \t\t\t] private cids;\\n\\n    m\n              PUSH [tag] 159\t\t\tbytes32[] memory data)\\n      ...\n              PUSH [tag] 160\t\t\t+) {\\n \n              PUSH [tag] 30\t\t\t+) {\n              JUMP \t\t\t+) {\\n \n            tag 160\t\t\t+) {\\n \n              JUMPDEST \t\t\t+) {\\n \n              PUSH [tag] 161\t\t\tame(\\n \n              PUSH [tag] 30\t\t\tame(\n              JUMP \t\t\tame(\\n \n            tag 161\t\t\tame(\\n \n              JUMPDEST \t\t\tame(\\n \n              PUSH 8\t\t\tstrin\n              PUSH 40\t\t\tg memory)\\n    {\\n        byte...\n              MLOAD \t\t\tg memory)\\n    {\\n        byte...\n              PUSH 20\t\t\tg memory)\\n    {\\n        byte...\n              ADD \t\t\tg memory)\\n    {\\n        byte...\n              PUSH [tag] 162\t\t\tg memory)\\n    {\\n        byte...\n              SWAP4 \t\t\tg memory)\\n    {\\n        byte...\n              SWAP3 \t\t\tg memory)\\n    {\\n        byte...\n              SWAP2 \t\t\tg memory)\\n    {\\n        byte...\n              SWAP1 \t\t\tg memory)\\n    {\\n        byte...\n              PUSH [tag] 163\t\t\tg memory)\\n    {\\n        byte...\n              JUMP \t\t\tg memory)\\n    {\\n        byte...\n            tag 162\t\t\tg memory)\\n    {\\n        byte...\n              JUMPDEST \t\t\tg memory)\\n    {\\n        byte...\n              PUSH 40\t\t\tg memory)\\n    {\\n        byte...\n              MLOAD \t\t\tg memory)\\n    {\\n        byte...\n              PUSH 20\t\t\tg memory)\\n    {\\n        byte...\n              DUP2 \t\t\tg memory)\\n    {\\n        byte...\n              DUP4 \t\t\tg memory)\\n    {\\n        byte...\n              SUB \t\t\tg memory)\\n    {\\n        byte...\n              SUB \t\t\tg memory)\\n    {\\n        byte...\n              DUP2 \t\t\tg memory)\\n    {\\n        byte...\n              MSTORE \t\t\tg memory)\\n    {\\n        byte...\n              SWAP1 \t\t\tg memory)\\n    {\\n        byte...\n              PUSH 40\t\t\tg memory)\\n    {\\n        byte...\n              MSTORE \t\t\tg memory)\\n    {\\n        byte...\n              PUSH [tag] 164\t\t\tbytes32[] mem\n              JUMP \t\t\tbytes32[] memory data)\\n      ...\n            tag 159\t\t\tbytes32[] memory data)\\n      ...\n              JUMPDEST \t\t\tbytes32[] memory data)\\n      ...\n              PUSH 40\t\t\t   // Helper function to conve...\n              MLOAD \t\t\t   // Helper function to conve...\n              PUSH 20\t\t\t   // Helper function to conve...\n              ADD \t\t\t   // Helper function to conve...\n              PUSH [tag] 165\t\t\t   // Helper function to conve...\n              SWAP2 \t\t\t   // Helper function to conve...\n              SWAP1 \t\t\t   // Helper function to conve...\n              PUSH [tag] 166\t\t\t   // Helper function to conve...\n              JUMP \t\t\t   // Helper function to conve...\n            tag 165\t\t\t   // Helper function to conve...\n              JUMPDEST \t\t\t   // Helper function to conve...\n              PUSH 40\t\t\t   // Helper function to conve...\n              MLOAD \t\t\t   // Helper function to conve...\n              PUSH 20\t\t\t   // Helper function to conve...\n              DUP2 \t\t\t   // Helper function to conve...\n              DUP4 \t\t\t   // Helper function to conve...\n              SUB \t\t\t   // Helper function to conve...\n              SUB \t\t\t   // Helper function to conve...\n              DUP2 \t\t\t   // Helper function to conve...\n              MSTORE \t\t\t   // Helper function to conve...\n              SWAP1 \t\t\t   // Helper function to conve...\n              PUSH 40\t\t\t   // Helper function to conve...\n              MSTORE \t\t\t   // Helper function to conve...\n              SWAP1 \t\t\tress => uint256) private creat...\n              POP \t\t\tress => uint256) private creat...\n              SWAP2 \t\t\tageUrl;\\n    }\\n\\n    address ...\n              SWAP1 \t\t\tageUrl;\\n    }\\n\\n    address ...\n              POP \t\t\tageUrl;\\n    }\\n\\n    address ...\n              JUMP \t\t\tageUrl;\\n    }\\n\\n    address ...\n            tag 86\t\t\t\n              JUMPDEST \t\t\t\n              PUSH 0\t\t\t\n              PUSH 5\t\t\t\n              PUSH 0\t\t\t\n              DUP5 \t\t\t\n              PUSH FFFFFFFFFFFFFFFFFFFFFFFFFFFFFFFFFFFFFFFF\t\t\t\n              AND \t\t\t\n              PUSH FFFFFFFFFFFFFFFFFFFFFFFFFFFFFFFFFFFFFFFF\t\t\t\n              AND \t\t\t\n              DUP2 \t\t\t\n              MSTORE \t\t\t\n              PUSH 20\t\t\t\n              ADD \t\t\t\n              SWAP1 \t\t\t\n              DUP2 \t\t\t\n              MSTORE \t\t\t\n              PUSH 20\t\t\t\n              ADD \t\t\t\n              PUSH 0\t\t\t\n              KECCAK256 \t\t\t\n              PUSH 0\t\t\t\n              DUP4 \t\t\t\n              PUSH FFFFFFFFFFFFFFFFFFFFFFFFFFFFFFFFFFFFFFFF\t\t\t\n              AND \t\t\t\n              PUSH FFFFFFFFFFFFFFFFFFFFFFFFFFFFFFFFFFFFFFFF\t\t\t\n              AND \t\t\t\n              DUP2 \t\t\t\n              MSTORE \t\t\t\n              PUSH 20\t\t\t\n              ADD \t\t\t\n              SWAP1 \t\t\t\n              DUP2 \t\t\t\n              MSTORE \t\t\t\n              PUSH 20\t\t\t\n              ADD \t\t\t\n              PUSH 0\t\t\t\n              KECCAK256 \t\t\t\n              PUSH 0\t\t\t\n              SWAP1 \t\t\t\n              SLOAD \t\t\t\n              SWAP1 \t\t\t\n              PUSH 100\t\t\t\n              EXP \t\t\t\n              SWAP1 \t\t\t\n              DIV \t\t\t\n              PUSH FF\t\t\t\n              AND \t\t\t\n              SWAP1 \t\t\t\n              POP \t\t\t\n              SWAP3 \t\t\t\n              SWAP2 \t\t\t\n              POP \t\t\t\n              POP \t\t\t\n              JUMP \t\t\t\n            tag 90\t\t\t (creatorbalance[msg.sender] =...\n              JUMPDEST \t\t\t (creatorbalance[msg.sender] =...\n              PUSH [tag] 169\t\t\tken gameToken\n              PUSH [tag] 128\t\t\tken gameTok\n              JUMP \t\t\tken gameToken\n            tag 169\t\t\tken gameToken\n              JUMPDEST \t\t\tken gameToken\n              PUSH 0\t\t\ts\n              PUSH FFFFFFFFFFFFFFFFFFFFFFFFFFFFFFFFFFFFFFFF\t\t\t }\\n        payable(msg\n              AND \t\t\t }\\n        payable(msg\n              DUP2 \t\t\t }\\n     \n              PUSH FFFFFFFFFFFFFFFFFFFFFFFFFFFFFFFFFFFFFFFF\t\t\t }\\n        payable(msg\n              AND \t\t\t }\\n        payable(msg\n              SUB \t\t\t }\\n        payable(msg\n              PUSH [tag] 171\t\t\t     }\\n        payable(msg.se...\n              JUMPI \t\t\t     }\\n        payable(msg.se...\n              PUSH 0\t\t\t \n              PUSH 40\t\t\torbalance[msg.sender]);\\n     ...\n              MLOAD \t\t\torbalance[msg.sender]);\\n     ...\n              PUSH 1E4FBDF700000000000000000000000000000000000000000000000000000000\t\t\torbalance[msg.sender]);\\n     ...\n              DUP2 \t\t\torbalance[msg.sender]);\\n     ...\n              MSTORE \t\t\torbalance[msg.sender]);\\n     ...\n              PUSH 4\t\t\torbalance[msg.sender]);\\n     ...\n              ADD \t\t\torbalance[msg.sender]);\\n     ...\n              PUSH [tag] 172\t\t\torbalance[msg.sender]);\\n     ...\n              SWAP2 \t\t\torbalance[msg.sender]);\\n     ...\n              SWAP1 \t\t\torbalance[msg.sender]);\\n     ...\n              PUSH [tag] 38\t\t\torbalance[msg.sender]);\\n     ...\n              JUMP \t\t\torbalance[msg.sender]);\\n     ...\n            tag 172\t\t\torbalance[msg.sender]);\\n     ...\n              JUMPDEST \t\t\torbalance[msg.sender]);\\n     ...\n              PUSH 40\t\t\torbalance[msg.sender]);\\n     ...\n              MLOAD \t\t\torbalance[msg.sender]);\\n     ...\n              DUP1 \t\t\torbalance[msg.sender]);\\n     ...\n              SWAP2 \t\t\torbalance[msg.sender]);\\n     ...\n              SUB \t\t\torbalance[msg.sender]);\\n     ...\n              SWAP1 \t\t\torbalance[msg.sender]);\\n     ...\n              REVERT \t\t\torbalance[msg.sender]);\\n     ...\n            tag 171\t\t\t     }\\n        payable(msg.se...\n              JUMPDEST \t\t\t     }\\n        payable(msg.se...\n              PUSH [tag] 173\t\t\tsender] = 0;\\n\\n        emit C\n              DUP2 \t\t\t   emit \n              PUSH [tag] 141\t\t\tsender] = 0;\\n\\n    \n              JUMP \t\t\tsender] = 0;\\n\\n        emit C\n            tag 173\t\t\tsender] = 0;\\n\\n        emit C\n              JUMPDEST \t\t\tsender] = 0;\\n\\n        emit C\n              POP \t\t\t (creatorbalance[msg.sender] =...\n              JUMP \t\t\t (creatorbalance[msg.sender] =...\n            tag 95\t\t\t;\\n    string[] private cids;\\...\n              JUMPDEST \t\t\t;\\n    string[] private cids;\\...\n              PUSH 0\t\t\trbal\n              PUSH 1FFC9A700000000000000000000000000000000000000000000000000000000\t\t\tonvert bytes32 array to s\n              PUSH FFFFFFFFFFFFFFFFFFFFFFFFFFFFFFFFFFFFFFFFFFFFFFFFFFFFFFFF\t\t\tr function to convert bytes32 ...\n              NOT \t\t\tr function to convert bytes32 ...\n              AND \t\t\tr function to convert bytes32 ...\n              DUP3 \t\t\tr function \n              PUSH FFFFFFFFFFFFFFFFFFFFFFFFFFFFFFFFFFFFFFFFFFFFFFFFFFFFFFFF\t\t\tr function to convert bytes32 ...\n              NOT \t\t\tr function to convert bytes32 ...\n              AND \t\t\tr function to convert bytes32 ...\n              EQ \t\t\tr function to convert bytes32 ...\n              SWAP1 \t\t\t/ Helper function to convert b...\n              POP \t\t\t/ Helper function to convert b...\n              SWAP2 \t\t\t;\\n    string[] private cids;\\...\n              SWAP1 \t\t\t;\\n    string[] private cids;\\...\n              POP \t\t\t;\\n    string[] private cids;\\...\n              JUMP \t\t\t;\\n    string[] private cids;\\...\n            tag 105\t\t\t\n              JUMPDEST \t\t\t\n              PUSH 0\t\t\t\n              DUP1 \t\t\t\n              PUSH [tag] 176\t\t\t\n              DUP4 \t\t\t\n              PUSH [tag] 177\t\t\t\n              JUMP \t\t\t\n            tag 176\t\t\t\n              JUMPDEST \t\t\t\n              SWAP1 \t\t\t\n              POP \t\t\t\n              PUSH 0\t\t\t\n              PUSH FFFFFFFFFFFFFFFFFFFFFFFFFFFFFFFFFFFFFFFF\t\t\t\n              AND \t\t\t\n              DUP2 \t\t\t\n              PUSH FFFFFFFFFFFFFFFFFFFFFFFFFFFFFFFFFFFFFFFF\t\t\t\n              AND \t\t\t\n              SUB \t\t\t\n              PUSH [tag] 178\t\t\t\n              JUMPI \t\t\t\n              DUP3 \t\t\t\n              PUSH 40\t\t\t\n              MLOAD \t\t\t\n              PUSH 7E27328900000000000000000000000000000000000000000000000000000000\t\t\t\n              DUP2 \t\t\t\n              MSTORE \t\t\t\n              PUSH 4\t\t\t\n              ADD \t\t\t\n              PUSH [tag] 179\t\t\t\n              SWAP2 \t\t\t\n              SWAP1 \t\t\t\n              PUSH [tag] 62\t\t\t\n              JUMP \t\t\t\n            tag 179\t\t\t\n              JUMPDEST \t\t\t\n              PUSH 40\t\t\t\n              MLOAD \t\t\t\n              DUP1 \t\t\t\n              SWAP2 \t\t\t\n              SUB \t\t\t\n              SWAP1 \t\t\t\n              REVERT \t\t\t\n            tag 178\t\t\t\n              JUMPDEST \t\t\t\n              DUP1 \t\t\t\n              SWAP2 \t\t\t\n              POP \t\t\t\n              POP \t\t\t\n              SWAP2 \t\t\t\n              SWAP1 \t\t\t\n              POP \t\t\t\n              JUMP \t\t\t\n            tag 107\t\t\t\n              JUMPDEST \t\t\t\n              PUSH 0\t\t\t\n              PUSH 4\t\t\t\n              PUSH 0\t\t\t\n              DUP4 \t\t\t\n              DUP2 \t\t\t\n              MSTORE \t\t\t\n              PUSH 20\t\t\t\n              ADD \t\t\t\n              SWAP1 \t\t\t\n              DUP2 \t\t\t\n              MSTORE \t\t\t\n              PUSH 20\t\t\t\n              ADD \t\t\t\n              PUSH 0\t\t\t\n              KECCAK256 \t\t\t\n              PUSH 0\t\t\t\n              SWAP1 \t\t\t\n              SLOAD \t\t\t\n              SWAP1 \t\t\t\n              PUSH 100\t\t\t\n              EXP \t\t\t\n              SWAP1 \t\t\t\n              DIV \t\t\t\n              PUSH FFFFFFFFFFFFFFFFFFFFFFFFFFFFFFFFFFFFFFFF\t\t\t\n              AND \t\t\t\n              SWAP1 \t\t\t\n              POP \t\t\t\n              SWAP2 \t\t\t\n              SWAP1 \t\t\t\n              POP \t\t\t\n              JUMP \t\t\t\n            tag 111\t\t\t\\n    }\\n\\n    address private...\n              JUMPDEST \t\t\t\\n    }\\n\\n    address private...\n              PUSH 0\t\t\te fee =\n              CALLER \t\t\tring => Ga\n              SWAP1 \t\t\tping(string => Ga\n              POP \t\t\tping(string => Ga\n              SWAP1 \t\t\t\\n    }\\n\\n    address private...\n              JUMP \t\t\t\\n    }\\n\\n    address private...\n            tag 112\t\t\t\n              JUMPDEST \t\t\t\n              PUSH [tag] 183\t\t\t\n              DUP4 \t\t\t\n              DUP4 \t\t\t\n              DUP4 \t\t\t\n              PUSH 1\t\t\t\n              PUSH [tag] 184\t\t\t\n              JUMP \t\t\t\n            tag 183\t\t\t\n              JUMPDEST \t\t\t\n              POP \t\t\t\n              POP \t\t\t\n              POP \t\t\t\n              JUMP \t\t\t\n            tag 118\t\t\t\n              JUMPDEST \t\t\t\n              PUSH 0\t\t\t\n              DUP1 \t\t\t\n              PUSH [tag] 186\t\t\t\n              DUP5 \t\t\t\n              PUSH [tag] 177\t\t\t\n              JUMP \t\t\t\n            tag 186\t\t\t\n              JUMPDEST \t\t\t\n              SWAP1 \t\t\t\n              POP \t\t\t\n              PUSH 0\t\t\t\n              PUSH FFFFFFFFFFFFFFFFFFFFFFFFFFFFFFFFFFFFFFFF\t\t\t\n              AND \t\t\t\n              DUP4 \t\t\t\n              PUSH FFFFFFFFFFFFFFFFFFFFFFFFFFFFFFFFFFFFFFFF\t\t\t\n              AND \t\t\t\n              EQ \t\t\t\n              PUSH [tag] 187\t\t\t\n              JUMPI \t\t\t\n              PUSH [tag] 188\t\t\t\n              DUP2 \t\t\t\n              DUP5 \t\t\t\n              DUP7 \t\t\t\n              PUSH [tag] 189\t\t\t\n              JUMP \t\t\t\n            tag 188\t\t\t\n              JUMPDEST \t\t\t\n            tag 187\t\t\t\n              JUMPDEST \t\t\t\n              PUSH 0\t\t\t\n              PUSH FFFFFFFFFFFFFFFFFFFFFFFFFFFFFFFFFFFFFFFF\t\t\t\n              AND \t\t\t\n              DUP2 \t\t\t\n              PUSH FFFFFFFFFFFFFFFFFFFFFFFFFFFFFFFFFFFFFFFF\t\t\t\n              AND \t\t\t\n              EQ \t\t\t\n              PUSH [tag] 190\t\t\t\n              JUMPI \t\t\t\n              PUSH [tag] 191\t\t\t\n              PUSH 0\t\t\t\n              DUP6 \t\t\t\n              PUSH 0\t\t\t\n              DUP1 \t\t\t\n              PUSH [tag] 184\t\t\t\n              JUMP \t\t\t\n            tag 191\t\t\t\n              JUMPDEST \t\t\t\n              PUSH 1\t\t\t\n              PUSH 3\t\t\t\n              PUSH 0\t\t\t\n              DUP4 \t\t\t\n              PUSH FFFFFFFFFFFFFFFFFFFFFFFFFFFFFFFFFFFFFFFF\t\t\t\n              AND \t\t\t\n              PUSH FFFFFFFFFFFFFFFFFFFFFFFFFFFFFFFFFFFFFFFF\t\t\t\n              AND \t\t\t\n              DUP2 \t\t\t\n              MSTORE \t\t\t\n              PUSH 20\t\t\t\n              ADD \t\t\t\n              SWAP1 \t\t\t\n              DUP2 \t\t\t\n              MSTORE \t\t\t\n              PUSH 20\t\t\t\n              ADD \t\t\t\n              PUSH 0\t\t\t\n              KECCAK256 \t\t\t\n              PUSH 0\t\t\t\n              DUP3 \t\t\t\n              DUP3 \t\t\t\n              SLOAD \t\t\t\n              SUB \t\t\t\n              SWAP3 \t\t\t\n              POP \t\t\t\n              POP \t\t\t\n              DUP2 \t\t\t\n              SWAP1 \t\t\t\n              SSTORE \t\t\t\n              POP \t\t\t\n            tag 190\t\t\t\n              JUMPDEST \t\t\t\n              PUSH 0\t\t\t\n              PUSH FFFFFFFFFFFFFFFFFFFFFFFFFFFFFFFFFFFFFFFF\t\t\t\n              AND \t\t\t\n              DUP6 \t\t\t\n              PUSH FFFFFFFFFFFFFFFFFFFFFFFFFFFFFFFFFFFFFFFF\t\t\t\n              AND \t\t\t\n              EQ \t\t\t\n              PUSH [tag] 192\t\t\t\n              JUMPI \t\t\t\n              PUSH 1\t\t\t\n              PUSH 3\t\t\t\n              PUSH 0\t\t\t\n              DUP8 \t\t\t\n              PUSH FFFFFFFFFFFFFFFFFFFFFFFFFFFFFFFFFFFFFFFF\t\t\t\n              AND \t\t\t\n              PUSH FFFFFFFFFFFFFFFFFFFFFFFFFFFFFFFFFFFFFFFF\t\t\t\n              AND \t\t\t\n              DUP2 \t\t\t\n              MSTORE \t\t\t\n              PUSH 20\t\t\t\n              ADD \t\t\t\n              SWAP1 \t\t\t\n              DUP2 \t\t\t\n              MSTORE \t\t\t\n              PUSH 20\t\t\t\n              ADD \t\t\t\n              PUSH 0\t\t\t\n              KECCAK256 \t\t\t\n              PUSH 0\t\t\t\n              DUP3 \t\t\t\n              DUP3 \t\t\t\n              SLOAD \t\t\t\n              ADD \t\t\t\n              SWAP3 \t\t\t\n              POP \t\t\t\n              POP \t\t\t\n              DUP2 \t\t\t\n              SWAP1 \t\t\t\n              SSTORE \t\t\t\n              POP \t\t\t\n            tag 192\t\t\t\n              JUMPDEST \t\t\t\n              DUP5 \t\t\t\n              PUSH 2\t\t\t\n              PUSH 0\t\t\t\n              DUP7 \t\t\t\n              DUP2 \t\t\t\n              MSTORE \t\t\t\n              PUSH 20\t\t\t\n              ADD \t\t\t\n              SWAP1 \t\t\t\n              DUP2 \t\t\t\n              MSTORE \t\t\t\n              PUSH 20\t\t\t\n              ADD \t\t\t\n              PUSH 0\t\t\t\n              KECCAK256 \t\t\t\n              PUSH 0\t\t\t\n              PUSH 100\t\t\t\n              EXP \t\t\t\n              DUP2 \t\t\t\n              SLOAD \t\t\t\n              DUP2 \t\t\t\n              PUSH FFFFFFFFFFFFFFFFFFFFFFFFFFFFFFFFFFFFFFFF\t\t\t\n              MUL \t\t\t\n              NOT \t\t\t\n              AND \t\t\t\n              SWAP1 \t\t\t\n              DUP4 \t\t\t\n              PUSH FFFFFFFFFFFFFFFFFFFFFFFFFFFFFFFFFFFFFFFF\t\t\t\n              AND \t\t\t\n              MUL \t\t\t\n              OR \t\t\t\n              SWAP1 \t\t\t\n              SSTORE \t\t\t\n              POP \t\t\t\n              DUP4 \t\t\t\n              DUP6 \t\t\t\n              PUSH FFFFFFFFFFFFFFFFFFFFFFFFFFFFFFFFFFFFFFFF\t\t\t\n              AND \t\t\t\n              DUP3 \t\t\t\n              PUSH FFFFFFFFFFFFFFFFFFFFFFFFFFFFFFFFFFFFFFFF\t\t\t\n              AND \t\t\t\n              PUSH DDF252AD1BE2C89B69C2B068FC378DAA952BA7F163C4A11628F55A4DF523B3EF\t\t\t\n              PUSH 40\t\t\t\n              MLOAD \t\t\t\n              PUSH 40\t\t\t\n              MLOAD \t\t\t\n              DUP1 \t\t\t\n              SWAP2 \t\t\t\n              SUB \t\t\t\n              SWAP1 \t\t\t\n              LOG4 \t\t\t\n              DUP1 \t\t\t\n              SWAP2 \t\t\t\n              POP \t\t\t\n              POP \t\t\t\n              SWAP4 \t\t\t\n              SWAP3 \t\t\t\n              POP \t\t\t\n              POP \t\t\t\n              POP \t\t\t\n              JUMP \t\t\t\n            tag 128\t\t\t);\\n        cids.push(_cid);\\n...\n              JUMPDEST \t\t\t);\\n        cids.push(_cid);\\n...\n              PUSH [tag] 194\t\t\t- 1, _cid, a\n              PUSH [tag] 111\t\t\t- 1, _cid,\n              JUMP \t\t\t- 1, _cid, a\n            tag 194\t\t\t- 1, _cid, a\n              JUMPDEST \t\t\t- 1, _cid, a\n              PUSH FFFFFFFFFFFFFFFFFFFFFFFFFFFFFFFFFFFFFFFF\t\t\tids.length - 1, _cid, a\n              AND \t\t\tids.length - 1, _cid, a\n              PUSH [tag] 195\t\t\tids.len\n              PUSH [tag] 66\t\t\tids.l\n              JUMP \t\t\tids.len\n            tag 195\t\t\tids.len\n              JUMPDEST \t\t\tids.len\n              PUSH FFFFFFFFFFFFFFFFFFFFFFFFFFFFFFFFFFFFFFFF\t\t\tids.length - 1, _cid, a\n              AND \t\t\tids.length - 1, _cid, a\n              EQ \t\t\tids.length - 1, _cid, a\n              PUSH [tag] 196\t\t\ted(cids.length - 1, _cid, addr...\n              JUMPI \t\t\ted(cids.length - 1, _cid, addr...\n              PUSH [tag] 197\t\t\tring memory \n              PUSH [tag] 111\t\t\tring memor\n              JUMP \t\t\tring memory \n            tag 197\t\t\tring memory \n              JUMPDEST \t\t\tring memory \n              PUSH 40\t\t\t }\\n\\n    function buyGame(str...\n              MLOAD \t\t\t }\\n\\n    function buyGame(str...\n              PUSH 118CDAA700000000000000000000000000000000000000000000000000000000\t\t\t }\\n\\n    function buyGame(str...\n              DUP2 \t\t\t }\\n\\n    function buyGame(str...\n              MSTORE \t\t\t }\\n\\n    function buyGame(str...\n              PUSH 4\t\t\t }\\n\\n    function buyGame(str...\n              ADD \t\t\t }\\n\\n    function buyGame(str...\n              PUSH [tag] 198\t\t\t }\\n\\n    function buyGame(str...\n              SWAP2 \t\t\t }\\n\\n    function buyGame(str...\n              SWAP1 \t\t\t }\\n\\n    function buyGame(str...\n              PUSH [tag] 38\t\t\t }\\n\\n    function buyGame(str...\n              JUMP \t\t\t }\\n\\n    function buyGame(str...\n            tag 198\t\t\t }\\n\\n    function buyGame(str...\n              JUMPDEST \t\t\t }\\n\\n    function buyGame(str...\n              PUSH 40\t\t\t }\\n\\n    function buyGame(str...\n              MLOAD \t\t\t }\\n\\n    function buyGame(str...\n              DUP1 \t\t\t }\\n\\n    function buyGame(str...\n              SWAP2 \t\t\t }\\n\\n    function buyGame(str...\n              SUB \t\t\t }\\n\\n    function buyGame(str...\n              SWAP1 \t\t\t }\\n\\n    function buyGame(str...\n              REVERT \t\t\t }\\n\\n    function buyGame(str...\n            tag 196\t\t\ted(cids.length - 1, _cid, addr...\n              JUMPDEST \t\t\ted(cids.length - 1, _cid, addr...\n              JUMP \t\t\t);\\n        cids.push(_cid);\\n...\n            tag 131\t\t\t\n              JUMPDEST \t\t\t\n              PUSH 0\t\t\t\n              PUSH FFFFFFFFFFFFFFFFFFFFFFFFFFFFFFFFFFFFFFFF\t\t\t\n              AND \t\t\t\n              DUP3 \t\t\t\n              PUSH FFFFFFFFFFFFFFFFFFFFFFFFFFFFFFFFFFFFFFFF\t\t\t\n              AND \t\t\t\n              SUB \t\t\t\n              PUSH [tag] 200\t\t\t\n              JUMPI \t\t\t\n              PUSH 0\t\t\t\n              PUSH 40\t\t\t\n              MLOAD \t\t\t\n              PUSH 64A0AE9200000000000000000000000000000000000000000000000000000000\t\t\t\n              DUP2 \t\t\t\n              MSTORE \t\t\t\n              PUSH 4\t\t\t\n              ADD \t\t\t\n              PUSH [tag] 201\t\t\t\n              SWAP2 \t\t\t\n              SWAP1 \t\t\t\n              PUSH [tag] 38\t\t\t\n              JUMP \t\t\t\n            tag 201\t\t\t\n              JUMPDEST \t\t\t\n              PUSH 40\t\t\t\n              MLOAD \t\t\t\n              DUP1 \t\t\t\n              SWAP2 \t\t\t\n              SUB \t\t\t\n              SWAP1 \t\t\t\n              REVERT \t\t\t\n            tag 200\t\t\t\n              JUMPDEST \t\t\t\n              PUSH 0\t\t\t\n              PUSH [tag] 202\t\t\t\n              DUP4 \t\t\t\n              DUP4 \t\t\t\n              PUSH 0\t\t\t\n              PUSH [tag] 118\t\t\t\n              JUMP \t\t\t\n            tag 202\t\t\t\n              JUMPDEST \t\t\t\n              SWAP1 \t\t\t\n              POP \t\t\t\n              PUSH 0\t\t\t\n              PUSH FFFFFFFFFFFFFFFFFFFFFFFFFFFFFFFFFFFFFFFF\t\t\t\n              AND \t\t\t\n              DUP2 \t\t\t\n              PUSH FFFFFFFFFFFFFFFFFFFFFFFFFFFFFFFFFFFFFFFF\t\t\t\n              AND \t\t\t\n              EQ \t\t\t\n              PUSH [tag] 203\t\t\t\n              JUMPI \t\t\t\n              PUSH 0\t\t\t\n              PUSH 40\t\t\t\n              MLOAD \t\t\t\n              PUSH 73C6AC6E00000000000000000000000000000000000000000000000000000000\t\t\t\n              DUP2 \t\t\t\n              MSTORE \t\t\t\n              PUSH 4\t\t\t\n              ADD \t\t\t\n              PUSH [tag] 204\t\t\t\n              SWAP2 \t\t\t\n              SWAP1 \t\t\t\n              PUSH [tag] 38\t\t\t\n              JUMP \t\t\t\n            tag 204\t\t\t\n              JUMPDEST \t\t\t\n              PUSH 40\t\t\t\n              MLOAD \t\t\t\n              DUP1 \t\t\t\n              SWAP2 \t\t\t\n              SUB \t\t\t\n              SWAP1 \t\t\t\n              REVERT \t\t\t\n            tag 203\t\t\t\n              JUMPDEST \t\t\t\n              POP \t\t\t\n              POP \t\t\t\n              POP \t\t\t\n              JUMP \t\t\t\n            tag 141\t\t\tddress = games[_cid].token;\\n ...\n              JUMPDEST \t\t\tddress = games[_cid].token;\\n ...\n              PUSH 0\t\t\t         revert \n              PUSH 6\t\t\talidGa\n              PUSH 0\t\t\talidGa\n              SWAP1 \t\t\talidGa\n              SLOAD \t\t\talidGa\n              SWAP1 \t\t\talidGa\n              PUSH 100\t\t\talidGa\n              EXP \t\t\talidGa\n              SWAP1 \t\t\talidGa\n              DIV \t\t\talidGa\n              PUSH FFFFFFFFFFFFFFFFFFFFFFFFFFFFFFFFFFFFFFFF\t\t\talidGa\n              AND \t\t\talidGa\n              SWAP1 \t\t\t         revert InvalidGa\n              POP \t\t\t         revert InvalidGa\n              DUP2 \t\t\t     Gam\n              PUSH 6\t\t\t    }\\n\n              PUSH 0\t\t\t    }\\n\n              PUSH 100\t\t\t    }\\n        Gam\n              EXP \t\t\t    }\\n        Gam\n              DUP2 \t\t\t    }\\n        Gam\n              SLOAD \t\t\t    }\\n        Gam\n              DUP2 \t\t\t    }\\n        Gam\n              PUSH FFFFFFFFFFFFFFFFFFFFFFFFFFFFFFFFFFFFFFFF\t\t\t    }\\n        Gam\n              MUL \t\t\t    }\\n        Gam\n              NOT \t\t\t    }\\n        Gam\n              AND \t\t\t    }\\n        Gam\n              SWAP1 \t\t\t    }\\n        Gam\n              DUP4 \t\t\t    }\\n        Gam\n              PUSH FFFFFFFFFFFFFFFFFFFFFFFFFFFFFFFFFFFFFFFF\t\t\t    }\\n        Gam\n              AND \t\t\t    }\\n        Gam\n              MUL \t\t\t    }\\n        Gam\n              OR \t\t\t    }\\n        Gam\n              SWAP1 \t\t\t    }\\n        Gam\n              SSTORE \t\t\t    }\\n        Gam\n              POP \t\t\t    }\\n        Gam\n              DUP2 \t\t\t      re\n              PUSH FFFFFFFFFFFFFFFFFFFFFFFFFFFFFFFFFFFFFFFF\t\t\tn = GameToken(tokenAddress);\\n...\n              AND \t\t\tn = GameToken(tokenAddress);\\n...\n              DUP2 \t\t\tdress);\\n\n              PUSH FFFFFFFFFFFFFFFFFFFFFFFFFFFFFFFFFFFFFFFF\t\t\tn = GameToken(tokenAddress);\\n...\n              AND \t\t\tn = GameToken(tokenAddress);\\n...\n              PUSH 8BE0079C531659141344CD1FD0A4F28419497F9722A3DAAFE3B4186F6B6457E0\t\t\tn = GameToken(tokenAddress);\\n...\n              PUSH 40\t\t\tn = GameToken(tokenAddress);\\n...\n              MLOAD \t\t\tn = GameToken(tokenAddress);\\n...\n              PUSH 40\t\t\tn = GameToken(tokenAddress);\\n...\n              MLOAD \t\t\tn = GameToken(tokenAddress);\\n...\n              DUP1 \t\t\tn = GameToken(tokenAddress);\\n...\n              SWAP2 \t\t\tn = GameToken(tokenAddress);\\n...\n              SUB \t\t\tn = GameToken(tokenAddress);\\n...\n              SWAP1 \t\t\tn = GameToken(tokenAddress);\\n...\n              LOG3 \t\t\tn = GameToken(tokenAddress);\\n...\n              POP \t\t\t(0)) {\\n            revert Inv...\n              POP \t\t\tddress = games[_cid].token;\\n ...\n              JUMP \t\t\tddress = games[_cid].token;\\n ...\n            tag 152\t\t\t\n              JUMPDEST \t\t\t\n              PUSH 0\t\t\t\n              PUSH FFFFFFFFFFFFFFFFFFFFFFFFFFFFFFFFFFFFFFFF\t\t\t\n              AND \t\t\t\n              DUP3 \t\t\t\n              PUSH FFFFFFFFFFFFFFFFFFFFFFFFFFFFFFFFFFFFFFFF\t\t\t\n              AND \t\t\t\n              SUB \t\t\t\n              PUSH [tag] 207\t\t\t\n              JUMPI \t\t\t\n              DUP2 \t\t\t\n              PUSH 40\t\t\t\n              MLOAD \t\t\t\n              PUSH 5B08BA1800000000000000000000000000000000000000000000000000000000\t\t\t\n              DUP2 \t\t\t\n              MSTORE \t\t\t\n              PUSH 4\t\t\t\n              ADD \t\t\t\n              PUSH [tag] 208\t\t\t\n              SWAP2 \t\t\t\n              SWAP1 \t\t\t\n              PUSH [tag] 38\t\t\t\n              JUMP \t\t\t\n            tag 208\t\t\t\n              JUMPDEST \t\t\t\n              PUSH 40\t\t\t\n              MLOAD \t\t\t\n              DUP1 \t\t\t\n              SWAP2 \t\t\t\n              SUB \t\t\t\n              SWAP1 \t\t\t\n              REVERT \t\t\t\n            tag 207\t\t\t\n              JUMPDEST \t\t\t\n              DUP1 \t\t\t\n              PUSH 5\t\t\t\n              PUSH 0\t\t\t\n              DUP6 \t\t\t\n              PUSH FFFFFFFFFFFFFFFFFFFFFFFFFFFFFFFFFFFFFFFF\t\t\t\n              AND \t\t\t\n              PUSH FFFFFFFFFFFFFFFFFFFFFFFFFFFFFFFFFFFFFFFF\t\t\t\n              AND \t\t\t\n              DUP2 \t\t\t\n              MSTORE \t\t\t\n              PUSH 20\t\t\t\n              ADD \t\t\t\n              SWAP1 \t\t\t\n              DUP2 \t\t\t\n              MSTORE \t\t\t\n              PUSH 20\t\t\t\n              ADD \t\t\t\n              PUSH 0\t\t\t\n              KECCAK256 \t\t\t\n              PUSH 0\t\t\t\n              DUP5 \t\t\t\n              PUSH FFFFFFFFFFFFFFFFFFFFFFFFFFFFFFFFFFFFFFFF\t\t\t\n              AND \t\t\t\n              PUSH FFFFFFFFFFFFFFFFFFFFFFFFFFFFFFFFFFFFFFFF\t\t\t\n              AND \t\t\t\n              DUP2 \t\t\t\n              MSTORE \t\t\t\n              PUSH 20\t\t\t\n              ADD \t\t\t\n              SWAP1 \t\t\t\n              DUP2 \t\t\t\n              MSTORE \t\t\t\n              PUSH 20\t\t\t\n              ADD \t\t\t\n              PUSH 0\t\t\t\n              KECCAK256 \t\t\t\n              PUSH 0\t\t\t\n              PUSH 100\t\t\t\n              EXP \t\t\t\n              DUP2 \t\t\t\n              SLOAD \t\t\t\n              DUP2 \t\t\t\n              PUSH FF\t\t\t\n              MUL \t\t\t\n              NOT \t\t\t\n              AND \t\t\t\n              SWAP1 \t\t\t\n              DUP4 \t\t\t\n              ISZERO \t\t\t\n              ISZERO \t\t\t\n              MUL \t\t\t\n              OR \t\t\t\n              SWAP1 \t\t\t\n              SSTORE \t\t\t\n              POP \t\t\t\n              DUP2 \t\t\t\n              PUSH FFFFFFFFFFFFFFFFFFFFFFFFFFFFFFFFFFFFFFFF\t\t\t\n              AND \t\t\t\n              DUP4 \t\t\t\n              PUSH FFFFFFFFFFFFFFFFFFFFFFFFFFFFFFFFFFFFFFFF\t\t\t\n              AND \t\t\t\n              PUSH 17307EAB39AB6107E8899845AD3D59BD9653F200F220920489CA2B5937696C31\t\t\t\n              DUP4 \t\t\t\n              PUSH 40\t\t\t\n              MLOAD \t\t\t\n              PUSH [tag] 209\t\t\t\n              SWAP2 \t\t\t\n              SWAP1 \t\t\t\n              PUSH [tag] 28\t\t\t\n              JUMP \t\t\t\n            tag 209\t\t\t\n              JUMPDEST \t\t\t\n              PUSH 40\t\t\t\n              MLOAD \t\t\t\n              DUP1 \t\t\t\n              SWAP2 \t\t\t\n              SUB \t\t\t\n              SWAP1 \t\t\t\n              LOG3 \t\t\t\n              POP \t\t\t\n              POP \t\t\t\n              POP \t\t\t\n              JUMP \t\t\t\n            tag 156\t\t\t\n              JUMPDEST \t\t\t\n              PUSH 0\t\t\t\n              DUP4 \t\t\t\n              PUSH FFFFFFFFFFFFFFFFFFFFFFFFFFFFFFFFFFFFFFFF\t\t\t\n              AND \t\t\t\n              EXTCODESIZE \t\t\t\n              GT \t\t\t\n              ISZERO \t\t\t\n              PUSH [tag] 211\t\t\t\n              JUMPI \t\t\t\n              DUP3 \t\t\t\n              PUSH FFFFFFFFFFFFFFFFFFFFFFFFFFFFFFFFFFFFFFFF\t\t\t\n              AND \t\t\t\n              PUSH 150B7A02\t\t\t\n              PUSH [tag] 212\t\t\t\n              PUSH [tag] 111\t\t\t\n              JUMP \t\t\t\n            tag 212\t\t\t\n              JUMPDEST \t\t\t\n              DUP7 \t\t\t\n              DUP6 \t\t\t\n              DUP6 \t\t\t\n              PUSH 40\t\t\t\n              MLOAD \t\t\t\n              DUP6 \t\t\t\n              PUSH FFFFFFFF\t\t\t\n              AND \t\t\t\n              PUSH E0\t\t\t\n              SHL \t\t\t\n              DUP2 \t\t\t\n              MSTORE \t\t\t\n              PUSH 4\t\t\t\n              ADD \t\t\t\n              PUSH [tag] 213\t\t\t\n              SWAP5 \t\t\t\n              SWAP4 \t\t\t\n              SWAP3 \t\t\t\n              SWAP2 \t\t\t\n              SWAP1 \t\t\t\n              PUSH [tag] 214\t\t\t\n              JUMP \t\t\t\n            tag 213\t\t\t\n              JUMPDEST \t\t\t\n              PUSH 20\t\t\t\n              PUSH 40\t\t\t\n              MLOAD \t\t\t\n              DUP1 \t\t\t\n              DUP4 \t\t\t\n              SUB \t\t\t\n              DUP2 \t\t\t\n              PUSH 0\t\t\t\n              DUP8 \t\t\t\n              GAS \t\t\t\n              CALL \t\t\t\n              SWAP3 \t\t\t\n              POP \t\t\t\n              POP \t\t\t\n              POP \t\t\t\n              DUP1 \t\t\t\n              ISZERO \t\t\t\n              PUSH [tag] 215\t\t\t\n              JUMPI \t\t\t\n              POP \t\t\t\n              PUSH 40\t\t\t\n              MLOAD \t\t\t\n              RETURNDATASIZE \t\t\t\n              PUSH 1F\t\t\t\n              NOT \t\t\t\n              PUSH 1F\t\t\t\n              DUP3 \t\t\t\n              ADD \t\t\t\n              AND \t\t\t\n              DUP3 \t\t\t\n              ADD \t\t\t\n              DUP1 \t\t\t\n              PUSH 40\t\t\t\n              MSTORE \t\t\t\n              POP \t\t\t\n              DUP2 \t\t\t\n              ADD \t\t\t\n              SWAP1 \t\t\t\n              PUSH [tag] 216\t\t\t\n              SWAP2 \t\t\t\n              SWAP1 \t\t\t\n              PUSH [tag] 217\t\t\t\n              JUMP \t\t\t\n            tag 216\t\t\t\n              JUMPDEST \t\t\t\n              PUSH 1\t\t\t\n            tag 215\t\t\t\n              JUMPDEST \t\t\t\n              PUSH [tag] 218\t\t\t\n              JUMPI \t\t\t\n              RETURNDATASIZE \t\t\t\n              DUP1 \t\t\t\n              PUSH 0\t\t\t\n              DUP2 \t\t\t\n              EQ \t\t\t\n              PUSH [tag] 223\t\t\t\n              JUMPI \t\t\t\n              PUSH 40\t\t\t\n              MLOAD \t\t\t\n              SWAP2 \t\t\t\n              POP \t\t\t\n              PUSH 1F\t\t\t\n              NOT \t\t\t\n              PUSH 3F\t\t\t\n              RETURNDATASIZE \t\t\t\n              ADD \t\t\t\n              AND \t\t\t\n              DUP3 \t\t\t\n              ADD \t\t\t\n              PUSH 40\t\t\t\n              MSTORE \t\t\t\n              RETURNDATASIZE \t\t\t\n              DUP3 \t\t\t\n              MSTORE \t\t\t\n              RETURNDATASIZE \t\t\t\n              PUSH 0\t\t\t\n              PUSH 20\t\t\t\n              DUP5 \t\t\t\n              ADD \t\t\t\n              RETURNDATACOPY \t\t\t\n              PUSH [tag] 222\t\t\t\n              JUMP \t\t\t\n            tag 223\t\t\t\n              JUMPDEST \t\t\t\n              PUSH 60\t\t\t\n              SWAP2 \t\t\t\n              POP \t\t\t\n            tag 222\t\t\t\n              JUMPDEST \t\t\t\n              POP \t\t\t\n              PUSH 0\t\t\t\n              DUP2 \t\t\t\n              MLOAD \t\t\t\n              SUB \t\t\t\n              PUSH [tag] 224\t\t\t\n              JUMPI \t\t\t\n              DUP4 \t\t\t\n              PUSH 40\t\t\t\n              MLOAD \t\t\t\n              PUSH 64A0AE9200000000000000000000000000000000000000000000000000000000\t\t\t\n              DUP2 \t\t\t\n              MSTORE \t\t\t\n              PUSH 4\t\t\t\n              ADD \t\t\t\n              PUSH [tag] 225\t\t\t\n              SWAP2 \t\t\t\n              SWAP1 \t\t\t\n              PUSH [tag] 38\t\t\t\n              JUMP \t\t\t\n            tag 225\t\t\t\n              JUMPDEST \t\t\t\n              PUSH 40\t\t\t\n              MLOAD \t\t\t\n              DUP1 \t\t\t\n              SWAP2 \t\t\t\n              SUB \t\t\t\n              SWAP1 \t\t\t\n              REVERT \t\t\t\n            tag 224\t\t\t\n              JUMPDEST \t\t\t\n              DUP1 \t\t\t\n              MLOAD \t\t\t\n              DUP2 \t\t\t\n              PUSH 20\t\t\t\n              ADD \t\t\t\n              REVERT \t\t\t\n            tag 218\t\t\t\n              JUMPDEST \t\t\t\n              PUSH 150B7A02\t\t\t\n              PUSH E0\t\t\t\n              SHL \t\t\t\n              PUSH FFFFFFFFFFFFFFFFFFFFFFFFFFFFFFFFFFFFFFFFFFFFFFFFFFFFFFFF\t\t\t\n              NOT \t\t\t\n              AND \t\t\t\n              DUP2 \t\t\t\n              PUSH FFFFFFFFFFFFFFFFFFFFFFFFFFFFFFFFFFFFFFFFFFFFFFFFFFFFFFFF\t\t\t\n              NOT \t\t\t\n              AND \t\t\t\n              EQ \t\t\t\n              PUSH [tag] 228\t\t\t\n              JUMPI \t\t\t\n              DUP4 \t\t\t\n              PUSH 40\t\t\t\n              MLOAD \t\t\t\n              PUSH 64A0AE9200000000000000000000000000000000000000000000000000000000\t\t\t\n              DUP2 \t\t\t\n              MSTORE \t\t\t\n              PUSH 4\t\t\t\n              ADD \t\t\t\n              PUSH [tag] 229\t\t\t\n              SWAP2 \t\t\t\n              SWAP1 \t\t\t\n              PUSH [tag] 38\t\t\t\n              JUMP \t\t\t\n            tag 229\t\t\t\n              JUMPDEST \t\t\t\n              PUSH 40\t\t\t\n              MLOAD \t\t\t\n              DUP1 \t\t\t\n              SWAP2 \t\t\t\n              SUB \t\t\t\n              SWAP1 \t\t\t\n              REVERT \t\t\t\n            tag 228\t\t\t\n              JUMPDEST \t\t\t\n              POP \t\t\t\n            tag 211\t\t\t\n              JUMPDEST \t\t\t\n              POP \t\t\t\n              POP \t\t\t\n              POP \t\t\t\n              POP \t\t\t\n              JUMP \t\t\t\n            tag 164\t\t\tror GameAlreadyBought();\\n\\n  ...\n              JUMPDEST \t\t\tror GameAlreadyBought();\\n\\n  ...\n              PUSH 60\t\t\ts creator;\\n  \n              PUSH 0\t\t\ta\n              DUP3 \t\t\t  st\n              MLOAD \t\t\t  string[] \n              SUB \t\t\t  string[] priva\n              PUSH [tag] 231\t\t\t;\\n    string[] private cids;\\...\n              JUMPI \t\t\t;\\n    string[] private cids;\\...\n              PUSH 40\t\t\t cids;\\n\\n \n              MLOAD \t\t\t cids;\\n\\n \n              DUP1 \t\t\t cids;\\n\\n \n              PUSH 20\t\t\t cids;\\n\\n \n              ADD \t\t\t cids;\\n\\n \n              PUSH 40\t\t\t cids;\\n\\n \n              MSTORE \t\t\t cids;\\n\\n \n              DUP1 \t\t\t cids;\\n\\n \n              PUSH 0\t\t\t cids;\\n\\n \n              DUP2 \t\t\t cids;\\n\\n \n              MSTORE \t\t\t cids;\\n\\n \n              POP \t\t\t cids;\\n\\n \n              SWAP1 \t\t\t cids;\\n\\n \n              POP \t\t\t cids;\\n\\n \n              PUSH [tag] 230\t\t\t cids;\\n\\n \n              JUMP \t\t\t cids;\\n\\n \n            tag 231\t\t\t;\\n    string[] private cids;\\...\n              JUMPDEST \t\t\t;\\n    string[] private cids;\\...\n              PUSH 0\t\t\tnce;\\n\\n    // Helper\n              PUSH 40\t\t\tnction\n              MLOAD \t\t\tnction\n              DUP1 \t\t\tnction\n              PUSH 60\t\t\tnction\n              ADD \t\t\tnction\n              PUSH 40\t\t\tnction\n              MSTORE \t\t\tnction\n              DUP1 \t\t\tnction\n              PUSH 40\t\t\tnction\n              DUP2 \t\t\tnction\n              MSTORE \t\t\tnction\n              PUSH 20\t\t\tnction\n              ADD \t\t\tnction\n              PUSH data 84D8A590DE33E00CBDC16E1F28C3506F5EC15C599FAB9A6A4BCD575CC2F110CE\t\t\tnction\n              PUSH 40\t\t\tnction\n              SWAP2 \t\t\tnction\n              CODECOPY \t\t\tnction\n              SWAP1 \t\t\tnce;\\n\\n    // Helper function\n              POP \t\t\tnce;\\n\\n    // Helper function\n              PUSH 0\t\t\ty _cid,\\n        stri\n              PUSH 3\t\t\t_\n              PUSH 2\t\t\tm\n              DUP6 \t\t\t    \n              MLOAD \t\t\t     string\n              PUSH [tag] 232\t\t\t     string mem\n              SWAP2 \t\t\t     string mem\n              SWAP1 \t\t\t     string mem\n              PUSH [tag] 233\t\t\t     string mem\n              JUMP \t\t\t     string mem\n            tag 232\t\t\t     string mem\n              JUMPDEST \t\t\t     string mem\n              PUSH [tag] 234\t\t\t      string memory _\n              SWAP2 \t\t\t      string memory _\n              SWAP1 \t\t\t      string memory _\n              PUSH [tag] 235\t\t\t      string memory _\n              JUMP \t\t\t      string memory _\n            tag 234\t\t\t      string memory _\n              JUMPDEST \t\t\t      string memory _\n              PUSH 4\t\t\te\n              PUSH [tag] 236\t\t\te,\\n        string memory _s\n              SWAP2 \t\t\te,\\n        string memory _s\n              SWAP1 \t\t\te,\\n        string memory _s\n              PUSH [tag] 237\t\t\te,\\n        string memory _s\n              JUMP \t\t\te,\\n        string memory _s\n            tag 236\t\t\te,\\n        string memory _s\n              JUMPDEST \t\t\te,\\n        string memory _s\n              PUSH FFFFFFFFFFFFFFFF\t\t\tmemory _name,\\n        string ...\n              DUP2 \t\t\tmemory _name,\\n        string ...\n              GT \t\t\tmemory _name,\\n        string ...\n              ISZERO \t\t\tmemory _name,\\n        string ...\n              PUSH [tag] 238\t\t\tmemory _name,\\n        string ...\n              JUMPI \t\t\tmemory _name,\\n        string ...\n              PUSH [tag] 239\t\t\tmemory _name,\\n        string ...\n              PUSH [tag] 240\t\t\tmemory _name,\\n        string ...\n              JUMP \t\t\tmemory _name,\\n        string ...\n            tag 239\t\t\tmemory _name,\\n        string ...\n              JUMPDEST \t\t\tmemory _name,\\n        string ...\n            tag 238\t\t\tmemory _name,\\n        string ...\n              JUMPDEST \t\t\tmemory _name,\\n        string ...\n              PUSH 40\t\t\tmemory _name,\\n        string ...\n              MLOAD \t\t\tmemory _name,\\n        string ...\n              SWAP1 \t\t\tmemory _name,\\n        string ...\n              DUP1 \t\t\tmemory _name,\\n        string ...\n              DUP3 \t\t\tmemory _name,\\n        string ...\n              MSTORE \t\t\tmemory _name,\\n        string ...\n              DUP1 \t\t\tmemory _name,\\n        string ...\n              PUSH 1F\t\t\tmemory _name,\\n        string ...\n              ADD \t\t\tmemory _name,\\n        string ...\n              PUSH 1F\t\t\tmemory _name,\\n        string ...\n              NOT \t\t\tmemory _name,\\n        string ...\n              AND \t\t\tmemory _name,\\n        string ...\n              PUSH 20\t\t\tmemory _name,\\n        string ...\n              ADD \t\t\tmemory _name,\\n        string ...\n              DUP3 \t\t\tmemory _name,\\n        string ...\n              ADD \t\t\tmemory _name,\\n        string ...\n              PUSH 40\t\t\tmemory _name,\\n        string ...\n              MSTORE \t\t\tmemory _name,\\n        string ...\n              DUP1 \t\t\tmemory _name,\\n        string ...\n              ISZERO \t\t\tmemory _name,\\n        string ...\n              PUSH [tag] 241\t\t\tmemory _name,\\n        string ...\n              JUMPI \t\t\tmemory _name,\\n        string ...\n              DUP2 \t\t\tmemory _name,\\n        string ...\n              PUSH 20\t\t\tmemory _name,\\n        string ...\n              ADD \t\t\tmemory _name,\\n        string ...\n              PUSH 1\t\t\tmemory _name,\\n        string ...\n              DUP3 \t\t\tmemory _name,\\n        string ...\n              MUL \t\t\tmemory _name,\\n        string ...\n              DUP1 \t\t\tmemory _name,\\n        string ...\n              CALLDATASIZE \t\t\tmemory _name,\\n        string ...\n              DUP4 \t\t\tmemory _name,\\n        string ...\n              CALLDATACOPY \t\t\tmemory _name,\\n        string ...\n              DUP1 \t\t\tmemory _name,\\n        string ...\n              DUP3 \t\t\tmemory _name,\\n        string ...\n              ADD \t\t\tmemory _name,\\n        string ...\n              SWAP2 \t\t\tmemory _name,\\n        string ...\n              POP \t\t\tmemory _name,\\n        string ...\n              POP \t\t\tmemory _name,\\n        string ...\n              SWAP1 \t\t\tmemory _name,\\n        string ...\n              POP \t\t\tmemory _name,\\n        string ...\n            tag 241\t\t\tmemory _name,\\n        string ...\n              JUMPDEST \t\t\tmemory _name,\\n        string ...\n              POP \t\t\tmemory _name,\\n        string ...\n              SWAP1 \t\t\ty _cid,\\n        string memory...\n              POP \t\t\ty _cid,\\n        string memory...\n              PUSH 1\t\t\t \n              DUP3 \t\t\t;\\n   \n              ADD \t\t\ted();\\n       \n              PUSH 20\t\t\tmsg.\n              DUP3 \t\t\ten.min\n              ADD \t\t\teToken.mint(msg.s\n              DUP6 \t\t\t = G\n              DUP7 \t\t\tid,\\n\n              MLOAD \t\t\t    _cid,\\n \n              DUP8 \t\t\t    \n              ADD \t\t\t,\\n            _cid,\\n  \n              PUSH 20\t\t\t_cid\n              DUP2 \t\t\t memor\n              ADD \t\t\tring memory _cid)\n              DUP1 \t\t\try _game\n              MLOAD \t\t\te memory _game \n              PUSH 0\t\t\ten g\n              DUP3 \t\t\t   GameT\n              MSTORE \t\t\t;\\n        GameToken ga\n            tag 242\t\t\tress(0)) {\\n            revert...\n              JUMPDEST \t\t\tress(0)) {\\n            revert...\n              DUP3 \t\t\talidGa\n              DUP5 \t\t\tevert I\n              LT \t\t\t  revert InvalidGam\n              ISZERO \t\t\tress(0)) {\\n            revert...\n              PUSH [tag] 244\t\t\tress(0)) {\\n            revert...\n              JUMPI \t\t\tress(0)) {\\n            revert...\n              PUSH 3\t\t\ta\n              DUP5 \t\t\t GameAl\n              ADD \t\t\tvert GameAlread\n              SWAP4 \t\t\t         revert GameAlread\n              POP \t\t\t         revert GameAlread\n              DUP4 \t\t\tg.value\n              MLOAD \t\t\tif (msg.value \n              PUSH 3F\t\t\t_cid\n              DUP2 \t\t\t memo\n              PUSH 12\t\t\tri\n              SHR \t\t\td(string memor\n              AND \t\t\tOwned(string memory _cid)\n              DUP8 \t\t\tion isGa\n              ADD \t\t\tunction isGameOwned(string mem...\n              MLOAD \t\t\t\\n    function isGameOwned(str...\n              DUP7 \t\t\tw Functio\n              MSTORE8 \t\t\t  // View Functions\\n    funct...\n              PUSH 1\t\t\tt\n              DUP7 \t\t\t   addres\n              ADD \t\t\t       address to\n              SWAP6 \t\t\tns (bool) {\\n        address t...\n              POP \t\t\tns (bool) {\\n        address t...\n              PUSH 3F\t\t\tvert\n              DUP2 \t\t\t     \n              PUSH C\t\t\t  \n              SHR \t\t\t{\\n            \n              AND \t\t\t0)) {\\n            revert \n              DUP8 \t\t\t= addres\n              ADD \t\t\tss == address(0)) {\\n         ...\n              MLOAD \t\t\tnAddress == address(0)) {\\n   ...\n              DUP7 \t\t\t   if (to\n              MSTORE8 \t\t\tn;\\n        if (tokenAddress =...\n              PUSH 1\t\t\to\n              DUP7 \t\t\tToken gam\n              ADD \t\t\tGameToken gameTok\n              SWAP6 \t\t\t   }\\n        GameToken gameTo...\n              POP \t\t\t   }\\n        GameToken gameTo...\n              PUSH 3F\t\t\t}\\n\\n \n              DUP2 \t\t\t 1;\\n \n              PUSH 6\t\t\t \n              SHR \t\t\tder) >= 1;\\n  \n              AND \t\t\t.sender) >= 1;\\n    }\\n\\n  \n              DUP8 \t\t\tanceOf(m\n              ADD \t\t\t.balanceOf(msg.sender) >= 1;\\n...\n              MLOAD \t\t\teToken.balanceOf(msg.sender) >...\n              DUP7 \t\t\t return g\n              MSTORE8 \t\t\t\\n        return gameToken.bal...\n              PUSH 1\t\t\te\n              DUP7 \t\t\teturns (G\n              ADD \t\t\tew returns (Game[\n              SWAP6 \t\t\t) external view returns (Game[\n              POP \t\t\t) external view returns (Game[\n              PUSH 3F\t\t\t (ui\n              DUP2 \t\t\t    f\n              AND \t\t\t        for (uin\n              DUP8 \t\t\t.length)\n              ADD \t\t\tcids.length);\\n        for (ui...\n              MLOAD \t\t\tame[](cids.length);\\n        f...\n              DUP7 \t\t\tmes = new\n              MSTORE8 \t\t\tmory _games = new Game[](cids....\n              PUSH 1\t\t\t_\n              DUP7 \t\t\t         \n              ADD \t\t\t {\\n            _g\n              SWAP6 \t\t\t.length; i++) {\\n            _...\n              POP \t\t\t.length; i++) {\\n            _...\n              POP \t\t\t      if (gameToken.balanceOf(...\n              PUSH [tag] 242\t\t\tress(0)) {\\n            revert...\n              JUMP \t\t\tress(0)) {\\n            revert...\n            tag 244\t\t\tress(0)) {\\n            revert...\n              JUMPDEST \t\t\tress(0)) {\\n            revert...\n              DUP1 \t\t\tory _cid)\\n\n              DUP3 \t\t\tstring m\n              MSTORE \t\t\teByCid(string memory _cid)\\n \n              PUSH 3\t\t\t \n              DUP11 \t\t\t    \n              MLOAD \t\t\t) {\\n       \n              MOD \t\t\ts(0)) {\\n           \n              PUSH 1\t\t\te\n              DUP2 \t\t\tidGame();\\n        }\\n        ...\n              EQ \t\t\tidGame();\\n        }\\n        ...\n              PUSH [tag] 246\t\t\tidGame();\\n        }\\n        ...\n              JUMPI \t\t\tidGame();\\n        }\\n        ...\n              PUSH 2\t\t\t \n              DUP2 \t\t\t{\\n        return games[_cid]....\n              EQ \t\t\t{\\n        return games[_cid]....\n              PUSH [tag] 247\t\t\t{\\n        return games[_cid]....\n              JUMPI \t\t\t{\\n        return games[_cid]....\n              PUSH [tag] 245\t\t\t address(0)) {\\n            re...\n              JUMP \t\t\t address(0)) {\\n            re...\n            tag 246\t\t\tidGame();\\n        }\\n        ...\n              JUMPDEST \t\t\tidGame();\\n        }\\n        ...\n              PUSH 3D\t\t\t fun\n              PUSH 1\t\t\t\\n\n              DUP8 \t\t\tame;\\n    \n              SUB \t\t\tn _game;\\n    }\\n\\n \n              MSTORE8 \t\t\t   return _game;\\n    }\\n\\n   ...\n              PUSH 3D\t\t\t) ex\n              PUSH 2\t\t\t_\n              DUP8 \t\t\ting memor\n              SUB \t\t\t(string memory _c\n              MSTORE8 \t\t\tessByCid(string memory _cid) e...\n              PUSH [tag] 245\t\t\tidGame();\\n        }\\n        ...\n              JUMP \t\t\tidGame();\\n        }\\n        ...\n            tag 247\t\t\t{\\n        return games[_cid]....\n              JUMPDEST \t\t\t{\\n        return games[_cid]....\n              PUSH 3D\t\t\tion \n              PUSH 1\t\t\tu\n              DUP8 \t\t\t   }\\n\\n   \n              SUB \t\t\tn;\\n    }\\n\\n    fun\n              MSTORE8 \t\t\tid].token;\\n    }\\n\\n    funct...\n            tag 245\t\t\t address(0)) {\\n            re...\n              JUMPDEST \t\t\t address(0)) {\\n            re...\n              POP \t\t\t address(0)) {\\n            re...\n              POP \t\t\t  ) external {\\n        if (ga...\n              POP \t\t\t  ) external {\\n        if (ga...\n              POP \t\t\t  ) external {\\n        if (ga...\n              POP \t\t\t  ) external {\\n        if (ga...\n              POP \t\t\t  ) external {\\n        if (ga...\n              POP \t\t\t  ) external {\\n        if (ga...\n              DUP1 \t\t\t(uint2\n              SWAP3 \t\t\teturns (uint2\n              POP \t\t\teturns (uint2\n              POP \t\t\teturns (uint2\n              POP \t\t\teturns (uint2\n            tag 230\t\t\tror GameAlreadyBought();\\n\\n  ...\n              JUMPDEST \t\t\tror GameAlreadyBought();\\n\\n  ...\n              SWAP2 \t\t\tror GameAlreadyBought();\\n\\n  ...\n              SWAP1 \t\t\tror GameAlreadyBought();\\n\\n  ...\n              POP \t\t\tror GameAlreadyBought();\\n\\n  ...\n              JUMP \t\t\tror GameAlreadyBought();\\n\\n  ...\n            tag 177\t\t\t\n              JUMPDEST \t\t\t\n              PUSH 0\t\t\t\n              PUSH 2\t\t\t\n              PUSH 0\t\t\t\n              DUP4 \t\t\t\n              DUP2 \t\t\t\n              MSTORE \t\t\t\n              PUSH 20\t\t\t\n              ADD \t\t\t\n              SWAP1 \t\t\t\n              DUP2 \t\t\t\n              MSTORE \t\t\t\n              PUSH 20\t\t\t\n              ADD \t\t\t\n              PUSH 0\t\t\t\n              KECCAK256 \t\t\t\n              PUSH 0\t\t\t\n              SWAP1 \t\t\t\n              SLOAD \t\t\t\n              SWAP1 \t\t\t\n              PUSH 100\t\t\t\n              EXP \t\t\t\n              SWAP1 \t\t\t\n              DIV \t\t\t\n              PUSH FFFFFFFFFFFFFFFFFFFFFFFFFFFFFFFFFFFFFFFF\t\t\t\n              AND \t\t\t\n              SWAP1 \t\t\t\n              POP \t\t\t\n              SWAP2 \t\t\t\n              SWAP1 \t\t\t\n              POP \t\t\t\n              JUMP \t\t\t\n            tag 184\t\t\t\n              JUMPDEST \t\t\t\n              DUP1 \t\t\t\n              DUP1 \t\t\t\n              PUSH [tag] 250\t\t\t\n              JUMPI \t\t\t\n              POP \t\t\t\n              PUSH 0\t\t\t\n              PUSH FFFFFFFFFFFFFFFFFFFFFFFFFFFFFFFFFFFFFFFF\t\t\t\n              AND \t\t\t\n              DUP3 \t\t\t\n              PUSH FFFFFFFFFFFFFFFFFFFFFFFFFFFFFFFFFFFFFFFF\t\t\t\n              AND \t\t\t\n              EQ \t\t\t\n              ISZERO \t\t\t\n            tag 250\t\t\t\n              JUMPDEST \t\t\t\n              ISZERO \t\t\t\n              PUSH [tag] 251\t\t\t\n              JUMPI \t\t\t\n              PUSH 0\t\t\t\n              PUSH [tag] 252\t\t\t\n              DUP5 \t\t\t\n              PUSH [tag] 105\t\t\t\n              JUMP \t\t\t\n            tag 252\t\t\t\n              JUMPDEST \t\t\t\n              SWAP1 \t\t\t\n              POP \t\t\t\n              PUSH 0\t\t\t\n              PUSH FFFFFFFFFFFFFFFFFFFFFFFFFFFFFFFFFFFFFFFF\t\t\t\n              AND \t\t\t\n              DUP4 \t\t\t\n              PUSH FFFFFFFFFFFFFFFFFFFFFFFFFFFFFFFFFFFFFFFF\t\t\t\n              AND \t\t\t\n              EQ \t\t\t\n              ISZERO \t\t\t\n              DUP1 \t\t\t\n              ISZERO \t\t\t\n              PUSH [tag] 253\t\t\t\n              JUMPI \t\t\t\n              POP \t\t\t\n              DUP3 \t\t\t\n              PUSH FFFFFFFFFFFFFFFFFFFFFFFFFFFFFFFFFFFFFFFF\t\t\t\n              AND \t\t\t\n              DUP2 \t\t\t\n              PUSH FFFFFFFFFFFFFFFFFFFFFFFFFFFFFFFFFFFFFFFF\t\t\t\n              AND \t\t\t\n              EQ \t\t\t\n              ISZERO \t\t\t\n            tag 253\t\t\t\n              JUMPDEST \t\t\t\n              DUP1 \t\t\t\n              ISZERO \t\t\t\n              PUSH [tag] 254\t\t\t\n              JUMPI \t\t\t\n              POP \t\t\t\n              PUSH [tag] 255\t\t\t\n              DUP2 \t\t\t\n              DUP5 \t\t\t\n              PUSH [tag] 86\t\t\t\n              JUMP \t\t\t\n            tag 255\t\t\t\n              JUMPDEST \t\t\t\n              ISZERO \t\t\t\n            tag 254\t\t\t\n              JUMPDEST \t\t\t\n              ISZERO \t\t\t\n              PUSH [tag] 256\t\t\t\n              JUMPI \t\t\t\n              DUP3 \t\t\t\n              PUSH 40\t\t\t\n              MLOAD \t\t\t\n              PUSH A9FBF51F00000000000000000000000000000000000000000000000000000000\t\t\t\n              DUP2 \t\t\t\n              MSTORE \t\t\t\n              PUSH 4\t\t\t\n              ADD \t\t\t\n              PUSH [tag] 257\t\t\t\n              SWAP2 \t\t\t\n              SWAP1 \t\t\t\n              PUSH [tag] 38\t\t\t\n              JUMP \t\t\t\n            tag 257\t\t\t\n              JUMPDEST \t\t\t\n              PUSH 40\t\t\t\n              MLOAD \t\t\t\n              DUP1 \t\t\t\n              SWAP2 \t\t\t\n              SUB \t\t\t\n              SWAP1 \t\t\t\n              REVERT \t\t\t\n            tag 256\t\t\t\n              JUMPDEST \t\t\t\n              DUP2 \t\t\t\n              ISZERO \t\t\t\n              PUSH [tag] 258\t\t\t\n              JUMPI \t\t\t\n              DUP4 \t\t\t\n              DUP6 \t\t\t\n              PUSH FFFFFFFFFFFFFFFFFFFFFFFFFFFFFFFFFFFFFFFF\t\t\t\n              AND \t\t\t\n              DUP3 \t\t\t\n              PUSH FFFFFFFFFFFFFFFFFFFFFFFFFFFFFFFFFFFFFFFF\t\t\t\n              AND \t\t\t\n              PUSH 8C5BE1E5EBEC7D5BD14F71427D1E84F3DD0314C0F7B2291E5B200AC8C7C3B925\t\t\t\n              PUSH 40\t\t\t\n              MLOAD \t\t\t\n              PUSH 40\t\t\t\n              MLOAD \t\t\t\n              DUP1 \t\t\t\n              SWAP2 \t\t\t\n              SUB \t\t\t\n              SWAP1 \t\t\t\n              LOG4 \t\t\t\n            tag 258\t\t\t\n              JUMPDEST \t\t\t\n              POP \t\t\t\n            tag 251\t\t\t\n              JUMPDEST \t\t\t\n              DUP4 \t\t\t\n              PUSH 4\t\t\t\n              PUSH 0\t\t\t\n              DUP6 \t\t\t\n              DUP2 \t\t\t\n              MSTORE \t\t\t\n              PUSH 20\t\t\t\n              ADD \t\t\t\n              SWAP1 \t\t\t\n              DUP2 \t\t\t\n              MSTORE \t\t\t\n              PUSH 20\t\t\t\n              ADD \t\t\t\n              PUSH 0\t\t\t\n              KECCAK256 \t\t\t\n              PUSH 0\t\t\t\n              PUSH 100\t\t\t\n              EXP \t\t\t\n              DUP2 \t\t\t\n              SLOAD \t\t\t\n              DUP2 \t\t\t\n              PUSH FFFFFFFFFFFFFFFFFFFFFFFFFFFFFFFFFFFFFFFF\t\t\t\n              MUL \t\t\t\n              NOT \t\t\t\n              AND \t\t\t\n              SWAP1 \t\t\t\n              DUP4 \t\t\t\n              PUSH FFFFFFFFFFFFFFFFFFFFFFFFFFFFFFFFFFFFFFFF\t\t\t\n              AND \t\t\t\n              MUL \t\t\t\n              OR \t\t\t\n              SWAP1 \t\t\t\n              SSTORE \t\t\t\n              POP \t\t\t\n              POP \t\t\t\n              POP \t\t\t\n              POP \t\t\t\n              POP \t\t\t\n              JUMP \t\t\t\n            tag 189\t\t\t\n              JUMPDEST \t\t\t\n              PUSH [tag] 260\t\t\t\n              DUP4 \t\t\t\n              DUP4 \t\t\t\n              DUP4 \t\t\t\n              PUSH [tag] 261\t\t\t\n              JUMP \t\t\t\n            tag 260\t\t\t\n              JUMPDEST \t\t\t\n              PUSH [tag] 262\t\t\t\n              JUMPI \t\t\t\n              PUSH 0\t\t\t\n              PUSH FFFFFFFFFFFFFFFFFFFFFFFFFFFFFFFFFFFFFFFF\t\t\t\n              AND \t\t\t\n              DUP4 \t\t\t\n              PUSH FFFFFFFFFFFFFFFFFFFFFFFFFFFFFFFFFFFFFFFF\t\t\t\n              AND \t\t\t\n              SUB \t\t\t\n              PUSH [tag] 263\t\t\t\n              JUMPI \t\t\t\n              DUP1 \t\t\t\n              PUSH 40\t\t\t\n              MLOAD \t\t\t\n              PUSH 7E27328900000000000000000000000000000000000000000000000000000000\t\t\t\n              DUP2 \t\t\t\n              MSTORE \t\t\t\n              PUSH 4\t\t\t\n              ADD \t\t\t\n              PUSH [tag] 264\t\t\t\n              SWAP2 \t\t\t\n              SWAP1 \t\t\t\n              PUSH [tag] 62\t\t\t\n              JUMP \t\t\t\n            tag 264\t\t\t\n              JUMPDEST \t\t\t\n              PUSH 40\t\t\t\n              MLOAD \t\t\t\n              DUP1 \t\t\t\n              SWAP2 \t\t\t\n              SUB \t\t\t\n              SWAP1 \t\t\t\n              REVERT \t\t\t\n            tag 263\t\t\t\n              JUMPDEST \t\t\t\n              DUP2 \t\t\t\n              DUP2 \t\t\t\n              PUSH 40\t\t\t\n              MLOAD \t\t\t\n              PUSH 177E802F00000000000000000000000000000000000000000000000000000000\t\t\t\n              DUP2 \t\t\t\n              MSTORE \t\t\t\n              PUSH 4\t\t\t\n              ADD \t\t\t\n              PUSH [tag] 266\t\t\t\n              SWAP3 \t\t\t\n              SWAP2 \t\t\t\n              SWAP1 \t\t\t\n              PUSH [tag] 267\t\t\t\n              JUMP \t\t\t\n            tag 266\t\t\t\n              JUMPDEST \t\t\t\n              PUSH 40\t\t\t\n              MLOAD \t\t\t\n              DUP1 \t\t\t\n              SWAP2 \t\t\t\n              SUB \t\t\t\n              SWAP1 \t\t\t\n              REVERT \t\t\t\n            tag 262\t\t\t\n              JUMPDEST \t\t\t\n              POP \t\t\t\n              POP \t\t\t\n              POP \t\t\t\n              JUMP \t\t\t\n            tag 261\t\t\t\n              JUMPDEST \t\t\t\n              PUSH 0\t\t\t\n              DUP1 \t\t\t\n              PUSH FFFFFFFFFFFFFFFFFFFFFFFFFFFFFFFFFFFFFFFF\t\t\t\n              AND \t\t\t\n              DUP4 \t\t\t\n              PUSH FFFFFFFFFFFFFFFFFFFFFFFFFFFFFFFFFFFFFFFF\t\t\t\n              AND \t\t\t\n              EQ \t\t\t\n              ISZERO \t\t\t\n              DUP1 \t\t\t\n              ISZERO \t\t\t\n              PUSH [tag] 269\t\t\t\n              JUMPI \t\t\t\n              POP \t\t\t\n              DUP3 \t\t\t\n              PUSH FFFFFFFFFFFFFFFFFFFFFFFFFFFFFFFFFFFFFFFF\t\t\t\n              AND \t\t\t\n              DUP5 \t\t\t\n              PUSH FFFFFFFFFFFFFFFFFFFFFFFFFFFFFFFFFFFFFFFF\t\t\t\n              AND \t\t\t\n              EQ \t\t\t\n              DUP1 \t\t\t\n              PUSH [tag] 270\t\t\t\n              JUMPI \t\t\t\n              POP \t\t\t\n              PUSH [tag] 271\t\t\t\n              DUP5 \t\t\t\n              DUP5 \t\t\t\n              PUSH [tag] 86\t\t\t\n              JUMP \t\t\t\n            tag 271\t\t\t\n              JUMPDEST \t\t\t\n            tag 270\t\t\t\n              JUMPDEST \t\t\t\n              DUP1 \t\t\t\n              PUSH [tag] 272\t\t\t\n              JUMPI \t\t\t\n              POP \t\t\t\n              DUP3 \t\t\t\n              PUSH FFFFFFFFFFFFFFFFFFFFFFFFFFFFFFFFFFFFFFFF\t\t\t\n              AND \t\t\t\n              PUSH [tag] 273\t\t\t\n              DUP4 \t\t\t\n              PUSH [tag] 107\t\t\t\n              JUMP \t\t\t\n            tag 273\t\t\t\n              JUMPDEST \t\t\t\n              PUSH FFFFFFFFFFFFFFFFFFFFFFFFFFFFFFFFFFFFFFFF\t\t\t\n              AND \t\t\t\n              EQ \t\t\t\n            tag 272\t\t\t\n              JUMPDEST \t\t\t\n            tag 269\t\t\t\n              JUMPDEST \t\t\t\n              SWAP1 \t\t\t\n              POP \t\t\t\n              SWAP4 \t\t\t\n              SWAP3 \t\t\t\n              POP \t\t\t\n              POP \t\t\t\n              POP \t\t\t\n              JUMP \t\t\t\n            tag 274\t\t\t-License-Identifier: MIT\\nprag...\n              JUMPDEST \t\t\t-License-Identifier: MIT\\nprag...\n              PUSH 0\t\t\tolidit\n              PUSH 40\t\t\ten\n              MLOAD \t\t\tameToken}\n              SWAP1 \t\t\t\\nimport {GameToken}\n              POP \t\t\t\\nimport {GameToken}\n              SWAP1 \t\t\t-License-Identifier: MIT\\nprag...\n              JUMP \t\t\t-License-Identifier: MIT\\nprag...\n            tag 275\t\t\teToken.sol\";\\n\\ncontract GameF...\n              JUMPDEST \t\t\teToken.sol\";\\n\\ncontract GameF...\n              PUSH 0\t\t\tg\n              DUP1 \t\t\tr\n              REVERT \t\t\t     string \n            tag 276\t\t\t\\n        address indexed game...\n              JUMPDEST \t\t\t\\n        address indexed game...\n              PUSH 0\t\t\t\\n\n              DUP1 \t\t\tr\n              REVERT \t\t\ted buyer);\\n \n            tag 277\t\t\tatorFundsWithdrawn(address ind...\n              JUMPDEST \t\t\tatorFundsWithdrawn(address ind...\n              PUSH 0\t\t\treator)\n              PUSH FFFFFFFF00000000000000000000000000000000000000000000000000000000\t\t\t\\n    error GameAlreadyPublish...\n              DUP3 \t\t\tunds(\n              AND \t\t\tentFunds();\\n    error GameAlr...\n              SWAP1 \t\t\tr InsufficientFunds();\\n    er...\n              POP \t\t\tr InsufficientFunds();\\n    er...\n              SWAP2 \t\t\tatorFundsWithdrawn(address ind...\n              SWAP1 \t\t\tatorFundsWithdrawn(address ind...\n              POP \t\t\tatorFundsWithdrawn(address ind...\n              JUMP \t\t\tatorFundsWithdrawn(address ind...\n            tag 278\t\t\tdyBought();\\n\\n    struct Game...\n              JUMPDEST \t\t\tdyBought();\\n\\n    struct Game...\n              PUSH [tag] 335\t\t\tid;\\n        address tok\n              DUP2 \t\t\tss to\n              PUSH [tag] 277\t\t\tid;\\n        address tok\n              JUMP \t\t\tid;\\n        address tok\n            tag 335\t\t\tid;\\n        address tok\n              JUMPDEST \t\t\tid;\\n        address tok\n              DUP2 \t\t\ttring\n              EQ \t\t\t  string cid;\\n        address...\n              PUSH [tag] 336\t\t\tor;\\n        string cid;\\n    ...\n              JUMPI \t\t\tor;\\n        string cid;\\n    ...\n              PUSH 0\t\t\ti\n              DUP1 \t\t\ts\n              REVERT \t\t\t       strin\n            tag 336\t\t\tor;\\n        string cid;\\n    ...\n              JUMPDEST \t\t\tor;\\n        string cid;\\n    ...\n              POP \t\t\tdyBought();\\n\\n    struct Game...\n              JUMP \t\t\tdyBought();\\n\\n    struct Game...\n            tag 279\t\t\t  uint256 price;\\n        stri...\n              JUMPDEST \t\t\t  uint256 price;\\n        stri...\n              PUSH 0\t\t\t }\\n\\n \n              DUP2 \t\t\tt256 p\n              CALLDATALOAD \t\t\twner;\\n    uint256 pr\n              SWAP1 \t\t\tprivate owner;\\n    uint256 pr\n              POP \t\t\tprivate owner;\\n    uint256 pr\n              PUSH [tag] 338\t\t\t = 0;\\n\\n    mapping(string =>...\n              DUP2 \t\t\t=> Ga\n              PUSH [tag] 278\t\t\t = 0;\\n\\n    mapping(string =>...\n              JUMP \t\t\t = 0;\\n\\n    mapping(string =>...\n            tag 338\t\t\t = 0;\\n\\n    mapping(string =>...\n              JUMPDEST \t\t\t = 0;\\n\\n    mapping(string =>...\n              SWAP3 \t\t\t  uint256 price;\\n        stri...\n              SWAP2 \t\t\t  uint256 price;\\n        stri...\n              POP \t\t\t  uint256 price;\\n        stri...\n              POP \t\t\t  uint256 price;\\n        stri...\n              JUMP \t\t\t  uint256 price;\\n        stri...\n            tag 25\t\t\tames;\\n    string[] private ci...\n              JUMPDEST \t\t\tames;\\n    string[] private ci...\n              PUSH 0\t\t\tint256\n              PUSH 20\t\t\tnc\n              DUP3 \t\t\t// Helper\n              DUP5 \t\t\tce;\\n\\n  \n              SUB \t\t\talance;\\n\\n    // Helper \n              SLT \t\t\ttorbalance;\\n\\n    // Helper f...\n              ISZERO \t\t\treatorbalance;\\n\\n    // Helpe...\n              PUSH [tag] 340\t\t\treatorbalance;\\n\\n    // Helpe...\n              JUMPI \t\t\treatorbalance;\\n\\n    // Helpe...\n              PUSH [tag] 341\t\t\t to convert bytes32 array to s...\n              PUSH [tag] 275\t\t\t to convert bytes32 array to s...\n              JUMP \t\t\t to convert bytes32 array to s...\n            tag 341\t\t\t to convert bytes32 array to s...\n              JUMPDEST \t\t\t to convert bytes32 array to s...\n            tag 340\t\t\treatorbalance;\\n\\n    // Helpe...\n              JUMPDEST \t\t\treatorbalance;\\n\\n    // Helpe...\n              PUSH 0\t\t\te\n              PUSH [tag] 342\t\t\t memory)\\n    {\\n        bytes...\n              DUP5 \t\t\ty;\\n    \n              DUP3 \t\t\t byteA\n              DUP6 \t\t\tytes memo\n              ADD \t\t\t   bytes memory byteAr\n              PUSH [tag] 279\t\t\t memory)\\n    {\\n        bytes...\n              JUMP \t\t\t memory)\\n    {\\n        bytes...\n            tag 342\t\t\t memory)\\n    {\\n        bytes...\n              JUMPDEST \t\t\t memory)\\n    {\\n        bytes...\n              SWAP2 \t\t\tns (string memory)\\n    {\\n   ...\n              POP \t\t\tns (string memory)\\n    {\\n   ...\n              POP \t\t\t)\\n        private\\n        pu...\n              SWAP3 \t\t\tames;\\n    string[] private ci...\n              SWAP2 \t\t\tames;\\n    string[] private ci...\n              POP \t\t\tames;\\n    string[] private ci...\n              POP \t\t\tames;\\n    string[] private ci...\n              JUMP \t\t\tames;\\n    string[] private ci...\n            tag 280\t\t\ti < data.length; i++) {\\n     ...\n              JUMPDEST \t\t\ti < data.length; i++) {\\n     ...\n              PUSH 0\t\t\t  byteA\n              DUP2 \t\t\tata[i\n              ISZERO \t\t\trray, data[i]\n              ISZERO \t\t\td(byteArray, data[i])\n              SWAP1 \t\t\tencodePacked(byteArray, data[i...\n              POP \t\t\tencodePacked(byteArray, data[i...\n              SWAP2 \t\t\ti < data.length; i++) {\\n     ...\n              SWAP1 \t\t\ti < data.length; i++) {\\n     ...\n              POP \t\t\ti < data.length; i++) {\\n     ...\n              JUMP \t\t\ti < data.length; i++) {\\n     ...\n            tag 281\t\t\t        return string(byteArra...\n              JUMPDEST \t\t\t        return string(byteArra...\n              PUSH [tag] 345\t\t\t memory _cid,\\n       \n              DUP2 \t\t\t     \n              PUSH [tag] 280\t\t\t memory _cid,\\n       \n              JUMP \t\t\t memory _cid,\\n       \n            tag 345\t\t\t memory _cid,\\n       \n              JUMPDEST \t\t\t memory _cid,\\n       \n              DUP3 \t\t\ttri\n              MSTORE \t\t\t      string memory _cid,\\n   ...\n              POP \t\t\t        return string(byteArra...\n              POP \t\t\t        return string(byteArra...\n              JUMP \t\t\t        return string(byteArra...\n            tag 28\t\t\ty _name,\\n        string memor...\n              JUMPDEST \t\t\ty _name,\\n        string memor...\n              PUSH 0\t\t\tmage\n              PUSH 20\t\t\tam\n              DUP3 \t\t\t      if \n              ADD \t\t\t{\\n        if (game\n              SWAP1 \t\t\txternal {\\n        if (game\n              POP \t\t\txternal {\\n        if (game\n              PUSH [tag] 347\t\t\teator != address(0)) {\\n      ...\n              PUSH 0\t\t\t(\n              DUP4 \t\t\tdyPublish\n              ADD \t\t\tlreadyPublished()\n              DUP5 \t\t\tert Ga\n              PUSH [tag] 281\t\t\teator != address(0)) {\\n      ...\n              JUMP \t\t\teator != address(0)) {\\n      ...\n            tag 347\t\t\teator != address(0)) {\\n      ...\n              JUMPDEST \t\t\teator != address(0)) {\\n      ...\n              SWAP3 \t\t\ty _name,\\n        string memor...\n              SWAP2 \t\t\ty _name,\\n        string memor...\n              POP \t\t\ty _name,\\n        string memor...\n              POP \t\t\ty _name,\\n        string memor...\n              JUMP \t\t\ty _name,\\n        string memor...\n            tag 282\t\t\t       GameToken gameToken = n...\n              JUMPDEST \t\t\t       GameToken gameToken = n...\n              PUSH 0\t\t\tymbol,\n              DUP2 \t\t\ten.mi\n              MLOAD \t\t\tameToken.min\n              SWAP1 \t\t\t\\n        gameToken.min\n              POP \t\t\t\\n        gameToken.min\n              SWAP2 \t\t\t       GameToken gameToken = n...\n              SWAP1 \t\t\t       GameToken gameToken = n...\n              POP \t\t\t       GameToken gameToken = n...\n              JUMP \t\t\t       GameToken gameToken = n...\n            tag 283\t\t\t;\\n\\n        games[_cid] = Gam...\n              JUMPDEST \t\t\t;\\n\\n        games[_cid] = Gam...\n              PUSH 0\t\t\t address(ga\n              DUP3 \t\t\tname,\\n\n              DUP3 \t\t\t   \n              MSTORE \t\t\t           _name,\\n \n              PUSH 20\t\t\tageU\n              DUP3 \t\t\t  _\n              ADD \t\t\t      _imageUr\n              SWAP1 \t\t\t  price,\\n            _imageUr\n              POP \t\t\t  price,\\n            _imageUr\n              SWAP3 \t\t\t;\\n\\n        games[_cid] = Gam...\n              SWAP2 \t\t\t;\\n\\n        games[_cid] = Gam...\n              POP \t\t\t;\\n\\n        games[_cid] = Gam...\n              POP \t\t\t;\\n\\n        games[_cid] = Gam...\n              JUMP \t\t\t;\\n\\n        games[_cid] = Gam...\n            tag 284\t\t\t\\n        cids.push(_cid);\\n  ...\n              JUMPDEST \t\t\t\\n        cids.push(_cid);\\n  ...\n              DUP3 \t\t\tmeToke\n              DUP2 \t\t\tss(\n              DUP4 \t\t\tadd\n              MCOPY \t\t\t_cid, address(gameToken\n              PUSH 0\t\t\tr\n              DUP4 \t\t\tuyGame\n              DUP4 \t\t\tion\n              ADD \t\t\tunction buyGame(\n              MSTORE \t\t\t\\n\\n    function buyGame(stri\n              POP \t\t\t\\n        cids.push(_cid);\\n  ...\n              POP \t\t\t\\n        cids.push(_cid);\\n  ...\n              POP \t\t\t\\n        cids.push(_cid);\\n  ...\n              JUMP \t\t\t\\n        cids.push(_cid);\\n  ...\n            tag 285\t\t\td) external payable {\\n       ...\n              JUMPDEST \t\t\td) external payable {\\n       ...\n              PUSH 0\t\t\t _game\n              PUSH 1F\t\t\t G\n              NOT \t\t\ten = Ga\n              PUSH 1F\t\t\tme\n              DUP4 \t\t\token \n              ADD \t\t\tameToken gameT\n              AND \t\t\t   GameToken gameToken = Gam\n              SWAP1 \t\t\tid];\\n        GameToken gameTo...\n              POP \t\t\tid];\\n        GameToken gameTo...\n              SWAP2 \t\t\td) external payable {\\n       ...\n              SWAP1 \t\t\td) external payable {\\n       ...\n              POP \t\t\td) external payable {\\n       ...\n              JUMP \t\t\td) external payable {\\n       ...\n            tag 286\t\t\t.token);\\n\\n        if (_game....\n              JUMPDEST \t\t\t.token);\\n\\n        if (_game....\n              PUSH 0\t\t\t   \n              PUSH [tag] 353\t\t\tken.balanceOf(msg.sender) >= 1...\n              DUP3 \t\t\t\\n    \n              PUSH [tag] 282\t\t\tken.balanceOf(msg.sender) >= 1...\n              JUMP \t\t\tken.balanceOf(msg.sender) >= 1...\n            tag 353\t\t\tken.balanceOf(msg.sender) >= 1...\n              JUMPDEST \t\t\tken.balanceOf(msg.sender) >= 1...\n              PUSH [tag] 354\t\t\tmeAlreadyBought();\\n        }\\...\n              DUP2 \t\t\te) {\\n \n              DUP6 \t\t\t.pr\n              PUSH [tag] 283\t\t\tmeAlreadyBought();\\n        }\\...\n              JUMP \t\t\tmeAlreadyBought();\\n        }\\...\n            tag 354\t\t\tmeAlreadyBought();\\n        }\\...\n              JUMPDEST \t\t\tmeAlreadyBought();\\n        }\\...\n              SWAP4 \t\t\tvert GameAlreadyBought();\\n   ...\n              POP \t\t\tvert GameAlreadyBought();\\n   ...\n              PUSH [tag] 355\t\t\t revert InsufficientFunds();\\n...\n              DUP2 \t\t\tance[_\n              DUP6 \t\t\torb\n              PUSH 20\t\t\t  cr\n              DUP7 \t\t\t\\n    \n              ADD \t\t\t  }\\n\\n        cre\n              PUSH [tag] 284\t\t\t revert InsufficientFunds();\\n...\n              JUMP \t\t\t revert InsufficientFunds();\\n...\n            tag 355\t\t\t revert InsufficientFunds();\\n...\n              JUMPDEST \t\t\t revert InsufficientFunds();\\n...\n              PUSH [tag] 356\t\t\tce;\\n        gameToken.mint(ms\n              DUP2 \t\t\tmint(m\n              PUSH [tag] 285\t\t\tce;\\n        gameToken.mint(ms\n              JUMP \t\t\tce;\\n        gameToken.mint(ms\n            tag 356\t\t\tce;\\n        gameToken.mint(ms\n              JUMPDEST \t\t\tce;\\n        gameToken.mint(ms\n              DUP5 \t\t\te.p\n              ADD \t\t\t_game.price;\\n        gameToke...\n              SWAP2 \t\t\tor] += _game.price;\\n        g...\n              POP \t\t\tor] += _game.price;\\n        g...\n              POP \t\t\t   }\\n\\n        if (gameToken....\n              SWAP3 \t\t\t.token);\\n\\n        if (_game....\n              SWAP2 \t\t\t.token);\\n\\n        if (_game....\n              POP \t\t\t.token);\\n\\n        if (_game....\n              POP \t\t\t.token);\\n\\n        if (_game....\n              JUMP \t\t\t.token);\\n\\n        if (_game....\n            tag 32\t\t\t       emit GamePurchased(_cid...\n              JUMPDEST \t\t\t       emit GamePurchased(_cid...\n              PUSH 0\t\t\teato\n              PUSH 20\t\t\t  \n              DUP3 \t\t\t 0) {\\n   \n              ADD \t\t\t] == 0) {\\n        \n              SWAP1 \t\t\tg.sender] == 0) {\\n        \n              POP \t\t\tg.sender] == 0) {\\n        \n              DUP2 \t\t\t    payab\n              DUP2 \t\t\t}\\n  \n              SUB \t\t\t    }\\n        payabl\n              PUSH 0\t\t\t \n              DUP4 \t\t\tntFunds()\n              ADD \t\t\ticientFunds();\\n  \n              MSTORE \t\t\t InsufficientFunds();\\n       ...\n              PUSH [tag] 358\t\t\tsfer(creatorbalance[msg.sender...\n              DUP2 \t\t\t\\n\\n  \n              DUP5 \t\t\tder] =\n              PUSH [tag] 286\t\t\tsfer(creatorbalance[msg.sender...\n              JUMP \t\t\tsfer(creatorbalance[msg.sender...\n            tag 358\t\t\tsfer(creatorbalance[msg.sender...\n              JUMPDEST \t\t\tsfer(creatorbalance[msg.sender...\n              SWAP1 \t\t\ter).transfer(creatorbalance[ms...\n              POP \t\t\ter).transfer(creatorbalance[ms...\n              SWAP3 \t\t\t       emit GamePurchased(_cid...\n              SWAP2 \t\t\t       emit GamePurchased(_cid...\n              POP \t\t\t       emit GamePurchased(_cid...\n              POP \t\t\t       emit GamePurchased(_cid...\n              JUMP \t\t\t       emit GamePurchased(_cid...\n            tag 287\t\t\tatorFundsWithdrawn(msg.sender)...\n              JUMPDEST \t\t\tatorFundsWithdrawn(msg.sender)...\n              PUSH 0\t\t\t\\n\\n    /\n              DUP2 \t\t\tuncti\n              SWAP1 \t\t\ttions\\n    functi\n              POP \t\t\ttions\\n    functi\n              SWAP2 \t\t\tatorFundsWithdrawn(msg.sender)...\n              SWAP1 \t\t\tatorFundsWithdrawn(msg.sender)...\n              POP \t\t\tatorFundsWithdrawn(msg.sender)...\n              JUMP \t\t\tatorFundsWithdrawn(msg.sender)...\n            tag 288\t\t\ted(string memory _cid) externa...\n              JUMPDEST \t\t\ted(string memory _cid) externa...\n              PUSH [tag] 361\t\t\tenAddress = games[_cid].\n              DUP2 \t\t\t_cid]\n              PUSH [tag] 287\t\t\tenAddress = games[_cid].\n              JUMP \t\t\tenAddress = games[_cid].\n            tag 361\t\t\tenAddress = games[_cid].\n              JUMPDEST \t\t\tenAddress = games[_cid].\n              DUP2 \t\t\tess t\n              EQ \t\t\tddress tokenAddress = games[_c...\n              PUSH [tag] 362\t\t\t\\n        address tokenAddress...\n              JUMPI \t\t\t\\n        address tokenAddress...\n              PUSH 0\t\t\ti\n              DUP1 \t\t\t \n              REVERT \t\t\t;\\n        if\n            tag 362\t\t\t\\n        address tokenAddress...\n              JUMPDEST \t\t\t\\n        address tokenAddress...\n              POP \t\t\ted(string memory _cid) externa...\n              JUMP \t\t\ted(string memory _cid) externa...\n            tag 289\t\t\t == address(0)) {\\n           ...\n              JUMPDEST \t\t\t == address(0)) {\\n           ...\n              PUSH 0\t\t\tme();\n              DUP2 \t\t\tToken \n              CALLDATALOAD \t\t\tameToken gameToken =\n              SWAP1 \t\t\t        GameToken gameToken =\n              POP \t\t\t        GameToken gameToken =\n              PUSH [tag] 364\t\t\tn(tokenAddress);\\n        retu...\n              DUP2 \t\t\tturn \n              PUSH [tag] 288\t\t\tn(tokenAddress);\\n        retu...\n              JUMP \t\t\tn(tokenAddress);\\n        retu...\n            tag 364\t\t\tn(tokenAddress);\\n        retu...\n              JUMPDEST \t\t\tn(tokenAddress);\\n        retu...\n              SWAP3 \t\t\t == address(0)) {\\n           ...\n              SWAP2 \t\t\t == address(0)) {\\n           ...\n              POP \t\t\t == address(0)) {\\n           ...\n              POP \t\t\t == address(0)) {\\n           ...\n              JUMP \t\t\t == address(0)) {\\n           ...\n            tag 35\t\t\tanceOf(msg.sender) >= 1;\\n    ...\n              JUMPDEST \t\t\tanceOf(msg.sender) >= 1;\\n    ...\n              PUSH 0\t\t\ternal \n              PUSH 20\t\t\t[]\n              DUP3 \t\t\t        G\n              DUP5 \t\t\temory) \n              SUB \t\t\t[] memory) {\\n        Ga\n              SLT \t\t\tGame[] memory) {\\n        Game...\n              ISZERO \t\t\ts (Game[] memory) {\\n        G...\n              PUSH [tag] 366\t\t\ts (Game[] memory) {\\n        G...\n              JUMPI \t\t\ts (Game[] memory) {\\n        G...\n              PUSH [tag] 367\t\t\tory _games = new Game[](cids.l...\n              PUSH [tag] 275\t\t\tory _games = new Game[](cids.l...\n              JUMP \t\t\tory _games = new Game[](cids.l...\n            tag 367\t\t\tory _games = new Game[](cids.l...\n              JUMPDEST \t\t\tory _games = new Game[](cids.l...\n            tag 366\t\t\ts (Game[] memory) {\\n        G...\n              JUMPDEST \t\t\ts (Game[] memory) {\\n        G...\n              PUSH 0\t\t\tc\n              PUSH [tag] 368\t\t\t    return _games;\\n    }\\n\\n ...\n              DUP5 \t\t\teByCid(\n              DUP3 \t\t\ton get\n              DUP6 \t\t\t\\n    func\n              ADD \t\t\t  }\\n\\n    function getG\n              PUSH [tag] 289\t\t\t    return _games;\\n    }\\n\\n ...\n              JUMP \t\t\t    return _games;\\n    }\\n\\n ...\n            tag 368\t\t\t    return _games;\\n    }\\n\\n ...\n              JUMPDEST \t\t\t    return _games;\\n    }\\n\\n ...\n              SWAP2 \t\t\t   }\\n\\n        return _games;...\n              POP \t\t\t   }\\n\\n        return _games;...\n              POP \t\t\t           _games[i] = games[c...\n              SWAP3 \t\t\tanceOf(msg.sender) >= 1;\\n    ...\n              SWAP2 \t\t\tanceOf(msg.sender) >= 1;\\n    ...\n              POP \t\t\tanceOf(msg.sender) >= 1;\\n    ...\n              POP \t\t\tanceOf(msg.sender) >= 1;\\n    ...\n              JUMP \t\t\tanceOf(msg.sender) >= 1;\\n    ...\n            tag 290\t\t\t    external\\n        view\\n  ...\n              JUMPDEST \t\t\t    external\\n        view\\n  ...\n              PUSH 0\t\t\turns (G\n              PUSH FFFFFFFFFFFFFFFFFFFFFFFFFFFFFFFFFFFFFFFF\t\t\tmory _game = games[_cid];\\n   ...\n              DUP3 \t\t\tGame \n              AND \t\t\t    Game memory _game = games[...\n              SWAP1 \t\t\t\\n    {\\n        Game memory _...\n              POP \t\t\t\\n    {\\n        Game memory _...\n              SWAP2 \t\t\t    external\\n        view\\n  ...\n              SWAP1 \t\t\t    external\\n        view\\n  ...\n              POP \t\t\t    external\\n        view\\n  ...\n              JUMP \t\t\t    external\\n        view\\n  ...\n            tag 291\t\t\taddress(0)) {\\n            rev...\n              JUMPDEST \t\t\taddress(0)) {\\n            rev...\n              PUSH 0\t\t\tlidGame\n              PUSH [tag] 371\t\t\treturn _game;\\n    }\\n\\n   \n              DUP3 \t\t\t}\\n\\n  \n              PUSH [tag] 290\t\t\treturn _game;\\n    }\\n\\n   \n              JUMP \t\t\treturn _game;\\n    }\\n\\n   \n            tag 371\t\t\treturn _game;\\n    }\\n\\n   \n              JUMPDEST \t\t\treturn _game;\\n    }\\n\\n   \n              SWAP1 \t\t\t }\\n        return _game;\\n   ...\n              POP \t\t\t }\\n        return _game;\\n   ...\n              SWAP2 \t\t\taddress(0)) {\\n            rev...\n              SWAP1 \t\t\taddress(0)) {\\n            rev...\n              POP \t\t\taddress(0)) {\\n            rev...\n              JUMP \t\t\taddress(0)) {\\n            rev...\n            tag 292\t\t\ttTokenAddressByCid(string memo...\n              JUMPDEST \t\t\ttTokenAddressByCid(string memo...\n              PUSH [tag] 373\t\t\tames[_cid].token;\\n    }\\n\n              DUP2 \t\t\t    }\n              PUSH [tag] 291\t\t\tames[_cid].token;\\n    }\\n\n              JUMP \t\t\tames[_cid].token;\\n    }\\n\n            tag 373\t\t\tames[_cid].token;\\n    }\\n\n              JUMPDEST \t\t\tames[_cid].token;\\n    }\\n\n              DUP3 \t\t\turn\n              MSTORE \t\t\t    return games[_cid].token;\\...\n              POP \t\t\ttTokenAddressByCid(string memo...\n              POP \t\t\ttTokenAddressByCid(string memo...\n              JUMP \t\t\ttTokenAddressByCid(string memo...\n            tag 38\t\t\t getGameListLength() external ...\n              JUMPDEST \t\t\t getGameListLength() external ...\n              PUSH 0\t\t\t\n              PUSH 20\t\t\t\n              DUP3 \t\t\t\n              ADD \t\t\t\n              SWAP1 \t\t\t\n              POP \t\t\t\n              PUSH [tag] 375\t\t\t\n              PUSH 0\t\t\t\n              DUP4 \t\t\t\n              ADD \t\t\t\n              DUP5 \t\t\t\n              PUSH [tag] 292\t\t\t\n              JUMP \t\t\t\n            tag 375\t\t\t\n              JUMPDEST \t\t\t\n              SWAP3 \t\t\t getGameListLength() external ...\n              SWAP2 \t\t\t getGameListLength() external ...\n              POP \t\t\t getGameListLength() external ...\n              POP \t\t\t getGameListLength() external ...\n              JUMP \t\t\t getGameListLength() external ...\n            tag 293\t\t\t\n              JUMPDEST \t\t\t\n              PUSH [tag] 377\t\t\t\n              DUP2 \t\t\t\n              PUSH [tag] 291\t\t\t\n              JUMP \t\t\t\n            tag 377\t\t\t\n              JUMPDEST \t\t\t\n              DUP2 \t\t\t\n              EQ \t\t\t\n              PUSH [tag] 378\t\t\t\n              JUMPI \t\t\t\n              PUSH 0\t\t\t\n              DUP1 \t\t\t\n              REVERT \t\t\t\n            tag 378\t\t\t\n              JUMPDEST \t\t\t\n              POP \t\t\t\n              JUMP \t\t\t\n            tag 294\t\t\t\n              JUMPDEST \t\t\t\n              PUSH 0\t\t\t\n              DUP2 \t\t\t\n              CALLDATALOAD \t\t\t\n              SWAP1 \t\t\t\n              POP \t\t\t\n              PUSH [tag] 380\t\t\t\n              DUP2 \t\t\t\n              PUSH [tag] 293\t\t\t\n              JUMP \t\t\t\n            tag 380\t\t\t\n              JUMPDEST \t\t\t\n              SWAP3 \t\t\t\n              SWAP2 \t\t\t\n              POP \t\t\t\n              POP \t\t\t\n              JUMP \t\t\t\n            tag 41\t\t\t\n              JUMPDEST \t\t\t\n              PUSH 0\t\t\t\n              DUP1 \t\t\t\n              PUSH 40\t\t\t\n              DUP4 \t\t\t\n              DUP6 \t\t\t\n              SUB \t\t\t\n              SLT \t\t\t\n              ISZERO \t\t\t\n              PUSH [tag] 382\t\t\t\n              JUMPI \t\t\t\n              PUSH [tag] 383\t\t\t\n              PUSH [tag] 275\t\t\t\n              JUMP \t\t\t\n            tag 383\t\t\t\n              JUMPDEST \t\t\t\n            tag 382\t\t\t\n              JUMPDEST \t\t\t\n              PUSH 0\t\t\t\n              PUSH [tag] 384\t\t\t\n              DUP6 \t\t\t\n              DUP3 \t\t\t\n              DUP7 \t\t\t\n              ADD \t\t\t\n              PUSH [tag] 294\t\t\t\n              JUMP \t\t\t\n            tag 384\t\t\t\n              JUMPDEST \t\t\t\n              SWAP3 \t\t\t\n              POP \t\t\t\n              POP \t\t\t\n              PUSH 20\t\t\t\n              PUSH [tag] 385\t\t\t\n              DUP6 \t\t\t\n              DUP3 \t\t\t\n              DUP7 \t\t\t\n              ADD \t\t\t\n              PUSH [tag] 289\t\t\t\n              JUMP \t\t\t\n            tag 385\t\t\t\n              JUMPDEST \t\t\t\n              SWAP2 \t\t\t\n              POP \t\t\t\n              POP \t\t\t\n              SWAP3 \t\t\t\n              POP \t\t\t\n              SWAP3 \t\t\t\n              SWAP1 \t\t\t\n              POP \t\t\t\n              JUMP \t\t\t\n            tag 45\t\t\t\n              JUMPDEST \t\t\t\n              PUSH 0\t\t\t\n              DUP1 \t\t\t\n              PUSH 0\t\t\t\n              PUSH 60\t\t\t\n              DUP5 \t\t\t\n              DUP7 \t\t\t\n              SUB \t\t\t\n              SLT \t\t\t\n              ISZERO \t\t\t\n              PUSH [tag] 387\t\t\t\n              JUMPI \t\t\t\n              PUSH [tag] 388\t\t\t\n              PUSH [tag] 275\t\t\t\n              JUMP \t\t\t\n            tag 388\t\t\t\n              JUMPDEST \t\t\t\n            tag 387\t\t\t\n              JUMPDEST \t\t\t\n              PUSH 0\t\t\t\n              PUSH [tag] 389\t\t\t\n              DUP7 \t\t\t\n              DUP3 \t\t\t\n              DUP8 \t\t\t\n              ADD \t\t\t\n              PUSH [tag] 294\t\t\t\n              JUMP \t\t\t\n            tag 389\t\t\t\n              JUMPDEST \t\t\t\n              SWAP4 \t\t\t\n              POP \t\t\t\n              POP \t\t\t\n              PUSH 20\t\t\t\n              PUSH [tag] 390\t\t\t\n              DUP7 \t\t\t\n              DUP3 \t\t\t\n              DUP8 \t\t\t\n              ADD \t\t\t\n              PUSH [tag] 294\t\t\t\n              JUMP \t\t\t\n            tag 390\t\t\t\n              JUMPDEST \t\t\t\n              SWAP3 \t\t\t\n              POP \t\t\t\n              POP \t\t\t\n              PUSH 40\t\t\t\n              PUSH [tag] 391\t\t\t\n              DUP7 \t\t\t\n              DUP3 \t\t\t\n              DUP8 \t\t\t\n              ADD \t\t\t\n              PUSH [tag] 289\t\t\t\n              JUMP \t\t\t\n            tag 391\t\t\t\n              JUMPDEST \t\t\t\n              SWAP2 \t\t\t\n              POP \t\t\t\n              POP \t\t\t\n              SWAP3 \t\t\t\n              POP \t\t\t\n              SWAP3 \t\t\t\n              POP \t\t\t\n              SWAP3 \t\t\t\n              JUMP \t\t\t\n            tag 56\t\t\t\n              JUMPDEST \t\t\t\n              PUSH 0\t\t\t\n              PUSH 20\t\t\t\n              DUP3 \t\t\t\n              DUP5 \t\t\t\n              SUB \t\t\t\n              SLT \t\t\t\n              ISZERO \t\t\t\n              PUSH [tag] 393\t\t\t\n              JUMPI \t\t\t\n              PUSH [tag] 394\t\t\t\n              PUSH [tag] 275\t\t\t\n              JUMP \t\t\t\n            tag 394\t\t\t\n              JUMPDEST \t\t\t\n            tag 393\t\t\t\n              JUMPDEST \t\t\t\n              PUSH 0\t\t\t\n              PUSH [tag] 395\t\t\t\n              DUP5 \t\t\t\n              DUP3 \t\t\t\n              DUP6 \t\t\t\n              ADD \t\t\t\n              PUSH [tag] 294\t\t\t\n              JUMP \t\t\t\n            tag 395\t\t\t\n              JUMPDEST \t\t\t\n              SWAP2 \t\t\t\n              POP \t\t\t\n              POP \t\t\t\n              SWAP3 \t\t\t\n              SWAP2 \t\t\t\n              POP \t\t\t\n              POP \t\t\t\n              JUMP \t\t\t\n            tag 295\t\t\t\n              JUMPDEST \t\t\t\n              PUSH [tag] 397\t\t\t\n              DUP2 \t\t\t\n              PUSH [tag] 287\t\t\t\n              JUMP \t\t\t\n            tag 397\t\t\t\n              JUMPDEST \t\t\t\n              DUP3 \t\t\t\n              MSTORE \t\t\t\n              POP \t\t\t\n              POP \t\t\t\n              JUMP \t\t\t\n            tag 62\t\t\t\n              JUMPDEST \t\t\t\n              PUSH 0\t\t\t\n              PUSH 20\t\t\t\n              DUP3 \t\t\t\n              ADD \t\t\t\n              SWAP1 \t\t\t\n              POP \t\t\t\n              PUSH [tag] 399\t\t\t\n              PUSH 0\t\t\t\n              DUP4 \t\t\t\n              ADD \t\t\t\n              DUP5 \t\t\t\n              PUSH [tag] 295\t\t\t\n              JUMP \t\t\t\n            tag 399\t\t\t\n              JUMPDEST \t\t\t\n              SWAP3 \t\t\t\n              SWAP2 \t\t\t\n              POP \t\t\t\n              POP \t\t\t\n              JUMP \t\t\t\n            tag 296\t\t\t\n              JUMPDEST \t\t\t\n              PUSH [tag] 401\t\t\t\n              DUP2 \t\t\t\n              PUSH [tag] 280\t\t\t\n              JUMP \t\t\t\n            tag 401\t\t\t\n              JUMPDEST \t\t\t\n              DUP2 \t\t\t\n              EQ \t\t\t\n              PUSH [tag] 402\t\t\t\n              JUMPI \t\t\t\n              PUSH 0\t\t\t\n              DUP1 \t\t\t\n              REVERT \t\t\t\n            tag 402\t\t\t\n              JUMPDEST \t\t\t\n              POP \t\t\t\n              JUMP \t\t\t\n            tag 297\t\t\t\n              JUMPDEST \t\t\t\n              PUSH 0\t\t\t\n              DUP2 \t\t\t\n              CALLDATALOAD \t\t\t\n              SWAP1 \t\t\t\n              POP \t\t\t\n              PUSH [tag] 404\t\t\t\n              DUP2 \t\t\t\n              PUSH [tag] 296\t\t\t\n              JUMP \t\t\t\n            tag 404\t\t\t\n              JUMPDEST \t\t\t\n              SWAP3 \t\t\t\n              SWAP2 \t\t\t\n              POP \t\t\t\n              POP \t\t\t\n              JUMP \t\t\t\n            tag 73\t\t\t\n              JUMPDEST \t\t\t\n              PUSH 0\t\t\t\n              DUP1 \t\t\t\n              PUSH 40\t\t\t\n              DUP4 \t\t\t\n              DUP6 \t\t\t\n              SUB \t\t\t\n              SLT \t\t\t\n              ISZERO \t\t\t\n              PUSH [tag] 406\t\t\t\n              JUMPI \t\t\t\n              PUSH [tag] 407\t\t\t\n              PUSH [tag] 275\t\t\t\n              JUMP \t\t\t\n            tag 407\t\t\t\n              JUMPDEST \t\t\t\n            tag 406\t\t\t\n              JUMPDEST \t\t\t\n              PUSH 0\t\t\t\n              PUSH [tag] 408\t\t\t\n              DUP6 \t\t\t\n              DUP3 \t\t\t\n              DUP7 \t\t\t\n              ADD \t\t\t\n              PUSH [tag] 294\t\t\t\n              JUMP \t\t\t\n            tag 408\t\t\t\n              JUMPDEST \t\t\t\n              SWAP3 \t\t\t\n              POP \t\t\t\n              POP \t\t\t\n              PUSH 20\t\t\t\n              PUSH [tag] 409\t\t\t\n              DUP6 \t\t\t\n              DUP3 \t\t\t\n              DUP7 \t\t\t\n              ADD \t\t\t\n              PUSH [tag] 297\t\t\t\n              JUMP \t\t\t\n            tag 409\t\t\t\n              JUMPDEST \t\t\t\n              SWAP2 \t\t\t\n              POP \t\t\t\n              POP \t\t\t\n              SWAP3 \t\t\t\n              POP \t\t\t\n              SWAP3 \t\t\t\n              SWAP1 \t\t\t\n              POP \t\t\t\n              JUMP \t\t\t\n            tag 298\t\t\t\n              JUMPDEST \t\t\t\n              PUSH 0\t\t\t\n              DUP1 \t\t\t\n              REVERT \t\t\t\n            tag 299\t\t\t\n              JUMPDEST \t\t\t\n              PUSH 0\t\t\t\n              DUP1 \t\t\t\n              REVERT \t\t\t\n            tag 240\t\t\t\n              JUMPDEST \t\t\t\n              PUSH 4E487B7100000000000000000000000000000000000000000000000000000000\t\t\t\n              PUSH 0\t\t\t\n              MSTORE \t\t\t\n              PUSH 41\t\t\t\n              PUSH 4\t\t\t\n              MSTORE \t\t\t\n              PUSH 24\t\t\t\n              PUSH 0\t\t\t\n              REVERT \t\t\t\n            tag 300\t\t\t\n              JUMPDEST \t\t\t\n              PUSH [tag] 414\t\t\t\n              DUP3 \t\t\t\n              PUSH [tag] 285\t\t\t\n              JUMP \t\t\t\n            tag 414\t\t\t\n              JUMPDEST \t\t\t\n              DUP2 \t\t\t\n              ADD \t\t\t\n              DUP2 \t\t\t\n              DUP2 \t\t\t\n              LT \t\t\t\n              PUSH FFFFFFFFFFFFFFFF\t\t\t\n              DUP3 \t\t\t\n              GT \t\t\t\n              OR \t\t\t\n              ISZERO \t\t\t\n              PUSH [tag] 415\t\t\t\n              JUMPI \t\t\t\n              PUSH [tag] 416\t\t\t\n              PUSH [tag] 240\t\t\t\n              JUMP \t\t\t\n            tag 416\t\t\t\n              JUMPDEST \t\t\t\n            tag 415\t\t\t\n              JUMPDEST \t\t\t\n              DUP1 \t\t\t\n              PUSH 40\t\t\t\n              MSTORE \t\t\t\n              POP \t\t\t\n              POP \t\t\t\n              POP \t\t\t\n              JUMP \t\t\t\n            tag 301\t\t\t\n              JUMPDEST \t\t\t\n              PUSH 0\t\t\t\n              PUSH [tag] 418\t\t\t\n              PUSH [tag] 274\t\t\t\n              JUMP \t\t\t\n            tag 418\t\t\t\n              JUMPDEST \t\t\t\n              SWAP1 \t\t\t\n              POP \t\t\t\n              PUSH [tag] 419\t\t\t\n              DUP3 \t\t\t\n              DUP3 \t\t\t\n              PUSH [tag] 300\t\t\t\n              JUMP \t\t\t\n            tag 419\t\t\t\n              JUMPDEST \t\t\t\n              SWAP2 \t\t\t\n              SWAP1 \t\t\t\n              POP \t\t\t\n              JUMP \t\t\t\n            tag 302\t\t\t\n              JUMPDEST \t\t\t\n              PUSH 0\t\t\t\n              PUSH FFFFFFFFFFFFFFFF\t\t\t\n              DUP3 \t\t\t\n              GT \t\t\t\n              ISZERO \t\t\t\n              PUSH [tag] 421\t\t\t\n              JUMPI \t\t\t\n              PUSH [tag] 422\t\t\t\n              PUSH [tag] 240\t\t\t\n              JUMP \t\t\t\n            tag 422\t\t\t\n              JUMPDEST \t\t\t\n            tag 421\t\t\t\n              JUMPDEST \t\t\t\n              PUSH [tag] 423\t\t\t\n              DUP3 \t\t\t\n              PUSH [tag] 285\t\t\t\n              JUMP \t\t\t\n            tag 423\t\t\t\n              JUMPDEST \t\t\t\n              SWAP1 \t\t\t\n              POP \t\t\t\n              PUSH 20\t\t\t\n              DUP2 \t\t\t\n              ADD \t\t\t\n              SWAP1 \t\t\t\n              POP \t\t\t\n              SWAP2 \t\t\t\n              SWAP1 \t\t\t\n              POP \t\t\t\n              JUMP \t\t\t\n            tag 303\t\t\t\n              JUMPDEST \t\t\t\n              DUP3 \t\t\t\n              DUP2 \t\t\t\n              DUP4 \t\t\t\n              CALLDATACOPY \t\t\t\n              PUSH 0\t\t\t\n              DUP4 \t\t\t\n              DUP4 \t\t\t\n              ADD \t\t\t\n              MSTORE \t\t\t\n              POP \t\t\t\n              POP \t\t\t\n              POP \t\t\t\n              JUMP \t\t\t\n            tag 304\t\t\t\n              JUMPDEST \t\t\t\n              PUSH 0\t\t\t\n              PUSH [tag] 426\t\t\t\n              PUSH [tag] 427\t\t\t\n              DUP5 \t\t\t\n              PUSH [tag] 302\t\t\t\n              JUMP \t\t\t\n            tag 427\t\t\t\n              JUMPDEST \t\t\t\n              PUSH [tag] 301\t\t\t\n              JUMP \t\t\t\n            tag 426\t\t\t\n              JUMPDEST \t\t\t\n              SWAP1 \t\t\t\n              POP \t\t\t\n              DUP3 \t\t\t\n              DUP2 \t\t\t\n              MSTORE \t\t\t\n              PUSH 20\t\t\t\n              DUP2 \t\t\t\n              ADD \t\t\t\n              DUP5 \t\t\t\n              DUP5 \t\t\t\n              DUP5 \t\t\t\n              ADD \t\t\t\n              GT \t\t\t\n              ISZERO \t\t\t\n              PUSH [tag] 428\t\t\t\n              JUMPI \t\t\t\n              PUSH [tag] 429\t\t\t\n              PUSH [tag] 299\t\t\t\n              JUMP \t\t\t\n            tag 429\t\t\t\n              JUMPDEST \t\t\t\n            tag 428\t\t\t\n              JUMPDEST \t\t\t\n              PUSH [tag] 430\t\t\t\n              DUP5 \t\t\t\n              DUP3 \t\t\t\n              DUP6 \t\t\t\n              PUSH [tag] 303\t\t\t\n              JUMP \t\t\t\n            tag 430\t\t\t\n              JUMPDEST \t\t\t\n              POP \t\t\t\n              SWAP4 \t\t\t\n              SWAP3 \t\t\t\n              POP \t\t\t\n              POP \t\t\t\n              POP \t\t\t\n              JUMP \t\t\t\n            tag 305\t\t\t\n              JUMPDEST \t\t\t\n              PUSH 0\t\t\t\n              DUP3 \t\t\t\n              PUSH 1F\t\t\t\n              DUP4 \t\t\t\n              ADD \t\t\t\n              SLT \t\t\t\n              PUSH [tag] 432\t\t\t\n              JUMPI \t\t\t\n              PUSH [tag] 433\t\t\t\n              PUSH [tag] 298\t\t\t\n              JUMP \t\t\t\n            tag 433\t\t\t\n              JUMPDEST \t\t\t\n            tag 432\t\t\t\n              JUMPDEST \t\t\t\n              DUP2 \t\t\t\n              CALLDATALOAD \t\t\t\n              PUSH [tag] 434\t\t\t\n              DUP5 \t\t\t\n              DUP3 \t\t\t\n              PUSH 20\t\t\t\n              DUP7 \t\t\t\n              ADD \t\t\t\n              PUSH [tag] 304\t\t\t\n              JUMP \t\t\t\n            tag 434\t\t\t\n              JUMPDEST \t\t\t\n              SWAP2 \t\t\t\n              POP \t\t\t\n              POP \t\t\t\n              SWAP3 \t\t\t\n              SWAP2 \t\t\t\n              POP \t\t\t\n              POP \t\t\t\n              JUMP \t\t\t\n            tag 77\t\t\t\n              JUMPDEST \t\t\t\n              PUSH 0\t\t\t\n              DUP1 \t\t\t\n              PUSH 0\t\t\t\n              DUP1 \t\t\t\n              PUSH 80\t\t\t\n              DUP6 \t\t\t\n              DUP8 \t\t\t\n              SUB \t\t\t\n              SLT \t\t\t\n              ISZERO \t\t\t\n              PUSH [tag] 436\t\t\t\n              JUMPI \t\t\t\n              PUSH [tag] 437\t\t\t\n              PUSH [tag] 275\t\t\t\n              JUMP \t\t\t\n            tag 437\t\t\t\n              JUMPDEST \t\t\t\n            tag 436\t\t\t\n              JUMPDEST \t\t\t\n              PUSH 0\t\t\t\n              PUSH [tag] 438\t\t\t\n              DUP8 \t\t\t\n              DUP3 \t\t\t\n              DUP9 \t\t\t\n              ADD \t\t\t\n              PUSH [tag] 294\t\t\t\n              JUMP \t\t\t\n            tag 438\t\t\t\n              JUMPDEST \t\t\t\n              SWAP5 \t\t\t\n              POP \t\t\t\n              POP \t\t\t\n              PUSH 20\t\t\t\n              PUSH [tag] 439\t\t\t\n              DUP8 \t\t\t\n              DUP3 \t\t\t\n              DUP9 \t\t\t\n              ADD \t\t\t\n              PUSH [tag] 294\t\t\t\n              JUMP \t\t\t\n            tag 439\t\t\t\n              JUMPDEST \t\t\t\n              SWAP4 \t\t\t\n              POP \t\t\t\n              POP \t\t\t\n              PUSH 40\t\t\t\n              PUSH [tag] 440\t\t\t\n              DUP8 \t\t\t\n              DUP3 \t\t\t\n              DUP9 \t\t\t\n              ADD \t\t\t\n              PUSH [tag] 289\t\t\t\n              JUMP \t\t\t\n            tag 440\t\t\t\n              JUMPDEST \t\t\t\n              SWAP3 \t\t\t\n              POP \t\t\t\n              POP \t\t\t\n              PUSH 60\t\t\t\n              DUP6 \t\t\t\n              ADD \t\t\t\n              CALLDATALOAD \t\t\t\n              PUSH FFFFFFFFFFFFFFFF\t\t\t\n              DUP2 \t\t\t\n              GT \t\t\t\n              ISZERO \t\t\t\n              PUSH [tag] 441\t\t\t\n              JUMPI \t\t\t\n              PUSH [tag] 442\t\t\t\n              PUSH [tag] 276\t\t\t\n              JUMP \t\t\t\n            tag 442\t\t\t\n              JUMPDEST \t\t\t\n            tag 441\t\t\t\n              JUMPDEST \t\t\t\n              PUSH [tag] 443\t\t\t\n              DUP8 \t\t\t\n              DUP3 \t\t\t\n              DUP9 \t\t\t\n              ADD \t\t\t\n              PUSH [tag] 305\t\t\t\n              JUMP \t\t\t\n            tag 443\t\t\t\n              JUMPDEST \t\t\t\n              SWAP2 \t\t\t\n              POP \t\t\t\n              POP \t\t\t\n              SWAP3 \t\t\t\n              SWAP6 \t\t\t\n              SWAP2 \t\t\t\n              SWAP5 \t\t\t\n              POP \t\t\t\n              SWAP3 \t\t\t\n              POP \t\t\t\n              JUMP \t\t\t\n            tag 85\t\t\t\n              JUMPDEST \t\t\t\n              PUSH 0\t\t\t\n              DUP1 \t\t\t\n              PUSH 40\t\t\t\n              DUP4 \t\t\t\n              DUP6 \t\t\t\n              SUB \t\t\t\n              SLT \t\t\t\n              ISZERO \t\t\t\n              PUSH [tag] 445\t\t\t\n              JUMPI \t\t\t\n              PUSH [tag] 446\t\t\t\n              PUSH [tag] 275\t\t\t\n              JUMP \t\t\t\n            tag 446\t\t\t\n              JUMPDEST \t\t\t\n            tag 445\t\t\t\n              JUMPDEST \t\t\t\n              PUSH 0\t\t\t\n              PUSH [tag] 447\t\t\t\n              DUP6 \t\t\t\n              DUP3 \t\t\t\n              DUP7 \t\t\t\n              ADD \t\t\t\n              PUSH [tag] 294\t\t\t\n              JUMP \t\t\t\n            tag 447\t\t\t\n              JUMPDEST \t\t\t\n              SWAP3 \t\t\t\n              POP \t\t\t\n              POP \t\t\t\n              PUSH 20\t\t\t\n              PUSH [tag] 448\t\t\t\n              DUP6 \t\t\t\n              DUP3 \t\t\t\n              DUP7 \t\t\t\n              ADD \t\t\t\n              PUSH [tag] 294\t\t\t\n              JUMP \t\t\t\n            tag 448\t\t\t\n              JUMPDEST \t\t\t\n              SWAP2 \t\t\t\n              POP \t\t\t\n              POP \t\t\t\n              SWAP3 \t\t\t\n              POP \t\t\t\n              SWAP3 \t\t\t\n              SWAP1 \t\t\t\n              POP \t\t\t\n              JUMP \t\t\t\n            tag 306\t\t\t\n              JUMPDEST \t\t\t\n              PUSH 4E487B7100000000000000000000000000000000000000000000000000000000\t\t\t\n              PUSH 0\t\t\t\n              MSTORE \t\t\t\n              PUSH 22\t\t\t\n              PUSH 4\t\t\t\n              MSTORE \t\t\t\n              PUSH 24\t\t\t\n              PUSH 0\t\t\t\n              REVERT \t\t\t\n            tag 98\t\t\t\n              JUMPDEST \t\t\t\n              PUSH 0\t\t\t\n              PUSH 2\t\t\t\n              DUP3 \t\t\t\n              DIV \t\t\t\n              SWAP1 \t\t\t\n              POP \t\t\t\n              PUSH 1\t\t\t\n              DUP3 \t\t\t\n              AND \t\t\t\n              DUP1 \t\t\t\n              PUSH [tag] 451\t\t\t\n              JUMPI \t\t\t\n              PUSH 7F\t\t\t\n              DUP3 \t\t\t\n              AND \t\t\t\n              SWAP2 \t\t\t\n              POP \t\t\t\n            tag 451\t\t\t\n              JUMPDEST \t\t\t\n              PUSH 20\t\t\t\n              DUP3 \t\t\t\n              LT \t\t\t\n              DUP2 \t\t\t\n              SUB \t\t\t\n              PUSH [tag] 452\t\t\t\n              JUMPI \t\t\t\n              PUSH [tag] 453\t\t\t\n              PUSH [tag] 306\t\t\t\n              JUMP \t\t\t\n            tag 453\t\t\t\n              JUMPDEST \t\t\t\n            tag 452\t\t\t\n              JUMPDEST \t\t\t\n              POP \t\t\t\n              SWAP2 \t\t\t\n              SWAP1 \t\t\t\n              POP \t\t\t\n              JUMP \t\t\t\n            tag 121\t\t\t\n              JUMPDEST \t\t\t\n              PUSH 0\t\t\t\n              PUSH 60\t\t\t\n              DUP3 \t\t\t\n              ADD \t\t\t\n              SWAP1 \t\t\t\n              POP \t\t\t\n              PUSH [tag] 455\t\t\t\n              PUSH 0\t\t\t\n              DUP4 \t\t\t\n              ADD \t\t\t\n              DUP7 \t\t\t\n              PUSH [tag] 292\t\t\t\n              JUMP \t\t\t\n            tag 455\t\t\t\n              JUMPDEST \t\t\t\n              PUSH [tag] 456\t\t\t\n              PUSH 20\t\t\t\n              DUP4 \t\t\t\n              ADD \t\t\t\n              DUP6 \t\t\t\n              PUSH [tag] 295\t\t\t\n              JUMP \t\t\t\n            tag 456\t\t\t\n              JUMPDEST \t\t\t\n              PUSH [tag] 457\t\t\t\n              PUSH 40\t\t\t\n              DUP4 \t\t\t\n              ADD \t\t\t\n              DUP5 \t\t\t\n              PUSH [tag] 292\t\t\t\n              JUMP \t\t\t\n            tag 457\t\t\t\n              JUMPDEST \t\t\t\n              SWAP5 \t\t\t\n              SWAP4 \t\t\t\n              POP \t\t\t\n              POP \t\t\t\n              POP \t\t\t\n              POP \t\t\t\n              JUMP \t\t\t\n            tag 307\t\t\t\n              JUMPDEST \t\t\t\n              PUSH 4E487B7100000000000000000000000000000000000000000000000000000000\t\t\t\n              PUSH 0\t\t\t\n              MSTORE \t\t\t\n              PUSH 11\t\t\t\n              PUSH 4\t\t\t\n              MSTORE \t\t\t\n              PUSH 24\t\t\t\n              PUSH 0\t\t\t\n              REVERT \t\t\t\n            tag 133\t\t\t\n              JUMPDEST \t\t\t\n              PUSH 0\t\t\t\n              PUSH [tag] 460\t\t\t\n              DUP3 \t\t\t\n              PUSH [tag] 287\t\t\t\n              JUMP \t\t\t\n            tag 460\t\t\t\n              JUMPDEST \t\t\t\n              SWAP2 \t\t\t\n              POP \t\t\t\n              PUSH FFFFFFFFFFFFFFFFFFFFFFFFFFFFFFFFFFFFFFFFFFFFFFFFFFFFFFFFFFFFFFFF\t\t\t\n              DUP3 \t\t\t\n              SUB \t\t\t\n              PUSH [tag] 461\t\t\t\n              JUMPI \t\t\t\n              PUSH [tag] 462\t\t\t\n              PUSH [tag] 307\t\t\t\n              JUMP \t\t\t\n            tag 462\t\t\t\n              JUMPDEST \t\t\t\n            tag 461\t\t\t\n              JUMPDEST \t\t\t\n              PUSH 1\t\t\t\n              DUP3 \t\t\t\n              ADD \t\t\t\n              SWAP1 \t\t\t\n              POP \t\t\t\n              SWAP2 \t\t\t\n              SWAP1 \t\t\t\n              POP \t\t\t\n              JUMP \t\t\t\n            tag 308\t\t\t\n              JUMPDEST \t\t\t\n              PUSH 0\t\t\t\n              DUP2 \t\t\t\n              SWAP1 \t\t\t\n              POP \t\t\t\n              SWAP3 \t\t\t\n              SWAP2 \t\t\t\n              POP \t\t\t\n              POP \t\t\t\n              JUMP \t\t\t\n            tag 309\t\t\t\n              JUMPDEST \t\t\t\n              PUSH 7B226E616D65223A220000000000000000000000000000000000000000000000\t\t\t\n              PUSH 0\t\t\t\n              DUP3 \t\t\t\n              ADD \t\t\t\n              MSTORE \t\t\t\n              POP \t\t\t\n              JUMP \t\t\t\n            tag 310\t\t\t\n              JUMPDEST \t\t\t\n              PUSH 0\t\t\t\n              PUSH [tag] 466\t\t\t\n              PUSH 9\t\t\t\n              DUP4 \t\t\t\n              PUSH [tag] 308\t\t\t\n              JUMP \t\t\t\n            tag 466\t\t\t\n              JUMPDEST \t\t\t\n              SWAP2 \t\t\t\n              POP \t\t\t\n              PUSH [tag] 467\t\t\t\n              DUP3 \t\t\t\n              PUSH [tag] 309\t\t\t\n              JUMP \t\t\t\n            tag 467\t\t\t\n              JUMPDEST \t\t\t\n              PUSH 9\t\t\t\n              DUP3 \t\t\t\n              ADD \t\t\t\n              SWAP1 \t\t\t\n              POP \t\t\t\n              SWAP2 \t\t\t\n              SWAP1 \t\t\t\n              POP \t\t\t\n              JUMP \t\t\t\n            tag 311\t\t\t\n              JUMPDEST \t\t\t\n              PUSH 0\t\t\t\n              PUSH [tag] 469\t\t\t\n              DUP3 \t\t\t\n              PUSH [tag] 282\t\t\t\n              JUMP \t\t\t\n            tag 469\t\t\t\n              JUMPDEST \t\t\t\n              PUSH [tag] 470\t\t\t\n              DUP2 \t\t\t\n              DUP6 \t\t\t\n              PUSH [tag] 308\t\t\t\n              JUMP \t\t\t\n            tag 470\t\t\t\n              JUMPDEST \t\t\t\n              SWAP4 \t\t\t\n              POP \t\t\t\n              PUSH [tag] 471\t\t\t\n              DUP2 \t\t\t\n              DUP6 \t\t\t\n              PUSH 20\t\t\t\n              DUP7 \t\t\t\n              ADD \t\t\t\n              PUSH [tag] 284\t\t\t\n              JUMP \t\t\t\n            tag 471\t\t\t\n              JUMPDEST \t\t\t\n              DUP1 \t\t\t\n              DUP5 \t\t\t\n              ADD \t\t\t\n              SWAP2 \t\t\t\n              POP \t\t\t\n              POP \t\t\t\n              SWAP3 \t\t\t\n              SWAP2 \t\t\t\n              POP \t\t\t\n              POP \t\t\t\n              JUMP \t\t\t\n            tag 312\t\t\t\n              JUMPDEST \t\t\t\n              PUSH 222C20226465736372697074696F6E223A22416E204E46542074686174207265\t\t\t\n              PUSH 0\t\t\t\n              DUP3 \t\t\t\n              ADD \t\t\t\n              MSTORE \t\t\t\n              PUSH 666C6563747320746865206F776E657273686970206F662067616D65202D2000\t\t\t\n              PUSH 20\t\t\t\n              DUP3 \t\t\t\n              ADD \t\t\t\n              MSTORE \t\t\t\n              POP \t\t\t\n              JUMP \t\t\t\n            tag 313\t\t\t\n              JUMPDEST \t\t\t\n              PUSH 0\t\t\t\n              PUSH [tag] 474\t\t\t\n              PUSH 3F\t\t\t\n              DUP4 \t\t\t\n              PUSH [tag] 308\t\t\t\n              JUMP \t\t\t\n            tag 474\t\t\t\n              JUMPDEST \t\t\t\n              SWAP2 \t\t\t\n              POP \t\t\t\n              PUSH [tag] 475\t\t\t\n              DUP3 \t\t\t\n              PUSH [tag] 312\t\t\t\n              JUMP \t\t\t\n            tag 475\t\t\t\n              JUMPDEST \t\t\t\n              PUSH 3F\t\t\t\n              DUP3 \t\t\t\n              ADD \t\t\t\n              SWAP1 \t\t\t\n              POP \t\t\t\n              SWAP2 \t\t\t\n              SWAP1 \t\t\t\n              POP \t\t\t\n              JUMP \t\t\t\n            tag 314\t\t\t\n              JUMPDEST \t\t\t\n              PUSH 222C200000000000000000000000000000000000000000000000000000000000\t\t\t\n              PUSH 0\t\t\t\n              DUP3 \t\t\t\n              ADD \t\t\t\n              MSTORE \t\t\t\n              POP \t\t\t\n              JUMP \t\t\t\n            tag 315\t\t\t\n              JUMPDEST \t\t\t\n              PUSH 0\t\t\t\n              PUSH [tag] 478\t\t\t\n              PUSH 3\t\t\t\n              DUP4 \t\t\t\n              PUSH [tag] 308\t\t\t\n              JUMP \t\t\t\n            tag 478\t\t\t\n              JUMPDEST \t\t\t\n              SWAP2 \t\t\t\n              POP \t\t\t\n              PUSH [tag] 479\t\t\t\n              DUP3 \t\t\t\n              PUSH [tag] 314\t\t\t\n              JUMP \t\t\t\n            tag 479\t\t\t\n              JUMPDEST \t\t\t\n              PUSH 3\t\t\t\n              DUP3 \t\t\t\n              ADD \t\t\t\n              SWAP1 \t\t\t\n              POP \t\t\t\n              SWAP2 \t\t\t\n              SWAP1 \t\t\t\n              POP \t\t\t\n              JUMP \t\t\t\n            tag 316\t\t\t\n              JUMPDEST \t\t\t\n              PUSH 22696D616765223A220000000000000000000000000000000000000000000000\t\t\t\n              PUSH 0\t\t\t\n              DUP3 \t\t\t\n              ADD \t\t\t\n              MSTORE \t\t\t\n              POP \t\t\t\n              JUMP \t\t\t\n            tag 317\t\t\t\n              JUMPDEST \t\t\t\n              PUSH 0\t\t\t\n              PUSH [tag] 482\t\t\t\n              PUSH 9\t\t\t\n              DUP4 \t\t\t\n              PUSH [tag] 308\t\t\t\n              JUMP \t\t\t\n            tag 482\t\t\t\n              JUMPDEST \t\t\t\n              SWAP2 \t\t\t\n              POP \t\t\t\n              PUSH [tag] 483\t\t\t\n              DUP3 \t\t\t\n              PUSH [tag] 316\t\t\t\n              JUMP \t\t\t\n            tag 483\t\t\t\n              JUMPDEST \t\t\t\n              PUSH 9\t\t\t\n              DUP3 \t\t\t\n              ADD \t\t\t\n              SWAP1 \t\t\t\n              POP \t\t\t\n              SWAP2 \t\t\t\n              SWAP1 \t\t\t\n              POP \t\t\t\n              JUMP \t\t\t\n            tag 318\t\t\t\n              JUMPDEST \t\t\t\n              PUSH 0\t\t\t\n              DUP2 \t\t\t\n              SWAP1 \t\t\t\n              POP \t\t\t\n              DUP2 \t\t\t\n              PUSH 0\t\t\t\n              MSTORE \t\t\t\n              PUSH 20\t\t\t\n              PUSH 0\t\t\t\n              KECCAK256 \t\t\t\n              SWAP1 \t\t\t\n              POP \t\t\t\n              SWAP2 \t\t\t\n              SWAP1 \t\t\t\n              POP \t\t\t\n              JUMP \t\t\t\n            tag 319\t\t\t\n              JUMPDEST \t\t\t\n              PUSH 0\t\t\t\n              DUP2 \t\t\t\n              SLOAD \t\t\t\n              PUSH [tag] 486\t\t\t\n              DUP2 \t\t\t\n              PUSH [tag] 98\t\t\t\n              JUMP \t\t\t\n            tag 486\t\t\t\n              JUMPDEST \t\t\t\n              PUSH [tag] 487\t\t\t\n              DUP2 \t\t\t\n              DUP7 \t\t\t\n              PUSH [tag] 308\t\t\t\n              JUMP \t\t\t\n            tag 487\t\t\t\n              JUMPDEST \t\t\t\n              SWAP5 \t\t\t\n              POP \t\t\t\n              PUSH 1\t\t\t\n              DUP3 \t\t\t\n              AND \t\t\t\n              PUSH 0\t\t\t\n              DUP2 \t\t\t\n              EQ \t\t\t\n              PUSH [tag] 489\t\t\t\n              JUMPI \t\t\t\n              PUSH 1\t\t\t\n              DUP2 \t\t\t\n              EQ \t\t\t\n              PUSH [tag] 490\t\t\t\n              JUMPI \t\t\t\n              PUSH [tag] 488\t\t\t\n              JUMP \t\t\t\n            tag 489\t\t\t\n              JUMPDEST \t\t\t\n              PUSH FF\t\t\t\n              NOT \t\t\t\n              DUP4 \t\t\t\n              AND \t\t\t\n              DUP7 \t\t\t\n              MSTORE \t\t\t\n              DUP2 \t\t\t\n              ISZERO \t\t\t\n              ISZERO \t\t\t\n              DUP3 \t\t\t\n              MUL \t\t\t\n              DUP7 \t\t\t\n              ADD \t\t\t\n              SWAP4 \t\t\t\n              POP \t\t\t\n              PUSH [tag] 488\t\t\t\n              JUMP \t\t\t\n            tag 490\t\t\t\n              JUMPDEST \t\t\t\n              PUSH [tag] 491\t\t\t\n              DUP6 \t\t\t\n              PUSH [tag] 318\t\t\t\n              JUMP \t\t\t\n            tag 491\t\t\t\n              JUMPDEST \t\t\t\n              PUSH 0\t\t\t\n            tag 492\t\t\t\n              JUMPDEST \t\t\t\n              DUP4 \t\t\t\n              DUP2 \t\t\t\n              LT \t\t\t\n              ISZERO \t\t\t\n              PUSH [tag] 494\t\t\t\n              JUMPI \t\t\t\n              DUP2 \t\t\t\n              SLOAD \t\t\t\n              DUP2 \t\t\t\n              DUP10 \t\t\t\n              ADD \t\t\t\n              MSTORE \t\t\t\n              PUSH 1\t\t\t\n              DUP3 \t\t\t\n              ADD \t\t\t\n              SWAP2 \t\t\t\n              POP \t\t\t\n              PUSH 20\t\t\t\n              DUP2 \t\t\t\n              ADD \t\t\t\n              SWAP1 \t\t\t\n              POP \t\t\t\n              PUSH [tag] 492\t\t\t\n              JUMP \t\t\t\n            tag 494\t\t\t\n              JUMPDEST \t\t\t\n              DUP4 \t\t\t\n              DUP9 \t\t\t\n              ADD \t\t\t\n              SWAP6 \t\t\t\n              POP \t\t\t\n              POP \t\t\t\n              POP \t\t\t\n            tag 488\t\t\t\n              JUMPDEST \t\t\t\n              POP \t\t\t\n              POP \t\t\t\n              POP \t\t\t\n              SWAP3 \t\t\t\n              SWAP2 \t\t\t\n              POP \t\t\t\n              POP \t\t\t\n              JUMP \t\t\t\n            tag 320\t\t\t\n              JUMPDEST \t\t\t\n              PUSH 227D000000000000000000000000000000000000000000000000000000000000\t\t\t\n              PUSH 0\t\t\t\n              DUP3 \t\t\t\n              ADD \t\t\t\n              MSTORE \t\t\t\n              POP \t\t\t\n              JUMP \t\t\t\n            tag 321\t\t\t\n              JUMPDEST \t\t\t\n              PUSH 0\t\t\t\n              PUSH [tag] 497\t\t\t\n              PUSH 2\t\t\t\n              DUP4 \t\t\t\n              PUSH [tag] 308\t\t\t\n              JUMP \t\t\t\n            tag 497\t\t\t\n              JUMPDEST \t\t\t\n              SWAP2 \t\t\t\n              POP \t\t\t\n              PUSH [tag] 498\t\t\t\n              DUP3 \t\t\t\n              PUSH [tag] 320\t\t\t\n              JUMP \t\t\t\n            tag 498\t\t\t\n              JUMPDEST \t\t\t\n              PUSH 2\t\t\t\n              DUP3 \t\t\t\n              ADD \t\t\t\n              SWAP1 \t\t\t\n              POP \t\t\t\n              SWAP2 \t\t\t\n              SWAP1 \t\t\t\n              POP \t\t\t\n              JUMP \t\t\t\n            tag 163\t\t\t\n              JUMPDEST \t\t\t\n              PUSH 0\t\t\t\n              PUSH [tag] 500\t\t\t\n              DUP3 \t\t\t\n              PUSH [tag] 310\t\t\t\n              JUMP \t\t\t\n            tag 500\t\t\t\n              JUMPDEST \t\t\t\n              SWAP2 \t\t\t\n              POP \t\t\t\n              PUSH [tag] 501\t\t\t\n              DUP3 \t\t\t\n              DUP7 \t\t\t\n              PUSH [tag] 311\t\t\t\n              JUMP \t\t\t\n            tag 501\t\t\t\n              JUMPDEST \t\t\t\n              SWAP2 \t\t\t\n              POP \t\t\t\n              PUSH [tag] 502\t\t\t\n              DUP3 \t\t\t\n              PUSH [tag] 313\t\t\t\n              JUMP \t\t\t\n            tag 502\t\t\t\n              JUMPDEST \t\t\t\n              SWAP2 \t\t\t\n              POP \t\t\t\n              PUSH [tag] 503\t\t\t\n              DUP3 \t\t\t\n              DUP6 \t\t\t\n              PUSH [tag] 311\t\t\t\n              JUMP \t\t\t\n            tag 503\t\t\t\n              JUMPDEST \t\t\t\n              SWAP2 \t\t\t\n              POP \t\t\t\n              PUSH [tag] 504\t\t\t\n              DUP3 \t\t\t\n              PUSH [tag] 315\t\t\t\n              JUMP \t\t\t\n            tag 504\t\t\t\n              JUMPDEST \t\t\t\n              SWAP2 \t\t\t\n              POP \t\t\t\n              PUSH [tag] 505\t\t\t\n              DUP3 \t\t\t\n              PUSH [tag] 317\t\t\t\n              JUMP \t\t\t\n            tag 505\t\t\t\n              JUMPDEST \t\t\t\n              SWAP2 \t\t\t\n              POP \t\t\t\n              PUSH [tag] 506\t\t\t\n              DUP3 \t\t\t\n              DUP5 \t\t\t\n              PUSH [tag] 319\t\t\t\n              JUMP \t\t\t\n            tag 506\t\t\t\n              JUMPDEST \t\t\t\n              SWAP2 \t\t\t\n              POP \t\t\t\n              PUSH [tag] 507\t\t\t\n              DUP3 \t\t\t\n              PUSH [tag] 321\t\t\t\n              JUMP \t\t\t\n            tag 507\t\t\t\n              JUMPDEST \t\t\t\n              SWAP2 \t\t\t\n              POP \t\t\t\n              DUP2 \t\t\t\n              SWAP1 \t\t\t\n              POP \t\t\t\n              SWAP5 \t\t\t\n              SWAP4 \t\t\t\n              POP \t\t\t\n              POP \t\t\t\n              POP \t\t\t\n              POP \t\t\t\n              JUMP \t\t\t\n            tag 322\t\t\t\n              JUMPDEST \t\t\t\n              PUSH 646174613A6170706C69636174696F6E2F6A736F6E3B6261736536342C000000\t\t\t\n              PUSH 0\t\t\t\n              DUP3 \t\t\t\n              ADD \t\t\t\n              MSTORE \t\t\t\n              POP \t\t\t\n              JUMP \t\t\t\n            tag 323\t\t\t\n              JUMPDEST \t\t\t\n              PUSH 0\t\t\t\n              PUSH [tag] 510\t\t\t\n              PUSH 1D\t\t\t\n              DUP4 \t\t\t\n              PUSH [tag] 308\t\t\t\n              JUMP \t\t\t\n            tag 510\t\t\t\n              JUMPDEST \t\t\t\n              SWAP2 \t\t\t\n              POP \t\t\t\n              PUSH [tag] 511\t\t\t\n              DUP3 \t\t\t\n              PUSH [tag] 322\t\t\t\n              JUMP \t\t\t\n            tag 511\t\t\t\n              JUMPDEST \t\t\t\n              PUSH 1D\t\t\t\n              DUP3 \t\t\t\n              ADD \t\t\t\n              SWAP1 \t\t\t\n              POP \t\t\t\n              SWAP2 \t\t\t\n              SWAP1 \t\t\t\n              POP \t\t\t\n              JUMP \t\t\t\n            tag 166\t\t\t\n              JUMPDEST \t\t\t\n              PUSH 0\t\t\t\n              PUSH [tag] 513\t\t\t\n              DUP3 \t\t\t\n              PUSH [tag] 323\t\t\t\n              JUMP \t\t\t\n            tag 513\t\t\t\n              JUMPDEST \t\t\t\n              SWAP2 \t\t\t\n              POP \t\t\t\n              PUSH [tag] 514\t\t\t\n              DUP3 \t\t\t\n              DUP5 \t\t\t\n              PUSH [tag] 311\t\t\t\n              JUMP \t\t\t\n            tag 514\t\t\t\n              JUMPDEST \t\t\t\n              SWAP2 \t\t\t\n              POP \t\t\t\n              DUP2 \t\t\t\n              SWAP1 \t\t\t\n              POP \t\t\t\n              SWAP3 \t\t\t\n              SWAP2 \t\t\t\n              POP \t\t\t\n              POP \t\t\t\n              JUMP \t\t\t\n            tag 324\t\t\t\n              JUMPDEST \t\t\t\n              PUSH 0\t\t\t\n              DUP2 \t\t\t\n              MLOAD \t\t\t\n              SWAP1 \t\t\t\n              POP \t\t\t\n              SWAP2 \t\t\t\n              SWAP1 \t\t\t\n              POP \t\t\t\n              JUMP \t\t\t\n            tag 325\t\t\t\n              JUMPDEST \t\t\t\n              PUSH 0\t\t\t\n              DUP3 \t\t\t\n              DUP3 \t\t\t\n              MSTORE \t\t\t\n              PUSH 20\t\t\t\n              DUP3 \t\t\t\n              ADD \t\t\t\n              SWAP1 \t\t\t\n              POP \t\t\t\n              SWAP3 \t\t\t\n              SWAP2 \t\t\t\n              POP \t\t\t\n              POP \t\t\t\n              JUMP \t\t\t\n            tag 326\t\t\t\n              JUMPDEST \t\t\t\n              PUSH 0\t\t\t\n              PUSH [tag] 518\t\t\t\n              DUP3 \t\t\t\n              PUSH [tag] 324\t\t\t\n              JUMP \t\t\t\n            tag 518\t\t\t\n              JUMPDEST \t\t\t\n              PUSH [tag] 519\t\t\t\n              DUP2 \t\t\t\n              DUP6 \t\t\t\n              PUSH [tag] 325\t\t\t\n              JUMP \t\t\t\n            tag 519\t\t\t\n              JUMPDEST \t\t\t\n              SWAP4 \t\t\t\n              POP \t\t\t\n              PUSH [tag] 520\t\t\t\n              DUP2 \t\t\t\n              DUP6 \t\t\t\n              PUSH 20\t\t\t\n              DUP7 \t\t\t\n              ADD \t\t\t\n              PUSH [tag] 284\t\t\t\n              JUMP \t\t\t\n            tag 520\t\t\t\n              JUMPDEST \t\t\t\n              PUSH [tag] 521\t\t\t\n              DUP2 \t\t\t\n              PUSH [tag] 285\t\t\t\n              JUMP \t\t\t\n            tag 521\t\t\t\n              JUMPDEST \t\t\t\n              DUP5 \t\t\t\n              ADD \t\t\t\n              SWAP2 \t\t\t\n              POP \t\t\t\n              POP \t\t\t\n              SWAP3 \t\t\t\n              SWAP2 \t\t\t\n              POP \t\t\t\n              POP \t\t\t\n              JUMP \t\t\t\n            tag 214\t\t\t\n              JUMPDEST \t\t\t\n              PUSH 0\t\t\t\n              PUSH 80\t\t\t\n              DUP3 \t\t\t\n              ADD \t\t\t\n              SWAP1 \t\t\t\n              POP \t\t\t\n              PUSH [tag] 523\t\t\t\n              PUSH 0\t\t\t\n              DUP4 \t\t\t\n              ADD \t\t\t\n              DUP8 \t\t\t\n              PUSH [tag] 292\t\t\t\n              JUMP \t\t\t\n            tag 523\t\t\t\n              JUMPDEST \t\t\t\n              PUSH [tag] 524\t\t\t\n              PUSH 20\t\t\t\n              DUP4 \t\t\t\n              ADD \t\t\t\n              DUP7 \t\t\t\n              PUSH [tag] 292\t\t\t\n              JUMP \t\t\t\n            tag 524\t\t\t\n              JUMPDEST \t\t\t\n              PUSH [tag] 525\t\t\t\n              PUSH 40\t\t\t\n              DUP4 \t\t\t\n              ADD \t\t\t\n              DUP6 \t\t\t\n              PUSH [tag] 295\t\t\t\n              JUMP \t\t\t\n            tag 525\t\t\t\n              JUMPDEST \t\t\t\n              DUP2 \t\t\t\n              DUP2 \t\t\t\n              SUB \t\t\t\n              PUSH 60\t\t\t\n              DUP4 \t\t\t\n              ADD \t\t\t\n              MSTORE \t\t\t\n              PUSH [tag] 526\t\t\t\n              DUP2 \t\t\t\n              DUP5 \t\t\t\n              PUSH [tag] 326\t\t\t\n              JUMP \t\t\t\n            tag 526\t\t\t\n              JUMPDEST \t\t\t\n              SWAP1 \t\t\t\n              POP \t\t\t\n              SWAP6 \t\t\t\n              SWAP5 \t\t\t\n              POP \t\t\t\n              POP \t\t\t\n              POP \t\t\t\n              POP \t\t\t\n              POP \t\t\t\n              JUMP \t\t\t\n            tag 327\t\t\t\n              JUMPDEST \t\t\t\n              PUSH 0\t\t\t\n              DUP2 \t\t\t\n              MLOAD \t\t\t\n              SWAP1 \t\t\t\n              POP \t\t\t\n              PUSH [tag] 528\t\t\t\n              DUP2 \t\t\t\n              PUSH [tag] 278\t\t\t\n              JUMP \t\t\t\n            tag 528\t\t\t\n              JUMPDEST \t\t\t\n              SWAP3 \t\t\t\n              SWAP2 \t\t\t\n              POP \t\t\t\n              POP \t\t\t\n              JUMP \t\t\t\n            tag 217\t\t\t\n              JUMPDEST \t\t\t\n              PUSH 0\t\t\t\n              PUSH 20\t\t\t\n              DUP3 \t\t\t\n              DUP5 \t\t\t\n              SUB \t\t\t\n              SLT \t\t\t\n              ISZERO \t\t\t\n              PUSH [tag] 530\t\t\t\n              JUMPI \t\t\t\n              PUSH [tag] 531\t\t\t\n              PUSH [tag] 275\t\t\t\n              JUMP \t\t\t\n            tag 531\t\t\t\n              JUMPDEST \t\t\t\n            tag 530\t\t\t\n              JUMPDEST \t\t\t\n              PUSH 0\t\t\t\n              PUSH [tag] 532\t\t\t\n              DUP5 \t\t\t\n              DUP3 \t\t\t\n              DUP6 \t\t\t\n              ADD \t\t\t\n              PUSH [tag] 327\t\t\t\n              JUMP \t\t\t\n            tag 532\t\t\t\n              JUMPDEST \t\t\t\n              SWAP2 \t\t\t\n              POP \t\t\t\n              POP \t\t\t\n              SWAP3 \t\t\t\n              SWAP2 \t\t\t\n              POP \t\t\t\n              POP \t\t\t\n              JUMP \t\t\t\n            tag 233\t\t\t\n              JUMPDEST \t\t\t\n              PUSH 0\t\t\t\n              PUSH [tag] 534\t\t\t\n              DUP3 \t\t\t\n              PUSH [tag] 287\t\t\t\n              JUMP \t\t\t\n            tag 534\t\t\t\n              JUMPDEST \t\t\t\n              SWAP2 \t\t\t\n              POP \t\t\t\n              PUSH [tag] 535\t\t\t\n              DUP4 \t\t\t\n              PUSH [tag] 287\t\t\t\n              JUMP \t\t\t\n            tag 535\t\t\t\n              JUMPDEST \t\t\t\n              SWAP3 \t\t\t\n              POP \t\t\t\n              DUP3 \t\t\t\n              DUP3 \t\t\t\n              ADD \t\t\t\n              SWAP1 \t\t\t\n              POP \t\t\t\n              DUP1 \t\t\t\n              DUP3 \t\t\t\n              GT \t\t\t\n              ISZERO \t\t\t\n              PUSH [tag] 536\t\t\t\n              JUMPI \t\t\t\n              PUSH [tag] 537\t\t\t\n              PUSH [tag] 307\t\t\t\n              JUMP \t\t\t\n            tag 537\t\t\t\n              JUMPDEST \t\t\t\n            tag 536\t\t\t\n              JUMPDEST \t\t\t\n              SWAP3 \t\t\t\n              SWAP2 \t\t\t\n              POP \t\t\t\n              POP \t\t\t\n              JUMP \t\t\t\n            tag 328\t\t\t\n              JUMPDEST \t\t\t\n              PUSH 4E487B7100000000000000000000000000000000000000000000000000000000\t\t\t\n              PUSH 0\t\t\t\n              MSTORE \t\t\t\n              PUSH 12\t\t\t\n              PUSH 4\t\t\t\n              MSTORE \t\t\t\n              PUSH 24\t\t\t\n              PUSH 0\t\t\t\n              REVERT \t\t\t\n            tag 235\t\t\t\n              JUMPDEST \t\t\t\n              PUSH 0\t\t\t\n              PUSH [tag] 540\t\t\t\n              DUP3 \t\t\t\n              PUSH [tag] 287\t\t\t\n              JUMP \t\t\t\n            tag 540\t\t\t\n              JUMPDEST \t\t\t\n              SWAP2 \t\t\t\n              POP \t\t\t\n              PUSH [tag] 541\t\t\t\n              DUP4 \t\t\t\n              PUSH [tag] 287\t\t\t\n              JUMP \t\t\t\n            tag 541\t\t\t\n              JUMPDEST \t\t\t\n              SWAP3 \t\t\t\n              POP \t\t\t\n              DUP3 \t\t\t\n              PUSH [tag] 542\t\t\t\n              JUMPI \t\t\t\n              PUSH [tag] 543\t\t\t\n              PUSH [tag] 328\t\t\t\n              JUMP \t\t\t\n            tag 543\t\t\t\n              JUMPDEST \t\t\t\n            tag 542\t\t\t\n              JUMPDEST \t\t\t\n              DUP3 \t\t\t\n              DUP3 \t\t\t\n              DIV \t\t\t\n              SWAP1 \t\t\t\n              POP \t\t\t\n              SWAP3 \t\t\t\n              SWAP2 \t\t\t\n              POP \t\t\t\n              POP \t\t\t\n              JUMP \t\t\t\n            tag 237\t\t\t\n              JUMPDEST \t\t\t\n              PUSH 0\t\t\t\n              PUSH [tag] 545\t\t\t\n              DUP3 \t\t\t\n              PUSH [tag] 287\t\t\t\n              JUMP \t\t\t\n            tag 545\t\t\t\n              JUMPDEST \t\t\t\n              SWAP2 \t\t\t\n              POP \t\t\t\n              PUSH [tag] 546\t\t\t\n              DUP4 \t\t\t\n              PUSH [tag] 287\t\t\t\n              JUMP \t\t\t\n            tag 546\t\t\t\n              JUMPDEST \t\t\t\n              SWAP3 \t\t\t\n              POP \t\t\t\n              DUP3 \t\t\t\n              DUP3 \t\t\t\n              MUL \t\t\t\n              PUSH [tag] 547\t\t\t\n              DUP2 \t\t\t\n              PUSH [tag] 287\t\t\t\n              JUMP \t\t\t\n            tag 547\t\t\t\n              JUMPDEST \t\t\t\n              SWAP2 \t\t\t\n              POP \t\t\t\n              DUP3 \t\t\t\n              DUP3 \t\t\t\n              DIV \t\t\t\n              DUP5 \t\t\t\n              EQ \t\t\t\n              DUP4 \t\t\t\n              ISZERO \t\t\t\n              OR \t\t\t\n              PUSH [tag] 548\t\t\t\n              JUMPI \t\t\t\n              PUSH [tag] 549\t\t\t\n              PUSH [tag] 307\t\t\t\n              JUMP \t\t\t\n            tag 549\t\t\t\n              JUMPDEST \t\t\t\n            tag 548\t\t\t\n              JUMPDEST \t\t\t\n              POP \t\t\t\n              SWAP3 \t\t\t\n              SWAP2 \t\t\t\n              POP \t\t\t\n              POP \t\t\t\n              JUMP \t\t\t\n            tag 267\t\t\t\n              JUMPDEST \t\t\t\n              PUSH 0\t\t\t\n              PUSH 40\t\t\t\n              DUP3 \t\t\t\n              ADD \t\t\t\n              SWAP1 \t\t\t\n              POP \t\t\t\n              PUSH [tag] 551\t\t\t\n              PUSH 0\t\t\t\n              DUP4 \t\t\t\n              ADD \t\t\t\n              DUP6 \t\t\t\n              PUSH [tag] 292\t\t\t\n              JUMP \t\t\t\n            tag 551\t\t\t\n              JUMPDEST \t\t\t\n              PUSH [tag] 552\t\t\t\n              PUSH 20\t\t\t\n              DUP4 \t\t\t\n              ADD \t\t\t\n              DUP5 \t\t\t\n              PUSH [tag] 295\t\t\t\n              JUMP \t\t\t\n            tag 552\t\t\t\n              JUMPDEST \t\t\t\n              SWAP4 \t\t\t\n              SWAP3 \t\t\t\n              POP \t\t\t\n              POP \t\t\t\n              POP \t\t\t\n              JUMP \t\t\t\n            .data\n              84D8A590DE33E00CBDC16E1F28C3506F5EC15C599FAB9A6A4BCD575CC2F110CE:\n                4142434445464748494a4b4c4d4e4f505152535455565758595a6162636465666768696a6b6c6d6e6f707172737475767778797a303132333435363738392b2f\n"
}