{
  "abi": [
    {
      "type": "function",
      "name": "buyGame",
      "inputs": [
        {
          "name": "_cid",
          "type": "string",
          "internalType": "string"
        }
      ],
      "outputs": [],
      "stateMutability": "payable"
    },
    {
      "type": "function",
      "name": "getGameByCid",
      "inputs": [
        {
          "name": "_cid",
          "type": "string",
          "internalType": "string"
        }
      ],
      "outputs": [
        {
          "name": "",
          "type": "tuple",
          "internalType": "struct GameFactory.Game",
          "components": [
            {
              "name": "creator",
              "type": "address",
              "internalType": "address"
            },
            {
              "name": "cid",
              "type": "string",
              "internalType": "string"
            },
            {
              "name": "token",
              "type": "address",
              "internalType": "address"
            },
            {
              "name": "name",
              "type": "string",
              "internalType": "string"
            },
            {
              "name": "price",
              "type": "uint256",
              "internalType": "uint256"
            },
            {
              "name": "imageUrl",
              "type": "string",
              "internalType": "string"
            }
          ]
        }
      ],
      "stateMutability": "view"
    },
    {
      "type": "function",
      "name": "getGameListLength",
      "inputs": [],
      "outputs": [
        {
          "name": "",
          "type": "uint256",
          "internalType": "uint256"
        }
      ],
      "stateMutability": "view"
    },
    {
      "type": "function",
      "name": "getGames",
      "inputs": [],
      "outputs": [
        {
          "name": "",
          "type": "tuple[]",
          "internalType": "struct GameFactory.Game[]",
          "components": [
            {
              "name": "creator",
              "type": "address",
              "internalType": "address"
            },
            {
              "name": "cid",
              "type": "string",
              "internalType": "string"
            },
            {
              "name": "token",
              "type": "address",
              "internalType": "address"
            },
            {
              "name": "name",
              "type": "string",
              "internalType": "string"
            },
            {
              "name": "price",
              "type": "uint256",
              "internalType": "uint256"
            },
            {
              "name": "imageUrl",
              "type": "string",
              "internalType": "string"
            }
          ]
        }
      ],
      "stateMutability": "view"
    },
    {
      "type": "function",
      "name": "isGameOwned",
      "inputs": [
        {
          "name": "_cid",
          "type": "string",
          "internalType": "string"
        }
      ],
      "outputs": [
        {
          "name": "",
          "type": "bool",
          "internalType": "bool"
        }
      ],
      "stateMutability": "view"
    },
    {
      "type": "function",
      "name": "publishGame",
      "inputs": [
        {
          "name": "_cid",
          "type": "string",
          "internalType": "string"
        },
        {
          "name": "name",
          "type": "string",
          "internalType": "string"
        },
        {
          "name": "symbol",
          "type": "string",
          "internalType": "string"
        },
        {
          "name": "price",
          "type": "uint256",
          "internalType": "uint256"
        },
        {
          "name": "imageUrl",
          "type": "string",
          "internalType": "string"
        }
      ],
      "outputs": [],
      "stateMutability": "nonpayable"
    },
    {
      "type": "function",
      "name": "withdrawCreatorFunds",
      "inputs": [],
      "outputs": [],
      "stateMutability": "nonpayable"
    },
    {
      "type": "event",
      "name": "CreatorFundsWithdrawn",
      "inputs": [
        {
          "name": "creator",
          "type": "address",
          "indexed": true,
          "internalType": "address"
        }
      ],
      "anonymous": false
    },
    {
      "type": "event",
      "name": "GamePurchased",
      "inputs": [
        {
          "name": "cid",
          "type": "string",
          "indexed": true,
          "internalType": "string"
        },
        {
          "name": "buyer",
          "type": "address",
          "indexed": true,
          "internalType": "address"
        }
      ],
      "anonymous": false
    },
    {
      "type": "event",
      "name": "GameTokenCreated",
      "inputs": [
        {
          "name": "index",
          "type": "uint256",
          "indexed": true,
          "internalType": "uint256"
        },
        {
          "name": "cid",
          "type": "string",
          "indexed": true,
          "internalType": "string"
        },
        {
          "name": "gameToken",
          "type": "address",
          "indexed": true,
          "internalType": "address"
        }
      ],
      "anonymous": false
    },
    {
      "type": "error",
      "name": "InsufficientFunds",
      "inputs": []
    }
  ],
  "bytecode": {
    "object": "0x6080604052600060015534801561001557600080fd5b50612a96806100256000396000f3fe608060405260043610620000795760003560e01c80638d00fe0b11620000545780638d00fe0b1462000113578063c04c5947146200012b578063c379cd781462000152578063dbef6528146200017257600080fd5b80632a60d6ca146200007e578063396130b914620000a55780637fd6145c14620000df575b600080fd5b3480156200008b57600080fd5b50620000a36200009d36600462000e55565b62000189565b005b348015620000b257600080fd5b50620000ca620000c436600462000f19565b620003be565b60405190151581526020015b60405180910390f35b348015620000ec57600080fd5b5062000104620000fe36600462000f19565b6200045c565b604051620000d6919062001030565b3480156200012057600080fd5b50620000a362000697565b3480156200013857600080fd5b50620001436200073a565b604051620000d691906200104c565b3480156200015f57600080fd5b50600354604051908152602001620000d6565b620000a36200018336600462000f19565b62000a24565b60008484836040516200019c9062000d54565b620001aa93929190620010b4565b604051809103906000f080158015620001c7573d6000803e3d6000fd5b506040516335313c2160e11b81523360048201529091506001600160a01b03821690636a62784290602401600060405180830381600087803b1580156200020d57600080fd5b505af115801562000222573d6000803e3d6000fd5b505050506040518060c00160405280336001600160a01b03168152602001878152602001826001600160a01b0316815260200186815260200184815260200183815250600287604051620002779190620010fd565b90815260405160209181900382019020825181546001600160a01b0319166001600160a01b03909116178155908201516001820190620002b89082620011a6565b5060408201516002820180546001600160a01b0319166001600160a01b0390921691909117905560608201516003820190620002f59082620011a6565b506080820151600482015560a08201516005820190620003169082620011a6565b5050600380546001810182556000919091527fc2575a0e9e593c00f959f8c92f12db2869c3395a3b0502d05e2516446f71f85b019050620003588782620011a6565b50806001600160a01b031686604051620003739190620010fd565b6040519081900390206003546200038d9060019062001289565b6040517f1b53114c999ded51a67e2c46b7aba69bd40e2d7a5b1e3e4a8b7f12c122ff3a5090600090a4505050505050565b600080600283604051620003d39190620010fd565b908152604051908190036020018120600201546370a0823160e01b82523360048301526001600160a01b0316915060019082906370a0823190602401602060405180830381865afa1580156200042d573d6000803e3d6000fd5b505050506040513d601f19601f82011682018060405250810190620004539190620012a5565b10159392505050565b6200046662000d62565b600282604051620004789190620010fd565b90815260408051918290036020908101832060c0840190925281546001600160a01b0316835260018201805491840191620004b3906200111b565b80601f0160208091040260200160405190810160405280929190818152602001828054620004e1906200111b565b8015620005325780601f10620005065761010080835404028352916020019162000532565b820191906000526020600020905b8154815290600101906020018083116200051457829003601f168201915b505050918352505060028201546001600160a01b0316602082015260038201805460409092019162000564906200111b565b80601f016020809104026020016040519081016040528092919081815260200182805462000592906200111b565b8015620005e35780601f10620005b757610100808354040283529160200191620005e3565b820191906000526020600020905b815481529060010190602001808311620005c557829003601f168201915b505050505081526020016004820154815260200160058201805462000608906200111b565b80601f016020809104026020016040519081016040528092919081815260200182805462000636906200111b565b8015620006875780601f106200065b5761010080835404028352916020019162000687565b820191906000526020600020905b8154815290600101906020018083116200066957829003601f168201915b5050505050815250509050919050565b336000908152600460205260408120549003620006c75760405163356680b760e01b815260040160405180910390fd5b3360008181526004602052604080822054905181156108fc0292818181858888f19350505050158015620006ff573d6000803e3d6000fd5b5033600081815260046020526040808220829055517fc43456380866b66f35f174ab56efabbeb1145c4bbf6fe8047c2590e378346ef79190a2565b60035460609060009067ffffffffffffffff8111156200075e576200075e62000daa565b6040519080825280602002602001820160405280156200079b57816020015b6200078762000d62565b8152602001906001900390816200077d5790505b50905060005b60035481101562000a1e57600260038281548110620007c457620007c4620012bf565b90600052602060002001604051620007dd9190620012d5565b90815260408051918290036020908101832060c0840190925281546001600160a01b031683526001820180549184019162000818906200111b565b80601f016020809104026020016040519081016040528092919081815260200182805462000846906200111b565b8015620008975780601f106200086b5761010080835404028352916020019162000897565b820191906000526020600020905b8154815290600101906020018083116200087957829003601f168201915b505050918352505060028201546001600160a01b03166020820152600382018054604090920191620008c9906200111b565b80601f0160208091040260200160405190810160405280929190818152602001828054620008f7906200111b565b8015620009485780601f106200091c5761010080835404028352916020019162000948565b820191906000526020600020905b8154815290600101906020018083116200092a57829003601f168201915b50505050508152602001600482015481526020016005820180546200096d906200111b565b80601f01602080910402602001604051908101604052809291908181526020018280546200099b906200111b565b8015620009ec5780601f10620009c057610100808354040283529160200191620009ec565b820191906000526020600020905b815481529060010190602001808311620009ce57829003601f168201915b50505050508152505082828151811062000a0a5762000a0a620012bf565b6020908102919091010152600101620007a1565b50919050565b600060028260405162000a389190620010fd565b90815260408051918290036020908101832060c0840190925281546001600160a01b031683526001820180549184019162000a73906200111b565b80601f016020809104026020016040519081016040528092919081815260200182805462000aa1906200111b565b801562000af25780601f1062000ac65761010080835404028352916020019162000af2565b820191906000526020600020905b81548152906001019060200180831162000ad457829003601f168201915b505050918352505060028201546001600160a01b0316602082015260038201805460409092019162000b24906200111b565b80601f016020809104026020016040519081016040528092919081815260200182805462000b52906200111b565b801562000ba35780601f1062000b775761010080835404028352916020019162000ba3565b820191906000526020600020905b81548152906001019060200180831162000b8557829003601f168201915b505050505081526020016004820154815260200160058201805462000bc8906200111b565b80601f016020809104026020016040519081016040528092919081815260200182805462000bf6906200111b565b801562000c475780601f1062000c1b5761010080835404028352916020019162000c47565b820191906000526020600020905b81548152906001019060200180831162000c2957829003601f168201915b5050505050815250509050806080015134101562000c785760405163356680b760e01b815260040160405180910390fd5b608081015181516001600160a01b03166000908152600460205260408120805490919062000ca890849062001353565b909155505060408181015190516335313c2160e11b81523360048201526001600160a01b03821690636a62784290602401600060405180830381600087803b15801562000cf457600080fd5b505af115801562000d09573d6000803e3d6000fd5b505060405133925062000d1f91508590620010fd565b604051908190038120907fbe5bacc9ccf0e6b2195fb4eef26c0562a005dcdd2c5d064fd26d76de3849920f90600090a3505050565b6116f7806200136a83390190565b6040518060c0016040528060006001600160a01b031681526020016060815260200160006001600160a01b031681526020016060815260200160008152602001606081525090565b634e487b7160e01b600052604160045260246000fd5b600082601f83011262000dd257600080fd5b813567ffffffffffffffff8082111562000df05762000df062000daa565b604051601f8301601f19908116603f0116810190828211818310171562000e1b5762000e1b62000daa565b8160405283815286602085880101111562000e3557600080fd5b836020870160208301376000602085830101528094505050505092915050565b600080600080600060a0868803121562000e6e57600080fd5b853567ffffffffffffffff8082111562000e8757600080fd5b62000e9589838a0162000dc0565b9650602088013591508082111562000eac57600080fd5b62000eba89838a0162000dc0565b9550604088013591508082111562000ed157600080fd5b62000edf89838a0162000dc0565b945060608801359350608088013591508082111562000efd57600080fd5b5062000f0c8882890162000dc0565b9150509295509295909350565b60006020828403121562000f2c57600080fd5b813567ffffffffffffffff81111562000f4457600080fd5b62000f528482850162000dc0565b949350505050565b60005b8381101562000f7757818101518382015260200162000f5d565b50506000910152565b6000815180845262000f9a81602086016020860162000f5a565b601f01601f19169290920160200192915050565b600060018060a01b03808351168452602083015160c0602086015262000fd860c086018262000f80565b905081604085015116604086015260608401519150848103606086015262001001818362000f80565b9150506080830151608085015260a083015184820360a086015262001027828262000f80565b95945050505050565b60208152600062001045602083018462000fae565b9392505050565b600060208083016020845280855180835260408601915060408160051b87010192506020870160005b82811015620010a757603f198886030184526200109485835162000fae565b9450928501929085019060010162001075565b5092979650505050505050565b606081526000620010c9606083018662000f80565b8281036020840152620010dd818662000f80565b90508281036040840152620010f3818562000f80565b9695505050505050565b600082516200111181846020870162000f5a565b9190910192915050565b600181811c908216806200113057607f821691505b60208210810362000a1e57634e487b7160e01b600052602260045260246000fd5b601f821115620011a1576000816000526020600020601f850160051c810160208610156200117c5750805b601f850160051c820191505b818110156200119d5782815560010162001188565b5050505b505050565b815167ffffffffffffffff811115620011c357620011c362000daa565b620011db81620011d484546200111b565b8462001151565b602080601f831160018114620012135760008415620011fa5750858301515b600019600386901b1c1916600185901b1785556200119d565b600085815260208120601f198616915b82811015620012445788860151825594840194600190910190840162001223565b5085821015620012635787850151600019600388901b60f8161c191681555b5050505050600190811b01905550565b634e487b7160e01b600052601160045260246000fd5b818103818111156200129f576200129f62001273565b92915050565b600060208284031215620012b857600080fd5b5051919050565b634e487b7160e01b600052603260045260246000fd5b6000808354620012e5816200111b565b60018281168015620013005760018114620013165762001347565b60ff198416875282151583028701945062001347565b8760005260208060002060005b858110156200133e5781548a82015290840190820162001323565b50505082870194505b50929695505050505050565b808201808211156200129f576200129f6200127356fe60806040523480156200001157600080fd5b50604051620016f7380380620016f78339810160408190526200003491620001c4565b3383836000620000458382620002e6565b506001620000548282620002e6565b5050506001600160a01b0381166200008657604051631e4fbdf760e01b81526000600482015260240160405180910390fd5b6200009181620000aa565b506008620000a08282620002e6565b50505050620003b2565b600680546001600160a01b038381166001600160a01b0319831681179093556040519116919082907f8be0079c531659141344cd1fd0a4f28419497f9722a3daafe3b4186f6b6457e090600090a35050565b634e487b7160e01b600052604160045260246000fd5b600082601f8301126200012457600080fd5b81516001600160401b0380821115620001415762000141620000fc565b604051601f8301601f19908116603f011681019082821181831017156200016c576200016c620000fc565b81604052838152602092508660208588010111156200018a57600080fd5b600091505b83821015620001ae57858201830151818301840152908201906200018f565b6000602085830101528094505050505092915050565b600080600060608486031215620001da57600080fd5b83516001600160401b0380821115620001f257600080fd5b620002008783880162000112565b945060208601519150808211156200021757600080fd5b620002258783880162000112565b935060408601519150808211156200023c57600080fd5b506200024b8682870162000112565b9150509250925092565b600181811c908216806200026a57607f821691505b6020821081036200028b57634e487b7160e01b600052602260045260246000fd5b50919050565b601f821115620002e1576000816000526020600020601f850160051c81016020861015620002bc5750805b601f850160051c820191505b81811015620002dd57828155600101620002c8565b5050505b505050565b81516001600160401b03811115620003025762000302620000fc565b6200031a8162000313845462000255565b8462000291565b602080601f831160018114620003525760008415620003395750858301515b600019600386901b1c1916600185901b178555620002dd565b600085815260208120601f198616915b82811015620003835788860151825594840194600190910190840162000362565b5085821015620003a25787850151600019600388901b60f8161c191681555b5050505050600190811b01905550565b61133580620003c26000396000f3fe608060405234801561001057600080fd5b506004361061010b5760003560e01c806370a08231116100a2578063a22cb46511610071578063a22cb4651461021b578063b88d4fde1461022e578063c87b56dd14610241578063e985e9c514610254578063f2fde38b1461026757600080fd5b806370a08231146101d9578063715018a6146101fa5780638da5cb5b1461020257806395d89b411461021357600080fd5b806323b872dd116100de57806323b872dd1461018d57806342842e0e146101a05780636352211e146101b35780636a627842146101c657600080fd5b806301ffc9a71461011057806306fdde0314610138578063081812fc1461014d578063095ea7b314610178575b600080fd5b61012361011e366004610d5f565b61027a565b60405190151581526020015b60405180910390f35b6101406102cc565b60405161012f9190610dcc565b61016061015b366004610ddf565b61035e565b6040516001600160a01b03909116815260200161012f565b61018b610186366004610e14565b610387565b005b61018b61019b366004610e3e565b610396565b61018b6101ae366004610e3e565b610426565b6101606101c1366004610ddf565b610446565b61018b6101d4366004610e7a565b610451565b6101ec6101e7366004610e7a565b61047d565b60405190815260200161012f565b61018b6104c5565b6006546001600160a01b0316610160565b6101406104d9565b61018b610229366004610e95565b6104e8565b61018b61023c366004610ee7565b6104f3565b61014061024f366004610ddf565b61050b565b610123610262366004610fc3565b610578565b61018b610275366004610e7a565b6105a6565b60006001600160e01b031982166380ac58cd60e01b14806102ab57506001600160e01b03198216635b5e139f60e01b145b806102c657506301ffc9a760e01b6001600160e01b03198316145b92915050565b6060600080546102db90610ff6565b80601f016020809104026020016040519081016040528092919081815260200182805461030790610ff6565b80156103545780601f1061032957610100808354040283529160200191610354565b820191906000526020600020905b81548152906001019060200180831161033757829003601f168201915b5050505050905090565b6000610369826105e4565b506000828152600460205260409020546001600160a01b03166102c6565b61039282823361061d565b5050565b6001600160a01b0382166103c557604051633250574960e11b8152600060048201526024015b60405180910390fd5b60006103d283833361062a565b9050836001600160a01b0316816001600160a01b031614610420576040516364283d7b60e01b81526001600160a01b03808616600483015260248201849052821660448201526064016103bc565b50505050565b610441838383604051806020016040528060008152506104f3565b505050565b60006102c6826105e4565b610459610725565b61046581600754610752565b6007805490600061047583611046565b919050555050565b60006001600160a01b0382166104a9576040516322718ad960e21b8152600060048201526024016103bc565b506001600160a01b031660009081526003602052604090205490565b6104cd610725565b6104d760006107b7565b565b6060600180546102db90610ff6565b610392338383610809565b6104fe848484610396565b61042033858585856108a8565b6060610516826105e4565b506105526105226102cc565b61052a6102cc565b600860405160200161053e9392919061105f565b6040516020818303038152906040526109d3565b60405160200161056291906111d4565b6040516020818303038152906040529050919050565b6001600160a01b03918216600090815260056020908152604080832093909416825291909152205460ff1690565b6105ae610725565b6001600160a01b0381166105d857604051631e4fbdf760e01b8152600060048201526024016103bc565b6105e1816107b7565b50565b6000818152600260205260408120546001600160a01b0316806102c657604051637e27328960e01b8152600481018490526024016103bc565b61044183838360016109f9565b6000828152600260205260408120546001600160a01b039081169083161561065757610657818486610aff565b6001600160a01b03811615610695576106746000856000806109f9565b6001600160a01b038116600090815260036020526040902080546000190190555b6001600160a01b038516156106c4576001600160a01b0385166000908152600360205260409020805460010190555b60008481526002602052604080822080546001600160a01b0319166001600160a01b0389811691821790925591518793918516917fddf252ad1be2c89b69c2b068fc378daa952ba7f163c4a11628f55a4df523b3ef91a490505b9392505050565b6006546001600160a01b031633146104d75760405163118cdaa760e01b81523360048201526024016103bc565b6001600160a01b03821661077c57604051633250574960e11b8152600060048201526024016103bc565b600061078a8383600061062a565b90506001600160a01b03811615610441576040516339e3563760e11b8152600060048201526024016103bc565b600680546001600160a01b038381166001600160a01b0319831681179093556040519116919082907f8be0079c531659141344cd1fd0a4f28419497f9722a3daafe3b4186f6b6457e090600090a35050565b6001600160a01b03821661083b57604051630b61174360e31b81526001600160a01b03831660048201526024016103bc565b6001600160a01b03838116600081815260056020908152604080832094871680845294825291829020805460ff191686151590811790915591519182527f17307eab39ab6107e8899845ad3d59bd9653f200f220920489ca2b5937696c31910160405180910390a3505050565b6001600160a01b0383163b156109cc57604051630a85bd0160e11b81526001600160a01b0384169063150b7a02906108ea908890889087908790600401611219565b6020604051808303816000875af1925050508015610925575060408051601f3d908101601f1916820190925261092291810190611256565b60015b61098e573d808015610953576040519150601f19603f3d011682016040523d82523d6000602084013e610958565b606091505b50805160000361098657604051633250574960e11b81526001600160a01b03851660048201526024016103bc565b805181602001fd5b6001600160e01b03198116630a85bd0160e11b146109ca57604051633250574960e11b81526001600160a01b03851660048201526024016103bc565b505b5050505050565b60606102c6826040518060600160405280604081526020016112c0604091396001610b63565b8080610a0d57506001600160a01b03821615155b15610acf576000610a1d846105e4565b90506001600160a01b03831615801590610a495750826001600160a01b0316816001600160a01b031614155b8015610a5c5750610a5a8184610578565b155b15610a855760405163a9fbf51f60e01b81526001600160a01b03841660048201526024016103bc565b8115610acd5783856001600160a01b0316826001600160a01b03167f8c5be1e5ebec7d5bd14f71427d1e84f3dd0314c0f7b2291e5b200ac8c7c3b92560405160405180910390a45b505b5050600090815260046020526040902080546001600160a01b0319166001600160a01b0392909216919091179055565b610b0a838383610ce3565b610441576001600160a01b038316610b3857604051637e27328960e01b8152600481018290526024016103bc565b60405163177e802f60e01b81526001600160a01b0383166004820152602481018290526044016103bc565b60608351600003610b83575060408051602081019091526000815261071e565b600082610bb457600385516004610b9a9190611273565b610ba590600261128a565b610baf919061129d565b610bd9565b600385516002610bc4919061128a565b610bce919061129d565b610bd9906004611273565b905060008167ffffffffffffffff811115610bf657610bf6610ed1565b6040519080825280601f01601f191660200182016040528015610c20576020820181803683370190505b50905060018501602082018788518901602081018051600082525b82841015610c96576003840193508351603f8160121c168701518653600186019550603f81600c1c168701518653600186019550603f8160061c168701518653600186019550603f8116870151865350600185019450610c3b565b905250508515610cd757600388510660018114610cba5760028114610ccd57610cd5565b603d6001830353603d6002830353610cd5565b603d60018303535b505b50909695505050505050565b60006001600160a01b03831615801590610d415750826001600160a01b0316846001600160a01b03161480610d1d5750610d1d8484610578565b80610d4157506000828152600460205260409020546001600160a01b038481169116145b949350505050565b6001600160e01b0319811681146105e157600080fd5b600060208284031215610d7157600080fd5b813561071e81610d49565b60005b83811015610d97578181015183820152602001610d7f565b50506000910152565b60008151808452610db8816020860160208601610d7c565b601f01601f19169290920160200192915050565b60208152600061071e6020830184610da0565b600060208284031215610df157600080fd5b5035919050565b80356001600160a01b0381168114610e0f57600080fd5b919050565b60008060408385031215610e2757600080fd5b610e3083610df8565b946020939093013593505050565b600080600060608486031215610e5357600080fd5b610e5c84610df8565b9250610e6a60208501610df8565b9150604084013590509250925092565b600060208284031215610e8c57600080fd5b61071e82610df8565b60008060408385031215610ea857600080fd5b610eb183610df8565b915060208301358015158114610ec657600080fd5b809150509250929050565b634e487b7160e01b600052604160045260246000fd5b60008060008060808587031215610efd57600080fd5b610f0685610df8565b9350610f1460208601610df8565b925060408501359150606085013567ffffffffffffffff80821115610f3857600080fd5b818701915087601f830112610f4c57600080fd5b813581811115610f5e57610f5e610ed1565b604051601f8201601f19908116603f01168101908382118183101715610f8657610f86610ed1565b816040528281528a6020848701011115610f9f57600080fd5b82602086016020830137600060208483010152809550505050505092959194509250565b60008060408385031215610fd657600080fd5b610fdf83610df8565b9150610fed60208401610df8565b90509250929050565b600181811c9082168061100a57607f821691505b60208210810361102a57634e487b7160e01b600052602260045260246000fd5b50919050565b634e487b7160e01b600052601160045260246000fd5b60006001820161105857611058611030565b5060010190565b683d913730b6b2911d1160b91b81526000600985516020611087826009870160208b01610d7c565b7f222c20226465736372697074696f6e223a22416e204e465420746861742072656009928601928301527f666c6563747320746865206f776e657273686970206f662067616d65202d2000602983015286516110ea816048850160208b01610d7c565b6201116160ed1b60489390910192830152681134b6b0b3b2911d1160b91b604b808401919091528654600090600181811c908083168061112b57607f831692505b60208310810361114957634e487b7160e01b85526022600452602485fd5b80801561115d576001811461117b576111af565b60ff19851660548a0152604b600985151586028b01010195506111af565b60008d81526020902060005b858110156111a45781548b82018d018a0152908401908901611187565b505060548985010195505b50505050506111c68161227d60f01b815260020190565b9a9950505050505050505050565b7f646174613a6170706c69636174696f6e2f6a736f6e3b6261736536342c00000081526000825161120c81601d850160208701610d7c565b91909101601d0192915050565b6001600160a01b038581168252841660208201526040810183905260806060820181905260009061124c90830184610da0565b9695505050505050565b60006020828403121561126857600080fd5b815161071e81610d49565b80820281158282048414176102c6576102c6611030565b808201808211156102c6576102c6611030565b6000826112ba57634e487b7160e01b600052601260045260246000fd5b50049056fe4142434445464748494a4b4c4d4e4f505152535455565758595a6162636465666768696a6b6c6d6e6f707172737475767778797a303132333435363738392b2fa264697066735822122082d3109dbf44ea91476ce7c4596150066f668992bdc6c4dd2aa164bd0e4fe34f64736f6c63430008180033a2646970667358221220f9892f1254cd5aac126aaadddbefa90b3c4d850fb38d1999a4bf4387b8905c9d64736f6c63430008180033",
    "linkReferences": {}
  },
  "methodIdentifiers": {
    "buyGame(string)": "dbef6528",
    "getGameByCid(string)": "7fd6145c",
    "getGameListLength()": "c379cd78",
    "getGames()": "c04c5947",
    "isGameOwned(string)": "396130b9",
    "publishGame(string,string,string,uint256,string)": "2a60d6ca",
    "withdrawCreatorFunds()": "8d00fe0b"
  },
  "id": 39
}